{
	"src/Guano.sol": {
		"Guano": {
			"abi": [
				{
					"inputs": [],
					"stateMutability": "nonpayable",
					"type": "constructor"
				},
				{
					"inputs": [],
					"name": "AllowanceOverflow",
					"type": "error"
				},
				{
					"inputs": [],
					"name": "AllowanceUnderflow",
					"type": "error"
				},
				{
					"inputs": [],
					"name": "AlreadyInitialized",
					"type": "error"
				},
				{
					"inputs": [],
					"name": "InsufficientAllowance",
					"type": "error"
				},
				{
					"inputs": [],
					"name": "InsufficientBalance",
					"type": "error"
				},
				{
					"inputs": [],
					"name": "InvalidPermit",
					"type": "error"
				},
				{
					"inputs": [],
					"name": "NewOwnerIsZeroAddress",
					"type": "error"
				},
				{
					"inputs": [],
					"name": "NoHandoverRequest",
					"type": "error"
				},
				{
					"inputs": [],
					"name": "Permit2AllowanceIsFixedAtInfinity",
					"type": "error"
				},
				{
					"inputs": [],
					"name": "PermitExpired",
					"type": "error"
				},
				{
					"inputs": [],
					"name": "TotalSupplyOverflow",
					"type": "error"
				},
				{
					"inputs": [],
					"name": "Unauthorized",
					"type": "error"
				},
				{
					"anonymous": false,
					"inputs": [
						{
							"indexed": true,
							"internalType": "address",
							"name": "owner",
							"type": "address"
						},
						{
							"indexed": true,
							"internalType": "address",
							"name": "spender",
							"type": "address"
						},
						{
							"indexed": false,
							"internalType": "uint256",
							"name": "amount",
							"type": "uint256"
						}
					],
					"name": "Approval",
					"type": "event"
				},
				{
					"anonymous": false,
					"inputs": [
						{
							"indexed": true,
							"internalType": "address",
							"name": "pendingOwner",
							"type": "address"
						}
					],
					"name": "OwnershipHandoverCanceled",
					"type": "event"
				},
				{
					"anonymous": false,
					"inputs": [
						{
							"indexed": true,
							"internalType": "address",
							"name": "pendingOwner",
							"type": "address"
						}
					],
					"name": "OwnershipHandoverRequested",
					"type": "event"
				},
				{
					"anonymous": false,
					"inputs": [
						{
							"indexed": true,
							"internalType": "address",
							"name": "oldOwner",
							"type": "address"
						},
						{
							"indexed": true,
							"internalType": "address",
							"name": "newOwner",
							"type": "address"
						}
					],
					"name": "OwnershipTransferred",
					"type": "event"
				},
				{
					"anonymous": false,
					"inputs": [
						{
							"indexed": true,
							"internalType": "address",
							"name": "from",
							"type": "address"
						},
						{
							"indexed": true,
							"internalType": "address",
							"name": "to",
							"type": "address"
						},
						{
							"indexed": false,
							"internalType": "uint256",
							"name": "amount",
							"type": "uint256"
						}
					],
					"name": "Transfer",
					"type": "event"
				},
				{
					"inputs": [],
					"name": "DOMAIN_SEPARATOR",
					"outputs": [
						{
							"internalType": "bytes32",
							"name": "result",
							"type": "bytes32"
						}
					],
					"stateMutability": "view",
					"type": "function"
				},
				{
					"inputs": [
						{
							"internalType": "address",
							"name": "owner",
							"type": "address"
						},
						{
							"internalType": "address",
							"name": "spender",
							"type": "address"
						}
					],
					"name": "allowance",
					"outputs": [
						{
							"internalType": "uint256",
							"name": "result",
							"type": "uint256"
						}
					],
					"stateMutability": "view",
					"type": "function"
				},
				{
					"inputs": [
						{
							"internalType": "address",
							"name": "spender",
							"type": "address"
						},
						{
							"internalType": "uint256",
							"name": "amount",
							"type": "uint256"
						}
					],
					"name": "approve",
					"outputs": [
						{
							"internalType": "bool",
							"name": "",
							"type": "bool"
						}
					],
					"stateMutability": "nonpayable",
					"type": "function"
				},
				{
					"inputs": [],
					"name": "availableShares",
					"outputs": [
						{
							"internalType": "uint256",
							"name": "",
							"type": "uint256"
						}
					],
					"stateMutability": "view",
					"type": "function"
				},
				{
					"inputs": [
						{
							"internalType": "address",
							"name": "owner",
							"type": "address"
						}
					],
					"name": "balanceOf",
					"outputs": [
						{
							"internalType": "uint256",
							"name": "result",
							"type": "uint256"
						}
					],
					"stateMutability": "view",
					"type": "function"
				},
				{
					"inputs": [
						{
							"internalType": "address",
							"name": "sender",
							"type": "address"
						},
						{
							"internalType": "uint256",
							"name": "amount",
							"type": "uint256"
						}
					],
					"name": "burn",
					"outputs": [],
					"stateMutability": "nonpayable",
					"type": "function"
				},
				{
					"inputs": [],
					"name": "cancelOwnershipHandover",
					"outputs": [],
					"stateMutability": "payable",
					"type": "function"
				},
				{
					"inputs": [
						{
							"internalType": "address",
							"name": "pendingOwner",
							"type": "address"
						}
					],
					"name": "completeOwnershipHandover",
					"outputs": [],
					"stateMutability": "payable",
					"type": "function"
				},
				{
					"inputs": [
						{
							"internalType": "uint256",
							"name": "assets",
							"type": "uint256"
						}
					],
					"name": "convertToShares",
					"outputs": [
						{
							"internalType": "uint256",
							"name": "",
							"type": "uint256"
						}
					],
					"stateMutability": "view",
					"type": "function"
				},
				{
					"inputs": [],
					"name": "decimals",
					"outputs": [
						{
							"internalType": "uint8",
							"name": "",
							"type": "uint8"
						}
					],
					"stateMutability": "view",
					"type": "function"
				},
				{
					"inputs": [],
					"name": "mint",
					"outputs": [],
					"stateMutability": "payable",
					"type": "function"
				},
				{
					"inputs": [],
					"name": "name",
					"outputs": [
						{
							"internalType": "string",
							"name": "",
							"type": "string"
						}
					],
					"stateMutability": "pure",
					"type": "function"
				},
				{
					"inputs": [
						{
							"internalType": "address",
							"name": "owner",
							"type": "address"
						}
					],
					"name": "nonces",
					"outputs": [
						{
							"internalType": "uint256",
							"name": "result",
							"type": "uint256"
						}
					],
					"stateMutability": "view",
					"type": "function"
				},
				{
					"inputs": [],
					"name": "owner",
					"outputs": [
						{
							"internalType": "address",
							"name": "result",
							"type": "address"
						}
					],
					"stateMutability": "view",
					"type": "function"
				},
				{
					"inputs": [
						{
							"internalType": "address",
							"name": "pendingOwner",
							"type": "address"
						}
					],
					"name": "ownershipHandoverExpiresAt",
					"outputs": [
						{
							"internalType": "uint256",
							"name": "result",
							"type": "uint256"
						}
					],
					"stateMutability": "view",
					"type": "function"
				},
				{
					"inputs": [
						{
							"internalType": "address",
							"name": "owner",
							"type": "address"
						},
						{
							"internalType": "address",
							"name": "spender",
							"type": "address"
						},
						{
							"internalType": "uint256",
							"name": "value",
							"type": "uint256"
						},
						{
							"internalType": "uint256",
							"name": "deadline",
							"type": "uint256"
						},
						{
							"internalType": "uint8",
							"name": "v",
							"type": "uint8"
						},
						{
							"internalType": "bytes32",
							"name": "r",
							"type": "bytes32"
						},
						{
							"internalType": "bytes32",
							"name": "s",
							"type": "bytes32"
						}
					],
					"name": "permit",
					"outputs": [],
					"stateMutability": "nonpayable",
					"type": "function"
				},
				{
					"inputs": [
						{
							"internalType": "uint256",
							"name": "assets",
							"type": "uint256"
						}
					],
					"name": "previewDeposit",
					"outputs": [
						{
							"internalType": "uint256",
							"name": "",
							"type": "uint256"
						}
					],
					"stateMutability": "view",
					"type": "function"
				},
				{
					"inputs": [],
					"name": "renounceOwnership",
					"outputs": [],
					"stateMutability": "payable",
					"type": "function"
				},
				{
					"inputs": [],
					"name": "requestOwnershipHandover",
					"outputs": [],
					"stateMutability": "payable",
					"type": "function"
				},
				{
					"inputs": [],
					"name": "symbol",
					"outputs": [
						{
							"internalType": "string",
							"name": "",
							"type": "string"
						}
					],
					"stateMutability": "pure",
					"type": "function"
				},
				{
					"inputs": [],
					"name": "totalSupply",
					"outputs": [
						{
							"internalType": "uint256",
							"name": "result",
							"type": "uint256"
						}
					],
					"stateMutability": "view",
					"type": "function"
				},
				{
					"inputs": [
						{
							"internalType": "address",
							"name": "to",
							"type": "address"
						},
						{
							"internalType": "uint256",
							"name": "amount",
							"type": "uint256"
						}
					],
					"name": "transfer",
					"outputs": [
						{
							"internalType": "bool",
							"name": "",
							"type": "bool"
						}
					],
					"stateMutability": "nonpayable",
					"type": "function"
				},
				{
					"inputs": [
						{
							"internalType": "address",
							"name": "from",
							"type": "address"
						},
						{
							"internalType": "address",
							"name": "to",
							"type": "address"
						},
						{
							"internalType": "uint256",
							"name": "amount",
							"type": "uint256"
						}
					],
					"name": "transferFrom",
					"outputs": [
						{
							"internalType": "bool",
							"name": "",
							"type": "bool"
						}
					],
					"stateMutability": "nonpayable",
					"type": "function"
				},
				{
					"inputs": [
						{
							"internalType": "address",
							"name": "newOwner",
							"type": "address"
						}
					],
					"name": "transferOwnership",
					"outputs": [],
					"stateMutability": "payable",
					"type": "function"
				}
			],
			"devdoc": {
				"errors": {
					"AllowanceOverflow()": [
						{
							"details": "The allowance has overflowed."
						}
					],
					"AllowanceUnderflow()": [
						{
							"details": "The allowance has underflowed."
						}
					],
					"AlreadyInitialized()": [
						{
							"details": "Cannot double-initialize."
						}
					],
					"InsufficientAllowance()": [
						{
							"details": "Insufficient allowance."
						}
					],
					"InsufficientBalance()": [
						{
							"details": "Insufficient balance."
						}
					],
					"InvalidPermit()": [
						{
							"details": "The permit is invalid."
						}
					],
					"NewOwnerIsZeroAddress()": [
						{
							"details": "The `newOwner` cannot be the zero address."
						}
					],
					"NoHandoverRequest()": [
						{
							"details": "The `pendingOwner` does not have a valid handover request."
						}
					],
					"Permit2AllowanceIsFixedAtInfinity()": [
						{
							"details": "The allowance of Permit2 is fixed at infinity."
						}
					],
					"PermitExpired()": [
						{
							"details": "The permit has expired."
						}
					],
					"TotalSupplyOverflow()": [
						{
							"details": "The total supply has overflowed."
						}
					],
					"Unauthorized()": [
						{
							"details": "The caller is not authorized to call the function."
						}
					]
				},
				"events": {
					"Approval(address,address,uint256)": {
						"details": "Emitted when `amount` tokens is approved by `owner` to be used by `spender`."
					},
					"OwnershipHandoverCanceled(address)": {
						"details": "The ownership handover to `pendingOwner` has been canceled."
					},
					"OwnershipHandoverRequested(address)": {
						"details": "An ownership handover to `pendingOwner` has been requested."
					},
					"OwnershipTransferred(address,address)": {
						"details": "The ownership is transferred from `oldOwner` to `newOwner`. This event is intentionally kept the same as OpenZeppelin's Ownable to be compatible with indexers and [EIP-173](https://eips.ethereum.org/EIPS/eip-173), despite it not being as lightweight as a single argument event."
					},
					"Transfer(address,address,uint256)": {
						"details": "Emitted when `amount` tokens is transferred from `from` to `to`."
					}
				},
				"kind": "dev",
				"methods": {
					"DOMAIN_SEPARATOR()": {
						"details": "Returns the EIP-712 domain separator for the EIP-2612 permit."
					},
					"allowance(address,address)": {
						"details": "Returns the amount of tokens that `spender` can spend on behalf of `owner`."
					},
					"approve(address,uint256)": {
						"details": "Sets `amount` as the allowance of `spender` over the caller's tokens. Emits a {Approval} event."
					},
					"balanceOf(address)": {
						"details": "Returns the amount of tokens owned by `owner`."
					},
					"cancelOwnershipHandover()": {
						"details": "Cancels the two-step ownership handover to the caller, if any."
					},
					"completeOwnershipHandover(address)": {
						"details": "Allows the owner to complete the two-step ownership handover to `pendingOwner`. Reverts if there is no existing ownership handover requested by `pendingOwner`."
					},
					"decimals()": {
						"details": "Returns the decimals places of the token."
					},
					"name()": {
						"details": "Returns the name of the token."
					},
					"nonces(address)": {
						"details": "Returns the current nonce for `owner`. This value is used to compute the signature for EIP-2612 permit."
					},
					"owner()": {
						"details": "Returns the owner of the contract."
					},
					"ownershipHandoverExpiresAt(address)": {
						"details": "Returns the expiry timestamp for the two-step ownership handover to `pendingOwner`."
					},
					"permit(address,address,uint256,uint256,uint8,bytes32,bytes32)": {
						"details": "Sets `value` as the allowance of `spender` over the tokens of `owner`, authorized by a signed approval by `owner`. Emits a {Approval} event."
					},
					"renounceOwnership()": {
						"details": "Allows the owner to renounce their ownership."
					},
					"requestOwnershipHandover()": {
						"details": "Request a two-step ownership handover to the caller. The request will automatically expire in 48 hours (172800 seconds) by default."
					},
					"symbol()": {
						"details": "Returns the symbol of the token."
					},
					"totalSupply()": {
						"details": "Returns the amount of tokens in existence."
					},
					"transfer(address,uint256)": {
						"details": "Transfer `amount` tokens from the caller to `to`. Requirements: - `from` must at least have `amount`. Emits a {Transfer} event."
					},
					"transferFrom(address,address,uint256)": {
						"details": "Transfers `amount` tokens from `from` to `to`. Note: Does not update the allowance if it is the maximum uint256 value. Requirements: - `from` must at least have `amount`. - The caller must have at least `amount` of allowance to transfer the tokens of `from`. Emits a {Transfer} event."
					},
					"transferOwnership(address)": {
						"details": "Allows the owner to transfer the ownership to `newOwner`."
					}
				},
				"version": 1
			},
			"evm": {
				"assembly": "    /* \"src/Guano.sol\":234:1294  contract Guano is ERC20,Ownable {... */\n  mstore(0x40, 0xa0)\n    /* \"src/Guano.sol\":298:313  block.timestamp */\n  timestamp\n    /* \"src/Guano.sol\":273:313  uint immutable created = block.timestamp */\n  0x80\n  swap1\n  dup2\n  mstore\n  pop\n    /* \"src/Guano.sol\":339:340  0 */\n  0x00\n    /* \"src/Guano.sol\":320:340  uint totalMinted = 0 */\n  0x00\n  sstore\n    /* \"src/Guano.sol\":369:370  0 */\n  0x00\n    /* \"src/Guano.sol\":347:370  uint totalDeposited = 0 */\n  0x01\n  sstore\n    /* \"src/Guano.sol\":396:397  0 */\n  0x00\n    /* \"src/Guano.sol\":377:397  uint totalBurned = 0 */\n  0x02\n  sstore\n    /* \"src/Guano.sol\":426:427  0 */\n  0x00\n    /* \"src/Guano.sol\":404:427  uint totalWithdrawn = 0 */\n  0x03\n  sstore\n    /* \"src/Guano.sol\":436:496  constructor(){... */\n  callvalue\n  dup1\n  iszero\n  tag_1\n  jumpi\n  revert(0x00, 0x00)\ntag_1:\n  pop\n    /* \"src/Guano.sol\":460:488  _initializeOwner(msg.sender) */\n  tag_4\n    /* \"src/Guano.sol\":477:487  msg.sender */\n  caller\n    /* \"src/Guano.sol\":460:476  _initializeOwner */\n  shl(0x20, tag_5)\n    /* \"src/Guano.sol\":460:488  _initializeOwner(msg.sender) */\n  0x20\n  shr\n  jump\t// in\ntag_4:\n    /* \"src/Guano.sol\":234:1294  contract Guano is ERC20,Ownable {... */\n  jump(tag_6)\n    /* \"https://github.com/Vectorized/solady/blob/main/src/auth/Ownable.sol\":4883:6073  function _initializeOwner(address newOwner) internal virtual {... */\ntag_5:\n    /* \"https://github.com/Vectorized/solady/blob/main/src/auth/Ownable.sol\":4958:4981  _guardInitializeOwner() */\n  tag_8\n    /* \"https://github.com/Vectorized/solady/blob/main/src/auth/Ownable.sol\":4958:4979  _guardInitializeOwner */\n  shl(0x20, tag_9)\n    /* \"https://github.com/Vectorized/solady/blob/main/src/auth/Ownable.sol\":4958:4981  _guardInitializeOwner() */\n  0x20\n  shr\n  jump\t// in\ntag_8:\n    /* \"https://github.com/Vectorized/solady/blob/main/src/auth/Ownable.sol\":4954:6067  if (_guardInitializeOwner()) {... */\n  iszero\n  tag_10\n  jumpi\n    /* \"https://github.com/Vectorized/solady/blob/main/src/auth/Ownable.sol\":5088:5099  _OWNER_SLOT */\n  0xffffffffffffffffffffffffffffffffffffffffffffffffffffffff74873927\n    /* \"https://github.com/Vectorized/solady/blob/main/src/auth/Ownable.sol\":5125:5134  ownerSlot */\n  dup1\n    /* \"https://github.com/Vectorized/solady/blob/main/src/auth/Ownable.sol\":5119:5135  sload(ownerSlot) */\n  sload\n    /* \"https://github.com/Vectorized/solady/blob/main/src/auth/Ownable.sol\":5116:5266  if sload(ownerSlot) {... */\n  iszero\n  tag_11\n  jumpi\n    /* \"https://github.com/Vectorized/solady/blob/main/src/auth/Ownable.sol\":5171:5181  0x0dc149f0 */\n  0x0dc149f0\n    /* \"https://github.com/Vectorized/solady/blob/main/src/auth/Ownable.sol\":5165:5169  0x00 */\n  0x00\n    /* \"https://github.com/Vectorized/solady/blob/main/src/auth/Ownable.sol\":5158:5182  mstore(0x00, 0x0dc149f0) */\n  mstore\n    /* \"https://github.com/Vectorized/solady/blob/main/src/auth/Ownable.sol\":5243:5247  0x04 */\n  0x04\n    /* \"https://github.com/Vectorized/solady/blob/main/src/auth/Ownable.sol\":5237:5241  0x1c */\n  0x1c\n    /* \"https://github.com/Vectorized/solady/blob/main/src/auth/Ownable.sol\":5230:5248  revert(0x1c, 0x04) */\n  revert\n    /* \"https://github.com/Vectorized/solady/blob/main/src/auth/Ownable.sol\":5116:5266  if sload(ownerSlot) {... */\ntag_11:\n    /* \"https://github.com/Vectorized/solady/blob/main/src/auth/Ownable.sol\":5355:5363  newOwner */\n  dup2\n    /* \"https://github.com/Vectorized/solady/blob/main/src/auth/Ownable.sol\":5351:5353  96 */\n  0x60\n    /* \"https://github.com/Vectorized/solady/blob/main/src/auth/Ownable.sol\":5347:5364  shl(96, newOwner) */\n  shl\n    /* \"https://github.com/Vectorized/solady/blob/main/src/auth/Ownable.sol\":5343:5345  96 */\n  0x60\n    /* \"https://github.com/Vectorized/solady/blob/main/src/auth/Ownable.sol\":5339:5365  shr(96, shl(96, newOwner)) */\n  shr\n    /* \"https://github.com/Vectorized/solady/blob/main/src/auth/Ownable.sol\":5327:5365  newOwner := shr(96, shl(96, newOwner)) */\n  swap2\n  pop\n    /* \"https://github.com/Vectorized/solady/blob/main/src/auth/Ownable.sol\":5469:5477  newOwner */\n  dup2\n    /* \"https://github.com/Vectorized/solady/blob/main/src/auth/Ownable.sol\":5462:5478  iszero(newOwner) */\n  iszero\n    /* \"https://github.com/Vectorized/solady/blob/main/src/auth/Ownable.sol\":5457:5460  255 */\n  0xff\n    /* \"https://github.com/Vectorized/solady/blob/main/src/auth/Ownable.sol\":5453:5479  shl(255, iszero(newOwner)) */\n  shl\n    /* \"https://github.com/Vectorized/solady/blob/main/src/auth/Ownable.sol\":5443:5451  newOwner */\n  dup3\n    /* \"https://github.com/Vectorized/solady/blob/main/src/auth/Ownable.sol\":5440:5480  or(newOwner, shl(255, iszero(newOwner))) */\n  or\n    /* \"https://github.com/Vectorized/solady/blob/main/src/auth/Ownable.sol\":5429:5438  ownerSlot */\n  dup2\n    /* \"https://github.com/Vectorized/solady/blob/main/src/auth/Ownable.sol\":5422:5481  sstore(ownerSlot, or(newOwner, shl(255, iszero(newOwner)))) */\n  sstore\n    /* \"https://github.com/Vectorized/solady/blob/main/src/auth/Ownable.sol\":5610:5618  newOwner */\n  dup2\n    /* \"https://github.com/Vectorized/solady/blob/main/src/auth/Ownable.sol\":5607:5608  0 */\n  0x00\n    /* \"https://github.com/Vectorized/solady/blob/main/src/auth/Ownable.sol\":5567:5605  _OWNERSHIP_TRANSFERRED_EVENT_SIGNATURE */\n  0x8be0079c531659141344cd1fd0a4f28419497f9722a3daafe3b4186f6b6457e0\n    /* \"https://github.com/Vectorized/solady/blob/main/src/auth/Ownable.sol\":5564:5565  0 */\n  0x00\n    /* \"https://github.com/Vectorized/solady/blob/main/src/auth/Ownable.sol\":5561:5562  0 */\n  0x00\n    /* \"https://github.com/Vectorized/solady/blob/main/src/auth/Ownable.sol\":5556:5619  log3(0, 0, _OWNERSHIP_TRANSFERRED_EVENT_SIGNATURE, 0, newOwner) */\n  log3\n    /* \"https://github.com/Vectorized/solady/blob/main/src/auth/Ownable.sol\":5053:5633  {... */\n  pop\n    /* \"https://github.com/Vectorized/solady/blob/main/src/auth/Ownable.sol\":4954:6067  if (_guardInitializeOwner()) {... */\n  jump(tag_12)\ntag_10:\n    /* \"https://github.com/Vectorized/solady/blob/main/src/auth/Ownable.sol\":5809:5817  newOwner */\n  dup1\n    /* \"https://github.com/Vectorized/solady/blob/main/src/auth/Ownable.sol\":5805:5807  96 */\n  0x60\n    /* \"https://github.com/Vectorized/solady/blob/main/src/auth/Ownable.sol\":5801:5818  shl(96, newOwner) */\n  shl\n    /* \"https://github.com/Vectorized/solady/blob/main/src/auth/Ownable.sol\":5797:5799  96 */\n  0x60\n    /* \"https://github.com/Vectorized/solady/blob/main/src/auth/Ownable.sol\":5793:5819  shr(96, shl(96, newOwner)) */\n  shr\n    /* \"https://github.com/Vectorized/solady/blob/main/src/auth/Ownable.sol\":5781:5819  newOwner := shr(96, shl(96, newOwner)) */\n  swap1\n  pop\n    /* \"https://github.com/Vectorized/solady/blob/main/src/auth/Ownable.sol\":5896:5904  newOwner */\n  dup1\n    /* \"https://github.com/Vectorized/solady/blob/main/src/auth/Ownable.sol\":5883:5894  _OWNER_SLOT */\n  0xffffffffffffffffffffffffffffffffffffffffffffffffffffffff74873927\n    /* \"https://github.com/Vectorized/solady/blob/main/src/auth/Ownable.sol\":5876:5905  sstore(_OWNER_SLOT, newOwner) */\n  sstore\n    /* \"https://github.com/Vectorized/solady/blob/main/src/auth/Ownable.sol\":6034:6042  newOwner */\n  dup1\n    /* \"https://github.com/Vectorized/solady/blob/main/src/auth/Ownable.sol\":6031:6032  0 */\n  0x00\n    /* \"https://github.com/Vectorized/solady/blob/main/src/auth/Ownable.sol\":5991:6029  _OWNERSHIP_TRANSFERRED_EVENT_SIGNATURE */\n  0x8be0079c531659141344cd1fd0a4f28419497f9722a3daafe3b4186f6b6457e0\n    /* \"https://github.com/Vectorized/solady/blob/main/src/auth/Ownable.sol\":5988:5989  0 */\n  0x00\n    /* \"https://github.com/Vectorized/solady/blob/main/src/auth/Ownable.sol\":5985:5986  0 */\n  0x00\n    /* \"https://github.com/Vectorized/solady/blob/main/src/auth/Ownable.sol\":5980:6043  log3(0, 0, _OWNERSHIP_TRANSFERRED_EVENT_SIGNATURE, 0, newOwner) */\n  log3\n    /* \"https://github.com/Vectorized/solady/blob/main/src/auth/Ownable.sol\":4954:6067  if (_guardInitializeOwner()) {... */\ntag_12:\n    /* \"https://github.com/Vectorized/solady/blob/main/src/auth/Ownable.sol\":4883:6073  function _initializeOwner(address newOwner) internal virtual {... */\n  pop\n  jump\t// out\n    /* \"https://github.com/Vectorized/solady/blob/main/src/auth/Ownable.sol\":4348:4426  function _guardInitializeOwner() internal pure virtual returns (bool guard) {} */\ntag_9:\n    /* \"https://github.com/Vectorized/solady/blob/main/src/auth/Ownable.sol\":4412:4422  bool guard */\n  0x00\n    /* \"https://github.com/Vectorized/solady/blob/main/src/auth/Ownable.sol\":4348:4426  function _guardInitializeOwner() internal pure virtual returns (bool guard) {} */\n  swap1\n  jump\t// out\n    /* \"src/Guano.sol\":234:1294  contract Guano is ERC20,Ownable {... */\ntag_6:\n  mload(0x80)\n  codecopy(0x00, dataOffset(sub_0), dataSize(sub_0))\n  0x00\n  assignImmutable(\"0x0227f622f4eada773ae6f97af92d6534c94b72b7108fbd4b2bf2fecdd9a0faeb\")\n  return(0x00, dataSize(sub_0))\nstop\n\nsub_0: assembly {\n        /* \"src/Guano.sol\":234:1294  contract Guano is ERC20,Ownable {... */\n      mstore(0x40, 0x80)\n      jumpi(tag_1, lt(calldatasize, 0x04))\n      shr(0xe0, calldataload(0x00))\n      dup1\n      0x8da5cb5b\n      gt\n      tag_26\n      jumpi\n      dup1\n      0xd505accf\n      gt\n      tag_27\n      jumpi\n      dup1\n      0xd505accf\n      eq\n      tag_20\n      jumpi\n      dup1\n      0xdd62ed3e\n      eq\n      tag_21\n      jumpi\n      dup1\n      0xef8b30f7\n      eq\n      tag_22\n      jumpi\n      dup1\n      0xf04e283e\n      eq\n      tag_23\n      jumpi\n      dup1\n      0xf2fde38b\n      eq\n      tag_24\n      jumpi\n      dup1\n      0xfee81cf4\n      eq\n      tag_25\n      jumpi\n      jump(tag_1)\n    tag_27:\n      dup1\n      0x8da5cb5b\n      eq\n      tag_14\n      jumpi\n      dup1\n      0x95d89b41\n      eq\n      tag_15\n      jumpi\n      dup1\n      0x9dc29fac\n      eq\n      tag_16\n      jumpi\n      dup1\n      0xa173f79e\n      eq\n      tag_17\n      jumpi\n      dup1\n      0xa9059cbb\n      eq\n      tag_18\n      jumpi\n      dup1\n      0xc6e6f592\n      eq\n      tag_19\n      jumpi\n      jump(tag_1)\n    tag_26:\n      dup1\n      0x313ce567\n      gt\n      tag_28\n      jumpi\n      dup1\n      0x313ce567\n      eq\n      tag_8\n      jumpi\n      dup1\n      0x3644e515\n      eq\n      tag_9\n      jumpi\n      dup1\n      0x54d1f13d\n      eq\n      tag_10\n      jumpi\n      dup1\n      0x70a08231\n      eq\n      tag_11\n      jumpi\n      dup1\n      0x715018a6\n      eq\n      tag_12\n      jumpi\n      dup1\n      0x7ecebe00\n      eq\n      tag_13\n      jumpi\n      jump(tag_1)\n    tag_28:\n      dup1\n      0x06fdde03\n      eq\n      tag_2\n      jumpi\n      dup1\n      0x095ea7b3\n      eq\n      tag_3\n      jumpi\n      dup1\n      0x1249c58b\n      eq\n      tag_4\n      jumpi\n      dup1\n      0x18160ddd\n      eq\n      tag_5\n      jumpi\n      dup1\n      0x23b872dd\n      eq\n      tag_6\n      jumpi\n      dup1\n      0x25692962\n      eq\n      tag_7\n      jumpi\n    tag_1:\n      revert(0x00, 0x00)\n        /* \"src/Guano.sol\":504:603  function name() public pure override returns (string memory){... */\n    tag_2:\n      callvalue\n      dup1\n      iszero\n      tag_29\n      jumpi\n      revert(0x00, 0x00)\n    tag_29:\n      pop\n      tag_30\n      tag_31\n      jump\t// in\n    tag_30:\n      mload(0x40)\n      tag_32\n      swap2\n      swap1\n      tag_33\n      jump\t// in\n    tag_32:\n      mload(0x40)\n      dup1\n      swap2\n      sub\n      swap1\n      return\n        /* \"https://github.com/Vectorized/solady/blob/main/src/tokens/ERC20.sol\":8175:9204  function approve(address spender, uint256 amount) public virtual returns (bool) {... */\n    tag_3:\n      callvalue\n      dup1\n      iszero\n      tag_34\n      jumpi\n      revert(0x00, 0x00)\n    tag_34:\n      pop\n      tag_35\n      0x04\n      dup1\n      calldatasize\n      sub\n      dup2\n      add\n      swap1\n      tag_36\n      swap2\n      swap1\n      tag_37\n      jump\t// in\n    tag_36:\n      tag_38\n      jump\t// in\n    tag_35:\n      mload(0x40)\n      tag_39\n      swap2\n      swap1\n      tag_40\n      jump\t// in\n    tag_39:\n      mload(0x40)\n      dup1\n      swap2\n      sub\n      swap1\n      return\n        /* \"src/Guano.sol\":1129:1223  function mint() payable public {... */\n    tag_4:\n      tag_41\n      tag_42\n      jump\t// in\n    tag_41:\n      stop\n        /* \"https://github.com/Vectorized/solady/blob/main/src/tokens/ERC20.sol\":6907:7102  function totalSupply() public view virtual returns (uint256 result) {... */\n    tag_5:\n      callvalue\n      dup1\n      iszero\n      tag_43\n      jumpi\n      revert(0x00, 0x00)\n    tag_43:\n      pop\n      tag_44\n      tag_45\n      jump\t// in\n    tag_44:\n      mload(0x40)\n      tag_46\n      swap2\n      swap1\n      tag_47\n      jump\t// in\n    tag_46:\n      mload(0x40)\n      dup1\n      swap2\n      sub\n      swap1\n      return\n        /* \"https://github.com/Vectorized/solady/blob/main/src/tokens/ERC20.sol\":11165:15918  function transferFrom(address from, address to, uint256 amount) public virtual returns (bool) {... */\n    tag_6:\n      callvalue\n      dup1\n      iszero\n      tag_48\n      jumpi\n      revert(0x00, 0x00)\n    tag_48:\n      pop\n      tag_49\n      0x04\n      dup1\n      calldatasize\n      sub\n      dup2\n      add\n      swap1\n      tag_50\n      swap2\n      swap1\n      tag_51\n      jump\t// in\n    tag_50:\n      tag_52\n      jump\t// in\n    tag_49:\n      mload(0x40)\n      tag_53\n      swap2\n      swap1\n      tag_40\n      jump\t// in\n    tag_53:\n      mload(0x40)\n      dup1\n      swap2\n      sub\n      swap1\n      return\n        /* \"https://github.com/Vectorized/solady/blob/main/src/auth/Ownable.sol\":9021:9638  function requestOwnershipHandover() public payable virtual {... */\n    tag_7:\n      tag_54\n      tag_55\n      jump\t// in\n    tag_54:\n      stop\n        /* \"https://github.com/Vectorized/solady/blob/main/src/tokens/ERC20.sol\":6480:6562  function decimals() public view virtual returns (uint8) {... */\n    tag_8:\n      callvalue\n      dup1\n      iszero\n      tag_56\n      jumpi\n      revert(0x00, 0x00)\n    tag_56:\n      pop\n      tag_57\n      tag_58\n      jump\t// in\n    tag_57:\n      mload(0x40)\n      tag_59\n      swap2\n      swap1\n      tag_60\n      jump\t// in\n    tag_59:\n      mload(0x40)\n      dup1\n      swap2\n      sub\n      swap1\n      return\n        /* \"https://github.com/Vectorized/solady/blob/main/src/tokens/ERC20.sol\":21458:22195  function DOMAIN_SEPARATOR() public view virtual returns (bytes32 result) {... */\n    tag_9:\n      callvalue\n      dup1\n      iszero\n      tag_61\n      jumpi\n      revert(0x00, 0x00)\n    tag_61:\n      pop\n      tag_62\n      tag_63\n      jump\t// in\n    tag_62:\n      mload(0x40)\n      tag_64\n      swap2\n      swap1\n      tag_65\n      jump\t// in\n    tag_64:\n      mload(0x40)\n      dup1\n      swap2\n      sub\n      swap1\n      return\n        /* \"https://github.com/Vectorized/solady/blob/main/src/auth/Ownable.sol\":9720:10176  function cancelOwnershipHandover() public payable virtual {... */\n    tag_10:\n      tag_66\n      tag_67\n      jump\t// in\n    tag_66:\n      stop\n        /* \"https://github.com/Vectorized/solady/blob/main/src/tokens/ERC20.sol\":7168:7454  function balanceOf(address owner) public view virtual returns (uint256 result) {... */\n    tag_11:\n      callvalue\n      dup1\n      iszero\n      tag_68\n      jumpi\n      revert(0x00, 0x00)\n    tag_68:\n      pop\n      tag_69\n      0x04\n      dup1\n      calldatasize\n      sub\n      dup2\n      add\n      swap1\n      tag_70\n      swap2\n      swap1\n      tag_71\n      jump\t// in\n    tag_70:\n      tag_72\n      jump\t// in\n    tag_69:\n      mload(0x40)\n      tag_73\n      swap2\n      swap1\n      tag_47\n      jump\t// in\n    tag_73:\n      mload(0x40)\n      dup1\n      swap2\n      sub\n      swap1\n      return\n        /* \"https://github.com/Vectorized/solady/blob/main/src/auth/Ownable.sol\":8762:8862  function renounceOwnership() public payable virtual onlyOwner {... */\n    tag_12:\n      tag_74\n      tag_75\n      jump\t// in\n    tag_74:\n      stop\n        /* \"https://github.com/Vectorized/solady/blob/main/src/tokens/ERC20.sol\":17137:17477  function nonces(address owner) public view virtual returns (uint256 result) {... */\n    tag_13:\n      callvalue\n      dup1\n      iszero\n      tag_76\n      jumpi\n      revert(0x00, 0x00)\n    tag_76:\n      pop\n      tag_77\n      0x04\n      dup1\n      calldatasize\n      sub\n      dup2\n      add\n      swap1\n      tag_78\n      swap2\n      swap1\n      tag_71\n      jump\t// in\n    tag_78:\n      tag_79\n      jump\t// in\n    tag_77:\n      mload(0x40)\n      tag_80\n      swap2\n      swap1\n      tag_47\n      jump\t// in\n    tag_80:\n      mload(0x40)\n      dup1\n      swap2\n      sub\n      swap1\n      return\n        /* \"https://github.com/Vectorized/solady/blob/main/src/auth/Ownable.sol\":11408:11590  function owner() public view virtual returns (address result) {... */\n    tag_14:\n      callvalue\n      dup1\n      iszero\n      tag_81\n      jumpi\n      revert(0x00, 0x00)\n    tag_81:\n      pop\n      tag_82\n      tag_83\n      jump\t// in\n    tag_82:\n      mload(0x40)\n      tag_84\n      swap2\n      swap1\n      tag_85\n      jump\t// in\n    tag_84:\n      mload(0x40)\n      dup1\n      swap2\n      sub\n      swap1\n      return\n        /* \"src/Guano.sol\":615:710  function symbol() public pure override returns (string memory){... */\n    tag_15:\n      callvalue\n      dup1\n      iszero\n      tag_86\n      jumpi\n      revert(0x00, 0x00)\n    tag_86:\n      pop\n      tag_87\n      tag_88\n      jump\t// in\n    tag_87:\n      mload(0x40)\n      tag_89\n      swap2\n      swap1\n      tag_33\n      jump\t// in\n    tag_89:\n      mload(0x40)\n      dup1\n      swap2\n      sub\n      swap1\n      return\n        /* \"src/Guano.sol\":1231:1291  function burn(address sender, uint amount) public {... */\n    tag_16:\n      callvalue\n      dup1\n      iszero\n      tag_90\n      jumpi\n      revert(0x00, 0x00)\n    tag_90:\n      pop\n      tag_91\n      0x04\n      dup1\n      calldatasize\n      sub\n      dup2\n      add\n      swap1\n      tag_92\n      swap2\n      swap1\n      tag_37\n      jump\t// in\n    tag_92:\n      tag_93\n      jump\t// in\n    tag_91:\n      stop\n        /* \"src/Guano.sol\":718:850  function availableShares() public view returns (uint) {... */\n    tag_17:\n      callvalue\n      dup1\n      iszero\n      tag_94\n      jumpi\n      revert(0x00, 0x00)\n    tag_94:\n      pop\n      tag_95\n      tag_96\n      jump\t// in\n    tag_95:\n      mload(0x40)\n      tag_97\n      swap2\n      swap1\n      tag_47\n      jump\t// in\n    tag_97:\n      mload(0x40)\n      dup1\n      swap2\n      sub\n      swap1\n      return\n        /* \"https://github.com/Vectorized/solady/blob/main/src/tokens/ERC20.sol\":9391:10797  function transfer(address to, uint256 amount) public virtual returns (bool) {... */\n    tag_18:\n      callvalue\n      dup1\n      iszero\n      tag_98\n      jumpi\n      revert(0x00, 0x00)\n    tag_98:\n      pop\n      tag_99\n      0x04\n      dup1\n      calldatasize\n      sub\n      dup2\n      add\n      swap1\n      tag_100\n      swap2\n      swap1\n      tag_37\n      jump\t// in\n    tag_100:\n      tag_101\n      jump\t// in\n    tag_99:\n      mload(0x40)\n      tag_102\n      swap2\n      swap1\n      tag_40\n      jump\t// in\n    tag_102:\n      mload(0x40)\n      dup1\n      swap2\n      sub\n      swap1\n      return\n        /* \"src/Guano.sol\":862:996  function convertToShares(uint assets) public view returns (uint) {... */\n    tag_19:\n      callvalue\n      dup1\n      iszero\n      tag_103\n      jumpi\n      revert(0x00, 0x00)\n    tag_103:\n      pop\n      tag_104\n      0x04\n      dup1\n      calldatasize\n      sub\n      dup2\n      add\n      swap1\n      tag_105\n      swap2\n      swap1\n      tag_106\n      jump\t// in\n    tag_105:\n      tag_107\n      jump\t// in\n    tag_104:\n      mload(0x40)\n      tag_108\n      swap2\n      swap1\n      tag_47\n      jump\t// in\n    tag_108:\n      mload(0x40)\n      dup1\n      swap2\n      sub\n      swap1\n      return\n        /* \"https://github.com/Vectorized/solady/blob/main/src/tokens/ERC20.sol\":17661:21377  function permit(... */\n    tag_20:\n      callvalue\n      dup1\n      iszero\n      tag_109\n      jumpi\n      revert(0x00, 0x00)\n    tag_109:\n      pop\n      tag_110\n      0x04\n      dup1\n      calldatasize\n      sub\n      dup2\n      add\n      swap1\n      tag_111\n      swap2\n      swap1\n      tag_112\n      jump\t// in\n    tag_111:\n      tag_113\n      jump\t// in\n    tag_110:\n      stop\n        /* \"https://github.com/Vectorized/solady/blob/main/src/tokens/ERC20.sol\":7549:8044  function allowance(address owner, address spender)... */\n    tag_21:\n      callvalue\n      dup1\n      iszero\n      tag_114\n      jumpi\n      revert(0x00, 0x00)\n    tag_114:\n      pop\n      tag_115\n      0x04\n      dup1\n      calldatasize\n      sub\n      dup2\n      add\n      swap1\n      tag_116\n      swap2\n      swap1\n      tag_117\n      jump\t// in\n    tag_116:\n      tag_118\n      jump\t// in\n    tag_115:\n      mload(0x40)\n      tag_119\n      swap2\n      swap1\n      tag_47\n      jump\t// in\n    tag_119:\n      mload(0x40)\n      dup1\n      swap2\n      sub\n      swap1\n      return\n        /* \"src/Guano.sol\":1008:1121  function previewDeposit(uint assets) public view returns (uint) {... */\n    tag_22:\n      callvalue\n      dup1\n      iszero\n      tag_120\n      jumpi\n      revert(0x00, 0x00)\n    tag_120:\n      pop\n      tag_121\n      0x04\n      dup1\n      calldatasize\n      sub\n      dup2\n      add\n      swap1\n      tag_122\n      swap2\n      swap1\n      tag_106\n      jump\t// in\n    tag_122:\n      tag_123\n      jump\t// in\n    tag_121:\n      mload(0x40)\n      tag_124\n      swap2\n      swap1\n      tag_47\n      jump\t// in\n    tag_124:\n      mload(0x40)\n      dup1\n      swap2\n      sub\n      swap1\n      return\n        /* \"https://github.com/Vectorized/solady/blob/main/src/auth/Ownable.sol\":10363:11071  function completeOwnershipHandover(address pendingOwner) public payable virtual onlyOwner {... */\n    tag_23:\n      tag_125\n      0x04\n      dup1\n      calldatasize\n      sub\n      dup2\n      add\n      swap1\n      tag_126\n      swap2\n      swap1\n      tag_71\n      jump\t// in\n    tag_126:\n      tag_127\n      jump\t// in\n    tag_125:\n      stop\n        /* \"https://github.com/Vectorized/solady/blob/main/src/auth/Ownable.sol\":8348:8697  function transferOwnership(address newOwner) public payable virtual onlyOwner {... */\n    tag_24:\n      tag_128\n      0x04\n      dup1\n      calldatasize\n      sub\n      dup2\n      add\n      swap1\n      tag_129\n      swap2\n      swap1\n      tag_71\n      jump\t// in\n    tag_129:\n      tag_130\n      jump\t// in\n    tag_128:\n      stop\n        /* \"https://github.com/Vectorized/solady/blob/main/src/auth/Ownable.sol\":11693:12128  function ownershipHandoverExpiresAt(address pendingOwner)... */\n    tag_25:\n      callvalue\n      dup1\n      iszero\n      tag_131\n      jumpi\n      revert(0x00, 0x00)\n    tag_131:\n      pop\n      tag_132\n      0x04\n      dup1\n      calldatasize\n      sub\n      dup2\n      add\n      swap1\n      tag_133\n      swap2\n      swap1\n      tag_71\n      jump\t// in\n    tag_133:\n      tag_134\n      jump\t// in\n    tag_132:\n      mload(0x40)\n      tag_135\n      swap2\n      swap1\n      tag_47\n      jump\t// in\n    tag_135:\n      mload(0x40)\n      dup1\n      swap2\n      sub\n      swap1\n      return\n        /* \"src/Guano.sol\":504:603  function name() public pure override returns (string memory){... */\n    tag_31:\n        /* \"src/Guano.sol\":550:563  string memory */\n      0x60\n        /* \"src/Guano.sol\":575:595  return \"Kaiju Guano\" */\n      mload(0x40)\n      dup1\n      0x40\n      add\n      0x40\n      mstore\n      dup1\n      0x0b\n      dup2\n      mstore\n      0x20\n      add\n      0x4b61696a75204775616e6f000000000000000000000000000000000000000000\n      dup2\n      mstore\n      pop\n      swap1\n      pop\n        /* \"src/Guano.sol\":504:603  function name() public pure override returns (string memory){... */\n      swap1\n      jump\t// out\n        /* \"https://github.com/Vectorized/solady/blob/main/src/tokens/ERC20.sol\":8175:9204  function approve(address spender, uint256 amount) public virtual returns (bool) {... */\n    tag_38:\n        /* \"https://github.com/Vectorized/solady/blob/main/src/tokens/ERC20.sol\":8249:8253  bool */\n      0x00\n        /* \"https://github.com/Vectorized/solady/blob/main/src/tokens/ERC20.sol\":8269:8300  _givePermit2InfiniteAllowance() */\n      tag_138\n        /* \"https://github.com/Vectorized/solady/blob/main/src/tokens/ERC20.sol\":8269:8298  _givePermit2InfiniteAllowance */\n      tag_139\n        /* \"https://github.com/Vectorized/solady/blob/main/src/tokens/ERC20.sol\":8269:8300  _givePermit2InfiniteAllowance() */\n      jump\t// in\n    tag_138:\n        /* \"https://github.com/Vectorized/solady/blob/main/src/tokens/ERC20.sol\":8265:8712  if (_givePermit2InfiniteAllowance()) {... */\n      iszero\n      tag_140\n      jumpi\n        /* \"https://github.com/Vectorized/solady/blob/main/src/tokens/ERC20.sol\":8532:8538  amount */\n      dup2\n        /* \"https://github.com/Vectorized/solady/blob/main/src/tokens/ERC20.sol\":8528:8539  not(amount) */\n      not\n        /* \"https://github.com/Vectorized/solady/blob/main/src/tokens/ERC20.sol\":8521:8540  iszero(not(amount)) */\n      iszero\n        /* \"https://github.com/Vectorized/solady/blob/main/src/tokens/ERC20.sol\":8510:8518  _PERMIT2 */\n      0x22d473030f116ddee9f6b43ac78ba3\n        /* \"https://github.com/Vectorized/solady/blob/main/src/tokens/ERC20.sol\":8499:8506  spender */\n      dup5\n        /* \"https://github.com/Vectorized/solady/blob/main/src/tokens/ERC20.sol\":8495:8497  96 */\n      0x60\n        /* \"https://github.com/Vectorized/solady/blob/main/src/tokens/ERC20.sol\":8491:8507  shl(96, spender) */\n      shl\n        /* \"https://github.com/Vectorized/solady/blob/main/src/tokens/ERC20.sol\":8487:8489  96 */\n      0x60\n        /* \"https://github.com/Vectorized/solady/blob/main/src/tokens/ERC20.sol\":8483:8508  shr(96, shl(96, spender)) */\n      shr\n        /* \"https://github.com/Vectorized/solady/blob/main/src/tokens/ERC20.sol\":8479:8519  xor(shr(96, shl(96, spender)), _PERMIT2) */\n      xor\n        /* \"https://github.com/Vectorized/solady/blob/main/src/tokens/ERC20.sol\":8476:8541  or(xor(shr(96, shl(96, spender)), _PERMIT2), iszero(not(amount))) */\n      or\n        /* \"https://github.com/Vectorized/solady/blob/main/src/tokens/ERC20.sol\":8466:8688  if iszero(or(xor(shr(96, shl(96, spender)), _PERMIT2), iszero(not(amount)))) {... */\n      tag_141\n      jumpi\n        /* \"https://github.com/Vectorized/solady/blob/main/src/tokens/ERC20.sol\":8578:8588  0x3f68539a */\n      0x3f68539a\n        /* \"https://github.com/Vectorized/solady/blob/main/src/tokens/ERC20.sol\":8572:8576  0x00 */\n      0x00\n        /* \"https://github.com/Vectorized/solady/blob/main/src/tokens/ERC20.sol\":8565:8589  mstore(0x00, 0x3f68539a) */\n      mstore\n        /* \"https://github.com/Vectorized/solady/blob/main/src/tokens/ERC20.sol\":8665:8669  0x04 */\n      0x04\n        /* \"https://github.com/Vectorized/solady/blob/main/src/tokens/ERC20.sol\":8659:8663  0x1c */\n      0x1c\n        /* \"https://github.com/Vectorized/solady/blob/main/src/tokens/ERC20.sol\":8652:8670  revert(0x1c, 0x04) */\n      revert\n        /* \"https://github.com/Vectorized/solady/blob/main/src/tokens/ERC20.sol\":8466:8688  if iszero(or(xor(shr(96, shl(96, spender)), _PERMIT2), iszero(not(amount)))) {... */\n    tag_141:\n        /* \"https://github.com/Vectorized/solady/blob/main/src/tokens/ERC20.sol\":8265:8712  if (_givePermit2InfiniteAllowance()) {... */\n    tag_140:\n        /* \"https://github.com/Vectorized/solady/blob/main/src/tokens/ERC20.sol\":8864:8871  spender */\n      dup3\n        /* \"https://github.com/Vectorized/solady/blob/main/src/tokens/ERC20.sol\":8858:8862  0x20 */\n      0x20\n        /* \"https://github.com/Vectorized/solady/blob/main/src/tokens/ERC20.sol\":8851:8872  mstore(0x20, spender) */\n      mstore\n        /* \"https://github.com/Vectorized/solady/blob/main/src/tokens/ERC20.sol\":8898:8918  _ALLOWANCE_SLOT_SEED */\n      0x7f5e9f20\n        /* \"https://github.com/Vectorized/solady/blob/main/src/tokens/ERC20.sol\":8892:8896  0x0c */\n      0x0c\n        /* \"https://github.com/Vectorized/solady/blob/main/src/tokens/ERC20.sol\":8885:8919  mstore(0x0c, _ALLOWANCE_SLOT_SEED) */\n      mstore\n        /* \"https://github.com/Vectorized/solady/blob/main/src/tokens/ERC20.sol\":8945:8953  caller() */\n      caller\n        /* \"https://github.com/Vectorized/solady/blob/main/src/tokens/ERC20.sol\":8939:8943  0x00 */\n      0x00\n        /* \"https://github.com/Vectorized/solady/blob/main/src/tokens/ERC20.sol\":8932:8954  mstore(0x00, caller()) */\n      mstore\n        /* \"https://github.com/Vectorized/solady/blob/main/src/tokens/ERC20.sol\":8997:9003  amount */\n      dup2\n        /* \"https://github.com/Vectorized/solady/blob/main/src/tokens/ERC20.sol\":8990:8994  0x34 */\n      0x34\n        /* \"https://github.com/Vectorized/solady/blob/main/src/tokens/ERC20.sol\":8984:8988  0x0c */\n      0x0c\n        /* \"https://github.com/Vectorized/solady/blob/main/src/tokens/ERC20.sol\":8974:8995  keccak256(0x0c, 0x34) */\n      keccak256\n        /* \"https://github.com/Vectorized/solady/blob/main/src/tokens/ERC20.sol\":8967:9004  sstore(keccak256(0x0c, 0x34), amount) */\n      sstore\n        /* \"https://github.com/Vectorized/solady/blob/main/src/tokens/ERC20.sol\":9072:9078  amount */\n      dup2\n        /* \"https://github.com/Vectorized/solady/blob/main/src/tokens/ERC20.sol\":9066:9070  0x00 */\n      0x00\n        /* \"https://github.com/Vectorized/solady/blob/main/src/tokens/ERC20.sol\":9059:9079  mstore(0x00, amount) */\n      mstore\n        /* \"https://github.com/Vectorized/solady/blob/main/src/tokens/ERC20.sol\":9160:9164  0x2c */\n      0x2c\n        /* \"https://github.com/Vectorized/solady/blob/main/src/tokens/ERC20.sol\":9154:9165  mload(0x2c) */\n      mload\n        /* \"https://github.com/Vectorized/solady/blob/main/src/tokens/ERC20.sol\":9150:9152  96 */\n      0x60\n        /* \"https://github.com/Vectorized/solady/blob/main/src/tokens/ERC20.sol\":9146:9166  shr(96, mload(0x2c)) */\n      shr\n        /* \"https://github.com/Vectorized/solady/blob/main/src/tokens/ERC20.sol\":9136:9144  caller() */\n      caller\n        /* \"https://github.com/Vectorized/solady/blob/main/src/tokens/ERC20.sol\":9109:9134  _APPROVAL_EVENT_SIGNATURE */\n      0x8c5be1e5ebec7d5bd14f71427d1e84f3dd0314c0f7b2291e5b200ac8c7c3b925\n        /* \"https://github.com/Vectorized/solady/blob/main/src/tokens/ERC20.sol\":9103:9107  0x20 */\n      0x20\n        /* \"https://github.com/Vectorized/solady/blob/main/src/tokens/ERC20.sol\":9097:9101  0x00 */\n      0x00\n        /* \"https://github.com/Vectorized/solady/blob/main/src/tokens/ERC20.sol\":9092:9167  log3(0x00, 0x20, _APPROVAL_EVENT_SIGNATURE, caller(), shr(96, mload(0x2c))) */\n      log3\n        /* \"https://github.com/Vectorized/solady/blob/main/src/tokens/ERC20.sol\":9193:9197  true */\n      0x01\n        /* \"https://github.com/Vectorized/solady/blob/main/src/tokens/ERC20.sol\":9186:9197  return true */\n      swap1\n      pop\n        /* \"https://github.com/Vectorized/solady/blob/main/src/tokens/ERC20.sol\":8175:9204  function approve(address spender, uint256 amount) public virtual returns (bool) {... */\n      swap3\n      swap2\n      pop\n      pop\n      jump\t// out\n        /* \"src/Guano.sol\":1129:1223  function mint() payable public {... */\n    tag_42:\n        /* \"src/Guano.sol\":1171:1215  _mint(msg.sender, previewDeposit(msg.value)) */\n      tag_143\n        /* \"src/Guano.sol\":1177:1187  msg.sender */\n      caller\n        /* \"src/Guano.sol\":1189:1214  previewDeposit(msg.value) */\n      tag_144\n        /* \"src/Guano.sol\":1204:1213  msg.value */\n      callvalue\n        /* \"src/Guano.sol\":1189:1203  previewDeposit */\n      tag_123\n        /* \"src/Guano.sol\":1189:1214  previewDeposit(msg.value) */\n      jump\t// in\n    tag_144:\n        /* \"src/Guano.sol\":1171:1176  _mint */\n      tag_145\n        /* \"src/Guano.sol\":1171:1215  _mint(msg.sender, previewDeposit(msg.value)) */\n      jump\t// in\n    tag_143:\n        /* \"src/Guano.sol\":1129:1223  function mint() payable public {... */\n      jump\t// out\n        /* \"https://github.com/Vectorized/solady/blob/main/src/tokens/ERC20.sol\":6907:7102  function totalSupply() public view virtual returns (uint256 result) {... */\n    tag_45:\n        /* \"https://github.com/Vectorized/solady/blob/main/src/tokens/ERC20.sol\":6959:6973  uint256 result */\n      0x00\n        /* \"https://github.com/Vectorized/solady/blob/main/src/tokens/ERC20.sol\":7067:7085  _TOTAL_SUPPLY_SLOT */\n      0x05345cdf77eb68f44c\n        /* \"https://github.com/Vectorized/solady/blob/main/src/tokens/ERC20.sol\":7061:7086  sload(_TOTAL_SUPPLY_SLOT) */\n      sload\n        /* \"https://github.com/Vectorized/solady/blob/main/src/tokens/ERC20.sol\":7051:7086  result := sload(_TOTAL_SUPPLY_SLOT) */\n      swap1\n      pop\n        /* \"https://github.com/Vectorized/solady/blob/main/src/tokens/ERC20.sol\":6907:7102  function totalSupply() public view virtual returns (uint256 result) {... */\n      swap1\n      jump\t// out\n        /* \"https://github.com/Vectorized/solady/blob/main/src/tokens/ERC20.sol\":11165:15918  function transferFrom(address from, address to, uint256 amount) public virtual returns (bool) {... */\n    tag_52:\n        /* \"https://github.com/Vectorized/solady/blob/main/src/tokens/ERC20.sol\":11253:11257  bool */\n      0x00\n        /* \"https://github.com/Vectorized/solady/blob/main/src/tokens/ERC20.sol\":11269:11307  _beforeTokenTransfer(from, to, amount) */\n      tag_148\n        /* \"https://github.com/Vectorized/solady/blob/main/src/tokens/ERC20.sol\":11290:11294  from */\n      dup5\n        /* \"https://github.com/Vectorized/solady/blob/main/src/tokens/ERC20.sol\":11296:11298  to */\n      dup5\n        /* \"https://github.com/Vectorized/solady/blob/main/src/tokens/ERC20.sol\":11300:11306  amount */\n      dup5\n        /* \"https://github.com/Vectorized/solady/blob/main/src/tokens/ERC20.sol\":11269:11289  _beforeTokenTransfer */\n      tag_149\n        /* \"https://github.com/Vectorized/solady/blob/main/src/tokens/ERC20.sol\":11269:11307  _beforeTokenTransfer(from, to, amount) */\n      jump\t// in\n    tag_148:\n        /* \"https://github.com/Vectorized/solady/blob/main/src/tokens/ERC20.sol\":11391:11422  _givePermit2InfiniteAllowance() */\n      tag_150\n        /* \"https://github.com/Vectorized/solady/blob/main/src/tokens/ERC20.sol\":11391:11420  _givePermit2InfiniteAllowance */\n      tag_139\n        /* \"https://github.com/Vectorized/solady/blob/main/src/tokens/ERC20.sol\":11391:11422  _givePermit2InfiniteAllowance() */\n      jump\t// in\n    tag_150:\n        /* \"https://github.com/Vectorized/solady/blob/main/src/tokens/ERC20.sol\":11387:15844  if (_givePermit2InfiniteAllowance()) {... */\n      iszero\n      tag_151\n      jumpi\n        /* \"https://github.com/Vectorized/solady/blob/main/src/tokens/ERC20.sol\":11533:11537  from */\n      dup4\n        /* \"https://github.com/Vectorized/solady/blob/main/src/tokens/ERC20.sol\":11529:11531  96 */\n      0x60\n        /* \"https://github.com/Vectorized/solady/blob/main/src/tokens/ERC20.sol\":11525:11538  shl(96, from) */\n      shl\n        /* \"https://github.com/Vectorized/solady/blob/main/src/tokens/ERC20.sol\":11578:11586  _PERMIT2 */\n      0x22d473030f116ddee9f6b43ac78ba3\n        /* \"https://github.com/Vectorized/solady/blob/main/src/tokens/ERC20.sol\":11568:11576  caller() */\n      caller\n        /* \"https://github.com/Vectorized/solady/blob/main/src/tokens/ERC20.sol\":11565:11587  eq(caller(), _PERMIT2) */\n      eq\n        /* \"https://github.com/Vectorized/solady/blob/main/src/tokens/ERC20.sol\":11555:12483  if iszero(eq(caller(), _PERMIT2)) {... */\n      tag_152\n      jumpi\n        /* \"https://github.com/Vectorized/solady/blob/main/src/tokens/ERC20.sol\":11694:11702  caller() */\n      caller\n        /* \"https://github.com/Vectorized/solady/blob/main/src/tokens/ERC20.sol\":11688:11692  0x20 */\n      0x20\n        /* \"https://github.com/Vectorized/solady/blob/main/src/tokens/ERC20.sol\":11681:11703  mstore(0x20, caller()) */\n      mstore\n        /* \"https://github.com/Vectorized/solady/blob/main/src/tokens/ERC20.sol\":11747:11767  _ALLOWANCE_SLOT_SEED */\n      0x7f5e9f20\n        /* \"https://github.com/Vectorized/solady/blob/main/src/tokens/ERC20.sol\":11740:11745  from_ */\n      dup2\n        /* \"https://github.com/Vectorized/solady/blob/main/src/tokens/ERC20.sol\":11737:11768  or(from_, _ALLOWANCE_SLOT_SEED) */\n      or\n        /* \"https://github.com/Vectorized/solady/blob/main/src/tokens/ERC20.sol\":11731:11735  0x0c */\n      0x0c\n        /* \"https://github.com/Vectorized/solady/blob/main/src/tokens/ERC20.sol\":11724:11769  mstore(0x0c, or(from_, _ALLOWANCE_SLOT_SEED)) */\n      mstore\n        /* \"https://github.com/Vectorized/solady/blob/main/src/tokens/ERC20.sol\":11827:11831  0x34 */\n      0x34\n        /* \"https://github.com/Vectorized/solady/blob/main/src/tokens/ERC20.sol\":11821:11825  0x0c */\n      0x0c\n        /* \"https://github.com/Vectorized/solady/blob/main/src/tokens/ERC20.sol\":11811:11832  keccak256(0x0c, 0x34) */\n      keccak256\n        /* \"https://github.com/Vectorized/solady/blob/main/src/tokens/ERC20.sol\":11877:11890  allowanceSlot */\n      dup1\n        /* \"https://github.com/Vectorized/solady/blob/main/src/tokens/ERC20.sol\":11871:11891  sload(allowanceSlot) */\n      sload\n        /* \"https://github.com/Vectorized/solady/blob/main/src/tokens/ERC20.sol\":11993:12003  allowance_ */\n      dup1\n        /* \"https://github.com/Vectorized/solady/blob/main/src/tokens/ERC20.sol\":11989:12004  not(allowance_) */\n      not\n        /* \"https://github.com/Vectorized/solady/blob/main/src/tokens/ERC20.sol\":11986:12465  if not(allowance_) {... */\n      iszero\n      tag_153\n      jumpi\n        /* \"https://github.com/Vectorized/solady/blob/main/src/tokens/ERC20.sol\":12134:12144  allowance_ */\n      dup1\n        /* \"https://github.com/Vectorized/solady/blob/main/src/tokens/ERC20.sol\":12126:12132  amount */\n      dup6\n        /* \"https://github.com/Vectorized/solady/blob/main/src/tokens/ERC20.sol\":12123:12145  gt(amount, allowance_) */\n      gt\n        /* \"https://github.com/Vectorized/solady/blob/main/src/tokens/ERC20.sol\":12120:12303  if gt(amount, allowance_) {... */\n      iszero\n      tag_154\n      jumpi\n        /* \"https://github.com/Vectorized/solady/blob/main/src/tokens/ERC20.sol\":12189:12199  0x13be252b */\n      0x13be252b\n        /* \"https://github.com/Vectorized/solady/blob/main/src/tokens/ERC20.sol\":12183:12187  0x00 */\n      0x00\n        /* \"https://github.com/Vectorized/solady/blob/main/src/tokens/ERC20.sol\":12176:12200  mstore(0x00, 0x13be252b) */\n      mstore\n        /* \"https://github.com/Vectorized/solady/blob/main/src/tokens/ERC20.sol\":12272:12276  0x04 */\n      0x04\n        /* \"https://github.com/Vectorized/solady/blob/main/src/tokens/ERC20.sol\":12266:12270  0x1c */\n      0x1c\n        /* \"https://github.com/Vectorized/solady/blob/main/src/tokens/ERC20.sol\":12259:12277  revert(0x1c, 0x04) */\n      revert\n        /* \"https://github.com/Vectorized/solady/blob/main/src/tokens/ERC20.sol\":12120:12303  if gt(amount, allowance_) {... */\n    tag_154:\n        /* \"https://github.com/Vectorized/solady/blob/main/src/tokens/ERC20.sol\":12435:12441  amount */\n      dup5\n        /* \"https://github.com/Vectorized/solady/blob/main/src/tokens/ERC20.sol\":12423:12433  allowance_ */\n      dup2\n        /* \"https://github.com/Vectorized/solady/blob/main/src/tokens/ERC20.sol\":12419:12442  sub(allowance_, amount) */\n      sub\n        /* \"https://github.com/Vectorized/solady/blob/main/src/tokens/ERC20.sol\":12404:12417  allowanceSlot */\n      dup3\n        /* \"https://github.com/Vectorized/solady/blob/main/src/tokens/ERC20.sol\":12397:12443  sstore(allowanceSlot, sub(allowance_, amount)) */\n      sstore\n        /* \"https://github.com/Vectorized/solady/blob/main/src/tokens/ERC20.sol\":11986:12465  if not(allowance_) {... */\n    tag_153:\n        /* \"https://github.com/Vectorized/solady/blob/main/src/tokens/ERC20.sol\":11589:12483  {... */\n      pop\n      pop\n        /* \"https://github.com/Vectorized/solady/blob/main/src/tokens/ERC20.sol\":11555:12483  if iszero(eq(caller(), _PERMIT2)) {... */\n    tag_152:\n        /* \"https://github.com/Vectorized/solady/blob/main/src/tokens/ERC20.sol\":12587:12605  _BALANCE_SLOT_SEED */\n      0x87a211a2\n        /* \"https://github.com/Vectorized/solady/blob/main/src/tokens/ERC20.sol\":12580:12585  from_ */\n      dup2\n        /* \"https://github.com/Vectorized/solady/blob/main/src/tokens/ERC20.sol\":12577:12606  or(from_, _BALANCE_SLOT_SEED) */\n      or\n        /* \"https://github.com/Vectorized/solady/blob/main/src/tokens/ERC20.sol\":12571:12575  0x0c */\n      0x0c\n        /* \"https://github.com/Vectorized/solady/blob/main/src/tokens/ERC20.sol\":12564:12607  mstore(0x0c, or(from_, _BALANCE_SLOT_SEED)) */\n      mstore\n        /* \"https://github.com/Vectorized/solady/blob/main/src/tokens/ERC20.sol\":12663:12667  0x20 */\n      0x20\n        /* \"https://github.com/Vectorized/solady/blob/main/src/tokens/ERC20.sol\":12657:12661  0x0c */\n      0x0c\n        /* \"https://github.com/Vectorized/solady/blob/main/src/tokens/ERC20.sol\":12647:12668  keccak256(0x0c, 0x20) */\n      keccak256\n        /* \"https://github.com/Vectorized/solady/blob/main/src/tokens/ERC20.sol\":12710:12725  fromBalanceSlot */\n      dup1\n        /* \"https://github.com/Vectorized/solady/blob/main/src/tokens/ERC20.sol\":12704:12726  sload(fromBalanceSlot) */\n      sload\n        /* \"https://github.com/Vectorized/solady/blob/main/src/tokens/ERC20.sol\":12808:12819  fromBalance */\n      dup1\n        /* \"https://github.com/Vectorized/solady/blob/main/src/tokens/ERC20.sol\":12800:12806  amount */\n      dup6\n        /* \"https://github.com/Vectorized/solady/blob/main/src/tokens/ERC20.sol\":12797:12820  gt(amount, fromBalance) */\n      gt\n        /* \"https://github.com/Vectorized/solady/blob/main/src/tokens/ERC20.sol\":12794:12952  if gt(amount, fromBalance) {... */\n      iszero\n      tag_155\n      jumpi\n        /* \"https://github.com/Vectorized/solady/blob/main/src/tokens/ERC20.sol\":12856:12866  0xf4d678b8 */\n      0xf4d678b8\n        /* \"https://github.com/Vectorized/solady/blob/main/src/tokens/ERC20.sol\":12850:12854  0x00 */\n      0x00\n        /* \"https://github.com/Vectorized/solady/blob/main/src/tokens/ERC20.sol\":12843:12867  mstore(0x00, 0xf4d678b8) */\n      mstore\n        /* \"https://github.com/Vectorized/solady/blob/main/src/tokens/ERC20.sol\":12929:12933  0x04 */\n      0x04\n        /* \"https://github.com/Vectorized/solady/blob/main/src/tokens/ERC20.sol\":12923:12927  0x1c */\n      0x1c\n        /* \"https://github.com/Vectorized/solady/blob/main/src/tokens/ERC20.sol\":12916:12934  revert(0x1c, 0x04) */\n      revert\n        /* \"https://github.com/Vectorized/solady/blob/main/src/tokens/ERC20.sol\":12794:12952  if gt(amount, fromBalance) {... */\n    tag_155:\n        /* \"https://github.com/Vectorized/solady/blob/main/src/tokens/ERC20.sol\":13069:13075  amount */\n      dup5\n        /* \"https://github.com/Vectorized/solady/blob/main/src/tokens/ERC20.sol\":13056:13067  fromBalance */\n      dup2\n        /* \"https://github.com/Vectorized/solady/blob/main/src/tokens/ERC20.sol\":13052:13076  sub(fromBalance, amount) */\n      sub\n        /* \"https://github.com/Vectorized/solady/blob/main/src/tokens/ERC20.sol\":13035:13050  fromBalanceSlot */\n      dup3\n        /* \"https://github.com/Vectorized/solady/blob/main/src/tokens/ERC20.sol\":13028:13077  sstore(fromBalanceSlot, sub(fromBalance, amount)) */\n      sstore\n        /* \"https://github.com/Vectorized/solady/blob/main/src/tokens/ERC20.sol\":13160:13162  to */\n      dup6\n        /* \"https://github.com/Vectorized/solady/blob/main/src/tokens/ERC20.sol\":13154:13158  0x00 */\n      0x00\n        /* \"https://github.com/Vectorized/solady/blob/main/src/tokens/ERC20.sol\":13147:13163  mstore(0x00, to) */\n      mstore\n        /* \"https://github.com/Vectorized/solady/blob/main/src/tokens/ERC20.sol\":13217:13221  0x20 */\n      0x20\n        /* \"https://github.com/Vectorized/solady/blob/main/src/tokens/ERC20.sol\":13211:13215  0x0c */\n      0x0c\n        /* \"https://github.com/Vectorized/solady/blob/main/src/tokens/ERC20.sol\":13201:13222  keccak256(0x0c, 0x20) */\n      keccak256\n        /* \"https://github.com/Vectorized/solady/blob/main/src/tokens/ERC20.sol\":13483:13489  amount */\n      dup6\n        /* \"https://github.com/Vectorized/solady/blob/main/src/tokens/ERC20.sol\":13467:13480  toBalanceSlot */\n      dup2\n        /* \"https://github.com/Vectorized/solady/blob/main/src/tokens/ERC20.sol\":13461:13481  sload(toBalanceSlot) */\n      sload\n        /* \"https://github.com/Vectorized/solady/blob/main/src/tokens/ERC20.sol\":13457:13490  add(sload(toBalanceSlot), amount) */\n      add\n        /* \"https://github.com/Vectorized/solady/blob/main/src/tokens/ERC20.sol\":13442:13455  toBalanceSlot */\n      dup2\n        /* \"https://github.com/Vectorized/solady/blob/main/src/tokens/ERC20.sol\":13435:13491  sstore(toBalanceSlot, add(sload(toBalanceSlot), amount)) */\n      sstore\n        /* \"https://github.com/Vectorized/solady/blob/main/src/tokens/ERC20.sol\":13567:13573  amount */\n      dup6\n        /* \"https://github.com/Vectorized/solady/blob/main/src/tokens/ERC20.sol\":13561:13565  0x20 */\n      0x20\n        /* \"https://github.com/Vectorized/solady/blob/main/src/tokens/ERC20.sol\":13554:13574  mstore(0x20, amount) */\n      mstore\n        /* \"https://github.com/Vectorized/solady/blob/main/src/tokens/ERC20.sol\":13665:13669  0x0c */\n      0x0c\n        /* \"https://github.com/Vectorized/solady/blob/main/src/tokens/ERC20.sol\":13659:13670  mload(0x0c) */\n      mload\n        /* \"https://github.com/Vectorized/solady/blob/main/src/tokens/ERC20.sol\":13655:13657  96 */\n      0x60\n        /* \"https://github.com/Vectorized/solady/blob/main/src/tokens/ERC20.sol\":13651:13671  shr(96, mload(0x0c)) */\n      shr\n        /* \"https://github.com/Vectorized/solady/blob/main/src/tokens/ERC20.sol\":13643:13648  from_ */\n      dup5\n        /* \"https://github.com/Vectorized/solady/blob/main/src/tokens/ERC20.sol\":13639:13641  96 */\n      0x60\n        /* \"https://github.com/Vectorized/solady/blob/main/src/tokens/ERC20.sol\":13635:13649  shr(96, from_) */\n      shr\n        /* \"https://github.com/Vectorized/solady/blob/main/src/tokens/ERC20.sol\":13608:13633  _TRANSFER_EVENT_SIGNATURE */\n      0xddf252ad1be2c89b69c2b068fc378daa952ba7f163c4a11628f55a4df523b3ef\n        /* \"https://github.com/Vectorized/solady/blob/main/src/tokens/ERC20.sol\":13602:13606  0x20 */\n      0x20\n        /* \"https://github.com/Vectorized/solady/blob/main/src/tokens/ERC20.sol\":13596:13600  0x20 */\n      dup1\n        /* \"https://github.com/Vectorized/solady/blob/main/src/tokens/ERC20.sol\":13591:13672  log3(0x20, 0x20, _TRANSFER_EVENT_SIGNATURE, shr(96, from_), shr(96, mload(0x0c))) */\n      log3\n        /* \"https://github.com/Vectorized/solady/blob/main/src/tokens/ERC20.sol\":11494:13686  {... */\n      pop\n      pop\n      pop\n      pop\n        /* \"https://github.com/Vectorized/solady/blob/main/src/tokens/ERC20.sol\":11387:15844  if (_givePermit2InfiniteAllowance()) {... */\n      jump(tag_156)\n    tag_151:\n        /* \"https://github.com/Vectorized/solady/blob/main/src/tokens/ERC20.sol\":13811:13815  from */\n      dup4\n        /* \"https://github.com/Vectorized/solady/blob/main/src/tokens/ERC20.sol\":13807:13809  96 */\n      0x60\n        /* \"https://github.com/Vectorized/solady/blob/main/src/tokens/ERC20.sol\":13803:13816  shl(96, from) */\n      shl\n        /* \"https://github.com/Vectorized/solady/blob/main/src/tokens/ERC20.sol\":13912:13920  caller() */\n      caller\n        /* \"https://github.com/Vectorized/solady/blob/main/src/tokens/ERC20.sol\":13906:13910  0x20 */\n      0x20\n        /* \"https://github.com/Vectorized/solady/blob/main/src/tokens/ERC20.sol\":13899:13921  mstore(0x20, caller()) */\n      mstore\n        /* \"https://github.com/Vectorized/solady/blob/main/src/tokens/ERC20.sol\":13961:13981  _ALLOWANCE_SLOT_SEED */\n      0x7f5e9f20\n        /* \"https://github.com/Vectorized/solady/blob/main/src/tokens/ERC20.sol\":13954:13959  from_ */\n      dup2\n        /* \"https://github.com/Vectorized/solady/blob/main/src/tokens/ERC20.sol\":13951:13982  or(from_, _ALLOWANCE_SLOT_SEED) */\n      or\n        /* \"https://github.com/Vectorized/solady/blob/main/src/tokens/ERC20.sol\":13945:13949  0x0c */\n      0x0c\n        /* \"https://github.com/Vectorized/solady/blob/main/src/tokens/ERC20.sol\":13938:13983  mstore(0x0c, or(from_, _ALLOWANCE_SLOT_SEED)) */\n      mstore\n        /* \"https://github.com/Vectorized/solady/blob/main/src/tokens/ERC20.sol\":14037:14041  0x34 */\n      0x34\n        /* \"https://github.com/Vectorized/solady/blob/main/src/tokens/ERC20.sol\":14031:14035  0x0c */\n      0x0c\n        /* \"https://github.com/Vectorized/solady/blob/main/src/tokens/ERC20.sol\":14021:14042  keccak256(0x0c, 0x34) */\n      keccak256\n        /* \"https://github.com/Vectorized/solady/blob/main/src/tokens/ERC20.sol\":14083:14096  allowanceSlot */\n      dup1\n        /* \"https://github.com/Vectorized/solady/blob/main/src/tokens/ERC20.sol\":14077:14097  sload(allowanceSlot) */\n      sload\n        /* \"https://github.com/Vectorized/solady/blob/main/src/tokens/ERC20.sol\":14191:14201  allowance_ */\n      dup1\n        /* \"https://github.com/Vectorized/solady/blob/main/src/tokens/ERC20.sol\":14187:14202  not(allowance_) */\n      not\n        /* \"https://github.com/Vectorized/solady/blob/main/src/tokens/ERC20.sol\":14184:14631  if not(allowance_) {... */\n      iszero\n      tag_157\n      jumpi\n        /* \"https://github.com/Vectorized/solady/blob/main/src/tokens/ERC20.sol\":14324:14334  allowance_ */\n      dup1\n        /* \"https://github.com/Vectorized/solady/blob/main/src/tokens/ERC20.sol\":14316:14322  amount */\n      dup6\n        /* \"https://github.com/Vectorized/solady/blob/main/src/tokens/ERC20.sol\":14313:14335  gt(amount, allowance_) */\n      gt\n        /* \"https://github.com/Vectorized/solady/blob/main/src/tokens/ERC20.sol\":14310:14481  if gt(amount, allowance_) {... */\n      iszero\n      tag_158\n      jumpi\n        /* \"https://github.com/Vectorized/solady/blob/main/src/tokens/ERC20.sol\":14375:14385  0x13be252b */\n      0x13be252b\n        /* \"https://github.com/Vectorized/solady/blob/main/src/tokens/ERC20.sol\":14369:14373  0x00 */\n      0x00\n        /* \"https://github.com/Vectorized/solady/blob/main/src/tokens/ERC20.sol\":14362:14386  mstore(0x00, 0x13be252b) */\n      mstore\n        /* \"https://github.com/Vectorized/solady/blob/main/src/tokens/ERC20.sol\":14454:14458  0x04 */\n      0x04\n        /* \"https://github.com/Vectorized/solady/blob/main/src/tokens/ERC20.sol\":14448:14452  0x1c */\n      0x1c\n        /* \"https://github.com/Vectorized/solady/blob/main/src/tokens/ERC20.sol\":14441:14459  revert(0x1c, 0x04) */\n      revert\n        /* \"https://github.com/Vectorized/solady/blob/main/src/tokens/ERC20.sol\":14310:14481  if gt(amount, allowance_) {... */\n    tag_158:\n        /* \"https://github.com/Vectorized/solady/blob/main/src/tokens/ERC20.sol\":14605:14611  amount */\n      dup5\n        /* \"https://github.com/Vectorized/solady/blob/main/src/tokens/ERC20.sol\":14593:14603  allowance_ */\n      dup2\n        /* \"https://github.com/Vectorized/solady/blob/main/src/tokens/ERC20.sol\":14589:14612  sub(allowance_, amount) */\n      sub\n        /* \"https://github.com/Vectorized/solady/blob/main/src/tokens/ERC20.sol\":14574:14587  allowanceSlot */\n      dup3\n        /* \"https://github.com/Vectorized/solady/blob/main/src/tokens/ERC20.sol\":14567:14613  sstore(allowanceSlot, sub(allowance_, amount)) */\n      sstore\n        /* \"https://github.com/Vectorized/solady/blob/main/src/tokens/ERC20.sol\":14184:14631  if not(allowance_) {... */\n    tag_157:\n        /* \"https://github.com/Vectorized/solady/blob/main/src/tokens/ERC20.sol\":14735:14753  _BALANCE_SLOT_SEED */\n      0x87a211a2\n        /* \"https://github.com/Vectorized/solady/blob/main/src/tokens/ERC20.sol\":14728:14733  from_ */\n      dup4\n        /* \"https://github.com/Vectorized/solady/blob/main/src/tokens/ERC20.sol\":14725:14754  or(from_, _BALANCE_SLOT_SEED) */\n      or\n        /* \"https://github.com/Vectorized/solady/blob/main/src/tokens/ERC20.sol\":14719:14723  0x0c */\n      0x0c\n        /* \"https://github.com/Vectorized/solady/blob/main/src/tokens/ERC20.sol\":14712:14755  mstore(0x0c, or(from_, _BALANCE_SLOT_SEED)) */\n      mstore\n        /* \"https://github.com/Vectorized/solady/blob/main/src/tokens/ERC20.sol\":14811:14815  0x20 */\n      0x20\n        /* \"https://github.com/Vectorized/solady/blob/main/src/tokens/ERC20.sol\":14805:14809  0x0c */\n      0x0c\n        /* \"https://github.com/Vectorized/solady/blob/main/src/tokens/ERC20.sol\":14795:14816  keccak256(0x0c, 0x20) */\n      keccak256\n        /* \"https://github.com/Vectorized/solady/blob/main/src/tokens/ERC20.sol\":14858:14873  fromBalanceSlot */\n      dup1\n        /* \"https://github.com/Vectorized/solady/blob/main/src/tokens/ERC20.sol\":14852:14874  sload(fromBalanceSlot) */\n      sload\n        /* \"https://github.com/Vectorized/solady/blob/main/src/tokens/ERC20.sol\":14956:14967  fromBalance */\n      dup1\n        /* \"https://github.com/Vectorized/solady/blob/main/src/tokens/ERC20.sol\":14948:14954  amount */\n      dup8\n        /* \"https://github.com/Vectorized/solady/blob/main/src/tokens/ERC20.sol\":14945:14968  gt(amount, fromBalance) */\n      gt\n        /* \"https://github.com/Vectorized/solady/blob/main/src/tokens/ERC20.sol\":14942:15100  if gt(amount, fromBalance) {... */\n      iszero\n      tag_159\n      jumpi\n        /* \"https://github.com/Vectorized/solady/blob/main/src/tokens/ERC20.sol\":15004:15014  0xf4d678b8 */\n      0xf4d678b8\n        /* \"https://github.com/Vectorized/solady/blob/main/src/tokens/ERC20.sol\":14998:15002  0x00 */\n      0x00\n        /* \"https://github.com/Vectorized/solady/blob/main/src/tokens/ERC20.sol\":14991:15015  mstore(0x00, 0xf4d678b8) */\n      mstore\n        /* \"https://github.com/Vectorized/solady/blob/main/src/tokens/ERC20.sol\":15077:15081  0x04 */\n      0x04\n        /* \"https://github.com/Vectorized/solady/blob/main/src/tokens/ERC20.sol\":15071:15075  0x1c */\n      0x1c\n        /* \"https://github.com/Vectorized/solady/blob/main/src/tokens/ERC20.sol\":15064:15082  revert(0x1c, 0x04) */\n      revert\n        /* \"https://github.com/Vectorized/solady/blob/main/src/tokens/ERC20.sol\":14942:15100  if gt(amount, fromBalance) {... */\n    tag_159:\n        /* \"https://github.com/Vectorized/solady/blob/main/src/tokens/ERC20.sol\":15217:15223  amount */\n      dup7\n        /* \"https://github.com/Vectorized/solady/blob/main/src/tokens/ERC20.sol\":15204:15215  fromBalance */\n      dup2\n        /* \"https://github.com/Vectorized/solady/blob/main/src/tokens/ERC20.sol\":15200:15224  sub(fromBalance, amount) */\n      sub\n        /* \"https://github.com/Vectorized/solady/blob/main/src/tokens/ERC20.sol\":15183:15198  fromBalanceSlot */\n      dup3\n        /* \"https://github.com/Vectorized/solady/blob/main/src/tokens/ERC20.sol\":15176:15225  sstore(fromBalanceSlot, sub(fromBalance, amount)) */\n      sstore\n        /* \"https://github.com/Vectorized/solady/blob/main/src/tokens/ERC20.sol\":15308:15310  to */\n      dup8\n        /* \"https://github.com/Vectorized/solady/blob/main/src/tokens/ERC20.sol\":15302:15306  0x00 */\n      0x00\n        /* \"https://github.com/Vectorized/solady/blob/main/src/tokens/ERC20.sol\":15295:15311  mstore(0x00, to) */\n      mstore\n        /* \"https://github.com/Vectorized/solady/blob/main/src/tokens/ERC20.sol\":15365:15369  0x20 */\n      0x20\n        /* \"https://github.com/Vectorized/solady/blob/main/src/tokens/ERC20.sol\":15359:15363  0x0c */\n      0x0c\n        /* \"https://github.com/Vectorized/solady/blob/main/src/tokens/ERC20.sol\":15349:15370  keccak256(0x0c, 0x20) */\n      keccak256\n        /* \"https://github.com/Vectorized/solady/blob/main/src/tokens/ERC20.sol\":15631:15637  amount */\n      dup8\n        /* \"https://github.com/Vectorized/solady/blob/main/src/tokens/ERC20.sol\":15615:15628  toBalanceSlot */\n      dup2\n        /* \"https://github.com/Vectorized/solady/blob/main/src/tokens/ERC20.sol\":15609:15629  sload(toBalanceSlot) */\n      sload\n        /* \"https://github.com/Vectorized/solady/blob/main/src/tokens/ERC20.sol\":15605:15638  add(sload(toBalanceSlot), amount) */\n      add\n        /* \"https://github.com/Vectorized/solady/blob/main/src/tokens/ERC20.sol\":15590:15603  toBalanceSlot */\n      dup2\n        /* \"https://github.com/Vectorized/solady/blob/main/src/tokens/ERC20.sol\":15583:15639  sstore(toBalanceSlot, add(sload(toBalanceSlot), amount)) */\n      sstore\n        /* \"https://github.com/Vectorized/solady/blob/main/src/tokens/ERC20.sol\":15715:15721  amount */\n      dup8\n        /* \"https://github.com/Vectorized/solady/blob/main/src/tokens/ERC20.sol\":15709:15713  0x20 */\n      0x20\n        /* \"https://github.com/Vectorized/solady/blob/main/src/tokens/ERC20.sol\":15702:15722  mstore(0x20, amount) */\n      mstore\n        /* \"https://github.com/Vectorized/solady/blob/main/src/tokens/ERC20.sol\":15813:15817  0x0c */\n      0x0c\n        /* \"https://github.com/Vectorized/solady/blob/main/src/tokens/ERC20.sol\":15807:15818  mload(0x0c) */\n      mload\n        /* \"https://github.com/Vectorized/solady/blob/main/src/tokens/ERC20.sol\":15803:15805  96 */\n      0x60\n        /* \"https://github.com/Vectorized/solady/blob/main/src/tokens/ERC20.sol\":15799:15819  shr(96, mload(0x0c)) */\n      shr\n        /* \"https://github.com/Vectorized/solady/blob/main/src/tokens/ERC20.sol\":15791:15796  from_ */\n      dup7\n        /* \"https://github.com/Vectorized/solady/blob/main/src/tokens/ERC20.sol\":15787:15789  96 */\n      0x60\n        /* \"https://github.com/Vectorized/solady/blob/main/src/tokens/ERC20.sol\":15783:15797  shr(96, from_) */\n      shr\n        /* \"https://github.com/Vectorized/solady/blob/main/src/tokens/ERC20.sol\":15756:15781  _TRANSFER_EVENT_SIGNATURE */\n      0xddf252ad1be2c89b69c2b068fc378daa952ba7f163c4a11628f55a4df523b3ef\n        /* \"https://github.com/Vectorized/solady/blob/main/src/tokens/ERC20.sol\":15750:15754  0x20 */\n      0x20\n        /* \"https://github.com/Vectorized/solady/blob/main/src/tokens/ERC20.sol\":15744:15748  0x20 */\n      dup1\n        /* \"https://github.com/Vectorized/solady/blob/main/src/tokens/ERC20.sol\":15739:15820  log3(0x20, 0x20, _TRANSFER_EVENT_SIGNATURE, shr(96, from_), shr(96, mload(0x0c))) */\n      log3\n        /* \"https://github.com/Vectorized/solady/blob/main/src/tokens/ERC20.sol\":13772:15834  {... */\n      pop\n      pop\n      pop\n      pop\n      pop\n      pop\n        /* \"https://github.com/Vectorized/solady/blob/main/src/tokens/ERC20.sol\":11387:15844  if (_givePermit2InfiniteAllowance()) {... */\n    tag_156:\n        /* \"https://github.com/Vectorized/solady/blob/main/src/tokens/ERC20.sol\":15853:15890  _afterTokenTransfer(from, to, amount) */\n      tag_160\n        /* \"https://github.com/Vectorized/solady/blob/main/src/tokens/ERC20.sol\":15873:15877  from */\n      dup5\n        /* \"https://github.com/Vectorized/solady/blob/main/src/tokens/ERC20.sol\":15879:15881  to */\n      dup5\n        /* \"https://github.com/Vectorized/solady/blob/main/src/tokens/ERC20.sol\":15883:15889  amount */\n      dup5\n        /* \"https://github.com/Vectorized/solady/blob/main/src/tokens/ERC20.sol\":15853:15872  _afterTokenTransfer */\n      tag_161\n        /* \"https://github.com/Vectorized/solady/blob/main/src/tokens/ERC20.sol\":15853:15890  _afterTokenTransfer(from, to, amount) */\n      jump\t// in\n    tag_160:\n        /* \"https://github.com/Vectorized/solady/blob/main/src/tokens/ERC20.sol\":15907:15911  true */\n      0x01\n        /* \"https://github.com/Vectorized/solady/blob/main/src/tokens/ERC20.sol\":15900:15911  return true */\n      swap1\n      pop\n        /* \"https://github.com/Vectorized/solady/blob/main/src/tokens/ERC20.sol\":11165:15918  function transferFrom(address from, address to, uint256 amount) public virtual returns (bool) {... */\n      swap4\n      swap3\n      pop\n      pop\n      pop\n      jump\t// out\n        /* \"https://github.com/Vectorized/solady/blob/main/src/auth/Ownable.sol\":9021:9638  function requestOwnershipHandover() public payable virtual {... */\n    tag_55:\n        /* \"https://github.com/Vectorized/solady/blob/main/src/auth/Ownable.sol\":9114:9129  uint256 expires */\n      0x00\n        /* \"https://github.com/Vectorized/solady/blob/main/src/auth/Ownable.sol\":9150:9178  _ownershipHandoverValidFor() */\n      tag_163\n        /* \"https://github.com/Vectorized/solady/blob/main/src/auth/Ownable.sol\":9150:9176  _ownershipHandoverValidFor */\n      tag_164\n        /* \"https://github.com/Vectorized/solady/blob/main/src/auth/Ownable.sol\":9150:9178  _ownershipHandoverValidFor() */\n      jump\t// in\n    tag_163:\n        /* \"https://github.com/Vectorized/solady/blob/main/src/auth/Ownable.sol\":9132:9178  block.timestamp + _ownershipHandoverValidFor() */\n      0xffffffffffffffff\n      and\n        /* \"https://github.com/Vectorized/solady/blob/main/src/auth/Ownable.sol\":9132:9147  block.timestamp */\n      timestamp\n        /* \"https://github.com/Vectorized/solady/blob/main/src/auth/Ownable.sol\":9132:9178  block.timestamp + _ownershipHandoverValidFor() */\n      add\n        /* \"https://github.com/Vectorized/solady/blob/main/src/auth/Ownable.sol\":9114:9178  uint256 expires = block.timestamp + _ownershipHandoverValidFor() */\n      swap1\n      pop\n        /* \"https://github.com/Vectorized/solady/blob/main/src/auth/Ownable.sol\":9346:9365  _HANDOVER_SLOT_SEED */\n      0x389a75e1\n        /* \"https://github.com/Vectorized/solady/blob/main/src/auth/Ownable.sol\":9340:9344  0x0c */\n      0x0c\n        /* \"https://github.com/Vectorized/solady/blob/main/src/auth/Ownable.sol\":9333:9366  mstore(0x0c, _HANDOVER_SLOT_SEED) */\n      mstore\n        /* \"https://github.com/Vectorized/solady/blob/main/src/auth/Ownable.sol\":9396:9404  caller() */\n      caller\n        /* \"https://github.com/Vectorized/solady/blob/main/src/auth/Ownable.sol\":9390:9394  0x00 */\n      0x00\n        /* \"https://github.com/Vectorized/solady/blob/main/src/auth/Ownable.sol\":9383:9405  mstore(0x00, caller()) */\n      mstore\n        /* \"https://github.com/Vectorized/solady/blob/main/src/auth/Ownable.sol\":9452:9459  expires */\n      dup1\n        /* \"https://github.com/Vectorized/solady/blob/main/src/auth/Ownable.sol\":9445:9449  0x20 */\n      0x20\n        /* \"https://github.com/Vectorized/solady/blob/main/src/auth/Ownable.sol\":9439:9443  0x0c */\n      0x0c\n        /* \"https://github.com/Vectorized/solady/blob/main/src/auth/Ownable.sol\":9429:9450  keccak256(0x0c, 0x20) */\n      keccak256\n        /* \"https://github.com/Vectorized/solady/blob/main/src/auth/Ownable.sol\":9422:9460  sstore(keccak256(0x0c, 0x20), expires) */\n      sstore\n        /* \"https://github.com/Vectorized/solady/blob/main/src/auth/Ownable.sol\":9599:9607  caller() */\n      caller\n        /* \"https://github.com/Vectorized/solady/blob/main/src/auth/Ownable.sol\":9552:9597  _OWNERSHIP_HANDOVER_REQUESTED_EVENT_SIGNATURE */\n      0xdbf36a107da19e49527a7176a1babf963b4b0ff8cde35ee35d6cd8f1f9ac7e1d\n        /* \"https://github.com/Vectorized/solady/blob/main/src/auth/Ownable.sol\":9549:9550  0 */\n      0x00\n        /* \"https://github.com/Vectorized/solady/blob/main/src/auth/Ownable.sol\":9546:9547  0 */\n      0x00\n        /* \"https://github.com/Vectorized/solady/blob/main/src/auth/Ownable.sol\":9541:9608  log2(0, 0, _OWNERSHIP_HANDOVER_REQUESTED_EVENT_SIGNATURE, caller()) */\n      log2\n        /* \"https://github.com/Vectorized/solady/blob/main/src/auth/Ownable.sol\":9248:9622  {... */\n      pop\n        /* \"https://github.com/Vectorized/solady/blob/main/src/auth/Ownable.sol\":9021:9638  function requestOwnershipHandover() public payable virtual {... */\n      jump\t// out\n        /* \"https://github.com/Vectorized/solady/blob/main/src/tokens/ERC20.sol\":6480:6562  function decimals() public view virtual returns (uint8) {... */\n    tag_58:\n        /* \"https://github.com/Vectorized/solady/blob/main/src/tokens/ERC20.sol\":6529:6534  uint8 */\n      0x00\n        /* \"https://github.com/Vectorized/solady/blob/main/src/tokens/ERC20.sol\":6553:6555  18 */\n      0x12\n        /* \"https://github.com/Vectorized/solady/blob/main/src/tokens/ERC20.sol\":6546:6555  return 18 */\n      swap1\n      pop\n        /* \"https://github.com/Vectorized/solady/blob/main/src/tokens/ERC20.sol\":6480:6562  function decimals() public view virtual returns (uint8) {... */\n      swap1\n      jump\t// out\n        /* \"https://github.com/Vectorized/solady/blob/main/src/tokens/ERC20.sol\":21458:22195  function DOMAIN_SEPARATOR() public view virtual returns (bytes32 result) {... */\n    tag_63:\n        /* \"https://github.com/Vectorized/solady/blob/main/src/tokens/ERC20.sol\":21515:21529  bytes32 result */\n      0x00\n        /* \"https://github.com/Vectorized/solady/blob/main/src/tokens/ERC20.sol\":21541:21557  bytes32 nameHash */\n      0x00\n        /* \"https://github.com/Vectorized/solady/blob/main/src/tokens/ERC20.sol\":21560:21579  _constantNameHash() */\n      tag_167\n        /* \"https://github.com/Vectorized/solady/blob/main/src/tokens/ERC20.sol\":21560:21577  _constantNameHash */\n      tag_168\n        /* \"https://github.com/Vectorized/solady/blob/main/src/tokens/ERC20.sol\":21560:21579  _constantNameHash() */\n      jump\t// in\n    tag_167:\n        /* \"https://github.com/Vectorized/solady/blob/main/src/tokens/ERC20.sol\":21541:21579  bytes32 nameHash = _constantNameHash() */\n      swap1\n      pop\n        /* \"https://github.com/Vectorized/solady/blob/main/src/tokens/ERC20.sol\":21707:21708  0 */\n      0x00\n        /* \"https://github.com/Vectorized/solady/blob/main/src/tokens/ERC20.sol\":21699:21709  bytes32(0) */\n      0x00\n      shl\n        /* \"https://github.com/Vectorized/solady/blob/main/src/tokens/ERC20.sol\":21687:21695  nameHash */\n      dup2\n        /* \"https://github.com/Vectorized/solady/blob/main/src/tokens/ERC20.sol\":21687:21709  nameHash == bytes32(0) */\n      sub\n        /* \"https://github.com/Vectorized/solady/blob/main/src/tokens/ERC20.sol\":21683:21746  if (nameHash == bytes32(0)) nameHash = keccak256(bytes(name())) */\n      tag_169\n      jumpi\n        /* \"https://github.com/Vectorized/solady/blob/main/src/tokens/ERC20.sol\":21738:21744  name() */\n      tag_170\n        /* \"https://github.com/Vectorized/solady/blob/main/src/tokens/ERC20.sol\":21738:21742  name */\n      tag_31\n        /* \"https://github.com/Vectorized/solady/blob/main/src/tokens/ERC20.sol\":21738:21744  name() */\n      jump\t// in\n    tag_170:\n        /* \"https://github.com/Vectorized/solady/blob/main/src/tokens/ERC20.sol\":21722:21746  keccak256(bytes(name())) */\n      dup1\n      mload\n      swap1\n      0x20\n      add\n      keccak256\n        /* \"https://github.com/Vectorized/solady/blob/main/src/tokens/ERC20.sol\":21711:21746  nameHash = keccak256(bytes(name())) */\n      swap1\n      pop\n        /* \"https://github.com/Vectorized/solady/blob/main/src/tokens/ERC20.sol\":21683:21746  if (nameHash == bytes32(0)) nameHash = keccak256(bytes(name())) */\n    tag_169:\n        /* \"https://github.com/Vectorized/solady/blob/main/src/tokens/ERC20.sol\":21756:21775  bytes32 versionHash */\n      0x00\n        /* \"https://github.com/Vectorized/solady/blob/main/src/tokens/ERC20.sol\":21778:21792  _versionHash() */\n      tag_171\n        /* \"https://github.com/Vectorized/solady/blob/main/src/tokens/ERC20.sol\":21778:21790  _versionHash */\n      tag_172\n        /* \"https://github.com/Vectorized/solady/blob/main/src/tokens/ERC20.sol\":21778:21792  _versionHash() */\n      jump\t// in\n    tag_171:\n        /* \"https://github.com/Vectorized/solady/blob/main/src/tokens/ERC20.sol\":21756:21792  bytes32 versionHash = _versionHash() */\n      swap1\n      pop\n        /* \"https://github.com/Vectorized/solady/blob/main/src/tokens/ERC20.sol\":21883:21887  0x40 */\n      0x40\n        /* \"https://github.com/Vectorized/solady/blob/main/src/tokens/ERC20.sol\":21877:21888  mload(0x40) */\n      mload\n        /* \"https://github.com/Vectorized/solady/blob/main/src/tokens/ERC20.sol\":21944:21960  _DOMAIN_TYPEHASH */\n      0x8b73c3c69bb8fe3d512ecc4cf759cc79239f7b179b0ffacaa9a75d522b39400f\n        /* \"https://github.com/Vectorized/solady/blob/main/src/tokens/ERC20.sol\":21941:21942  m */\n      dup2\n        /* \"https://github.com/Vectorized/solady/blob/main/src/tokens/ERC20.sol\":21934:21961  mstore(m, _DOMAIN_TYPEHASH) */\n      mstore\n        /* \"https://github.com/Vectorized/solady/blob/main/src/tokens/ERC20.sol\":21995:22003  nameHash */\n      dup3\n        /* \"https://github.com/Vectorized/solady/blob/main/src/tokens/ERC20.sol\":21988:21992  0x20 */\n      0x20\n        /* \"https://github.com/Vectorized/solady/blob/main/src/tokens/ERC20.sol\":21985:21986  m */\n      dup3\n        /* \"https://github.com/Vectorized/solady/blob/main/src/tokens/ERC20.sol\":21981:21993  add(m, 0x20) */\n      add\n        /* \"https://github.com/Vectorized/solady/blob/main/src/tokens/ERC20.sol\":21974:22004  mstore(add(m, 0x20), nameHash) */\n      mstore\n        /* \"https://github.com/Vectorized/solady/blob/main/src/tokens/ERC20.sol\":22038:22049  versionHash */\n      dup2\n        /* \"https://github.com/Vectorized/solady/blob/main/src/tokens/ERC20.sol\":22031:22035  0x40 */\n      0x40\n        /* \"https://github.com/Vectorized/solady/blob/main/src/tokens/ERC20.sol\":22028:22029  m */\n      dup3\n        /* \"https://github.com/Vectorized/solady/blob/main/src/tokens/ERC20.sol\":22024:22036  add(m, 0x40) */\n      add\n        /* \"https://github.com/Vectorized/solady/blob/main/src/tokens/ERC20.sol\":22017:22050  mstore(add(m, 0x40), versionHash) */\n      mstore\n        /* \"https://github.com/Vectorized/solady/blob/main/src/tokens/ERC20.sol\":22084:22093  chainid() */\n      chainid\n        /* \"https://github.com/Vectorized/solady/blob/main/src/tokens/ERC20.sol\":22077:22081  0x60 */\n      0x60\n        /* \"https://github.com/Vectorized/solady/blob/main/src/tokens/ERC20.sol\":22074:22075  m */\n      dup3\n        /* \"https://github.com/Vectorized/solady/blob/main/src/tokens/ERC20.sol\":22070:22082  add(m, 0x60) */\n      add\n        /* \"https://github.com/Vectorized/solady/blob/main/src/tokens/ERC20.sol\":22063:22094  mstore(add(m, 0x60), chainid()) */\n      mstore\n        /* \"https://github.com/Vectorized/solady/blob/main/src/tokens/ERC20.sol\":22128:22137  address() */\n      address\n        /* \"https://github.com/Vectorized/solady/blob/main/src/tokens/ERC20.sol\":22121:22125  0x80 */\n      0x80\n        /* \"https://github.com/Vectorized/solady/blob/main/src/tokens/ERC20.sol\":22118:22119  m */\n      dup3\n        /* \"https://github.com/Vectorized/solady/blob/main/src/tokens/ERC20.sol\":22114:22126  add(m, 0x80) */\n      add\n        /* \"https://github.com/Vectorized/solady/blob/main/src/tokens/ERC20.sol\":22107:22138  mstore(add(m, 0x80), address()) */\n      mstore\n        /* \"https://github.com/Vectorized/solady/blob/main/src/tokens/ERC20.sol\":22174:22178  0xa0 */\n      0xa0\n        /* \"https://github.com/Vectorized/solady/blob/main/src/tokens/ERC20.sol\":22171:22172  m */\n      dup2\n        /* \"https://github.com/Vectorized/solady/blob/main/src/tokens/ERC20.sol\":22161:22179  keccak256(m, 0xa0) */\n      keccak256\n        /* \"https://github.com/Vectorized/solady/blob/main/src/tokens/ERC20.sol\":22151:22179  result := keccak256(m, 0xa0) */\n      swap4\n      pop\n        /* \"https://github.com/Vectorized/solady/blob/main/src/tokens/ERC20.sol\":21854:22189  {... */\n      pop\n      pop\n      pop\n        /* \"https://github.com/Vectorized/solady/blob/main/src/tokens/ERC20.sol\":21458:22195  function DOMAIN_SEPARATOR() public view virtual returns (bytes32 result) {... */\n      swap1\n      jump\t// out\n        /* \"https://github.com/Vectorized/solady/blob/main/src/auth/Ownable.sol\":9720:10176  function cancelOwnershipHandover() public payable virtual {... */\n    tag_67:\n        /* \"https://github.com/Vectorized/solady/blob/main/src/auth/Ownable.sol\":9922:9941  _HANDOVER_SLOT_SEED */\n      0x389a75e1\n        /* \"https://github.com/Vectorized/solady/blob/main/src/auth/Ownable.sol\":9916:9920  0x0c */\n      0x0c\n        /* \"https://github.com/Vectorized/solady/blob/main/src/auth/Ownable.sol\":9909:9942  mstore(0x0c, _HANDOVER_SLOT_SEED) */\n      mstore\n        /* \"https://github.com/Vectorized/solady/blob/main/src/auth/Ownable.sol\":9968:9976  caller() */\n      caller\n        /* \"https://github.com/Vectorized/solady/blob/main/src/auth/Ownable.sol\":9962:9966  0x00 */\n      0x00\n        /* \"https://github.com/Vectorized/solady/blob/main/src/auth/Ownable.sol\":9955:9977  mstore(0x00, caller()) */\n      mstore\n        /* \"https://github.com/Vectorized/solady/blob/main/src/auth/Ownable.sol\":10020:10021  0 */\n      0x00\n        /* \"https://github.com/Vectorized/solady/blob/main/src/auth/Ownable.sol\":10013:10017  0x20 */\n      0x20\n        /* \"https://github.com/Vectorized/solady/blob/main/src/auth/Ownable.sol\":10007:10011  0x0c */\n      0x0c\n        /* \"https://github.com/Vectorized/solady/blob/main/src/auth/Ownable.sol\":9997:10018  keccak256(0x0c, 0x20) */\n      keccak256\n        /* \"https://github.com/Vectorized/solady/blob/main/src/auth/Ownable.sol\":9990:10022  sstore(keccak256(0x0c, 0x20), 0) */\n      sstore\n        /* \"https://github.com/Vectorized/solady/blob/main/src/auth/Ownable.sol\":10151:10159  caller() */\n      caller\n        /* \"https://github.com/Vectorized/solady/blob/main/src/auth/Ownable.sol\":10105:10149  _OWNERSHIP_HANDOVER_CANCELED_EVENT_SIGNATURE */\n      0xfa7b8eab7da67f412cc9575ed43464468f9bfbae89d1675917346ca6d8fe3c92\n        /* \"https://github.com/Vectorized/solady/blob/main/src/auth/Ownable.sol\":10102:10103  0 */\n      0x00\n        /* \"https://github.com/Vectorized/solady/blob/main/src/auth/Ownable.sol\":10099:10100  0 */\n      0x00\n        /* \"https://github.com/Vectorized/solady/blob/main/src/auth/Ownable.sol\":10094:10160  log2(0, 0, _OWNERSHIP_HANDOVER_CANCELED_EVENT_SIGNATURE, caller()) */\n      log2\n        /* \"https://github.com/Vectorized/solady/blob/main/src/auth/Ownable.sol\":9720:10176  function cancelOwnershipHandover() public payable virtual {... */\n      jump\t// out\n        /* \"https://github.com/Vectorized/solady/blob/main/src/tokens/ERC20.sol\":7168:7454  function balanceOf(address owner) public view virtual returns (uint256 result) {... */\n    tag_72:\n        /* \"https://github.com/Vectorized/solady/blob/main/src/tokens/ERC20.sol\":7231:7245  uint256 result */\n      0x00\n        /* \"https://github.com/Vectorized/solady/blob/main/src/tokens/ERC20.sol\":7336:7354  _BALANCE_SLOT_SEED */\n      0x87a211a2\n        /* \"https://github.com/Vectorized/solady/blob/main/src/tokens/ERC20.sol\":7330:7334  0x0c */\n      0x0c\n        /* \"https://github.com/Vectorized/solady/blob/main/src/tokens/ERC20.sol\":7323:7355  mstore(0x0c, _BALANCE_SLOT_SEED) */\n      mstore\n        /* \"https://github.com/Vectorized/solady/blob/main/src/tokens/ERC20.sol\":7381:7386  owner */\n      dup2\n        /* \"https://github.com/Vectorized/solady/blob/main/src/tokens/ERC20.sol\":7375:7379  0x00 */\n      0x00\n        /* \"https://github.com/Vectorized/solady/blob/main/src/tokens/ERC20.sol\":7368:7387  mstore(0x00, owner) */\n      mstore\n        /* \"https://github.com/Vectorized/solady/blob/main/src/tokens/ERC20.sol\":7432:7436  0x20 */\n      0x20\n        /* \"https://github.com/Vectorized/solady/blob/main/src/tokens/ERC20.sol\":7426:7430  0x0c */\n      0x0c\n        /* \"https://github.com/Vectorized/solady/blob/main/src/tokens/ERC20.sol\":7416:7437  keccak256(0x0c, 0x20) */\n      keccak256\n        /* \"https://github.com/Vectorized/solady/blob/main/src/tokens/ERC20.sol\":7410:7438  sload(keccak256(0x0c, 0x20)) */\n      sload\n        /* \"https://github.com/Vectorized/solady/blob/main/src/tokens/ERC20.sol\":7400:7438  result := sload(keccak256(0x0c, 0x20)) */\n      swap1\n      pop\n        /* \"https://github.com/Vectorized/solady/blob/main/src/tokens/ERC20.sol\":7168:7454  function balanceOf(address owner) public view virtual returns (uint256 result) {... */\n      swap2\n      swap1\n      pop\n      jump\t// out\n        /* \"https://github.com/Vectorized/solady/blob/main/src/auth/Ownable.sol\":8762:8862  function renounceOwnership() public payable virtual onlyOwner {... */\n    tag_75:\n        /* \"https://github.com/Vectorized/solady/blob/main/src/auth/Ownable.sol\":12517:12530  _checkOwner() */\n      tag_176\n        /* \"https://github.com/Vectorized/solady/blob/main/src/auth/Ownable.sol\":12517:12528  _checkOwner */\n      tag_177\n        /* \"https://github.com/Vectorized/solady/blob/main/src/auth/Ownable.sol\":12517:12530  _checkOwner() */\n      jump\t// in\n    tag_176:\n        /* \"https://github.com/Vectorized/solady/blob/main/src/auth/Ownable.sol\":8834:8855  _setOwner(address(0)) */\n      tag_179\n        /* \"https://github.com/Vectorized/solady/blob/main/src/auth/Ownable.sol\":8852:8853  0 */\n      0x00\n        /* \"https://github.com/Vectorized/solady/blob/main/src/auth/Ownable.sol\":8834:8843  _setOwner */\n      tag_180\n        /* \"https://github.com/Vectorized/solady/blob/main/src/auth/Ownable.sol\":8834:8855  _setOwner(address(0)) */\n      jump\t// in\n    tag_179:\n        /* \"https://github.com/Vectorized/solady/blob/main/src/auth/Ownable.sol\":8762:8862  function renounceOwnership() public payable virtual onlyOwner {... */\n      jump\t// out\n        /* \"https://github.com/Vectorized/solady/blob/main/src/tokens/ERC20.sol\":17137:17477  function nonces(address owner) public view virtual returns (uint256 result) {... */\n    tag_79:\n        /* \"https://github.com/Vectorized/solady/blob/main/src/tokens/ERC20.sol\":17197:17211  uint256 result */\n      0x00\n        /* \"https://github.com/Vectorized/solady/blob/main/src/tokens/ERC20.sol\":17360:17377  _NONCES_SLOT_SEED */\n      0x38377508\n        /* \"https://github.com/Vectorized/solady/blob/main/src/tokens/ERC20.sol\":17354:17358  0x0c */\n      0x0c\n        /* \"https://github.com/Vectorized/solady/blob/main/src/tokens/ERC20.sol\":17347:17378  mstore(0x0c, _NONCES_SLOT_SEED) */\n      mstore\n        /* \"https://github.com/Vectorized/solady/blob/main/src/tokens/ERC20.sol\":17404:17409  owner */\n      dup2\n        /* \"https://github.com/Vectorized/solady/blob/main/src/tokens/ERC20.sol\":17398:17402  0x00 */\n      0x00\n        /* \"https://github.com/Vectorized/solady/blob/main/src/tokens/ERC20.sol\":17391:17410  mstore(0x00, owner) */\n      mstore\n        /* \"https://github.com/Vectorized/solady/blob/main/src/tokens/ERC20.sol\":17455:17459  0x20 */\n      0x20\n        /* \"https://github.com/Vectorized/solady/blob/main/src/tokens/ERC20.sol\":17449:17453  0x0c */\n      0x0c\n        /* \"https://github.com/Vectorized/solady/blob/main/src/tokens/ERC20.sol\":17439:17460  keccak256(0x0c, 0x20) */\n      keccak256\n        /* \"https://github.com/Vectorized/solady/blob/main/src/tokens/ERC20.sol\":17433:17461  sload(keccak256(0x0c, 0x20)) */\n      sload\n        /* \"https://github.com/Vectorized/solady/blob/main/src/tokens/ERC20.sol\":17423:17461  result := sload(keccak256(0x0c, 0x20)) */\n      swap1\n      pop\n        /* \"https://github.com/Vectorized/solady/blob/main/src/tokens/ERC20.sol\":17137:17477  function nonces(address owner) public view virtual returns (uint256 result) {... */\n      swap2\n      swap1\n      pop\n      jump\t// out\n        /* \"https://github.com/Vectorized/solady/blob/main/src/auth/Ownable.sol\":11408:11590  function owner() public view virtual returns (address result) {... */\n    tag_83:\n        /* \"https://github.com/Vectorized/solady/blob/main/src/auth/Ownable.sol\":11454:11468  address result */\n      0x00\n        /* \"https://github.com/Vectorized/solady/blob/main/src/auth/Ownable.sol\":11562:11573  _OWNER_SLOT */\n      0xffffffffffffffffffffffffffffffffffffffffffffffffffffffff74873927\n        /* \"https://github.com/Vectorized/solady/blob/main/src/auth/Ownable.sol\":11556:11574  sload(_OWNER_SLOT) */\n      sload\n        /* \"https://github.com/Vectorized/solady/blob/main/src/auth/Ownable.sol\":11546:11574  result := sload(_OWNER_SLOT) */\n      swap1\n      pop\n        /* \"https://github.com/Vectorized/solady/blob/main/src/auth/Ownable.sol\":11408:11590  function owner() public view virtual returns (address result) {... */\n      swap1\n      jump\t// out\n        /* \"src/Guano.sol\":615:710  function symbol() public pure override returns (string memory){... */\n    tag_88:\n        /* \"src/Guano.sol\":663:676  string memory */\n      0x60\n        /* \"src/Guano.sol\":688:702  return \"GUANO\" */\n      mload(0x40)\n      dup1\n      0x40\n      add\n      0x40\n      mstore\n      dup1\n      0x05\n      dup2\n      mstore\n      0x20\n      add\n      0x4755414e4f000000000000000000000000000000000000000000000000000000\n      dup2\n      mstore\n      pop\n      swap1\n      pop\n        /* \"src/Guano.sol\":615:710  function symbol() public pure override returns (string memory){... */\n      swap1\n      jump\t// out\n        /* \"src/Guano.sol\":1231:1291  function burn(address sender, uint amount) public {... */\n    tag_93:\n      pop\n      pop\n      jump\t// out\n        /* \"src/Guano.sol\":718:850  function availableShares() public view returns (uint) {... */\n    tag_96:\n        /* \"src/Guano.sol\":766:770  uint */\n      0x00\n        /* \"src/Guano.sol\":831:842  totalMinted */\n      sload(0x00)\n        /* \"src/Guano.sol\":820:828  24 hours */\n      0x015180\n        /* \"src/Guano.sol\":809:816  created */\n      immutable(\"0x0227f622f4eada773ae6f97af92d6534c94b72b7108fbd4b2bf2fecdd9a0faeb\")\n        /* \"src/Guano.sol\":791:806  block.timestamp */\n      timestamp\n        /* \"src/Guano.sol\":791:816  block.timestamp - created */\n      tag_186\n      swap2\n      swap1\n      tag_187\n      jump\t// in\n    tag_186:\n        /* \"src/Guano.sol\":790:828  (block.timestamp - created) / 24 hours */\n      tag_188\n      swap2\n      swap1\n      tag_189\n      jump\t// in\n    tag_188:\n        /* \"src/Guano.sol\":790:842  (block.timestamp - created) / 24 hours - totalMinted */\n      tag_190\n      swap2\n      swap1\n      tag_187\n      jump\t// in\n    tag_190:\n        /* \"src/Guano.sol\":783:842  return (block.timestamp - created) / 24 hours - totalMinted */\n      swap1\n      pop\n        /* \"src/Guano.sol\":718:850  function availableShares() public view returns (uint) {... */\n      swap1\n      jump\t// out\n        /* \"https://github.com/Vectorized/solady/blob/main/src/tokens/ERC20.sol\":9391:10797  function transfer(address to, uint256 amount) public virtual returns (bool) {... */\n    tag_101:\n        /* \"https://github.com/Vectorized/solady/blob/main/src/tokens/ERC20.sol\":9461:9465  bool */\n      0x00\n        /* \"https://github.com/Vectorized/solady/blob/main/src/tokens/ERC20.sol\":9477:9521  _beforeTokenTransfer(msg.sender, to, amount) */\n      tag_192\n        /* \"https://github.com/Vectorized/solady/blob/main/src/tokens/ERC20.sol\":9498:9508  msg.sender */\n      caller\n        /* \"https://github.com/Vectorized/solady/blob/main/src/tokens/ERC20.sol\":9510:9512  to */\n      dup5\n        /* \"https://github.com/Vectorized/solady/blob/main/src/tokens/ERC20.sol\":9514:9520  amount */\n      dup5\n        /* \"https://github.com/Vectorized/solady/blob/main/src/tokens/ERC20.sol\":9477:9497  _beforeTokenTransfer */\n      tag_149\n        /* \"https://github.com/Vectorized/solady/blob/main/src/tokens/ERC20.sol\":9477:9521  _beforeTokenTransfer(msg.sender, to, amount) */\n      jump\t// in\n    tag_192:\n        /* \"https://github.com/Vectorized/solady/blob/main/src/tokens/ERC20.sol\":9670:9688  _BALANCE_SLOT_SEED */\n      0x87a211a2\n        /* \"https://github.com/Vectorized/solady/blob/main/src/tokens/ERC20.sol\":9664:9668  0x0c */\n      0x0c\n        /* \"https://github.com/Vectorized/solady/blob/main/src/tokens/ERC20.sol\":9657:9689  mstore(0x0c, _BALANCE_SLOT_SEED) */\n      mstore\n        /* \"https://github.com/Vectorized/solady/blob/main/src/tokens/ERC20.sol\":9715:9723  caller() */\n      caller\n        /* \"https://github.com/Vectorized/solady/blob/main/src/tokens/ERC20.sol\":9709:9713  0x00 */\n      0x00\n        /* \"https://github.com/Vectorized/solady/blob/main/src/tokens/ERC20.sol\":9702:9724  mstore(0x00, caller()) */\n      mstore\n        /* \"https://github.com/Vectorized/solady/blob/main/src/tokens/ERC20.sol\":9776:9780  0x20 */\n      0x20\n        /* \"https://github.com/Vectorized/solady/blob/main/src/tokens/ERC20.sol\":9770:9774  0x0c */\n      0x0c\n        /* \"https://github.com/Vectorized/solady/blob/main/src/tokens/ERC20.sol\":9760:9781  keccak256(0x0c, 0x20) */\n      keccak256\n        /* \"https://github.com/Vectorized/solady/blob/main/src/tokens/ERC20.sol\":9819:9834  fromBalanceSlot */\n      dup1\n        /* \"https://github.com/Vectorized/solady/blob/main/src/tokens/ERC20.sol\":9813:9835  sload(fromBalanceSlot) */\n      sload\n        /* \"https://github.com/Vectorized/solady/blob/main/src/tokens/ERC20.sol\":9909:9920  fromBalance */\n      dup1\n        /* \"https://github.com/Vectorized/solady/blob/main/src/tokens/ERC20.sol\":9901:9907  amount */\n      dup5\n        /* \"https://github.com/Vectorized/solady/blob/main/src/tokens/ERC20.sol\":9898:9921  gt(amount, fromBalance) */\n      gt\n        /* \"https://github.com/Vectorized/solady/blob/main/src/tokens/ERC20.sol\":9895:10041  if gt(amount, fromBalance) {... */\n      iszero\n      tag_193\n      jumpi\n        /* \"https://github.com/Vectorized/solady/blob/main/src/tokens/ERC20.sol\":9953:9963  0xf4d678b8 */\n      0xf4d678b8\n        /* \"https://github.com/Vectorized/solady/blob/main/src/tokens/ERC20.sol\":9947:9951  0x00 */\n      0x00\n        /* \"https://github.com/Vectorized/solady/blob/main/src/tokens/ERC20.sol\":9940:9964  mstore(0x00, 0xf4d678b8) */\n      mstore\n        /* \"https://github.com/Vectorized/solady/blob/main/src/tokens/ERC20.sol\":10022:10026  0x04 */\n      0x04\n        /* \"https://github.com/Vectorized/solady/blob/main/src/tokens/ERC20.sol\":10016:10020  0x1c */\n      0x1c\n        /* \"https://github.com/Vectorized/solady/blob/main/src/tokens/ERC20.sol\":10009:10027  revert(0x1c, 0x04) */\n      revert\n        /* \"https://github.com/Vectorized/solady/blob/main/src/tokens/ERC20.sol\":9895:10041  if gt(amount, fromBalance) {... */\n    tag_193:\n        /* \"https://github.com/Vectorized/solady/blob/main/src/tokens/ERC20.sol\":10150:10156  amount */\n      dup4\n        /* \"https://github.com/Vectorized/solady/blob/main/src/tokens/ERC20.sol\":10137:10148  fromBalance */\n      dup2\n        /* \"https://github.com/Vectorized/solady/blob/main/src/tokens/ERC20.sol\":10133:10157  sub(fromBalance, amount) */\n      sub\n        /* \"https://github.com/Vectorized/solady/blob/main/src/tokens/ERC20.sol\":10116:10131  fromBalanceSlot */\n      dup3\n        /* \"https://github.com/Vectorized/solady/blob/main/src/tokens/ERC20.sol\":10109:10158  sstore(fromBalanceSlot, sub(fromBalance, amount)) */\n      sstore\n        /* \"https://github.com/Vectorized/solady/blob/main/src/tokens/ERC20.sol\":10233:10235  to */\n      dup5\n        /* \"https://github.com/Vectorized/solady/blob/main/src/tokens/ERC20.sol\":10227:10231  0x00 */\n      0x00\n        /* \"https://github.com/Vectorized/solady/blob/main/src/tokens/ERC20.sol\":10220:10236  mstore(0x00, to) */\n      mstore\n        /* \"https://github.com/Vectorized/solady/blob/main/src/tokens/ERC20.sol\":10286:10290  0x20 */\n      0x20\n        /* \"https://github.com/Vectorized/solady/blob/main/src/tokens/ERC20.sol\":10280:10284  0x0c */\n      0x0c\n        /* \"https://github.com/Vectorized/solady/blob/main/src/tokens/ERC20.sol\":10270:10291  keccak256(0x0c, 0x20) */\n      keccak256\n        /* \"https://github.com/Vectorized/solady/blob/main/src/tokens/ERC20.sol\":10536:10542  amount */\n      dup5\n        /* \"https://github.com/Vectorized/solady/blob/main/src/tokens/ERC20.sol\":10520:10533  toBalanceSlot */\n      dup2\n        /* \"https://github.com/Vectorized/solady/blob/main/src/tokens/ERC20.sol\":10514:10534  sload(toBalanceSlot) */\n      sload\n        /* \"https://github.com/Vectorized/solady/blob/main/src/tokens/ERC20.sol\":10510:10543  add(sload(toBalanceSlot), amount) */\n      add\n        /* \"https://github.com/Vectorized/solady/blob/main/src/tokens/ERC20.sol\":10495:10508  toBalanceSlot */\n      dup2\n        /* \"https://github.com/Vectorized/solady/blob/main/src/tokens/ERC20.sol\":10488:10544  sstore(toBalanceSlot, add(sload(toBalanceSlot), amount)) */\n      sstore\n        /* \"https://github.com/Vectorized/solady/blob/main/src/tokens/ERC20.sol\":10612:10618  amount */\n      dup5\n        /* \"https://github.com/Vectorized/solady/blob/main/src/tokens/ERC20.sol\":10606:10610  0x20 */\n      0x20\n        /* \"https://github.com/Vectorized/solady/blob/main/src/tokens/ERC20.sol\":10599:10619  mstore(0x20, amount) */\n      mstore\n        /* \"https://github.com/Vectorized/solady/blob/main/src/tokens/ERC20.sol\":10700:10704  0x0c */\n      0x0c\n        /* \"https://github.com/Vectorized/solady/blob/main/src/tokens/ERC20.sol\":10694:10705  mload(0x0c) */\n      mload\n        /* \"https://github.com/Vectorized/solady/blob/main/src/tokens/ERC20.sol\":10690:10692  96 */\n      0x60\n        /* \"https://github.com/Vectorized/solady/blob/main/src/tokens/ERC20.sol\":10686:10706  shr(96, mload(0x0c)) */\n      shr\n        /* \"https://github.com/Vectorized/solady/blob/main/src/tokens/ERC20.sol\":10676:10684  caller() */\n      caller\n        /* \"https://github.com/Vectorized/solady/blob/main/src/tokens/ERC20.sol\":10649:10674  _TRANSFER_EVENT_SIGNATURE */\n      0xddf252ad1be2c89b69c2b068fc378daa952ba7f163c4a11628f55a4df523b3ef\n        /* \"https://github.com/Vectorized/solady/blob/main/src/tokens/ERC20.sol\":10643:10647  0x20 */\n      0x20\n        /* \"https://github.com/Vectorized/solady/blob/main/src/tokens/ERC20.sol\":10637:10641  0x20 */\n      dup1\n        /* \"https://github.com/Vectorized/solady/blob/main/src/tokens/ERC20.sol\":10632:10707  log3(0x20, 0x20, _TRANSFER_EVENT_SIGNATURE, caller(), shr(96, mload(0x0c))) */\n      log3\n        /* \"https://github.com/Vectorized/solady/blob/main/src/tokens/ERC20.sol\":9583:10717  {... */\n      pop\n      pop\n      pop\n        /* \"https://github.com/Vectorized/solady/blob/main/src/tokens/ERC20.sol\":10726:10769  _afterTokenTransfer(msg.sender, to, amount) */\n      tag_194\n        /* \"https://github.com/Vectorized/solady/blob/main/src/tokens/ERC20.sol\":10746:10756  msg.sender */\n      caller\n        /* \"https://github.com/Vectorized/solady/blob/main/src/tokens/ERC20.sol\":10758:10760  to */\n      dup5\n        /* \"https://github.com/Vectorized/solady/blob/main/src/tokens/ERC20.sol\":10762:10768  amount */\n      dup5\n        /* \"https://github.com/Vectorized/solady/blob/main/src/tokens/ERC20.sol\":10726:10745  _afterTokenTransfer */\n      tag_161\n        /* \"https://github.com/Vectorized/solady/blob/main/src/tokens/ERC20.sol\":10726:10769  _afterTokenTransfer(msg.sender, to, amount) */\n      jump\t// in\n    tag_194:\n        /* \"https://github.com/Vectorized/solady/blob/main/src/tokens/ERC20.sol\":10786:10790  true */\n      0x01\n        /* \"https://github.com/Vectorized/solady/blob/main/src/tokens/ERC20.sol\":10779:10790  return true */\n      swap1\n      pop\n        /* \"https://github.com/Vectorized/solady/blob/main/src/tokens/ERC20.sol\":9391:10797  function transfer(address to, uint256 amount) public virtual returns (bool) {... */\n      swap3\n      swap2\n      pop\n      pop\n      jump\t// out\n        /* \"src/Guano.sol\":862:996  function convertToShares(uint assets) public view returns (uint) {... */\n    tag_107:\n        /* \"src/Guano.sol\":921:925  uint */\n      0x00\n        /* \"src/Guano.sol\":971:988  availableShares() */\n      tag_196\n        /* \"src/Guano.sol\":971:986  availableShares */\n      tag_96\n        /* \"src/Guano.sol\":971:988  availableShares() */\n      jump\t// in\n    tag_196:\n        /* \"src/Guano.sol\":954:968  totalDeposited */\n      sload(0x01)\n        /* \"src/Guano.sol\":945:951  assets */\n      dup4\n        /* \"src/Guano.sol\":945:968  assets / totalDeposited */\n      tag_197\n      swap2\n      swap1\n      tag_189\n      jump\t// in\n    tag_197:\n        /* \"src/Guano.sol\":945:988  assets / totalDeposited * availableShares() */\n      tag_198\n      swap2\n      swap1\n      tag_199\n      jump\t// in\n    tag_198:\n        /* \"src/Guano.sol\":938:988  return assets / totalDeposited * availableShares() */\n      swap1\n      pop\n        /* \"src/Guano.sol\":862:996  function convertToShares(uint assets) public view returns (uint) {... */\n      swap2\n      swap1\n      pop\n      jump\t// out\n        /* \"https://github.com/Vectorized/solady/blob/main/src/tokens/ERC20.sol\":17661:21377  function permit(... */\n    tag_113:\n        /* \"https://github.com/Vectorized/solady/blob/main/src/tokens/ERC20.sol\":17864:17895  _givePermit2InfiniteAllowance() */\n      tag_201\n        /* \"https://github.com/Vectorized/solady/blob/main/src/tokens/ERC20.sol\":17864:17893  _givePermit2InfiniteAllowance */\n      tag_139\n        /* \"https://github.com/Vectorized/solady/blob/main/src/tokens/ERC20.sol\":17864:17895  _givePermit2InfiniteAllowance() */\n      jump\t// in\n    tag_201:\n        /* \"https://github.com/Vectorized/solady/blob/main/src/tokens/ERC20.sol\":17860:18305  if (_givePermit2InfiniteAllowance()) {... */\n      iszero\n      tag_202\n      jumpi\n        /* \"https://github.com/Vectorized/solady/blob/main/src/tokens/ERC20.sol\":18126:18131  value */\n      dup5\n        /* \"https://github.com/Vectorized/solady/blob/main/src/tokens/ERC20.sol\":18122:18132  not(value) */\n      not\n        /* \"https://github.com/Vectorized/solady/blob/main/src/tokens/ERC20.sol\":18115:18133  iszero(not(value)) */\n      iszero\n        /* \"https://github.com/Vectorized/solady/blob/main/src/tokens/ERC20.sol\":18104:18112  _PERMIT2 */\n      0x22d473030f116ddee9f6b43ac78ba3\n        /* \"https://github.com/Vectorized/solady/blob/main/src/tokens/ERC20.sol\":18093:18100  spender */\n      dup8\n        /* \"https://github.com/Vectorized/solady/blob/main/src/tokens/ERC20.sol\":18089:18091  96 */\n      0x60\n        /* \"https://github.com/Vectorized/solady/blob/main/src/tokens/ERC20.sol\":18085:18101  shl(96, spender) */\n      shl\n        /* \"https://github.com/Vectorized/solady/blob/main/src/tokens/ERC20.sol\":18081:18083  96 */\n      0x60\n        /* \"https://github.com/Vectorized/solady/blob/main/src/tokens/ERC20.sol\":18077:18102  shr(96, shl(96, spender)) */\n      shr\n        /* \"https://github.com/Vectorized/solady/blob/main/src/tokens/ERC20.sol\":18073:18113  xor(shr(96, shl(96, spender)), _PERMIT2) */\n      xor\n        /* \"https://github.com/Vectorized/solady/blob/main/src/tokens/ERC20.sol\":18070:18134  or(xor(shr(96, shl(96, spender)), _PERMIT2), iszero(not(value))) */\n      or\n        /* \"https://github.com/Vectorized/solady/blob/main/src/tokens/ERC20.sol\":18060:18281  if iszero(or(xor(shr(96, shl(96, spender)), _PERMIT2), iszero(not(value)))) {... */\n      tag_203\n      jumpi\n        /* \"https://github.com/Vectorized/solady/blob/main/src/tokens/ERC20.sol\":18171:18181  0x3f68539a */\n      0x3f68539a\n        /* \"https://github.com/Vectorized/solady/blob/main/src/tokens/ERC20.sol\":18165:18169  0x00 */\n      0x00\n        /* \"https://github.com/Vectorized/solady/blob/main/src/tokens/ERC20.sol\":18158:18182  mstore(0x00, 0x3f68539a) */\n      mstore\n        /* \"https://github.com/Vectorized/solady/blob/main/src/tokens/ERC20.sol\":18258:18262  0x04 */\n      0x04\n        /* \"https://github.com/Vectorized/solady/blob/main/src/tokens/ERC20.sol\":18252:18256  0x1c */\n      0x1c\n        /* \"https://github.com/Vectorized/solady/blob/main/src/tokens/ERC20.sol\":18245:18263  revert(0x1c, 0x04) */\n      revert\n        /* \"https://github.com/Vectorized/solady/blob/main/src/tokens/ERC20.sol\":18060:18281  if iszero(or(xor(shr(96, shl(96, spender)), _PERMIT2), iszero(not(value)))) {... */\n    tag_203:\n        /* \"https://github.com/Vectorized/solady/blob/main/src/tokens/ERC20.sol\":17860:18305  if (_givePermit2InfiniteAllowance()) {... */\n    tag_202:\n        /* \"https://github.com/Vectorized/solady/blob/main/src/tokens/ERC20.sol\":18314:18330  bytes32 nameHash */\n      0x00\n        /* \"https://github.com/Vectorized/solady/blob/main/src/tokens/ERC20.sol\":18333:18352  _constantNameHash() */\n      tag_204\n        /* \"https://github.com/Vectorized/solady/blob/main/src/tokens/ERC20.sol\":18333:18350  _constantNameHash */\n      tag_168\n        /* \"https://github.com/Vectorized/solady/blob/main/src/tokens/ERC20.sol\":18333:18352  _constantNameHash() */\n      jump\t// in\n    tag_204:\n        /* \"https://github.com/Vectorized/solady/blob/main/src/tokens/ERC20.sol\":18314:18352  bytes32 nameHash = _constantNameHash() */\n      swap1\n      pop\n        /* \"https://github.com/Vectorized/solady/blob/main/src/tokens/ERC20.sol\":18480:18481  0 */\n      0x00\n        /* \"https://github.com/Vectorized/solady/blob/main/src/tokens/ERC20.sol\":18472:18482  bytes32(0) */\n      0x00\n      shl\n        /* \"https://github.com/Vectorized/solady/blob/main/src/tokens/ERC20.sol\":18460:18468  nameHash */\n      dup2\n        /* \"https://github.com/Vectorized/solady/blob/main/src/tokens/ERC20.sol\":18460:18482  nameHash == bytes32(0) */\n      sub\n        /* \"https://github.com/Vectorized/solady/blob/main/src/tokens/ERC20.sol\":18456:18519  if (nameHash == bytes32(0)) nameHash = keccak256(bytes(name())) */\n      tag_205\n      jumpi\n        /* \"https://github.com/Vectorized/solady/blob/main/src/tokens/ERC20.sol\":18511:18517  name() */\n      tag_206\n        /* \"https://github.com/Vectorized/solady/blob/main/src/tokens/ERC20.sol\":18511:18515  name */\n      tag_31\n        /* \"https://github.com/Vectorized/solady/blob/main/src/tokens/ERC20.sol\":18511:18517  name() */\n      jump\t// in\n    tag_206:\n        /* \"https://github.com/Vectorized/solady/blob/main/src/tokens/ERC20.sol\":18495:18519  keccak256(bytes(name())) */\n      dup1\n      mload\n      swap1\n      0x20\n      add\n      keccak256\n        /* \"https://github.com/Vectorized/solady/blob/main/src/tokens/ERC20.sol\":18484:18519  nameHash = keccak256(bytes(name())) */\n      swap1\n      pop\n        /* \"https://github.com/Vectorized/solady/blob/main/src/tokens/ERC20.sol\":18456:18519  if (nameHash == bytes32(0)) nameHash = keccak256(bytes(name())) */\n    tag_205:\n        /* \"https://github.com/Vectorized/solady/blob/main/src/tokens/ERC20.sol\":18529:18548  bytes32 versionHash */\n      0x00\n        /* \"https://github.com/Vectorized/solady/blob/main/src/tokens/ERC20.sol\":18551:18565  _versionHash() */\n      tag_207\n        /* \"https://github.com/Vectorized/solady/blob/main/src/tokens/ERC20.sol\":18551:18563  _versionHash */\n      tag_172\n        /* \"https://github.com/Vectorized/solady/blob/main/src/tokens/ERC20.sol\":18551:18565  _versionHash() */\n      jump\t// in\n    tag_207:\n        /* \"https://github.com/Vectorized/solady/blob/main/src/tokens/ERC20.sol\":18529:18565  bytes32 versionHash = _versionHash() */\n      swap1\n      pop\n        /* \"https://github.com/Vectorized/solady/blob/main/src/tokens/ERC20.sol\":18733:18741  deadline */\n      dup6\n        /* \"https://github.com/Vectorized/solady/blob/main/src/tokens/ERC20.sol\":18720:18731  timestamp() */\n      timestamp\n        /* \"https://github.com/Vectorized/solady/blob/main/src/tokens/ERC20.sol\":18717:18742  gt(timestamp(), deadline) */\n      gt\n        /* \"https://github.com/Vectorized/solady/blob/main/src/tokens/ERC20.sol\":18714:18856  if gt(timestamp(), deadline) {... */\n      iszero\n      tag_208\n      jumpi\n        /* \"https://github.com/Vectorized/solady/blob/main/src/tokens/ERC20.sol\":18774:18784  0x1a15a3cc */\n      0x1a15a3cc\n        /* \"https://github.com/Vectorized/solady/blob/main/src/tokens/ERC20.sol\":18768:18772  0x00 */\n      0x00\n        /* \"https://github.com/Vectorized/solady/blob/main/src/tokens/ERC20.sol\":18761:18785  mstore(0x00, 0x1a15a3cc) */\n      mstore\n        /* \"https://github.com/Vectorized/solady/blob/main/src/tokens/ERC20.sol\":18837:18841  0x04 */\n      0x04\n        /* \"https://github.com/Vectorized/solady/blob/main/src/tokens/ERC20.sol\":18831:18835  0x1c */\n      0x1c\n        /* \"https://github.com/Vectorized/solady/blob/main/src/tokens/ERC20.sol\":18824:18842  revert(0x1c, 0x04) */\n      revert\n        /* \"https://github.com/Vectorized/solady/blob/main/src/tokens/ERC20.sol\":18714:18856  if gt(timestamp(), deadline) {... */\n    tag_208:\n        /* \"https://github.com/Vectorized/solady/blob/main/src/tokens/ERC20.sol\":18884:18888  0x40 */\n      0x40\n        /* \"https://github.com/Vectorized/solady/blob/main/src/tokens/ERC20.sol\":18878:18889  mload(0x40) */\n      mload\n        /* \"https://github.com/Vectorized/solady/blob/main/src/tokens/ERC20.sol\":19000:19005  owner */\n      dup10\n        /* \"https://github.com/Vectorized/solady/blob/main/src/tokens/ERC20.sol\":18996:18998  96 */\n      0x60\n        /* \"https://github.com/Vectorized/solady/blob/main/src/tokens/ERC20.sol\":18992:19006  shl(96, owner) */\n      shl\n        /* \"https://github.com/Vectorized/solady/blob/main/src/tokens/ERC20.sol\":18988:18990  96 */\n      0x60\n        /* \"https://github.com/Vectorized/solady/blob/main/src/tokens/ERC20.sol\":18984:19007  shr(96, shl(96, owner)) */\n      shr\n        /* \"https://github.com/Vectorized/solady/blob/main/src/tokens/ERC20.sol\":18975:19007  owner := shr(96, shl(96, owner)) */\n      swap10\n      pop\n        /* \"https://github.com/Vectorized/solady/blob/main/src/tokens/ERC20.sol\":19047:19054  spender */\n      dup9\n        /* \"https://github.com/Vectorized/solady/blob/main/src/tokens/ERC20.sol\":19043:19045  96 */\n      0x60\n        /* \"https://github.com/Vectorized/solady/blob/main/src/tokens/ERC20.sol\":19039:19055  shl(96, spender) */\n      shl\n        /* \"https://github.com/Vectorized/solady/blob/main/src/tokens/ERC20.sol\":19035:19037  96 */\n      0x60\n        /* \"https://github.com/Vectorized/solady/blob/main/src/tokens/ERC20.sol\":19031:19056  shr(96, shl(96, spender)) */\n      shr\n        /* \"https://github.com/Vectorized/solady/blob/main/src/tokens/ERC20.sol\":19020:19056  spender := shr(96, shl(96, spender)) */\n      swap9\n      pop\n        /* \"https://github.com/Vectorized/solady/blob/main/src/tokens/ERC20.sol\":19140:19179  _NONCES_SLOT_SEED_WITH_SIGNATURE_PREFIX */\n      0x383775081901\n        /* \"https://github.com/Vectorized/solady/blob/main/src/tokens/ERC20.sol\":19134:19138  0x0e */\n      0x0e\n        /* \"https://github.com/Vectorized/solady/blob/main/src/tokens/ERC20.sol\":19127:19180  mstore(0x0e, _NONCES_SLOT_SEED_WITH_SIGNATURE_PREFIX) */\n      mstore\n        /* \"https://github.com/Vectorized/solady/blob/main/src/tokens/ERC20.sol\":19206:19211  owner */\n      dup10\n        /* \"https://github.com/Vectorized/solady/blob/main/src/tokens/ERC20.sol\":19200:19204  0x00 */\n      0x00\n        /* \"https://github.com/Vectorized/solady/blob/main/src/tokens/ERC20.sol\":19193:19212  mstore(0x00, owner) */\n      mstore\n        /* \"https://github.com/Vectorized/solady/blob/main/src/tokens/ERC20.sol\":19258:19262  0x20 */\n      0x20\n        /* \"https://github.com/Vectorized/solady/blob/main/src/tokens/ERC20.sol\":19252:19256  0x0c */\n      0x0c\n        /* \"https://github.com/Vectorized/solady/blob/main/src/tokens/ERC20.sol\":19242:19263  keccak256(0x0c, 0x20) */\n      keccak256\n        /* \"https://github.com/Vectorized/solady/blob/main/src/tokens/ERC20.sol\":19300:19309  nonceSlot */\n      dup1\n        /* \"https://github.com/Vectorized/solady/blob/main/src/tokens/ERC20.sol\":19294:19310  sload(nonceSlot) */\n      sload\n        /* \"https://github.com/Vectorized/solady/blob/main/src/tokens/ERC20.sol\":19378:19394  _DOMAIN_TYPEHASH */\n      0x8b73c3c69bb8fe3d512ecc4cf759cc79239f7b179b0ffacaa9a75d522b39400f\n        /* \"https://github.com/Vectorized/solady/blob/main/src/tokens/ERC20.sol\":19375:19376  m */\n      dup4\n        /* \"https://github.com/Vectorized/solady/blob/main/src/tokens/ERC20.sol\":19368:19395  mstore(m, _DOMAIN_TYPEHASH) */\n      mstore\n        /* \"https://github.com/Vectorized/solady/blob/main/src/tokens/ERC20.sol\":19429:19437  nameHash */\n      dup5\n        /* \"https://github.com/Vectorized/solady/blob/main/src/tokens/ERC20.sol\":19422:19426  0x20 */\n      0x20\n        /* \"https://github.com/Vectorized/solady/blob/main/src/tokens/ERC20.sol\":19419:19420  m */\n      dup5\n        /* \"https://github.com/Vectorized/solady/blob/main/src/tokens/ERC20.sol\":19415:19427  add(m, 0x20) */\n      add\n        /* \"https://github.com/Vectorized/solady/blob/main/src/tokens/ERC20.sol\":19408:19438  mstore(add(m, 0x20), nameHash) */\n      mstore\n        /* \"https://github.com/Vectorized/solady/blob/main/src/tokens/ERC20.sol\":19472:19483  versionHash */\n      dup4\n        /* \"https://github.com/Vectorized/solady/blob/main/src/tokens/ERC20.sol\":19465:19469  0x40 */\n      0x40\n        /* \"https://github.com/Vectorized/solady/blob/main/src/tokens/ERC20.sol\":19462:19463  m */\n      dup5\n        /* \"https://github.com/Vectorized/solady/blob/main/src/tokens/ERC20.sol\":19458:19470  add(m, 0x40) */\n      add\n        /* \"https://github.com/Vectorized/solady/blob/main/src/tokens/ERC20.sol\":19451:19484  mstore(add(m, 0x40), versionHash) */\n      mstore\n        /* \"https://github.com/Vectorized/solady/blob/main/src/tokens/ERC20.sol\":19518:19527  chainid() */\n      chainid\n        /* \"https://github.com/Vectorized/solady/blob/main/src/tokens/ERC20.sol\":19511:19515  0x60 */\n      0x60\n        /* \"https://github.com/Vectorized/solady/blob/main/src/tokens/ERC20.sol\":19508:19509  m */\n      dup5\n        /* \"https://github.com/Vectorized/solady/blob/main/src/tokens/ERC20.sol\":19504:19516  add(m, 0x60) */\n      add\n        /* \"https://github.com/Vectorized/solady/blob/main/src/tokens/ERC20.sol\":19497:19528  mstore(add(m, 0x60), chainid()) */\n      mstore\n        /* \"https://github.com/Vectorized/solady/blob/main/src/tokens/ERC20.sol\":19562:19571  address() */\n      address\n        /* \"https://github.com/Vectorized/solady/blob/main/src/tokens/ERC20.sol\":19555:19559  0x80 */\n      0x80\n        /* \"https://github.com/Vectorized/solady/blob/main/src/tokens/ERC20.sol\":19552:19553  m */\n      dup5\n        /* \"https://github.com/Vectorized/solady/blob/main/src/tokens/ERC20.sol\":19548:19560  add(m, 0x80) */\n      add\n        /* \"https://github.com/Vectorized/solady/blob/main/src/tokens/ERC20.sol\":19541:19572  mstore(add(m, 0x80), address()) */\n      mstore\n        /* \"https://github.com/Vectorized/solady/blob/main/src/tokens/ERC20.sol\":19611:19615  0xa0 */\n      0xa0\n        /* \"https://github.com/Vectorized/solady/blob/main/src/tokens/ERC20.sol\":19608:19609  m */\n      dup4\n        /* \"https://github.com/Vectorized/solady/blob/main/src/tokens/ERC20.sol\":19598:19616  keccak256(m, 0xa0) */\n      keccak256\n        /* \"https://github.com/Vectorized/solady/blob/main/src/tokens/ERC20.sol\":19592:19596  0x2e */\n      0x2e\n        /* \"https://github.com/Vectorized/solady/blob/main/src/tokens/ERC20.sol\":19585:19617  mstore(0x2e, keccak256(m, 0xa0)) */\n      mstore\n        /* \"https://github.com/Vectorized/solady/blob/main/src/tokens/ERC20.sol\":19680:19696  _PERMIT_TYPEHASH */\n      0x6e71edae12b1b97f4d1f60370fef10105fa2faae0126114a169c64845d6126c9\n        /* \"https://github.com/Vectorized/solady/blob/main/src/tokens/ERC20.sol\":19677:19678  m */\n      dup4\n        /* \"https://github.com/Vectorized/solady/blob/main/src/tokens/ERC20.sol\":19670:19697  mstore(m, _PERMIT_TYPEHASH) */\n      mstore\n        /* \"https://github.com/Vectorized/solady/blob/main/src/tokens/ERC20.sol\":19731:19736  owner */\n      dup12\n        /* \"https://github.com/Vectorized/solady/blob/main/src/tokens/ERC20.sol\":19724:19728  0x20 */\n      0x20\n        /* \"https://github.com/Vectorized/solady/blob/main/src/tokens/ERC20.sol\":19721:19722  m */\n      dup5\n        /* \"https://github.com/Vectorized/solady/blob/main/src/tokens/ERC20.sol\":19717:19729  add(m, 0x20) */\n      add\n        /* \"https://github.com/Vectorized/solady/blob/main/src/tokens/ERC20.sol\":19710:19737  mstore(add(m, 0x20), owner) */\n      mstore\n        /* \"https://github.com/Vectorized/solady/blob/main/src/tokens/ERC20.sol\":19771:19778  spender */\n      dup11\n        /* \"https://github.com/Vectorized/solady/blob/main/src/tokens/ERC20.sol\":19764:19768  0x40 */\n      0x40\n        /* \"https://github.com/Vectorized/solady/blob/main/src/tokens/ERC20.sol\":19761:19762  m */\n      dup5\n        /* \"https://github.com/Vectorized/solady/blob/main/src/tokens/ERC20.sol\":19757:19769  add(m, 0x40) */\n      add\n        /* \"https://github.com/Vectorized/solady/blob/main/src/tokens/ERC20.sol\":19750:19779  mstore(add(m, 0x40), spender) */\n      mstore\n        /* \"https://github.com/Vectorized/solady/blob/main/src/tokens/ERC20.sol\":19813:19818  value */\n      dup10\n        /* \"https://github.com/Vectorized/solady/blob/main/src/tokens/ERC20.sol\":19806:19810  0x60 */\n      0x60\n        /* \"https://github.com/Vectorized/solady/blob/main/src/tokens/ERC20.sol\":19803:19804  m */\n      dup5\n        /* \"https://github.com/Vectorized/solady/blob/main/src/tokens/ERC20.sol\":19799:19811  add(m, 0x60) */\n      add\n        /* \"https://github.com/Vectorized/solady/blob/main/src/tokens/ERC20.sol\":19792:19819  mstore(add(m, 0x60), value) */\n      mstore\n        /* \"https://github.com/Vectorized/solady/blob/main/src/tokens/ERC20.sol\":19853:19863  nonceValue */\n      dup1\n        /* \"https://github.com/Vectorized/solady/blob/main/src/tokens/ERC20.sol\":19846:19850  0x80 */\n      0x80\n        /* \"https://github.com/Vectorized/solady/blob/main/src/tokens/ERC20.sol\":19843:19844  m */\n      dup5\n        /* \"https://github.com/Vectorized/solady/blob/main/src/tokens/ERC20.sol\":19839:19851  add(m, 0x80) */\n      add\n        /* \"https://github.com/Vectorized/solady/blob/main/src/tokens/ERC20.sol\":19832:19864  mstore(add(m, 0x80), nonceValue) */\n      mstore\n        /* \"https://github.com/Vectorized/solady/blob/main/src/tokens/ERC20.sol\":19898:19906  deadline */\n      dup9\n        /* \"https://github.com/Vectorized/solady/blob/main/src/tokens/ERC20.sol\":19891:19895  0xa0 */\n      0xa0\n        /* \"https://github.com/Vectorized/solady/blob/main/src/tokens/ERC20.sol\":19888:19889  m */\n      dup5\n        /* \"https://github.com/Vectorized/solady/blob/main/src/tokens/ERC20.sol\":19884:19896  add(m, 0xa0) */\n      add\n        /* \"https://github.com/Vectorized/solady/blob/main/src/tokens/ERC20.sol\":19877:19907  mstore(add(m, 0xa0), deadline) */\n      mstore\n        /* \"https://github.com/Vectorized/solady/blob/main/src/tokens/ERC20.sol\":19946:19950  0xc0 */\n      0xc0\n        /* \"https://github.com/Vectorized/solady/blob/main/src/tokens/ERC20.sol\":19943:19944  m */\n      dup4\n        /* \"https://github.com/Vectorized/solady/blob/main/src/tokens/ERC20.sol\":19933:19951  keccak256(m, 0xc0) */\n      keccak256\n        /* \"https://github.com/Vectorized/solady/blob/main/src/tokens/ERC20.sol\":19927:19931  0x4e */\n      0x4e\n        /* \"https://github.com/Vectorized/solady/blob/main/src/tokens/ERC20.sol\":19920:19952  mstore(0x4e, keccak256(m, 0xc0)) */\n      mstore\n        /* \"https://github.com/Vectorized/solady/blob/main/src/tokens/ERC20.sol\":20041:20045  0x42 */\n      0x42\n        /* \"https://github.com/Vectorized/solady/blob/main/src/tokens/ERC20.sol\":20035:20039  0x2c */\n      0x2c\n        /* \"https://github.com/Vectorized/solady/blob/main/src/tokens/ERC20.sol\":20025:20046  keccak256(0x2c, 0x42) */\n      keccak256\n        /* \"https://github.com/Vectorized/solady/blob/main/src/tokens/ERC20.sol\":20019:20023  0x00 */\n      0x00\n        /* \"https://github.com/Vectorized/solady/blob/main/src/tokens/ERC20.sol\":20012:20047  mstore(0x00, keccak256(0x2c, 0x42)) */\n      mstore\n        /* \"https://github.com/Vectorized/solady/blob/main/src/tokens/ERC20.sol\":20083:20084  v */\n      dup8\n        /* \"https://github.com/Vectorized/solady/blob/main/src/tokens/ERC20.sol\":20077:20081  0xff */\n      0xff\n        /* \"https://github.com/Vectorized/solady/blob/main/src/tokens/ERC20.sol\":20073:20085  and(0xff, v) */\n      and\n        /* \"https://github.com/Vectorized/solady/blob/main/src/tokens/ERC20.sol\":20067:20071  0x20 */\n      0x20\n        /* \"https://github.com/Vectorized/solady/blob/main/src/tokens/ERC20.sol\":20060:20086  mstore(0x20, and(0xff, v)) */\n      mstore\n        /* \"https://github.com/Vectorized/solady/blob/main/src/tokens/ERC20.sol\":20112:20113  r */\n      dup7\n        /* \"https://github.com/Vectorized/solady/blob/main/src/tokens/ERC20.sol\":20106:20110  0x40 */\n      0x40\n        /* \"https://github.com/Vectorized/solady/blob/main/src/tokens/ERC20.sol\":20099:20114  mstore(0x40, r) */\n      mstore\n        /* \"https://github.com/Vectorized/solady/blob/main/src/tokens/ERC20.sol\":20140:20141  s */\n      dup6\n        /* \"https://github.com/Vectorized/solady/blob/main/src/tokens/ERC20.sol\":20134:20138  0x60 */\n      0x60\n        /* \"https://github.com/Vectorized/solady/blob/main/src/tokens/ERC20.sol\":20127:20142  mstore(0x60, s) */\n      mstore\n        /* \"https://github.com/Vectorized/solady/blob/main/src/tokens/ERC20.sol\":20203:20207  0x20 */\n      0x20\n        /* \"https://github.com/Vectorized/solady/blob/main/src/tokens/ERC20.sol\":20197:20201  0x20 */\n      dup1\n        /* \"https://github.com/Vectorized/solady/blob/main/src/tokens/ERC20.sol\":20191:20195  0x80 */\n      0x80\n        /* \"https://github.com/Vectorized/solady/blob/main/src/tokens/ERC20.sol\":20185:20189  0x00 */\n      0x00\n        /* \"https://github.com/Vectorized/solady/blob/main/src/tokens/ERC20.sol\":20182:20183  1 */\n      0x01\n        /* \"https://github.com/Vectorized/solady/blob/main/src/tokens/ERC20.sol\":20175:20180  gas() */\n      gas\n        /* \"https://github.com/Vectorized/solady/blob/main/src/tokens/ERC20.sol\":20164:20208  staticcall(gas(), 1, 0x00, 0x80, 0x20, 0x20) */\n      staticcall\n        /* \"https://github.com/Vectorized/solady/blob/main/src/tokens/ERC20.sol\":20624:20629  owner */\n      dup13\n        /* \"https://github.com/Vectorized/solady/blob/main/src/tokens/ERC20.sol\":20605:20621  returndatasize() */\n      returndatasize\n        /* \"https://github.com/Vectorized/solady/blob/main/src/tokens/ERC20.sol\":20599:20622  mload(returndatasize()) */\n      mload\n        /* \"https://github.com/Vectorized/solady/blob/main/src/tokens/ERC20.sol\":20596:20630  eq(mload(returndatasize()), owner) */\n      eq\n        /* \"https://github.com/Vectorized/solady/blob/main/src/tokens/ERC20.sol\":20586:20745  if iszero(eq(mload(returndatasize()), owner)) {... */\n      tag_209\n      jumpi\n        /* \"https://github.com/Vectorized/solady/blob/main/src/tokens/ERC20.sol\":20663:20673  0xddafbaef */\n      0xddafbaef\n        /* \"https://github.com/Vectorized/solady/blob/main/src/tokens/ERC20.sol\":20657:20661  0x00 */\n      0x00\n        /* \"https://github.com/Vectorized/solady/blob/main/src/tokens/ERC20.sol\":20650:20674  mstore(0x00, 0xddafbaef) */\n      mstore\n        /* \"https://github.com/Vectorized/solady/blob/main/src/tokens/ERC20.sol\":20726:20730  0x04 */\n      0x04\n        /* \"https://github.com/Vectorized/solady/blob/main/src/tokens/ERC20.sol\":20720:20724  0x1c */\n      0x1c\n        /* \"https://github.com/Vectorized/solady/blob/main/src/tokens/ERC20.sol\":20713:20731  revert(0x1c, 0x04) */\n      revert\n        /* \"https://github.com/Vectorized/solady/blob/main/src/tokens/ERC20.sol\":20586:20745  if iszero(eq(mload(returndatasize()), owner)) {... */\n    tag_209:\n        /* \"https://github.com/Vectorized/solady/blob/main/src/tokens/ERC20.sol\":20846:20847  t */\n      dup1\n        /* \"https://github.com/Vectorized/solady/blob/main/src/tokens/ERC20.sol\":20834:20844  nonceValue */\n      dup3\n        /* \"https://github.com/Vectorized/solady/blob/main/src/tokens/ERC20.sol\":20830:20848  add(nonceValue, t) */\n      add\n        /* \"https://github.com/Vectorized/solady/blob/main/src/tokens/ERC20.sol\":20819:20828  nonceSlot */\n      dup4\n        /* \"https://github.com/Vectorized/solady/blob/main/src/tokens/ERC20.sol\":20812:20849  sstore(nonceSlot, add(nonceValue, t)) */\n      sstore\n        /* \"https://github.com/Vectorized/solady/blob/main/src/tokens/ERC20.sol\":21060:21067  spender */\n      dup12\n        /* \"https://github.com/Vectorized/solady/blob/main/src/tokens/ERC20.sol\":21037:21057  _ALLOWANCE_SLOT_SEED */\n      0x7f5e9f20\n        /* \"https://github.com/Vectorized/solady/blob/main/src/tokens/ERC20.sol\":21032:21035  160 */\n      0xa0\n        /* \"https://github.com/Vectorized/solady/blob/main/src/tokens/ERC20.sol\":21028:21058  shl(160, _ALLOWANCE_SLOT_SEED) */\n      shl\n        /* \"https://github.com/Vectorized/solady/blob/main/src/tokens/ERC20.sol\":21025:21068  or(shl(160, _ALLOWANCE_SLOT_SEED), spender) */\n      or\n        /* \"https://github.com/Vectorized/solady/blob/main/src/tokens/ERC20.sol\":21019:21023  0x40 */\n      0x40\n        /* \"https://github.com/Vectorized/solady/blob/main/src/tokens/ERC20.sol\":21012:21069  mstore(0x40, or(shl(160, _ALLOWANCE_SLOT_SEED), spender)) */\n      mstore\n        /* \"https://github.com/Vectorized/solady/blob/main/src/tokens/ERC20.sol\":21112:21117  value */\n      dup11\n        /* \"https://github.com/Vectorized/solady/blob/main/src/tokens/ERC20.sol\":21105:21109  0x34 */\n      0x34\n        /* \"https://github.com/Vectorized/solady/blob/main/src/tokens/ERC20.sol\":21099:21103  0x2c */\n      0x2c\n        /* \"https://github.com/Vectorized/solady/blob/main/src/tokens/ERC20.sol\":21089:21110  keccak256(0x2c, 0x34) */\n      keccak256\n        /* \"https://github.com/Vectorized/solady/blob/main/src/tokens/ERC20.sol\":21082:21118  sstore(keccak256(0x2c, 0x34), value) */\n      sstore\n        /* \"https://github.com/Vectorized/solady/blob/main/src/tokens/ERC20.sol\":21232:21239  spender */\n      dup12\n        /* \"https://github.com/Vectorized/solady/blob/main/src/tokens/ERC20.sol\":21225:21230  owner */\n      dup14\n        /* \"https://github.com/Vectorized/solady/blob/main/src/tokens/ERC20.sol\":21198:21223  _APPROVAL_EVENT_SIGNATURE */\n      0x8c5be1e5ebec7d5bd14f71427d1e84f3dd0314c0f7b2291e5b200ac8c7c3b925\n        /* \"https://github.com/Vectorized/solady/blob/main/src/tokens/ERC20.sol\":21192:21196  0x20 */\n      0x20\n        /* \"https://github.com/Vectorized/solady/blob/main/src/tokens/ERC20.sol\":21185:21189  0x60 */\n      0x60\n        /* \"https://github.com/Vectorized/solady/blob/main/src/tokens/ERC20.sol\":21182:21183  m */\n      dup9\n        /* \"https://github.com/Vectorized/solady/blob/main/src/tokens/ERC20.sol\":21178:21190  add(m, 0x60) */\n      add\n        /* \"https://github.com/Vectorized/solady/blob/main/src/tokens/ERC20.sol\":21173:21240  log3(add(m, 0x60), 0x20, _APPROVAL_EVENT_SIGNATURE, owner, spender) */\n      log3\n        /* \"https://github.com/Vectorized/solady/blob/main/src/tokens/ERC20.sol\":21266:21267  m */\n      dup4\n        /* \"https://github.com/Vectorized/solady/blob/main/src/tokens/ERC20.sol\":21260:21264  0x40 */\n      0x40\n        /* \"https://github.com/Vectorized/solady/blob/main/src/tokens/ERC20.sol\":21253:21268  mstore(0x40, m) */\n      mstore\n        /* \"https://github.com/Vectorized/solady/blob/main/src/tokens/ERC20.sol\":21330:21331  0 */\n      0x00\n        /* \"https://github.com/Vectorized/solady/blob/main/src/tokens/ERC20.sol\":21324:21328  0x60 */\n      0x60\n        /* \"https://github.com/Vectorized/solady/blob/main/src/tokens/ERC20.sol\":21317:21332  mstore(0x60, 0) */\n      mstore\n        /* \"https://github.com/Vectorized/solady/blob/main/src/tokens/ERC20.sol\":18627:21371  {... */\n      pop\n      pop\n      pop\n      pop\n      pop\n      pop\n        /* \"https://github.com/Vectorized/solady/blob/main/src/tokens/ERC20.sol\":17661:21377  function permit(... */\n      pop\n      pop\n      pop\n      pop\n      pop\n      pop\n      pop\n      jump\t// out\n        /* \"https://github.com/Vectorized/solady/blob/main/src/tokens/ERC20.sol\":7549:8044  function allowance(address owner, address spender)... */\n    tag_118:\n        /* \"https://github.com/Vectorized/solady/blob/main/src/tokens/ERC20.sol\":7661:7675  uint256 result */\n      0x00\n        /* \"https://github.com/Vectorized/solady/blob/main/src/tokens/ERC20.sol\":7695:7726  _givePermit2InfiniteAllowance() */\n      tag_211\n        /* \"https://github.com/Vectorized/solady/blob/main/src/tokens/ERC20.sol\":7695:7724  _givePermit2InfiniteAllowance */\n      tag_139\n        /* \"https://github.com/Vectorized/solady/blob/main/src/tokens/ERC20.sol\":7695:7726  _givePermit2InfiniteAllowance() */\n      jump\t// in\n    tag_211:\n        /* \"https://github.com/Vectorized/solady/blob/main/src/tokens/ERC20.sol\":7691:7802  if (_givePermit2InfiniteAllowance()) {... */\n      iszero\n      tag_212\n      jumpi\n        /* \"https://github.com/Vectorized/solady/blob/main/src/tokens/ERC20.sol\":5869:5911  0x000000000022D473030F116dDEE9F6B43aC78BA3 */\n      0x22d473030f116ddee9f6b43ac78ba3\n        /* \"https://github.com/Vectorized/solady/blob/main/src/tokens/ERC20.sol\":7746:7765  spender == _PERMIT2 */\n      0xffffffffffffffffffffffffffffffffffffffff\n      and\n        /* \"https://github.com/Vectorized/solady/blob/main/src/tokens/ERC20.sol\":7746:7753  spender */\n      dup3\n        /* \"https://github.com/Vectorized/solady/blob/main/src/tokens/ERC20.sol\":7746:7765  spender == _PERMIT2 */\n      0xffffffffffffffffffffffffffffffffffffffff\n      and\n      sub\n        /* \"https://github.com/Vectorized/solady/blob/main/src/tokens/ERC20.sol\":7742:7791  if (spender == _PERMIT2) return type(uint256).max */\n      tag_213\n      jumpi\n        /* \"https://github.com/Vectorized/solady/blob/main/src/tokens/ERC20.sol\":7774:7791  type(uint256).max */\n      0xffffffffffffffffffffffffffffffffffffffffffffffffffffffffffffffff\n        /* \"https://github.com/Vectorized/solady/blob/main/src/tokens/ERC20.sol\":7767:7791  return type(uint256).max */\n      swap1\n      pop\n      jump(tag_210)\n        /* \"https://github.com/Vectorized/solady/blob/main/src/tokens/ERC20.sol\":7742:7791  if (spender == _PERMIT2) return type(uint256).max */\n    tag_213:\n        /* \"https://github.com/Vectorized/solady/blob/main/src/tokens/ERC20.sol\":7691:7802  if (_givePermit2InfiniteAllowance()) {... */\n    tag_212:\n        /* \"https://github.com/Vectorized/solady/blob/main/src/tokens/ERC20.sol\":7890:7897  spender */\n      dup2\n        /* \"https://github.com/Vectorized/solady/blob/main/src/tokens/ERC20.sol\":7884:7888  0x20 */\n      0x20\n        /* \"https://github.com/Vectorized/solady/blob/main/src/tokens/ERC20.sol\":7877:7898  mstore(0x20, spender) */\n      mstore\n        /* \"https://github.com/Vectorized/solady/blob/main/src/tokens/ERC20.sol\":7924:7944  _ALLOWANCE_SLOT_SEED */\n      0x7f5e9f20\n        /* \"https://github.com/Vectorized/solady/blob/main/src/tokens/ERC20.sol\":7918:7922  0x0c */\n      0x0c\n        /* \"https://github.com/Vectorized/solady/blob/main/src/tokens/ERC20.sol\":7911:7945  mstore(0x0c, _ALLOWANCE_SLOT_SEED) */\n      mstore\n        /* \"https://github.com/Vectorized/solady/blob/main/src/tokens/ERC20.sol\":7971:7976  owner */\n      dup3\n        /* \"https://github.com/Vectorized/solady/blob/main/src/tokens/ERC20.sol\":7965:7969  0x00 */\n      0x00\n        /* \"https://github.com/Vectorized/solady/blob/main/src/tokens/ERC20.sol\":7958:7977  mstore(0x00, owner) */\n      mstore\n        /* \"https://github.com/Vectorized/solady/blob/main/src/tokens/ERC20.sol\":8022:8026  0x34 */\n      0x34\n        /* \"https://github.com/Vectorized/solady/blob/main/src/tokens/ERC20.sol\":8016:8020  0x0c */\n      0x0c\n        /* \"https://github.com/Vectorized/solady/blob/main/src/tokens/ERC20.sol\":8006:8027  keccak256(0x0c, 0x34) */\n      keccak256\n        /* \"https://github.com/Vectorized/solady/blob/main/src/tokens/ERC20.sol\":8000:8028  sload(keccak256(0x0c, 0x34)) */\n      sload\n        /* \"https://github.com/Vectorized/solady/blob/main/src/tokens/ERC20.sol\":7990:8028  result := sload(keccak256(0x0c, 0x34)) */\n      swap1\n      pop\n        /* \"https://github.com/Vectorized/solady/blob/main/src/tokens/ERC20.sol\":7549:8044  function allowance(address owner, address spender)... */\n    tag_210:\n      swap3\n      swap2\n      pop\n      pop\n      jump\t// out\n        /* \"src/Guano.sol\":1008:1121  function previewDeposit(uint assets) public view returns (uint) {... */\n    tag_123:\n        /* \"src/Guano.sol\":1066:1070  uint */\n      0x00\n        /* \"src/Guano.sol\":1090:1113  convertToShares(assets) */\n      tag_215\n        /* \"src/Guano.sol\":1106:1112  assets */\n      dup3\n        /* \"src/Guano.sol\":1090:1105  convertToShares */\n      tag_107\n        /* \"src/Guano.sol\":1090:1113  convertToShares(assets) */\n      jump\t// in\n    tag_215:\n        /* \"src/Guano.sol\":1083:1113  return convertToShares(assets) */\n      swap1\n      pop\n        /* \"src/Guano.sol\":1008:1121  function previewDeposit(uint assets) public view returns (uint) {... */\n      swap2\n      swap1\n      pop\n      jump\t// out\n        /* \"https://github.com/Vectorized/solady/blob/main/src/auth/Ownable.sol\":10363:11071  function completeOwnershipHandover(address pendingOwner) public payable virtual onlyOwner {... */\n    tag_127:\n        /* \"https://github.com/Vectorized/solady/blob/main/src/auth/Ownable.sol\":12517:12530  _checkOwner() */\n      tag_217\n        /* \"https://github.com/Vectorized/solady/blob/main/src/auth/Ownable.sol\":12517:12528  _checkOwner */\n      tag_177\n        /* \"https://github.com/Vectorized/solady/blob/main/src/auth/Ownable.sol\":12517:12530  _checkOwner() */\n      jump\t// in\n    tag_217:\n        /* \"https://github.com/Vectorized/solady/blob/main/src/auth/Ownable.sol\":10597:10616  _HANDOVER_SLOT_SEED */\n      0x389a75e1\n        /* \"https://github.com/Vectorized/solady/blob/main/src/auth/Ownable.sol\":10591:10595  0x0c */\n      0x0c\n        /* \"https://github.com/Vectorized/solady/blob/main/src/auth/Ownable.sol\":10584:10617  mstore(0x0c, _HANDOVER_SLOT_SEED) */\n      mstore\n        /* \"https://github.com/Vectorized/solady/blob/main/src/auth/Ownable.sol\":10643:10655  pendingOwner */\n      dup1\n        /* \"https://github.com/Vectorized/solady/blob/main/src/auth/Ownable.sol\":10637:10641  0x00 */\n      0x00\n        /* \"https://github.com/Vectorized/solady/blob/main/src/auth/Ownable.sol\":10630:10656  mstore(0x00, pendingOwner) */\n      mstore\n        /* \"https://github.com/Vectorized/solady/blob/main/src/auth/Ownable.sol\":10705:10709  0x20 */\n      0x20\n        /* \"https://github.com/Vectorized/solady/blob/main/src/auth/Ownable.sol\":10699:10703  0x0c */\n      0x0c\n        /* \"https://github.com/Vectorized/solady/blob/main/src/auth/Ownable.sol\":10689:10710  keccak256(0x0c, 0x20) */\n      keccak256\n        /* \"https://github.com/Vectorized/solady/blob/main/src/auth/Ownable.sol\":10811:10823  handoverSlot */\n      dup1\n        /* \"https://github.com/Vectorized/solady/blob/main/src/auth/Ownable.sol\":10805:10824  sload(handoverSlot) */\n      sload\n        /* \"https://github.com/Vectorized/solady/blob/main/src/auth/Ownable.sol\":10792:10803  timestamp() */\n      timestamp\n        /* \"https://github.com/Vectorized/solady/blob/main/src/auth/Ownable.sol\":10789:10825  gt(timestamp(), sload(handoverSlot)) */\n      gt\n        /* \"https://github.com/Vectorized/solady/blob/main/src/auth/Ownable.sol\":10786:10943  if gt(timestamp(), sload(handoverSlot)) {... */\n      iszero\n      tag_219\n      jumpi\n        /* \"https://github.com/Vectorized/solady/blob/main/src/auth/Ownable.sol\":10857:10867  0x6f5e8818 */\n      0x6f5e8818\n        /* \"https://github.com/Vectorized/solady/blob/main/src/auth/Ownable.sol\":10851:10855  0x00 */\n      0x00\n        /* \"https://github.com/Vectorized/solady/blob/main/src/auth/Ownable.sol\":10844:10868  mstore(0x00, 0x6f5e8818) */\n      mstore\n        /* \"https://github.com/Vectorized/solady/blob/main/src/auth/Ownable.sol\":10924:10928  0x04 */\n      0x04\n        /* \"https://github.com/Vectorized/solady/blob/main/src/auth/Ownable.sol\":10918:10922  0x1c */\n      0x1c\n        /* \"https://github.com/Vectorized/solady/blob/main/src/auth/Ownable.sol\":10911:10929  revert(0x1c, 0x04) */\n      revert\n        /* \"https://github.com/Vectorized/solady/blob/main/src/auth/Ownable.sol\":10786:10943  if gt(timestamp(), sload(handoverSlot)) {... */\n    tag_219:\n        /* \"https://github.com/Vectorized/solady/blob/main/src/auth/Ownable.sol\":11020:11021  0 */\n      0x00\n        /* \"https://github.com/Vectorized/solady/blob/main/src/auth/Ownable.sol\":11006:11018  handoverSlot */\n      dup2\n        /* \"https://github.com/Vectorized/solady/blob/main/src/auth/Ownable.sol\":10999:11022  sstore(handoverSlot, 0) */\n      sstore\n        /* \"https://github.com/Vectorized/solady/blob/main/src/auth/Ownable.sol\":10515:11032  {... */\n      pop\n        /* \"https://github.com/Vectorized/solady/blob/main/src/auth/Ownable.sol\":11041:11064  _setOwner(pendingOwner) */\n      tag_220\n        /* \"https://github.com/Vectorized/solady/blob/main/src/auth/Ownable.sol\":11051:11063  pendingOwner */\n      dup2\n        /* \"https://github.com/Vectorized/solady/blob/main/src/auth/Ownable.sol\":11041:11050  _setOwner */\n      tag_180\n        /* \"https://github.com/Vectorized/solady/blob/main/src/auth/Ownable.sol\":11041:11064  _setOwner(pendingOwner) */\n      jump\t// in\n    tag_220:\n        /* \"https://github.com/Vectorized/solady/blob/main/src/auth/Ownable.sol\":10363:11071  function completeOwnershipHandover(address pendingOwner) public payable virtual onlyOwner {... */\n      pop\n      jump\t// out\n        /* \"https://github.com/Vectorized/solady/blob/main/src/auth/Ownable.sol\":8348:8697  function transferOwnership(address newOwner) public payable virtual onlyOwner {... */\n    tag_130:\n        /* \"https://github.com/Vectorized/solady/blob/main/src/auth/Ownable.sol\":12517:12530  _checkOwner() */\n      tag_222\n        /* \"https://github.com/Vectorized/solady/blob/main/src/auth/Ownable.sol\":12517:12528  _checkOwner */\n      tag_177\n        /* \"https://github.com/Vectorized/solady/blob/main/src/auth/Ownable.sol\":12517:12530  _checkOwner() */\n      jump\t// in\n    tag_222:\n        /* \"https://github.com/Vectorized/solady/blob/main/src/auth/Ownable.sol\":8520:8528  newOwner */\n      dup1\n        /* \"https://github.com/Vectorized/solady/blob/main/src/auth/Ownable.sol\":8516:8518  96 */\n      0x60\n        /* \"https://github.com/Vectorized/solady/blob/main/src/auth/Ownable.sol\":8512:8529  shl(96, newOwner) */\n      shl\n        /* \"https://github.com/Vectorized/solady/blob/main/src/auth/Ownable.sol\":8502:8652  if iszero(shl(96, newOwner)) {... */\n      tag_224\n      jumpi\n        /* \"https://github.com/Vectorized/solady/blob/main/src/auth/Ownable.sol\":8562:8572  0x7448fbae */\n      0x7448fbae\n        /* \"https://github.com/Vectorized/solady/blob/main/src/auth/Ownable.sol\":8556:8560  0x00 */\n      0x00\n        /* \"https://github.com/Vectorized/solady/blob/main/src/auth/Ownable.sol\":8549:8573  mstore(0x00, 0x7448fbae) */\n      mstore\n        /* \"https://github.com/Vectorized/solady/blob/main/src/auth/Ownable.sol\":8633:8637  0x04 */\n      0x04\n        /* \"https://github.com/Vectorized/solady/blob/main/src/auth/Ownable.sol\":8627:8631  0x1c */\n      0x1c\n        /* \"https://github.com/Vectorized/solady/blob/main/src/auth/Ownable.sol\":8620:8638  revert(0x1c, 0x04) */\n      revert\n        /* \"https://github.com/Vectorized/solady/blob/main/src/auth/Ownable.sol\":8502:8652  if iszero(shl(96, newOwner)) {... */\n    tag_224:\n        /* \"https://github.com/Vectorized/solady/blob/main/src/auth/Ownable.sol\":8671:8690  _setOwner(newOwner) */\n      tag_225\n        /* \"https://github.com/Vectorized/solady/blob/main/src/auth/Ownable.sol\":8681:8689  newOwner */\n      dup2\n        /* \"https://github.com/Vectorized/solady/blob/main/src/auth/Ownable.sol\":8671:8680  _setOwner */\n      tag_180\n        /* \"https://github.com/Vectorized/solady/blob/main/src/auth/Ownable.sol\":8671:8690  _setOwner(newOwner) */\n      jump\t// in\n    tag_225:\n        /* \"https://github.com/Vectorized/solady/blob/main/src/auth/Ownable.sol\":8348:8697  function transferOwnership(address newOwner) public payable virtual onlyOwner {... */\n      pop\n      jump\t// out\n        /* \"https://github.com/Vectorized/solady/blob/main/src/auth/Ownable.sol\":11693:12128  function ownershipHandoverExpiresAt(address pendingOwner)... */\n    tag_134:\n        /* \"https://github.com/Vectorized/solady/blob/main/src/auth/Ownable.sol\":11812:11826  uint256 result */\n      0x00\n        /* \"https://github.com/Vectorized/solady/blob/main/src/auth/Ownable.sol\":11963:11982  _HANDOVER_SLOT_SEED */\n      0x389a75e1\n        /* \"https://github.com/Vectorized/solady/blob/main/src/auth/Ownable.sol\":11957:11961  0x0c */\n      0x0c\n        /* \"https://github.com/Vectorized/solady/blob/main/src/auth/Ownable.sol\":11950:11983  mstore(0x0c, _HANDOVER_SLOT_SEED) */\n      mstore\n        /* \"https://github.com/Vectorized/solady/blob/main/src/auth/Ownable.sol\":12009:12021  pendingOwner */\n      dup2\n        /* \"https://github.com/Vectorized/solady/blob/main/src/auth/Ownable.sol\":12003:12007  0x00 */\n      0x00\n        /* \"https://github.com/Vectorized/solady/blob/main/src/auth/Ownable.sol\":11996:12022  mstore(0x00, pendingOwner) */\n      mstore\n        /* \"https://github.com/Vectorized/solady/blob/main/src/auth/Ownable.sol\":12106:12110  0x20 */\n      0x20\n        /* \"https://github.com/Vectorized/solady/blob/main/src/auth/Ownable.sol\":12100:12104  0x0c */\n      0x0c\n        /* \"https://github.com/Vectorized/solady/blob/main/src/auth/Ownable.sol\":12090:12111  keccak256(0x0c, 0x20) */\n      keccak256\n        /* \"https://github.com/Vectorized/solady/blob/main/src/auth/Ownable.sol\":12084:12112  sload(keccak256(0x0c, 0x20)) */\n      sload\n        /* \"https://github.com/Vectorized/solady/blob/main/src/auth/Ownable.sol\":12074:12112  result := sload(keccak256(0x0c, 0x20)) */\n      swap1\n      pop\n        /* \"https://github.com/Vectorized/solady/blob/main/src/auth/Ownable.sol\":11693:12128  function ownershipHandoverExpiresAt(address pendingOwner)... */\n      swap2\n      swap1\n      pop\n      jump\t// out\n        /* \"https://github.com/Vectorized/solady/blob/main/src/tokens/ERC20.sol\":30986:31093  function _givePermit2InfiniteAllowance() internal view virtual returns (bool) {... */\n    tag_139:\n        /* \"https://github.com/Vectorized/solady/blob/main/src/tokens/ERC20.sol\":31058:31062  bool */\n      0x00\n        /* \"https://github.com/Vectorized/solady/blob/main/src/tokens/ERC20.sol\":31081:31086  false */\n      0x00\n        /* \"https://github.com/Vectorized/solady/blob/main/src/tokens/ERC20.sol\":31074:31086  return false */\n      swap1\n      pop\n        /* \"https://github.com/Vectorized/solady/blob/main/src/tokens/ERC20.sol\":30986:31093  function _givePermit2InfiniteAllowance() internal view virtual returns (bool) {... */\n      swap1\n      jump\t// out\n        /* \"https://github.com/Vectorized/solady/blob/main/src/tokens/ERC20.sol\":22599:23771  function _mint(address to, uint256 amount) internal virtual {... */\n    tag_145:\n        /* \"https://github.com/Vectorized/solady/blob/main/src/tokens/ERC20.sol\":22669:22713  _beforeTokenTransfer(address(0), to, amount) */\n      tag_229\n        /* \"https://github.com/Vectorized/solady/blob/main/src/tokens/ERC20.sol\":22698:22699  0 */\n      0x00\n        /* \"https://github.com/Vectorized/solady/blob/main/src/tokens/ERC20.sol\":22702:22704  to */\n      dup4\n        /* \"https://github.com/Vectorized/solady/blob/main/src/tokens/ERC20.sol\":22706:22712  amount */\n      dup4\n        /* \"https://github.com/Vectorized/solady/blob/main/src/tokens/ERC20.sol\":22669:22689  _beforeTokenTransfer */\n      tag_149\n        /* \"https://github.com/Vectorized/solady/blob/main/src/tokens/ERC20.sol\":22669:22713  _beforeTokenTransfer(address(0), to, amount) */\n      jump\t// in\n    tag_229:\n        /* \"https://github.com/Vectorized/solady/blob/main/src/tokens/ERC20.sol\":22820:22838  _TOTAL_SUPPLY_SLOT */\n      0x05345cdf77eb68f44c\n        /* \"https://github.com/Vectorized/solady/blob/main/src/tokens/ERC20.sol\":22814:22839  sload(_TOTAL_SUPPLY_SLOT) */\n      sload\n        /* \"https://github.com/Vectorized/solady/blob/main/src/tokens/ERC20.sol\":22899:22905  amount */\n      dup2\n        /* \"https://github.com/Vectorized/solady/blob/main/src/tokens/ERC20.sol\":22880:22897  totalSupplyBefore */\n      dup2\n        /* \"https://github.com/Vectorized/solady/blob/main/src/tokens/ERC20.sol\":22876:22906  add(totalSupplyBefore, amount) */\n      add\n        /* \"https://github.com/Vectorized/solady/blob/main/src/tokens/ERC20.sol\":22996:23013  totalSupplyBefore */\n      dup2\n        /* \"https://github.com/Vectorized/solady/blob/main/src/tokens/ERC20.sol\":22978:22994  totalSupplyAfter */\n      dup2\n        /* \"https://github.com/Vectorized/solady/blob/main/src/tokens/ERC20.sol\":22975:23014  lt(totalSupplyAfter, totalSupplyBefore) */\n      lt\n        /* \"https://github.com/Vectorized/solady/blob/main/src/tokens/ERC20.sol\":22972:23134  if lt(totalSupplyAfter, totalSupplyBefore) {... */\n      iszero\n      tag_230\n      jumpi\n        /* \"https://github.com/Vectorized/solady/blob/main/src/tokens/ERC20.sol\":23046:23056  0xe5cfe957 */\n      0xe5cfe957\n        /* \"https://github.com/Vectorized/solady/blob/main/src/tokens/ERC20.sol\":23040:23044  0x00 */\n      0x00\n        /* \"https://github.com/Vectorized/solady/blob/main/src/tokens/ERC20.sol\":23033:23057  mstore(0x00, 0xe5cfe957) */\n      mstore\n        /* \"https://github.com/Vectorized/solady/blob/main/src/tokens/ERC20.sol\":23115:23119  0x04 */\n      0x04\n        /* \"https://github.com/Vectorized/solady/blob/main/src/tokens/ERC20.sol\":23109:23113  0x1c */\n      0x1c\n        /* \"https://github.com/Vectorized/solady/blob/main/src/tokens/ERC20.sol\":23102:23120  revert(0x1c, 0x04) */\n      revert\n        /* \"https://github.com/Vectorized/solady/blob/main/src/tokens/ERC20.sol\":22972:23134  if lt(totalSupplyAfter, totalSupplyBefore) {... */\n    tag_230:\n        /* \"https://github.com/Vectorized/solady/blob/main/src/tokens/ERC20.sol\":23221:23237  totalSupplyAfter */\n      dup1\n        /* \"https://github.com/Vectorized/solady/blob/main/src/tokens/ERC20.sol\":23201:23219  _TOTAL_SUPPLY_SLOT */\n      0x05345cdf77eb68f44c\n        /* \"https://github.com/Vectorized/solady/blob/main/src/tokens/ERC20.sol\":23194:23238  sstore(_TOTAL_SUPPLY_SLOT, totalSupplyAfter) */\n      sstore\n        /* \"https://github.com/Vectorized/solady/blob/main/src/tokens/ERC20.sol\":23324:23342  _BALANCE_SLOT_SEED */\n      0x87a211a2\n        /* \"https://github.com/Vectorized/solady/blob/main/src/tokens/ERC20.sol\":23318:23322  0x0c */\n      0x0c\n        /* \"https://github.com/Vectorized/solady/blob/main/src/tokens/ERC20.sol\":23311:23343  mstore(0x0c, _BALANCE_SLOT_SEED) */\n      mstore\n        /* \"https://github.com/Vectorized/solady/blob/main/src/tokens/ERC20.sol\":23369:23371  to */\n      dup4\n        /* \"https://github.com/Vectorized/solady/blob/main/src/tokens/ERC20.sol\":23363:23367  0x00 */\n      0x00\n        /* \"https://github.com/Vectorized/solady/blob/main/src/tokens/ERC20.sol\":23356:23372  mstore(0x00, to) */\n      mstore\n        /* \"https://github.com/Vectorized/solady/blob/main/src/tokens/ERC20.sol\":23422:23426  0x20 */\n      0x20\n        /* \"https://github.com/Vectorized/solady/blob/main/src/tokens/ERC20.sol\":23416:23420  0x0c */\n      0x0c\n        /* \"https://github.com/Vectorized/solady/blob/main/src/tokens/ERC20.sol\":23406:23427  keccak256(0x0c, 0x20) */\n      keccak256\n        /* \"https://github.com/Vectorized/solady/blob/main/src/tokens/ERC20.sol\":23538:23544  amount */\n      dup4\n        /* \"https://github.com/Vectorized/solady/blob/main/src/tokens/ERC20.sol\":23522:23535  toBalanceSlot */\n      dup2\n        /* \"https://github.com/Vectorized/solady/blob/main/src/tokens/ERC20.sol\":23516:23536  sload(toBalanceSlot) */\n      sload\n        /* \"https://github.com/Vectorized/solady/blob/main/src/tokens/ERC20.sol\":23512:23545  add(sload(toBalanceSlot), amount) */\n      add\n        /* \"https://github.com/Vectorized/solady/blob/main/src/tokens/ERC20.sol\":23497:23510  toBalanceSlot */\n      dup2\n        /* \"https://github.com/Vectorized/solady/blob/main/src/tokens/ERC20.sol\":23490:23546  sstore(toBalanceSlot, add(sload(toBalanceSlot), amount)) */\n      sstore\n        /* \"https://github.com/Vectorized/solady/blob/main/src/tokens/ERC20.sol\":23614:23620  amount */\n      dup4\n        /* \"https://github.com/Vectorized/solady/blob/main/src/tokens/ERC20.sol\":23608:23612  0x20 */\n      0x20\n        /* \"https://github.com/Vectorized/solady/blob/main/src/tokens/ERC20.sol\":23601:23621  mstore(0x20, amount) */\n      mstore\n        /* \"https://github.com/Vectorized/solady/blob/main/src/tokens/ERC20.sol\":23695:23699  0x0c */\n      0x0c\n        /* \"https://github.com/Vectorized/solady/blob/main/src/tokens/ERC20.sol\":23689:23700  mload(0x0c) */\n      mload\n        /* \"https://github.com/Vectorized/solady/blob/main/src/tokens/ERC20.sol\":23685:23687  96 */\n      0x60\n        /* \"https://github.com/Vectorized/solady/blob/main/src/tokens/ERC20.sol\":23681:23701  shr(96, mload(0x0c)) */\n      shr\n        /* \"https://github.com/Vectorized/solady/blob/main/src/tokens/ERC20.sol\":23678:23679  0 */\n      0x00\n        /* \"https://github.com/Vectorized/solady/blob/main/src/tokens/ERC20.sol\":23651:23676  _TRANSFER_EVENT_SIGNATURE */\n      0xddf252ad1be2c89b69c2b068fc378daa952ba7f163c4a11628f55a4df523b3ef\n        /* \"https://github.com/Vectorized/solady/blob/main/src/tokens/ERC20.sol\":23645:23649  0x20 */\n      0x20\n        /* \"https://github.com/Vectorized/solady/blob/main/src/tokens/ERC20.sol\":23639:23643  0x20 */\n      dup1\n        /* \"https://github.com/Vectorized/solady/blob/main/src/tokens/ERC20.sol\":23634:23702  log3(0x20, 0x20, _TRANSFER_EVENT_SIGNATURE, 0, shr(96, mload(0x0c))) */\n      log3\n        /* \"https://github.com/Vectorized/solady/blob/main/src/tokens/ERC20.sol\":22775:23712  {... */\n      pop\n      pop\n      pop\n        /* \"https://github.com/Vectorized/solady/blob/main/src/tokens/ERC20.sol\":23721:23764  _afterTokenTransfer(address(0), to, amount) */\n      tag_231\n        /* \"https://github.com/Vectorized/solady/blob/main/src/tokens/ERC20.sol\":23749:23750  0 */\n      0x00\n        /* \"https://github.com/Vectorized/solady/blob/main/src/tokens/ERC20.sol\":23753:23755  to */\n      dup4\n        /* \"https://github.com/Vectorized/solady/blob/main/src/tokens/ERC20.sol\":23757:23763  amount */\n      dup4\n        /* \"https://github.com/Vectorized/solady/blob/main/src/tokens/ERC20.sol\":23721:23740  _afterTokenTransfer */\n      tag_161\n        /* \"https://github.com/Vectorized/solady/blob/main/src/tokens/ERC20.sol\":23721:23764  _afterTokenTransfer(address(0), to, amount) */\n      jump\t// in\n    tag_231:\n        /* \"https://github.com/Vectorized/solady/blob/main/src/tokens/ERC20.sol\":22599:23771  function _mint(address to, uint256 amount) internal virtual {... */\n      pop\n      pop\n      jump\t// out\n        /* \"https://github.com/Vectorized/solady/blob/main/src/tokens/ERC20.sol\":30066:30157  function _beforeTokenTransfer(address from, address to, uint256 amount) internal virtual {} */\n    tag_149:\n      pop\n      pop\n      pop\n      jump\t// out\n        /* \"https://github.com/Vectorized/solady/blob/main/src/tokens/ERC20.sol\":30269:30359  function _afterTokenTransfer(address from, address to, uint256 amount) internal virtual {} */\n    tag_161:\n      pop\n      pop\n      pop\n      jump\t// out\n        /* \"https://github.com/Vectorized/solady/blob/main/src/auth/Ownable.sol\":7878:7988  function _ownershipHandoverValidFor() internal view virtual returns (uint64) {... */\n    tag_164:\n        /* \"https://github.com/Vectorized/solady/blob/main/src/auth/Ownable.sol\":7947:7953  uint64 */\n      0x00\n        /* \"https://github.com/Vectorized/solady/blob/main/src/auth/Ownable.sol\":7972:7981  48 * 3600 */\n      0x02a300\n        /* \"https://github.com/Vectorized/solady/blob/main/src/auth/Ownable.sol\":7965:7981  return 48 * 3600 */\n      swap1\n      pop\n        /* \"https://github.com/Vectorized/solady/blob/main/src/auth/Ownable.sol\":7878:7988  function _ownershipHandoverValidFor() internal view virtual returns (uint64) {... */\n      swap1\n      jump\t// out\n        /* \"https://github.com/Vectorized/solady/blob/main/src/tokens/ERC20.sol\":16349:16427  function _constantNameHash() internal view virtual returns (bytes32 result) {} */\n    tag_168:\n        /* \"https://github.com/Vectorized/solady/blob/main/src/tokens/ERC20.sol\":16409:16423  bytes32 result */\n      0x00\n        /* \"https://github.com/Vectorized/solady/blob/main/src/tokens/ERC20.sol\":16349:16427  function _constantNameHash() internal view virtual returns (bytes32 result) {} */\n      swap1\n      jump\t// out\n        /* \"https://github.com/Vectorized/solady/blob/main/src/tokens/ERC20.sol\":16501:16619  function _versionHash() internal view virtual returns (bytes32 result) {... */\n    tag_172:\n        /* \"https://github.com/Vectorized/solady/blob/main/src/tokens/ERC20.sol\":16556:16570  bytes32 result */\n      0x00\n        /* \"https://github.com/Vectorized/solady/blob/main/src/tokens/ERC20.sol\":5177:5243  0xc89efdaa54c0f20c7adf612882df0950f5a951637e0307cdcb4c672f298b8bc6 */\n      0xc89efdaa54c0f20c7adf612882df0950f5a951637e0307cdcb4c672f298b8bc6\n        /* \"https://github.com/Vectorized/solady/blob/main/src/tokens/ERC20.sol\":16591:16612  _DEFAULT_VERSION_HASH */\n      0x00\n      shl\n        /* \"https://github.com/Vectorized/solady/blob/main/src/tokens/ERC20.sol\":16582:16612  result = _DEFAULT_VERSION_HASH */\n      swap1\n      pop\n        /* \"https://github.com/Vectorized/solady/blob/main/src/tokens/ERC20.sol\":16501:16619  function _versionHash() internal view virtual returns (bytes32 result) {... */\n      swap1\n      jump\t// out\n        /* \"https://github.com/Vectorized/solady/blob/main/src/auth/Ownable.sol\":7292:7647  function _checkOwner() internal view virtual {... */\n    tag_177:\n        /* \"https://github.com/Vectorized/solady/blob/main/src/auth/Ownable.sol\":7504:7515  _OWNER_SLOT */\n      0xffffffffffffffffffffffffffffffffffffffffffffffffffffffff74873927\n        /* \"https://github.com/Vectorized/solady/blob/main/src/auth/Ownable.sol\":7498:7516  sload(_OWNER_SLOT) */\n      sload\n        /* \"https://github.com/Vectorized/solady/blob/main/src/auth/Ownable.sol\":7488:7496  caller() */\n      caller\n        /* \"https://github.com/Vectorized/solady/blob/main/src/auth/Ownable.sol\":7485:7517  eq(caller(), sload(_OWNER_SLOT)) */\n      eq\n        /* \"https://github.com/Vectorized/solady/blob/main/src/auth/Ownable.sol\":7475:7631  if iszero(eq(caller(), sload(_OWNER_SLOT))) {... */\n      tag_238\n      jumpi\n        /* \"https://github.com/Vectorized/solady/blob/main/src/auth/Ownable.sol\":7550:7560  0x82b42900 */\n      0x82b42900\n        /* \"https://github.com/Vectorized/solady/blob/main/src/auth/Ownable.sol\":7544:7548  0x00 */\n      0x00\n        /* \"https://github.com/Vectorized/solady/blob/main/src/auth/Ownable.sol\":7537:7561  mstore(0x00, 0x82b42900) */\n      mstore\n        /* \"https://github.com/Vectorized/solady/blob/main/src/auth/Ownable.sol\":7612:7616  0x04 */\n      0x04\n        /* \"https://github.com/Vectorized/solady/blob/main/src/auth/Ownable.sol\":7606:7610  0x1c */\n      0x1c\n        /* \"https://github.com/Vectorized/solady/blob/main/src/auth/Ownable.sol\":7599:7617  revert(0x1c, 0x04) */\n      revert\n        /* \"https://github.com/Vectorized/solady/blob/main/src/auth/Ownable.sol\":7475:7631  if iszero(eq(caller(), sload(_OWNER_SLOT))) {... */\n    tag_238:\n        /* \"https://github.com/Vectorized/solady/blob/main/src/auth/Ownable.sol\":7292:7647  function _checkOwner() internal view virtual {... */\n      jump\t// out\n        /* \"https://github.com/Vectorized/solady/blob/main/src/auth/Ownable.sol\":6145:7234  function _setOwner(address newOwner) internal virtual {... */\n    tag_180:\n        /* \"https://github.com/Vectorized/solady/blob/main/src/auth/Ownable.sol\":6213:6236  _guardInitializeOwner() */\n      tag_240\n        /* \"https://github.com/Vectorized/solady/blob/main/src/auth/Ownable.sol\":6213:6234  _guardInitializeOwner */\n      tag_241\n        /* \"https://github.com/Vectorized/solady/blob/main/src/auth/Ownable.sol\":6213:6236  _guardInitializeOwner() */\n      jump\t// in\n    tag_240:\n        /* \"https://github.com/Vectorized/solady/blob/main/src/auth/Ownable.sol\":6209:7228  if (_guardInitializeOwner()) {... */\n      iszero\n      tag_242\n      jumpi\n        /* \"https://github.com/Vectorized/solady/blob/main/src/auth/Ownable.sol\":6343:6354  _OWNER_SLOT */\n      0xffffffffffffffffffffffffffffffffffffffffffffffffffffffff74873927\n        /* \"https://github.com/Vectorized/solady/blob/main/src/auth/Ownable.sol\":6443:6451  newOwner */\n      dup2\n        /* \"https://github.com/Vectorized/solady/blob/main/src/auth/Ownable.sol\":6439:6441  96 */\n      0x60\n        /* \"https://github.com/Vectorized/solady/blob/main/src/auth/Ownable.sol\":6435:6452  shl(96, newOwner) */\n      shl\n        /* \"https://github.com/Vectorized/solady/blob/main/src/auth/Ownable.sol\":6431:6433  96 */\n      0x60\n        /* \"https://github.com/Vectorized/solady/blob/main/src/auth/Ownable.sol\":6427:6453  shr(96, shl(96, newOwner)) */\n      shr\n        /* \"https://github.com/Vectorized/solady/blob/main/src/auth/Ownable.sol\":6415:6453  newOwner := shr(96, shl(96, newOwner)) */\n      swap2\n      pop\n        /* \"https://github.com/Vectorized/solady/blob/main/src/auth/Ownable.sol\":6597:6605  newOwner */\n      dup2\n        /* \"https://github.com/Vectorized/solady/blob/main/src/auth/Ownable.sol\":6585:6594  ownerSlot */\n      dup2\n        /* \"https://github.com/Vectorized/solady/blob/main/src/auth/Ownable.sol\":6579:6595  sload(ownerSlot) */\n      sload\n        /* \"https://github.com/Vectorized/solady/blob/main/src/auth/Ownable.sol\":6539:6577  _OWNERSHIP_TRANSFERRED_EVENT_SIGNATURE */\n      0x8be0079c531659141344cd1fd0a4f28419497f9722a3daafe3b4186f6b6457e0\n        /* \"https://github.com/Vectorized/solady/blob/main/src/auth/Ownable.sol\":6536:6537  0 */\n      0x00\n        /* \"https://github.com/Vectorized/solady/blob/main/src/auth/Ownable.sol\":6533:6534  0 */\n      0x00\n        /* \"https://github.com/Vectorized/solady/blob/main/src/auth/Ownable.sol\":6528:6606  log3(0, 0, _OWNERSHIP_TRANSFERRED_EVENT_SIGNATURE, sload(ownerSlot), newOwner) */\n      log3\n        /* \"https://github.com/Vectorized/solady/blob/main/src/auth/Ownable.sol\":6710:6718  newOwner */\n      dup2\n        /* \"https://github.com/Vectorized/solady/blob/main/src/auth/Ownable.sol\":6703:6719  iszero(newOwner) */\n      iszero\n        /* \"https://github.com/Vectorized/solady/blob/main/src/auth/Ownable.sol\":6698:6701  255 */\n      0xff\n        /* \"https://github.com/Vectorized/solady/blob/main/src/auth/Ownable.sol\":6694:6720  shl(255, iszero(newOwner)) */\n      shl\n        /* \"https://github.com/Vectorized/solady/blob/main/src/auth/Ownable.sol\":6684:6692  newOwner */\n      dup3\n        /* \"https://github.com/Vectorized/solady/blob/main/src/auth/Ownable.sol\":6681:6721  or(newOwner, shl(255, iszero(newOwner))) */\n      or\n        /* \"https://github.com/Vectorized/solady/blob/main/src/auth/Ownable.sol\":6670:6679  ownerSlot */\n      dup2\n        /* \"https://github.com/Vectorized/solady/blob/main/src/auth/Ownable.sol\":6663:6722  sstore(ownerSlot, or(newOwner, shl(255, iszero(newOwner)))) */\n      sstore\n        /* \"https://github.com/Vectorized/solady/blob/main/src/auth/Ownable.sol\":6308:6736  {... */\n      pop\n        /* \"https://github.com/Vectorized/solady/blob/main/src/auth/Ownable.sol\":6209:7228  if (_guardInitializeOwner()) {... */\n      jump(tag_243)\n    tag_242:\n        /* \"https://github.com/Vectorized/solady/blob/main/src/auth/Ownable.sol\":6857:6868  _OWNER_SLOT */\n      0xffffffffffffffffffffffffffffffffffffffffffffffffffffffff74873927\n        /* \"https://github.com/Vectorized/solady/blob/main/src/auth/Ownable.sol\":6957:6965  newOwner */\n      dup2\n        /* \"https://github.com/Vectorized/solady/blob/main/src/auth/Ownable.sol\":6953:6955  96 */\n      0x60\n        /* \"https://github.com/Vectorized/solady/blob/main/src/auth/Ownable.sol\":6949:6966  shl(96, newOwner) */\n      shl\n        /* \"https://github.com/Vectorized/solady/blob/main/src/auth/Ownable.sol\":6945:6947  96 */\n      0x60\n        /* \"https://github.com/Vectorized/solady/blob/main/src/auth/Ownable.sol\":6941:6967  shr(96, shl(96, newOwner)) */\n      shr\n        /* \"https://github.com/Vectorized/solady/blob/main/src/auth/Ownable.sol\":6929:6967  newOwner := shr(96, shl(96, newOwner)) */\n      swap2\n      pop\n        /* \"https://github.com/Vectorized/solady/blob/main/src/auth/Ownable.sol\":7111:7119  newOwner */\n      dup2\n        /* \"https://github.com/Vectorized/solady/blob/main/src/auth/Ownable.sol\":7099:7108  ownerSlot */\n      dup2\n        /* \"https://github.com/Vectorized/solady/blob/main/src/auth/Ownable.sol\":7093:7109  sload(ownerSlot) */\n      sload\n        /* \"https://github.com/Vectorized/solady/blob/main/src/auth/Ownable.sol\":7053:7091  _OWNERSHIP_TRANSFERRED_EVENT_SIGNATURE */\n      0x8be0079c531659141344cd1fd0a4f28419497f9722a3daafe3b4186f6b6457e0\n        /* \"https://github.com/Vectorized/solady/blob/main/src/auth/Ownable.sol\":7050:7051  0 */\n      0x00\n        /* \"https://github.com/Vectorized/solady/blob/main/src/auth/Ownable.sol\":7047:7048  0 */\n      0x00\n        /* \"https://github.com/Vectorized/solady/blob/main/src/auth/Ownable.sol\":7042:7120  log3(0, 0, _OWNERSHIP_TRANSFERRED_EVENT_SIGNATURE, sload(ownerSlot), newOwner) */\n      log3\n        /* \"https://github.com/Vectorized/solady/blob/main/src/auth/Ownable.sol\":7195:7203  newOwner */\n      dup2\n        /* \"https://github.com/Vectorized/solady/blob/main/src/auth/Ownable.sol\":7184:7193  ownerSlot */\n      dup2\n        /* \"https://github.com/Vectorized/solady/blob/main/src/auth/Ownable.sol\":7177:7204  sstore(ownerSlot, newOwner) */\n      sstore\n        /* \"https://github.com/Vectorized/solady/blob/main/src/auth/Ownable.sol\":6822:7218  {... */\n      pop\n        /* \"https://github.com/Vectorized/solady/blob/main/src/auth/Ownable.sol\":6209:7228  if (_guardInitializeOwner()) {... */\n    tag_243:\n        /* \"https://github.com/Vectorized/solady/blob/main/src/auth/Ownable.sol\":6145:7234  function _setOwner(address newOwner) internal virtual {... */\n      pop\n      jump\t// out\n        /* \"https://github.com/Vectorized/solady/blob/main/src/auth/Ownable.sol\":4348:4426  function _guardInitializeOwner() internal pure virtual returns (bool guard) {} */\n    tag_241:\n        /* \"https://github.com/Vectorized/solady/blob/main/src/auth/Ownable.sol\":4412:4422  bool guard */\n      0x00\n        /* \"https://github.com/Vectorized/solady/blob/main/src/auth/Ownable.sol\":4348:4426  function _guardInitializeOwner() internal pure virtual returns (bool guard) {} */\n      swap1\n      jump\t// out\n        /* \"#utility.yul\":7:106   */\n    tag_245:\n        /* \"#utility.yul\":59:65   */\n      0x00\n        /* \"#utility.yul\":93:98   */\n      dup2\n        /* \"#utility.yul\":87:99   */\n      mload\n        /* \"#utility.yul\":77:99   */\n      swap1\n      pop\n        /* \"#utility.yul\":7:106   */\n      swap2\n      swap1\n      pop\n      jump\t// out\n        /* \"#utility.yul\":112:281   */\n    tag_246:\n        /* \"#utility.yul\":196:207   */\n      0x00\n        /* \"#utility.yul\":230:236   */\n      dup3\n        /* \"#utility.yul\":225:228   */\n      dup3\n        /* \"#utility.yul\":218:237   */\n      mstore\n        /* \"#utility.yul\":270:274   */\n      0x20\n        /* \"#utility.yul\":265:268   */\n      dup3\n        /* \"#utility.yul\":261:275   */\n      add\n        /* \"#utility.yul\":246:275   */\n      swap1\n      pop\n        /* \"#utility.yul\":112:281   */\n      swap3\n      swap2\n      pop\n      pop\n      jump\t// out\n        /* \"#utility.yul\":287:426   */\n    tag_247:\n        /* \"#utility.yul\":376:382   */\n      dup3\n        /* \"#utility.yul\":371:374   */\n      dup2\n        /* \"#utility.yul\":366:369   */\n      dup4\n        /* \"#utility.yul\":360:383   */\n      mcopy\n        /* \"#utility.yul\":417:418   */\n      0x00\n        /* \"#utility.yul\":408:414   */\n      dup4\n        /* \"#utility.yul\":403:406   */\n      dup4\n        /* \"#utility.yul\":399:415   */\n      add\n        /* \"#utility.yul\":392:419   */\n      mstore\n        /* \"#utility.yul\":287:426   */\n      pop\n      pop\n      pop\n      jump\t// out\n        /* \"#utility.yul\":432:534   */\n    tag_248:\n        /* \"#utility.yul\":473:479   */\n      0x00\n        /* \"#utility.yul\":524:526   */\n      0x1f\n        /* \"#utility.yul\":520:527   */\n      not\n        /* \"#utility.yul\":515:517   */\n      0x1f\n        /* \"#utility.yul\":508:513   */\n      dup4\n        /* \"#utility.yul\":504:518   */\n      add\n        /* \"#utility.yul\":500:528   */\n      and\n        /* \"#utility.yul\":490:528   */\n      swap1\n      pop\n        /* \"#utility.yul\":432:534   */\n      swap2\n      swap1\n      pop\n      jump\t// out\n        /* \"#utility.yul\":540:917   */\n    tag_249:\n        /* \"#utility.yul\":628:631   */\n      0x00\n        /* \"#utility.yul\":656:695   */\n      tag_280\n        /* \"#utility.yul\":689:694   */\n      dup3\n        /* \"#utility.yul\":656:695   */\n      tag_245\n      jump\t// in\n    tag_280:\n        /* \"#utility.yul\":711:782   */\n      tag_281\n        /* \"#utility.yul\":775:781   */\n      dup2\n        /* \"#utility.yul\":770:773   */\n      dup6\n        /* \"#utility.yul\":711:782   */\n      tag_246\n      jump\t// in\n    tag_281:\n        /* \"#utility.yul\":704:782   */\n      swap4\n      pop\n        /* \"#utility.yul\":791:856   */\n      tag_282\n        /* \"#utility.yul\":849:855   */\n      dup2\n        /* \"#utility.yul\":844:847   */\n      dup6\n        /* \"#utility.yul\":837:841   */\n      0x20\n        /* \"#utility.yul\":830:835   */\n      dup7\n        /* \"#utility.yul\":826:842   */\n      add\n        /* \"#utility.yul\":791:856   */\n      tag_247\n      jump\t// in\n    tag_282:\n        /* \"#utility.yul\":881:910   */\n      tag_283\n        /* \"#utility.yul\":903:909   */\n      dup2\n        /* \"#utility.yul\":881:910   */\n      tag_248\n      jump\t// in\n    tag_283:\n        /* \"#utility.yul\":876:879   */\n      dup5\n        /* \"#utility.yul\":872:911   */\n      add\n        /* \"#utility.yul\":865:911   */\n      swap2\n      pop\n        /* \"#utility.yul\":632:917   */\n      pop\n        /* \"#utility.yul\":540:917   */\n      swap3\n      swap2\n      pop\n      pop\n      jump\t// out\n        /* \"#utility.yul\":923:1236   */\n    tag_33:\n        /* \"#utility.yul\":1036:1040   */\n      0x00\n        /* \"#utility.yul\":1074:1076   */\n      0x20\n        /* \"#utility.yul\":1063:1072   */\n      dup3\n        /* \"#utility.yul\":1059:1077   */\n      add\n        /* \"#utility.yul\":1051:1077   */\n      swap1\n      pop\n        /* \"#utility.yul\":1123:1132   */\n      dup2\n        /* \"#utility.yul\":1117:1121   */\n      dup2\n        /* \"#utility.yul\":1113:1133   */\n      sub\n        /* \"#utility.yul\":1109:1110   */\n      0x00\n        /* \"#utility.yul\":1098:1107   */\n      dup4\n        /* \"#utility.yul\":1094:1111   */\n      add\n        /* \"#utility.yul\":1087:1134   */\n      mstore\n        /* \"#utility.yul\":1151:1229   */\n      tag_285\n        /* \"#utility.yul\":1224:1228   */\n      dup2\n        /* \"#utility.yul\":1215:1221   */\n      dup5\n        /* \"#utility.yul\":1151:1229   */\n      tag_249\n      jump\t// in\n    tag_285:\n        /* \"#utility.yul\":1143:1229   */\n      swap1\n      pop\n        /* \"#utility.yul\":923:1236   */\n      swap3\n      swap2\n      pop\n      pop\n      jump\t// out\n        /* \"#utility.yul\":1323:1440   */\n    tag_251:\n        /* \"#utility.yul\":1432:1433   */\n      0x00\n        /* \"#utility.yul\":1429:1430   */\n      0x00\n        /* \"#utility.yul\":1422:1434   */\n      revert\n        /* \"#utility.yul\":1569:1695   */\n    tag_253:\n        /* \"#utility.yul\":1606:1613   */\n      0x00\n        /* \"#utility.yul\":1646:1688   */\n      0xffffffffffffffffffffffffffffffffffffffff\n        /* \"#utility.yul\":1639:1644   */\n      dup3\n        /* \"#utility.yul\":1635:1689   */\n      and\n        /* \"#utility.yul\":1624:1689   */\n      swap1\n      pop\n        /* \"#utility.yul\":1569:1695   */\n      swap2\n      swap1\n      pop\n      jump\t// out\n        /* \"#utility.yul\":1701:1797   */\n    tag_254:\n        /* \"#utility.yul\":1738:1745   */\n      0x00\n        /* \"#utility.yul\":1767:1791   */\n      tag_291\n        /* \"#utility.yul\":1785:1790   */\n      dup3\n        /* \"#utility.yul\":1767:1791   */\n      tag_253\n      jump\t// in\n    tag_291:\n        /* \"#utility.yul\":1756:1791   */\n      swap1\n      pop\n        /* \"#utility.yul\":1701:1797   */\n      swap2\n      swap1\n      pop\n      jump\t// out\n        /* \"#utility.yul\":1803:1925   */\n    tag_255:\n        /* \"#utility.yul\":1876:1900   */\n      tag_293\n        /* \"#utility.yul\":1894:1899   */\n      dup2\n        /* \"#utility.yul\":1876:1900   */\n      tag_254\n      jump\t// in\n    tag_293:\n        /* \"#utility.yul\":1869:1874   */\n      dup2\n        /* \"#utility.yul\":1866:1901   */\n      eq\n        /* \"#utility.yul\":1856:1919   */\n      tag_294\n      jumpi\n        /* \"#utility.yul\":1915:1916   */\n      0x00\n        /* \"#utility.yul\":1912:1913   */\n      0x00\n        /* \"#utility.yul\":1905:1917   */\n      revert\n        /* \"#utility.yul\":1856:1919   */\n    tag_294:\n        /* \"#utility.yul\":1803:1925   */\n      pop\n      jump\t// out\n        /* \"#utility.yul\":1931:2070   */\n    tag_256:\n        /* \"#utility.yul\":1977:1982   */\n      0x00\n        /* \"#utility.yul\":2015:2021   */\n      dup2\n        /* \"#utility.yul\":2002:2022   */\n      calldataload\n        /* \"#utility.yul\":1993:2022   */\n      swap1\n      pop\n        /* \"#utility.yul\":2031:2064   */\n      tag_296\n        /* \"#utility.yul\":2058:2063   */\n      dup2\n        /* \"#utility.yul\":2031:2064   */\n      tag_255\n      jump\t// in\n    tag_296:\n        /* \"#utility.yul\":1931:2070   */\n      swap3\n      swap2\n      pop\n      pop\n      jump\t// out\n        /* \"#utility.yul\":2076:2153   */\n    tag_257:\n        /* \"#utility.yul\":2113:2120   */\n      0x00\n        /* \"#utility.yul\":2142:2147   */\n      dup2\n        /* \"#utility.yul\":2131:2147   */\n      swap1\n      pop\n        /* \"#utility.yul\":2076:2153   */\n      swap2\n      swap1\n      pop\n      jump\t// out\n        /* \"#utility.yul\":2159:2281   */\n    tag_258:\n        /* \"#utility.yul\":2232:2256   */\n      tag_299\n        /* \"#utility.yul\":2250:2255   */\n      dup2\n        /* \"#utility.yul\":2232:2256   */\n      tag_257\n      jump\t// in\n    tag_299:\n        /* \"#utility.yul\":2225:2230   */\n      dup2\n        /* \"#utility.yul\":2222:2257   */\n      eq\n        /* \"#utility.yul\":2212:2275   */\n      tag_300\n      jumpi\n        /* \"#utility.yul\":2271:2272   */\n      0x00\n        /* \"#utility.yul\":2268:2269   */\n      0x00\n        /* \"#utility.yul\":2261:2273   */\n      revert\n        /* \"#utility.yul\":2212:2275   */\n    tag_300:\n        /* \"#utility.yul\":2159:2281   */\n      pop\n      jump\t// out\n        /* \"#utility.yul\":2287:2426   */\n    tag_259:\n        /* \"#utility.yul\":2333:2338   */\n      0x00\n        /* \"#utility.yul\":2371:2377   */\n      dup2\n        /* \"#utility.yul\":2358:2378   */\n      calldataload\n        /* \"#utility.yul\":2349:2378   */\n      swap1\n      pop\n        /* \"#utility.yul\":2387:2420   */\n      tag_302\n        /* \"#utility.yul\":2414:2419   */\n      dup2\n        /* \"#utility.yul\":2387:2420   */\n      tag_258\n      jump\t// in\n    tag_302:\n        /* \"#utility.yul\":2287:2426   */\n      swap3\n      swap2\n      pop\n      pop\n      jump\t// out\n        /* \"#utility.yul\":2432:2906   */\n    tag_37:\n        /* \"#utility.yul\":2500:2506   */\n      0x00\n        /* \"#utility.yul\":2508:2514   */\n      0x00\n        /* \"#utility.yul\":2557:2559   */\n      0x40\n        /* \"#utility.yul\":2545:2554   */\n      dup4\n        /* \"#utility.yul\":2536:2543   */\n      dup6\n        /* \"#utility.yul\":2532:2555   */\n      sub\n        /* \"#utility.yul\":2528:2560   */\n      slt\n        /* \"#utility.yul\":2525:2644   */\n      iszero\n      tag_304\n      jumpi\n        /* \"#utility.yul\":2563:2642   */\n      tag_305\n      tag_251\n      jump\t// in\n    tag_305:\n        /* \"#utility.yul\":2525:2644   */\n    tag_304:\n        /* \"#utility.yul\":2683:2684   */\n      0x00\n        /* \"#utility.yul\":2708:2761   */\n      tag_306\n        /* \"#utility.yul\":2753:2760   */\n      dup6\n        /* \"#utility.yul\":2744:2750   */\n      dup3\n        /* \"#utility.yul\":2733:2742   */\n      dup7\n        /* \"#utility.yul\":2729:2751   */\n      add\n        /* \"#utility.yul\":2708:2761   */\n      tag_256\n      jump\t// in\n    tag_306:\n        /* \"#utility.yul\":2698:2761   */\n      swap3\n      pop\n        /* \"#utility.yul\":2654:2771   */\n      pop\n        /* \"#utility.yul\":2810:2812   */\n      0x20\n        /* \"#utility.yul\":2836:2889   */\n      tag_307\n        /* \"#utility.yul\":2881:2888   */\n      dup6\n        /* \"#utility.yul\":2872:2878   */\n      dup3\n        /* \"#utility.yul\":2861:2870   */\n      dup7\n        /* \"#utility.yul\":2857:2879   */\n      add\n        /* \"#utility.yul\":2836:2889   */\n      tag_259\n      jump\t// in\n    tag_307:\n        /* \"#utility.yul\":2826:2889   */\n      swap2\n      pop\n        /* \"#utility.yul\":2781:2899   */\n      pop\n        /* \"#utility.yul\":2432:2906   */\n      swap3\n      pop\n      swap3\n      swap1\n      pop\n      jump\t// out\n        /* \"#utility.yul\":2912:3002   */\n    tag_260:\n        /* \"#utility.yul\":2946:2953   */\n      0x00\n        /* \"#utility.yul\":2989:2994   */\n      dup2\n        /* \"#utility.yul\":2982:2995   */\n      iszero\n        /* \"#utility.yul\":2975:2996   */\n      iszero\n        /* \"#utility.yul\":2964:2996   */\n      swap1\n      pop\n        /* \"#utility.yul\":2912:3002   */\n      swap2\n      swap1\n      pop\n      jump\t// out\n        /* \"#utility.yul\":3008:3117   */\n    tag_261:\n        /* \"#utility.yul\":3089:3110   */\n      tag_310\n        /* \"#utility.yul\":3104:3109   */\n      dup2\n        /* \"#utility.yul\":3089:3110   */\n      tag_260\n      jump\t// in\n    tag_310:\n        /* \"#utility.yul\":3084:3087   */\n      dup3\n        /* \"#utility.yul\":3077:3111   */\n      mstore\n        /* \"#utility.yul\":3008:3117   */\n      pop\n      pop\n      jump\t// out\n        /* \"#utility.yul\":3123:3333   */\n    tag_40:\n        /* \"#utility.yul\":3210:3214   */\n      0x00\n        /* \"#utility.yul\":3248:3250   */\n      0x20\n        /* \"#utility.yul\":3237:3246   */\n      dup3\n        /* \"#utility.yul\":3233:3251   */\n      add\n        /* \"#utility.yul\":3225:3251   */\n      swap1\n      pop\n        /* \"#utility.yul\":3261:3326   */\n      tag_312\n        /* \"#utility.yul\":3323:3324   */\n      0x00\n        /* \"#utility.yul\":3312:3321   */\n      dup4\n        /* \"#utility.yul\":3308:3325   */\n      add\n        /* \"#utility.yul\":3299:3305   */\n      dup5\n        /* \"#utility.yul\":3261:3326   */\n      tag_261\n      jump\t// in\n    tag_312:\n        /* \"#utility.yul\":3123:3333   */\n      swap3\n      swap2\n      pop\n      pop\n      jump\t// out\n        /* \"#utility.yul\":3339:3457   */\n    tag_262:\n        /* \"#utility.yul\":3426:3450   */\n      tag_314\n        /* \"#utility.yul\":3444:3449   */\n      dup2\n        /* \"#utility.yul\":3426:3450   */\n      tag_257\n      jump\t// in\n    tag_314:\n        /* \"#utility.yul\":3421:3424   */\n      dup3\n        /* \"#utility.yul\":3414:3451   */\n      mstore\n        /* \"#utility.yul\":3339:3457   */\n      pop\n      pop\n      jump\t// out\n        /* \"#utility.yul\":3463:3685   */\n    tag_47:\n        /* \"#utility.yul\":3556:3560   */\n      0x00\n        /* \"#utility.yul\":3594:3596   */\n      0x20\n        /* \"#utility.yul\":3583:3592   */\n      dup3\n        /* \"#utility.yul\":3579:3597   */\n      add\n        /* \"#utility.yul\":3571:3597   */\n      swap1\n      pop\n        /* \"#utility.yul\":3607:3678   */\n      tag_316\n        /* \"#utility.yul\":3675:3676   */\n      0x00\n        /* \"#utility.yul\":3664:3673   */\n      dup4\n        /* \"#utility.yul\":3660:3677   */\n      add\n        /* \"#utility.yul\":3651:3657   */\n      dup5\n        /* \"#utility.yul\":3607:3678   */\n      tag_262\n      jump\t// in\n    tag_316:\n        /* \"#utility.yul\":3463:3685   */\n      swap3\n      swap2\n      pop\n      pop\n      jump\t// out\n        /* \"#utility.yul\":3691:4310   */\n    tag_51:\n        /* \"#utility.yul\":3768:3774   */\n      0x00\n        /* \"#utility.yul\":3776:3782   */\n      0x00\n        /* \"#utility.yul\":3784:3790   */\n      0x00\n        /* \"#utility.yul\":3833:3835   */\n      0x60\n        /* \"#utility.yul\":3821:3830   */\n      dup5\n        /* \"#utility.yul\":3812:3819   */\n      dup7\n        /* \"#utility.yul\":3808:3831   */\n      sub\n        /* \"#utility.yul\":3804:3836   */\n      slt\n        /* \"#utility.yul\":3801:3920   */\n      iszero\n      tag_318\n      jumpi\n        /* \"#utility.yul\":3839:3918   */\n      tag_319\n      tag_251\n      jump\t// in\n    tag_319:\n        /* \"#utility.yul\":3801:3920   */\n    tag_318:\n        /* \"#utility.yul\":3959:3960   */\n      0x00\n        /* \"#utility.yul\":3984:4037   */\n      tag_320\n        /* \"#utility.yul\":4029:4036   */\n      dup7\n        /* \"#utility.yul\":4020:4026   */\n      dup3\n        /* \"#utility.yul\":4009:4018   */\n      dup8\n        /* \"#utility.yul\":4005:4027   */\n      add\n        /* \"#utility.yul\":3984:4037   */\n      tag_256\n      jump\t// in\n    tag_320:\n        /* \"#utility.yul\":3974:4037   */\n      swap4\n      pop\n        /* \"#utility.yul\":3930:4047   */\n      pop\n        /* \"#utility.yul\":4086:4088   */\n      0x20\n        /* \"#utility.yul\":4112:4165   */\n      tag_321\n        /* \"#utility.yul\":4157:4164   */\n      dup7\n        /* \"#utility.yul\":4148:4154   */\n      dup3\n        /* \"#utility.yul\":4137:4146   */\n      dup8\n        /* \"#utility.yul\":4133:4155   */\n      add\n        /* \"#utility.yul\":4112:4165   */\n      tag_256\n      jump\t// in\n    tag_321:\n        /* \"#utility.yul\":4102:4165   */\n      swap3\n      pop\n        /* \"#utility.yul\":4057:4175   */\n      pop\n        /* \"#utility.yul\":4214:4216   */\n      0x40\n        /* \"#utility.yul\":4240:4293   */\n      tag_322\n        /* \"#utility.yul\":4285:4292   */\n      dup7\n        /* \"#utility.yul\":4276:4282   */\n      dup3\n        /* \"#utility.yul\":4265:4274   */\n      dup8\n        /* \"#utility.yul\":4261:4283   */\n      add\n        /* \"#utility.yul\":4240:4293   */\n      tag_259\n      jump\t// in\n    tag_322:\n        /* \"#utility.yul\":4230:4293   */\n      swap2\n      pop\n        /* \"#utility.yul\":4185:4303   */\n      pop\n        /* \"#utility.yul\":3691:4310   */\n      swap3\n      pop\n      swap3\n      pop\n      swap3\n      jump\t// out\n        /* \"#utility.yul\":4316:4402   */\n    tag_263:\n        /* \"#utility.yul\":4351:4358   */\n      0x00\n        /* \"#utility.yul\":4391:4395   */\n      0xff\n        /* \"#utility.yul\":4384:4389   */\n      dup3\n        /* \"#utility.yul\":4380:4396   */\n      and\n        /* \"#utility.yul\":4369:4396   */\n      swap1\n      pop\n        /* \"#utility.yul\":4316:4402   */\n      swap2\n      swap1\n      pop\n      jump\t// out\n        /* \"#utility.yul\":4408:4520   */\n    tag_264:\n        /* \"#utility.yul\":4491:4513   */\n      tag_325\n        /* \"#utility.yul\":4507:4512   */\n      dup2\n        /* \"#utility.yul\":4491:4513   */\n      tag_263\n      jump\t// in\n    tag_325:\n        /* \"#utility.yul\":4486:4489   */\n      dup3\n        /* \"#utility.yul\":4479:4514   */\n      mstore\n        /* \"#utility.yul\":4408:4520   */\n      pop\n      pop\n      jump\t// out\n        /* \"#utility.yul\":4526:4740   */\n    tag_60:\n        /* \"#utility.yul\":4615:4619   */\n      0x00\n        /* \"#utility.yul\":4653:4655   */\n      0x20\n        /* \"#utility.yul\":4642:4651   */\n      dup3\n        /* \"#utility.yul\":4638:4656   */\n      add\n        /* \"#utility.yul\":4630:4656   */\n      swap1\n      pop\n        /* \"#utility.yul\":4666:4733   */\n      tag_327\n        /* \"#utility.yul\":4730:4731   */\n      0x00\n        /* \"#utility.yul\":4719:4728   */\n      dup4\n        /* \"#utility.yul\":4715:4732   */\n      add\n        /* \"#utility.yul\":4706:4712   */\n      dup5\n        /* \"#utility.yul\":4666:4733   */\n      tag_264\n      jump\t// in\n    tag_327:\n        /* \"#utility.yul\":4526:4740   */\n      swap3\n      swap2\n      pop\n      pop\n      jump\t// out\n        /* \"#utility.yul\":4746:4823   */\n    tag_265:\n        /* \"#utility.yul\":4783:4790   */\n      0x00\n        /* \"#utility.yul\":4812:4817   */\n      dup2\n        /* \"#utility.yul\":4801:4817   */\n      swap1\n      pop\n        /* \"#utility.yul\":4746:4823   */\n      swap2\n      swap1\n      pop\n      jump\t// out\n        /* \"#utility.yul\":4829:4947   */\n    tag_266:\n        /* \"#utility.yul\":4916:4940   */\n      tag_330\n        /* \"#utility.yul\":4934:4939   */\n      dup2\n        /* \"#utility.yul\":4916:4940   */\n      tag_265\n      jump\t// in\n    tag_330:\n        /* \"#utility.yul\":4911:4914   */\n      dup3\n        /* \"#utility.yul\":4904:4941   */\n      mstore\n        /* \"#utility.yul\":4829:4947   */\n      pop\n      pop\n      jump\t// out\n        /* \"#utility.yul\":4953:5175   */\n    tag_65:\n        /* \"#utility.yul\":5046:5050   */\n      0x00\n        /* \"#utility.yul\":5084:5086   */\n      0x20\n        /* \"#utility.yul\":5073:5082   */\n      dup3\n        /* \"#utility.yul\":5069:5087   */\n      add\n        /* \"#utility.yul\":5061:5087   */\n      swap1\n      pop\n        /* \"#utility.yul\":5097:5168   */\n      tag_332\n        /* \"#utility.yul\":5165:5166   */\n      0x00\n        /* \"#utility.yul\":5154:5163   */\n      dup4\n        /* \"#utility.yul\":5150:5167   */\n      add\n        /* \"#utility.yul\":5141:5147   */\n      dup5\n        /* \"#utility.yul\":5097:5168   */\n      tag_266\n      jump\t// in\n    tag_332:\n        /* \"#utility.yul\":4953:5175   */\n      swap3\n      swap2\n      pop\n      pop\n      jump\t// out\n        /* \"#utility.yul\":5181:5510   */\n    tag_71:\n        /* \"#utility.yul\":5240:5246   */\n      0x00\n        /* \"#utility.yul\":5289:5291   */\n      0x20\n        /* \"#utility.yul\":5277:5286   */\n      dup3\n        /* \"#utility.yul\":5268:5275   */\n      dup5\n        /* \"#utility.yul\":5264:5287   */\n      sub\n        /* \"#utility.yul\":5260:5292   */\n      slt\n        /* \"#utility.yul\":5257:5376   */\n      iszero\n      tag_334\n      jumpi\n        /* \"#utility.yul\":5295:5374   */\n      tag_335\n      tag_251\n      jump\t// in\n    tag_335:\n        /* \"#utility.yul\":5257:5376   */\n    tag_334:\n        /* \"#utility.yul\":5415:5416   */\n      0x00\n        /* \"#utility.yul\":5440:5493   */\n      tag_336\n        /* \"#utility.yul\":5485:5492   */\n      dup5\n        /* \"#utility.yul\":5476:5482   */\n      dup3\n        /* \"#utility.yul\":5465:5474   */\n      dup6\n        /* \"#utility.yul\":5461:5483   */\n      add\n        /* \"#utility.yul\":5440:5493   */\n      tag_256\n      jump\t// in\n    tag_336:\n        /* \"#utility.yul\":5430:5493   */\n      swap2\n      pop\n        /* \"#utility.yul\":5386:5503   */\n      pop\n        /* \"#utility.yul\":5181:5510   */\n      swap3\n      swap2\n      pop\n      pop\n      jump\t// out\n        /* \"#utility.yul\":5516:5634   */\n    tag_267:\n        /* \"#utility.yul\":5603:5627   */\n      tag_338\n        /* \"#utility.yul\":5621:5626   */\n      dup2\n        /* \"#utility.yul\":5603:5627   */\n      tag_254\n      jump\t// in\n    tag_338:\n        /* \"#utility.yul\":5598:5601   */\n      dup3\n        /* \"#utility.yul\":5591:5628   */\n      mstore\n        /* \"#utility.yul\":5516:5634   */\n      pop\n      pop\n      jump\t// out\n        /* \"#utility.yul\":5640:5862   */\n    tag_85:\n        /* \"#utility.yul\":5733:5737   */\n      0x00\n        /* \"#utility.yul\":5771:5773   */\n      0x20\n        /* \"#utility.yul\":5760:5769   */\n      dup3\n        /* \"#utility.yul\":5756:5774   */\n      add\n        /* \"#utility.yul\":5748:5774   */\n      swap1\n      pop\n        /* \"#utility.yul\":5784:5855   */\n      tag_340\n        /* \"#utility.yul\":5852:5853   */\n      0x00\n        /* \"#utility.yul\":5841:5850   */\n      dup4\n        /* \"#utility.yul\":5837:5854   */\n      add\n        /* \"#utility.yul\":5828:5834   */\n      dup5\n        /* \"#utility.yul\":5784:5855   */\n      tag_267\n      jump\t// in\n    tag_340:\n        /* \"#utility.yul\":5640:5862   */\n      swap3\n      swap2\n      pop\n      pop\n      jump\t// out\n        /* \"#utility.yul\":5868:6197   */\n    tag_106:\n        /* \"#utility.yul\":5927:5933   */\n      0x00\n        /* \"#utility.yul\":5976:5978   */\n      0x20\n        /* \"#utility.yul\":5964:5973   */\n      dup3\n        /* \"#utility.yul\":5955:5962   */\n      dup5\n        /* \"#utility.yul\":5951:5974   */\n      sub\n        /* \"#utility.yul\":5947:5979   */\n      slt\n        /* \"#utility.yul\":5944:6063   */\n      iszero\n      tag_342\n      jumpi\n        /* \"#utility.yul\":5982:6061   */\n      tag_343\n      tag_251\n      jump\t// in\n    tag_343:\n        /* \"#utility.yul\":5944:6063   */\n    tag_342:\n        /* \"#utility.yul\":6102:6103   */\n      0x00\n        /* \"#utility.yul\":6127:6180   */\n      tag_344\n        /* \"#utility.yul\":6172:6179   */\n      dup5\n        /* \"#utility.yul\":6163:6169   */\n      dup3\n        /* \"#utility.yul\":6152:6161   */\n      dup6\n        /* \"#utility.yul\":6148:6170   */\n      add\n        /* \"#utility.yul\":6127:6180   */\n      tag_259\n      jump\t// in\n    tag_344:\n        /* \"#utility.yul\":6117:6180   */\n      swap2\n      pop\n        /* \"#utility.yul\":6073:6190   */\n      pop\n        /* \"#utility.yul\":5868:6197   */\n      swap3\n      swap2\n      pop\n      pop\n      jump\t// out\n        /* \"#utility.yul\":6203:6321   */\n    tag_268:\n        /* \"#utility.yul\":6274:6296   */\n      tag_346\n        /* \"#utility.yul\":6290:6295   */\n      dup2\n        /* \"#utility.yul\":6274:6296   */\n      tag_263\n      jump\t// in\n    tag_346:\n        /* \"#utility.yul\":6267:6272   */\n      dup2\n        /* \"#utility.yul\":6264:6297   */\n      eq\n        /* \"#utility.yul\":6254:6315   */\n      tag_347\n      jumpi\n        /* \"#utility.yul\":6311:6312   */\n      0x00\n        /* \"#utility.yul\":6308:6309   */\n      0x00\n        /* \"#utility.yul\":6301:6313   */\n      revert\n        /* \"#utility.yul\":6254:6315   */\n    tag_347:\n        /* \"#utility.yul\":6203:6321   */\n      pop\n      jump\t// out\n        /* \"#utility.yul\":6327:6462   */\n    tag_269:\n        /* \"#utility.yul\":6371:6376   */\n      0x00\n        /* \"#utility.yul\":6409:6415   */\n      dup2\n        /* \"#utility.yul\":6396:6416   */\n      calldataload\n        /* \"#utility.yul\":6387:6416   */\n      swap1\n      pop\n        /* \"#utility.yul\":6425:6456   */\n      tag_349\n        /* \"#utility.yul\":6450:6455   */\n      dup2\n        /* \"#utility.yul\":6425:6456   */\n      tag_268\n      jump\t// in\n    tag_349:\n        /* \"#utility.yul\":6327:6462   */\n      swap3\n      swap2\n      pop\n      pop\n      jump\t// out\n        /* \"#utility.yul\":6468:6590   */\n    tag_270:\n        /* \"#utility.yul\":6541:6565   */\n      tag_351\n        /* \"#utility.yul\":6559:6564   */\n      dup2\n        /* \"#utility.yul\":6541:6565   */\n      tag_265\n      jump\t// in\n    tag_351:\n        /* \"#utility.yul\":6534:6539   */\n      dup2\n        /* \"#utility.yul\":6531:6566   */\n      eq\n        /* \"#utility.yul\":6521:6584   */\n      tag_352\n      jumpi\n        /* \"#utility.yul\":6580:6581   */\n      0x00\n        /* \"#utility.yul\":6577:6578   */\n      0x00\n        /* \"#utility.yul\":6570:6582   */\n      revert\n        /* \"#utility.yul\":6521:6584   */\n    tag_352:\n        /* \"#utility.yul\":6468:6590   */\n      pop\n      jump\t// out\n        /* \"#utility.yul\":6596:6735   */\n    tag_271:\n        /* \"#utility.yul\":6642:6647   */\n      0x00\n        /* \"#utility.yul\":6680:6686   */\n      dup2\n        /* \"#utility.yul\":6667:6687   */\n      calldataload\n        /* \"#utility.yul\":6658:6687   */\n      swap1\n      pop\n        /* \"#utility.yul\":6696:6729   */\n      tag_354\n        /* \"#utility.yul\":6723:6728   */\n      dup2\n        /* \"#utility.yul\":6696:6729   */\n      tag_270\n      jump\t// in\n    tag_354:\n        /* \"#utility.yul\":6596:6735   */\n      swap3\n      swap2\n      pop\n      pop\n      jump\t// out\n        /* \"#utility.yul\":6741:7940   */\n    tag_112:\n        /* \"#utility.yul\":6852:6858   */\n      0x00\n        /* \"#utility.yul\":6860:6866   */\n      0x00\n        /* \"#utility.yul\":6868:6874   */\n      0x00\n        /* \"#utility.yul\":6876:6882   */\n      0x00\n        /* \"#utility.yul\":6884:6890   */\n      0x00\n        /* \"#utility.yul\":6892:6898   */\n      0x00\n        /* \"#utility.yul\":6900:6906   */\n      0x00\n        /* \"#utility.yul\":6949:6952   */\n      0xe0\n        /* \"#utility.yul\":6937:6946   */\n      dup9\n        /* \"#utility.yul\":6928:6935   */\n      dup11\n        /* \"#utility.yul\":6924:6947   */\n      sub\n        /* \"#utility.yul\":6920:6953   */\n      slt\n        /* \"#utility.yul\":6917:7037   */\n      iszero\n      tag_356\n      jumpi\n        /* \"#utility.yul\":6956:7035   */\n      tag_357\n      tag_251\n      jump\t// in\n    tag_357:\n        /* \"#utility.yul\":6917:7037   */\n    tag_356:\n        /* \"#utility.yul\":7076:7077   */\n      0x00\n        /* \"#utility.yul\":7101:7154   */\n      tag_358\n        /* \"#utility.yul\":7146:7153   */\n      dup11\n        /* \"#utility.yul\":7137:7143   */\n      dup3\n        /* \"#utility.yul\":7126:7135   */\n      dup12\n        /* \"#utility.yul\":7122:7144   */\n      add\n        /* \"#utility.yul\":7101:7154   */\n      tag_256\n      jump\t// in\n    tag_358:\n        /* \"#utility.yul\":7091:7154   */\n      swap8\n      pop\n        /* \"#utility.yul\":7047:7164   */\n      pop\n        /* \"#utility.yul\":7203:7205   */\n      0x20\n        /* \"#utility.yul\":7229:7282   */\n      tag_359\n        /* \"#utility.yul\":7274:7281   */\n      dup11\n        /* \"#utility.yul\":7265:7271   */\n      dup3\n        /* \"#utility.yul\":7254:7263   */\n      dup12\n        /* \"#utility.yul\":7250:7272   */\n      add\n        /* \"#utility.yul\":7229:7282   */\n      tag_256\n      jump\t// in\n    tag_359:\n        /* \"#utility.yul\":7219:7282   */\n      swap7\n      pop\n        /* \"#utility.yul\":7174:7292   */\n      pop\n        /* \"#utility.yul\":7331:7333   */\n      0x40\n        /* \"#utility.yul\":7357:7410   */\n      tag_360\n        /* \"#utility.yul\":7402:7409   */\n      dup11\n        /* \"#utility.yul\":7393:7399   */\n      dup3\n        /* \"#utility.yul\":7382:7391   */\n      dup12\n        /* \"#utility.yul\":7378:7400   */\n      add\n        /* \"#utility.yul\":7357:7410   */\n      tag_259\n      jump\t// in\n    tag_360:\n        /* \"#utility.yul\":7347:7410   */\n      swap6\n      pop\n        /* \"#utility.yul\":7302:7420   */\n      pop\n        /* \"#utility.yul\":7459:7461   */\n      0x60\n        /* \"#utility.yul\":7485:7538   */\n      tag_361\n        /* \"#utility.yul\":7530:7537   */\n      dup11\n        /* \"#utility.yul\":7521:7527   */\n      dup3\n        /* \"#utility.yul\":7510:7519   */\n      dup12\n        /* \"#utility.yul\":7506:7528   */\n      add\n        /* \"#utility.yul\":7485:7538   */\n      tag_259\n      jump\t// in\n    tag_361:\n        /* \"#utility.yul\":7475:7538   */\n      swap5\n      pop\n        /* \"#utility.yul\":7430:7548   */\n      pop\n        /* \"#utility.yul\":7587:7590   */\n      0x80\n        /* \"#utility.yul\":7614:7665   */\n      tag_362\n        /* \"#utility.yul\":7657:7664   */\n      dup11\n        /* \"#utility.yul\":7648:7654   */\n      dup3\n        /* \"#utility.yul\":7637:7646   */\n      dup12\n        /* \"#utility.yul\":7633:7655   */\n      add\n        /* \"#utility.yul\":7614:7665   */\n      tag_269\n      jump\t// in\n    tag_362:\n        /* \"#utility.yul\":7604:7665   */\n      swap4\n      pop\n        /* \"#utility.yul\":7558:7675   */\n      pop\n        /* \"#utility.yul\":7714:7717   */\n      0xa0\n        /* \"#utility.yul\":7741:7794   */\n      tag_363\n        /* \"#utility.yul\":7786:7793   */\n      dup11\n        /* \"#utility.yul\":7777:7783   */\n      dup3\n        /* \"#utility.yul\":7766:7775   */\n      dup12\n        /* \"#utility.yul\":7762:7784   */\n      add\n        /* \"#utility.yul\":7741:7794   */\n      tag_271\n      jump\t// in\n    tag_363:\n        /* \"#utility.yul\":7731:7794   */\n      swap3\n      pop\n        /* \"#utility.yul\":7685:7804   */\n      pop\n        /* \"#utility.yul\":7843:7846   */\n      0xc0\n        /* \"#utility.yul\":7870:7923   */\n      tag_364\n        /* \"#utility.yul\":7915:7922   */\n      dup11\n        /* \"#utility.yul\":7906:7912   */\n      dup3\n        /* \"#utility.yul\":7895:7904   */\n      dup12\n        /* \"#utility.yul\":7891:7913   */\n      add\n        /* \"#utility.yul\":7870:7923   */\n      tag_271\n      jump\t// in\n    tag_364:\n        /* \"#utility.yul\":7860:7923   */\n      swap2\n      pop\n        /* \"#utility.yul\":7814:7933   */\n      pop\n        /* \"#utility.yul\":6741:7940   */\n      swap3\n      swap6\n      swap9\n      swap2\n      swap5\n      swap8\n      pop\n      swap3\n      swap6\n      pop\n      jump\t// out\n        /* \"#utility.yul\":7946:8420   */\n    tag_117:\n        /* \"#utility.yul\":8014:8020   */\n      0x00\n        /* \"#utility.yul\":8022:8028   */\n      0x00\n        /* \"#utility.yul\":8071:8073   */\n      0x40\n        /* \"#utility.yul\":8059:8068   */\n      dup4\n        /* \"#utility.yul\":8050:8057   */\n      dup6\n        /* \"#utility.yul\":8046:8069   */\n      sub\n        /* \"#utility.yul\":8042:8074   */\n      slt\n        /* \"#utility.yul\":8039:8158   */\n      iszero\n      tag_366\n      jumpi\n        /* \"#utility.yul\":8077:8156   */\n      tag_367\n      tag_251\n      jump\t// in\n    tag_367:\n        /* \"#utility.yul\":8039:8158   */\n    tag_366:\n        /* \"#utility.yul\":8197:8198   */\n      0x00\n        /* \"#utility.yul\":8222:8275   */\n      tag_368\n        /* \"#utility.yul\":8267:8274   */\n      dup6\n        /* \"#utility.yul\":8258:8264   */\n      dup3\n        /* \"#utility.yul\":8247:8256   */\n      dup7\n        /* \"#utility.yul\":8243:8265   */\n      add\n        /* \"#utility.yul\":8222:8275   */\n      tag_256\n      jump\t// in\n    tag_368:\n        /* \"#utility.yul\":8212:8275   */\n      swap3\n      pop\n        /* \"#utility.yul\":8168:8285   */\n      pop\n        /* \"#utility.yul\":8324:8326   */\n      0x20\n        /* \"#utility.yul\":8350:8403   */\n      tag_369\n        /* \"#utility.yul\":8395:8402   */\n      dup6\n        /* \"#utility.yul\":8386:8392   */\n      dup3\n        /* \"#utility.yul\":8375:8384   */\n      dup7\n        /* \"#utility.yul\":8371:8393   */\n      add\n        /* \"#utility.yul\":8350:8403   */\n      tag_256\n      jump\t// in\n    tag_369:\n        /* \"#utility.yul\":8340:8403   */\n      swap2\n      pop\n        /* \"#utility.yul\":8295:8413   */\n      pop\n        /* \"#utility.yul\":7946:8420   */\n      swap3\n      pop\n      swap3\n      swap1\n      pop\n      jump\t// out\n        /* \"#utility.yul\":8426:8606   */\n    tag_272:\n        /* \"#utility.yul\":8474:8551   */\n      0x4e487b7100000000000000000000000000000000000000000000000000000000\n        /* \"#utility.yul\":8471:8472   */\n      0x00\n        /* \"#utility.yul\":8464:8552   */\n      mstore\n        /* \"#utility.yul\":8571:8575   */\n      0x11\n        /* \"#utility.yul\":8568:8569   */\n      0x04\n        /* \"#utility.yul\":8561:8576   */\n      mstore\n        /* \"#utility.yul\":8595:8599   */\n      0x24\n        /* \"#utility.yul\":8592:8593   */\n      0x00\n        /* \"#utility.yul\":8585:8600   */\n      revert\n        /* \"#utility.yul\":8612:8806   */\n    tag_187:\n        /* \"#utility.yul\":8652:8656   */\n      0x00\n        /* \"#utility.yul\":8672:8692   */\n      tag_372\n        /* \"#utility.yul\":8690:8691   */\n      dup3\n        /* \"#utility.yul\":8672:8692   */\n      tag_257\n      jump\t// in\n    tag_372:\n        /* \"#utility.yul\":8667:8692   */\n      swap2\n      pop\n        /* \"#utility.yul\":8706:8726   */\n      tag_373\n        /* \"#utility.yul\":8724:8725   */\n      dup4\n        /* \"#utility.yul\":8706:8726   */\n      tag_257\n      jump\t// in\n    tag_373:\n        /* \"#utility.yul\":8701:8726   */\n      swap3\n      pop\n        /* \"#utility.yul\":8750:8751   */\n      dup3\n        /* \"#utility.yul\":8747:8748   */\n      dup3\n        /* \"#utility.yul\":8743:8752   */\n      sub\n        /* \"#utility.yul\":8735:8752   */\n      swap1\n      pop\n        /* \"#utility.yul\":8774:8775   */\n      dup2\n        /* \"#utility.yul\":8768:8772   */\n      dup2\n        /* \"#utility.yul\":8765:8776   */\n      gt\n        /* \"#utility.yul\":8762:8799   */\n      iszero\n      tag_374\n      jumpi\n        /* \"#utility.yul\":8779:8797   */\n      tag_375\n      tag_272\n      jump\t// in\n    tag_375:\n        /* \"#utility.yul\":8762:8799   */\n    tag_374:\n        /* \"#utility.yul\":8612:8806   */\n      swap3\n      swap2\n      pop\n      pop\n      jump\t// out\n        /* \"#utility.yul\":8812:8992   */\n    tag_273:\n        /* \"#utility.yul\":8860:8937   */\n      0x4e487b7100000000000000000000000000000000000000000000000000000000\n        /* \"#utility.yul\":8857:8858   */\n      0x00\n        /* \"#utility.yul\":8850:8938   */\n      mstore\n        /* \"#utility.yul\":8957:8961   */\n      0x12\n        /* \"#utility.yul\":8954:8955   */\n      0x04\n        /* \"#utility.yul\":8947:8962   */\n      mstore\n        /* \"#utility.yul\":8981:8985   */\n      0x24\n        /* \"#utility.yul\":8978:8979   */\n      0x00\n        /* \"#utility.yul\":8971:8986   */\n      revert\n        /* \"#utility.yul\":8998:9183   */\n    tag_189:\n        /* \"#utility.yul\":9038:9039   */\n      0x00\n        /* \"#utility.yul\":9055:9075   */\n      tag_378\n        /* \"#utility.yul\":9073:9074   */\n      dup3\n        /* \"#utility.yul\":9055:9075   */\n      tag_257\n      jump\t// in\n    tag_378:\n        /* \"#utility.yul\":9050:9075   */\n      swap2\n      pop\n        /* \"#utility.yul\":9089:9109   */\n      tag_379\n        /* \"#utility.yul\":9107:9108   */\n      dup4\n        /* \"#utility.yul\":9089:9109   */\n      tag_257\n      jump\t// in\n    tag_379:\n        /* \"#utility.yul\":9084:9109   */\n      swap3\n      pop\n        /* \"#utility.yul\":9128:9129   */\n      dup3\n        /* \"#utility.yul\":9118:9153   */\n      tag_380\n      jumpi\n        /* \"#utility.yul\":9133:9151   */\n      tag_381\n      tag_273\n      jump\t// in\n    tag_381:\n        /* \"#utility.yul\":9118:9153   */\n    tag_380:\n        /* \"#utility.yul\":9175:9176   */\n      dup3\n        /* \"#utility.yul\":9172:9173   */\n      dup3\n        /* \"#utility.yul\":9168:9177   */\n      div\n        /* \"#utility.yul\":9163:9177   */\n      swap1\n      pop\n        /* \"#utility.yul\":8998:9183   */\n      swap3\n      swap2\n      pop\n      pop\n      jump\t// out\n        /* \"#utility.yul\":9189:9599   */\n    tag_199:\n        /* \"#utility.yul\":9229:9236   */\n      0x00\n        /* \"#utility.yul\":9252:9272   */\n      tag_383\n        /* \"#utility.yul\":9270:9271   */\n      dup3\n        /* \"#utility.yul\":9252:9272   */\n      tag_257\n      jump\t// in\n    tag_383:\n        /* \"#utility.yul\":9247:9272   */\n      swap2\n      pop\n        /* \"#utility.yul\":9286:9306   */\n      tag_384\n        /* \"#utility.yul\":9304:9305   */\n      dup4\n        /* \"#utility.yul\":9286:9306   */\n      tag_257\n      jump\t// in\n    tag_384:\n        /* \"#utility.yul\":9281:9306   */\n      swap3\n      pop\n        /* \"#utility.yul\":9341:9342   */\n      dup3\n        /* \"#utility.yul\":9338:9339   */\n      dup3\n        /* \"#utility.yul\":9334:9343   */\n      mul\n        /* \"#utility.yul\":9363:9393   */\n      tag_385\n        /* \"#utility.yul\":9381:9392   */\n      dup2\n        /* \"#utility.yul\":9363:9393   */\n      tag_257\n      jump\t// in\n    tag_385:\n        /* \"#utility.yul\":9352:9393   */\n      swap2\n      pop\n        /* \"#utility.yul\":9542:9543   */\n      dup3\n        /* \"#utility.yul\":9533:9540   */\n      dup3\n        /* \"#utility.yul\":9529:9544   */\n      div\n        /* \"#utility.yul\":9526:9527   */\n      dup5\n        /* \"#utility.yul\":9523:9545   */\n      eq\n        /* \"#utility.yul\":9503:9504   */\n      dup4\n        /* \"#utility.yul\":9496:9505   */\n      iszero\n        /* \"#utility.yul\":9476:9559   */\n      or\n        /* \"#utility.yul\":9453:9592   */\n      tag_386\n      jumpi\n        /* \"#utility.yul\":9572:9590   */\n      tag_387\n      tag_272\n      jump\t// in\n    tag_387:\n        /* \"#utility.yul\":9453:9592   */\n    tag_386:\n        /* \"#utility.yul\":9237:9599   */\n      pop\n        /* \"#utility.yul\":9189:9599   */\n      swap3\n      swap2\n      pop\n      pop\n      jump\t// out\n\n    auxdata: 0xa264697066735822122007a826ef0acf86b54d2fcad603ffef87439e78d4491d14514e16de42f3d93eb764736f6c634300081c0033\n}\n",
				"bytecode": {
					"linkReferences": {},
					"object": "60a0604052426080908152505f5f555f6001555f6002555f600355348015610025575f5ffd5b506100353361003a60201b60201c565b61011a565b61004861011660201b60201c565b156100c0577fffffffffffffffffffffffffffffffffffffffffffffffffffffffff7487392780541561008257630dc149f05f526004601cfd5b8160601b60601c9150811560ff1b82178155815f7f8be0079c531659141344cd1fd0a4f28419497f9722a3daafe3b4186f6b6457e05f5fa350610113565b8060601b60601c9050807fffffffffffffffffffffffffffffffffffffffffffffffffffffffff7487392755805f7f8be0079c531659141344cd1fd0a4f28419497f9722a3daafe3b4186f6b6457e05f5fa35b50565b5f90565b6080516114a76101325f395f61099801526114a75ff3fe60806040526004361061014a575f3560e01c80638da5cb5b116100b5578063d505accf1161006e578063d505accf1461042c578063dd62ed3e14610454578063ef8b30f714610490578063f04e283e146104cc578063f2fde38b146104e8578063fee81cf4146105045761014a565b80638da5cb5b1461030e57806395d89b41146103385780639dc29fac14610362578063a173f79e1461038a578063a9059cbb146103b4578063c6e6f592146103f05761014a565b8063313ce56711610107578063313ce5671461022e5780633644e5151461025857806354d1f13d1461028257806370a082311461028c578063715018a6146102c85780637ecebe00146102d25761014a565b806306fdde031461014e578063095ea7b3146101785780631249c58b146101b457806318160ddd146101be57806323b872dd146101e85780632569296214610224575b5f5ffd5b348015610159575f5ffd5b50610162610540565b60405161016f9190610fc7565b60405180910390f35b348015610183575f5ffd5b5061019e60048036038101906101999190611078565b61057d565b6040516101ab91906110d0565b60405180910390f35b6101bc610608565b005b3480156101c9575f5ffd5b506101d261061c565b6040516101df91906110f8565b60405180910390f35b3480156101f3575f5ffd5b5061020e60048036038101906102099190611111565b61062d565b60405161021b91906110d0565b60405180910390f35b61022c6107d3565b005b348015610239575f5ffd5b50610242610824565b60405161024f919061117c565b60405180910390f35b348015610263575f5ffd5b5061026c61082c565b60405161027991906111ad565b60405180910390f35b61028a6108a8565b005b348015610297575f5ffd5b506102b260048036038101906102ad91906111c6565b6108e1565b6040516102bf91906110f8565b60405180910390f35b6102d06108fa565b005b3480156102dd575f5ffd5b506102f860048036038101906102f391906111c6565b61090d565b60405161030591906110f8565b60405180910390f35b348015610319575f5ffd5b50610322610926565b60405161032f9190611200565b60405180910390f35b348015610343575f5ffd5b5061034c61094e565b6040516103599190610fc7565b60405180910390f35b34801561036d575f5ffd5b5061038860048036038101906103839190611078565b61098b565b005b348015610395575f5ffd5b5061039e61098f565b6040516103ab91906110f8565b60405180910390f35b3480156103bf575f5ffd5b506103da60048036038101906103d59190611078565b6109db565b6040516103e791906110d0565b60405180910390f35b3480156103fb575f5ffd5b5061041660048036038101906104119190611219565b610a69565b60405161042391906110f8565b60405180910390f35b348015610437575f5ffd5b50610452600480360381019061044d9190611298565b610a91565b005b34801561045f575f5ffd5b5061047a60048036038101906104759190611335565b610c54565b60405161048791906110f8565b60405180910390f35b34801561049b575f5ffd5b506104b660048036038101906104b19190611219565b610ceb565b6040516104c391906110f8565b60405180910390f35b6104e660048036038101906104e191906111c6565b610cfc565b005b61050260048036038101906104fd91906111c6565b610d3a565b005b34801561050f575f5ffd5b5061052a600480360381019061052591906111c6565b610d63565b60405161053791906110f8565b60405180910390f35b60606040518060400160405280600b81526020017f4b61696a75204775616e6f000000000000000000000000000000000000000000815250905090565b5f610586610d7c565b156105b9578119156e22d473030f116ddee9f6b43ac78ba38460601b60601c18176105b857633f68539a5f526004601cfd5b5b82602052637f5e9f20600c52335f52816034600c2055815f52602c5160601c337f8c5be1e5ebec7d5bd14f71427d1e84f3dd0314c0f7b2291e5b200ac8c7c3b92560205fa36001905092915050565b61061a3361061534610ceb565b610d83565b565b5f6805345cdf77eb68f44c54905090565b5f610639848484610e15565b610641610d7c565b1561070f578360601b6e22d473030f116ddee9f6b43ac78ba3331461069a5733602052637f5e9f208117600c526034600c2080548019156106975780851115610691576313be252b5f526004601cfd5b84810382555b50505b6387a211a28117600c526020600c208054808511156106c05763f4d678b85f526004601cfd5b8481038255855f526020600c2085815401815585602052600c5160601c8460601c7fddf252ad1be2c89b69c2b068fc378daa952ba7f163c4a11628f55a4df523b3ef602080a3505050506107bd565b8360601b33602052637f5e9f208117600c526034600c20805480191561074a5780851115610744576313be252b5f526004601cfd5b84810382555b6387a211a28317600c526020600c208054808711156107705763f4d678b85f526004601cfd5b8681038255875f526020600c2087815401815587602052600c5160601c8660601c7fddf252ad1be2c89b69c2b068fc378daa952ba7f163c4a11628f55a4df523b3ef602080a35050505050505b6107c8848484610e1a565b600190509392505050565b5f6107dc610e1f565b67ffffffffffffffff164201905063389a75e1600c52335f52806020600c2055337fdbf36a107da19e49527a7176a1babf963b4b0ff8cde35ee35d6cd8f1f9ac7e1d5f5fa250565b5f6012905090565b5f5f610836610e29565b90505f5f1b810361085357610849610540565b8051906020012090505b5f61085c610e2d565b90506040517f8b73c3c69bb8fe3d512ecc4cf759cc79239f7b179b0ffacaa9a75d522b39400f815282602082015281604082015246606082015230608082015260a08120935050505090565b63389a75e1600c52335f525f6020600c2055337ffa7b8eab7da67f412cc9575ed43464468f9bfbae89d1675917346ca6d8fe3c925f5fa2565b5f6387a211a2600c52815f526020600c20549050919050565b610902610e56565b61090b5f610e8d565b565b5f6338377508600c52815f526020600c20549050919050565b5f7fffffffffffffffffffffffffffffffffffffffffffffffffffffffff7487392754905090565b60606040518060400160405280600581526020017f4755414e4f000000000000000000000000000000000000000000000000000000815250905090565b5050565b5f5f54620151807f0000000000000000000000000000000000000000000000000000000000000000426109c291906113a0565b6109cc9190611400565b6109d691906113a0565b905090565b5f6109e7338484610e15565b6387a211a2600c52335f526020600c20805480841115610a0e5763f4d678b85f526004601cfd5b8381038255845f526020600c2084815401815584602052600c5160601c337fddf252ad1be2c89b69c2b068fc378daa952ba7f163c4a11628f55a4df523b3ef602080a3505050610a5f338484610e1a565b6001905092915050565b5f610a7261098f565b60015483610a809190611400565b610a8a9190611430565b9050919050565b610a99610d7c565b15610acc578419156e22d473030f116ddee9f6b43ac78ba38760601b60601c1817610acb57633f68539a5f526004601cfd5b5b5f610ad5610e29565b90505f5f1b8103610af257610ae8610540565b8051906020012090505b5f610afb610e2d565b905085421115610b1257631a15a3cc5f526004601cfd5b6040518960601b60601c99508860601b60601c985065383775081901600e52895f526020600c2080547f8b73c3c69bb8fe3d512ecc4cf759cc79239f7b179b0ffacaa9a75d522b39400f835284602084015283604084015246606084015230608084015260a08320602e527f6e71edae12b1b97f4d1f60370fef10105fa2faae0126114a169c64845d6126c983528b60208401528a60408401528960608401528060808401528860a084015260c08320604e526042602c205f528760ff16602052866040528560605260208060805f60015afa8c3d5114610bfa5763ddafbaef5f526004601cfd5b80820183558b637f5e9f2060a01b176040528a6034602c20558b8d7f8c5be1e5ebec7d5bd14f71427d1e84f3dd0314c0f7b2291e5b200ac8c7c3b925602060608801a3836040525f60605250505050505050505050505050565b5f610c5d610d7c565b15610ccd576e22d473030f116ddee9f6b43ac78ba373ffffffffffffffffffffffffffffffffffffffff168273ffffffffffffffffffffffffffffffffffffffff1603610ccc577fffffffffffffffffffffffffffffffffffffffffffffffffffffffffffffffff9050610ce5565b5b81602052637f5e9f20600c52825f526034600c205490505b92915050565b5f610cf582610a69565b9050919050565b610d04610e56565b63389a75e1600c52805f526020600c208054421115610d2a57636f5e88185f526004601cfd5b5f815550610d3781610e8d565b50565b610d42610e56565b8060601b610d5757637448fbae5f526004601cfd5b610d6081610e8d565b50565b5f63389a75e1600c52815f526020600c20549050919050565b5f5f905090565b610d8e5f8383610e15565b6805345cdf77eb68f44c5481810181811015610db15763e5cfe9575f526004601cfd5b806805345cdf77eb68f44c556387a211a2600c52835f526020600c2083815401815583602052600c5160601c5f7fddf252ad1be2c89b69c2b068fc378daa952ba7f163c4a11628f55a4df523b3ef602080a3505050610e115f8383610e1a565b5050565b505050565b505050565b5f6202a300905090565b5f90565b5f7fc89efdaa54c0f20c7adf612882df0950f5a951637e0307cdcb4c672f298b8bc65f1b905090565b7fffffffffffffffffffffffffffffffffffffffffffffffffffffffff74873927543314610e8b576382b429005f526004601cfd5b565b610e95610f53565b15610efa577fffffffffffffffffffffffffffffffffffffffffffffffffffffffff748739278160601b60601c91508181547f8be0079c531659141344cd1fd0a4f28419497f9722a3daafe3b4186f6b6457e05f5fa3811560ff1b8217815550610f50565b7fffffffffffffffffffffffffffffffffffffffffffffffffffffffff748739278160601b60601c91508181547f8be0079c531659141344cd1fd0a4f28419497f9722a3daafe3b4186f6b6457e05f5fa3818155505b50565b5f90565b5f81519050919050565b5f82825260208201905092915050565b8281835e5f83830152505050565b5f601f19601f8301169050919050565b5f610f9982610f57565b610fa38185610f61565b9350610fb3818560208601610f71565b610fbc81610f7f565b840191505092915050565b5f6020820190508181035f830152610fdf8184610f8f565b905092915050565b5f5ffd5b5f73ffffffffffffffffffffffffffffffffffffffff82169050919050565b5f61101482610feb565b9050919050565b6110248161100a565b811461102e575f5ffd5b50565b5f8135905061103f8161101b565b92915050565b5f819050919050565b61105781611045565b8114611061575f5ffd5b50565b5f813590506110728161104e565b92915050565b5f5f6040838503121561108e5761108d610fe7565b5b5f61109b85828601611031565b92505060206110ac85828601611064565b9150509250929050565b5f8115159050919050565b6110ca816110b6565b82525050565b5f6020820190506110e35f8301846110c1565b92915050565b6110f281611045565b82525050565b5f60208201905061110b5f8301846110e9565b92915050565b5f5f5f6060848603121561112857611127610fe7565b5b5f61113586828701611031565b935050602061114686828701611031565b925050604061115786828701611064565b9150509250925092565b5f60ff82169050919050565b61117681611161565b82525050565b5f60208201905061118f5f83018461116d565b92915050565b5f819050919050565b6111a781611195565b82525050565b5f6020820190506111c05f83018461119e565b92915050565b5f602082840312156111db576111da610fe7565b5b5f6111e884828501611031565b91505092915050565b6111fa8161100a565b82525050565b5f6020820190506112135f8301846111f1565b92915050565b5f6020828403121561122e5761122d610fe7565b5b5f61123b84828501611064565b91505092915050565b61124d81611161565b8114611257575f5ffd5b50565b5f8135905061126881611244565b92915050565b61127781611195565b8114611281575f5ffd5b50565b5f813590506112928161126e565b92915050565b5f5f5f5f5f5f5f60e0888a0312156112b3576112b2610fe7565b5b5f6112c08a828b01611031565b97505060206112d18a828b01611031565b96505060406112e28a828b01611064565b95505060606112f38a828b01611064565b94505060806113048a828b0161125a565b93505060a06113158a828b01611284565b92505060c06113268a828b01611284565b91505092959891949750929550565b5f5f6040838503121561134b5761134a610fe7565b5b5f61135885828601611031565b925050602061136985828601611031565b9150509250929050565b7f4e487b71000000000000000000000000000000000000000000000000000000005f52601160045260245ffd5b5f6113aa82611045565b91506113b583611045565b92508282039050818111156113cd576113cc611373565b5b92915050565b7f4e487b71000000000000000000000000000000000000000000000000000000005f52601260045260245ffd5b5f61140a82611045565b915061141583611045565b925082611425576114246113d3565b5b828204905092915050565b5f61143a82611045565b915061144583611045565b925082820261145381611045565b9150828204841483151761146a57611469611373565b5b509291505056fea264697066735822122007a826ef0acf86b54d2fcad603ffef87439e78d4491d14514e16de42f3d93eb764736f6c634300081c0033",
					"opcodes": "PUSH1 0xA0 PUSH1 0x40 MSTORE TIMESTAMP PUSH1 0x80 SWAP1 DUP2 MSTORE POP PUSH0 PUSH0 SSTORE PUSH0 PUSH1 0x1 SSTORE PUSH0 PUSH1 0x2 SSTORE PUSH0 PUSH1 0x3 SSTORE CALLVALUE DUP1 ISZERO PUSH2 0x25 JUMPI PUSH0 PUSH0 REVERT JUMPDEST POP PUSH2 0x35 CALLER PUSH2 0x3A PUSH1 0x20 SHL PUSH1 0x20 SHR JUMP JUMPDEST PUSH2 0x11A JUMP JUMPDEST PUSH2 0x48 PUSH2 0x116 PUSH1 0x20 SHL PUSH1 0x20 SHR JUMP JUMPDEST ISZERO PUSH2 0xC0 JUMPI PUSH32 0xFFFFFFFFFFFFFFFFFFFFFFFFFFFFFFFFFFFFFFFFFFFFFFFFFFFFFFFF74873927 DUP1 SLOAD ISZERO PUSH2 0x82 JUMPI PUSH4 0xDC149F0 PUSH0 MSTORE PUSH1 0x4 PUSH1 0x1C REVERT JUMPDEST DUP2 PUSH1 0x60 SHL PUSH1 0x60 SHR SWAP2 POP DUP2 ISZERO PUSH1 0xFF SHL DUP3 OR DUP2 SSTORE DUP2 PUSH0 PUSH32 0x8BE0079C531659141344CD1FD0A4F28419497F9722A3DAAFE3B4186F6B6457E0 PUSH0 PUSH0 LOG3 POP PUSH2 0x113 JUMP JUMPDEST DUP1 PUSH1 0x60 SHL PUSH1 0x60 SHR SWAP1 POP DUP1 PUSH32 0xFFFFFFFFFFFFFFFFFFFFFFFFFFFFFFFFFFFFFFFFFFFFFFFFFFFFFFFF74873927 SSTORE DUP1 PUSH0 PUSH32 0x8BE0079C531659141344CD1FD0A4F28419497F9722A3DAAFE3B4186F6B6457E0 PUSH0 PUSH0 LOG3 JUMPDEST POP JUMP JUMPDEST PUSH0 SWAP1 JUMP JUMPDEST PUSH1 0x80 MLOAD PUSH2 0x14A7 PUSH2 0x132 PUSH0 CODECOPY PUSH0 PUSH2 0x998 ADD MSTORE PUSH2 0x14A7 PUSH0 RETURN INVALID PUSH1 0x80 PUSH1 0x40 MSTORE PUSH1 0x4 CALLDATASIZE LT PUSH2 0x14A JUMPI PUSH0 CALLDATALOAD PUSH1 0xE0 SHR DUP1 PUSH4 0x8DA5CB5B GT PUSH2 0xB5 JUMPI DUP1 PUSH4 0xD505ACCF GT PUSH2 0x6E JUMPI DUP1 PUSH4 0xD505ACCF EQ PUSH2 0x42C JUMPI DUP1 PUSH4 0xDD62ED3E EQ PUSH2 0x454 JUMPI DUP1 PUSH4 0xEF8B30F7 EQ PUSH2 0x490 JUMPI DUP1 PUSH4 0xF04E283E EQ PUSH2 0x4CC JUMPI DUP1 PUSH4 0xF2FDE38B EQ PUSH2 0x4E8 JUMPI DUP1 PUSH4 0xFEE81CF4 EQ PUSH2 0x504 JUMPI PUSH2 0x14A JUMP JUMPDEST DUP1 PUSH4 0x8DA5CB5B EQ PUSH2 0x30E JUMPI DUP1 PUSH4 0x95D89B41 EQ PUSH2 0x338 JUMPI DUP1 PUSH4 0x9DC29FAC EQ PUSH2 0x362 JUMPI DUP1 PUSH4 0xA173F79E EQ PUSH2 0x38A JUMPI DUP1 PUSH4 0xA9059CBB EQ PUSH2 0x3B4 JUMPI DUP1 PUSH4 0xC6E6F592 EQ PUSH2 0x3F0 JUMPI PUSH2 0x14A JUMP JUMPDEST DUP1 PUSH4 0x313CE567 GT PUSH2 0x107 JUMPI DUP1 PUSH4 0x313CE567 EQ PUSH2 0x22E JUMPI DUP1 PUSH4 0x3644E515 EQ PUSH2 0x258 JUMPI DUP1 PUSH4 0x54D1F13D EQ PUSH2 0x282 JUMPI DUP1 PUSH4 0x70A08231 EQ PUSH2 0x28C JUMPI DUP1 PUSH4 0x715018A6 EQ PUSH2 0x2C8 JUMPI DUP1 PUSH4 0x7ECEBE00 EQ PUSH2 0x2D2 JUMPI PUSH2 0x14A JUMP JUMPDEST DUP1 PUSH4 0x6FDDE03 EQ PUSH2 0x14E JUMPI DUP1 PUSH4 0x95EA7B3 EQ PUSH2 0x178 JUMPI DUP1 PUSH4 0x1249C58B EQ PUSH2 0x1B4 JUMPI DUP1 PUSH4 0x18160DDD EQ PUSH2 0x1BE JUMPI DUP1 PUSH4 0x23B872DD EQ PUSH2 0x1E8 JUMPI DUP1 PUSH4 0x25692962 EQ PUSH2 0x224 JUMPI JUMPDEST PUSH0 PUSH0 REVERT JUMPDEST CALLVALUE DUP1 ISZERO PUSH2 0x159 JUMPI PUSH0 PUSH0 REVERT JUMPDEST POP PUSH2 0x162 PUSH2 0x540 JUMP JUMPDEST PUSH1 0x40 MLOAD PUSH2 0x16F SWAP2 SWAP1 PUSH2 0xFC7 JUMP JUMPDEST PUSH1 0x40 MLOAD DUP1 SWAP2 SUB SWAP1 RETURN JUMPDEST CALLVALUE DUP1 ISZERO PUSH2 0x183 JUMPI PUSH0 PUSH0 REVERT JUMPDEST POP PUSH2 0x19E PUSH1 0x4 DUP1 CALLDATASIZE SUB DUP2 ADD SWAP1 PUSH2 0x199 SWAP2 SWAP1 PUSH2 0x1078 JUMP JUMPDEST PUSH2 0x57D JUMP JUMPDEST PUSH1 0x40 MLOAD PUSH2 0x1AB SWAP2 SWAP1 PUSH2 0x10D0 JUMP JUMPDEST PUSH1 0x40 MLOAD DUP1 SWAP2 SUB SWAP1 RETURN JUMPDEST PUSH2 0x1BC PUSH2 0x608 JUMP JUMPDEST STOP JUMPDEST CALLVALUE DUP1 ISZERO PUSH2 0x1C9 JUMPI PUSH0 PUSH0 REVERT JUMPDEST POP PUSH2 0x1D2 PUSH2 0x61C JUMP JUMPDEST PUSH1 0x40 MLOAD PUSH2 0x1DF SWAP2 SWAP1 PUSH2 0x10F8 JUMP JUMPDEST PUSH1 0x40 MLOAD DUP1 SWAP2 SUB SWAP1 RETURN JUMPDEST CALLVALUE DUP1 ISZERO PUSH2 0x1F3 JUMPI PUSH0 PUSH0 REVERT JUMPDEST POP PUSH2 0x20E PUSH1 0x4 DUP1 CALLDATASIZE SUB DUP2 ADD SWAP1 PUSH2 0x209 SWAP2 SWAP1 PUSH2 0x1111 JUMP JUMPDEST PUSH2 0x62D JUMP JUMPDEST PUSH1 0x40 MLOAD PUSH2 0x21B SWAP2 SWAP1 PUSH2 0x10D0 JUMP JUMPDEST PUSH1 0x40 MLOAD DUP1 SWAP2 SUB SWAP1 RETURN JUMPDEST PUSH2 0x22C PUSH2 0x7D3 JUMP JUMPDEST STOP JUMPDEST CALLVALUE DUP1 ISZERO PUSH2 0x239 JUMPI PUSH0 PUSH0 REVERT JUMPDEST POP PUSH2 0x242 PUSH2 0x824 JUMP JUMPDEST PUSH1 0x40 MLOAD PUSH2 0x24F SWAP2 SWAP1 PUSH2 0x117C JUMP JUMPDEST PUSH1 0x40 MLOAD DUP1 SWAP2 SUB SWAP1 RETURN JUMPDEST CALLVALUE DUP1 ISZERO PUSH2 0x263 JUMPI PUSH0 PUSH0 REVERT JUMPDEST POP PUSH2 0x26C PUSH2 0x82C JUMP JUMPDEST PUSH1 0x40 MLOAD PUSH2 0x279 SWAP2 SWAP1 PUSH2 0x11AD JUMP JUMPDEST PUSH1 0x40 MLOAD DUP1 SWAP2 SUB SWAP1 RETURN JUMPDEST PUSH2 0x28A PUSH2 0x8A8 JUMP JUMPDEST STOP JUMPDEST CALLVALUE DUP1 ISZERO PUSH2 0x297 JUMPI PUSH0 PUSH0 REVERT JUMPDEST POP PUSH2 0x2B2 PUSH1 0x4 DUP1 CALLDATASIZE SUB DUP2 ADD SWAP1 PUSH2 0x2AD SWAP2 SWAP1 PUSH2 0x11C6 JUMP JUMPDEST PUSH2 0x8E1 JUMP JUMPDEST PUSH1 0x40 MLOAD PUSH2 0x2BF SWAP2 SWAP1 PUSH2 0x10F8 JUMP JUMPDEST PUSH1 0x40 MLOAD DUP1 SWAP2 SUB SWAP1 RETURN JUMPDEST PUSH2 0x2D0 PUSH2 0x8FA JUMP JUMPDEST STOP JUMPDEST CALLVALUE DUP1 ISZERO PUSH2 0x2DD JUMPI PUSH0 PUSH0 REVERT JUMPDEST POP PUSH2 0x2F8 PUSH1 0x4 DUP1 CALLDATASIZE SUB DUP2 ADD SWAP1 PUSH2 0x2F3 SWAP2 SWAP1 PUSH2 0x11C6 JUMP JUMPDEST PUSH2 0x90D JUMP JUMPDEST PUSH1 0x40 MLOAD PUSH2 0x305 SWAP2 SWAP1 PUSH2 0x10F8 JUMP JUMPDEST PUSH1 0x40 MLOAD DUP1 SWAP2 SUB SWAP1 RETURN JUMPDEST CALLVALUE DUP1 ISZERO PUSH2 0x319 JUMPI PUSH0 PUSH0 REVERT JUMPDEST POP PUSH2 0x322 PUSH2 0x926 JUMP JUMPDEST PUSH1 0x40 MLOAD PUSH2 0x32F SWAP2 SWAP1 PUSH2 0x1200 JUMP JUMPDEST PUSH1 0x40 MLOAD DUP1 SWAP2 SUB SWAP1 RETURN JUMPDEST CALLVALUE DUP1 ISZERO PUSH2 0x343 JUMPI PUSH0 PUSH0 REVERT JUMPDEST POP PUSH2 0x34C PUSH2 0x94E JUMP JUMPDEST PUSH1 0x40 MLOAD PUSH2 0x359 SWAP2 SWAP1 PUSH2 0xFC7 JUMP JUMPDEST PUSH1 0x40 MLOAD DUP1 SWAP2 SUB SWAP1 RETURN JUMPDEST CALLVALUE DUP1 ISZERO PUSH2 0x36D JUMPI PUSH0 PUSH0 REVERT JUMPDEST POP PUSH2 0x388 PUSH1 0x4 DUP1 CALLDATASIZE SUB DUP2 ADD SWAP1 PUSH2 0x383 SWAP2 SWAP1 PUSH2 0x1078 JUMP JUMPDEST PUSH2 0x98B JUMP JUMPDEST STOP JUMPDEST CALLVALUE DUP1 ISZERO PUSH2 0x395 JUMPI PUSH0 PUSH0 REVERT JUMPDEST POP PUSH2 0x39E PUSH2 0x98F JUMP JUMPDEST PUSH1 0x40 MLOAD PUSH2 0x3AB SWAP2 SWAP1 PUSH2 0x10F8 JUMP JUMPDEST PUSH1 0x40 MLOAD DUP1 SWAP2 SUB SWAP1 RETURN JUMPDEST CALLVALUE DUP1 ISZERO PUSH2 0x3BF JUMPI PUSH0 PUSH0 REVERT JUMPDEST POP PUSH2 0x3DA PUSH1 0x4 DUP1 CALLDATASIZE SUB DUP2 ADD SWAP1 PUSH2 0x3D5 SWAP2 SWAP1 PUSH2 0x1078 JUMP JUMPDEST PUSH2 0x9DB JUMP JUMPDEST PUSH1 0x40 MLOAD PUSH2 0x3E7 SWAP2 SWAP1 PUSH2 0x10D0 JUMP JUMPDEST PUSH1 0x40 MLOAD DUP1 SWAP2 SUB SWAP1 RETURN JUMPDEST CALLVALUE DUP1 ISZERO PUSH2 0x3FB JUMPI PUSH0 PUSH0 REVERT JUMPDEST POP PUSH2 0x416 PUSH1 0x4 DUP1 CALLDATASIZE SUB DUP2 ADD SWAP1 PUSH2 0x411 SWAP2 SWAP1 PUSH2 0x1219 JUMP JUMPDEST PUSH2 0xA69 JUMP JUMPDEST PUSH1 0x40 MLOAD PUSH2 0x423 SWAP2 SWAP1 PUSH2 0x10F8 JUMP JUMPDEST PUSH1 0x40 MLOAD DUP1 SWAP2 SUB SWAP1 RETURN JUMPDEST CALLVALUE DUP1 ISZERO PUSH2 0x437 JUMPI PUSH0 PUSH0 REVERT JUMPDEST POP PUSH2 0x452 PUSH1 0x4 DUP1 CALLDATASIZE SUB DUP2 ADD SWAP1 PUSH2 0x44D SWAP2 SWAP1 PUSH2 0x1298 JUMP JUMPDEST PUSH2 0xA91 JUMP JUMPDEST STOP JUMPDEST CALLVALUE DUP1 ISZERO PUSH2 0x45F JUMPI PUSH0 PUSH0 REVERT JUMPDEST POP PUSH2 0x47A PUSH1 0x4 DUP1 CALLDATASIZE SUB DUP2 ADD SWAP1 PUSH2 0x475 SWAP2 SWAP1 PUSH2 0x1335 JUMP JUMPDEST PUSH2 0xC54 JUMP JUMPDEST PUSH1 0x40 MLOAD PUSH2 0x487 SWAP2 SWAP1 PUSH2 0x10F8 JUMP JUMPDEST PUSH1 0x40 MLOAD DUP1 SWAP2 SUB SWAP1 RETURN JUMPDEST CALLVALUE DUP1 ISZERO PUSH2 0x49B JUMPI PUSH0 PUSH0 REVERT JUMPDEST POP PUSH2 0x4B6 PUSH1 0x4 DUP1 CALLDATASIZE SUB DUP2 ADD SWAP1 PUSH2 0x4B1 SWAP2 SWAP1 PUSH2 0x1219 JUMP JUMPDEST PUSH2 0xCEB JUMP JUMPDEST PUSH1 0x40 MLOAD PUSH2 0x4C3 SWAP2 SWAP1 PUSH2 0x10F8 JUMP JUMPDEST PUSH1 0x40 MLOAD DUP1 SWAP2 SUB SWAP1 RETURN JUMPDEST PUSH2 0x4E6 PUSH1 0x4 DUP1 CALLDATASIZE SUB DUP2 ADD SWAP1 PUSH2 0x4E1 SWAP2 SWAP1 PUSH2 0x11C6 JUMP JUMPDEST PUSH2 0xCFC JUMP JUMPDEST STOP JUMPDEST PUSH2 0x502 PUSH1 0x4 DUP1 CALLDATASIZE SUB DUP2 ADD SWAP1 PUSH2 0x4FD SWAP2 SWAP1 PUSH2 0x11C6 JUMP JUMPDEST PUSH2 0xD3A JUMP JUMPDEST STOP JUMPDEST CALLVALUE DUP1 ISZERO PUSH2 0x50F JUMPI PUSH0 PUSH0 REVERT JUMPDEST POP PUSH2 0x52A PUSH1 0x4 DUP1 CALLDATASIZE SUB DUP2 ADD SWAP1 PUSH2 0x525 SWAP2 SWAP1 PUSH2 0x11C6 JUMP JUMPDEST PUSH2 0xD63 JUMP JUMPDEST PUSH1 0x40 MLOAD PUSH2 0x537 SWAP2 SWAP1 PUSH2 0x10F8 JUMP JUMPDEST PUSH1 0x40 MLOAD DUP1 SWAP2 SUB SWAP1 RETURN JUMPDEST PUSH1 0x60 PUSH1 0x40 MLOAD DUP1 PUSH1 0x40 ADD PUSH1 0x40 MSTORE DUP1 PUSH1 0xB DUP2 MSTORE PUSH1 0x20 ADD PUSH32 0x4B61696A75204775616E6F000000000000000000000000000000000000000000 DUP2 MSTORE POP SWAP1 POP SWAP1 JUMP JUMPDEST PUSH0 PUSH2 0x586 PUSH2 0xD7C JUMP JUMPDEST ISZERO PUSH2 0x5B9 JUMPI DUP2 NOT ISZERO PUSH15 0x22D473030F116DDEE9F6B43AC78BA3 DUP5 PUSH1 0x60 SHL PUSH1 0x60 SHR XOR OR PUSH2 0x5B8 JUMPI PUSH4 0x3F68539A PUSH0 MSTORE PUSH1 0x4 PUSH1 0x1C REVERT JUMPDEST JUMPDEST DUP3 PUSH1 0x20 MSTORE PUSH4 0x7F5E9F20 PUSH1 0xC MSTORE CALLER PUSH0 MSTORE DUP2 PUSH1 0x34 PUSH1 0xC KECCAK256 SSTORE DUP2 PUSH0 MSTORE PUSH1 0x2C MLOAD PUSH1 0x60 SHR CALLER PUSH32 0x8C5BE1E5EBEC7D5BD14F71427D1E84F3DD0314C0F7B2291E5B200AC8C7C3B925 PUSH1 0x20 PUSH0 LOG3 PUSH1 0x1 SWAP1 POP SWAP3 SWAP2 POP POP JUMP JUMPDEST PUSH2 0x61A CALLER PUSH2 0x615 CALLVALUE PUSH2 0xCEB JUMP JUMPDEST PUSH2 0xD83 JUMP JUMPDEST JUMP JUMPDEST PUSH0 PUSH9 0x5345CDF77EB68F44C SLOAD SWAP1 POP SWAP1 JUMP JUMPDEST PUSH0 PUSH2 0x639 DUP5 DUP5 DUP5 PUSH2 0xE15 JUMP JUMPDEST PUSH2 0x641 PUSH2 0xD7C JUMP JUMPDEST ISZERO PUSH2 0x70F JUMPI DUP4 PUSH1 0x60 SHL PUSH15 0x22D473030F116DDEE9F6B43AC78BA3 CALLER EQ PUSH2 0x69A JUMPI CALLER PUSH1 0x20 MSTORE PUSH4 0x7F5E9F20 DUP2 OR PUSH1 0xC MSTORE PUSH1 0x34 PUSH1 0xC KECCAK256 DUP1 SLOAD DUP1 NOT ISZERO PUSH2 0x697 JUMPI DUP1 DUP6 GT ISZERO PUSH2 0x691 JUMPI PUSH4 0x13BE252B PUSH0 MSTORE PUSH1 0x4 PUSH1 0x1C REVERT JUMPDEST DUP5 DUP2 SUB DUP3 SSTORE JUMPDEST POP POP JUMPDEST PUSH4 0x87A211A2 DUP2 OR PUSH1 0xC MSTORE PUSH1 0x20 PUSH1 0xC KECCAK256 DUP1 SLOAD DUP1 DUP6 GT ISZERO PUSH2 0x6C0 JUMPI PUSH4 0xF4D678B8 PUSH0 MSTORE PUSH1 0x4 PUSH1 0x1C REVERT JUMPDEST DUP5 DUP2 SUB DUP3 SSTORE DUP6 PUSH0 MSTORE PUSH1 0x20 PUSH1 0xC KECCAK256 DUP6 DUP2 SLOAD ADD DUP2 SSTORE DUP6 PUSH1 0x20 MSTORE PUSH1 0xC MLOAD PUSH1 0x60 SHR DUP5 PUSH1 0x60 SHR PUSH32 0xDDF252AD1BE2C89B69C2B068FC378DAA952BA7F163C4A11628F55A4DF523B3EF PUSH1 0x20 DUP1 LOG3 POP POP POP POP PUSH2 0x7BD JUMP JUMPDEST DUP4 PUSH1 0x60 SHL CALLER PUSH1 0x20 MSTORE PUSH4 0x7F5E9F20 DUP2 OR PUSH1 0xC MSTORE PUSH1 0x34 PUSH1 0xC KECCAK256 DUP1 SLOAD DUP1 NOT ISZERO PUSH2 0x74A JUMPI DUP1 DUP6 GT ISZERO PUSH2 0x744 JUMPI PUSH4 0x13BE252B PUSH0 MSTORE PUSH1 0x4 PUSH1 0x1C REVERT JUMPDEST DUP5 DUP2 SUB DUP3 SSTORE JUMPDEST PUSH4 0x87A211A2 DUP4 OR PUSH1 0xC MSTORE PUSH1 0x20 PUSH1 0xC KECCAK256 DUP1 SLOAD DUP1 DUP8 GT ISZERO PUSH2 0x770 JUMPI PUSH4 0xF4D678B8 PUSH0 MSTORE PUSH1 0x4 PUSH1 0x1C REVERT JUMPDEST DUP7 DUP2 SUB DUP3 SSTORE DUP8 PUSH0 MSTORE PUSH1 0x20 PUSH1 0xC KECCAK256 DUP8 DUP2 SLOAD ADD DUP2 SSTORE DUP8 PUSH1 0x20 MSTORE PUSH1 0xC MLOAD PUSH1 0x60 SHR DUP7 PUSH1 0x60 SHR PUSH32 0xDDF252AD1BE2C89B69C2B068FC378DAA952BA7F163C4A11628F55A4DF523B3EF PUSH1 0x20 DUP1 LOG3 POP POP POP POP POP POP JUMPDEST PUSH2 0x7C8 DUP5 DUP5 DUP5 PUSH2 0xE1A JUMP JUMPDEST PUSH1 0x1 SWAP1 POP SWAP4 SWAP3 POP POP POP JUMP JUMPDEST PUSH0 PUSH2 0x7DC PUSH2 0xE1F JUMP JUMPDEST PUSH8 0xFFFFFFFFFFFFFFFF AND TIMESTAMP ADD SWAP1 POP PUSH4 0x389A75E1 PUSH1 0xC MSTORE CALLER PUSH0 MSTORE DUP1 PUSH1 0x20 PUSH1 0xC KECCAK256 SSTORE CALLER PUSH32 0xDBF36A107DA19E49527A7176A1BABF963B4B0FF8CDE35EE35D6CD8F1F9AC7E1D PUSH0 PUSH0 LOG2 POP JUMP JUMPDEST PUSH0 PUSH1 0x12 SWAP1 POP SWAP1 JUMP JUMPDEST PUSH0 PUSH0 PUSH2 0x836 PUSH2 0xE29 JUMP JUMPDEST SWAP1 POP PUSH0 PUSH0 SHL DUP2 SUB PUSH2 0x853 JUMPI PUSH2 0x849 PUSH2 0x540 JUMP JUMPDEST DUP1 MLOAD SWAP1 PUSH1 0x20 ADD KECCAK256 SWAP1 POP JUMPDEST PUSH0 PUSH2 0x85C PUSH2 0xE2D JUMP JUMPDEST SWAP1 POP PUSH1 0x40 MLOAD PUSH32 0x8B73C3C69BB8FE3D512ECC4CF759CC79239F7B179B0FFACAA9A75D522B39400F DUP2 MSTORE DUP3 PUSH1 0x20 DUP3 ADD MSTORE DUP2 PUSH1 0x40 DUP3 ADD MSTORE CHAINID PUSH1 0x60 DUP3 ADD MSTORE ADDRESS PUSH1 0x80 DUP3 ADD MSTORE PUSH1 0xA0 DUP2 KECCAK256 SWAP4 POP POP POP POP SWAP1 JUMP JUMPDEST PUSH4 0x389A75E1 PUSH1 0xC MSTORE CALLER PUSH0 MSTORE PUSH0 PUSH1 0x20 PUSH1 0xC KECCAK256 SSTORE CALLER PUSH32 0xFA7B8EAB7DA67F412CC9575ED43464468F9BFBAE89D1675917346CA6D8FE3C92 PUSH0 PUSH0 LOG2 JUMP JUMPDEST PUSH0 PUSH4 0x87A211A2 PUSH1 0xC MSTORE DUP2 PUSH0 MSTORE PUSH1 0x20 PUSH1 0xC KECCAK256 SLOAD SWAP1 POP SWAP2 SWAP1 POP JUMP JUMPDEST PUSH2 0x902 PUSH2 0xE56 JUMP JUMPDEST PUSH2 0x90B PUSH0 PUSH2 0xE8D JUMP JUMPDEST JUMP JUMPDEST PUSH0 PUSH4 0x38377508 PUSH1 0xC MSTORE DUP2 PUSH0 MSTORE PUSH1 0x20 PUSH1 0xC KECCAK256 SLOAD SWAP1 POP SWAP2 SWAP1 POP JUMP JUMPDEST PUSH0 PUSH32 0xFFFFFFFFFFFFFFFFFFFFFFFFFFFFFFFFFFFFFFFFFFFFFFFFFFFFFFFF74873927 SLOAD SWAP1 POP SWAP1 JUMP JUMPDEST PUSH1 0x60 PUSH1 0x40 MLOAD DUP1 PUSH1 0x40 ADD PUSH1 0x40 MSTORE DUP1 PUSH1 0x5 DUP2 MSTORE PUSH1 0x20 ADD PUSH32 0x4755414E4F000000000000000000000000000000000000000000000000000000 DUP2 MSTORE POP SWAP1 POP SWAP1 JUMP JUMPDEST POP POP JUMP JUMPDEST PUSH0 PUSH0 SLOAD PUSH3 0x15180 PUSH32 0x0 TIMESTAMP PUSH2 0x9C2 SWAP2 SWAP1 PUSH2 0x13A0 JUMP JUMPDEST PUSH2 0x9CC SWAP2 SWAP1 PUSH2 0x1400 JUMP JUMPDEST PUSH2 0x9D6 SWAP2 SWAP1 PUSH2 0x13A0 JUMP JUMPDEST SWAP1 POP SWAP1 JUMP JUMPDEST PUSH0 PUSH2 0x9E7 CALLER DUP5 DUP5 PUSH2 0xE15 JUMP JUMPDEST PUSH4 0x87A211A2 PUSH1 0xC MSTORE CALLER PUSH0 MSTORE PUSH1 0x20 PUSH1 0xC KECCAK256 DUP1 SLOAD DUP1 DUP5 GT ISZERO PUSH2 0xA0E JUMPI PUSH4 0xF4D678B8 PUSH0 MSTORE PUSH1 0x4 PUSH1 0x1C REVERT JUMPDEST DUP4 DUP2 SUB DUP3 SSTORE DUP5 PUSH0 MSTORE PUSH1 0x20 PUSH1 0xC KECCAK256 DUP5 DUP2 SLOAD ADD DUP2 SSTORE DUP5 PUSH1 0x20 MSTORE PUSH1 0xC MLOAD PUSH1 0x60 SHR CALLER PUSH32 0xDDF252AD1BE2C89B69C2B068FC378DAA952BA7F163C4A11628F55A4DF523B3EF PUSH1 0x20 DUP1 LOG3 POP POP POP PUSH2 0xA5F CALLER DUP5 DUP5 PUSH2 0xE1A JUMP JUMPDEST PUSH1 0x1 SWAP1 POP SWAP3 SWAP2 POP POP JUMP JUMPDEST PUSH0 PUSH2 0xA72 PUSH2 0x98F JUMP JUMPDEST PUSH1 0x1 SLOAD DUP4 PUSH2 0xA80 SWAP2 SWAP1 PUSH2 0x1400 JUMP JUMPDEST PUSH2 0xA8A SWAP2 SWAP1 PUSH2 0x1430 JUMP JUMPDEST SWAP1 POP SWAP2 SWAP1 POP JUMP JUMPDEST PUSH2 0xA99 PUSH2 0xD7C JUMP JUMPDEST ISZERO PUSH2 0xACC JUMPI DUP5 NOT ISZERO PUSH15 0x22D473030F116DDEE9F6B43AC78BA3 DUP8 PUSH1 0x60 SHL PUSH1 0x60 SHR XOR OR PUSH2 0xACB JUMPI PUSH4 0x3F68539A PUSH0 MSTORE PUSH1 0x4 PUSH1 0x1C REVERT JUMPDEST JUMPDEST PUSH0 PUSH2 0xAD5 PUSH2 0xE29 JUMP JUMPDEST SWAP1 POP PUSH0 PUSH0 SHL DUP2 SUB PUSH2 0xAF2 JUMPI PUSH2 0xAE8 PUSH2 0x540 JUMP JUMPDEST DUP1 MLOAD SWAP1 PUSH1 0x20 ADD KECCAK256 SWAP1 POP JUMPDEST PUSH0 PUSH2 0xAFB PUSH2 0xE2D JUMP JUMPDEST SWAP1 POP DUP6 TIMESTAMP GT ISZERO PUSH2 0xB12 JUMPI PUSH4 0x1A15A3CC PUSH0 MSTORE PUSH1 0x4 PUSH1 0x1C REVERT JUMPDEST PUSH1 0x40 MLOAD DUP10 PUSH1 0x60 SHL PUSH1 0x60 SHR SWAP10 POP DUP9 PUSH1 0x60 SHL PUSH1 0x60 SHR SWAP9 POP PUSH6 0x383775081901 PUSH1 0xE MSTORE DUP10 PUSH0 MSTORE PUSH1 0x20 PUSH1 0xC KECCAK256 DUP1 SLOAD PUSH32 0x8B73C3C69BB8FE3D512ECC4CF759CC79239F7B179B0FFACAA9A75D522B39400F DUP4 MSTORE DUP5 PUSH1 0x20 DUP5 ADD MSTORE DUP4 PUSH1 0x40 DUP5 ADD MSTORE CHAINID PUSH1 0x60 DUP5 ADD MSTORE ADDRESS PUSH1 0x80 DUP5 ADD MSTORE PUSH1 0xA0 DUP4 KECCAK256 PUSH1 0x2E MSTORE PUSH32 0x6E71EDAE12B1B97F4D1F60370FEF10105FA2FAAE0126114A169C64845D6126C9 DUP4 MSTORE DUP12 PUSH1 0x20 DUP5 ADD MSTORE DUP11 PUSH1 0x40 DUP5 ADD MSTORE DUP10 PUSH1 0x60 DUP5 ADD MSTORE DUP1 PUSH1 0x80 DUP5 ADD MSTORE DUP9 PUSH1 0xA0 DUP5 ADD MSTORE PUSH1 0xC0 DUP4 KECCAK256 PUSH1 0x4E MSTORE PUSH1 0x42 PUSH1 0x2C KECCAK256 PUSH0 MSTORE DUP8 PUSH1 0xFF AND PUSH1 0x20 MSTORE DUP7 PUSH1 0x40 MSTORE DUP6 PUSH1 0x60 MSTORE PUSH1 0x20 DUP1 PUSH1 0x80 PUSH0 PUSH1 0x1 GAS STATICCALL DUP13 RETURNDATASIZE MLOAD EQ PUSH2 0xBFA JUMPI PUSH4 0xDDAFBAEF PUSH0 MSTORE PUSH1 0x4 PUSH1 0x1C REVERT JUMPDEST DUP1 DUP3 ADD DUP4 SSTORE DUP12 PUSH4 0x7F5E9F20 PUSH1 0xA0 SHL OR PUSH1 0x40 MSTORE DUP11 PUSH1 0x34 PUSH1 0x2C KECCAK256 SSTORE DUP12 DUP14 PUSH32 0x8C5BE1E5EBEC7D5BD14F71427D1E84F3DD0314C0F7B2291E5B200AC8C7C3B925 PUSH1 0x20 PUSH1 0x60 DUP9 ADD LOG3 DUP4 PUSH1 0x40 MSTORE PUSH0 PUSH1 0x60 MSTORE POP POP POP POP POP POP POP POP POP POP POP POP POP JUMP JUMPDEST PUSH0 PUSH2 0xC5D PUSH2 0xD7C JUMP JUMPDEST ISZERO PUSH2 0xCCD JUMPI PUSH15 0x22D473030F116DDEE9F6B43AC78BA3 PUSH20 0xFFFFFFFFFFFFFFFFFFFFFFFFFFFFFFFFFFFFFFFF AND DUP3 PUSH20 0xFFFFFFFFFFFFFFFFFFFFFFFFFFFFFFFFFFFFFFFF AND SUB PUSH2 0xCCC JUMPI PUSH32 0xFFFFFFFFFFFFFFFFFFFFFFFFFFFFFFFFFFFFFFFFFFFFFFFFFFFFFFFFFFFFFFFF SWAP1 POP PUSH2 0xCE5 JUMP JUMPDEST JUMPDEST DUP2 PUSH1 0x20 MSTORE PUSH4 0x7F5E9F20 PUSH1 0xC MSTORE DUP3 PUSH0 MSTORE PUSH1 0x34 PUSH1 0xC KECCAK256 SLOAD SWAP1 POP JUMPDEST SWAP3 SWAP2 POP POP JUMP JUMPDEST PUSH0 PUSH2 0xCF5 DUP3 PUSH2 0xA69 JUMP JUMPDEST SWAP1 POP SWAP2 SWAP1 POP JUMP JUMPDEST PUSH2 0xD04 PUSH2 0xE56 JUMP JUMPDEST PUSH4 0x389A75E1 PUSH1 0xC MSTORE DUP1 PUSH0 MSTORE PUSH1 0x20 PUSH1 0xC KECCAK256 DUP1 SLOAD TIMESTAMP GT ISZERO PUSH2 0xD2A JUMPI PUSH4 0x6F5E8818 PUSH0 MSTORE PUSH1 0x4 PUSH1 0x1C REVERT JUMPDEST PUSH0 DUP2 SSTORE POP PUSH2 0xD37 DUP2 PUSH2 0xE8D JUMP JUMPDEST POP JUMP JUMPDEST PUSH2 0xD42 PUSH2 0xE56 JUMP JUMPDEST DUP1 PUSH1 0x60 SHL PUSH2 0xD57 JUMPI PUSH4 0x7448FBAE PUSH0 MSTORE PUSH1 0x4 PUSH1 0x1C REVERT JUMPDEST PUSH2 0xD60 DUP2 PUSH2 0xE8D JUMP JUMPDEST POP JUMP JUMPDEST PUSH0 PUSH4 0x389A75E1 PUSH1 0xC MSTORE DUP2 PUSH0 MSTORE PUSH1 0x20 PUSH1 0xC KECCAK256 SLOAD SWAP1 POP SWAP2 SWAP1 POP JUMP JUMPDEST PUSH0 PUSH0 SWAP1 POP SWAP1 JUMP JUMPDEST PUSH2 0xD8E PUSH0 DUP4 DUP4 PUSH2 0xE15 JUMP JUMPDEST PUSH9 0x5345CDF77EB68F44C SLOAD DUP2 DUP2 ADD DUP2 DUP2 LT ISZERO PUSH2 0xDB1 JUMPI PUSH4 0xE5CFE957 PUSH0 MSTORE PUSH1 0x4 PUSH1 0x1C REVERT JUMPDEST DUP1 PUSH9 0x5345CDF77EB68F44C SSTORE PUSH4 0x87A211A2 PUSH1 0xC MSTORE DUP4 PUSH0 MSTORE PUSH1 0x20 PUSH1 0xC KECCAK256 DUP4 DUP2 SLOAD ADD DUP2 SSTORE DUP4 PUSH1 0x20 MSTORE PUSH1 0xC MLOAD PUSH1 0x60 SHR PUSH0 PUSH32 0xDDF252AD1BE2C89B69C2B068FC378DAA952BA7F163C4A11628F55A4DF523B3EF PUSH1 0x20 DUP1 LOG3 POP POP POP PUSH2 0xE11 PUSH0 DUP4 DUP4 PUSH2 0xE1A JUMP JUMPDEST POP POP JUMP JUMPDEST POP POP POP JUMP JUMPDEST POP POP POP JUMP JUMPDEST PUSH0 PUSH3 0x2A300 SWAP1 POP SWAP1 JUMP JUMPDEST PUSH0 SWAP1 JUMP JUMPDEST PUSH0 PUSH32 0xC89EFDAA54C0F20C7ADF612882DF0950F5A951637E0307CDCB4C672F298B8BC6 PUSH0 SHL SWAP1 POP SWAP1 JUMP JUMPDEST PUSH32 0xFFFFFFFFFFFFFFFFFFFFFFFFFFFFFFFFFFFFFFFFFFFFFFFFFFFFFFFF74873927 SLOAD CALLER EQ PUSH2 0xE8B JUMPI PUSH4 0x82B42900 PUSH0 MSTORE PUSH1 0x4 PUSH1 0x1C REVERT JUMPDEST JUMP JUMPDEST PUSH2 0xE95 PUSH2 0xF53 JUMP JUMPDEST ISZERO PUSH2 0xEFA JUMPI PUSH32 0xFFFFFFFFFFFFFFFFFFFFFFFFFFFFFFFFFFFFFFFFFFFFFFFFFFFFFFFF74873927 DUP2 PUSH1 0x60 SHL PUSH1 0x60 SHR SWAP2 POP DUP2 DUP2 SLOAD PUSH32 0x8BE0079C531659141344CD1FD0A4F28419497F9722A3DAAFE3B4186F6B6457E0 PUSH0 PUSH0 LOG3 DUP2 ISZERO PUSH1 0xFF SHL DUP3 OR DUP2 SSTORE POP PUSH2 0xF50 JUMP JUMPDEST PUSH32 0xFFFFFFFFFFFFFFFFFFFFFFFFFFFFFFFFFFFFFFFFFFFFFFFFFFFFFFFF74873927 DUP2 PUSH1 0x60 SHL PUSH1 0x60 SHR SWAP2 POP DUP2 DUP2 SLOAD PUSH32 0x8BE0079C531659141344CD1FD0A4F28419497F9722A3DAAFE3B4186F6B6457E0 PUSH0 PUSH0 LOG3 DUP2 DUP2 SSTORE POP JUMPDEST POP JUMP JUMPDEST PUSH0 SWAP1 JUMP JUMPDEST PUSH0 DUP2 MLOAD SWAP1 POP SWAP2 SWAP1 POP JUMP JUMPDEST PUSH0 DUP3 DUP3 MSTORE PUSH1 0x20 DUP3 ADD SWAP1 POP SWAP3 SWAP2 POP POP JUMP JUMPDEST DUP3 DUP2 DUP4 MCOPY PUSH0 DUP4 DUP4 ADD MSTORE POP POP POP JUMP JUMPDEST PUSH0 PUSH1 0x1F NOT PUSH1 0x1F DUP4 ADD AND SWAP1 POP SWAP2 SWAP1 POP JUMP JUMPDEST PUSH0 PUSH2 0xF99 DUP3 PUSH2 0xF57 JUMP JUMPDEST PUSH2 0xFA3 DUP2 DUP6 PUSH2 0xF61 JUMP JUMPDEST SWAP4 POP PUSH2 0xFB3 DUP2 DUP6 PUSH1 0x20 DUP7 ADD PUSH2 0xF71 JUMP JUMPDEST PUSH2 0xFBC DUP2 PUSH2 0xF7F JUMP JUMPDEST DUP5 ADD SWAP2 POP POP SWAP3 SWAP2 POP POP JUMP JUMPDEST PUSH0 PUSH1 0x20 DUP3 ADD SWAP1 POP DUP2 DUP2 SUB PUSH0 DUP4 ADD MSTORE PUSH2 0xFDF DUP2 DUP5 PUSH2 0xF8F JUMP JUMPDEST SWAP1 POP SWAP3 SWAP2 POP POP JUMP JUMPDEST PUSH0 PUSH0 REVERT JUMPDEST PUSH0 PUSH20 0xFFFFFFFFFFFFFFFFFFFFFFFFFFFFFFFFFFFFFFFF DUP3 AND SWAP1 POP SWAP2 SWAP1 POP JUMP JUMPDEST PUSH0 PUSH2 0x1014 DUP3 PUSH2 0xFEB JUMP JUMPDEST SWAP1 POP SWAP2 SWAP1 POP JUMP JUMPDEST PUSH2 0x1024 DUP2 PUSH2 0x100A JUMP JUMPDEST DUP2 EQ PUSH2 0x102E JUMPI PUSH0 PUSH0 REVERT JUMPDEST POP JUMP JUMPDEST PUSH0 DUP2 CALLDATALOAD SWAP1 POP PUSH2 0x103F DUP2 PUSH2 0x101B JUMP JUMPDEST SWAP3 SWAP2 POP POP JUMP JUMPDEST PUSH0 DUP2 SWAP1 POP SWAP2 SWAP1 POP JUMP JUMPDEST PUSH2 0x1057 DUP2 PUSH2 0x1045 JUMP JUMPDEST DUP2 EQ PUSH2 0x1061 JUMPI PUSH0 PUSH0 REVERT JUMPDEST POP JUMP JUMPDEST PUSH0 DUP2 CALLDATALOAD SWAP1 POP PUSH2 0x1072 DUP2 PUSH2 0x104E JUMP JUMPDEST SWAP3 SWAP2 POP POP JUMP JUMPDEST PUSH0 PUSH0 PUSH1 0x40 DUP4 DUP6 SUB SLT ISZERO PUSH2 0x108E JUMPI PUSH2 0x108D PUSH2 0xFE7 JUMP JUMPDEST JUMPDEST PUSH0 PUSH2 0x109B DUP6 DUP3 DUP7 ADD PUSH2 0x1031 JUMP JUMPDEST SWAP3 POP POP PUSH1 0x20 PUSH2 0x10AC DUP6 DUP3 DUP7 ADD PUSH2 0x1064 JUMP JUMPDEST SWAP2 POP POP SWAP3 POP SWAP3 SWAP1 POP JUMP JUMPDEST PUSH0 DUP2 ISZERO ISZERO SWAP1 POP SWAP2 SWAP1 POP JUMP JUMPDEST PUSH2 0x10CA DUP2 PUSH2 0x10B6 JUMP JUMPDEST DUP3 MSTORE POP POP JUMP JUMPDEST PUSH0 PUSH1 0x20 DUP3 ADD SWAP1 POP PUSH2 0x10E3 PUSH0 DUP4 ADD DUP5 PUSH2 0x10C1 JUMP JUMPDEST SWAP3 SWAP2 POP POP JUMP JUMPDEST PUSH2 0x10F2 DUP2 PUSH2 0x1045 JUMP JUMPDEST DUP3 MSTORE POP POP JUMP JUMPDEST PUSH0 PUSH1 0x20 DUP3 ADD SWAP1 POP PUSH2 0x110B PUSH0 DUP4 ADD DUP5 PUSH2 0x10E9 JUMP JUMPDEST SWAP3 SWAP2 POP POP JUMP JUMPDEST PUSH0 PUSH0 PUSH0 PUSH1 0x60 DUP5 DUP7 SUB SLT ISZERO PUSH2 0x1128 JUMPI PUSH2 0x1127 PUSH2 0xFE7 JUMP JUMPDEST JUMPDEST PUSH0 PUSH2 0x1135 DUP7 DUP3 DUP8 ADD PUSH2 0x1031 JUMP JUMPDEST SWAP4 POP POP PUSH1 0x20 PUSH2 0x1146 DUP7 DUP3 DUP8 ADD PUSH2 0x1031 JUMP JUMPDEST SWAP3 POP POP PUSH1 0x40 PUSH2 0x1157 DUP7 DUP3 DUP8 ADD PUSH2 0x1064 JUMP JUMPDEST SWAP2 POP POP SWAP3 POP SWAP3 POP SWAP3 JUMP JUMPDEST PUSH0 PUSH1 0xFF DUP3 AND SWAP1 POP SWAP2 SWAP1 POP JUMP JUMPDEST PUSH2 0x1176 DUP2 PUSH2 0x1161 JUMP JUMPDEST DUP3 MSTORE POP POP JUMP JUMPDEST PUSH0 PUSH1 0x20 DUP3 ADD SWAP1 POP PUSH2 0x118F PUSH0 DUP4 ADD DUP5 PUSH2 0x116D JUMP JUMPDEST SWAP3 SWAP2 POP POP JUMP JUMPDEST PUSH0 DUP2 SWAP1 POP SWAP2 SWAP1 POP JUMP JUMPDEST PUSH2 0x11A7 DUP2 PUSH2 0x1195 JUMP JUMPDEST DUP3 MSTORE POP POP JUMP JUMPDEST PUSH0 PUSH1 0x20 DUP3 ADD SWAP1 POP PUSH2 0x11C0 PUSH0 DUP4 ADD DUP5 PUSH2 0x119E JUMP JUMPDEST SWAP3 SWAP2 POP POP JUMP JUMPDEST PUSH0 PUSH1 0x20 DUP3 DUP5 SUB SLT ISZERO PUSH2 0x11DB JUMPI PUSH2 0x11DA PUSH2 0xFE7 JUMP JUMPDEST JUMPDEST PUSH0 PUSH2 0x11E8 DUP5 DUP3 DUP6 ADD PUSH2 0x1031 JUMP JUMPDEST SWAP2 POP POP SWAP3 SWAP2 POP POP JUMP JUMPDEST PUSH2 0x11FA DUP2 PUSH2 0x100A JUMP JUMPDEST DUP3 MSTORE POP POP JUMP JUMPDEST PUSH0 PUSH1 0x20 DUP3 ADD SWAP1 POP PUSH2 0x1213 PUSH0 DUP4 ADD DUP5 PUSH2 0x11F1 JUMP JUMPDEST SWAP3 SWAP2 POP POP JUMP JUMPDEST PUSH0 PUSH1 0x20 DUP3 DUP5 SUB SLT ISZERO PUSH2 0x122E JUMPI PUSH2 0x122D PUSH2 0xFE7 JUMP JUMPDEST JUMPDEST PUSH0 PUSH2 0x123B DUP5 DUP3 DUP6 ADD PUSH2 0x1064 JUMP JUMPDEST SWAP2 POP POP SWAP3 SWAP2 POP POP JUMP JUMPDEST PUSH2 0x124D DUP2 PUSH2 0x1161 JUMP JUMPDEST DUP2 EQ PUSH2 0x1257 JUMPI PUSH0 PUSH0 REVERT JUMPDEST POP JUMP JUMPDEST PUSH0 DUP2 CALLDATALOAD SWAP1 POP PUSH2 0x1268 DUP2 PUSH2 0x1244 JUMP JUMPDEST SWAP3 SWAP2 POP POP JUMP JUMPDEST PUSH2 0x1277 DUP2 PUSH2 0x1195 JUMP JUMPDEST DUP2 EQ PUSH2 0x1281 JUMPI PUSH0 PUSH0 REVERT JUMPDEST POP JUMP JUMPDEST PUSH0 DUP2 CALLDATALOAD SWAP1 POP PUSH2 0x1292 DUP2 PUSH2 0x126E JUMP JUMPDEST SWAP3 SWAP2 POP POP JUMP JUMPDEST PUSH0 PUSH0 PUSH0 PUSH0 PUSH0 PUSH0 PUSH0 PUSH1 0xE0 DUP9 DUP11 SUB SLT ISZERO PUSH2 0x12B3 JUMPI PUSH2 0x12B2 PUSH2 0xFE7 JUMP JUMPDEST JUMPDEST PUSH0 PUSH2 0x12C0 DUP11 DUP3 DUP12 ADD PUSH2 0x1031 JUMP JUMPDEST SWAP8 POP POP PUSH1 0x20 PUSH2 0x12D1 DUP11 DUP3 DUP12 ADD PUSH2 0x1031 JUMP JUMPDEST SWAP7 POP POP PUSH1 0x40 PUSH2 0x12E2 DUP11 DUP3 DUP12 ADD PUSH2 0x1064 JUMP JUMPDEST SWAP6 POP POP PUSH1 0x60 PUSH2 0x12F3 DUP11 DUP3 DUP12 ADD PUSH2 0x1064 JUMP JUMPDEST SWAP5 POP POP PUSH1 0x80 PUSH2 0x1304 DUP11 DUP3 DUP12 ADD PUSH2 0x125A JUMP JUMPDEST SWAP4 POP POP PUSH1 0xA0 PUSH2 0x1315 DUP11 DUP3 DUP12 ADD PUSH2 0x1284 JUMP JUMPDEST SWAP3 POP POP PUSH1 0xC0 PUSH2 0x1326 DUP11 DUP3 DUP12 ADD PUSH2 0x1284 JUMP JUMPDEST SWAP2 POP POP SWAP3 SWAP6 SWAP9 SWAP2 SWAP5 SWAP8 POP SWAP3 SWAP6 POP JUMP JUMPDEST PUSH0 PUSH0 PUSH1 0x40 DUP4 DUP6 SUB SLT ISZERO PUSH2 0x134B JUMPI PUSH2 0x134A PUSH2 0xFE7 JUMP JUMPDEST JUMPDEST PUSH0 PUSH2 0x1358 DUP6 DUP3 DUP7 ADD PUSH2 0x1031 JUMP JUMPDEST SWAP3 POP POP PUSH1 0x20 PUSH2 0x1369 DUP6 DUP3 DUP7 ADD PUSH2 0x1031 JUMP JUMPDEST SWAP2 POP POP SWAP3 POP SWAP3 SWAP1 POP JUMP JUMPDEST PUSH32 0x4E487B7100000000000000000000000000000000000000000000000000000000 PUSH0 MSTORE PUSH1 0x11 PUSH1 0x4 MSTORE PUSH1 0x24 PUSH0 REVERT JUMPDEST PUSH0 PUSH2 0x13AA DUP3 PUSH2 0x1045 JUMP JUMPDEST SWAP2 POP PUSH2 0x13B5 DUP4 PUSH2 0x1045 JUMP JUMPDEST SWAP3 POP DUP3 DUP3 SUB SWAP1 POP DUP2 DUP2 GT ISZERO PUSH2 0x13CD JUMPI PUSH2 0x13CC PUSH2 0x1373 JUMP JUMPDEST JUMPDEST SWAP3 SWAP2 POP POP JUMP JUMPDEST PUSH32 0x4E487B7100000000000000000000000000000000000000000000000000000000 PUSH0 MSTORE PUSH1 0x12 PUSH1 0x4 MSTORE PUSH1 0x24 PUSH0 REVERT JUMPDEST PUSH0 PUSH2 0x140A DUP3 PUSH2 0x1045 JUMP JUMPDEST SWAP2 POP PUSH2 0x1415 DUP4 PUSH2 0x1045 JUMP JUMPDEST SWAP3 POP DUP3 PUSH2 0x1425 JUMPI PUSH2 0x1424 PUSH2 0x13D3 JUMP JUMPDEST JUMPDEST DUP3 DUP3 DIV SWAP1 POP SWAP3 SWAP2 POP POP JUMP JUMPDEST PUSH0 PUSH2 0x143A DUP3 PUSH2 0x1045 JUMP JUMPDEST SWAP2 POP PUSH2 0x1445 DUP4 PUSH2 0x1045 JUMP JUMPDEST SWAP3 POP DUP3 DUP3 MUL PUSH2 0x1453 DUP2 PUSH2 0x1045 JUMP JUMPDEST SWAP2 POP DUP3 DUP3 DIV DUP5 EQ DUP4 ISZERO OR PUSH2 0x146A JUMPI PUSH2 0x1469 PUSH2 0x1373 JUMP JUMPDEST JUMPDEST POP SWAP3 SWAP2 POP POP JUMP INVALID LOG2 PUSH5 0x6970667358 0x22 SLT KECCAK256 SMOD 0xA8 0x26 0xEF EXP 0xCF DUP7 0xB5 0x4D 0x2F 0xCA 0xD6 SUB SELFDESTRUCT 0xEF DUP8 NUMBER SWAP15 PUSH25 0xD4491D14514E16DE42F3D93EB764736F6C634300081C003300 "
				},
				"gasEstimates": {
					"creation": {
						"codeDepositCost": "1057400",
						"executionCost": "infinite",
						"totalCost": "infinite"
					},
					"external": {
						"DOMAIN_SEPARATOR()": "790",
						"allowance(address,address)": "infinite",
						"approve(address,uint256)": "24878",
						"availableShares()": "infinite",
						"balanceOf(address)": "2886",
						"burn(address,uint256)": "686",
						"cancelOwnershipHandover()": "6380",
						"completeOwnershipHandover(address)": "35670",
						"convertToShares(uint256)": "infinite",
						"decimals()": "361",
						"mint()": "infinite",
						"name()": "infinite",
						"nonces(address)": "2930",
						"owner()": "2503",
						"ownershipHandoverExpiresAt(address)": "2929",
						"permit(address,address,uint256,uint256,uint8,bytes32,bytes32)": "infinite",
						"previewDeposit(uint256)": "infinite",
						"renounceOwnership()": "11095",
						"requestOwnershipHandover()": "23605",
						"symbol()": "infinite",
						"totalSupply()": "2522",
						"transfer(address,uint256)": "51359",
						"transferFrom(address,address,uint256)": "infinite",
						"transferOwnership(address)": "28524"
					}
				},
				"methodIdentifiers": {
					"DOMAIN_SEPARATOR()": "3644e515",
					"allowance(address,address)": "dd62ed3e",
					"approve(address,uint256)": "095ea7b3",
					"availableShares()": "a173f79e",
					"balanceOf(address)": "70a08231",
					"burn(address,uint256)": "9dc29fac",
					"cancelOwnershipHandover()": "54d1f13d",
					"completeOwnershipHandover(address)": "f04e283e",
					"convertToShares(uint256)": "c6e6f592",
					"decimals()": "313ce567",
					"mint()": "1249c58b",
					"name()": "06fdde03",
					"nonces(address)": "7ecebe00",
					"owner()": "8da5cb5b",
					"ownershipHandoverExpiresAt(address)": "fee81cf4",
					"permit(address,address,uint256,uint256,uint8,bytes32,bytes32)": "d505accf",
					"previewDeposit(uint256)": "ef8b30f7",
					"renounceOwnership()": "715018a6",
					"requestOwnershipHandover()": "25692962",
					"symbol()": "95d89b41",
					"totalSupply()": "18160ddd",
					"transfer(address,uint256)": "a9059cbb",
					"transferFrom(address,address,uint256)": "23b872dd",
					"transferOwnership(address)": "f2fde38b"
				}
			},
			"storageLayout": {
				"storage": [
					{
						"astId": 716,
						"contract": "src/Guano.sol:Guano",
						"label": "totalMinted",
						"offset": 0,
						"slot": "0",
						"type": "t_uint256"
					},
					{
						"astId": 719,
						"contract": "src/Guano.sol:Guano",
						"label": "totalDeposited",
						"offset": 0,
						"slot": "1",
						"type": "t_uint256"
					},
					{
						"astId": 722,
						"contract": "src/Guano.sol:Guano",
						"label": "totalBurned",
						"offset": 0,
						"slot": "2",
						"type": "t_uint256"
					},
					{
						"astId": 725,
						"contract": "src/Guano.sol:Guano",
						"label": "totalWithdrawn",
						"offset": 0,
						"slot": "3",
						"type": "t_uint256"
					}
				],
				"types": {
					"t_uint256": {
						"encoding": "inplace",
						"label": "uint256",
						"numberOfBytes": "32"
					}
				}
			},
			"userdoc": {
				"kind": "user",
				"methods": {},
				"version": 1
			}
		}
	}
}