{
	"src/AddressRanker.sol": {
		"RankerFactory": {
			"abi": [
				{
					"anonymous": false,
					"inputs": [
						{
							"indexed": true,
							"internalType": "address",
							"name": "owner",
							"type": "address"
						},
						{
							"indexed": false,
							"internalType": "contract Ranker",
							"name": "ranker",
							"type": "address"
						},
						{
							"indexed": false,
							"internalType": "string",
							"name": "name",
							"type": "string"
						}
					],
					"name": "NewRanker",
					"type": "event"
				},
				{
					"inputs": [
						{
							"internalType": "string",
							"name": "name",
							"type": "string"
						}
					],
					"name": "make",
					"outputs": [
						{
							"internalType": "contract Ranker",
							"name": "r",
							"type": "address"
						}
					],
					"stateMutability": "nonpayable",
					"type": "function"
				}
			],
			"devdoc": {
				"kind": "dev",
				"methods": {},
				"version": 1
			},
			"evm": {
				"assembly": "    /* \"src/AddressRanker.sol\":262:523  contract RankerFactory {... */\n  mstore(0x40, 0x80)\n  callvalue\n  dup1\n  iszero\n  tag_1\n  jumpi\n  revert(0x00, 0x00)\ntag_1:\n  pop\n  dataSize(sub_0)\n  dup1\n  dataOffset(sub_0)\n  0x00\n  codecopy\n  0x00\n  return\nstop\n\nsub_0: assembly {\n        /* \"src/AddressRanker.sol\":262:523  contract RankerFactory {... */\n      mstore(0x40, 0x80)\n      callvalue\n      dup1\n      iszero\n      tag_1\n      jumpi\n      revert(0x00, 0x00)\n    tag_1:\n      pop\n      jumpi(tag_2, lt(calldatasize, 0x04))\n      shr(0xe0, calldataload(0x00))\n      dup1\n      0x4ba7e49b\n      eq\n      tag_3\n      jumpi\n    tag_2:\n      revert(0x00, 0x00)\n        /* \"src/AddressRanker.sol\":367:520  function make(string calldata name) external returns (Ranker r) {... */\n    tag_3:\n      tag_4\n      0x04\n      dup1\n      calldatasize\n      sub\n      dup2\n      add\n      swap1\n      tag_5\n      swap2\n      swap1\n      tag_6\n      jump\t// in\n    tag_5:\n      tag_7\n      jump\t// in\n    tag_4:\n      mload(0x40)\n      tag_8\n      swap2\n      swap1\n      tag_9\n      jump\t// in\n    tag_8:\n      mload(0x40)\n      dup1\n      swap2\n      sub\n      swap1\n      return\n    tag_7:\n        /* \"src/AddressRanker.sol\":421:429  Ranker r */\n      0x00\n        /* \"src/AddressRanker.sol\":457:467  msg.sender */\n      caller\n        /* \"src/AddressRanker.sol\":446:468  new Ranker(msg.sender) */\n      mload(0x40)\n      tag_11\n      swap1\n      tag_12\n      jump\t// in\n    tag_11:\n      tag_13\n      swap2\n      swap1\n      tag_14\n      jump\t// in\n    tag_13:\n      mload(0x40)\n      dup1\n      swap2\n      sub\n      swap1\n      0x00\n      create\n      dup1\n      iszero\n      dup1\n      iszero\n      tag_15\n      jumpi\n      returndatacopy(0x00, 0x00, returndatasize)\n      revert(0x00, returndatasize)\n    tag_15:\n      pop\n        /* \"src/AddressRanker.sol\":442:468  r = new Ranker(msg.sender) */\n      swap1\n      pop\n        /* \"src/AddressRanker.sol\":494:504  msg.sender */\n      caller\n        /* \"src/AddressRanker.sol\":484:512  NewRanker(msg.sender,r,name) */\n      0xffffffffffffffffffffffffffffffffffffffff\n      and\n      0xaa181765ea3f539430119be84b51159f3f76e080c5eed3adcba2bd61733990e7\n        /* \"src/AddressRanker.sol\":505:506  r */\n      dup3\n        /* \"src/AddressRanker.sol\":507:511  name */\n      dup6\n      dup6\n        /* \"src/AddressRanker.sol\":484:512  NewRanker(msg.sender,r,name) */\n      mload(0x40)\n      tag_16\n      swap4\n      swap3\n      swap2\n      swap1\n      tag_17\n      jump\t// in\n    tag_16:\n      mload(0x40)\n      dup1\n      swap2\n      sub\n      swap1\n      log2\n        /* \"src/AddressRanker.sol\":367:520  function make(string calldata name) external returns (Ranker r) {... */\n      swap3\n      swap2\n      pop\n      pop\n      jump\t// out\n    tag_12:\n      dataSize(sub_0)\n      dup1\n      dataOffset(sub_0)\n      dup4\n      codecopy\n      add\n      swap1\n      jump\t// out\n        /* \"#utility.yul\":88:205   */\n    tag_19:\n        /* \"#utility.yul\":197:198   */\n      0x00\n        /* \"#utility.yul\":194:195   */\n      0x00\n        /* \"#utility.yul\":187:199   */\n      revert\n        /* \"#utility.yul\":211:328   */\n    tag_20:\n        /* \"#utility.yul\":320:321   */\n      0x00\n        /* \"#utility.yul\":317:318   */\n      0x00\n        /* \"#utility.yul\":310:322   */\n      revert\n        /* \"#utility.yul\":334:451   */\n    tag_21:\n        /* \"#utility.yul\":443:444   */\n      0x00\n        /* \"#utility.yul\":440:441   */\n      0x00\n        /* \"#utility.yul\":433:445   */\n      revert\n        /* \"#utility.yul\":457:574   */\n    tag_22:\n        /* \"#utility.yul\":566:567   */\n      0x00\n        /* \"#utility.yul\":563:564   */\n      0x00\n        /* \"#utility.yul\":556:568   */\n      revert\n        /* \"#utility.yul\":580:697   */\n    tag_23:\n        /* \"#utility.yul\":689:690   */\n      0x00\n        /* \"#utility.yul\":686:687   */\n      0x00\n        /* \"#utility.yul\":679:691   */\n      revert\n        /* \"#utility.yul\":717:1270   */\n    tag_24:\n        /* \"#utility.yul\":775:783   */\n      0x00\n        /* \"#utility.yul\":785:791   */\n      0x00\n        /* \"#utility.yul\":835:838   */\n      dup4\n        /* \"#utility.yul\":828:832   */\n      0x1f\n        /* \"#utility.yul\":820:826   */\n      dup5\n        /* \"#utility.yul\":816:833   */\n      add\n        /* \"#utility.yul\":812:839   */\n      slt\n        /* \"#utility.yul\":802:924   */\n      tag_45\n      jumpi\n        /* \"#utility.yul\":843:922   */\n      tag_46\n      tag_21\n      jump\t// in\n    tag_46:\n        /* \"#utility.yul\":802:924   */\n    tag_45:\n        /* \"#utility.yul\":956:962   */\n      dup3\n        /* \"#utility.yul\":943:963   */\n      calldataload\n        /* \"#utility.yul\":933:963   */\n      swap1\n      pop\n        /* \"#utility.yul\":986:1004   */\n      0xffffffffffffffff\n        /* \"#utility.yul\":978:984   */\n      dup2\n        /* \"#utility.yul\":975:1005   */\n      gt\n        /* \"#utility.yul\":972:1089   */\n      iszero\n      tag_47\n      jumpi\n        /* \"#utility.yul\":1008:1087   */\n      tag_48\n      tag_22\n      jump\t// in\n    tag_48:\n        /* \"#utility.yul\":972:1089   */\n    tag_47:\n        /* \"#utility.yul\":1122:1126   */\n      0x20\n        /* \"#utility.yul\":1114:1120   */\n      dup4\n        /* \"#utility.yul\":1110:1127   */\n      add\n        /* \"#utility.yul\":1098:1127   */\n      swap2\n      pop\n        /* \"#utility.yul\":1176:1179   */\n      dup4\n        /* \"#utility.yul\":1168:1172   */\n      0x01\n        /* \"#utility.yul\":1160:1166   */\n      dup3\n        /* \"#utility.yul\":1156:1173   */\n      mul\n        /* \"#utility.yul\":1146:1154   */\n      dup4\n        /* \"#utility.yul\":1142:1174   */\n      add\n        /* \"#utility.yul\":1139:1180   */\n      gt\n        /* \"#utility.yul\":1136:1264   */\n      iszero\n      tag_49\n      jumpi\n        /* \"#utility.yul\":1183:1262   */\n      tag_50\n      tag_23\n      jump\t// in\n    tag_50:\n        /* \"#utility.yul\":1136:1264   */\n    tag_49:\n        /* \"#utility.yul\":717:1270   */\n      swap3\n      pop\n      swap3\n      swap1\n      pop\n      jump\t// out\n        /* \"#utility.yul\":1276:1805   */\n    tag_6:\n        /* \"#utility.yul\":1347:1353   */\n      0x00\n        /* \"#utility.yul\":1355:1361   */\n      0x00\n        /* \"#utility.yul\":1404:1406   */\n      0x20\n        /* \"#utility.yul\":1392:1401   */\n      dup4\n        /* \"#utility.yul\":1383:1390   */\n      dup6\n        /* \"#utility.yul\":1379:1402   */\n      sub\n        /* \"#utility.yul\":1375:1407   */\n      slt\n        /* \"#utility.yul\":1372:1491   */\n      iszero\n      tag_52\n      jumpi\n        /* \"#utility.yul\":1410:1489   */\n      tag_53\n      tag_19\n      jump\t// in\n    tag_53:\n        /* \"#utility.yul\":1372:1491   */\n    tag_52:\n        /* \"#utility.yul\":1558:1559   */\n      0x00\n        /* \"#utility.yul\":1547:1556   */\n      dup4\n        /* \"#utility.yul\":1543:1560   */\n      add\n        /* \"#utility.yul\":1530:1561   */\n      calldataload\n        /* \"#utility.yul\":1588:1606   */\n      0xffffffffffffffff\n        /* \"#utility.yul\":1580:1586   */\n      dup2\n        /* \"#utility.yul\":1577:1607   */\n      gt\n        /* \"#utility.yul\":1574:1691   */\n      iszero\n      tag_54\n      jumpi\n        /* \"#utility.yul\":1610:1689   */\n      tag_55\n      tag_20\n      jump\t// in\n    tag_55:\n        /* \"#utility.yul\":1574:1691   */\n    tag_54:\n        /* \"#utility.yul\":1723:1788   */\n      tag_56\n        /* \"#utility.yul\":1780:1787   */\n      dup6\n        /* \"#utility.yul\":1771:1777   */\n      dup3\n        /* \"#utility.yul\":1760:1769   */\n      dup7\n        /* \"#utility.yul\":1756:1778   */\n      add\n        /* \"#utility.yul\":1723:1788   */\n      tag_24\n      jump\t// in\n    tag_56:\n        /* \"#utility.yul\":1705:1788   */\n      swap3\n      pop\n      swap3\n      pop\n        /* \"#utility.yul\":1501:1798   */\n      pop\n        /* \"#utility.yul\":1276:1805   */\n      swap3\n      pop\n      swap3\n      swap1\n      pop\n      jump\t// out\n        /* \"#utility.yul\":1811:1937   */\n    tag_25:\n        /* \"#utility.yul\":1848:1855   */\n      0x00\n        /* \"#utility.yul\":1888:1930   */\n      0xffffffffffffffffffffffffffffffffffffffff\n        /* \"#utility.yul\":1881:1886   */\n      dup3\n        /* \"#utility.yul\":1877:1931   */\n      and\n        /* \"#utility.yul\":1866:1931   */\n      swap1\n      pop\n        /* \"#utility.yul\":1811:1937   */\n      swap2\n      swap1\n      pop\n      jump\t// out\n        /* \"#utility.yul\":1943:2003   */\n    tag_26:\n        /* \"#utility.yul\":1971:1974   */\n      0x00\n        /* \"#utility.yul\":1992:1997   */\n      dup2\n        /* \"#utility.yul\":1985:1997   */\n      swap1\n      pop\n        /* \"#utility.yul\":1943:2003   */\n      swap2\n      swap1\n      pop\n      jump\t// out\n        /* \"#utility.yul\":2009:2151   */\n    tag_27:\n        /* \"#utility.yul\":2059:2068   */\n      0x00\n        /* \"#utility.yul\":2092:2145   */\n      tag_60\n        /* \"#utility.yul\":2110:2144   */\n      tag_61\n        /* \"#utility.yul\":2119:2143   */\n      tag_62\n        /* \"#utility.yul\":2137:2142   */\n      dup5\n        /* \"#utility.yul\":2119:2143   */\n      tag_25\n      jump\t// in\n    tag_62:\n        /* \"#utility.yul\":2110:2144   */\n      tag_26\n      jump\t// in\n    tag_61:\n        /* \"#utility.yul\":2092:2145   */\n      tag_25\n      jump\t// in\n    tag_60:\n        /* \"#utility.yul\":2079:2145   */\n      swap1\n      pop\n        /* \"#utility.yul\":2009:2151   */\n      swap2\n      swap1\n      pop\n      jump\t// out\n        /* \"#utility.yul\":2157:2283   */\n    tag_28:\n        /* \"#utility.yul\":2207:2216   */\n      0x00\n        /* \"#utility.yul\":2240:2277   */\n      tag_64\n        /* \"#utility.yul\":2271:2276   */\n      dup3\n        /* \"#utility.yul\":2240:2277   */\n      tag_27\n      jump\t// in\n    tag_64:\n        /* \"#utility.yul\":2227:2277   */\n      swap1\n      pop\n        /* \"#utility.yul\":2157:2283   */\n      swap2\n      swap1\n      pop\n      jump\t// out\n        /* \"#utility.yul\":2289:2429   */\n    tag_29:\n        /* \"#utility.yul\":2353:2362   */\n      0x00\n        /* \"#utility.yul\":2386:2423   */\n      tag_66\n        /* \"#utility.yul\":2417:2422   */\n      dup3\n        /* \"#utility.yul\":2386:2423   */\n      tag_28\n      jump\t// in\n    tag_66:\n        /* \"#utility.yul\":2373:2423   */\n      swap1\n      pop\n        /* \"#utility.yul\":2289:2429   */\n      swap2\n      swap1\n      pop\n      jump\t// out\n        /* \"#utility.yul\":2435:2594   */\n    tag_30:\n        /* \"#utility.yul\":2536:2587   */\n      tag_68\n        /* \"#utility.yul\":2581:2586   */\n      dup2\n        /* \"#utility.yul\":2536:2587   */\n      tag_29\n      jump\t// in\n    tag_68:\n        /* \"#utility.yul\":2531:2534   */\n      dup3\n        /* \"#utility.yul\":2524:2588   */\n      mstore\n        /* \"#utility.yul\":2435:2594   */\n      pop\n      pop\n      jump\t// out\n        /* \"#utility.yul\":2600:2850   */\n    tag_9:\n        /* \"#utility.yul\":2707:2711   */\n      0x00\n        /* \"#utility.yul\":2745:2747   */\n      0x20\n        /* \"#utility.yul\":2734:2743   */\n      dup3\n        /* \"#utility.yul\":2730:2748   */\n      add\n        /* \"#utility.yul\":2722:2748   */\n      swap1\n      pop\n        /* \"#utility.yul\":2758:2843   */\n      tag_70\n        /* \"#utility.yul\":2840:2841   */\n      0x00\n        /* \"#utility.yul\":2829:2838   */\n      dup4\n        /* \"#utility.yul\":2825:2842   */\n      add\n        /* \"#utility.yul\":2816:2822   */\n      dup5\n        /* \"#utility.yul\":2758:2843   */\n      tag_30\n      jump\t// in\n    tag_70:\n        /* \"#utility.yul\":2600:2850   */\n      swap3\n      swap2\n      pop\n      pop\n      jump\t// out\n        /* \"#utility.yul\":2856:2952   */\n    tag_31:\n        /* \"#utility.yul\":2893:2900   */\n      0x00\n        /* \"#utility.yul\":2922:2946   */\n      tag_72\n        /* \"#utility.yul\":2940:2945   */\n      dup3\n        /* \"#utility.yul\":2922:2946   */\n      tag_25\n      jump\t// in\n    tag_72:\n        /* \"#utility.yul\":2911:2946   */\n      swap1\n      pop\n        /* \"#utility.yul\":2856:2952   */\n      swap2\n      swap1\n      pop\n      jump\t// out\n        /* \"#utility.yul\":2958:3076   */\n    tag_32:\n        /* \"#utility.yul\":3045:3069   */\n      tag_74\n        /* \"#utility.yul\":3063:3068   */\n      dup2\n        /* \"#utility.yul\":3045:3069   */\n      tag_31\n      jump\t// in\n    tag_74:\n        /* \"#utility.yul\":3040:3043   */\n      dup3\n        /* \"#utility.yul\":3033:3070   */\n      mstore\n        /* \"#utility.yul\":2958:3076   */\n      pop\n      pop\n      jump\t// out\n        /* \"#utility.yul\":3082:3304   */\n    tag_14:\n        /* \"#utility.yul\":3175:3179   */\n      0x00\n        /* \"#utility.yul\":3213:3215   */\n      0x20\n        /* \"#utility.yul\":3202:3211   */\n      dup3\n        /* \"#utility.yul\":3198:3216   */\n      add\n        /* \"#utility.yul\":3190:3216   */\n      swap1\n      pop\n        /* \"#utility.yul\":3226:3297   */\n      tag_76\n        /* \"#utility.yul\":3294:3295   */\n      0x00\n        /* \"#utility.yul\":3283:3292   */\n      dup4\n        /* \"#utility.yul\":3279:3296   */\n      add\n        /* \"#utility.yul\":3270:3276   */\n      dup5\n        /* \"#utility.yul\":3226:3297   */\n      tag_32\n      jump\t// in\n    tag_76:\n        /* \"#utility.yul\":3082:3304   */\n      swap3\n      swap2\n      pop\n      pop\n      jump\t// out\n        /* \"#utility.yul\":3310:3479   */\n    tag_33:\n        /* \"#utility.yul\":3394:3405   */\n      0x00\n        /* \"#utility.yul\":3428:3434   */\n      dup3\n        /* \"#utility.yul\":3423:3426   */\n      dup3\n        /* \"#utility.yul\":3416:3435   */\n      mstore\n        /* \"#utility.yul\":3468:3472   */\n      0x20\n        /* \"#utility.yul\":3463:3466   */\n      dup3\n        /* \"#utility.yul\":3459:3473   */\n      add\n        /* \"#utility.yul\":3444:3473   */\n      swap1\n      pop\n        /* \"#utility.yul\":3310:3479   */\n      swap3\n      swap2\n      pop\n      pop\n      jump\t// out\n        /* \"#utility.yul\":3485:3633   */\n    tag_34:\n        /* \"#utility.yul\":3583:3589   */\n      dup3\n        /* \"#utility.yul\":3578:3581   */\n      dup2\n        /* \"#utility.yul\":3573:3576   */\n      dup4\n        /* \"#utility.yul\":3560:3590   */\n      calldatacopy\n        /* \"#utility.yul\":3624:3625   */\n      0x00\n        /* \"#utility.yul\":3615:3621   */\n      dup4\n        /* \"#utility.yul\":3610:3613   */\n      dup4\n        /* \"#utility.yul\":3606:3622   */\n      add\n        /* \"#utility.yul\":3599:3626   */\n      mstore\n        /* \"#utility.yul\":3485:3633   */\n      pop\n      pop\n      pop\n      jump\t// out\n        /* \"#utility.yul\":3639:3741   */\n    tag_35:\n        /* \"#utility.yul\":3680:3686   */\n      0x00\n        /* \"#utility.yul\":3731:3733   */\n      0x1f\n        /* \"#utility.yul\":3727:3734   */\n      not\n        /* \"#utility.yul\":3722:3724   */\n      0x1f\n        /* \"#utility.yul\":3715:3720   */\n      dup4\n        /* \"#utility.yul\":3711:3725   */\n      add\n        /* \"#utility.yul\":3707:3735   */\n      and\n        /* \"#utility.yul\":3697:3735   */\n      swap1\n      pop\n        /* \"#utility.yul\":3639:3741   */\n      swap2\n      swap1\n      pop\n      jump\t// out\n        /* \"#utility.yul\":3771:4088   */\n    tag_36:\n        /* \"#utility.yul\":3869:3872   */\n      0x00\n        /* \"#utility.yul\":3890:3961   */\n      tag_81\n        /* \"#utility.yul\":3954:3960   */\n      dup4\n        /* \"#utility.yul\":3949:3952   */\n      dup6\n        /* \"#utility.yul\":3890:3961   */\n      tag_33\n      jump\t// in\n    tag_81:\n        /* \"#utility.yul\":3883:3961   */\n      swap4\n      pop\n        /* \"#utility.yul\":3971:4027   */\n      tag_82\n        /* \"#utility.yul\":4020:4026   */\n      dup4\n        /* \"#utility.yul\":4015:4018   */\n      dup6\n        /* \"#utility.yul\":4008:4013   */\n      dup5\n        /* \"#utility.yul\":3971:4027   */\n      tag_34\n      jump\t// in\n    tag_82:\n        /* \"#utility.yul\":4052:4081   */\n      tag_83\n        /* \"#utility.yul\":4074:4080   */\n      dup4\n        /* \"#utility.yul\":4052:4081   */\n      tag_35\n      jump\t// in\n    tag_83:\n        /* \"#utility.yul\":4047:4050   */\n      dup5\n        /* \"#utility.yul\":4043:4082   */\n      add\n        /* \"#utility.yul\":4036:4082   */\n      swap1\n      pop\n        /* \"#utility.yul\":3771:4088   */\n      swap4\n      swap3\n      pop\n      pop\n      pop\n      jump\t// out\n        /* \"#utility.yul\":4094:4565   */\n    tag_17:\n        /* \"#utility.yul\":4259:4263   */\n      0x00\n        /* \"#utility.yul\":4297:4299   */\n      0x40\n        /* \"#utility.yul\":4286:4295   */\n      dup3\n        /* \"#utility.yul\":4282:4300   */\n      add\n        /* \"#utility.yul\":4274:4300   */\n      swap1\n      pop\n        /* \"#utility.yul\":4310:4395   */\n      tag_85\n        /* \"#utility.yul\":4392:4393   */\n      0x00\n        /* \"#utility.yul\":4381:4390   */\n      dup4\n        /* \"#utility.yul\":4377:4394   */\n      add\n        /* \"#utility.yul\":4368:4374   */\n      dup7\n        /* \"#utility.yul\":4310:4395   */\n      tag_30\n      jump\t// in\n    tag_85:\n        /* \"#utility.yul\":4442:4451   */\n      dup2\n        /* \"#utility.yul\":4436:4440   */\n      dup2\n        /* \"#utility.yul\":4432:4452   */\n      sub\n        /* \"#utility.yul\":4427:4429   */\n      0x20\n        /* \"#utility.yul\":4416:4425   */\n      dup4\n        /* \"#utility.yul\":4412:4430   */\n      add\n        /* \"#utility.yul\":4405:4453   */\n      mstore\n        /* \"#utility.yul\":4470:4558   */\n      tag_86\n        /* \"#utility.yul\":4553:4557   */\n      dup2\n        /* \"#utility.yul\":4544:4550   */\n      dup5\n        /* \"#utility.yul\":4536:4542   */\n      dup7\n        /* \"#utility.yul\":4470:4558   */\n      tag_36\n      jump\t// in\n    tag_86:\n        /* \"#utility.yul\":4462:4558   */\n      swap1\n      pop\n        /* \"#utility.yul\":4094:4565   */\n      swap5\n      swap4\n      pop\n      pop\n      pop\n      pop\n      jump\t// out\n    stop\n\n    sub_0: assembly {\n            /* \"src/AddressRanker.sol\":527:2545  contract Ranker is Ownable {... */\n          mstore(0x40, 0x80)\n            /* \"src/AddressRanker.sol\":576:591  block.timestamp */\n          timestamp\n            /* \"src/AddressRanker.sol\":561:591  uint created = block.timestamp */\n          0x01\n          sstore\n            /* \"src/AddressRanker.sol\":830:874  constructor(address owner) Ownable(owner) {} */\n          callvalue\n          dup1\n          iszero\n          tag_1\n          jumpi\n          revert(0x00, 0x00)\n        tag_1:\n          pop\n          mload(0x40)\n          sub(codesize, bytecodeSize)\n          dup1\n          bytecodeSize\n          dup4\n          codecopy\n          dup2\n          dup2\n          add\n          0x40\n          mstore\n          dup2\n          add\n          swap1\n          tag_2\n          swap2\n          swap1\n          tag_3\n          jump\t// in\n        tag_2:\n            /* \"src/AddressRanker.sol\":865:870  owner */\n          dup1\n            /* \"@openzeppelin/contracts/access/Ownable.sol\":1297:1298  0 */\n          0x00\n            /* \"@openzeppelin/contracts/access/Ownable.sol\":1273:1299  initialOwner == address(0) */\n          0xffffffffffffffffffffffffffffffffffffffff\n          and\n            /* \"@openzeppelin/contracts/access/Ownable.sol\":1273:1285  initialOwner */\n          dup2\n            /* \"@openzeppelin/contracts/access/Ownable.sol\":1273:1299  initialOwner == address(0) */\n          0xffffffffffffffffffffffffffffffffffffffff\n          and\n          sub\n            /* \"@openzeppelin/contracts/access/Ownable.sol\":1269:1364  if (initialOwner == address(0)) {... */\n          tag_7\n          jumpi\n            /* \"@openzeppelin/contracts/access/Ownable.sol\":1350:1351  0 */\n          0x00\n            /* \"@openzeppelin/contracts/access/Ownable.sol\":1322:1353  OwnableInvalidOwner(address(0)) */\n          mload(0x40)\n          0x1e4fbdf700000000000000000000000000000000000000000000000000000000\n          dup2\n          mstore\n          0x04\n          add\n          tag_8\n          swap2\n          swap1\n          tag_9\n          jump\t// in\n        tag_8:\n          mload(0x40)\n          dup1\n          swap2\n          sub\n          swap1\n          revert\n            /* \"@openzeppelin/contracts/access/Ownable.sol\":1269:1364  if (initialOwner == address(0)) {... */\n        tag_7:\n            /* \"@openzeppelin/contracts/access/Ownable.sol\":1373:1405  _transferOwnership(initialOwner) */\n          tag_10\n            /* \"@openzeppelin/contracts/access/Ownable.sol\":1392:1404  initialOwner */\n          dup2\n            /* \"@openzeppelin/contracts/access/Ownable.sol\":1373:1391  _transferOwnership */\n          shl(0x20, tag_11)\n            /* \"@openzeppelin/contracts/access/Ownable.sol\":1373:1405  _transferOwnership(initialOwner) */\n          0x20\n          shr\n          jump\t// in\n        tag_10:\n            /* \"@openzeppelin/contracts/access/Ownable.sol\":1225:1412  constructor(address initialOwner) {... */\n          pop\n            /* \"src/AddressRanker.sol\":830:874  constructor(address owner) Ownable(owner) {} */\n          pop\n            /* \"src/AddressRanker.sol\":527:2545  contract Ranker is Ownable {... */\n          jump(tag_13)\n            /* \"@openzeppelin/contracts/access/Ownable.sol\":2912:3099  function _transferOwnership(address newOwner) internal virtual {... */\n        tag_11:\n            /* \"@openzeppelin/contracts/access/Ownable.sol\":2985:3001  address oldOwner */\n          0x00\n            /* \"@openzeppelin/contracts/access/Ownable.sol\":3004:3010  _owner */\n          0x00\n          0x00\n          swap1\n          sload\n          swap1\n          0x0100\n          exp\n          swap1\n          div\n          0xffffffffffffffffffffffffffffffffffffffff\n          and\n            /* \"@openzeppelin/contracts/access/Ownable.sol\":2985:3010  address oldOwner = _owner */\n          swap1\n          pop\n            /* \"@openzeppelin/contracts/access/Ownable.sol\":3029:3037  newOwner */\n          dup2\n            /* \"@openzeppelin/contracts/access/Ownable.sol\":3020:3026  _owner */\n          0x00\n          0x00\n            /* \"@openzeppelin/contracts/access/Ownable.sol\":3020:3037  _owner = newOwner */\n          0x0100\n          exp\n          dup2\n          sload\n          dup2\n          0xffffffffffffffffffffffffffffffffffffffff\n          mul\n          not\n          and\n          swap1\n          dup4\n          0xffffffffffffffffffffffffffffffffffffffff\n          and\n          mul\n          or\n          swap1\n          sstore\n          pop\n            /* \"@openzeppelin/contracts/access/Ownable.sol\":3083:3091  newOwner */\n          dup2\n            /* \"@openzeppelin/contracts/access/Ownable.sol\":3052:3092  OwnershipTransferred(oldOwner, newOwner) */\n          0xffffffffffffffffffffffffffffffffffffffff\n          and\n            /* \"@openzeppelin/contracts/access/Ownable.sol\":3073:3081  oldOwner */\n          dup2\n            /* \"@openzeppelin/contracts/access/Ownable.sol\":3052:3092  OwnershipTransferred(oldOwner, newOwner) */\n          0xffffffffffffffffffffffffffffffffffffffff\n          and\n          0x8be0079c531659141344cd1fd0a4f28419497f9722a3daafe3b4186f6b6457e0\n          mload(0x40)\n          mload(0x40)\n          dup1\n          swap2\n          sub\n          swap1\n          log3\n            /* \"@openzeppelin/contracts/access/Ownable.sol\":2975:3099  {... */\n          pop\n            /* \"@openzeppelin/contracts/access/Ownable.sol\":2912:3099  function _transferOwnership(address newOwner) internal virtual {... */\n          pop\n          jump\t// out\n            /* \"#utility.yul\":88:205   */\n        tag_16:\n            /* \"#utility.yul\":197:198   */\n          0x00\n            /* \"#utility.yul\":194:195   */\n          0x00\n            /* \"#utility.yul\":187:199   */\n          revert\n            /* \"#utility.yul\":334:460   */\n        tag_18:\n            /* \"#utility.yul\":371:378   */\n          0x00\n            /* \"#utility.yul\":411:453   */\n          0xffffffffffffffffffffffffffffffffffffffff\n            /* \"#utility.yul\":404:409   */\n          dup3\n            /* \"#utility.yul\":400:454   */\n          and\n            /* \"#utility.yul\":389:454   */\n          swap1\n          pop\n            /* \"#utility.yul\":334:460   */\n          swap2\n          swap1\n          pop\n          jump\t// out\n            /* \"#utility.yul\":466:562   */\n        tag_19:\n            /* \"#utility.yul\":503:510   */\n          0x00\n            /* \"#utility.yul\":532:556   */\n          tag_29\n            /* \"#utility.yul\":550:555   */\n          dup3\n            /* \"#utility.yul\":532:556   */\n          tag_18\n          jump\t// in\n        tag_29:\n            /* \"#utility.yul\":521:556   */\n          swap1\n          pop\n            /* \"#utility.yul\":466:562   */\n          swap2\n          swap1\n          pop\n          jump\t// out\n            /* \"#utility.yul\":568:690   */\n        tag_20:\n            /* \"#utility.yul\":641:665   */\n          tag_31\n            /* \"#utility.yul\":659:664   */\n          dup2\n            /* \"#utility.yul\":641:665   */\n          tag_19\n          jump\t// in\n        tag_31:\n            /* \"#utility.yul\":634:639   */\n          dup2\n            /* \"#utility.yul\":631:666   */\n          eq\n            /* \"#utility.yul\":621:684   */\n          tag_32\n          jumpi\n            /* \"#utility.yul\":680:681   */\n          0x00\n            /* \"#utility.yul\":677:678   */\n          0x00\n            /* \"#utility.yul\":670:682   */\n          revert\n            /* \"#utility.yul\":621:684   */\n        tag_32:\n            /* \"#utility.yul\":568:690   */\n          pop\n          jump\t// out\n            /* \"#utility.yul\":696:839   */\n        tag_21:\n            /* \"#utility.yul\":753:758   */\n          0x00\n            /* \"#utility.yul\":784:790   */\n          dup2\n            /* \"#utility.yul\":778:791   */\n          mload\n            /* \"#utility.yul\":769:791   */\n          swap1\n          pop\n            /* \"#utility.yul\":800:833   */\n          tag_34\n            /* \"#utility.yul\":827:832   */\n          dup2\n            /* \"#utility.yul\":800:833   */\n          tag_20\n          jump\t// in\n        tag_34:\n            /* \"#utility.yul\":696:839   */\n          swap3\n          swap2\n          pop\n          pop\n          jump\t// out\n            /* \"#utility.yul\":845:1196   */\n        tag_3:\n            /* \"#utility.yul\":915:921   */\n          0x00\n            /* \"#utility.yul\":964:966   */\n          0x20\n            /* \"#utility.yul\":952:961   */\n          dup3\n            /* \"#utility.yul\":943:950   */\n          dup5\n            /* \"#utility.yul\":939:962   */\n          sub\n            /* \"#utility.yul\":935:967   */\n          slt\n            /* \"#utility.yul\":932:1051   */\n          iszero\n          tag_36\n          jumpi\n            /* \"#utility.yul\":970:1049   */\n          tag_37\n          tag_16\n          jump\t// in\n        tag_37:\n            /* \"#utility.yul\":932:1051   */\n        tag_36:\n            /* \"#utility.yul\":1090:1091   */\n          0x00\n            /* \"#utility.yul\":1115:1179   */\n          tag_38\n            /* \"#utility.yul\":1171:1178   */\n          dup5\n            /* \"#utility.yul\":1162:1168   */\n          dup3\n            /* \"#utility.yul\":1151:1160   */\n          dup6\n            /* \"#utility.yul\":1147:1169   */\n          add\n            /* \"#utility.yul\":1115:1179   */\n          tag_21\n          jump\t// in\n        tag_38:\n            /* \"#utility.yul\":1105:1179   */\n          swap2\n          pop\n            /* \"#utility.yul\":1061:1189   */\n          pop\n            /* \"#utility.yul\":845:1196   */\n          swap3\n          swap2\n          pop\n          pop\n          jump\t// out\n            /* \"#utility.yul\":1202:1320   */\n        tag_22:\n            /* \"#utility.yul\":1289:1313   */\n          tag_40\n            /* \"#utility.yul\":1307:1312   */\n          dup2\n            /* \"#utility.yul\":1289:1313   */\n          tag_19\n          jump\t// in\n        tag_40:\n            /* \"#utility.yul\":1284:1287   */\n          dup3\n            /* \"#utility.yul\":1277:1314   */\n          mstore\n            /* \"#utility.yul\":1202:1320   */\n          pop\n          pop\n          jump\t// out\n            /* \"#utility.yul\":1326:1548   */\n        tag_9:\n            /* \"#utility.yul\":1419:1423   */\n          0x00\n            /* \"#utility.yul\":1457:1459   */\n          0x20\n            /* \"#utility.yul\":1446:1455   */\n          dup3\n            /* \"#utility.yul\":1442:1460   */\n          add\n            /* \"#utility.yul\":1434:1460   */\n          swap1\n          pop\n            /* \"#utility.yul\":1470:1541   */\n          tag_42\n            /* \"#utility.yul\":1538:1539   */\n          0x00\n            /* \"#utility.yul\":1527:1536   */\n          dup4\n            /* \"#utility.yul\":1523:1540   */\n          add\n            /* \"#utility.yul\":1514:1520   */\n          dup5\n            /* \"#utility.yul\":1470:1541   */\n          tag_22\n          jump\t// in\n        tag_42:\n            /* \"#utility.yul\":1326:1548   */\n          swap3\n          swap2\n          pop\n          pop\n          jump\t// out\n            /* \"src/AddressRanker.sol\":527:2545  contract Ranker is Ownable {... */\n        tag_13:\n          dataSize(sub_0)\n          dup1\n          dataOffset(sub_0)\n          0x00\n          codecopy\n          0x00\n          return\n        stop\n\n        sub_0: assembly {\n                /* \"src/AddressRanker.sol\":527:2545  contract Ranker is Ownable {... */\n              mstore(0x40, 0x80)\n              jumpi(tag_1, lt(calldatasize, 0x04))\n              shr(0xe0, calldataload(0x00))\n              dup1\n              0x715018a6\n              gt\n              tag_15\n              jumpi\n              dup1\n              0x99f9863e\n              gt\n              tag_16\n              jumpi\n              dup1\n              0x99f9863e\n              eq\n              tag_11\n              jumpi\n              dup1\n              0xa2743296\n              eq\n              tag_12\n              jumpi\n              dup1\n              0xc80fbe4e\n              eq\n              tag_13\n              jumpi\n              dup1\n              0xf2fde38b\n              eq\n              tag_14\n              jumpi\n              jump(tag_1)\n            tag_16:\n              dup1\n              0x715018a6\n              eq\n              tag_8\n              jumpi\n              dup1\n              0x767ed653\n              eq\n              tag_9\n              jumpi\n              dup1\n              0x8da5cb5b\n              eq\n              tag_10\n              jumpi\n              jump(tag_1)\n            tag_15:\n              dup1\n              0x08e89e46\n              eq\n              tag_2\n              jumpi\n              dup1\n              0x35508e56\n              eq\n              tag_3\n              jumpi\n              dup1\n              0x36eef969\n              eq\n              tag_4\n              jumpi\n              dup1\n              0x4e71d92d\n              eq\n              tag_5\n              jumpi\n              dup1\n              0x5dcfb4fa\n              eq\n              tag_6\n              jumpi\n              dup1\n              0x670815a9\n              eq\n              tag_7\n              jumpi\n            tag_1:\n              revert(0x00, 0x00)\n                /* \"src/AddressRanker.sol\":1345:1462  function actionPrice(uint chainId) public view returns (uint) {... */\n            tag_2:\n              callvalue\n              dup1\n              iszero\n              tag_17\n              jumpi\n              revert(0x00, 0x00)\n            tag_17:\n              pop\n              tag_18\n              0x04\n              dup1\n              calldatasize\n              sub\n              dup2\n              add\n              swap1\n              tag_19\n              swap2\n              swap1\n              tag_20\n              jump\t// in\n            tag_19:\n              tag_21\n              jump\t// in\n            tag_18:\n              mload(0x40)\n              tag_22\n              swap2\n              swap1\n              tag_23\n              jump\t// in\n            tag_22:\n              mload(0x40)\n              dup1\n              swap2\n              sub\n              swap1\n              return\n                /* \"src/AddressRanker.sol\":714:763  mapping(uint chainId => uint) public actionCounts */\n            tag_3:\n              callvalue\n              dup1\n              iszero\n              tag_24\n              jumpi\n              revert(0x00, 0x00)\n            tag_24:\n              pop\n              tag_25\n              0x04\n              dup1\n              calldatasize\n              sub\n              dup2\n              add\n              swap1\n              tag_26\n              swap2\n              swap1\n              tag_20\n              jump\t// in\n            tag_26:\n              tag_27\n              jump\t// in\n            tag_25:\n              mload(0x40)\n              tag_28\n              swap2\n              swap1\n              tag_23\n              jump\t// in\n            tag_28:\n              mload(0x40)\n              dup1\n              swap2\n              sub\n              swap1\n              return\n                /* \"src/AddressRanker.sol\":1847:2192  function promote(uint chainId, uint index) payable public {... */\n            tag_4:\n              tag_29\n              0x04\n              dup1\n              calldatasize\n              sub\n              dup2\n              add\n              swap1\n              tag_30\n              swap2\n              swap1\n              tag_31\n              jump\t// in\n            tag_30:\n              tag_32\n              jump\t// in\n            tag_29:\n              stop\n                /* \"src/AddressRanker.sol\":882:1037  function claim() public onlyOwner returns (bool success, bytes memory returnData){... */\n            tag_5:\n              callvalue\n              dup1\n              iszero\n              tag_33\n              jumpi\n              revert(0x00, 0x00)\n            tag_33:\n              pop\n              tag_34\n              tag_35\n              jump\t// in\n            tag_34:\n              mload(0x40)\n              tag_36\n              swap3\n              swap2\n              swap1\n              tag_37\n              jump\t// in\n            tag_36:\n              mload(0x40)\n              dup1\n              swap2\n              sub\n              swap1\n              return\n                /* \"src/AddressRanker.sol\":1664:1839  function pop(uint chainId) payable public {... */\n            tag_6:\n              tag_38\n              0x04\n              dup1\n              calldatasize\n              sub\n              dup2\n              add\n              swap1\n              tag_39\n              swap2\n              swap1\n              tag_20\n              jump\t// in\n            tag_39:\n              tag_40\n              jump\t// in\n            tag_38:\n              stop\n                /* \"src/AddressRanker.sol\":770:821  mapping(uint chainId => address[]) public addresses */\n            tag_7:\n              callvalue\n              dup1\n              iszero\n              tag_41\n              jumpi\n              revert(0x00, 0x00)\n            tag_41:\n              pop\n              tag_42\n              0x04\n              dup1\n              calldatasize\n              sub\n              dup2\n              add\n              swap1\n              tag_43\n              swap2\n              swap1\n              tag_31\n              jump\t// in\n            tag_43:\n              tag_44\n              jump\t// in\n            tag_42:\n              mload(0x40)\n              tag_45\n              swap2\n              swap1\n              tag_46\n              jump\t// in\n            tag_45:\n              mload(0x40)\n              dup1\n              swap2\n              sub\n              swap1\n              return\n                /* \"@openzeppelin/contracts/access/Ownable.sol\":2293:2394  function renounceOwnership() public virtual onlyOwner {... */\n            tag_8:\n              callvalue\n              dup1\n              iszero\n              tag_47\n              jumpi\n              revert(0x00, 0x00)\n            tag_47:\n              pop\n              tag_48\n              tag_49\n              jump\t// in\n            tag_48:\n              stop\n                /* \"src/AddressRanker.sol\":1184:1337  function maxActions(uint chainId) public view returns (uint) {... */\n            tag_9:\n              callvalue\n              dup1\n              iszero\n              tag_50\n              jumpi\n              revert(0x00, 0x00)\n            tag_50:\n              pop\n              tag_51\n              0x04\n              dup1\n              calldatasize\n              sub\n              dup2\n              add\n              swap1\n              tag_52\n              swap2\n              swap1\n              tag_20\n              jump\t// in\n            tag_52:\n              tag_53\n              jump\t// in\n            tag_51:\n              mload(0x40)\n              tag_54\n              swap2\n              swap1\n              tag_23\n              jump\t// in\n            tag_54:\n              mload(0x40)\n              dup1\n              swap2\n              sub\n              swap1\n              return\n                /* \"@openzeppelin/contracts/access/Ownable.sol\":1638:1723  function owner() public view virtual returns (address) {... */\n            tag_10:\n              callvalue\n              dup1\n              iszero\n              tag_55\n              jumpi\n              revert(0x00, 0x00)\n            tag_55:\n              pop\n              tag_56\n              tag_57\n              jump\t// in\n            tag_56:\n              mload(0x40)\n              tag_58\n              swap2\n              swap1\n              tag_46\n              jump\t// in\n            tag_58:\n              mload(0x40)\n              dup1\n              swap2\n              sub\n              swap1\n              return\n                /* \"src/AddressRanker.sol\":1051:1172  function chainAddresses(uint chainId) public view returns (address[] memory) {... */\n            tag_11:\n              callvalue\n              dup1\n              iszero\n              tag_59\n              jumpi\n              revert(0x00, 0x00)\n            tag_59:\n              pop\n              tag_60\n              0x04\n              dup1\n              calldatasize\n              sub\n              dup2\n              add\n              swap1\n              tag_61\n              swap2\n              swap1\n              tag_20\n              jump\t// in\n            tag_61:\n              tag_62\n              jump\t// in\n            tag_60:\n              mload(0x40)\n              tag_63\n              swap2\n              swap1\n              tag_64\n              jump\t// in\n            tag_63:\n              mload(0x40)\n              dup1\n              swap2\n              sub\n              swap1\n              return\n                /* \"src/AddressRanker.sol\":2200:2542  function demote(uint chainId, uint index) payable public {... */\n            tag_12:\n              tag_65\n              0x04\n              dup1\n              calldatasize\n              sub\n              dup2\n              add\n              swap1\n              tag_66\n              swap2\n              swap1\n              tag_31\n              jump\t// in\n            tag_66:\n              tag_67\n              jump\t// in\n            tag_65:\n              stop\n                /* \"src/AddressRanker.sol\":1470:1656  function push(uint chainId, address a) payable public {... */\n            tag_13:\n              tag_68\n              0x04\n              dup1\n              calldatasize\n              sub\n              dup2\n              add\n              swap1\n              tag_69\n              swap2\n              swap1\n              tag_70\n              jump\t// in\n            tag_69:\n              tag_71\n              jump\t// in\n            tag_68:\n              stop\n                /* \"@openzeppelin/contracts/access/Ownable.sol\":2543:2758  function transferOwnership(address newOwner) public virtual onlyOwner {... */\n            tag_14:\n              callvalue\n              dup1\n              iszero\n              tag_72\n              jumpi\n              revert(0x00, 0x00)\n            tag_72:\n              pop\n              tag_73\n              0x04\n              dup1\n              calldatasize\n              sub\n              dup2\n              add\n              swap1\n              tag_74\n              swap2\n              swap1\n              tag_75\n              jump\t// in\n            tag_74:\n              tag_76\n              jump\t// in\n            tag_73:\n              stop\n                /* \"src/AddressRanker.sol\":1345:1462  function actionPrice(uint chainId) public view returns (uint) {... */\n            tag_21:\n                /* \"src/AddressRanker.sol\":1401:1405  uint */\n              0x00\n                /* \"src/AddressRanker.sol\":1435:1454  maxActions(chainId) */\n              tag_78\n                /* \"src/AddressRanker.sol\":1446:1453  chainId */\n              dup3\n                /* \"src/AddressRanker.sol\":1435:1445  maxActions */\n              tag_53\n                /* \"src/AddressRanker.sol\":1435:1454  maxActions(chainId) */\n              jump\t// in\n            tag_78:\n                /* \"src/AddressRanker.sol\":1425:1432  1 ether */\n              0x0de0b6b3a7640000\n                /* \"src/AddressRanker.sol\":1425:1454  1 ether / maxActions(chainId) */\n              tag_79\n              swap2\n              swap1\n              tag_80\n              jump\t// in\n            tag_79:\n                /* \"src/AddressRanker.sol\":1418:1454  return 1 ether / maxActions(chainId) */\n              swap1\n              pop\n                /* \"src/AddressRanker.sol\":1345:1462  function actionPrice(uint chainId) public view returns (uint) {... */\n              swap2\n              swap1\n              pop\n              jump\t// out\n                /* \"src/AddressRanker.sol\":714:763  mapping(uint chainId => uint) public actionCounts */\n            tag_27:\n              mstore(0x20, 0x02)\n              dup1\n              0x00\n              mstore\n              keccak256(0x00, 0x40)\n              0x00\n              swap2\n              pop\n              swap1\n              pop\n              sload\n              dup2\n              jump\t// out\n                /* \"src/AddressRanker.sol\":1847:2192  function promote(uint chainId, uint index) payable public {... */\n            tag_32:\n                /* \"src/AddressRanker.sol\":1937:1957  actionPrice(chainId) */\n              tag_82\n                /* \"src/AddressRanker.sol\":1949:1956  chainId */\n              dup3\n                /* \"src/AddressRanker.sol\":1937:1948  actionPrice */\n              tag_21\n                /* \"src/AddressRanker.sol\":1937:1957  actionPrice(chainId) */\n              jump\t// in\n            tag_82:\n                /* \"src/AddressRanker.sol\":1924:1933  msg.value */\n              callvalue\n                /* \"src/AddressRanker.sol\":1924:1957  msg.value >= actionPrice(chainId) */\n              lt\n              iszero\n                /* \"src/AddressRanker.sol\":1916:1958  require(msg.value >= actionPrice(chainId)) */\n              tag_83\n              jumpi\n              revert(0x00, 0x00)\n            tag_83:\n                /* \"src/AddressRanker.sol\":1969:1994  address higherRankAddress */\n              0x00\n                /* \"src/AddressRanker.sol\":1997:2006  addresses */\n              0x03\n                /* \"src/AddressRanker.sol\":1997:2015  addresses[chainId] */\n              0x00\n                /* \"src/AddressRanker.sol\":2007:2014  chainId */\n              dup5\n                /* \"src/AddressRanker.sol\":1997:2015  addresses[chainId] */\n              dup2\n              mstore\n              0x20\n              add\n              swap1\n              dup2\n              mstore\n              0x20\n              add\n              0x00\n              keccak256\n                /* \"src/AddressRanker.sol\":2024:2025  1 */\n              0x01\n                /* \"src/AddressRanker.sol\":2016:2021  index */\n              dup4\n                /* \"src/AddressRanker.sol\":2016:2025  index - 1 */\n              tag_84\n              swap2\n              swap1\n              tag_85\n              jump\t// in\n            tag_84:\n                /* \"src/AddressRanker.sol\":1997:2026  addresses[chainId][index - 1] */\n              dup2\n              sload\n              dup2\n              lt\n              tag_86\n              jumpi\n              tag_87\n              tag_88\n              jump\t// in\n            tag_87:\n            tag_86:\n              swap1\n              0x00\n              mstore\n              keccak256(0x00, 0x20)\n              add\n              0x00\n              swap1\n              sload\n              swap1\n              0x0100\n              exp\n              swap1\n              div\n              0xffffffffffffffffffffffffffffffffffffffff\n              and\n                /* \"src/AddressRanker.sol\":1969:2026  address higherRankAddress = addresses[chainId][index - 1] */\n              swap1\n              pop\n                /* \"src/AddressRanker.sol\":2069:2078  addresses */\n              0x03\n                /* \"src/AddressRanker.sol\":2069:2087  addresses[chainId] */\n              0x00\n                /* \"src/AddressRanker.sol\":2079:2086  chainId */\n              dup5\n                /* \"src/AddressRanker.sol\":2069:2087  addresses[chainId] */\n              dup2\n              mstore\n              0x20\n              add\n              swap1\n              dup2\n              mstore\n              0x20\n              add\n              0x00\n              keccak256\n                /* \"src/AddressRanker.sol\":2088:2093  index */\n              dup3\n                /* \"src/AddressRanker.sol\":2069:2094  addresses[chainId][index] */\n              dup2\n              sload\n              dup2\n              lt\n              tag_90\n              jumpi\n              tag_91\n              tag_88\n              jump\t// in\n            tag_91:\n            tag_90:\n              swap1\n              0x00\n              mstore\n              keccak256(0x00, 0x20)\n              add\n              0x00\n              swap1\n              sload\n              swap1\n              0x0100\n              exp\n              swap1\n              div\n              0xffffffffffffffffffffffffffffffffffffffff\n              and\n                /* \"src/AddressRanker.sol\":2037:2046  addresses */\n              0x03\n                /* \"src/AddressRanker.sol\":2037:2055  addresses[chainId] */\n              0x00\n                /* \"src/AddressRanker.sol\":2047:2054  chainId */\n              dup6\n                /* \"src/AddressRanker.sol\":2037:2055  addresses[chainId] */\n              dup2\n              mstore\n              0x20\n              add\n              swap1\n              dup2\n              mstore\n              0x20\n              add\n              0x00\n              keccak256\n                /* \"src/AddressRanker.sol\":2064:2065  1 */\n              0x01\n                /* \"src/AddressRanker.sol\":2056:2061  index */\n              dup5\n                /* \"src/AddressRanker.sol\":2056:2065  index - 1 */\n              tag_93\n              swap2\n              swap1\n              tag_85\n              jump\t// in\n            tag_93:\n                /* \"src/AddressRanker.sol\":2037:2066  addresses[chainId][index - 1] */\n              dup2\n              sload\n              dup2\n              lt\n              tag_94\n              jumpi\n              tag_95\n              tag_88\n              jump\t// in\n            tag_95:\n            tag_94:\n              swap1\n              0x00\n              mstore\n              keccak256(0x00, 0x20)\n              add\n              0x00\n                /* \"src/AddressRanker.sol\":2037:2094  addresses[chainId][index - 1] = addresses[chainId][index] */\n              0x0100\n              exp\n              dup2\n              sload\n              dup2\n              0xffffffffffffffffffffffffffffffffffffffff\n              mul\n              not\n              and\n              swap1\n              dup4\n              0xffffffffffffffffffffffffffffffffffffffff\n              and\n              mul\n              or\n              swap1\n              sstore\n              pop\n                /* \"src/AddressRanker.sol\":2133:2150  higherRankAddress */\n              dup1\n                /* \"src/AddressRanker.sol\":2105:2114  addresses */\n              0x03\n                /* \"src/AddressRanker.sol\":2105:2123  addresses[chainId] */\n              0x00\n                /* \"src/AddressRanker.sol\":2115:2122  chainId */\n              dup6\n                /* \"src/AddressRanker.sol\":2105:2123  addresses[chainId] */\n              dup2\n              mstore\n              0x20\n              add\n              swap1\n              dup2\n              mstore\n              0x20\n              add\n              0x00\n              keccak256\n                /* \"src/AddressRanker.sol\":2124:2129  index */\n              dup4\n                /* \"src/AddressRanker.sol\":2105:2130  addresses[chainId][index] */\n              dup2\n              sload\n              dup2\n              lt\n              tag_97\n              jumpi\n              tag_98\n              tag_88\n              jump\t// in\n            tag_98:\n            tag_97:\n              swap1\n              0x00\n              mstore\n              keccak256(0x00, 0x20)\n              add\n              0x00\n                /* \"src/AddressRanker.sol\":2105:2150  addresses[chainId][index] = higherRankAddress */\n              0x0100\n              exp\n              dup2\n              sload\n              dup2\n              0xffffffffffffffffffffffffffffffffffffffff\n              mul\n              not\n              and\n              swap1\n              dup4\n              0xffffffffffffffffffffffffffffffffffffffff\n              and\n              mul\n              or\n              swap1\n              sstore\n              pop\n                /* \"src/AddressRanker.sol\":2161:2173  actionCounts */\n              0x02\n                /* \"src/AddressRanker.sol\":2161:2182  actionCounts[chainId] */\n              0x00\n                /* \"src/AddressRanker.sol\":2174:2181  chainId */\n              dup5\n                /* \"src/AddressRanker.sol\":2161:2182  actionCounts[chainId] */\n              dup2\n              mstore\n              0x20\n              add\n              swap1\n              dup2\n              mstore\n              0x20\n              add\n              0x00\n              keccak256\n              0x00\n                /* \"src/AddressRanker.sol\":2161:2184  actionCounts[chainId]++ */\n              dup2\n              sload\n              dup1\n              swap3\n              swap2\n              swap1\n              tag_100\n              swap1\n              tag_101\n              jump\t// in\n            tag_100:\n              swap2\n              swap1\n              pop\n              sstore\n              pop\n                /* \"src/AddressRanker.sol\":1905:2192  {... */\n              pop\n                /* \"src/AddressRanker.sol\":1847:2192  function promote(uint chainId, uint index) payable public {... */\n              pop\n              pop\n              jump\t// out\n                /* \"src/AddressRanker.sol\":882:1037  function claim() public onlyOwner returns (bool success, bytes memory returnData){... */\n            tag_35:\n                /* \"src/AddressRanker.sol\":925:937  bool success */\n              0x00\n                /* \"src/AddressRanker.sol\":939:962  bytes memory returnData */\n              0x60\n                /* \"@openzeppelin/contracts/access/Ownable.sol\":1531:1544  _checkOwner() */\n              tag_103\n                /* \"@openzeppelin/contracts/access/Ownable.sol\":1531:1542  _checkOwner */\n              tag_104\n                /* \"@openzeppelin/contracts/access/Ownable.sol\":1531:1544  _checkOwner() */\n              jump\t// in\n            tag_103:\n                /* \"src/AddressRanker.sol\":981:991  msg.sender */\n              caller\n                /* \"src/AddressRanker.sol\":981:996  msg.sender.call */\n              0xffffffffffffffffffffffffffffffffffffffff\n              and\n                /* \"src/AddressRanker.sol\":1003:1024  address(this).balance */\n              selfbalance\n                /* \"src/AddressRanker.sol\":981:1029  msg.sender.call{value:address(this).balance}(\"\") */\n              mload(0x40)\n              tag_106\n              swap1\n              tag_107\n              jump\t// in\n            tag_106:\n              0x00\n              mload(0x40)\n              dup1\n              dup4\n              sub\n              dup2\n              dup6\n              dup8\n              gas\n              call\n              swap3\n              pop\n              pop\n              pop\n              returndatasize\n              dup1\n              0x00\n              dup2\n              eq\n              tag_110\n              jumpi\n              mload(0x40)\n              swap2\n              pop\n              and(add(returndatasize, 0x3f), not(0x1f))\n              dup3\n              add\n              0x40\n              mstore\n              returndatasize\n              dup3\n              mstore\n              returndatasize\n              0x00\n              0x20\n              dup5\n              add\n              returndatacopy\n              jump(tag_109)\n            tag_110:\n              0x60\n              swap2\n              pop\n            tag_109:\n              pop\n                /* \"src/AddressRanker.sol\":974:1029  return msg.sender.call{value:address(this).balance}(\"\") */\n              swap2\n              pop\n              swap2\n              pop\n                /* \"src/AddressRanker.sol\":882:1037  function claim() public onlyOwner returns (bool success, bytes memory returnData){... */\n              swap1\n              swap2\n              jump\t// out\n                /* \"src/AddressRanker.sol\":1664:1839  function pop(uint chainId) payable public {... */\n            tag_40:\n                /* \"src/AddressRanker.sol\":1738:1758  actionPrice(chainId) */\n              tag_112\n                /* \"src/AddressRanker.sol\":1750:1757  chainId */\n              dup2\n                /* \"src/AddressRanker.sol\":1738:1749  actionPrice */\n              tag_21\n                /* \"src/AddressRanker.sol\":1738:1758  actionPrice(chainId) */\n              jump\t// in\n            tag_112:\n                /* \"src/AddressRanker.sol\":1725:1734  msg.value */\n              callvalue\n                /* \"src/AddressRanker.sol\":1725:1758  msg.value >= actionPrice(chainId) */\n              lt\n              iszero\n                /* \"src/AddressRanker.sol\":1717:1759  require(msg.value >= actionPrice(chainId)) */\n              tag_113\n              jumpi\n              revert(0x00, 0x00)\n            tag_113:\n                /* \"src/AddressRanker.sol\":1770:1779  addresses */\n              0x03\n                /* \"src/AddressRanker.sol\":1770:1788  addresses[chainId] */\n              0x00\n                /* \"src/AddressRanker.sol\":1780:1787  chainId */\n              dup3\n                /* \"src/AddressRanker.sol\":1770:1788  addresses[chainId] */\n              dup2\n              mstore\n              0x20\n              add\n              swap1\n              dup2\n              mstore\n              0x20\n              add\n              0x00\n              keccak256\n                /* \"src/AddressRanker.sol\":1770:1794  addresses[chainId].pop() */\n              dup1\n              sload\n              dup1\n              tag_114\n              jumpi\n              tag_115\n              tag_116\n              jump\t// in\n            tag_115:\n            tag_114:\n              0x01\n              swap1\n              sub\n              dup2\n              dup2\n              swap1\n              0x00\n              mstore\n              keccak256(0x00, 0x20)\n              add\n              exp(0x0100, 0x00)\n              dup2\n              sload\n              swap1\n              0xffffffffffffffffffffffffffffffffffffffff\n              mul\n              not\n              and\n              swap1\n              sstore\n              swap1\n              sstore\n                /* \"src/AddressRanker.sol\":1805:1817  actionCounts */\n              0x02\n                /* \"src/AddressRanker.sol\":1805:1826  actionCounts[chainId] */\n              0x00\n                /* \"src/AddressRanker.sol\":1818:1825  chainId */\n              dup3\n                /* \"src/AddressRanker.sol\":1805:1826  actionCounts[chainId] */\n              dup2\n              mstore\n              0x20\n              add\n              swap1\n              dup2\n              mstore\n              0x20\n              add\n              0x00\n              keccak256\n              0x00\n                /* \"src/AddressRanker.sol\":1805:1828  actionCounts[chainId]++ */\n              dup2\n              sload\n              dup1\n              swap3\n              swap2\n              swap1\n              tag_118\n              swap1\n              tag_101\n              jump\t// in\n            tag_118:\n              swap2\n              swap1\n              pop\n              sstore\n              pop\n                /* \"src/AddressRanker.sol\":1664:1839  function pop(uint chainId) payable public {... */\n              pop\n              jump\t// out\n                /* \"src/AddressRanker.sol\":770:821  mapping(uint chainId => address[]) public addresses */\n            tag_44:\n              mstore(0x20, 0x03)\n              dup2\n              0x00\n              mstore\n              keccak256(0x00, 0x40)\n              dup2\n              dup2\n              sload\n              dup2\n              lt\n              tag_119\n              jumpi\n              0x00\n              dup1\n              revert\n            tag_119:\n              swap1\n              0x00\n              mstore\n              keccak256(0x00, 0x20)\n              add\n              0x00\n              swap2\n              pop\n              swap2\n              pop\n              swap1\n              sload\n              swap1\n              0x0100\n              exp\n              swap1\n              div\n              0xffffffffffffffffffffffffffffffffffffffff\n              and\n              dup2\n              jump\t// out\n                /* \"@openzeppelin/contracts/access/Ownable.sol\":2293:2394  function renounceOwnership() public virtual onlyOwner {... */\n            tag_49:\n                /* \"@openzeppelin/contracts/access/Ownable.sol\":1531:1544  _checkOwner() */\n              tag_122\n                /* \"@openzeppelin/contracts/access/Ownable.sol\":1531:1542  _checkOwner */\n              tag_104\n                /* \"@openzeppelin/contracts/access/Ownable.sol\":1531:1544  _checkOwner() */\n              jump\t// in\n            tag_122:\n                /* \"@openzeppelin/contracts/access/Ownable.sol\":2357:2387  _transferOwnership(address(0)) */\n              tag_124\n                /* \"@openzeppelin/contracts/access/Ownable.sol\":2384:2385  0 */\n              0x00\n                /* \"@openzeppelin/contracts/access/Ownable.sol\":2357:2375  _transferOwnership */\n              tag_125\n                /* \"@openzeppelin/contracts/access/Ownable.sol\":2357:2387  _transferOwnership(address(0)) */\n              jump\t// in\n            tag_124:\n                /* \"@openzeppelin/contracts/access/Ownable.sol\":2293:2394  function renounceOwnership() public virtual onlyOwner {... */\n              jump\t// out\n                /* \"src/AddressRanker.sol\":1184:1337  function maxActions(uint chainId) public view returns (uint) {... */\n            tag_53:\n                /* \"src/AddressRanker.sol\":1239:1243  uint */\n              0x00\n                /* \"src/AddressRanker.sol\":1308:1320  actionCounts */\n              0x02\n                /* \"src/AddressRanker.sol\":1308:1329  actionCounts[chainId] */\n              0x00\n                /* \"src/AddressRanker.sol\":1321:1328  chainId */\n              dup4\n                /* \"src/AddressRanker.sol\":1308:1329  actionCounts[chainId] */\n              dup2\n              mstore\n              0x20\n              add\n              swap1\n              dup2\n              mstore\n              0x20\n              add\n              0x00\n              keccak256\n              sload\n                /* \"src/AddressRanker.sol\":1294:1304  60 seconds */\n              0x3c\n                /* \"src/AddressRanker.sol\":1282:1289  created */\n              sload(0x01)\n                /* \"src/AddressRanker.sol\":1264:1279  block.timestamp */\n              timestamp\n                /* \"src/AddressRanker.sol\":1264:1289  block.timestamp - created */\n              tag_127\n              swap2\n              swap1\n              tag_85\n              jump\t// in\n            tag_127:\n                /* \"src/AddressRanker.sol\":1263:1305  (block.timestamp - created) / (60 seconds) */\n              tag_128\n              swap2\n              swap1\n              tag_80\n              jump\t// in\n            tag_128:\n                /* \"src/AddressRanker.sol\":1263:1329  (block.timestamp - created) / (60 seconds) - actionCounts[chainId] */\n              tag_129\n              swap2\n              swap1\n              tag_85\n              jump\t// in\n            tag_129:\n                /* \"src/AddressRanker.sol\":1256:1329  return (block.timestamp - created) / (60 seconds) - actionCounts[chainId] */\n              swap1\n              pop\n                /* \"src/AddressRanker.sol\":1184:1337  function maxActions(uint chainId) public view returns (uint) {... */\n              swap2\n              swap1\n              pop\n              jump\t// out\n                /* \"@openzeppelin/contracts/access/Ownable.sol\":1638:1723  function owner() public view virtual returns (address) {... */\n            tag_57:\n                /* \"@openzeppelin/contracts/access/Ownable.sol\":1684:1691  address */\n              0x00\n                /* \"@openzeppelin/contracts/access/Ownable.sol\":1710:1716  _owner */\n              0x00\n              0x00\n              swap1\n              sload\n              swap1\n              0x0100\n              exp\n              swap1\n              div\n              0xffffffffffffffffffffffffffffffffffffffff\n              and\n                /* \"@openzeppelin/contracts/access/Ownable.sol\":1703:1716  return _owner */\n              swap1\n              pop\n                /* \"@openzeppelin/contracts/access/Ownable.sol\":1638:1723  function owner() public view virtual returns (address) {... */\n              swap1\n              jump\t// out\n                /* \"src/AddressRanker.sol\":1051:1172  function chainAddresses(uint chainId) public view returns (address[] memory) {... */\n            tag_62:\n                /* \"src/AddressRanker.sol\":1110:1126  address[] memory */\n              0x60\n                /* \"src/AddressRanker.sol\":1146:1155  addresses */\n              0x03\n                /* \"src/AddressRanker.sol\":1146:1164  addresses[chainId] */\n              0x00\n                /* \"src/AddressRanker.sol\":1156:1163  chainId */\n              dup4\n                /* \"src/AddressRanker.sol\":1146:1164  addresses[chainId] */\n              dup2\n              mstore\n              0x20\n              add\n              swap1\n              dup2\n              mstore\n              0x20\n              add\n              0x00\n              keccak256\n                /* \"src/AddressRanker.sol\":1139:1164  return addresses[chainId] */\n              dup1\n              sload\n              dup1\n              0x20\n              mul\n              0x20\n              add\n              mload(0x40)\n              swap1\n              dup2\n              add\n              0x40\n              mstore\n              dup1\n              swap3\n              swap2\n              swap1\n              dup2\n              dup2\n              mstore\n              0x20\n              add\n              dup3\n              dup1\n              sload\n              dup1\n              iszero\n              tag_132\n              jumpi\n              0x20\n              mul\n              dup3\n              add\n              swap2\n              swap1\n              0x00\n              mstore\n              keccak256(0x00, 0x20)\n              swap1\n            tag_133:\n              dup2\n              0x00\n              swap1\n              sload\n              swap1\n              0x0100\n              exp\n              swap1\n              div\n              0xffffffffffffffffffffffffffffffffffffffff\n              and\n              0xffffffffffffffffffffffffffffffffffffffff\n              and\n              dup2\n              mstore\n              0x20\n              add\n              swap1\n              0x01\n              add\n              swap1\n              dup1\n              dup4\n              gt\n              tag_133\n              jumpi\n            tag_132:\n              pop\n              pop\n              pop\n              pop\n              pop\n              swap1\n              pop\n                /* \"src/AddressRanker.sol\":1051:1172  function chainAddresses(uint chainId) public view returns (address[] memory) {... */\n              swap2\n              swap1\n              pop\n              jump\t// out\n                /* \"src/AddressRanker.sol\":2200:2542  function demote(uint chainId, uint index) payable public {... */\n            tag_67:\n                /* \"src/AddressRanker.sol\":2289:2309  actionPrice(chainId) */\n              tag_135\n                /* \"src/AddressRanker.sol\":2301:2308  chainId */\n              dup3\n                /* \"src/AddressRanker.sol\":2289:2300  actionPrice */\n              tag_21\n                /* \"src/AddressRanker.sol\":2289:2309  actionPrice(chainId) */\n              jump\t// in\n            tag_135:\n                /* \"src/AddressRanker.sol\":2276:2285  msg.value */\n              callvalue\n                /* \"src/AddressRanker.sol\":2276:2309  msg.value >= actionPrice(chainId) */\n              lt\n              iszero\n                /* \"src/AddressRanker.sol\":2268:2310  require(msg.value >= actionPrice(chainId)) */\n              tag_136\n              jumpi\n              revert(0x00, 0x00)\n            tag_136:\n                /* \"src/AddressRanker.sol\":2321:2345  address lowerRankAddress */\n              0x00\n                /* \"src/AddressRanker.sol\":2348:2357  addresses */\n              0x03\n                /* \"src/AddressRanker.sol\":2348:2366  addresses[chainId] */\n              0x00\n                /* \"src/AddressRanker.sol\":2358:2365  chainId */\n              dup5\n                /* \"src/AddressRanker.sol\":2348:2366  addresses[chainId] */\n              dup2\n              mstore\n              0x20\n              add\n              swap1\n              dup2\n              mstore\n              0x20\n              add\n              0x00\n              keccak256\n                /* \"src/AddressRanker.sol\":2375:2376  1 */\n              0x01\n                /* \"src/AddressRanker.sol\":2367:2372  index */\n              dup4\n                /* \"src/AddressRanker.sol\":2367:2376  index + 1 */\n              tag_137\n              swap2\n              swap1\n              tag_138\n              jump\t// in\n            tag_137:\n                /* \"src/AddressRanker.sol\":2348:2377  addresses[chainId][index + 1] */\n              dup2\n              sload\n              dup2\n              lt\n              tag_139\n              jumpi\n              tag_140\n              tag_88\n              jump\t// in\n            tag_140:\n            tag_139:\n              swap1\n              0x00\n              mstore\n              keccak256(0x00, 0x20)\n              add\n              0x00\n              swap1\n              sload\n              swap1\n              0x0100\n              exp\n              swap1\n              div\n              0xffffffffffffffffffffffffffffffffffffffff\n              and\n                /* \"src/AddressRanker.sol\":2321:2377  address lowerRankAddress = addresses[chainId][index + 1] */\n              swap1\n              pop\n                /* \"src/AddressRanker.sol\":2420:2429  addresses */\n              0x03\n                /* \"src/AddressRanker.sol\":2420:2438  addresses[chainId] */\n              0x00\n                /* \"src/AddressRanker.sol\":2430:2437  chainId */\n              dup5\n                /* \"src/AddressRanker.sol\":2420:2438  addresses[chainId] */\n              dup2\n              mstore\n              0x20\n              add\n              swap1\n              dup2\n              mstore\n              0x20\n              add\n              0x00\n              keccak256\n                /* \"src/AddressRanker.sol\":2439:2444  index */\n              dup3\n                /* \"src/AddressRanker.sol\":2420:2445  addresses[chainId][index] */\n              dup2\n              sload\n              dup2\n              lt\n              tag_142\n              jumpi\n              tag_143\n              tag_88\n              jump\t// in\n            tag_143:\n            tag_142:\n              swap1\n              0x00\n              mstore\n              keccak256(0x00, 0x20)\n              add\n              0x00\n              swap1\n              sload\n              swap1\n              0x0100\n              exp\n              swap1\n              div\n              0xffffffffffffffffffffffffffffffffffffffff\n              and\n                /* \"src/AddressRanker.sol\":2388:2397  addresses */\n              0x03\n                /* \"src/AddressRanker.sol\":2388:2406  addresses[chainId] */\n              0x00\n                /* \"src/AddressRanker.sol\":2398:2405  chainId */\n              dup6\n                /* \"src/AddressRanker.sol\":2388:2406  addresses[chainId] */\n              dup2\n              mstore\n              0x20\n              add\n              swap1\n              dup2\n              mstore\n              0x20\n              add\n              0x00\n              keccak256\n                /* \"src/AddressRanker.sol\":2415:2416  1 */\n              0x01\n                /* \"src/AddressRanker.sol\":2407:2412  index */\n              dup5\n                /* \"src/AddressRanker.sol\":2407:2416  index + 1 */\n              tag_145\n              swap2\n              swap1\n              tag_138\n              jump\t// in\n            tag_145:\n                /* \"src/AddressRanker.sol\":2388:2417  addresses[chainId][index + 1] */\n              dup2\n              sload\n              dup2\n              lt\n              tag_146\n              jumpi\n              tag_147\n              tag_88\n              jump\t// in\n            tag_147:\n            tag_146:\n              swap1\n              0x00\n              mstore\n              keccak256(0x00, 0x20)\n              add\n              0x00\n                /* \"src/AddressRanker.sol\":2388:2445  addresses[chainId][index + 1] = addresses[chainId][index] */\n              0x0100\n              exp\n              dup2\n              sload\n              dup2\n              0xffffffffffffffffffffffffffffffffffffffff\n              mul\n              not\n              and\n              swap1\n              dup4\n              0xffffffffffffffffffffffffffffffffffffffff\n              and\n              mul\n              or\n              swap1\n              sstore\n              pop\n                /* \"src/AddressRanker.sol\":2484:2500  lowerRankAddress */\n              dup1\n                /* \"src/AddressRanker.sol\":2456:2465  addresses */\n              0x03\n                /* \"src/AddressRanker.sol\":2456:2474  addresses[chainId] */\n              0x00\n                /* \"src/AddressRanker.sol\":2466:2473  chainId */\n              dup6\n                /* \"src/AddressRanker.sol\":2456:2474  addresses[chainId] */\n              dup2\n              mstore\n              0x20\n              add\n              swap1\n              dup2\n              mstore\n              0x20\n              add\n              0x00\n              keccak256\n                /* \"src/AddressRanker.sol\":2475:2480  index */\n              dup4\n                /* \"src/AddressRanker.sol\":2456:2481  addresses[chainId][index] */\n              dup2\n              sload\n              dup2\n              lt\n              tag_149\n              jumpi\n              tag_150\n              tag_88\n              jump\t// in\n            tag_150:\n            tag_149:\n              swap1\n              0x00\n              mstore\n              keccak256(0x00, 0x20)\n              add\n              0x00\n                /* \"src/AddressRanker.sol\":2456:2500  addresses[chainId][index] = lowerRankAddress */\n              0x0100\n              exp\n              dup2\n              sload\n              dup2\n              0xffffffffffffffffffffffffffffffffffffffff\n              mul\n              not\n              and\n              swap1\n              dup4\n              0xffffffffffffffffffffffffffffffffffffffff\n              and\n              mul\n              or\n              swap1\n              sstore\n              pop\n                /* \"src/AddressRanker.sol\":2511:2523  actionCounts */\n              0x02\n                /* \"src/AddressRanker.sol\":2511:2532  actionCounts[chainId] */\n              0x00\n                /* \"src/AddressRanker.sol\":2524:2531  chainId */\n              dup5\n                /* \"src/AddressRanker.sol\":2511:2532  actionCounts[chainId] */\n              dup2\n              mstore\n              0x20\n              add\n              swap1\n              dup2\n              mstore\n              0x20\n              add\n              0x00\n              keccak256\n              0x00\n                /* \"src/AddressRanker.sol\":2511:2534  actionCounts[chainId]++ */\n              dup2\n              sload\n              dup1\n              swap3\n              swap2\n              swap1\n              tag_152\n              swap1\n              tag_101\n              jump\t// in\n            tag_152:\n              swap2\n              swap1\n              pop\n              sstore\n              pop\n                /* \"src/AddressRanker.sol\":2257:2542  {... */\n              pop\n                /* \"src/AddressRanker.sol\":2200:2542  function demote(uint chainId, uint index) payable public {... */\n              pop\n              pop\n              jump\t// out\n                /* \"src/AddressRanker.sol\":1470:1656  function push(uint chainId, address a) payable public {... */\n            tag_71:\n                /* \"src/AddressRanker.sol\":1556:1576  actionPrice(chainId) */\n              tag_154\n                /* \"src/AddressRanker.sol\":1568:1575  chainId */\n              dup3\n                /* \"src/AddressRanker.sol\":1556:1567  actionPrice */\n              tag_21\n                /* \"src/AddressRanker.sol\":1556:1576  actionPrice(chainId) */\n              jump\t// in\n            tag_154:\n                /* \"src/AddressRanker.sol\":1543:1552  msg.value */\n              callvalue\n                /* \"src/AddressRanker.sol\":1543:1576  msg.value >= actionPrice(chainId) */\n              lt\n              iszero\n                /* \"src/AddressRanker.sol\":1535:1577  require(msg.value >= actionPrice(chainId)) */\n              tag_155\n              jumpi\n              revert(0x00, 0x00)\n            tag_155:\n                /* \"src/AddressRanker.sol\":1588:1597  addresses */\n              0x03\n                /* \"src/AddressRanker.sol\":1588:1606  addresses[chainId] */\n              0x00\n                /* \"src/AddressRanker.sol\":1598:1605  chainId */\n              dup4\n                /* \"src/AddressRanker.sol\":1588:1606  addresses[chainId] */\n              dup2\n              mstore\n              0x20\n              add\n              swap1\n              dup2\n              mstore\n              0x20\n              add\n              0x00\n              keccak256\n                /* \"src/AddressRanker.sol\":1612:1613  a */\n              dup2\n                /* \"src/AddressRanker.sol\":1588:1614  addresses[chainId].push(a) */\n              swap1\n              dup1\n              0x01\n              dup2\n              sload\n              add\n              dup1\n              dup3\n              sstore\n              dup1\n              swap2\n              pop\n              pop\n              0x01\n              swap1\n              sub\n              swap1\n              0x00\n              mstore\n              keccak256(0x00, 0x20)\n              add\n              0x00\n              swap1\n              swap2\n              swap1\n              swap2\n              swap1\n              swap2\n              0x0100\n              exp\n              dup2\n              sload\n              dup2\n              0xffffffffffffffffffffffffffffffffffffffff\n              mul\n              not\n              and\n              swap1\n              dup4\n              0xffffffffffffffffffffffffffffffffffffffff\n              and\n              mul\n              or\n              swap1\n              sstore\n              pop\n                /* \"src/AddressRanker.sol\":1625:1637  actionCounts */\n              0x02\n                /* \"src/AddressRanker.sol\":1625:1646  actionCounts[chainId] */\n              0x00\n                /* \"src/AddressRanker.sol\":1638:1645  chainId */\n              dup4\n                /* \"src/AddressRanker.sol\":1625:1646  actionCounts[chainId] */\n              dup2\n              mstore\n              0x20\n              add\n              swap1\n              dup2\n              mstore\n              0x20\n              add\n              0x00\n              keccak256\n              0x00\n                /* \"src/AddressRanker.sol\":1625:1648  actionCounts[chainId]++ */\n              dup2\n              sload\n              dup1\n              swap3\n              swap2\n              swap1\n              tag_157\n              swap1\n              tag_101\n              jump\t// in\n            tag_157:\n              swap2\n              swap1\n              pop\n              sstore\n              pop\n                /* \"src/AddressRanker.sol\":1470:1656  function push(uint chainId, address a) payable public {... */\n              pop\n              pop\n              jump\t// out\n                /* \"@openzeppelin/contracts/access/Ownable.sol\":2543:2758  function transferOwnership(address newOwner) public virtual onlyOwner {... */\n            tag_76:\n                /* \"@openzeppelin/contracts/access/Ownable.sol\":1531:1544  _checkOwner() */\n              tag_159\n                /* \"@openzeppelin/contracts/access/Ownable.sol\":1531:1542  _checkOwner */\n              tag_104\n                /* \"@openzeppelin/contracts/access/Ownable.sol\":1531:1544  _checkOwner() */\n              jump\t// in\n            tag_159:\n                /* \"@openzeppelin/contracts/access/Ownable.sol\":2647:2648  0 */\n              0x00\n                /* \"@openzeppelin/contracts/access/Ownable.sol\":2627:2649  newOwner == address(0) */\n              0xffffffffffffffffffffffffffffffffffffffff\n              and\n                /* \"@openzeppelin/contracts/access/Ownable.sol\":2627:2635  newOwner */\n              dup2\n                /* \"@openzeppelin/contracts/access/Ownable.sol\":2627:2649  newOwner == address(0) */\n              0xffffffffffffffffffffffffffffffffffffffff\n              and\n              sub\n                /* \"@openzeppelin/contracts/access/Ownable.sol\":2623:2714  if (newOwner == address(0)) {... */\n              tag_161\n              jumpi\n                /* \"@openzeppelin/contracts/access/Ownable.sol\":2700:2701  0 */\n              0x00\n                /* \"@openzeppelin/contracts/access/Ownable.sol\":2672:2703  OwnableInvalidOwner(address(0)) */\n              mload(0x40)\n              0x1e4fbdf700000000000000000000000000000000000000000000000000000000\n              dup2\n              mstore\n              0x04\n              add\n              tag_162\n              swap2\n              swap1\n              tag_46\n              jump\t// in\n            tag_162:\n              mload(0x40)\n              dup1\n              swap2\n              sub\n              swap1\n              revert\n                /* \"@openzeppelin/contracts/access/Ownable.sol\":2623:2714  if (newOwner == address(0)) {... */\n            tag_161:\n                /* \"@openzeppelin/contracts/access/Ownable.sol\":2723:2751  _transferOwnership(newOwner) */\n              tag_163\n                /* \"@openzeppelin/contracts/access/Ownable.sol\":2742:2750  newOwner */\n              dup2\n                /* \"@openzeppelin/contracts/access/Ownable.sol\":2723:2741  _transferOwnership */\n              tag_125\n                /* \"@openzeppelin/contracts/access/Ownable.sol\":2723:2751  _transferOwnership(newOwner) */\n              jump\t// in\n            tag_163:\n                /* \"@openzeppelin/contracts/access/Ownable.sol\":2543:2758  function transferOwnership(address newOwner) public virtual onlyOwner {... */\n              pop\n              jump\t// out\n                /* \"@openzeppelin/contracts/access/Ownable.sol\":1796:1958  function _checkOwner() internal view virtual {... */\n            tag_104:\n                /* \"@openzeppelin/contracts/access/Ownable.sol\":1866:1878  _msgSender() */\n              tag_165\n                /* \"@openzeppelin/contracts/access/Ownable.sol\":1866:1876  _msgSender */\n              tag_166\n                /* \"@openzeppelin/contracts/access/Ownable.sol\":1866:1878  _msgSender() */\n              jump\t// in\n            tag_165:\n                /* \"@openzeppelin/contracts/access/Ownable.sol\":1855:1878  owner() != _msgSender() */\n              0xffffffffffffffffffffffffffffffffffffffff\n              and\n                /* \"@openzeppelin/contracts/access/Ownable.sol\":1855:1862  owner() */\n              tag_167\n                /* \"@openzeppelin/contracts/access/Ownable.sol\":1855:1860  owner */\n              tag_57\n                /* \"@openzeppelin/contracts/access/Ownable.sol\":1855:1862  owner() */\n              jump\t// in\n            tag_167:\n                /* \"@openzeppelin/contracts/access/Ownable.sol\":1855:1878  owner() != _msgSender() */\n              0xffffffffffffffffffffffffffffffffffffffff\n              and\n              eq\n                /* \"@openzeppelin/contracts/access/Ownable.sol\":1851:1952  if (owner() != _msgSender()) {... */\n              tag_168\n              jumpi\n                /* \"@openzeppelin/contracts/access/Ownable.sol\":1928:1940  _msgSender() */\n              tag_169\n                /* \"@openzeppelin/contracts/access/Ownable.sol\":1928:1938  _msgSender */\n              tag_166\n                /* \"@openzeppelin/contracts/access/Ownable.sol\":1928:1940  _msgSender() */\n              jump\t// in\n            tag_169:\n                /* \"@openzeppelin/contracts/access/Ownable.sol\":1901:1941  OwnableUnauthorizedAccount(_msgSender()) */\n              mload(0x40)\n              0x118cdaa700000000000000000000000000000000000000000000000000000000\n              dup2\n              mstore\n              0x04\n              add\n              tag_170\n              swap2\n              swap1\n              tag_46\n              jump\t// in\n            tag_170:\n              mload(0x40)\n              dup1\n              swap2\n              sub\n              swap1\n              revert\n                /* \"@openzeppelin/contracts/access/Ownable.sol\":1851:1952  if (owner() != _msgSender()) {... */\n            tag_168:\n                /* \"@openzeppelin/contracts/access/Ownable.sol\":1796:1958  function _checkOwner() internal view virtual {... */\n              jump\t// out\n                /* \"@openzeppelin/contracts/access/Ownable.sol\":2912:3099  function _transferOwnership(address newOwner) internal virtual {... */\n            tag_125:\n                /* \"@openzeppelin/contracts/access/Ownable.sol\":2985:3001  address oldOwner */\n              0x00\n                /* \"@openzeppelin/contracts/access/Ownable.sol\":3004:3010  _owner */\n              0x00\n              0x00\n              swap1\n              sload\n              swap1\n              0x0100\n              exp\n              swap1\n              div\n              0xffffffffffffffffffffffffffffffffffffffff\n              and\n                /* \"@openzeppelin/contracts/access/Ownable.sol\":2985:3010  address oldOwner = _owner */\n              swap1\n              pop\n                /* \"@openzeppelin/contracts/access/Ownable.sol\":3029:3037  newOwner */\n              dup2\n                /* \"@openzeppelin/contracts/access/Ownable.sol\":3020:3026  _owner */\n              0x00\n              0x00\n                /* \"@openzeppelin/contracts/access/Ownable.sol\":3020:3037  _owner = newOwner */\n              0x0100\n              exp\n              dup2\n              sload\n              dup2\n              0xffffffffffffffffffffffffffffffffffffffff\n              mul\n              not\n              and\n              swap1\n              dup4\n              0xffffffffffffffffffffffffffffffffffffffff\n              and\n              mul\n              or\n              swap1\n              sstore\n              pop\n                /* \"@openzeppelin/contracts/access/Ownable.sol\":3083:3091  newOwner */\n              dup2\n                /* \"@openzeppelin/contracts/access/Ownable.sol\":3052:3092  OwnershipTransferred(oldOwner, newOwner) */\n              0xffffffffffffffffffffffffffffffffffffffff\n              and\n                /* \"@openzeppelin/contracts/access/Ownable.sol\":3073:3081  oldOwner */\n              dup2\n                /* \"@openzeppelin/contracts/access/Ownable.sol\":3052:3092  OwnershipTransferred(oldOwner, newOwner) */\n              0xffffffffffffffffffffffffffffffffffffffff\n              and\n              0x8be0079c531659141344cd1fd0a4f28419497f9722a3daafe3b4186f6b6457e0\n              mload(0x40)\n              mload(0x40)\n              dup1\n              swap2\n              sub\n              swap1\n              log3\n                /* \"@openzeppelin/contracts/access/Ownable.sol\":2975:3099  {... */\n              pop\n                /* \"@openzeppelin/contracts/access/Ownable.sol\":2912:3099  function _transferOwnership(address newOwner) internal virtual {... */\n              pop\n              jump\t// out\n                /* \"@openzeppelin/contracts/utils/Context.sol\":656:752  function _msgSender() internal view virtual returns (address) {... */\n            tag_166:\n                /* \"@openzeppelin/contracts/utils/Context.sol\":709:716  address */\n              0x00\n                /* \"@openzeppelin/contracts/utils/Context.sol\":735:745  msg.sender */\n              caller\n                /* \"@openzeppelin/contracts/utils/Context.sol\":728:745  return msg.sender */\n              swap1\n              pop\n                /* \"@openzeppelin/contracts/utils/Context.sol\":656:752  function _msgSender() internal view virtual returns (address) {... */\n              swap1\n              jump\t// out\n                /* \"#utility.yul\":88:205   */\n            tag_174:\n                /* \"#utility.yul\":197:198   */\n              0x00\n                /* \"#utility.yul\":194:195   */\n              0x00\n                /* \"#utility.yul\":187:199   */\n              revert\n                /* \"#utility.yul\":334:411   */\n            tag_176:\n                /* \"#utility.yul\":371:378   */\n              0x00\n                /* \"#utility.yul\":400:405   */\n              dup2\n                /* \"#utility.yul\":389:405   */\n              swap1\n              pop\n                /* \"#utility.yul\":334:411   */\n              swap2\n              swap1\n              pop\n              jump\t// out\n                /* \"#utility.yul\":417:539   */\n            tag_177:\n                /* \"#utility.yul\":490:514   */\n              tag_210\n                /* \"#utility.yul\":508:513   */\n              dup2\n                /* \"#utility.yul\":490:514   */\n              tag_176\n              jump\t// in\n            tag_210:\n                /* \"#utility.yul\":483:488   */\n              dup2\n                /* \"#utility.yul\":480:515   */\n              eq\n                /* \"#utility.yul\":470:533   */\n              tag_211\n              jumpi\n                /* \"#utility.yul\":529:530   */\n              0x00\n                /* \"#utility.yul\":526:527   */\n              0x00\n                /* \"#utility.yul\":519:531   */\n              revert\n                /* \"#utility.yul\":470:533   */\n            tag_211:\n                /* \"#utility.yul\":417:539   */\n              pop\n              jump\t// out\n                /* \"#utility.yul\":545:684   */\n            tag_178:\n                /* \"#utility.yul\":591:596   */\n              0x00\n                /* \"#utility.yul\":629:635   */\n              dup2\n                /* \"#utility.yul\":616:636   */\n              calldataload\n                /* \"#utility.yul\":607:636   */\n              swap1\n              pop\n                /* \"#utility.yul\":645:678   */\n              tag_213\n                /* \"#utility.yul\":672:677   */\n              dup2\n                /* \"#utility.yul\":645:678   */\n              tag_177\n              jump\t// in\n            tag_213:\n                /* \"#utility.yul\":545:684   */\n              swap3\n              swap2\n              pop\n              pop\n              jump\t// out\n                /* \"#utility.yul\":690:1019   */\n            tag_20:\n                /* \"#utility.yul\":749:755   */\n              0x00\n                /* \"#utility.yul\":798:800   */\n              0x20\n                /* \"#utility.yul\":786:795   */\n              dup3\n                /* \"#utility.yul\":777:784   */\n              dup5\n                /* \"#utility.yul\":773:796   */\n              sub\n                /* \"#utility.yul\":769:801   */\n              slt\n                /* \"#utility.yul\":766:885   */\n              iszero\n              tag_215\n              jumpi\n                /* \"#utility.yul\":804:883   */\n              tag_216\n              tag_174\n              jump\t// in\n            tag_216:\n                /* \"#utility.yul\":766:885   */\n            tag_215:\n                /* \"#utility.yul\":924:925   */\n              0x00\n                /* \"#utility.yul\":949:1002   */\n              tag_217\n                /* \"#utility.yul\":994:1001   */\n              dup5\n                /* \"#utility.yul\":985:991   */\n              dup3\n                /* \"#utility.yul\":974:983   */\n              dup6\n                /* \"#utility.yul\":970:992   */\n              add\n                /* \"#utility.yul\":949:1002   */\n              tag_178\n              jump\t// in\n            tag_217:\n                /* \"#utility.yul\":939:1002   */\n              swap2\n              pop\n                /* \"#utility.yul\":895:1012   */\n              pop\n                /* \"#utility.yul\":690:1019   */\n              swap3\n              swap2\n              pop\n              pop\n              jump\t// out\n                /* \"#utility.yul\":1025:1143   */\n            tag_179:\n                /* \"#utility.yul\":1112:1136   */\n              tag_219\n                /* \"#utility.yul\":1130:1135   */\n              dup2\n                /* \"#utility.yul\":1112:1136   */\n              tag_176\n              jump\t// in\n            tag_219:\n                /* \"#utility.yul\":1107:1110   */\n              dup3\n                /* \"#utility.yul\":1100:1137   */\n              mstore\n                /* \"#utility.yul\":1025:1143   */\n              pop\n              pop\n              jump\t// out\n                /* \"#utility.yul\":1149:1371   */\n            tag_23:\n                /* \"#utility.yul\":1242:1246   */\n              0x00\n                /* \"#utility.yul\":1280:1282   */\n              0x20\n                /* \"#utility.yul\":1269:1278   */\n              dup3\n                /* \"#utility.yul\":1265:1283   */\n              add\n                /* \"#utility.yul\":1257:1283   */\n              swap1\n              pop\n                /* \"#utility.yul\":1293:1364   */\n              tag_221\n                /* \"#utility.yul\":1361:1362   */\n              0x00\n                /* \"#utility.yul\":1350:1359   */\n              dup4\n                /* \"#utility.yul\":1346:1363   */\n              add\n                /* \"#utility.yul\":1337:1343   */\n              dup5\n                /* \"#utility.yul\":1293:1364   */\n              tag_179\n              jump\t// in\n            tag_221:\n                /* \"#utility.yul\":1149:1371   */\n              swap3\n              swap2\n              pop\n              pop\n              jump\t// out\n                /* \"#utility.yul\":1377:1851   */\n            tag_31:\n                /* \"#utility.yul\":1445:1451   */\n              0x00\n                /* \"#utility.yul\":1453:1459   */\n              0x00\n                /* \"#utility.yul\":1502:1504   */\n              0x40\n                /* \"#utility.yul\":1490:1499   */\n              dup4\n                /* \"#utility.yul\":1481:1488   */\n              dup6\n                /* \"#utility.yul\":1477:1500   */\n              sub\n                /* \"#utility.yul\":1473:1505   */\n              slt\n                /* \"#utility.yul\":1470:1589   */\n              iszero\n              tag_223\n              jumpi\n                /* \"#utility.yul\":1508:1587   */\n              tag_224\n              tag_174\n              jump\t// in\n            tag_224:\n                /* \"#utility.yul\":1470:1589   */\n            tag_223:\n                /* \"#utility.yul\":1628:1629   */\n              0x00\n                /* \"#utility.yul\":1653:1706   */\n              tag_225\n                /* \"#utility.yul\":1698:1705   */\n              dup6\n                /* \"#utility.yul\":1689:1695   */\n              dup3\n                /* \"#utility.yul\":1678:1687   */\n              dup7\n                /* \"#utility.yul\":1674:1696   */\n              add\n                /* \"#utility.yul\":1653:1706   */\n              tag_178\n              jump\t// in\n            tag_225:\n                /* \"#utility.yul\":1643:1706   */\n              swap3\n              pop\n                /* \"#utility.yul\":1599:1716   */\n              pop\n                /* \"#utility.yul\":1755:1757   */\n              0x20\n                /* \"#utility.yul\":1781:1834   */\n              tag_226\n                /* \"#utility.yul\":1826:1833   */\n              dup6\n                /* \"#utility.yul\":1817:1823   */\n              dup3\n                /* \"#utility.yul\":1806:1815   */\n              dup7\n                /* \"#utility.yul\":1802:1824   */\n              add\n                /* \"#utility.yul\":1781:1834   */\n              tag_178\n              jump\t// in\n            tag_226:\n                /* \"#utility.yul\":1771:1834   */\n              swap2\n              pop\n                /* \"#utility.yul\":1726:1844   */\n              pop\n                /* \"#utility.yul\":1377:1851   */\n              swap3\n              pop\n              swap3\n              swap1\n              pop\n              jump\t// out\n                /* \"#utility.yul\":1857:1947   */\n            tag_180:\n                /* \"#utility.yul\":1891:1898   */\n              0x00\n                /* \"#utility.yul\":1934:1939   */\n              dup2\n                /* \"#utility.yul\":1927:1940   */\n              iszero\n                /* \"#utility.yul\":1920:1941   */\n              iszero\n                /* \"#utility.yul\":1909:1941   */\n              swap1\n              pop\n                /* \"#utility.yul\":1857:1947   */\n              swap2\n              swap1\n              pop\n              jump\t// out\n                /* \"#utility.yul\":1953:2062   */\n            tag_181:\n                /* \"#utility.yul\":2034:2055   */\n              tag_229\n                /* \"#utility.yul\":2049:2054   */\n              dup2\n                /* \"#utility.yul\":2034:2055   */\n              tag_180\n              jump\t// in\n            tag_229:\n                /* \"#utility.yul\":2029:2032   */\n              dup3\n                /* \"#utility.yul\":2022:2056   */\n              mstore\n                /* \"#utility.yul\":1953:2062   */\n              pop\n              pop\n              jump\t// out\n                /* \"#utility.yul\":2068:2166   */\n            tag_182:\n                /* \"#utility.yul\":2119:2125   */\n              0x00\n                /* \"#utility.yul\":2153:2158   */\n              dup2\n                /* \"#utility.yul\":2147:2159   */\n              mload\n                /* \"#utility.yul\":2137:2159   */\n              swap1\n              pop\n                /* \"#utility.yul\":2068:2166   */\n              swap2\n              swap1\n              pop\n              jump\t// out\n                /* \"#utility.yul\":2172:2340   */\n            tag_183:\n                /* \"#utility.yul\":2255:2266   */\n              0x00\n                /* \"#utility.yul\":2289:2295   */\n              dup3\n                /* \"#utility.yul\":2284:2287   */\n              dup3\n                /* \"#utility.yul\":2277:2296   */\n              mstore\n                /* \"#utility.yul\":2329:2333   */\n              0x20\n                /* \"#utility.yul\":2324:2327   */\n              dup3\n                /* \"#utility.yul\":2320:2334   */\n              add\n                /* \"#utility.yul\":2305:2334   */\n              swap1\n              pop\n                /* \"#utility.yul\":2172:2340   */\n              swap3\n              swap2\n              pop\n              pop\n              jump\t// out\n                /* \"#utility.yul\":2346:2485   */\n            tag_184:\n                /* \"#utility.yul\":2435:2441   */\n              dup3\n                /* \"#utility.yul\":2430:2433   */\n              dup2\n                /* \"#utility.yul\":2425:2428   */\n              dup4\n                /* \"#utility.yul\":2419:2442   */\n              mcopy\n                /* \"#utility.yul\":2476:2477   */\n              0x00\n                /* \"#utility.yul\":2467:2473   */\n              dup4\n                /* \"#utility.yul\":2462:2465   */\n              dup4\n                /* \"#utility.yul\":2458:2474   */\n              add\n                /* \"#utility.yul\":2451:2478   */\n              mstore\n                /* \"#utility.yul\":2346:2485   */\n              pop\n              pop\n              pop\n              jump\t// out\n                /* \"#utility.yul\":2491:2593   */\n            tag_185:\n                /* \"#utility.yul\":2532:2538   */\n              0x00\n                /* \"#utility.yul\":2583:2585   */\n              0x1f\n                /* \"#utility.yul\":2579:2586   */\n              not\n                /* \"#utility.yul\":2574:2576   */\n              0x1f\n                /* \"#utility.yul\":2567:2572   */\n              dup4\n                /* \"#utility.yul\":2563:2577   */\n              add\n                /* \"#utility.yul\":2559:2587   */\n              and\n                /* \"#utility.yul\":2549:2587   */\n              swap1\n              pop\n                /* \"#utility.yul\":2491:2593   */\n              swap2\n              swap1\n              pop\n              jump\t// out\n                /* \"#utility.yul\":2599:2972   */\n            tag_186:\n                /* \"#utility.yul\":2685:2688   */\n              0x00\n                /* \"#utility.yul\":2713:2751   */\n              tag_235\n                /* \"#utility.yul\":2745:2750   */\n              dup3\n                /* \"#utility.yul\":2713:2751   */\n              tag_182\n              jump\t// in\n            tag_235:\n                /* \"#utility.yul\":2767:2837   */\n              tag_236\n                /* \"#utility.yul\":2830:2836   */\n              dup2\n                /* \"#utility.yul\":2825:2828   */\n              dup6\n                /* \"#utility.yul\":2767:2837   */\n              tag_183\n              jump\t// in\n            tag_236:\n                /* \"#utility.yul\":2760:2837   */\n              swap4\n              pop\n                /* \"#utility.yul\":2846:2911   */\n              tag_237\n                /* \"#utility.yul\":2904:2910   */\n              dup2\n                /* \"#utility.yul\":2899:2902   */\n              dup6\n                /* \"#utility.yul\":2892:2896   */\n              0x20\n                /* \"#utility.yul\":2885:2890   */\n              dup7\n                /* \"#utility.yul\":2881:2897   */\n              add\n                /* \"#utility.yul\":2846:2911   */\n              tag_184\n              jump\t// in\n            tag_237:\n                /* \"#utility.yul\":2936:2965   */\n              tag_238\n                /* \"#utility.yul\":2958:2964   */\n              dup2\n                /* \"#utility.yul\":2936:2965   */\n              tag_185\n              jump\t// in\n            tag_238:\n                /* \"#utility.yul\":2931:2934   */\n              dup5\n                /* \"#utility.yul\":2927:2966   */\n              add\n                /* \"#utility.yul\":2920:2966   */\n              swap2\n              pop\n                /* \"#utility.yul\":2689:2972   */\n              pop\n                /* \"#utility.yul\":2599:2972   */\n              swap3\n              swap2\n              pop\n              pop\n              jump\t// out\n                /* \"#utility.yul\":2978:3385   */\n            tag_37:\n                /* \"#utility.yul\":3111:3115   */\n              0x00\n                /* \"#utility.yul\":3149:3151   */\n              0x40\n                /* \"#utility.yul\":3138:3147   */\n              dup3\n                /* \"#utility.yul\":3134:3152   */\n              add\n                /* \"#utility.yul\":3126:3152   */\n              swap1\n              pop\n                /* \"#utility.yul\":3162:3227   */\n              tag_240\n                /* \"#utility.yul\":3224:3225   */\n              0x00\n                /* \"#utility.yul\":3213:3222   */\n              dup4\n                /* \"#utility.yul\":3209:3226   */\n              add\n                /* \"#utility.yul\":3200:3206   */\n              dup6\n                /* \"#utility.yul\":3162:3227   */\n              tag_181\n              jump\t// in\n            tag_240:\n                /* \"#utility.yul\":3274:3283   */\n              dup2\n                /* \"#utility.yul\":3268:3272   */\n              dup2\n                /* \"#utility.yul\":3264:3284   */\n              sub\n                /* \"#utility.yul\":3259:3261   */\n              0x20\n                /* \"#utility.yul\":3248:3257   */\n              dup4\n                /* \"#utility.yul\":3244:3262   */\n              add\n                /* \"#utility.yul\":3237:3285   */\n              mstore\n                /* \"#utility.yul\":3302:3378   */\n              tag_241\n                /* \"#utility.yul\":3373:3377   */\n              dup2\n                /* \"#utility.yul\":3364:3370   */\n              dup5\n                /* \"#utility.yul\":3302:3378   */\n              tag_186\n              jump\t// in\n            tag_241:\n                /* \"#utility.yul\":3294:3378   */\n              swap1\n              pop\n                /* \"#utility.yul\":2978:3385   */\n              swap4\n              swap3\n              pop\n              pop\n              pop\n              jump\t// out\n                /* \"#utility.yul\":3391:3517   */\n            tag_187:\n                /* \"#utility.yul\":3428:3435   */\n              0x00\n                /* \"#utility.yul\":3468:3510   */\n              0xffffffffffffffffffffffffffffffffffffffff\n                /* \"#utility.yul\":3461:3466   */\n              dup3\n                /* \"#utility.yul\":3457:3511   */\n              and\n                /* \"#utility.yul\":3446:3511   */\n              swap1\n              pop\n                /* \"#utility.yul\":3391:3517   */\n              swap2\n              swap1\n              pop\n              jump\t// out\n                /* \"#utility.yul\":3523:3619   */\n            tag_188:\n                /* \"#utility.yul\":3560:3567   */\n              0x00\n                /* \"#utility.yul\":3589:3613   */\n              tag_244\n                /* \"#utility.yul\":3607:3612   */\n              dup3\n                /* \"#utility.yul\":3589:3613   */\n              tag_187\n              jump\t// in\n            tag_244:\n                /* \"#utility.yul\":3578:3613   */\n              swap1\n              pop\n                /* \"#utility.yul\":3523:3619   */\n              swap2\n              swap1\n              pop\n              jump\t// out\n                /* \"#utility.yul\":3625:3743   */\n            tag_189:\n                /* \"#utility.yul\":3712:3736   */\n              tag_246\n                /* \"#utility.yul\":3730:3735   */\n              dup2\n                /* \"#utility.yul\":3712:3736   */\n              tag_188\n              jump\t// in\n            tag_246:\n                /* \"#utility.yul\":3707:3710   */\n              dup3\n                /* \"#utility.yul\":3700:3737   */\n              mstore\n                /* \"#utility.yul\":3625:3743   */\n              pop\n              pop\n              jump\t// out\n                /* \"#utility.yul\":3749:3971   */\n            tag_46:\n                /* \"#utility.yul\":3842:3846   */\n              0x00\n                /* \"#utility.yul\":3880:3882   */\n              0x20\n                /* \"#utility.yul\":3869:3878   */\n              dup3\n                /* \"#utility.yul\":3865:3883   */\n              add\n                /* \"#utility.yul\":3857:3883   */\n              swap1\n              pop\n                /* \"#utility.yul\":3893:3964   */\n              tag_248\n                /* \"#utility.yul\":3961:3962   */\n              0x00\n                /* \"#utility.yul\":3950:3959   */\n              dup4\n                /* \"#utility.yul\":3946:3963   */\n              add\n                /* \"#utility.yul\":3937:3943   */\n              dup5\n                /* \"#utility.yul\":3893:3964   */\n              tag_189\n              jump\t// in\n            tag_248:\n                /* \"#utility.yul\":3749:3971   */\n              swap3\n              swap2\n              pop\n              pop\n              jump\t// out\n                /* \"#utility.yul\":3977:4091   */\n            tag_190:\n                /* \"#utility.yul\":4044:4050   */\n              0x00\n                /* \"#utility.yul\":4078:4083   */\n              dup2\n                /* \"#utility.yul\":4072:4084   */\n              mload\n                /* \"#utility.yul\":4062:4084   */\n              swap1\n              pop\n                /* \"#utility.yul\":3977:4091   */\n              swap2\n              swap1\n              pop\n              jump\t// out\n                /* \"#utility.yul\":4097:4281   */\n            tag_191:\n                /* \"#utility.yul\":4196:4207   */\n              0x00\n                /* \"#utility.yul\":4230:4236   */\n              dup3\n                /* \"#utility.yul\":4225:4228   */\n              dup3\n                /* \"#utility.yul\":4218:4237   */\n              mstore\n                /* \"#utility.yul\":4270:4274   */\n              0x20\n                /* \"#utility.yul\":4265:4268   */\n              dup3\n                /* \"#utility.yul\":4261:4275   */\n              add\n                /* \"#utility.yul\":4246:4275   */\n              swap1\n              pop\n                /* \"#utility.yul\":4097:4281   */\n              swap3\n              swap2\n              pop\n              pop\n              jump\t// out\n                /* \"#utility.yul\":4287:4419   */\n            tag_192:\n                /* \"#utility.yul\":4354:4358   */\n              0x00\n                /* \"#utility.yul\":4377:4380   */\n              dup2\n                /* \"#utility.yul\":4369:4380   */\n              swap1\n              pop\n                /* \"#utility.yul\":4407:4411   */\n              0x20\n                /* \"#utility.yul\":4402:4405   */\n              dup3\n                /* \"#utility.yul\":4398:4412   */\n              add\n                /* \"#utility.yul\":4390:4412   */\n              swap1\n              pop\n                /* \"#utility.yul\":4287:4419   */\n              swap2\n              swap1\n              pop\n              jump\t// out\n                /* \"#utility.yul\":4425:4533   */\n            tag_193:\n                /* \"#utility.yul\":4502:4526   */\n              tag_253\n                /* \"#utility.yul\":4520:4525   */\n              dup2\n                /* \"#utility.yul\":4502:4526   */\n              tag_188\n              jump\t// in\n            tag_253:\n                /* \"#utility.yul\":4497:4500   */\n              dup3\n                /* \"#utility.yul\":4490:4527   */\n              mstore\n                /* \"#utility.yul\":4425:4533   */\n              pop\n              pop\n              jump\t// out\n                /* \"#utility.yul\":4539:4718   */\n            tag_194:\n                /* \"#utility.yul\":4608:4618   */\n              0x00\n                /* \"#utility.yul\":4629:4675   */\n              tag_255\n                /* \"#utility.yul\":4671:4674   */\n              dup4\n                /* \"#utility.yul\":4663:4669   */\n              dup4\n                /* \"#utility.yul\":4629:4675   */\n              tag_193\n              jump\t// in\n            tag_255:\n                /* \"#utility.yul\":4707:4711   */\n              0x20\n                /* \"#utility.yul\":4702:4705   */\n              dup4\n                /* \"#utility.yul\":4698:4712   */\n              add\n                /* \"#utility.yul\":4684:4712   */\n              swap1\n              pop\n                /* \"#utility.yul\":4539:4718   */\n              swap3\n              swap2\n              pop\n              pop\n              jump\t// out\n                /* \"#utility.yul\":4724:4837   */\n            tag_195:\n                /* \"#utility.yul\":4794:4798   */\n              0x00\n                /* \"#utility.yul\":4826:4830   */\n              0x20\n                /* \"#utility.yul\":4821:4824   */\n              dup3\n                /* \"#utility.yul\":4817:4831   */\n              add\n                /* \"#utility.yul\":4809:4831   */\n              swap1\n              pop\n                /* \"#utility.yul\":4724:4837   */\n              swap2\n              swap1\n              pop\n              jump\t// out\n                /* \"#utility.yul\":4873:5605   */\n            tag_196:\n                /* \"#utility.yul\":4992:4995   */\n              0x00\n                /* \"#utility.yul\":5021:5075   */\n              tag_258\n                /* \"#utility.yul\":5069:5074   */\n              dup3\n                /* \"#utility.yul\":5021:5075   */\n              tag_190\n              jump\t// in\n            tag_258:\n                /* \"#utility.yul\":5091:5177   */\n              tag_259\n                /* \"#utility.yul\":5170:5176   */\n              dup2\n                /* \"#utility.yul\":5165:5168   */\n              dup6\n                /* \"#utility.yul\":5091:5177   */\n              tag_191\n              jump\t// in\n            tag_259:\n                /* \"#utility.yul\":5084:5177   */\n              swap4\n              pop\n                /* \"#utility.yul\":5201:5257   */\n              tag_260\n                /* \"#utility.yul\":5251:5256   */\n              dup4\n                /* \"#utility.yul\":5201:5257   */\n              tag_192\n              jump\t// in\n            tag_260:\n                /* \"#utility.yul\":5280:5287   */\n              dup1\n                /* \"#utility.yul\":5311:5312   */\n              0x00\n                /* \"#utility.yul\":5296:5580   */\n            tag_261:\n                /* \"#utility.yul\":5321:5327   */\n              dup4\n                /* \"#utility.yul\":5318:5319   */\n              dup2\n                /* \"#utility.yul\":5315:5328   */\n              lt\n                /* \"#utility.yul\":5296:5580   */\n              iszero\n              tag_263\n              jumpi\n                /* \"#utility.yul\":5397:5403   */\n              dup2\n                /* \"#utility.yul\":5391:5404   */\n              mload\n                /* \"#utility.yul\":5424:5487   */\n              tag_264\n                /* \"#utility.yul\":5483:5486   */\n              dup9\n                /* \"#utility.yul\":5468:5481   */\n              dup3\n                /* \"#utility.yul\":5424:5487   */\n              tag_194\n              jump\t// in\n            tag_264:\n                /* \"#utility.yul\":5417:5487   */\n              swap8\n              pop\n                /* \"#utility.yul\":5510:5570   */\n              tag_265\n                /* \"#utility.yul\":5563:5569   */\n              dup4\n                /* \"#utility.yul\":5510:5570   */\n              tag_195\n              jump\t// in\n            tag_265:\n                /* \"#utility.yul\":5500:5570   */\n              swap3\n              pop\n                /* \"#utility.yul\":5356:5580   */\n              pop\n                /* \"#utility.yul\":5343:5344   */\n              0x01\n                /* \"#utility.yul\":5340:5341   */\n              dup2\n                /* \"#utility.yul\":5336:5345   */\n              add\n                /* \"#utility.yul\":5331:5345   */\n              swap1\n              pop\n                /* \"#utility.yul\":5296:5580   */\n              jump(tag_261)\n            tag_263:\n                /* \"#utility.yul\":5300:5314   */\n              pop\n                /* \"#utility.yul\":5596:5599   */\n              dup6\n                /* \"#utility.yul\":5589:5599   */\n              swap4\n              pop\n                /* \"#utility.yul\":4997:5605   */\n              pop\n              pop\n              pop\n                /* \"#utility.yul\":4873:5605   */\n              swap3\n              swap2\n              pop\n              pop\n              jump\t// out\n                /* \"#utility.yul\":5611:5984   */\n            tag_64:\n                /* \"#utility.yul\":5754:5758   */\n              0x00\n                /* \"#utility.yul\":5792:5794   */\n              0x20\n                /* \"#utility.yul\":5781:5790   */\n              dup3\n                /* \"#utility.yul\":5777:5795   */\n              add\n                /* \"#utility.yul\":5769:5795   */\n              swap1\n              pop\n                /* \"#utility.yul\":5841:5850   */\n              dup2\n                /* \"#utility.yul\":5835:5839   */\n              dup2\n                /* \"#utility.yul\":5831:5851   */\n              sub\n                /* \"#utility.yul\":5827:5828   */\n              0x00\n                /* \"#utility.yul\":5816:5825   */\n              dup4\n                /* \"#utility.yul\":5812:5829   */\n              add\n                /* \"#utility.yul\":5805:5852   */\n              mstore\n                /* \"#utility.yul\":5869:5977   */\n              tag_267\n                /* \"#utility.yul\":5972:5976   */\n              dup2\n                /* \"#utility.yul\":5963:5969   */\n              dup5\n                /* \"#utility.yul\":5869:5977   */\n              tag_196\n              jump\t// in\n            tag_267:\n                /* \"#utility.yul\":5861:5977   */\n              swap1\n              pop\n                /* \"#utility.yul\":5611:5984   */\n              swap3\n              swap2\n              pop\n              pop\n              jump\t// out\n                /* \"#utility.yul\":5990:6112   */\n            tag_197:\n                /* \"#utility.yul\":6063:6087   */\n              tag_269\n                /* \"#utility.yul\":6081:6086   */\n              dup2\n                /* \"#utility.yul\":6063:6087   */\n              tag_188\n              jump\t// in\n            tag_269:\n                /* \"#utility.yul\":6056:6061   */\n              dup2\n                /* \"#utility.yul\":6053:6088   */\n              eq\n                /* \"#utility.yul\":6043:6106   */\n              tag_270\n              jumpi\n                /* \"#utility.yul\":6102:6103   */\n              0x00\n                /* \"#utility.yul\":6099:6100   */\n              0x00\n                /* \"#utility.yul\":6092:6104   */\n              revert\n                /* \"#utility.yul\":6043:6106   */\n            tag_270:\n                /* \"#utility.yul\":5990:6112   */\n              pop\n              jump\t// out\n                /* \"#utility.yul\":6118:6257   */\n            tag_198:\n                /* \"#utility.yul\":6164:6169   */\n              0x00\n                /* \"#utility.yul\":6202:6208   */\n              dup2\n                /* \"#utility.yul\":6189:6209   */\n              calldataload\n                /* \"#utility.yul\":6180:6209   */\n              swap1\n              pop\n                /* \"#utility.yul\":6218:6251   */\n              tag_272\n                /* \"#utility.yul\":6245:6250   */\n              dup2\n                /* \"#utility.yul\":6218:6251   */\n              tag_197\n              jump\t// in\n            tag_272:\n                /* \"#utility.yul\":6118:6257   */\n              swap3\n              swap2\n              pop\n              pop\n              jump\t// out\n                /* \"#utility.yul\":6263:6737   */\n            tag_70:\n                /* \"#utility.yul\":6331:6337   */\n              0x00\n                /* \"#utility.yul\":6339:6345   */\n              0x00\n                /* \"#utility.yul\":6388:6390   */\n              0x40\n                /* \"#utility.yul\":6376:6385   */\n              dup4\n                /* \"#utility.yul\":6367:6374   */\n              dup6\n                /* \"#utility.yul\":6363:6386   */\n              sub\n                /* \"#utility.yul\":6359:6391   */\n              slt\n                /* \"#utility.yul\":6356:6475   */\n              iszero\n              tag_274\n              jumpi\n                /* \"#utility.yul\":6394:6473   */\n              tag_275\n              tag_174\n              jump\t// in\n            tag_275:\n                /* \"#utility.yul\":6356:6475   */\n            tag_274:\n                /* \"#utility.yul\":6514:6515   */\n              0x00\n                /* \"#utility.yul\":6539:6592   */\n              tag_276\n                /* \"#utility.yul\":6584:6591   */\n              dup6\n                /* \"#utility.yul\":6575:6581   */\n              dup3\n                /* \"#utility.yul\":6564:6573   */\n              dup7\n                /* \"#utility.yul\":6560:6582   */\n              add\n                /* \"#utility.yul\":6539:6592   */\n              tag_178\n              jump\t// in\n            tag_276:\n                /* \"#utility.yul\":6529:6592   */\n              swap3\n              pop\n                /* \"#utility.yul\":6485:6602   */\n              pop\n                /* \"#utility.yul\":6641:6643   */\n              0x20\n                /* \"#utility.yul\":6667:6720   */\n              tag_277\n                /* \"#utility.yul\":6712:6719   */\n              dup6\n                /* \"#utility.yul\":6703:6709   */\n              dup3\n                /* \"#utility.yul\":6692:6701   */\n              dup7\n                /* \"#utility.yul\":6688:6710   */\n              add\n                /* \"#utility.yul\":6667:6720   */\n              tag_198\n              jump\t// in\n            tag_277:\n                /* \"#utility.yul\":6657:6720   */\n              swap2\n              pop\n                /* \"#utility.yul\":6612:6730   */\n              pop\n                /* \"#utility.yul\":6263:6737   */\n              swap3\n              pop\n              swap3\n              swap1\n              pop\n              jump\t// out\n                /* \"#utility.yul\":6743:7072   */\n            tag_75:\n                /* \"#utility.yul\":6802:6808   */\n              0x00\n                /* \"#utility.yul\":6851:6853   */\n              0x20\n                /* \"#utility.yul\":6839:6848   */\n              dup3\n                /* \"#utility.yul\":6830:6837   */\n              dup5\n                /* \"#utility.yul\":6826:6849   */\n              sub\n                /* \"#utility.yul\":6822:6854   */\n              slt\n                /* \"#utility.yul\":6819:6938   */\n              iszero\n              tag_279\n              jumpi\n                /* \"#utility.yul\":6857:6936   */\n              tag_280\n              tag_174\n              jump\t// in\n            tag_280:\n                /* \"#utility.yul\":6819:6938   */\n            tag_279:\n                /* \"#utility.yul\":6977:6978   */\n              0x00\n                /* \"#utility.yul\":7002:7055   */\n              tag_281\n                /* \"#utility.yul\":7047:7054   */\n              dup5\n                /* \"#utility.yul\":7038:7044   */\n              dup3\n                /* \"#utility.yul\":7027:7036   */\n              dup6\n                /* \"#utility.yul\":7023:7045   */\n              add\n                /* \"#utility.yul\":7002:7055   */\n              tag_198\n              jump\t// in\n            tag_281:\n                /* \"#utility.yul\":6992:7055   */\n              swap2\n              pop\n                /* \"#utility.yul\":6948:7065   */\n              pop\n                /* \"#utility.yul\":6743:7072   */\n              swap3\n              swap2\n              pop\n              pop\n              jump\t// out\n                /* \"#utility.yul\":7078:7258   */\n            tag_199:\n                /* \"#utility.yul\":7126:7203   */\n              0x4e487b7100000000000000000000000000000000000000000000000000000000\n                /* \"#utility.yul\":7123:7124   */\n              0x00\n                /* \"#utility.yul\":7116:7204   */\n              mstore\n                /* \"#utility.yul\":7223:7227   */\n              0x12\n                /* \"#utility.yul\":7220:7221   */\n              0x04\n                /* \"#utility.yul\":7213:7228   */\n              mstore\n                /* \"#utility.yul\":7247:7251   */\n              0x24\n                /* \"#utility.yul\":7244:7245   */\n              0x00\n                /* \"#utility.yul\":7237:7252   */\n              revert\n                /* \"#utility.yul\":7264:7444   */\n            tag_200:\n                /* \"#utility.yul\":7312:7389   */\n              0x4e487b7100000000000000000000000000000000000000000000000000000000\n                /* \"#utility.yul\":7309:7310   */\n              0x00\n                /* \"#utility.yul\":7302:7390   */\n              mstore\n                /* \"#utility.yul\":7409:7413   */\n              0x11\n                /* \"#utility.yul\":7406:7407   */\n              0x04\n                /* \"#utility.yul\":7399:7414   */\n              mstore\n                /* \"#utility.yul\":7433:7437   */\n              0x24\n                /* \"#utility.yul\":7430:7431   */\n              0x00\n                /* \"#utility.yul\":7423:7438   */\n              revert\n                /* \"#utility.yul\":7450:7635   */\n            tag_80:\n                /* \"#utility.yul\":7490:7491   */\n              0x00\n                /* \"#utility.yul\":7507:7527   */\n              tag_285\n                /* \"#utility.yul\":7525:7526   */\n              dup3\n                /* \"#utility.yul\":7507:7527   */\n              tag_176\n              jump\t// in\n            tag_285:\n                /* \"#utility.yul\":7502:7527   */\n              swap2\n              pop\n                /* \"#utility.yul\":7541:7561   */\n              tag_286\n                /* \"#utility.yul\":7559:7560   */\n              dup4\n                /* \"#utility.yul\":7541:7561   */\n              tag_176\n              jump\t// in\n            tag_286:\n                /* \"#utility.yul\":7536:7561   */\n              swap3\n              pop\n                /* \"#utility.yul\":7580:7581   */\n              dup3\n                /* \"#utility.yul\":7570:7605   */\n              tag_287\n              jumpi\n                /* \"#utility.yul\":7585:7603   */\n              tag_288\n              tag_199\n              jump\t// in\n            tag_288:\n                /* \"#utility.yul\":7570:7605   */\n            tag_287:\n                /* \"#utility.yul\":7627:7628   */\n              dup3\n                /* \"#utility.yul\":7624:7625   */\n              dup3\n                /* \"#utility.yul\":7620:7629   */\n              div\n                /* \"#utility.yul\":7615:7629   */\n              swap1\n              pop\n                /* \"#utility.yul\":7450:7635   */\n              swap3\n              swap2\n              pop\n              pop\n              jump\t// out\n                /* \"#utility.yul\":7641:7835   */\n            tag_85:\n                /* \"#utility.yul\":7681:7685   */\n              0x00\n                /* \"#utility.yul\":7701:7721   */\n              tag_290\n                /* \"#utility.yul\":7719:7720   */\n              dup3\n                /* \"#utility.yul\":7701:7721   */\n              tag_176\n              jump\t// in\n            tag_290:\n                /* \"#utility.yul\":7696:7721   */\n              swap2\n              pop\n                /* \"#utility.yul\":7735:7755   */\n              tag_291\n                /* \"#utility.yul\":7753:7754   */\n              dup4\n                /* \"#utility.yul\":7735:7755   */\n              tag_176\n              jump\t// in\n            tag_291:\n                /* \"#utility.yul\":7730:7755   */\n              swap3\n              pop\n                /* \"#utility.yul\":7779:7780   */\n              dup3\n                /* \"#utility.yul\":7776:7777   */\n              dup3\n                /* \"#utility.yul\":7772:7781   */\n              sub\n                /* \"#utility.yul\":7764:7781   */\n              swap1\n              pop\n                /* \"#utility.yul\":7803:7804   */\n              dup2\n                /* \"#utility.yul\":7797:7801   */\n              dup2\n                /* \"#utility.yul\":7794:7805   */\n              gt\n                /* \"#utility.yul\":7791:7828   */\n              iszero\n              tag_292\n              jumpi\n                /* \"#utility.yul\":7808:7826   */\n              tag_293\n              tag_200\n              jump\t// in\n            tag_293:\n                /* \"#utility.yul\":7791:7828   */\n            tag_292:\n                /* \"#utility.yul\":7641:7835   */\n              swap3\n              swap2\n              pop\n              pop\n              jump\t// out\n                /* \"#utility.yul\":7841:8021   */\n            tag_88:\n                /* \"#utility.yul\":7889:7966   */\n              0x4e487b7100000000000000000000000000000000000000000000000000000000\n                /* \"#utility.yul\":7886:7887   */\n              0x00\n                /* \"#utility.yul\":7879:7967   */\n              mstore\n                /* \"#utility.yul\":7986:7990   */\n              0x32\n                /* \"#utility.yul\":7983:7984   */\n              0x04\n                /* \"#utility.yul\":7976:7991   */\n              mstore\n                /* \"#utility.yul\":8010:8014   */\n              0x24\n                /* \"#utility.yul\":8007:8008   */\n              0x00\n                /* \"#utility.yul\":8000:8015   */\n              revert\n                /* \"#utility.yul\":8027:8260   */\n            tag_101:\n                /* \"#utility.yul\":8066:8069   */\n              0x00\n                /* \"#utility.yul\":8089:8113   */\n              tag_296\n                /* \"#utility.yul\":8107:8112   */\n              dup3\n                /* \"#utility.yul\":8089:8113   */\n              tag_176\n              jump\t// in\n            tag_296:\n                /* \"#utility.yul\":8080:8113   */\n              swap2\n              pop\n                /* \"#utility.yul\":8135:8201   */\n              0xffffffffffffffffffffffffffffffffffffffffffffffffffffffffffffffff\n                /* \"#utility.yul\":8128:8133   */\n              dup3\n                /* \"#utility.yul\":8125:8202   */\n              sub\n                /* \"#utility.yul\":8122:8225   */\n              tag_297\n              jumpi\n                /* \"#utility.yul\":8205:8223   */\n              tag_298\n              tag_200\n              jump\t// in\n            tag_298:\n                /* \"#utility.yul\":8122:8225   */\n            tag_297:\n                /* \"#utility.yul\":8252:8253   */\n              0x01\n                /* \"#utility.yul\":8245:8250   */\n              dup3\n                /* \"#utility.yul\":8241:8254   */\n              add\n                /* \"#utility.yul\":8234:8254   */\n              swap1\n              pop\n                /* \"#utility.yul\":8027:8260   */\n              swap2\n              swap1\n              pop\n              jump\t// out\n                /* \"#utility.yul\":8266:8413   */\n            tag_201:\n                /* \"#utility.yul\":8367:8378   */\n              0x00\n                /* \"#utility.yul\":8404:8407   */\n              dup2\n                /* \"#utility.yul\":8389:8407   */\n              swap1\n              pop\n                /* \"#utility.yul\":8266:8413   */\n              swap3\n              swap2\n              pop\n              pop\n              jump\t// out\n                /* \"#utility.yul\":8419:8533   */\n            tag_202:\n              pop\n              jump\t// out\n                /* \"#utility.yul\":8539:8937   */\n            tag_203:\n                /* \"#utility.yul\":8698:8701   */\n              0x00\n                /* \"#utility.yul\":8719:8802   */\n              tag_302\n                /* \"#utility.yul\":8800:8801   */\n              0x00\n                /* \"#utility.yul\":8795:8798   */\n              dup4\n                /* \"#utility.yul\":8719:8802   */\n              tag_201\n              jump\t// in\n            tag_302:\n                /* \"#utility.yul\":8712:8802   */\n              swap2\n              pop\n                /* \"#utility.yul\":8811:8904   */\n              tag_303\n                /* \"#utility.yul\":8900:8903   */\n              dup3\n                /* \"#utility.yul\":8811:8904   */\n              tag_202\n              jump\t// in\n            tag_303:\n                /* \"#utility.yul\":8929:8930   */\n              0x00\n                /* \"#utility.yul\":8924:8927   */\n              dup3\n                /* \"#utility.yul\":8920:8931   */\n              add\n                /* \"#utility.yul\":8913:8931   */\n              swap1\n              pop\n                /* \"#utility.yul\":8539:8937   */\n              swap2\n              swap1\n              pop\n              jump\t// out\n                /* \"#utility.yul\":8943:9322   */\n            tag_107:\n                /* \"#utility.yul\":9127:9130   */\n              0x00\n                /* \"#utility.yul\":9149:9296   */\n              tag_305\n                /* \"#utility.yul\":9292:9295   */\n              dup3\n                /* \"#utility.yul\":9149:9296   */\n              tag_203\n              jump\t// in\n            tag_305:\n                /* \"#utility.yul\":9142:9296   */\n              swap2\n              pop\n                /* \"#utility.yul\":9313:9316   */\n              dup2\n                /* \"#utility.yul\":9306:9316   */\n              swap1\n              pop\n                /* \"#utility.yul\":8943:9322   */\n              swap2\n              swap1\n              pop\n              jump\t// out\n                /* \"#utility.yul\":9328:9508   */\n            tag_116:\n                /* \"#utility.yul\":9376:9453   */\n              0x4e487b7100000000000000000000000000000000000000000000000000000000\n                /* \"#utility.yul\":9373:9374   */\n              0x00\n                /* \"#utility.yul\":9366:9454   */\n              mstore\n                /* \"#utility.yul\":9473:9477   */\n              0x31\n                /* \"#utility.yul\":9470:9471   */\n              0x04\n                /* \"#utility.yul\":9463:9478   */\n              mstore\n                /* \"#utility.yul\":9497:9501   */\n              0x24\n                /* \"#utility.yul\":9494:9495   */\n              0x00\n                /* \"#utility.yul\":9487:9502   */\n              revert\n                /* \"#utility.yul\":9514:9705   */\n            tag_138:\n                /* \"#utility.yul\":9554:9557   */\n              0x00\n                /* \"#utility.yul\":9573:9593   */\n              tag_308\n                /* \"#utility.yul\":9591:9592   */\n              dup3\n                /* \"#utility.yul\":9573:9593   */\n              tag_176\n              jump\t// in\n            tag_308:\n                /* \"#utility.yul\":9568:9593   */\n              swap2\n              pop\n                /* \"#utility.yul\":9607:9627   */\n              tag_309\n                /* \"#utility.yul\":9625:9626   */\n              dup4\n                /* \"#utility.yul\":9607:9627   */\n              tag_176\n              jump\t// in\n            tag_309:\n                /* \"#utility.yul\":9602:9627   */\n              swap3\n              pop\n                /* \"#utility.yul\":9650:9651   */\n              dup3\n                /* \"#utility.yul\":9647:9648   */\n              dup3\n                /* \"#utility.yul\":9643:9652   */\n              add\n                /* \"#utility.yul\":9636:9652   */\n              swap1\n              pop\n                /* \"#utility.yul\":9671:9674   */\n              dup1\n                /* \"#utility.yul\":9668:9669   */\n              dup3\n                /* \"#utility.yul\":9665:9675   */\n              gt\n                /* \"#utility.yul\":9662:9698   */\n              iszero\n              tag_310\n              jumpi\n                /* \"#utility.yul\":9678:9696   */\n              tag_311\n              tag_200\n              jump\t// in\n            tag_311:\n                /* \"#utility.yul\":9662:9698   */\n            tag_310:\n                /* \"#utility.yul\":9514:9705   */\n              swap3\n              swap2\n              pop\n              pop\n              jump\t// out\n\n            auxdata: 0xa2646970667358221220635371532cb6fcb2085328474eb382a340542a4163ddc5ff42dc8daa7a93904f64736f6c634300081c0033\n        }\n    }\n\n    auxdata: 0xa2646970667358221220d7aec8655b1b07e3f1db495d66a516f1829721c72bb50a83976570ed14fbe50b64736f6c634300081c0033\n}\n",
				"bytecode": {
					"linkReferences": {},
					"object": "6080604052348015600e575f5ffd5b5061164d8061001c5f395ff3fe608060405234801561000f575f5ffd5b5060043610610029575f3560e01c80634ba7e49b1461002d575b5f5ffd5b6100476004803603810190610042919061015f565b61005d565b6040516100549190610224565b60405180910390f35b5f3360405161006b906100e9565b610075919061025d565b604051809103905ff08015801561008e573d5f5f3e3d5ffd5b5090503373ffffffffffffffffffffffffffffffffffffffff167faa181765ea3f539430119be84b51159f3f76e080c5eed3adcba2bd61733990e78285856040516100db939291906102d0565b60405180910390a292915050565b6113178061030183390190565b5f5ffd5b5f5ffd5b5f5ffd5b5f5ffd5b5f5ffd5b5f5f83601f84011261011f5761011e6100fe565b5b8235905067ffffffffffffffff81111561013c5761013b610102565b5b60208301915083600182028301111561015857610157610106565b5b9250929050565b5f5f60208385031215610175576101746100f6565b5b5f83013567ffffffffffffffff811115610192576101916100fa565b5b61019e8582860161010a565b92509250509250929050565b5f73ffffffffffffffffffffffffffffffffffffffff82169050919050565b5f819050919050565b5f6101ec6101e76101e2846101aa565b6101c9565b6101aa565b9050919050565b5f6101fd826101d2565b9050919050565b5f61020e826101f3565b9050919050565b61021e81610204565b82525050565b5f6020820190506102375f830184610215565b92915050565b5f610247826101aa565b9050919050565b6102578161023d565b82525050565b5f6020820190506102705f83018461024e565b92915050565b5f82825260208201905092915050565b828183375f83830152505050565b5f601f19601f8301169050919050565b5f6102af8385610276565b93506102bc838584610286565b6102c583610294565b840190509392505050565b5f6040820190506102e35f830186610215565b81810360208301526102f68184866102a4565b905094935050505056fe608060405242600155348015610013575f5ffd5b50604051611317380380611317833981810160405281019061003591906101db565b805f73ffffffffffffffffffffffffffffffffffffffff168173ffffffffffffffffffffffffffffffffffffffff16036100a6575f6040517f1e4fbdf700000000000000000000000000000000000000000000000000000000815260040161009d9190610215565b60405180910390fd5b6100b5816100bc60201b60201c565b505061022e565b5f5f5f9054906101000a900473ffffffffffffffffffffffffffffffffffffffff169050815f5f6101000a81548173ffffffffffffffffffffffffffffffffffffffff021916908373ffffffffffffffffffffffffffffffffffffffff1602179055508173ffffffffffffffffffffffffffffffffffffffff168173ffffffffffffffffffffffffffffffffffffffff167f8be0079c531659141344cd1fd0a4f28419497f9722a3daafe3b4186f6b6457e060405160405180910390a35050565b5f5ffd5b5f73ffffffffffffffffffffffffffffffffffffffff82169050919050565b5f6101aa82610181565b9050919050565b6101ba816101a0565b81146101c4575f5ffd5b50565b5f815190506101d5816101b1565b92915050565b5f602082840312156101f0576101ef61017d565b5b5f6101fd848285016101c7565b91505092915050565b61020f816101a0565b82525050565b5f6020820190506102285f830184610206565b92915050565b6110dc8061023b5f395ff3fe6080604052600436106100c1575f3560e01c8063715018a61161007e57806399f9863e1161005857806399f9863e14610258578063a274329614610294578063c80fbe4e146102b0578063f2fde38b146102cc576100c1565b8063715018a6146101dc578063767ed653146101f25780638da5cb5b1461022e576100c1565b806308e89e46146100c557806335508e561461010157806336eef9691461013d5780634e71d92d146101595780635dcfb4fa14610184578063670815a9146101a0575b5f5ffd5b3480156100d0575f5ffd5b506100eb60048036038101906100e69190610bc9565b6102f4565b6040516100f89190610c03565b60405180910390f35b34801561010c575f5ffd5b5061012760048036038101906101229190610bc9565b610318565b6040516101349190610c03565b60405180910390f35b61015760048036038101906101529190610c1c565b61032d565b005b348015610164575f5ffd5b5061016d6104ee565b60405161017b929190610ce4565b60405180910390f35b61019e60048036038101906101999190610bc9565b610565565b005b3480156101ab575f5ffd5b506101c660048036038101906101c19190610c1c565b6105f5565b6040516101d39190610d51565b60405180910390f35b3480156101e7575f5ffd5b506101f061063d565b005b3480156101fd575f5ffd5b5061021860048036038101906102139190610bc9565b610650565b6040516102259190610c03565b60405180910390f35b348015610239575f5ffd5b5061024261068e565b60405161024f9190610d51565b60405180910390f35b348015610263575f5ffd5b5061027e60048036038101906102799190610bc9565b6106b5565b60405161028b9190610e21565b60405180910390f35b6102ae60048036038101906102a99190610c1c565b610751565b005b6102ca60048036038101906102c59190610e6b565b610912565b005b3480156102d7575f5ffd5b506102f260048036038101906102ed9190610ea9565b6109bf565b005b5f6102fe82610650565b670de0b6b3a76400006103119190610f2e565b9050919050565b6002602052805f5260405f205f915090505481565b610336826102f4565b341015610341575f5ffd5b5f60035f8481526020019081526020015f206001836103609190610f5e565b8154811061037157610370610f91565b5b905f5260205f20015f9054906101000a900473ffffffffffffffffffffffffffffffffffffffff16905060035f8481526020019081526020015f2082815481106103be576103bd610f91565b5b905f5260205f20015f9054906101000a900473ffffffffffffffffffffffffffffffffffffffff1660035f8581526020019081526020015f206001846104049190610f5e565b8154811061041557610414610f91565b5b905f5260205f20015f6101000a81548173ffffffffffffffffffffffffffffffffffffffff021916908373ffffffffffffffffffffffffffffffffffffffff1602179055508060035f8581526020019081526020015f20838154811061047e5761047d610f91565b5b905f5260205f20015f6101000a81548173ffffffffffffffffffffffffffffffffffffffff021916908373ffffffffffffffffffffffffffffffffffffffff16021790555060025f8481526020019081526020015f205f8154809291906104e490610fbe565b9190505550505050565b5f60606104f9610a43565b3373ffffffffffffffffffffffffffffffffffffffff164760405161051d90611032565b5f6040518083038185875af1925050503d805f8114610557576040519150601f19603f3d011682016040523d82523d5f602084013e61055c565b606091505b50915091509091565b61056e816102f4565b341015610579575f5ffd5b60035f8281526020019081526020015f2080548061059a57610599611046565b5b600190038181905f5260205f20015f6101000a81549073ffffffffffffffffffffffffffffffffffffffff0219169055905560025f8281526020019081526020015f205f8154809291906105ed90610fbe565b919050555050565b6003602052815f5260405f20818154811061060e575f80fd5b905f5260205f20015f915091509054906101000a900473ffffffffffffffffffffffffffffffffffffffff1681565b610645610a43565b61064e5f610aca565b565b5f60025f8381526020019081526020015f2054603c600154426106739190610f5e565b61067d9190610f2e565b6106879190610f5e565b9050919050565b5f5f5f9054906101000a900473ffffffffffffffffffffffffffffffffffffffff16905090565b606060035f8381526020019081526020015f2080548060200260200160405190810160405280929190818152602001828054801561074557602002820191905f5260205f20905b815f9054906101000a900473ffffffffffffffffffffffffffffffffffffffff1673ffffffffffffffffffffffffffffffffffffffff16815260200190600101908083116106fc575b50505050509050919050565b61075a826102f4565b341015610765575f5ffd5b5f60035f8481526020019081526020015f206001836107849190611073565b8154811061079557610794610f91565b5b905f5260205f20015f9054906101000a900473ffffffffffffffffffffffffffffffffffffffff16905060035f8481526020019081526020015f2082815481106107e2576107e1610f91565b5b905f5260205f20015f9054906101000a900473ffffffffffffffffffffffffffffffffffffffff1660035f8581526020019081526020015f206001846108289190611073565b8154811061083957610838610f91565b5b905f5260205f20015f6101000a81548173ffffffffffffffffffffffffffffffffffffffff021916908373ffffffffffffffffffffffffffffffffffffffff1602179055508060035f8581526020019081526020015f2083815481106108a2576108a1610f91565b5b905f5260205f20015f6101000a81548173ffffffffffffffffffffffffffffffffffffffff021916908373ffffffffffffffffffffffffffffffffffffffff16021790555060025f8481526020019081526020015f205f81548092919061090890610fbe565b9190505550505050565b61091b826102f4565b341015610926575f5ffd5b60035f8381526020019081526020015f2081908060018154018082558091505060019003905f5260205f20015f9091909190916101000a81548173ffffffffffffffffffffffffffffffffffffffff021916908373ffffffffffffffffffffffffffffffffffffffff16021790555060025f8381526020019081526020015f205f8154809291906109b690610fbe565b91905055505050565b6109c7610a43565b5f73ffffffffffffffffffffffffffffffffffffffff168173ffffffffffffffffffffffffffffffffffffffff1603610a37575f6040517f1e4fbdf7000000000000000000000000000000000000000000000000000000008152600401610a2e9190610d51565b60405180910390fd5b610a4081610aca565b50565b610a4b610b8b565b73ffffffffffffffffffffffffffffffffffffffff16610a6961068e565b73ffffffffffffffffffffffffffffffffffffffff1614610ac857610a8c610b8b565b6040517f118cdaa7000000000000000000000000000000000000000000000000000000008152600401610abf9190610d51565b60405180910390fd5b565b5f5f5f9054906101000a900473ffffffffffffffffffffffffffffffffffffffff169050815f5f6101000a81548173ffffffffffffffffffffffffffffffffffffffff021916908373ffffffffffffffffffffffffffffffffffffffff1602179055508173ffffffffffffffffffffffffffffffffffffffff168173ffffffffffffffffffffffffffffffffffffffff167f8be0079c531659141344cd1fd0a4f28419497f9722a3daafe3b4186f6b6457e060405160405180910390a35050565b5f33905090565b5f5ffd5b5f819050919050565b610ba881610b96565b8114610bb2575f5ffd5b50565b5f81359050610bc381610b9f565b92915050565b5f60208284031215610bde57610bdd610b92565b5b5f610beb84828501610bb5565b91505092915050565b610bfd81610b96565b82525050565b5f602082019050610c165f830184610bf4565b92915050565b5f5f60408385031215610c3257610c31610b92565b5b5f610c3f85828601610bb5565b9250506020610c5085828601610bb5565b9150509250929050565b5f8115159050919050565b610c6e81610c5a565b82525050565b5f81519050919050565b5f82825260208201905092915050565b8281835e5f83830152505050565b5f601f19601f8301169050919050565b5f610cb682610c74565b610cc08185610c7e565b9350610cd0818560208601610c8e565b610cd981610c9c565b840191505092915050565b5f604082019050610cf75f830185610c65565b8181036020830152610d098184610cac565b90509392505050565b5f73ffffffffffffffffffffffffffffffffffffffff82169050919050565b5f610d3b82610d12565b9050919050565b610d4b81610d31565b82525050565b5f602082019050610d645f830184610d42565b92915050565b5f81519050919050565b5f82825260208201905092915050565b5f819050602082019050919050565b610d9c81610d31565b82525050565b5f610dad8383610d93565b60208301905092915050565b5f602082019050919050565b5f610dcf82610d6a565b610dd98185610d74565b9350610de483610d84565b805f5b83811015610e14578151610dfb8882610da2565b9750610e0683610db9565b925050600181019050610de7565b5085935050505092915050565b5f6020820190508181035f830152610e398184610dc5565b905092915050565b610e4a81610d31565b8114610e54575f5ffd5b50565b5f81359050610e6581610e41565b92915050565b5f5f60408385031215610e8157610e80610b92565b5b5f610e8e85828601610bb5565b9250506020610e9f85828601610e57565b9150509250929050565b5f60208284031215610ebe57610ebd610b92565b5b5f610ecb84828501610e57565b91505092915050565b7f4e487b71000000000000000000000000000000000000000000000000000000005f52601260045260245ffd5b7f4e487b71000000000000000000000000000000000000000000000000000000005f52601160045260245ffd5b5f610f3882610b96565b9150610f4383610b96565b925082610f5357610f52610ed4565b5b828204905092915050565b5f610f6882610b96565b9150610f7383610b96565b9250828203905081811115610f8b57610f8a610f01565b5b92915050565b7f4e487b71000000000000000000000000000000000000000000000000000000005f52603260045260245ffd5b5f610fc882610b96565b91507fffffffffffffffffffffffffffffffffffffffffffffffffffffffffffffffff8203610ffa57610ff9610f01565b5b600182019050919050565b5f81905092915050565b50565b5f61101d5f83611005565b91506110288261100f565b5f82019050919050565b5f61103c82611012565b9150819050919050565b7f4e487b71000000000000000000000000000000000000000000000000000000005f52603160045260245ffd5b5f61107d82610b96565b915061108883610b96565b92508282019050808211156110a05761109f610f01565b5b9291505056fea2646970667358221220635371532cb6fcb2085328474eb382a340542a4163ddc5ff42dc8daa7a93904f64736f6c634300081c0033a2646970667358221220d7aec8655b1b07e3f1db495d66a516f1829721c72bb50a83976570ed14fbe50b64736f6c634300081c0033",
					"opcodes": "PUSH1 0x80 PUSH1 0x40 MSTORE CALLVALUE DUP1 ISZERO PUSH1 0xE JUMPI PUSH0 PUSH0 REVERT JUMPDEST POP PUSH2 0x164D DUP1 PUSH2 0x1C PUSH0 CODECOPY PUSH0 RETURN INVALID PUSH1 0x80 PUSH1 0x40 MSTORE CALLVALUE DUP1 ISZERO PUSH2 0xF JUMPI PUSH0 PUSH0 REVERT JUMPDEST POP PUSH1 0x4 CALLDATASIZE LT PUSH2 0x29 JUMPI PUSH0 CALLDATALOAD PUSH1 0xE0 SHR DUP1 PUSH4 0x4BA7E49B EQ PUSH2 0x2D JUMPI JUMPDEST PUSH0 PUSH0 REVERT JUMPDEST PUSH2 0x47 PUSH1 0x4 DUP1 CALLDATASIZE SUB DUP2 ADD SWAP1 PUSH2 0x42 SWAP2 SWAP1 PUSH2 0x15F JUMP JUMPDEST PUSH2 0x5D JUMP JUMPDEST PUSH1 0x40 MLOAD PUSH2 0x54 SWAP2 SWAP1 PUSH2 0x224 JUMP JUMPDEST PUSH1 0x40 MLOAD DUP1 SWAP2 SUB SWAP1 RETURN JUMPDEST PUSH0 CALLER PUSH1 0x40 MLOAD PUSH2 0x6B SWAP1 PUSH2 0xE9 JUMP JUMPDEST PUSH2 0x75 SWAP2 SWAP1 PUSH2 0x25D JUMP JUMPDEST PUSH1 0x40 MLOAD DUP1 SWAP2 SUB SWAP1 PUSH0 CREATE DUP1 ISZERO DUP1 ISZERO PUSH2 0x8E JUMPI RETURNDATASIZE PUSH0 PUSH0 RETURNDATACOPY RETURNDATASIZE PUSH0 REVERT JUMPDEST POP SWAP1 POP CALLER PUSH20 0xFFFFFFFFFFFFFFFFFFFFFFFFFFFFFFFFFFFFFFFF AND PUSH32 0xAA181765EA3F539430119BE84B51159F3F76E080C5EED3ADCBA2BD61733990E7 DUP3 DUP6 DUP6 PUSH1 0x40 MLOAD PUSH2 0xDB SWAP4 SWAP3 SWAP2 SWAP1 PUSH2 0x2D0 JUMP JUMPDEST PUSH1 0x40 MLOAD DUP1 SWAP2 SUB SWAP1 LOG2 SWAP3 SWAP2 POP POP JUMP JUMPDEST PUSH2 0x1317 DUP1 PUSH2 0x301 DUP4 CODECOPY ADD SWAP1 JUMP JUMPDEST PUSH0 PUSH0 REVERT JUMPDEST PUSH0 PUSH0 REVERT JUMPDEST PUSH0 PUSH0 REVERT JUMPDEST PUSH0 PUSH0 REVERT JUMPDEST PUSH0 PUSH0 REVERT JUMPDEST PUSH0 PUSH0 DUP4 PUSH1 0x1F DUP5 ADD SLT PUSH2 0x11F JUMPI PUSH2 0x11E PUSH2 0xFE JUMP JUMPDEST JUMPDEST DUP3 CALLDATALOAD SWAP1 POP PUSH8 0xFFFFFFFFFFFFFFFF DUP2 GT ISZERO PUSH2 0x13C JUMPI PUSH2 0x13B PUSH2 0x102 JUMP JUMPDEST JUMPDEST PUSH1 0x20 DUP4 ADD SWAP2 POP DUP4 PUSH1 0x1 DUP3 MUL DUP4 ADD GT ISZERO PUSH2 0x158 JUMPI PUSH2 0x157 PUSH2 0x106 JUMP JUMPDEST JUMPDEST SWAP3 POP SWAP3 SWAP1 POP JUMP JUMPDEST PUSH0 PUSH0 PUSH1 0x20 DUP4 DUP6 SUB SLT ISZERO PUSH2 0x175 JUMPI PUSH2 0x174 PUSH2 0xF6 JUMP JUMPDEST JUMPDEST PUSH0 DUP4 ADD CALLDATALOAD PUSH8 0xFFFFFFFFFFFFFFFF DUP2 GT ISZERO PUSH2 0x192 JUMPI PUSH2 0x191 PUSH2 0xFA JUMP JUMPDEST JUMPDEST PUSH2 0x19E DUP6 DUP3 DUP7 ADD PUSH2 0x10A JUMP JUMPDEST SWAP3 POP SWAP3 POP POP SWAP3 POP SWAP3 SWAP1 POP JUMP JUMPDEST PUSH0 PUSH20 0xFFFFFFFFFFFFFFFFFFFFFFFFFFFFFFFFFFFFFFFF DUP3 AND SWAP1 POP SWAP2 SWAP1 POP JUMP JUMPDEST PUSH0 DUP2 SWAP1 POP SWAP2 SWAP1 POP JUMP JUMPDEST PUSH0 PUSH2 0x1EC PUSH2 0x1E7 PUSH2 0x1E2 DUP5 PUSH2 0x1AA JUMP JUMPDEST PUSH2 0x1C9 JUMP JUMPDEST PUSH2 0x1AA JUMP JUMPDEST SWAP1 POP SWAP2 SWAP1 POP JUMP JUMPDEST PUSH0 PUSH2 0x1FD DUP3 PUSH2 0x1D2 JUMP JUMPDEST SWAP1 POP SWAP2 SWAP1 POP JUMP JUMPDEST PUSH0 PUSH2 0x20E DUP3 PUSH2 0x1F3 JUMP JUMPDEST SWAP1 POP SWAP2 SWAP1 POP JUMP JUMPDEST PUSH2 0x21E DUP2 PUSH2 0x204 JUMP JUMPDEST DUP3 MSTORE POP POP JUMP JUMPDEST PUSH0 PUSH1 0x20 DUP3 ADD SWAP1 POP PUSH2 0x237 PUSH0 DUP4 ADD DUP5 PUSH2 0x215 JUMP JUMPDEST SWAP3 SWAP2 POP POP JUMP JUMPDEST PUSH0 PUSH2 0x247 DUP3 PUSH2 0x1AA JUMP JUMPDEST SWAP1 POP SWAP2 SWAP1 POP JUMP JUMPDEST PUSH2 0x257 DUP2 PUSH2 0x23D JUMP JUMPDEST DUP3 MSTORE POP POP JUMP JUMPDEST PUSH0 PUSH1 0x20 DUP3 ADD SWAP1 POP PUSH2 0x270 PUSH0 DUP4 ADD DUP5 PUSH2 0x24E JUMP JUMPDEST SWAP3 SWAP2 POP POP JUMP JUMPDEST PUSH0 DUP3 DUP3 MSTORE PUSH1 0x20 DUP3 ADD SWAP1 POP SWAP3 SWAP2 POP POP JUMP JUMPDEST DUP3 DUP2 DUP4 CALLDATACOPY PUSH0 DUP4 DUP4 ADD MSTORE POP POP POP JUMP JUMPDEST PUSH0 PUSH1 0x1F NOT PUSH1 0x1F DUP4 ADD AND SWAP1 POP SWAP2 SWAP1 POP JUMP JUMPDEST PUSH0 PUSH2 0x2AF DUP4 DUP6 PUSH2 0x276 JUMP JUMPDEST SWAP4 POP PUSH2 0x2BC DUP4 DUP6 DUP5 PUSH2 0x286 JUMP JUMPDEST PUSH2 0x2C5 DUP4 PUSH2 0x294 JUMP JUMPDEST DUP5 ADD SWAP1 POP SWAP4 SWAP3 POP POP POP JUMP JUMPDEST PUSH0 PUSH1 0x40 DUP3 ADD SWAP1 POP PUSH2 0x2E3 PUSH0 DUP4 ADD DUP7 PUSH2 0x215 JUMP JUMPDEST DUP2 DUP2 SUB PUSH1 0x20 DUP4 ADD MSTORE PUSH2 0x2F6 DUP2 DUP5 DUP7 PUSH2 0x2A4 JUMP JUMPDEST SWAP1 POP SWAP5 SWAP4 POP POP POP POP JUMP INVALID PUSH1 0x80 PUSH1 0x40 MSTORE TIMESTAMP PUSH1 0x1 SSTORE CALLVALUE DUP1 ISZERO PUSH2 0x13 JUMPI PUSH0 PUSH0 REVERT JUMPDEST POP PUSH1 0x40 MLOAD PUSH2 0x1317 CODESIZE SUB DUP1 PUSH2 0x1317 DUP4 CODECOPY DUP2 DUP2 ADD PUSH1 0x40 MSTORE DUP2 ADD SWAP1 PUSH2 0x35 SWAP2 SWAP1 PUSH2 0x1DB JUMP JUMPDEST DUP1 PUSH0 PUSH20 0xFFFFFFFFFFFFFFFFFFFFFFFFFFFFFFFFFFFFFFFF AND DUP2 PUSH20 0xFFFFFFFFFFFFFFFFFFFFFFFFFFFFFFFFFFFFFFFF AND SUB PUSH2 0xA6 JUMPI PUSH0 PUSH1 0x40 MLOAD PUSH32 0x1E4FBDF700000000000000000000000000000000000000000000000000000000 DUP2 MSTORE PUSH1 0x4 ADD PUSH2 0x9D SWAP2 SWAP1 PUSH2 0x215 JUMP JUMPDEST PUSH1 0x40 MLOAD DUP1 SWAP2 SUB SWAP1 REVERT JUMPDEST PUSH2 0xB5 DUP2 PUSH2 0xBC PUSH1 0x20 SHL PUSH1 0x20 SHR JUMP JUMPDEST POP POP PUSH2 0x22E JUMP JUMPDEST PUSH0 PUSH0 PUSH0 SWAP1 SLOAD SWAP1 PUSH2 0x100 EXP SWAP1 DIV PUSH20 0xFFFFFFFFFFFFFFFFFFFFFFFFFFFFFFFFFFFFFFFF AND SWAP1 POP DUP2 PUSH0 PUSH0 PUSH2 0x100 EXP DUP2 SLOAD DUP2 PUSH20 0xFFFFFFFFFFFFFFFFFFFFFFFFFFFFFFFFFFFFFFFF MUL NOT AND SWAP1 DUP4 PUSH20 0xFFFFFFFFFFFFFFFFFFFFFFFFFFFFFFFFFFFFFFFF AND MUL OR SWAP1 SSTORE POP DUP2 PUSH20 0xFFFFFFFFFFFFFFFFFFFFFFFFFFFFFFFFFFFFFFFF AND DUP2 PUSH20 0xFFFFFFFFFFFFFFFFFFFFFFFFFFFFFFFFFFFFFFFF AND PUSH32 0x8BE0079C531659141344CD1FD0A4F28419497F9722A3DAAFE3B4186F6B6457E0 PUSH1 0x40 MLOAD PUSH1 0x40 MLOAD DUP1 SWAP2 SUB SWAP1 LOG3 POP POP JUMP JUMPDEST PUSH0 PUSH0 REVERT JUMPDEST PUSH0 PUSH20 0xFFFFFFFFFFFFFFFFFFFFFFFFFFFFFFFFFFFFFFFF DUP3 AND SWAP1 POP SWAP2 SWAP1 POP JUMP JUMPDEST PUSH0 PUSH2 0x1AA DUP3 PUSH2 0x181 JUMP JUMPDEST SWAP1 POP SWAP2 SWAP1 POP JUMP JUMPDEST PUSH2 0x1BA DUP2 PUSH2 0x1A0 JUMP JUMPDEST DUP2 EQ PUSH2 0x1C4 JUMPI PUSH0 PUSH0 REVERT JUMPDEST POP JUMP JUMPDEST PUSH0 DUP2 MLOAD SWAP1 POP PUSH2 0x1D5 DUP2 PUSH2 0x1B1 JUMP JUMPDEST SWAP3 SWAP2 POP POP JUMP JUMPDEST PUSH0 PUSH1 0x20 DUP3 DUP5 SUB SLT ISZERO PUSH2 0x1F0 JUMPI PUSH2 0x1EF PUSH2 0x17D JUMP JUMPDEST JUMPDEST PUSH0 PUSH2 0x1FD DUP5 DUP3 DUP6 ADD PUSH2 0x1C7 JUMP JUMPDEST SWAP2 POP POP SWAP3 SWAP2 POP POP JUMP JUMPDEST PUSH2 0x20F DUP2 PUSH2 0x1A0 JUMP JUMPDEST DUP3 MSTORE POP POP JUMP JUMPDEST PUSH0 PUSH1 0x20 DUP3 ADD SWAP1 POP PUSH2 0x228 PUSH0 DUP4 ADD DUP5 PUSH2 0x206 JUMP JUMPDEST SWAP3 SWAP2 POP POP JUMP JUMPDEST PUSH2 0x10DC DUP1 PUSH2 0x23B PUSH0 CODECOPY PUSH0 RETURN INVALID PUSH1 0x80 PUSH1 0x40 MSTORE PUSH1 0x4 CALLDATASIZE LT PUSH2 0xC1 JUMPI PUSH0 CALLDATALOAD PUSH1 0xE0 SHR DUP1 PUSH4 0x715018A6 GT PUSH2 0x7E JUMPI DUP1 PUSH4 0x99F9863E GT PUSH2 0x58 JUMPI DUP1 PUSH4 0x99F9863E EQ PUSH2 0x258 JUMPI DUP1 PUSH4 0xA2743296 EQ PUSH2 0x294 JUMPI DUP1 PUSH4 0xC80FBE4E EQ PUSH2 0x2B0 JUMPI DUP1 PUSH4 0xF2FDE38B EQ PUSH2 0x2CC JUMPI PUSH2 0xC1 JUMP JUMPDEST DUP1 PUSH4 0x715018A6 EQ PUSH2 0x1DC JUMPI DUP1 PUSH4 0x767ED653 EQ PUSH2 0x1F2 JUMPI DUP1 PUSH4 0x8DA5CB5B EQ PUSH2 0x22E JUMPI PUSH2 0xC1 JUMP JUMPDEST DUP1 PUSH4 0x8E89E46 EQ PUSH2 0xC5 JUMPI DUP1 PUSH4 0x35508E56 EQ PUSH2 0x101 JUMPI DUP1 PUSH4 0x36EEF969 EQ PUSH2 0x13D JUMPI DUP1 PUSH4 0x4E71D92D EQ PUSH2 0x159 JUMPI DUP1 PUSH4 0x5DCFB4FA EQ PUSH2 0x184 JUMPI DUP1 PUSH4 0x670815A9 EQ PUSH2 0x1A0 JUMPI JUMPDEST PUSH0 PUSH0 REVERT JUMPDEST CALLVALUE DUP1 ISZERO PUSH2 0xD0 JUMPI PUSH0 PUSH0 REVERT JUMPDEST POP PUSH2 0xEB PUSH1 0x4 DUP1 CALLDATASIZE SUB DUP2 ADD SWAP1 PUSH2 0xE6 SWAP2 SWAP1 PUSH2 0xBC9 JUMP JUMPDEST PUSH2 0x2F4 JUMP JUMPDEST PUSH1 0x40 MLOAD PUSH2 0xF8 SWAP2 SWAP1 PUSH2 0xC03 JUMP JUMPDEST PUSH1 0x40 MLOAD DUP1 SWAP2 SUB SWAP1 RETURN JUMPDEST CALLVALUE DUP1 ISZERO PUSH2 0x10C JUMPI PUSH0 PUSH0 REVERT JUMPDEST POP PUSH2 0x127 PUSH1 0x4 DUP1 CALLDATASIZE SUB DUP2 ADD SWAP1 PUSH2 0x122 SWAP2 SWAP1 PUSH2 0xBC9 JUMP JUMPDEST PUSH2 0x318 JUMP JUMPDEST PUSH1 0x40 MLOAD PUSH2 0x134 SWAP2 SWAP1 PUSH2 0xC03 JUMP JUMPDEST PUSH1 0x40 MLOAD DUP1 SWAP2 SUB SWAP1 RETURN JUMPDEST PUSH2 0x157 PUSH1 0x4 DUP1 CALLDATASIZE SUB DUP2 ADD SWAP1 PUSH2 0x152 SWAP2 SWAP1 PUSH2 0xC1C JUMP JUMPDEST PUSH2 0x32D JUMP JUMPDEST STOP JUMPDEST CALLVALUE DUP1 ISZERO PUSH2 0x164 JUMPI PUSH0 PUSH0 REVERT JUMPDEST POP PUSH2 0x16D PUSH2 0x4EE JUMP JUMPDEST PUSH1 0x40 MLOAD PUSH2 0x17B SWAP3 SWAP2 SWAP1 PUSH2 0xCE4 JUMP JUMPDEST PUSH1 0x40 MLOAD DUP1 SWAP2 SUB SWAP1 RETURN JUMPDEST PUSH2 0x19E PUSH1 0x4 DUP1 CALLDATASIZE SUB DUP2 ADD SWAP1 PUSH2 0x199 SWAP2 SWAP1 PUSH2 0xBC9 JUMP JUMPDEST PUSH2 0x565 JUMP JUMPDEST STOP JUMPDEST CALLVALUE DUP1 ISZERO PUSH2 0x1AB JUMPI PUSH0 PUSH0 REVERT JUMPDEST POP PUSH2 0x1C6 PUSH1 0x4 DUP1 CALLDATASIZE SUB DUP2 ADD SWAP1 PUSH2 0x1C1 SWAP2 SWAP1 PUSH2 0xC1C JUMP JUMPDEST PUSH2 0x5F5 JUMP JUMPDEST PUSH1 0x40 MLOAD PUSH2 0x1D3 SWAP2 SWAP1 PUSH2 0xD51 JUMP JUMPDEST PUSH1 0x40 MLOAD DUP1 SWAP2 SUB SWAP1 RETURN JUMPDEST CALLVALUE DUP1 ISZERO PUSH2 0x1E7 JUMPI PUSH0 PUSH0 REVERT JUMPDEST POP PUSH2 0x1F0 PUSH2 0x63D JUMP JUMPDEST STOP JUMPDEST CALLVALUE DUP1 ISZERO PUSH2 0x1FD JUMPI PUSH0 PUSH0 REVERT JUMPDEST POP PUSH2 0x218 PUSH1 0x4 DUP1 CALLDATASIZE SUB DUP2 ADD SWAP1 PUSH2 0x213 SWAP2 SWAP1 PUSH2 0xBC9 JUMP JUMPDEST PUSH2 0x650 JUMP JUMPDEST PUSH1 0x40 MLOAD PUSH2 0x225 SWAP2 SWAP1 PUSH2 0xC03 JUMP JUMPDEST PUSH1 0x40 MLOAD DUP1 SWAP2 SUB SWAP1 RETURN JUMPDEST CALLVALUE DUP1 ISZERO PUSH2 0x239 JUMPI PUSH0 PUSH0 REVERT JUMPDEST POP PUSH2 0x242 PUSH2 0x68E JUMP JUMPDEST PUSH1 0x40 MLOAD PUSH2 0x24F SWAP2 SWAP1 PUSH2 0xD51 JUMP JUMPDEST PUSH1 0x40 MLOAD DUP1 SWAP2 SUB SWAP1 RETURN JUMPDEST CALLVALUE DUP1 ISZERO PUSH2 0x263 JUMPI PUSH0 PUSH0 REVERT JUMPDEST POP PUSH2 0x27E PUSH1 0x4 DUP1 CALLDATASIZE SUB DUP2 ADD SWAP1 PUSH2 0x279 SWAP2 SWAP1 PUSH2 0xBC9 JUMP JUMPDEST PUSH2 0x6B5 JUMP JUMPDEST PUSH1 0x40 MLOAD PUSH2 0x28B SWAP2 SWAP1 PUSH2 0xE21 JUMP JUMPDEST PUSH1 0x40 MLOAD DUP1 SWAP2 SUB SWAP1 RETURN JUMPDEST PUSH2 0x2AE PUSH1 0x4 DUP1 CALLDATASIZE SUB DUP2 ADD SWAP1 PUSH2 0x2A9 SWAP2 SWAP1 PUSH2 0xC1C JUMP JUMPDEST PUSH2 0x751 JUMP JUMPDEST STOP JUMPDEST PUSH2 0x2CA PUSH1 0x4 DUP1 CALLDATASIZE SUB DUP2 ADD SWAP1 PUSH2 0x2C5 SWAP2 SWAP1 PUSH2 0xE6B JUMP JUMPDEST PUSH2 0x912 JUMP JUMPDEST STOP JUMPDEST CALLVALUE DUP1 ISZERO PUSH2 0x2D7 JUMPI PUSH0 PUSH0 REVERT JUMPDEST POP PUSH2 0x2F2 PUSH1 0x4 DUP1 CALLDATASIZE SUB DUP2 ADD SWAP1 PUSH2 0x2ED SWAP2 SWAP1 PUSH2 0xEA9 JUMP JUMPDEST PUSH2 0x9BF JUMP JUMPDEST STOP JUMPDEST PUSH0 PUSH2 0x2FE DUP3 PUSH2 0x650 JUMP JUMPDEST PUSH8 0xDE0B6B3A7640000 PUSH2 0x311 SWAP2 SWAP1 PUSH2 0xF2E JUMP JUMPDEST SWAP1 POP SWAP2 SWAP1 POP JUMP JUMPDEST PUSH1 0x2 PUSH1 0x20 MSTORE DUP1 PUSH0 MSTORE PUSH1 0x40 PUSH0 KECCAK256 PUSH0 SWAP2 POP SWAP1 POP SLOAD DUP2 JUMP JUMPDEST PUSH2 0x336 DUP3 PUSH2 0x2F4 JUMP JUMPDEST CALLVALUE LT ISZERO PUSH2 0x341 JUMPI PUSH0 PUSH0 REVERT JUMPDEST PUSH0 PUSH1 0x3 PUSH0 DUP5 DUP2 MSTORE PUSH1 0x20 ADD SWAP1 DUP2 MSTORE PUSH1 0x20 ADD PUSH0 KECCAK256 PUSH1 0x1 DUP4 PUSH2 0x360 SWAP2 SWAP1 PUSH2 0xF5E JUMP JUMPDEST DUP2 SLOAD DUP2 LT PUSH2 0x371 JUMPI PUSH2 0x370 PUSH2 0xF91 JUMP JUMPDEST JUMPDEST SWAP1 PUSH0 MSTORE PUSH1 0x20 PUSH0 KECCAK256 ADD PUSH0 SWAP1 SLOAD SWAP1 PUSH2 0x100 EXP SWAP1 DIV PUSH20 0xFFFFFFFFFFFFFFFFFFFFFFFFFFFFFFFFFFFFFFFF AND SWAP1 POP PUSH1 0x3 PUSH0 DUP5 DUP2 MSTORE PUSH1 0x20 ADD SWAP1 DUP2 MSTORE PUSH1 0x20 ADD PUSH0 KECCAK256 DUP3 DUP2 SLOAD DUP2 LT PUSH2 0x3BE JUMPI PUSH2 0x3BD PUSH2 0xF91 JUMP JUMPDEST JUMPDEST SWAP1 PUSH0 MSTORE PUSH1 0x20 PUSH0 KECCAK256 ADD PUSH0 SWAP1 SLOAD SWAP1 PUSH2 0x100 EXP SWAP1 DIV PUSH20 0xFFFFFFFFFFFFFFFFFFFFFFFFFFFFFFFFFFFFFFFF AND PUSH1 0x3 PUSH0 DUP6 DUP2 MSTORE PUSH1 0x20 ADD SWAP1 DUP2 MSTORE PUSH1 0x20 ADD PUSH0 KECCAK256 PUSH1 0x1 DUP5 PUSH2 0x404 SWAP2 SWAP1 PUSH2 0xF5E JUMP JUMPDEST DUP2 SLOAD DUP2 LT PUSH2 0x415 JUMPI PUSH2 0x414 PUSH2 0xF91 JUMP JUMPDEST JUMPDEST SWAP1 PUSH0 MSTORE PUSH1 0x20 PUSH0 KECCAK256 ADD PUSH0 PUSH2 0x100 EXP DUP2 SLOAD DUP2 PUSH20 0xFFFFFFFFFFFFFFFFFFFFFFFFFFFFFFFFFFFFFFFF MUL NOT AND SWAP1 DUP4 PUSH20 0xFFFFFFFFFFFFFFFFFFFFFFFFFFFFFFFFFFFFFFFF AND MUL OR SWAP1 SSTORE POP DUP1 PUSH1 0x3 PUSH0 DUP6 DUP2 MSTORE PUSH1 0x20 ADD SWAP1 DUP2 MSTORE PUSH1 0x20 ADD PUSH0 KECCAK256 DUP4 DUP2 SLOAD DUP2 LT PUSH2 0x47E JUMPI PUSH2 0x47D PUSH2 0xF91 JUMP JUMPDEST JUMPDEST SWAP1 PUSH0 MSTORE PUSH1 0x20 PUSH0 KECCAK256 ADD PUSH0 PUSH2 0x100 EXP DUP2 SLOAD DUP2 PUSH20 0xFFFFFFFFFFFFFFFFFFFFFFFFFFFFFFFFFFFFFFFF MUL NOT AND SWAP1 DUP4 PUSH20 0xFFFFFFFFFFFFFFFFFFFFFFFFFFFFFFFFFFFFFFFF AND MUL OR SWAP1 SSTORE POP PUSH1 0x2 PUSH0 DUP5 DUP2 MSTORE PUSH1 0x20 ADD SWAP1 DUP2 MSTORE PUSH1 0x20 ADD PUSH0 KECCAK256 PUSH0 DUP2 SLOAD DUP1 SWAP3 SWAP2 SWAP1 PUSH2 0x4E4 SWAP1 PUSH2 0xFBE JUMP JUMPDEST SWAP2 SWAP1 POP SSTORE POP POP POP POP JUMP JUMPDEST PUSH0 PUSH1 0x60 PUSH2 0x4F9 PUSH2 0xA43 JUMP JUMPDEST CALLER PUSH20 0xFFFFFFFFFFFFFFFFFFFFFFFFFFFFFFFFFFFFFFFF AND SELFBALANCE PUSH1 0x40 MLOAD PUSH2 0x51D SWAP1 PUSH2 0x1032 JUMP JUMPDEST PUSH0 PUSH1 0x40 MLOAD DUP1 DUP4 SUB DUP2 DUP6 DUP8 GAS CALL SWAP3 POP POP POP RETURNDATASIZE DUP1 PUSH0 DUP2 EQ PUSH2 0x557 JUMPI PUSH1 0x40 MLOAD SWAP2 POP PUSH1 0x1F NOT PUSH1 0x3F RETURNDATASIZE ADD AND DUP3 ADD PUSH1 0x40 MSTORE RETURNDATASIZE DUP3 MSTORE RETURNDATASIZE PUSH0 PUSH1 0x20 DUP5 ADD RETURNDATACOPY PUSH2 0x55C JUMP JUMPDEST PUSH1 0x60 SWAP2 POP JUMPDEST POP SWAP2 POP SWAP2 POP SWAP1 SWAP2 JUMP JUMPDEST PUSH2 0x56E DUP2 PUSH2 0x2F4 JUMP JUMPDEST CALLVALUE LT ISZERO PUSH2 0x579 JUMPI PUSH0 PUSH0 REVERT JUMPDEST PUSH1 0x3 PUSH0 DUP3 DUP2 MSTORE PUSH1 0x20 ADD SWAP1 DUP2 MSTORE PUSH1 0x20 ADD PUSH0 KECCAK256 DUP1 SLOAD DUP1 PUSH2 0x59A JUMPI PUSH2 0x599 PUSH2 0x1046 JUMP JUMPDEST JUMPDEST PUSH1 0x1 SWAP1 SUB DUP2 DUP2 SWAP1 PUSH0 MSTORE PUSH1 0x20 PUSH0 KECCAK256 ADD PUSH0 PUSH2 0x100 EXP DUP2 SLOAD SWAP1 PUSH20 0xFFFFFFFFFFFFFFFFFFFFFFFFFFFFFFFFFFFFFFFF MUL NOT AND SWAP1 SSTORE SWAP1 SSTORE PUSH1 0x2 PUSH0 DUP3 DUP2 MSTORE PUSH1 0x20 ADD SWAP1 DUP2 MSTORE PUSH1 0x20 ADD PUSH0 KECCAK256 PUSH0 DUP2 SLOAD DUP1 SWAP3 SWAP2 SWAP1 PUSH2 0x5ED SWAP1 PUSH2 0xFBE JUMP JUMPDEST SWAP2 SWAP1 POP SSTORE POP POP JUMP JUMPDEST PUSH1 0x3 PUSH1 0x20 MSTORE DUP2 PUSH0 MSTORE PUSH1 0x40 PUSH0 KECCAK256 DUP2 DUP2 SLOAD DUP2 LT PUSH2 0x60E JUMPI PUSH0 DUP1 REVERT JUMPDEST SWAP1 PUSH0 MSTORE PUSH1 0x20 PUSH0 KECCAK256 ADD PUSH0 SWAP2 POP SWAP2 POP SWAP1 SLOAD SWAP1 PUSH2 0x100 EXP SWAP1 DIV PUSH20 0xFFFFFFFFFFFFFFFFFFFFFFFFFFFFFFFFFFFFFFFF AND DUP2 JUMP JUMPDEST PUSH2 0x645 PUSH2 0xA43 JUMP JUMPDEST PUSH2 0x64E PUSH0 PUSH2 0xACA JUMP JUMPDEST JUMP JUMPDEST PUSH0 PUSH1 0x2 PUSH0 DUP4 DUP2 MSTORE PUSH1 0x20 ADD SWAP1 DUP2 MSTORE PUSH1 0x20 ADD PUSH0 KECCAK256 SLOAD PUSH1 0x3C PUSH1 0x1 SLOAD TIMESTAMP PUSH2 0x673 SWAP2 SWAP1 PUSH2 0xF5E JUMP JUMPDEST PUSH2 0x67D SWAP2 SWAP1 PUSH2 0xF2E JUMP JUMPDEST PUSH2 0x687 SWAP2 SWAP1 PUSH2 0xF5E JUMP JUMPDEST SWAP1 POP SWAP2 SWAP1 POP JUMP JUMPDEST PUSH0 PUSH0 PUSH0 SWAP1 SLOAD SWAP1 PUSH2 0x100 EXP SWAP1 DIV PUSH20 0xFFFFFFFFFFFFFFFFFFFFFFFFFFFFFFFFFFFFFFFF AND SWAP1 POP SWAP1 JUMP JUMPDEST PUSH1 0x60 PUSH1 0x3 PUSH0 DUP4 DUP2 MSTORE PUSH1 0x20 ADD SWAP1 DUP2 MSTORE PUSH1 0x20 ADD PUSH0 KECCAK256 DUP1 SLOAD DUP1 PUSH1 0x20 MUL PUSH1 0x20 ADD PUSH1 0x40 MLOAD SWAP1 DUP2 ADD PUSH1 0x40 MSTORE DUP1 SWAP3 SWAP2 SWAP1 DUP2 DUP2 MSTORE PUSH1 0x20 ADD DUP3 DUP1 SLOAD DUP1 ISZERO PUSH2 0x745 JUMPI PUSH1 0x20 MUL DUP3 ADD SWAP2 SWAP1 PUSH0 MSTORE PUSH1 0x20 PUSH0 KECCAK256 SWAP1 JUMPDEST DUP2 PUSH0 SWAP1 SLOAD SWAP1 PUSH2 0x100 EXP SWAP1 DIV PUSH20 0xFFFFFFFFFFFFFFFFFFFFFFFFFFFFFFFFFFFFFFFF AND PUSH20 0xFFFFFFFFFFFFFFFFFFFFFFFFFFFFFFFFFFFFFFFF AND DUP2 MSTORE PUSH1 0x20 ADD SWAP1 PUSH1 0x1 ADD SWAP1 DUP1 DUP4 GT PUSH2 0x6FC JUMPI JUMPDEST POP POP POP POP POP SWAP1 POP SWAP2 SWAP1 POP JUMP JUMPDEST PUSH2 0x75A DUP3 PUSH2 0x2F4 JUMP JUMPDEST CALLVALUE LT ISZERO PUSH2 0x765 JUMPI PUSH0 PUSH0 REVERT JUMPDEST PUSH0 PUSH1 0x3 PUSH0 DUP5 DUP2 MSTORE PUSH1 0x20 ADD SWAP1 DUP2 MSTORE PUSH1 0x20 ADD PUSH0 KECCAK256 PUSH1 0x1 DUP4 PUSH2 0x784 SWAP2 SWAP1 PUSH2 0x1073 JUMP JUMPDEST DUP2 SLOAD DUP2 LT PUSH2 0x795 JUMPI PUSH2 0x794 PUSH2 0xF91 JUMP JUMPDEST JUMPDEST SWAP1 PUSH0 MSTORE PUSH1 0x20 PUSH0 KECCAK256 ADD PUSH0 SWAP1 SLOAD SWAP1 PUSH2 0x100 EXP SWAP1 DIV PUSH20 0xFFFFFFFFFFFFFFFFFFFFFFFFFFFFFFFFFFFFFFFF AND SWAP1 POP PUSH1 0x3 PUSH0 DUP5 DUP2 MSTORE PUSH1 0x20 ADD SWAP1 DUP2 MSTORE PUSH1 0x20 ADD PUSH0 KECCAK256 DUP3 DUP2 SLOAD DUP2 LT PUSH2 0x7E2 JUMPI PUSH2 0x7E1 PUSH2 0xF91 JUMP JUMPDEST JUMPDEST SWAP1 PUSH0 MSTORE PUSH1 0x20 PUSH0 KECCAK256 ADD PUSH0 SWAP1 SLOAD SWAP1 PUSH2 0x100 EXP SWAP1 DIV PUSH20 0xFFFFFFFFFFFFFFFFFFFFFFFFFFFFFFFFFFFFFFFF AND PUSH1 0x3 PUSH0 DUP6 DUP2 MSTORE PUSH1 0x20 ADD SWAP1 DUP2 MSTORE PUSH1 0x20 ADD PUSH0 KECCAK256 PUSH1 0x1 DUP5 PUSH2 0x828 SWAP2 SWAP1 PUSH2 0x1073 JUMP JUMPDEST DUP2 SLOAD DUP2 LT PUSH2 0x839 JUMPI PUSH2 0x838 PUSH2 0xF91 JUMP JUMPDEST JUMPDEST SWAP1 PUSH0 MSTORE PUSH1 0x20 PUSH0 KECCAK256 ADD PUSH0 PUSH2 0x100 EXP DUP2 SLOAD DUP2 PUSH20 0xFFFFFFFFFFFFFFFFFFFFFFFFFFFFFFFFFFFFFFFF MUL NOT AND SWAP1 DUP4 PUSH20 0xFFFFFFFFFFFFFFFFFFFFFFFFFFFFFFFFFFFFFFFF AND MUL OR SWAP1 SSTORE POP DUP1 PUSH1 0x3 PUSH0 DUP6 DUP2 MSTORE PUSH1 0x20 ADD SWAP1 DUP2 MSTORE PUSH1 0x20 ADD PUSH0 KECCAK256 DUP4 DUP2 SLOAD DUP2 LT PUSH2 0x8A2 JUMPI PUSH2 0x8A1 PUSH2 0xF91 JUMP JUMPDEST JUMPDEST SWAP1 PUSH0 MSTORE PUSH1 0x20 PUSH0 KECCAK256 ADD PUSH0 PUSH2 0x100 EXP DUP2 SLOAD DUP2 PUSH20 0xFFFFFFFFFFFFFFFFFFFFFFFFFFFFFFFFFFFFFFFF MUL NOT AND SWAP1 DUP4 PUSH20 0xFFFFFFFFFFFFFFFFFFFFFFFFFFFFFFFFFFFFFFFF AND MUL OR SWAP1 SSTORE POP PUSH1 0x2 PUSH0 DUP5 DUP2 MSTORE PUSH1 0x20 ADD SWAP1 DUP2 MSTORE PUSH1 0x20 ADD PUSH0 KECCAK256 PUSH0 DUP2 SLOAD DUP1 SWAP3 SWAP2 SWAP1 PUSH2 0x908 SWAP1 PUSH2 0xFBE JUMP JUMPDEST SWAP2 SWAP1 POP SSTORE POP POP POP POP JUMP JUMPDEST PUSH2 0x91B DUP3 PUSH2 0x2F4 JUMP JUMPDEST CALLVALUE LT ISZERO PUSH2 0x926 JUMPI PUSH0 PUSH0 REVERT JUMPDEST PUSH1 0x3 PUSH0 DUP4 DUP2 MSTORE PUSH1 0x20 ADD SWAP1 DUP2 MSTORE PUSH1 0x20 ADD PUSH0 KECCAK256 DUP2 SWAP1 DUP1 PUSH1 0x1 DUP2 SLOAD ADD DUP1 DUP3 SSTORE DUP1 SWAP2 POP POP PUSH1 0x1 SWAP1 SUB SWAP1 PUSH0 MSTORE PUSH1 0x20 PUSH0 KECCAK256 ADD PUSH0 SWAP1 SWAP2 SWAP1 SWAP2 SWAP1 SWAP2 PUSH2 0x100 EXP DUP2 SLOAD DUP2 PUSH20 0xFFFFFFFFFFFFFFFFFFFFFFFFFFFFFFFFFFFFFFFF MUL NOT AND SWAP1 DUP4 PUSH20 0xFFFFFFFFFFFFFFFFFFFFFFFFFFFFFFFFFFFFFFFF AND MUL OR SWAP1 SSTORE POP PUSH1 0x2 PUSH0 DUP4 DUP2 MSTORE PUSH1 0x20 ADD SWAP1 DUP2 MSTORE PUSH1 0x20 ADD PUSH0 KECCAK256 PUSH0 DUP2 SLOAD DUP1 SWAP3 SWAP2 SWAP1 PUSH2 0x9B6 SWAP1 PUSH2 0xFBE JUMP JUMPDEST SWAP2 SWAP1 POP SSTORE POP POP POP JUMP JUMPDEST PUSH2 0x9C7 PUSH2 0xA43 JUMP JUMPDEST PUSH0 PUSH20 0xFFFFFFFFFFFFFFFFFFFFFFFFFFFFFFFFFFFFFFFF AND DUP2 PUSH20 0xFFFFFFFFFFFFFFFFFFFFFFFFFFFFFFFFFFFFFFFF AND SUB PUSH2 0xA37 JUMPI PUSH0 PUSH1 0x40 MLOAD PUSH32 0x1E4FBDF700000000000000000000000000000000000000000000000000000000 DUP2 MSTORE PUSH1 0x4 ADD PUSH2 0xA2E SWAP2 SWAP1 PUSH2 0xD51 JUMP JUMPDEST PUSH1 0x40 MLOAD DUP1 SWAP2 SUB SWAP1 REVERT JUMPDEST PUSH2 0xA40 DUP2 PUSH2 0xACA JUMP JUMPDEST POP JUMP JUMPDEST PUSH2 0xA4B PUSH2 0xB8B JUMP JUMPDEST PUSH20 0xFFFFFFFFFFFFFFFFFFFFFFFFFFFFFFFFFFFFFFFF AND PUSH2 0xA69 PUSH2 0x68E JUMP JUMPDEST PUSH20 0xFFFFFFFFFFFFFFFFFFFFFFFFFFFFFFFFFFFFFFFF AND EQ PUSH2 0xAC8 JUMPI PUSH2 0xA8C PUSH2 0xB8B JUMP JUMPDEST PUSH1 0x40 MLOAD PUSH32 0x118CDAA700000000000000000000000000000000000000000000000000000000 DUP2 MSTORE PUSH1 0x4 ADD PUSH2 0xABF SWAP2 SWAP1 PUSH2 0xD51 JUMP JUMPDEST PUSH1 0x40 MLOAD DUP1 SWAP2 SUB SWAP1 REVERT JUMPDEST JUMP JUMPDEST PUSH0 PUSH0 PUSH0 SWAP1 SLOAD SWAP1 PUSH2 0x100 EXP SWAP1 DIV PUSH20 0xFFFFFFFFFFFFFFFFFFFFFFFFFFFFFFFFFFFFFFFF AND SWAP1 POP DUP2 PUSH0 PUSH0 PUSH2 0x100 EXP DUP2 SLOAD DUP2 PUSH20 0xFFFFFFFFFFFFFFFFFFFFFFFFFFFFFFFFFFFFFFFF MUL NOT AND SWAP1 DUP4 PUSH20 0xFFFFFFFFFFFFFFFFFFFFFFFFFFFFFFFFFFFFFFFF AND MUL OR SWAP1 SSTORE POP DUP2 PUSH20 0xFFFFFFFFFFFFFFFFFFFFFFFFFFFFFFFFFFFFFFFF AND DUP2 PUSH20 0xFFFFFFFFFFFFFFFFFFFFFFFFFFFFFFFFFFFFFFFF AND PUSH32 0x8BE0079C531659141344CD1FD0A4F28419497F9722A3DAAFE3B4186F6B6457E0 PUSH1 0x40 MLOAD PUSH1 0x40 MLOAD DUP1 SWAP2 SUB SWAP1 LOG3 POP POP JUMP JUMPDEST PUSH0 CALLER SWAP1 POP SWAP1 JUMP JUMPDEST PUSH0 PUSH0 REVERT JUMPDEST PUSH0 DUP2 SWAP1 POP SWAP2 SWAP1 POP JUMP JUMPDEST PUSH2 0xBA8 DUP2 PUSH2 0xB96 JUMP JUMPDEST DUP2 EQ PUSH2 0xBB2 JUMPI PUSH0 PUSH0 REVERT JUMPDEST POP JUMP JUMPDEST PUSH0 DUP2 CALLDATALOAD SWAP1 POP PUSH2 0xBC3 DUP2 PUSH2 0xB9F JUMP JUMPDEST SWAP3 SWAP2 POP POP JUMP JUMPDEST PUSH0 PUSH1 0x20 DUP3 DUP5 SUB SLT ISZERO PUSH2 0xBDE JUMPI PUSH2 0xBDD PUSH2 0xB92 JUMP JUMPDEST JUMPDEST PUSH0 PUSH2 0xBEB DUP5 DUP3 DUP6 ADD PUSH2 0xBB5 JUMP JUMPDEST SWAP2 POP POP SWAP3 SWAP2 POP POP JUMP JUMPDEST PUSH2 0xBFD DUP2 PUSH2 0xB96 JUMP JUMPDEST DUP3 MSTORE POP POP JUMP JUMPDEST PUSH0 PUSH1 0x20 DUP3 ADD SWAP1 POP PUSH2 0xC16 PUSH0 DUP4 ADD DUP5 PUSH2 0xBF4 JUMP JUMPDEST SWAP3 SWAP2 POP POP JUMP JUMPDEST PUSH0 PUSH0 PUSH1 0x40 DUP4 DUP6 SUB SLT ISZERO PUSH2 0xC32 JUMPI PUSH2 0xC31 PUSH2 0xB92 JUMP JUMPDEST JUMPDEST PUSH0 PUSH2 0xC3F DUP6 DUP3 DUP7 ADD PUSH2 0xBB5 JUMP JUMPDEST SWAP3 POP POP PUSH1 0x20 PUSH2 0xC50 DUP6 DUP3 DUP7 ADD PUSH2 0xBB5 JUMP JUMPDEST SWAP2 POP POP SWAP3 POP SWAP3 SWAP1 POP JUMP JUMPDEST PUSH0 DUP2 ISZERO ISZERO SWAP1 POP SWAP2 SWAP1 POP JUMP JUMPDEST PUSH2 0xC6E DUP2 PUSH2 0xC5A JUMP JUMPDEST DUP3 MSTORE POP POP JUMP JUMPDEST PUSH0 DUP2 MLOAD SWAP1 POP SWAP2 SWAP1 POP JUMP JUMPDEST PUSH0 DUP3 DUP3 MSTORE PUSH1 0x20 DUP3 ADD SWAP1 POP SWAP3 SWAP2 POP POP JUMP JUMPDEST DUP3 DUP2 DUP4 MCOPY PUSH0 DUP4 DUP4 ADD MSTORE POP POP POP JUMP JUMPDEST PUSH0 PUSH1 0x1F NOT PUSH1 0x1F DUP4 ADD AND SWAP1 POP SWAP2 SWAP1 POP JUMP JUMPDEST PUSH0 PUSH2 0xCB6 DUP3 PUSH2 0xC74 JUMP JUMPDEST PUSH2 0xCC0 DUP2 DUP6 PUSH2 0xC7E JUMP JUMPDEST SWAP4 POP PUSH2 0xCD0 DUP2 DUP6 PUSH1 0x20 DUP7 ADD PUSH2 0xC8E JUMP JUMPDEST PUSH2 0xCD9 DUP2 PUSH2 0xC9C JUMP JUMPDEST DUP5 ADD SWAP2 POP POP SWAP3 SWAP2 POP POP JUMP JUMPDEST PUSH0 PUSH1 0x40 DUP3 ADD SWAP1 POP PUSH2 0xCF7 PUSH0 DUP4 ADD DUP6 PUSH2 0xC65 JUMP JUMPDEST DUP2 DUP2 SUB PUSH1 0x20 DUP4 ADD MSTORE PUSH2 0xD09 DUP2 DUP5 PUSH2 0xCAC JUMP JUMPDEST SWAP1 POP SWAP4 SWAP3 POP POP POP JUMP JUMPDEST PUSH0 PUSH20 0xFFFFFFFFFFFFFFFFFFFFFFFFFFFFFFFFFFFFFFFF DUP3 AND SWAP1 POP SWAP2 SWAP1 POP JUMP JUMPDEST PUSH0 PUSH2 0xD3B DUP3 PUSH2 0xD12 JUMP JUMPDEST SWAP1 POP SWAP2 SWAP1 POP JUMP JUMPDEST PUSH2 0xD4B DUP2 PUSH2 0xD31 JUMP JUMPDEST DUP3 MSTORE POP POP JUMP JUMPDEST PUSH0 PUSH1 0x20 DUP3 ADD SWAP1 POP PUSH2 0xD64 PUSH0 DUP4 ADD DUP5 PUSH2 0xD42 JUMP JUMPDEST SWAP3 SWAP2 POP POP JUMP JUMPDEST PUSH0 DUP2 MLOAD SWAP1 POP SWAP2 SWAP1 POP JUMP JUMPDEST PUSH0 DUP3 DUP3 MSTORE PUSH1 0x20 DUP3 ADD SWAP1 POP SWAP3 SWAP2 POP POP JUMP JUMPDEST PUSH0 DUP2 SWAP1 POP PUSH1 0x20 DUP3 ADD SWAP1 POP SWAP2 SWAP1 POP JUMP JUMPDEST PUSH2 0xD9C DUP2 PUSH2 0xD31 JUMP JUMPDEST DUP3 MSTORE POP POP JUMP JUMPDEST PUSH0 PUSH2 0xDAD DUP4 DUP4 PUSH2 0xD93 JUMP JUMPDEST PUSH1 0x20 DUP4 ADD SWAP1 POP SWAP3 SWAP2 POP POP JUMP JUMPDEST PUSH0 PUSH1 0x20 DUP3 ADD SWAP1 POP SWAP2 SWAP1 POP JUMP JUMPDEST PUSH0 PUSH2 0xDCF DUP3 PUSH2 0xD6A JUMP JUMPDEST PUSH2 0xDD9 DUP2 DUP6 PUSH2 0xD74 JUMP JUMPDEST SWAP4 POP PUSH2 0xDE4 DUP4 PUSH2 0xD84 JUMP JUMPDEST DUP1 PUSH0 JUMPDEST DUP4 DUP2 LT ISZERO PUSH2 0xE14 JUMPI DUP2 MLOAD PUSH2 0xDFB DUP9 DUP3 PUSH2 0xDA2 JUMP JUMPDEST SWAP8 POP PUSH2 0xE06 DUP4 PUSH2 0xDB9 JUMP JUMPDEST SWAP3 POP POP PUSH1 0x1 DUP2 ADD SWAP1 POP PUSH2 0xDE7 JUMP JUMPDEST POP DUP6 SWAP4 POP POP POP POP SWAP3 SWAP2 POP POP JUMP JUMPDEST PUSH0 PUSH1 0x20 DUP3 ADD SWAP1 POP DUP2 DUP2 SUB PUSH0 DUP4 ADD MSTORE PUSH2 0xE39 DUP2 DUP5 PUSH2 0xDC5 JUMP JUMPDEST SWAP1 POP SWAP3 SWAP2 POP POP JUMP JUMPDEST PUSH2 0xE4A DUP2 PUSH2 0xD31 JUMP JUMPDEST DUP2 EQ PUSH2 0xE54 JUMPI PUSH0 PUSH0 REVERT JUMPDEST POP JUMP JUMPDEST PUSH0 DUP2 CALLDATALOAD SWAP1 POP PUSH2 0xE65 DUP2 PUSH2 0xE41 JUMP JUMPDEST SWAP3 SWAP2 POP POP JUMP JUMPDEST PUSH0 PUSH0 PUSH1 0x40 DUP4 DUP6 SUB SLT ISZERO PUSH2 0xE81 JUMPI PUSH2 0xE80 PUSH2 0xB92 JUMP JUMPDEST JUMPDEST PUSH0 PUSH2 0xE8E DUP6 DUP3 DUP7 ADD PUSH2 0xBB5 JUMP JUMPDEST SWAP3 POP POP PUSH1 0x20 PUSH2 0xE9F DUP6 DUP3 DUP7 ADD PUSH2 0xE57 JUMP JUMPDEST SWAP2 POP POP SWAP3 POP SWAP3 SWAP1 POP JUMP JUMPDEST PUSH0 PUSH1 0x20 DUP3 DUP5 SUB SLT ISZERO PUSH2 0xEBE JUMPI PUSH2 0xEBD PUSH2 0xB92 JUMP JUMPDEST JUMPDEST PUSH0 PUSH2 0xECB DUP5 DUP3 DUP6 ADD PUSH2 0xE57 JUMP JUMPDEST SWAP2 POP POP SWAP3 SWAP2 POP POP JUMP JUMPDEST PUSH32 0x4E487B7100000000000000000000000000000000000000000000000000000000 PUSH0 MSTORE PUSH1 0x12 PUSH1 0x4 MSTORE PUSH1 0x24 PUSH0 REVERT JUMPDEST PUSH32 0x4E487B7100000000000000000000000000000000000000000000000000000000 PUSH0 MSTORE PUSH1 0x11 PUSH1 0x4 MSTORE PUSH1 0x24 PUSH0 REVERT JUMPDEST PUSH0 PUSH2 0xF38 DUP3 PUSH2 0xB96 JUMP JUMPDEST SWAP2 POP PUSH2 0xF43 DUP4 PUSH2 0xB96 JUMP JUMPDEST SWAP3 POP DUP3 PUSH2 0xF53 JUMPI PUSH2 0xF52 PUSH2 0xED4 JUMP JUMPDEST JUMPDEST DUP3 DUP3 DIV SWAP1 POP SWAP3 SWAP2 POP POP JUMP JUMPDEST PUSH0 PUSH2 0xF68 DUP3 PUSH2 0xB96 JUMP JUMPDEST SWAP2 POP PUSH2 0xF73 DUP4 PUSH2 0xB96 JUMP JUMPDEST SWAP3 POP DUP3 DUP3 SUB SWAP1 POP DUP2 DUP2 GT ISZERO PUSH2 0xF8B JUMPI PUSH2 0xF8A PUSH2 0xF01 JUMP JUMPDEST JUMPDEST SWAP3 SWAP2 POP POP JUMP JUMPDEST PUSH32 0x4E487B7100000000000000000000000000000000000000000000000000000000 PUSH0 MSTORE PUSH1 0x32 PUSH1 0x4 MSTORE PUSH1 0x24 PUSH0 REVERT JUMPDEST PUSH0 PUSH2 0xFC8 DUP3 PUSH2 0xB96 JUMP JUMPDEST SWAP2 POP PUSH32 0xFFFFFFFFFFFFFFFFFFFFFFFFFFFFFFFFFFFFFFFFFFFFFFFFFFFFFFFFFFFFFFFF DUP3 SUB PUSH2 0xFFA JUMPI PUSH2 0xFF9 PUSH2 0xF01 JUMP JUMPDEST JUMPDEST PUSH1 0x1 DUP3 ADD SWAP1 POP SWAP2 SWAP1 POP JUMP JUMPDEST PUSH0 DUP2 SWAP1 POP SWAP3 SWAP2 POP POP JUMP JUMPDEST POP JUMP JUMPDEST PUSH0 PUSH2 0x101D PUSH0 DUP4 PUSH2 0x1005 JUMP JUMPDEST SWAP2 POP PUSH2 0x1028 DUP3 PUSH2 0x100F JUMP JUMPDEST PUSH0 DUP3 ADD SWAP1 POP SWAP2 SWAP1 POP JUMP JUMPDEST PUSH0 PUSH2 0x103C DUP3 PUSH2 0x1012 JUMP JUMPDEST SWAP2 POP DUP2 SWAP1 POP SWAP2 SWAP1 POP JUMP JUMPDEST PUSH32 0x4E487B7100000000000000000000000000000000000000000000000000000000 PUSH0 MSTORE PUSH1 0x31 PUSH1 0x4 MSTORE PUSH1 0x24 PUSH0 REVERT JUMPDEST PUSH0 PUSH2 0x107D DUP3 PUSH2 0xB96 JUMP JUMPDEST SWAP2 POP PUSH2 0x1088 DUP4 PUSH2 0xB96 JUMP JUMPDEST SWAP3 POP DUP3 DUP3 ADD SWAP1 POP DUP1 DUP3 GT ISZERO PUSH2 0x10A0 JUMPI PUSH2 0x109F PUSH2 0xF01 JUMP JUMPDEST JUMPDEST SWAP3 SWAP2 POP POP JUMP INVALID LOG2 PUSH5 0x6970667358 0x22 SLT KECCAK256 PUSH4 0x5371532C 0xB6 0xFC 0xB2 ADDMOD MSTORE8 0x28 SELFBALANCE 0x4E 0xB3 DUP3 LOG3 BLOCKHASH SLOAD 0x2A COINBASE PUSH4 0xDDC5FF42 0xDC DUP14 0xAA PUSH27 0x93904F64736F6C634300081C0033A2646970667358221220D7AEC8 PUSH6 0x5B1B07E3F1DB BLOBHASH TSTORE PUSH7 0xA516F1829721C7 0x2B 0xB5 EXP DUP4 SWAP8 PUSH6 0x70ED14FBE50B PUSH5 0x736F6C6343 STOP ADDMOD SHR STOP CALLER "
				},
				"gasEstimates": {
					"creation": {
						"codeDepositCost": "1141800",
						"executionCost": "1185",
						"totalCost": "1142985"
					},
					"external": {
						"make(string)": "infinite"
					}
				},
				"methodIdentifiers": {
					"make(string)": "4ba7e49b"
				}
			},
			"storageLayout": {
				"storage": [],
				"types": null
			},
			"userdoc": {
				"kind": "user",
				"methods": {},
				"version": 1
			}
		}
	}
}