{
	"src/Test.sol": {
		"Test": {
			"abi": [
				{
					"inputs": [
						{
							"internalType": "address",
							"name": "owner",
							"type": "address"
						}
					],
					"stateMutability": "nonpayable",
					"type": "constructor"
				},
				{
					"inputs": [
						{
							"internalType": "address",
							"name": "owner",
							"type": "address"
						}
					],
					"name": "OwnableInvalidOwner",
					"type": "error"
				},
				{
					"inputs": [
						{
							"internalType": "address",
							"name": "account",
							"type": "address"
						}
					],
					"name": "OwnableUnauthorizedAccount",
					"type": "error"
				},
				{
					"anonymous": false,
					"inputs": [
						{
							"indexed": true,
							"internalType": "address",
							"name": "previousOwner",
							"type": "address"
						},
						{
							"indexed": true,
							"internalType": "address",
							"name": "newOwner",
							"type": "address"
						}
					],
					"name": "OwnershipTransferred",
					"type": "event"
				},
				{
					"inputs": [],
					"name": "asset",
					"outputs": [
						{
							"internalType": "contract ERC20",
							"name": "",
							"type": "address"
						}
					],
					"stateMutability": "view",
					"type": "function"
				},
				{
					"inputs": [
						{
							"internalType": "uint256",
							"name": "erc20sSold",
							"type": "uint256"
						},
						{
							"internalType": "address",
							"name": "recipient",
							"type": "address"
						}
					],
					"name": "erc20ToNativeSwap",
					"outputs": [
						{
							"internalType": "uint256",
							"name": "nativesBought",
							"type": "uint256"
						}
					],
					"stateMutability": "nonpayable",
					"type": "function"
				},
				{
					"inputs": [
						{
							"internalType": "uint256",
							"name": "erc20sSold",
							"type": "uint256"
						}
					],
					"name": "erc20ToNativeSwap",
					"outputs": [
						{
							"internalType": "uint256",
							"name": "nativesBought",
							"type": "uint256"
						}
					],
					"stateMutability": "nonpayable",
					"type": "function"
				},
				{
					"inputs": [
						{
							"internalType": "uint256",
							"name": "erc20sSold",
							"type": "uint256"
						},
						{
							"components": [
								{
									"internalType": "uint256",
									"name": "deadline",
									"type": "uint256"
								},
								{
									"internalType": "uint8",
									"name": "v",
									"type": "uint8"
								},
								{
									"internalType": "bytes32",
									"name": "r",
									"type": "bytes32"
								},
								{
									"internalType": "bytes32",
									"name": "s",
									"type": "bytes32"
								}
							],
							"internalType": "struct Permit2Sig",
							"name": "sig",
							"type": "tuple"
						}
					],
					"name": "erc20ToNativeSwap",
					"outputs": [
						{
							"internalType": "uint256",
							"name": "nativesBought",
							"type": "uint256"
						}
					],
					"stateMutability": "nonpayable",
					"type": "function"
				},
				{
					"inputs": [
						{
							"internalType": "uint256",
							"name": "erc20sSold",
							"type": "uint256"
						},
						{
							"internalType": "address",
							"name": "recipient",
							"type": "address"
						},
						{
							"components": [
								{
									"internalType": "uint256",
									"name": "deadline",
									"type": "uint256"
								},
								{
									"internalType": "uint8",
									"name": "v",
									"type": "uint8"
								},
								{
									"internalType": "bytes32",
									"name": "r",
									"type": "bytes32"
								},
								{
									"internalType": "bytes32",
									"name": "s",
									"type": "bytes32"
								}
							],
							"internalType": "struct Permit2Sig",
							"name": "sig",
							"type": "tuple"
						}
					],
					"name": "erc20ToNativeSwap",
					"outputs": [
						{
							"internalType": "uint256",
							"name": "nativesBought",
							"type": "uint256"
						}
					],
					"stateMutability": "nonpayable",
					"type": "function"
				},
				{
					"inputs": [
						{
							"internalType": "uint256",
							"name": "erc20sSold",
							"type": "uint256"
						}
					],
					"name": "getERC20ToNativePrice",
					"outputs": [
						{
							"internalType": "uint256",
							"name": "nativesBought",
							"type": "uint256"
						}
					],
					"stateMutability": "view",
					"type": "function"
				},
				{
					"inputs": [
						{
							"internalType": "uint256",
							"name": "nativesSold",
							"type": "uint256"
						}
					],
					"name": "getNativeToERC20Price",
					"outputs": [
						{
							"internalType": "uint256",
							"name": "erc20sBought",
							"type": "uint256"
						}
					],
					"stateMutability": "view",
					"type": "function"
				},
				{
					"inputs": [],
					"name": "nativeToERC20Swap",
					"outputs": [
						{
							"internalType": "uint256",
							"name": "erc20sBought",
							"type": "uint256"
						}
					],
					"stateMutability": "payable",
					"type": "function"
				},
				{
					"inputs": [
						{
							"internalType": "address",
							"name": "recipient",
							"type": "address"
						}
					],
					"name": "nativeToERC20Swap",
					"outputs": [
						{
							"internalType": "uint256",
							"name": "erc20sBought",
							"type": "uint256"
						}
					],
					"stateMutability": "payable",
					"type": "function"
				},
				{
					"inputs": [],
					"name": "owner",
					"outputs": [
						{
							"internalType": "address",
							"name": "",
							"type": "address"
						}
					],
					"stateMutability": "view",
					"type": "function"
				},
				{
					"inputs": [],
					"name": "renounceOwnership",
					"outputs": [],
					"stateMutability": "nonpayable",
					"type": "function"
				},
				{
					"inputs": [
						{
							"internalType": "address",
							"name": "newOwner",
							"type": "address"
						}
					],
					"name": "transferOwnership",
					"outputs": [],
					"stateMutability": "nonpayable",
					"type": "function"
				}
			],
			"devdoc": {
				"errors": {
					"OwnableInvalidOwner(address)": [
						{
							"details": "The owner is not a valid owner account. (eg. `address(0)`)"
						}
					],
					"OwnableUnauthorizedAccount(address)": [
						{
							"details": "The caller account is not authorized to perform an operation."
						}
					]
				},
				"kind": "dev",
				"methods": {
					"owner()": {
						"details": "Returns the address of the current owner."
					},
					"renounceOwnership()": {
						"details": "Leaves the contract without owner. It will not be possible to call `onlyOwner` functions. Can only be called by the current owner. NOTE: Renouncing ownership will leave the contract without an owner, thereby disabling any functionality that is only available to the owner."
					},
					"transferOwnership(address)": {
						"details": "Transfers ownership of the contract to a new account (`newOwner`). Can only be called by the current owner."
					}
				},
				"version": 1
			},
			"evm": {
				"assembly": "    /* \"src/Test.sol\":252:924  contract Test is Ownable, SwapAbstract {... */\n  mstore(0x40, 0xa0)\n    /* \"src/Test.sol\":300:385  constructor(address owner) Ownable(owner) SwapAbstract(ERC20(address(this))) {... */\n  callvalue\n  dup1\n  iszero\n  tag_1\n  jumpi\n  revert(0x00, 0x00)\ntag_1:\n  pop\n  mload(0x40)\n  sub(codesize, bytecodeSize)\n  dup1\n  bytecodeSize\n  dup4\n  codecopy\n  dup2\n  add\n  0x40\n  dup2\n  swap1\n  mstore\n  tag_2\n  swap2\n  tag_3\n  jump\t// in\ntag_2:\n    /* \"src/Test.sol\":369:373  this */\n  address\n    /* \"src/Test.sol\":335:340  owner */\n  dup2\n  sub(shl(0xa0, 0x01), 0x01)\n    /* \"@openzeppelin/contracts/access/Ownable.sol\":1273:1299  initialOwner == address(0) */\n  dup2\n  and\n    /* \"@openzeppelin/contracts/access/Ownable.sol\":1269:1364  if (initialOwner == address(0)) {... */\n  tag_8\n  jumpi\n    /* \"@openzeppelin/contracts/access/Ownable.sol\":1322:1353  OwnableInvalidOwner(address(0)) */\n  mload(0x40)\n  shl(0xe0, 0x1e4fbdf7)\n  dup2\n  mstore\n    /* \"@openzeppelin/contracts/access/Ownable.sol\":1350:1351  0 */\n  0x00\n    /* \"@openzeppelin/contracts/access/Ownable.sol\":1322:1353  OwnableInvalidOwner(address(0)) */\n  0x04\n  dup3\n  add\n    /* \"#utility.yul\":455:506   */\n  mstore\n    /* \"#utility.yul\":428:446   */\n  0x24\n  add\n    /* \"@openzeppelin/contracts/access/Ownable.sol\":1322:1353  OwnableInvalidOwner(address(0)) */\n  mload(0x40)\n  dup1\n  swap2\n  sub\n  swap1\n  revert\n    /* \"@openzeppelin/contracts/access/Ownable.sol\":1269:1364  if (initialOwner == address(0)) {... */\ntag_8:\n    /* \"@openzeppelin/contracts/access/Ownable.sol\":1373:1405  _transferOwnership(initialOwner) */\n  tag_11\n    /* \"@openzeppelin/contracts/access/Ownable.sol\":1392:1404  initialOwner */\n  dup2\n    /* \"@openzeppelin/contracts/access/Ownable.sol\":1373:1391  _transferOwnership */\n  tag_12\n    /* \"@openzeppelin/contracts/access/Ownable.sol\":1373:1405  _transferOwnership(initialOwner) */\n  jump\t// in\ntag_11:\n  pop\n  sub(shl(0xa0, 0x01), 0x01)\n    /* \"src/SwapAbstract.sol\":358:372  asset = asset_ */\n  and\n  0x80\n  mstore\n  pop\n    /* \"src/Test.sol\":252:924  contract Test is Ownable, SwapAbstract {... */\n  jump(tag_17)\n    /* \"@openzeppelin/contracts/access/Ownable.sol\":2912:3099  function _transferOwnership(address newOwner) internal virtual {... */\ntag_12:\n    /* \"@openzeppelin/contracts/access/Ownable.sol\":2985:3001  address oldOwner */\n  0x00\n    /* \"@openzeppelin/contracts/access/Ownable.sol\":3004:3010  _owner */\n  dup1\n  sload\n  sub(shl(0xa0, 0x01), 0x01)\n    /* \"@openzeppelin/contracts/access/Ownable.sol\":3020:3037  _owner = newOwner */\n  dup4\n  dup2\n  and\n  not(sub(shl(0xa0, 0x01), 0x01))\n  dup4\n  and\n  dup2\n  or\n  dup5\n  sstore\n    /* \"@openzeppelin/contracts/access/Ownable.sol\":3052:3092  OwnershipTransferred(oldOwner, newOwner) */\n  mload(0x40)\n    /* \"@openzeppelin/contracts/access/Ownable.sol\":3004:3010  _owner */\n  swap2\n  swap1\n  swap3\n  and\n  swap3\n  dup4\n  swap2\n    /* \"@openzeppelin/contracts/access/Ownable.sol\":3052:3092  OwnershipTransferred(oldOwner, newOwner) */\n  0x8be0079c531659141344cd1fd0a4f28419497f9722a3daafe3b4186f6b6457e0\n  swap2\n    /* \"@openzeppelin/contracts/access/Ownable.sol\":2985:3001  address oldOwner */\n  swap1\n    /* \"@openzeppelin/contracts/access/Ownable.sol\":3052:3092  OwnershipTransferred(oldOwner, newOwner) */\n  log3\n    /* \"@openzeppelin/contracts/access/Ownable.sol\":2975:3099  {... */\n  pop\n    /* \"@openzeppelin/contracts/access/Ownable.sol\":2912:3099  function _transferOwnership(address newOwner) internal virtual {... */\n  pop\n  jump\t// out\n    /* \"#utility.yul\":14:304   */\ntag_3:\n    /* \"#utility.yul\":84:90   */\n  0x00\n    /* \"#utility.yul\":137:139   */\n  0x20\n    /* \"#utility.yul\":125:134   */\n  dup3\n    /* \"#utility.yul\":116:123   */\n  dup5\n    /* \"#utility.yul\":112:135   */\n  sub\n    /* \"#utility.yul\":108:140   */\n  slt\n    /* \"#utility.yul\":105:157   */\n  iszero\n  tag_19\n  jumpi\n    /* \"#utility.yul\":153:154   */\n  0x00\n    /* \"#utility.yul\":150:151   */\n  0x00\n    /* \"#utility.yul\":143:155   */\n  revert\n    /* \"#utility.yul\":105:157   */\ntag_19:\n    /* \"#utility.yul\":179:195   */\n  dup2\n  mload\n  sub(shl(0xa0, 0x01), 0x01)\n    /* \"#utility.yul\":224:255   */\n  dup2\n  and\n    /* \"#utility.yul\":214:256   */\n  dup2\n  eq\n    /* \"#utility.yul\":204:274   */\n  tag_20\n  jumpi\n    /* \"#utility.yul\":270:271   */\n  0x00\n    /* \"#utility.yul\":267:268   */\n  0x00\n    /* \"#utility.yul\":260:272   */\n  revert\n    /* \"#utility.yul\":204:274   */\ntag_20:\n    /* \"#utility.yul\":293:298   */\n  swap4\n    /* \"#utility.yul\":14:304   */\n  swap3\n  pop\n  pop\n  pop\n  jump\t// out\n    /* \"#utility.yul\":309:512   */\ntag_17:\n    /* \"src/Test.sol\":252:924  contract Test is Ownable, SwapAbstract {... */\n  mload(0x80)\n  codecopy(0x00, dataOffset(sub_0), dataSize(sub_0))\n  0x00\n  assignImmutable(\"0xeb673d1167741de01e46e8792e6936904dce49145827532ad0c39a679efbf8f2\")\n  return(0x00, dataSize(sub_0))\nstop\n\nsub_0: assembly {\n        /* \"src/Test.sol\":252:924  contract Test is Ownable, SwapAbstract {... */\n      mstore(0x40, 0x80)\n      jumpi(tag_1, lt(calldatasize, 0x04))\n      shr(0xe0, calldataload(0x00))\n      dup1\n      0x8da5cb5b\n      gt\n      tag_14\n      jumpi\n      dup1\n      0x8da5cb5b\n      eq\n      tag_8\n      jumpi\n      dup1\n      0xaea1e3d1\n      eq\n      tag_9\n      jumpi\n      dup1\n      0xbc710575\n      eq\n      tag_10\n      jumpi\n      dup1\n      0xde899d1f\n      eq\n      tag_11\n      jumpi\n      dup1\n      0xea6b80b7\n      eq\n      tag_3\n      jumpi\n      dup1\n      0xf2fde38b\n      eq\n      tag_13\n      jumpi\n      revert(0x00, 0x00)\n    tag_14:\n      dup1\n      0x08e30698\n      eq\n      tag_2\n      jumpi\n      dup1\n      0x127d0409\n      eq\n      tag_3\n      jumpi\n      dup1\n      0x19cdf284\n      eq\n      tag_4\n      jumpi\n      dup1\n      0x25d1782d\n      eq\n      tag_3\n      jumpi\n      dup1\n      0x38d52e0f\n      eq\n      tag_6\n      jumpi\n      dup1\n      0x715018a6\n      eq\n      tag_7\n      jumpi\n    tag_1:\n      revert(0x00, 0x00)\n        /* \"src/Test.sol\":655:790  function erc20ToNativeSwap(uint erc20sSold, address recipient) public override returns (uint nativesBought) {... */\n    tag_2:\n      callvalue\n      dup1\n      iszero\n      tag_15\n      jumpi\n      revert(0x00, 0x00)\n    tag_15:\n      pop\n      tag_16\n      tag_17\n      calldatasize\n      0x04\n      tag_18\n      jump\t// in\n    tag_17:\n        /* \"src/Test.sol\":743:761  uint nativesBought */\n      0x00\n        /* \"src/Test.sol\":655:790  function erc20ToNativeSwap(uint erc20sSold, address recipient) public override returns (uint nativesBought) {... */\n      swap3\n      swap2\n      pop\n      pop\n      jump\n    tag_16:\n      mload(0x40)\n        /* \"#utility.yul\":643:668   */\n      swap1\n      dup2\n      mstore\n        /* \"#utility.yul\":631:633   */\n      0x20\n        /* \"#utility.yul\":616:634   */\n      add\n        /* \"src/Test.sol\":655:790  function erc20ToNativeSwap(uint erc20sSold, address recipient) public override returns (uint nativesBought) {... */\n    tag_20:\n      mload(0x40)\n      dup1\n      swap2\n      sub\n      swap1\n      return\n        /* \"src/SwapAbstract.sol\":812:959  function erc20ToNativeSwap(uint erc20sSold) public returns (uint nativesBought) {... */\n    tag_3:\n      callvalue\n      dup1\n      iszero\n      tag_22\n      jumpi\n      revert(0x00, 0x00)\n    tag_22:\n      pop\n      tag_16\n      tag_24\n      calldatasize\n      0x04\n      tag_25\n      jump\t// in\n    tag_24:\n      pop\n        /* \"src/SwapAbstract.sol\":872:890  uint nativesBought */\n      0x00\n      swap1\n        /* \"src/SwapAbstract.sol\":812:959  function erc20ToNativeSwap(uint erc20sSold) public returns (uint nativesBought) {... */\n      jump\n        /* \"src/SwapAbstract.sol\":1266:1443  function erc20ToNativeSwap(uint erc20sSold, Permit2Sig calldata sig) external returns (uint nativesBought) {... */\n    tag_4:\n      callvalue\n      dup1\n      iszero\n      tag_28\n      jumpi\n      revert(0x00, 0x00)\n    tag_28:\n      pop\n      tag_16\n      tag_30\n      calldatasize\n      0x04\n      tag_31\n      jump\t// in\n    tag_30:\n      tag_32\n      jump\t// in\n        /* \"src/SwapAbstract.sol\":285:313  ERC20 public immutable asset */\n    tag_6:\n      callvalue\n      dup1\n      iszero\n      tag_39\n      jumpi\n      revert(0x00, 0x00)\n    tag_39:\n      pop\n      tag_40\n      immutable(\"0xeb673d1167741de01e46e8792e6936904dce49145827532ad0c39a679efbf8f2\")\n      dup2\n      jump\n    tag_40:\n      mload(0x40)\n      sub(shl(0xa0, 0x01), 0x01)\n        /* \"#utility.yul\":1614:1646   */\n      swap1\n      swap2\n      and\n        /* \"#utility.yul\":1596:1647   */\n      dup2\n      mstore\n        /* \"#utility.yul\":1584:1586   */\n      0x20\n        /* \"#utility.yul\":1569:1587   */\n      add\n        /* \"src/SwapAbstract.sol\":285:313  ERC20 public immutable asset */\n      tag_20\n        /* \"#utility.yul\":1437:1653   */\n      jump\n        /* \"@openzeppelin/contracts/access/Ownable.sol\":2293:2394  function renounceOwnership() public virtual onlyOwner {... */\n    tag_7:\n      callvalue\n      dup1\n      iszero\n      tag_44\n      jumpi\n      revert(0x00, 0x00)\n    tag_44:\n      pop\n      tag_45\n      tag_46\n      jump\t// in\n    tag_45:\n      stop\n        /* \"@openzeppelin/contracts/access/Ownable.sol\":1638:1723  function owner() public view virtual returns (address) {... */\n    tag_8:\n      callvalue\n      dup1\n      iszero\n      tag_47\n      jumpi\n      revert(0x00, 0x00)\n    tag_47:\n      pop\n        /* \"@openzeppelin/contracts/access/Ownable.sol\":1684:1691  address */\n      0x00\n        /* \"@openzeppelin/contracts/access/Ownable.sol\":1710:1716  _owner */\n      sload\n      sub(shl(0xa0, 0x01), 0x01)\n      and\n        /* \"@openzeppelin/contracts/access/Ownable.sol\":1638:1723  function owner() public view virtual returns (address) {... */\n      jump(tag_40)\n        /* \"src/SwapAbstract.sol\":1455:1584  function nativeToERC20Swap() external payable returns (uint erc20sBought) {... */\n    tag_9:\n        /* \"src/SwapAbstract.sol\":1510:1527  uint erc20sBought */\n      0x00\n        /* \"src/SwapAbstract.sol\":1455:1584  function nativeToERC20Swap() external payable returns (uint erc20sBought) {... */\n      jump(tag_16)\n        /* \"src/Test.sol\":796:921  function nativeToERC20Swap(address recipient) public override payable returns (uint erc20sBought) {... */\n    tag_10:\n      tag_16\n      tag_24\n      calldatasize\n      0x04\n      tag_57\n      jump\t// in\n        /* \"src/SwapAbstract.sol\":967:1254  function erc20ToNativeSwap(uint erc20sSold, address recipient, Permit2Sig calldata sig) public returns (uint nativesBought) {... */\n    tag_11:\n      callvalue\n      dup1\n      iszero\n      tag_60\n      jumpi\n      revert(0x00, 0x00)\n    tag_60:\n      pop\n      tag_16\n      tag_62\n      calldatasize\n      0x04\n      tag_63\n      jump\t// in\n    tag_62:\n      tag_64\n      jump\t// in\n        /* \"@openzeppelin/contracts/access/Ownable.sol\":2543:2758  function transferOwnership(address newOwner) public virtual onlyOwner {... */\n    tag_13:\n      callvalue\n      dup1\n      iszero\n      tag_71\n      jumpi\n      revert(0x00, 0x00)\n    tag_71:\n      pop\n      tag_45\n      tag_73\n      calldatasize\n      0x04\n      tag_57\n      jump\t// in\n    tag_73:\n      tag_74\n      jump\t// in\n        /* \"src/SwapAbstract.sol\":1266:1443  function erc20ToNativeSwap(uint erc20sSold, Permit2Sig calldata sig) external returns (uint nativesBought) {... */\n    tag_32:\n        /* \"src/SwapAbstract.sol\":1353:1371  uint nativesBought */\n      0x00\n        /* \"src/SwapAbstract.sol\":1391:1435  erc20ToNativeSwap(erc20sSold,msg.sender,sig) */\n      tag_79\n        /* \"src/SwapAbstract.sol\":1409:1419  erc20sSold */\n      dup4\n        /* \"src/SwapAbstract.sol\":1420:1430  msg.sender */\n      caller\n        /* \"src/SwapAbstract.sol\":1431:1434  sig */\n      dup5\n        /* \"src/SwapAbstract.sol\":1391:1408  erc20ToNativeSwap */\n      tag_64\n        /* \"src/SwapAbstract.sol\":1391:1435  erc20ToNativeSwap(erc20sSold,msg.sender,sig) */\n      jump\t// in\n    tag_79:\n        /* \"src/SwapAbstract.sol\":1384:1435  return erc20ToNativeSwap(erc20sSold,msg.sender,sig) */\n      swap4\n        /* \"src/SwapAbstract.sol\":1266:1443  function erc20ToNativeSwap(uint erc20sSold, Permit2Sig calldata sig) external returns (uint nativesBought) {... */\n      swap3\n      pop\n      pop\n      pop\n      jump\t// out\n        /* \"@openzeppelin/contracts/access/Ownable.sol\":2293:2394  function renounceOwnership() public virtual onlyOwner {... */\n    tag_46:\n        /* \"@openzeppelin/contracts/access/Ownable.sol\":1531:1544  _checkOwner() */\n      tag_82\n        /* \"@openzeppelin/contracts/access/Ownable.sol\":1531:1542  _checkOwner */\n      tag_83\n        /* \"@openzeppelin/contracts/access/Ownable.sol\":1531:1544  _checkOwner() */\n      jump\t// in\n    tag_82:\n        /* \"@openzeppelin/contracts/access/Ownable.sol\":2357:2387  _transferOwnership(address(0)) */\n      tag_85\n        /* \"@openzeppelin/contracts/access/Ownable.sol\":2384:2385  0 */\n      0x00\n        /* \"@openzeppelin/contracts/access/Ownable.sol\":2357:2375  _transferOwnership */\n      tag_86\n        /* \"@openzeppelin/contracts/access/Ownable.sol\":2357:2387  _transferOwnership(address(0)) */\n      jump\t// in\n    tag_85:\n        /* \"@openzeppelin/contracts/access/Ownable.sol\":2293:2394  function renounceOwnership() public virtual onlyOwner {... */\n      jump\t// out\n        /* \"src/SwapAbstract.sol\":967:1254  function erc20ToNativeSwap(uint erc20sSold, address recipient, Permit2Sig calldata sig) public returns (uint nativesBought) {... */\n    tag_64:\n        /* \"src/SwapAbstract.sol\":1071:1089  uint nativesBought */\n      0x00\n      sub(shl(0xa0, 0x01), 0x01)\n        /* \"src/SwapAbstract.sol\":1102:1107  asset */\n      immutable(\"0xeb673d1167741de01e46e8792e6936904dce49145827532ad0c39a679efbf8f2\")\n        /* \"src/SwapAbstract.sol\":1102:1114  asset.permit */\n      and\n      0xd505accf\n        /* \"src/SwapAbstract.sol\":1115:1125  msg.sender */\n      caller\n        /* \"src/SwapAbstract.sol\":1135:1139  this */\n      address\n        /* \"src/SwapAbstract.sol\":1142:1152  erc20sSold */\n      dup8\n        /* \"src/SwapAbstract.sol\":1154:1166  sig.deadline */\n      dup7\n      calldataload\n        /* \"src/SwapAbstract.sol\":1168:1173  sig.v */\n      tag_92\n      0x40\n      dup10\n      add\n      0x20\n      dup11\n      add\n      tag_93\n      jump\t// in\n    tag_92:\n        /* \"src/SwapAbstract.sol\":1175:1180  sig.r */\n      0x40\n        /* \"src/SwapAbstract.sol\":1102:1188  asset.permit(msg.sender, address(this), erc20sSold, sig.deadline, sig.v, sig.r, sig.s) */\n      dup1\n      mload\n      not(sub(shl(0xe0, 0x01), 0x01))\n      0xe0\n      dup10\n      swap1\n      shl\n      and\n      dup2\n      mstore\n      sub(shl(0xa0, 0x01), 0x01)\n        /* \"#utility.yul\":3097:3129   */\n      swap7\n      dup8\n      and\n        /* \"src/SwapAbstract.sol\":1102:1188  asset.permit(msg.sender, address(this), erc20sSold, sig.deadline, sig.v, sig.r, sig.s) */\n      0x04\n      dup3\n      add\n        /* \"#utility.yul\":3079:3130   */\n      mstore\n        /* \"#utility.yul\":3166:3198   */\n      swap6\n      swap1\n      swap5\n      and\n        /* \"#utility.yul\":3146:3164   */\n      0x24\n      dup7\n      add\n        /* \"#utility.yul\":3139:3199   */\n      mstore\n        /* \"#utility.yul\":3215:3233   */\n      0x44\n      dup6\n      add\n        /* \"#utility.yul\":3208:3242   */\n      swap3\n      swap1\n      swap3\n      mstore\n        /* \"#utility.yul\":3258:3276   */\n      0x64\n      dup5\n      add\n        /* \"#utility.yul\":3251:3285   */\n      mstore\n        /* \"#utility.yul\":3334:3338   */\n      0xff\n        /* \"#utility.yul\":3322:3339   */\n      and\n        /* \"#utility.yul\":3301:3320   */\n      0x84\n      dup4\n      add\n        /* \"#utility.yul\":3294:3340   */\n      mstore\n        /* \"src/SwapAbstract.sol\":1175:1180  sig.r */\n      dup6\n      add\n      calldataload\n        /* \"#utility.yul\":3356:3375   */\n      0xa4\n      dup3\n      add\n        /* \"#utility.yul\":3349:3384   */\n      mstore\n        /* \"src/SwapAbstract.sol\":1182:1187  sig.s */\n      0x60\n      dup6\n      add\n      calldataload\n        /* \"#utility.yul\":3400:3419   */\n      0xc4\n      dup3\n      add\n        /* \"#utility.yul\":3393:3428   */\n      mstore\n        /* \"#utility.yul\":3051:3070   */\n      0xe4\n      add\n        /* \"src/SwapAbstract.sol\":1102:1188  asset.permit(msg.sender, address(this), erc20sSold, sig.deadline, sig.v, sig.r, sig.s) */\n      0x00\n      mload(0x40)\n      dup1\n      dup4\n      sub\n      dup2\n      0x00\n      dup8\n      dup1\n      extcodesize\n      iszero\n      dup1\n      iszero\n      tag_96\n      jumpi\n      revert(0x00, 0x00)\n    tag_96:\n      pop\n      gas\n      call\n      iszero\n      dup1\n      iszero\n      tag_98\n      jumpi\n      returndatacopy(0x00, 0x00, returndatasize)\n      revert(0x00, returndatasize)\n    tag_98:\n      pop\n        /* \"src/Test.sol\":743:761  uint nativesBought */\n      0x00\n      swap3\n      pop\n        /* \"src/SwapAbstract.sol\":1206:1246  erc20ToNativeSwap(erc20sSold, recipient) */\n      tag_99\n      swap2\n      pop\n      pop\n        /* \"src/Test.sol\":655:790  function erc20ToNativeSwap(uint erc20sSold, address recipient) public override returns (uint nativesBought) {... */\n      jump\n        /* \"src/SwapAbstract.sol\":1206:1246  erc20ToNativeSwap(erc20sSold, recipient) */\n    tag_99:\n        /* \"src/SwapAbstract.sol\":1199:1246  return erc20ToNativeSwap(erc20sSold, recipient) */\n      swap5\n        /* \"src/SwapAbstract.sol\":967:1254  function erc20ToNativeSwap(uint erc20sSold, address recipient, Permit2Sig calldata sig) public returns (uint nativesBought) {... */\n      swap4\n      pop\n      pop\n      pop\n      pop\n      jump\t// out\n        /* \"@openzeppelin/contracts/access/Ownable.sol\":2543:2758  function transferOwnership(address newOwner) public virtual onlyOwner {... */\n    tag_74:\n        /* \"@openzeppelin/contracts/access/Ownable.sol\":1531:1544  _checkOwner() */\n      tag_102\n        /* \"@openzeppelin/contracts/access/Ownable.sol\":1531:1542  _checkOwner */\n      tag_83\n        /* \"@openzeppelin/contracts/access/Ownable.sol\":1531:1544  _checkOwner() */\n      jump\t// in\n    tag_102:\n      sub(shl(0xa0, 0x01), 0x01)\n        /* \"@openzeppelin/contracts/access/Ownable.sol\":2627:2649  newOwner == address(0) */\n      dup2\n      and\n        /* \"@openzeppelin/contracts/access/Ownable.sol\":2623:2714  if (newOwner == address(0)) {... */\n      tag_104\n      jumpi\n        /* \"@openzeppelin/contracts/access/Ownable.sol\":2672:2703  OwnableInvalidOwner(address(0)) */\n      mload(0x40)\n      shl(0xe0, 0x1e4fbdf7)\n      dup2\n      mstore\n        /* \"@openzeppelin/contracts/access/Ownable.sol\":2700:2701  0 */\n      0x00\n        /* \"@openzeppelin/contracts/access/Ownable.sol\":2672:2703  OwnableInvalidOwner(address(0)) */\n      0x04\n      dup3\n      add\n        /* \"#utility.yul\":1596:1647   */\n      mstore\n        /* \"#utility.yul\":1569:1587   */\n      0x24\n      add\n        /* \"@openzeppelin/contracts/access/Ownable.sol\":2672:2703  OwnableInvalidOwner(address(0)) */\n    tag_105:\n      mload(0x40)\n      dup1\n      swap2\n      sub\n      swap1\n      revert\n        /* \"@openzeppelin/contracts/access/Ownable.sol\":2623:2714  if (newOwner == address(0)) {... */\n    tag_104:\n        /* \"@openzeppelin/contracts/access/Ownable.sol\":2723:2751  _transferOwnership(newOwner) */\n      tag_106\n        /* \"@openzeppelin/contracts/access/Ownable.sol\":2742:2750  newOwner */\n      dup2\n        /* \"@openzeppelin/contracts/access/Ownable.sol\":2723:2741  _transferOwnership */\n      tag_86\n        /* \"@openzeppelin/contracts/access/Ownable.sol\":2723:2751  _transferOwnership(newOwner) */\n      jump\t// in\n    tag_106:\n        /* \"@openzeppelin/contracts/access/Ownable.sol\":2543:2758  function transferOwnership(address newOwner) public virtual onlyOwner {... */\n      pop\n      jump\t// out\n        /* \"@openzeppelin/contracts/access/Ownable.sol\":1796:1958  function _checkOwner() internal view virtual {... */\n    tag_83:\n        /* \"@openzeppelin/contracts/access/Ownable.sol\":1684:1691  address */\n      0x00\n        /* \"@openzeppelin/contracts/access/Ownable.sol\":1710:1716  _owner */\n      sload\n      sub(shl(0xa0, 0x01), 0x01)\n      and\n        /* \"@openzeppelin/contracts/utils/Context.sol\":735:745  msg.sender */\n      caller\n        /* \"@openzeppelin/contracts/access/Ownable.sol\":1855:1878  owner() != _msgSender() */\n      eq\n        /* \"@openzeppelin/contracts/access/Ownable.sol\":1851:1952  if (owner() != _msgSender()) {... */\n      tag_85\n      jumpi\n        /* \"@openzeppelin/contracts/access/Ownable.sol\":1901:1941  OwnableUnauthorizedAccount(_msgSender()) */\n      mload(0x40)\n      shl(0xe0, 0x118cdaa7)\n      dup2\n      mstore\n        /* \"@openzeppelin/contracts/utils/Context.sol\":735:745  msg.sender */\n      caller\n        /* \"@openzeppelin/contracts/access/Ownable.sol\":1901:1941  OwnableUnauthorizedAccount(_msgSender()) */\n      0x04\n      dup3\n      add\n        /* \"#utility.yul\":1596:1647   */\n      mstore\n        /* \"#utility.yul\":1569:1587   */\n      0x24\n      add\n        /* \"@openzeppelin/contracts/access/Ownable.sol\":1901:1941  OwnableUnauthorizedAccount(_msgSender()) */\n      tag_105\n        /* \"#utility.yul\":1437:1653   */\n      jump\n        /* \"@openzeppelin/contracts/access/Ownable.sol\":2912:3099  function _transferOwnership(address newOwner) internal virtual {... */\n    tag_86:\n        /* \"@openzeppelin/contracts/access/Ownable.sol\":2985:3001  address oldOwner */\n      0x00\n        /* \"@openzeppelin/contracts/access/Ownable.sol\":3004:3010  _owner */\n      dup1\n      sload\n      sub(shl(0xa0, 0x01), 0x01)\n        /* \"@openzeppelin/contracts/access/Ownable.sol\":3020:3037  _owner = newOwner */\n      dup4\n      dup2\n      and\n      not(sub(shl(0xa0, 0x01), 0x01))\n      dup4\n      and\n      dup2\n      or\n      dup5\n      sstore\n        /* \"@openzeppelin/contracts/access/Ownable.sol\":3052:3092  OwnershipTransferred(oldOwner, newOwner) */\n      mload(0x40)\n        /* \"@openzeppelin/contracts/access/Ownable.sol\":3004:3010  _owner */\n      swap2\n      swap1\n      swap3\n      and\n      swap3\n      dup4\n      swap2\n        /* \"@openzeppelin/contracts/access/Ownable.sol\":3052:3092  OwnershipTransferred(oldOwner, newOwner) */\n      0x8be0079c531659141344cd1fd0a4f28419497f9722a3daafe3b4186f6b6457e0\n      swap2\n        /* \"@openzeppelin/contracts/access/Ownable.sol\":2985:3001  address oldOwner */\n      swap1\n        /* \"@openzeppelin/contracts/access/Ownable.sol\":3052:3092  OwnershipTransferred(oldOwner, newOwner) */\n      log3\n        /* \"@openzeppelin/contracts/access/Ownable.sol\":2975:3099  {... */\n      pop\n        /* \"@openzeppelin/contracts/access/Ownable.sol\":2912:3099  function _transferOwnership(address newOwner) internal virtual {... */\n      pop\n      jump\t// out\n        /* \"#utility.yul\":14:187   */\n    tag_116:\n        /* \"#utility.yul\":82:102   */\n      dup1\n      calldataload\n      sub(shl(0xa0, 0x01), 0x01)\n        /* \"#utility.yul\":131:162   */\n      dup2\n      and\n        /* \"#utility.yul\":121:163   */\n      dup2\n      eq\n        /* \"#utility.yul\":111:181   */\n      tag_120\n      jumpi\n        /* \"#utility.yul\":177:178   */\n      0x00\n        /* \"#utility.yul\":174:175   */\n      0x00\n        /* \"#utility.yul\":167:179   */\n      revert\n        /* \"#utility.yul\":111:181   */\n    tag_120:\n        /* \"#utility.yul\":14:187   */\n      swap2\n      swap1\n      pop\n      jump\t// out\n        /* \"#utility.yul\":192:492   */\n    tag_18:\n        /* \"#utility.yul\":260:266   */\n      0x00\n        /* \"#utility.yul\":268:274   */\n      0x00\n        /* \"#utility.yul\":321:323   */\n      0x40\n        /* \"#utility.yul\":309:318   */\n      dup4\n        /* \"#utility.yul\":300:307   */\n      dup6\n        /* \"#utility.yul\":296:319   */\n      sub\n        /* \"#utility.yul\":292:324   */\n      slt\n        /* \"#utility.yul\":289:341   */\n      iszero\n      tag_122\n      jumpi\n        /* \"#utility.yul\":337:338   */\n      0x00\n        /* \"#utility.yul\":334:335   */\n      0x00\n        /* \"#utility.yul\":327:339   */\n      revert\n        /* \"#utility.yul\":289:341   */\n    tag_122:\n        /* \"#utility.yul\":382:405   */\n      dup3\n      calldataload\n      swap2\n      pop\n        /* \"#utility.yul\":448:486   */\n      tag_123\n        /* \"#utility.yul\":482:484   */\n      0x20\n        /* \"#utility.yul\":467:485   */\n      dup5\n      add\n        /* \"#utility.yul\":448:486   */\n      tag_116\n      jump\t// in\n    tag_123:\n        /* \"#utility.yul\":438:486   */\n      swap1\n      pop\n        /* \"#utility.yul\":192:492   */\n      swap3\n      pop\n      swap3\n      swap1\n      pop\n      jump\t// out\n        /* \"#utility.yul\":679:905   */\n    tag_25:\n        /* \"#utility.yul\":738:744   */\n      0x00\n        /* \"#utility.yul\":791:793   */\n      0x20\n        /* \"#utility.yul\":779:788   */\n      dup3\n        /* \"#utility.yul\":770:777   */\n      dup5\n        /* \"#utility.yul\":766:789   */\n      sub\n        /* \"#utility.yul\":762:794   */\n      slt\n        /* \"#utility.yul\":759:811   */\n      iszero\n      tag_126\n      jumpi\n        /* \"#utility.yul\":807:808   */\n      0x00\n        /* \"#utility.yul\":804:805   */\n      0x00\n        /* \"#utility.yul\":797:809   */\n      revert\n        /* \"#utility.yul\":759:811   */\n    tag_126:\n      pop\n        /* \"#utility.yul\":852:875   */\n      calldataload\n      swap2\n        /* \"#utility.yul\":679:905   */\n      swap1\n      pop\n      jump\t// out\n        /* \"#utility.yul\":910:1069   */\n    tag_117:\n        /* \"#utility.yul\":973:978   */\n      0x00\n        /* \"#utility.yul\":1018:1021   */\n      0x80\n        /* \"#utility.yul\":1009:1015   */\n      dup3\n        /* \"#utility.yul\":1004:1007   */\n      dup5\n        /* \"#utility.yul\":1000:1016   */\n      sub\n        /* \"#utility.yul\":996:1022   */\n      slt\n        /* \"#utility.yul\":993:1039   */\n      iszero\n      tag_128\n      jumpi\n        /* \"#utility.yul\":1035:1036   */\n      0x00\n        /* \"#utility.yul\":1032:1033   */\n      0x00\n        /* \"#utility.yul\":1025:1037   */\n      revert\n        /* \"#utility.yul\":993:1039   */\n    tag_128:\n      pop\n        /* \"#utility.yul\":1057:1063   */\n      swap2\n        /* \"#utility.yul\":910:1069   */\n      swap1\n      pop\n      jump\t// out\n        /* \"#utility.yul\":1074:1432   */\n    tag_31:\n        /* \"#utility.yul\":1171:1177   */\n      0x00\n        /* \"#utility.yul\":1179:1185   */\n      0x00\n        /* \"#utility.yul\":1232:1235   */\n      0xa0\n        /* \"#utility.yul\":1220:1229   */\n      dup4\n        /* \"#utility.yul\":1211:1218   */\n      dup6\n        /* \"#utility.yul\":1207:1230   */\n      sub\n        /* \"#utility.yul\":1203:1236   */\n      slt\n        /* \"#utility.yul\":1200:1253   */\n      iszero\n      tag_130\n      jumpi\n        /* \"#utility.yul\":1249:1250   */\n      0x00\n        /* \"#utility.yul\":1246:1247   */\n      0x00\n        /* \"#utility.yul\":1239:1251   */\n      revert\n        /* \"#utility.yul\":1200:1253   */\n    tag_130:\n        /* \"#utility.yul\":1294:1317   */\n      dup3\n      calldataload\n      swap2\n      pop\n        /* \"#utility.yul\":1360:1426   */\n      tag_123\n        /* \"#utility.yul\":1418:1425   */\n      dup5\n        /* \"#utility.yul\":1413:1415   */\n      0x20\n        /* \"#utility.yul\":1398:1416   */\n      dup6\n      add\n        /* \"#utility.yul\":1360:1426   */\n      tag_117\n      jump\t// in\n        /* \"#utility.yul\":1866:2052   */\n    tag_57:\n        /* \"#utility.yul\":1925:1931   */\n      0x00\n        /* \"#utility.yul\":1978:1980   */\n      0x20\n        /* \"#utility.yul\":1966:1975   */\n      dup3\n        /* \"#utility.yul\":1957:1964   */\n      dup5\n        /* \"#utility.yul\":1953:1976   */\n      sub\n        /* \"#utility.yul\":1949:1981   */\n      slt\n        /* \"#utility.yul\":1946:1998   */\n      iszero\n      tag_135\n      jumpi\n        /* \"#utility.yul\":1994:1995   */\n      0x00\n        /* \"#utility.yul\":1991:1992   */\n      0x00\n        /* \"#utility.yul\":1984:1996   */\n      revert\n        /* \"#utility.yul\":1946:1998   */\n    tag_135:\n        /* \"#utility.yul\":2017:2046   */\n      tag_79\n        /* \"#utility.yul\":2036:2045   */\n      dup3\n        /* \"#utility.yul\":2017:2046   */\n      tag_116\n      jump\t// in\n        /* \"#utility.yul\":2057:2489   */\n    tag_63:\n        /* \"#utility.yul\":2163:2169   */\n      0x00\n        /* \"#utility.yul\":2171:2177   */\n      0x00\n        /* \"#utility.yul\":2179:2185   */\n      0x00\n        /* \"#utility.yul\":2232:2235   */\n      0xc0\n        /* \"#utility.yul\":2220:2229   */\n      dup5\n        /* \"#utility.yul\":2211:2218   */\n      dup7\n        /* \"#utility.yul\":2207:2230   */\n      sub\n        /* \"#utility.yul\":2203:2236   */\n      slt\n        /* \"#utility.yul\":2200:2253   */\n      iszero\n      tag_138\n      jumpi\n        /* \"#utility.yul\":2249:2250   */\n      0x00\n        /* \"#utility.yul\":2246:2247   */\n      0x00\n        /* \"#utility.yul\":2239:2251   */\n      revert\n        /* \"#utility.yul\":2200:2253   */\n    tag_138:\n        /* \"#utility.yul\":2294:2317   */\n      dup4\n      calldataload\n      swap3\n      pop\n        /* \"#utility.yul\":2360:2398   */\n      tag_139\n        /* \"#utility.yul\":2394:2396   */\n      0x20\n        /* \"#utility.yul\":2379:2397   */\n      dup6\n      add\n        /* \"#utility.yul\":2360:2398   */\n      tag_116\n      jump\t// in\n    tag_139:\n        /* \"#utility.yul\":2350:2398   */\n      swap2\n      pop\n        /* \"#utility.yul\":2417:2483   */\n      tag_140\n        /* \"#utility.yul\":2475:2482   */\n      dup6\n        /* \"#utility.yul\":2470:2472   */\n      0x40\n        /* \"#utility.yul\":2459:2468   */\n      dup7\n        /* \"#utility.yul\":2455:2473   */\n      add\n        /* \"#utility.yul\":2417:2483   */\n      tag_117\n      jump\t// in\n    tag_140:\n        /* \"#utility.yul\":2407:2483   */\n      swap1\n      pop\n        /* \"#utility.yul\":2057:2489   */\n      swap3\n      pop\n      swap3\n      pop\n      swap3\n      jump\t// out\n        /* \"#utility.yul\":2494:2763   */\n    tag_93:\n        /* \"#utility.yul\":2551:2557   */\n      0x00\n        /* \"#utility.yul\":2604:2606   */\n      0x20\n        /* \"#utility.yul\":2592:2601   */\n      dup3\n        /* \"#utility.yul\":2583:2590   */\n      dup5\n        /* \"#utility.yul\":2579:2602   */\n      sub\n        /* \"#utility.yul\":2575:2607   */\n      slt\n        /* \"#utility.yul\":2572:2624   */\n      iszero\n      tag_142\n      jumpi\n        /* \"#utility.yul\":2620:2621   */\n      0x00\n        /* \"#utility.yul\":2617:2618   */\n      0x00\n        /* \"#utility.yul\":2610:2622   */\n      revert\n        /* \"#utility.yul\":2572:2624   */\n    tag_142:\n        /* \"#utility.yul\":2659:2668   */\n      dup2\n        /* \"#utility.yul\":2646:2669   */\n      calldataload\n        /* \"#utility.yul\":2709:2713   */\n      0xff\n        /* \"#utility.yul\":2702:2707   */\n      dup2\n        /* \"#utility.yul\":2698:2714   */\n      and\n        /* \"#utility.yul\":2691:2696   */\n      dup2\n        /* \"#utility.yul\":2688:2715   */\n      eq\n        /* \"#utility.yul\":2678:2733   */\n      tag_79\n      jumpi\n        /* \"#utility.yul\":2729:2730   */\n      0x00\n        /* \"#utility.yul\":2726:2727   */\n      0x00\n        /* \"#utility.yul\":2719:2731   */\n      revert\n\n    auxdata: 0xa26469706673582212208970ecce039fc61640344ac43cb561cad855939c9522601b7912d42e07fb494c64736f6c634300081c0033\n}\n",
				"bytecode": {
					"linkReferences": {},
					"object": "60a060405234801561000f575f5ffd5b506040516105f83803806105f883398101604081905261002e916100c8565b30816001600160a01b03811661005d57604051631e4fbdf760e01b81525f600482015260240160405180910390fd5b61006681610079565b506001600160a01b0316608052506100f5565b5f80546001600160a01b038381166001600160a01b0319831681178455604051919092169283917f8be0079c531659141344cd1fd0a4f28419497f9722a3daafe3b4186f6b6457e09190a35050565b5f602082840312156100d8575f5ffd5b81516001600160a01b03811681146100ee575f5ffd5b9392505050565b6080516104e46101145f395f818161012c015261021b01526104e45ff3fe6080604052600436106100a5575f3560e01c80638da5cb5b116100625780638da5cb5b1461017c578063aea1e3d114610198578063bc7105751461019e578063de899d1f146101ac578063ea6b80b7146100dd578063f2fde38b146101cb575f5ffd5b806308e30698146100a9578063127d0409146100dd57806319cdf284146100fc57806325d1782d146100dd57806338d52e0f1461011b578063715018a614610166575b5f5ffd5b3480156100b4575f5ffd5b506100ca6100c33660046103c2565b5f92915050565b6040519081526020015b60405180910390f35b3480156100e8575f5ffd5b506100ca6100f73660046103ec565b505f90565b348015610107575f5ffd5b506100ca610116366004610419565b6101ea565b348015610126575f5ffd5b5061014e7f000000000000000000000000000000000000000000000000000000000000000081565b6040516001600160a01b0390911681526020016100d4565b348015610171575f5ffd5b5061017a6101fd565b005b348015610187575f5ffd5b505f546001600160a01b031661014e565b5f6100ca565b6100ca6100f736600461043b565b3480156101b7575f5ffd5b506100ca6101c6366004610454565b610210565b3480156101d6575f5ffd5b5061017a6101e536600461043b565b6102ea565b5f6101f6833384610210565b9392505050565b61020561032c565b61020e5f610358565b565b5f6001600160a01b037f00000000000000000000000000000000000000000000000000000000000000001663d505accf33308786356102556040890160208a0161048e565b604080516001600160e01b031960e089901b1681526001600160a01b0396871660048201529590941660248601526044850192909252606484015260ff16608483015285013560a4820152606085013560c482015260e4015f604051808303815f87803b1580156102c4575f5ffd5b505af11580156102d6573d5f5f3e3d5ffd5b505f92506102e2915050565b949350505050565b6102f261032c565b6001600160a01b03811661032057604051631e4fbdf760e01b81525f60048201526024015b60405180910390fd5b61032981610358565b50565b5f546001600160a01b0316331461020e5760405163118cdaa760e01b8152336004820152602401610317565b5f80546001600160a01b038381166001600160a01b0319831681178455604051919092169283917f8be0079c531659141344cd1fd0a4f28419497f9722a3daafe3b4186f6b6457e09190a35050565b80356001600160a01b03811681146103bd575f5ffd5b919050565b5f5f604083850312156103d3575f5ffd5b823591506103e3602084016103a7565b90509250929050565b5f602082840312156103fc575f5ffd5b5035919050565b5f60808284031215610413575f5ffd5b50919050565b5f5f60a0838503121561042a575f5ffd5b823591506103e38460208501610403565b5f6020828403121561044b575f5ffd5b6101f6826103a7565b5f5f5f60c08486031215610466575f5ffd5b83359250610476602085016103a7565b91506104858560408601610403565b90509250925092565b5f6020828403121561049e575f5ffd5b813560ff811681146101f6575f5ffdfea26469706673582212208970ecce039fc61640344ac43cb561cad855939c9522601b7912d42e07fb494c64736f6c634300081c0033",
					"opcodes": "PUSH1 0xA0 PUSH1 0x40 MSTORE CALLVALUE DUP1 ISZERO PUSH2 0xF JUMPI PUSH0 PUSH0 REVERT JUMPDEST POP PUSH1 0x40 MLOAD PUSH2 0x5F8 CODESIZE SUB DUP1 PUSH2 0x5F8 DUP4 CODECOPY DUP2 ADD PUSH1 0x40 DUP2 SWAP1 MSTORE PUSH2 0x2E SWAP2 PUSH2 0xC8 JUMP JUMPDEST ADDRESS DUP2 PUSH1 0x1 PUSH1 0x1 PUSH1 0xA0 SHL SUB DUP2 AND PUSH2 0x5D JUMPI PUSH1 0x40 MLOAD PUSH4 0x1E4FBDF7 PUSH1 0xE0 SHL DUP2 MSTORE PUSH0 PUSH1 0x4 DUP3 ADD MSTORE PUSH1 0x24 ADD PUSH1 0x40 MLOAD DUP1 SWAP2 SUB SWAP1 REVERT JUMPDEST PUSH2 0x66 DUP2 PUSH2 0x79 JUMP JUMPDEST POP PUSH1 0x1 PUSH1 0x1 PUSH1 0xA0 SHL SUB AND PUSH1 0x80 MSTORE POP PUSH2 0xF5 JUMP JUMPDEST PUSH0 DUP1 SLOAD PUSH1 0x1 PUSH1 0x1 PUSH1 0xA0 SHL SUB DUP4 DUP2 AND PUSH1 0x1 PUSH1 0x1 PUSH1 0xA0 SHL SUB NOT DUP4 AND DUP2 OR DUP5 SSTORE PUSH1 0x40 MLOAD SWAP2 SWAP1 SWAP3 AND SWAP3 DUP4 SWAP2 PUSH32 0x8BE0079C531659141344CD1FD0A4F28419497F9722A3DAAFE3B4186F6B6457E0 SWAP2 SWAP1 LOG3 POP POP JUMP JUMPDEST PUSH0 PUSH1 0x20 DUP3 DUP5 SUB SLT ISZERO PUSH2 0xD8 JUMPI PUSH0 PUSH0 REVERT JUMPDEST DUP2 MLOAD PUSH1 0x1 PUSH1 0x1 PUSH1 0xA0 SHL SUB DUP2 AND DUP2 EQ PUSH2 0xEE JUMPI PUSH0 PUSH0 REVERT JUMPDEST SWAP4 SWAP3 POP POP POP JUMP JUMPDEST PUSH1 0x80 MLOAD PUSH2 0x4E4 PUSH2 0x114 PUSH0 CODECOPY PUSH0 DUP2 DUP2 PUSH2 0x12C ADD MSTORE PUSH2 0x21B ADD MSTORE PUSH2 0x4E4 PUSH0 RETURN INVALID PUSH1 0x80 PUSH1 0x40 MSTORE PUSH1 0x4 CALLDATASIZE LT PUSH2 0xA5 JUMPI PUSH0 CALLDATALOAD PUSH1 0xE0 SHR DUP1 PUSH4 0x8DA5CB5B GT PUSH2 0x62 JUMPI DUP1 PUSH4 0x8DA5CB5B EQ PUSH2 0x17C JUMPI DUP1 PUSH4 0xAEA1E3D1 EQ PUSH2 0x198 JUMPI DUP1 PUSH4 0xBC710575 EQ PUSH2 0x19E JUMPI DUP1 PUSH4 0xDE899D1F EQ PUSH2 0x1AC JUMPI DUP1 PUSH4 0xEA6B80B7 EQ PUSH2 0xDD JUMPI DUP1 PUSH4 0xF2FDE38B EQ PUSH2 0x1CB JUMPI PUSH0 PUSH0 REVERT JUMPDEST DUP1 PUSH4 0x8E30698 EQ PUSH2 0xA9 JUMPI DUP1 PUSH4 0x127D0409 EQ PUSH2 0xDD JUMPI DUP1 PUSH4 0x19CDF284 EQ PUSH2 0xFC JUMPI DUP1 PUSH4 0x25D1782D EQ PUSH2 0xDD JUMPI DUP1 PUSH4 0x38D52E0F EQ PUSH2 0x11B JUMPI DUP1 PUSH4 0x715018A6 EQ PUSH2 0x166 JUMPI JUMPDEST PUSH0 PUSH0 REVERT JUMPDEST CALLVALUE DUP1 ISZERO PUSH2 0xB4 JUMPI PUSH0 PUSH0 REVERT JUMPDEST POP PUSH2 0xCA PUSH2 0xC3 CALLDATASIZE PUSH1 0x4 PUSH2 0x3C2 JUMP JUMPDEST PUSH0 SWAP3 SWAP2 POP POP JUMP JUMPDEST PUSH1 0x40 MLOAD SWAP1 DUP2 MSTORE PUSH1 0x20 ADD JUMPDEST PUSH1 0x40 MLOAD DUP1 SWAP2 SUB SWAP1 RETURN JUMPDEST CALLVALUE DUP1 ISZERO PUSH2 0xE8 JUMPI PUSH0 PUSH0 REVERT JUMPDEST POP PUSH2 0xCA PUSH2 0xF7 CALLDATASIZE PUSH1 0x4 PUSH2 0x3EC JUMP JUMPDEST POP PUSH0 SWAP1 JUMP JUMPDEST CALLVALUE DUP1 ISZERO PUSH2 0x107 JUMPI PUSH0 PUSH0 REVERT JUMPDEST POP PUSH2 0xCA PUSH2 0x116 CALLDATASIZE PUSH1 0x4 PUSH2 0x419 JUMP JUMPDEST PUSH2 0x1EA JUMP JUMPDEST CALLVALUE DUP1 ISZERO PUSH2 0x126 JUMPI PUSH0 PUSH0 REVERT JUMPDEST POP PUSH2 0x14E PUSH32 0x0 DUP2 JUMP JUMPDEST PUSH1 0x40 MLOAD PUSH1 0x1 PUSH1 0x1 PUSH1 0xA0 SHL SUB SWAP1 SWAP2 AND DUP2 MSTORE PUSH1 0x20 ADD PUSH2 0xD4 JUMP JUMPDEST CALLVALUE DUP1 ISZERO PUSH2 0x171 JUMPI PUSH0 PUSH0 REVERT JUMPDEST POP PUSH2 0x17A PUSH2 0x1FD JUMP JUMPDEST STOP JUMPDEST CALLVALUE DUP1 ISZERO PUSH2 0x187 JUMPI PUSH0 PUSH0 REVERT JUMPDEST POP PUSH0 SLOAD PUSH1 0x1 PUSH1 0x1 PUSH1 0xA0 SHL SUB AND PUSH2 0x14E JUMP JUMPDEST PUSH0 PUSH2 0xCA JUMP JUMPDEST PUSH2 0xCA PUSH2 0xF7 CALLDATASIZE PUSH1 0x4 PUSH2 0x43B JUMP JUMPDEST CALLVALUE DUP1 ISZERO PUSH2 0x1B7 JUMPI PUSH0 PUSH0 REVERT JUMPDEST POP PUSH2 0xCA PUSH2 0x1C6 CALLDATASIZE PUSH1 0x4 PUSH2 0x454 JUMP JUMPDEST PUSH2 0x210 JUMP JUMPDEST CALLVALUE DUP1 ISZERO PUSH2 0x1D6 JUMPI PUSH0 PUSH0 REVERT JUMPDEST POP PUSH2 0x17A PUSH2 0x1E5 CALLDATASIZE PUSH1 0x4 PUSH2 0x43B JUMP JUMPDEST PUSH2 0x2EA JUMP JUMPDEST PUSH0 PUSH2 0x1F6 DUP4 CALLER DUP5 PUSH2 0x210 JUMP JUMPDEST SWAP4 SWAP3 POP POP POP JUMP JUMPDEST PUSH2 0x205 PUSH2 0x32C JUMP JUMPDEST PUSH2 0x20E PUSH0 PUSH2 0x358 JUMP JUMPDEST JUMP JUMPDEST PUSH0 PUSH1 0x1 PUSH1 0x1 PUSH1 0xA0 SHL SUB PUSH32 0x0 AND PUSH4 0xD505ACCF CALLER ADDRESS DUP8 DUP7 CALLDATALOAD PUSH2 0x255 PUSH1 0x40 DUP10 ADD PUSH1 0x20 DUP11 ADD PUSH2 0x48E JUMP JUMPDEST PUSH1 0x40 DUP1 MLOAD PUSH1 0x1 PUSH1 0x1 PUSH1 0xE0 SHL SUB NOT PUSH1 0xE0 DUP10 SWAP1 SHL AND DUP2 MSTORE PUSH1 0x1 PUSH1 0x1 PUSH1 0xA0 SHL SUB SWAP7 DUP8 AND PUSH1 0x4 DUP3 ADD MSTORE SWAP6 SWAP1 SWAP5 AND PUSH1 0x24 DUP7 ADD MSTORE PUSH1 0x44 DUP6 ADD SWAP3 SWAP1 SWAP3 MSTORE PUSH1 0x64 DUP5 ADD MSTORE PUSH1 0xFF AND PUSH1 0x84 DUP4 ADD MSTORE DUP6 ADD CALLDATALOAD PUSH1 0xA4 DUP3 ADD MSTORE PUSH1 0x60 DUP6 ADD CALLDATALOAD PUSH1 0xC4 DUP3 ADD MSTORE PUSH1 0xE4 ADD PUSH0 PUSH1 0x40 MLOAD DUP1 DUP4 SUB DUP2 PUSH0 DUP8 DUP1 EXTCODESIZE ISZERO DUP1 ISZERO PUSH2 0x2C4 JUMPI PUSH0 PUSH0 REVERT JUMPDEST POP GAS CALL ISZERO DUP1 ISZERO PUSH2 0x2D6 JUMPI RETURNDATASIZE PUSH0 PUSH0 RETURNDATACOPY RETURNDATASIZE PUSH0 REVERT JUMPDEST POP PUSH0 SWAP3 POP PUSH2 0x2E2 SWAP2 POP POP JUMP JUMPDEST SWAP5 SWAP4 POP POP POP POP JUMP JUMPDEST PUSH2 0x2F2 PUSH2 0x32C JUMP JUMPDEST PUSH1 0x1 PUSH1 0x1 PUSH1 0xA0 SHL SUB DUP2 AND PUSH2 0x320 JUMPI PUSH1 0x40 MLOAD PUSH4 0x1E4FBDF7 PUSH1 0xE0 SHL DUP2 MSTORE PUSH0 PUSH1 0x4 DUP3 ADD MSTORE PUSH1 0x24 ADD JUMPDEST PUSH1 0x40 MLOAD DUP1 SWAP2 SUB SWAP1 REVERT JUMPDEST PUSH2 0x329 DUP2 PUSH2 0x358 JUMP JUMPDEST POP JUMP JUMPDEST PUSH0 SLOAD PUSH1 0x1 PUSH1 0x1 PUSH1 0xA0 SHL SUB AND CALLER EQ PUSH2 0x20E JUMPI PUSH1 0x40 MLOAD PUSH4 0x118CDAA7 PUSH1 0xE0 SHL DUP2 MSTORE CALLER PUSH1 0x4 DUP3 ADD MSTORE PUSH1 0x24 ADD PUSH2 0x317 JUMP JUMPDEST PUSH0 DUP1 SLOAD PUSH1 0x1 PUSH1 0x1 PUSH1 0xA0 SHL SUB DUP4 DUP2 AND PUSH1 0x1 PUSH1 0x1 PUSH1 0xA0 SHL SUB NOT DUP4 AND DUP2 OR DUP5 SSTORE PUSH1 0x40 MLOAD SWAP2 SWAP1 SWAP3 AND SWAP3 DUP4 SWAP2 PUSH32 0x8BE0079C531659141344CD1FD0A4F28419497F9722A3DAAFE3B4186F6B6457E0 SWAP2 SWAP1 LOG3 POP POP JUMP JUMPDEST DUP1 CALLDATALOAD PUSH1 0x1 PUSH1 0x1 PUSH1 0xA0 SHL SUB DUP2 AND DUP2 EQ PUSH2 0x3BD JUMPI PUSH0 PUSH0 REVERT JUMPDEST SWAP2 SWAP1 POP JUMP JUMPDEST PUSH0 PUSH0 PUSH1 0x40 DUP4 DUP6 SUB SLT ISZERO PUSH2 0x3D3 JUMPI PUSH0 PUSH0 REVERT JUMPDEST DUP3 CALLDATALOAD SWAP2 POP PUSH2 0x3E3 PUSH1 0x20 DUP5 ADD PUSH2 0x3A7 JUMP JUMPDEST SWAP1 POP SWAP3 POP SWAP3 SWAP1 POP JUMP JUMPDEST PUSH0 PUSH1 0x20 DUP3 DUP5 SUB SLT ISZERO PUSH2 0x3FC JUMPI PUSH0 PUSH0 REVERT JUMPDEST POP CALLDATALOAD SWAP2 SWAP1 POP JUMP JUMPDEST PUSH0 PUSH1 0x80 DUP3 DUP5 SUB SLT ISZERO PUSH2 0x413 JUMPI PUSH0 PUSH0 REVERT JUMPDEST POP SWAP2 SWAP1 POP JUMP JUMPDEST PUSH0 PUSH0 PUSH1 0xA0 DUP4 DUP6 SUB SLT ISZERO PUSH2 0x42A JUMPI PUSH0 PUSH0 REVERT JUMPDEST DUP3 CALLDATALOAD SWAP2 POP PUSH2 0x3E3 DUP5 PUSH1 0x20 DUP6 ADD PUSH2 0x403 JUMP JUMPDEST PUSH0 PUSH1 0x20 DUP3 DUP5 SUB SLT ISZERO PUSH2 0x44B JUMPI PUSH0 PUSH0 REVERT JUMPDEST PUSH2 0x1F6 DUP3 PUSH2 0x3A7 JUMP JUMPDEST PUSH0 PUSH0 PUSH0 PUSH1 0xC0 DUP5 DUP7 SUB SLT ISZERO PUSH2 0x466 JUMPI PUSH0 PUSH0 REVERT JUMPDEST DUP4 CALLDATALOAD SWAP3 POP PUSH2 0x476 PUSH1 0x20 DUP6 ADD PUSH2 0x3A7 JUMP JUMPDEST SWAP2 POP PUSH2 0x485 DUP6 PUSH1 0x40 DUP7 ADD PUSH2 0x403 JUMP JUMPDEST SWAP1 POP SWAP3 POP SWAP3 POP SWAP3 JUMP JUMPDEST PUSH0 PUSH1 0x20 DUP3 DUP5 SUB SLT ISZERO PUSH2 0x49E JUMPI PUSH0 PUSH0 REVERT JUMPDEST DUP2 CALLDATALOAD PUSH1 0xFF DUP2 AND DUP2 EQ PUSH2 0x1F6 JUMPI PUSH0 PUSH0 REVERT INVALID LOG2 PUSH5 0x6970667358 0x22 SLT KECCAK256 DUP10 PUSH17 0xECCE039FC61640344AC43CB561CAD85593 SWAP13 SWAP6 0x22 PUSH1 0x1B PUSH26 0x12D42E07FB494C64736F6C634300081C00330000000000000000 "
				},
				"gasEstimates": {
					"creation": {
						"codeDepositCost": "250400",
						"executionCost": "infinite",
						"totalCost": "infinite"
					},
					"external": {
						"asset()": "infinite",
						"erc20ToNativeSwap(uint256)": "283",
						"erc20ToNativeSwap(uint256,(uint256,uint8,bytes32,bytes32))": "infinite",
						"erc20ToNativeSwap(uint256,address)": "372",
						"erc20ToNativeSwap(uint256,address,(uint256,uint8,bytes32,bytes32))": "infinite",
						"getERC20ToNativePrice(uint256)": "327",
						"getNativeToERC20Price(uint256)": "348",
						"nativeToERC20Swap()": "177",
						"nativeToERC20Swap(address)": "361",
						"owner()": "2329",
						"renounceOwnership()": "infinite",
						"transferOwnership(address)": "28439"
					}
				},
				"methodIdentifiers": {
					"asset()": "38d52e0f",
					"erc20ToNativeSwap(uint256)": "127d0409",
					"erc20ToNativeSwap(uint256,(uint256,uint8,bytes32,bytes32))": "19cdf284",
					"erc20ToNativeSwap(uint256,address)": "08e30698",
					"erc20ToNativeSwap(uint256,address,(uint256,uint8,bytes32,bytes32))": "de899d1f",
					"getERC20ToNativePrice(uint256)": "25d1782d",
					"getNativeToERC20Price(uint256)": "ea6b80b7",
					"nativeToERC20Swap()": "aea1e3d1",
					"nativeToERC20Swap(address)": "bc710575",
					"owner()": "8da5cb5b",
					"renounceOwnership()": "715018a6",
					"transferOwnership(address)": "f2fde38b"
				}
			},
			"storageLayout": {
				"storage": [
					{
						"astId": 8,
						"contract": "src/Test.sol:Test",
						"label": "_owner",
						"offset": 0,
						"slot": "0",
						"type": "t_address"
					}
				],
				"types": {
					"t_address": {
						"encoding": "inplace",
						"label": "address",
						"numberOfBytes": "20"
					}
				}
			},
			"userdoc": {
				"kind": "user",
				"methods": {},
				"version": 1
			}
		}
	}
}