{
	"src/PinusVaultCore.sol": {
		"PinusVaultCore": {
			"abi": [
				{
					"inputs": [
						{
							"internalType": "address",
							"name": "owner",
							"type": "address"
						},
						{
							"internalType": "string",
							"name": "newName",
							"type": "string"
						},
						{
							"internalType": "string",
							"name": "newSymbol",
							"type": "string"
						}
					],
					"stateMutability": "nonpayable",
					"type": "constructor"
				},
				{
					"inputs": [],
					"name": "AllowanceOverflow",
					"type": "error"
				},
				{
					"inputs": [],
					"name": "AllowanceUnderflow",
					"type": "error"
				},
				{
					"inputs": [],
					"name": "InsufficientAllowance",
					"type": "error"
				},
				{
					"inputs": [],
					"name": "InsufficientBalance",
					"type": "error"
				},
				{
					"inputs": [],
					"name": "InvalidPermit",
					"type": "error"
				},
				{
					"inputs": [
						{
							"internalType": "address",
							"name": "owner",
							"type": "address"
						}
					],
					"name": "OwnableInvalidOwner",
					"type": "error"
				},
				{
					"inputs": [
						{
							"internalType": "address",
							"name": "account",
							"type": "address"
						}
					],
					"name": "OwnableUnauthorizedAccount",
					"type": "error"
				},
				{
					"inputs": [],
					"name": "Permit2AllowanceIsFixedAtInfinity",
					"type": "error"
				},
				{
					"inputs": [],
					"name": "PermitExpired",
					"type": "error"
				},
				{
					"inputs": [],
					"name": "TotalSupplyOverflow",
					"type": "error"
				},
				{
					"anonymous": false,
					"inputs": [
						{
							"indexed": true,
							"internalType": "address",
							"name": "owner",
							"type": "address"
						},
						{
							"indexed": true,
							"internalType": "address",
							"name": "spender",
							"type": "address"
						},
						{
							"indexed": false,
							"internalType": "uint256",
							"name": "amount",
							"type": "uint256"
						}
					],
					"name": "Approval",
					"type": "event"
				},
				{
					"anonymous": false,
					"inputs": [
						{
							"indexed": true,
							"internalType": "address",
							"name": "previousOwner",
							"type": "address"
						},
						{
							"indexed": true,
							"internalType": "address",
							"name": "newOwner",
							"type": "address"
						}
					],
					"name": "OwnershipTransferred",
					"type": "event"
				},
				{
					"anonymous": false,
					"inputs": [
						{
							"indexed": true,
							"internalType": "address",
							"name": "from",
							"type": "address"
						},
						{
							"indexed": true,
							"internalType": "address",
							"name": "to",
							"type": "address"
						},
						{
							"indexed": false,
							"internalType": "uint256",
							"name": "amount",
							"type": "uint256"
						}
					],
					"name": "Transfer",
					"type": "event"
				},
				{
					"inputs": [],
					"name": "DOMAIN_SEPARATOR",
					"outputs": [
						{
							"internalType": "bytes32",
							"name": "result",
							"type": "bytes32"
						}
					],
					"stateMutability": "view",
					"type": "function"
				},
				{
					"inputs": [
						{
							"internalType": "address",
							"name": "owner",
							"type": "address"
						},
						{
							"internalType": "address",
							"name": "spender",
							"type": "address"
						}
					],
					"name": "allowance",
					"outputs": [
						{
							"internalType": "uint256",
							"name": "result",
							"type": "uint256"
						}
					],
					"stateMutability": "view",
					"type": "function"
				},
				{
					"inputs": [
						{
							"internalType": "address",
							"name": "spender",
							"type": "address"
						},
						{
							"internalType": "uint256",
							"name": "amount",
							"type": "uint256"
						}
					],
					"name": "approve",
					"outputs": [
						{
							"internalType": "bool",
							"name": "",
							"type": "bool"
						}
					],
					"stateMutability": "nonpayable",
					"type": "function"
				},
				{
					"inputs": [],
					"name": "asset",
					"outputs": [
						{
							"internalType": "contract ERC20",
							"name": "",
							"type": "address"
						}
					],
					"stateMutability": "view",
					"type": "function"
				},
				{
					"inputs": [
						{
							"internalType": "address",
							"name": "owner",
							"type": "address"
						}
					],
					"name": "balanceOf",
					"outputs": [
						{
							"internalType": "uint256",
							"name": "result",
							"type": "uint256"
						}
					],
					"stateMutability": "view",
					"type": "function"
				},
				{
					"inputs": [
						{
							"internalType": "address",
							"name": "to",
							"type": "address"
						},
						{
							"internalType": "uint256",
							"name": "value",
							"type": "uint256"
						},
						{
							"internalType": "bytes",
							"name": "data",
							"type": "bytes"
						}
					],
					"name": "customCall",
					"outputs": [
						{
							"internalType": "bytes",
							"name": "",
							"type": "bytes"
						}
					],
					"stateMutability": "nonpayable",
					"type": "function"
				},
				{
					"inputs": [],
					"name": "decimals",
					"outputs": [
						{
							"internalType": "uint8",
							"name": "",
							"type": "uint8"
						}
					],
					"stateMutability": "view",
					"type": "function"
				},
				{
					"inputs": [],
					"name": "erc20Inhibitor",
					"outputs": [
						{
							"internalType": "uint128",
							"name": "",
							"type": "uint128"
						}
					],
					"stateMutability": "view",
					"type": "function"
				},
				{
					"inputs": [],
					"name": "erc20PurchasableRate",
					"outputs": [
						{
							"internalType": "uint128",
							"name": "",
							"type": "uint128"
						}
					],
					"stateMutability": "view",
					"type": "function"
				},
				{
					"inputs": [],
					"name": "erc20PurchasableTime",
					"outputs": [
						{
							"internalType": "uint256",
							"name": "",
							"type": "uint256"
						}
					],
					"stateMutability": "view",
					"type": "function"
				},
				{
					"inputs": [
						{
							"internalType": "uint256",
							"name": "erc20sSold",
							"type": "uint256"
						},
						{
							"internalType": "address",
							"name": "recipient",
							"type": "address"
						}
					],
					"name": "erc20ToNativeSwap",
					"outputs": [
						{
							"internalType": "uint256",
							"name": "nativesBought",
							"type": "uint256"
						}
					],
					"stateMutability": "nonpayable",
					"type": "function"
				},
				{
					"inputs": [
						{
							"internalType": "uint256",
							"name": "erc20sSold",
							"type": "uint256"
						}
					],
					"name": "erc20ToNativeSwap",
					"outputs": [
						{
							"internalType": "uint256",
							"name": "nativesBought",
							"type": "uint256"
						}
					],
					"stateMutability": "nonpayable",
					"type": "function"
				},
				{
					"inputs": [
						{
							"internalType": "uint256",
							"name": "erc20sSold",
							"type": "uint256"
						},
						{
							"components": [
								{
									"internalType": "uint256",
									"name": "deadline",
									"type": "uint256"
								},
								{
									"internalType": "uint8",
									"name": "v",
									"type": "uint8"
								},
								{
									"internalType": "bytes32",
									"name": "r",
									"type": "bytes32"
								},
								{
									"internalType": "bytes32",
									"name": "s",
									"type": "bytes32"
								}
							],
							"internalType": "struct Permit2Sig",
							"name": "sig",
							"type": "tuple"
						}
					],
					"name": "erc20ToNativeSwap",
					"outputs": [
						{
							"internalType": "uint256",
							"name": "nativesBought",
							"type": "uint256"
						}
					],
					"stateMutability": "nonpayable",
					"type": "function"
				},
				{
					"inputs": [
						{
							"internalType": "uint256",
							"name": "erc20sSold",
							"type": "uint256"
						},
						{
							"internalType": "address",
							"name": "recipient",
							"type": "address"
						},
						{
							"components": [
								{
									"internalType": "uint256",
									"name": "deadline",
									"type": "uint256"
								},
								{
									"internalType": "uint8",
									"name": "v",
									"type": "uint8"
								},
								{
									"internalType": "bytes32",
									"name": "r",
									"type": "bytes32"
								},
								{
									"internalType": "bytes32",
									"name": "s",
									"type": "bytes32"
								}
							],
							"internalType": "struct Permit2Sig",
							"name": "sig",
							"type": "tuple"
						}
					],
					"name": "erc20ToNativeSwap",
					"outputs": [
						{
							"internalType": "uint256",
							"name": "nativesBought",
							"type": "uint256"
						}
					],
					"stateMutability": "nonpayable",
					"type": "function"
				},
				{
					"inputs": [
						{
							"internalType": "uint256",
							"name": "erc20sSold",
							"type": "uint256"
						}
					],
					"name": "getERC20ToNativePrice",
					"outputs": [
						{
							"internalType": "uint256",
							"name": "nativesBought",
							"type": "uint256"
						}
					],
					"stateMutability": "view",
					"type": "function"
				},
				{
					"inputs": [
						{
							"internalType": "uint256",
							"name": "nativesSold",
							"type": "uint256"
						}
					],
					"name": "getNativeToERC20Price",
					"outputs": [
						{
							"internalType": "uint256",
							"name": "erc20sBought",
							"type": "uint256"
						}
					],
					"stateMutability": "view",
					"type": "function"
				},
				{
					"inputs": [],
					"name": "name",
					"outputs": [
						{
							"internalType": "string",
							"name": "",
							"type": "string"
						}
					],
					"stateMutability": "view",
					"type": "function"
				},
				{
					"inputs": [],
					"name": "nativeInhibitor",
					"outputs": [
						{
							"internalType": "uint128",
							"name": "",
							"type": "uint128"
						}
					],
					"stateMutability": "view",
					"type": "function"
				},
				{
					"inputs": [],
					"name": "nativePurchasableRate",
					"outputs": [
						{
							"internalType": "uint128",
							"name": "",
							"type": "uint128"
						}
					],
					"stateMutability": "view",
					"type": "function"
				},
				{
					"inputs": [],
					"name": "nativePurchasableTime",
					"outputs": [
						{
							"internalType": "uint256",
							"name": "",
							"type": "uint256"
						}
					],
					"stateMutability": "view",
					"type": "function"
				},
				{
					"inputs": [],
					"name": "nativeToERC20Swap",
					"outputs": [
						{
							"internalType": "uint256",
							"name": "erc20sBought",
							"type": "uint256"
						}
					],
					"stateMutability": "payable",
					"type": "function"
				},
				{
					"inputs": [
						{
							"internalType": "address",
							"name": "recipient",
							"type": "address"
						}
					],
					"name": "nativeToERC20Swap",
					"outputs": [
						{
							"internalType": "uint256",
							"name": "erc20sBought",
							"type": "uint256"
						}
					],
					"stateMutability": "payable",
					"type": "function"
				},
				{
					"inputs": [
						{
							"internalType": "address",
							"name": "owner",
							"type": "address"
						}
					],
					"name": "nonces",
					"outputs": [
						{
							"internalType": "uint256",
							"name": "result",
							"type": "uint256"
						}
					],
					"stateMutability": "view",
					"type": "function"
				},
				{
					"inputs": [],
					"name": "owner",
					"outputs": [
						{
							"internalType": "address",
							"name": "",
							"type": "address"
						}
					],
					"stateMutability": "view",
					"type": "function"
				},
				{
					"inputs": [
						{
							"internalType": "address",
							"name": "owner",
							"type": "address"
						},
						{
							"internalType": "address",
							"name": "spender",
							"type": "address"
						},
						{
							"internalType": "uint256",
							"name": "value",
							"type": "uint256"
						},
						{
							"internalType": "uint256",
							"name": "deadline",
							"type": "uint256"
						},
						{
							"internalType": "uint8",
							"name": "v",
							"type": "uint8"
						},
						{
							"internalType": "bytes32",
							"name": "r",
							"type": "bytes32"
						},
						{
							"internalType": "bytes32",
							"name": "s",
							"type": "bytes32"
						}
					],
					"name": "permit",
					"outputs": [],
					"stateMutability": "nonpayable",
					"type": "function"
				},
				{
					"inputs": [],
					"name": "purchasableERC20s",
					"outputs": [
						{
							"internalType": "uint256",
							"name": "",
							"type": "uint256"
						}
					],
					"stateMutability": "view",
					"type": "function"
				},
				{
					"inputs": [],
					"name": "purchasableNatives",
					"outputs": [
						{
							"internalType": "uint256",
							"name": "",
							"type": "uint256"
						}
					],
					"stateMutability": "view",
					"type": "function"
				},
				{
					"inputs": [],
					"name": "renounceOwnership",
					"outputs": [],
					"stateMutability": "nonpayable",
					"type": "function"
				},
				{
					"inputs": [],
					"name": "symbol",
					"outputs": [
						{
							"internalType": "string",
							"name": "",
							"type": "string"
						}
					],
					"stateMutability": "view",
					"type": "function"
				},
				{
					"inputs": [],
					"name": "totalSupply",
					"outputs": [
						{
							"internalType": "uint256",
							"name": "result",
							"type": "uint256"
						}
					],
					"stateMutability": "view",
					"type": "function"
				},
				{
					"inputs": [
						{
							"internalType": "address",
							"name": "to",
							"type": "address"
						},
						{
							"internalType": "uint256",
							"name": "amount",
							"type": "uint256"
						}
					],
					"name": "transfer",
					"outputs": [
						{
							"internalType": "bool",
							"name": "",
							"type": "bool"
						}
					],
					"stateMutability": "nonpayable",
					"type": "function"
				},
				{
					"inputs": [
						{
							"internalType": "address",
							"name": "from",
							"type": "address"
						},
						{
							"internalType": "address",
							"name": "to",
							"type": "address"
						},
						{
							"internalType": "uint256",
							"name": "amount",
							"type": "uint256"
						}
					],
					"name": "transferFrom",
					"outputs": [
						{
							"internalType": "bool",
							"name": "",
							"type": "bool"
						}
					],
					"stateMutability": "nonpayable",
					"type": "function"
				},
				{
					"inputs": [
						{
							"internalType": "address",
							"name": "newOwner",
							"type": "address"
						}
					],
					"name": "transferOwnership",
					"outputs": [],
					"stateMutability": "nonpayable",
					"type": "function"
				}
			],
			"devdoc": {
				"errors": {
					"AllowanceOverflow()": [
						{
							"details": "The allowance has overflowed."
						}
					],
					"AllowanceUnderflow()": [
						{
							"details": "The allowance has underflowed."
						}
					],
					"InsufficientAllowance()": [
						{
							"details": "Insufficient allowance."
						}
					],
					"InsufficientBalance()": [
						{
							"details": "Insufficient balance."
						}
					],
					"InvalidPermit()": [
						{
							"details": "The permit is invalid."
						}
					],
					"OwnableInvalidOwner(address)": [
						{
							"details": "The owner is not a valid owner account. (eg. `address(0)`)"
						}
					],
					"OwnableUnauthorizedAccount(address)": [
						{
							"details": "The caller account is not authorized to perform an operation."
						}
					],
					"Permit2AllowanceIsFixedAtInfinity()": [
						{
							"details": "The allowance of Permit2 is fixed at infinity."
						}
					],
					"PermitExpired()": [
						{
							"details": "The permit has expired."
						}
					],
					"TotalSupplyOverflow()": [
						{
							"details": "The total supply has overflowed."
						}
					]
				},
				"events": {
					"Approval(address,address,uint256)": {
						"details": "Emitted when `amount` tokens is approved by `owner` to be used by `spender`."
					},
					"Transfer(address,address,uint256)": {
						"details": "Emitted when `amount` tokens is transferred from `from` to `to`."
					}
				},
				"kind": "dev",
				"methods": {
					"DOMAIN_SEPARATOR()": {
						"details": "Returns the EIP-712 domain separator for the EIP-2612 permit."
					},
					"allowance(address,address)": {
						"details": "Returns the amount of tokens that `spender` can spend on behalf of `owner`."
					},
					"approve(address,uint256)": {
						"details": "Sets `amount` as the allowance of `spender` over the caller's tokens. Emits a {Approval} event."
					},
					"balanceOf(address)": {
						"details": "Returns the amount of tokens owned by `owner`."
					},
					"decimals()": {
						"details": "Returns the decimals places of the token."
					},
					"name()": {
						"details": "Returns the name of the token."
					},
					"nonces(address)": {
						"details": "Returns the current nonce for `owner`. This value is used to compute the signature for EIP-2612 permit."
					},
					"owner()": {
						"details": "Returns the address of the current owner."
					},
					"permit(address,address,uint256,uint256,uint8,bytes32,bytes32)": {
						"details": "Sets `value` as the allowance of `spender` over the tokens of `owner`, authorized by a signed approval by `owner`. Emits a {Approval} event."
					},
					"renounceOwnership()": {
						"details": "Leaves the contract without owner. It will not be possible to call `onlyOwner` functions. Can only be called by the current owner. NOTE: Renouncing ownership will leave the contract without an owner, thereby disabling any functionality that is only available to the owner."
					},
					"symbol()": {
						"details": "Returns the symbol of the token."
					},
					"totalSupply()": {
						"details": "Returns the amount of tokens in existence."
					},
					"transfer(address,uint256)": {
						"details": "Transfer `amount` tokens from the caller to `to`. Requirements: - `from` must at least have `amount`. Emits a {Transfer} event."
					},
					"transferFrom(address,address,uint256)": {
						"details": "Transfers `amount` tokens from `from` to `to`. Note: Does not update the allowance if it is the maximum uint256 value. Requirements: - `from` must at least have `amount`. - The caller must have at least `amount` of allowance to transfer the tokens of `from`. Emits a {Transfer} event."
					},
					"transferOwnership(address)": {
						"details": "Transfers ownership of the contract to a new account (`newOwner`). Can only be called by the current owner."
					}
				},
				"version": 1
			},
			"evm": {
				"assembly": "    /* \"src/PinusVaultCore.sol\":1897:3535  contract PinusVaultCore is ExchangeAbstract(WITHDRAW_RATE, SHARE_CAP, MINT_RATE, ASSET_CAP), ERC20, Ownable {... */\n  mstore(0x40, 0x0120)\n    /* \"src/ExchangeAbstract.sol\":200:215  block.timestamp */\n  timestamp\n    /* \"src/ExchangeAbstract.sol\":164:215  uint public nativePurchasableTime = block.timestamp */\n  0x00\n  sstore\n    /* \"src/ExchangeAbstract.sol\":358:373  block.timestamp */\n  timestamp\n    /* \"src/ExchangeAbstract.sol\":323:373  uint public erc20PurchasableTime = block.timestamp */\n  0x01\n  sstore\n    /* \"src/PinusVaultCore.sol\":2058:2231  constructor(address owner, string memory newName, string memory newSymbol) Ownable(owner) SwapAbstract(this) {... */\n  callvalue\n  dup1\n  iszero\n  tag_1\n  jumpi\n  revert(0x00, 0x00)\ntag_1:\n  pop\n  mload(0x40)\n  sub(codesize, bytecodeSize)\n  dup1\n  bytecodeSize\n  dup4\n  codecopy\n  dup2\n  add\n  0x40\n  dup2\n  swap1\n  mstore\n  tag_2\n  swap2\n  tag_3\n  jump\t// in\ntag_2:\n    /* \"src/PinusVaultCore.sol\":2141:2146  owner */\n  dup3\n    /* \"src/PinusVaultCore.sol\":1846:1875  ASSET_CAP / uint128(24 hours) */\n  tag_6\n    /* \"src/PinusVaultCore.sol\":1866:1874  24 hours */\n  0x015180\n    /* \"src/PinusVaultCore.sol\":1683:1691  .1 ether */\n  0x016345785d8a0000\n    /* \"src/PinusVaultCore.sol\":1846:1875  ASSET_CAP / uint128(24 hours) */\n  tag_7\n  jump\t// in\ntag_6:\n    /* \"src/PinusVaultCore.sol\":1723:1730  1 ether */\n  0x0de0b6b3a7640000\n    /* \"src/PinusVaultCore.sol\":1763:1792  SHARE_CAP / uint128(24 hours) */\n  tag_8\n    /* \"src/PinusVaultCore.sol\":1783:1791  24 hours */\n  0x015180\n    /* \"src/PinusVaultCore.sol\":1723:1730  1 ether */\n  dup3\n    /* \"src/PinusVaultCore.sol\":1763:1792  SHARE_CAP / uint128(24 hours) */\n  tag_7\n  jump\t// in\ntag_8:\n    /* \"src/PinusVaultCore.sol\":2161:2165  this */\n  address\n    /* \"src/SwapAbstract.sol\":358:372  asset = asset_ */\n  0x80\n  mstore\n  sub(shl(0x80, 0x01), 0x01)\n    /* \"src/ExchangeAbstract.sol\":663:709  nativePurchasableRate = nativePurchasableRate_ */\n  swap3\n  dup4\n  and\n  0xa0\n  mstore\n    /* \"src/ExchangeAbstract.sol\":720:752  erc20Inhibitor = erc20Inhibitor_ */\n  swap1\n  dup3\n  and\n  0xc0\n  mstore\n    /* \"src/ExchangeAbstract.sol\":763:807  erc20PurchasableRate = erc20PurchasableRate_ */\n  and\n  0xe0\n  mstore\n    /* \"src/PinusVaultCore.sol\":1683:1691  .1 ether */\n  0x016345785d8a0000\n    /* \"src/ExchangeAbstract.sol\":818:852  nativeInhibitor = nativeInhibitor_ */\n  0x0100\n  mstore\n  sub(shl(0xa0, 0x01), 0x01)\n    /* \"@openzeppelin/contracts/access/Ownable.sol\":1273:1299  initialOwner == address(0) */\n  dup2\n  and\n    /* \"@openzeppelin/contracts/access/Ownable.sol\":1269:1364  if (initialOwner == address(0)) {... */\n  tag_14\n  jumpi\n    /* \"@openzeppelin/contracts/access/Ownable.sol\":1322:1353  OwnableInvalidOwner(address(0)) */\n  mload(0x40)\n  shl(0xe0, 0x1e4fbdf7)\n  dup2\n  mstore\n    /* \"@openzeppelin/contracts/access/Ownable.sol\":1350:1351  0 */\n  0x00\n    /* \"@openzeppelin/contracts/access/Ownable.sol\":1322:1353  OwnableInvalidOwner(address(0)) */\n  0x04\n  dup3\n  add\n    /* \"#utility.yul\":2048:2099   */\n  mstore\n    /* \"#utility.yul\":2021:2039   */\n  0x24\n  add\n    /* \"@openzeppelin/contracts/access/Ownable.sol\":1322:1353  OwnableInvalidOwner(address(0)) */\n  mload(0x40)\n  dup1\n  swap2\n  sub\n  swap1\n  revert\n    /* \"@openzeppelin/contracts/access/Ownable.sol\":1269:1364  if (initialOwner == address(0)) {... */\ntag_14:\n    /* \"@openzeppelin/contracts/access/Ownable.sol\":1373:1405  _transferOwnership(initialOwner) */\n  tag_17\n    /* \"@openzeppelin/contracts/access/Ownable.sol\":1392:1404  initialOwner */\n  dup2\n    /* \"@openzeppelin/contracts/access/Ownable.sol\":1373:1391  _transferOwnership */\n  tag_18\n    /* \"@openzeppelin/contracts/access/Ownable.sol\":1373:1405  _transferOwnership(initialOwner) */\n  jump\t// in\ntag_17:\n  pop\n    /* \"src/PinusVaultCore.sol\":2178:2183  _name */\n  0x03\n    /* \"src/PinusVaultCore.sol\":2178:2193  _name = newName */\n  tag_20\n    /* \"src/PinusVaultCore.sol\":2186:2193  newName */\n  dup4\n    /* \"src/PinusVaultCore.sol\":2178:2183  _name */\n  dup3\n    /* \"src/PinusVaultCore.sol\":2178:2193  _name = newName */\n  tag_21\n  jump\t// in\ntag_20:\n  pop\n    /* \"src/PinusVaultCore.sol\":2204:2211  _symbol */\n  0x04\n    /* \"src/PinusVaultCore.sol\":2204:2223  _symbol = newSymbol */\n  tag_22\n    /* \"src/PinusVaultCore.sol\":2214:2223  newSymbol */\n  dup3\n    /* \"src/PinusVaultCore.sol\":2204:2211  _symbol */\n  dup3\n    /* \"src/PinusVaultCore.sol\":2204:2223  _symbol = newSymbol */\n  tag_21\n  jump\t// in\ntag_22:\n  pop\n    /* \"src/PinusVaultCore.sol\":2058:2231  constructor(address owner, string memory newName, string memory newSymbol) Ownable(owner) SwapAbstract(this) {... */\n  pop\n  pop\n  pop\n    /* \"src/PinusVaultCore.sol\":1897:3535  contract PinusVaultCore is ExchangeAbstract(WITHDRAW_RATE, SHARE_CAP, MINT_RATE, ASSET_CAP), ERC20, Ownable {... */\n  jump(tag_31)\n    /* \"@openzeppelin/contracts/access/Ownable.sol\":2912:3099  function _transferOwnership(address newOwner) internal virtual {... */\ntag_18:\n    /* \"@openzeppelin/contracts/access/Ownable.sol\":3004:3010  _owner */\n  0x02\n  dup1\n  sload\n  sub(shl(0xa0, 0x01), 0x01)\n    /* \"@openzeppelin/contracts/access/Ownable.sol\":3020:3037  _owner = newOwner */\n  dup4\n  dup2\n  and\n  not(sub(shl(0xa0, 0x01), 0x01))\n  dup4\n  and\n  dup2\n  or\n  swap1\n  swap4\n  sstore\n    /* \"@openzeppelin/contracts/access/Ownable.sol\":3052:3092  OwnershipTransferred(oldOwner, newOwner) */\n  mload(0x40)\n    /* \"@openzeppelin/contracts/access/Ownable.sol\":3004:3010  _owner */\n  swap2\n  and\n  swap2\n    /* \"@openzeppelin/contracts/access/Ownable.sol\":3020:3037  _owner = newOwner */\n  swap1\n    /* \"@openzeppelin/contracts/access/Ownable.sol\":3004:3010  _owner */\n  dup3\n  swap1\n    /* \"@openzeppelin/contracts/access/Ownable.sol\":3052:3092  OwnershipTransferred(oldOwner, newOwner) */\n  0x8be0079c531659141344cd1fd0a4f28419497f9722a3daafe3b4186f6b6457e0\n  swap1\n    /* \"@openzeppelin/contracts/access/Ownable.sol\":2985:3001  address oldOwner */\n  0x00\n  swap1\n    /* \"@openzeppelin/contracts/access/Ownable.sol\":3052:3092  OwnershipTransferred(oldOwner, newOwner) */\n  log3\n    /* \"@openzeppelin/contracts/access/Ownable.sol\":2975:3099  {... */\n  pop\n    /* \"@openzeppelin/contracts/access/Ownable.sol\":2912:3099  function _transferOwnership(address newOwner) internal virtual {... */\n  pop\n  jump\t// out\n    /* \"#utility.yul\":14:141   */\ntag_25:\n    /* \"#utility.yul\":75:85   */\n  0x4e487b71\n    /* \"#utility.yul\":70:73   */\n  0xe0\n    /* \"#utility.yul\":66:86   */\n  shl\n    /* \"#utility.yul\":63:64   */\n  0x00\n    /* \"#utility.yul\":56:87   */\n  mstore\n    /* \"#utility.yul\":106:110   */\n  0x41\n    /* \"#utility.yul\":103:104   */\n  0x04\n    /* \"#utility.yul\":96:111   */\n  mstore\n    /* \"#utility.yul\":130:134   */\n  0x24\n    /* \"#utility.yul\":127:128   */\n  0x00\n    /* \"#utility.yul\":120:135   */\n  revert\n    /* \"#utility.yul\":146:869   */\ntag_26:\n    /* \"#utility.yul\":200:205   */\n  0x00\n    /* \"#utility.yul\":253:256   */\n  dup3\n    /* \"#utility.yul\":246:250   */\n  0x1f\n    /* \"#utility.yul\":238:244   */\n  dup4\n    /* \"#utility.yul\":234:251   */\n  add\n    /* \"#utility.yul\":230:257   */\n  slt\n    /* \"#utility.yul\":220:275   */\n  tag_34\n  jumpi\n    /* \"#utility.yul\":271:272   */\n  0x00\n    /* \"#utility.yul\":268:269   */\n  0x00\n    /* \"#utility.yul\":261:273   */\n  revert\n    /* \"#utility.yul\":220:275   */\ntag_34:\n    /* \"#utility.yul\":298:311   */\n  dup2\n  mload\n  sub(shl(0x40, 0x01), 0x01)\n    /* \"#utility.yul\":323:353   */\n  dup2\n  gt\n    /* \"#utility.yul\":320:376   */\n  iszero\n  tag_36\n  jumpi\n    /* \"#utility.yul\":356:374   */\n  tag_36\n  tag_25\n  jump\t// in\ntag_36:\n    /* \"#utility.yul\":405:407   */\n  0x40\n    /* \"#utility.yul\":399:408   */\n  mload\n    /* \"#utility.yul\":497:499   */\n  0x1f\n    /* \"#utility.yul\":459:476   */\n  dup3\n  add\n  not(0x1f)\n    /* \"#utility.yul\":455:486   */\n  swap1\n  dup2\n  and\n    /* \"#utility.yul\":488:490   */\n  0x3f\n    /* \"#utility.yul\":451:491   */\n  add\n    /* \"#utility.yul\":447:501   */\n  and\n    /* \"#utility.yul\":435:502   */\n  dup2\n  add\n  sub(shl(0x40, 0x01), 0x01)\n    /* \"#utility.yul\":517:551   */\n  dup2\n  gt\n    /* \"#utility.yul\":553:575   */\n  dup3\n  dup3\n  lt\n    /* \"#utility.yul\":514:576   */\n  or\n    /* \"#utility.yul\":511:599   */\n  iszero\n  tag_38\n  jumpi\n    /* \"#utility.yul\":579:597   */\n  tag_38\n  tag_25\n  jump\t// in\ntag_38:\n    /* \"#utility.yul\":615:617   */\n  0x40\n    /* \"#utility.yul\":608:630   */\n  mstore\n    /* \"#utility.yul\":639:661   */\n  dup2\n  dup2\n  mstore\n    /* \"#utility.yul\":680:699   */\n  dup4\n  dup3\n  add\n    /* \"#utility.yul\":701:705   */\n  0x20\n    /* \"#utility.yul\":676:706   */\n  add\n    /* \"#utility.yul\":673:712   */\n  dup6\n  lt\n    /* \"#utility.yul\":670:729   */\n  iszero\n  tag_39\n  jumpi\n    /* \"#utility.yul\":725:726   */\n  0x00\n    /* \"#utility.yul\":722:723   */\n  0x00\n    /* \"#utility.yul\":715:727   */\n  revert\n    /* \"#utility.yul\":670:729   */\ntag_39:\n    /* \"#utility.yul\":782:788   */\n  dup2\n    /* \"#utility.yul\":775:779   */\n  0x20\n    /* \"#utility.yul\":767:773   */\n  dup6\n    /* \"#utility.yul\":763:780   */\n  add\n    /* \"#utility.yul\":756:760   */\n  0x20\n    /* \"#utility.yul\":748:754   */\n  dup4\n    /* \"#utility.yul\":744:761   */\n  add\n    /* \"#utility.yul\":738:789   */\n  mcopy\n    /* \"#utility.yul\":837:838   */\n  0x00\n    /* \"#utility.yul\":809:828   */\n  swap2\n  dup2\n  add\n    /* \"#utility.yul\":830:834   */\n  0x20\n    /* \"#utility.yul\":805:835   */\n  add\n    /* \"#utility.yul\":798:839   */\n  swap2\n  swap1\n  swap2\n  mstore\n    /* \"#utility.yul\":813:819   */\n  swap4\n    /* \"#utility.yul\":146:869   */\n  swap3\n  pop\n  pop\n  pop\n  jump\t// out\n    /* \"#utility.yul\":874:1598   */\ntag_3:\n    /* \"#utility.yul\":982:988   */\n  0x00\n    /* \"#utility.yul\":990:996   */\n  0x00\n    /* \"#utility.yul\":998:1004   */\n  0x00\n    /* \"#utility.yul\":1051:1053   */\n  0x60\n    /* \"#utility.yul\":1039:1048   */\n  dup5\n    /* \"#utility.yul\":1030:1037   */\n  dup7\n    /* \"#utility.yul\":1026:1049   */\n  sub\n    /* \"#utility.yul\":1022:1054   */\n  slt\n    /* \"#utility.yul\":1019:1071   */\n  iszero\n  tag_41\n  jumpi\n    /* \"#utility.yul\":1067:1068   */\n  0x00\n    /* \"#utility.yul\":1064:1065   */\n  0x00\n    /* \"#utility.yul\":1057:1069   */\n  revert\n    /* \"#utility.yul\":1019:1071   */\ntag_41:\n    /* \"#utility.yul\":1093:1109   */\n  dup4\n  mload\n  sub(shl(0xa0, 0x01), 0x01)\n    /* \"#utility.yul\":1138:1169   */\n  dup2\n  and\n    /* \"#utility.yul\":1128:1170   */\n  dup2\n  eq\n    /* \"#utility.yul\":1118:1188   */\n  tag_42\n  jumpi\n    /* \"#utility.yul\":1184:1185   */\n  0x00\n    /* \"#utility.yul\":1181:1182   */\n  0x00\n    /* \"#utility.yul\":1174:1186   */\n  revert\n    /* \"#utility.yul\":1118:1188   */\ntag_42:\n    /* \"#utility.yul\":1256:1258   */\n  0x20\n    /* \"#utility.yul\":1241:1259   */\n  dup6\n  add\n    /* \"#utility.yul\":1235:1260   */\n  mload\n    /* \"#utility.yul\":1207:1212   */\n  swap1\n  swap4\n  pop\n  sub(shl(0x40, 0x01), 0x01)\n    /* \"#utility.yul\":1272:1302   */\n  dup2\n  gt\n    /* \"#utility.yul\":1269:1319   */\n  iszero\n  tag_43\n  jumpi\n    /* \"#utility.yul\":1315:1316   */\n  0x00\n    /* \"#utility.yul\":1312:1313   */\n  0x00\n    /* \"#utility.yul\":1305:1317   */\n  revert\n    /* \"#utility.yul\":1269:1319   */\ntag_43:\n    /* \"#utility.yul\":1338:1399   */\n  tag_44\n    /* \"#utility.yul\":1391:1398   */\n  dup7\n    /* \"#utility.yul\":1382:1388   */\n  dup3\n    /* \"#utility.yul\":1371:1380   */\n  dup8\n    /* \"#utility.yul\":1367:1389   */\n  add\n    /* \"#utility.yul\":1338:1399   */\n  tag_26\n  jump\t// in\ntag_44:\n    /* \"#utility.yul\":1445:1447   */\n  0x40\n    /* \"#utility.yul\":1430:1448   */\n  dup7\n  add\n    /* \"#utility.yul\":1424:1449   */\n  mload\n    /* \"#utility.yul\":1328:1399   */\n  swap1\n  swap4\n  pop\n    /* \"#utility.yul\":1424:1449   */\n  swap1\n  pop\n  sub(shl(0x40, 0x01), 0x01)\n    /* \"#utility.yul\":1461:1493   */\n  dup2\n  gt\n    /* \"#utility.yul\":1458:1510   */\n  iszero\n  tag_45\n  jumpi\n    /* \"#utility.yul\":1506:1507   */\n  0x00\n    /* \"#utility.yul\":1503:1504   */\n  0x00\n    /* \"#utility.yul\":1496:1508   */\n  revert\n    /* \"#utility.yul\":1458:1510   */\ntag_45:\n    /* \"#utility.yul\":1529:1592   */\n  tag_46\n    /* \"#utility.yul\":1584:1591   */\n  dup7\n    /* \"#utility.yul\":1573:1581   */\n  dup3\n    /* \"#utility.yul\":1562:1571   */\n  dup8\n    /* \"#utility.yul\":1558:1582   */\n  add\n    /* \"#utility.yul\":1529:1592   */\n  tag_26\n  jump\t// in\ntag_46:\n    /* \"#utility.yul\":1519:1592   */\n  swap2\n  pop\n  pop\n    /* \"#utility.yul\":874:1598   */\n  swap3\n  pop\n  swap3\n  pop\n  swap3\n  jump\t// out\n    /* \"#utility.yul\":1603:1897   */\ntag_7:\n    /* \"#utility.yul\":1643:1644   */\n  0x00\n  sub(shl(0x80, 0x01), 0x01)\n    /* \"#utility.yul\":1670:1697   */\n  dup4\n  and\n  dup1\n    /* \"#utility.yul\":1706:1840   */\n  tag_48\n  jumpi\n    /* \"#utility.yul\":1762:1772   */\n  0x4e487b71\n    /* \"#utility.yul\":1757:1760   */\n  0xe0\n    /* \"#utility.yul\":1753:1773   */\n  shl\n    /* \"#utility.yul\":1750:1751   */\n  0x00\n    /* \"#utility.yul\":1743:1774   */\n  mstore\n    /* \"#utility.yul\":1797:1801   */\n  0x12\n    /* \"#utility.yul\":1794:1795   */\n  0x04\n    /* \"#utility.yul\":1787:1802   */\n  mstore\n    /* \"#utility.yul\":1825:1829   */\n  0x24\n    /* \"#utility.yul\":1822:1823   */\n  0x00\n    /* \"#utility.yul\":1815:1830   */\n  revert\n    /* \"#utility.yul\":1706:1840   */\ntag_48:\n  sub(shl(0x80, 0x01), 0x01)\n    /* \"#utility.yul\":1858:1885   */\n  swap3\n  swap1\n  swap3\n  and\n    /* \"#utility.yul\":1854:1891   */\n  swap2\n  swap1\n  swap2\n  div\n  swap3\n    /* \"#utility.yul\":1603:1897   */\n  swap2\n  pop\n  pop\n  jump\t// out\n    /* \"#utility.yul\":2110:2490   */\ntag_27:\n    /* \"#utility.yul\":2189:2190   */\n  0x01\n    /* \"#utility.yul\":2185:2197   */\n  dup2\n  dup2\n  shr\n  swap1\n    /* \"#utility.yul\":2232:2244   */\n  dup3\n  and\n  dup1\n    /* \"#utility.yul\":2253:2314   */\n  tag_51\n  jumpi\n    /* \"#utility.yul\":2307:2311   */\n  0x7f\n    /* \"#utility.yul\":2299:2305   */\n  dup3\n    /* \"#utility.yul\":2295:2312   */\n  and\n    /* \"#utility.yul\":2285:2312   */\n  swap2\n  pop\n    /* \"#utility.yul\":2253:2314   */\ntag_51:\n    /* \"#utility.yul\":2360:2362   */\n  0x20\n    /* \"#utility.yul\":2352:2358   */\n  dup3\n    /* \"#utility.yul\":2349:2363   */\n  lt\n    /* \"#utility.yul\":2329:2347   */\n  dup2\n    /* \"#utility.yul\":2326:2364   */\n  sub\n    /* \"#utility.yul\":2323:2484   */\n  tag_52\n  jumpi\n    /* \"#utility.yul\":2406:2416   */\n  0x4e487b71\n    /* \"#utility.yul\":2401:2404   */\n  0xe0\n    /* \"#utility.yul\":2397:2417   */\n  shl\n    /* \"#utility.yul\":2394:2395   */\n  0x00\n    /* \"#utility.yul\":2387:2418   */\n  mstore\n    /* \"#utility.yul\":2441:2445   */\n  0x22\n    /* \"#utility.yul\":2438:2439   */\n  0x04\n    /* \"#utility.yul\":2431:2446   */\n  mstore\n    /* \"#utility.yul\":2469:2473   */\n  0x24\n    /* \"#utility.yul\":2466:2467   */\n  0x00\n    /* \"#utility.yul\":2459:2474   */\n  revert\n    /* \"#utility.yul\":2323:2484   */\ntag_52:\n  pop\n    /* \"#utility.yul\":2110:2490   */\n  swap2\n  swap1\n  pop\n  jump\t// out\n    /* \"#utility.yul\":2621:3139   */\ntag_29:\n    /* \"#utility.yul\":2723:2725   */\n  0x1f\n    /* \"#utility.yul\":2718:2721   */\n  dup3\n    /* \"#utility.yul\":2715:2726   */\n  gt\n    /* \"#utility.yul\":2712:3133   */\n  iszero\n  tag_55\n  jumpi\n    /* \"#utility.yul\":2759:2764   */\n  dup1\n    /* \"#utility.yul\":2756:2757   */\n  0x00\n    /* \"#utility.yul\":2749:2765   */\n  mstore\n    /* \"#utility.yul\":2803:2807   */\n  0x20\n    /* \"#utility.yul\":2800:2801   */\n  0x00\n    /* \"#utility.yul\":2790:2808   */\n  keccak256\n    /* \"#utility.yul\":2873:2875   */\n  0x1f\n    /* \"#utility.yul\":2861:2871   */\n  dup5\n    /* \"#utility.yul\":2857:2876   */\n  add\n    /* \"#utility.yul\":2854:2855   */\n  0x05\n    /* \"#utility.yul\":2850:2877   */\n  shr\n    /* \"#utility.yul\":2844:2848   */\n  dup2\n    /* \"#utility.yul\":2840:2878   */\n  add\n    /* \"#utility.yul\":2909:2913   */\n  0x20\n    /* \"#utility.yul\":2897:2907   */\n  dup6\n    /* \"#utility.yul\":2894:2914   */\n  lt\n    /* \"#utility.yul\":2891:2938   */\n  iszero\n  tag_56\n  jumpi\n  pop\n    /* \"#utility.yul\":2932:2936   */\n  dup1\n    /* \"#utility.yul\":2891:2938   */\ntag_56:\n    /* \"#utility.yul\":2987:2989   */\n  0x1f\n    /* \"#utility.yul\":2982:2985   */\n  dup5\n    /* \"#utility.yul\":2978:2990   */\n  add\n    /* \"#utility.yul\":2975:2976   */\n  0x05\n    /* \"#utility.yul\":2971:2991   */\n  shr\n    /* \"#utility.yul\":2965:2969   */\n  dup3\n    /* \"#utility.yul\":2961:2992   */\n  add\n    /* \"#utility.yul\":2951:2992   */\n  swap2\n  pop\n    /* \"#utility.yul\":3042:3123   */\ntag_57:\n    /* \"#utility.yul\":3060:3062   */\n  dup2\n    /* \"#utility.yul\":3053:3058   */\n  dup2\n    /* \"#utility.yul\":3050:3063   */\n  lt\n    /* \"#utility.yul\":3042:3123   */\n  iszero\n  tag_59\n  jumpi\n    /* \"#utility.yul\":3119:3120   */\n  0x00\n    /* \"#utility.yul\":3105:3121   */\n  dup2\n  sstore\n    /* \"#utility.yul\":3086:3087   */\n  0x01\n    /* \"#utility.yul\":3075:3088   */\n  add\n    /* \"#utility.yul\":3042:3123   */\n  jump(tag_57)\ntag_59:\n    /* \"#utility.yul\":3046:3049   */\n  pop\n  pop\n    /* \"#utility.yul\":2712:3133   */\ntag_55:\n    /* \"#utility.yul\":2621:3139   */\n  pop\n  pop\n  pop\n  jump\t// out\n    /* \"#utility.yul\":3315:4614   */\ntag_21:\n    /* \"#utility.yul\":3435:3445   */\n  dup2\n  mload\n  sub(shl(0x40, 0x01), 0x01)\n    /* \"#utility.yul\":3457:3487   */\n  dup2\n  gt\n    /* \"#utility.yul\":3454:3510   */\n  iszero\n  tag_63\n  jumpi\n    /* \"#utility.yul\":3490:3508   */\n  tag_63\n  tag_25\n  jump\t// in\ntag_63:\n    /* \"#utility.yul\":3519:3616   */\n  tag_64\n    /* \"#utility.yul\":3609:3615   */\n  dup2\n    /* \"#utility.yul\":3569:3607   */\n  tag_65\n    /* \"#utility.yul\":3601:3605   */\n  dup5\n    /* \"#utility.yul\":3595:3606   */\n  sload\n    /* \"#utility.yul\":3569:3607   */\n  tag_27\n  jump\t// in\ntag_65:\n    /* \"#utility.yul\":3563:3567   */\n  dup5\n    /* \"#utility.yul\":3519:3616   */\n  tag_29\n  jump\t// in\ntag_64:\n    /* \"#utility.yul\":3665:3669   */\n  0x20\n    /* \"#utility.yul\":3696:3698   */\n  0x1f\n    /* \"#utility.yul\":3685:3699   */\n  dup3\n  gt\n    /* \"#utility.yul\":3713:3714   */\n  0x01\n    /* \"#utility.yul\":3708:4357   */\n  dup2\n  eq\n  tag_67\n  jumpi\n    /* \"#utility.yul\":4401:4402   */\n  0x00\n    /* \"#utility.yul\":4418:4424   */\n  dup4\n    /* \"#utility.yul\":4415:4504   */\n  iszero\n  tag_68\n  jumpi\n  pop\n    /* \"#utility.yul\":4470:4489   */\n  dup5\n  dup3\n  add\n    /* \"#utility.yul\":4464:4490   */\n  mload\n    /* \"#utility.yul\":4415:4504   */\ntag_68:\n  not(0x00)\n    /* \"#utility.yul\":3272:3273   */\n  0x03\n    /* \"#utility.yul\":3268:3279   */\n  dup6\n  swap1\n  shl\n    /* \"#utility.yul\":3264:3288   */\n  shr\n    /* \"#utility.yul\":3260:3289   */\n  not\n    /* \"#utility.yul\":3250:3290   */\n  and\n    /* \"#utility.yul\":3296:3297   */\n  0x01\n    /* \"#utility.yul\":3292:3303   */\n  dup5\n  swap1\n  shl\n    /* \"#utility.yul\":3247:3304   */\n  or\n    /* \"#utility.yul\":4517:4598   */\n  dup5\n  sstore\n    /* \"#utility.yul\":3678:4608   */\n  jump(tag_59)\n    /* \"#utility.yul\":3708:4357   */\ntag_67:\n    /* \"#utility.yul\":2568:2569   */\n  0x00\n    /* \"#utility.yul\":2561:2575   */\n  dup5\n  dup2\n  mstore\n    /* \"#utility.yul\":2605:2609   */\n  0x20\n    /* \"#utility.yul\":2592:2610   */\n  dup2\n  keccak256\n  not(0x1f)\n    /* \"#utility.yul\":3744:3764   */\n  dup6\n  and\n  swap2\n    /* \"#utility.yul\":3862:4084   */\ntag_71:\n    /* \"#utility.yul\":3876:3883   */\n  dup3\n    /* \"#utility.yul\":3873:3874   */\n  dup2\n    /* \"#utility.yul\":3870:3884   */\n  lt\n    /* \"#utility.yul\":3862:4084   */\n  iszero\n  tag_73\n  jumpi\n    /* \"#utility.yul\":3958:3977   */\n  dup8\n  dup6\n  add\n    /* \"#utility.yul\":3952:3978   */\n  mload\n    /* \"#utility.yul\":3937:3979   */\n  dup3\n  sstore\n    /* \"#utility.yul\":4065:4069   */\n  0x20\n    /* \"#utility.yul\":4050:4070   */\n  swap5\n  dup6\n  add\n  swap5\n    /* \"#utility.yul\":4018:4019   */\n  0x01\n    /* \"#utility.yul\":4006:4020   */\n  swap1\n  swap3\n  add\n  swap2\n    /* \"#utility.yul\":3892:3904   */\n  add\n    /* \"#utility.yul\":3862:4084   */\n  jump(tag_71)\ntag_73:\n    /* \"#utility.yul\":3866:3869   */\n  pop\n    /* \"#utility.yul\":4112:4118   */\n  dup5\n    /* \"#utility.yul\":4103:4110   */\n  dup3\n    /* \"#utility.yul\":4100:4119   */\n  lt\n    /* \"#utility.yul\":4097:4298   */\n  iszero\n  tag_74\n  jumpi\n    /* \"#utility.yul\":4173:4192   */\n  dup7\n  dup5\n  add\n    /* \"#utility.yul\":4167:4193   */\n  mload\n  not(0x00)\n    /* \"#utility.yul\":4256:4257   */\n  0x03\n    /* \"#utility.yul\":4252:4266   */\n  dup8\n  swap1\n  shl\n    /* \"#utility.yul\":4268:4271   */\n  0xf8\n    /* \"#utility.yul\":4248:4272   */\n  and\n    /* \"#utility.yul\":4244:4281   */\n  shr\n    /* \"#utility.yul\":4240:4282   */\n  not\n    /* \"#utility.yul\":4225:4283   */\n  and\n    /* \"#utility.yul\":4210:4284   */\n  dup2\n  sstore\n    /* \"#utility.yul\":4097:4298   */\ntag_74:\n  pop\n  pop\n  pop\n  pop\n    /* \"#utility.yul\":4344:4345   */\n  0x01\n    /* \"#utility.yul\":4328:4342   */\n  swap1\n  dup2\n  shl\n    /* \"#utility.yul\":4324:4346   */\n  add\n    /* \"#utility.yul\":4311:4347   */\n  swap1\n  sstore\n  pop\n    /* \"#utility.yul\":3315:4614   */\n  jump\t// out\ntag_31:\n    /* \"src/PinusVaultCore.sol\":1897:3535  contract PinusVaultCore is ExchangeAbstract(WITHDRAW_RATE, SHARE_CAP, MINT_RATE, ASSET_CAP), ERC20, Ownable {... */\n  mload(0x80)\n  mload(0xa0)\n  mload(0xc0)\n  mload(0xe0)\n  mload(0x0100)\n  codecopy(0x00, dataOffset(sub_0), dataSize(sub_0))\n  0x00\n  assignImmutable(\"0x90c481f3ac5c7eaa8ded97c322b2b9f85374628e79ad5c83ad1fe55ee31e2bd9\")\n  0x00\n  assignImmutable(\"0x995e9b9c383b6baf313a70484a430646fdb0bda9c66fbf3dd61de0a96745b1aa\")\n  0x00\n  assignImmutable(\"0xc2c77dc624b4aac67a6e14132cf7e60e698350f9c72b88ffba77407546a8ee13\")\n  0x00\n  assignImmutable(\"0x04858cf527bbe93978e168f56532450d1459771814ce695a45178f6b6b92373a\")\n  0x00\n  assignImmutable(\"0xced2926accb5b65113b9dfa04c89dc1608287373834acba62edea43e130eddaa\")\n  return(0x00, dataSize(sub_0))\nstop\n\nsub_0: assembly {\n        /* \"src/PinusVaultCore.sol\":1897:3535  contract PinusVaultCore is ExchangeAbstract(WITHDRAW_RATE, SHARE_CAP, MINT_RATE, ASSET_CAP), ERC20, Ownable {... */\n      mstore(0x40, 0x80)\n      jumpi(tag_1, lt(calldatasize, 0x04))\n      shr(0xe0, calldataload(0x00))\n      dup1\n      0x4d016295\n      gt\n      tag_35\n      jumpi\n      dup1\n      0xa9059cbb\n      gt\n      tag_36\n      jumpi\n      dup1\n      0xd505accf\n      gt\n      tag_37\n      jumpi\n      dup1\n      0xd505accf\n      eq\n      tag_30\n      jumpi\n      dup1\n      0xdd62ed3e\n      eq\n      tag_31\n      jumpi\n      dup1\n      0xde899d1f\n      eq\n      tag_32\n      jumpi\n      dup1\n      0xea6b80b7\n      eq\n      tag_33\n      jumpi\n      dup1\n      0xf2fde38b\n      eq\n      tag_34\n      jumpi\n      revert(0x00, 0x00)\n    tag_37:\n      dup1\n      0xa9059cbb\n      eq\n      tag_26\n      jumpi\n      dup1\n      0xad330967\n      eq\n      tag_27\n      jumpi\n      dup1\n      0xaea1e3d1\n      eq\n      tag_28\n      jumpi\n      dup1\n      0xbc710575\n      eq\n      tag_29\n      jumpi\n      revert(0x00, 0x00)\n    tag_36:\n      dup1\n      0x81f2d34e\n      gt\n      tag_38\n      jumpi\n      dup1\n      0x81f2d34e\n      eq\n      tag_22\n      jumpi\n      dup1\n      0x8da5cb5b\n      eq\n      tag_23\n      jumpi\n      dup1\n      0x95d89b41\n      eq\n      tag_24\n      jumpi\n      dup1\n      0x96a3958d\n      eq\n      tag_25\n      jumpi\n      revert(0x00, 0x00)\n    tag_38:\n      dup1\n      0x4d016295\n      eq\n      tag_18\n      jumpi\n      dup1\n      0x70a08231\n      eq\n      tag_19\n      jumpi\n      dup1\n      0x715018a6\n      eq\n      tag_20\n      jumpi\n      dup1\n      0x7ecebe00\n      eq\n      tag_21\n      jumpi\n      revert(0x00, 0x00)\n    tag_35:\n      dup1\n      0x23b872dd\n      gt\n      tag_39\n      jumpi\n      dup1\n      0x367ada10\n      gt\n      tag_40\n      jumpi\n      dup1\n      0x367ada10\n      eq\n      tag_14\n      jumpi\n      dup1\n      0x38d52e0f\n      eq\n      tag_15\n      jumpi\n      dup1\n      0x3aeeade8\n      eq\n      tag_16\n      jumpi\n      dup1\n      0x421c6a8a\n      eq\n      tag_17\n      jumpi\n      revert(0x00, 0x00)\n    tag_40:\n      dup1\n      0x23b872dd\n      eq\n      tag_10\n      jumpi\n      dup1\n      0x25d1782d\n      eq\n      tag_11\n      jumpi\n      dup1\n      0x313ce567\n      eq\n      tag_12\n      jumpi\n      dup1\n      0x3644e515\n      eq\n      tag_13\n      jumpi\n      revert(0x00, 0x00)\n    tag_39:\n      dup1\n      0x10ab2d01\n      gt\n      tag_41\n      jumpi\n      dup1\n      0x10ab2d01\n      eq\n      tag_6\n      jumpi\n      dup1\n      0x127d0409\n      eq\n      tag_7\n      jumpi\n      dup1\n      0x18160ddd\n      eq\n      tag_8\n      jumpi\n      dup1\n      0x19cdf284\n      eq\n      tag_9\n      jumpi\n      revert(0x00, 0x00)\n    tag_41:\n      dup1\n      0x06fdde03\n      eq\n      tag_2\n      jumpi\n      dup1\n      0x08e30698\n      eq\n      tag_3\n      jumpi\n      dup1\n      0x095ea7b3\n      eq\n      tag_4\n      jumpi\n      dup1\n      0x0f2a403f\n      eq\n      tag_5\n      jumpi\n    tag_1:\n      revert(0x00, 0x00)\n        /* \"src/PinusVaultCore.sol\":2453:2544  function name() public view override returns (string memory){... */\n    tag_2:\n      callvalue\n      dup1\n      iszero\n      tag_42\n      jumpi\n      revert(0x00, 0x00)\n    tag_42:\n      pop\n      tag_43\n      tag_44\n      jump\t// in\n    tag_43:\n      mload(0x40)\n      tag_45\n      swap2\n      swap1\n      tag_46\n      jump\t// in\n    tag_45:\n      mload(0x40)\n      dup1\n      swap2\n      sub\n      swap1\n      return\n        /* \"src/PinusVaultCore.sol\":3143:3530  function erc20ToNativeSwap(uint erc20sSold, address recipient) public override returns (uint nativesBought) {... */\n    tag_3:\n      callvalue\n      dup1\n      iszero\n      tag_47\n      jumpi\n      revert(0x00, 0x00)\n    tag_47:\n      pop\n      tag_48\n      tag_49\n      calldatasize\n      0x04\n      tag_50\n      jump\t// in\n    tag_49:\n      tag_51\n      jump\t// in\n    tag_48:\n      mload(0x40)\n        /* \"#utility.yul\":1162:1187   */\n      swap1\n      dup2\n      mstore\n        /* \"#utility.yul\":1150:1152   */\n      0x20\n        /* \"#utility.yul\":1135:1153   */\n      add\n        /* \"src/PinusVaultCore.sol\":3143:3530  function erc20ToNativeSwap(uint erc20sSold, address recipient) public override returns (uint nativesBought) {... */\n      tag_45\n        /* \"#utility.yul\":1016:1193   */\n      jump\n        /* \"https://github.com/Vectorized/solady/blob/main/src/tokens/ERC20.sol\":8175:9204  function approve(address spender, uint256 amount) public virtual returns (bool) {... */\n    tag_4:\n      callvalue\n      dup1\n      iszero\n      tag_54\n      jumpi\n      revert(0x00, 0x00)\n    tag_54:\n      pop\n      tag_55\n      tag_56\n      calldatasize\n      0x04\n      tag_57\n      jump\t// in\n    tag_56:\n      tag_58\n      jump\t// in\n    tag_55:\n      mload(0x40)\n        /* \"#utility.yul\":1668:1682   */\n      swap1\n      iszero\n        /* \"#utility.yul\":1661:1683   */\n      iszero\n        /* \"#utility.yul\":1643:1684   */\n      dup2\n      mstore\n        /* \"#utility.yul\":1631:1633   */\n      0x20\n        /* \"#utility.yul\":1616:1634   */\n      add\n        /* \"https://github.com/Vectorized/solady/blob/main/src/tokens/ERC20.sol\":8175:9204  function approve(address spender, uint256 amount) public virtual returns (bool) {... */\n      tag_45\n        /* \"#utility.yul\":1503:1690   */\n      jump\n        /* \"src/ExchangeAbstract.sol\":323:373  uint public erc20PurchasableTime = block.timestamp */\n    tag_5:\n      callvalue\n      dup1\n      iszero\n      tag_61\n      jumpi\n      revert(0x00, 0x00)\n    tag_61:\n      pop\n      tag_48\n      sload(0x01)\n      dup2\n      jump\n        /* \"src/PinusVaultCore.sol\":2239:2445  function customCall(address to,uint value,bytes calldata data) public onlyOwner returns (bytes memory) {... */\n    tag_6:\n      callvalue\n      dup1\n      iszero\n      tag_65\n      jumpi\n      revert(0x00, 0x00)\n    tag_65:\n      pop\n      tag_43\n      tag_67\n      calldatasize\n      0x04\n      tag_68\n      jump\t// in\n    tag_67:\n      tag_69\n      jump\t// in\n        /* \"src/SwapAbstract.sol\":812:959  function erc20ToNativeSwap(uint erc20sSold) public returns (uint nativesBought) {... */\n    tag_7:\n      callvalue\n      dup1\n      iszero\n      tag_72\n      jumpi\n      revert(0x00, 0x00)\n    tag_72:\n      pop\n      tag_48\n      tag_74\n      calldatasize\n      0x04\n      tag_75\n      jump\t// in\n    tag_74:\n      tag_76\n      jump\t// in\n        /* \"https://github.com/Vectorized/solady/blob/main/src/tokens/ERC20.sol\":6907:7102  function totalSupply() public view virtual returns (uint256 result) {... */\n    tag_8:\n      callvalue\n      dup1\n      iszero\n      tag_78\n      jumpi\n      revert(0x00, 0x00)\n    tag_78:\n      pop\n        /* \"https://github.com/Vectorized/solady/blob/main/src/tokens/ERC20.sol\":7067:7085  _TOTAL_SUPPLY_SLOT */\n      0x05345cdf77eb68f44c\n        /* \"https://github.com/Vectorized/solady/blob/main/src/tokens/ERC20.sol\":7061:7086  sload(_TOTAL_SUPPLY_SLOT) */\n      sload\n        /* \"https://github.com/Vectorized/solady/blob/main/src/tokens/ERC20.sol\":6907:7102  function totalSupply() public view virtual returns (uint256 result) {... */\n      jump(tag_48)\n        /* \"src/SwapAbstract.sol\":967:1226  function erc20ToNativeSwap(uint erc20sSold, Permit2Sig calldata sig) external returns (uint nativesBought) {... */\n    tag_9:\n      callvalue\n      dup1\n      iszero\n      tag_82\n      jumpi\n      revert(0x00, 0x00)\n    tag_82:\n      pop\n      tag_48\n      tag_84\n      calldatasize\n      0x04\n      tag_85\n      jump\t// in\n    tag_84:\n      tag_86\n      jump\t// in\n        /* \"https://github.com/Vectorized/solady/blob/main/src/tokens/ERC20.sol\":11165:15918  function transferFrom(address from, address to, uint256 amount) public virtual returns (bool) {... */\n    tag_10:\n      callvalue\n      dup1\n      iszero\n      tag_88\n      jumpi\n      revert(0x00, 0x00)\n    tag_88:\n      pop\n      tag_55\n      tag_90\n      calldatasize\n      0x04\n      tag_91\n      jump\t// in\n    tag_90:\n      tag_92\n      jump\t// in\n        /* \"src/ExchangeAbstract.sol\":1177:1491  function getERC20ToNativePrice(uint erc20sSold) public override view returns (uint nativesBought) {... */\n    tag_11:\n      callvalue\n      dup1\n      iszero\n      tag_94\n      jumpi\n      revert(0x00, 0x00)\n    tag_94:\n      pop\n      tag_48\n      tag_96\n      calldatasize\n      0x04\n      tag_75\n      jump\t// in\n    tag_96:\n      tag_97\n      jump\t// in\n        /* \"https://github.com/Vectorized/solady/blob/main/src/tokens/ERC20.sol\":6480:6562  function decimals() public view virtual returns (uint8) {... */\n    tag_12:\n      callvalue\n      dup1\n      iszero\n      tag_99\n      jumpi\n      revert(0x00, 0x00)\n    tag_99:\n      pop\n      mload(0x40)\n        /* \"https://github.com/Vectorized/solady/blob/main/src/tokens/ERC20.sol\":6553:6555  18 */\n      0x12\n        /* \"#utility.yul\":3977:4013   */\n      dup2\n      mstore\n        /* \"#utility.yul\":3965:3967   */\n      0x20\n        /* \"#utility.yul\":3950:3968   */\n      add\n        /* \"https://github.com/Vectorized/solady/blob/main/src/tokens/ERC20.sol\":6480:6562  function decimals() public view virtual returns (uint8) {... */\n      tag_45\n        /* \"#utility.yul\":3835:4019   */\n      jump\n        /* \"https://github.com/Vectorized/solady/blob/main/src/tokens/ERC20.sol\":21458:22195  function DOMAIN_SEPARATOR() public view virtual returns (bytes32 result) {... */\n    tag_13:\n      callvalue\n      dup1\n      iszero\n      tag_104\n      jumpi\n      revert(0x00, 0x00)\n    tag_104:\n      pop\n      tag_48\n      tag_106\n      jump\t// in\n        /* \"src/ExchangeAbstract.sol\":275:314  uint128 public immutable erc20Inhibitor */\n    tag_14:\n      callvalue\n      dup1\n      iszero\n      tag_109\n      jumpi\n      revert(0x00, 0x00)\n    tag_109:\n      pop\n      tag_110\n      immutable(\"0xc2c77dc624b4aac67a6e14132cf7e60e698350f9c72b88ffba77407546a8ee13\")\n      dup2\n      jump\n    tag_110:\n      mload(0x40)\n      sub(shl(0x80, 0x01), 0x01)\n        /* \"#utility.yul\":4370:4417   */\n      swap1\n      swap2\n      and\n        /* \"#utility.yul\":4352:4418   */\n      dup2\n      mstore\n        /* \"#utility.yul\":4340:4342   */\n      0x20\n        /* \"#utility.yul\":4325:4343   */\n      add\n        /* \"src/ExchangeAbstract.sol\":275:314  uint128 public immutable erc20Inhibitor */\n      tag_45\n        /* \"#utility.yul\":4206:4424   */\n      jump\n        /* \"src/SwapAbstract.sol\":285:313  ERC20 public immutable asset */\n    tag_15:\n      callvalue\n      dup1\n      iszero\n      tag_114\n      jumpi\n      revert(0x00, 0x00)\n    tag_114:\n      pop\n      tag_115\n      immutable(\"0xced2926accb5b65113b9dfa04c89dc1608287373834acba62edea43e130eddaa\")\n      dup2\n      jump\n    tag_115:\n      mload(0x40)\n      sub(shl(0xa0, 0x01), 0x01)\n        /* \"#utility.yul\":4606:4638   */\n      swap1\n      swap2\n      and\n        /* \"#utility.yul\":4588:4639   */\n      dup2\n      mstore\n        /* \"#utility.yul\":4576:4578   */\n      0x20\n        /* \"#utility.yul\":4561:4579   */\n      add\n        /* \"src/SwapAbstract.sol\":285:313  ERC20 public immutable asset */\n      tag_45\n        /* \"#utility.yul\":4429:4645   */\n      jump\n        /* \"src/ExchangeAbstract.sol\":380:425  uint128 public immutable erc20PurchasableRate */\n    tag_16:\n      callvalue\n      dup1\n      iszero\n      tag_119\n      jumpi\n      revert(0x00, 0x00)\n    tag_119:\n      pop\n      tag_110\n      immutable(\"0x995e9b9c383b6baf313a70484a430646fdb0bda9c66fbf3dd61de0a96745b1aa\")\n      dup2\n      jump\n        /* \"src/ExchangeAbstract.sol\":164:215  uint public nativePurchasableTime = block.timestamp */\n    tag_17:\n      callvalue\n      dup1\n      iszero\n      tag_123\n      jumpi\n      revert(0x00, 0x00)\n    tag_123:\n      pop\n      tag_48\n      sload(0x00)\n      dup2\n      jump\n        /* \"src/ExchangeAbstract.sol\":222:268  uint128 public immutable nativePurchasableRate */\n    tag_18:\n      callvalue\n      dup1\n      iszero\n      tag_127\n      jumpi\n      revert(0x00, 0x00)\n    tag_127:\n      pop\n      tag_110\n      immutable(\"0x04858cf527bbe93978e168f56532450d1459771814ce695a45178f6b6b92373a\")\n      dup2\n      jump\n        /* \"https://github.com/Vectorized/solady/blob/main/src/tokens/ERC20.sol\":7168:7454  function balanceOf(address owner) public view virtual returns (uint256 result) {... */\n    tag_19:\n      callvalue\n      dup1\n      iszero\n      tag_131\n      jumpi\n      revert(0x00, 0x00)\n    tag_131:\n      pop\n      tag_48\n      tag_133\n      calldatasize\n      0x04\n      tag_134\n      jump\t// in\n    tag_133:\n        /* \"https://github.com/Vectorized/solady/blob/main/src/tokens/ERC20.sol\":7336:7354  _BALANCE_SLOT_SEED */\n      0x87a211a2\n        /* \"https://github.com/Vectorized/solady/blob/main/src/tokens/ERC20.sol\":7330:7334  0x0c */\n      0x0c\n        /* \"https://github.com/Vectorized/solady/blob/main/src/tokens/ERC20.sol\":7323:7355  mstore(0x0c, _BALANCE_SLOT_SEED) */\n      swap1\n      dup2\n      mstore\n        /* \"https://github.com/Vectorized/solady/blob/main/src/tokens/ERC20.sol\":7231:7245  uint256 result */\n      0x00\n        /* \"https://github.com/Vectorized/solady/blob/main/src/tokens/ERC20.sol\":7368:7387  mstore(0x00, owner) */\n      swap2\n      swap1\n      swap2\n      mstore\n        /* \"https://github.com/Vectorized/solady/blob/main/src/tokens/ERC20.sol\":7432:7436  0x20 */\n      0x20\n        /* \"https://github.com/Vectorized/solady/blob/main/src/tokens/ERC20.sol\":7416:7437  keccak256(0x0c, 0x20) */\n      swap1\n      keccak256\n        /* \"https://github.com/Vectorized/solady/blob/main/src/tokens/ERC20.sol\":7410:7438  sload(keccak256(0x0c, 0x20)) */\n      sload\n      swap1\n        /* \"https://github.com/Vectorized/solady/blob/main/src/tokens/ERC20.sol\":7168:7454  function balanceOf(address owner) public view virtual returns (uint256 result) {... */\n      jump\n        /* \"@openzeppelin/contracts/access/Ownable.sol\":2293:2394  function renounceOwnership() public virtual onlyOwner {... */\n    tag_20:\n      callvalue\n      dup1\n      iszero\n      tag_137\n      jumpi\n      revert(0x00, 0x00)\n    tag_137:\n      pop\n      tag_138\n      tag_139\n      jump\t// in\n    tag_138:\n      stop\n        /* \"https://github.com/Vectorized/solady/blob/main/src/tokens/ERC20.sol\":17137:17477  function nonces(address owner) public view virtual returns (uint256 result) {... */\n    tag_21:\n      callvalue\n      dup1\n      iszero\n      tag_140\n      jumpi\n      revert(0x00, 0x00)\n    tag_140:\n      pop\n      tag_48\n      tag_142\n      calldatasize\n      0x04\n      tag_134\n      jump\t// in\n    tag_142:\n        /* \"https://github.com/Vectorized/solady/blob/main/src/tokens/ERC20.sol\":17360:17377  _NONCES_SLOT_SEED */\n      0x38377508\n        /* \"https://github.com/Vectorized/solady/blob/main/src/tokens/ERC20.sol\":17354:17358  0x0c */\n      0x0c\n        /* \"https://github.com/Vectorized/solady/blob/main/src/tokens/ERC20.sol\":17347:17378  mstore(0x0c, _NONCES_SLOT_SEED) */\n      swap1\n      dup2\n      mstore\n        /* \"https://github.com/Vectorized/solady/blob/main/src/tokens/ERC20.sol\":17197:17211  uint256 result */\n      0x00\n        /* \"https://github.com/Vectorized/solady/blob/main/src/tokens/ERC20.sol\":17391:17410  mstore(0x00, owner) */\n      swap2\n      swap1\n      swap2\n      mstore\n        /* \"https://github.com/Vectorized/solady/blob/main/src/tokens/ERC20.sol\":17455:17459  0x20 */\n      0x20\n        /* \"https://github.com/Vectorized/solady/blob/main/src/tokens/ERC20.sol\":17439:17460  keccak256(0x0c, 0x20) */\n      swap1\n      keccak256\n        /* \"https://github.com/Vectorized/solady/blob/main/src/tokens/ERC20.sol\":17433:17461  sload(keccak256(0x0c, 0x20)) */\n      sload\n      swap1\n        /* \"https://github.com/Vectorized/solady/blob/main/src/tokens/ERC20.sol\":17137:17477  function nonces(address owner) public view virtual returns (uint256 result) {... */\n      jump\n        /* \"src/ExchangeAbstract.sol\":1024:1169  function purchasableERC20s() public view returns (uint) {... */\n    tag_22:\n      callvalue\n      dup1\n      iszero\n      tag_145\n      jumpi\n      revert(0x00, 0x00)\n    tag_145:\n      pop\n      tag_48\n      tag_147\n      jump\t// in\n        /* \"@openzeppelin/contracts/access/Ownable.sol\":1638:1723  function owner() public view virtual returns (address) {... */\n    tag_23:\n      callvalue\n      dup1\n      iszero\n      tag_149\n      jumpi\n      revert(0x00, 0x00)\n    tag_149:\n      pop\n        /* \"@openzeppelin/contracts/access/Ownable.sol\":1710:1716  _owner */\n      and(sub(shl(0xa0, 0x01), 0x01), sload(0x02))\n        /* \"@openzeppelin/contracts/access/Ownable.sol\":1638:1723  function owner() public view virtual returns (address) {... */\n      jump(tag_115)\n        /* \"src/PinusVaultCore.sol\":2556:2651  function symbol() public view override returns (string memory){... */\n    tag_24:\n      callvalue\n      dup1\n      iszero\n      tag_154\n      jumpi\n      revert(0x00, 0x00)\n    tag_154:\n      pop\n      tag_43\n      tag_156\n      jump\t// in\n        /* \"src/ExchangeAbstract.sol\":868:1016  function purchasableNatives() public view returns (uint) {... */\n    tag_25:\n      callvalue\n      dup1\n      iszero\n      tag_158\n      jumpi\n      revert(0x00, 0x00)\n    tag_158:\n      pop\n      tag_48\n      tag_160\n      jump\t// in\n        /* \"https://github.com/Vectorized/solady/blob/main/src/tokens/ERC20.sol\":9391:10797  function transfer(address to, uint256 amount) public virtual returns (bool) {... */\n    tag_26:\n      callvalue\n      dup1\n      iszero\n      tag_162\n      jumpi\n      revert(0x00, 0x00)\n    tag_162:\n      pop\n      tag_55\n      tag_164\n      calldatasize\n      0x04\n      tag_57\n      jump\t// in\n    tag_164:\n      tag_165\n      jump\t// in\n        /* \"src/ExchangeAbstract.sol\":432:472  uint128 public immutable nativeInhibitor */\n    tag_27:\n      callvalue\n      dup1\n      iszero\n      tag_167\n      jumpi\n      revert(0x00, 0x00)\n    tag_167:\n      pop\n      tag_110\n      immutable(\"0x90c481f3ac5c7eaa8ded97c322b2b9f85374628e79ad5c83ad1fe55ee31e2bd9\")\n      dup2\n      jump\n        /* \"src/SwapAbstract.sol\":1529:1658  function nativeToERC20Swap() external payable returns (uint erc20sBought) {... */\n    tag_28:\n      tag_48\n      tag_172\n      jump\t// in\n        /* \"src/PinusVaultCore.sol\":2858:3135  function nativeToERC20Swap(address recipient) public override payable returns (uint erc20sBought) {... */\n    tag_29:\n      tag_48\n      tag_175\n      calldatasize\n      0x04\n      tag_134\n      jump\t// in\n    tag_175:\n      tag_176\n      jump\t// in\n        /* \"https://github.com/Vectorized/solady/blob/main/src/tokens/ERC20.sol\":17661:21377  function permit(... */\n    tag_30:\n      callvalue\n      dup1\n      iszero\n      tag_178\n      jumpi\n      revert(0x00, 0x00)\n    tag_178:\n      pop\n      tag_138\n      tag_180\n      calldatasize\n      0x04\n      tag_181\n      jump\t// in\n    tag_180:\n      tag_182\n      jump\t// in\n        /* \"https://github.com/Vectorized/solady/blob/main/src/tokens/ERC20.sol\":7549:8044  function allowance(address owner, address spender)... */\n    tag_31:\n      callvalue\n      dup1\n      iszero\n      tag_183\n      jumpi\n      revert(0x00, 0x00)\n    tag_183:\n      pop\n      tag_48\n      tag_185\n      calldatasize\n      0x04\n      tag_186\n      jump\t// in\n    tag_185:\n        /* \"https://github.com/Vectorized/solady/blob/main/src/tokens/ERC20.sol\":7884:7888  0x20 */\n      0x20\n        /* \"https://github.com/Vectorized/solady/blob/main/src/tokens/ERC20.sol\":7877:7898  mstore(0x20, spender) */\n      mstore\n        /* \"https://github.com/Vectorized/solady/blob/main/src/tokens/ERC20.sol\":7924:7944  _ALLOWANCE_SLOT_SEED */\n      0x7f5e9f20\n        /* \"https://github.com/Vectorized/solady/blob/main/src/tokens/ERC20.sol\":7918:7922  0x0c */\n      0x0c\n        /* \"https://github.com/Vectorized/solady/blob/main/src/tokens/ERC20.sol\":7911:7945  mstore(0x0c, _ALLOWANCE_SLOT_SEED) */\n      swap1\n      dup2\n      mstore\n        /* \"https://github.com/Vectorized/solady/blob/main/src/tokens/ERC20.sol\":7965:7969  0x00 */\n      0x00\n        /* \"https://github.com/Vectorized/solady/blob/main/src/tokens/ERC20.sol\":7958:7977  mstore(0x00, owner) */\n      swap2\n      swap1\n      swap2\n      mstore\n        /* \"https://github.com/Vectorized/solady/blob/main/src/tokens/ERC20.sol\":8022:8026  0x34 */\n      0x34\n        /* \"https://github.com/Vectorized/solady/blob/main/src/tokens/ERC20.sol\":8006:8027  keccak256(0x0c, 0x34) */\n      swap1\n      keccak256\n        /* \"https://github.com/Vectorized/solady/blob/main/src/tokens/ERC20.sol\":8000:8028  sload(keccak256(0x0c, 0x34)) */\n      sload\n      swap1\n        /* \"https://github.com/Vectorized/solady/blob/main/src/tokens/ERC20.sol\":7549:8044  function allowance(address owner, address spender)... */\n      jump\n        /* \"src/SwapAbstract.sol\":1234:1521  function erc20ToNativeSwap(uint erc20sSold, address recipient, Permit2Sig calldata sig) public returns (uint nativesBought) {... */\n    tag_32:\n      callvalue\n      dup1\n      iszero\n      tag_189\n      jumpi\n      revert(0x00, 0x00)\n    tag_189:\n      pop\n      tag_48\n      tag_191\n      calldatasize\n      0x04\n      tag_192\n      jump\t// in\n    tag_191:\n      tag_193\n      jump\t// in\n        /* \"src/PinusVaultCore.sol\":2659:2850  function getNativeToERC20Price(uint nativesSold) public override view returns (uint erc20sBought) {... */\n    tag_33:\n      callvalue\n      dup1\n      iszero\n      tag_195\n      jumpi\n      revert(0x00, 0x00)\n    tag_195:\n      pop\n      tag_48\n      tag_197\n      calldatasize\n      0x04\n      tag_75\n      jump\t// in\n    tag_197:\n      tag_198\n      jump\t// in\n        /* \"@openzeppelin/contracts/access/Ownable.sol\":2543:2758  function transferOwnership(address newOwner) public virtual onlyOwner {... */\n    tag_34:\n      callvalue\n      dup1\n      iszero\n      tag_200\n      jumpi\n      revert(0x00, 0x00)\n    tag_200:\n      pop\n      tag_138\n      tag_202\n      calldatasize\n      0x04\n      tag_134\n      jump\t// in\n    tag_202:\n      tag_203\n      jump\t// in\n        /* \"src/PinusVaultCore.sol\":2453:2544  function name() public view override returns (string memory){... */\n    tag_44:\n        /* \"src/PinusVaultCore.sol\":2499:2512  string memory */\n      0x60\n        /* \"src/PinusVaultCore.sol\":2531:2536  _name */\n      0x03\n        /* \"src/PinusVaultCore.sol\":2524:2536  return _name */\n      dup1\n      sload\n      tag_205\n      swap1\n      tag_206\n      jump\t// in\n    tag_205:\n      dup1\n      0x1f\n      add\n      0x20\n      dup1\n      swap2\n      div\n      mul\n      0x20\n      add\n      mload(0x40)\n      swap1\n      dup2\n      add\n      0x40\n      mstore\n      dup1\n      swap3\n      swap2\n      swap1\n      dup2\n      dup2\n      mstore\n      0x20\n      add\n      dup3\n      dup1\n      sload\n      tag_207\n      swap1\n      tag_206\n      jump\t// in\n    tag_207:\n      dup1\n      iszero\n      tag_208\n      jumpi\n      dup1\n      0x1f\n      lt\n      tag_209\n      jumpi\n      0x0100\n      dup1\n      dup4\n      sload\n      div\n      mul\n      dup4\n      mstore\n      swap2\n      0x20\n      add\n      swap2\n      jump(tag_208)\n    tag_209:\n      dup3\n      add\n      swap2\n      swap1\n      0x00\n      mstore\n      keccak256(0x00, 0x20)\n      swap1\n    tag_210:\n      dup2\n      sload\n      dup2\n      mstore\n      swap1\n      0x01\n      add\n      swap1\n      0x20\n      add\n      dup1\n      dup4\n      gt\n      tag_210\n      jumpi\n      dup3\n      swap1\n      sub\n      0x1f\n      and\n      dup3\n      add\n      swap2\n    tag_208:\n      pop\n      pop\n      pop\n      pop\n      pop\n      swap1\n      pop\n        /* \"src/PinusVaultCore.sol\":2453:2544  function name() public view override returns (string memory){... */\n      swap1\n      jump\t// out\n        /* \"src/PinusVaultCore.sol\":3143:3530  function erc20ToNativeSwap(uint erc20sSold, address recipient) public override returns (uint nativesBought) {... */\n    tag_51:\n        /* \"src/PinusVaultCore.sol\":3231:3249  uint nativesBought */\n      0x00\n        /* \"src/PinusVaultCore.sol\":3278:3311  getERC20ToNativePrice(erc20sSold) */\n      tag_212\n        /* \"src/PinusVaultCore.sol\":3300:3310  erc20sSold */\n      dup4\n        /* \"src/PinusVaultCore.sol\":3278:3299  getERC20ToNativePrice */\n      tag_97\n        /* \"src/PinusVaultCore.sol\":3278:3311  getERC20ToNativePrice(erc20sSold) */\n      jump\t// in\n    tag_212:\n        /* \"src/PinusVaultCore.sol\":3262:3311  nativesBought = getERC20ToNativePrice(erc20sSold) */\n      swap1\n      pop\n        /* \"src/PinusVaultCore.sol\":3349:3386  nativesBought / nativePurchasableRate */\n      tag_213\n      sub(shl(0x80, 0x01), 0x01)\n        /* \"src/PinusVaultCore.sol\":3365:3386  nativePurchasableRate */\n      immutable(\"0x04858cf527bbe93978e168f56532450d1459771814ce695a45178f6b6b92373a\")\n        /* \"src/PinusVaultCore.sol\":3349:3386  nativesBought / nativePurchasableRate */\n      and\n        /* \"src/PinusVaultCore.sol\":3262:3311  nativesBought = getERC20ToNativePrice(erc20sSold) */\n      dup3\n        /* \"src/PinusVaultCore.sol\":3349:3386  nativesBought / nativePurchasableRate */\n      tag_214\n      jump\t// in\n    tag_213:\n        /* \"src/PinusVaultCore.sol\":3324:3345  nativePurchasableTime */\n      0x00\n      0x00\n        /* \"src/PinusVaultCore.sol\":3324:3386  nativePurchasableTime += nativesBought / nativePurchasableRate */\n      dup3\n      dup3\n      sload\n      tag_215\n      swap2\n      swap1\n      tag_216\n      jump\t// in\n    tag_215:\n      swap1\n      swap2\n      sstore\n      pop\n        /* \"src/PinusVaultCore.sol\":3397:3425  _burn(msg.sender,erc20sSold) */\n      tag_217\n      swap1\n      pop\n        /* \"src/PinusVaultCore.sol\":3403:3413  msg.sender */\n      caller\n        /* \"src/PinusVaultCore.sol\":3414:3424  erc20sSold */\n      dup5\n        /* \"src/PinusVaultCore.sol\":3397:3402  _burn */\n      tag_218\n        /* \"src/PinusVaultCore.sol\":3397:3425  _burn(msg.sender,erc20sSold) */\n      jump\t// in\n    tag_217:\n        /* \"src/PinusVaultCore.sol\":3439:3451  bool success */\n      0x00\n        /* \"src/PinusVaultCore.sol\":3456:3465  recipient */\n      dup3\n      sub(shl(0xa0, 0x01), 0x01)\n        /* \"src/PinusVaultCore.sol\":3456:3470  recipient.call */\n      and\n        /* \"src/PinusVaultCore.sol\":3477:3490  nativesBought */\n      dup3\n        /* \"src/PinusVaultCore.sol\":3456:3495  recipient.call{value:nativesBought}(\"\") */\n      mload(0x40)\n      0x00\n      mload(0x40)\n      dup1\n      dup4\n      sub\n      dup2\n      dup6\n      dup8\n      gas\n      call\n      swap3\n      pop\n      pop\n      pop\n      returndatasize\n      dup1\n      0x00\n      dup2\n      eq\n      tag_223\n      jumpi\n      mload(0x40)\n      swap2\n      pop\n      and(add(returndatasize, 0x3f), not(0x1f))\n      dup3\n      add\n      0x40\n      mstore\n      returndatasize\n      dup3\n      mstore\n      returndatasize\n      0x00\n      0x20\n      dup5\n      add\n      returndatacopy\n      jump(tag_222)\n    tag_223:\n      0x60\n      swap2\n      pop\n    tag_222:\n      pop\n        /* \"src/PinusVaultCore.sol\":3438:3495  (bool success,) = recipient.call{value:nativesBought}(\"\") */\n      pop\n      swap1\n      pop\n        /* \"src/PinusVaultCore.sol\":3514:3521  success */\n      dup1\n        /* \"src/PinusVaultCore.sol\":3506:3522  require(success) */\n      tag_224\n      jumpi\n      revert(0x00, 0x00)\n    tag_224:\n        /* \"src/PinusVaultCore.sol\":3251:3530  {... */\n      pop\n        /* \"src/PinusVaultCore.sol\":3143:3530  function erc20ToNativeSwap(uint erc20sSold, address recipient) public override returns (uint nativesBought) {... */\n      swap3\n      swap2\n      pop\n      pop\n      jump\t// out\n        /* \"https://github.com/Vectorized/solady/blob/main/src/tokens/ERC20.sol\":8175:9204  function approve(address spender, uint256 amount) public virtual returns (bool) {... */\n    tag_58:\n        /* \"https://github.com/Vectorized/solady/blob/main/src/tokens/ERC20.sol\":8249:8253  bool */\n      0x00\n        /* \"https://github.com/Vectorized/solady/blob/main/src/tokens/ERC20.sol\":8864:8871  spender */\n      dup3\n        /* \"https://github.com/Vectorized/solady/blob/main/src/tokens/ERC20.sol\":8858:8862  0x20 */\n      0x20\n        /* \"https://github.com/Vectorized/solady/blob/main/src/tokens/ERC20.sol\":8851:8872  mstore(0x20, spender) */\n      mstore\n        /* \"https://github.com/Vectorized/solady/blob/main/src/tokens/ERC20.sol\":8898:8918  _ALLOWANCE_SLOT_SEED */\n      0x7f5e9f20\n        /* \"https://github.com/Vectorized/solady/blob/main/src/tokens/ERC20.sol\":8892:8896  0x0c */\n      0x0c\n        /* \"https://github.com/Vectorized/solady/blob/main/src/tokens/ERC20.sol\":8885:8919  mstore(0x0c, _ALLOWANCE_SLOT_SEED) */\n      mstore\n        /* \"https://github.com/Vectorized/solady/blob/main/src/tokens/ERC20.sol\":8945:8953  caller() */\n      caller\n        /* \"https://github.com/Vectorized/solady/blob/main/src/tokens/ERC20.sol\":8939:8943  0x00 */\n      0x00\n        /* \"https://github.com/Vectorized/solady/blob/main/src/tokens/ERC20.sol\":8932:8954  mstore(0x00, caller()) */\n      mstore\n        /* \"https://github.com/Vectorized/solady/blob/main/src/tokens/ERC20.sol\":8997:9003  amount */\n      dup2\n        /* \"https://github.com/Vectorized/solady/blob/main/src/tokens/ERC20.sol\":8990:8994  0x34 */\n      0x34\n        /* \"https://github.com/Vectorized/solady/blob/main/src/tokens/ERC20.sol\":8984:8988  0x0c */\n      0x0c\n        /* \"https://github.com/Vectorized/solady/blob/main/src/tokens/ERC20.sol\":8974:8995  keccak256(0x0c, 0x34) */\n      keccak256\n        /* \"https://github.com/Vectorized/solady/blob/main/src/tokens/ERC20.sol\":8967:9004  sstore(keccak256(0x0c, 0x34), amount) */\n      sstore\n        /* \"https://github.com/Vectorized/solady/blob/main/src/tokens/ERC20.sol\":9072:9078  amount */\n      dup2\n        /* \"https://github.com/Vectorized/solady/blob/main/src/tokens/ERC20.sol\":9066:9070  0x00 */\n      0x00\n        /* \"https://github.com/Vectorized/solady/blob/main/src/tokens/ERC20.sol\":9059:9079  mstore(0x00, amount) */\n      mstore\n        /* \"https://github.com/Vectorized/solady/blob/main/src/tokens/ERC20.sol\":9160:9164  0x2c */\n      0x2c\n        /* \"https://github.com/Vectorized/solady/blob/main/src/tokens/ERC20.sol\":9154:9165  mload(0x2c) */\n      mload\n        /* \"https://github.com/Vectorized/solady/blob/main/src/tokens/ERC20.sol\":9150:9152  96 */\n      0x60\n        /* \"https://github.com/Vectorized/solady/blob/main/src/tokens/ERC20.sol\":9146:9166  shr(96, mload(0x2c)) */\n      shr\n        /* \"https://github.com/Vectorized/solady/blob/main/src/tokens/ERC20.sol\":9136:9144  caller() */\n      caller\n        /* \"https://github.com/Vectorized/solady/blob/main/src/tokens/ERC20.sol\":9109:9134  _APPROVAL_EVENT_SIGNATURE */\n      0x8c5be1e5ebec7d5bd14f71427d1e84f3dd0314c0f7b2291e5b200ac8c7c3b925\n        /* \"https://github.com/Vectorized/solady/blob/main/src/tokens/ERC20.sol\":9103:9107  0x20 */\n      0x20\n        /* \"https://github.com/Vectorized/solady/blob/main/src/tokens/ERC20.sol\":9097:9101  0x00 */\n      0x00\n        /* \"https://github.com/Vectorized/solady/blob/main/src/tokens/ERC20.sol\":9092:9167  log3(0x00, 0x20, _APPROVAL_EVENT_SIGNATURE, caller(), shr(96, mload(0x2c))) */\n      log3\n      pop\n        /* \"https://github.com/Vectorized/solady/blob/main/src/tokens/ERC20.sol\":9193:9197  true */\n      0x01\n        /* \"https://github.com/Vectorized/solady/blob/main/src/tokens/ERC20.sol\":8175:9204  function approve(address spender, uint256 amount) public virtual returns (bool) {... */\n    tag_225:\n      swap3\n      swap2\n      pop\n      pop\n      jump\t// out\n        /* \"src/PinusVaultCore.sol\":2239:2445  function customCall(address to,uint value,bytes calldata data) public onlyOwner returns (bytes memory) {... */\n    tag_69:\n        /* \"src/PinusVaultCore.sol\":2328:2340  bytes memory */\n      0x60\n        /* \"@openzeppelin/contracts/access/Ownable.sol\":1531:1544  _checkOwner() */\n      tag_231\n        /* \"@openzeppelin/contracts/access/Ownable.sol\":1531:1542  _checkOwner */\n      tag_232\n        /* \"@openzeppelin/contracts/access/Ownable.sol\":1531:1544  _checkOwner() */\n      jump\t// in\n    tag_231:\n        /* \"src/PinusVaultCore.sol\":2356:2379  bytes memory returnData */\n      0x00\n        /* \"src/PinusVaultCore.sol\":2383:2385  to */\n      dup6\n      sub(shl(0xa0, 0x01), 0x01)\n        /* \"src/PinusVaultCore.sol\":2383:2390  to.call */\n      and\n        /* \"src/PinusVaultCore.sol\":2397:2402  value */\n      dup6\n        /* \"src/PinusVaultCore.sol\":2404:2408  data */\n      dup6\n      dup6\n        /* \"src/PinusVaultCore.sol\":2383:2409  to.call{value:value}(data) */\n      mload(0x40)\n      tag_234\n      swap3\n      swap2\n      swap1\n      tag_235\n      jump\t// in\n    tag_234:\n      0x00\n      mload(0x40)\n      dup1\n      dup4\n      sub\n      dup2\n      dup6\n      dup8\n      gas\n      call\n      swap3\n      pop\n      pop\n      pop\n      returndatasize\n      dup1\n      0x00\n      dup2\n      eq\n      tag_238\n      jumpi\n      mload(0x40)\n      swap2\n      pop\n      and(add(returndatasize, 0x3f), not(0x1f))\n      dup3\n      add\n      0x40\n      mstore\n      returndatasize\n      dup3\n      mstore\n      returndatasize\n      0x00\n      0x20\n      dup5\n      add\n      returndatacopy\n      jump(tag_237)\n    tag_238:\n      0x60\n      swap2\n      pop\n    tag_237:\n      pop\n        /* \"src/PinusVaultCore.sol\":2353:2409  (, bytes memory returnData) = to.call{value:value}(data) */\n      swap8\n        /* \"src/PinusVaultCore.sol\":2239:2445  function customCall(address to,uint value,bytes calldata data) public onlyOwner returns (bytes memory) {... */\n      swap7\n      pop\n      pop\n      pop\n      pop\n      pop\n      pop\n      pop\n      jump\t// out\n        /* \"src/SwapAbstract.sol\":812:959  function erc20ToNativeSwap(uint erc20sSold) public returns (uint nativesBought) {... */\n    tag_76:\n        /* \"src/SwapAbstract.sol\":872:890  uint nativesBought */\n      0x00\n        /* \"src/SwapAbstract.sol\":910:951  erc20ToNativeSwap(erc20sSold, msg.sender) */\n      tag_225\n        /* \"src/SwapAbstract.sol\":928:938  erc20sSold */\n      dup3\n        /* \"src/SwapAbstract.sol\":940:950  msg.sender */\n      caller\n        /* \"src/SwapAbstract.sol\":910:927  erc20ToNativeSwap */\n      tag_51\n        /* \"src/SwapAbstract.sol\":910:951  erc20ToNativeSwap(erc20sSold, msg.sender) */\n      jump\t// in\n        /* \"src/SwapAbstract.sol\":967:1226  function erc20ToNativeSwap(uint erc20sSold, Permit2Sig calldata sig) external returns (uint nativesBought) {... */\n    tag_86:\n        /* \"src/SwapAbstract.sol\":1054:1072  uint nativesBought */\n      0x00\n      sub(shl(0xa0, 0x01), 0x01)\n        /* \"src/SwapAbstract.sol\":1085:1090  asset */\n      immutable(\"0xced2926accb5b65113b9dfa04c89dc1608287373834acba62edea43e130eddaa\")\n        /* \"src/SwapAbstract.sol\":1085:1097  asset.permit */\n      and\n      0xd505accf\n        /* \"src/SwapAbstract.sol\":1098:1108  msg.sender */\n      caller\n        /* \"src/SwapAbstract.sol\":1118:1122  this */\n      address\n        /* \"src/SwapAbstract.sol\":1125:1135  erc20sSold */\n      dup7\n        /* \"src/SwapAbstract.sol\":1137:1149  sig.deadline */\n      dup7\n      calldataload\n        /* \"src/SwapAbstract.sol\":1151:1156  sig.v */\n      tag_243\n      0x40\n      dup10\n      add\n      0x20\n      dup11\n      add\n      tag_244\n      jump\t// in\n    tag_243:\n        /* \"src/SwapAbstract.sol\":1158:1161  sig */\n      dup9\n        /* \"src/SwapAbstract.sol\":1158:1163  sig.r */\n      0x40\n      add\n      calldataload\n        /* \"src/SwapAbstract.sol\":1165:1168  sig */\n      dup10\n        /* \"src/SwapAbstract.sol\":1165:1170  sig.s */\n      0x60\n      add\n      calldataload\n        /* \"src/SwapAbstract.sol\":1085:1171  asset.permit(msg.sender, address(this), erc20sSold, sig.deadline, sig.v, sig.r, sig.s) */\n      mload(0x40)\n      dup9\n      0xffffffff\n      and\n      0xe0\n      shl\n      dup2\n      mstore\n      0x04\n      add\n      tag_245\n      swap8\n      swap7\n      swap6\n      swap5\n      swap4\n      swap3\n      swap2\n      swap1\n      tag_246\n      jump\t// in\n    tag_245:\n      0x00\n      mload(0x40)\n      dup1\n      dup4\n      sub\n      dup2\n      0x00\n      dup8\n      dup1\n      extcodesize\n      iszero\n      dup1\n      iszero\n      tag_247\n      jumpi\n      revert(0x00, 0x00)\n    tag_247:\n      pop\n      gas\n      call\n      iszero\n      dup1\n      iszero\n      tag_249\n      jumpi\n      returndatacopy(0x00, 0x00, returndatasize)\n      revert(0x00, returndatasize)\n    tag_249:\n      pop\n      pop\n      pop\n      pop\n        /* \"src/SwapAbstract.sol\":1189:1218  erc20ToNativeSwap(erc20sSold) */\n      tag_250\n        /* \"src/SwapAbstract.sol\":1207:1217  erc20sSold */\n      dup4\n        /* \"src/SwapAbstract.sol\":1189:1206  erc20ToNativeSwap */\n      tag_76\n        /* \"src/SwapAbstract.sol\":1189:1218  erc20ToNativeSwap(erc20sSold) */\n      jump\t// in\n    tag_250:\n        /* \"src/SwapAbstract.sol\":1182:1218  return erc20ToNativeSwap(erc20sSold) */\n      swap4\n        /* \"src/SwapAbstract.sol\":967:1226  function erc20ToNativeSwap(uint erc20sSold, Permit2Sig calldata sig) external returns (uint nativesBought) {... */\n      swap3\n      pop\n      pop\n      pop\n      jump\t// out\n        /* \"https://github.com/Vectorized/solady/blob/main/src/tokens/ERC20.sol\":11165:15918  function transferFrom(address from, address to, uint256 amount) public virtual returns (bool) {... */\n    tag_92:\n        /* \"https://github.com/Vectorized/solady/blob/main/src/tokens/ERC20.sol\":11253:11257  bool */\n      0x00\n        /* \"https://github.com/Vectorized/solady/blob/main/src/tokens/ERC20.sol\":13811:13815  from */\n      dup4\n        /* \"https://github.com/Vectorized/solady/blob/main/src/tokens/ERC20.sol\":13807:13809  96 */\n      0x60\n        /* \"https://github.com/Vectorized/solady/blob/main/src/tokens/ERC20.sol\":13803:13816  shl(96, from) */\n      shl\n        /* \"https://github.com/Vectorized/solady/blob/main/src/tokens/ERC20.sol\":13912:13920  caller() */\n      caller\n        /* \"https://github.com/Vectorized/solady/blob/main/src/tokens/ERC20.sol\":13906:13910  0x20 */\n      0x20\n        /* \"https://github.com/Vectorized/solady/blob/main/src/tokens/ERC20.sol\":13899:13921  mstore(0x20, caller()) */\n      mstore\n        /* \"https://github.com/Vectorized/solady/blob/main/src/tokens/ERC20.sol\":13961:13981  _ALLOWANCE_SLOT_SEED */\n      0x7f5e9f20\n        /* \"https://github.com/Vectorized/solady/blob/main/src/tokens/ERC20.sol\":13954:13959  from_ */\n      dup2\n        /* \"https://github.com/Vectorized/solady/blob/main/src/tokens/ERC20.sol\":13951:13982  or(from_, _ALLOWANCE_SLOT_SEED) */\n      or\n        /* \"https://github.com/Vectorized/solady/blob/main/src/tokens/ERC20.sol\":13945:13949  0x0c */\n      0x0c\n        /* \"https://github.com/Vectorized/solady/blob/main/src/tokens/ERC20.sol\":13938:13983  mstore(0x0c, or(from_, _ALLOWANCE_SLOT_SEED)) */\n      mstore\n        /* \"https://github.com/Vectorized/solady/blob/main/src/tokens/ERC20.sol\":14037:14041  0x34 */\n      0x34\n        /* \"https://github.com/Vectorized/solady/blob/main/src/tokens/ERC20.sol\":14031:14035  0x0c */\n      0x0c\n        /* \"https://github.com/Vectorized/solady/blob/main/src/tokens/ERC20.sol\":14021:14042  keccak256(0x0c, 0x34) */\n      keccak256\n        /* \"https://github.com/Vectorized/solady/blob/main/src/tokens/ERC20.sol\":14083:14096  allowanceSlot */\n      dup1\n        /* \"https://github.com/Vectorized/solady/blob/main/src/tokens/ERC20.sol\":14077:14097  sload(allowanceSlot) */\n      sload\n        /* \"https://github.com/Vectorized/solady/blob/main/src/tokens/ERC20.sol\":14191:14201  allowance_ */\n      dup1\n        /* \"https://github.com/Vectorized/solady/blob/main/src/tokens/ERC20.sol\":14187:14202  not(allowance_) */\n      not\n        /* \"https://github.com/Vectorized/solady/blob/main/src/tokens/ERC20.sol\":14184:14631  if not(allowance_) {... */\n      iszero\n      tag_261\n      jumpi\n        /* \"https://github.com/Vectorized/solady/blob/main/src/tokens/ERC20.sol\":14324:14334  allowance_ */\n      dup1\n        /* \"https://github.com/Vectorized/solady/blob/main/src/tokens/ERC20.sol\":14316:14322  amount */\n      dup6\n        /* \"https://github.com/Vectorized/solady/blob/main/src/tokens/ERC20.sol\":14313:14335  gt(amount, allowance_) */\n      gt\n        /* \"https://github.com/Vectorized/solady/blob/main/src/tokens/ERC20.sol\":14310:14481  if gt(amount, allowance_) {... */\n      iszero\n      tag_262\n      jumpi\n        /* \"https://github.com/Vectorized/solady/blob/main/src/tokens/ERC20.sol\":14375:14385  0x13be252b */\n      0x13be252b\n        /* \"https://github.com/Vectorized/solady/blob/main/src/tokens/ERC20.sol\":14369:14373  0x00 */\n      0x00\n        /* \"https://github.com/Vectorized/solady/blob/main/src/tokens/ERC20.sol\":14362:14386  mstore(0x00, 0x13be252b) */\n      mstore\n        /* \"https://github.com/Vectorized/solady/blob/main/src/tokens/ERC20.sol\":14454:14458  0x04 */\n      0x04\n        /* \"https://github.com/Vectorized/solady/blob/main/src/tokens/ERC20.sol\":14448:14452  0x1c */\n      0x1c\n        /* \"https://github.com/Vectorized/solady/blob/main/src/tokens/ERC20.sol\":14441:14459  revert(0x1c, 0x04) */\n      revert\n        /* \"https://github.com/Vectorized/solady/blob/main/src/tokens/ERC20.sol\":14310:14481  if gt(amount, allowance_) {... */\n    tag_262:\n        /* \"https://github.com/Vectorized/solady/blob/main/src/tokens/ERC20.sol\":14605:14611  amount */\n      dup5\n        /* \"https://github.com/Vectorized/solady/blob/main/src/tokens/ERC20.sol\":14593:14603  allowance_ */\n      dup2\n        /* \"https://github.com/Vectorized/solady/blob/main/src/tokens/ERC20.sol\":14589:14612  sub(allowance_, amount) */\n      sub\n        /* \"https://github.com/Vectorized/solady/blob/main/src/tokens/ERC20.sol\":14574:14587  allowanceSlot */\n      dup3\n        /* \"https://github.com/Vectorized/solady/blob/main/src/tokens/ERC20.sol\":14567:14613  sstore(allowanceSlot, sub(allowance_, amount)) */\n      sstore\n        /* \"https://github.com/Vectorized/solady/blob/main/src/tokens/ERC20.sol\":14184:14631  if not(allowance_) {... */\n    tag_261:\n      pop\n      pop\n        /* \"https://github.com/Vectorized/solady/blob/main/src/tokens/ERC20.sol\":14735:14753  _BALANCE_SLOT_SEED */\n      0x87a211a2\n        /* \"https://github.com/Vectorized/solady/blob/main/src/tokens/ERC20.sol\":14728:14733  from_ */\n      dup2\n        /* \"https://github.com/Vectorized/solady/blob/main/src/tokens/ERC20.sol\":14725:14754  or(from_, _BALANCE_SLOT_SEED) */\n      or\n        /* \"https://github.com/Vectorized/solady/blob/main/src/tokens/ERC20.sol\":14719:14723  0x0c */\n      0x0c\n        /* \"https://github.com/Vectorized/solady/blob/main/src/tokens/ERC20.sol\":14712:14755  mstore(0x0c, or(from_, _BALANCE_SLOT_SEED)) */\n      mstore\n        /* \"https://github.com/Vectorized/solady/blob/main/src/tokens/ERC20.sol\":14811:14815  0x20 */\n      0x20\n        /* \"https://github.com/Vectorized/solady/blob/main/src/tokens/ERC20.sol\":14805:14809  0x0c */\n      0x0c\n        /* \"https://github.com/Vectorized/solady/blob/main/src/tokens/ERC20.sol\":14795:14816  keccak256(0x0c, 0x20) */\n      keccak256\n        /* \"https://github.com/Vectorized/solady/blob/main/src/tokens/ERC20.sol\":14858:14873  fromBalanceSlot */\n      dup1\n        /* \"https://github.com/Vectorized/solady/blob/main/src/tokens/ERC20.sol\":14852:14874  sload(fromBalanceSlot) */\n      sload\n        /* \"https://github.com/Vectorized/solady/blob/main/src/tokens/ERC20.sol\":14956:14967  fromBalance */\n      dup1\n        /* \"https://github.com/Vectorized/solady/blob/main/src/tokens/ERC20.sol\":14948:14954  amount */\n      dup6\n        /* \"https://github.com/Vectorized/solady/blob/main/src/tokens/ERC20.sol\":14945:14968  gt(amount, fromBalance) */\n      gt\n        /* \"https://github.com/Vectorized/solady/blob/main/src/tokens/ERC20.sol\":14942:15100  if gt(amount, fromBalance) {... */\n      iszero\n      tag_263\n      jumpi\n        /* \"https://github.com/Vectorized/solady/blob/main/src/tokens/ERC20.sol\":15004:15014  0xf4d678b8 */\n      0xf4d678b8\n        /* \"https://github.com/Vectorized/solady/blob/main/src/tokens/ERC20.sol\":14998:15002  0x00 */\n      0x00\n        /* \"https://github.com/Vectorized/solady/blob/main/src/tokens/ERC20.sol\":14991:15015  mstore(0x00, 0xf4d678b8) */\n      mstore\n        /* \"https://github.com/Vectorized/solady/blob/main/src/tokens/ERC20.sol\":15077:15081  0x04 */\n      0x04\n        /* \"https://github.com/Vectorized/solady/blob/main/src/tokens/ERC20.sol\":15071:15075  0x1c */\n      0x1c\n        /* \"https://github.com/Vectorized/solady/blob/main/src/tokens/ERC20.sol\":15064:15082  revert(0x1c, 0x04) */\n      revert\n        /* \"https://github.com/Vectorized/solady/blob/main/src/tokens/ERC20.sol\":14942:15100  if gt(amount, fromBalance) {... */\n    tag_263:\n        /* \"https://github.com/Vectorized/solady/blob/main/src/tokens/ERC20.sol\":15217:15223  amount */\n      dup5\n        /* \"https://github.com/Vectorized/solady/blob/main/src/tokens/ERC20.sol\":15204:15215  fromBalance */\n      dup2\n        /* \"https://github.com/Vectorized/solady/blob/main/src/tokens/ERC20.sol\":15200:15224  sub(fromBalance, amount) */\n      sub\n        /* \"https://github.com/Vectorized/solady/blob/main/src/tokens/ERC20.sol\":15183:15198  fromBalanceSlot */\n      dup3\n        /* \"https://github.com/Vectorized/solady/blob/main/src/tokens/ERC20.sol\":15176:15225  sstore(fromBalanceSlot, sub(fromBalance, amount)) */\n      sstore\n      pop\n      pop\n        /* \"https://github.com/Vectorized/solady/blob/main/src/tokens/ERC20.sol\":15308:15310  to */\n      dup4\n        /* \"https://github.com/Vectorized/solady/blob/main/src/tokens/ERC20.sol\":15302:15306  0x00 */\n      0x00\n        /* \"https://github.com/Vectorized/solady/blob/main/src/tokens/ERC20.sol\":15295:15311  mstore(0x00, to) */\n      mstore\n        /* \"https://github.com/Vectorized/solady/blob/main/src/tokens/ERC20.sol\":15365:15369  0x20 */\n      0x20\n        /* \"https://github.com/Vectorized/solady/blob/main/src/tokens/ERC20.sol\":15359:15363  0x0c */\n      0x0c\n        /* \"https://github.com/Vectorized/solady/blob/main/src/tokens/ERC20.sol\":15349:15370  keccak256(0x0c, 0x20) */\n      keccak256\n        /* \"https://github.com/Vectorized/solady/blob/main/src/tokens/ERC20.sol\":15631:15637  amount */\n      dup4\n        /* \"https://github.com/Vectorized/solady/blob/main/src/tokens/ERC20.sol\":15615:15628  toBalanceSlot */\n      dup2\n        /* \"https://github.com/Vectorized/solady/blob/main/src/tokens/ERC20.sol\":15609:15629  sload(toBalanceSlot) */\n      sload\n        /* \"https://github.com/Vectorized/solady/blob/main/src/tokens/ERC20.sol\":15605:15638  add(sload(toBalanceSlot), amount) */\n      add\n        /* \"https://github.com/Vectorized/solady/blob/main/src/tokens/ERC20.sol\":15590:15603  toBalanceSlot */\n      dup2\n        /* \"https://github.com/Vectorized/solady/blob/main/src/tokens/ERC20.sol\":15583:15639  sstore(toBalanceSlot, add(sload(toBalanceSlot), amount)) */\n      sstore\n      pop\n        /* \"https://github.com/Vectorized/solady/blob/main/src/tokens/ERC20.sol\":15715:15721  amount */\n      dup3\n        /* \"https://github.com/Vectorized/solady/blob/main/src/tokens/ERC20.sol\":15709:15713  0x20 */\n      0x20\n        /* \"https://github.com/Vectorized/solady/blob/main/src/tokens/ERC20.sol\":15702:15722  mstore(0x20, amount) */\n      mstore\n        /* \"https://github.com/Vectorized/solady/blob/main/src/tokens/ERC20.sol\":15813:15817  0x0c */\n      0x0c\n        /* \"https://github.com/Vectorized/solady/blob/main/src/tokens/ERC20.sol\":15807:15818  mload(0x0c) */\n      mload\n        /* \"https://github.com/Vectorized/solady/blob/main/src/tokens/ERC20.sol\":15803:15805  96 */\n      0x60\n        /* \"https://github.com/Vectorized/solady/blob/main/src/tokens/ERC20.sol\":15799:15819  shr(96, mload(0x0c)) */\n      shr\n        /* \"https://github.com/Vectorized/solady/blob/main/src/tokens/ERC20.sol\":15791:15796  from_ */\n      dup2\n        /* \"https://github.com/Vectorized/solady/blob/main/src/tokens/ERC20.sol\":15787:15789  96 */\n      0x60\n        /* \"https://github.com/Vectorized/solady/blob/main/src/tokens/ERC20.sol\":15783:15797  shr(96, from_) */\n      shr\n      mload(0x00)\n      codecopy(0x00, data_ada389e1fc24a8587c776340efb91b36e675792ab631816100d55df0b5cf3cbc, 0x20)\n      mload(0x00)\n      swap1\n      0x00\n      mstore\n        /* \"https://github.com/Vectorized/solady/blob/main/src/tokens/ERC20.sol\":15750:15754  0x20 */\n      0x20\n        /* \"https://github.com/Vectorized/solady/blob/main/src/tokens/ERC20.sol\":15744:15748  0x20 */\n      dup1\n        /* \"https://github.com/Vectorized/solady/blob/main/src/tokens/ERC20.sol\":15739:15820  log3(0x20, 0x20, _TRANSFER_EVENT_SIGNATURE, shr(96, from_), shr(96, mload(0x0c))) */\n      log3\n      pop\n      pop\n        /* \"https://github.com/Vectorized/solady/blob/main/src/tokens/ERC20.sol\":15907:15911  true */\n      0x01\n        /* \"https://github.com/Vectorized/solady/blob/main/src/tokens/ERC20.sol\":11165:15918  function transferFrom(address from, address to, uint256 amount) public virtual returns (bool) {... */\n      swap4\n      swap3\n      pop\n      pop\n      pop\n      jump\t// out\n        /* \"src/ExchangeAbstract.sol\":1177:1491  function getERC20ToNativePrice(uint erc20sSold) public override view returns (uint nativesBought) {... */\n    tag_97:\n        /* \"src/ExchangeAbstract.sol\":1255:1273  uint nativesBought */\n      0x00\n        /* \"src/ExchangeAbstract.sol\":1339:1366  erc20Inhibitor + erc20sSold */\n      tag_267\n        /* \"src/ExchangeAbstract.sol\":1356:1366  erc20sSold */\n      dup3\n      sub(shl(0x80, 0x01), 0x01)\n        /* \"src/ExchangeAbstract.sol\":1339:1353  erc20Inhibitor */\n      immutable(\"0xc2c77dc624b4aac67a6e14132cf7e60e698350f9c72b88ffba77407546a8ee13\")\n        /* \"src/ExchangeAbstract.sol\":1339:1366  erc20Inhibitor + erc20sSold */\n      and\n      tag_216\n      jump\t// in\n    tag_267:\n        /* \"src/ExchangeAbstract.sol\":1325:1335  erc20sSold */\n      dup3\n        /* \"src/ExchangeAbstract.sol\":1302:1322  purchasableNatives() */\n      tag_268\n        /* \"src/ExchangeAbstract.sol\":1302:1320  purchasableNatives */\n      tag_160\n        /* \"src/ExchangeAbstract.sol\":1302:1322  purchasableNatives() */\n      jump\t// in\n    tag_268:\n        /* \"src/ExchangeAbstract.sol\":1302:1335  purchasableNatives() * erc20sSold */\n      tag_269\n      swap2\n      swap1\n      tag_270\n      jump\t// in\n    tag_269:\n        /* \"src/ExchangeAbstract.sol\":1302:1367  purchasableNatives() * erc20sSold / (erc20Inhibitor + erc20sSold) */\n      tag_271\n      swap2\n      swap1\n      tag_214\n      jump\t// in\n    tag_271:\n        /* \"src/ExchangeAbstract.sol\":1286:1367  nativesBought = purchasableNatives() * erc20sSold / (erc20Inhibitor + erc20sSold) */\n      swap1\n      pop\n        /* \"src/ExchangeAbstract.sol\":1405:1418  nativesBought */\n      dup1\n        /* \"src/ExchangeAbstract.sol\":1381:1402  address(this).balance */\n      selfbalance\n        /* \"src/ExchangeAbstract.sol\":1381:1418  address(this).balance < nativesBought */\n      lt\n        /* \"src/ExchangeAbstract.sol\":1378:1484  if(address(this).balance < nativesBought) {... */\n      iszero\n      tag_272\n      jumpi\n      pop\n        /* \"src/ExchangeAbstract.sol\":1451:1472  address(this).balance */\n      selfbalance\n        /* \"src/ExchangeAbstract.sol\":1378:1484  if(address(this).balance < nativesBought) {... */\n    tag_272:\n        /* \"src/ExchangeAbstract.sol\":1177:1491  function getERC20ToNativePrice(uint erc20sSold) public override view returns (uint nativesBought) {... */\n      swap2\n      swap1\n      pop\n      jump\t// out\n        /* \"https://github.com/Vectorized/solady/blob/main/src/tokens/ERC20.sol\":21458:22195  function DOMAIN_SEPARATOR() public view virtual returns (bytes32 result) {... */\n    tag_106:\n        /* \"https://github.com/Vectorized/solady/blob/main/src/tokens/ERC20.sol\":21515:21529  bytes32 result */\n      0x00\n      dup1\n        /* \"https://github.com/Vectorized/solady/blob/main/src/tokens/ERC20.sol\":21738:21744  name() */\n      tag_278\n        /* \"https://github.com/Vectorized/solady/blob/main/src/tokens/ERC20.sol\":21738:21742  name */\n      tag_44\n        /* \"https://github.com/Vectorized/solady/blob/main/src/tokens/ERC20.sol\":21738:21744  name() */\n      jump\t// in\n    tag_278:\n        /* \"https://github.com/Vectorized/solady/blob/main/src/tokens/ERC20.sol\":21722:21746  keccak256(bytes(name())) */\n      dup1\n      mload\n      swap1\n      0x20\n      add\n      keccak256\n        /* \"https://github.com/Vectorized/solady/blob/main/src/tokens/ERC20.sol\":21711:21746  nameHash = keccak256(bytes(name())) */\n      swap1\n      pop\n        /* \"https://github.com/Vectorized/solady/blob/main/src/tokens/ERC20.sol\":21883:21887  0x40 */\n      0x40\n        /* \"https://github.com/Vectorized/solady/blob/main/src/tokens/ERC20.sol\":21877:21888  mload(0x40) */\n      dup1\n      mload\n        /* \"https://github.com/Vectorized/solady/blob/main/src/tokens/ERC20.sol\":21944:21960  _DOMAIN_TYPEHASH */\n      0x8b73c3c69bb8fe3d512ecc4cf759cc79239f7b179b0ffacaa9a75d522b39400f\n        /* \"https://github.com/Vectorized/solady/blob/main/src/tokens/ERC20.sol\":21934:21961  mstore(m, _DOMAIN_TYPEHASH) */\n      dup2\n      mstore\n        /* \"https://github.com/Vectorized/solady/blob/main/src/tokens/ERC20.sol\":21988:21992  0x20 */\n      0x20\n        /* \"https://github.com/Vectorized/solady/blob/main/src/tokens/ERC20.sol\":21981:21993  add(m, 0x20) */\n      dup2\n      add\n        /* \"https://github.com/Vectorized/solady/blob/main/src/tokens/ERC20.sol\":21974:22004  mstore(add(m, 0x20), nameHash) */\n      swap3\n      swap1\n      swap3\n      mstore\n        /* \"https://github.com/Vectorized/solady/blob/main/src/tokens/ERC20.sol\":5177:5243  0xc89efdaa54c0f20c7adf612882df0950f5a951637e0307cdcb4c672f298b8bc6 */\n      0xc89efdaa54c0f20c7adf612882df0950f5a951637e0307cdcb4c672f298b8bc6\n        /* \"https://github.com/Vectorized/solady/blob/main/src/tokens/ERC20.sol\":22024:22036  add(m, 0x40) */\n      swap1\n      dup3\n      add\n        /* \"https://github.com/Vectorized/solady/blob/main/src/tokens/ERC20.sol\":22017:22050  mstore(add(m, 0x40), versionHash) */\n      mstore\n        /* \"https://github.com/Vectorized/solady/blob/main/src/tokens/ERC20.sol\":22084:22093  chainid() */\n      chainid\n        /* \"https://github.com/Vectorized/solady/blob/main/src/tokens/ERC20.sol\":22077:22081  0x60 */\n      0x60\n        /* \"https://github.com/Vectorized/solady/blob/main/src/tokens/ERC20.sol\":22070:22082  add(m, 0x60) */\n      dup3\n      add\n        /* \"https://github.com/Vectorized/solady/blob/main/src/tokens/ERC20.sol\":22063:22094  mstore(add(m, 0x60), chainid()) */\n      mstore\n        /* \"https://github.com/Vectorized/solady/blob/main/src/tokens/ERC20.sol\":22128:22137  address() */\n      address\n        /* \"https://github.com/Vectorized/solady/blob/main/src/tokens/ERC20.sol\":22121:22125  0x80 */\n      0x80\n        /* \"https://github.com/Vectorized/solady/blob/main/src/tokens/ERC20.sol\":22114:22126  add(m, 0x80) */\n      dup3\n      add\n        /* \"https://github.com/Vectorized/solady/blob/main/src/tokens/ERC20.sol\":22107:22138  mstore(add(m, 0x80), address()) */\n      mstore\n        /* \"https://github.com/Vectorized/solady/blob/main/src/tokens/ERC20.sol\":22174:22178  0xa0 */\n      0xa0\n        /* \"https://github.com/Vectorized/solady/blob/main/src/tokens/ERC20.sol\":22161:22179  keccak256(m, 0xa0) */\n      swap1\n      keccak256\n      swap2\n      swap1\n      pop\n        /* \"https://github.com/Vectorized/solady/blob/main/src/tokens/ERC20.sol\":21458:22195  function DOMAIN_SEPARATOR() public view virtual returns (bytes32 result) {... */\n      jump\t// out\n        /* \"@openzeppelin/contracts/access/Ownable.sol\":2293:2394  function renounceOwnership() public virtual onlyOwner {... */\n    tag_139:\n        /* \"@openzeppelin/contracts/access/Ownable.sol\":1531:1544  _checkOwner() */\n      tag_283\n        /* \"@openzeppelin/contracts/access/Ownable.sol\":1531:1542  _checkOwner */\n      tag_232\n        /* \"@openzeppelin/contracts/access/Ownable.sol\":1531:1544  _checkOwner() */\n      jump\t// in\n    tag_283:\n        /* \"@openzeppelin/contracts/access/Ownable.sol\":2357:2387  _transferOwnership(address(0)) */\n      tag_285\n        /* \"@openzeppelin/contracts/access/Ownable.sol\":2384:2385  0 */\n      0x00\n        /* \"@openzeppelin/contracts/access/Ownable.sol\":2357:2375  _transferOwnership */\n      tag_286\n        /* \"@openzeppelin/contracts/access/Ownable.sol\":2357:2387  _transferOwnership(address(0)) */\n      jump\t// in\n    tag_285:\n        /* \"@openzeppelin/contracts/access/Ownable.sol\":2293:2394  function renounceOwnership() public virtual onlyOwner {... */\n      jump\t// out\n        /* \"src/ExchangeAbstract.sol\":1024:1169  function purchasableERC20s() public view returns (uint) {... */\n    tag_147:\n        /* \"src/ExchangeAbstract.sol\":1074:1078  uint */\n      0x00\n        /* \"src/ExchangeAbstract.sol\":1141:1161  erc20PurchasableRate */\n      immutable(\"0x995e9b9c383b6baf313a70484a430646fdb0bda9c66fbf3dd61de0a96745b1aa\")\n      sub(shl(0x80, 0x01), 0x01)\n        /* \"src/ExchangeAbstract.sol\":1098:1161  (block.timestamp - erc20PurchasableTime) * erc20PurchasableRate */\n      and\n        /* \"src/ExchangeAbstract.sol\":1117:1137  erc20PurchasableTime */\n      sload(0x01)\n        /* \"src/ExchangeAbstract.sol\":1099:1114  block.timestamp */\n      timestamp\n        /* \"src/ExchangeAbstract.sol\":1099:1137  block.timestamp - erc20PurchasableTime */\n      tag_289\n      swap2\n      swap1\n      tag_290\n      jump\t// in\n    tag_289:\n        /* \"src/ExchangeAbstract.sol\":1098:1161  (block.timestamp - erc20PurchasableTime) * erc20PurchasableRate */\n      tag_291\n      swap2\n      swap1\n      tag_270\n      jump\t// in\n    tag_291:\n        /* \"src/ExchangeAbstract.sol\":1091:1161  return (block.timestamp - erc20PurchasableTime) * erc20PurchasableRate */\n      swap1\n      pop\n        /* \"src/ExchangeAbstract.sol\":1024:1169  function purchasableERC20s() public view returns (uint) {... */\n      swap1\n      jump\t// out\n        /* \"src/PinusVaultCore.sol\":2556:2651  function symbol() public view override returns (string memory){... */\n    tag_156:\n        /* \"src/PinusVaultCore.sol\":2604:2617  string memory */\n      0x60\n        /* \"src/PinusVaultCore.sol\":2636:2643  _symbol */\n      0x04\n        /* \"src/PinusVaultCore.sol\":2629:2643  return _symbol */\n      dup1\n      sload\n      tag_205\n      swap1\n      tag_206\n      jump\t// in\n        /* \"src/ExchangeAbstract.sol\":868:1016  function purchasableNatives() public view returns (uint) {... */\n    tag_160:\n        /* \"src/ExchangeAbstract.sol\":919:923  uint */\n      0x00\n        /* \"src/ExchangeAbstract.sol\":987:1008  nativePurchasableRate */\n      immutable(\"0x04858cf527bbe93978e168f56532450d1459771814ce695a45178f6b6b92373a\")\n      sub(shl(0x80, 0x01), 0x01)\n        /* \"src/ExchangeAbstract.sol\":943:1008  (block.timestamp - nativePurchasableTime) * nativePurchasableRate */\n      and\n        /* \"src/ExchangeAbstract.sol\":962:983  nativePurchasableTime */\n      sload(0x00)\n        /* \"src/ExchangeAbstract.sol\":944:959  block.timestamp */\n      timestamp\n        /* \"src/ExchangeAbstract.sol\":944:983  block.timestamp - nativePurchasableTime */\n      tag_289\n      swap2\n      swap1\n      tag_290\n      jump\t// in\n        /* \"https://github.com/Vectorized/solady/blob/main/src/tokens/ERC20.sol\":9391:10797  function transfer(address to, uint256 amount) public virtual returns (bool) {... */\n    tag_165:\n        /* \"https://github.com/Vectorized/solady/blob/main/src/tokens/ERC20.sol\":9461:9465  bool */\n      0x00\n        /* \"https://github.com/Vectorized/solady/blob/main/src/tokens/ERC20.sol\":9670:9688  _BALANCE_SLOT_SEED */\n      0x87a211a2\n        /* \"https://github.com/Vectorized/solady/blob/main/src/tokens/ERC20.sol\":9664:9668  0x0c */\n      0x0c\n        /* \"https://github.com/Vectorized/solady/blob/main/src/tokens/ERC20.sol\":9657:9689  mstore(0x0c, _BALANCE_SLOT_SEED) */\n      mstore\n        /* \"https://github.com/Vectorized/solady/blob/main/src/tokens/ERC20.sol\":9715:9723  caller() */\n      caller\n        /* \"https://github.com/Vectorized/solady/blob/main/src/tokens/ERC20.sol\":9709:9713  0x00 */\n      0x00\n        /* \"https://github.com/Vectorized/solady/blob/main/src/tokens/ERC20.sol\":9702:9724  mstore(0x00, caller()) */\n      mstore\n        /* \"https://github.com/Vectorized/solady/blob/main/src/tokens/ERC20.sol\":9776:9780  0x20 */\n      0x20\n        /* \"https://github.com/Vectorized/solady/blob/main/src/tokens/ERC20.sol\":9770:9774  0x0c */\n      0x0c\n        /* \"https://github.com/Vectorized/solady/blob/main/src/tokens/ERC20.sol\":9760:9781  keccak256(0x0c, 0x20) */\n      keccak256\n        /* \"https://github.com/Vectorized/solady/blob/main/src/tokens/ERC20.sol\":9819:9834  fromBalanceSlot */\n      dup1\n        /* \"https://github.com/Vectorized/solady/blob/main/src/tokens/ERC20.sol\":9813:9835  sload(fromBalanceSlot) */\n      sload\n        /* \"https://github.com/Vectorized/solady/blob/main/src/tokens/ERC20.sol\":9909:9920  fromBalance */\n      dup1\n        /* \"https://github.com/Vectorized/solady/blob/main/src/tokens/ERC20.sol\":9901:9907  amount */\n      dup5\n        /* \"https://github.com/Vectorized/solady/blob/main/src/tokens/ERC20.sol\":9898:9921  gt(amount, fromBalance) */\n      gt\n        /* \"https://github.com/Vectorized/solady/blob/main/src/tokens/ERC20.sol\":9895:10041  if gt(amount, fromBalance) {... */\n      iszero\n      tag_304\n      jumpi\n        /* \"https://github.com/Vectorized/solady/blob/main/src/tokens/ERC20.sol\":9953:9963  0xf4d678b8 */\n      0xf4d678b8\n        /* \"https://github.com/Vectorized/solady/blob/main/src/tokens/ERC20.sol\":9947:9951  0x00 */\n      0x00\n        /* \"https://github.com/Vectorized/solady/blob/main/src/tokens/ERC20.sol\":9940:9964  mstore(0x00, 0xf4d678b8) */\n      mstore\n        /* \"https://github.com/Vectorized/solady/blob/main/src/tokens/ERC20.sol\":10022:10026  0x04 */\n      0x04\n        /* \"https://github.com/Vectorized/solady/blob/main/src/tokens/ERC20.sol\":10016:10020  0x1c */\n      0x1c\n        /* \"https://github.com/Vectorized/solady/blob/main/src/tokens/ERC20.sol\":10009:10027  revert(0x1c, 0x04) */\n      revert\n        /* \"https://github.com/Vectorized/solady/blob/main/src/tokens/ERC20.sol\":9895:10041  if gt(amount, fromBalance) {... */\n    tag_304:\n        /* \"https://github.com/Vectorized/solady/blob/main/src/tokens/ERC20.sol\":10150:10156  amount */\n      dup4\n        /* \"https://github.com/Vectorized/solady/blob/main/src/tokens/ERC20.sol\":10137:10148  fromBalance */\n      dup2\n        /* \"https://github.com/Vectorized/solady/blob/main/src/tokens/ERC20.sol\":10133:10157  sub(fromBalance, amount) */\n      sub\n        /* \"https://github.com/Vectorized/solady/blob/main/src/tokens/ERC20.sol\":10116:10131  fromBalanceSlot */\n      dup3\n        /* \"https://github.com/Vectorized/solady/blob/main/src/tokens/ERC20.sol\":10109:10158  sstore(fromBalanceSlot, sub(fromBalance, amount)) */\n      sstore\n      pop\n      pop\n        /* \"https://github.com/Vectorized/solady/blob/main/src/tokens/ERC20.sol\":10233:10235  to */\n      dup3\n        /* \"https://github.com/Vectorized/solady/blob/main/src/tokens/ERC20.sol\":10227:10231  0x00 */\n      0x00\n        /* \"https://github.com/Vectorized/solady/blob/main/src/tokens/ERC20.sol\":10220:10236  mstore(0x00, to) */\n      mstore\n        /* \"https://github.com/Vectorized/solady/blob/main/src/tokens/ERC20.sol\":10286:10290  0x20 */\n      0x20\n        /* \"https://github.com/Vectorized/solady/blob/main/src/tokens/ERC20.sol\":10280:10284  0x0c */\n      0x0c\n        /* \"https://github.com/Vectorized/solady/blob/main/src/tokens/ERC20.sol\":10270:10291  keccak256(0x0c, 0x20) */\n      keccak256\n        /* \"https://github.com/Vectorized/solady/blob/main/src/tokens/ERC20.sol\":10536:10542  amount */\n      dup3\n        /* \"https://github.com/Vectorized/solady/blob/main/src/tokens/ERC20.sol\":10520:10533  toBalanceSlot */\n      dup2\n        /* \"https://github.com/Vectorized/solady/blob/main/src/tokens/ERC20.sol\":10514:10534  sload(toBalanceSlot) */\n      sload\n        /* \"https://github.com/Vectorized/solady/blob/main/src/tokens/ERC20.sol\":10510:10543  add(sload(toBalanceSlot), amount) */\n      add\n        /* \"https://github.com/Vectorized/solady/blob/main/src/tokens/ERC20.sol\":10495:10508  toBalanceSlot */\n      dup2\n        /* \"https://github.com/Vectorized/solady/blob/main/src/tokens/ERC20.sol\":10488:10544  sstore(toBalanceSlot, add(sload(toBalanceSlot), amount)) */\n      sstore\n      pop\n        /* \"https://github.com/Vectorized/solady/blob/main/src/tokens/ERC20.sol\":10612:10618  amount */\n      dup2\n        /* \"https://github.com/Vectorized/solady/blob/main/src/tokens/ERC20.sol\":10606:10610  0x20 */\n      0x20\n        /* \"https://github.com/Vectorized/solady/blob/main/src/tokens/ERC20.sol\":10599:10619  mstore(0x20, amount) */\n      mstore\n        /* \"https://github.com/Vectorized/solady/blob/main/src/tokens/ERC20.sol\":10700:10704  0x0c */\n      0x0c\n        /* \"https://github.com/Vectorized/solady/blob/main/src/tokens/ERC20.sol\":10694:10705  mload(0x0c) */\n      mload\n        /* \"https://github.com/Vectorized/solady/blob/main/src/tokens/ERC20.sol\":10690:10692  96 */\n      0x60\n        /* \"https://github.com/Vectorized/solady/blob/main/src/tokens/ERC20.sol\":10686:10706  shr(96, mload(0x0c)) */\n      shr\n        /* \"https://github.com/Vectorized/solady/blob/main/src/tokens/ERC20.sol\":10676:10684  caller() */\n      caller\n      mload(0x00)\n      codecopy(0x00, data_ada389e1fc24a8587c776340efb91b36e675792ab631816100d55df0b5cf3cbc, 0x20)\n      mload(0x00)\n      swap1\n      0x00\n      mstore\n        /* \"https://github.com/Vectorized/solady/blob/main/src/tokens/ERC20.sol\":10643:10647  0x20 */\n      0x20\n        /* \"https://github.com/Vectorized/solady/blob/main/src/tokens/ERC20.sol\":10637:10641  0x20 */\n      dup1\n        /* \"https://github.com/Vectorized/solady/blob/main/src/tokens/ERC20.sol\":10632:10707  log3(0x20, 0x20, _TRANSFER_EVENT_SIGNATURE, caller(), shr(96, mload(0x0c))) */\n      log3\n      pop\n        /* \"https://github.com/Vectorized/solady/blob/main/src/tokens/ERC20.sol\":10786:10790  true */\n      0x01\n        /* \"https://github.com/Vectorized/solady/blob/main/src/tokens/ERC20.sol\":9391:10797  function transfer(address to, uint256 amount) public virtual returns (bool) {... */\n      swap3\n      swap2\n      pop\n      pop\n      jump\t// out\n        /* \"src/SwapAbstract.sol\":1529:1658  function nativeToERC20Swap() external payable returns (uint erc20sBought) {... */\n    tag_172:\n        /* \"src/SwapAbstract.sol\":1584:1601  uint erc20sBought */\n      0x00\n        /* \"src/SwapAbstract.sol\":1621:1650  nativeToERC20Swap(msg.sender) */\n      tag_291\n        /* \"src/SwapAbstract.sol\":1639:1649  msg.sender */\n      caller\n        /* \"src/PinusVaultCore.sol\":2858:3135  function nativeToERC20Swap(address recipient) public override payable returns (uint erc20sBought) {... */\n    tag_176:\n        /* \"src/PinusVaultCore.sol\":2937:2954  uint erc20sBought */\n      0x00\n        /* \"src/PinusVaultCore.sol\":2982:3014  getNativeToERC20Price(msg.value) */\n      tag_309\n        /* \"src/PinusVaultCore.sol\":3004:3013  msg.value */\n      callvalue\n        /* \"src/PinusVaultCore.sol\":2982:3003  getNativeToERC20Price */\n      tag_198\n        /* \"src/PinusVaultCore.sol\":2982:3014  getNativeToERC20Price(msg.value) */\n      jump\t// in\n    tag_309:\n        /* \"src/PinusVaultCore.sol\":2967:3014  erc20sBought = getNativeToERC20Price(msg.value) */\n      swap1\n      pop\n        /* \"src/PinusVaultCore.sol\":3051:3086  erc20sBought / erc20PurchasableRate */\n      tag_310\n      sub(shl(0x80, 0x01), 0x01)\n        /* \"src/PinusVaultCore.sol\":3066:3086  erc20PurchasableRate */\n      immutable(\"0x995e9b9c383b6baf313a70484a430646fdb0bda9c66fbf3dd61de0a96745b1aa\")\n        /* \"src/PinusVaultCore.sol\":3051:3086  erc20sBought / erc20PurchasableRate */\n      and\n        /* \"src/PinusVaultCore.sol\":2967:3014  erc20sBought = getNativeToERC20Price(msg.value) */\n      dup3\n        /* \"src/PinusVaultCore.sol\":3051:3086  erc20sBought / erc20PurchasableRate */\n      tag_214\n      jump\t// in\n    tag_310:\n        /* \"src/PinusVaultCore.sol\":3027:3047  erc20PurchasableTime */\n      0x01\n      0x00\n        /* \"src/PinusVaultCore.sol\":3027:3086  erc20PurchasableTime += erc20sBought / erc20PurchasableRate */\n      dup3\n      dup3\n      sload\n      tag_311\n      swap2\n      swap1\n      tag_216\n      jump\t// in\n    tag_311:\n      swap1\n      swap2\n      sstore\n      pop\n        /* \"src/PinusVaultCore.sol\":3097:3127  _mint(recipient, erc20sBought) */\n      tag_272\n      swap1\n      pop\n        /* \"src/PinusVaultCore.sol\":3103:3112  recipient */\n      dup3\n        /* \"src/PinusVaultCore.sol\":3114:3126  erc20sBought */\n      dup3\n        /* \"src/PinusVaultCore.sol\":3097:3102  _mint */\n      tag_313\n        /* \"src/PinusVaultCore.sol\":3097:3127  _mint(recipient, erc20sBought) */\n      jump\t// in\n        /* \"https://github.com/Vectorized/solady/blob/main/src/tokens/ERC20.sol\":17661:21377  function permit(... */\n    tag_182:\n        /* \"https://github.com/Vectorized/solady/blob/main/src/tokens/ERC20.sol\":18314:18330  bytes32 nameHash */\n      0x00\n        /* \"https://github.com/Vectorized/solady/blob/main/src/tokens/ERC20.sol\":18511:18517  name() */\n      tag_320\n        /* \"https://github.com/Vectorized/solady/blob/main/src/tokens/ERC20.sol\":18511:18515  name */\n      tag_44\n        /* \"https://github.com/Vectorized/solady/blob/main/src/tokens/ERC20.sol\":18511:18517  name() */\n      jump\t// in\n    tag_320:\n        /* \"https://github.com/Vectorized/solady/blob/main/src/tokens/ERC20.sol\":18495:18519  keccak256(bytes(name())) */\n      dup1\n      mload\n      swap1\n      0x20\n      add\n      keccak256\n        /* \"https://github.com/Vectorized/solady/blob/main/src/tokens/ERC20.sol\":18484:18519  nameHash = keccak256(bytes(name())) */\n      swap1\n      pop\n        /* \"https://github.com/Vectorized/solady/blob/main/src/tokens/ERC20.sol\":5177:5243  0xc89efdaa54c0f20c7adf612882df0950f5a951637e0307cdcb4c672f298b8bc6 */\n      0xc89efdaa54c0f20c7adf612882df0950f5a951637e0307cdcb4c672f298b8bc6\n        /* \"https://github.com/Vectorized/solady/blob/main/src/tokens/ERC20.sol\":18720:18731  timestamp() */\n      timestamp\n        /* \"https://github.com/Vectorized/solady/blob/main/src/tokens/ERC20.sol\":18717:18742  gt(timestamp(), deadline) */\n      dup7\n      lt\n        /* \"https://github.com/Vectorized/solady/blob/main/src/tokens/ERC20.sol\":18714:18856  if gt(timestamp(), deadline) {... */\n      iszero\n      tag_322\n      jumpi\n        /* \"https://github.com/Vectorized/solady/blob/main/src/tokens/ERC20.sol\":18774:18784  0x1a15a3cc */\n      0x1a15a3cc\n        /* \"https://github.com/Vectorized/solady/blob/main/src/tokens/ERC20.sol\":18768:18772  0x00 */\n      0x00\n        /* \"https://github.com/Vectorized/solady/blob/main/src/tokens/ERC20.sol\":18761:18785  mstore(0x00, 0x1a15a3cc) */\n      mstore\n        /* \"https://github.com/Vectorized/solady/blob/main/src/tokens/ERC20.sol\":18837:18841  0x04 */\n      0x04\n        /* \"https://github.com/Vectorized/solady/blob/main/src/tokens/ERC20.sol\":18831:18835  0x1c */\n      0x1c\n        /* \"https://github.com/Vectorized/solady/blob/main/src/tokens/ERC20.sol\":18824:18842  revert(0x1c, 0x04) */\n      revert\n        /* \"https://github.com/Vectorized/solady/blob/main/src/tokens/ERC20.sol\":18714:18856  if gt(timestamp(), deadline) {... */\n    tag_322:\n        /* \"https://github.com/Vectorized/solady/blob/main/src/tokens/ERC20.sol\":18884:18888  0x40 */\n      0x40\n        /* \"https://github.com/Vectorized/solady/blob/main/src/tokens/ERC20.sol\":18878:18889  mload(0x40) */\n      mload\n        /* \"https://github.com/Vectorized/solady/blob/main/src/tokens/ERC20.sol\":19000:19005  owner */\n      dup10\n        /* \"https://github.com/Vectorized/solady/blob/main/src/tokens/ERC20.sol\":18996:18998  96 */\n      0x60\n        /* \"https://github.com/Vectorized/solady/blob/main/src/tokens/ERC20.sol\":18992:19006  shl(96, owner) */\n      shl\n        /* \"https://github.com/Vectorized/solady/blob/main/src/tokens/ERC20.sol\":18988:18990  96 */\n      0x60\n        /* \"https://github.com/Vectorized/solady/blob/main/src/tokens/ERC20.sol\":18984:19007  shr(96, shl(96, owner)) */\n      shr\n        /* \"https://github.com/Vectorized/solady/blob/main/src/tokens/ERC20.sol\":18975:19007  owner := shr(96, shl(96, owner)) */\n      swap10\n      pop\n        /* \"https://github.com/Vectorized/solady/blob/main/src/tokens/ERC20.sol\":19047:19054  spender */\n      dup9\n        /* \"https://github.com/Vectorized/solady/blob/main/src/tokens/ERC20.sol\":19043:19045  96 */\n      0x60\n        /* \"https://github.com/Vectorized/solady/blob/main/src/tokens/ERC20.sol\":19039:19055  shl(96, spender) */\n      shl\n        /* \"https://github.com/Vectorized/solady/blob/main/src/tokens/ERC20.sol\":19035:19037  96 */\n      0x60\n        /* \"https://github.com/Vectorized/solady/blob/main/src/tokens/ERC20.sol\":19031:19056  shr(96, shl(96, spender)) */\n      shr\n        /* \"https://github.com/Vectorized/solady/blob/main/src/tokens/ERC20.sol\":19020:19056  spender := shr(96, shl(96, spender)) */\n      swap9\n      pop\n        /* \"https://github.com/Vectorized/solady/blob/main/src/tokens/ERC20.sol\":19140:19179  _NONCES_SLOT_SEED_WITH_SIGNATURE_PREFIX */\n      0x383775081901\n        /* \"https://github.com/Vectorized/solady/blob/main/src/tokens/ERC20.sol\":19134:19138  0x0e */\n      0x0e\n        /* \"https://github.com/Vectorized/solady/blob/main/src/tokens/ERC20.sol\":19127:19180  mstore(0x0e, _NONCES_SLOT_SEED_WITH_SIGNATURE_PREFIX) */\n      mstore\n        /* \"https://github.com/Vectorized/solady/blob/main/src/tokens/ERC20.sol\":19206:19211  owner */\n      dup10\n        /* \"https://github.com/Vectorized/solady/blob/main/src/tokens/ERC20.sol\":19200:19204  0x00 */\n      0x00\n        /* \"https://github.com/Vectorized/solady/blob/main/src/tokens/ERC20.sol\":19193:19212  mstore(0x00, owner) */\n      mstore\n        /* \"https://github.com/Vectorized/solady/blob/main/src/tokens/ERC20.sol\":19258:19262  0x20 */\n      0x20\n        /* \"https://github.com/Vectorized/solady/blob/main/src/tokens/ERC20.sol\":19252:19256  0x0c */\n      0x0c\n        /* \"https://github.com/Vectorized/solady/blob/main/src/tokens/ERC20.sol\":19242:19263  keccak256(0x0c, 0x20) */\n      keccak256\n        /* \"https://github.com/Vectorized/solady/blob/main/src/tokens/ERC20.sol\":19300:19309  nonceSlot */\n      dup1\n        /* \"https://github.com/Vectorized/solady/blob/main/src/tokens/ERC20.sol\":19294:19310  sload(nonceSlot) */\n      sload\n        /* \"https://github.com/Vectorized/solady/blob/main/src/tokens/ERC20.sol\":19378:19394  _DOMAIN_TYPEHASH */\n      0x8b73c3c69bb8fe3d512ecc4cf759cc79239f7b179b0ffacaa9a75d522b39400f\n        /* \"https://github.com/Vectorized/solady/blob/main/src/tokens/ERC20.sol\":19375:19376  m */\n      dup4\n        /* \"https://github.com/Vectorized/solady/blob/main/src/tokens/ERC20.sol\":19368:19395  mstore(m, _DOMAIN_TYPEHASH) */\n      mstore\n        /* \"https://github.com/Vectorized/solady/blob/main/src/tokens/ERC20.sol\":19429:19437  nameHash */\n      dup5\n        /* \"https://github.com/Vectorized/solady/blob/main/src/tokens/ERC20.sol\":19422:19426  0x20 */\n      0x20\n        /* \"https://github.com/Vectorized/solady/blob/main/src/tokens/ERC20.sol\":19419:19420  m */\n      dup5\n        /* \"https://github.com/Vectorized/solady/blob/main/src/tokens/ERC20.sol\":19415:19427  add(m, 0x20) */\n      add\n        /* \"https://github.com/Vectorized/solady/blob/main/src/tokens/ERC20.sol\":19408:19438  mstore(add(m, 0x20), nameHash) */\n      mstore\n        /* \"https://github.com/Vectorized/solady/blob/main/src/tokens/ERC20.sol\":19472:19483  versionHash */\n      dup4\n        /* \"https://github.com/Vectorized/solady/blob/main/src/tokens/ERC20.sol\":19465:19469  0x40 */\n      0x40\n        /* \"https://github.com/Vectorized/solady/blob/main/src/tokens/ERC20.sol\":19462:19463  m */\n      dup5\n        /* \"https://github.com/Vectorized/solady/blob/main/src/tokens/ERC20.sol\":19458:19470  add(m, 0x40) */\n      add\n        /* \"https://github.com/Vectorized/solady/blob/main/src/tokens/ERC20.sol\":19451:19484  mstore(add(m, 0x40), versionHash) */\n      mstore\n        /* \"https://github.com/Vectorized/solady/blob/main/src/tokens/ERC20.sol\":19518:19527  chainid() */\n      chainid\n        /* \"https://github.com/Vectorized/solady/blob/main/src/tokens/ERC20.sol\":19511:19515  0x60 */\n      0x60\n        /* \"https://github.com/Vectorized/solady/blob/main/src/tokens/ERC20.sol\":19508:19509  m */\n      dup5\n        /* \"https://github.com/Vectorized/solady/blob/main/src/tokens/ERC20.sol\":19504:19516  add(m, 0x60) */\n      add\n        /* \"https://github.com/Vectorized/solady/blob/main/src/tokens/ERC20.sol\":19497:19528  mstore(add(m, 0x60), chainid()) */\n      mstore\n        /* \"https://github.com/Vectorized/solady/blob/main/src/tokens/ERC20.sol\":19562:19571  address() */\n      address\n        /* \"https://github.com/Vectorized/solady/blob/main/src/tokens/ERC20.sol\":19555:19559  0x80 */\n      0x80\n        /* \"https://github.com/Vectorized/solady/blob/main/src/tokens/ERC20.sol\":19552:19553  m */\n      dup5\n        /* \"https://github.com/Vectorized/solady/blob/main/src/tokens/ERC20.sol\":19548:19560  add(m, 0x80) */\n      add\n        /* \"https://github.com/Vectorized/solady/blob/main/src/tokens/ERC20.sol\":19541:19572  mstore(add(m, 0x80), address()) */\n      mstore\n        /* \"https://github.com/Vectorized/solady/blob/main/src/tokens/ERC20.sol\":19611:19615  0xa0 */\n      0xa0\n        /* \"https://github.com/Vectorized/solady/blob/main/src/tokens/ERC20.sol\":19608:19609  m */\n      dup4\n        /* \"https://github.com/Vectorized/solady/blob/main/src/tokens/ERC20.sol\":19598:19616  keccak256(m, 0xa0) */\n      keccak256\n        /* \"https://github.com/Vectorized/solady/blob/main/src/tokens/ERC20.sol\":19592:19596  0x2e */\n      0x2e\n        /* \"https://github.com/Vectorized/solady/blob/main/src/tokens/ERC20.sol\":19585:19617  mstore(0x2e, keccak256(m, 0xa0)) */\n      mstore\n        /* \"https://github.com/Vectorized/solady/blob/main/src/tokens/ERC20.sol\":19680:19696  _PERMIT_TYPEHASH */\n      0x6e71edae12b1b97f4d1f60370fef10105fa2faae0126114a169c64845d6126c9\n        /* \"https://github.com/Vectorized/solady/blob/main/src/tokens/ERC20.sol\":19677:19678  m */\n      dup4\n        /* \"https://github.com/Vectorized/solady/blob/main/src/tokens/ERC20.sol\":19670:19697  mstore(m, _PERMIT_TYPEHASH) */\n      mstore\n        /* \"https://github.com/Vectorized/solady/blob/main/src/tokens/ERC20.sol\":19731:19736  owner */\n      dup12\n        /* \"https://github.com/Vectorized/solady/blob/main/src/tokens/ERC20.sol\":19724:19728  0x20 */\n      0x20\n        /* \"https://github.com/Vectorized/solady/blob/main/src/tokens/ERC20.sol\":19721:19722  m */\n      dup5\n        /* \"https://github.com/Vectorized/solady/blob/main/src/tokens/ERC20.sol\":19717:19729  add(m, 0x20) */\n      add\n        /* \"https://github.com/Vectorized/solady/blob/main/src/tokens/ERC20.sol\":19710:19737  mstore(add(m, 0x20), owner) */\n      mstore\n        /* \"https://github.com/Vectorized/solady/blob/main/src/tokens/ERC20.sol\":19771:19778  spender */\n      dup11\n        /* \"https://github.com/Vectorized/solady/blob/main/src/tokens/ERC20.sol\":19764:19768  0x40 */\n      0x40\n        /* \"https://github.com/Vectorized/solady/blob/main/src/tokens/ERC20.sol\":19761:19762  m */\n      dup5\n        /* \"https://github.com/Vectorized/solady/blob/main/src/tokens/ERC20.sol\":19757:19769  add(m, 0x40) */\n      add\n        /* \"https://github.com/Vectorized/solady/blob/main/src/tokens/ERC20.sol\":19750:19779  mstore(add(m, 0x40), spender) */\n      mstore\n        /* \"https://github.com/Vectorized/solady/blob/main/src/tokens/ERC20.sol\":19813:19818  value */\n      dup10\n        /* \"https://github.com/Vectorized/solady/blob/main/src/tokens/ERC20.sol\":19806:19810  0x60 */\n      0x60\n        /* \"https://github.com/Vectorized/solady/blob/main/src/tokens/ERC20.sol\":19803:19804  m */\n      dup5\n        /* \"https://github.com/Vectorized/solady/blob/main/src/tokens/ERC20.sol\":19799:19811  add(m, 0x60) */\n      add\n        /* \"https://github.com/Vectorized/solady/blob/main/src/tokens/ERC20.sol\":19792:19819  mstore(add(m, 0x60), value) */\n      mstore\n        /* \"https://github.com/Vectorized/solady/blob/main/src/tokens/ERC20.sol\":19853:19863  nonceValue */\n      dup1\n        /* \"https://github.com/Vectorized/solady/blob/main/src/tokens/ERC20.sol\":19846:19850  0x80 */\n      0x80\n        /* \"https://github.com/Vectorized/solady/blob/main/src/tokens/ERC20.sol\":19843:19844  m */\n      dup5\n        /* \"https://github.com/Vectorized/solady/blob/main/src/tokens/ERC20.sol\":19839:19851  add(m, 0x80) */\n      add\n        /* \"https://github.com/Vectorized/solady/blob/main/src/tokens/ERC20.sol\":19832:19864  mstore(add(m, 0x80), nonceValue) */\n      mstore\n        /* \"https://github.com/Vectorized/solady/blob/main/src/tokens/ERC20.sol\":19898:19906  deadline */\n      dup9\n        /* \"https://github.com/Vectorized/solady/blob/main/src/tokens/ERC20.sol\":19891:19895  0xa0 */\n      0xa0\n        /* \"https://github.com/Vectorized/solady/blob/main/src/tokens/ERC20.sol\":19888:19889  m */\n      dup5\n        /* \"https://github.com/Vectorized/solady/blob/main/src/tokens/ERC20.sol\":19884:19896  add(m, 0xa0) */\n      add\n        /* \"https://github.com/Vectorized/solady/blob/main/src/tokens/ERC20.sol\":19877:19907  mstore(add(m, 0xa0), deadline) */\n      mstore\n        /* \"https://github.com/Vectorized/solady/blob/main/src/tokens/ERC20.sol\":19946:19950  0xc0 */\n      0xc0\n        /* \"https://github.com/Vectorized/solady/blob/main/src/tokens/ERC20.sol\":19943:19944  m */\n      dup4\n        /* \"https://github.com/Vectorized/solady/blob/main/src/tokens/ERC20.sol\":19933:19951  keccak256(m, 0xc0) */\n      keccak256\n        /* \"https://github.com/Vectorized/solady/blob/main/src/tokens/ERC20.sol\":19927:19931  0x4e */\n      0x4e\n        /* \"https://github.com/Vectorized/solady/blob/main/src/tokens/ERC20.sol\":19920:19952  mstore(0x4e, keccak256(m, 0xc0)) */\n      mstore\n        /* \"https://github.com/Vectorized/solady/blob/main/src/tokens/ERC20.sol\":20041:20045  0x42 */\n      0x42\n        /* \"https://github.com/Vectorized/solady/blob/main/src/tokens/ERC20.sol\":20035:20039  0x2c */\n      0x2c\n        /* \"https://github.com/Vectorized/solady/blob/main/src/tokens/ERC20.sol\":20025:20046  keccak256(0x2c, 0x42) */\n      keccak256\n        /* \"https://github.com/Vectorized/solady/blob/main/src/tokens/ERC20.sol\":20019:20023  0x00 */\n      0x00\n        /* \"https://github.com/Vectorized/solady/blob/main/src/tokens/ERC20.sol\":20012:20047  mstore(0x00, keccak256(0x2c, 0x42)) */\n      mstore\n        /* \"https://github.com/Vectorized/solady/blob/main/src/tokens/ERC20.sol\":20083:20084  v */\n      dup8\n        /* \"https://github.com/Vectorized/solady/blob/main/src/tokens/ERC20.sol\":20077:20081  0xff */\n      0xff\n        /* \"https://github.com/Vectorized/solady/blob/main/src/tokens/ERC20.sol\":20073:20085  and(0xff, v) */\n      and\n        /* \"https://github.com/Vectorized/solady/blob/main/src/tokens/ERC20.sol\":20067:20071  0x20 */\n      0x20\n        /* \"https://github.com/Vectorized/solady/blob/main/src/tokens/ERC20.sol\":20060:20086  mstore(0x20, and(0xff, v)) */\n      mstore\n        /* \"https://github.com/Vectorized/solady/blob/main/src/tokens/ERC20.sol\":20112:20113  r */\n      dup7\n        /* \"https://github.com/Vectorized/solady/blob/main/src/tokens/ERC20.sol\":20106:20110  0x40 */\n      0x40\n        /* \"https://github.com/Vectorized/solady/blob/main/src/tokens/ERC20.sol\":20099:20114  mstore(0x40, r) */\n      mstore\n        /* \"https://github.com/Vectorized/solady/blob/main/src/tokens/ERC20.sol\":20140:20141  s */\n      dup6\n        /* \"https://github.com/Vectorized/solady/blob/main/src/tokens/ERC20.sol\":20134:20138  0x60 */\n      0x60\n        /* \"https://github.com/Vectorized/solady/blob/main/src/tokens/ERC20.sol\":20127:20142  mstore(0x60, s) */\n      mstore\n        /* \"https://github.com/Vectorized/solady/blob/main/src/tokens/ERC20.sol\":20203:20207  0x20 */\n      0x20\n        /* \"https://github.com/Vectorized/solady/blob/main/src/tokens/ERC20.sol\":20197:20201  0x20 */\n      dup1\n        /* \"https://github.com/Vectorized/solady/blob/main/src/tokens/ERC20.sol\":20191:20195  0x80 */\n      0x80\n        /* \"https://github.com/Vectorized/solady/blob/main/src/tokens/ERC20.sol\":20185:20189  0x00 */\n      0x00\n        /* \"https://github.com/Vectorized/solady/blob/main/src/tokens/ERC20.sol\":20182:20183  1 */\n      0x01\n        /* \"https://github.com/Vectorized/solady/blob/main/src/tokens/ERC20.sol\":20175:20180  gas() */\n      gas\n        /* \"https://github.com/Vectorized/solady/blob/main/src/tokens/ERC20.sol\":20164:20208  staticcall(gas(), 1, 0x00, 0x80, 0x20, 0x20) */\n      staticcall\n        /* \"https://github.com/Vectorized/solady/blob/main/src/tokens/ERC20.sol\":20624:20629  owner */\n      dup13\n        /* \"https://github.com/Vectorized/solady/blob/main/src/tokens/ERC20.sol\":20605:20621  returndatasize() */\n      returndatasize\n        /* \"https://github.com/Vectorized/solady/blob/main/src/tokens/ERC20.sol\":20599:20622  mload(returndatasize()) */\n      mload\n        /* \"https://github.com/Vectorized/solady/blob/main/src/tokens/ERC20.sol\":20596:20630  eq(mload(returndatasize()), owner) */\n      eq\n        /* \"https://github.com/Vectorized/solady/blob/main/src/tokens/ERC20.sol\":20586:20745  if iszero(eq(mload(returndatasize()), owner)) {... */\n      tag_323\n      jumpi\n        /* \"https://github.com/Vectorized/solady/blob/main/src/tokens/ERC20.sol\":20663:20673  0xddafbaef */\n      0xddafbaef\n        /* \"https://github.com/Vectorized/solady/blob/main/src/tokens/ERC20.sol\":20657:20661  0x00 */\n      0x00\n        /* \"https://github.com/Vectorized/solady/blob/main/src/tokens/ERC20.sol\":20650:20674  mstore(0x00, 0xddafbaef) */\n      mstore\n        /* \"https://github.com/Vectorized/solady/blob/main/src/tokens/ERC20.sol\":20726:20730  0x04 */\n      0x04\n        /* \"https://github.com/Vectorized/solady/blob/main/src/tokens/ERC20.sol\":20720:20724  0x1c */\n      0x1c\n        /* \"https://github.com/Vectorized/solady/blob/main/src/tokens/ERC20.sol\":20713:20731  revert(0x1c, 0x04) */\n      revert\n        /* \"https://github.com/Vectorized/solady/blob/main/src/tokens/ERC20.sol\":20586:20745  if iszero(eq(mload(returndatasize()), owner)) {... */\n    tag_323:\n        /* \"https://github.com/Vectorized/solady/blob/main/src/tokens/ERC20.sol\":20830:20848  add(nonceValue, t) */\n      add\n        /* \"https://github.com/Vectorized/solady/blob/main/src/tokens/ERC20.sol\":20812:20849  sstore(nonceSlot, add(nonceValue, t)) */\n      swap1\n      sstore\n      shl(0xa5, 0x03faf4f9)\n        /* \"https://github.com/Vectorized/solady/blob/main/src/tokens/ERC20.sol\":21025:21068  or(shl(160, _ALLOWANCE_SLOT_SEED), spender) */\n      dup10\n      or\n        /* \"https://github.com/Vectorized/solady/blob/main/src/tokens/ERC20.sol\":21019:21023  0x40 */\n      0x40\n        /* \"https://github.com/Vectorized/solady/blob/main/src/tokens/ERC20.sol\":21012:21069  mstore(0x40, or(shl(160, _ALLOWANCE_SLOT_SEED), spender)) */\n      mstore\n        /* \"https://github.com/Vectorized/solady/blob/main/src/tokens/ERC20.sol\":21105:21109  0x34 */\n      0x34\n        /* \"https://github.com/Vectorized/solady/blob/main/src/tokens/ERC20.sol\":21099:21103  0x2c */\n      0x2c\n        /* \"https://github.com/Vectorized/solady/blob/main/src/tokens/ERC20.sol\":21089:21110  keccak256(0x2c, 0x34) */\n      keccak256\n        /* \"https://github.com/Vectorized/solady/blob/main/src/tokens/ERC20.sol\":21082:21118  sstore(keccak256(0x2c, 0x34), value) */\n      dup9\n      swap1\n      sstore\n        /* \"https://github.com/Vectorized/solady/blob/main/src/tokens/ERC20.sol\":21060:21067  spender */\n      dup9\n        /* \"https://github.com/Vectorized/solady/blob/main/src/tokens/ERC20.sol\":21225:21230  owner */\n      dup11\n        /* \"https://github.com/Vectorized/solady/blob/main/src/tokens/ERC20.sol\":21198:21223  _APPROVAL_EVENT_SIGNATURE */\n      0x8c5be1e5ebec7d5bd14f71427d1e84f3dd0314c0f7b2291e5b200ac8c7c3b925\n      0x20\n        /* \"https://github.com/Vectorized/solady/blob/main/src/tokens/ERC20.sol\":21185:21189  0x60 */\n      0x60\n        /* \"https://github.com/Vectorized/solady/blob/main/src/tokens/ERC20.sol\":21178:21190  add(m, 0x60) */\n      dup6\n      add\n        /* \"https://github.com/Vectorized/solady/blob/main/src/tokens/ERC20.sol\":21173:21240  log3(add(m, 0x60), 0x20, _APPROVAL_EVENT_SIGNATURE, owner, spender) */\n      log3\n        /* \"https://github.com/Vectorized/solady/blob/main/src/tokens/ERC20.sol\":21260:21264  0x40 */\n      0x40\n        /* \"https://github.com/Vectorized/solady/blob/main/src/tokens/ERC20.sol\":21253:21268  mstore(0x40, m) */\n      mstore\n      pop\n      pop\n        /* \"https://github.com/Vectorized/solady/blob/main/src/tokens/ERC20.sol\":21330:21331  0 */\n      0x00\n        /* \"https://github.com/Vectorized/solady/blob/main/src/tokens/ERC20.sol\":21324:21328  0x60 */\n      0x60\n        /* \"https://github.com/Vectorized/solady/blob/main/src/tokens/ERC20.sol\":21317:21332  mstore(0x60, 0) */\n      mstore\n      pop\n      pop\n      pop\n      pop\n      pop\n      pop\n      pop\n        /* \"https://github.com/Vectorized/solady/blob/main/src/tokens/ERC20.sol\":17661:21377  function permit(... */\n      jump\t// out\n        /* \"src/SwapAbstract.sol\":1234:1521  function erc20ToNativeSwap(uint erc20sSold, address recipient, Permit2Sig calldata sig) public returns (uint nativesBought) {... */\n    tag_193:\n        /* \"src/SwapAbstract.sol\":1338:1356  uint nativesBought */\n      0x00\n      sub(shl(0xa0, 0x01), 0x01)\n        /* \"src/SwapAbstract.sol\":1369:1374  asset */\n      immutable(\"0xced2926accb5b65113b9dfa04c89dc1608287373834acba62edea43e130eddaa\")\n        /* \"src/SwapAbstract.sol\":1369:1381  asset.permit */\n      and\n      0xd505accf\n        /* \"src/SwapAbstract.sol\":1382:1392  msg.sender */\n      caller\n        /* \"src/SwapAbstract.sol\":1402:1406  this */\n      address\n        /* \"src/SwapAbstract.sol\":1409:1419  erc20sSold */\n      dup8\n        /* \"src/SwapAbstract.sol\":1421:1433  sig.deadline */\n      dup7\n      calldataload\n        /* \"src/SwapAbstract.sol\":1435:1440  sig.v */\n      tag_329\n      0x40\n      dup10\n      add\n      0x20\n      dup11\n      add\n      tag_244\n      jump\t// in\n    tag_329:\n        /* \"src/SwapAbstract.sol\":1442:1445  sig */\n      dup9\n        /* \"src/SwapAbstract.sol\":1442:1447  sig.r */\n      0x40\n      add\n      calldataload\n        /* \"src/SwapAbstract.sol\":1449:1452  sig */\n      dup10\n        /* \"src/SwapAbstract.sol\":1449:1454  sig.s */\n      0x60\n      add\n      calldataload\n        /* \"src/SwapAbstract.sol\":1369:1455  asset.permit(msg.sender, address(this), erc20sSold, sig.deadline, sig.v, sig.r, sig.s) */\n      mload(0x40)\n      dup9\n      0xffffffff\n      and\n      0xe0\n      shl\n      dup2\n      mstore\n      0x04\n      add\n      tag_330\n      swap8\n      swap7\n      swap6\n      swap5\n      swap4\n      swap3\n      swap2\n      swap1\n      tag_246\n      jump\t// in\n    tag_330:\n      0x00\n      mload(0x40)\n      dup1\n      dup4\n      sub\n      dup2\n      0x00\n      dup8\n      dup1\n      extcodesize\n      iszero\n      dup1\n      iszero\n      tag_331\n      jumpi\n      revert(0x00, 0x00)\n    tag_331:\n      pop\n      gas\n      call\n      iszero\n      dup1\n      iszero\n      tag_333\n      jumpi\n      returndatacopy(0x00, 0x00, returndatasize)\n      revert(0x00, returndatasize)\n    tag_333:\n      pop\n      pop\n      pop\n      pop\n        /* \"src/SwapAbstract.sol\":1473:1513  erc20ToNativeSwap(erc20sSold, recipient) */\n      tag_334\n        /* \"src/SwapAbstract.sol\":1491:1501  erc20sSold */\n      dup5\n        /* \"src/SwapAbstract.sol\":1503:1512  recipient */\n      dup5\n        /* \"src/SwapAbstract.sol\":1473:1490  erc20ToNativeSwap */\n      tag_51\n        /* \"src/SwapAbstract.sol\":1473:1513  erc20ToNativeSwap(erc20sSold, recipient) */\n      jump\t// in\n    tag_334:\n        /* \"src/SwapAbstract.sol\":1466:1513  return erc20ToNativeSwap(erc20sSold, recipient) */\n      swap5\n        /* \"src/SwapAbstract.sol\":1234:1521  function erc20ToNativeSwap(uint erc20sSold, address recipient, Permit2Sig calldata sig) public returns (uint nativesBought) {... */\n      swap4\n      pop\n      pop\n      pop\n      pop\n      jump\t// out\n        /* \"src/PinusVaultCore.sol\":2659:2850  function getNativeToERC20Price(uint nativesSold) public override view returns (uint erc20sBought) {... */\n    tag_198:\n        /* \"src/PinusVaultCore.sol\":2738:2755  uint erc20sBought */\n      0x00\n        /* \"src/PinusVaultCore.sol\":2812:2841  nativeInhibitor + nativesSold */\n      tag_336\n        /* \"src/PinusVaultCore.sol\":2830:2841  nativesSold */\n      dup3\n      sub(shl(0x80, 0x01), 0x01)\n        /* \"src/PinusVaultCore.sol\":2812:2827  nativeInhibitor */\n      immutable(\"0x90c481f3ac5c7eaa8ded97c322b2b9f85374628e79ad5c83ad1fe55ee31e2bd9\")\n        /* \"src/PinusVaultCore.sol\":2812:2841  nativeInhibitor + nativesSold */\n      and\n      tag_216\n      jump\t// in\n    tag_336:\n        /* \"src/PinusVaultCore.sol\":2797:2808  nativesSold */\n      dup3\n        /* \"src/PinusVaultCore.sol\":2775:2794  purchasableERC20s() */\n      tag_337\n        /* \"src/PinusVaultCore.sol\":2775:2792  purchasableERC20s */\n      tag_147\n        /* \"src/PinusVaultCore.sol\":2775:2794  purchasableERC20s() */\n      jump\t// in\n    tag_337:\n        /* \"src/PinusVaultCore.sol\":2775:2808  purchasableERC20s() * nativesSold */\n      tag_338\n      swap2\n      swap1\n      tag_270\n      jump\t// in\n    tag_338:\n        /* \"src/PinusVaultCore.sol\":2775:2842  purchasableERC20s() * nativesSold / (nativeInhibitor + nativesSold) */\n      tag_225\n      swap2\n      swap1\n      tag_214\n      jump\t// in\n        /* \"@openzeppelin/contracts/access/Ownable.sol\":2543:2758  function transferOwnership(address newOwner) public virtual onlyOwner {... */\n    tag_203:\n        /* \"@openzeppelin/contracts/access/Ownable.sol\":1531:1544  _checkOwner() */\n      tag_341\n        /* \"@openzeppelin/contracts/access/Ownable.sol\":1531:1542  _checkOwner */\n      tag_232\n        /* \"@openzeppelin/contracts/access/Ownable.sol\":1531:1544  _checkOwner() */\n      jump\t// in\n    tag_341:\n      sub(shl(0xa0, 0x01), 0x01)\n        /* \"@openzeppelin/contracts/access/Ownable.sol\":2627:2649  newOwner == address(0) */\n      dup2\n      and\n        /* \"@openzeppelin/contracts/access/Ownable.sol\":2623:2714  if (newOwner == address(0)) {... */\n      tag_343\n      jumpi\n        /* \"@openzeppelin/contracts/access/Ownable.sol\":2672:2703  OwnableInvalidOwner(address(0)) */\n      mload(0x40)\n      shl(0xe0, 0x1e4fbdf7)\n      dup2\n      mstore\n        /* \"@openzeppelin/contracts/access/Ownable.sol\":2700:2701  0 */\n      0x00\n        /* \"@openzeppelin/contracts/access/Ownable.sol\":2672:2703  OwnableInvalidOwner(address(0)) */\n      0x04\n      dup3\n      add\n        /* \"#utility.yul\":4588:4639   */\n      mstore\n        /* \"#utility.yul\":4561:4579   */\n      0x24\n      add\n        /* \"@openzeppelin/contracts/access/Ownable.sol\":2672:2703  OwnableInvalidOwner(address(0)) */\n    tag_344:\n      mload(0x40)\n      dup1\n      swap2\n      sub\n      swap1\n      revert\n        /* \"@openzeppelin/contracts/access/Ownable.sol\":2623:2714  if (newOwner == address(0)) {... */\n    tag_343:\n        /* \"@openzeppelin/contracts/access/Ownable.sol\":2723:2751  _transferOwnership(newOwner) */\n      tag_345\n        /* \"@openzeppelin/contracts/access/Ownable.sol\":2742:2750  newOwner */\n      dup2\n        /* \"@openzeppelin/contracts/access/Ownable.sol\":2723:2741  _transferOwnership */\n      tag_286\n        /* \"@openzeppelin/contracts/access/Ownable.sol\":2723:2751  _transferOwnership(newOwner) */\n      jump\t// in\n    tag_345:\n        /* \"@openzeppelin/contracts/access/Ownable.sol\":2543:2758  function transferOwnership(address newOwner) public virtual onlyOwner {... */\n      pop\n      jump\t// out\n        /* \"https://github.com/Vectorized/solady/blob/main/src/tokens/ERC20.sol\":24177:25296  function _burn(address from, uint256 amount) internal virtual {... */\n    tag_218:\n        /* \"https://github.com/Vectorized/solady/blob/main/src/tokens/ERC20.sol\":24444:24462  _BALANCE_SLOT_SEED */\n      0x87a211a2\n        /* \"https://github.com/Vectorized/solady/blob/main/src/tokens/ERC20.sol\":24438:24442  0x0c */\n      0x0c\n        /* \"https://github.com/Vectorized/solady/blob/main/src/tokens/ERC20.sol\":24431:24463  mstore(0x0c, _BALANCE_SLOT_SEED) */\n      mstore\n        /* \"https://github.com/Vectorized/solady/blob/main/src/tokens/ERC20.sol\":24489:24493  from */\n      dup2\n        /* \"https://github.com/Vectorized/solady/blob/main/src/tokens/ERC20.sol\":24483:24487  0x00 */\n      0x00\n        /* \"https://github.com/Vectorized/solady/blob/main/src/tokens/ERC20.sol\":24476:24494  mstore(0x00, from) */\n      mstore\n        /* \"https://github.com/Vectorized/solady/blob/main/src/tokens/ERC20.sol\":24546:24550  0x20 */\n      0x20\n        /* \"https://github.com/Vectorized/solady/blob/main/src/tokens/ERC20.sol\":24540:24544  0x0c */\n      0x0c\n        /* \"https://github.com/Vectorized/solady/blob/main/src/tokens/ERC20.sol\":24530:24551  keccak256(0x0c, 0x20) */\n      keccak256\n        /* \"https://github.com/Vectorized/solady/blob/main/src/tokens/ERC20.sol\":24589:24604  fromBalanceSlot */\n      dup1\n        /* \"https://github.com/Vectorized/solady/blob/main/src/tokens/ERC20.sol\":24583:24605  sload(fromBalanceSlot) */\n      sload\n        /* \"https://github.com/Vectorized/solady/blob/main/src/tokens/ERC20.sol\":24679:24690  fromBalance */\n      dup1\n        /* \"https://github.com/Vectorized/solady/blob/main/src/tokens/ERC20.sol\":24671:24677  amount */\n      dup4\n        /* \"https://github.com/Vectorized/solady/blob/main/src/tokens/ERC20.sol\":24668:24691  gt(amount, fromBalance) */\n      gt\n        /* \"https://github.com/Vectorized/solady/blob/main/src/tokens/ERC20.sol\":24665:24811  if gt(amount, fromBalance) {... */\n      iszero\n      tag_348\n      jumpi\n        /* \"https://github.com/Vectorized/solady/blob/main/src/tokens/ERC20.sol\":24723:24733  0xf4d678b8 */\n      0xf4d678b8\n        /* \"https://github.com/Vectorized/solady/blob/main/src/tokens/ERC20.sol\":24717:24721  0x00 */\n      0x00\n        /* \"https://github.com/Vectorized/solady/blob/main/src/tokens/ERC20.sol\":24710:24734  mstore(0x00, 0xf4d678b8) */\n      mstore\n        /* \"https://github.com/Vectorized/solady/blob/main/src/tokens/ERC20.sol\":24792:24796  0x04 */\n      0x04\n        /* \"https://github.com/Vectorized/solady/blob/main/src/tokens/ERC20.sol\":24786:24790  0x1c */\n      0x1c\n        /* \"https://github.com/Vectorized/solady/blob/main/src/tokens/ERC20.sol\":24779:24797  revert(0x1c, 0x04) */\n      revert\n        /* \"https://github.com/Vectorized/solady/blob/main/src/tokens/ERC20.sol\":24665:24811  if gt(amount, fromBalance) {... */\n    tag_348:\n        /* \"https://github.com/Vectorized/solady/blob/main/src/tokens/ERC20.sol\":24903:24927  sub(fromBalance, amount) */\n      dup3\n      swap1\n      sub\n        /* \"https://github.com/Vectorized/solady/blob/main/src/tokens/ERC20.sol\":24879:24928  sstore(fromBalanceSlot, sub(fromBalance, amount)) */\n      swap1\n      sstore\n        /* \"https://github.com/Vectorized/solady/blob/main/src/tokens/ERC20.sol\":25038:25056  _TOTAL_SUPPLY_SLOT */\n      0x05345cdf77eb68f44c\n        /* \"https://github.com/Vectorized/solady/blob/main/src/tokens/ERC20.sol\":25032:25057  sload(_TOTAL_SUPPLY_SLOT) */\n      dup1\n      sload\n        /* \"https://github.com/Vectorized/solady/blob/main/src/tokens/ERC20.sol\":25028:25066  sub(sload(_TOTAL_SUPPLY_SLOT), amount) */\n      dup3\n      swap1\n      sub\n        /* \"https://github.com/Vectorized/solady/blob/main/src/tokens/ERC20.sol\":25001:25067  sstore(_TOTAL_SUPPLY_SLOT, sub(sload(_TOTAL_SUPPLY_SLOT), amount)) */\n      swap1\n      sstore\n      0x00\n        /* \"https://github.com/Vectorized/solady/blob/main/src/tokens/ERC20.sol\":25122:25142  mstore(0x00, amount) */\n      dup2\n      dup2\n      mstore\n      sub(shl(0xa0, 0x01), 0x01)\n        /* \"https://github.com/Vectorized/solady/blob/main/src/tokens/ERC20.sol\":25199:25221  shr(96, shl(96, from)) */\n      dup4\n      and\n      mload(0x00)\n      codecopy(0x00, data_ada389e1fc24a8587c776340efb91b36e675792ab631816100d55df0b5cf3cbc, 0x20)\n      mload(0x00)\n      swap1\n      0x00\n      mstore\n        /* \"https://github.com/Vectorized/solady/blob/main/src/tokens/ERC20.sol\":25166:25170  0x20 */\n      0x20\n      dup4\n        /* \"https://github.com/Vectorized/solady/blob/main/src/tokens/ERC20.sol\":25155:25225  log3(0x00, 0x20, _TRANSFER_EVENT_SIGNATURE, shr(96, shl(96, from)), 0) */\n      log3\n        /* \"https://github.com/Vectorized/solady/blob/main/src/tokens/ERC20.sol\":24177:25296  function _burn(address from, uint256 amount) internal virtual {... */\n      pop\n      pop\n      jump\t// out\n        /* \"@openzeppelin/contracts/access/Ownable.sol\":1796:1958  function _checkOwner() internal view virtual {... */\n    tag_232:\n        /* \"@openzeppelin/contracts/access/Ownable.sol\":1710:1716  _owner */\n      and(sub(shl(0xa0, 0x01), 0x01), sload(0x02))\n        /* \"@openzeppelin/contracts/utils/Context.sol\":735:745  msg.sender */\n      caller\n        /* \"@openzeppelin/contracts/access/Ownable.sol\":1855:1878  owner() != _msgSender() */\n      eq\n        /* \"@openzeppelin/contracts/access/Ownable.sol\":1851:1952  if (owner() != _msgSender()) {... */\n      tag_285\n      jumpi\n        /* \"@openzeppelin/contracts/access/Ownable.sol\":1901:1941  OwnableUnauthorizedAccount(_msgSender()) */\n      mload(0x40)\n      shl(0xe0, 0x118cdaa7)\n      dup2\n      mstore\n        /* \"@openzeppelin/contracts/utils/Context.sol\":735:745  msg.sender */\n      caller\n        /* \"@openzeppelin/contracts/access/Ownable.sol\":1901:1941  OwnableUnauthorizedAccount(_msgSender()) */\n      0x04\n      dup3\n      add\n        /* \"#utility.yul\":4588:4639   */\n      mstore\n        /* \"#utility.yul\":4561:4579   */\n      0x24\n      add\n        /* \"@openzeppelin/contracts/access/Ownable.sol\":1901:1941  OwnableUnauthorizedAccount(_msgSender()) */\n      tag_344\n        /* \"#utility.yul\":4429:4645   */\n      jump\n        /* \"@openzeppelin/contracts/access/Ownable.sol\":2912:3099  function _transferOwnership(address newOwner) internal virtual {... */\n    tag_286:\n        /* \"@openzeppelin/contracts/access/Ownable.sol\":3004:3010  _owner */\n      0x02\n      dup1\n      sload\n      sub(shl(0xa0, 0x01), 0x01)\n        /* \"@openzeppelin/contracts/access/Ownable.sol\":3020:3037  _owner = newOwner */\n      dup4\n      dup2\n      and\n      not(sub(shl(0xa0, 0x01), 0x01))\n      dup4\n      and\n      dup2\n      or\n      swap1\n      swap4\n      sstore\n        /* \"@openzeppelin/contracts/access/Ownable.sol\":3052:3092  OwnershipTransferred(oldOwner, newOwner) */\n      mload(0x40)\n        /* \"@openzeppelin/contracts/access/Ownable.sol\":3004:3010  _owner */\n      swap2\n      and\n      swap2\n        /* \"@openzeppelin/contracts/access/Ownable.sol\":3020:3037  _owner = newOwner */\n      swap1\n        /* \"@openzeppelin/contracts/access/Ownable.sol\":3004:3010  _owner */\n      dup3\n      swap1\n        /* \"@openzeppelin/contracts/access/Ownable.sol\":3052:3092  OwnershipTransferred(oldOwner, newOwner) */\n      0x8be0079c531659141344cd1fd0a4f28419497f9722a3daafe3b4186f6b6457e0\n      swap1\n        /* \"@openzeppelin/contracts/access/Ownable.sol\":2985:3001  address oldOwner */\n      0x00\n      swap1\n        /* \"@openzeppelin/contracts/access/Ownable.sol\":3052:3092  OwnershipTransferred(oldOwner, newOwner) */\n      log3\n        /* \"@openzeppelin/contracts/access/Ownable.sol\":2975:3099  {... */\n      pop\n        /* \"@openzeppelin/contracts/access/Ownable.sol\":2912:3099  function _transferOwnership(address newOwner) internal virtual {... */\n      pop\n      jump\t// out\n        /* \"https://github.com/Vectorized/solady/blob/main/src/tokens/ERC20.sol\":22599:23771  function _mint(address to, uint256 amount) internal virtual {... */\n    tag_313:\n        /* \"https://github.com/Vectorized/solady/blob/main/src/tokens/ERC20.sol\":22820:22838  _TOTAL_SUPPLY_SLOT */\n      0x05345cdf77eb68f44c\n        /* \"https://github.com/Vectorized/solady/blob/main/src/tokens/ERC20.sol\":22814:22839  sload(_TOTAL_SUPPLY_SLOT) */\n      sload\n        /* \"https://github.com/Vectorized/solady/blob/main/src/tokens/ERC20.sol\":22899:22905  amount */\n      dup2\n        /* \"https://github.com/Vectorized/solady/blob/main/src/tokens/ERC20.sol\":22880:22897  totalSupplyBefore */\n      dup2\n        /* \"https://github.com/Vectorized/solady/blob/main/src/tokens/ERC20.sol\":22876:22906  add(totalSupplyBefore, amount) */\n      add\n        /* \"https://github.com/Vectorized/solady/blob/main/src/tokens/ERC20.sol\":22996:23013  totalSupplyBefore */\n      dup2\n        /* \"https://github.com/Vectorized/solady/blob/main/src/tokens/ERC20.sol\":22978:22994  totalSupplyAfter */\n      dup2\n        /* \"https://github.com/Vectorized/solady/blob/main/src/tokens/ERC20.sol\":22975:23014  lt(totalSupplyAfter, totalSupplyBefore) */\n      lt\n        /* \"https://github.com/Vectorized/solady/blob/main/src/tokens/ERC20.sol\":22972:23134  if lt(totalSupplyAfter, totalSupplyBefore) {... */\n      iszero\n      tag_365\n      jumpi\n        /* \"https://github.com/Vectorized/solady/blob/main/src/tokens/ERC20.sol\":23046:23056  0xe5cfe957 */\n      0xe5cfe957\n        /* \"https://github.com/Vectorized/solady/blob/main/src/tokens/ERC20.sol\":23040:23044  0x00 */\n      0x00\n        /* \"https://github.com/Vectorized/solady/blob/main/src/tokens/ERC20.sol\":23033:23057  mstore(0x00, 0xe5cfe957) */\n      mstore\n        /* \"https://github.com/Vectorized/solady/blob/main/src/tokens/ERC20.sol\":23115:23119  0x04 */\n      0x04\n        /* \"https://github.com/Vectorized/solady/blob/main/src/tokens/ERC20.sol\":23109:23113  0x1c */\n      0x1c\n        /* \"https://github.com/Vectorized/solady/blob/main/src/tokens/ERC20.sol\":23102:23120  revert(0x1c, 0x04) */\n      revert\n        /* \"https://github.com/Vectorized/solady/blob/main/src/tokens/ERC20.sol\":22972:23134  if lt(totalSupplyAfter, totalSupplyBefore) {... */\n    tag_365:\n        /* \"https://github.com/Vectorized/solady/blob/main/src/tokens/ERC20.sol\":23221:23237  totalSupplyAfter */\n      dup1\n        /* \"https://github.com/Vectorized/solady/blob/main/src/tokens/ERC20.sol\":23201:23219  _TOTAL_SUPPLY_SLOT */\n      0x05345cdf77eb68f44c\n        /* \"https://github.com/Vectorized/solady/blob/main/src/tokens/ERC20.sol\":23194:23238  sstore(_TOTAL_SUPPLY_SLOT, totalSupplyAfter) */\n      sstore\n      pop\n      pop\n        /* \"https://github.com/Vectorized/solady/blob/main/src/tokens/ERC20.sol\":23324:23342  _BALANCE_SLOT_SEED */\n      0x87a211a2\n        /* \"https://github.com/Vectorized/solady/blob/main/src/tokens/ERC20.sol\":23318:23322  0x0c */\n      0x0c\n        /* \"https://github.com/Vectorized/solady/blob/main/src/tokens/ERC20.sol\":23311:23343  mstore(0x0c, _BALANCE_SLOT_SEED) */\n      mstore\n        /* \"https://github.com/Vectorized/solady/blob/main/src/tokens/ERC20.sol\":23369:23371  to */\n      dup2\n        /* \"https://github.com/Vectorized/solady/blob/main/src/tokens/ERC20.sol\":23363:23367  0x00 */\n      0x00\n        /* \"https://github.com/Vectorized/solady/blob/main/src/tokens/ERC20.sol\":23356:23372  mstore(0x00, to) */\n      mstore\n        /* \"https://github.com/Vectorized/solady/blob/main/src/tokens/ERC20.sol\":23422:23426  0x20 */\n      0x20\n        /* \"https://github.com/Vectorized/solady/blob/main/src/tokens/ERC20.sol\":23416:23420  0x0c */\n      0x0c\n        /* \"https://github.com/Vectorized/solady/blob/main/src/tokens/ERC20.sol\":23406:23427  keccak256(0x0c, 0x20) */\n      keccak256\n        /* \"https://github.com/Vectorized/solady/blob/main/src/tokens/ERC20.sol\":23538:23544  amount */\n      dup2\n        /* \"https://github.com/Vectorized/solady/blob/main/src/tokens/ERC20.sol\":23522:23535  toBalanceSlot */\n      dup2\n        /* \"https://github.com/Vectorized/solady/blob/main/src/tokens/ERC20.sol\":23516:23536  sload(toBalanceSlot) */\n      sload\n        /* \"https://github.com/Vectorized/solady/blob/main/src/tokens/ERC20.sol\":23512:23545  add(sload(toBalanceSlot), amount) */\n      add\n        /* \"https://github.com/Vectorized/solady/blob/main/src/tokens/ERC20.sol\":23497:23510  toBalanceSlot */\n      dup2\n        /* \"https://github.com/Vectorized/solady/blob/main/src/tokens/ERC20.sol\":23490:23546  sstore(toBalanceSlot, add(sload(toBalanceSlot), amount)) */\n      sstore\n      pop\n        /* \"https://github.com/Vectorized/solady/blob/main/src/tokens/ERC20.sol\":23614:23620  amount */\n      dup1\n        /* \"https://github.com/Vectorized/solady/blob/main/src/tokens/ERC20.sol\":23608:23612  0x20 */\n      0x20\n        /* \"https://github.com/Vectorized/solady/blob/main/src/tokens/ERC20.sol\":23601:23621  mstore(0x20, amount) */\n      mstore\n        /* \"https://github.com/Vectorized/solady/blob/main/src/tokens/ERC20.sol\":23695:23699  0x0c */\n      0x0c\n        /* \"https://github.com/Vectorized/solady/blob/main/src/tokens/ERC20.sol\":23689:23700  mload(0x0c) */\n      mload\n        /* \"https://github.com/Vectorized/solady/blob/main/src/tokens/ERC20.sol\":23685:23687  96 */\n      0x60\n        /* \"https://github.com/Vectorized/solady/blob/main/src/tokens/ERC20.sol\":23681:23701  shr(96, mload(0x0c)) */\n      shr\n        /* \"https://github.com/Vectorized/solady/blob/main/src/tokens/ERC20.sol\":23678:23679  0 */\n      0x00\n      mload(0x00)\n      codecopy(0x00, data_ada389e1fc24a8587c776340efb91b36e675792ab631816100d55df0b5cf3cbc, 0x20)\n      mload(0x00)\n      swap1\n      0x00\n      mstore\n        /* \"https://github.com/Vectorized/solady/blob/main/src/tokens/ERC20.sol\":23645:23649  0x20 */\n      0x20\n        /* \"https://github.com/Vectorized/solady/blob/main/src/tokens/ERC20.sol\":23639:23643  0x20 */\n      dup1\n        /* \"https://github.com/Vectorized/solady/blob/main/src/tokens/ERC20.sol\":23634:23702  log3(0x20, 0x20, _TRANSFER_EVENT_SIGNATURE, 0, shr(96, mload(0x0c))) */\n      log3\n        /* \"https://github.com/Vectorized/solady/blob/main/src/tokens/ERC20.sol\":24177:25296  function _burn(address from, uint256 amount) internal virtual {... */\n      pop\n      pop\n      jump\t// out\n        /* \"#utility.yul\":14:303   */\n    tag_368:\n        /* \"#utility.yul\":56:59   */\n      0x00\n        /* \"#utility.yul\":94:99   */\n      dup2\n        /* \"#utility.yul\":88:100   */\n      mload\n        /* \"#utility.yul\":121:127   */\n      dup1\n        /* \"#utility.yul\":116:119   */\n      dup5\n        /* \"#utility.yul\":109:128   */\n      mstore\n        /* \"#utility.yul\":177:183   */\n      dup1\n        /* \"#utility.yul\":170:174   */\n      0x20\n        /* \"#utility.yul\":163:168   */\n      dup5\n        /* \"#utility.yul\":159:175   */\n      add\n        /* \"#utility.yul\":152:156   */\n      0x20\n        /* \"#utility.yul\":147:150   */\n      dup7\n        /* \"#utility.yul\":143:157   */\n      add\n        /* \"#utility.yul\":137:184   */\n      mcopy\n        /* \"#utility.yul\":229:230   */\n      0x00\n        /* \"#utility.yul\":222:226   */\n      0x20\n        /* \"#utility.yul\":213:219   */\n      dup3\n        /* \"#utility.yul\":208:211   */\n      dup7\n        /* \"#utility.yul\":204:220   */\n      add\n        /* \"#utility.yul\":200:227   */\n      add\n        /* \"#utility.yul\":193:231   */\n      mstore\n        /* \"#utility.yul\":292:296   */\n      0x20\n        /* \"#utility.yul\":285:287   */\n      0x1f\n        /* \"#utility.yul\":281:288   */\n      not\n        /* \"#utility.yul\":276:278   */\n      0x1f\n        /* \"#utility.yul\":268:274   */\n      dup4\n        /* \"#utility.yul\":264:279   */\n      add\n        /* \"#utility.yul\":260:289   */\n      and\n        /* \"#utility.yul\":255:258   */\n      dup6\n        /* \"#utility.yul\":251:290   */\n      add\n        /* \"#utility.yul\":247:297   */\n      add\n        /* \"#utility.yul\":240:297   */\n      swap2\n      pop\n      pop\n        /* \"#utility.yul\":14:303   */\n      swap3\n      swap2\n      pop\n      pop\n      jump\t// out\n        /* \"#utility.yul\":308:528   */\n    tag_46:\n        /* \"#utility.yul\":457:459   */\n      0x20\n        /* \"#utility.yul\":446:455   */\n      dup2\n        /* \"#utility.yul\":439:460   */\n      mstore\n        /* \"#utility.yul\":420:424   */\n      0x00\n        /* \"#utility.yul\":477:522   */\n      tag_250\n        /* \"#utility.yul\":518:520   */\n      0x20\n        /* \"#utility.yul\":507:516   */\n      dup4\n        /* \"#utility.yul\":503:521   */\n      add\n        /* \"#utility.yul\":495:501   */\n      dup5\n        /* \"#utility.yul\":477:522   */\n      tag_368\n      jump\t// in\n        /* \"#utility.yul\":533:706   */\n    tag_369:\n        /* \"#utility.yul\":601:621   */\n      dup1\n      calldataload\n      sub(shl(0xa0, 0x01), 0x01)\n        /* \"#utility.yul\":650:681   */\n      dup2\n      and\n        /* \"#utility.yul\":640:682   */\n      dup2\n      eq\n        /* \"#utility.yul\":630:700   */\n      tag_272\n      jumpi\n        /* \"#utility.yul\":696:697   */\n      0x00\n        /* \"#utility.yul\":693:694   */\n      0x00\n        /* \"#utility.yul\":686:698   */\n      revert\n        /* \"#utility.yul\":711:1011   */\n    tag_50:\n        /* \"#utility.yul\":779:785   */\n      0x00\n        /* \"#utility.yul\":787:793   */\n      0x00\n        /* \"#utility.yul\":840:842   */\n      0x40\n        /* \"#utility.yul\":828:837   */\n      dup4\n        /* \"#utility.yul\":819:826   */\n      dup6\n        /* \"#utility.yul\":815:838   */\n      sub\n        /* \"#utility.yul\":811:843   */\n      slt\n        /* \"#utility.yul\":808:860   */\n      iszero\n      tag_380\n      jumpi\n        /* \"#utility.yul\":856:857   */\n      0x00\n        /* \"#utility.yul\":853:854   */\n      0x00\n        /* \"#utility.yul\":846:858   */\n      revert\n        /* \"#utility.yul\":808:860   */\n    tag_380:\n        /* \"#utility.yul\":901:924   */\n      dup3\n      calldataload\n      swap2\n      pop\n        /* \"#utility.yul\":967:1005   */\n      tag_381\n        /* \"#utility.yul\":1001:1003   */\n      0x20\n        /* \"#utility.yul\":986:1004   */\n      dup5\n      add\n        /* \"#utility.yul\":967:1005   */\n      tag_369\n      jump\t// in\n    tag_381:\n        /* \"#utility.yul\":957:1005   */\n      swap1\n      pop\n        /* \"#utility.yul\":711:1011   */\n      swap3\n      pop\n      swap3\n      swap1\n      pop\n      jump\t// out\n        /* \"#utility.yul\":1198:1498   */\n    tag_57:\n        /* \"#utility.yul\":1266:1272   */\n      0x00\n        /* \"#utility.yul\":1274:1280   */\n      0x00\n        /* \"#utility.yul\":1327:1329   */\n      0x40\n        /* \"#utility.yul\":1315:1324   */\n      dup4\n        /* \"#utility.yul\":1306:1313   */\n      dup6\n        /* \"#utility.yul\":1302:1325   */\n      sub\n        /* \"#utility.yul\":1298:1330   */\n      slt\n        /* \"#utility.yul\":1295:1347   */\n      iszero\n      tag_384\n      jumpi\n        /* \"#utility.yul\":1343:1344   */\n      0x00\n        /* \"#utility.yul\":1340:1341   */\n      0x00\n        /* \"#utility.yul\":1333:1345   */\n      revert\n        /* \"#utility.yul\":1295:1347   */\n    tag_384:\n        /* \"#utility.yul\":1366:1395   */\n      tag_385\n        /* \"#utility.yul\":1385:1394   */\n      dup4\n        /* \"#utility.yul\":1366:1395   */\n      tag_369\n      jump\t// in\n    tag_385:\n        /* \"#utility.yul\":1356:1395   */\n      swap5\n        /* \"#utility.yul\":1464:1466   */\n      0x20\n        /* \"#utility.yul\":1449:1467   */\n      swap4\n      swap1\n      swap4\n      add\n        /* \"#utility.yul\":1436:1468   */\n      calldataload\n      swap4\n      pop\n      pop\n      pop\n        /* \"#utility.yul\":1198:1498   */\n      jump\t// out\n        /* \"#utility.yul\":1695:2469   */\n    tag_68:\n        /* \"#utility.yul\":1783:1789   */\n      0x00\n        /* \"#utility.yul\":1791:1797   */\n      0x00\n        /* \"#utility.yul\":1799:1805   */\n      0x00\n        /* \"#utility.yul\":1807:1813   */\n      0x00\n        /* \"#utility.yul\":1860:1862   */\n      0x60\n        /* \"#utility.yul\":1848:1857   */\n      dup6\n        /* \"#utility.yul\":1839:1846   */\n      dup8\n        /* \"#utility.yul\":1835:1858   */\n      sub\n        /* \"#utility.yul\":1831:1863   */\n      slt\n        /* \"#utility.yul\":1828:1880   */\n      iszero\n      tag_388\n      jumpi\n        /* \"#utility.yul\":1876:1877   */\n      0x00\n        /* \"#utility.yul\":1873:1874   */\n      0x00\n        /* \"#utility.yul\":1866:1878   */\n      revert\n        /* \"#utility.yul\":1828:1880   */\n    tag_388:\n        /* \"#utility.yul\":1899:1928   */\n      tag_389\n        /* \"#utility.yul\":1918:1927   */\n      dup6\n        /* \"#utility.yul\":1899:1928   */\n      tag_369\n      jump\t// in\n    tag_389:\n        /* \"#utility.yul\":1889:1928   */\n      swap4\n      pop\n        /* \"#utility.yul\":1997:1999   */\n      0x20\n        /* \"#utility.yul\":1982:2000   */\n      dup6\n      add\n        /* \"#utility.yul\":1969:2001   */\n      calldataload\n      swap3\n      pop\n        /* \"#utility.yul\":2076:2078   */\n      0x40\n        /* \"#utility.yul\":2061:2079   */\n      dup6\n      add\n        /* \"#utility.yul\":2048:2080   */\n      calldataload\n        /* \"#utility.yul\":2103:2121   */\n      0xffffffffffffffff\n        /* \"#utility.yul\":2092:2122   */\n      dup2\n      gt\n        /* \"#utility.yul\":2089:2139   */\n      iszero\n      tag_390\n      jumpi\n        /* \"#utility.yul\":2135:2136   */\n      0x00\n        /* \"#utility.yul\":2132:2133   */\n      0x00\n        /* \"#utility.yul\":2125:2137   */\n      revert\n        /* \"#utility.yul\":2089:2139   */\n    tag_390:\n        /* \"#utility.yul\":2158:2180   */\n      dup6\n      add\n        /* \"#utility.yul\":2211:2215   */\n      0x1f\n        /* \"#utility.yul\":2203:2216   */\n      dup2\n      add\n        /* \"#utility.yul\":2199:2226   */\n      dup8\n      sgt\n        /* \"#utility.yul\":2189:2244   */\n      tag_391\n      jumpi\n        /* \"#utility.yul\":2240:2241   */\n      0x00\n        /* \"#utility.yul\":2237:2238   */\n      0x00\n        /* \"#utility.yul\":2230:2242   */\n      revert\n        /* \"#utility.yul\":2189:2244   */\n    tag_391:\n        /* \"#utility.yul\":2280:2282   */\n      dup1\n        /* \"#utility.yul\":2267:2283   */\n      calldataload\n        /* \"#utility.yul\":2306:2324   */\n      0xffffffffffffffff\n        /* \"#utility.yul\":2298:2304   */\n      dup2\n        /* \"#utility.yul\":2295:2325   */\n      gt\n        /* \"#utility.yul\":2292:2342   */\n      iszero\n      tag_392\n      jumpi\n        /* \"#utility.yul\":2338:2339   */\n      0x00\n        /* \"#utility.yul\":2335:2336   */\n      0x00\n        /* \"#utility.yul\":2328:2340   */\n      revert\n        /* \"#utility.yul\":2292:2342   */\n    tag_392:\n        /* \"#utility.yul\":2383:2390   */\n      dup8\n        /* \"#utility.yul\":2378:2380   */\n      0x20\n        /* \"#utility.yul\":2369:2375   */\n      dup3\n        /* \"#utility.yul\":2365:2367   */\n      dup5\n        /* \"#utility.yul\":2361:2376   */\n      add\n        /* \"#utility.yul\":2357:2381   */\n      add\n        /* \"#utility.yul\":2354:2391   */\n      gt\n        /* \"#utility.yul\":2351:2408   */\n      iszero\n      tag_393\n      jumpi\n        /* \"#utility.yul\":2404:2405   */\n      0x00\n        /* \"#utility.yul\":2401:2402   */\n      0x00\n        /* \"#utility.yul\":2394:2406   */\n      revert\n        /* \"#utility.yul\":2351:2408   */\n    tag_393:\n        /* \"#utility.yul\":1695:2469   */\n      swap5\n      swap8\n      swap4\n      swap7\n      pop\n        /* \"#utility.yul\":2435:2437   */\n      0x20\n        /* \"#utility.yul\":2427:2438   */\n      add\n      swap5\n      pop\n      pop\n      pop\n        /* \"#utility.yul\":1695:2469   */\n      jump\t// out\n        /* \"#utility.yul\":2697:2923   */\n    tag_75:\n        /* \"#utility.yul\":2756:2762   */\n      0x00\n        /* \"#utility.yul\":2809:2811   */\n      0x20\n        /* \"#utility.yul\":2797:2806   */\n      dup3\n        /* \"#utility.yul\":2788:2795   */\n      dup5\n        /* \"#utility.yul\":2784:2807   */\n      sub\n        /* \"#utility.yul\":2780:2812   */\n      slt\n        /* \"#utility.yul\":2777:2829   */\n      iszero\n      tag_397\n      jumpi\n        /* \"#utility.yul\":2825:2826   */\n      0x00\n        /* \"#utility.yul\":2822:2823   */\n      0x00\n        /* \"#utility.yul\":2815:2827   */\n      revert\n        /* \"#utility.yul\":2777:2829   */\n    tag_397:\n      pop\n        /* \"#utility.yul\":2870:2893   */\n      calldataload\n      swap2\n        /* \"#utility.yul\":2697:2923   */\n      swap1\n      pop\n      jump\t// out\n        /* \"#utility.yul\":2928:3087   */\n    tag_370:\n        /* \"#utility.yul\":2991:2996   */\n      0x00\n        /* \"#utility.yul\":3036:3039   */\n      0x80\n        /* \"#utility.yul\":3027:3033   */\n      dup3\n        /* \"#utility.yul\":3022:3025   */\n      dup5\n        /* \"#utility.yul\":3018:3034   */\n      sub\n        /* \"#utility.yul\":3014:3040   */\n      slt\n        /* \"#utility.yul\":3011:3057   */\n      iszero\n      tag_399\n      jumpi\n        /* \"#utility.yul\":3053:3054   */\n      0x00\n        /* \"#utility.yul\":3050:3051   */\n      0x00\n        /* \"#utility.yul\":3043:3055   */\n      revert\n        /* \"#utility.yul\":3011:3057   */\n    tag_399:\n      pop\n        /* \"#utility.yul\":3075:3081   */\n      swap2\n        /* \"#utility.yul\":2928:3087   */\n      swap1\n      pop\n      jump\t// out\n        /* \"#utility.yul\":3092:3451   */\n    tag_85:\n        /* \"#utility.yul\":3190:3196   */\n      0x00\n        /* \"#utility.yul\":3198:3204   */\n      0x00\n        /* \"#utility.yul\":3251:3254   */\n      0xa0\n        /* \"#utility.yul\":3239:3248   */\n      dup4\n        /* \"#utility.yul\":3230:3237   */\n      dup6\n        /* \"#utility.yul\":3226:3249   */\n      sub\n        /* \"#utility.yul\":3222:3255   */\n      slt\n        /* \"#utility.yul\":3219:3272   */\n      iszero\n      tag_401\n      jumpi\n        /* \"#utility.yul\":3268:3269   */\n      0x00\n        /* \"#utility.yul\":3265:3266   */\n      0x00\n        /* \"#utility.yul\":3258:3270   */\n      revert\n        /* \"#utility.yul\":3219:3272   */\n    tag_401:\n        /* \"#utility.yul\":3313:3336   */\n      dup3\n      calldataload\n      swap2\n      pop\n        /* \"#utility.yul\":3379:3445   */\n      tag_381\n        /* \"#utility.yul\":3437:3444   */\n      dup5\n        /* \"#utility.yul\":3432:3434   */\n      0x20\n        /* \"#utility.yul\":3417:3435   */\n      dup6\n      add\n        /* \"#utility.yul\":3379:3445   */\n      tag_370\n      jump\t// in\n        /* \"#utility.yul\":3456:3830   */\n    tag_91:\n        /* \"#utility.yul\":3533:3539   */\n      0x00\n        /* \"#utility.yul\":3541:3547   */\n      0x00\n        /* \"#utility.yul\":3549:3555   */\n      0x00\n        /* \"#utility.yul\":3602:3604   */\n      0x60\n        /* \"#utility.yul\":3590:3599   */\n      dup5\n        /* \"#utility.yul\":3581:3588   */\n      dup7\n        /* \"#utility.yul\":3577:3600   */\n      sub\n        /* \"#utility.yul\":3573:3605   */\n      slt\n        /* \"#utility.yul\":3570:3622   */\n      iszero\n      tag_404\n      jumpi\n        /* \"#utility.yul\":3618:3619   */\n      0x00\n        /* \"#utility.yul\":3615:3616   */\n      0x00\n        /* \"#utility.yul\":3608:3620   */\n      revert\n        /* \"#utility.yul\":3570:3622   */\n    tag_404:\n        /* \"#utility.yul\":3641:3670   */\n      tag_405\n        /* \"#utility.yul\":3660:3669   */\n      dup5\n        /* \"#utility.yul\":3641:3670   */\n      tag_369\n      jump\t// in\n    tag_405:\n        /* \"#utility.yul\":3631:3670   */\n      swap3\n      pop\n        /* \"#utility.yul\":3689:3727   */\n      tag_406\n        /* \"#utility.yul\":3723:3725   */\n      0x20\n        /* \"#utility.yul\":3712:3721   */\n      dup6\n        /* \"#utility.yul\":3708:3726   */\n      add\n        /* \"#utility.yul\":3689:3727   */\n      tag_369\n      jump\t// in\n    tag_406:\n        /* \"#utility.yul\":3456:3830   */\n      swap3\n      swap6\n        /* \"#utility.yul\":3679:3727   */\n      swap3\n      swap5\n      pop\n      pop\n      pop\n        /* \"#utility.yul\":3796:3798   */\n      0x40\n        /* \"#utility.yul\":3781:3799   */\n      swap2\n      swap1\n      swap2\n      add\n        /* \"#utility.yul\":3768:3800   */\n      calldataload\n      swap1\n        /* \"#utility.yul\":3456:3830   */\n      jump\t// out\n        /* \"#utility.yul\":4650:4836   */\n    tag_134:\n        /* \"#utility.yul\":4709:4715   */\n      0x00\n        /* \"#utility.yul\":4762:4764   */\n      0x20\n        /* \"#utility.yul\":4750:4759   */\n      dup3\n        /* \"#utility.yul\":4741:4748   */\n      dup5\n        /* \"#utility.yul\":4737:4760   */\n      sub\n        /* \"#utility.yul\":4733:4765   */\n      slt\n        /* \"#utility.yul\":4730:4782   */\n      iszero\n      tag_412\n      jumpi\n        /* \"#utility.yul\":4778:4779   */\n      0x00\n        /* \"#utility.yul\":4775:4776   */\n      0x00\n        /* \"#utility.yul\":4768:4780   */\n      revert\n        /* \"#utility.yul\":4730:4782   */\n    tag_412:\n        /* \"#utility.yul\":4801:4830   */\n      tag_250\n        /* \"#utility.yul\":4820:4829   */\n      dup3\n        /* \"#utility.yul\":4801:4830   */\n      tag_369\n      jump\t// in\n        /* \"#utility.yul\":5049:5205   */\n    tag_371:\n        /* \"#utility.yul\":5115:5135   */\n      dup1\n      calldataload\n        /* \"#utility.yul\":5175:5179   */\n      0xff\n        /* \"#utility.yul\":5164:5180   */\n      dup2\n      and\n        /* \"#utility.yul\":5154:5181   */\n      dup2\n      eq\n        /* \"#utility.yul\":5144:5199   */\n      tag_272\n      jumpi\n        /* \"#utility.yul\":5195:5196   */\n      0x00\n        /* \"#utility.yul\":5192:5193   */\n      0x00\n        /* \"#utility.yul\":5185:5197   */\n      revert\n        /* \"#utility.yul\":5210:6018   */\n    tag_181:\n        /* \"#utility.yul\":5321:5327   */\n      0x00\n        /* \"#utility.yul\":5329:5335   */\n      0x00\n        /* \"#utility.yul\":5337:5343   */\n      0x00\n        /* \"#utility.yul\":5345:5351   */\n      0x00\n        /* \"#utility.yul\":5353:5359   */\n      0x00\n        /* \"#utility.yul\":5361:5367   */\n      0x00\n        /* \"#utility.yul\":5369:5375   */\n      0x00\n        /* \"#utility.yul\":5422:5425   */\n      0xe0\n        /* \"#utility.yul\":5410:5419   */\n      dup9\n        /* \"#utility.yul\":5401:5408   */\n      dup11\n        /* \"#utility.yul\":5397:5420   */\n      sub\n        /* \"#utility.yul\":5393:5426   */\n      slt\n        /* \"#utility.yul\":5390:5443   */\n      iszero\n      tag_418\n      jumpi\n        /* \"#utility.yul\":5439:5440   */\n      0x00\n        /* \"#utility.yul\":5436:5437   */\n      0x00\n        /* \"#utility.yul\":5429:5441   */\n      revert\n        /* \"#utility.yul\":5390:5443   */\n    tag_418:\n        /* \"#utility.yul\":5462:5491   */\n      tag_419\n        /* \"#utility.yul\":5481:5490   */\n      dup9\n        /* \"#utility.yul\":5462:5491   */\n      tag_369\n      jump\t// in\n    tag_419:\n        /* \"#utility.yul\":5452:5491   */\n      swap7\n      pop\n        /* \"#utility.yul\":5510:5548   */\n      tag_420\n        /* \"#utility.yul\":5544:5546   */\n      0x20\n        /* \"#utility.yul\":5533:5542   */\n      dup10\n        /* \"#utility.yul\":5529:5547   */\n      add\n        /* \"#utility.yul\":5510:5548   */\n      tag_369\n      jump\t// in\n    tag_420:\n        /* \"#utility.yul\":5500:5548   */\n      swap6\n      pop\n        /* \"#utility.yul\":5617:5619   */\n      0x40\n        /* \"#utility.yul\":5602:5620   */\n      dup9\n      add\n        /* \"#utility.yul\":5589:5621   */\n      calldataload\n      swap5\n      pop\n        /* \"#utility.yul\":5718:5720   */\n      0x60\n        /* \"#utility.yul\":5703:5721   */\n      dup9\n      add\n        /* \"#utility.yul\":5690:5722   */\n      calldataload\n      swap4\n      pop\n        /* \"#utility.yul\":5767:5804   */\n      tag_421\n        /* \"#utility.yul\":5799:5802   */\n      0x80\n        /* \"#utility.yul\":5784:5803   */\n      dup10\n      add\n        /* \"#utility.yul\":5767:5804   */\n      tag_371\n      jump\t// in\n    tag_421:\n        /* \"#utility.yul\":5210:6018   */\n      swap7\n      swap10\n      swap6\n      swap9\n      pop\n      swap4\n      swap7\n      swap3\n      swap6\n        /* \"#utility.yul\":5757:5804   */\n      swap5\n        /* \"#utility.yul\":5877:5880   */\n      0xa0\n        /* \"#utility.yul\":5862:5881   */\n      dup5\n      add\n        /* \"#utility.yul\":5849:5882   */\n      calldataload\n      swap5\n      pop\n        /* \"#utility.yul\":5981:5984   */\n      0xc0\n        /* \"#utility.yul\":5966:5985   */\n      swap1\n      swap4\n      add\n        /* \"#utility.yul\":5953:5986   */\n      calldataload\n      swap3\n        /* \"#utility.yul\":5210:6018   */\n      swap2\n      pop\n      pop\n      jump\t// out\n        /* \"#utility.yul\":6023:6283   */\n    tag_186:\n        /* \"#utility.yul\":6091:6097   */\n      0x00\n        /* \"#utility.yul\":6099:6105   */\n      0x00\n        /* \"#utility.yul\":6152:6154   */\n      0x40\n        /* \"#utility.yul\":6140:6149   */\n      dup4\n        /* \"#utility.yul\":6131:6138   */\n      dup6\n        /* \"#utility.yul\":6127:6150   */\n      sub\n        /* \"#utility.yul\":6123:6155   */\n      slt\n        /* \"#utility.yul\":6120:6172   */\n      iszero\n      tag_423\n      jumpi\n        /* \"#utility.yul\":6168:6169   */\n      0x00\n        /* \"#utility.yul\":6165:6166   */\n      0x00\n        /* \"#utility.yul\":6158:6170   */\n      revert\n        /* \"#utility.yul\":6120:6172   */\n    tag_423:\n        /* \"#utility.yul\":6191:6220   */\n      tag_424\n        /* \"#utility.yul\":6210:6219   */\n      dup4\n        /* \"#utility.yul\":6191:6220   */\n      tag_369\n      jump\t// in\n    tag_424:\n        /* \"#utility.yul\":6181:6220   */\n      swap2\n      pop\n        /* \"#utility.yul\":6239:6277   */\n      tag_381\n        /* \"#utility.yul\":6273:6275   */\n      0x20\n        /* \"#utility.yul\":6262:6271   */\n      dup5\n        /* \"#utility.yul\":6258:6276   */\n      add\n        /* \"#utility.yul\":6239:6277   */\n      tag_369\n      jump\t// in\n        /* \"#utility.yul\":6288:6721   */\n    tag_192:\n        /* \"#utility.yul\":6395:6401   */\n      0x00\n        /* \"#utility.yul\":6403:6409   */\n      0x00\n        /* \"#utility.yul\":6411:6417   */\n      0x00\n        /* \"#utility.yul\":6464:6467   */\n      0xc0\n        /* \"#utility.yul\":6452:6461   */\n      dup5\n        /* \"#utility.yul\":6443:6450   */\n      dup7\n        /* \"#utility.yul\":6439:6462   */\n      sub\n        /* \"#utility.yul\":6435:6468   */\n      slt\n        /* \"#utility.yul\":6432:6485   */\n      iszero\n      tag_427\n      jumpi\n        /* \"#utility.yul\":6481:6482   */\n      0x00\n        /* \"#utility.yul\":6478:6479   */\n      0x00\n        /* \"#utility.yul\":6471:6483   */\n      revert\n        /* \"#utility.yul\":6432:6485   */\n    tag_427:\n        /* \"#utility.yul\":6526:6549   */\n      dup4\n      calldataload\n      swap3\n      pop\n        /* \"#utility.yul\":6592:6630   */\n      tag_428\n        /* \"#utility.yul\":6626:6628   */\n      0x20\n        /* \"#utility.yul\":6611:6629   */\n      dup6\n      add\n        /* \"#utility.yul\":6592:6630   */\n      tag_369\n      jump\t// in\n    tag_428:\n        /* \"#utility.yul\":6582:6630   */\n      swap2\n      pop\n        /* \"#utility.yul\":6649:6715   */\n      tag_429\n        /* \"#utility.yul\":6707:6714   */\n      dup6\n        /* \"#utility.yul\":6702:6704   */\n      0x40\n        /* \"#utility.yul\":6691:6700   */\n      dup7\n        /* \"#utility.yul\":6687:6705   */\n      add\n        /* \"#utility.yul\":6649:6715   */\n      tag_370\n      jump\t// in\n    tag_429:\n        /* \"#utility.yul\":6639:6715   */\n      swap1\n      pop\n        /* \"#utility.yul\":6288:6721   */\n      swap3\n      pop\n      swap3\n      pop\n      swap3\n      jump\t// out\n        /* \"#utility.yul\":6726:7106   */\n    tag_206:\n        /* \"#utility.yul\":6805:6806   */\n      0x01\n        /* \"#utility.yul\":6801:6813   */\n      dup2\n      dup2\n      shr\n      swap1\n        /* \"#utility.yul\":6848:6860   */\n      dup3\n      and\n      dup1\n        /* \"#utility.yul\":6869:6930   */\n      tag_431\n      jumpi\n        /* \"#utility.yul\":6923:6927   */\n      0x7f\n        /* \"#utility.yul\":6915:6921   */\n      dup3\n        /* \"#utility.yul\":6911:6928   */\n      and\n        /* \"#utility.yul\":6901:6928   */\n      swap2\n      pop\n        /* \"#utility.yul\":6869:6930   */\n    tag_431:\n        /* \"#utility.yul\":6976:6978   */\n      0x20\n        /* \"#utility.yul\":6968:6974   */\n      dup3\n        /* \"#utility.yul\":6965:6979   */\n      lt\n        /* \"#utility.yul\":6945:6963   */\n      dup2\n        /* \"#utility.yul\":6942:6980   */\n      sub\n        /* \"#utility.yul\":6939:7100   */\n      tag_399\n      jumpi\n        /* \"#utility.yul\":7022:7032   */\n      0x4e487b71\n        /* \"#utility.yul\":7017:7020   */\n      0xe0\n        /* \"#utility.yul\":7013:7033   */\n      shl\n        /* \"#utility.yul\":7010:7011   */\n      0x00\n        /* \"#utility.yul\":7003:7034   */\n      mstore\n        /* \"#utility.yul\":7057:7061   */\n      0x22\n        /* \"#utility.yul\":7054:7055   */\n      0x04\n        /* \"#utility.yul\":7047:7062   */\n      mstore\n        /* \"#utility.yul\":7085:7089   */\n      0x24\n        /* \"#utility.yul\":7082:7083   */\n      0x00\n        /* \"#utility.yul\":7075:7090   */\n      revert\n        /* \"#utility.yul\":7111:7238   */\n    tag_372:\n        /* \"#utility.yul\":7172:7182   */\n      0x4e487b71\n        /* \"#utility.yul\":7167:7170   */\n      0xe0\n        /* \"#utility.yul\":7163:7183   */\n      shl\n        /* \"#utility.yul\":7160:7161   */\n      0x00\n        /* \"#utility.yul\":7153:7184   */\n      mstore\n        /* \"#utility.yul\":7203:7207   */\n      0x11\n        /* \"#utility.yul\":7200:7201   */\n      0x04\n        /* \"#utility.yul\":7193:7208   */\n      mstore\n        /* \"#utility.yul\":7227:7231   */\n      0x24\n        /* \"#utility.yul\":7224:7225   */\n      0x00\n        /* \"#utility.yul\":7217:7232   */\n      revert\n        /* \"#utility.yul\":7243:7460   */\n    tag_214:\n        /* \"#utility.yul\":7283:7284   */\n      0x00\n        /* \"#utility.yul\":7309:7310   */\n      dup3\n        /* \"#utility.yul\":7299:7431   */\n      tag_435\n      jumpi\n        /* \"#utility.yul\":7353:7363   */\n      0x4e487b71\n        /* \"#utility.yul\":7348:7351   */\n      0xe0\n        /* \"#utility.yul\":7344:7364   */\n      shl\n        /* \"#utility.yul\":7341:7342   */\n      0x00\n        /* \"#utility.yul\":7334:7365   */\n      mstore\n        /* \"#utility.yul\":7388:7392   */\n      0x12\n        /* \"#utility.yul\":7385:7386   */\n      0x04\n        /* \"#utility.yul\":7378:7393   */\n      mstore\n        /* \"#utility.yul\":7416:7420   */\n      0x24\n        /* \"#utility.yul\":7413:7414   */\n      0x00\n        /* \"#utility.yul\":7406:7421   */\n      revert\n        /* \"#utility.yul\":7299:7431   */\n    tag_435:\n      pop\n        /* \"#utility.yul\":7445:7454   */\n      div\n      swap1\n        /* \"#utility.yul\":7243:7460   */\n      jump\t// out\n        /* \"#utility.yul\":7465:7590   */\n    tag_216:\n        /* \"#utility.yul\":7530:7539   */\n      dup1\n      dup3\n      add\n        /* \"#utility.yul\":7551:7561   */\n      dup1\n      dup3\n      gt\n        /* \"#utility.yul\":7548:7584   */\n      iszero\n      tag_225\n      jumpi\n        /* \"#utility.yul\":7564:7582   */\n      tag_225\n      tag_372\n      jump\t// in\n        /* \"#utility.yul\":7805:8076   */\n    tag_235:\n        /* \"#utility.yul\":7988:7994   */\n      dup2\n        /* \"#utility.yul\":7980:7986   */\n      dup4\n        /* \"#utility.yul\":7975:7978   */\n      dup3\n        /* \"#utility.yul\":7962:7995   */\n      calldatacopy\n        /* \"#utility.yul\":7944:7947   */\n      0x00\n        /* \"#utility.yul\":8014:8030   */\n      swap2\n      add\n        /* \"#utility.yul\":8039:8052   */\n      swap1\n      dup2\n      mstore\n        /* \"#utility.yul\":8014:8030   */\n      swap2\n        /* \"#utility.yul\":7805:8076   */\n      swap1\n      pop\n      jump\t// out\n        /* \"#utility.yul\":8081:8263   */\n    tag_244:\n        /* \"#utility.yul\":8138:8144   */\n      0x00\n        /* \"#utility.yul\":8191:8193   */\n      0x20\n        /* \"#utility.yul\":8179:8188   */\n      dup3\n        /* \"#utility.yul\":8170:8177   */\n      dup5\n        /* \"#utility.yul\":8166:8189   */\n      sub\n        /* \"#utility.yul\":8162:8194   */\n      slt\n        /* \"#utility.yul\":8159:8211   */\n      iszero\n      tag_442\n      jumpi\n        /* \"#utility.yul\":8207:8208   */\n      0x00\n        /* \"#utility.yul\":8204:8205   */\n      0x00\n        /* \"#utility.yul\":8197:8209   */\n      revert\n        /* \"#utility.yul\":8159:8211   */\n    tag_442:\n        /* \"#utility.yul\":8230:8257   */\n      tag_250\n        /* \"#utility.yul\":8247:8256   */\n      dup3\n        /* \"#utility.yul\":8230:8257   */\n      tag_371\n      jump\t// in\n        /* \"#utility.yul\":8268:8934   */\n    tag_246:\n      sub(shl(0xa0, 0x01), 0x01)\n        /* \"#utility.yul\":8597:8629   */\n      swap8\n      dup9\n      and\n        /* \"#utility.yul\":8579:8630   */\n      dup2\n      mstore\n        /* \"#utility.yul\":8666:8698   */\n      swap6\n      swap1\n      swap7\n      and\n        /* \"#utility.yul\":8661:8663   */\n      0x20\n        /* \"#utility.yul\":8646:8664   */\n      dup7\n      add\n        /* \"#utility.yul\":8639:8699   */\n      mstore\n        /* \"#utility.yul\":8730:8732   */\n      0x40\n        /* \"#utility.yul\":8715:8733   */\n      dup6\n      add\n        /* \"#utility.yul\":8708:8742   */\n      swap4\n      swap1\n      swap4\n      mstore\n        /* \"#utility.yul\":8773:8775   */\n      0x60\n        /* \"#utility.yul\":8758:8776   */\n      dup5\n      add\n        /* \"#utility.yul\":8751:8785   */\n      swap2\n      swap1\n      swap2\n      mstore\n        /* \"#utility.yul\":8834:8838   */\n      0xff\n        /* \"#utility.yul\":8822:8839   */\n      and\n        /* \"#utility.yul\":8816:8819   */\n      0x80\n        /* \"#utility.yul\":8801:8820   */\n      dup4\n      add\n        /* \"#utility.yul\":8794:8840   */\n      mstore\n        /* \"#utility.yul\":8617:8620   */\n      0xa0\n        /* \"#utility.yul\":8856:8875   */\n      dup3\n      add\n        /* \"#utility.yul\":8849:8884   */\n      mstore\n        /* \"#utility.yul\":8915:8918   */\n      0xc0\n        /* \"#utility.yul\":8900:8919   */\n      dup2\n      add\n        /* \"#utility.yul\":8893:8928   */\n      swap2\n      swap1\n      swap2\n      mstore\n        /* \"#utility.yul\":8566:8569   */\n      0xe0\n        /* \"#utility.yul\":8551:8570   */\n      add\n      swap1\n        /* \"#utility.yul\":8268:8934   */\n      jump\t// out\n        /* \"#utility.yul\":8939:9107   */\n    tag_270:\n        /* \"#utility.yul\":9012:9021   */\n      dup1\n      dup3\n      mul\n        /* \"#utility.yul\":9043:9052   */\n      dup2\n      iszero\n        /* \"#utility.yul\":9060:9075   */\n      dup3\n      dup3\n      div\n        /* \"#utility.yul\":9054:9076   */\n      dup5\n      eq\n        /* \"#utility.yul\":9040:9077   */\n      or\n        /* \"#utility.yul\":9030:9101   */\n      tag_225\n      jumpi\n        /* \"#utility.yul\":9081:9099   */\n      tag_225\n      tag_372\n      jump\t// in\n        /* \"#utility.yul\":9112:9240   */\n    tag_290:\n        /* \"#utility.yul\":9179:9188   */\n      dup2\n      dup2\n      sub\n        /* \"#utility.yul\":9200:9211   */\n      dup2\n      dup2\n      gt\n        /* \"#utility.yul\":9197:9234   */\n      iszero\n      tag_225\n      jumpi\n        /* \"#utility.yul\":9214:9232   */\n      tag_225\n      tag_372\n      jump\t// in\n    stop\n    data_ada389e1fc24a8587c776340efb91b36e675792ab631816100d55df0b5cf3cbc ddf252ad1be2c89b69c2b068fc378daa952ba7f163c4a11628f55a4df523b3ef\n\n    auxdata: 0xa264697066735822122006fc88bfe29930f3fc1f8b115dd90b9b508489d8fed4681b4c2cac0f87a5c05564736f6c634300081c0033\n}\n",
				"bytecode": {
					"linkReferences": {},
					"object": "610120604052425f5542600155348015610017575f5ffd5b50604051611878380380611878833981016040819052610036916101d2565b8261004c6201518067016345785d8a0000610254565b670de0b6b3a76400006100626201518082610254565b306080526001600160801b0392831660a05290821660c0521660e05267016345785d8a0000610100526001600160a01b0381166100b857604051631e4fbdf760e01b81525f600482015260240160405180910390fd5b6100c1816100e4565b5060036100ce8382610312565b5060046100db8282610312565b505050506103cc565b600280546001600160a01b038381166001600160a01b0319831681179093556040519116919082907f8be0079c531659141344cd1fd0a4f28419497f9722a3daafe3b4186f6b6457e0905f90a35050565b634e487b7160e01b5f52604160045260245ffd5b5f82601f830112610158575f5ffd5b81516001600160401b0381111561017157610171610135565b604051601f8201601f19908116603f011681016001600160401b038111828210171561019f5761019f610135565b6040528181528382016020018510156101b6575f5ffd5b8160208501602083015e5f918101602001919091529392505050565b5f5f5f606084860312156101e4575f5ffd5b83516001600160a01b03811681146101fa575f5ffd5b60208501519093506001600160401b03811115610215575f5ffd5b61022186828701610149565b604086015190935090506001600160401b0381111561023e575f5ffd5b61024a86828701610149565b9150509250925092565b5f6001600160801b0383168061027857634e487b7160e01b5f52601260045260245ffd5b6001600160801b03929092169190910492915050565b600181811c908216806102a257607f821691505b6020821081036102c057634e487b7160e01b5f52602260045260245ffd5b50919050565b601f82111561030d57805f5260205f20601f840160051c810160208510156102eb5750805b601f840160051c820191505b8181101561030a575f81556001016102f7565b50505b505050565b81516001600160401b0381111561032b5761032b610135565b61033f81610339845461028e565b846102c6565b6020601f821160018114610371575f831561035a5750848201515b5f19600385901b1c1916600184901b17845561030a565b5f84815260208120601f198516915b828110156103a05787850151825560209485019460019092019101610380565b50848210156103bd57868401515f19600387901b60f8161c191681555b50505050600190811b01905550565b60805160a05160c05160e051610100516114376104415f395f818161057c0152610e6501525f818161041201528181610acd0152610bdc01525f818161037c01526109e701525f8181610459015281816107120152610b2401525f81816103c7015281816108900152610db101526114375ff3fe6080604052600436106101e6575f3560e01c80634d01629511610108578063a9059cbb1161009d578063d505accf1161006d578063d505accf146105b9578063dd62ed3e146105d8578063de899d1f1461060c578063ea6b80b71461062b578063f2fde38b1461064a575f5ffd5b8063a9059cbb1461054c578063ad3309671461056b578063aea1e3d11461059e578063bc710575146105a6575f5ffd5b806381f2d34e116100d857806381f2d34e146104f35780638da5cb5b1461050757806395d89b411461052457806396a3958d14610538575f5ffd5b80634d0162951461044857806370a082311461047b578063715018a6146104ac5780637ecebe00146104c2575f5ffd5b806323b872dd1161017e578063367ada101161014e578063367ada101461036b57806338d52e0f146103b65780633aeeade814610401578063421c6a8a14610434575f5ffd5b806323b872dd146102fe57806325d1782d1461031d578063313ce5671461033c5780633644e51514610357575f5ffd5b806310ab2d01116101b957806310ab2d0114610285578063127d0409146102a457806318160ddd146102c357806319cdf284146102df575f5ffd5b806306fdde03146101ea57806308e3069814610214578063095ea7b3146102415780630f2a403f14610270575b5f5ffd5b3480156101f5575f5ffd5b506101fe610669565b60405161020b919061105f565b60405180910390f35b34801561021f575f5ffd5b5061023361022e366004611087565b6106f9565b60405190815260200161020b565b34801561024c575f5ffd5b5061026061025b3660046110b1565b6107b9565b604051901515815260200161020b565b34801561027b575f5ffd5b5061023360015481565b348015610290575f5ffd5b506101fe61029f3660046110d9565b610809565b3480156102af575f5ffd5b506102336102be36600461115c565b61087a565b3480156102ce575f5ffd5b506805345cdf77eb68f44c54610233565b3480156102ea575f5ffd5b506102336102f9366004611189565b610885565b348015610309575f5ffd5b506102606103183660046111ab565b610933565b348015610328575f5ffd5b5061023361033736600461115c565b6109d8565b348015610347575f5ffd5b506040516012815260200161020b565b348015610362575f5ffd5b50610233610a3b565b348015610376575f5ffd5b5061039e7f000000000000000000000000000000000000000000000000000000000000000081565b6040516001600160801b03909116815260200161020b565b3480156103c1575f5ffd5b506103e97f000000000000000000000000000000000000000000000000000000000000000081565b6040516001600160a01b03909116815260200161020b565b34801561040c575f5ffd5b5061039e7f000000000000000000000000000000000000000000000000000000000000000081565b34801561043f575f5ffd5b506102335f5481565b348015610453575f5ffd5b5061039e7f000000000000000000000000000000000000000000000000000000000000000081565b348015610486575f5ffd5b506102336104953660046111e5565b6387a211a2600c9081525f91909152602090205490565b3480156104b7575f5ffd5b506104c0610ab7565b005b3480156104cd575f5ffd5b506102336104dc3660046111e5565b6338377508600c9081525f91909152602090205490565b3480156104fe575f5ffd5b50610233610aca565b348015610512575f5ffd5b506002546001600160a01b03166103e9565b34801561052f575f5ffd5b506101fe610b12565b348015610543575f5ffd5b50610233610b21565b348015610557575f5ffd5b506102606105663660046110b1565b610b59565b348015610576575f5ffd5b5061039e7f000000000000000000000000000000000000000000000000000000000000000081565b610233610bbd565b6102336105b43660046111e5565b610bc3565b3480156105c4575f5ffd5b506104c06105d336600461120e565b610c22565b3480156105e3575f5ffd5b506102336105f2366004611274565b602052637f5e9f20600c9081525f91909152603490205490565b348015610617575f5ffd5b5061023361062636600461129c565b610da6565b348015610636575f5ffd5b5061023361064536600461115c565b610e56565b348015610655575f5ffd5b506104c06106643660046111e5565b610ea7565b606060038054610678906112d6565b80601f01602080910402602001604051908101604052809291908181526020018280546106a4906112d6565b80156106ef5780601f106106c6576101008083540402835291602001916106ef565b820191905f5260205f20905b8154815290600101906020018083116106d257829003601f168201915b5050505050905090565b5f610703836109d8565b90506107386001600160801b037f0000000000000000000000000000000000000000000000000000000000000000168261131c565b5f5f828254610747919061133b565b9091555061075790503384610ee9565b5f826001600160a01b0316826040515f6040518083038185875af1925050503d805f81146107a0576040519150601f19603f3d011682016040523d82523d5f602084013e6107a5565b606091505b50509050806107b2575f5ffd5b5092915050565b5f82602052637f5e9f20600c52335f52816034600c2055815f52602c5160601c337f8c5be1e5ebec7d5bd14f71427d1e84f3dd0314c0f7b2291e5b200ac8c7c3b92560205fa35060015b92915050565b6060610813610f4a565b5f856001600160a01b031685858560405161082f92919061134e565b5f6040518083038185875af1925050503d805f8114610869576040519150601f19603f3d011682016040523d82523d5f602084013e61086e565b606091505b50979650505050505050565b5f61080382336106f9565b5f6001600160a01b037f00000000000000000000000000000000000000000000000000000000000000001663d505accf33308686356108ca6040890160208a0161135d565b886040013589606001356040518863ffffffff1660e01b81526004016108f69796959493929190611376565b5f604051808303815f87803b15801561090d575f5ffd5b505af115801561091f573d5f5f3e3d5ffd5b5050505061092c8361087a565b9392505050565b5f8360601b33602052637f5e9f208117600c526034600c20805480191561096f5780851115610969576313be252b5f526004601cfd5b84810382555b50506387a211a28117600c526020600c208054808511156109975763f4d678b85f526004601cfd5b84810382555050835f526020600c208381540181555082602052600c5160601c8160601c5f5160206113e25f395f51905f52602080a3505060019392505050565b5f610a0c826001600160801b037f00000000000000000000000000000000000000000000000000000000000000001661133b565b82610a15610b21565b610a1f91906113b7565b610a29919061131c565b905080471015610a365750475b919050565b5f80610a45610669565b805190602001209050604080517f8b73c3c69bb8fe3d512ecc4cf759cc79239f7b179b0ffacaa9a75d522b39400f815260208101929092527fc89efdaa54c0f20c7adf612882df0950f5a951637e0307cdcb4c672f298b8bc69082015246606082015230608082015260a09020919050565b610abf610f4a565b610ac85f610f77565b565b5f7f00000000000000000000000000000000000000000000000000000000000000006001600160801b031660015442610b0391906113ce565b610b0d91906113b7565b905090565b606060048054610678906112d6565b5f7f00000000000000000000000000000000000000000000000000000000000000006001600160801b03165f5442610b0391906113ce565b5f6387a211a2600c52335f526020600c20805480841115610b815763f4d678b85f526004601cfd5b83810382555050825f526020600c208281540181555081602052600c5160601c335f5160206113e25f395f51905f52602080a350600192915050565b5f610b0d335b5f610bcd34610e56565b9050610c026001600160801b037f0000000000000000000000000000000000000000000000000000000000000000168261131c565b60015f828254610c12919061133b565b90915550610a3690508282610fc8565b5f610c2b610669565b8051906020012090507fc89efdaa54c0f20c7adf612882df0950f5a951637e0307cdcb4c672f298b8bc642861015610c6a57631a15a3cc5f526004601cfd5b6040518960601b60601c99508860601b60601c985065383775081901600e52895f526020600c2080547f8b73c3c69bb8fe3d512ecc4cf759cc79239f7b179b0ffacaa9a75d522b39400f835284602084015283604084015246606084015230608084015260a08320602e527f6e71edae12b1b97f4d1f60370fef10105fa2faae0126114a169c64845d6126c983528b60208401528a60408401528960608401528060808401528860a084015260c08320604e526042602c205f528760ff16602052866040528560605260208060805f60015afa8c3d5114610d525763ddafbaef5f526004601cfd5b0190556303faf4f960a51b89176040526034602c20889055888a7f8c5be1e5ebec7d5bd14f71427d1e84f3dd0314c0f7b2291e5b200ac8c7c3b925602060608501a360405250505f60605250505050505050565b5f6001600160a01b037f00000000000000000000000000000000000000000000000000000000000000001663d505accf3330878635610deb6040890160208a0161135d565b886040013589606001356040518863ffffffff1660e01b8152600401610e179796959493929190611376565b5f604051808303815f87803b158015610e2e575f5ffd5b505af1158015610e40573d5f5f3e3d5ffd5b50505050610e4e84846106f9565b949350505050565b5f610e8a826001600160801b037f00000000000000000000000000000000000000000000000000000000000000001661133b565b82610e93610aca565b610e9d91906113b7565b610803919061131c565b610eaf610f4a565b6001600160a01b038116610edd57604051631e4fbdf760e01b81525f60048201526024015b60405180910390fd5b610ee681610f77565b50565b6387a211a2600c52815f526020600c20805480831115610f105763f4d678b85f526004601cfd5b82900390556805345cdf77eb68f44c805482900390555f8181526001600160a01b0383165f5160206113e25f395f51905f52602083a35050565b6002546001600160a01b03163314610ac85760405163118cdaa760e01b8152336004820152602401610ed4565b600280546001600160a01b038381166001600160a01b0319831681179093556040519116919082907f8be0079c531659141344cd1fd0a4f28419497f9722a3daafe3b4186f6b6457e0905f90a35050565b6805345cdf77eb68f44c5481810181811015610feb5763e5cfe9575f526004601cfd5b806805345cdf77eb68f44c5550506387a211a2600c52815f526020600c208181540181555080602052600c5160601c5f5f5160206113e25f395f51905f52602080a35050565b5f81518084528060208401602086015e5f602082860101526020601f19601f83011685010191505092915050565b602081525f61092c6020830184611031565b80356001600160a01b0381168114610a36575f5ffd5b5f5f60408385031215611098575f5ffd5b823591506110a860208401611071565b90509250929050565b5f5f604083850312156110c2575f5ffd5b6110cb83611071565b946020939093013593505050565b5f5f5f5f606085870312156110ec575f5ffd5b6110f585611071565b935060208501359250604085013567ffffffffffffffff811115611117575f5ffd5b8501601f81018713611127575f5ffd5b803567ffffffffffffffff81111561113d575f5ffd5b87602082840101111561114e575f5ffd5b949793965060200194505050565b5f6020828403121561116c575f5ffd5b5035919050565b5f60808284031215611183575f5ffd5b50919050565b5f5f60a0838503121561119a575f5ffd5b823591506110a88460208501611173565b5f5f5f606084860312156111bd575f5ffd5b6111c684611071565b92506111d460208501611071565b929592945050506040919091013590565b5f602082840312156111f5575f5ffd5b61092c82611071565b803560ff81168114610a36575f5ffd5b5f5f5f5f5f5f5f60e0888a031215611224575f5ffd5b61122d88611071565b965061123b60208901611071565b95506040880135945060608801359350611257608089016111fe565b9699959850939692959460a0840135945060c09093013592915050565b5f5f60408385031215611285575f5ffd5b61128e83611071565b91506110a860208401611071565b5f5f5f60c084860312156112ae575f5ffd5b833592506112be60208501611071565b91506112cd8560408601611173565b90509250925092565b600181811c908216806112ea57607f821691505b60208210810361118357634e487b7160e01b5f52602260045260245ffd5b634e487b7160e01b5f52601160045260245ffd5b5f8261133657634e487b7160e01b5f52601260045260245ffd5b500490565b8082018082111561080357610803611308565b818382375f9101908152919050565b5f6020828403121561136d575f5ffd5b61092c826111fe565b6001600160a01b0397881681529590961660208601526040850193909352606084019190915260ff16608083015260a082015260c081019190915260e00190565b808202811582820484141761080357610803611308565b818103818111156108035761080361130856feddf252ad1be2c89b69c2b068fc378daa952ba7f163c4a11628f55a4df523b3efa264697066735822122006fc88bfe29930f3fc1f8b115dd90b9b508489d8fed4681b4c2cac0f87a5c05564736f6c634300081c0033",
					"opcodes": "PUSH2 0x120 PUSH1 0x40 MSTORE TIMESTAMP PUSH0 SSTORE TIMESTAMP PUSH1 0x1 SSTORE CALLVALUE DUP1 ISZERO PUSH2 0x17 JUMPI PUSH0 PUSH0 REVERT JUMPDEST POP PUSH1 0x40 MLOAD PUSH2 0x1878 CODESIZE SUB DUP1 PUSH2 0x1878 DUP4 CODECOPY DUP2 ADD PUSH1 0x40 DUP2 SWAP1 MSTORE PUSH2 0x36 SWAP2 PUSH2 0x1D2 JUMP JUMPDEST DUP3 PUSH2 0x4C PUSH3 0x15180 PUSH8 0x16345785D8A0000 PUSH2 0x254 JUMP JUMPDEST PUSH8 0xDE0B6B3A7640000 PUSH2 0x62 PUSH3 0x15180 DUP3 PUSH2 0x254 JUMP JUMPDEST ADDRESS PUSH1 0x80 MSTORE PUSH1 0x1 PUSH1 0x1 PUSH1 0x80 SHL SUB SWAP3 DUP4 AND PUSH1 0xA0 MSTORE SWAP1 DUP3 AND PUSH1 0xC0 MSTORE AND PUSH1 0xE0 MSTORE PUSH8 0x16345785D8A0000 PUSH2 0x100 MSTORE PUSH1 0x1 PUSH1 0x1 PUSH1 0xA0 SHL SUB DUP2 AND PUSH2 0xB8 JUMPI PUSH1 0x40 MLOAD PUSH4 0x1E4FBDF7 PUSH1 0xE0 SHL DUP2 MSTORE PUSH0 PUSH1 0x4 DUP3 ADD MSTORE PUSH1 0x24 ADD PUSH1 0x40 MLOAD DUP1 SWAP2 SUB SWAP1 REVERT JUMPDEST PUSH2 0xC1 DUP2 PUSH2 0xE4 JUMP JUMPDEST POP PUSH1 0x3 PUSH2 0xCE DUP4 DUP3 PUSH2 0x312 JUMP JUMPDEST POP PUSH1 0x4 PUSH2 0xDB DUP3 DUP3 PUSH2 0x312 JUMP JUMPDEST POP POP POP POP PUSH2 0x3CC JUMP JUMPDEST PUSH1 0x2 DUP1 SLOAD PUSH1 0x1 PUSH1 0x1 PUSH1 0xA0 SHL SUB DUP4 DUP2 AND PUSH1 0x1 PUSH1 0x1 PUSH1 0xA0 SHL SUB NOT DUP4 AND DUP2 OR SWAP1 SWAP4 SSTORE PUSH1 0x40 MLOAD SWAP2 AND SWAP2 SWAP1 DUP3 SWAP1 PUSH32 0x8BE0079C531659141344CD1FD0A4F28419497F9722A3DAAFE3B4186F6B6457E0 SWAP1 PUSH0 SWAP1 LOG3 POP POP JUMP JUMPDEST PUSH4 0x4E487B71 PUSH1 0xE0 SHL PUSH0 MSTORE PUSH1 0x41 PUSH1 0x4 MSTORE PUSH1 0x24 PUSH0 REVERT JUMPDEST PUSH0 DUP3 PUSH1 0x1F DUP4 ADD SLT PUSH2 0x158 JUMPI PUSH0 PUSH0 REVERT JUMPDEST DUP2 MLOAD PUSH1 0x1 PUSH1 0x1 PUSH1 0x40 SHL SUB DUP2 GT ISZERO PUSH2 0x171 JUMPI PUSH2 0x171 PUSH2 0x135 JUMP JUMPDEST PUSH1 0x40 MLOAD PUSH1 0x1F DUP3 ADD PUSH1 0x1F NOT SWAP1 DUP2 AND PUSH1 0x3F ADD AND DUP2 ADD PUSH1 0x1 PUSH1 0x1 PUSH1 0x40 SHL SUB DUP2 GT DUP3 DUP3 LT OR ISZERO PUSH2 0x19F JUMPI PUSH2 0x19F PUSH2 0x135 JUMP JUMPDEST PUSH1 0x40 MSTORE DUP2 DUP2 MSTORE DUP4 DUP3 ADD PUSH1 0x20 ADD DUP6 LT ISZERO PUSH2 0x1B6 JUMPI PUSH0 PUSH0 REVERT JUMPDEST DUP2 PUSH1 0x20 DUP6 ADD PUSH1 0x20 DUP4 ADD MCOPY PUSH0 SWAP2 DUP2 ADD PUSH1 0x20 ADD SWAP2 SWAP1 SWAP2 MSTORE SWAP4 SWAP3 POP POP POP JUMP JUMPDEST PUSH0 PUSH0 PUSH0 PUSH1 0x60 DUP5 DUP7 SUB SLT ISZERO PUSH2 0x1E4 JUMPI PUSH0 PUSH0 REVERT JUMPDEST DUP4 MLOAD PUSH1 0x1 PUSH1 0x1 PUSH1 0xA0 SHL SUB DUP2 AND DUP2 EQ PUSH2 0x1FA JUMPI PUSH0 PUSH0 REVERT JUMPDEST PUSH1 0x20 DUP6 ADD MLOAD SWAP1 SWAP4 POP PUSH1 0x1 PUSH1 0x1 PUSH1 0x40 SHL SUB DUP2 GT ISZERO PUSH2 0x215 JUMPI PUSH0 PUSH0 REVERT JUMPDEST PUSH2 0x221 DUP7 DUP3 DUP8 ADD PUSH2 0x149 JUMP JUMPDEST PUSH1 0x40 DUP7 ADD MLOAD SWAP1 SWAP4 POP SWAP1 POP PUSH1 0x1 PUSH1 0x1 PUSH1 0x40 SHL SUB DUP2 GT ISZERO PUSH2 0x23E JUMPI PUSH0 PUSH0 REVERT JUMPDEST PUSH2 0x24A DUP7 DUP3 DUP8 ADD PUSH2 0x149 JUMP JUMPDEST SWAP2 POP POP SWAP3 POP SWAP3 POP SWAP3 JUMP JUMPDEST PUSH0 PUSH1 0x1 PUSH1 0x1 PUSH1 0x80 SHL SUB DUP4 AND DUP1 PUSH2 0x278 JUMPI PUSH4 0x4E487B71 PUSH1 0xE0 SHL PUSH0 MSTORE PUSH1 0x12 PUSH1 0x4 MSTORE PUSH1 0x24 PUSH0 REVERT JUMPDEST PUSH1 0x1 PUSH1 0x1 PUSH1 0x80 SHL SUB SWAP3 SWAP1 SWAP3 AND SWAP2 SWAP1 SWAP2 DIV SWAP3 SWAP2 POP POP JUMP JUMPDEST PUSH1 0x1 DUP2 DUP2 SHR SWAP1 DUP3 AND DUP1 PUSH2 0x2A2 JUMPI PUSH1 0x7F DUP3 AND SWAP2 POP JUMPDEST PUSH1 0x20 DUP3 LT DUP2 SUB PUSH2 0x2C0 JUMPI PUSH4 0x4E487B71 PUSH1 0xE0 SHL PUSH0 MSTORE PUSH1 0x22 PUSH1 0x4 MSTORE PUSH1 0x24 PUSH0 REVERT JUMPDEST POP SWAP2 SWAP1 POP JUMP JUMPDEST PUSH1 0x1F DUP3 GT ISZERO PUSH2 0x30D JUMPI DUP1 PUSH0 MSTORE PUSH1 0x20 PUSH0 KECCAK256 PUSH1 0x1F DUP5 ADD PUSH1 0x5 SHR DUP2 ADD PUSH1 0x20 DUP6 LT ISZERO PUSH2 0x2EB JUMPI POP DUP1 JUMPDEST PUSH1 0x1F DUP5 ADD PUSH1 0x5 SHR DUP3 ADD SWAP2 POP JUMPDEST DUP2 DUP2 LT ISZERO PUSH2 0x30A JUMPI PUSH0 DUP2 SSTORE PUSH1 0x1 ADD PUSH2 0x2F7 JUMP JUMPDEST POP POP JUMPDEST POP POP POP JUMP JUMPDEST DUP2 MLOAD PUSH1 0x1 PUSH1 0x1 PUSH1 0x40 SHL SUB DUP2 GT ISZERO PUSH2 0x32B JUMPI PUSH2 0x32B PUSH2 0x135 JUMP JUMPDEST PUSH2 0x33F DUP2 PUSH2 0x339 DUP5 SLOAD PUSH2 0x28E JUMP JUMPDEST DUP5 PUSH2 0x2C6 JUMP JUMPDEST PUSH1 0x20 PUSH1 0x1F DUP3 GT PUSH1 0x1 DUP2 EQ PUSH2 0x371 JUMPI PUSH0 DUP4 ISZERO PUSH2 0x35A JUMPI POP DUP5 DUP3 ADD MLOAD JUMPDEST PUSH0 NOT PUSH1 0x3 DUP6 SWAP1 SHL SHR NOT AND PUSH1 0x1 DUP5 SWAP1 SHL OR DUP5 SSTORE PUSH2 0x30A JUMP JUMPDEST PUSH0 DUP5 DUP2 MSTORE PUSH1 0x20 DUP2 KECCAK256 PUSH1 0x1F NOT DUP6 AND SWAP2 JUMPDEST DUP3 DUP2 LT ISZERO PUSH2 0x3A0 JUMPI DUP8 DUP6 ADD MLOAD DUP3 SSTORE PUSH1 0x20 SWAP5 DUP6 ADD SWAP5 PUSH1 0x1 SWAP1 SWAP3 ADD SWAP2 ADD PUSH2 0x380 JUMP JUMPDEST POP DUP5 DUP3 LT ISZERO PUSH2 0x3BD JUMPI DUP7 DUP5 ADD MLOAD PUSH0 NOT PUSH1 0x3 DUP8 SWAP1 SHL PUSH1 0xF8 AND SHR NOT AND DUP2 SSTORE JUMPDEST POP POP POP POP PUSH1 0x1 SWAP1 DUP2 SHL ADD SWAP1 SSTORE POP JUMP JUMPDEST PUSH1 0x80 MLOAD PUSH1 0xA0 MLOAD PUSH1 0xC0 MLOAD PUSH1 0xE0 MLOAD PUSH2 0x100 MLOAD PUSH2 0x1437 PUSH2 0x441 PUSH0 CODECOPY PUSH0 DUP2 DUP2 PUSH2 0x57C ADD MSTORE PUSH2 0xE65 ADD MSTORE PUSH0 DUP2 DUP2 PUSH2 0x412 ADD MSTORE DUP2 DUP2 PUSH2 0xACD ADD MSTORE PUSH2 0xBDC ADD MSTORE PUSH0 DUP2 DUP2 PUSH2 0x37C ADD MSTORE PUSH2 0x9E7 ADD MSTORE PUSH0 DUP2 DUP2 PUSH2 0x459 ADD MSTORE DUP2 DUP2 PUSH2 0x712 ADD MSTORE PUSH2 0xB24 ADD MSTORE PUSH0 DUP2 DUP2 PUSH2 0x3C7 ADD MSTORE DUP2 DUP2 PUSH2 0x890 ADD MSTORE PUSH2 0xDB1 ADD MSTORE PUSH2 0x1437 PUSH0 RETURN INVALID PUSH1 0x80 PUSH1 0x40 MSTORE PUSH1 0x4 CALLDATASIZE LT PUSH2 0x1E6 JUMPI PUSH0 CALLDATALOAD PUSH1 0xE0 SHR DUP1 PUSH4 0x4D016295 GT PUSH2 0x108 JUMPI DUP1 PUSH4 0xA9059CBB GT PUSH2 0x9D JUMPI DUP1 PUSH4 0xD505ACCF GT PUSH2 0x6D JUMPI DUP1 PUSH4 0xD505ACCF EQ PUSH2 0x5B9 JUMPI DUP1 PUSH4 0xDD62ED3E EQ PUSH2 0x5D8 JUMPI DUP1 PUSH4 0xDE899D1F EQ PUSH2 0x60C JUMPI DUP1 PUSH4 0xEA6B80B7 EQ PUSH2 0x62B JUMPI DUP1 PUSH4 0xF2FDE38B EQ PUSH2 0x64A JUMPI PUSH0 PUSH0 REVERT JUMPDEST DUP1 PUSH4 0xA9059CBB EQ PUSH2 0x54C JUMPI DUP1 PUSH4 0xAD330967 EQ PUSH2 0x56B JUMPI DUP1 PUSH4 0xAEA1E3D1 EQ PUSH2 0x59E JUMPI DUP1 PUSH4 0xBC710575 EQ PUSH2 0x5A6 JUMPI PUSH0 PUSH0 REVERT JUMPDEST DUP1 PUSH4 0x81F2D34E GT PUSH2 0xD8 JUMPI DUP1 PUSH4 0x81F2D34E EQ PUSH2 0x4F3 JUMPI DUP1 PUSH4 0x8DA5CB5B EQ PUSH2 0x507 JUMPI DUP1 PUSH4 0x95D89B41 EQ PUSH2 0x524 JUMPI DUP1 PUSH4 0x96A3958D EQ PUSH2 0x538 JUMPI PUSH0 PUSH0 REVERT JUMPDEST DUP1 PUSH4 0x4D016295 EQ PUSH2 0x448 JUMPI DUP1 PUSH4 0x70A08231 EQ PUSH2 0x47B JUMPI DUP1 PUSH4 0x715018A6 EQ PUSH2 0x4AC JUMPI DUP1 PUSH4 0x7ECEBE00 EQ PUSH2 0x4C2 JUMPI PUSH0 PUSH0 REVERT JUMPDEST DUP1 PUSH4 0x23B872DD GT PUSH2 0x17E JUMPI DUP1 PUSH4 0x367ADA10 GT PUSH2 0x14E JUMPI DUP1 PUSH4 0x367ADA10 EQ PUSH2 0x36B JUMPI DUP1 PUSH4 0x38D52E0F EQ PUSH2 0x3B6 JUMPI DUP1 PUSH4 0x3AEEADE8 EQ PUSH2 0x401 JUMPI DUP1 PUSH4 0x421C6A8A EQ PUSH2 0x434 JUMPI PUSH0 PUSH0 REVERT JUMPDEST DUP1 PUSH4 0x23B872DD EQ PUSH2 0x2FE JUMPI DUP1 PUSH4 0x25D1782D EQ PUSH2 0x31D JUMPI DUP1 PUSH4 0x313CE567 EQ PUSH2 0x33C JUMPI DUP1 PUSH4 0x3644E515 EQ PUSH2 0x357 JUMPI PUSH0 PUSH0 REVERT JUMPDEST DUP1 PUSH4 0x10AB2D01 GT PUSH2 0x1B9 JUMPI DUP1 PUSH4 0x10AB2D01 EQ PUSH2 0x285 JUMPI DUP1 PUSH4 0x127D0409 EQ PUSH2 0x2A4 JUMPI DUP1 PUSH4 0x18160DDD EQ PUSH2 0x2C3 JUMPI DUP1 PUSH4 0x19CDF284 EQ PUSH2 0x2DF JUMPI PUSH0 PUSH0 REVERT JUMPDEST DUP1 PUSH4 0x6FDDE03 EQ PUSH2 0x1EA JUMPI DUP1 PUSH4 0x8E30698 EQ PUSH2 0x214 JUMPI DUP1 PUSH4 0x95EA7B3 EQ PUSH2 0x241 JUMPI DUP1 PUSH4 0xF2A403F EQ PUSH2 0x270 JUMPI JUMPDEST PUSH0 PUSH0 REVERT JUMPDEST CALLVALUE DUP1 ISZERO PUSH2 0x1F5 JUMPI PUSH0 PUSH0 REVERT JUMPDEST POP PUSH2 0x1FE PUSH2 0x669 JUMP JUMPDEST PUSH1 0x40 MLOAD PUSH2 0x20B SWAP2 SWAP1 PUSH2 0x105F JUMP JUMPDEST PUSH1 0x40 MLOAD DUP1 SWAP2 SUB SWAP1 RETURN JUMPDEST CALLVALUE DUP1 ISZERO PUSH2 0x21F JUMPI PUSH0 PUSH0 REVERT JUMPDEST POP PUSH2 0x233 PUSH2 0x22E CALLDATASIZE PUSH1 0x4 PUSH2 0x1087 JUMP JUMPDEST PUSH2 0x6F9 JUMP JUMPDEST PUSH1 0x40 MLOAD SWAP1 DUP2 MSTORE PUSH1 0x20 ADD PUSH2 0x20B JUMP JUMPDEST CALLVALUE DUP1 ISZERO PUSH2 0x24C JUMPI PUSH0 PUSH0 REVERT JUMPDEST POP PUSH2 0x260 PUSH2 0x25B CALLDATASIZE PUSH1 0x4 PUSH2 0x10B1 JUMP JUMPDEST PUSH2 0x7B9 JUMP JUMPDEST PUSH1 0x40 MLOAD SWAP1 ISZERO ISZERO DUP2 MSTORE PUSH1 0x20 ADD PUSH2 0x20B JUMP JUMPDEST CALLVALUE DUP1 ISZERO PUSH2 0x27B JUMPI PUSH0 PUSH0 REVERT JUMPDEST POP PUSH2 0x233 PUSH1 0x1 SLOAD DUP2 JUMP JUMPDEST CALLVALUE DUP1 ISZERO PUSH2 0x290 JUMPI PUSH0 PUSH0 REVERT JUMPDEST POP PUSH2 0x1FE PUSH2 0x29F CALLDATASIZE PUSH1 0x4 PUSH2 0x10D9 JUMP JUMPDEST PUSH2 0x809 JUMP JUMPDEST CALLVALUE DUP1 ISZERO PUSH2 0x2AF JUMPI PUSH0 PUSH0 REVERT JUMPDEST POP PUSH2 0x233 PUSH2 0x2BE CALLDATASIZE PUSH1 0x4 PUSH2 0x115C JUMP JUMPDEST PUSH2 0x87A JUMP JUMPDEST CALLVALUE DUP1 ISZERO PUSH2 0x2CE JUMPI PUSH0 PUSH0 REVERT JUMPDEST POP PUSH9 0x5345CDF77EB68F44C SLOAD PUSH2 0x233 JUMP JUMPDEST CALLVALUE DUP1 ISZERO PUSH2 0x2EA JUMPI PUSH0 PUSH0 REVERT JUMPDEST POP PUSH2 0x233 PUSH2 0x2F9 CALLDATASIZE PUSH1 0x4 PUSH2 0x1189 JUMP JUMPDEST PUSH2 0x885 JUMP JUMPDEST CALLVALUE DUP1 ISZERO PUSH2 0x309 JUMPI PUSH0 PUSH0 REVERT JUMPDEST POP PUSH2 0x260 PUSH2 0x318 CALLDATASIZE PUSH1 0x4 PUSH2 0x11AB JUMP JUMPDEST PUSH2 0x933 JUMP JUMPDEST CALLVALUE DUP1 ISZERO PUSH2 0x328 JUMPI PUSH0 PUSH0 REVERT JUMPDEST POP PUSH2 0x233 PUSH2 0x337 CALLDATASIZE PUSH1 0x4 PUSH2 0x115C JUMP JUMPDEST PUSH2 0x9D8 JUMP JUMPDEST CALLVALUE DUP1 ISZERO PUSH2 0x347 JUMPI PUSH0 PUSH0 REVERT JUMPDEST POP PUSH1 0x40 MLOAD PUSH1 0x12 DUP2 MSTORE PUSH1 0x20 ADD PUSH2 0x20B JUMP JUMPDEST CALLVALUE DUP1 ISZERO PUSH2 0x362 JUMPI PUSH0 PUSH0 REVERT JUMPDEST POP PUSH2 0x233 PUSH2 0xA3B JUMP JUMPDEST CALLVALUE DUP1 ISZERO PUSH2 0x376 JUMPI PUSH0 PUSH0 REVERT JUMPDEST POP PUSH2 0x39E PUSH32 0x0 DUP2 JUMP JUMPDEST PUSH1 0x40 MLOAD PUSH1 0x1 PUSH1 0x1 PUSH1 0x80 SHL SUB SWAP1 SWAP2 AND DUP2 MSTORE PUSH1 0x20 ADD PUSH2 0x20B JUMP JUMPDEST CALLVALUE DUP1 ISZERO PUSH2 0x3C1 JUMPI PUSH0 PUSH0 REVERT JUMPDEST POP PUSH2 0x3E9 PUSH32 0x0 DUP2 JUMP JUMPDEST PUSH1 0x40 MLOAD PUSH1 0x1 PUSH1 0x1 PUSH1 0xA0 SHL SUB SWAP1 SWAP2 AND DUP2 MSTORE PUSH1 0x20 ADD PUSH2 0x20B JUMP JUMPDEST CALLVALUE DUP1 ISZERO PUSH2 0x40C JUMPI PUSH0 PUSH0 REVERT JUMPDEST POP PUSH2 0x39E PUSH32 0x0 DUP2 JUMP JUMPDEST CALLVALUE DUP1 ISZERO PUSH2 0x43F JUMPI PUSH0 PUSH0 REVERT JUMPDEST POP PUSH2 0x233 PUSH0 SLOAD DUP2 JUMP JUMPDEST CALLVALUE DUP1 ISZERO PUSH2 0x453 JUMPI PUSH0 PUSH0 REVERT JUMPDEST POP PUSH2 0x39E PUSH32 0x0 DUP2 JUMP JUMPDEST CALLVALUE DUP1 ISZERO PUSH2 0x486 JUMPI PUSH0 PUSH0 REVERT JUMPDEST POP PUSH2 0x233 PUSH2 0x495 CALLDATASIZE PUSH1 0x4 PUSH2 0x11E5 JUMP JUMPDEST PUSH4 0x87A211A2 PUSH1 0xC SWAP1 DUP2 MSTORE PUSH0 SWAP2 SWAP1 SWAP2 MSTORE PUSH1 0x20 SWAP1 KECCAK256 SLOAD SWAP1 JUMP JUMPDEST CALLVALUE DUP1 ISZERO PUSH2 0x4B7 JUMPI PUSH0 PUSH0 REVERT JUMPDEST POP PUSH2 0x4C0 PUSH2 0xAB7 JUMP JUMPDEST STOP JUMPDEST CALLVALUE DUP1 ISZERO PUSH2 0x4CD JUMPI PUSH0 PUSH0 REVERT JUMPDEST POP PUSH2 0x233 PUSH2 0x4DC CALLDATASIZE PUSH1 0x4 PUSH2 0x11E5 JUMP JUMPDEST PUSH4 0x38377508 PUSH1 0xC SWAP1 DUP2 MSTORE PUSH0 SWAP2 SWAP1 SWAP2 MSTORE PUSH1 0x20 SWAP1 KECCAK256 SLOAD SWAP1 JUMP JUMPDEST CALLVALUE DUP1 ISZERO PUSH2 0x4FE JUMPI PUSH0 PUSH0 REVERT JUMPDEST POP PUSH2 0x233 PUSH2 0xACA JUMP JUMPDEST CALLVALUE DUP1 ISZERO PUSH2 0x512 JUMPI PUSH0 PUSH0 REVERT JUMPDEST POP PUSH1 0x2 SLOAD PUSH1 0x1 PUSH1 0x1 PUSH1 0xA0 SHL SUB AND PUSH2 0x3E9 JUMP JUMPDEST CALLVALUE DUP1 ISZERO PUSH2 0x52F JUMPI PUSH0 PUSH0 REVERT JUMPDEST POP PUSH2 0x1FE PUSH2 0xB12 JUMP JUMPDEST CALLVALUE DUP1 ISZERO PUSH2 0x543 JUMPI PUSH0 PUSH0 REVERT JUMPDEST POP PUSH2 0x233 PUSH2 0xB21 JUMP JUMPDEST CALLVALUE DUP1 ISZERO PUSH2 0x557 JUMPI PUSH0 PUSH0 REVERT JUMPDEST POP PUSH2 0x260 PUSH2 0x566 CALLDATASIZE PUSH1 0x4 PUSH2 0x10B1 JUMP JUMPDEST PUSH2 0xB59 JUMP JUMPDEST CALLVALUE DUP1 ISZERO PUSH2 0x576 JUMPI PUSH0 PUSH0 REVERT JUMPDEST POP PUSH2 0x39E PUSH32 0x0 DUP2 JUMP JUMPDEST PUSH2 0x233 PUSH2 0xBBD JUMP JUMPDEST PUSH2 0x233 PUSH2 0x5B4 CALLDATASIZE PUSH1 0x4 PUSH2 0x11E5 JUMP JUMPDEST PUSH2 0xBC3 JUMP JUMPDEST CALLVALUE DUP1 ISZERO PUSH2 0x5C4 JUMPI PUSH0 PUSH0 REVERT JUMPDEST POP PUSH2 0x4C0 PUSH2 0x5D3 CALLDATASIZE PUSH1 0x4 PUSH2 0x120E JUMP JUMPDEST PUSH2 0xC22 JUMP JUMPDEST CALLVALUE DUP1 ISZERO PUSH2 0x5E3 JUMPI PUSH0 PUSH0 REVERT JUMPDEST POP PUSH2 0x233 PUSH2 0x5F2 CALLDATASIZE PUSH1 0x4 PUSH2 0x1274 JUMP JUMPDEST PUSH1 0x20 MSTORE PUSH4 0x7F5E9F20 PUSH1 0xC SWAP1 DUP2 MSTORE PUSH0 SWAP2 SWAP1 SWAP2 MSTORE PUSH1 0x34 SWAP1 KECCAK256 SLOAD SWAP1 JUMP JUMPDEST CALLVALUE DUP1 ISZERO PUSH2 0x617 JUMPI PUSH0 PUSH0 REVERT JUMPDEST POP PUSH2 0x233 PUSH2 0x626 CALLDATASIZE PUSH1 0x4 PUSH2 0x129C JUMP JUMPDEST PUSH2 0xDA6 JUMP JUMPDEST CALLVALUE DUP1 ISZERO PUSH2 0x636 JUMPI PUSH0 PUSH0 REVERT JUMPDEST POP PUSH2 0x233 PUSH2 0x645 CALLDATASIZE PUSH1 0x4 PUSH2 0x115C JUMP JUMPDEST PUSH2 0xE56 JUMP JUMPDEST CALLVALUE DUP1 ISZERO PUSH2 0x655 JUMPI PUSH0 PUSH0 REVERT JUMPDEST POP PUSH2 0x4C0 PUSH2 0x664 CALLDATASIZE PUSH1 0x4 PUSH2 0x11E5 JUMP JUMPDEST PUSH2 0xEA7 JUMP JUMPDEST PUSH1 0x60 PUSH1 0x3 DUP1 SLOAD PUSH2 0x678 SWAP1 PUSH2 0x12D6 JUMP JUMPDEST DUP1 PUSH1 0x1F ADD PUSH1 0x20 DUP1 SWAP2 DIV MUL PUSH1 0x20 ADD PUSH1 0x40 MLOAD SWAP1 DUP2 ADD PUSH1 0x40 MSTORE DUP1 SWAP3 SWAP2 SWAP1 DUP2 DUP2 MSTORE PUSH1 0x20 ADD DUP3 DUP1 SLOAD PUSH2 0x6A4 SWAP1 PUSH2 0x12D6 JUMP JUMPDEST DUP1 ISZERO PUSH2 0x6EF JUMPI DUP1 PUSH1 0x1F LT PUSH2 0x6C6 JUMPI PUSH2 0x100 DUP1 DUP4 SLOAD DIV MUL DUP4 MSTORE SWAP2 PUSH1 0x20 ADD SWAP2 PUSH2 0x6EF JUMP JUMPDEST DUP3 ADD SWAP2 SWAP1 PUSH0 MSTORE PUSH1 0x20 PUSH0 KECCAK256 SWAP1 JUMPDEST DUP2 SLOAD DUP2 MSTORE SWAP1 PUSH1 0x1 ADD SWAP1 PUSH1 0x20 ADD DUP1 DUP4 GT PUSH2 0x6D2 JUMPI DUP3 SWAP1 SUB PUSH1 0x1F AND DUP3 ADD SWAP2 JUMPDEST POP POP POP POP POP SWAP1 POP SWAP1 JUMP JUMPDEST PUSH0 PUSH2 0x703 DUP4 PUSH2 0x9D8 JUMP JUMPDEST SWAP1 POP PUSH2 0x738 PUSH1 0x1 PUSH1 0x1 PUSH1 0x80 SHL SUB PUSH32 0x0 AND DUP3 PUSH2 0x131C JUMP JUMPDEST PUSH0 PUSH0 DUP3 DUP3 SLOAD PUSH2 0x747 SWAP2 SWAP1 PUSH2 0x133B JUMP JUMPDEST SWAP1 SWAP2 SSTORE POP PUSH2 0x757 SWAP1 POP CALLER DUP5 PUSH2 0xEE9 JUMP JUMPDEST PUSH0 DUP3 PUSH1 0x1 PUSH1 0x1 PUSH1 0xA0 SHL SUB AND DUP3 PUSH1 0x40 MLOAD PUSH0 PUSH1 0x40 MLOAD DUP1 DUP4 SUB DUP2 DUP6 DUP8 GAS CALL SWAP3 POP POP POP RETURNDATASIZE DUP1 PUSH0 DUP2 EQ PUSH2 0x7A0 JUMPI PUSH1 0x40 MLOAD SWAP2 POP PUSH1 0x1F NOT PUSH1 0x3F RETURNDATASIZE ADD AND DUP3 ADD PUSH1 0x40 MSTORE RETURNDATASIZE DUP3 MSTORE RETURNDATASIZE PUSH0 PUSH1 0x20 DUP5 ADD RETURNDATACOPY PUSH2 0x7A5 JUMP JUMPDEST PUSH1 0x60 SWAP2 POP JUMPDEST POP POP SWAP1 POP DUP1 PUSH2 0x7B2 JUMPI PUSH0 PUSH0 REVERT JUMPDEST POP SWAP3 SWAP2 POP POP JUMP JUMPDEST PUSH0 DUP3 PUSH1 0x20 MSTORE PUSH4 0x7F5E9F20 PUSH1 0xC MSTORE CALLER PUSH0 MSTORE DUP2 PUSH1 0x34 PUSH1 0xC KECCAK256 SSTORE DUP2 PUSH0 MSTORE PUSH1 0x2C MLOAD PUSH1 0x60 SHR CALLER PUSH32 0x8C5BE1E5EBEC7D5BD14F71427D1E84F3DD0314C0F7B2291E5B200AC8C7C3B925 PUSH1 0x20 PUSH0 LOG3 POP PUSH1 0x1 JUMPDEST SWAP3 SWAP2 POP POP JUMP JUMPDEST PUSH1 0x60 PUSH2 0x813 PUSH2 0xF4A JUMP JUMPDEST PUSH0 DUP6 PUSH1 0x1 PUSH1 0x1 PUSH1 0xA0 SHL SUB AND DUP6 DUP6 DUP6 PUSH1 0x40 MLOAD PUSH2 0x82F SWAP3 SWAP2 SWAP1 PUSH2 0x134E JUMP JUMPDEST PUSH0 PUSH1 0x40 MLOAD DUP1 DUP4 SUB DUP2 DUP6 DUP8 GAS CALL SWAP3 POP POP POP RETURNDATASIZE DUP1 PUSH0 DUP2 EQ PUSH2 0x869 JUMPI PUSH1 0x40 MLOAD SWAP2 POP PUSH1 0x1F NOT PUSH1 0x3F RETURNDATASIZE ADD AND DUP3 ADD PUSH1 0x40 MSTORE RETURNDATASIZE DUP3 MSTORE RETURNDATASIZE PUSH0 PUSH1 0x20 DUP5 ADD RETURNDATACOPY PUSH2 0x86E JUMP JUMPDEST PUSH1 0x60 SWAP2 POP JUMPDEST POP SWAP8 SWAP7 POP POP POP POP POP POP POP JUMP JUMPDEST PUSH0 PUSH2 0x803 DUP3 CALLER PUSH2 0x6F9 JUMP JUMPDEST PUSH0 PUSH1 0x1 PUSH1 0x1 PUSH1 0xA0 SHL SUB PUSH32 0x0 AND PUSH4 0xD505ACCF CALLER ADDRESS DUP7 DUP7 CALLDATALOAD PUSH2 0x8CA PUSH1 0x40 DUP10 ADD PUSH1 0x20 DUP11 ADD PUSH2 0x135D JUMP JUMPDEST DUP9 PUSH1 0x40 ADD CALLDATALOAD DUP10 PUSH1 0x60 ADD CALLDATALOAD PUSH1 0x40 MLOAD DUP9 PUSH4 0xFFFFFFFF AND PUSH1 0xE0 SHL DUP2 MSTORE PUSH1 0x4 ADD PUSH2 0x8F6 SWAP8 SWAP7 SWAP6 SWAP5 SWAP4 SWAP3 SWAP2 SWAP1 PUSH2 0x1376 JUMP JUMPDEST PUSH0 PUSH1 0x40 MLOAD DUP1 DUP4 SUB DUP2 PUSH0 DUP8 DUP1 EXTCODESIZE ISZERO DUP1 ISZERO PUSH2 0x90D JUMPI PUSH0 PUSH0 REVERT JUMPDEST POP GAS CALL ISZERO DUP1 ISZERO PUSH2 0x91F JUMPI RETURNDATASIZE PUSH0 PUSH0 RETURNDATACOPY RETURNDATASIZE PUSH0 REVERT JUMPDEST POP POP POP POP PUSH2 0x92C DUP4 PUSH2 0x87A JUMP JUMPDEST SWAP4 SWAP3 POP POP POP JUMP JUMPDEST PUSH0 DUP4 PUSH1 0x60 SHL CALLER PUSH1 0x20 MSTORE PUSH4 0x7F5E9F20 DUP2 OR PUSH1 0xC MSTORE PUSH1 0x34 PUSH1 0xC KECCAK256 DUP1 SLOAD DUP1 NOT ISZERO PUSH2 0x96F JUMPI DUP1 DUP6 GT ISZERO PUSH2 0x969 JUMPI PUSH4 0x13BE252B PUSH0 MSTORE PUSH1 0x4 PUSH1 0x1C REVERT JUMPDEST DUP5 DUP2 SUB DUP3 SSTORE JUMPDEST POP POP PUSH4 0x87A211A2 DUP2 OR PUSH1 0xC MSTORE PUSH1 0x20 PUSH1 0xC KECCAK256 DUP1 SLOAD DUP1 DUP6 GT ISZERO PUSH2 0x997 JUMPI PUSH4 0xF4D678B8 PUSH0 MSTORE PUSH1 0x4 PUSH1 0x1C REVERT JUMPDEST DUP5 DUP2 SUB DUP3 SSTORE POP POP DUP4 PUSH0 MSTORE PUSH1 0x20 PUSH1 0xC KECCAK256 DUP4 DUP2 SLOAD ADD DUP2 SSTORE POP DUP3 PUSH1 0x20 MSTORE PUSH1 0xC MLOAD PUSH1 0x60 SHR DUP2 PUSH1 0x60 SHR PUSH0 MLOAD PUSH1 0x20 PUSH2 0x13E2 PUSH0 CODECOPY PUSH0 MLOAD SWAP1 PUSH0 MSTORE PUSH1 0x20 DUP1 LOG3 POP POP PUSH1 0x1 SWAP4 SWAP3 POP POP POP JUMP JUMPDEST PUSH0 PUSH2 0xA0C DUP3 PUSH1 0x1 PUSH1 0x1 PUSH1 0x80 SHL SUB PUSH32 0x0 AND PUSH2 0x133B JUMP JUMPDEST DUP3 PUSH2 0xA15 PUSH2 0xB21 JUMP JUMPDEST PUSH2 0xA1F SWAP2 SWAP1 PUSH2 0x13B7 JUMP JUMPDEST PUSH2 0xA29 SWAP2 SWAP1 PUSH2 0x131C JUMP JUMPDEST SWAP1 POP DUP1 SELFBALANCE LT ISZERO PUSH2 0xA36 JUMPI POP SELFBALANCE JUMPDEST SWAP2 SWAP1 POP JUMP JUMPDEST PUSH0 DUP1 PUSH2 0xA45 PUSH2 0x669 JUMP JUMPDEST DUP1 MLOAD SWAP1 PUSH1 0x20 ADD KECCAK256 SWAP1 POP PUSH1 0x40 DUP1 MLOAD PUSH32 0x8B73C3C69BB8FE3D512ECC4CF759CC79239F7B179B0FFACAA9A75D522B39400F DUP2 MSTORE PUSH1 0x20 DUP2 ADD SWAP3 SWAP1 SWAP3 MSTORE PUSH32 0xC89EFDAA54C0F20C7ADF612882DF0950F5A951637E0307CDCB4C672F298B8BC6 SWAP1 DUP3 ADD MSTORE CHAINID PUSH1 0x60 DUP3 ADD MSTORE ADDRESS PUSH1 0x80 DUP3 ADD MSTORE PUSH1 0xA0 SWAP1 KECCAK256 SWAP2 SWAP1 POP JUMP JUMPDEST PUSH2 0xABF PUSH2 0xF4A JUMP JUMPDEST PUSH2 0xAC8 PUSH0 PUSH2 0xF77 JUMP JUMPDEST JUMP JUMPDEST PUSH0 PUSH32 0x0 PUSH1 0x1 PUSH1 0x1 PUSH1 0x80 SHL SUB AND PUSH1 0x1 SLOAD TIMESTAMP PUSH2 0xB03 SWAP2 SWAP1 PUSH2 0x13CE JUMP JUMPDEST PUSH2 0xB0D SWAP2 SWAP1 PUSH2 0x13B7 JUMP JUMPDEST SWAP1 POP SWAP1 JUMP JUMPDEST PUSH1 0x60 PUSH1 0x4 DUP1 SLOAD PUSH2 0x678 SWAP1 PUSH2 0x12D6 JUMP JUMPDEST PUSH0 PUSH32 0x0 PUSH1 0x1 PUSH1 0x1 PUSH1 0x80 SHL SUB AND PUSH0 SLOAD TIMESTAMP PUSH2 0xB03 SWAP2 SWAP1 PUSH2 0x13CE JUMP JUMPDEST PUSH0 PUSH4 0x87A211A2 PUSH1 0xC MSTORE CALLER PUSH0 MSTORE PUSH1 0x20 PUSH1 0xC KECCAK256 DUP1 SLOAD DUP1 DUP5 GT ISZERO PUSH2 0xB81 JUMPI PUSH4 0xF4D678B8 PUSH0 MSTORE PUSH1 0x4 PUSH1 0x1C REVERT JUMPDEST DUP4 DUP2 SUB DUP3 SSTORE POP POP DUP3 PUSH0 MSTORE PUSH1 0x20 PUSH1 0xC KECCAK256 DUP3 DUP2 SLOAD ADD DUP2 SSTORE POP DUP2 PUSH1 0x20 MSTORE PUSH1 0xC MLOAD PUSH1 0x60 SHR CALLER PUSH0 MLOAD PUSH1 0x20 PUSH2 0x13E2 PUSH0 CODECOPY PUSH0 MLOAD SWAP1 PUSH0 MSTORE PUSH1 0x20 DUP1 LOG3 POP PUSH1 0x1 SWAP3 SWAP2 POP POP JUMP JUMPDEST PUSH0 PUSH2 0xB0D CALLER JUMPDEST PUSH0 PUSH2 0xBCD CALLVALUE PUSH2 0xE56 JUMP JUMPDEST SWAP1 POP PUSH2 0xC02 PUSH1 0x1 PUSH1 0x1 PUSH1 0x80 SHL SUB PUSH32 0x0 AND DUP3 PUSH2 0x131C JUMP JUMPDEST PUSH1 0x1 PUSH0 DUP3 DUP3 SLOAD PUSH2 0xC12 SWAP2 SWAP1 PUSH2 0x133B JUMP JUMPDEST SWAP1 SWAP2 SSTORE POP PUSH2 0xA36 SWAP1 POP DUP3 DUP3 PUSH2 0xFC8 JUMP JUMPDEST PUSH0 PUSH2 0xC2B PUSH2 0x669 JUMP JUMPDEST DUP1 MLOAD SWAP1 PUSH1 0x20 ADD KECCAK256 SWAP1 POP PUSH32 0xC89EFDAA54C0F20C7ADF612882DF0950F5A951637E0307CDCB4C672F298B8BC6 TIMESTAMP DUP7 LT ISZERO PUSH2 0xC6A JUMPI PUSH4 0x1A15A3CC PUSH0 MSTORE PUSH1 0x4 PUSH1 0x1C REVERT JUMPDEST PUSH1 0x40 MLOAD DUP10 PUSH1 0x60 SHL PUSH1 0x60 SHR SWAP10 POP DUP9 PUSH1 0x60 SHL PUSH1 0x60 SHR SWAP9 POP PUSH6 0x383775081901 PUSH1 0xE MSTORE DUP10 PUSH0 MSTORE PUSH1 0x20 PUSH1 0xC KECCAK256 DUP1 SLOAD PUSH32 0x8B73C3C69BB8FE3D512ECC4CF759CC79239F7B179B0FFACAA9A75D522B39400F DUP4 MSTORE DUP5 PUSH1 0x20 DUP5 ADD MSTORE DUP4 PUSH1 0x40 DUP5 ADD MSTORE CHAINID PUSH1 0x60 DUP5 ADD MSTORE ADDRESS PUSH1 0x80 DUP5 ADD MSTORE PUSH1 0xA0 DUP4 KECCAK256 PUSH1 0x2E MSTORE PUSH32 0x6E71EDAE12B1B97F4D1F60370FEF10105FA2FAAE0126114A169C64845D6126C9 DUP4 MSTORE DUP12 PUSH1 0x20 DUP5 ADD MSTORE DUP11 PUSH1 0x40 DUP5 ADD MSTORE DUP10 PUSH1 0x60 DUP5 ADD MSTORE DUP1 PUSH1 0x80 DUP5 ADD MSTORE DUP9 PUSH1 0xA0 DUP5 ADD MSTORE PUSH1 0xC0 DUP4 KECCAK256 PUSH1 0x4E MSTORE PUSH1 0x42 PUSH1 0x2C KECCAK256 PUSH0 MSTORE DUP8 PUSH1 0xFF AND PUSH1 0x20 MSTORE DUP7 PUSH1 0x40 MSTORE DUP6 PUSH1 0x60 MSTORE PUSH1 0x20 DUP1 PUSH1 0x80 PUSH0 PUSH1 0x1 GAS STATICCALL DUP13 RETURNDATASIZE MLOAD EQ PUSH2 0xD52 JUMPI PUSH4 0xDDAFBAEF PUSH0 MSTORE PUSH1 0x4 PUSH1 0x1C REVERT JUMPDEST ADD SWAP1 SSTORE PUSH4 0x3FAF4F9 PUSH1 0xA5 SHL DUP10 OR PUSH1 0x40 MSTORE PUSH1 0x34 PUSH1 0x2C KECCAK256 DUP9 SWAP1 SSTORE DUP9 DUP11 PUSH32 0x8C5BE1E5EBEC7D5BD14F71427D1E84F3DD0314C0F7B2291E5B200AC8C7C3B925 PUSH1 0x20 PUSH1 0x60 DUP6 ADD LOG3 PUSH1 0x40 MSTORE POP POP PUSH0 PUSH1 0x60 MSTORE POP POP POP POP POP POP POP JUMP JUMPDEST PUSH0 PUSH1 0x1 PUSH1 0x1 PUSH1 0xA0 SHL SUB PUSH32 0x0 AND PUSH4 0xD505ACCF CALLER ADDRESS DUP8 DUP7 CALLDATALOAD PUSH2 0xDEB PUSH1 0x40 DUP10 ADD PUSH1 0x20 DUP11 ADD PUSH2 0x135D JUMP JUMPDEST DUP9 PUSH1 0x40 ADD CALLDATALOAD DUP10 PUSH1 0x60 ADD CALLDATALOAD PUSH1 0x40 MLOAD DUP9 PUSH4 0xFFFFFFFF AND PUSH1 0xE0 SHL DUP2 MSTORE PUSH1 0x4 ADD PUSH2 0xE17 SWAP8 SWAP7 SWAP6 SWAP5 SWAP4 SWAP3 SWAP2 SWAP1 PUSH2 0x1376 JUMP JUMPDEST PUSH0 PUSH1 0x40 MLOAD DUP1 DUP4 SUB DUP2 PUSH0 DUP8 DUP1 EXTCODESIZE ISZERO DUP1 ISZERO PUSH2 0xE2E JUMPI PUSH0 PUSH0 REVERT JUMPDEST POP GAS CALL ISZERO DUP1 ISZERO PUSH2 0xE40 JUMPI RETURNDATASIZE PUSH0 PUSH0 RETURNDATACOPY RETURNDATASIZE PUSH0 REVERT JUMPDEST POP POP POP POP PUSH2 0xE4E DUP5 DUP5 PUSH2 0x6F9 JUMP JUMPDEST SWAP5 SWAP4 POP POP POP POP JUMP JUMPDEST PUSH0 PUSH2 0xE8A DUP3 PUSH1 0x1 PUSH1 0x1 PUSH1 0x80 SHL SUB PUSH32 0x0 AND PUSH2 0x133B JUMP JUMPDEST DUP3 PUSH2 0xE93 PUSH2 0xACA JUMP JUMPDEST PUSH2 0xE9D SWAP2 SWAP1 PUSH2 0x13B7 JUMP JUMPDEST PUSH2 0x803 SWAP2 SWAP1 PUSH2 0x131C JUMP JUMPDEST PUSH2 0xEAF PUSH2 0xF4A JUMP JUMPDEST PUSH1 0x1 PUSH1 0x1 PUSH1 0xA0 SHL SUB DUP2 AND PUSH2 0xEDD JUMPI PUSH1 0x40 MLOAD PUSH4 0x1E4FBDF7 PUSH1 0xE0 SHL DUP2 MSTORE PUSH0 PUSH1 0x4 DUP3 ADD MSTORE PUSH1 0x24 ADD JUMPDEST PUSH1 0x40 MLOAD DUP1 SWAP2 SUB SWAP1 REVERT JUMPDEST PUSH2 0xEE6 DUP2 PUSH2 0xF77 JUMP JUMPDEST POP JUMP JUMPDEST PUSH4 0x87A211A2 PUSH1 0xC MSTORE DUP2 PUSH0 MSTORE PUSH1 0x20 PUSH1 0xC KECCAK256 DUP1 SLOAD DUP1 DUP4 GT ISZERO PUSH2 0xF10 JUMPI PUSH4 0xF4D678B8 PUSH0 MSTORE PUSH1 0x4 PUSH1 0x1C REVERT JUMPDEST DUP3 SWAP1 SUB SWAP1 SSTORE PUSH9 0x5345CDF77EB68F44C DUP1 SLOAD DUP3 SWAP1 SUB SWAP1 SSTORE PUSH0 DUP2 DUP2 MSTORE PUSH1 0x1 PUSH1 0x1 PUSH1 0xA0 SHL SUB DUP4 AND PUSH0 MLOAD PUSH1 0x20 PUSH2 0x13E2 PUSH0 CODECOPY PUSH0 MLOAD SWAP1 PUSH0 MSTORE PUSH1 0x20 DUP4 LOG3 POP POP JUMP JUMPDEST PUSH1 0x2 SLOAD PUSH1 0x1 PUSH1 0x1 PUSH1 0xA0 SHL SUB AND CALLER EQ PUSH2 0xAC8 JUMPI PUSH1 0x40 MLOAD PUSH4 0x118CDAA7 PUSH1 0xE0 SHL DUP2 MSTORE CALLER PUSH1 0x4 DUP3 ADD MSTORE PUSH1 0x24 ADD PUSH2 0xED4 JUMP JUMPDEST PUSH1 0x2 DUP1 SLOAD PUSH1 0x1 PUSH1 0x1 PUSH1 0xA0 SHL SUB DUP4 DUP2 AND PUSH1 0x1 PUSH1 0x1 PUSH1 0xA0 SHL SUB NOT DUP4 AND DUP2 OR SWAP1 SWAP4 SSTORE PUSH1 0x40 MLOAD SWAP2 AND SWAP2 SWAP1 DUP3 SWAP1 PUSH32 0x8BE0079C531659141344CD1FD0A4F28419497F9722A3DAAFE3B4186F6B6457E0 SWAP1 PUSH0 SWAP1 LOG3 POP POP JUMP JUMPDEST PUSH9 0x5345CDF77EB68F44C SLOAD DUP2 DUP2 ADD DUP2 DUP2 LT ISZERO PUSH2 0xFEB JUMPI PUSH4 0xE5CFE957 PUSH0 MSTORE PUSH1 0x4 PUSH1 0x1C REVERT JUMPDEST DUP1 PUSH9 0x5345CDF77EB68F44C SSTORE POP POP PUSH4 0x87A211A2 PUSH1 0xC MSTORE DUP2 PUSH0 MSTORE PUSH1 0x20 PUSH1 0xC KECCAK256 DUP2 DUP2 SLOAD ADD DUP2 SSTORE POP DUP1 PUSH1 0x20 MSTORE PUSH1 0xC MLOAD PUSH1 0x60 SHR PUSH0 PUSH0 MLOAD PUSH1 0x20 PUSH2 0x13E2 PUSH0 CODECOPY PUSH0 MLOAD SWAP1 PUSH0 MSTORE PUSH1 0x20 DUP1 LOG3 POP POP JUMP JUMPDEST PUSH0 DUP2 MLOAD DUP1 DUP5 MSTORE DUP1 PUSH1 0x20 DUP5 ADD PUSH1 0x20 DUP7 ADD MCOPY PUSH0 PUSH1 0x20 DUP3 DUP7 ADD ADD MSTORE PUSH1 0x20 PUSH1 0x1F NOT PUSH1 0x1F DUP4 ADD AND DUP6 ADD ADD SWAP2 POP POP SWAP3 SWAP2 POP POP JUMP JUMPDEST PUSH1 0x20 DUP2 MSTORE PUSH0 PUSH2 0x92C PUSH1 0x20 DUP4 ADD DUP5 PUSH2 0x1031 JUMP JUMPDEST DUP1 CALLDATALOAD PUSH1 0x1 PUSH1 0x1 PUSH1 0xA0 SHL SUB DUP2 AND DUP2 EQ PUSH2 0xA36 JUMPI PUSH0 PUSH0 REVERT JUMPDEST PUSH0 PUSH0 PUSH1 0x40 DUP4 DUP6 SUB SLT ISZERO PUSH2 0x1098 JUMPI PUSH0 PUSH0 REVERT JUMPDEST DUP3 CALLDATALOAD SWAP2 POP PUSH2 0x10A8 PUSH1 0x20 DUP5 ADD PUSH2 0x1071 JUMP JUMPDEST SWAP1 POP SWAP3 POP SWAP3 SWAP1 POP JUMP JUMPDEST PUSH0 PUSH0 PUSH1 0x40 DUP4 DUP6 SUB SLT ISZERO PUSH2 0x10C2 JUMPI PUSH0 PUSH0 REVERT JUMPDEST PUSH2 0x10CB DUP4 PUSH2 0x1071 JUMP JUMPDEST SWAP5 PUSH1 0x20 SWAP4 SWAP1 SWAP4 ADD CALLDATALOAD SWAP4 POP POP POP JUMP JUMPDEST PUSH0 PUSH0 PUSH0 PUSH0 PUSH1 0x60 DUP6 DUP8 SUB SLT ISZERO PUSH2 0x10EC JUMPI PUSH0 PUSH0 REVERT JUMPDEST PUSH2 0x10F5 DUP6 PUSH2 0x1071 JUMP JUMPDEST SWAP4 POP PUSH1 0x20 DUP6 ADD CALLDATALOAD SWAP3 POP PUSH1 0x40 DUP6 ADD CALLDATALOAD PUSH8 0xFFFFFFFFFFFFFFFF DUP2 GT ISZERO PUSH2 0x1117 JUMPI PUSH0 PUSH0 REVERT JUMPDEST DUP6 ADD PUSH1 0x1F DUP2 ADD DUP8 SGT PUSH2 0x1127 JUMPI PUSH0 PUSH0 REVERT JUMPDEST DUP1 CALLDATALOAD PUSH8 0xFFFFFFFFFFFFFFFF DUP2 GT ISZERO PUSH2 0x113D JUMPI PUSH0 PUSH0 REVERT JUMPDEST DUP8 PUSH1 0x20 DUP3 DUP5 ADD ADD GT ISZERO PUSH2 0x114E JUMPI PUSH0 PUSH0 REVERT JUMPDEST SWAP5 SWAP8 SWAP4 SWAP7 POP PUSH1 0x20 ADD SWAP5 POP POP POP JUMP JUMPDEST PUSH0 PUSH1 0x20 DUP3 DUP5 SUB SLT ISZERO PUSH2 0x116C JUMPI PUSH0 PUSH0 REVERT JUMPDEST POP CALLDATALOAD SWAP2 SWAP1 POP JUMP JUMPDEST PUSH0 PUSH1 0x80 DUP3 DUP5 SUB SLT ISZERO PUSH2 0x1183 JUMPI PUSH0 PUSH0 REVERT JUMPDEST POP SWAP2 SWAP1 POP JUMP JUMPDEST PUSH0 PUSH0 PUSH1 0xA0 DUP4 DUP6 SUB SLT ISZERO PUSH2 0x119A JUMPI PUSH0 PUSH0 REVERT JUMPDEST DUP3 CALLDATALOAD SWAP2 POP PUSH2 0x10A8 DUP5 PUSH1 0x20 DUP6 ADD PUSH2 0x1173 JUMP JUMPDEST PUSH0 PUSH0 PUSH0 PUSH1 0x60 DUP5 DUP7 SUB SLT ISZERO PUSH2 0x11BD JUMPI PUSH0 PUSH0 REVERT JUMPDEST PUSH2 0x11C6 DUP5 PUSH2 0x1071 JUMP JUMPDEST SWAP3 POP PUSH2 0x11D4 PUSH1 0x20 DUP6 ADD PUSH2 0x1071 JUMP JUMPDEST SWAP3 SWAP6 SWAP3 SWAP5 POP POP POP PUSH1 0x40 SWAP2 SWAP1 SWAP2 ADD CALLDATALOAD SWAP1 JUMP JUMPDEST PUSH0 PUSH1 0x20 DUP3 DUP5 SUB SLT ISZERO PUSH2 0x11F5 JUMPI PUSH0 PUSH0 REVERT JUMPDEST PUSH2 0x92C DUP3 PUSH2 0x1071 JUMP JUMPDEST DUP1 CALLDATALOAD PUSH1 0xFF DUP2 AND DUP2 EQ PUSH2 0xA36 JUMPI PUSH0 PUSH0 REVERT JUMPDEST PUSH0 PUSH0 PUSH0 PUSH0 PUSH0 PUSH0 PUSH0 PUSH1 0xE0 DUP9 DUP11 SUB SLT ISZERO PUSH2 0x1224 JUMPI PUSH0 PUSH0 REVERT JUMPDEST PUSH2 0x122D DUP9 PUSH2 0x1071 JUMP JUMPDEST SWAP7 POP PUSH2 0x123B PUSH1 0x20 DUP10 ADD PUSH2 0x1071 JUMP JUMPDEST SWAP6 POP PUSH1 0x40 DUP9 ADD CALLDATALOAD SWAP5 POP PUSH1 0x60 DUP9 ADD CALLDATALOAD SWAP4 POP PUSH2 0x1257 PUSH1 0x80 DUP10 ADD PUSH2 0x11FE JUMP JUMPDEST SWAP7 SWAP10 SWAP6 SWAP9 POP SWAP4 SWAP7 SWAP3 SWAP6 SWAP5 PUSH1 0xA0 DUP5 ADD CALLDATALOAD SWAP5 POP PUSH1 0xC0 SWAP1 SWAP4 ADD CALLDATALOAD SWAP3 SWAP2 POP POP JUMP JUMPDEST PUSH0 PUSH0 PUSH1 0x40 DUP4 DUP6 SUB SLT ISZERO PUSH2 0x1285 JUMPI PUSH0 PUSH0 REVERT JUMPDEST PUSH2 0x128E DUP4 PUSH2 0x1071 JUMP JUMPDEST SWAP2 POP PUSH2 0x10A8 PUSH1 0x20 DUP5 ADD PUSH2 0x1071 JUMP JUMPDEST PUSH0 PUSH0 PUSH0 PUSH1 0xC0 DUP5 DUP7 SUB SLT ISZERO PUSH2 0x12AE JUMPI PUSH0 PUSH0 REVERT JUMPDEST DUP4 CALLDATALOAD SWAP3 POP PUSH2 0x12BE PUSH1 0x20 DUP6 ADD PUSH2 0x1071 JUMP JUMPDEST SWAP2 POP PUSH2 0x12CD DUP6 PUSH1 0x40 DUP7 ADD PUSH2 0x1173 JUMP JUMPDEST SWAP1 POP SWAP3 POP SWAP3 POP SWAP3 JUMP JUMPDEST PUSH1 0x1 DUP2 DUP2 SHR SWAP1 DUP3 AND DUP1 PUSH2 0x12EA JUMPI PUSH1 0x7F DUP3 AND SWAP2 POP JUMPDEST PUSH1 0x20 DUP3 LT DUP2 SUB PUSH2 0x1183 JUMPI PUSH4 0x4E487B71 PUSH1 0xE0 SHL PUSH0 MSTORE PUSH1 0x22 PUSH1 0x4 MSTORE PUSH1 0x24 PUSH0 REVERT JUMPDEST PUSH4 0x4E487B71 PUSH1 0xE0 SHL PUSH0 MSTORE PUSH1 0x11 PUSH1 0x4 MSTORE PUSH1 0x24 PUSH0 REVERT JUMPDEST PUSH0 DUP3 PUSH2 0x1336 JUMPI PUSH4 0x4E487B71 PUSH1 0xE0 SHL PUSH0 MSTORE PUSH1 0x12 PUSH1 0x4 MSTORE PUSH1 0x24 PUSH0 REVERT JUMPDEST POP DIV SWAP1 JUMP JUMPDEST DUP1 DUP3 ADD DUP1 DUP3 GT ISZERO PUSH2 0x803 JUMPI PUSH2 0x803 PUSH2 0x1308 JUMP JUMPDEST DUP2 DUP4 DUP3 CALLDATACOPY PUSH0 SWAP2 ADD SWAP1 DUP2 MSTORE SWAP2 SWAP1 POP JUMP JUMPDEST PUSH0 PUSH1 0x20 DUP3 DUP5 SUB SLT ISZERO PUSH2 0x136D JUMPI PUSH0 PUSH0 REVERT JUMPDEST PUSH2 0x92C DUP3 PUSH2 0x11FE JUMP JUMPDEST PUSH1 0x1 PUSH1 0x1 PUSH1 0xA0 SHL SUB SWAP8 DUP9 AND DUP2 MSTORE SWAP6 SWAP1 SWAP7 AND PUSH1 0x20 DUP7 ADD MSTORE PUSH1 0x40 DUP6 ADD SWAP4 SWAP1 SWAP4 MSTORE PUSH1 0x60 DUP5 ADD SWAP2 SWAP1 SWAP2 MSTORE PUSH1 0xFF AND PUSH1 0x80 DUP4 ADD MSTORE PUSH1 0xA0 DUP3 ADD MSTORE PUSH1 0xC0 DUP2 ADD SWAP2 SWAP1 SWAP2 MSTORE PUSH1 0xE0 ADD SWAP1 JUMP JUMPDEST DUP1 DUP3 MUL DUP2 ISZERO DUP3 DUP3 DIV DUP5 EQ OR PUSH2 0x803 JUMPI PUSH2 0x803 PUSH2 0x1308 JUMP JUMPDEST DUP2 DUP2 SUB DUP2 DUP2 GT ISZERO PUSH2 0x803 JUMPI PUSH2 0x803 PUSH2 0x1308 JUMP INVALID 0xDD CALLCODE MSTORE 0xAD SHL 0xE2 0xC8 SWAP12 PUSH10 0xC2B068FC378DAA952BA7 CALL PUSH4 0xC4A11628 CREATE2 GAS 0x4D CREATE2 0x23 0xB3 0xEF LOG2 PUSH5 0x6970667358 0x22 SLT KECCAK256 MOD 0xFC DUP9 0xBF 0xE2 SWAP10 ADDRESS RETURN 0xFC 0x1F DUP12 GT TSTORE 0xD9 SIGNEXTEND SWAP12 POP DUP5 DUP10 0xD8 INVALID 0xD4 PUSH9 0x1B4C2CAC0F87A5C055 PUSH5 0x736F6C6343 STOP ADDMOD SHR STOP CALLER "
				},
				"gasEstimates": {
					"creation": {
						"codeDepositCost": "1035000",
						"executionCost": "infinite",
						"totalCost": "infinite"
					},
					"external": {
						"DOMAIN_SEPARATOR()": "infinite",
						"allowance(address,address)": "infinite",
						"approve(address,uint256)": "24454",
						"asset()": "infinite",
						"balanceOf(address)": "2587",
						"customCall(address,uint256,bytes)": "infinite",
						"decimals()": "266",
						"erc20Inhibitor()": "infinite",
						"erc20PurchasableRate()": "infinite",
						"erc20PurchasableTime()": "2407",
						"erc20ToNativeSwap(uint256)": "infinite",
						"erc20ToNativeSwap(uint256,(uint256,uint8,bytes32,bytes32))": "infinite",
						"erc20ToNativeSwap(uint256,address)": "infinite",
						"erc20ToNativeSwap(uint256,address,(uint256,uint8,bytes32,bytes32))": "infinite",
						"getERC20ToNativePrice(uint256)": "infinite",
						"getNativeToERC20Price(uint256)": "infinite",
						"name()": "infinite",
						"nativeInhibitor()": "infinite",
						"nativePurchasableRate()": "infinite",
						"nativePurchasableTime()": "2404",
						"nativeToERC20Swap()": "infinite",
						"nativeToERC20Swap(address)": "infinite",
						"nonces(address)": "2631",
						"owner()": "2397",
						"permit(address,address,uint256,uint256,uint8,bytes32,bytes32)": "infinite",
						"purchasableERC20s()": "infinite",
						"purchasableNatives()": "infinite",
						"renounceOwnership()": "infinite",
						"symbol()": "infinite",
						"totalSupply()": "2381",
						"transfer(address,uint256)": "infinite",
						"transferFrom(address,address,uint256)": "infinite",
						"transferOwnership(address)": "28465"
					}
				},
				"methodIdentifiers": {
					"DOMAIN_SEPARATOR()": "3644e515",
					"allowance(address,address)": "dd62ed3e",
					"approve(address,uint256)": "095ea7b3",
					"asset()": "38d52e0f",
					"balanceOf(address)": "70a08231",
					"customCall(address,uint256,bytes)": "10ab2d01",
					"decimals()": "313ce567",
					"erc20Inhibitor()": "367ada10",
					"erc20PurchasableRate()": "3aeeade8",
					"erc20PurchasableTime()": "0f2a403f",
					"erc20ToNativeSwap(uint256)": "127d0409",
					"erc20ToNativeSwap(uint256,(uint256,uint8,bytes32,bytes32))": "19cdf284",
					"erc20ToNativeSwap(uint256,address)": "08e30698",
					"erc20ToNativeSwap(uint256,address,(uint256,uint8,bytes32,bytes32))": "de899d1f",
					"getERC20ToNativePrice(uint256)": "25d1782d",
					"getNativeToERC20Price(uint256)": "ea6b80b7",
					"name()": "06fdde03",
					"nativeInhibitor()": "ad330967",
					"nativePurchasableRate()": "4d016295",
					"nativePurchasableTime()": "421c6a8a",
					"nativeToERC20Swap()": "aea1e3d1",
					"nativeToERC20Swap(address)": "bc710575",
					"nonces(address)": "7ecebe00",
					"owner()": "8da5cb5b",
					"permit(address,address,uint256,uint256,uint8,bytes32,bytes32)": "d505accf",
					"purchasableERC20s()": "81f2d34e",
					"purchasableNatives()": "96a3958d",
					"renounceOwnership()": "715018a6",
					"symbol()": "95d89b41",
					"totalSupply()": "18160ddd",
					"transfer(address,uint256)": "a9059cbb",
					"transferFrom(address,address,uint256)": "23b872dd",
					"transferOwnership(address)": "f2fde38b"
				}
			},
			"storageLayout": {
				"storage": [
					{
						"astId": 694,
						"contract": "src/PinusVaultCore.sol:PinusVaultCore",
						"label": "nativePurchasableTime",
						"offset": 0,
						"slot": "0",
						"type": "t_uint256"
					},
					{
						"astId": 702,
						"contract": "src/PinusVaultCore.sol:PinusVaultCore",
						"label": "erc20PurchasableTime",
						"offset": 0,
						"slot": "1",
						"type": "t_uint256"
					},
					{
						"astId": 8,
						"contract": "src/PinusVaultCore.sol:PinusVaultCore",
						"label": "_owner",
						"offset": 0,
						"slot": "2",
						"type": "t_address"
					},
					{
						"astId": 840,
						"contract": "src/PinusVaultCore.sol:PinusVaultCore",
						"label": "_name",
						"offset": 0,
						"slot": "3",
						"type": "t_string_storage"
					},
					{
						"astId": 842,
						"contract": "src/PinusVaultCore.sol:PinusVaultCore",
						"label": "_symbol",
						"offset": 0,
						"slot": "4",
						"type": "t_string_storage"
					}
				],
				"types": {
					"t_address": {
						"encoding": "inplace",
						"label": "address",
						"numberOfBytes": "20"
					},
					"t_string_storage": {
						"encoding": "bytes",
						"label": "string",
						"numberOfBytes": "32"
					},
					"t_uint256": {
						"encoding": "inplace",
						"label": "uint256",
						"numberOfBytes": "32"
					}
				}
			},
			"userdoc": {
				"kind": "user",
				"methods": {},
				"version": 1
			}
		}
	}
}