{
	"src/guano.sol": {
		"Guano": {
			"abi": [
				{
					"inputs": [],
					"stateMutability": "nonpayable",
					"type": "constructor"
				},
				{
					"anonymous": false,
					"inputs": [
						{
							"indexed": true,
							"internalType": "address",
							"name": "owner",
							"type": "address"
						},
						{
							"indexed": true,
							"internalType": "address",
							"name": "spender",
							"type": "address"
						},
						{
							"indexed": false,
							"internalType": "uint256",
							"name": "amount",
							"type": "uint256"
						}
					],
					"name": "Approval",
					"type": "event"
				},
				{
					"anonymous": false,
					"inputs": [
						{
							"indexed": true,
							"internalType": "address",
							"name": "from",
							"type": "address"
						},
						{
							"indexed": true,
							"internalType": "address",
							"name": "to",
							"type": "address"
						},
						{
							"indexed": false,
							"internalType": "uint256",
							"name": "amount",
							"type": "uint256"
						}
					],
					"name": "Transfer",
					"type": "event"
				},
				{
					"inputs": [],
					"name": "DOMAIN_SEPARATOR",
					"outputs": [
						{
							"internalType": "bytes32",
							"name": "",
							"type": "bytes32"
						}
					],
					"stateMutability": "view",
					"type": "function"
				},
				{
					"inputs": [
						{
							"internalType": "address",
							"name": "",
							"type": "address"
						},
						{
							"internalType": "address",
							"name": "",
							"type": "address"
						}
					],
					"name": "allowance",
					"outputs": [
						{
							"internalType": "uint256",
							"name": "",
							"type": "uint256"
						}
					],
					"stateMutability": "view",
					"type": "function"
				},
				{
					"inputs": [
						{
							"internalType": "address",
							"name": "spender",
							"type": "address"
						},
						{
							"internalType": "uint256",
							"name": "amount",
							"type": "uint256"
						}
					],
					"name": "approve",
					"outputs": [
						{
							"internalType": "bool",
							"name": "",
							"type": "bool"
						}
					],
					"stateMutability": "nonpayable",
					"type": "function"
				},
				{
					"inputs": [
						{
							"internalType": "address",
							"name": "",
							"type": "address"
						}
					],
					"name": "balanceOf",
					"outputs": [
						{
							"internalType": "uint256",
							"name": "",
							"type": "uint256"
						}
					],
					"stateMutability": "view",
					"type": "function"
				},
				{
					"inputs": [],
					"name": "decimals",
					"outputs": [
						{
							"internalType": "uint8",
							"name": "",
							"type": "uint8"
						}
					],
					"stateMutability": "view",
					"type": "function"
				},
				{
					"inputs": [],
					"name": "name",
					"outputs": [
						{
							"internalType": "string",
							"name": "",
							"type": "string"
						}
					],
					"stateMutability": "view",
					"type": "function"
				},
				{
					"inputs": [
						{
							"internalType": "address",
							"name": "",
							"type": "address"
						}
					],
					"name": "nonces",
					"outputs": [
						{
							"internalType": "uint256",
							"name": "",
							"type": "uint256"
						}
					],
					"stateMutability": "view",
					"type": "function"
				},
				{
					"inputs": [
						{
							"internalType": "address",
							"name": "owner",
							"type": "address"
						},
						{
							"internalType": "address",
							"name": "spender",
							"type": "address"
						},
						{
							"internalType": "uint256",
							"name": "value",
							"type": "uint256"
						},
						{
							"internalType": "uint256",
							"name": "deadline",
							"type": "uint256"
						},
						{
							"internalType": "uint8",
							"name": "v",
							"type": "uint8"
						},
						{
							"internalType": "bytes32",
							"name": "r",
							"type": "bytes32"
						},
						{
							"internalType": "bytes32",
							"name": "s",
							"type": "bytes32"
						}
					],
					"name": "permit",
					"outputs": [],
					"stateMutability": "nonpayable",
					"type": "function"
				},
				{
					"inputs": [],
					"name": "symbol",
					"outputs": [
						{
							"internalType": "string",
							"name": "",
							"type": "string"
						}
					],
					"stateMutability": "view",
					"type": "function"
				},
				{
					"inputs": [],
					"name": "totalSupply",
					"outputs": [
						{
							"internalType": "uint256",
							"name": "",
							"type": "uint256"
						}
					],
					"stateMutability": "view",
					"type": "function"
				},
				{
					"inputs": [
						{
							"internalType": "address",
							"name": "to",
							"type": "address"
						},
						{
							"internalType": "uint256",
							"name": "amount",
							"type": "uint256"
						}
					],
					"name": "transfer",
					"outputs": [
						{
							"internalType": "bool",
							"name": "",
							"type": "bool"
						}
					],
					"stateMutability": "nonpayable",
					"type": "function"
				},
				{
					"inputs": [
						{
							"internalType": "address",
							"name": "from",
							"type": "address"
						},
						{
							"internalType": "address",
							"name": "to",
							"type": "address"
						},
						{
							"internalType": "uint256",
							"name": "amount",
							"type": "uint256"
						}
					],
					"name": "transferFrom",
					"outputs": [
						{
							"internalType": "bool",
							"name": "",
							"type": "bool"
						}
					],
					"stateMutability": "nonpayable",
					"type": "function"
				}
			],
			"devdoc": {
				"kind": "dev",
				"methods": {},
				"version": 1
			},
			"evm": {
				"assembly": "    /* \"src/guano.sol\":128:211  contract Guano is ERC20  {... */\n  mstore(0x40, 0xe0)\n    /* \"src/guano.sol\":160:200  constructor() ERC20(\"Guano\",\"GUA\",18) {} */\n  callvalue\n  dup1\n  iszero\n  tag_1\n  jumpi\n  revert(0x00, 0x00)\ntag_1:\n  pop\n    /* \"https://github.com/transmissions11/solmate/blob/main/src/tokens/ERC20.sol\":1981:2273  constructor(... */\n  mload(0x40)\n  dup1\n  0x40\n  add\n  0x40\n  mstore\n  dup1\n  0x05\n  dup2\n  mstore\n  0x20\n  add\n  0x4775616e6f000000000000000000000000000000000000000000000000000000\n  dup2\n  mstore\n  pop\n  mload(0x40)\n  dup1\n  0x40\n  add\n  0x40\n  mstore\n  dup1\n  0x03\n  dup2\n  mstore\n  0x20\n  add\n  0x4755410000000000000000000000000000000000000000000000000000000000\n  dup2\n  mstore\n  pop\n    /* \"src/guano.sol\":194:196  18 */\n  0x12\n    /* \"https://github.com/transmissions11/solmate/blob/main/src/tokens/ERC20.sol\":2101:2106  _name */\n  dup3\n    /* \"https://github.com/transmissions11/solmate/blob/main/src/tokens/ERC20.sol\":2094:2098  name */\n  0x00\n    /* \"https://github.com/transmissions11/solmate/blob/main/src/tokens/ERC20.sol\":2094:2106  name = _name */\n  swap1\n  dup2\n  tag_5\n  swap2\n  swap1\n  tag_6\n  jump\t// in\ntag_5:\n  pop\n    /* \"https://github.com/transmissions11/solmate/blob/main/src/tokens/ERC20.sol\":2125:2132  _symbol */\n  dup2\n    /* \"https://github.com/transmissions11/solmate/blob/main/src/tokens/ERC20.sol\":2116:2122  symbol */\n  0x01\n    /* \"https://github.com/transmissions11/solmate/blob/main/src/tokens/ERC20.sol\":2116:2132  symbol = _symbol */\n  swap1\n  dup2\n  tag_7\n  swap2\n  swap1\n  tag_6\n  jump\t// in\ntag_7:\n  pop\n    /* \"https://github.com/transmissions11/solmate/blob/main/src/tokens/ERC20.sol\":2153:2162  _decimals */\n  dup1\n    /* \"https://github.com/transmissions11/solmate/blob/main/src/tokens/ERC20.sol\":2142:2162  decimals = _decimals */\n  0xff\n  and\n  0x80\n  dup2\n  0xff\n  and\n  dup2\n  mstore\n  pop\n  pop\n    /* \"https://github.com/transmissions11/solmate/blob/main/src/tokens/ERC20.sol\":2192:2205  block.chainid */\n  chainid\n    /* \"https://github.com/transmissions11/solmate/blob/main/src/tokens/ERC20.sol\":2173:2205  INITIAL_CHAIN_ID = block.chainid */\n  0xa0\n  dup2\n  dup2\n  mstore\n  pop\n  pop\n    /* \"https://github.com/transmissions11/solmate/blob/main/src/tokens/ERC20.sol\":2242:2266  computeDomainSeparator() */\n  tag_8\n    /* \"https://github.com/transmissions11/solmate/blob/main/src/tokens/ERC20.sol\":2242:2264  computeDomainSeparator */\n  shl(0x20, tag_9)\n    /* \"https://github.com/transmissions11/solmate/blob/main/src/tokens/ERC20.sol\":2242:2266  computeDomainSeparator() */\n  0x20\n  shr\n  jump\t// in\ntag_8:\n    /* \"https://github.com/transmissions11/solmate/blob/main/src/tokens/ERC20.sol\":2215:2266  INITIAL_DOMAIN_SEPARATOR = computeDomainSeparator() */\n  0xc0\n  dup2\n  dup2\n  mstore\n  pop\n  pop\n    /* \"https://github.com/transmissions11/solmate/blob/main/src/tokens/ERC20.sol\":1981:2273  constructor(... */\n  pop\n  pop\n  pop\n    /* \"src/guano.sol\":128:211  contract Guano is ERC20  {... */\n  jump(tag_11)\n    /* \"https://github.com/transmissions11/solmate/blob/main/src/tokens/ERC20.sol\":5510:5956  function computeDomainSeparator() internal view virtual returns (bytes32) {... */\ntag_9:\n    /* \"https://github.com/transmissions11/solmate/blob/main/src/tokens/ERC20.sol\":5575:5582  bytes32 */\n  0x00\n    /* \"https://github.com/transmissions11/solmate/blob/main/src/tokens/ERC20.sol\":5672:5767  keccak256(\"EIP712Domain(string name,string version,uint256 chainId,address verifyingContract)\") */\n  0x8b73c3c69bb8fe3d512ecc4cf759cc79239f7b179b0ffacaa9a75d522b39400f\n    /* \"https://github.com/transmissions11/solmate/blob/main/src/tokens/ERC20.sol\":5805:5809  name */\n  0x00\n    /* \"https://github.com/transmissions11/solmate/blob/main/src/tokens/ERC20.sol\":5789:5811  keccak256(bytes(name)) */\n  mload(0x40)\n  tag_13\n  swap2\n  swap1\n  tag_14\n  jump\t// in\ntag_13:\n  mload(0x40)\n  dup1\n  swap2\n  sub\n  swap1\n  keccak256\n    /* \"https://github.com/transmissions11/solmate/blob/main/src/tokens/ERC20.sol\":5833:5847  keccak256(\"1\") */\n  0xc89efdaa54c0f20c7adf612882df0950f5a951637e0307cdcb4c672f298b8bc6\n    /* \"https://github.com/transmissions11/solmate/blob/main/src/tokens/ERC20.sol\":5869:5882  block.chainid */\n  chainid\n    /* \"https://github.com/transmissions11/solmate/blob/main/src/tokens/ERC20.sol\":5912:5916  this */\n  address\n    /* \"https://github.com/transmissions11/solmate/blob/main/src/tokens/ERC20.sol\":5640:5935  abi.encode(... */\n  add(0x20, mload(0x40))\n  tag_15\n  swap6\n  swap5\n  swap4\n  swap3\n  swap2\n  swap1\n  tag_16\n  jump\t// in\ntag_15:\n  mload(0x40)\n  0x20\n  dup2\n  dup4\n  sub\n  sub\n  dup2\n  mstore\n  swap1\n  0x40\n  mstore\n    /* \"https://github.com/transmissions11/solmate/blob/main/src/tokens/ERC20.sol\":5613:5949  keccak256(... */\n  dup1\n  mload\n  swap1\n  0x20\n  add\n  keccak256\n    /* \"https://github.com/transmissions11/solmate/blob/main/src/tokens/ERC20.sol\":5594:5949  return... */\n  swap1\n  pop\n    /* \"https://github.com/transmissions11/solmate/blob/main/src/tokens/ERC20.sol\":5510:5956  function computeDomainSeparator() internal view virtual returns (bytes32) {... */\n  swap1\n  jump\t// out\n    /* \"#utility.yul\":7:106   */\ntag_17:\n    /* \"#utility.yul\":59:65   */\n  0x00\n    /* \"#utility.yul\":93:98   */\n  dup2\n    /* \"#utility.yul\":87:99   */\n  mload\n    /* \"#utility.yul\":77:99   */\n  swap1\n  pop\n    /* \"#utility.yul\":7:106   */\n  swap2\n  swap1\n  pop\n  jump\t// out\n    /* \"#utility.yul\":112:292   */\ntag_18:\n    /* \"#utility.yul\":160:237   */\n  0x4e487b7100000000000000000000000000000000000000000000000000000000\n    /* \"#utility.yul\":157:158   */\n  0x00\n    /* \"#utility.yul\":150:238   */\n  mstore\n    /* \"#utility.yul\":257:261   */\n  0x41\n    /* \"#utility.yul\":254:255   */\n  0x04\n    /* \"#utility.yul\":247:262   */\n  mstore\n    /* \"#utility.yul\":281:285   */\n  0x24\n    /* \"#utility.yul\":278:279   */\n  0x00\n    /* \"#utility.yul\":271:286   */\n  revert\n    /* \"#utility.yul\":298:478   */\ntag_19:\n    /* \"#utility.yul\":346:423   */\n  0x4e487b7100000000000000000000000000000000000000000000000000000000\n    /* \"#utility.yul\":343:344   */\n  0x00\n    /* \"#utility.yul\":336:424   */\n  mstore\n    /* \"#utility.yul\":443:447   */\n  0x22\n    /* \"#utility.yul\":440:441   */\n  0x04\n    /* \"#utility.yul\":433:448   */\n  mstore\n    /* \"#utility.yul\":467:471   */\n  0x24\n    /* \"#utility.yul\":464:465   */\n  0x00\n    /* \"#utility.yul\":457:472   */\n  revert\n    /* \"#utility.yul\":484:804   */\ntag_20:\n    /* \"#utility.yul\":528:534   */\n  0x00\n    /* \"#utility.yul\":565:566   */\n  0x02\n    /* \"#utility.yul\":559:563   */\n  dup3\n    /* \"#utility.yul\":555:567   */\n  div\n    /* \"#utility.yul\":545:567   */\n  swap1\n  pop\n    /* \"#utility.yul\":612:613   */\n  0x01\n    /* \"#utility.yul\":606:610   */\n  dup3\n    /* \"#utility.yul\":602:614   */\n  and\n    /* \"#utility.yul\":633:651   */\n  dup1\n    /* \"#utility.yul\":623:704   */\n  tag_51\n  jumpi\n    /* \"#utility.yul\":689:693   */\n  0x7f\n    /* \"#utility.yul\":681:687   */\n  dup3\n    /* \"#utility.yul\":677:694   */\n  and\n    /* \"#utility.yul\":667:694   */\n  swap2\n  pop\n    /* \"#utility.yul\":623:704   */\ntag_51:\n    /* \"#utility.yul\":751:753   */\n  0x20\n    /* \"#utility.yul\":743:749   */\n  dup3\n    /* \"#utility.yul\":740:754   */\n  lt\n    /* \"#utility.yul\":720:738   */\n  dup2\n    /* \"#utility.yul\":717:755   */\n  sub\n    /* \"#utility.yul\":714:798   */\n  tag_52\n  jumpi\n    /* \"#utility.yul\":770:788   */\n  tag_53\n  tag_19\n  jump\t// in\ntag_53:\n    /* \"#utility.yul\":714:798   */\ntag_52:\n    /* \"#utility.yul\":535:804   */\n  pop\n    /* \"#utility.yul\":484:804   */\n  swap2\n  swap1\n  pop\n  jump\t// out\n    /* \"#utility.yul\":810:951   */\ntag_21:\n    /* \"#utility.yul\":859:863   */\n  0x00\n    /* \"#utility.yul\":882:885   */\n  dup2\n    /* \"#utility.yul\":874:885   */\n  swap1\n  pop\n    /* \"#utility.yul\":905:908   */\n  dup2\n    /* \"#utility.yul\":902:903   */\n  0x00\n    /* \"#utility.yul\":895:909   */\n  mstore\n    /* \"#utility.yul\":939:943   */\n  0x20\n    /* \"#utility.yul\":936:937   */\n  0x00\n    /* \"#utility.yul\":926:944   */\n  keccak256\n    /* \"#utility.yul\":918:944   */\n  swap1\n  pop\n    /* \"#utility.yul\":810:951   */\n  swap2\n  swap1\n  pop\n  jump\t// out\n    /* \"#utility.yul\":957:1050   */\ntag_22:\n    /* \"#utility.yul\":994:1000   */\n  0x00\n    /* \"#utility.yul\":1041:1043   */\n  0x20\n    /* \"#utility.yul\":1036:1038   */\n  0x1f\n    /* \"#utility.yul\":1029:1034   */\n  dup4\n    /* \"#utility.yul\":1025:1039   */\n  add\n    /* \"#utility.yul\":1021:1044   */\n  div\n    /* \"#utility.yul\":1011:1044   */\n  swap1\n  pop\n    /* \"#utility.yul\":957:1050   */\n  swap2\n  swap1\n  pop\n  jump\t// out\n    /* \"#utility.yul\":1056:1163   */\ntag_23:\n    /* \"#utility.yul\":1100:1108   */\n  0x00\n    /* \"#utility.yul\":1150:1155   */\n  dup3\n    /* \"#utility.yul\":1144:1148   */\n  dup3\n    /* \"#utility.yul\":1140:1156   */\n  shl\n    /* \"#utility.yul\":1119:1156   */\n  swap1\n  pop\n    /* \"#utility.yul\":1056:1163   */\n  swap3\n  swap2\n  pop\n  pop\n  jump\t// out\n    /* \"#utility.yul\":1169:1562   */\ntag_24:\n    /* \"#utility.yul\":1238:1244   */\n  0x00\n    /* \"#utility.yul\":1288:1289   */\n  0x08\n    /* \"#utility.yul\":1276:1286   */\n  dup4\n    /* \"#utility.yul\":1272:1290   */\n  mul\n    /* \"#utility.yul\":1311:1408   */\n  tag_58\n    /* \"#utility.yul\":1341:1407   */\n  0xffffffffffffffffffffffffffffffffffffffffffffffffffffffffffffffff\n    /* \"#utility.yul\":1330:1339   */\n  dup3\n    /* \"#utility.yul\":1311:1408   */\n  tag_23\n  jump\t// in\ntag_58:\n    /* \"#utility.yul\":1429:1468   */\n  tag_59\n    /* \"#utility.yul\":1459:1467   */\n  dup7\n    /* \"#utility.yul\":1448:1457   */\n  dup4\n    /* \"#utility.yul\":1429:1468   */\n  tag_23\n  jump\t// in\ntag_59:\n    /* \"#utility.yul\":1417:1468   */\n  swap6\n  pop\n    /* \"#utility.yul\":1501:1505   */\n  dup1\n    /* \"#utility.yul\":1497:1506   */\n  not\n    /* \"#utility.yul\":1490:1495   */\n  dup5\n    /* \"#utility.yul\":1486:1507   */\n  and\n    /* \"#utility.yul\":1477:1507   */\n  swap4\n  pop\n    /* \"#utility.yul\":1550:1554   */\n  dup1\n    /* \"#utility.yul\":1540:1548   */\n  dup7\n    /* \"#utility.yul\":1536:1555   */\n  and\n    /* \"#utility.yul\":1529:1534   */\n  dup5\n    /* \"#utility.yul\":1526:1556   */\n  or\n    /* \"#utility.yul\":1516:1556   */\n  swap3\n  pop\n    /* \"#utility.yul\":1245:1562   */\n  pop\n  pop\n    /* \"#utility.yul\":1169:1562   */\n  swap4\n  swap3\n  pop\n  pop\n  pop\n  jump\t// out\n    /* \"#utility.yul\":1568:1645   */\ntag_25:\n    /* \"#utility.yul\":1605:1612   */\n  0x00\n    /* \"#utility.yul\":1634:1639   */\n  dup2\n    /* \"#utility.yul\":1623:1639   */\n  swap1\n  pop\n    /* \"#utility.yul\":1568:1645   */\n  swap2\n  swap1\n  pop\n  jump\t// out\n    /* \"#utility.yul\":1651:1711   */\ntag_26:\n    /* \"#utility.yul\":1679:1682   */\n  0x00\n    /* \"#utility.yul\":1700:1705   */\n  dup2\n    /* \"#utility.yul\":1693:1705   */\n  swap1\n  pop\n    /* \"#utility.yul\":1651:1711   */\n  swap2\n  swap1\n  pop\n  jump\t// out\n    /* \"#utility.yul\":1717:1859   */\ntag_27:\n    /* \"#utility.yul\":1767:1776   */\n  0x00\n    /* \"#utility.yul\":1800:1853   */\n  tag_63\n    /* \"#utility.yul\":1818:1852   */\n  tag_64\n    /* \"#utility.yul\":1827:1851   */\n  tag_65\n    /* \"#utility.yul\":1845:1850   */\n  dup5\n    /* \"#utility.yul\":1827:1851   */\n  tag_25\n  jump\t// in\ntag_65:\n    /* \"#utility.yul\":1818:1852   */\n  tag_26\n  jump\t// in\ntag_64:\n    /* \"#utility.yul\":1800:1853   */\n  tag_25\n  jump\t// in\ntag_63:\n    /* \"#utility.yul\":1787:1853   */\n  swap1\n  pop\n    /* \"#utility.yul\":1717:1859   */\n  swap2\n  swap1\n  pop\n  jump\t// out\n    /* \"#utility.yul\":1865:1940   */\ntag_28:\n    /* \"#utility.yul\":1908:1911   */\n  0x00\n    /* \"#utility.yul\":1929:1934   */\n  dup2\n    /* \"#utility.yul\":1922:1934   */\n  swap1\n  pop\n    /* \"#utility.yul\":1865:1940   */\n  swap2\n  swap1\n  pop\n  jump\t// out\n    /* \"#utility.yul\":1946:2215   */\ntag_29:\n    /* \"#utility.yul\":2056:2095   */\n  tag_68\n    /* \"#utility.yul\":2087:2094   */\n  dup4\n    /* \"#utility.yul\":2056:2095   */\n  tag_27\n  jump\t// in\ntag_68:\n    /* \"#utility.yul\":2117:2208   */\n  tag_69\n    /* \"#utility.yul\":2166:2207   */\n  tag_70\n    /* \"#utility.yul\":2190:2206   */\n  dup3\n    /* \"#utility.yul\":2166:2207   */\n  tag_28\n  jump\t// in\ntag_70:\n    /* \"#utility.yul\":2158:2164   */\n  dup5\n    /* \"#utility.yul\":2151:2155   */\n  dup5\n    /* \"#utility.yul\":2145:2156   */\n  sload\n    /* \"#utility.yul\":2117:2208   */\n  tag_24\n  jump\t// in\ntag_69:\n    /* \"#utility.yul\":2111:2115   */\n  dup3\n    /* \"#utility.yul\":2104:2209   */\n  sstore\n    /* \"#utility.yul\":2022:2215   */\n  pop\n    /* \"#utility.yul\":1946:2215   */\n  pop\n  pop\n  pop\n  jump\t// out\n    /* \"#utility.yul\":2221:2294   */\ntag_30:\n    /* \"#utility.yul\":2266:2269   */\n  0x00\n    /* \"#utility.yul\":2287:2288   */\n  0x00\n    /* \"#utility.yul\":2280:2288   */\n  swap1\n  pop\n    /* \"#utility.yul\":2221:2294   */\n  swap1\n  jump\t// out\n    /* \"#utility.yul\":2300:2489   */\ntag_31:\n    /* \"#utility.yul\":2377:2409   */\n  tag_73\n  tag_30\n  jump\t// in\ntag_73:\n    /* \"#utility.yul\":2418:2483   */\n  tag_74\n    /* \"#utility.yul\":2476:2482   */\n  dup2\n    /* \"#utility.yul\":2468:2474   */\n  dup5\n    /* \"#utility.yul\":2462:2466   */\n  dup5\n    /* \"#utility.yul\":2418:2483   */\n  tag_29\n  jump\t// in\ntag_74:\n    /* \"#utility.yul\":2353:2489   */\n  pop\n    /* \"#utility.yul\":2300:2489   */\n  pop\n  pop\n  jump\t// out\n    /* \"#utility.yul\":2495:2681   */\ntag_32:\n    /* \"#utility.yul\":2555:2675   */\ntag_76:\n    /* \"#utility.yul\":2572:2575   */\n  dup2\n    /* \"#utility.yul\":2565:2570   */\n  dup2\n    /* \"#utility.yul\":2562:2576   */\n  lt\n    /* \"#utility.yul\":2555:2675   */\n  iszero\n  tag_78\n  jumpi\n    /* \"#utility.yul\":2626:2665   */\n  tag_79\n    /* \"#utility.yul\":2663:2664   */\n  0x00\n    /* \"#utility.yul\":2656:2661   */\n  dup3\n    /* \"#utility.yul\":2626:2665   */\n  tag_31\n  jump\t// in\ntag_79:\n    /* \"#utility.yul\":2599:2600   */\n  0x01\n    /* \"#utility.yul\":2592:2597   */\n  dup2\n    /* \"#utility.yul\":2588:2601   */\n  add\n    /* \"#utility.yul\":2579:2601   */\n  swap1\n  pop\n    /* \"#utility.yul\":2555:2675   */\n  jump(tag_76)\ntag_78:\n    /* \"#utility.yul\":2495:2681   */\n  pop\n  pop\n  jump\t// out\n    /* \"#utility.yul\":2687:3230   */\ntag_33:\n    /* \"#utility.yul\":2788:2790   */\n  0x1f\n    /* \"#utility.yul\":2783:2786   */\n  dup3\n    /* \"#utility.yul\":2780:2791   */\n  gt\n    /* \"#utility.yul\":2777:3223   */\n  iszero\n  tag_81\n  jumpi\n    /* \"#utility.yul\":2822:2860   */\n  tag_82\n    /* \"#utility.yul\":2854:2859   */\n  dup2\n    /* \"#utility.yul\":2822:2860   */\n  tag_21\n  jump\t// in\ntag_82:\n    /* \"#utility.yul\":2906:2935   */\n  tag_83\n    /* \"#utility.yul\":2924:2934   */\n  dup5\n    /* \"#utility.yul\":2906:2935   */\n  tag_22\n  jump\t// in\ntag_83:\n    /* \"#utility.yul\":2896:2904   */\n  dup2\n    /* \"#utility.yul\":2892:2936   */\n  add\n    /* \"#utility.yul\":3089:3091   */\n  0x20\n    /* \"#utility.yul\":3077:3087   */\n  dup6\n    /* \"#utility.yul\":3074:3092   */\n  lt\n    /* \"#utility.yul\":3071:3120   */\n  iszero\n  tag_84\n  jumpi\n    /* \"#utility.yul\":3110:3118   */\n  dup2\n    /* \"#utility.yul\":3095:3118   */\n  swap1\n  pop\n    /* \"#utility.yul\":3071:3120   */\ntag_84:\n    /* \"#utility.yul\":3133:3213   */\n  tag_85\n    /* \"#utility.yul\":3189:3211   */\n  tag_86\n    /* \"#utility.yul\":3207:3210   */\n  dup6\n    /* \"#utility.yul\":3189:3211   */\n  tag_22\n  jump\t// in\ntag_86:\n    /* \"#utility.yul\":3179:3187   */\n  dup4\n    /* \"#utility.yul\":3175:3212   */\n  add\n    /* \"#utility.yul\":3162:3173   */\n  dup3\n    /* \"#utility.yul\":3133:3213   */\n  tag_32\n  jump\t// in\ntag_85:\n    /* \"#utility.yul\":2792:3223   */\n  pop\n  pop\n    /* \"#utility.yul\":2777:3223   */\ntag_81:\n    /* \"#utility.yul\":2687:3230   */\n  pop\n  pop\n  pop\n  jump\t// out\n    /* \"#utility.yul\":3236:3353   */\ntag_34:\n    /* \"#utility.yul\":3290:3298   */\n  0x00\n    /* \"#utility.yul\":3340:3345   */\n  dup3\n    /* \"#utility.yul\":3334:3338   */\n  dup3\n    /* \"#utility.yul\":3330:3346   */\n  shr\n    /* \"#utility.yul\":3309:3346   */\n  swap1\n  pop\n    /* \"#utility.yul\":3236:3353   */\n  swap3\n  swap2\n  pop\n  pop\n  jump\t// out\n    /* \"#utility.yul\":3359:3528   */\ntag_35:\n    /* \"#utility.yul\":3403:3409   */\n  0x00\n    /* \"#utility.yul\":3436:3487   */\n  tag_89\n    /* \"#utility.yul\":3484:3485   */\n  0x00\n    /* \"#utility.yul\":3480:3486   */\n  not\n    /* \"#utility.yul\":3472:3477   */\n  dup5\n    /* \"#utility.yul\":3469:3470   */\n  0x08\n    /* \"#utility.yul\":3465:3478   */\n  mul\n    /* \"#utility.yul\":3436:3487   */\n  tag_34\n  jump\t// in\ntag_89:\n    /* \"#utility.yul\":3432:3488   */\n  not\n    /* \"#utility.yul\":3517:3521   */\n  dup1\n    /* \"#utility.yul\":3511:3515   */\n  dup4\n    /* \"#utility.yul\":3507:3522   */\n  and\n    /* \"#utility.yul\":3497:3522   */\n  swap2\n  pop\n    /* \"#utility.yul\":3410:3528   */\n  pop\n    /* \"#utility.yul\":3359:3528   */\n  swap3\n  swap2\n  pop\n  pop\n  jump\t// out\n    /* \"#utility.yul\":3533:3828   */\ntag_36:\n    /* \"#utility.yul\":3609:3613   */\n  0x00\n    /* \"#utility.yul\":3755:3784   */\n  tag_91\n    /* \"#utility.yul\":3780:3783   */\n  dup4\n    /* \"#utility.yul\":3774:3778   */\n  dup4\n    /* \"#utility.yul\":3755:3784   */\n  tag_35\n  jump\t// in\ntag_91:\n    /* \"#utility.yul\":3747:3784   */\n  swap2\n  pop\n    /* \"#utility.yul\":3817:3820   */\n  dup3\n    /* \"#utility.yul\":3814:3815   */\n  0x02\n    /* \"#utility.yul\":3810:3821   */\n  mul\n    /* \"#utility.yul\":3804:3808   */\n  dup3\n    /* \"#utility.yul\":3801:3822   */\n  or\n    /* \"#utility.yul\":3793:3822   */\n  swap1\n  pop\n    /* \"#utility.yul\":3533:3828   */\n  swap3\n  swap2\n  pop\n  pop\n  jump\t// out\n    /* \"#utility.yul\":3833:5228   */\ntag_6:\n    /* \"#utility.yul\":3950:3987   */\n  tag_93\n    /* \"#utility.yul\":3983:3986   */\n  dup3\n    /* \"#utility.yul\":3950:3987   */\n  tag_17\n  jump\t// in\ntag_93:\n    /* \"#utility.yul\":4052:4070   */\n  0xffffffffffffffff\n    /* \"#utility.yul\":4044:4050   */\n  dup2\n    /* \"#utility.yul\":4041:4071   */\n  gt\n    /* \"#utility.yul\":4038:4094   */\n  iszero\n  tag_94\n  jumpi\n    /* \"#utility.yul\":4074:4092   */\n  tag_95\n  tag_18\n  jump\t// in\ntag_95:\n    /* \"#utility.yul\":4038:4094   */\ntag_94:\n    /* \"#utility.yul\":4118:4156   */\n  tag_96\n    /* \"#utility.yul\":4150:4154   */\n  dup3\n    /* \"#utility.yul\":4144:4155   */\n  sload\n    /* \"#utility.yul\":4118:4156   */\n  tag_20\n  jump\t// in\ntag_96:\n    /* \"#utility.yul\":4203:4270   */\n  tag_97\n    /* \"#utility.yul\":4263:4269   */\n  dup3\n    /* \"#utility.yul\":4255:4261   */\n  dup3\n    /* \"#utility.yul\":4249:4253   */\n  dup6\n    /* \"#utility.yul\":4203:4270   */\n  tag_33\n  jump\t// in\ntag_97:\n    /* \"#utility.yul\":4297:4298   */\n  0x00\n    /* \"#utility.yul\":4321:4325   */\n  0x20\n    /* \"#utility.yul\":4308:4325   */\n  swap1\n  pop\n    /* \"#utility.yul\":4353:4355   */\n  0x1f\n    /* \"#utility.yul\":4345:4351   */\n  dup4\n    /* \"#utility.yul\":4342:4356   */\n  gt\n    /* \"#utility.yul\":4370:4371   */\n  0x01\n    /* \"#utility.yul\":4365:4983   */\n  dup2\n  eq\n  tag_99\n  jumpi\n    /* \"#utility.yul\":5027:5028   */\n  0x00\n    /* \"#utility.yul\":5044:5050   */\n  dup5\n    /* \"#utility.yul\":5041:5118   */\n  iszero\n  tag_100\n  jumpi\n    /* \"#utility.yul\":5093:5102   */\n  dup3\n    /* \"#utility.yul\":5088:5091   */\n  dup8\n    /* \"#utility.yul\":5084:5103   */\n  add\n    /* \"#utility.yul\":5078:5104   */\n  mload\n    /* \"#utility.yul\":5069:5104   */\n  swap1\n  pop\n    /* \"#utility.yul\":5041:5118   */\ntag_100:\n    /* \"#utility.yul\":5144:5211   */\n  tag_101\n    /* \"#utility.yul\":5204:5210   */\n  dup6\n    /* \"#utility.yul\":5197:5202   */\n  dup3\n    /* \"#utility.yul\":5144:5211   */\n  tag_36\n  jump\t// in\ntag_101:\n    /* \"#utility.yul\":5138:5142   */\n  dup7\n    /* \"#utility.yul\":5131:5212   */\n  sstore\n    /* \"#utility.yul\":5000:5222   */\n  pop\n    /* \"#utility.yul\":4335:5222   */\n  jump(tag_98)\n    /* \"#utility.yul\":4365:4983   */\ntag_99:\n    /* \"#utility.yul\":4417:4421   */\n  0x1f\n    /* \"#utility.yul\":4413:4422   */\n  not\n    /* \"#utility.yul\":4405:4411   */\n  dup5\n    /* \"#utility.yul\":4401:4423   */\n  and\n    /* \"#utility.yul\":4451:4488   */\n  tag_102\n    /* \"#utility.yul\":4483:4487   */\n  dup7\n    /* \"#utility.yul\":4451:4488   */\n  tag_21\n  jump\t// in\ntag_102:\n    /* \"#utility.yul\":4510:4511   */\n  0x00\n    /* \"#utility.yul\":4524:4732   */\ntag_103:\n    /* \"#utility.yul\":4538:4545   */\n  dup3\n    /* \"#utility.yul\":4535:4536   */\n  dup2\n    /* \"#utility.yul\":4532:4546   */\n  lt\n    /* \"#utility.yul\":4524:4732   */\n  iszero\n  tag_105\n  jumpi\n    /* \"#utility.yul\":4617:4626   */\n  dup5\n    /* \"#utility.yul\":4612:4615   */\n  dup10\n    /* \"#utility.yul\":4608:4627   */\n  add\n    /* \"#utility.yul\":4602:4628   */\n  mload\n    /* \"#utility.yul\":4594:4600   */\n  dup3\n    /* \"#utility.yul\":4587:4629   */\n  sstore\n    /* \"#utility.yul\":4668:4669   */\n  0x01\n    /* \"#utility.yul\":4660:4666   */\n  dup3\n    /* \"#utility.yul\":4656:4670   */\n  add\n    /* \"#utility.yul\":4646:4670   */\n  swap2\n  pop\n    /* \"#utility.yul\":4715:4717   */\n  0x20\n    /* \"#utility.yul\":4704:4713   */\n  dup6\n    /* \"#utility.yul\":4700:4718   */\n  add\n    /* \"#utility.yul\":4687:4718   */\n  swap5\n  pop\n    /* \"#utility.yul\":4561:4565   */\n  0x20\n    /* \"#utility.yul\":4558:4559   */\n  dup2\n    /* \"#utility.yul\":4554:4566   */\n  add\n    /* \"#utility.yul\":4549:4566   */\n  swap1\n  pop\n    /* \"#utility.yul\":4524:4732   */\n  jump(tag_103)\ntag_105:\n    /* \"#utility.yul\":4760:4766   */\n  dup7\n    /* \"#utility.yul\":4751:4758   */\n  dup4\n    /* \"#utility.yul\":4748:4767   */\n  lt\n    /* \"#utility.yul\":4745:4924   */\n  iszero\n  tag_106\n  jumpi\n    /* \"#utility.yul\":4818:4827   */\n  dup5\n    /* \"#utility.yul\":4813:4816   */\n  dup10\n    /* \"#utility.yul\":4809:4828   */\n  add\n    /* \"#utility.yul\":4803:4829   */\n  mload\n    /* \"#utility.yul\":4861:4909   */\n  tag_107\n    /* \"#utility.yul\":4903:4907   */\n  0x1f\n    /* \"#utility.yul\":4895:4901   */\n  dup10\n    /* \"#utility.yul\":4891:4908   */\n  and\n    /* \"#utility.yul\":4880:4889   */\n  dup3\n    /* \"#utility.yul\":4861:4909   */\n  tag_35\n  jump\t// in\ntag_107:\n    /* \"#utility.yul\":4853:4859   */\n  dup4\n    /* \"#utility.yul\":4846:4910   */\n  sstore\n    /* \"#utility.yul\":4768:4924   */\n  pop\n    /* \"#utility.yul\":4745:4924   */\ntag_106:\n    /* \"#utility.yul\":4970:4971   */\n  0x01\n    /* \"#utility.yul\":4966:4967   */\n  0x02\n    /* \"#utility.yul\":4958:4964   */\n  dup9\n    /* \"#utility.yul\":4954:4968   */\n  mul\n    /* \"#utility.yul\":4950:4972   */\n  add\n    /* \"#utility.yul\":4944:4948   */\n  dup9\n    /* \"#utility.yul\":4937:4973   */\n  sstore\n    /* \"#utility.yul\":4372:4983   */\n  pop\n  pop\n  pop\n    /* \"#utility.yul\":4335:5222   */\ntag_98:\n  pop\n    /* \"#utility.yul\":3925:5228   */\n  pop\n  pop\n  pop\n    /* \"#utility.yul\":3833:5228   */\n  pop\n  pop\n  jump\t// out\n    /* \"#utility.yul\":5234:5381   */\ntag_37:\n    /* \"#utility.yul\":5335:5346   */\n  0x00\n    /* \"#utility.yul\":5372:5375   */\n  dup2\n    /* \"#utility.yul\":5357:5375   */\n  swap1\n  pop\n    /* \"#utility.yul\":5234:5381   */\n  swap3\n  swap2\n  pop\n  pop\n  jump\t// out\n    /* \"#utility.yul\":5387:5531   */\ntag_38:\n    /* \"#utility.yul\":5439:5443   */\n  0x00\n    /* \"#utility.yul\":5462:5465   */\n  dup2\n    /* \"#utility.yul\":5454:5465   */\n  swap1\n  pop\n    /* \"#utility.yul\":5485:5488   */\n  dup2\n    /* \"#utility.yul\":5482:5483   */\n  0x00\n    /* \"#utility.yul\":5475:5489   */\n  mstore\n    /* \"#utility.yul\":5519:5523   */\n  0x20\n    /* \"#utility.yul\":5516:5517   */\n  0x00\n    /* \"#utility.yul\":5506:5524   */\n  keccak256\n    /* \"#utility.yul\":5498:5524   */\n  swap1\n  pop\n    /* \"#utility.yul\":5387:5531   */\n  swap2\n  swap1\n  pop\n  jump\t// out\n    /* \"#utility.yul\":5559:6437   */\ntag_39:\n    /* \"#utility.yul\":5664:5667   */\n  0x00\n    /* \"#utility.yul\":5701:5706   */\n  dup2\n    /* \"#utility.yul\":5695:5707   */\n  sload\n    /* \"#utility.yul\":5730:5766   */\n  tag_111\n    /* \"#utility.yul\":5756:5765   */\n  dup2\n    /* \"#utility.yul\":5730:5766   */\n  tag_20\n  jump\t// in\ntag_111:\n    /* \"#utility.yul\":5782:5870   */\n  tag_112\n    /* \"#utility.yul\":5863:5869   */\n  dup2\n    /* \"#utility.yul\":5858:5861   */\n  dup7\n    /* \"#utility.yul\":5782:5870   */\n  tag_37\n  jump\t// in\ntag_112:\n    /* \"#utility.yul\":5775:5870   */\n  swap5\n  pop\n    /* \"#utility.yul\":5901:5902   */\n  0x01\n    /* \"#utility.yul\":5890:5899   */\n  dup3\n    /* \"#utility.yul\":5886:5903   */\n  and\n    /* \"#utility.yul\":5917:5918   */\n  0x00\n    /* \"#utility.yul\":5912:6078   */\n  dup2\n  eq\n  tag_114\n  jumpi\n    /* \"#utility.yul\":6092:6093   */\n  0x01\n    /* \"#utility.yul\":6087:6431   */\n  dup2\n  eq\n  tag_115\n  jumpi\n    /* \"#utility.yul\":5879:6431   */\n  jump(tag_113)\n    /* \"#utility.yul\":5912:6078   */\ntag_114:\n    /* \"#utility.yul\":5996:6000   */\n  0xff\n    /* \"#utility.yul\":5992:6001   */\n  not\n    /* \"#utility.yul\":5981:5990   */\n  dup4\n    /* \"#utility.yul\":5977:6002   */\n  and\n    /* \"#utility.yul\":5972:5975   */\n  dup7\n    /* \"#utility.yul\":5965:6003   */\n  mstore\n    /* \"#utility.yul\":6058:6064   */\n  dup2\n    /* \"#utility.yul\":6051:6065   */\n  iszero\n    /* \"#utility.yul\":6044:6066   */\n  iszero\n    /* \"#utility.yul\":6036:6042   */\n  dup3\n    /* \"#utility.yul\":6032:6067   */\n  mul\n    /* \"#utility.yul\":6027:6030   */\n  dup7\n    /* \"#utility.yul\":6023:6068   */\n  add\n    /* \"#utility.yul\":6016:6068   */\n  swap4\n  pop\n    /* \"#utility.yul\":5912:6078   */\n  jump(tag_113)\n    /* \"#utility.yul\":6087:6431   */\ntag_115:\n    /* \"#utility.yul\":6154:6195   */\n  tag_116\n    /* \"#utility.yul\":6189:6194   */\n  dup6\n    /* \"#utility.yul\":6154:6195   */\n  tag_38\n  jump\t// in\ntag_116:\n    /* \"#utility.yul\":6217:6218   */\n  0x00\n    /* \"#utility.yul\":6231:6385   */\ntag_117:\n    /* \"#utility.yul\":6245:6251   */\n  dup4\n    /* \"#utility.yul\":6242:6243   */\n  dup2\n    /* \"#utility.yul\":6239:6252   */\n  lt\n    /* \"#utility.yul\":6231:6385   */\n  iszero\n  tag_119\n  jumpi\n    /* \"#utility.yul\":6319:6326   */\n  dup2\n    /* \"#utility.yul\":6313:6327   */\n  sload\n    /* \"#utility.yul\":6309:6310   */\n  dup2\n    /* \"#utility.yul\":6304:6307   */\n  dup10\n    /* \"#utility.yul\":6300:6311   */\n  add\n    /* \"#utility.yul\":6293:6328   */\n  mstore\n    /* \"#utility.yul\":6369:6370   */\n  0x01\n    /* \"#utility.yul\":6360:6367   */\n  dup3\n    /* \"#utility.yul\":6356:6371   */\n  add\n    /* \"#utility.yul\":6345:6371   */\n  swap2\n  pop\n    /* \"#utility.yul\":6267:6271   */\n  0x20\n    /* \"#utility.yul\":6264:6265   */\n  dup2\n    /* \"#utility.yul\":6260:6272   */\n  add\n    /* \"#utility.yul\":6255:6272   */\n  swap1\n  pop\n    /* \"#utility.yul\":6231:6385   */\n  jump(tag_117)\ntag_119:\n    /* \"#utility.yul\":6414:6420   */\n  dup4\n    /* \"#utility.yul\":6409:6412   */\n  dup9\n    /* \"#utility.yul\":6405:6421   */\n  add\n    /* \"#utility.yul\":6398:6421   */\n  swap6\n  pop\n    /* \"#utility.yul\":6094:6431   */\n  pop\n  pop\n    /* \"#utility.yul\":5879:6431   */\ntag_113:\n  pop\n    /* \"#utility.yul\":5668:6437   */\n  pop\n  pop\n    /* \"#utility.yul\":5559:6437   */\n  swap3\n  swap2\n  pop\n  pop\n  jump\t// out\n    /* \"#utility.yul\":6443:6716   */\ntag_14:\n    /* \"#utility.yul\":6574:6577   */\n  0x00\n    /* \"#utility.yul\":6596:6690   */\n  tag_121\n    /* \"#utility.yul\":6686:6689   */\n  dup3\n    /* \"#utility.yul\":6677:6683   */\n  dup5\n    /* \"#utility.yul\":6596:6690   */\n  tag_39\n  jump\t// in\ntag_121:\n    /* \"#utility.yul\":6589:6690   */\n  swap2\n  pop\n    /* \"#utility.yul\":6707:6710   */\n  dup2\n    /* \"#utility.yul\":6700:6710   */\n  swap1\n  pop\n    /* \"#utility.yul\":6443:6716   */\n  swap3\n  swap2\n  pop\n  pop\n  jump\t// out\n    /* \"#utility.yul\":6722:6799   */\ntag_40:\n    /* \"#utility.yul\":6759:6766   */\n  0x00\n    /* \"#utility.yul\":6788:6793   */\n  dup2\n    /* \"#utility.yul\":6777:6793   */\n  swap1\n  pop\n    /* \"#utility.yul\":6722:6799   */\n  swap2\n  swap1\n  pop\n  jump\t// out\n    /* \"#utility.yul\":6805:6923   */\ntag_41:\n    /* \"#utility.yul\":6892:6916   */\n  tag_124\n    /* \"#utility.yul\":6910:6915   */\n  dup2\n    /* \"#utility.yul\":6892:6916   */\n  tag_40\n  jump\t// in\ntag_124:\n    /* \"#utility.yul\":6887:6890   */\n  dup3\n    /* \"#utility.yul\":6880:6917   */\n  mstore\n    /* \"#utility.yul\":6805:6923   */\n  pop\n  pop\n  jump\t// out\n    /* \"#utility.yul\":6929:7047   */\ntag_42:\n    /* \"#utility.yul\":7016:7040   */\n  tag_126\n    /* \"#utility.yul\":7034:7039   */\n  dup2\n    /* \"#utility.yul\":7016:7040   */\n  tag_25\n  jump\t// in\ntag_126:\n    /* \"#utility.yul\":7011:7014   */\n  dup3\n    /* \"#utility.yul\":7004:7041   */\n  mstore\n    /* \"#utility.yul\":6929:7047   */\n  pop\n  pop\n  jump\t// out\n    /* \"#utility.yul\":7053:7179   */\ntag_43:\n    /* \"#utility.yul\":7090:7097   */\n  0x00\n    /* \"#utility.yul\":7130:7172   */\n  0xffffffffffffffffffffffffffffffffffffffff\n    /* \"#utility.yul\":7123:7128   */\n  dup3\n    /* \"#utility.yul\":7119:7173   */\n  and\n    /* \"#utility.yul\":7108:7173   */\n  swap1\n  pop\n    /* \"#utility.yul\":7053:7179   */\n  swap2\n  swap1\n  pop\n  jump\t// out\n    /* \"#utility.yul\":7185:7281   */\ntag_44:\n    /* \"#utility.yul\":7222:7229   */\n  0x00\n    /* \"#utility.yul\":7251:7275   */\n  tag_129\n    /* \"#utility.yul\":7269:7274   */\n  dup3\n    /* \"#utility.yul\":7251:7275   */\n  tag_43\n  jump\t// in\ntag_129:\n    /* \"#utility.yul\":7240:7275   */\n  swap1\n  pop\n    /* \"#utility.yul\":7185:7281   */\n  swap2\n  swap1\n  pop\n  jump\t// out\n    /* \"#utility.yul\":7287:7405   */\ntag_45:\n    /* \"#utility.yul\":7374:7398   */\n  tag_131\n    /* \"#utility.yul\":7392:7397   */\n  dup2\n    /* \"#utility.yul\":7374:7398   */\n  tag_44\n  jump\t// in\ntag_131:\n    /* \"#utility.yul\":7369:7372   */\n  dup3\n    /* \"#utility.yul\":7362:7399   */\n  mstore\n    /* \"#utility.yul\":7287:7405   */\n  pop\n  pop\n  jump\t// out\n    /* \"#utility.yul\":7411:8075   */\ntag_16:\n    /* \"#utility.yul\":7616:7620   */\n  0x00\n    /* \"#utility.yul\":7654:7657   */\n  0xa0\n    /* \"#utility.yul\":7643:7652   */\n  dup3\n    /* \"#utility.yul\":7639:7658   */\n  add\n    /* \"#utility.yul\":7631:7658   */\n  swap1\n  pop\n    /* \"#utility.yul\":7668:7739   */\n  tag_133\n    /* \"#utility.yul\":7736:7737   */\n  0x00\n    /* \"#utility.yul\":7725:7734   */\n  dup4\n    /* \"#utility.yul\":7721:7738   */\n  add\n    /* \"#utility.yul\":7712:7718   */\n  dup9\n    /* \"#utility.yul\":7668:7739   */\n  tag_41\n  jump\t// in\ntag_133:\n    /* \"#utility.yul\":7749:7821   */\n  tag_134\n    /* \"#utility.yul\":7817:7819   */\n  0x20\n    /* \"#utility.yul\":7806:7815   */\n  dup4\n    /* \"#utility.yul\":7802:7820   */\n  add\n    /* \"#utility.yul\":7793:7799   */\n  dup8\n    /* \"#utility.yul\":7749:7821   */\n  tag_41\n  jump\t// in\ntag_134:\n    /* \"#utility.yul\":7831:7903   */\n  tag_135\n    /* \"#utility.yul\":7899:7901   */\n  0x40\n    /* \"#utility.yul\":7888:7897   */\n  dup4\n    /* \"#utility.yul\":7884:7902   */\n  add\n    /* \"#utility.yul\":7875:7881   */\n  dup7\n    /* \"#utility.yul\":7831:7903   */\n  tag_41\n  jump\t// in\ntag_135:\n    /* \"#utility.yul\":7913:7985   */\n  tag_136\n    /* \"#utility.yul\":7981:7983   */\n  0x60\n    /* \"#utility.yul\":7970:7979   */\n  dup4\n    /* \"#utility.yul\":7966:7984   */\n  add\n    /* \"#utility.yul\":7957:7963   */\n  dup6\n    /* \"#utility.yul\":7913:7985   */\n  tag_42\n  jump\t// in\ntag_136:\n    /* \"#utility.yul\":7995:8068   */\n  tag_137\n    /* \"#utility.yul\":8063:8066   */\n  0x80\n    /* \"#utility.yul\":8052:8061   */\n  dup4\n    /* \"#utility.yul\":8048:8067   */\n  add\n    /* \"#utility.yul\":8039:8045   */\n  dup5\n    /* \"#utility.yul\":7995:8068   */\n  tag_45\n  jump\t// in\ntag_137:\n    /* \"#utility.yul\":7411:8075   */\n  swap7\n  swap6\n  pop\n  pop\n  pop\n  pop\n  pop\n  pop\n  jump\t// out\n    /* \"src/guano.sol\":128:211  contract Guano is ERC20  {... */\ntag_11:\n  mload(0x80)\n  mload(0xa0)\n  mload(0xc0)\n  codecopy(0x00, dataOffset(sub_0), dataSize(sub_0))\n  0x00\n  assignImmutable(\"0x880de8116b3dfac28e9ff528a9fef1d1e0a51449c1addce011ffec1f302992b6\")\n  0x00\n  assignImmutable(\"0xd67d834462ca31eaef1f30157e31659f60355143b7441e6fc7d9eae1fa79f3f8\")\n  0x00\n  assignImmutable(\"0x6585423cb6456b1d4957f6454d2f004f0c4f58d53a00082412d5c2ef4b1b31fd\")\n  return(0x00, dataSize(sub_0))\nstop\n\nsub_0: assembly {\n        /* \"src/guano.sol\":128:211  contract Guano is ERC20  {... */\n      mstore(0x40, 0x80)\n      callvalue\n      dup1\n      iszero\n      tag_1\n      jumpi\n      revert(0x00, 0x00)\n    tag_1:\n      pop\n      jumpi(tag_2, lt(calldatasize, 0x04))\n      shr(0xe0, calldataload(0x00))\n      dup1\n      0x70a08231\n      gt\n      tag_15\n      jumpi\n      dup1\n      0x70a08231\n      eq\n      tag_9\n      jumpi\n      dup1\n      0x7ecebe00\n      eq\n      tag_10\n      jumpi\n      dup1\n      0x95d89b41\n      eq\n      tag_11\n      jumpi\n      dup1\n      0xa9059cbb\n      eq\n      tag_12\n      jumpi\n      dup1\n      0xd505accf\n      eq\n      tag_13\n      jumpi\n      dup1\n      0xdd62ed3e\n      eq\n      tag_14\n      jumpi\n      jump(tag_2)\n    tag_15:\n      dup1\n      0x06fdde03\n      eq\n      tag_3\n      jumpi\n      dup1\n      0x095ea7b3\n      eq\n      tag_4\n      jumpi\n      dup1\n      0x18160ddd\n      eq\n      tag_5\n      jumpi\n      dup1\n      0x23b872dd\n      eq\n      tag_6\n      jumpi\n      dup1\n      0x313ce567\n      eq\n      tag_7\n      jumpi\n      dup1\n      0x3644e515\n      eq\n      tag_8\n      jumpi\n    tag_2:\n      revert(0x00, 0x00)\n        /* \"https://github.com/transmissions11/solmate/blob/main/src/tokens/ERC20.sol\":1031:1049  string public name */\n    tag_3:\n      tag_16\n      tag_17\n      jump\t// in\n    tag_16:\n      mload(0x40)\n      tag_18\n      swap2\n      swap1\n      tag_19\n      jump\t// in\n    tag_18:\n      mload(0x40)\n      dup1\n      swap2\n      sub\n      swap1\n      return\n        /* \"https://github.com/transmissions11/solmate/blob/main/src/tokens/ERC20.sol\":2461:2672  function approve(address spender, uint256 amount) public virtual returns (bool) {... */\n    tag_4:\n      tag_20\n      0x04\n      dup1\n      calldatasize\n      sub\n      dup2\n      add\n      swap1\n      tag_21\n      swap2\n      swap1\n      tag_22\n      jump\t// in\n    tag_21:\n      tag_23\n      jump\t// in\n    tag_20:\n      mload(0x40)\n      tag_24\n      swap2\n      swap1\n      tag_25\n      jump\t// in\n    tag_24:\n      mload(0x40)\n      dup1\n      swap2\n      sub\n      swap1\n      return\n        /* \"https://github.com/transmissions11/solmate/blob/main/src/tokens/ERC20.sol\":1304:1330  uint256 public totalSupply */\n    tag_5:\n      tag_26\n      tag_27\n      jump\t// in\n    tag_26:\n      mload(0x40)\n      tag_28\n      swap2\n      swap1\n      tag_29\n      jump\t// in\n    tag_28:\n      mload(0x40)\n      dup1\n      swap2\n      sub\n      swap1\n      return\n        /* \"https://github.com/transmissions11/solmate/blob/main/src/tokens/ERC20.sol\":3057:3649  function transferFrom(... */\n    tag_6:\n      tag_30\n      0x04\n      dup1\n      calldatasize\n      sub\n      dup2\n      add\n      swap1\n      tag_31\n      swap2\n      swap1\n      tag_32\n      jump\t// in\n    tag_31:\n      tag_33\n      jump\t// in\n    tag_30:\n      mload(0x40)\n      tag_34\n      swap2\n      swap1\n      tag_25\n      jump\t// in\n    tag_34:\n      mload(0x40)\n      dup1\n      swap2\n      sub\n      swap1\n      return\n        /* \"https://github.com/transmissions11/solmate/blob/main/src/tokens/ERC20.sol\":1083:1114  uint8 public immutable decimals */\n    tag_7:\n      tag_35\n      tag_36\n      jump\t// in\n    tag_35:\n      mload(0x40)\n      tag_37\n      swap2\n      swap1\n      tag_38\n      jump\t// in\n    tag_37:\n      mload(0x40)\n      dup1\n      swap2\n      sub\n      swap1\n      return\n        /* \"https://github.com/transmissions11/solmate/blob/main/src/tokens/ERC20.sol\":5327:5504  function DOMAIN_SEPARATOR() public view virtual returns (bytes32) {... */\n    tag_8:\n      tag_39\n      tag_40\n      jump\t// in\n    tag_39:\n      mload(0x40)\n      tag_41\n      swap2\n      swap1\n      tag_42\n      jump\t// in\n    tag_41:\n      mload(0x40)\n      dup1\n      swap2\n      sub\n      swap1\n      return\n        /* \"https://github.com/transmissions11/solmate/blob/main/src/tokens/ERC20.sol\":1337:1381  mapping(address => uint256) public balanceOf */\n    tag_9:\n      tag_43\n      0x04\n      dup1\n      calldatasize\n      sub\n      dup2\n      add\n      swap1\n      tag_44\n      swap2\n      swap1\n      tag_45\n      jump\t// in\n    tag_44:\n      tag_46\n      jump\t// in\n    tag_43:\n      mload(0x40)\n      tag_47\n      swap2\n      swap1\n      tag_29\n      jump\t// in\n    tag_47:\n      mload(0x40)\n      dup1\n      swap2\n      sub\n      swap1\n      return\n        /* \"https://github.com/transmissions11/solmate/blob/main/src/tokens/ERC20.sol\":1751:1792  mapping(address => uint256) public nonces */\n    tag_10:\n      tag_48\n      0x04\n      dup1\n      calldatasize\n      sub\n      dup2\n      add\n      swap1\n      tag_49\n      swap2\n      swap1\n      tag_45\n      jump\t// in\n    tag_49:\n      tag_50\n      jump\t// in\n    tag_48:\n      mload(0x40)\n      tag_51\n      swap2\n      swap1\n      tag_29\n      jump\t// in\n    tag_51:\n      mload(0x40)\n      dup1\n      swap2\n      sub\n      swap1\n      return\n        /* \"https://github.com/transmissions11/solmate/blob/main/src/tokens/ERC20.sol\":1056:1076  string public symbol */\n    tag_11:\n      tag_52\n      tag_53\n      jump\t// in\n    tag_52:\n      mload(0x40)\n      tag_54\n      swap2\n      swap1\n      tag_19\n      jump\t// in\n    tag_54:\n      mload(0x40)\n      dup1\n      swap2\n      sub\n      swap1\n      return\n        /* \"https://github.com/transmissions11/solmate/blob/main/src/tokens/ERC20.sol\":2678:3051  function transfer(address to, uint256 amount) public virtual returns (bool) {... */\n    tag_12:\n      tag_55\n      0x04\n      dup1\n      calldatasize\n      sub\n      dup2\n      add\n      swap1\n      tag_56\n      swap2\n      swap1\n      tag_22\n      jump\t// in\n    tag_56:\n      tag_57\n      jump\t// in\n    tag_55:\n      mload(0x40)\n      tag_58\n      swap2\n      swap1\n      tag_25\n      jump\t// in\n    tag_58:\n      mload(0x40)\n      dup1\n      swap2\n      sub\n      swap1\n      return\n        /* \"https://github.com/transmissions11/solmate/blob/main/src/tokens/ERC20.sol\":3838:5321  function permit(... */\n    tag_13:\n      tag_59\n      0x04\n      dup1\n      calldatasize\n      sub\n      dup2\n      add\n      swap1\n      tag_60\n      swap2\n      swap1\n      tag_61\n      jump\t// in\n    tag_60:\n      tag_62\n      jump\t// in\n    tag_59:\n      stop\n        /* \"https://github.com/transmissions11/solmate/blob/main/src/tokens/ERC20.sol\":1388:1452  mapping(address => mapping(address => uint256)) public allowance */\n    tag_14:\n      tag_63\n      0x04\n      dup1\n      calldatasize\n      sub\n      dup2\n      add\n      swap1\n      tag_64\n      swap2\n      swap1\n      tag_65\n      jump\t// in\n    tag_64:\n      tag_66\n      jump\t// in\n    tag_63:\n      mload(0x40)\n      tag_67\n      swap2\n      swap1\n      tag_29\n      jump\t// in\n    tag_67:\n      mload(0x40)\n      dup1\n      swap2\n      sub\n      swap1\n      return\n        /* \"https://github.com/transmissions11/solmate/blob/main/src/tokens/ERC20.sol\":1031:1049  string public name */\n    tag_17:\n      0x00\n      dup1\n      sload\n      tag_68\n      swap1\n      tag_69\n      jump\t// in\n    tag_68:\n      dup1\n      0x1f\n      add\n      0x20\n      dup1\n      swap2\n      div\n      mul\n      0x20\n      add\n      mload(0x40)\n      swap1\n      dup2\n      add\n      0x40\n      mstore\n      dup1\n      swap3\n      swap2\n      swap1\n      dup2\n      dup2\n      mstore\n      0x20\n      add\n      dup3\n      dup1\n      sload\n      tag_70\n      swap1\n      tag_69\n      jump\t// in\n    tag_70:\n      dup1\n      iszero\n      tag_71\n      jumpi\n      dup1\n      0x1f\n      lt\n      tag_72\n      jumpi\n      0x0100\n      dup1\n      dup4\n      sload\n      div\n      mul\n      dup4\n      mstore\n      swap2\n      0x20\n      add\n      swap2\n      jump(tag_71)\n    tag_72:\n      dup3\n      add\n      swap2\n      swap1\n      0x00\n      mstore\n      keccak256(0x00, 0x20)\n      swap1\n    tag_73:\n      dup2\n      sload\n      dup2\n      mstore\n      swap1\n      0x01\n      add\n      swap1\n      0x20\n      add\n      dup1\n      dup4\n      gt\n      tag_73\n      jumpi\n      dup3\n      swap1\n      sub\n      0x1f\n      and\n      dup3\n      add\n      swap2\n    tag_71:\n      pop\n      pop\n      pop\n      pop\n      pop\n      dup2\n      jump\t// out\n        /* \"https://github.com/transmissions11/solmate/blob/main/src/tokens/ERC20.sol\":2461:2672  function approve(address spender, uint256 amount) public virtual returns (bool) {... */\n    tag_23:\n        /* \"https://github.com/transmissions11/solmate/blob/main/src/tokens/ERC20.sol\":2535:2539  bool */\n      0x00\n        /* \"https://github.com/transmissions11/solmate/blob/main/src/tokens/ERC20.sol\":2584:2590  amount */\n      dup2\n        /* \"https://github.com/transmissions11/solmate/blob/main/src/tokens/ERC20.sol\":2551:2560  allowance */\n      0x04\n        /* \"https://github.com/transmissions11/solmate/blob/main/src/tokens/ERC20.sol\":2551:2572  allowance[msg.sender] */\n      0x00\n        /* \"https://github.com/transmissions11/solmate/blob/main/src/tokens/ERC20.sol\":2561:2571  msg.sender */\n      caller\n        /* \"https://github.com/transmissions11/solmate/blob/main/src/tokens/ERC20.sol\":2551:2572  allowance[msg.sender] */\n      0xffffffffffffffffffffffffffffffffffffffff\n      and\n      0xffffffffffffffffffffffffffffffffffffffff\n      and\n      dup2\n      mstore\n      0x20\n      add\n      swap1\n      dup2\n      mstore\n      0x20\n      add\n      0x00\n      keccak256\n        /* \"https://github.com/transmissions11/solmate/blob/main/src/tokens/ERC20.sol\":2551:2581  allowance[msg.sender][spender] */\n      0x00\n        /* \"https://github.com/transmissions11/solmate/blob/main/src/tokens/ERC20.sol\":2573:2580  spender */\n      dup6\n        /* \"https://github.com/transmissions11/solmate/blob/main/src/tokens/ERC20.sol\":2551:2581  allowance[msg.sender][spender] */\n      0xffffffffffffffffffffffffffffffffffffffff\n      and\n      0xffffffffffffffffffffffffffffffffffffffff\n      and\n      dup2\n      mstore\n      0x20\n      add\n      swap1\n      dup2\n      mstore\n      0x20\n      add\n      0x00\n      keccak256\n        /* \"https://github.com/transmissions11/solmate/blob/main/src/tokens/ERC20.sol\":2551:2590  allowance[msg.sender][spender] = amount */\n      dup2\n      swap1\n      sstore\n      pop\n        /* \"https://github.com/transmissions11/solmate/blob/main/src/tokens/ERC20.sol\":2627:2634  spender */\n      dup3\n        /* \"https://github.com/transmissions11/solmate/blob/main/src/tokens/ERC20.sol\":2606:2643  Approval(msg.sender, spender, amount) */\n      0xffffffffffffffffffffffffffffffffffffffff\n      and\n        /* \"https://github.com/transmissions11/solmate/blob/main/src/tokens/ERC20.sol\":2615:2625  msg.sender */\n      caller\n        /* \"https://github.com/transmissions11/solmate/blob/main/src/tokens/ERC20.sol\":2606:2643  Approval(msg.sender, spender, amount) */\n      0xffffffffffffffffffffffffffffffffffffffff\n      and\n      0x8c5be1e5ebec7d5bd14f71427d1e84f3dd0314c0f7b2291e5b200ac8c7c3b925\n        /* \"https://github.com/transmissions11/solmate/blob/main/src/tokens/ERC20.sol\":2636:2642  amount */\n      dup5\n        /* \"https://github.com/transmissions11/solmate/blob/main/src/tokens/ERC20.sol\":2606:2643  Approval(msg.sender, spender, amount) */\n      mload(0x40)\n      tag_75\n      swap2\n      swap1\n      tag_29\n      jump\t// in\n    tag_75:\n      mload(0x40)\n      dup1\n      swap2\n      sub\n      swap1\n      log3\n        /* \"https://github.com/transmissions11/solmate/blob/main/src/tokens/ERC20.sol\":2661:2665  true */\n      0x01\n        /* \"https://github.com/transmissions11/solmate/blob/main/src/tokens/ERC20.sol\":2654:2665  return true */\n      swap1\n      pop\n        /* \"https://github.com/transmissions11/solmate/blob/main/src/tokens/ERC20.sol\":2461:2672  function approve(address spender, uint256 amount) public virtual returns (bool) {... */\n      swap3\n      swap2\n      pop\n      pop\n      jump\t// out\n        /* \"https://github.com/transmissions11/solmate/blob/main/src/tokens/ERC20.sol\":1304:1330  uint256 public totalSupply */\n    tag_27:\n      sload(0x02)\n      dup2\n      jump\t// out\n        /* \"https://github.com/transmissions11/solmate/blob/main/src/tokens/ERC20.sol\":3057:3649  function transferFrom(... */\n    tag_33:\n        /* \"https://github.com/transmissions11/solmate/blob/main/src/tokens/ERC20.sol\":3175:3179  bool */\n      0x00\n        /* \"https://github.com/transmissions11/solmate/blob/main/src/tokens/ERC20.sol\":3191:3206  uint256 allowed */\n      0x00\n        /* \"https://github.com/transmissions11/solmate/blob/main/src/tokens/ERC20.sol\":3209:3218  allowance */\n      0x04\n        /* \"https://github.com/transmissions11/solmate/blob/main/src/tokens/ERC20.sol\":3209:3224  allowance[from] */\n      0x00\n        /* \"https://github.com/transmissions11/solmate/blob/main/src/tokens/ERC20.sol\":3219:3223  from */\n      dup7\n        /* \"https://github.com/transmissions11/solmate/blob/main/src/tokens/ERC20.sol\":3209:3224  allowance[from] */\n      0xffffffffffffffffffffffffffffffffffffffff\n      and\n      0xffffffffffffffffffffffffffffffffffffffff\n      and\n      dup2\n      mstore\n      0x20\n      add\n      swap1\n      dup2\n      mstore\n      0x20\n      add\n      0x00\n      keccak256\n        /* \"https://github.com/transmissions11/solmate/blob/main/src/tokens/ERC20.sol\":3209:3236  allowance[from][msg.sender] */\n      0x00\n        /* \"https://github.com/transmissions11/solmate/blob/main/src/tokens/ERC20.sol\":3225:3235  msg.sender */\n      caller\n        /* \"https://github.com/transmissions11/solmate/blob/main/src/tokens/ERC20.sol\":3209:3236  allowance[from][msg.sender] */\n      0xffffffffffffffffffffffffffffffffffffffff\n      and\n      0xffffffffffffffffffffffffffffffffffffffff\n      and\n      dup2\n      mstore\n      0x20\n      add\n      swap1\n      dup2\n      mstore\n      0x20\n      add\n      0x00\n      keccak256\n      sload\n        /* \"https://github.com/transmissions11/solmate/blob/main/src/tokens/ERC20.sol\":3191:3236  uint256 allowed = allowance[from][msg.sender] */\n      swap1\n      pop\n        /* \"https://github.com/transmissions11/solmate/blob/main/src/tokens/ERC20.sol\":3298:3315  type(uint256).max */\n      0xffffffffffffffffffffffffffffffffffffffffffffffffffffffffffffffff\n        /* \"https://github.com/transmissions11/solmate/blob/main/src/tokens/ERC20.sol\":3287:3294  allowed */\n      dup2\n        /* \"https://github.com/transmissions11/solmate/blob/main/src/tokens/ERC20.sol\":3287:3315  allowed != type(uint256).max */\n      eq\n        /* \"https://github.com/transmissions11/solmate/blob/main/src/tokens/ERC20.sol\":3283:3363  if (allowed != type(uint256).max) allowance[from][msg.sender] = allowed - amount */\n      tag_77\n      jumpi\n        /* \"https://github.com/transmissions11/solmate/blob/main/src/tokens/ERC20.sol\":3357:3363  amount */\n      dup3\n        /* \"https://github.com/transmissions11/solmate/blob/main/src/tokens/ERC20.sol\":3347:3354  allowed */\n      dup2\n        /* \"https://github.com/transmissions11/solmate/blob/main/src/tokens/ERC20.sol\":3347:3363  allowed - amount */\n      tag_78\n      swap2\n      swap1\n      tag_79\n      jump\t// in\n    tag_78:\n        /* \"https://github.com/transmissions11/solmate/blob/main/src/tokens/ERC20.sol\":3317:3326  allowance */\n      0x04\n        /* \"https://github.com/transmissions11/solmate/blob/main/src/tokens/ERC20.sol\":3317:3332  allowance[from] */\n      0x00\n        /* \"https://github.com/transmissions11/solmate/blob/main/src/tokens/ERC20.sol\":3327:3331  from */\n      dup8\n        /* \"https://github.com/transmissions11/solmate/blob/main/src/tokens/ERC20.sol\":3317:3332  allowance[from] */\n      0xffffffffffffffffffffffffffffffffffffffff\n      and\n      0xffffffffffffffffffffffffffffffffffffffff\n      and\n      dup2\n      mstore\n      0x20\n      add\n      swap1\n      dup2\n      mstore\n      0x20\n      add\n      0x00\n      keccak256\n        /* \"https://github.com/transmissions11/solmate/blob/main/src/tokens/ERC20.sol\":3317:3344  allowance[from][msg.sender] */\n      0x00\n        /* \"https://github.com/transmissions11/solmate/blob/main/src/tokens/ERC20.sol\":3333:3343  msg.sender */\n      caller\n        /* \"https://github.com/transmissions11/solmate/blob/main/src/tokens/ERC20.sol\":3317:3344  allowance[from][msg.sender] */\n      0xffffffffffffffffffffffffffffffffffffffff\n      and\n      0xffffffffffffffffffffffffffffffffffffffff\n      and\n      dup2\n      mstore\n      0x20\n      add\n      swap1\n      dup2\n      mstore\n      0x20\n      add\n      0x00\n      keccak256\n        /* \"https://github.com/transmissions11/solmate/blob/main/src/tokens/ERC20.sol\":3317:3363  allowance[from][msg.sender] = allowed - amount */\n      dup2\n      swap1\n      sstore\n      pop\n        /* \"https://github.com/transmissions11/solmate/blob/main/src/tokens/ERC20.sol\":3283:3363  if (allowed != type(uint256).max) allowance[from][msg.sender] = allowed - amount */\n    tag_77:\n        /* \"https://github.com/transmissions11/solmate/blob/main/src/tokens/ERC20.sol\":3393:3399  amount */\n      dup3\n        /* \"https://github.com/transmissions11/solmate/blob/main/src/tokens/ERC20.sol\":3374:3383  balanceOf */\n      0x03\n        /* \"https://github.com/transmissions11/solmate/blob/main/src/tokens/ERC20.sol\":3374:3389  balanceOf[from] */\n      0x00\n        /* \"https://github.com/transmissions11/solmate/blob/main/src/tokens/ERC20.sol\":3384:3388  from */\n      dup8\n        /* \"https://github.com/transmissions11/solmate/blob/main/src/tokens/ERC20.sol\":3374:3389  balanceOf[from] */\n      0xffffffffffffffffffffffffffffffffffffffff\n      and\n      0xffffffffffffffffffffffffffffffffffffffff\n      and\n      dup2\n      mstore\n      0x20\n      add\n      swap1\n      dup2\n      mstore\n      0x20\n      add\n      0x00\n      keccak256\n      0x00\n        /* \"https://github.com/transmissions11/solmate/blob/main/src/tokens/ERC20.sol\":3374:3399  balanceOf[from] -= amount */\n      dup3\n      dup3\n      sload\n      tag_80\n      swap2\n      swap1\n      tag_79\n      jump\t// in\n    tag_80:\n      swap3\n      pop\n      pop\n      dup2\n      swap1\n      sstore\n      pop\n        /* \"https://github.com/transmissions11/solmate/blob/main/src/tokens/ERC20.sol\":3562:3568  amount */\n      dup3\n        /* \"https://github.com/transmissions11/solmate/blob/main/src/tokens/ERC20.sol\":3545:3554  balanceOf */\n      0x03\n        /* \"https://github.com/transmissions11/solmate/blob/main/src/tokens/ERC20.sol\":3545:3558  balanceOf[to] */\n      0x00\n        /* \"https://github.com/transmissions11/solmate/blob/main/src/tokens/ERC20.sol\":3555:3557  to */\n      dup7\n        /* \"https://github.com/transmissions11/solmate/blob/main/src/tokens/ERC20.sol\":3545:3558  balanceOf[to] */\n      0xffffffffffffffffffffffffffffffffffffffff\n      and\n      0xffffffffffffffffffffffffffffffffffffffff\n      and\n      dup2\n      mstore\n      0x20\n      add\n      swap1\n      dup2\n      mstore\n      0x20\n      add\n      0x00\n      keccak256\n      0x00\n        /* \"https://github.com/transmissions11/solmate/blob/main/src/tokens/ERC20.sol\":3545:3568  balanceOf[to] += amount */\n      dup3\n      dup3\n      sload\n      add\n      swap3\n      pop\n      pop\n      dup2\n      swap1\n      sstore\n      pop\n        /* \"https://github.com/transmissions11/solmate/blob/main/src/tokens/ERC20.sol\":3609:3611  to */\n      dup4\n        /* \"https://github.com/transmissions11/solmate/blob/main/src/tokens/ERC20.sol\":3594:3620  Transfer(from, to, amount) */\n      0xffffffffffffffffffffffffffffffffffffffff\n      and\n        /* \"https://github.com/transmissions11/solmate/blob/main/src/tokens/ERC20.sol\":3603:3607  from */\n      dup6\n        /* \"https://github.com/transmissions11/solmate/blob/main/src/tokens/ERC20.sol\":3594:3620  Transfer(from, to, amount) */\n      0xffffffffffffffffffffffffffffffffffffffff\n      and\n      0xddf252ad1be2c89b69c2b068fc378daa952ba7f163c4a11628f55a4df523b3ef\n        /* \"https://github.com/transmissions11/solmate/blob/main/src/tokens/ERC20.sol\":3613:3619  amount */\n      dup6\n        /* \"https://github.com/transmissions11/solmate/blob/main/src/tokens/ERC20.sol\":3594:3620  Transfer(from, to, amount) */\n      mload(0x40)\n      tag_81\n      swap2\n      swap1\n      tag_29\n      jump\t// in\n    tag_81:\n      mload(0x40)\n      dup1\n      swap2\n      sub\n      swap1\n      log3\n        /* \"https://github.com/transmissions11/solmate/blob/main/src/tokens/ERC20.sol\":3638:3642  true */\n      0x01\n        /* \"https://github.com/transmissions11/solmate/blob/main/src/tokens/ERC20.sol\":3631:3642  return true */\n      swap2\n      pop\n      pop\n        /* \"https://github.com/transmissions11/solmate/blob/main/src/tokens/ERC20.sol\":3057:3649  function transferFrom(... */\n      swap4\n      swap3\n      pop\n      pop\n      pop\n      jump\t// out\n        /* \"https://github.com/transmissions11/solmate/blob/main/src/tokens/ERC20.sol\":1083:1114  uint8 public immutable decimals */\n    tag_36:\n      immutable(\"0x6585423cb6456b1d4957f6454d2f004f0c4f58d53a00082412d5c2ef4b1b31fd\")\n      dup2\n      jump\t// out\n        /* \"https://github.com/transmissions11/solmate/blob/main/src/tokens/ERC20.sol\":5327:5504  function DOMAIN_SEPARATOR() public view virtual returns (bytes32) {... */\n    tag_40:\n        /* \"https://github.com/transmissions11/solmate/blob/main/src/tokens/ERC20.sol\":5384:5391  bytes32 */\n      0x00\n        /* \"https://github.com/transmissions11/solmate/blob/main/src/tokens/ERC20.sol\":5427:5443  INITIAL_CHAIN_ID */\n      immutable(\"0xd67d834462ca31eaef1f30157e31659f60355143b7441e6fc7d9eae1fa79f3f8\")\n        /* \"https://github.com/transmissions11/solmate/blob/main/src/tokens/ERC20.sol\":5410:5423  block.chainid */\n      chainid\n        /* \"https://github.com/transmissions11/solmate/blob/main/src/tokens/ERC20.sol\":5410:5443  block.chainid == INITIAL_CHAIN_ID */\n      eq\n        /* \"https://github.com/transmissions11/solmate/blob/main/src/tokens/ERC20.sol\":5410:5497  block.chainid == INITIAL_CHAIN_ID ? INITIAL_DOMAIN_SEPARATOR : computeDomainSeparator() */\n      tag_83\n      jumpi\n        /* \"https://github.com/transmissions11/solmate/blob/main/src/tokens/ERC20.sol\":5473:5497  computeDomainSeparator() */\n      tag_84\n        /* \"https://github.com/transmissions11/solmate/blob/main/src/tokens/ERC20.sol\":5473:5495  computeDomainSeparator */\n      tag_85\n        /* \"https://github.com/transmissions11/solmate/blob/main/src/tokens/ERC20.sol\":5473:5497  computeDomainSeparator() */\n      jump\t// in\n    tag_84:\n        /* \"https://github.com/transmissions11/solmate/blob/main/src/tokens/ERC20.sol\":5410:5497  block.chainid == INITIAL_CHAIN_ID ? INITIAL_DOMAIN_SEPARATOR : computeDomainSeparator() */\n      jump(tag_86)\n    tag_83:\n        /* \"https://github.com/transmissions11/solmate/blob/main/src/tokens/ERC20.sol\":5446:5470  INITIAL_DOMAIN_SEPARATOR */\n      immutable(\"0x880de8116b3dfac28e9ff528a9fef1d1e0a51449c1addce011ffec1f302992b6\")\n        /* \"https://github.com/transmissions11/solmate/blob/main/src/tokens/ERC20.sol\":5410:5497  block.chainid == INITIAL_CHAIN_ID ? INITIAL_DOMAIN_SEPARATOR : computeDomainSeparator() */\n    tag_86:\n        /* \"https://github.com/transmissions11/solmate/blob/main/src/tokens/ERC20.sol\":5403:5497  return block.chainid == INITIAL_CHAIN_ID ? INITIAL_DOMAIN_SEPARATOR : computeDomainSeparator() */\n      swap1\n      pop\n        /* \"https://github.com/transmissions11/solmate/blob/main/src/tokens/ERC20.sol\":5327:5504  function DOMAIN_SEPARATOR() public view virtual returns (bytes32) {... */\n      swap1\n      jump\t// out\n        /* \"https://github.com/transmissions11/solmate/blob/main/src/tokens/ERC20.sol\":1337:1381  mapping(address => uint256) public balanceOf */\n    tag_46:\n      mstore(0x20, 0x03)\n      dup1\n      0x00\n      mstore\n      keccak256(0x00, 0x40)\n      0x00\n      swap2\n      pop\n      swap1\n      pop\n      sload\n      dup2\n      jump\t// out\n        /* \"https://github.com/transmissions11/solmate/blob/main/src/tokens/ERC20.sol\":1751:1792  mapping(address => uint256) public nonces */\n    tag_50:\n      mstore(0x20, 0x05)\n      dup1\n      0x00\n      mstore\n      keccak256(0x00, 0x40)\n      0x00\n      swap2\n      pop\n      swap1\n      pop\n      sload\n      dup2\n      jump\t// out\n        /* \"https://github.com/transmissions11/solmate/blob/main/src/tokens/ERC20.sol\":1056:1076  string public symbol */\n    tag_53:\n      0x01\n      dup1\n      sload\n      tag_87\n      swap1\n      tag_69\n      jump\t// in\n    tag_87:\n      dup1\n      0x1f\n      add\n      0x20\n      dup1\n      swap2\n      div\n      mul\n      0x20\n      add\n      mload(0x40)\n      swap1\n      dup2\n      add\n      0x40\n      mstore\n      dup1\n      swap3\n      swap2\n      swap1\n      dup2\n      dup2\n      mstore\n      0x20\n      add\n      dup3\n      dup1\n      sload\n      tag_88\n      swap1\n      tag_69\n      jump\t// in\n    tag_88:\n      dup1\n      iszero\n      tag_89\n      jumpi\n      dup1\n      0x1f\n      lt\n      tag_90\n      jumpi\n      0x0100\n      dup1\n      dup4\n      sload\n      div\n      mul\n      dup4\n      mstore\n      swap2\n      0x20\n      add\n      swap2\n      jump(tag_89)\n    tag_90:\n      dup3\n      add\n      swap2\n      swap1\n      0x00\n      mstore\n      keccak256(0x00, 0x20)\n      swap1\n    tag_91:\n      dup2\n      sload\n      dup2\n      mstore\n      swap1\n      0x01\n      add\n      swap1\n      0x20\n      add\n      dup1\n      dup4\n      gt\n      tag_91\n      jumpi\n      dup3\n      swap1\n      sub\n      0x1f\n      and\n      dup3\n      add\n      swap2\n    tag_89:\n      pop\n      pop\n      pop\n      pop\n      pop\n      dup2\n      jump\t// out\n        /* \"https://github.com/transmissions11/solmate/blob/main/src/tokens/ERC20.sol\":2678:3051  function transfer(address to, uint256 amount) public virtual returns (bool) {... */\n    tag_57:\n        /* \"https://github.com/transmissions11/solmate/blob/main/src/tokens/ERC20.sol\":2748:2752  bool */\n      0x00\n        /* \"https://github.com/transmissions11/solmate/blob/main/src/tokens/ERC20.sol\":2789:2795  amount */\n      dup2\n        /* \"https://github.com/transmissions11/solmate/blob/main/src/tokens/ERC20.sol\":2764:2773  balanceOf */\n      0x03\n        /* \"https://github.com/transmissions11/solmate/blob/main/src/tokens/ERC20.sol\":2764:2785  balanceOf[msg.sender] */\n      0x00\n        /* \"https://github.com/transmissions11/solmate/blob/main/src/tokens/ERC20.sol\":2774:2784  msg.sender */\n      caller\n        /* \"https://github.com/transmissions11/solmate/blob/main/src/tokens/ERC20.sol\":2764:2785  balanceOf[msg.sender] */\n      0xffffffffffffffffffffffffffffffffffffffff\n      and\n      0xffffffffffffffffffffffffffffffffffffffff\n      and\n      dup2\n      mstore\n      0x20\n      add\n      swap1\n      dup2\n      mstore\n      0x20\n      add\n      0x00\n      keccak256\n      0x00\n        /* \"https://github.com/transmissions11/solmate/blob/main/src/tokens/ERC20.sol\":2764:2795  balanceOf[msg.sender] -= amount */\n      dup3\n      dup3\n      sload\n      tag_93\n      swap2\n      swap1\n      tag_79\n      jump\t// in\n    tag_93:\n      swap3\n      pop\n      pop\n      dup2\n      swap1\n      sstore\n      pop\n        /* \"https://github.com/transmissions11/solmate/blob/main/src/tokens/ERC20.sol\":2958:2964  amount */\n      dup2\n        /* \"https://github.com/transmissions11/solmate/blob/main/src/tokens/ERC20.sol\":2941:2950  balanceOf */\n      0x03\n        /* \"https://github.com/transmissions11/solmate/blob/main/src/tokens/ERC20.sol\":2941:2954  balanceOf[to] */\n      0x00\n        /* \"https://github.com/transmissions11/solmate/blob/main/src/tokens/ERC20.sol\":2951:2953  to */\n      dup6\n        /* \"https://github.com/transmissions11/solmate/blob/main/src/tokens/ERC20.sol\":2941:2954  balanceOf[to] */\n      0xffffffffffffffffffffffffffffffffffffffff\n      and\n      0xffffffffffffffffffffffffffffffffffffffff\n      and\n      dup2\n      mstore\n      0x20\n      add\n      swap1\n      dup2\n      mstore\n      0x20\n      add\n      0x00\n      keccak256\n      0x00\n        /* \"https://github.com/transmissions11/solmate/blob/main/src/tokens/ERC20.sol\":2941:2964  balanceOf[to] += amount */\n      dup3\n      dup3\n      sload\n      add\n      swap3\n      pop\n      pop\n      dup2\n      swap1\n      sstore\n      pop\n        /* \"https://github.com/transmissions11/solmate/blob/main/src/tokens/ERC20.sol\":3011:3013  to */\n      dup3\n        /* \"https://github.com/transmissions11/solmate/blob/main/src/tokens/ERC20.sol\":2990:3022  Transfer(msg.sender, to, amount) */\n      0xffffffffffffffffffffffffffffffffffffffff\n      and\n        /* \"https://github.com/transmissions11/solmate/blob/main/src/tokens/ERC20.sol\":2999:3009  msg.sender */\n      caller\n        /* \"https://github.com/transmissions11/solmate/blob/main/src/tokens/ERC20.sol\":2990:3022  Transfer(msg.sender, to, amount) */\n      0xffffffffffffffffffffffffffffffffffffffff\n      and\n      0xddf252ad1be2c89b69c2b068fc378daa952ba7f163c4a11628f55a4df523b3ef\n        /* \"https://github.com/transmissions11/solmate/blob/main/src/tokens/ERC20.sol\":3015:3021  amount */\n      dup5\n        /* \"https://github.com/transmissions11/solmate/blob/main/src/tokens/ERC20.sol\":2990:3022  Transfer(msg.sender, to, amount) */\n      mload(0x40)\n      tag_94\n      swap2\n      swap1\n      tag_29\n      jump\t// in\n    tag_94:\n      mload(0x40)\n      dup1\n      swap2\n      sub\n      swap1\n      log3\n        /* \"https://github.com/transmissions11/solmate/blob/main/src/tokens/ERC20.sol\":3040:3044  true */\n      0x01\n        /* \"https://github.com/transmissions11/solmate/blob/main/src/tokens/ERC20.sol\":3033:3044  return true */\n      swap1\n      pop\n        /* \"https://github.com/transmissions11/solmate/blob/main/src/tokens/ERC20.sol\":2678:3051  function transfer(address to, uint256 amount) public virtual returns (bool) {... */\n      swap3\n      swap2\n      pop\n      pop\n      jump\t// out\n        /* \"https://github.com/transmissions11/solmate/blob/main/src/tokens/ERC20.sol\":3838:5321  function permit(... */\n    tag_62:\n        /* \"https://github.com/transmissions11/solmate/blob/main/src/tokens/ERC20.sol\":4057:4072  block.timestamp */\n      timestamp\n        /* \"https://github.com/transmissions11/solmate/blob/main/src/tokens/ERC20.sol\":4045:4053  deadline */\n      dup5\n        /* \"https://github.com/transmissions11/solmate/blob/main/src/tokens/ERC20.sol\":4045:4072  deadline >= block.timestamp */\n      lt\n      iszero\n        /* \"https://github.com/transmissions11/solmate/blob/main/src/tokens/ERC20.sol\":4037:4100  require(deadline >= block.timestamp, \"PERMIT_DEADLINE_EXPIRED\") */\n      tag_96\n      jumpi\n      mload(0x40)\n      0x08c379a000000000000000000000000000000000000000000000000000000000\n      dup2\n      mstore\n      0x04\n      add\n      tag_97\n      swap1\n      tag_98\n      jump\t// in\n    tag_97:\n      mload(0x40)\n      dup1\n      swap2\n      sub\n      swap1\n      revert\n    tag_96:\n        /* \"https://github.com/transmissions11/solmate/blob/main/src/tokens/ERC20.sol\":4265:4289  address recoveredAddress */\n      0x00\n        /* \"https://github.com/transmissions11/solmate/blob/main/src/tokens/ERC20.sol\":4292:5097  ecrecover(... */\n      0x01\n        /* \"https://github.com/transmissions11/solmate/blob/main/src/tokens/ERC20.sol\":4428:4446  DOMAIN_SEPARATOR() */\n      tag_99\n        /* \"https://github.com/transmissions11/solmate/blob/main/src/tokens/ERC20.sol\":4428:4444  DOMAIN_SEPARATOR */\n      tag_40\n        /* \"https://github.com/transmissions11/solmate/blob/main/src/tokens/ERC20.sol\":4428:4446  DOMAIN_SEPARATOR() */\n      jump\t// in\n    tag_99:\n        /* \"https://github.com/transmissions11/solmate/blob/main/src/tokens/ERC20.sol\":4555:4720  keccak256(... */\n      0x6e71edae12b1b97f4d1f60370fef10105fa2faae0126114a169c64845d6126c9\n        /* \"https://github.com/transmissions11/solmate/blob/main/src/tokens/ERC20.sol\":4754:4759  owner */\n      dup11\n        /* \"https://github.com/transmissions11/solmate/blob/main/src/tokens/ERC20.sol\":4793:4800  spender */\n      dup11\n        /* \"https://github.com/transmissions11/solmate/blob/main/src/tokens/ERC20.sol\":4834:4839  value */\n      dup11\n        /* \"https://github.com/transmissions11/solmate/blob/main/src/tokens/ERC20.sol\":4873:4879  nonces */\n      0x05\n        /* \"https://github.com/transmissions11/solmate/blob/main/src/tokens/ERC20.sol\":4873:4886  nonces[owner] */\n      0x00\n        /* \"https://github.com/transmissions11/solmate/blob/main/src/tokens/ERC20.sol\":4880:4885  owner */\n      dup16\n        /* \"https://github.com/transmissions11/solmate/blob/main/src/tokens/ERC20.sol\":4873:4886  nonces[owner] */\n      0xffffffffffffffffffffffffffffffffffffffff\n      and\n      0xffffffffffffffffffffffffffffffffffffffff\n      and\n      dup2\n      mstore\n      0x20\n      add\n      swap1\n      dup2\n      mstore\n      0x20\n      add\n      0x00\n      keccak256\n      0x00\n        /* \"https://github.com/transmissions11/solmate/blob/main/src/tokens/ERC20.sol\":4873:4888  nonces[owner]++ */\n      dup2\n      sload\n      dup1\n      swap3\n      swap2\n      swap1\n      0x01\n      add\n      swap2\n      swap1\n      pop\n      sstore\n        /* \"https://github.com/transmissions11/solmate/blob/main/src/tokens/ERC20.sol\":4922:4930  deadline */\n      dup12\n        /* \"https://github.com/transmissions11/solmate/blob/main/src/tokens/ERC20.sol\":4511:4960  abi.encode(... */\n      add(0x20, mload(0x40))\n      tag_100\n      swap7\n      swap6\n      swap5\n      swap4\n      swap3\n      swap2\n      swap1\n      tag_101\n      jump\t// in\n    tag_100:\n      mload(0x40)\n      0x20\n      dup2\n      dup4\n      sub\n      sub\n      dup2\n      mstore\n      swap1\n      0x40\n      mstore\n        /* \"https://github.com/transmissions11/solmate/blob/main/src/tokens/ERC20.sol\":4472:4986  keccak256(... */\n      dup1\n      mload\n      swap1\n      0x20\n      add\n      keccak256\n        /* \"https://github.com/transmissions11/solmate/blob/main/src/tokens/ERC20.sol\":4350:5008  abi.encodePacked(... */\n      add(0x20, mload(0x40))\n      tag_102\n      swap3\n      swap2\n      swap1\n      tag_103\n      jump\t// in\n    tag_102:\n      mload(0x40)\n      0x20\n      dup2\n      dup4\n      sub\n      sub\n      dup2\n      mstore\n      swap1\n      0x40\n      mstore\n        /* \"https://github.com/transmissions11/solmate/blob/main/src/tokens/ERC20.sol\":4319:5026  keccak256(... */\n      dup1\n      mload\n      swap1\n      0x20\n      add\n      keccak256\n        /* \"https://github.com/transmissions11/solmate/blob/main/src/tokens/ERC20.sol\":5044:5045  v */\n      dup6\n        /* \"https://github.com/transmissions11/solmate/blob/main/src/tokens/ERC20.sol\":5063:5064  r */\n      dup6\n        /* \"https://github.com/transmissions11/solmate/blob/main/src/tokens/ERC20.sol\":5082:5083  s */\n      dup6\n        /* \"https://github.com/transmissions11/solmate/blob/main/src/tokens/ERC20.sol\":4292:5097  ecrecover(... */\n      mload(0x40)\n      0x00\n      dup2\n      mstore\n      0x20\n      add\n      0x40\n      mstore\n      mload(0x40)\n      tag_104\n      swap5\n      swap4\n      swap3\n      swap2\n      swap1\n      tag_105\n      jump\t// in\n    tag_104:\n      0x20\n      mload(0x40)\n      0x20\n      dup2\n      sub\n      swap1\n      dup1\n      dup5\n      sub\n      swap1\n      dup6\n      gas\n      staticcall\n      iszero\n      dup1\n      iszero\n      tag_107\n      jumpi\n      returndatacopy(0x00, 0x00, returndatasize)\n      revert(0x00, returndatasize)\n    tag_107:\n      pop\n      pop\n      pop\n      mload(sub(mload(0x40), 0x20))\n        /* \"https://github.com/transmissions11/solmate/blob/main/src/tokens/ERC20.sol\":4265:5097  address recoveredAddress = ecrecover(... */\n      swap1\n      pop\n        /* \"https://github.com/transmissions11/solmate/blob/main/src/tokens/ERC20.sol\":5148:5149  0 */\n      0x00\n        /* \"https://github.com/transmissions11/solmate/blob/main/src/tokens/ERC20.sol\":5120:5150  recoveredAddress != address(0) */\n      0xffffffffffffffffffffffffffffffffffffffff\n      and\n        /* \"https://github.com/transmissions11/solmate/blob/main/src/tokens/ERC20.sol\":5120:5136  recoveredAddress */\n      dup2\n        /* \"https://github.com/transmissions11/solmate/blob/main/src/tokens/ERC20.sol\":5120:5150  recoveredAddress != address(0) */\n      0xffffffffffffffffffffffffffffffffffffffff\n      and\n      eq\n      iszero\n        /* \"https://github.com/transmissions11/solmate/blob/main/src/tokens/ERC20.sol\":5120:5179  recoveredAddress != address(0) && recoveredAddress == owner */\n      dup1\n      iszero\n      tag_108\n      jumpi\n      pop\n        /* \"https://github.com/transmissions11/solmate/blob/main/src/tokens/ERC20.sol\":5174:5179  owner */\n      dup8\n        /* \"https://github.com/transmissions11/solmate/blob/main/src/tokens/ERC20.sol\":5154:5179  recoveredAddress == owner */\n      0xffffffffffffffffffffffffffffffffffffffff\n      and\n        /* \"https://github.com/transmissions11/solmate/blob/main/src/tokens/ERC20.sol\":5154:5170  recoveredAddress */\n      dup2\n        /* \"https://github.com/transmissions11/solmate/blob/main/src/tokens/ERC20.sol\":5154:5179  recoveredAddress == owner */\n      0xffffffffffffffffffffffffffffffffffffffff\n      and\n      eq\n        /* \"https://github.com/transmissions11/solmate/blob/main/src/tokens/ERC20.sol\":5120:5179  recoveredAddress != address(0) && recoveredAddress == owner */\n    tag_108:\n        /* \"https://github.com/transmissions11/solmate/blob/main/src/tokens/ERC20.sol\":5112:5198  require(recoveredAddress != address(0) && recoveredAddress == owner, \"INVALID_SIGNER\") */\n      tag_109\n      jumpi\n      mload(0x40)\n      0x08c379a000000000000000000000000000000000000000000000000000000000\n      dup2\n      mstore\n      0x04\n      add\n      tag_110\n      swap1\n      tag_111\n      jump\t// in\n    tag_110:\n      mload(0x40)\n      dup1\n      swap2\n      sub\n      swap1\n      revert\n    tag_109:\n        /* \"https://github.com/transmissions11/solmate/blob/main/src/tokens/ERC20.sol\":5252:5257  value */\n      dup6\n        /* \"https://github.com/transmissions11/solmate/blob/main/src/tokens/ERC20.sol\":5213:5222  allowance */\n      0x04\n        /* \"https://github.com/transmissions11/solmate/blob/main/src/tokens/ERC20.sol\":5213:5240  allowance[recoveredAddress] */\n      0x00\n        /* \"https://github.com/transmissions11/solmate/blob/main/src/tokens/ERC20.sol\":5223:5239  recoveredAddress */\n      dup4\n        /* \"https://github.com/transmissions11/solmate/blob/main/src/tokens/ERC20.sol\":5213:5240  allowance[recoveredAddress] */\n      0xffffffffffffffffffffffffffffffffffffffff\n      and\n      0xffffffffffffffffffffffffffffffffffffffff\n      and\n      dup2\n      mstore\n      0x20\n      add\n      swap1\n      dup2\n      mstore\n      0x20\n      add\n      0x00\n      keccak256\n        /* \"https://github.com/transmissions11/solmate/blob/main/src/tokens/ERC20.sol\":5213:5249  allowance[recoveredAddress][spender] */\n      0x00\n        /* \"https://github.com/transmissions11/solmate/blob/main/src/tokens/ERC20.sol\":5241:5248  spender */\n      dup10\n        /* \"https://github.com/transmissions11/solmate/blob/main/src/tokens/ERC20.sol\":5213:5249  allowance[recoveredAddress][spender] */\n      0xffffffffffffffffffffffffffffffffffffffff\n      and\n      0xffffffffffffffffffffffffffffffffffffffff\n      and\n      dup2\n      mstore\n      0x20\n      add\n      swap1\n      dup2\n      mstore\n      0x20\n      add\n      0x00\n      keccak256\n        /* \"https://github.com/transmissions11/solmate/blob/main/src/tokens/ERC20.sol\":5213:5257  allowance[recoveredAddress][spender] = value */\n      dup2\n      swap1\n      sstore\n      pop\n        /* \"https://github.com/transmissions11/solmate/blob/main/src/tokens/ERC20.sol\":4241:5268  unchecked {... */\n      pop\n        /* \"https://github.com/transmissions11/solmate/blob/main/src/tokens/ERC20.sol\":5299:5306  spender */\n      dup6\n        /* \"https://github.com/transmissions11/solmate/blob/main/src/tokens/ERC20.sol\":5283:5314  Approval(owner, spender, value) */\n      0xffffffffffffffffffffffffffffffffffffffff\n      and\n        /* \"https://github.com/transmissions11/solmate/blob/main/src/tokens/ERC20.sol\":5292:5297  owner */\n      dup8\n        /* \"https://github.com/transmissions11/solmate/blob/main/src/tokens/ERC20.sol\":5283:5314  Approval(owner, spender, value) */\n      0xffffffffffffffffffffffffffffffffffffffff\n      and\n      0x8c5be1e5ebec7d5bd14f71427d1e84f3dd0314c0f7b2291e5b200ac8c7c3b925\n        /* \"https://github.com/transmissions11/solmate/blob/main/src/tokens/ERC20.sol\":5308:5313  value */\n      dup8\n        /* \"https://github.com/transmissions11/solmate/blob/main/src/tokens/ERC20.sol\":5283:5314  Approval(owner, spender, value) */\n      mload(0x40)\n      tag_112\n      swap2\n      swap1\n      tag_29\n      jump\t// in\n    tag_112:\n      mload(0x40)\n      dup1\n      swap2\n      sub\n      swap1\n      log3\n        /* \"https://github.com/transmissions11/solmate/blob/main/src/tokens/ERC20.sol\":3838:5321  function permit(... */\n      pop\n      pop\n      pop\n      pop\n      pop\n      pop\n      pop\n      jump\t// out\n        /* \"https://github.com/transmissions11/solmate/blob/main/src/tokens/ERC20.sol\":1388:1452  mapping(address => mapping(address => uint256)) public allowance */\n    tag_66:\n      mstore(0x20, 0x04)\n      dup2\n      0x00\n      mstore\n      mstore(0x20, keccak256(0x00, 0x40))\n      dup1\n      0x00\n      mstore\n      keccak256(0x00, 0x40)\n      0x00\n      swap2\n      pop\n      swap2\n      pop\n      pop\n      sload\n      dup2\n      jump\t// out\n        /* \"https://github.com/transmissions11/solmate/blob/main/src/tokens/ERC20.sol\":5510:5956  function computeDomainSeparator() internal view virtual returns (bytes32) {... */\n    tag_85:\n        /* \"https://github.com/transmissions11/solmate/blob/main/src/tokens/ERC20.sol\":5575:5582  bytes32 */\n      0x00\n        /* \"https://github.com/transmissions11/solmate/blob/main/src/tokens/ERC20.sol\":5672:5767  keccak256(\"EIP712Domain(string name,string version,uint256 chainId,address verifyingContract)\") */\n      0x8b73c3c69bb8fe3d512ecc4cf759cc79239f7b179b0ffacaa9a75d522b39400f\n        /* \"https://github.com/transmissions11/solmate/blob/main/src/tokens/ERC20.sol\":5805:5809  name */\n      0x00\n        /* \"https://github.com/transmissions11/solmate/blob/main/src/tokens/ERC20.sol\":5789:5811  keccak256(bytes(name)) */\n      mload(0x40)\n      tag_114\n      swap2\n      swap1\n      tag_115\n      jump\t// in\n    tag_114:\n      mload(0x40)\n      dup1\n      swap2\n      sub\n      swap1\n      keccak256\n        /* \"https://github.com/transmissions11/solmate/blob/main/src/tokens/ERC20.sol\":5833:5847  keccak256(\"1\") */\n      0xc89efdaa54c0f20c7adf612882df0950f5a951637e0307cdcb4c672f298b8bc6\n        /* \"https://github.com/transmissions11/solmate/blob/main/src/tokens/ERC20.sol\":5869:5882  block.chainid */\n      chainid\n        /* \"https://github.com/transmissions11/solmate/blob/main/src/tokens/ERC20.sol\":5912:5916  this */\n      address\n        /* \"https://github.com/transmissions11/solmate/blob/main/src/tokens/ERC20.sol\":5640:5935  abi.encode(... */\n      add(0x20, mload(0x40))\n      tag_116\n      swap6\n      swap5\n      swap4\n      swap3\n      swap2\n      swap1\n      tag_117\n      jump\t// in\n    tag_116:\n      mload(0x40)\n      0x20\n      dup2\n      dup4\n      sub\n      sub\n      dup2\n      mstore\n      swap1\n      0x40\n      mstore\n        /* \"https://github.com/transmissions11/solmate/blob/main/src/tokens/ERC20.sol\":5613:5949  keccak256(... */\n      dup1\n      mload\n      swap1\n      0x20\n      add\n      keccak256\n        /* \"https://github.com/transmissions11/solmate/blob/main/src/tokens/ERC20.sol\":5594:5949  return... */\n      swap1\n      pop\n        /* \"https://github.com/transmissions11/solmate/blob/main/src/tokens/ERC20.sol\":5510:5956  function computeDomainSeparator() internal view virtual returns (bytes32) {... */\n      swap1\n      jump\t// out\n        /* \"#utility.yul\":7:106   */\n    tag_118:\n        /* \"#utility.yul\":59:65   */\n      0x00\n        /* \"#utility.yul\":93:98   */\n      dup2\n        /* \"#utility.yul\":87:99   */\n      mload\n        /* \"#utility.yul\":77:99   */\n      swap1\n      pop\n        /* \"#utility.yul\":7:106   */\n      swap2\n      swap1\n      pop\n      jump\t// out\n        /* \"#utility.yul\":112:281   */\n    tag_119:\n        /* \"#utility.yul\":196:207   */\n      0x00\n        /* \"#utility.yul\":230:236   */\n      dup3\n        /* \"#utility.yul\":225:228   */\n      dup3\n        /* \"#utility.yul\":218:237   */\n      mstore\n        /* \"#utility.yul\":270:274   */\n      0x20\n        /* \"#utility.yul\":265:268   */\n      dup3\n        /* \"#utility.yul\":261:275   */\n      add\n        /* \"#utility.yul\":246:275   */\n      swap1\n      pop\n        /* \"#utility.yul\":112:281   */\n      swap3\n      swap2\n      pop\n      pop\n      jump\t// out\n        /* \"#utility.yul\":287:426   */\n    tag_120:\n        /* \"#utility.yul\":376:382   */\n      dup3\n        /* \"#utility.yul\":371:374   */\n      dup2\n        /* \"#utility.yul\":366:369   */\n      dup4\n        /* \"#utility.yul\":360:383   */\n      mcopy\n        /* \"#utility.yul\":417:418   */\n      0x00\n        /* \"#utility.yul\":408:414   */\n      dup4\n        /* \"#utility.yul\":403:406   */\n      dup4\n        /* \"#utility.yul\":399:415   */\n      add\n        /* \"#utility.yul\":392:419   */\n      mstore\n        /* \"#utility.yul\":287:426   */\n      pop\n      pop\n      pop\n      jump\t// out\n        /* \"#utility.yul\":432:534   */\n    tag_121:\n        /* \"#utility.yul\":473:479   */\n      0x00\n        /* \"#utility.yul\":524:526   */\n      0x1f\n        /* \"#utility.yul\":520:527   */\n      not\n        /* \"#utility.yul\":515:517   */\n      0x1f\n        /* \"#utility.yul\":508:513   */\n      dup4\n        /* \"#utility.yul\":504:518   */\n      add\n        /* \"#utility.yul\":500:528   */\n      and\n        /* \"#utility.yul\":490:528   */\n      swap1\n      pop\n        /* \"#utility.yul\":432:534   */\n      swap2\n      swap1\n      pop\n      jump\t// out\n        /* \"#utility.yul\":540:917   */\n    tag_122:\n        /* \"#utility.yul\":628:631   */\n      0x00\n        /* \"#utility.yul\":656:695   */\n      tag_165\n        /* \"#utility.yul\":689:694   */\n      dup3\n        /* \"#utility.yul\":656:695   */\n      tag_118\n      jump\t// in\n    tag_165:\n        /* \"#utility.yul\":711:782   */\n      tag_166\n        /* \"#utility.yul\":775:781   */\n      dup2\n        /* \"#utility.yul\":770:773   */\n      dup6\n        /* \"#utility.yul\":711:782   */\n      tag_119\n      jump\t// in\n    tag_166:\n        /* \"#utility.yul\":704:782   */\n      swap4\n      pop\n        /* \"#utility.yul\":791:856   */\n      tag_167\n        /* \"#utility.yul\":849:855   */\n      dup2\n        /* \"#utility.yul\":844:847   */\n      dup6\n        /* \"#utility.yul\":837:841   */\n      0x20\n        /* \"#utility.yul\":830:835   */\n      dup7\n        /* \"#utility.yul\":826:842   */\n      add\n        /* \"#utility.yul\":791:856   */\n      tag_120\n      jump\t// in\n    tag_167:\n        /* \"#utility.yul\":881:910   */\n      tag_168\n        /* \"#utility.yul\":903:909   */\n      dup2\n        /* \"#utility.yul\":881:910   */\n      tag_121\n      jump\t// in\n    tag_168:\n        /* \"#utility.yul\":876:879   */\n      dup5\n        /* \"#utility.yul\":872:911   */\n      add\n        /* \"#utility.yul\":865:911   */\n      swap2\n      pop\n        /* \"#utility.yul\":632:917   */\n      pop\n        /* \"#utility.yul\":540:917   */\n      swap3\n      swap2\n      pop\n      pop\n      jump\t// out\n        /* \"#utility.yul\":923:1236   */\n    tag_19:\n        /* \"#utility.yul\":1036:1040   */\n      0x00\n        /* \"#utility.yul\":1074:1076   */\n      0x20\n        /* \"#utility.yul\":1063:1072   */\n      dup3\n        /* \"#utility.yul\":1059:1077   */\n      add\n        /* \"#utility.yul\":1051:1077   */\n      swap1\n      pop\n        /* \"#utility.yul\":1123:1132   */\n      dup2\n        /* \"#utility.yul\":1117:1121   */\n      dup2\n        /* \"#utility.yul\":1113:1133   */\n      sub\n        /* \"#utility.yul\":1109:1110   */\n      0x00\n        /* \"#utility.yul\":1098:1107   */\n      dup4\n        /* \"#utility.yul\":1094:1111   */\n      add\n        /* \"#utility.yul\":1087:1134   */\n      mstore\n        /* \"#utility.yul\":1151:1229   */\n      tag_170\n        /* \"#utility.yul\":1224:1228   */\n      dup2\n        /* \"#utility.yul\":1215:1221   */\n      dup5\n        /* \"#utility.yul\":1151:1229   */\n      tag_122\n      jump\t// in\n    tag_170:\n        /* \"#utility.yul\":1143:1229   */\n      swap1\n      pop\n        /* \"#utility.yul\":923:1236   */\n      swap3\n      swap2\n      pop\n      pop\n      jump\t// out\n        /* \"#utility.yul\":1323:1440   */\n    tag_124:\n        /* \"#utility.yul\":1432:1433   */\n      0x00\n        /* \"#utility.yul\":1429:1430   */\n      0x00\n        /* \"#utility.yul\":1422:1434   */\n      revert\n        /* \"#utility.yul\":1569:1695   */\n    tag_126:\n        /* \"#utility.yul\":1606:1613   */\n      0x00\n        /* \"#utility.yul\":1646:1688   */\n      0xffffffffffffffffffffffffffffffffffffffff\n        /* \"#utility.yul\":1639:1644   */\n      dup3\n        /* \"#utility.yul\":1635:1689   */\n      and\n        /* \"#utility.yul\":1624:1689   */\n      swap1\n      pop\n        /* \"#utility.yul\":1569:1695   */\n      swap2\n      swap1\n      pop\n      jump\t// out\n        /* \"#utility.yul\":1701:1797   */\n    tag_127:\n        /* \"#utility.yul\":1738:1745   */\n      0x00\n        /* \"#utility.yul\":1767:1791   */\n      tag_176\n        /* \"#utility.yul\":1785:1790   */\n      dup3\n        /* \"#utility.yul\":1767:1791   */\n      tag_126\n      jump\t// in\n    tag_176:\n        /* \"#utility.yul\":1756:1791   */\n      swap1\n      pop\n        /* \"#utility.yul\":1701:1797   */\n      swap2\n      swap1\n      pop\n      jump\t// out\n        /* \"#utility.yul\":1803:1925   */\n    tag_128:\n        /* \"#utility.yul\":1876:1900   */\n      tag_178\n        /* \"#utility.yul\":1894:1899   */\n      dup2\n        /* \"#utility.yul\":1876:1900   */\n      tag_127\n      jump\t// in\n    tag_178:\n        /* \"#utility.yul\":1869:1874   */\n      dup2\n        /* \"#utility.yul\":1866:1901   */\n      eq\n        /* \"#utility.yul\":1856:1919   */\n      tag_179\n      jumpi\n        /* \"#utility.yul\":1915:1916   */\n      0x00\n        /* \"#utility.yul\":1912:1913   */\n      0x00\n        /* \"#utility.yul\":1905:1917   */\n      revert\n        /* \"#utility.yul\":1856:1919   */\n    tag_179:\n        /* \"#utility.yul\":1803:1925   */\n      pop\n      jump\t// out\n        /* \"#utility.yul\":1931:2070   */\n    tag_129:\n        /* \"#utility.yul\":1977:1982   */\n      0x00\n        /* \"#utility.yul\":2015:2021   */\n      dup2\n        /* \"#utility.yul\":2002:2022   */\n      calldataload\n        /* \"#utility.yul\":1993:2022   */\n      swap1\n      pop\n        /* \"#utility.yul\":2031:2064   */\n      tag_181\n        /* \"#utility.yul\":2058:2063   */\n      dup2\n        /* \"#utility.yul\":2031:2064   */\n      tag_128\n      jump\t// in\n    tag_181:\n        /* \"#utility.yul\":1931:2070   */\n      swap3\n      swap2\n      pop\n      pop\n      jump\t// out\n        /* \"#utility.yul\":2076:2153   */\n    tag_130:\n        /* \"#utility.yul\":2113:2120   */\n      0x00\n        /* \"#utility.yul\":2142:2147   */\n      dup2\n        /* \"#utility.yul\":2131:2147   */\n      swap1\n      pop\n        /* \"#utility.yul\":2076:2153   */\n      swap2\n      swap1\n      pop\n      jump\t// out\n        /* \"#utility.yul\":2159:2281   */\n    tag_131:\n        /* \"#utility.yul\":2232:2256   */\n      tag_184\n        /* \"#utility.yul\":2250:2255   */\n      dup2\n        /* \"#utility.yul\":2232:2256   */\n      tag_130\n      jump\t// in\n    tag_184:\n        /* \"#utility.yul\":2225:2230   */\n      dup2\n        /* \"#utility.yul\":2222:2257   */\n      eq\n        /* \"#utility.yul\":2212:2275   */\n      tag_185\n      jumpi\n        /* \"#utility.yul\":2271:2272   */\n      0x00\n        /* \"#utility.yul\":2268:2269   */\n      0x00\n        /* \"#utility.yul\":2261:2273   */\n      revert\n        /* \"#utility.yul\":2212:2275   */\n    tag_185:\n        /* \"#utility.yul\":2159:2281   */\n      pop\n      jump\t// out\n        /* \"#utility.yul\":2287:2426   */\n    tag_132:\n        /* \"#utility.yul\":2333:2338   */\n      0x00\n        /* \"#utility.yul\":2371:2377   */\n      dup2\n        /* \"#utility.yul\":2358:2378   */\n      calldataload\n        /* \"#utility.yul\":2349:2378   */\n      swap1\n      pop\n        /* \"#utility.yul\":2387:2420   */\n      tag_187\n        /* \"#utility.yul\":2414:2419   */\n      dup2\n        /* \"#utility.yul\":2387:2420   */\n      tag_131\n      jump\t// in\n    tag_187:\n        /* \"#utility.yul\":2287:2426   */\n      swap3\n      swap2\n      pop\n      pop\n      jump\t// out\n        /* \"#utility.yul\":2432:2906   */\n    tag_22:\n        /* \"#utility.yul\":2500:2506   */\n      0x00\n        /* \"#utility.yul\":2508:2514   */\n      0x00\n        /* \"#utility.yul\":2557:2559   */\n      0x40\n        /* \"#utility.yul\":2545:2554   */\n      dup4\n        /* \"#utility.yul\":2536:2543   */\n      dup6\n        /* \"#utility.yul\":2532:2555   */\n      sub\n        /* \"#utility.yul\":2528:2560   */\n      slt\n        /* \"#utility.yul\":2525:2644   */\n      iszero\n      tag_189\n      jumpi\n        /* \"#utility.yul\":2563:2642   */\n      tag_190\n      tag_124\n      jump\t// in\n    tag_190:\n        /* \"#utility.yul\":2525:2644   */\n    tag_189:\n        /* \"#utility.yul\":2683:2684   */\n      0x00\n        /* \"#utility.yul\":2708:2761   */\n      tag_191\n        /* \"#utility.yul\":2753:2760   */\n      dup6\n        /* \"#utility.yul\":2744:2750   */\n      dup3\n        /* \"#utility.yul\":2733:2742   */\n      dup7\n        /* \"#utility.yul\":2729:2751   */\n      add\n        /* \"#utility.yul\":2708:2761   */\n      tag_129\n      jump\t// in\n    tag_191:\n        /* \"#utility.yul\":2698:2761   */\n      swap3\n      pop\n        /* \"#utility.yul\":2654:2771   */\n      pop\n        /* \"#utility.yul\":2810:2812   */\n      0x20\n        /* \"#utility.yul\":2836:2889   */\n      tag_192\n        /* \"#utility.yul\":2881:2888   */\n      dup6\n        /* \"#utility.yul\":2872:2878   */\n      dup3\n        /* \"#utility.yul\":2861:2870   */\n      dup7\n        /* \"#utility.yul\":2857:2879   */\n      add\n        /* \"#utility.yul\":2836:2889   */\n      tag_132\n      jump\t// in\n    tag_192:\n        /* \"#utility.yul\":2826:2889   */\n      swap2\n      pop\n        /* \"#utility.yul\":2781:2899   */\n      pop\n        /* \"#utility.yul\":2432:2906   */\n      swap3\n      pop\n      swap3\n      swap1\n      pop\n      jump\t// out\n        /* \"#utility.yul\":2912:3002   */\n    tag_133:\n        /* \"#utility.yul\":2946:2953   */\n      0x00\n        /* \"#utility.yul\":2989:2994   */\n      dup2\n        /* \"#utility.yul\":2982:2995   */\n      iszero\n        /* \"#utility.yul\":2975:2996   */\n      iszero\n        /* \"#utility.yul\":2964:2996   */\n      swap1\n      pop\n        /* \"#utility.yul\":2912:3002   */\n      swap2\n      swap1\n      pop\n      jump\t// out\n        /* \"#utility.yul\":3008:3117   */\n    tag_134:\n        /* \"#utility.yul\":3089:3110   */\n      tag_195\n        /* \"#utility.yul\":3104:3109   */\n      dup2\n        /* \"#utility.yul\":3089:3110   */\n      tag_133\n      jump\t// in\n    tag_195:\n        /* \"#utility.yul\":3084:3087   */\n      dup3\n        /* \"#utility.yul\":3077:3111   */\n      mstore\n        /* \"#utility.yul\":3008:3117   */\n      pop\n      pop\n      jump\t// out\n        /* \"#utility.yul\":3123:3333   */\n    tag_25:\n        /* \"#utility.yul\":3210:3214   */\n      0x00\n        /* \"#utility.yul\":3248:3250   */\n      0x20\n        /* \"#utility.yul\":3237:3246   */\n      dup3\n        /* \"#utility.yul\":3233:3251   */\n      add\n        /* \"#utility.yul\":3225:3251   */\n      swap1\n      pop\n        /* \"#utility.yul\":3261:3326   */\n      tag_197\n        /* \"#utility.yul\":3323:3324   */\n      0x00\n        /* \"#utility.yul\":3312:3321   */\n      dup4\n        /* \"#utility.yul\":3308:3325   */\n      add\n        /* \"#utility.yul\":3299:3305   */\n      dup5\n        /* \"#utility.yul\":3261:3326   */\n      tag_134\n      jump\t// in\n    tag_197:\n        /* \"#utility.yul\":3123:3333   */\n      swap3\n      swap2\n      pop\n      pop\n      jump\t// out\n        /* \"#utility.yul\":3339:3457   */\n    tag_135:\n        /* \"#utility.yul\":3426:3450   */\n      tag_199\n        /* \"#utility.yul\":3444:3449   */\n      dup2\n        /* \"#utility.yul\":3426:3450   */\n      tag_130\n      jump\t// in\n    tag_199:\n        /* \"#utility.yul\":3421:3424   */\n      dup3\n        /* \"#utility.yul\":3414:3451   */\n      mstore\n        /* \"#utility.yul\":3339:3457   */\n      pop\n      pop\n      jump\t// out\n        /* \"#utility.yul\":3463:3685   */\n    tag_29:\n        /* \"#utility.yul\":3556:3560   */\n      0x00\n        /* \"#utility.yul\":3594:3596   */\n      0x20\n        /* \"#utility.yul\":3583:3592   */\n      dup3\n        /* \"#utility.yul\":3579:3597   */\n      add\n        /* \"#utility.yul\":3571:3597   */\n      swap1\n      pop\n        /* \"#utility.yul\":3607:3678   */\n      tag_201\n        /* \"#utility.yul\":3675:3676   */\n      0x00\n        /* \"#utility.yul\":3664:3673   */\n      dup4\n        /* \"#utility.yul\":3660:3677   */\n      add\n        /* \"#utility.yul\":3651:3657   */\n      dup5\n        /* \"#utility.yul\":3607:3678   */\n      tag_135\n      jump\t// in\n    tag_201:\n        /* \"#utility.yul\":3463:3685   */\n      swap3\n      swap2\n      pop\n      pop\n      jump\t// out\n        /* \"#utility.yul\":3691:4310   */\n    tag_32:\n        /* \"#utility.yul\":3768:3774   */\n      0x00\n        /* \"#utility.yul\":3776:3782   */\n      0x00\n        /* \"#utility.yul\":3784:3790   */\n      0x00\n        /* \"#utility.yul\":3833:3835   */\n      0x60\n        /* \"#utility.yul\":3821:3830   */\n      dup5\n        /* \"#utility.yul\":3812:3819   */\n      dup7\n        /* \"#utility.yul\":3808:3831   */\n      sub\n        /* \"#utility.yul\":3804:3836   */\n      slt\n        /* \"#utility.yul\":3801:3920   */\n      iszero\n      tag_203\n      jumpi\n        /* \"#utility.yul\":3839:3918   */\n      tag_204\n      tag_124\n      jump\t// in\n    tag_204:\n        /* \"#utility.yul\":3801:3920   */\n    tag_203:\n        /* \"#utility.yul\":3959:3960   */\n      0x00\n        /* \"#utility.yul\":3984:4037   */\n      tag_205\n        /* \"#utility.yul\":4029:4036   */\n      dup7\n        /* \"#utility.yul\":4020:4026   */\n      dup3\n        /* \"#utility.yul\":4009:4018   */\n      dup8\n        /* \"#utility.yul\":4005:4027   */\n      add\n        /* \"#utility.yul\":3984:4037   */\n      tag_129\n      jump\t// in\n    tag_205:\n        /* \"#utility.yul\":3974:4037   */\n      swap4\n      pop\n        /* \"#utility.yul\":3930:4047   */\n      pop\n        /* \"#utility.yul\":4086:4088   */\n      0x20\n        /* \"#utility.yul\":4112:4165   */\n      tag_206\n        /* \"#utility.yul\":4157:4164   */\n      dup7\n        /* \"#utility.yul\":4148:4154   */\n      dup3\n        /* \"#utility.yul\":4137:4146   */\n      dup8\n        /* \"#utility.yul\":4133:4155   */\n      add\n        /* \"#utility.yul\":4112:4165   */\n      tag_129\n      jump\t// in\n    tag_206:\n        /* \"#utility.yul\":4102:4165   */\n      swap3\n      pop\n        /* \"#utility.yul\":4057:4175   */\n      pop\n        /* \"#utility.yul\":4214:4216   */\n      0x40\n        /* \"#utility.yul\":4240:4293   */\n      tag_207\n        /* \"#utility.yul\":4285:4292   */\n      dup7\n        /* \"#utility.yul\":4276:4282   */\n      dup3\n        /* \"#utility.yul\":4265:4274   */\n      dup8\n        /* \"#utility.yul\":4261:4283   */\n      add\n        /* \"#utility.yul\":4240:4293   */\n      tag_132\n      jump\t// in\n    tag_207:\n        /* \"#utility.yul\":4230:4293   */\n      swap2\n      pop\n        /* \"#utility.yul\":4185:4303   */\n      pop\n        /* \"#utility.yul\":3691:4310   */\n      swap3\n      pop\n      swap3\n      pop\n      swap3\n      jump\t// out\n        /* \"#utility.yul\":4316:4402   */\n    tag_136:\n        /* \"#utility.yul\":4351:4358   */\n      0x00\n        /* \"#utility.yul\":4391:4395   */\n      0xff\n        /* \"#utility.yul\":4384:4389   */\n      dup3\n        /* \"#utility.yul\":4380:4396   */\n      and\n        /* \"#utility.yul\":4369:4396   */\n      swap1\n      pop\n        /* \"#utility.yul\":4316:4402   */\n      swap2\n      swap1\n      pop\n      jump\t// out\n        /* \"#utility.yul\":4408:4520   */\n    tag_137:\n        /* \"#utility.yul\":4491:4513   */\n      tag_210\n        /* \"#utility.yul\":4507:4512   */\n      dup2\n        /* \"#utility.yul\":4491:4513   */\n      tag_136\n      jump\t// in\n    tag_210:\n        /* \"#utility.yul\":4486:4489   */\n      dup3\n        /* \"#utility.yul\":4479:4514   */\n      mstore\n        /* \"#utility.yul\":4408:4520   */\n      pop\n      pop\n      jump\t// out\n        /* \"#utility.yul\":4526:4740   */\n    tag_38:\n        /* \"#utility.yul\":4615:4619   */\n      0x00\n        /* \"#utility.yul\":4653:4655   */\n      0x20\n        /* \"#utility.yul\":4642:4651   */\n      dup3\n        /* \"#utility.yul\":4638:4656   */\n      add\n        /* \"#utility.yul\":4630:4656   */\n      swap1\n      pop\n        /* \"#utility.yul\":4666:4733   */\n      tag_212\n        /* \"#utility.yul\":4730:4731   */\n      0x00\n        /* \"#utility.yul\":4719:4728   */\n      dup4\n        /* \"#utility.yul\":4715:4732   */\n      add\n        /* \"#utility.yul\":4706:4712   */\n      dup5\n        /* \"#utility.yul\":4666:4733   */\n      tag_137\n      jump\t// in\n    tag_212:\n        /* \"#utility.yul\":4526:4740   */\n      swap3\n      swap2\n      pop\n      pop\n      jump\t// out\n        /* \"#utility.yul\":4746:4823   */\n    tag_138:\n        /* \"#utility.yul\":4783:4790   */\n      0x00\n        /* \"#utility.yul\":4812:4817   */\n      dup2\n        /* \"#utility.yul\":4801:4817   */\n      swap1\n      pop\n        /* \"#utility.yul\":4746:4823   */\n      swap2\n      swap1\n      pop\n      jump\t// out\n        /* \"#utility.yul\":4829:4947   */\n    tag_139:\n        /* \"#utility.yul\":4916:4940   */\n      tag_215\n        /* \"#utility.yul\":4934:4939   */\n      dup2\n        /* \"#utility.yul\":4916:4940   */\n      tag_138\n      jump\t// in\n    tag_215:\n        /* \"#utility.yul\":4911:4914   */\n      dup3\n        /* \"#utility.yul\":4904:4941   */\n      mstore\n        /* \"#utility.yul\":4829:4947   */\n      pop\n      pop\n      jump\t// out\n        /* \"#utility.yul\":4953:5175   */\n    tag_42:\n        /* \"#utility.yul\":5046:5050   */\n      0x00\n        /* \"#utility.yul\":5084:5086   */\n      0x20\n        /* \"#utility.yul\":5073:5082   */\n      dup3\n        /* \"#utility.yul\":5069:5087   */\n      add\n        /* \"#utility.yul\":5061:5087   */\n      swap1\n      pop\n        /* \"#utility.yul\":5097:5168   */\n      tag_217\n        /* \"#utility.yul\":5165:5166   */\n      0x00\n        /* \"#utility.yul\":5154:5163   */\n      dup4\n        /* \"#utility.yul\":5150:5167   */\n      add\n        /* \"#utility.yul\":5141:5147   */\n      dup5\n        /* \"#utility.yul\":5097:5168   */\n      tag_139\n      jump\t// in\n    tag_217:\n        /* \"#utility.yul\":4953:5175   */\n      swap3\n      swap2\n      pop\n      pop\n      jump\t// out\n        /* \"#utility.yul\":5181:5510   */\n    tag_45:\n        /* \"#utility.yul\":5240:5246   */\n      0x00\n        /* \"#utility.yul\":5289:5291   */\n      0x20\n        /* \"#utility.yul\":5277:5286   */\n      dup3\n        /* \"#utility.yul\":5268:5275   */\n      dup5\n        /* \"#utility.yul\":5264:5287   */\n      sub\n        /* \"#utility.yul\":5260:5292   */\n      slt\n        /* \"#utility.yul\":5257:5376   */\n      iszero\n      tag_219\n      jumpi\n        /* \"#utility.yul\":5295:5374   */\n      tag_220\n      tag_124\n      jump\t// in\n    tag_220:\n        /* \"#utility.yul\":5257:5376   */\n    tag_219:\n        /* \"#utility.yul\":5415:5416   */\n      0x00\n        /* \"#utility.yul\":5440:5493   */\n      tag_221\n        /* \"#utility.yul\":5485:5492   */\n      dup5\n        /* \"#utility.yul\":5476:5482   */\n      dup3\n        /* \"#utility.yul\":5465:5474   */\n      dup6\n        /* \"#utility.yul\":5461:5483   */\n      add\n        /* \"#utility.yul\":5440:5493   */\n      tag_129\n      jump\t// in\n    tag_221:\n        /* \"#utility.yul\":5430:5493   */\n      swap2\n      pop\n        /* \"#utility.yul\":5386:5503   */\n      pop\n        /* \"#utility.yul\":5181:5510   */\n      swap3\n      swap2\n      pop\n      pop\n      jump\t// out\n        /* \"#utility.yul\":5516:5634   */\n    tag_140:\n        /* \"#utility.yul\":5587:5609   */\n      tag_223\n        /* \"#utility.yul\":5603:5608   */\n      dup2\n        /* \"#utility.yul\":5587:5609   */\n      tag_136\n      jump\t// in\n    tag_223:\n        /* \"#utility.yul\":5580:5585   */\n      dup2\n        /* \"#utility.yul\":5577:5610   */\n      eq\n        /* \"#utility.yul\":5567:5628   */\n      tag_224\n      jumpi\n        /* \"#utility.yul\":5624:5625   */\n      0x00\n        /* \"#utility.yul\":5621:5622   */\n      0x00\n        /* \"#utility.yul\":5614:5626   */\n      revert\n        /* \"#utility.yul\":5567:5628   */\n    tag_224:\n        /* \"#utility.yul\":5516:5634   */\n      pop\n      jump\t// out\n        /* \"#utility.yul\":5640:5775   */\n    tag_141:\n        /* \"#utility.yul\":5684:5689   */\n      0x00\n        /* \"#utility.yul\":5722:5728   */\n      dup2\n        /* \"#utility.yul\":5709:5729   */\n      calldataload\n        /* \"#utility.yul\":5700:5729   */\n      swap1\n      pop\n        /* \"#utility.yul\":5738:5769   */\n      tag_226\n        /* \"#utility.yul\":5763:5768   */\n      dup2\n        /* \"#utility.yul\":5738:5769   */\n      tag_140\n      jump\t// in\n    tag_226:\n        /* \"#utility.yul\":5640:5775   */\n      swap3\n      swap2\n      pop\n      pop\n      jump\t// out\n        /* \"#utility.yul\":5781:5903   */\n    tag_142:\n        /* \"#utility.yul\":5854:5878   */\n      tag_228\n        /* \"#utility.yul\":5872:5877   */\n      dup2\n        /* \"#utility.yul\":5854:5878   */\n      tag_138\n      jump\t// in\n    tag_228:\n        /* \"#utility.yul\":5847:5852   */\n      dup2\n        /* \"#utility.yul\":5844:5879   */\n      eq\n        /* \"#utility.yul\":5834:5897   */\n      tag_229\n      jumpi\n        /* \"#utility.yul\":5893:5894   */\n      0x00\n        /* \"#utility.yul\":5890:5891   */\n      0x00\n        /* \"#utility.yul\":5883:5895   */\n      revert\n        /* \"#utility.yul\":5834:5897   */\n    tag_229:\n        /* \"#utility.yul\":5781:5903   */\n      pop\n      jump\t// out\n        /* \"#utility.yul\":5909:6048   */\n    tag_143:\n        /* \"#utility.yul\":5955:5960   */\n      0x00\n        /* \"#utility.yul\":5993:5999   */\n      dup2\n        /* \"#utility.yul\":5980:6000   */\n      calldataload\n        /* \"#utility.yul\":5971:6000   */\n      swap1\n      pop\n        /* \"#utility.yul\":6009:6042   */\n      tag_231\n        /* \"#utility.yul\":6036:6041   */\n      dup2\n        /* \"#utility.yul\":6009:6042   */\n      tag_142\n      jump\t// in\n    tag_231:\n        /* \"#utility.yul\":5909:6048   */\n      swap3\n      swap2\n      pop\n      pop\n      jump\t// out\n        /* \"#utility.yul\":6054:7253   */\n    tag_61:\n        /* \"#utility.yul\":6165:6171   */\n      0x00\n        /* \"#utility.yul\":6173:6179   */\n      0x00\n        /* \"#utility.yul\":6181:6187   */\n      0x00\n        /* \"#utility.yul\":6189:6195   */\n      0x00\n        /* \"#utility.yul\":6197:6203   */\n      0x00\n        /* \"#utility.yul\":6205:6211   */\n      0x00\n        /* \"#utility.yul\":6213:6219   */\n      0x00\n        /* \"#utility.yul\":6262:6265   */\n      0xe0\n        /* \"#utility.yul\":6250:6259   */\n      dup9\n        /* \"#utility.yul\":6241:6248   */\n      dup11\n        /* \"#utility.yul\":6237:6260   */\n      sub\n        /* \"#utility.yul\":6233:6266   */\n      slt\n        /* \"#utility.yul\":6230:6350   */\n      iszero\n      tag_233\n      jumpi\n        /* \"#utility.yul\":6269:6348   */\n      tag_234\n      tag_124\n      jump\t// in\n    tag_234:\n        /* \"#utility.yul\":6230:6350   */\n    tag_233:\n        /* \"#utility.yul\":6389:6390   */\n      0x00\n        /* \"#utility.yul\":6414:6467   */\n      tag_235\n        /* \"#utility.yul\":6459:6466   */\n      dup11\n        /* \"#utility.yul\":6450:6456   */\n      dup3\n        /* \"#utility.yul\":6439:6448   */\n      dup12\n        /* \"#utility.yul\":6435:6457   */\n      add\n        /* \"#utility.yul\":6414:6467   */\n      tag_129\n      jump\t// in\n    tag_235:\n        /* \"#utility.yul\":6404:6467   */\n      swap8\n      pop\n        /* \"#utility.yul\":6360:6477   */\n      pop\n        /* \"#utility.yul\":6516:6518   */\n      0x20\n        /* \"#utility.yul\":6542:6595   */\n      tag_236\n        /* \"#utility.yul\":6587:6594   */\n      dup11\n        /* \"#utility.yul\":6578:6584   */\n      dup3\n        /* \"#utility.yul\":6567:6576   */\n      dup12\n        /* \"#utility.yul\":6563:6585   */\n      add\n        /* \"#utility.yul\":6542:6595   */\n      tag_129\n      jump\t// in\n    tag_236:\n        /* \"#utility.yul\":6532:6595   */\n      swap7\n      pop\n        /* \"#utility.yul\":6487:6605   */\n      pop\n        /* \"#utility.yul\":6644:6646   */\n      0x40\n        /* \"#utility.yul\":6670:6723   */\n      tag_237\n        /* \"#utility.yul\":6715:6722   */\n      dup11\n        /* \"#utility.yul\":6706:6712   */\n      dup3\n        /* \"#utility.yul\":6695:6704   */\n      dup12\n        /* \"#utility.yul\":6691:6713   */\n      add\n        /* \"#utility.yul\":6670:6723   */\n      tag_132\n      jump\t// in\n    tag_237:\n        /* \"#utility.yul\":6660:6723   */\n      swap6\n      pop\n        /* \"#utility.yul\":6615:6733   */\n      pop\n        /* \"#utility.yul\":6772:6774   */\n      0x60\n        /* \"#utility.yul\":6798:6851   */\n      tag_238\n        /* \"#utility.yul\":6843:6850   */\n      dup11\n        /* \"#utility.yul\":6834:6840   */\n      dup3\n        /* \"#utility.yul\":6823:6832   */\n      dup12\n        /* \"#utility.yul\":6819:6841   */\n      add\n        /* \"#utility.yul\":6798:6851   */\n      tag_132\n      jump\t// in\n    tag_238:\n        /* \"#utility.yul\":6788:6851   */\n      swap5\n      pop\n        /* \"#utility.yul\":6743:6861   */\n      pop\n        /* \"#utility.yul\":6900:6903   */\n      0x80\n        /* \"#utility.yul\":6927:6978   */\n      tag_239\n        /* \"#utility.yul\":6970:6977   */\n      dup11\n        /* \"#utility.yul\":6961:6967   */\n      dup3\n        /* \"#utility.yul\":6950:6959   */\n      dup12\n        /* \"#utility.yul\":6946:6968   */\n      add\n        /* \"#utility.yul\":6927:6978   */\n      tag_141\n      jump\t// in\n    tag_239:\n        /* \"#utility.yul\":6917:6978   */\n      swap4\n      pop\n        /* \"#utility.yul\":6871:6988   */\n      pop\n        /* \"#utility.yul\":7027:7030   */\n      0xa0\n        /* \"#utility.yul\":7054:7107   */\n      tag_240\n        /* \"#utility.yul\":7099:7106   */\n      dup11\n        /* \"#utility.yul\":7090:7096   */\n      dup3\n        /* \"#utility.yul\":7079:7088   */\n      dup12\n        /* \"#utility.yul\":7075:7097   */\n      add\n        /* \"#utility.yul\":7054:7107   */\n      tag_143\n      jump\t// in\n    tag_240:\n        /* \"#utility.yul\":7044:7107   */\n      swap3\n      pop\n        /* \"#utility.yul\":6998:7117   */\n      pop\n        /* \"#utility.yul\":7156:7159   */\n      0xc0\n        /* \"#utility.yul\":7183:7236   */\n      tag_241\n        /* \"#utility.yul\":7228:7235   */\n      dup11\n        /* \"#utility.yul\":7219:7225   */\n      dup3\n        /* \"#utility.yul\":7208:7217   */\n      dup12\n        /* \"#utility.yul\":7204:7226   */\n      add\n        /* \"#utility.yul\":7183:7236   */\n      tag_143\n      jump\t// in\n    tag_241:\n        /* \"#utility.yul\":7173:7236   */\n      swap2\n      pop\n        /* \"#utility.yul\":7127:7246   */\n      pop\n        /* \"#utility.yul\":6054:7253   */\n      swap3\n      swap6\n      swap9\n      swap2\n      swap5\n      swap8\n      pop\n      swap3\n      swap6\n      pop\n      jump\t// out\n        /* \"#utility.yul\":7259:7733   */\n    tag_65:\n        /* \"#utility.yul\":7327:7333   */\n      0x00\n        /* \"#utility.yul\":7335:7341   */\n      0x00\n        /* \"#utility.yul\":7384:7386   */\n      0x40\n        /* \"#utility.yul\":7372:7381   */\n      dup4\n        /* \"#utility.yul\":7363:7370   */\n      dup6\n        /* \"#utility.yul\":7359:7382   */\n      sub\n        /* \"#utility.yul\":7355:7387   */\n      slt\n        /* \"#utility.yul\":7352:7471   */\n      iszero\n      tag_243\n      jumpi\n        /* \"#utility.yul\":7390:7469   */\n      tag_244\n      tag_124\n      jump\t// in\n    tag_244:\n        /* \"#utility.yul\":7352:7471   */\n    tag_243:\n        /* \"#utility.yul\":7510:7511   */\n      0x00\n        /* \"#utility.yul\":7535:7588   */\n      tag_245\n        /* \"#utility.yul\":7580:7587   */\n      dup6\n        /* \"#utility.yul\":7571:7577   */\n      dup3\n        /* \"#utility.yul\":7560:7569   */\n      dup7\n        /* \"#utility.yul\":7556:7578   */\n      add\n        /* \"#utility.yul\":7535:7588   */\n      tag_129\n      jump\t// in\n    tag_245:\n        /* \"#utility.yul\":7525:7588   */\n      swap3\n      pop\n        /* \"#utility.yul\":7481:7598   */\n      pop\n        /* \"#utility.yul\":7637:7639   */\n      0x20\n        /* \"#utility.yul\":7663:7716   */\n      tag_246\n        /* \"#utility.yul\":7708:7715   */\n      dup6\n        /* \"#utility.yul\":7699:7705   */\n      dup3\n        /* \"#utility.yul\":7688:7697   */\n      dup7\n        /* \"#utility.yul\":7684:7706   */\n      add\n        /* \"#utility.yul\":7663:7716   */\n      tag_129\n      jump\t// in\n    tag_246:\n        /* \"#utility.yul\":7653:7716   */\n      swap2\n      pop\n        /* \"#utility.yul\":7608:7726   */\n      pop\n        /* \"#utility.yul\":7259:7733   */\n      swap3\n      pop\n      swap3\n      swap1\n      pop\n      jump\t// out\n        /* \"#utility.yul\":7739:7919   */\n    tag_144:\n        /* \"#utility.yul\":7787:7864   */\n      0x4e487b7100000000000000000000000000000000000000000000000000000000\n        /* \"#utility.yul\":7784:7785   */\n      0x00\n        /* \"#utility.yul\":7777:7865   */\n      mstore\n        /* \"#utility.yul\":7884:7888   */\n      0x22\n        /* \"#utility.yul\":7881:7882   */\n      0x04\n        /* \"#utility.yul\":7874:7889   */\n      mstore\n        /* \"#utility.yul\":7908:7912   */\n      0x24\n        /* \"#utility.yul\":7905:7906   */\n      0x00\n        /* \"#utility.yul\":7898:7913   */\n      revert\n        /* \"#utility.yul\":7925:8245   */\n    tag_69:\n        /* \"#utility.yul\":7969:7975   */\n      0x00\n        /* \"#utility.yul\":8006:8007   */\n      0x02\n        /* \"#utility.yul\":8000:8004   */\n      dup3\n        /* \"#utility.yul\":7996:8008   */\n      div\n        /* \"#utility.yul\":7986:8008   */\n      swap1\n      pop\n        /* \"#utility.yul\":8053:8054   */\n      0x01\n        /* \"#utility.yul\":8047:8051   */\n      dup3\n        /* \"#utility.yul\":8043:8055   */\n      and\n        /* \"#utility.yul\":8074:8092   */\n      dup1\n        /* \"#utility.yul\":8064:8145   */\n      tag_249\n      jumpi\n        /* \"#utility.yul\":8130:8134   */\n      0x7f\n        /* \"#utility.yul\":8122:8128   */\n      dup3\n        /* \"#utility.yul\":8118:8135   */\n      and\n        /* \"#utility.yul\":8108:8135   */\n      swap2\n      pop\n        /* \"#utility.yul\":8064:8145   */\n    tag_249:\n        /* \"#utility.yul\":8192:8194   */\n      0x20\n        /* \"#utility.yul\":8184:8190   */\n      dup3\n        /* \"#utility.yul\":8181:8195   */\n      lt\n        /* \"#utility.yul\":8161:8179   */\n      dup2\n        /* \"#utility.yul\":8158:8196   */\n      sub\n        /* \"#utility.yul\":8155:8239   */\n      tag_250\n      jumpi\n        /* \"#utility.yul\":8211:8229   */\n      tag_251\n      tag_144\n      jump\t// in\n    tag_251:\n        /* \"#utility.yul\":8155:8239   */\n    tag_250:\n        /* \"#utility.yul\":7976:8245   */\n      pop\n        /* \"#utility.yul\":7925:8245   */\n      swap2\n      swap1\n      pop\n      jump\t// out\n        /* \"#utility.yul\":8251:8431   */\n    tag_145:\n        /* \"#utility.yul\":8299:8376   */\n      0x4e487b7100000000000000000000000000000000000000000000000000000000\n        /* \"#utility.yul\":8296:8297   */\n      0x00\n        /* \"#utility.yul\":8289:8377   */\n      mstore\n        /* \"#utility.yul\":8396:8400   */\n      0x11\n        /* \"#utility.yul\":8393:8394   */\n      0x04\n        /* \"#utility.yul\":8386:8401   */\n      mstore\n        /* \"#utility.yul\":8420:8424   */\n      0x24\n        /* \"#utility.yul\":8417:8418   */\n      0x00\n        /* \"#utility.yul\":8410:8425   */\n      revert\n        /* \"#utility.yul\":8437:8631   */\n    tag_79:\n        /* \"#utility.yul\":8477:8481   */\n      0x00\n        /* \"#utility.yul\":8497:8517   */\n      tag_254\n        /* \"#utility.yul\":8515:8516   */\n      dup3\n        /* \"#utility.yul\":8497:8517   */\n      tag_130\n      jump\t// in\n    tag_254:\n        /* \"#utility.yul\":8492:8517   */\n      swap2\n      pop\n        /* \"#utility.yul\":8531:8551   */\n      tag_255\n        /* \"#utility.yul\":8549:8550   */\n      dup4\n        /* \"#utility.yul\":8531:8551   */\n      tag_130\n      jump\t// in\n    tag_255:\n        /* \"#utility.yul\":8526:8551   */\n      swap3\n      pop\n        /* \"#utility.yul\":8575:8576   */\n      dup3\n        /* \"#utility.yul\":8572:8573   */\n      dup3\n        /* \"#utility.yul\":8568:8577   */\n      sub\n        /* \"#utility.yul\":8560:8577   */\n      swap1\n      pop\n        /* \"#utility.yul\":8599:8600   */\n      dup2\n        /* \"#utility.yul\":8593:8597   */\n      dup2\n        /* \"#utility.yul\":8590:8601   */\n      gt\n        /* \"#utility.yul\":8587:8624   */\n      iszero\n      tag_256\n      jumpi\n        /* \"#utility.yul\":8604:8622   */\n      tag_257\n      tag_145\n      jump\t// in\n    tag_257:\n        /* \"#utility.yul\":8587:8624   */\n    tag_256:\n        /* \"#utility.yul\":8437:8631   */\n      swap3\n      swap2\n      pop\n      pop\n      jump\t// out\n        /* \"#utility.yul\":8637:8810   */\n    tag_146:\n        /* \"#utility.yul\":8777:8802   */\n      0x5045524d49545f444541444c494e455f45585049524544000000000000000000\n        /* \"#utility.yul\":8773:8774   */\n      0x00\n        /* \"#utility.yul\":8765:8771   */\n      dup3\n        /* \"#utility.yul\":8761:8775   */\n      add\n        /* \"#utility.yul\":8754:8803   */\n      mstore\n        /* \"#utility.yul\":8637:8810   */\n      pop\n      jump\t// out\n        /* \"#utility.yul\":8816:9182   */\n    tag_147:\n        /* \"#utility.yul\":8958:8961   */\n      0x00\n        /* \"#utility.yul\":8979:9046   */\n      tag_260\n        /* \"#utility.yul\":9043:9045   */\n      0x17\n        /* \"#utility.yul\":9038:9041   */\n      dup4\n        /* \"#utility.yul\":8979:9046   */\n      tag_119\n      jump\t// in\n    tag_260:\n        /* \"#utility.yul\":8972:9046   */\n      swap2\n      pop\n        /* \"#utility.yul\":9055:9148   */\n      tag_261\n        /* \"#utility.yul\":9144:9147   */\n      dup3\n        /* \"#utility.yul\":9055:9148   */\n      tag_146\n      jump\t// in\n    tag_261:\n        /* \"#utility.yul\":9173:9175   */\n      0x20\n        /* \"#utility.yul\":9168:9171   */\n      dup3\n        /* \"#utility.yul\":9164:9176   */\n      add\n        /* \"#utility.yul\":9157:9176   */\n      swap1\n      pop\n        /* \"#utility.yul\":8816:9182   */\n      swap2\n      swap1\n      pop\n      jump\t// out\n        /* \"#utility.yul\":9188:9607   */\n    tag_98:\n        /* \"#utility.yul\":9354:9358   */\n      0x00\n        /* \"#utility.yul\":9392:9394   */\n      0x20\n        /* \"#utility.yul\":9381:9390   */\n      dup3\n        /* \"#utility.yul\":9377:9395   */\n      add\n        /* \"#utility.yul\":9369:9395   */\n      swap1\n      pop\n        /* \"#utility.yul\":9441:9450   */\n      dup2\n        /* \"#utility.yul\":9435:9439   */\n      dup2\n        /* \"#utility.yul\":9431:9451   */\n      sub\n        /* \"#utility.yul\":9427:9428   */\n      0x00\n        /* \"#utility.yul\":9416:9425   */\n      dup4\n        /* \"#utility.yul\":9412:9429   */\n      add\n        /* \"#utility.yul\":9405:9452   */\n      mstore\n        /* \"#utility.yul\":9469:9600   */\n      tag_263\n        /* \"#utility.yul\":9595:9599   */\n      dup2\n        /* \"#utility.yul\":9469:9600   */\n      tag_147\n      jump\t// in\n    tag_263:\n        /* \"#utility.yul\":9461:9600   */\n      swap1\n      pop\n        /* \"#utility.yul\":9188:9607   */\n      swap2\n      swap1\n      pop\n      jump\t// out\n        /* \"#utility.yul\":9613:9731   */\n    tag_148:\n        /* \"#utility.yul\":9700:9724   */\n      tag_265\n        /* \"#utility.yul\":9718:9723   */\n      dup2\n        /* \"#utility.yul\":9700:9724   */\n      tag_127\n      jump\t// in\n    tag_265:\n        /* \"#utility.yul\":9695:9698   */\n      dup3\n        /* \"#utility.yul\":9688:9725   */\n      mstore\n        /* \"#utility.yul\":9613:9731   */\n      pop\n      pop\n      jump\t// out\n        /* \"#utility.yul\":9737:10512   */\n    tag_101:\n        /* \"#utility.yul\":9970:9974   */\n      0x00\n        /* \"#utility.yul\":10008:10011   */\n      0xc0\n        /* \"#utility.yul\":9997:10006   */\n      dup3\n        /* \"#utility.yul\":9993:10012   */\n      add\n        /* \"#utility.yul\":9985:10012   */\n      swap1\n      pop\n        /* \"#utility.yul\":10022:10093   */\n      tag_267\n        /* \"#utility.yul\":10090:10091   */\n      0x00\n        /* \"#utility.yul\":10079:10088   */\n      dup4\n        /* \"#utility.yul\":10075:10092   */\n      add\n        /* \"#utility.yul\":10066:10072   */\n      dup10\n        /* \"#utility.yul\":10022:10093   */\n      tag_139\n      jump\t// in\n    tag_267:\n        /* \"#utility.yul\":10103:10175   */\n      tag_268\n        /* \"#utility.yul\":10171:10173   */\n      0x20\n        /* \"#utility.yul\":10160:10169   */\n      dup4\n        /* \"#utility.yul\":10156:10174   */\n      add\n        /* \"#utility.yul\":10147:10153   */\n      dup9\n        /* \"#utility.yul\":10103:10175   */\n      tag_148\n      jump\t// in\n    tag_268:\n        /* \"#utility.yul\":10185:10257   */\n      tag_269\n        /* \"#utility.yul\":10253:10255   */\n      0x40\n        /* \"#utility.yul\":10242:10251   */\n      dup4\n        /* \"#utility.yul\":10238:10256   */\n      add\n        /* \"#utility.yul\":10229:10235   */\n      dup8\n        /* \"#utility.yul\":10185:10257   */\n      tag_148\n      jump\t// in\n    tag_269:\n        /* \"#utility.yul\":10267:10339   */\n      tag_270\n        /* \"#utility.yul\":10335:10337   */\n      0x60\n        /* \"#utility.yul\":10324:10333   */\n      dup4\n        /* \"#utility.yul\":10320:10338   */\n      add\n        /* \"#utility.yul\":10311:10317   */\n      dup7\n        /* \"#utility.yul\":10267:10339   */\n      tag_135\n      jump\t// in\n    tag_270:\n        /* \"#utility.yul\":10349:10422   */\n      tag_271\n        /* \"#utility.yul\":10417:10420   */\n      0x80\n        /* \"#utility.yul\":10406:10415   */\n      dup4\n        /* \"#utility.yul\":10402:10421   */\n      add\n        /* \"#utility.yul\":10393:10399   */\n      dup6\n        /* \"#utility.yul\":10349:10422   */\n      tag_135\n      jump\t// in\n    tag_271:\n        /* \"#utility.yul\":10432:10505   */\n      tag_272\n        /* \"#utility.yul\":10500:10503   */\n      0xa0\n        /* \"#utility.yul\":10489:10498   */\n      dup4\n        /* \"#utility.yul\":10485:10504   */\n      add\n        /* \"#utility.yul\":10476:10482   */\n      dup5\n        /* \"#utility.yul\":10432:10505   */\n      tag_135\n      jump\t// in\n    tag_272:\n        /* \"#utility.yul\":9737:10512   */\n      swap8\n      swap7\n      pop\n      pop\n      pop\n      pop\n      pop\n      pop\n      pop\n      jump\t// out\n        /* \"#utility.yul\":10518:10666   */\n    tag_149:\n        /* \"#utility.yul\":10620:10631   */\n      0x00\n        /* \"#utility.yul\":10657:10660   */\n      dup2\n        /* \"#utility.yul\":10642:10660   */\n      swap1\n      pop\n        /* \"#utility.yul\":10518:10666   */\n      swap3\n      swap2\n      pop\n      pop\n      jump\t// out\n        /* \"#utility.yul\":10672:10886   */\n    tag_150:\n        /* \"#utility.yul\":10812:10878   */\n      0x1901000000000000000000000000000000000000000000000000000000000000\n        /* \"#utility.yul\":10808:10809   */\n      0x00\n        /* \"#utility.yul\":10800:10806   */\n      dup3\n        /* \"#utility.yul\":10796:10810   */\n      add\n        /* \"#utility.yul\":10789:10879   */\n      mstore\n        /* \"#utility.yul\":10672:10886   */\n      pop\n      jump\t// out\n        /* \"#utility.yul\":10892:11292   */\n    tag_151:\n        /* \"#utility.yul\":11052:11055   */\n      0x00\n        /* \"#utility.yul\":11073:11157   */\n      tag_276\n        /* \"#utility.yul\":11155:11156   */\n      0x02\n        /* \"#utility.yul\":11150:11153   */\n      dup4\n        /* \"#utility.yul\":11073:11157   */\n      tag_149\n      jump\t// in\n    tag_276:\n        /* \"#utility.yul\":11066:11157   */\n      swap2\n      pop\n        /* \"#utility.yul\":11166:11259   */\n      tag_277\n        /* \"#utility.yul\":11255:11258   */\n      dup3\n        /* \"#utility.yul\":11166:11259   */\n      tag_150\n      jump\t// in\n    tag_277:\n        /* \"#utility.yul\":11284:11285   */\n      0x02\n        /* \"#utility.yul\":11279:11282   */\n      dup3\n        /* \"#utility.yul\":11275:11286   */\n      add\n        /* \"#utility.yul\":11268:11286   */\n      swap1\n      pop\n        /* \"#utility.yul\":10892:11292   */\n      swap2\n      swap1\n      pop\n      jump\t// out\n        /* \"#utility.yul\":11298:11377   */\n    tag_152:\n        /* \"#utility.yul\":11337:11344   */\n      0x00\n        /* \"#utility.yul\":11366:11371   */\n      dup2\n        /* \"#utility.yul\":11355:11371   */\n      swap1\n      pop\n        /* \"#utility.yul\":11298:11377   */\n      swap2\n      swap1\n      pop\n      jump\t// out\n        /* \"#utility.yul\":11383:11540   */\n    tag_153:\n        /* \"#utility.yul\":11488:11533   */\n      tag_280\n        /* \"#utility.yul\":11508:11532   */\n      tag_281\n        /* \"#utility.yul\":11526:11531   */\n      dup3\n        /* \"#utility.yul\":11508:11532   */\n      tag_138\n      jump\t// in\n    tag_281:\n        /* \"#utility.yul\":11488:11533   */\n      tag_152\n      jump\t// in\n    tag_280:\n        /* \"#utility.yul\":11483:11486   */\n      dup3\n        /* \"#utility.yul\":11476:11534   */\n      mstore\n        /* \"#utility.yul\":11383:11540   */\n      pop\n      pop\n      jump\t// out\n        /* \"#utility.yul\":11546:12209   */\n    tag_103:\n        /* \"#utility.yul\":11787:11790   */\n      0x00\n        /* \"#utility.yul\":11809:11957   */\n      tag_283\n        /* \"#utility.yul\":11953:11956   */\n      dup3\n        /* \"#utility.yul\":11809:11957   */\n      tag_151\n      jump\t// in\n    tag_283:\n        /* \"#utility.yul\":11802:11957   */\n      swap2\n      pop\n        /* \"#utility.yul\":11967:12042   */\n      tag_284\n        /* \"#utility.yul\":12038:12041   */\n      dup3\n        /* \"#utility.yul\":12029:12035   */\n      dup6\n        /* \"#utility.yul\":11967:12042   */\n      tag_153\n      jump\t// in\n    tag_284:\n        /* \"#utility.yul\":12067:12069   */\n      0x20\n        /* \"#utility.yul\":12062:12065   */\n      dup3\n        /* \"#utility.yul\":12058:12070   */\n      add\n        /* \"#utility.yul\":12051:12070   */\n      swap2\n      pop\n        /* \"#utility.yul\":12080:12155   */\n      tag_285\n        /* \"#utility.yul\":12151:12154   */\n      dup3\n        /* \"#utility.yul\":12142:12148   */\n      dup5\n        /* \"#utility.yul\":12080:12155   */\n      tag_153\n      jump\t// in\n    tag_285:\n        /* \"#utility.yul\":12180:12182   */\n      0x20\n        /* \"#utility.yul\":12175:12178   */\n      dup3\n        /* \"#utility.yul\":12171:12183   */\n      add\n        /* \"#utility.yul\":12164:12183   */\n      swap2\n      pop\n        /* \"#utility.yul\":12200:12203   */\n      dup2\n        /* \"#utility.yul\":12193:12203   */\n      swap1\n      pop\n        /* \"#utility.yul\":11546:12209   */\n      swap4\n      swap3\n      pop\n      pop\n      pop\n      jump\t// out\n        /* \"#utility.yul\":12215:12760   */\n    tag_105:\n        /* \"#utility.yul\":12388:12392   */\n      0x00\n        /* \"#utility.yul\":12426:12429   */\n      0x80\n        /* \"#utility.yul\":12415:12424   */\n      dup3\n        /* \"#utility.yul\":12411:12430   */\n      add\n        /* \"#utility.yul\":12403:12430   */\n      swap1\n      pop\n        /* \"#utility.yul\":12440:12511   */\n      tag_287\n        /* \"#utility.yul\":12508:12509   */\n      0x00\n        /* \"#utility.yul\":12497:12506   */\n      dup4\n        /* \"#utility.yul\":12493:12510   */\n      add\n        /* \"#utility.yul\":12484:12490   */\n      dup8\n        /* \"#utility.yul\":12440:12511   */\n      tag_139\n      jump\t// in\n    tag_287:\n        /* \"#utility.yul\":12521:12589   */\n      tag_288\n        /* \"#utility.yul\":12585:12587   */\n      0x20\n        /* \"#utility.yul\":12574:12583   */\n      dup4\n        /* \"#utility.yul\":12570:12588   */\n      add\n        /* \"#utility.yul\":12561:12567   */\n      dup7\n        /* \"#utility.yul\":12521:12589   */\n      tag_137\n      jump\t// in\n    tag_288:\n        /* \"#utility.yul\":12599:12671   */\n      tag_289\n        /* \"#utility.yul\":12667:12669   */\n      0x40\n        /* \"#utility.yul\":12656:12665   */\n      dup4\n        /* \"#utility.yul\":12652:12670   */\n      add\n        /* \"#utility.yul\":12643:12649   */\n      dup6\n        /* \"#utility.yul\":12599:12671   */\n      tag_139\n      jump\t// in\n    tag_289:\n        /* \"#utility.yul\":12681:12753   */\n      tag_290\n        /* \"#utility.yul\":12749:12751   */\n      0x60\n        /* \"#utility.yul\":12738:12747   */\n      dup4\n        /* \"#utility.yul\":12734:12752   */\n      add\n        /* \"#utility.yul\":12725:12731   */\n      dup5\n        /* \"#utility.yul\":12681:12753   */\n      tag_139\n      jump\t// in\n    tag_290:\n        /* \"#utility.yul\":12215:12760   */\n      swap6\n      swap5\n      pop\n      pop\n      pop\n      pop\n      pop\n      jump\t// out\n        /* \"#utility.yul\":12766:12930   */\n    tag_154:\n        /* \"#utility.yul\":12906:12922   */\n      0x494e56414c49445f5349474e4552000000000000000000000000000000000000\n        /* \"#utility.yul\":12902:12903   */\n      0x00\n        /* \"#utility.yul\":12894:12900   */\n      dup3\n        /* \"#utility.yul\":12890:12904   */\n      add\n        /* \"#utility.yul\":12883:12923   */\n      mstore\n        /* \"#utility.yul\":12766:12930   */\n      pop\n      jump\t// out\n        /* \"#utility.yul\":12936:13302   */\n    tag_155:\n        /* \"#utility.yul\":13078:13081   */\n      0x00\n        /* \"#utility.yul\":13099:13166   */\n      tag_293\n        /* \"#utility.yul\":13163:13165   */\n      0x0e\n        /* \"#utility.yul\":13158:13161   */\n      dup4\n        /* \"#utility.yul\":13099:13166   */\n      tag_119\n      jump\t// in\n    tag_293:\n        /* \"#utility.yul\":13092:13166   */\n      swap2\n      pop\n        /* \"#utility.yul\":13175:13268   */\n      tag_294\n        /* \"#utility.yul\":13264:13267   */\n      dup3\n        /* \"#utility.yul\":13175:13268   */\n      tag_154\n      jump\t// in\n    tag_294:\n        /* \"#utility.yul\":13293:13295   */\n      0x20\n        /* \"#utility.yul\":13288:13291   */\n      dup3\n        /* \"#utility.yul\":13284:13296   */\n      add\n        /* \"#utility.yul\":13277:13296   */\n      swap1\n      pop\n        /* \"#utility.yul\":12936:13302   */\n      swap2\n      swap1\n      pop\n      jump\t// out\n        /* \"#utility.yul\":13308:13727   */\n    tag_111:\n        /* \"#utility.yul\":13474:13478   */\n      0x00\n        /* \"#utility.yul\":13512:13514   */\n      0x20\n        /* \"#utility.yul\":13501:13510   */\n      dup3\n        /* \"#utility.yul\":13497:13515   */\n      add\n        /* \"#utility.yul\":13489:13515   */\n      swap1\n      pop\n        /* \"#utility.yul\":13561:13570   */\n      dup2\n        /* \"#utility.yul\":13555:13559   */\n      dup2\n        /* \"#utility.yul\":13551:13571   */\n      sub\n        /* \"#utility.yul\":13547:13548   */\n      0x00\n        /* \"#utility.yul\":13536:13545   */\n      dup4\n        /* \"#utility.yul\":13532:13549   */\n      add\n        /* \"#utility.yul\":13525:13572   */\n      mstore\n        /* \"#utility.yul\":13589:13720   */\n      tag_296\n        /* \"#utility.yul\":13715:13719   */\n      dup2\n        /* \"#utility.yul\":13589:13720   */\n      tag_155\n      jump\t// in\n    tag_296:\n        /* \"#utility.yul\":13581:13720   */\n      swap1\n      pop\n        /* \"#utility.yul\":13308:13727   */\n      swap2\n      swap1\n      pop\n      jump\t// out\n        /* \"#utility.yul\":13733:13880   */\n    tag_156:\n        /* \"#utility.yul\":13834:13845   */\n      0x00\n        /* \"#utility.yul\":13871:13874   */\n      dup2\n        /* \"#utility.yul\":13856:13874   */\n      swap1\n      pop\n        /* \"#utility.yul\":13733:13880   */\n      swap3\n      swap2\n      pop\n      pop\n      jump\t// out\n        /* \"#utility.yul\":13886:14030   */\n    tag_157:\n        /* \"#utility.yul\":13938:13942   */\n      0x00\n        /* \"#utility.yul\":13961:13964   */\n      dup2\n        /* \"#utility.yul\":13953:13964   */\n      swap1\n      pop\n        /* \"#utility.yul\":13984:13987   */\n      dup2\n        /* \"#utility.yul\":13981:13982   */\n      0x00\n        /* \"#utility.yul\":13974:13988   */\n      mstore\n        /* \"#utility.yul\":14018:14022   */\n      0x20\n        /* \"#utility.yul\":14015:14016   */\n      0x00\n        /* \"#utility.yul\":14005:14023   */\n      keccak256\n        /* \"#utility.yul\":13997:14023   */\n      swap1\n      pop\n        /* \"#utility.yul\":13886:14030   */\n      swap2\n      swap1\n      pop\n      jump\t// out\n        /* \"#utility.yul\":14058:14936   */\n    tag_158:\n        /* \"#utility.yul\":14163:14166   */\n      0x00\n        /* \"#utility.yul\":14200:14205   */\n      dup2\n        /* \"#utility.yul\":14194:14206   */\n      sload\n        /* \"#utility.yul\":14229:14265   */\n      tag_300\n        /* \"#utility.yul\":14255:14264   */\n      dup2\n        /* \"#utility.yul\":14229:14265   */\n      tag_69\n      jump\t// in\n    tag_300:\n        /* \"#utility.yul\":14281:14369   */\n      tag_301\n        /* \"#utility.yul\":14362:14368   */\n      dup2\n        /* \"#utility.yul\":14357:14360   */\n      dup7\n        /* \"#utility.yul\":14281:14369   */\n      tag_156\n      jump\t// in\n    tag_301:\n        /* \"#utility.yul\":14274:14369   */\n      swap5\n      pop\n        /* \"#utility.yul\":14400:14401   */\n      0x01\n        /* \"#utility.yul\":14389:14398   */\n      dup3\n        /* \"#utility.yul\":14385:14402   */\n      and\n        /* \"#utility.yul\":14416:14417   */\n      0x00\n        /* \"#utility.yul\":14411:14577   */\n      dup2\n      eq\n      tag_303\n      jumpi\n        /* \"#utility.yul\":14591:14592   */\n      0x01\n        /* \"#utility.yul\":14586:14930   */\n      dup2\n      eq\n      tag_304\n      jumpi\n        /* \"#utility.yul\":14378:14930   */\n      jump(tag_302)\n        /* \"#utility.yul\":14411:14577   */\n    tag_303:\n        /* \"#utility.yul\":14495:14499   */\n      0xff\n        /* \"#utility.yul\":14491:14500   */\n      not\n        /* \"#utility.yul\":14480:14489   */\n      dup4\n        /* \"#utility.yul\":14476:14501   */\n      and\n        /* \"#utility.yul\":14471:14474   */\n      dup7\n        /* \"#utility.yul\":14464:14502   */\n      mstore\n        /* \"#utility.yul\":14557:14563   */\n      dup2\n        /* \"#utility.yul\":14550:14564   */\n      iszero\n        /* \"#utility.yul\":14543:14565   */\n      iszero\n        /* \"#utility.yul\":14535:14541   */\n      dup3\n        /* \"#utility.yul\":14531:14566   */\n      mul\n        /* \"#utility.yul\":14526:14529   */\n      dup7\n        /* \"#utility.yul\":14522:14567   */\n      add\n        /* \"#utility.yul\":14515:14567   */\n      swap4\n      pop\n        /* \"#utility.yul\":14411:14577   */\n      jump(tag_302)\n        /* \"#utility.yul\":14586:14930   */\n    tag_304:\n        /* \"#utility.yul\":14653:14694   */\n      tag_305\n        /* \"#utility.yul\":14688:14693   */\n      dup6\n        /* \"#utility.yul\":14653:14694   */\n      tag_157\n      jump\t// in\n    tag_305:\n        /* \"#utility.yul\":14716:14717   */\n      0x00\n        /* \"#utility.yul\":14730:14884   */\n    tag_306:\n        /* \"#utility.yul\":14744:14750   */\n      dup4\n        /* \"#utility.yul\":14741:14742   */\n      dup2\n        /* \"#utility.yul\":14738:14751   */\n      lt\n        /* \"#utility.yul\":14730:14884   */\n      iszero\n      tag_308\n      jumpi\n        /* \"#utility.yul\":14818:14825   */\n      dup2\n        /* \"#utility.yul\":14812:14826   */\n      sload\n        /* \"#utility.yul\":14808:14809   */\n      dup2\n        /* \"#utility.yul\":14803:14806   */\n      dup10\n        /* \"#utility.yul\":14799:14810   */\n      add\n        /* \"#utility.yul\":14792:14827   */\n      mstore\n        /* \"#utility.yul\":14868:14869   */\n      0x01\n        /* \"#utility.yul\":14859:14866   */\n      dup3\n        /* \"#utility.yul\":14855:14870   */\n      add\n        /* \"#utility.yul\":14844:14870   */\n      swap2\n      pop\n        /* \"#utility.yul\":14766:14770   */\n      0x20\n        /* \"#utility.yul\":14763:14764   */\n      dup2\n        /* \"#utility.yul\":14759:14771   */\n      add\n        /* \"#utility.yul\":14754:14771   */\n      swap1\n      pop\n        /* \"#utility.yul\":14730:14884   */\n      jump(tag_306)\n    tag_308:\n        /* \"#utility.yul\":14913:14919   */\n      dup4\n        /* \"#utility.yul\":14908:14911   */\n      dup9\n        /* \"#utility.yul\":14904:14920   */\n      add\n        /* \"#utility.yul\":14897:14920   */\n      swap6\n      pop\n        /* \"#utility.yul\":14593:14930   */\n      pop\n      pop\n        /* \"#utility.yul\":14378:14930   */\n    tag_302:\n      pop\n        /* \"#utility.yul\":14167:14936   */\n      pop\n      pop\n        /* \"#utility.yul\":14058:14936   */\n      swap3\n      swap2\n      pop\n      pop\n      jump\t// out\n        /* \"#utility.yul\":14942:15215   */\n    tag_115:\n        /* \"#utility.yul\":15073:15076   */\n      0x00\n        /* \"#utility.yul\":15095:15189   */\n      tag_310\n        /* \"#utility.yul\":15185:15188   */\n      dup3\n        /* \"#utility.yul\":15176:15182   */\n      dup5\n        /* \"#utility.yul\":15095:15189   */\n      tag_158\n      jump\t// in\n    tag_310:\n        /* \"#utility.yul\":15088:15189   */\n      swap2\n      pop\n        /* \"#utility.yul\":15206:15209   */\n      dup2\n        /* \"#utility.yul\":15199:15209   */\n      swap1\n      pop\n        /* \"#utility.yul\":14942:15215   */\n      swap3\n      swap2\n      pop\n      pop\n      jump\t// out\n        /* \"#utility.yul\":15221:15885   */\n    tag_117:\n        /* \"#utility.yul\":15426:15430   */\n      0x00\n        /* \"#utility.yul\":15464:15467   */\n      0xa0\n        /* \"#utility.yul\":15453:15462   */\n      dup3\n        /* \"#utility.yul\":15449:15468   */\n      add\n        /* \"#utility.yul\":15441:15468   */\n      swap1\n      pop\n        /* \"#utility.yul\":15478:15549   */\n      tag_312\n        /* \"#utility.yul\":15546:15547   */\n      0x00\n        /* \"#utility.yul\":15535:15544   */\n      dup4\n        /* \"#utility.yul\":15531:15548   */\n      add\n        /* \"#utility.yul\":15522:15528   */\n      dup9\n        /* \"#utility.yul\":15478:15549   */\n      tag_139\n      jump\t// in\n    tag_312:\n        /* \"#utility.yul\":15559:15631   */\n      tag_313\n        /* \"#utility.yul\":15627:15629   */\n      0x20\n        /* \"#utility.yul\":15616:15625   */\n      dup4\n        /* \"#utility.yul\":15612:15630   */\n      add\n        /* \"#utility.yul\":15603:15609   */\n      dup8\n        /* \"#utility.yul\":15559:15631   */\n      tag_139\n      jump\t// in\n    tag_313:\n        /* \"#utility.yul\":15641:15713   */\n      tag_314\n        /* \"#utility.yul\":15709:15711   */\n      0x40\n        /* \"#utility.yul\":15698:15707   */\n      dup4\n        /* \"#utility.yul\":15694:15712   */\n      add\n        /* \"#utility.yul\":15685:15691   */\n      dup7\n        /* \"#utility.yul\":15641:15713   */\n      tag_139\n      jump\t// in\n    tag_314:\n        /* \"#utility.yul\":15723:15795   */\n      tag_315\n        /* \"#utility.yul\":15791:15793   */\n      0x60\n        /* \"#utility.yul\":15780:15789   */\n      dup4\n        /* \"#utility.yul\":15776:15794   */\n      add\n        /* \"#utility.yul\":15767:15773   */\n      dup6\n        /* \"#utility.yul\":15723:15795   */\n      tag_135\n      jump\t// in\n    tag_315:\n        /* \"#utility.yul\":15805:15878   */\n      tag_316\n        /* \"#utility.yul\":15873:15876   */\n      0x80\n        /* \"#utility.yul\":15862:15871   */\n      dup4\n        /* \"#utility.yul\":15858:15877   */\n      add\n        /* \"#utility.yul\":15849:15855   */\n      dup5\n        /* \"#utility.yul\":15805:15878   */\n      tag_148\n      jump\t// in\n    tag_316:\n        /* \"#utility.yul\":15221:15885   */\n      swap7\n      swap6\n      pop\n      pop\n      pop\n      pop\n      pop\n      pop\n      jump\t// out\n\n    auxdata: 0xa264697066735822122071390a5ab70a7087caf8acc6ea936207537a0c09523718573886a453b0c85d2f64736f6c634300081c0033\n}\n",
				"bytecode": {
					"linkReferences": {},
					"object": "60e060405234801561000f575f5ffd5b506040518060400160405280600581526020017f4775616e6f0000000000000000000000000000000000000000000000000000008152506040518060400160405280600381526020017f47554100000000000000000000000000000000000000000000000000000000008152506012825f908161008c9190610397565b50816001908161009c9190610397565b508060ff1660808160ff16815250504660a081815250506100c16100d060201b60201c565b60c081815250505050506105cf565b5f7f8b73c3c69bb8fe3d512ecc4cf759cc79239f7b179b0ffacaa9a75d522b39400f5f6040516101009190610502565b60405180910390207fc89efdaa54c0f20c7adf612882df0950f5a951637e0307cdcb4c672f298b8bc6463060405160200161013f95949392919061057e565b60405160208183030381529060405280519060200120905090565b5f81519050919050565b7f4e487b71000000000000000000000000000000000000000000000000000000005f52604160045260245ffd5b7f4e487b71000000000000000000000000000000000000000000000000000000005f52602260045260245ffd5b5f60028204905060018216806101d557607f821691505b6020821081036101e8576101e7610191565b5b50919050565b5f819050815f5260205f209050919050565b5f6020601f8301049050919050565b5f82821b905092915050565b5f6008830261024a7fffffffffffffffffffffffffffffffffffffffffffffffffffffffffffffffff8261020f565b610254868361020f565b95508019841693508086168417925050509392505050565b5f819050919050565b5f819050919050565b5f61029861029361028e8461026c565b610275565b61026c565b9050919050565b5f819050919050565b6102b18361027e565b6102c56102bd8261029f565b84845461021b565b825550505050565b5f5f905090565b6102dc6102cd565b6102e78184846102a8565b505050565b5b8181101561030a576102ff5f826102d4565b6001810190506102ed565b5050565b601f82111561034f57610320816101ee565b61032984610200565b81016020851015610338578190505b61034c61034485610200565b8301826102ec565b50505b505050565b5f82821c905092915050565b5f61036f5f1984600802610354565b1980831691505092915050565b5f6103878383610360565b9150826002028217905092915050565b6103a08261015a565b67ffffffffffffffff8111156103b9576103b8610164565b5b6103c382546101be565b6103ce82828561030e565b5f60209050601f8311600181146103ff575f84156103ed578287015190505b6103f7858261037c565b86555061045e565b601f19841661040d866101ee565b5f5b828110156104345784890151825560018201915060208501945060208101905061040f565b86831015610451578489015161044d601f891682610360565b8355505b6001600288020188555050505b505050505050565b5f81905092915050565b5f819050815f5260205f209050919050565b5f815461048e816101be565b6104988186610466565b9450600182165f81146104b257600181146104c7576104f9565b60ff19831686528115158202860193506104f9565b6104d085610470565b5f5b838110156104f1578154818901526001820191506020810190506104d2565b838801955050505b50505092915050565b5f61050d8284610482565b915081905092915050565b5f819050919050565b61052a81610518565b82525050565b6105398161026c565b82525050565b5f73ffffffffffffffffffffffffffffffffffffffff82169050919050565b5f6105688261053f565b9050919050565b6105788161055e565b82525050565b5f60a0820190506105915f830188610521565b61059e6020830187610521565b6105ab6040830186610521565b6105b86060830185610530565b6105c5608083018461056f565b9695505050505050565b60805160a05160c0516114056105f95f395f61069c01525f61066801525f61064301526114055ff3fe608060405234801561000f575f5ffd5b50600436106100b2575f3560e01c806370a082311161006f57806370a082311461018e5780637ecebe00146101be57806395d89b41146101ee578063a9059cbb1461020c578063d505accf1461023c578063dd62ed3e14610258576100b2565b806306fdde03146100b6578063095ea7b3146100d457806318160ddd1461010457806323b872dd14610122578063313ce567146101525780633644e51514610170575b5f5ffd5b6100be610288565b6040516100cb9190610c8b565b60405180910390f35b6100ee60048036038101906100e99190610d3c565b610313565b6040516100fb9190610d94565b60405180910390f35b61010c610400565b6040516101199190610dbc565b60405180910390f35b61013c60048036038101906101379190610dd5565b610406565b6040516101499190610d94565b60405180910390f35b61015a610641565b6040516101679190610e40565b60405180910390f35b610178610665565b6040516101859190610e71565b60405180910390f35b6101a860048036038101906101a39190610e8a565b6106c1565b6040516101b59190610dbc565b60405180910390f35b6101d860048036038101906101d39190610e8a565b6106d6565b6040516101e59190610dbc565b60405180910390f35b6101f66106eb565b6040516102039190610c8b565b60405180910390f35b61022660048036038101906102219190610d3c565b610777565b6040516102339190610d94565b60405180910390f35b61025660048036038101906102519190610f09565b610884565b005b610272600480360381019061026d9190610fa6565b610b71565b60405161027f9190610dbc565b60405180910390f35b5f805461029490611011565b80601f01602080910402602001604051908101604052809291908181526020018280546102c090611011565b801561030b5780601f106102e25761010080835404028352916020019161030b565b820191905f5260205f20905b8154815290600101906020018083116102ee57829003601f168201915b505050505081565b5f8160045f3373ffffffffffffffffffffffffffffffffffffffff1673ffffffffffffffffffffffffffffffffffffffff1681526020019081526020015f205f8573ffffffffffffffffffffffffffffffffffffffff1673ffffffffffffffffffffffffffffffffffffffff1681526020019081526020015f20819055508273ffffffffffffffffffffffffffffffffffffffff163373ffffffffffffffffffffffffffffffffffffffff167f8c5be1e5ebec7d5bd14f71427d1e84f3dd0314c0f7b2291e5b200ac8c7c3b925846040516103ee9190610dbc565b60405180910390a36001905092915050565b60025481565b5f5f60045f8673ffffffffffffffffffffffffffffffffffffffff1673ffffffffffffffffffffffffffffffffffffffff1681526020019081526020015f205f3373ffffffffffffffffffffffffffffffffffffffff1673ffffffffffffffffffffffffffffffffffffffff1681526020019081526020015f205490507fffffffffffffffffffffffffffffffffffffffffffffffffffffffffffffffff81146105335782816104b6919061106e565b60045f8773ffffffffffffffffffffffffffffffffffffffff1673ffffffffffffffffffffffffffffffffffffffff1681526020019081526020015f205f3373ffffffffffffffffffffffffffffffffffffffff1673ffffffffffffffffffffffffffffffffffffffff1681526020019081526020015f20819055505b8260035f8773ffffffffffffffffffffffffffffffffffffffff1673ffffffffffffffffffffffffffffffffffffffff1681526020019081526020015f205f82825461057f919061106e565b925050819055508260035f8673ffffffffffffffffffffffffffffffffffffffff1673ffffffffffffffffffffffffffffffffffffffff1681526020019081526020015f205f82825401925050819055508373ffffffffffffffffffffffffffffffffffffffff168573ffffffffffffffffffffffffffffffffffffffff167fddf252ad1be2c89b69c2b068fc378daa952ba7f163c4a11628f55a4df523b3ef8560405161062d9190610dbc565b60405180910390a360019150509392505050565b7f000000000000000000000000000000000000000000000000000000000000000081565b5f7f0000000000000000000000000000000000000000000000000000000000000000461461069a57610695610b91565b6106bc565b7f00000000000000000000000000000000000000000000000000000000000000005b905090565b6003602052805f5260405f205f915090505481565b6005602052805f5260405f205f915090505481565b600180546106f890611011565b80601f016020809104026020016040519081016040528092919081815260200182805461072490611011565b801561076f5780601f106107465761010080835404028352916020019161076f565b820191905f5260205f20905b81548152906001019060200180831161075257829003601f168201915b505050505081565b5f8160035f3373ffffffffffffffffffffffffffffffffffffffff1673ffffffffffffffffffffffffffffffffffffffff1681526020019081526020015f205f8282546107c4919061106e565b925050819055508160035f8573ffffffffffffffffffffffffffffffffffffffff1673ffffffffffffffffffffffffffffffffffffffff1681526020019081526020015f205f82825401925050819055508273ffffffffffffffffffffffffffffffffffffffff163373ffffffffffffffffffffffffffffffffffffffff167fddf252ad1be2c89b69c2b068fc378daa952ba7f163c4a11628f55a4df523b3ef846040516108729190610dbc565b60405180910390a36001905092915050565b428410156108c7576040517f08c379a00000000000000000000000000000000000000000000000000000000081526004016108be906110eb565b60405180910390fd5b5f60016108d2610665565b7f6e71edae12b1b97f4d1f60370fef10105fa2faae0126114a169c64845d6126c98a8a8a60055f8f73ffffffffffffffffffffffffffffffffffffffff1673ffffffffffffffffffffffffffffffffffffffff1681526020019081526020015f205f815480929190600101919050558b60405160200161095796959493929190611118565b6040516020818303038152906040528051906020012060405160200161097e9291906111eb565b604051602081830303815290604052805190602001208585856040515f81526020016040526040516109b39493929190611221565b6020604051602081039080840390855afa1580156109d3573d5f5f3e3d5ffd5b5050506020604051035190505f73ffffffffffffffffffffffffffffffffffffffff168173ffffffffffffffffffffffffffffffffffffffff1614158015610a4657508773ffffffffffffffffffffffffffffffffffffffff168173ffffffffffffffffffffffffffffffffffffffff16145b610a85576040517f08c379a0000000000000000000000000000000000000000000000000000000008152600401610a7c906112ae565b60405180910390fd5b8560045f8373ffffffffffffffffffffffffffffffffffffffff1673ffffffffffffffffffffffffffffffffffffffff1681526020019081526020015f205f8973ffffffffffffffffffffffffffffffffffffffff1673ffffffffffffffffffffffffffffffffffffffff1681526020019081526020015f2081905550508573ffffffffffffffffffffffffffffffffffffffff168773ffffffffffffffffffffffffffffffffffffffff167f8c5be1e5ebec7d5bd14f71427d1e84f3dd0314c0f7b2291e5b200ac8c7c3b92587604051610b609190610dbc565b60405180910390a350505050505050565b6004602052815f5260405f20602052805f5260405f205f91509150505481565b5f7f8b73c3c69bb8fe3d512ecc4cf759cc79239f7b179b0ffacaa9a75d522b39400f5f604051610bc19190611368565b60405180910390207fc89efdaa54c0f20c7adf612882df0950f5a951637e0307cdcb4c672f298b8bc64630604051602001610c0095949392919061137e565b60405160208183030381529060405280519060200120905090565b5f81519050919050565b5f82825260208201905092915050565b8281835e5f83830152505050565b5f601f19601f8301169050919050565b5f610c5d82610c1b565b610c678185610c25565b9350610c77818560208601610c35565b610c8081610c43565b840191505092915050565b5f6020820190508181035f830152610ca38184610c53565b905092915050565b5f5ffd5b5f73ffffffffffffffffffffffffffffffffffffffff82169050919050565b5f610cd882610caf565b9050919050565b610ce881610cce565b8114610cf2575f5ffd5b50565b5f81359050610d0381610cdf565b92915050565b5f819050919050565b610d1b81610d09565b8114610d25575f5ffd5b50565b5f81359050610d3681610d12565b92915050565b5f5f60408385031215610d5257610d51610cab565b5b5f610d5f85828601610cf5565b9250506020610d7085828601610d28565b9150509250929050565b5f8115159050919050565b610d8e81610d7a565b82525050565b5f602082019050610da75f830184610d85565b92915050565b610db681610d09565b82525050565b5f602082019050610dcf5f830184610dad565b92915050565b5f5f5f60608486031215610dec57610deb610cab565b5b5f610df986828701610cf5565b9350506020610e0a86828701610cf5565b9250506040610e1b86828701610d28565b9150509250925092565b5f60ff82169050919050565b610e3a81610e25565b82525050565b5f602082019050610e535f830184610e31565b92915050565b5f819050919050565b610e6b81610e59565b82525050565b5f602082019050610e845f830184610e62565b92915050565b5f60208284031215610e9f57610e9e610cab565b5b5f610eac84828501610cf5565b91505092915050565b610ebe81610e25565b8114610ec8575f5ffd5b50565b5f81359050610ed981610eb5565b92915050565b610ee881610e59565b8114610ef2575f5ffd5b50565b5f81359050610f0381610edf565b92915050565b5f5f5f5f5f5f5f60e0888a031215610f2457610f23610cab565b5b5f610f318a828b01610cf5565b9750506020610f428a828b01610cf5565b9650506040610f538a828b01610d28565b9550506060610f648a828b01610d28565b9450506080610f758a828b01610ecb565b93505060a0610f868a828b01610ef5565b92505060c0610f978a828b01610ef5565b91505092959891949750929550565b5f5f60408385031215610fbc57610fbb610cab565b5b5f610fc985828601610cf5565b9250506020610fda85828601610cf5565b9150509250929050565b7f4e487b71000000000000000000000000000000000000000000000000000000005f52602260045260245ffd5b5f600282049050600182168061102857607f821691505b60208210810361103b5761103a610fe4565b5b50919050565b7f4e487b71000000000000000000000000000000000000000000000000000000005f52601160045260245ffd5b5f61107882610d09565b915061108383610d09565b925082820390508181111561109b5761109a611041565b5b92915050565b7f5045524d49545f444541444c494e455f455850495245440000000000000000005f82015250565b5f6110d5601783610c25565b91506110e0826110a1565b602082019050919050565b5f6020820190508181035f830152611102816110c9565b9050919050565b61111281610cce565b82525050565b5f60c08201905061112b5f830189610e62565b6111386020830188611109565b6111456040830187611109565b6111526060830186610dad565b61115f6080830185610dad565b61116c60a0830184610dad565b979650505050505050565b5f81905092915050565b7f19010000000000000000000000000000000000000000000000000000000000005f82015250565b5f6111b5600283611177565b91506111c082611181565b600282019050919050565b5f819050919050565b6111e56111e082610e59565b6111cb565b82525050565b5f6111f5826111a9565b915061120182856111d4565b60208201915061121182846111d4565b6020820191508190509392505050565b5f6080820190506112345f830187610e62565b6112416020830186610e31565b61124e6040830185610e62565b61125b6060830184610e62565b95945050505050565b7f494e56414c49445f5349474e45520000000000000000000000000000000000005f82015250565b5f611298600e83610c25565b91506112a382611264565b602082019050919050565b5f6020820190508181035f8301526112c58161128c565b9050919050565b5f81905092915050565b5f819050815f5260205f209050919050565b5f81546112f481611011565b6112fe81866112cc565b9450600182165f8114611318576001811461132d5761135f565b60ff198316865281151582028601935061135f565b611336856112d6565b5f5b8381101561135757815481890152600182019150602081019050611338565b838801955050505b50505092915050565b5f61137382846112e8565b915081905092915050565b5f60a0820190506113915f830188610e62565b61139e6020830187610e62565b6113ab6040830186610e62565b6113b86060830185610dad565b6113c56080830184611109565b969550505050505056fea264697066735822122071390a5ab70a7087caf8acc6ea936207537a0c09523718573886a453b0c85d2f64736f6c634300081c0033",
					"opcodes": "PUSH1 0xE0 PUSH1 0x40 MSTORE CALLVALUE DUP1 ISZERO PUSH2 0xF JUMPI PUSH0 PUSH0 REVERT JUMPDEST POP PUSH1 0x40 MLOAD DUP1 PUSH1 0x40 ADD PUSH1 0x40 MSTORE DUP1 PUSH1 0x5 DUP2 MSTORE PUSH1 0x20 ADD PUSH32 0x4775616E6F000000000000000000000000000000000000000000000000000000 DUP2 MSTORE POP PUSH1 0x40 MLOAD DUP1 PUSH1 0x40 ADD PUSH1 0x40 MSTORE DUP1 PUSH1 0x3 DUP2 MSTORE PUSH1 0x20 ADD PUSH32 0x4755410000000000000000000000000000000000000000000000000000000000 DUP2 MSTORE POP PUSH1 0x12 DUP3 PUSH0 SWAP1 DUP2 PUSH2 0x8C SWAP2 SWAP1 PUSH2 0x397 JUMP JUMPDEST POP DUP2 PUSH1 0x1 SWAP1 DUP2 PUSH2 0x9C SWAP2 SWAP1 PUSH2 0x397 JUMP JUMPDEST POP DUP1 PUSH1 0xFF AND PUSH1 0x80 DUP2 PUSH1 0xFF AND DUP2 MSTORE POP POP CHAINID PUSH1 0xA0 DUP2 DUP2 MSTORE POP POP PUSH2 0xC1 PUSH2 0xD0 PUSH1 0x20 SHL PUSH1 0x20 SHR JUMP JUMPDEST PUSH1 0xC0 DUP2 DUP2 MSTORE POP POP POP POP POP PUSH2 0x5CF JUMP JUMPDEST PUSH0 PUSH32 0x8B73C3C69BB8FE3D512ECC4CF759CC79239F7B179B0FFACAA9A75D522B39400F PUSH0 PUSH1 0x40 MLOAD PUSH2 0x100 SWAP2 SWAP1 PUSH2 0x502 JUMP JUMPDEST PUSH1 0x40 MLOAD DUP1 SWAP2 SUB SWAP1 KECCAK256 PUSH32 0xC89EFDAA54C0F20C7ADF612882DF0950F5A951637E0307CDCB4C672F298B8BC6 CHAINID ADDRESS PUSH1 0x40 MLOAD PUSH1 0x20 ADD PUSH2 0x13F SWAP6 SWAP5 SWAP4 SWAP3 SWAP2 SWAP1 PUSH2 0x57E JUMP JUMPDEST PUSH1 0x40 MLOAD PUSH1 0x20 DUP2 DUP4 SUB SUB DUP2 MSTORE SWAP1 PUSH1 0x40 MSTORE DUP1 MLOAD SWAP1 PUSH1 0x20 ADD KECCAK256 SWAP1 POP SWAP1 JUMP JUMPDEST PUSH0 DUP2 MLOAD SWAP1 POP SWAP2 SWAP1 POP JUMP JUMPDEST PUSH32 0x4E487B7100000000000000000000000000000000000000000000000000000000 PUSH0 MSTORE PUSH1 0x41 PUSH1 0x4 MSTORE PUSH1 0x24 PUSH0 REVERT JUMPDEST PUSH32 0x4E487B7100000000000000000000000000000000000000000000000000000000 PUSH0 MSTORE PUSH1 0x22 PUSH1 0x4 MSTORE PUSH1 0x24 PUSH0 REVERT JUMPDEST PUSH0 PUSH1 0x2 DUP3 DIV SWAP1 POP PUSH1 0x1 DUP3 AND DUP1 PUSH2 0x1D5 JUMPI PUSH1 0x7F DUP3 AND SWAP2 POP JUMPDEST PUSH1 0x20 DUP3 LT DUP2 SUB PUSH2 0x1E8 JUMPI PUSH2 0x1E7 PUSH2 0x191 JUMP JUMPDEST JUMPDEST POP SWAP2 SWAP1 POP JUMP JUMPDEST PUSH0 DUP2 SWAP1 POP DUP2 PUSH0 MSTORE PUSH1 0x20 PUSH0 KECCAK256 SWAP1 POP SWAP2 SWAP1 POP JUMP JUMPDEST PUSH0 PUSH1 0x20 PUSH1 0x1F DUP4 ADD DIV SWAP1 POP SWAP2 SWAP1 POP JUMP JUMPDEST PUSH0 DUP3 DUP3 SHL SWAP1 POP SWAP3 SWAP2 POP POP JUMP JUMPDEST PUSH0 PUSH1 0x8 DUP4 MUL PUSH2 0x24A PUSH32 0xFFFFFFFFFFFFFFFFFFFFFFFFFFFFFFFFFFFFFFFFFFFFFFFFFFFFFFFFFFFFFFFF DUP3 PUSH2 0x20F JUMP JUMPDEST PUSH2 0x254 DUP7 DUP4 PUSH2 0x20F JUMP JUMPDEST SWAP6 POP DUP1 NOT DUP5 AND SWAP4 POP DUP1 DUP7 AND DUP5 OR SWAP3 POP POP POP SWAP4 SWAP3 POP POP POP JUMP JUMPDEST PUSH0 DUP2 SWAP1 POP SWAP2 SWAP1 POP JUMP JUMPDEST PUSH0 DUP2 SWAP1 POP SWAP2 SWAP1 POP JUMP JUMPDEST PUSH0 PUSH2 0x298 PUSH2 0x293 PUSH2 0x28E DUP5 PUSH2 0x26C JUMP JUMPDEST PUSH2 0x275 JUMP JUMPDEST PUSH2 0x26C JUMP JUMPDEST SWAP1 POP SWAP2 SWAP1 POP JUMP JUMPDEST PUSH0 DUP2 SWAP1 POP SWAP2 SWAP1 POP JUMP JUMPDEST PUSH2 0x2B1 DUP4 PUSH2 0x27E JUMP JUMPDEST PUSH2 0x2C5 PUSH2 0x2BD DUP3 PUSH2 0x29F JUMP JUMPDEST DUP5 DUP5 SLOAD PUSH2 0x21B JUMP JUMPDEST DUP3 SSTORE POP POP POP POP JUMP JUMPDEST PUSH0 PUSH0 SWAP1 POP SWAP1 JUMP JUMPDEST PUSH2 0x2DC PUSH2 0x2CD JUMP JUMPDEST PUSH2 0x2E7 DUP2 DUP5 DUP5 PUSH2 0x2A8 JUMP JUMPDEST POP POP POP JUMP JUMPDEST JUMPDEST DUP2 DUP2 LT ISZERO PUSH2 0x30A JUMPI PUSH2 0x2FF PUSH0 DUP3 PUSH2 0x2D4 JUMP JUMPDEST PUSH1 0x1 DUP2 ADD SWAP1 POP PUSH2 0x2ED JUMP JUMPDEST POP POP JUMP JUMPDEST PUSH1 0x1F DUP3 GT ISZERO PUSH2 0x34F JUMPI PUSH2 0x320 DUP2 PUSH2 0x1EE JUMP JUMPDEST PUSH2 0x329 DUP5 PUSH2 0x200 JUMP JUMPDEST DUP2 ADD PUSH1 0x20 DUP6 LT ISZERO PUSH2 0x338 JUMPI DUP2 SWAP1 POP JUMPDEST PUSH2 0x34C PUSH2 0x344 DUP6 PUSH2 0x200 JUMP JUMPDEST DUP4 ADD DUP3 PUSH2 0x2EC JUMP JUMPDEST POP POP JUMPDEST POP POP POP JUMP JUMPDEST PUSH0 DUP3 DUP3 SHR SWAP1 POP SWAP3 SWAP2 POP POP JUMP JUMPDEST PUSH0 PUSH2 0x36F PUSH0 NOT DUP5 PUSH1 0x8 MUL PUSH2 0x354 JUMP JUMPDEST NOT DUP1 DUP4 AND SWAP2 POP POP SWAP3 SWAP2 POP POP JUMP JUMPDEST PUSH0 PUSH2 0x387 DUP4 DUP4 PUSH2 0x360 JUMP JUMPDEST SWAP2 POP DUP3 PUSH1 0x2 MUL DUP3 OR SWAP1 POP SWAP3 SWAP2 POP POP JUMP JUMPDEST PUSH2 0x3A0 DUP3 PUSH2 0x15A JUMP JUMPDEST PUSH8 0xFFFFFFFFFFFFFFFF DUP2 GT ISZERO PUSH2 0x3B9 JUMPI PUSH2 0x3B8 PUSH2 0x164 JUMP JUMPDEST JUMPDEST PUSH2 0x3C3 DUP3 SLOAD PUSH2 0x1BE JUMP JUMPDEST PUSH2 0x3CE DUP3 DUP3 DUP6 PUSH2 0x30E JUMP JUMPDEST PUSH0 PUSH1 0x20 SWAP1 POP PUSH1 0x1F DUP4 GT PUSH1 0x1 DUP2 EQ PUSH2 0x3FF JUMPI PUSH0 DUP5 ISZERO PUSH2 0x3ED JUMPI DUP3 DUP8 ADD MLOAD SWAP1 POP JUMPDEST PUSH2 0x3F7 DUP6 DUP3 PUSH2 0x37C JUMP JUMPDEST DUP7 SSTORE POP PUSH2 0x45E JUMP JUMPDEST PUSH1 0x1F NOT DUP5 AND PUSH2 0x40D DUP7 PUSH2 0x1EE JUMP JUMPDEST PUSH0 JUMPDEST DUP3 DUP2 LT ISZERO PUSH2 0x434 JUMPI DUP5 DUP10 ADD MLOAD DUP3 SSTORE PUSH1 0x1 DUP3 ADD SWAP2 POP PUSH1 0x20 DUP6 ADD SWAP5 POP PUSH1 0x20 DUP2 ADD SWAP1 POP PUSH2 0x40F JUMP JUMPDEST DUP7 DUP4 LT ISZERO PUSH2 0x451 JUMPI DUP5 DUP10 ADD MLOAD PUSH2 0x44D PUSH1 0x1F DUP10 AND DUP3 PUSH2 0x360 JUMP JUMPDEST DUP4 SSTORE POP JUMPDEST PUSH1 0x1 PUSH1 0x2 DUP9 MUL ADD DUP9 SSTORE POP POP POP JUMPDEST POP POP POP POP POP POP JUMP JUMPDEST PUSH0 DUP2 SWAP1 POP SWAP3 SWAP2 POP POP JUMP JUMPDEST PUSH0 DUP2 SWAP1 POP DUP2 PUSH0 MSTORE PUSH1 0x20 PUSH0 KECCAK256 SWAP1 POP SWAP2 SWAP1 POP JUMP JUMPDEST PUSH0 DUP2 SLOAD PUSH2 0x48E DUP2 PUSH2 0x1BE JUMP JUMPDEST PUSH2 0x498 DUP2 DUP7 PUSH2 0x466 JUMP JUMPDEST SWAP5 POP PUSH1 0x1 DUP3 AND PUSH0 DUP2 EQ PUSH2 0x4B2 JUMPI PUSH1 0x1 DUP2 EQ PUSH2 0x4C7 JUMPI PUSH2 0x4F9 JUMP JUMPDEST PUSH1 0xFF NOT DUP4 AND DUP7 MSTORE DUP2 ISZERO ISZERO DUP3 MUL DUP7 ADD SWAP4 POP PUSH2 0x4F9 JUMP JUMPDEST PUSH2 0x4D0 DUP6 PUSH2 0x470 JUMP JUMPDEST PUSH0 JUMPDEST DUP4 DUP2 LT ISZERO PUSH2 0x4F1 JUMPI DUP2 SLOAD DUP2 DUP10 ADD MSTORE PUSH1 0x1 DUP3 ADD SWAP2 POP PUSH1 0x20 DUP2 ADD SWAP1 POP PUSH2 0x4D2 JUMP JUMPDEST DUP4 DUP9 ADD SWAP6 POP POP POP JUMPDEST POP POP POP SWAP3 SWAP2 POP POP JUMP JUMPDEST PUSH0 PUSH2 0x50D DUP3 DUP5 PUSH2 0x482 JUMP JUMPDEST SWAP2 POP DUP2 SWAP1 POP SWAP3 SWAP2 POP POP JUMP JUMPDEST PUSH0 DUP2 SWAP1 POP SWAP2 SWAP1 POP JUMP JUMPDEST PUSH2 0x52A DUP2 PUSH2 0x518 JUMP JUMPDEST DUP3 MSTORE POP POP JUMP JUMPDEST PUSH2 0x539 DUP2 PUSH2 0x26C JUMP JUMPDEST DUP3 MSTORE POP POP JUMP JUMPDEST PUSH0 PUSH20 0xFFFFFFFFFFFFFFFFFFFFFFFFFFFFFFFFFFFFFFFF DUP3 AND SWAP1 POP SWAP2 SWAP1 POP JUMP JUMPDEST PUSH0 PUSH2 0x568 DUP3 PUSH2 0x53F JUMP JUMPDEST SWAP1 POP SWAP2 SWAP1 POP JUMP JUMPDEST PUSH2 0x578 DUP2 PUSH2 0x55E JUMP JUMPDEST DUP3 MSTORE POP POP JUMP JUMPDEST PUSH0 PUSH1 0xA0 DUP3 ADD SWAP1 POP PUSH2 0x591 PUSH0 DUP4 ADD DUP9 PUSH2 0x521 JUMP JUMPDEST PUSH2 0x59E PUSH1 0x20 DUP4 ADD DUP8 PUSH2 0x521 JUMP JUMPDEST PUSH2 0x5AB PUSH1 0x40 DUP4 ADD DUP7 PUSH2 0x521 JUMP JUMPDEST PUSH2 0x5B8 PUSH1 0x60 DUP4 ADD DUP6 PUSH2 0x530 JUMP JUMPDEST PUSH2 0x5C5 PUSH1 0x80 DUP4 ADD DUP5 PUSH2 0x56F JUMP JUMPDEST SWAP7 SWAP6 POP POP POP POP POP POP JUMP JUMPDEST PUSH1 0x80 MLOAD PUSH1 0xA0 MLOAD PUSH1 0xC0 MLOAD PUSH2 0x1405 PUSH2 0x5F9 PUSH0 CODECOPY PUSH0 PUSH2 0x69C ADD MSTORE PUSH0 PUSH2 0x668 ADD MSTORE PUSH0 PUSH2 0x643 ADD MSTORE PUSH2 0x1405 PUSH0 RETURN INVALID PUSH1 0x80 PUSH1 0x40 MSTORE CALLVALUE DUP1 ISZERO PUSH2 0xF JUMPI PUSH0 PUSH0 REVERT JUMPDEST POP PUSH1 0x4 CALLDATASIZE LT PUSH2 0xB2 JUMPI PUSH0 CALLDATALOAD PUSH1 0xE0 SHR DUP1 PUSH4 0x70A08231 GT PUSH2 0x6F JUMPI DUP1 PUSH4 0x70A08231 EQ PUSH2 0x18E JUMPI DUP1 PUSH4 0x7ECEBE00 EQ PUSH2 0x1BE JUMPI DUP1 PUSH4 0x95D89B41 EQ PUSH2 0x1EE JUMPI DUP1 PUSH4 0xA9059CBB EQ PUSH2 0x20C JUMPI DUP1 PUSH4 0xD505ACCF EQ PUSH2 0x23C JUMPI DUP1 PUSH4 0xDD62ED3E EQ PUSH2 0x258 JUMPI PUSH2 0xB2 JUMP JUMPDEST DUP1 PUSH4 0x6FDDE03 EQ PUSH2 0xB6 JUMPI DUP1 PUSH4 0x95EA7B3 EQ PUSH2 0xD4 JUMPI DUP1 PUSH4 0x18160DDD EQ PUSH2 0x104 JUMPI DUP1 PUSH4 0x23B872DD EQ PUSH2 0x122 JUMPI DUP1 PUSH4 0x313CE567 EQ PUSH2 0x152 JUMPI DUP1 PUSH4 0x3644E515 EQ PUSH2 0x170 JUMPI JUMPDEST PUSH0 PUSH0 REVERT JUMPDEST PUSH2 0xBE PUSH2 0x288 JUMP JUMPDEST PUSH1 0x40 MLOAD PUSH2 0xCB SWAP2 SWAP1 PUSH2 0xC8B JUMP JUMPDEST PUSH1 0x40 MLOAD DUP1 SWAP2 SUB SWAP1 RETURN JUMPDEST PUSH2 0xEE PUSH1 0x4 DUP1 CALLDATASIZE SUB DUP2 ADD SWAP1 PUSH2 0xE9 SWAP2 SWAP1 PUSH2 0xD3C JUMP JUMPDEST PUSH2 0x313 JUMP JUMPDEST PUSH1 0x40 MLOAD PUSH2 0xFB SWAP2 SWAP1 PUSH2 0xD94 JUMP JUMPDEST PUSH1 0x40 MLOAD DUP1 SWAP2 SUB SWAP1 RETURN JUMPDEST PUSH2 0x10C PUSH2 0x400 JUMP JUMPDEST PUSH1 0x40 MLOAD PUSH2 0x119 SWAP2 SWAP1 PUSH2 0xDBC JUMP JUMPDEST PUSH1 0x40 MLOAD DUP1 SWAP2 SUB SWAP1 RETURN JUMPDEST PUSH2 0x13C PUSH1 0x4 DUP1 CALLDATASIZE SUB DUP2 ADD SWAP1 PUSH2 0x137 SWAP2 SWAP1 PUSH2 0xDD5 JUMP JUMPDEST PUSH2 0x406 JUMP JUMPDEST PUSH1 0x40 MLOAD PUSH2 0x149 SWAP2 SWAP1 PUSH2 0xD94 JUMP JUMPDEST PUSH1 0x40 MLOAD DUP1 SWAP2 SUB SWAP1 RETURN JUMPDEST PUSH2 0x15A PUSH2 0x641 JUMP JUMPDEST PUSH1 0x40 MLOAD PUSH2 0x167 SWAP2 SWAP1 PUSH2 0xE40 JUMP JUMPDEST PUSH1 0x40 MLOAD DUP1 SWAP2 SUB SWAP1 RETURN JUMPDEST PUSH2 0x178 PUSH2 0x665 JUMP JUMPDEST PUSH1 0x40 MLOAD PUSH2 0x185 SWAP2 SWAP1 PUSH2 0xE71 JUMP JUMPDEST PUSH1 0x40 MLOAD DUP1 SWAP2 SUB SWAP1 RETURN JUMPDEST PUSH2 0x1A8 PUSH1 0x4 DUP1 CALLDATASIZE SUB DUP2 ADD SWAP1 PUSH2 0x1A3 SWAP2 SWAP1 PUSH2 0xE8A JUMP JUMPDEST PUSH2 0x6C1 JUMP JUMPDEST PUSH1 0x40 MLOAD PUSH2 0x1B5 SWAP2 SWAP1 PUSH2 0xDBC JUMP JUMPDEST PUSH1 0x40 MLOAD DUP1 SWAP2 SUB SWAP1 RETURN JUMPDEST PUSH2 0x1D8 PUSH1 0x4 DUP1 CALLDATASIZE SUB DUP2 ADD SWAP1 PUSH2 0x1D3 SWAP2 SWAP1 PUSH2 0xE8A JUMP JUMPDEST PUSH2 0x6D6 JUMP JUMPDEST PUSH1 0x40 MLOAD PUSH2 0x1E5 SWAP2 SWAP1 PUSH2 0xDBC JUMP JUMPDEST PUSH1 0x40 MLOAD DUP1 SWAP2 SUB SWAP1 RETURN JUMPDEST PUSH2 0x1F6 PUSH2 0x6EB JUMP JUMPDEST PUSH1 0x40 MLOAD PUSH2 0x203 SWAP2 SWAP1 PUSH2 0xC8B JUMP JUMPDEST PUSH1 0x40 MLOAD DUP1 SWAP2 SUB SWAP1 RETURN JUMPDEST PUSH2 0x226 PUSH1 0x4 DUP1 CALLDATASIZE SUB DUP2 ADD SWAP1 PUSH2 0x221 SWAP2 SWAP1 PUSH2 0xD3C JUMP JUMPDEST PUSH2 0x777 JUMP JUMPDEST PUSH1 0x40 MLOAD PUSH2 0x233 SWAP2 SWAP1 PUSH2 0xD94 JUMP JUMPDEST PUSH1 0x40 MLOAD DUP1 SWAP2 SUB SWAP1 RETURN JUMPDEST PUSH2 0x256 PUSH1 0x4 DUP1 CALLDATASIZE SUB DUP2 ADD SWAP1 PUSH2 0x251 SWAP2 SWAP1 PUSH2 0xF09 JUMP JUMPDEST PUSH2 0x884 JUMP JUMPDEST STOP JUMPDEST PUSH2 0x272 PUSH1 0x4 DUP1 CALLDATASIZE SUB DUP2 ADD SWAP1 PUSH2 0x26D SWAP2 SWAP1 PUSH2 0xFA6 JUMP JUMPDEST PUSH2 0xB71 JUMP JUMPDEST PUSH1 0x40 MLOAD PUSH2 0x27F SWAP2 SWAP1 PUSH2 0xDBC JUMP JUMPDEST PUSH1 0x40 MLOAD DUP1 SWAP2 SUB SWAP1 RETURN JUMPDEST PUSH0 DUP1 SLOAD PUSH2 0x294 SWAP1 PUSH2 0x1011 JUMP JUMPDEST DUP1 PUSH1 0x1F ADD PUSH1 0x20 DUP1 SWAP2 DIV MUL PUSH1 0x20 ADD PUSH1 0x40 MLOAD SWAP1 DUP2 ADD PUSH1 0x40 MSTORE DUP1 SWAP3 SWAP2 SWAP1 DUP2 DUP2 MSTORE PUSH1 0x20 ADD DUP3 DUP1 SLOAD PUSH2 0x2C0 SWAP1 PUSH2 0x1011 JUMP JUMPDEST DUP1 ISZERO PUSH2 0x30B JUMPI DUP1 PUSH1 0x1F LT PUSH2 0x2E2 JUMPI PUSH2 0x100 DUP1 DUP4 SLOAD DIV MUL DUP4 MSTORE SWAP2 PUSH1 0x20 ADD SWAP2 PUSH2 0x30B JUMP JUMPDEST DUP3 ADD SWAP2 SWAP1 PUSH0 MSTORE PUSH1 0x20 PUSH0 KECCAK256 SWAP1 JUMPDEST DUP2 SLOAD DUP2 MSTORE SWAP1 PUSH1 0x1 ADD SWAP1 PUSH1 0x20 ADD DUP1 DUP4 GT PUSH2 0x2EE JUMPI DUP3 SWAP1 SUB PUSH1 0x1F AND DUP3 ADD SWAP2 JUMPDEST POP POP POP POP POP DUP2 JUMP JUMPDEST PUSH0 DUP2 PUSH1 0x4 PUSH0 CALLER PUSH20 0xFFFFFFFFFFFFFFFFFFFFFFFFFFFFFFFFFFFFFFFF AND PUSH20 0xFFFFFFFFFFFFFFFFFFFFFFFFFFFFFFFFFFFFFFFF AND DUP2 MSTORE PUSH1 0x20 ADD SWAP1 DUP2 MSTORE PUSH1 0x20 ADD PUSH0 KECCAK256 PUSH0 DUP6 PUSH20 0xFFFFFFFFFFFFFFFFFFFFFFFFFFFFFFFFFFFFFFFF AND PUSH20 0xFFFFFFFFFFFFFFFFFFFFFFFFFFFFFFFFFFFFFFFF AND DUP2 MSTORE PUSH1 0x20 ADD SWAP1 DUP2 MSTORE PUSH1 0x20 ADD PUSH0 KECCAK256 DUP2 SWAP1 SSTORE POP DUP3 PUSH20 0xFFFFFFFFFFFFFFFFFFFFFFFFFFFFFFFFFFFFFFFF AND CALLER PUSH20 0xFFFFFFFFFFFFFFFFFFFFFFFFFFFFFFFFFFFFFFFF AND PUSH32 0x8C5BE1E5EBEC7D5BD14F71427D1E84F3DD0314C0F7B2291E5B200AC8C7C3B925 DUP5 PUSH1 0x40 MLOAD PUSH2 0x3EE SWAP2 SWAP1 PUSH2 0xDBC JUMP JUMPDEST PUSH1 0x40 MLOAD DUP1 SWAP2 SUB SWAP1 LOG3 PUSH1 0x1 SWAP1 POP SWAP3 SWAP2 POP POP JUMP JUMPDEST PUSH1 0x2 SLOAD DUP2 JUMP JUMPDEST PUSH0 PUSH0 PUSH1 0x4 PUSH0 DUP7 PUSH20 0xFFFFFFFFFFFFFFFFFFFFFFFFFFFFFFFFFFFFFFFF AND PUSH20 0xFFFFFFFFFFFFFFFFFFFFFFFFFFFFFFFFFFFFFFFF AND DUP2 MSTORE PUSH1 0x20 ADD SWAP1 DUP2 MSTORE PUSH1 0x20 ADD PUSH0 KECCAK256 PUSH0 CALLER PUSH20 0xFFFFFFFFFFFFFFFFFFFFFFFFFFFFFFFFFFFFFFFF AND PUSH20 0xFFFFFFFFFFFFFFFFFFFFFFFFFFFFFFFFFFFFFFFF AND DUP2 MSTORE PUSH1 0x20 ADD SWAP1 DUP2 MSTORE PUSH1 0x20 ADD PUSH0 KECCAK256 SLOAD SWAP1 POP PUSH32 0xFFFFFFFFFFFFFFFFFFFFFFFFFFFFFFFFFFFFFFFFFFFFFFFFFFFFFFFFFFFFFFFF DUP2 EQ PUSH2 0x533 JUMPI DUP3 DUP2 PUSH2 0x4B6 SWAP2 SWAP1 PUSH2 0x106E JUMP JUMPDEST PUSH1 0x4 PUSH0 DUP8 PUSH20 0xFFFFFFFFFFFFFFFFFFFFFFFFFFFFFFFFFFFFFFFF AND PUSH20 0xFFFFFFFFFFFFFFFFFFFFFFFFFFFFFFFFFFFFFFFF AND DUP2 MSTORE PUSH1 0x20 ADD SWAP1 DUP2 MSTORE PUSH1 0x20 ADD PUSH0 KECCAK256 PUSH0 CALLER PUSH20 0xFFFFFFFFFFFFFFFFFFFFFFFFFFFFFFFFFFFFFFFF AND PUSH20 0xFFFFFFFFFFFFFFFFFFFFFFFFFFFFFFFFFFFFFFFF AND DUP2 MSTORE PUSH1 0x20 ADD SWAP1 DUP2 MSTORE PUSH1 0x20 ADD PUSH0 KECCAK256 DUP2 SWAP1 SSTORE POP JUMPDEST DUP3 PUSH1 0x3 PUSH0 DUP8 PUSH20 0xFFFFFFFFFFFFFFFFFFFFFFFFFFFFFFFFFFFFFFFF AND PUSH20 0xFFFFFFFFFFFFFFFFFFFFFFFFFFFFFFFFFFFFFFFF AND DUP2 MSTORE PUSH1 0x20 ADD SWAP1 DUP2 MSTORE PUSH1 0x20 ADD PUSH0 KECCAK256 PUSH0 DUP3 DUP3 SLOAD PUSH2 0x57F SWAP2 SWAP1 PUSH2 0x106E JUMP JUMPDEST SWAP3 POP POP DUP2 SWAP1 SSTORE POP DUP3 PUSH1 0x3 PUSH0 DUP7 PUSH20 0xFFFFFFFFFFFFFFFFFFFFFFFFFFFFFFFFFFFFFFFF AND PUSH20 0xFFFFFFFFFFFFFFFFFFFFFFFFFFFFFFFFFFFFFFFF AND DUP2 MSTORE PUSH1 0x20 ADD SWAP1 DUP2 MSTORE PUSH1 0x20 ADD PUSH0 KECCAK256 PUSH0 DUP3 DUP3 SLOAD ADD SWAP3 POP POP DUP2 SWAP1 SSTORE POP DUP4 PUSH20 0xFFFFFFFFFFFFFFFFFFFFFFFFFFFFFFFFFFFFFFFF AND DUP6 PUSH20 0xFFFFFFFFFFFFFFFFFFFFFFFFFFFFFFFFFFFFFFFF AND PUSH32 0xDDF252AD1BE2C89B69C2B068FC378DAA952BA7F163C4A11628F55A4DF523B3EF DUP6 PUSH1 0x40 MLOAD PUSH2 0x62D SWAP2 SWAP1 PUSH2 0xDBC JUMP JUMPDEST PUSH1 0x40 MLOAD DUP1 SWAP2 SUB SWAP1 LOG3 PUSH1 0x1 SWAP2 POP POP SWAP4 SWAP3 POP POP POP JUMP JUMPDEST PUSH32 0x0 DUP2 JUMP JUMPDEST PUSH0 PUSH32 0x0 CHAINID EQ PUSH2 0x69A JUMPI PUSH2 0x695 PUSH2 0xB91 JUMP JUMPDEST PUSH2 0x6BC JUMP JUMPDEST PUSH32 0x0 JUMPDEST SWAP1 POP SWAP1 JUMP JUMPDEST PUSH1 0x3 PUSH1 0x20 MSTORE DUP1 PUSH0 MSTORE PUSH1 0x40 PUSH0 KECCAK256 PUSH0 SWAP2 POP SWAP1 POP SLOAD DUP2 JUMP JUMPDEST PUSH1 0x5 PUSH1 0x20 MSTORE DUP1 PUSH0 MSTORE PUSH1 0x40 PUSH0 KECCAK256 PUSH0 SWAP2 POP SWAP1 POP SLOAD DUP2 JUMP JUMPDEST PUSH1 0x1 DUP1 SLOAD PUSH2 0x6F8 SWAP1 PUSH2 0x1011 JUMP JUMPDEST DUP1 PUSH1 0x1F ADD PUSH1 0x20 DUP1 SWAP2 DIV MUL PUSH1 0x20 ADD PUSH1 0x40 MLOAD SWAP1 DUP2 ADD PUSH1 0x40 MSTORE DUP1 SWAP3 SWAP2 SWAP1 DUP2 DUP2 MSTORE PUSH1 0x20 ADD DUP3 DUP1 SLOAD PUSH2 0x724 SWAP1 PUSH2 0x1011 JUMP JUMPDEST DUP1 ISZERO PUSH2 0x76F JUMPI DUP1 PUSH1 0x1F LT PUSH2 0x746 JUMPI PUSH2 0x100 DUP1 DUP4 SLOAD DIV MUL DUP4 MSTORE SWAP2 PUSH1 0x20 ADD SWAP2 PUSH2 0x76F JUMP JUMPDEST DUP3 ADD SWAP2 SWAP1 PUSH0 MSTORE PUSH1 0x20 PUSH0 KECCAK256 SWAP1 JUMPDEST DUP2 SLOAD DUP2 MSTORE SWAP1 PUSH1 0x1 ADD SWAP1 PUSH1 0x20 ADD DUP1 DUP4 GT PUSH2 0x752 JUMPI DUP3 SWAP1 SUB PUSH1 0x1F AND DUP3 ADD SWAP2 JUMPDEST POP POP POP POP POP DUP2 JUMP JUMPDEST PUSH0 DUP2 PUSH1 0x3 PUSH0 CALLER PUSH20 0xFFFFFFFFFFFFFFFFFFFFFFFFFFFFFFFFFFFFFFFF AND PUSH20 0xFFFFFFFFFFFFFFFFFFFFFFFFFFFFFFFFFFFFFFFF AND DUP2 MSTORE PUSH1 0x20 ADD SWAP1 DUP2 MSTORE PUSH1 0x20 ADD PUSH0 KECCAK256 PUSH0 DUP3 DUP3 SLOAD PUSH2 0x7C4 SWAP2 SWAP1 PUSH2 0x106E JUMP JUMPDEST SWAP3 POP POP DUP2 SWAP1 SSTORE POP DUP2 PUSH1 0x3 PUSH0 DUP6 PUSH20 0xFFFFFFFFFFFFFFFFFFFFFFFFFFFFFFFFFFFFFFFF AND PUSH20 0xFFFFFFFFFFFFFFFFFFFFFFFFFFFFFFFFFFFFFFFF AND DUP2 MSTORE PUSH1 0x20 ADD SWAP1 DUP2 MSTORE PUSH1 0x20 ADD PUSH0 KECCAK256 PUSH0 DUP3 DUP3 SLOAD ADD SWAP3 POP POP DUP2 SWAP1 SSTORE POP DUP3 PUSH20 0xFFFFFFFFFFFFFFFFFFFFFFFFFFFFFFFFFFFFFFFF AND CALLER PUSH20 0xFFFFFFFFFFFFFFFFFFFFFFFFFFFFFFFFFFFFFFFF AND PUSH32 0xDDF252AD1BE2C89B69C2B068FC378DAA952BA7F163C4A11628F55A4DF523B3EF DUP5 PUSH1 0x40 MLOAD PUSH2 0x872 SWAP2 SWAP1 PUSH2 0xDBC JUMP JUMPDEST PUSH1 0x40 MLOAD DUP1 SWAP2 SUB SWAP1 LOG3 PUSH1 0x1 SWAP1 POP SWAP3 SWAP2 POP POP JUMP JUMPDEST TIMESTAMP DUP5 LT ISZERO PUSH2 0x8C7 JUMPI PUSH1 0x40 MLOAD PUSH32 0x8C379A000000000000000000000000000000000000000000000000000000000 DUP2 MSTORE PUSH1 0x4 ADD PUSH2 0x8BE SWAP1 PUSH2 0x10EB JUMP JUMPDEST PUSH1 0x40 MLOAD DUP1 SWAP2 SUB SWAP1 REVERT JUMPDEST PUSH0 PUSH1 0x1 PUSH2 0x8D2 PUSH2 0x665 JUMP JUMPDEST PUSH32 0x6E71EDAE12B1B97F4D1F60370FEF10105FA2FAAE0126114A169C64845D6126C9 DUP11 DUP11 DUP11 PUSH1 0x5 PUSH0 DUP16 PUSH20 0xFFFFFFFFFFFFFFFFFFFFFFFFFFFFFFFFFFFFFFFF AND PUSH20 0xFFFFFFFFFFFFFFFFFFFFFFFFFFFFFFFFFFFFFFFF AND DUP2 MSTORE PUSH1 0x20 ADD SWAP1 DUP2 MSTORE PUSH1 0x20 ADD PUSH0 KECCAK256 PUSH0 DUP2 SLOAD DUP1 SWAP3 SWAP2 SWAP1 PUSH1 0x1 ADD SWAP2 SWAP1 POP SSTORE DUP12 PUSH1 0x40 MLOAD PUSH1 0x20 ADD PUSH2 0x957 SWAP7 SWAP6 SWAP5 SWAP4 SWAP3 SWAP2 SWAP1 PUSH2 0x1118 JUMP JUMPDEST PUSH1 0x40 MLOAD PUSH1 0x20 DUP2 DUP4 SUB SUB DUP2 MSTORE SWAP1 PUSH1 0x40 MSTORE DUP1 MLOAD SWAP1 PUSH1 0x20 ADD KECCAK256 PUSH1 0x40 MLOAD PUSH1 0x20 ADD PUSH2 0x97E SWAP3 SWAP2 SWAP1 PUSH2 0x11EB JUMP JUMPDEST PUSH1 0x40 MLOAD PUSH1 0x20 DUP2 DUP4 SUB SUB DUP2 MSTORE SWAP1 PUSH1 0x40 MSTORE DUP1 MLOAD SWAP1 PUSH1 0x20 ADD KECCAK256 DUP6 DUP6 DUP6 PUSH1 0x40 MLOAD PUSH0 DUP2 MSTORE PUSH1 0x20 ADD PUSH1 0x40 MSTORE PUSH1 0x40 MLOAD PUSH2 0x9B3 SWAP5 SWAP4 SWAP3 SWAP2 SWAP1 PUSH2 0x1221 JUMP JUMPDEST PUSH1 0x20 PUSH1 0x40 MLOAD PUSH1 0x20 DUP2 SUB SWAP1 DUP1 DUP5 SUB SWAP1 DUP6 GAS STATICCALL ISZERO DUP1 ISZERO PUSH2 0x9D3 JUMPI RETURNDATASIZE PUSH0 PUSH0 RETURNDATACOPY RETURNDATASIZE PUSH0 REVERT JUMPDEST POP POP POP PUSH1 0x20 PUSH1 0x40 MLOAD SUB MLOAD SWAP1 POP PUSH0 PUSH20 0xFFFFFFFFFFFFFFFFFFFFFFFFFFFFFFFFFFFFFFFF AND DUP2 PUSH20 0xFFFFFFFFFFFFFFFFFFFFFFFFFFFFFFFFFFFFFFFF AND EQ ISZERO DUP1 ISZERO PUSH2 0xA46 JUMPI POP DUP8 PUSH20 0xFFFFFFFFFFFFFFFFFFFFFFFFFFFFFFFFFFFFFFFF AND DUP2 PUSH20 0xFFFFFFFFFFFFFFFFFFFFFFFFFFFFFFFFFFFFFFFF AND EQ JUMPDEST PUSH2 0xA85 JUMPI PUSH1 0x40 MLOAD PUSH32 0x8C379A000000000000000000000000000000000000000000000000000000000 DUP2 MSTORE PUSH1 0x4 ADD PUSH2 0xA7C SWAP1 PUSH2 0x12AE JUMP JUMPDEST PUSH1 0x40 MLOAD DUP1 SWAP2 SUB SWAP1 REVERT JUMPDEST DUP6 PUSH1 0x4 PUSH0 DUP4 PUSH20 0xFFFFFFFFFFFFFFFFFFFFFFFFFFFFFFFFFFFFFFFF AND PUSH20 0xFFFFFFFFFFFFFFFFFFFFFFFFFFFFFFFFFFFFFFFF AND DUP2 MSTORE PUSH1 0x20 ADD SWAP1 DUP2 MSTORE PUSH1 0x20 ADD PUSH0 KECCAK256 PUSH0 DUP10 PUSH20 0xFFFFFFFFFFFFFFFFFFFFFFFFFFFFFFFFFFFFFFFF AND PUSH20 0xFFFFFFFFFFFFFFFFFFFFFFFFFFFFFFFFFFFFFFFF AND DUP2 MSTORE PUSH1 0x20 ADD SWAP1 DUP2 MSTORE PUSH1 0x20 ADD PUSH0 KECCAK256 DUP2 SWAP1 SSTORE POP POP DUP6 PUSH20 0xFFFFFFFFFFFFFFFFFFFFFFFFFFFFFFFFFFFFFFFF AND DUP8 PUSH20 0xFFFFFFFFFFFFFFFFFFFFFFFFFFFFFFFFFFFFFFFF AND PUSH32 0x8C5BE1E5EBEC7D5BD14F71427D1E84F3DD0314C0F7B2291E5B200AC8C7C3B925 DUP8 PUSH1 0x40 MLOAD PUSH2 0xB60 SWAP2 SWAP1 PUSH2 0xDBC JUMP JUMPDEST PUSH1 0x40 MLOAD DUP1 SWAP2 SUB SWAP1 LOG3 POP POP POP POP POP POP POP JUMP JUMPDEST PUSH1 0x4 PUSH1 0x20 MSTORE DUP2 PUSH0 MSTORE PUSH1 0x40 PUSH0 KECCAK256 PUSH1 0x20 MSTORE DUP1 PUSH0 MSTORE PUSH1 0x40 PUSH0 KECCAK256 PUSH0 SWAP2 POP SWAP2 POP POP SLOAD DUP2 JUMP JUMPDEST PUSH0 PUSH32 0x8B73C3C69BB8FE3D512ECC4CF759CC79239F7B179B0FFACAA9A75D522B39400F PUSH0 PUSH1 0x40 MLOAD PUSH2 0xBC1 SWAP2 SWAP1 PUSH2 0x1368 JUMP JUMPDEST PUSH1 0x40 MLOAD DUP1 SWAP2 SUB SWAP1 KECCAK256 PUSH32 0xC89EFDAA54C0F20C7ADF612882DF0950F5A951637E0307CDCB4C672F298B8BC6 CHAINID ADDRESS PUSH1 0x40 MLOAD PUSH1 0x20 ADD PUSH2 0xC00 SWAP6 SWAP5 SWAP4 SWAP3 SWAP2 SWAP1 PUSH2 0x137E JUMP JUMPDEST PUSH1 0x40 MLOAD PUSH1 0x20 DUP2 DUP4 SUB SUB DUP2 MSTORE SWAP1 PUSH1 0x40 MSTORE DUP1 MLOAD SWAP1 PUSH1 0x20 ADD KECCAK256 SWAP1 POP SWAP1 JUMP JUMPDEST PUSH0 DUP2 MLOAD SWAP1 POP SWAP2 SWAP1 POP JUMP JUMPDEST PUSH0 DUP3 DUP3 MSTORE PUSH1 0x20 DUP3 ADD SWAP1 POP SWAP3 SWAP2 POP POP JUMP JUMPDEST DUP3 DUP2 DUP4 MCOPY PUSH0 DUP4 DUP4 ADD MSTORE POP POP POP JUMP JUMPDEST PUSH0 PUSH1 0x1F NOT PUSH1 0x1F DUP4 ADD AND SWAP1 POP SWAP2 SWAP1 POP JUMP JUMPDEST PUSH0 PUSH2 0xC5D DUP3 PUSH2 0xC1B JUMP JUMPDEST PUSH2 0xC67 DUP2 DUP6 PUSH2 0xC25 JUMP JUMPDEST SWAP4 POP PUSH2 0xC77 DUP2 DUP6 PUSH1 0x20 DUP7 ADD PUSH2 0xC35 JUMP JUMPDEST PUSH2 0xC80 DUP2 PUSH2 0xC43 JUMP JUMPDEST DUP5 ADD SWAP2 POP POP SWAP3 SWAP2 POP POP JUMP JUMPDEST PUSH0 PUSH1 0x20 DUP3 ADD SWAP1 POP DUP2 DUP2 SUB PUSH0 DUP4 ADD MSTORE PUSH2 0xCA3 DUP2 DUP5 PUSH2 0xC53 JUMP JUMPDEST SWAP1 POP SWAP3 SWAP2 POP POP JUMP JUMPDEST PUSH0 PUSH0 REVERT JUMPDEST PUSH0 PUSH20 0xFFFFFFFFFFFFFFFFFFFFFFFFFFFFFFFFFFFFFFFF DUP3 AND SWAP1 POP SWAP2 SWAP1 POP JUMP JUMPDEST PUSH0 PUSH2 0xCD8 DUP3 PUSH2 0xCAF JUMP JUMPDEST SWAP1 POP SWAP2 SWAP1 POP JUMP JUMPDEST PUSH2 0xCE8 DUP2 PUSH2 0xCCE JUMP JUMPDEST DUP2 EQ PUSH2 0xCF2 JUMPI PUSH0 PUSH0 REVERT JUMPDEST POP JUMP JUMPDEST PUSH0 DUP2 CALLDATALOAD SWAP1 POP PUSH2 0xD03 DUP2 PUSH2 0xCDF JUMP JUMPDEST SWAP3 SWAP2 POP POP JUMP JUMPDEST PUSH0 DUP2 SWAP1 POP SWAP2 SWAP1 POP JUMP JUMPDEST PUSH2 0xD1B DUP2 PUSH2 0xD09 JUMP JUMPDEST DUP2 EQ PUSH2 0xD25 JUMPI PUSH0 PUSH0 REVERT JUMPDEST POP JUMP JUMPDEST PUSH0 DUP2 CALLDATALOAD SWAP1 POP PUSH2 0xD36 DUP2 PUSH2 0xD12 JUMP JUMPDEST SWAP3 SWAP2 POP POP JUMP JUMPDEST PUSH0 PUSH0 PUSH1 0x40 DUP4 DUP6 SUB SLT ISZERO PUSH2 0xD52 JUMPI PUSH2 0xD51 PUSH2 0xCAB JUMP JUMPDEST JUMPDEST PUSH0 PUSH2 0xD5F DUP6 DUP3 DUP7 ADD PUSH2 0xCF5 JUMP JUMPDEST SWAP3 POP POP PUSH1 0x20 PUSH2 0xD70 DUP6 DUP3 DUP7 ADD PUSH2 0xD28 JUMP JUMPDEST SWAP2 POP POP SWAP3 POP SWAP3 SWAP1 POP JUMP JUMPDEST PUSH0 DUP2 ISZERO ISZERO SWAP1 POP SWAP2 SWAP1 POP JUMP JUMPDEST PUSH2 0xD8E DUP2 PUSH2 0xD7A JUMP JUMPDEST DUP3 MSTORE POP POP JUMP JUMPDEST PUSH0 PUSH1 0x20 DUP3 ADD SWAP1 POP PUSH2 0xDA7 PUSH0 DUP4 ADD DUP5 PUSH2 0xD85 JUMP JUMPDEST SWAP3 SWAP2 POP POP JUMP JUMPDEST PUSH2 0xDB6 DUP2 PUSH2 0xD09 JUMP JUMPDEST DUP3 MSTORE POP POP JUMP JUMPDEST PUSH0 PUSH1 0x20 DUP3 ADD SWAP1 POP PUSH2 0xDCF PUSH0 DUP4 ADD DUP5 PUSH2 0xDAD JUMP JUMPDEST SWAP3 SWAP2 POP POP JUMP JUMPDEST PUSH0 PUSH0 PUSH0 PUSH1 0x60 DUP5 DUP7 SUB SLT ISZERO PUSH2 0xDEC JUMPI PUSH2 0xDEB PUSH2 0xCAB JUMP JUMPDEST JUMPDEST PUSH0 PUSH2 0xDF9 DUP7 DUP3 DUP8 ADD PUSH2 0xCF5 JUMP JUMPDEST SWAP4 POP POP PUSH1 0x20 PUSH2 0xE0A DUP7 DUP3 DUP8 ADD PUSH2 0xCF5 JUMP JUMPDEST SWAP3 POP POP PUSH1 0x40 PUSH2 0xE1B DUP7 DUP3 DUP8 ADD PUSH2 0xD28 JUMP JUMPDEST SWAP2 POP POP SWAP3 POP SWAP3 POP SWAP3 JUMP JUMPDEST PUSH0 PUSH1 0xFF DUP3 AND SWAP1 POP SWAP2 SWAP1 POP JUMP JUMPDEST PUSH2 0xE3A DUP2 PUSH2 0xE25 JUMP JUMPDEST DUP3 MSTORE POP POP JUMP JUMPDEST PUSH0 PUSH1 0x20 DUP3 ADD SWAP1 POP PUSH2 0xE53 PUSH0 DUP4 ADD DUP5 PUSH2 0xE31 JUMP JUMPDEST SWAP3 SWAP2 POP POP JUMP JUMPDEST PUSH0 DUP2 SWAP1 POP SWAP2 SWAP1 POP JUMP JUMPDEST PUSH2 0xE6B DUP2 PUSH2 0xE59 JUMP JUMPDEST DUP3 MSTORE POP POP JUMP JUMPDEST PUSH0 PUSH1 0x20 DUP3 ADD SWAP1 POP PUSH2 0xE84 PUSH0 DUP4 ADD DUP5 PUSH2 0xE62 JUMP JUMPDEST SWAP3 SWAP2 POP POP JUMP JUMPDEST PUSH0 PUSH1 0x20 DUP3 DUP5 SUB SLT ISZERO PUSH2 0xE9F JUMPI PUSH2 0xE9E PUSH2 0xCAB JUMP JUMPDEST JUMPDEST PUSH0 PUSH2 0xEAC DUP5 DUP3 DUP6 ADD PUSH2 0xCF5 JUMP JUMPDEST SWAP2 POP POP SWAP3 SWAP2 POP POP JUMP JUMPDEST PUSH2 0xEBE DUP2 PUSH2 0xE25 JUMP JUMPDEST DUP2 EQ PUSH2 0xEC8 JUMPI PUSH0 PUSH0 REVERT JUMPDEST POP JUMP JUMPDEST PUSH0 DUP2 CALLDATALOAD SWAP1 POP PUSH2 0xED9 DUP2 PUSH2 0xEB5 JUMP JUMPDEST SWAP3 SWAP2 POP POP JUMP JUMPDEST PUSH2 0xEE8 DUP2 PUSH2 0xE59 JUMP JUMPDEST DUP2 EQ PUSH2 0xEF2 JUMPI PUSH0 PUSH0 REVERT JUMPDEST POP JUMP JUMPDEST PUSH0 DUP2 CALLDATALOAD SWAP1 POP PUSH2 0xF03 DUP2 PUSH2 0xEDF JUMP JUMPDEST SWAP3 SWAP2 POP POP JUMP JUMPDEST PUSH0 PUSH0 PUSH0 PUSH0 PUSH0 PUSH0 PUSH0 PUSH1 0xE0 DUP9 DUP11 SUB SLT ISZERO PUSH2 0xF24 JUMPI PUSH2 0xF23 PUSH2 0xCAB JUMP JUMPDEST JUMPDEST PUSH0 PUSH2 0xF31 DUP11 DUP3 DUP12 ADD PUSH2 0xCF5 JUMP JUMPDEST SWAP8 POP POP PUSH1 0x20 PUSH2 0xF42 DUP11 DUP3 DUP12 ADD PUSH2 0xCF5 JUMP JUMPDEST SWAP7 POP POP PUSH1 0x40 PUSH2 0xF53 DUP11 DUP3 DUP12 ADD PUSH2 0xD28 JUMP JUMPDEST SWAP6 POP POP PUSH1 0x60 PUSH2 0xF64 DUP11 DUP3 DUP12 ADD PUSH2 0xD28 JUMP JUMPDEST SWAP5 POP POP PUSH1 0x80 PUSH2 0xF75 DUP11 DUP3 DUP12 ADD PUSH2 0xECB JUMP JUMPDEST SWAP4 POP POP PUSH1 0xA0 PUSH2 0xF86 DUP11 DUP3 DUP12 ADD PUSH2 0xEF5 JUMP JUMPDEST SWAP3 POP POP PUSH1 0xC0 PUSH2 0xF97 DUP11 DUP3 DUP12 ADD PUSH2 0xEF5 JUMP JUMPDEST SWAP2 POP POP SWAP3 SWAP6 SWAP9 SWAP2 SWAP5 SWAP8 POP SWAP3 SWAP6 POP JUMP JUMPDEST PUSH0 PUSH0 PUSH1 0x40 DUP4 DUP6 SUB SLT ISZERO PUSH2 0xFBC JUMPI PUSH2 0xFBB PUSH2 0xCAB JUMP JUMPDEST JUMPDEST PUSH0 PUSH2 0xFC9 DUP6 DUP3 DUP7 ADD PUSH2 0xCF5 JUMP JUMPDEST SWAP3 POP POP PUSH1 0x20 PUSH2 0xFDA DUP6 DUP3 DUP7 ADD PUSH2 0xCF5 JUMP JUMPDEST SWAP2 POP POP SWAP3 POP SWAP3 SWAP1 POP JUMP JUMPDEST PUSH32 0x4E487B7100000000000000000000000000000000000000000000000000000000 PUSH0 MSTORE PUSH1 0x22 PUSH1 0x4 MSTORE PUSH1 0x24 PUSH0 REVERT JUMPDEST PUSH0 PUSH1 0x2 DUP3 DIV SWAP1 POP PUSH1 0x1 DUP3 AND DUP1 PUSH2 0x1028 JUMPI PUSH1 0x7F DUP3 AND SWAP2 POP JUMPDEST PUSH1 0x20 DUP3 LT DUP2 SUB PUSH2 0x103B JUMPI PUSH2 0x103A PUSH2 0xFE4 JUMP JUMPDEST JUMPDEST POP SWAP2 SWAP1 POP JUMP JUMPDEST PUSH32 0x4E487B7100000000000000000000000000000000000000000000000000000000 PUSH0 MSTORE PUSH1 0x11 PUSH1 0x4 MSTORE PUSH1 0x24 PUSH0 REVERT JUMPDEST PUSH0 PUSH2 0x1078 DUP3 PUSH2 0xD09 JUMP JUMPDEST SWAP2 POP PUSH2 0x1083 DUP4 PUSH2 0xD09 JUMP JUMPDEST SWAP3 POP DUP3 DUP3 SUB SWAP1 POP DUP2 DUP2 GT ISZERO PUSH2 0x109B JUMPI PUSH2 0x109A PUSH2 0x1041 JUMP JUMPDEST JUMPDEST SWAP3 SWAP2 POP POP JUMP JUMPDEST PUSH32 0x5045524D49545F444541444C494E455F45585049524544000000000000000000 PUSH0 DUP3 ADD MSTORE POP JUMP JUMPDEST PUSH0 PUSH2 0x10D5 PUSH1 0x17 DUP4 PUSH2 0xC25 JUMP JUMPDEST SWAP2 POP PUSH2 0x10E0 DUP3 PUSH2 0x10A1 JUMP JUMPDEST PUSH1 0x20 DUP3 ADD SWAP1 POP SWAP2 SWAP1 POP JUMP JUMPDEST PUSH0 PUSH1 0x20 DUP3 ADD SWAP1 POP DUP2 DUP2 SUB PUSH0 DUP4 ADD MSTORE PUSH2 0x1102 DUP2 PUSH2 0x10C9 JUMP JUMPDEST SWAP1 POP SWAP2 SWAP1 POP JUMP JUMPDEST PUSH2 0x1112 DUP2 PUSH2 0xCCE JUMP JUMPDEST DUP3 MSTORE POP POP JUMP JUMPDEST PUSH0 PUSH1 0xC0 DUP3 ADD SWAP1 POP PUSH2 0x112B PUSH0 DUP4 ADD DUP10 PUSH2 0xE62 JUMP JUMPDEST PUSH2 0x1138 PUSH1 0x20 DUP4 ADD DUP9 PUSH2 0x1109 JUMP JUMPDEST PUSH2 0x1145 PUSH1 0x40 DUP4 ADD DUP8 PUSH2 0x1109 JUMP JUMPDEST PUSH2 0x1152 PUSH1 0x60 DUP4 ADD DUP7 PUSH2 0xDAD JUMP JUMPDEST PUSH2 0x115F PUSH1 0x80 DUP4 ADD DUP6 PUSH2 0xDAD JUMP JUMPDEST PUSH2 0x116C PUSH1 0xA0 DUP4 ADD DUP5 PUSH2 0xDAD JUMP JUMPDEST SWAP8 SWAP7 POP POP POP POP POP POP POP JUMP JUMPDEST PUSH0 DUP2 SWAP1 POP SWAP3 SWAP2 POP POP JUMP JUMPDEST PUSH32 0x1901000000000000000000000000000000000000000000000000000000000000 PUSH0 DUP3 ADD MSTORE POP JUMP JUMPDEST PUSH0 PUSH2 0x11B5 PUSH1 0x2 DUP4 PUSH2 0x1177 JUMP JUMPDEST SWAP2 POP PUSH2 0x11C0 DUP3 PUSH2 0x1181 JUMP JUMPDEST PUSH1 0x2 DUP3 ADD SWAP1 POP SWAP2 SWAP1 POP JUMP JUMPDEST PUSH0 DUP2 SWAP1 POP SWAP2 SWAP1 POP JUMP JUMPDEST PUSH2 0x11E5 PUSH2 0x11E0 DUP3 PUSH2 0xE59 JUMP JUMPDEST PUSH2 0x11CB JUMP JUMPDEST DUP3 MSTORE POP POP JUMP JUMPDEST PUSH0 PUSH2 0x11F5 DUP3 PUSH2 0x11A9 JUMP JUMPDEST SWAP2 POP PUSH2 0x1201 DUP3 DUP6 PUSH2 0x11D4 JUMP JUMPDEST PUSH1 0x20 DUP3 ADD SWAP2 POP PUSH2 0x1211 DUP3 DUP5 PUSH2 0x11D4 JUMP JUMPDEST PUSH1 0x20 DUP3 ADD SWAP2 POP DUP2 SWAP1 POP SWAP4 SWAP3 POP POP POP JUMP JUMPDEST PUSH0 PUSH1 0x80 DUP3 ADD SWAP1 POP PUSH2 0x1234 PUSH0 DUP4 ADD DUP8 PUSH2 0xE62 JUMP JUMPDEST PUSH2 0x1241 PUSH1 0x20 DUP4 ADD DUP7 PUSH2 0xE31 JUMP JUMPDEST PUSH2 0x124E PUSH1 0x40 DUP4 ADD DUP6 PUSH2 0xE62 JUMP JUMPDEST PUSH2 0x125B PUSH1 0x60 DUP4 ADD DUP5 PUSH2 0xE62 JUMP JUMPDEST SWAP6 SWAP5 POP POP POP POP POP JUMP JUMPDEST PUSH32 0x494E56414C49445F5349474E4552000000000000000000000000000000000000 PUSH0 DUP3 ADD MSTORE POP JUMP JUMPDEST PUSH0 PUSH2 0x1298 PUSH1 0xE DUP4 PUSH2 0xC25 JUMP JUMPDEST SWAP2 POP PUSH2 0x12A3 DUP3 PUSH2 0x1264 JUMP JUMPDEST PUSH1 0x20 DUP3 ADD SWAP1 POP SWAP2 SWAP1 POP JUMP JUMPDEST PUSH0 PUSH1 0x20 DUP3 ADD SWAP1 POP DUP2 DUP2 SUB PUSH0 DUP4 ADD MSTORE PUSH2 0x12C5 DUP2 PUSH2 0x128C JUMP JUMPDEST SWAP1 POP SWAP2 SWAP1 POP JUMP JUMPDEST PUSH0 DUP2 SWAP1 POP SWAP3 SWAP2 POP POP JUMP JUMPDEST PUSH0 DUP2 SWAP1 POP DUP2 PUSH0 MSTORE PUSH1 0x20 PUSH0 KECCAK256 SWAP1 POP SWAP2 SWAP1 POP JUMP JUMPDEST PUSH0 DUP2 SLOAD PUSH2 0x12F4 DUP2 PUSH2 0x1011 JUMP JUMPDEST PUSH2 0x12FE DUP2 DUP7 PUSH2 0x12CC JUMP JUMPDEST SWAP5 POP PUSH1 0x1 DUP3 AND PUSH0 DUP2 EQ PUSH2 0x1318 JUMPI PUSH1 0x1 DUP2 EQ PUSH2 0x132D JUMPI PUSH2 0x135F JUMP JUMPDEST PUSH1 0xFF NOT DUP4 AND DUP7 MSTORE DUP2 ISZERO ISZERO DUP3 MUL DUP7 ADD SWAP4 POP PUSH2 0x135F JUMP JUMPDEST PUSH2 0x1336 DUP6 PUSH2 0x12D6 JUMP JUMPDEST PUSH0 JUMPDEST DUP4 DUP2 LT ISZERO PUSH2 0x1357 JUMPI DUP2 SLOAD DUP2 DUP10 ADD MSTORE PUSH1 0x1 DUP3 ADD SWAP2 POP PUSH1 0x20 DUP2 ADD SWAP1 POP PUSH2 0x1338 JUMP JUMPDEST DUP4 DUP9 ADD SWAP6 POP POP POP JUMPDEST POP POP POP SWAP3 SWAP2 POP POP JUMP JUMPDEST PUSH0 PUSH2 0x1373 DUP3 DUP5 PUSH2 0x12E8 JUMP JUMPDEST SWAP2 POP DUP2 SWAP1 POP SWAP3 SWAP2 POP POP JUMP JUMPDEST PUSH0 PUSH1 0xA0 DUP3 ADD SWAP1 POP PUSH2 0x1391 PUSH0 DUP4 ADD DUP9 PUSH2 0xE62 JUMP JUMPDEST PUSH2 0x139E PUSH1 0x20 DUP4 ADD DUP8 PUSH2 0xE62 JUMP JUMPDEST PUSH2 0x13AB PUSH1 0x40 DUP4 ADD DUP7 PUSH2 0xE62 JUMP JUMPDEST PUSH2 0x13B8 PUSH1 0x60 DUP4 ADD DUP6 PUSH2 0xDAD JUMP JUMPDEST PUSH2 0x13C5 PUSH1 0x80 DUP4 ADD DUP5 PUSH2 0x1109 JUMP JUMPDEST SWAP7 SWAP6 POP POP POP POP POP POP JUMP INVALID LOG2 PUSH5 0x6970667358 0x22 SLT KECCAK256 PUSH18 0x390A5AB70A7087CAF8ACC6EA936207537A0C MULMOD MSTORE CALLDATACOPY XOR JUMPI CODESIZE DUP7 LOG4 MSTORE8 0xB0 0xC8 TSTORE 0x2F PUSH5 0x736F6C6343 STOP ADDMOD SHR STOP CALLER "
				},
				"gasEstimates": {
					"creation": {
						"codeDepositCost": "1025000",
						"executionCost": "infinite",
						"totalCost": "infinite"
					},
					"external": {
						"DOMAIN_SEPARATOR()": "infinite",
						"allowance(address,address)": "infinite",
						"approve(address,uint256)": "infinite",
						"balanceOf(address)": "2802",
						"decimals()": "infinite",
						"name()": "infinite",
						"nonces(address)": "2824",
						"permit(address,address,uint256,uint256,uint8,bytes32,bytes32)": "infinite",
						"symbol()": "infinite",
						"totalSupply()": "2470",
						"transfer(address,uint256)": "infinite",
						"transferFrom(address,address,uint256)": "infinite"
					}
				},
				"methodIdentifiers": {
					"DOMAIN_SEPARATOR()": "3644e515",
					"allowance(address,address)": "dd62ed3e",
					"approve(address,uint256)": "095ea7b3",
					"balanceOf(address)": "70a08231",
					"decimals()": "313ce567",
					"name()": "06fdde03",
					"nonces(address)": "7ecebe00",
					"permit(address,address,uint256,uint256,uint8,bytes32,bytes32)": "d505accf",
					"symbol()": "95d89b41",
					"totalSupply()": "18160ddd",
					"transfer(address,uint256)": "a9059cbb",
					"transferFrom(address,address,uint256)": "23b872dd"
				}
			},
			"storageLayout": {
				"storage": [
					{
						"astId": 20,
						"contract": "src/guano.sol:Guano",
						"label": "name",
						"offset": 0,
						"slot": "0",
						"type": "t_string_storage"
					},
					{
						"astId": 22,
						"contract": "src/guano.sol:Guano",
						"label": "symbol",
						"offset": 0,
						"slot": "1",
						"type": "t_string_storage"
					},
					{
						"astId": 26,
						"contract": "src/guano.sol:Guano",
						"label": "totalSupply",
						"offset": 0,
						"slot": "2",
						"type": "t_uint256"
					},
					{
						"astId": 30,
						"contract": "src/guano.sol:Guano",
						"label": "balanceOf",
						"offset": 0,
						"slot": "3",
						"type": "t_mapping(t_address,t_uint256)"
					},
					{
						"astId": 36,
						"contract": "src/guano.sol:Guano",
						"label": "allowance",
						"offset": 0,
						"slot": "4",
						"type": "t_mapping(t_address,t_mapping(t_address,t_uint256))"
					},
					{
						"astId": 44,
						"contract": "src/guano.sol:Guano",
						"label": "nonces",
						"offset": 0,
						"slot": "5",
						"type": "t_mapping(t_address,t_uint256)"
					}
				],
				"types": {
					"t_address": {
						"encoding": "inplace",
						"label": "address",
						"numberOfBytes": "20"
					},
					"t_mapping(t_address,t_mapping(t_address,t_uint256))": {
						"encoding": "mapping",
						"key": "t_address",
						"label": "mapping(address => mapping(address => uint256))",
						"numberOfBytes": "32",
						"value": "t_mapping(t_address,t_uint256)"
					},
					"t_mapping(t_address,t_uint256)": {
						"encoding": "mapping",
						"key": "t_address",
						"label": "mapping(address => uint256)",
						"numberOfBytes": "32",
						"value": "t_uint256"
					},
					"t_string_storage": {
						"encoding": "bytes",
						"label": "string",
						"numberOfBytes": "32"
					},
					"t_uint256": {
						"encoding": "inplace",
						"label": "uint256",
						"numberOfBytes": "32"
					}
				}
			},
			"userdoc": {
				"kind": "user",
				"methods": {},
				"version": 1
			}
		}
	}
}