{
	"src/AquitardLPCore.0.0.1.sol": {
		"AquitardLPCore": {
			"abi": [
				{
					"inputs": [
						{
							"internalType": "contract ERC20",
							"name": "asset",
							"type": "address"
						},
						{
							"internalType": "uint128",
							"name": "nativePurchasableRate_",
							"type": "uint128"
						},
						{
							"internalType": "uint128",
							"name": "erc20Inhibitor_",
							"type": "uint128"
						},
						{
							"internalType": "uint128",
							"name": "erc20PurchasableRate_",
							"type": "uint128"
						},
						{
							"internalType": "uint128",
							"name": "nativeInhibitor_",
							"type": "uint128"
						}
					],
					"stateMutability": "nonpayable",
					"type": "constructor"
				},
				{
					"inputs": [],
					"name": "AllowanceOverflow",
					"type": "error"
				},
				{
					"inputs": [],
					"name": "AllowanceUnderflow",
					"type": "error"
				},
				{
					"inputs": [],
					"name": "InsufficientAllowance",
					"type": "error"
				},
				{
					"inputs": [],
					"name": "InsufficientBalance",
					"type": "error"
				},
				{
					"inputs": [],
					"name": "InvalidPermit",
					"type": "error"
				},
				{
					"inputs": [],
					"name": "Permit2AllowanceIsFixedAtInfinity",
					"type": "error"
				},
				{
					"inputs": [],
					"name": "PermitExpired",
					"type": "error"
				},
				{
					"inputs": [],
					"name": "TotalSupplyOverflow",
					"type": "error"
				},
				{
					"anonymous": false,
					"inputs": [
						{
							"indexed": true,
							"internalType": "address",
							"name": "owner",
							"type": "address"
						},
						{
							"indexed": true,
							"internalType": "address",
							"name": "spender",
							"type": "address"
						},
						{
							"indexed": false,
							"internalType": "uint256",
							"name": "amount",
							"type": "uint256"
						}
					],
					"name": "Approval",
					"type": "event"
				},
				{
					"anonymous": false,
					"inputs": [
						{
							"indexed": true,
							"internalType": "address",
							"name": "sender",
							"type": "address"
						},
						{
							"indexed": true,
							"internalType": "address",
							"name": "owner",
							"type": "address"
						},
						{
							"indexed": false,
							"internalType": "uint256",
							"name": "assets",
							"type": "uint256"
						},
						{
							"indexed": false,
							"internalType": "uint256",
							"name": "shares",
							"type": "uint256"
						}
					],
					"name": "Deposit",
					"type": "event"
				},
				{
					"anonymous": false,
					"inputs": [
						{
							"indexed": true,
							"internalType": "address",
							"name": "from",
							"type": "address"
						},
						{
							"indexed": true,
							"internalType": "address",
							"name": "to",
							"type": "address"
						},
						{
							"indexed": false,
							"internalType": "uint256",
							"name": "amount",
							"type": "uint256"
						}
					],
					"name": "Transfer",
					"type": "event"
				},
				{
					"anonymous": false,
					"inputs": [
						{
							"indexed": true,
							"internalType": "address",
							"name": "sender",
							"type": "address"
						},
						{
							"indexed": true,
							"internalType": "address",
							"name": "receiver",
							"type": "address"
						},
						{
							"indexed": true,
							"internalType": "address",
							"name": "owner",
							"type": "address"
						},
						{
							"indexed": false,
							"internalType": "uint256",
							"name": "assets",
							"type": "uint256"
						},
						{
							"indexed": false,
							"internalType": "uint256",
							"name": "shares",
							"type": "uint256"
						}
					],
					"name": "Withdraw",
					"type": "event"
				},
				{
					"inputs": [],
					"name": "DOMAIN_SEPARATOR",
					"outputs": [
						{
							"internalType": "bytes32",
							"name": "result",
							"type": "bytes32"
						}
					],
					"stateMutability": "view",
					"type": "function"
				},
				{
					"inputs": [
						{
							"internalType": "address",
							"name": "owner",
							"type": "address"
						},
						{
							"internalType": "address",
							"name": "spender",
							"type": "address"
						}
					],
					"name": "allowance",
					"outputs": [
						{
							"internalType": "uint256",
							"name": "result",
							"type": "uint256"
						}
					],
					"stateMutability": "view",
					"type": "function"
				},
				{
					"inputs": [
						{
							"internalType": "address",
							"name": "spender",
							"type": "address"
						},
						{
							"internalType": "uint256",
							"name": "amount",
							"type": "uint256"
						}
					],
					"name": "approve",
					"outputs": [
						{
							"internalType": "bool",
							"name": "",
							"type": "bool"
						}
					],
					"stateMutability": "nonpayable",
					"type": "function"
				},
				{
					"inputs": [],
					"name": "asset",
					"outputs": [
						{
							"internalType": "contract ERC20",
							"name": "",
							"type": "address"
						}
					],
					"stateMutability": "view",
					"type": "function"
				},
				{
					"inputs": [
						{
							"internalType": "address",
							"name": "owner",
							"type": "address"
						}
					],
					"name": "balanceOf",
					"outputs": [
						{
							"internalType": "uint256",
							"name": "result",
							"type": "uint256"
						}
					],
					"stateMutability": "view",
					"type": "function"
				},
				{
					"inputs": [
						{
							"internalType": "uint256",
							"name": "shares",
							"type": "uint256"
						}
					],
					"name": "convertToAssets",
					"outputs": [
						{
							"internalType": "uint256",
							"name": "",
							"type": "uint256"
						}
					],
					"stateMutability": "view",
					"type": "function"
				},
				{
					"inputs": [
						{
							"internalType": "uint256",
							"name": "assets",
							"type": "uint256"
						}
					],
					"name": "convertToShares",
					"outputs": [
						{
							"internalType": "uint256",
							"name": "",
							"type": "uint256"
						}
					],
					"stateMutability": "view",
					"type": "function"
				},
				{
					"inputs": [],
					"name": "decimals",
					"outputs": [
						{
							"internalType": "uint8",
							"name": "",
							"type": "uint8"
						}
					],
					"stateMutability": "view",
					"type": "function"
				},
				{
					"inputs": [
						{
							"internalType": "uint256",
							"name": "assets",
							"type": "uint256"
						},
						{
							"internalType": "address",
							"name": "receiver",
							"type": "address"
						}
					],
					"name": "deposit",
					"outputs": [
						{
							"internalType": "uint256",
							"name": "shares",
							"type": "uint256"
						}
					],
					"stateMutability": "payable",
					"type": "function"
				},
				{
					"inputs": [
						{
							"internalType": "address",
							"name": "receiver",
							"type": "address"
						}
					],
					"name": "deposit",
					"outputs": [
						{
							"internalType": "uint256",
							"name": "shares",
							"type": "uint256"
						}
					],
					"stateMutability": "payable",
					"type": "function"
				},
				{
					"inputs": [],
					"name": "erc20Inhibitor",
					"outputs": [
						{
							"internalType": "uint128",
							"name": "",
							"type": "uint128"
						}
					],
					"stateMutability": "view",
					"type": "function"
				},
				{
					"inputs": [],
					"name": "erc20PurchasableRate",
					"outputs": [
						{
							"internalType": "uint128",
							"name": "",
							"type": "uint128"
						}
					],
					"stateMutability": "view",
					"type": "function"
				},
				{
					"inputs": [],
					"name": "erc20PurchasableTime",
					"outputs": [
						{
							"internalType": "uint256",
							"name": "",
							"type": "uint256"
						}
					],
					"stateMutability": "view",
					"type": "function"
				},
				{
					"inputs": [
						{
							"internalType": "contract SwapAbstract",
							"name": "sa",
							"type": "address"
						},
						{
							"internalType": "uint256",
							"name": "erc20s",
							"type": "uint256"
						},
						{
							"internalType": "address",
							"name": "receiver",
							"type": "address"
						}
					],
					"name": "erc20ToNativeSwap",
					"outputs": [
						{
							"internalType": "uint256",
							"name": "earned",
							"type": "uint256"
						}
					],
					"stateMutability": "nonpayable",
					"type": "function"
				},
				{
					"inputs": [
						{
							"internalType": "uint256",
							"name": "erc20sSold",
							"type": "uint256"
						},
						{
							"internalType": "address",
							"name": "recipient",
							"type": "address"
						}
					],
					"name": "erc20ToNativeSwap",
					"outputs": [
						{
							"internalType": "uint256",
							"name": "nativesBought",
							"type": "uint256"
						}
					],
					"stateMutability": "nonpayable",
					"type": "function"
				},
				{
					"inputs": [
						{
							"internalType": "uint256",
							"name": "erc20sSold",
							"type": "uint256"
						}
					],
					"name": "erc20ToNativeSwap",
					"outputs": [
						{
							"internalType": "uint256",
							"name": "nativesBought",
							"type": "uint256"
						}
					],
					"stateMutability": "nonpayable",
					"type": "function"
				},
				{
					"inputs": [
						{
							"internalType": "uint256",
							"name": "erc20sSold",
							"type": "uint256"
						},
						{
							"components": [
								{
									"internalType": "uint256",
									"name": "deadline",
									"type": "uint256"
								},
								{
									"internalType": "uint8",
									"name": "v",
									"type": "uint8"
								},
								{
									"internalType": "bytes32",
									"name": "r",
									"type": "bytes32"
								},
								{
									"internalType": "bytes32",
									"name": "s",
									"type": "bytes32"
								}
							],
							"internalType": "struct Permit2Sig",
							"name": "sig",
							"type": "tuple"
						}
					],
					"name": "erc20ToNativeSwap",
					"outputs": [
						{
							"internalType": "uint256",
							"name": "nativesBought",
							"type": "uint256"
						}
					],
					"stateMutability": "nonpayable",
					"type": "function"
				},
				{
					"inputs": [
						{
							"internalType": "uint256",
							"name": "erc20sSold",
							"type": "uint256"
						},
						{
							"internalType": "address",
							"name": "recipient",
							"type": "address"
						},
						{
							"components": [
								{
									"internalType": "uint256",
									"name": "deadline",
									"type": "uint256"
								},
								{
									"internalType": "uint8",
									"name": "v",
									"type": "uint8"
								},
								{
									"internalType": "bytes32",
									"name": "r",
									"type": "bytes32"
								},
								{
									"internalType": "bytes32",
									"name": "s",
									"type": "bytes32"
								}
							],
							"internalType": "struct Permit2Sig",
							"name": "sig",
							"type": "tuple"
						}
					],
					"name": "erc20ToNativeSwap",
					"outputs": [
						{
							"internalType": "uint256",
							"name": "nativesBought",
							"type": "uint256"
						}
					],
					"stateMutability": "nonpayable",
					"type": "function"
				},
				{
					"inputs": [
						{
							"internalType": "uint256",
							"name": "erc20sSold",
							"type": "uint256"
						}
					],
					"name": "getERC20ToNativePrice",
					"outputs": [
						{
							"internalType": "uint256",
							"name": "nativesBought",
							"type": "uint256"
						}
					],
					"stateMutability": "view",
					"type": "function"
				},
				{
					"inputs": [
						{
							"internalType": "uint256",
							"name": "nativesSold",
							"type": "uint256"
						}
					],
					"name": "getNativeToERC20Price",
					"outputs": [
						{
							"internalType": "uint256",
							"name": "erc20sBought",
							"type": "uint256"
						}
					],
					"stateMutability": "view",
					"type": "function"
				},
				{
					"inputs": [],
					"name": "name",
					"outputs": [
						{
							"internalType": "string",
							"name": "",
							"type": "string"
						}
					],
					"stateMutability": "pure",
					"type": "function"
				},
				{
					"inputs": [],
					"name": "nativeInhibitor",
					"outputs": [
						{
							"internalType": "uint128",
							"name": "",
							"type": "uint128"
						}
					],
					"stateMutability": "view",
					"type": "function"
				},
				{
					"inputs": [],
					"name": "nativePurchasableRate",
					"outputs": [
						{
							"internalType": "uint128",
							"name": "",
							"type": "uint128"
						}
					],
					"stateMutability": "view",
					"type": "function"
				},
				{
					"inputs": [],
					"name": "nativePurchasableTime",
					"outputs": [
						{
							"internalType": "uint256",
							"name": "",
							"type": "uint256"
						}
					],
					"stateMutability": "view",
					"type": "function"
				},
				{
					"inputs": [
						{
							"internalType": "contract SwapAbstract",
							"name": "sa",
							"type": "address"
						},
						{
							"internalType": "uint256",
							"name": "natives",
							"type": "uint256"
						},
						{
							"internalType": "address",
							"name": "receiver",
							"type": "address"
						}
					],
					"name": "nativeToERC20Swap",
					"outputs": [
						{
							"internalType": "uint256",
							"name": "earned",
							"type": "uint256"
						}
					],
					"stateMutability": "nonpayable",
					"type": "function"
				},
				{
					"inputs": [],
					"name": "nativeToERC20Swap",
					"outputs": [
						{
							"internalType": "uint256",
							"name": "erc20sBought",
							"type": "uint256"
						}
					],
					"stateMutability": "payable",
					"type": "function"
				},
				{
					"inputs": [
						{
							"internalType": "address",
							"name": "recipient",
							"type": "address"
						}
					],
					"name": "nativeToERC20Swap",
					"outputs": [
						{
							"internalType": "uint256",
							"name": "erc20sBought",
							"type": "uint256"
						}
					],
					"stateMutability": "payable",
					"type": "function"
				},
				{
					"inputs": [
						{
							"internalType": "uint256",
							"name": "assets",
							"type": "uint256"
						},
						{
							"internalType": "address",
							"name": "receiver",
							"type": "address"
						}
					],
					"name": "noSupplyDeposit",
					"outputs": [
						{
							"internalType": "uint256",
							"name": "shares",
							"type": "uint256"
						}
					],
					"stateMutability": "payable",
					"type": "function"
				},
				{
					"inputs": [
						{
							"internalType": "address",
							"name": "receiver",
							"type": "address"
						}
					],
					"name": "noSupplyDeposit",
					"outputs": [
						{
							"internalType": "uint256",
							"name": "shares",
							"type": "uint256"
						}
					],
					"stateMutability": "payable",
					"type": "function"
				},
				{
					"inputs": [
						{
							"internalType": "address",
							"name": "owner",
							"type": "address"
						}
					],
					"name": "nonces",
					"outputs": [
						{
							"internalType": "uint256",
							"name": "result",
							"type": "uint256"
						}
					],
					"stateMutability": "view",
					"type": "function"
				},
				{
					"inputs": [
						{
							"internalType": "address",
							"name": "owner",
							"type": "address"
						},
						{
							"internalType": "address",
							"name": "spender",
							"type": "address"
						},
						{
							"internalType": "uint256",
							"name": "value",
							"type": "uint256"
						},
						{
							"internalType": "uint256",
							"name": "deadline",
							"type": "uint256"
						},
						{
							"internalType": "uint8",
							"name": "v",
							"type": "uint8"
						},
						{
							"internalType": "bytes32",
							"name": "r",
							"type": "bytes32"
						},
						{
							"internalType": "bytes32",
							"name": "s",
							"type": "bytes32"
						}
					],
					"name": "permit",
					"outputs": [],
					"stateMutability": "nonpayable",
					"type": "function"
				},
				{
					"inputs": [
						{
							"internalType": "uint256",
							"name": "assets",
							"type": "uint256"
						}
					],
					"name": "previewDeposit",
					"outputs": [
						{
							"internalType": "uint256",
							"name": "",
							"type": "uint256"
						}
					],
					"stateMutability": "view",
					"type": "function"
				},
				{
					"inputs": [
						{
							"internalType": "uint256",
							"name": "shares",
							"type": "uint256"
						}
					],
					"name": "previewRedeem",
					"outputs": [
						{
							"internalType": "uint256",
							"name": "",
							"type": "uint256"
						}
					],
					"stateMutability": "view",
					"type": "function"
				},
				{
					"inputs": [],
					"name": "purchasableERC20s",
					"outputs": [
						{
							"internalType": "uint256",
							"name": "",
							"type": "uint256"
						}
					],
					"stateMutability": "view",
					"type": "function"
				},
				{
					"inputs": [],
					"name": "purchasableNatives",
					"outputs": [
						{
							"internalType": "uint256",
							"name": "",
							"type": "uint256"
						}
					],
					"stateMutability": "view",
					"type": "function"
				},
				{
					"inputs": [
						{
							"internalType": "uint256",
							"name": "shares",
							"type": "uint256"
						},
						{
							"internalType": "address",
							"name": "receiver",
							"type": "address"
						},
						{
							"internalType": "address",
							"name": "owner",
							"type": "address"
						}
					],
					"name": "redeem",
					"outputs": [
						{
							"internalType": "uint256",
							"name": "assets",
							"type": "uint256"
						}
					],
					"stateMutability": "nonpayable",
					"type": "function"
				},
				{
					"inputs": [],
					"name": "symbol",
					"outputs": [
						{
							"internalType": "string",
							"name": "",
							"type": "string"
						}
					],
					"stateMutability": "view",
					"type": "function"
				},
				{
					"inputs": [],
					"name": "totalSupply",
					"outputs": [
						{
							"internalType": "uint256",
							"name": "result",
							"type": "uint256"
						}
					],
					"stateMutability": "view",
					"type": "function"
				},
				{
					"inputs": [
						{
							"internalType": "address",
							"name": "to",
							"type": "address"
						},
						{
							"internalType": "uint256",
							"name": "amount",
							"type": "uint256"
						}
					],
					"name": "transfer",
					"outputs": [
						{
							"internalType": "bool",
							"name": "",
							"type": "bool"
						}
					],
					"stateMutability": "nonpayable",
					"type": "function"
				},
				{
					"inputs": [
						{
							"internalType": "address",
							"name": "from",
							"type": "address"
						},
						{
							"internalType": "address",
							"name": "to",
							"type": "address"
						},
						{
							"internalType": "uint256",
							"name": "amount",
							"type": "uint256"
						}
					],
					"name": "transferFrom",
					"outputs": [
						{
							"internalType": "bool",
							"name": "",
							"type": "bool"
						}
					],
					"stateMutability": "nonpayable",
					"type": "function"
				}
			],
			"devdoc": {
				"errors": {
					"AllowanceOverflow()": [
						{
							"details": "The allowance has overflowed."
						}
					],
					"AllowanceUnderflow()": [
						{
							"details": "The allowance has underflowed."
						}
					],
					"InsufficientAllowance()": [
						{
							"details": "Insufficient allowance."
						}
					],
					"InsufficientBalance()": [
						{
							"details": "Insufficient balance."
						}
					],
					"InvalidPermit()": [
						{
							"details": "The permit is invalid."
						}
					],
					"Permit2AllowanceIsFixedAtInfinity()": [
						{
							"details": "The allowance of Permit2 is fixed at infinity."
						}
					],
					"PermitExpired()": [
						{
							"details": "The permit has expired."
						}
					],
					"TotalSupplyOverflow()": [
						{
							"details": "The total supply has overflowed."
						}
					]
				},
				"events": {
					"Approval(address,address,uint256)": {
						"details": "Emitted when `amount` tokens is approved by `owner` to be used by `spender`."
					},
					"Transfer(address,address,uint256)": {
						"details": "Emitted when `amount` tokens is transferred from `from` to `to`."
					}
				},
				"kind": "dev",
				"methods": {
					"DOMAIN_SEPARATOR()": {
						"details": "Returns the EIP-712 domain separator for the EIP-2612 permit."
					},
					"allowance(address,address)": {
						"details": "Returns the amount of tokens that `spender` can spend on behalf of `owner`."
					},
					"approve(address,uint256)": {
						"details": "Sets `amount` as the allowance of `spender` over the caller's tokens. Emits a {Approval} event."
					},
					"balanceOf(address)": {
						"details": "Returns the amount of tokens owned by `owner`."
					},
					"decimals()": {
						"details": "Returns the decimals places of the token."
					},
					"name()": {
						"details": "Returns the name of the token."
					},
					"nonces(address)": {
						"details": "Returns the current nonce for `owner`. This value is used to compute the signature for EIP-2612 permit."
					},
					"permit(address,address,uint256,uint256,uint8,bytes32,bytes32)": {
						"details": "Sets `value` as the allowance of `spender` over the tokens of `owner`, authorized by a signed approval by `owner`. Emits a {Approval} event."
					},
					"symbol()": {
						"details": "Returns the symbol of the token."
					},
					"totalSupply()": {
						"details": "Returns the amount of tokens in existence."
					},
					"transfer(address,uint256)": {
						"details": "Transfer `amount` tokens from the caller to `to`. Requirements: - `from` must at least have `amount`. Emits a {Transfer} event."
					},
					"transferFrom(address,address,uint256)": {
						"details": "Transfers `amount` tokens from `from` to `to`. Note: Does not update the allowance if it is the maximum uint256 value. Requirements: - `from` must at least have `amount`. - The caller must have at least `amount` of allowance to transfer the tokens of `from`. Emits a {Transfer} event."
					}
				},
				"version": 1
			},
			"evm": {
				"assembly": "    /* \"src/AquitardLPCore.0.0.1.sol\":348:6213  contract AquitardLPCore is ExchangeAbstract, ERC20 {... */\n  mstore(0x40, 0x0120)\n    /* \"src/ExchangeAbstract.sol\":200:215  block.timestamp */\n  timestamp\n    /* \"src/ExchangeAbstract.sol\":164:215  uint public nativePurchasableTime = block.timestamp */\n  0x00\n  sstore\n    /* \"src/ExchangeAbstract.sol\":358:373  block.timestamp */\n  timestamp\n    /* \"src/ExchangeAbstract.sol\":323:373  uint public erc20PurchasableTime = block.timestamp */\n  0x01\n  sstore\n    /* \"src/AquitardLPCore.0.0.1.sol\":621:996  constructor(... */\n  callvalue\n  dup1\n  iszero\n  tag_1\n  jumpi\n  revert(0x00, 0x00)\ntag_1:\n  pop\n  mload(0x40)\n  sub(codesize, bytecodeSize)\n  dup1\n  bytecodeSize\n  dup4\n  codecopy\n  dup2\n  add\n  0x40\n  dup2\n  swap1\n  mstore\n  tag_2\n  swap2\n  tag_3\n  jump\t// in\ntag_2:\n  sub(shl(0xa0, 0x01), 0x01)\n    /* \"src/SwapAbstract.sol\":358:372  asset = asset_ */\n  swap1\n  swap5\n  and\n  0x80\n  mstore\n  sub(shl(0x80, 0x01), 0x01)\n    /* \"src/ExchangeAbstract.sol\":663:709  nativePurchasableRate = nativePurchasableRate_ */\n  swap3\n  dup4\n  and\n  0xa0\n  mstore\n    /* \"src/ExchangeAbstract.sol\":720:752  erc20Inhibitor = erc20Inhibitor_ */\n  swap1\n  dup3\n  and\n  0xc0\n  mstore\n    /* \"src/ExchangeAbstract.sol\":763:807  erc20PurchasableRate = erc20PurchasableRate_ */\n  dup2\n  and\n  0xe0\n  mstore\n    /* \"src/ExchangeAbstract.sol\":818:852  nativeInhibitor = nativeInhibitor_ */\n  and\n  0x0100\n  mstore\n    /* \"src/AquitardLPCore.0.0.1.sol\":348:6213  contract AquitardLPCore is ExchangeAbstract, ERC20 {... */\n  jump(tag_12)\n    /* \"#utility.yul\":14:191   */\ntag_11:\n    /* \"#utility.yul\":93:106   */\n  dup1\n  mload\n  sub(shl(0x80, 0x01), 0x01)\n    /* \"#utility.yul\":135:166   */\n  dup2\n  and\n    /* \"#utility.yul\":125:167   */\n  dup2\n  eq\n    /* \"#utility.yul\":115:185   */\n  tag_14\n  jumpi\n    /* \"#utility.yul\":181:182   */\n  0x00\n    /* \"#utility.yul\":178:179   */\n  0x00\n    /* \"#utility.yul\":171:183   */\n  revert\n    /* \"#utility.yul\":115:185   */\ntag_14:\n    /* \"#utility.yul\":14:191   */\n  swap2\n  swap1\n  pop\n  jump\t// out\n    /* \"#utility.yul\":196:841   */\ntag_3:\n    /* \"#utility.yul\":315:321   */\n  0x00\n    /* \"#utility.yul\":323:329   */\n  0x00\n    /* \"#utility.yul\":331:337   */\n  0x00\n    /* \"#utility.yul\":339:345   */\n  0x00\n    /* \"#utility.yul\":347:353   */\n  0x00\n    /* \"#utility.yul\":400:403   */\n  0xa0\n    /* \"#utility.yul\":388:397   */\n  dup7\n    /* \"#utility.yul\":379:386   */\n  dup9\n    /* \"#utility.yul\":375:398   */\n  sub\n    /* \"#utility.yul\":371:404   */\n  slt\n    /* \"#utility.yul\":368:421   */\n  iszero\n  tag_16\n  jumpi\n    /* \"#utility.yul\":417:418   */\n  0x00\n    /* \"#utility.yul\":414:415   */\n  0x00\n    /* \"#utility.yul\":407:419   */\n  revert\n    /* \"#utility.yul\":368:421   */\ntag_16:\n    /* \"#utility.yul\":443:459   */\n  dup6\n  mload\n  sub(shl(0xa0, 0x01), 0x01)\n    /* \"#utility.yul\":488:519   */\n  dup2\n  and\n    /* \"#utility.yul\":478:520   */\n  dup2\n  eq\n    /* \"#utility.yul\":468:538   */\n  tag_17\n  jumpi\n    /* \"#utility.yul\":534:535   */\n  0x00\n    /* \"#utility.yul\":531:532   */\n  0x00\n    /* \"#utility.yul\":524:536   */\n  revert\n    /* \"#utility.yul\":468:538   */\ntag_17:\n    /* \"#utility.yul\":557:562   */\n  swap5\n  pop\n    /* \"#utility.yul\":581:630   */\n  tag_18\n    /* \"#utility.yul\":626:628   */\n  0x20\n    /* \"#utility.yul\":611:629   */\n  dup8\n  add\n    /* \"#utility.yul\":581:630   */\n  tag_11\n  jump\t// in\ntag_18:\n    /* \"#utility.yul\":571:630   */\n  swap4\n  pop\n    /* \"#utility.yul\":649:698   */\n  tag_19\n    /* \"#utility.yul\":694:696   */\n  0x40\n    /* \"#utility.yul\":683:692   */\n  dup8\n    /* \"#utility.yul\":679:697   */\n  add\n    /* \"#utility.yul\":649:698   */\n  tag_11\n  jump\t// in\ntag_19:\n    /* \"#utility.yul\":639:698   */\n  swap3\n  pop\n    /* \"#utility.yul\":717:766   */\n  tag_20\n    /* \"#utility.yul\":762:764   */\n  0x60\n    /* \"#utility.yul\":751:760   */\n  dup8\n    /* \"#utility.yul\":747:765   */\n  add\n    /* \"#utility.yul\":717:766   */\n  tag_11\n  jump\t// in\ntag_20:\n    /* \"#utility.yul\":707:766   */\n  swap2\n  pop\n    /* \"#utility.yul\":785:835   */\n  tag_21\n    /* \"#utility.yul\":830:833   */\n  0x80\n    /* \"#utility.yul\":819:828   */\n  dup8\n    /* \"#utility.yul\":815:834   */\n  add\n    /* \"#utility.yul\":785:835   */\n  tag_11\n  jump\t// in\ntag_21:\n    /* \"#utility.yul\":775:835   */\n  swap1\n  pop\n    /* \"#utility.yul\":196:841   */\n  swap3\n  swap6\n  pop\n  swap3\n  swap6\n  swap1\n  swap4\n  pop\n  jump\t// out\ntag_12:\n    /* \"src/AquitardLPCore.0.0.1.sol\":348:6213  contract AquitardLPCore is ExchangeAbstract, ERC20 {... */\n  mload(0x80)\n  mload(0xa0)\n  mload(0xc0)\n  mload(0xe0)\n  mload(0x0100)\n  codecopy(0x00, dataOffset(sub_0), dataSize(sub_0))\n  0x00\n  assignImmutable(\"0xc53e81d5df64592d8da771bc0a3ae4c598dca5ecd02622d7a28774b6b78c4b19\")\n  0x00\n  assignImmutable(\"0x29f8d1998cd4186678d0085cd54072aeefd05bc476ef1844361510d857ac074b\")\n  0x00\n  assignImmutable(\"0x294a915770f1abdd270970c5c5e0116f353ee0443c415452cffb70311418f069\")\n  0x00\n  assignImmutable(\"0xe9e0475224745f570c2fa5a2212581dbb763b0b604cf1588d130cda3bdffbf52\")\n  0x00\n  assignImmutable(\"0xb26b33956cf5e09b9bda3f13e0f5c76b73e9d24f4f4d5a58bdd9de6b8e0a4d8c\")\n  return(0x00, dataSize(sub_0))\nstop\n\nsub_0: assembly {\n        /* \"src/AquitardLPCore.0.0.1.sol\":348:6213  contract AquitardLPCore is ExchangeAbstract, ERC20 {... */\n      mstore(0x40, 0x80)\n      jumpi(tag_1, lt(calldatasize, 0x04))\n      shr(0xe0, calldataload(0x00))\n      dup1\n      0x70a08231\n      gt\n      tag_42\n      jumpi\n      dup1\n      0xba087652\n      gt\n      tag_43\n      jumpi\n      dup1\n      0xdd62ed3e\n      gt\n      tag_44\n      jumpi\n      dup1\n      0xdd62ed3e\n      eq\n      tag_37\n      jumpi\n      dup1\n      0xde899d1f\n      eq\n      tag_38\n      jumpi\n      dup1\n      0xea6b80b7\n      eq\n      tag_39\n      jumpi\n      dup1\n      0xef8b30f7\n      eq\n      tag_40\n      jumpi\n      dup1\n      0xf340fa01\n      eq\n      tag_41\n      jumpi\n      revert(0x00, 0x00)\n    tag_44:\n      dup1\n      0xba087652\n      eq\n      tag_32\n      jumpi\n      dup1\n      0xbc710575\n      eq\n      tag_33\n      jumpi\n      dup1\n      0xc1a4845f\n      eq\n      tag_34\n      jumpi\n      dup1\n      0xc6e6f592\n      eq\n      tag_35\n      jumpi\n      dup1\n      0xd505accf\n      eq\n      tag_36\n      jumpi\n      revert(0x00, 0x00)\n    tag_43:\n      dup1\n      0x95d89b41\n      gt\n      tag_45\n      jumpi\n      dup1\n      0x95d89b41\n      eq\n      tag_27\n      jumpi\n      dup1\n      0x96a3958d\n      eq\n      tag_28\n      jumpi\n      dup1\n      0xa9059cbb\n      eq\n      tag_29\n      jumpi\n      dup1\n      0xad330967\n      eq\n      tag_30\n      jumpi\n      dup1\n      0xaea1e3d1\n      eq\n      tag_31\n      jumpi\n      revert(0x00, 0x00)\n    tag_45:\n      dup1\n      0x70a08231\n      eq\n      tag_22\n      jumpi\n      dup1\n      0x7ecebe00\n      eq\n      tag_23\n      jumpi\n      dup1\n      0x81f2d34e\n      eq\n      tag_24\n      jumpi\n      dup1\n      0x8a2c9cef\n      eq\n      tag_25\n      jumpi\n      dup1\n      0x8a48b2a5\n      eq\n      tag_26\n      jumpi\n      revert(0x00, 0x00)\n    tag_42:\n      dup1\n      0x25d1782d\n      gt\n      tag_46\n      jumpi\n      dup1\n      0x3aeeade8\n      gt\n      tag_47\n      jumpi\n      dup1\n      0x3aeeade8\n      eq\n      tag_17\n      jumpi\n      dup1\n      0x421c6a8a\n      eq\n      tag_18\n      jumpi\n      dup1\n      0x4cdad506\n      eq\n      tag_19\n      jumpi\n      dup1\n      0x4d016295\n      eq\n      tag_20\n      jumpi\n      dup1\n      0x6e553f65\n      eq\n      tag_21\n      jumpi\n      revert(0x00, 0x00)\n    tag_47:\n      dup1\n      0x25d1782d\n      eq\n      tag_12\n      jumpi\n      dup1\n      0x313ce567\n      eq\n      tag_13\n      jumpi\n      dup1\n      0x3644e515\n      eq\n      tag_14\n      jumpi\n      dup1\n      0x367ada10\n      eq\n      tag_15\n      jumpi\n      dup1\n      0x38d52e0f\n      eq\n      tag_16\n      jumpi\n      revert(0x00, 0x00)\n    tag_46:\n      dup1\n      0x0f2a403f\n      gt\n      tag_48\n      jumpi\n      dup1\n      0x0f2a403f\n      eq\n      tag_7\n      jumpi\n      dup1\n      0x127d0409\n      eq\n      tag_8\n      jumpi\n      dup1\n      0x18160ddd\n      eq\n      tag_9\n      jumpi\n      dup1\n      0x19cdf284\n      eq\n      tag_10\n      jumpi\n      dup1\n      0x23b872dd\n      eq\n      tag_11\n      jumpi\n      revert(0x00, 0x00)\n    tag_48:\n      dup1\n      0x04c764e1\n      eq\n      tag_2\n      jumpi\n      dup1\n      0x06fdde03\n      eq\n      tag_3\n      jumpi\n      dup1\n      0x07a2d13a\n      eq\n      tag_4\n      jumpi\n      dup1\n      0x08e30698\n      eq\n      tag_5\n      jumpi\n      dup1\n      0x095ea7b3\n      eq\n      tag_6\n      jumpi\n    tag_1:\n      revert(0x00, 0x00)\n        /* \"src/ExchangeAbstract.sol\":2025:2537  function erc20ToNativeSwap(SwapAbstract sa, uint erc20s, address receiver) external returns (uint earned) {... */\n    tag_2:\n      callvalue\n      dup1\n      iszero\n      tag_49\n      jumpi\n      revert(0x00, 0x00)\n    tag_49:\n      pop\n      tag_50\n      tag_51\n      calldatasize\n      0x04\n      tag_52\n      jump\t// in\n    tag_51:\n      tag_53\n      jump\t// in\n    tag_50:\n      mload(0x40)\n        /* \"#utility.yul\":872:897   */\n      swap1\n      dup2\n      mstore\n        /* \"#utility.yul\":860:862   */\n      0x20\n        /* \"#utility.yul\":845:863   */\n      add\n        /* \"src/ExchangeAbstract.sol\":2025:2537  function erc20ToNativeSwap(SwapAbstract sa, uint erc20s, address receiver) external returns (uint earned) {... */\n    tag_54:\n      mload(0x40)\n      dup1\n      swap2\n      sub\n      swap1\n      return\n        /* \"src/AquitardLPCore.0.0.1.sol\":1004:1116  function name() public pure override returns (string memory) {... */\n    tag_3:\n      callvalue\n      dup1\n      iszero\n      tag_56\n      jumpi\n      revert(0x00, 0x00)\n    tag_56:\n      pop\n      tag_57\n      tag_58\n      jump\t// in\n    tag_57:\n      mload(0x40)\n      tag_54\n      swap2\n      swap1\n      tag_60\n      jump\t// in\n        /* \"src/AquitardLPCore.0.0.1.sol\":5243:5389  function convertToAssets(uint shares) public view returns (uint) {... */\n    tag_4:\n      callvalue\n      dup1\n      iszero\n      tag_61\n      jumpi\n      revert(0x00, 0x00)\n    tag_61:\n      pop\n      tag_50\n      tag_63\n      calldatasize\n      0x04\n      tag_64\n      jump\t// in\n    tag_63:\n      tag_65\n      jump\t// in\n        /* \"src/AquitardLPCore.0.0.1.sol\":2671:3158  function erc20ToNativeSwap(uint erc20sSold, address recipient) public override returns (uint nativesBought) {... */\n    tag_5:\n      callvalue\n      dup1\n      iszero\n      tag_67\n      jumpi\n      revert(0x00, 0x00)\n    tag_67:\n      pop\n      tag_50\n      tag_69\n      calldatasize\n      0x04\n      tag_70\n      jump\t// in\n    tag_69:\n      tag_71\n      jump\t// in\n        /* \"https://github.com/Vectorized/solady/blob/main/src/tokens/ERC20.sol\":8175:9204  function approve(address spender, uint256 amount) public virtual returns (bool) {... */\n    tag_6:\n      callvalue\n      dup1\n      iszero\n      tag_73\n      jumpi\n      revert(0x00, 0x00)\n    tag_73:\n      pop\n      tag_74\n      tag_75\n      calldatasize\n      0x04\n      tag_76\n      jump\t// in\n    tag_75:\n      tag_77\n      jump\t// in\n    tag_74:\n      mload(0x40)\n        /* \"#utility.yul\":2499:2513   */\n      swap1\n      iszero\n        /* \"#utility.yul\":2492:2514   */\n      iszero\n        /* \"#utility.yul\":2474:2515   */\n      dup2\n      mstore\n        /* \"#utility.yul\":2462:2464   */\n      0x20\n        /* \"#utility.yul\":2447:2465   */\n      add\n        /* \"https://github.com/Vectorized/solady/blob/main/src/tokens/ERC20.sol\":8175:9204  function approve(address spender, uint256 amount) public virtual returns (bool) {... */\n      tag_54\n        /* \"#utility.yul\":2334:2521   */\n      jump\n        /* \"src/ExchangeAbstract.sol\":323:373  uint public erc20PurchasableTime = block.timestamp */\n    tag_7:\n      callvalue\n      dup1\n      iszero\n      tag_80\n      jumpi\n      revert(0x00, 0x00)\n    tag_80:\n      pop\n      tag_50\n      sload(0x01)\n      dup2\n      jump\n        /* \"src/SwapAbstract.sol\":814:961  function erc20ToNativeSwap(uint erc20sSold) public returns (uint nativesBought) {... */\n    tag_8:\n      callvalue\n      dup1\n      iszero\n      tag_84\n      jumpi\n      revert(0x00, 0x00)\n    tag_84:\n      pop\n      tag_50\n      tag_86\n      calldatasize\n      0x04\n      tag_64\n      jump\t// in\n    tag_86:\n      tag_87\n      jump\t// in\n        /* \"https://github.com/Vectorized/solady/blob/main/src/tokens/ERC20.sol\":6907:7102  function totalSupply() public view virtual returns (uint256 result) {... */\n    tag_9:\n      callvalue\n      dup1\n      iszero\n      tag_89\n      jumpi\n      revert(0x00, 0x00)\n    tag_89:\n      pop\n        /* \"https://github.com/Vectorized/solady/blob/main/src/tokens/ERC20.sol\":7067:7085  _TOTAL_SUPPLY_SLOT */\n      0x05345cdf77eb68f44c\n        /* \"https://github.com/Vectorized/solady/blob/main/src/tokens/ERC20.sol\":7061:7086  sload(_TOTAL_SUPPLY_SLOT) */\n      sload\n        /* \"https://github.com/Vectorized/solady/blob/main/src/tokens/ERC20.sol\":6907:7102  function totalSupply() public view virtual returns (uint256 result) {... */\n      jump(tag_50)\n        /* \"src/SwapAbstract.sol\":1270:1447  function erc20ToNativeSwap(uint erc20sSold, Permit2Sig calldata sig) external returns (uint nativesBought) {... */\n    tag_10:\n      callvalue\n      dup1\n      iszero\n      tag_93\n      jumpi\n      revert(0x00, 0x00)\n    tag_93:\n      pop\n      tag_50\n      tag_95\n      calldatasize\n      0x04\n      tag_96\n      jump\t// in\n    tag_95:\n      tag_97\n      jump\t// in\n        /* \"https://github.com/Vectorized/solady/blob/main/src/tokens/ERC20.sol\":11165:15918  function transferFrom(address from, address to, uint256 amount) public virtual returns (bool) {... */\n    tag_11:\n      callvalue\n      dup1\n      iszero\n      tag_99\n      jumpi\n      revert(0x00, 0x00)\n    tag_99:\n      pop\n      tag_74\n      tag_101\n      calldatasize\n      0x04\n      tag_102\n      jump\t// in\n    tag_101:\n      tag_103\n      jump\t// in\n        /* \"src/ExchangeAbstract.sol\":1177:1491  function getERC20ToNativePrice(uint erc20sSold) public override view returns (uint nativesBought) {... */\n    tag_12:\n      callvalue\n      dup1\n      iszero\n      tag_105\n      jumpi\n      revert(0x00, 0x00)\n    tag_105:\n      pop\n      tag_50\n      tag_107\n      calldatasize\n      0x04\n      tag_64\n      jump\t// in\n    tag_107:\n      tag_108\n      jump\t// in\n        /* \"https://github.com/Vectorized/solady/blob/main/src/tokens/ERC20.sol\":6480:6562  function decimals() public view virtual returns (uint8) {... */\n    tag_13:\n      callvalue\n      dup1\n      iszero\n      tag_110\n      jumpi\n      revert(0x00, 0x00)\n    tag_110:\n      pop\n      mload(0x40)\n        /* \"https://github.com/Vectorized/solady/blob/main/src/tokens/ERC20.sol\":6553:6555  18 */\n      0x12\n        /* \"#utility.yul\":3737:3773   */\n      dup2\n      mstore\n        /* \"#utility.yul\":3725:3727   */\n      0x20\n        /* \"#utility.yul\":3710:3728   */\n      add\n        /* \"https://github.com/Vectorized/solady/blob/main/src/tokens/ERC20.sol\":6480:6562  function decimals() public view virtual returns (uint8) {... */\n      tag_54\n        /* \"#utility.yul\":3595:3779   */\n      jump\n        /* \"https://github.com/Vectorized/solady/blob/main/src/tokens/ERC20.sol\":21458:22195  function DOMAIN_SEPARATOR() public view virtual returns (bytes32 result) {... */\n    tag_14:\n      callvalue\n      dup1\n      iszero\n      tag_115\n      jumpi\n      revert(0x00, 0x00)\n    tag_115:\n      pop\n      tag_50\n      tag_117\n      jump\t// in\n        /* \"src/ExchangeAbstract.sol\":275:314  uint128 public immutable erc20Inhibitor */\n    tag_15:\n      callvalue\n      dup1\n      iszero\n      tag_120\n      jumpi\n      revert(0x00, 0x00)\n    tag_120:\n      pop\n      tag_121\n      immutable(\"0x294a915770f1abdd270970c5c5e0116f353ee0443c415452cffb70311418f069\")\n      dup2\n      jump\n    tag_121:\n      mload(0x40)\n      sub(shl(0x80, 0x01), 0x01)\n        /* \"#utility.yul\":4130:4177   */\n      swap1\n      swap2\n      and\n        /* \"#utility.yul\":4112:4178   */\n      dup2\n      mstore\n        /* \"#utility.yul\":4100:4102   */\n      0x20\n        /* \"#utility.yul\":4085:4103   */\n      add\n        /* \"src/ExchangeAbstract.sol\":275:314  uint128 public immutable erc20Inhibitor */\n      tag_54\n        /* \"#utility.yul\":3966:4184   */\n      jump\n        /* \"src/SwapAbstract.sol\":285:313  ERC20 public immutable asset */\n    tag_16:\n      callvalue\n      dup1\n      iszero\n      tag_125\n      jumpi\n      revert(0x00, 0x00)\n    tag_125:\n      pop\n      tag_126\n      immutable(\"0xb26b33956cf5e09b9bda3f13e0f5c76b73e9d24f4f4d5a58bdd9de6b8e0a4d8c\")\n      dup2\n      jump\n    tag_126:\n      mload(0x40)\n      sub(shl(0xa0, 0x01), 0x01)\n        /* \"#utility.yul\":4366:4398   */\n      swap1\n      swap2\n      and\n        /* \"#utility.yul\":4348:4399   */\n      dup2\n      mstore\n        /* \"#utility.yul\":4336:4338   */\n      0x20\n        /* \"#utility.yul\":4321:4339   */\n      add\n        /* \"src/SwapAbstract.sol\":285:313  ERC20 public immutable asset */\n      tag_54\n        /* \"#utility.yul\":4189:4405   */\n      jump\n        /* \"src/ExchangeAbstract.sol\":380:425  uint128 public immutable erc20PurchasableRate */\n    tag_17:\n      callvalue\n      dup1\n      iszero\n      tag_130\n      jumpi\n      revert(0x00, 0x00)\n    tag_130:\n      pop\n      tag_121\n      immutable(\"0x29f8d1998cd4186678d0085cd54072aeefd05bc476ef1844361510d857ac074b\")\n      dup2\n      jump\n        /* \"src/ExchangeAbstract.sol\":164:215  uint public nativePurchasableTime = block.timestamp */\n    tag_18:\n      callvalue\n      dup1\n      iszero\n      tag_134\n      jumpi\n      revert(0x00, 0x00)\n    tag_134:\n      pop\n      tag_50\n      sload(0x00)\n      dup2\n      jump\n        /* \"src/AquitardLPCore.0.0.1.sol\":5397:5509  function previewRedeem(uint shares) public view returns (uint) {... */\n    tag_19:\n      callvalue\n      dup1\n      iszero\n      tag_138\n      jumpi\n      revert(0x00, 0x00)\n    tag_138:\n      pop\n      tag_50\n      tag_140\n      calldatasize\n      0x04\n      tag_64\n      jump\t// in\n    tag_140:\n      tag_141\n      jump\t// in\n        /* \"src/ExchangeAbstract.sol\":222:268  uint128 public immutable nativePurchasableRate */\n    tag_20:\n      callvalue\n      dup1\n      iszero\n      tag_143\n      jumpi\n      revert(0x00, 0x00)\n    tag_143:\n      pop\n      tag_121\n      immutable(\"0xe9e0475224745f570c2fa5a2212581dbb763b0b604cf1588d130cda3bdffbf52\")\n      dup2\n      jump\n        /* \"src/AquitardLPCore.0.0.1.sol\":3687:4340  function deposit(uint assets, address receiver) payable public returns (uint shares) {... */\n    tag_21:\n      tag_50\n      tag_148\n      calldatasize\n      0x04\n      tag_70\n      jump\t// in\n    tag_148:\n      tag_149\n      jump\t// in\n        /* \"https://github.com/Vectorized/solady/blob/main/src/tokens/ERC20.sol\":7168:7454  function balanceOf(address owner) public view virtual returns (uint256 result) {... */\n    tag_22:\n      callvalue\n      dup1\n      iszero\n      tag_151\n      jumpi\n      revert(0x00, 0x00)\n    tag_151:\n      pop\n      tag_50\n      tag_153\n      calldatasize\n      0x04\n      tag_154\n      jump\t// in\n    tag_153:\n        /* \"https://github.com/Vectorized/solady/blob/main/src/tokens/ERC20.sol\":7336:7354  _BALANCE_SLOT_SEED */\n      0x87a211a2\n        /* \"https://github.com/Vectorized/solady/blob/main/src/tokens/ERC20.sol\":7330:7334  0x0c */\n      0x0c\n        /* \"https://github.com/Vectorized/solady/blob/main/src/tokens/ERC20.sol\":7323:7355  mstore(0x0c, _BALANCE_SLOT_SEED) */\n      swap1\n      dup2\n      mstore\n        /* \"https://github.com/Vectorized/solady/blob/main/src/tokens/ERC20.sol\":7231:7245  uint256 result */\n      0x00\n        /* \"https://github.com/Vectorized/solady/blob/main/src/tokens/ERC20.sol\":7368:7387  mstore(0x00, owner) */\n      swap2\n      swap1\n      swap2\n      mstore\n        /* \"https://github.com/Vectorized/solady/blob/main/src/tokens/ERC20.sol\":7432:7436  0x20 */\n      0x20\n        /* \"https://github.com/Vectorized/solady/blob/main/src/tokens/ERC20.sol\":7416:7437  keccak256(0x0c, 0x20) */\n      swap1\n      keccak256\n        /* \"https://github.com/Vectorized/solady/blob/main/src/tokens/ERC20.sol\":7410:7438  sload(keccak256(0x0c, 0x20)) */\n      sload\n      swap1\n        /* \"https://github.com/Vectorized/solady/blob/main/src/tokens/ERC20.sol\":7168:7454  function balanceOf(address owner) public view virtual returns (uint256 result) {... */\n      jump\n        /* \"https://github.com/Vectorized/solady/blob/main/src/tokens/ERC20.sol\":17137:17477  function nonces(address owner) public view virtual returns (uint256 result) {... */\n    tag_23:\n      callvalue\n      dup1\n      iszero\n      tag_157\n      jumpi\n      revert(0x00, 0x00)\n    tag_157:\n      pop\n      tag_50\n      tag_159\n      calldatasize\n      0x04\n      tag_154\n      jump\t// in\n    tag_159:\n        /* \"https://github.com/Vectorized/solady/blob/main/src/tokens/ERC20.sol\":17360:17377  _NONCES_SLOT_SEED */\n      0x38377508\n        /* \"https://github.com/Vectorized/solady/blob/main/src/tokens/ERC20.sol\":17354:17358  0x0c */\n      0x0c\n        /* \"https://github.com/Vectorized/solady/blob/main/src/tokens/ERC20.sol\":17347:17378  mstore(0x0c, _NONCES_SLOT_SEED) */\n      swap1\n      dup2\n      mstore\n        /* \"https://github.com/Vectorized/solady/blob/main/src/tokens/ERC20.sol\":17197:17211  uint256 result */\n      0x00\n        /* \"https://github.com/Vectorized/solady/blob/main/src/tokens/ERC20.sol\":17391:17410  mstore(0x00, owner) */\n      swap2\n      swap1\n      swap2\n      mstore\n        /* \"https://github.com/Vectorized/solady/blob/main/src/tokens/ERC20.sol\":17455:17459  0x20 */\n      0x20\n        /* \"https://github.com/Vectorized/solady/blob/main/src/tokens/ERC20.sol\":17439:17460  keccak256(0x0c, 0x20) */\n      swap1\n      keccak256\n        /* \"https://github.com/Vectorized/solady/blob/main/src/tokens/ERC20.sol\":17433:17461  sload(keccak256(0x0c, 0x20)) */\n      sload\n      swap1\n        /* \"https://github.com/Vectorized/solady/blob/main/src/tokens/ERC20.sol\":17137:17477  function nonces(address owner) public view virtual returns (uint256 result) {... */\n      jump\n        /* \"src/ExchangeAbstract.sol\":1024:1169  function purchasableERC20s() public view returns (uint) {... */\n    tag_24:\n      callvalue\n      dup1\n      iszero\n      tag_162\n      jumpi\n      revert(0x00, 0x00)\n    tag_162:\n      pop\n      tag_50\n      tag_164\n      jump\t// in\n        /* \"src/ExchangeAbstract.sol\":1499:2017  function nativeToERC20Swap(SwapAbstract sa, uint natives, address receiver) external returns (uint earned) {... */\n    tag_25:\n      callvalue\n      dup1\n      iszero\n      tag_166\n      jumpi\n      revert(0x00, 0x00)\n    tag_166:\n      pop\n      tag_50\n      tag_168\n      calldatasize\n      0x04\n      tag_52\n      jump\t// in\n    tag_168:\n      tag_169\n      jump\t// in\n        /* \"src/AquitardLPCore.0.0.1.sol\":1255:1688  function noSupplyDeposit(uint assets, address receiver) payable external returns (uint shares) {... */\n    tag_26:\n      tag_50\n      tag_172\n      calldatasize\n      0x04\n      tag_70\n      jump\t// in\n    tag_172:\n      tag_173\n      jump\t// in\n        /* \"src/AquitardLPCore.0.0.1.sol\":1124:1247  function symbol() public view override returns (string memory) {... */\n    tag_27:\n      callvalue\n      dup1\n      iszero\n      tag_175\n      jumpi\n      revert(0x00, 0x00)\n    tag_175:\n      pop\n      tag_57\n      tag_177\n      jump\t// in\n        /* \"src/ExchangeAbstract.sol\":868:1016  function purchasableNatives() public view returns (uint) {... */\n    tag_28:\n      callvalue\n      dup1\n      iszero\n      tag_179\n      jumpi\n      revert(0x00, 0x00)\n    tag_179:\n      pop\n      tag_50\n      tag_181\n      jump\t// in\n        /* \"https://github.com/Vectorized/solady/blob/main/src/tokens/ERC20.sol\":9391:10797  function transfer(address to, uint256 amount) public virtual returns (bool) {... */\n    tag_29:\n      callvalue\n      dup1\n      iszero\n      tag_183\n      jumpi\n      revert(0x00, 0x00)\n    tag_183:\n      pop\n      tag_74\n      tag_185\n      calldatasize\n      0x04\n      tag_76\n      jump\t// in\n    tag_185:\n      tag_186\n      jump\t// in\n        /* \"src/ExchangeAbstract.sol\":432:472  uint128 public immutable nativeInhibitor */\n    tag_30:\n      callvalue\n      dup1\n      iszero\n      tag_188\n      jumpi\n      revert(0x00, 0x00)\n    tag_188:\n      pop\n      tag_121\n      immutable(\"0xc53e81d5df64592d8da771bc0a3ae4c598dca5ecd02622d7a28774b6b78c4b19\")\n      dup2\n      jump\n        /* \"src/SwapAbstract.sol\":1459:1588  function nativeToERC20Swap() external payable returns (uint erc20sBought) {... */\n    tag_31:\n      tag_50\n      tag_193\n      jump\t// in\n        /* \"src/AquitardLPCore.0.0.1.sol\":5517:6208  function redeem(uint shares, address receiver, address owner) external returns (uint assets) {... */\n    tag_32:\n      callvalue\n      dup1\n      iszero\n      tag_195\n      jumpi\n      revert(0x00, 0x00)\n    tag_195:\n      pop\n      tag_50\n      tag_197\n      calldatasize\n      0x04\n      tag_198\n      jump\t// in\n    tag_197:\n      tag_199\n      jump\t// in\n        /* \"src/AquitardLPCore.0.0.1.sol\":2302:2663  function nativeToERC20Swap(address recipient) public override payable returns (uint erc20sBought) {... */\n    tag_33:\n      tag_50\n      tag_202\n      calldatasize\n      0x04\n      tag_154\n      jump\t// in\n    tag_202:\n      tag_203\n      jump\t// in\n        /* \"src/AquitardLPCore.0.0.1.sol\":1696:1943  function noSupplyDeposit(address receiver) payable external returns (uint shares) {... */\n    tag_34:\n      tag_50\n      tag_206\n      calldatasize\n      0x04\n      tag_154\n      jump\t// in\n    tag_206:\n      tag_207\n      jump\t// in\n        /* \"src/AquitardLPCore.0.0.1.sol\":3166:3312  function convertToShares(uint assets) public view returns (uint) {... */\n    tag_35:\n      callvalue\n      dup1\n      iszero\n      tag_209\n      jumpi\n      revert(0x00, 0x00)\n    tag_209:\n      pop\n      tag_50\n      tag_211\n      calldatasize\n      0x04\n      tag_64\n      jump\t// in\n    tag_211:\n      tag_212\n      jump\t// in\n        /* \"https://github.com/Vectorized/solady/blob/main/src/tokens/ERC20.sol\":17661:21377  function permit(... */\n    tag_36:\n      callvalue\n      dup1\n      iszero\n      tag_214\n      jumpi\n      revert(0x00, 0x00)\n    tag_214:\n      pop\n      tag_215\n      tag_216\n      calldatasize\n      0x04\n      tag_217\n      jump\t// in\n    tag_216:\n      tag_218\n      jump\t// in\n    tag_215:\n      stop\n        /* \"https://github.com/Vectorized/solady/blob/main/src/tokens/ERC20.sol\":7549:8044  function allowance(address owner, address spender)... */\n    tag_37:\n      callvalue\n      dup1\n      iszero\n      tag_219\n      jumpi\n      revert(0x00, 0x00)\n    tag_219:\n      pop\n      tag_50\n      tag_221\n      calldatasize\n      0x04\n      tag_222\n      jump\t// in\n    tag_221:\n        /* \"https://github.com/Vectorized/solady/blob/main/src/tokens/ERC20.sol\":7884:7888  0x20 */\n      0x20\n        /* \"https://github.com/Vectorized/solady/blob/main/src/tokens/ERC20.sol\":7877:7898  mstore(0x20, spender) */\n      mstore\n        /* \"https://github.com/Vectorized/solady/blob/main/src/tokens/ERC20.sol\":7924:7944  _ALLOWANCE_SLOT_SEED */\n      0x7f5e9f20\n        /* \"https://github.com/Vectorized/solady/blob/main/src/tokens/ERC20.sol\":7918:7922  0x0c */\n      0x0c\n        /* \"https://github.com/Vectorized/solady/blob/main/src/tokens/ERC20.sol\":7911:7945  mstore(0x0c, _ALLOWANCE_SLOT_SEED) */\n      swap1\n      dup2\n      mstore\n        /* \"https://github.com/Vectorized/solady/blob/main/src/tokens/ERC20.sol\":7965:7969  0x00 */\n      0x00\n        /* \"https://github.com/Vectorized/solady/blob/main/src/tokens/ERC20.sol\":7958:7977  mstore(0x00, owner) */\n      swap2\n      swap1\n      swap2\n      mstore\n        /* \"https://github.com/Vectorized/solady/blob/main/src/tokens/ERC20.sol\":8022:8026  0x34 */\n      0x34\n        /* \"https://github.com/Vectorized/solady/blob/main/src/tokens/ERC20.sol\":8006:8027  keccak256(0x0c, 0x34) */\n      swap1\n      keccak256\n        /* \"https://github.com/Vectorized/solady/blob/main/src/tokens/ERC20.sol\":8000:8028  sload(keccak256(0x0c, 0x34)) */\n      sload\n      swap1\n        /* \"https://github.com/Vectorized/solady/blob/main/src/tokens/ERC20.sol\":7549:8044  function allowance(address owner, address spender)... */\n      jump\n        /* \"src/SwapAbstract.sol\":971:1258  function erc20ToNativeSwap(uint erc20sSold, address recipient, Permit2Sig calldata sig) public returns (uint nativesBought) {... */\n    tag_38:\n      callvalue\n      dup1\n      iszero\n      tag_225\n      jumpi\n      revert(0x00, 0x00)\n    tag_225:\n      pop\n      tag_50\n      tag_227\n      calldatasize\n      0x04\n      tag_228\n      jump\t// in\n    tag_227:\n      tag_229\n      jump\t// in\n        /* \"src/AquitardLPCore.0.0.1.sol\":1951:2294  function getNativeToERC20Price(uint nativesSold) public override view returns (uint erc20sBought) {... */\n    tag_39:\n      callvalue\n      dup1\n      iszero\n      tag_231\n      jumpi\n      revert(0x00, 0x00)\n    tag_231:\n      pop\n      tag_50\n      tag_233\n      calldatasize\n      0x04\n      tag_64\n      jump\t// in\n    tag_233:\n      tag_234\n      jump\t// in\n        /* \"src/AquitardLPCore.0.0.1.sol\":3320:3433  function previewDeposit(uint assets) public view returns (uint) {... */\n    tag_40:\n      callvalue\n      dup1\n      iszero\n      tag_236\n      jumpi\n      revert(0x00, 0x00)\n    tag_236:\n      pop\n      tag_50\n      tag_238\n      calldatasize\n      0x04\n      tag_64\n      jump\t// in\n    tag_238:\n      tag_239\n      jump\t// in\n        /* \"src/AquitardLPCore.0.0.1.sol\":4708:5235  function deposit(address receiver) payable public returns (uint shares) {... */\n    tag_41:\n      tag_50\n      tag_242\n      calldatasize\n      0x04\n      tag_154\n      jump\t// in\n    tag_242:\n      tag_243\n      jump\t// in\n        /* \"src/ExchangeAbstract.sol\":2025:2537  function erc20ToNativeSwap(SwapAbstract sa, uint erc20s, address receiver) external returns (uint earned) {... */\n    tag_53:\n        /* \"src/ExchangeAbstract.sol\":2194:2227  asset.approve(address(sa),erc20s) */\n      mload(0x40)\n      shl(0xe0, 0x095ea7b3)\n      dup2\n      mstore\n      sub(shl(0xa0, 0x01), 0x01)\n        /* \"#utility.yul\":7485:7517   */\n      dup5\n      dup2\n      and\n        /* \"src/ExchangeAbstract.sol\":2194:2227  asset.approve(address(sa),erc20s) */\n      0x04\n      dup4\n      add\n        /* \"#utility.yul\":7467:7518   */\n      mstore\n        /* \"#utility.yul\":7534:7552   */\n      0x24\n      dup3\n      add\n        /* \"#utility.yul\":7527:7561   */\n      dup5\n      swap1\n      mstore\n        /* \"src/ExchangeAbstract.sol\":2118:2129  uint earned */\n      0x00\n      swap2\n        /* \"src/ExchangeAbstract.sol\":2162:2183  address(this).balance */\n      selfbalance\n      swap2\n        /* \"src/ExchangeAbstract.sol\":2194:2199  asset */\n      immutable(\"0xb26b33956cf5e09b9bda3f13e0f5c76b73e9d24f4f4d5a58bdd9de6b8e0a4d8c\")\n        /* \"src/ExchangeAbstract.sol\":2194:2207  asset.approve */\n      and\n      swap1\n      0x095ea7b3\n      swap1\n        /* \"#utility.yul\":7440:7458   */\n      0x44\n      add\n        /* \"src/ExchangeAbstract.sol\":2194:2227  asset.approve(address(sa),erc20s) */\n      0x20\n      mload(0x40)\n      dup1\n      dup4\n      sub\n      dup2\n      0x00\n      dup8\n      gas\n      call\n      iszero\n      dup1\n      iszero\n      tag_249\n      jumpi\n      returndatacopy(0x00, 0x00, returndatasize)\n      revert(0x00, returndatasize)\n    tag_249:\n      pop\n      pop\n      pop\n      pop\n      mload(0x40)\n      returndatasize\n      not(0x1f)\n      0x1f\n      dup3\n      add\n      and\n      dup3\n      add\n      dup1\n      0x40\n      mstore\n      pop\n      dup2\n      add\n      swap1\n      tag_250\n      swap2\n      swap1\n      tag_251\n      jump\t// in\n    tag_250:\n      pop\n        /* \"src/ExchangeAbstract.sol\":2238:2266  sa.erc20ToNativeSwap(erc20s) */\n      mload(0x40)\n      shl(0xe0, 0x127d0409)\n      dup2\n      mstore\n      0x04\n      dup2\n      add\n        /* \"#utility.yul\":872:897   */\n      dup6\n      swap1\n      mstore\n      sub(shl(0xa0, 0x01), 0x01)\n        /* \"src/ExchangeAbstract.sol\":2238:2258  sa.erc20ToNativeSwap */\n      dup7\n      and\n      swap1\n      0x127d0409\n      swap1\n        /* \"#utility.yul\":845:863   */\n      0x24\n      add\n        /* \"src/ExchangeAbstract.sol\":2238:2266  sa.erc20ToNativeSwap(erc20s) */\n      0x20\n      mload(0x40)\n      dup1\n      dup4\n      sub\n      dup2\n      0x00\n      dup8\n      gas\n      call\n      iszero\n      dup1\n      iszero\n      tag_254\n      jumpi\n      returndatacopy(0x00, 0x00, returndatasize)\n      revert(0x00, returndatasize)\n    tag_254:\n      pop\n      pop\n      pop\n      pop\n      mload(0x40)\n      returndatasize\n      not(0x1f)\n      0x1f\n      dup3\n      add\n      and\n      dup3\n      add\n      dup1\n      0x40\n      mstore\n      pop\n      dup2\n      add\n      swap1\n      tag_255\n      swap2\n      swap1\n      tag_256\n      jump\t// in\n    tag_255:\n      pop\n        /* \"src/ExchangeAbstract.sol\":2308:2320  uint natives */\n      0x00\n        /* \"src/ExchangeAbstract.sol\":2323:2359  address(this).balance - startBalance */\n      tag_257\n        /* \"src/ExchangeAbstract.sol\":2347:2359  startBalance */\n      dup3\n        /* \"src/ExchangeAbstract.sol\":2323:2344  address(this).balance */\n      selfbalance\n        /* \"src/ExchangeAbstract.sol\":2323:2359  address(this).balance - startBalance */\n      tag_258\n      jump\t// in\n    tag_257:\n        /* \"src/ExchangeAbstract.sol\":2308:2359  uint natives = address(this).balance - startBalance */\n      swap1\n      pop\n        /* \"src/ExchangeAbstract.sol\":2414:2420  erc20s */\n      dup5\n        /* \"src/ExchangeAbstract.sol\":2381:2411  getNativeToERC20Price(natives) */\n      tag_259\n        /* \"src/ExchangeAbstract.sol\":2403:2410  natives */\n      dup3\n        /* \"src/ExchangeAbstract.sol\":2381:2402  getNativeToERC20Price */\n      tag_234\n        /* \"src/ExchangeAbstract.sol\":2381:2411  getNativeToERC20Price(natives) */\n      jump\t// in\n    tag_259:\n        /* \"src/ExchangeAbstract.sol\":2381:2420  getNativeToERC20Price(natives) - erc20s */\n      tag_260\n      swap2\n      swap1\n      tag_258\n      jump\t// in\n    tag_260:\n        /* \"src/ExchangeAbstract.sol\":2372:2420  earned = getNativeToERC20Price(natives) - erc20s */\n      swap3\n      pop\n        /* \"src/ExchangeAbstract.sol\":2455:2484  earned / erc20PurchasableRate */\n      tag_261\n      sub(shl(0x80, 0x01), 0x01)\n        /* \"src/ExchangeAbstract.sol\":2464:2484  erc20PurchasableRate */\n      immutable(\"0x29f8d1998cd4186678d0085cd54072aeefd05bc476ef1844361510d857ac074b\")\n        /* \"src/ExchangeAbstract.sol\":2455:2484  earned / erc20PurchasableRate */\n      and\n        /* \"src/ExchangeAbstract.sol\":2372:2420  earned = getNativeToERC20Price(natives) - erc20s */\n      dup5\n        /* \"src/ExchangeAbstract.sol\":2455:2484  earned / erc20PurchasableRate */\n      tag_262\n      jump\t// in\n    tag_261:\n        /* \"src/ExchangeAbstract.sol\":2431:2451  erc20PurchasableTime */\n      0x01\n      0x00\n        /* \"src/ExchangeAbstract.sol\":2431:2484  erc20PurchasableTime += earned / erc20PurchasableRate */\n      dup3\n      dup3\n      sload\n      tag_263\n      swap2\n      swap1\n      tag_264\n      jump\t// in\n    tag_263:\n      swap1\n      swap2\n      sstore\n      pop\n      pop\n        /* \"src/ExchangeAbstract.sol\":2497:2529  asset.transfer(receiver, earned) */\n      mload(0x40)\n      shl(0xe0, 0xa9059cbb)\n      dup2\n      mstore\n      sub(shl(0xa0, 0x01), 0x01)\n        /* \"#utility.yul\":7485:7517   */\n      dup6\n      dup2\n      and\n        /* \"src/ExchangeAbstract.sol\":2497:2529  asset.transfer(receiver, earned) */\n      0x04\n      dup4\n      add\n        /* \"#utility.yul\":7467:7518   */\n      mstore\n        /* \"#utility.yul\":7534:7552   */\n      0x24\n      dup3\n      add\n        /* \"#utility.yul\":7527:7561   */\n      dup6\n      swap1\n      mstore\n        /* \"src/ExchangeAbstract.sol\":2497:2502  asset */\n      immutable(\"0xb26b33956cf5e09b9bda3f13e0f5c76b73e9d24f4f4d5a58bdd9de6b8e0a4d8c\")\n        /* \"src/ExchangeAbstract.sol\":2497:2511  asset.transfer */\n      and\n      swap1\n      0xa9059cbb\n      swap1\n        /* \"#utility.yul\":7440:7458   */\n      0x44\n      add\n        /* \"src/ExchangeAbstract.sol\":2497:2529  asset.transfer(receiver, earned) */\n      0x20\n      mload(0x40)\n      dup1\n      dup4\n      sub\n      dup2\n      0x00\n      dup8\n      gas\n      call\n      iszero\n      dup1\n      iszero\n      tag_267\n      jumpi\n      returndatacopy(0x00, 0x00, returndatasize)\n      revert(0x00, returndatasize)\n    tag_267:\n      pop\n      pop\n      pop\n      pop\n      mload(0x40)\n      returndatasize\n      not(0x1f)\n      0x1f\n      dup3\n      add\n      and\n      dup3\n      add\n      dup1\n      0x40\n      mstore\n      pop\n      dup2\n      add\n      swap1\n      tag_268\n      swap2\n      swap1\n      tag_251\n      jump\t// in\n    tag_268:\n      pop\n        /* \"src/ExchangeAbstract.sol\":2131:2537  {... */\n      pop\n      pop\n        /* \"src/ExchangeAbstract.sol\":2025:2537  function erc20ToNativeSwap(SwapAbstract sa, uint erc20s, address receiver) external returns (uint earned) {... */\n      swap4\n      swap3\n      pop\n      pop\n      pop\n      jump\t// out\n        /* \"src/AquitardLPCore.0.0.1.sol\":1004:1116  function name() public pure override returns (string memory) {... */\n    tag_58:\n        /* \"src/AquitardLPCore.0.0.1.sol\":1076:1108  return \"Aquitard Liquidity Pool\" */\n      0x40\n      dup1\n      mload\n      dup1\n      dup3\n      add\n      swap1\n      swap2\n      mstore\n      0x17\n      dup2\n      mstore\n      0x4171756974617264204c697175696469747920506f6f6c000000000000000000\n      0x20\n      dup3\n      add\n      mstore\n      swap1\n        /* \"src/AquitardLPCore.0.0.1.sol\":1004:1116  function name() public pure override returns (string memory) {... */\n      jump\t// out\n        /* \"src/AquitardLPCore.0.0.1.sol\":5243:5389  function convertToAssets(uint shares) public view returns (uint) {... */\n    tag_65:\n        /* \"src/AquitardLPCore.0.0.1.sol\":5302:5306  uint */\n      0x00\n        /* \"src/AquitardLPCore.0.0.1.sol\":5368:5381  totalSupply() */\n      tag_271\n        /* \"https://github.com/Vectorized/solady/blob/main/src/tokens/ERC20.sol\":7067:7085  _TOTAL_SUPPLY_SLOT */\n      0x05345cdf77eb68f44c\n        /* \"https://github.com/Vectorized/solady/blob/main/src/tokens/ERC20.sol\":7061:7086  sload(_TOTAL_SUPPLY_SLOT) */\n      sload\n      swap1\n        /* \"https://github.com/Vectorized/solady/blob/main/src/tokens/ERC20.sol\":6907:7102  function totalSupply() public view virtual returns (uint256 result) {... */\n      jump\n        /* \"src/AquitardLPCore.0.0.1.sol\":5368:5381  totalSupply() */\n    tag_271:\n        /* \"src/AquitardLPCore.0.0.1.sol\":5326:5356  asset.balanceOf(address(this)) */\n      mload(0x40)\n      shl(0xe0, 0x70a08231)\n      dup2\n      mstore\n        /* \"src/AquitardLPCore.0.0.1.sol\":5350:5354  this */\n      address\n        /* \"src/AquitardLPCore.0.0.1.sol\":5326:5356  asset.balanceOf(address(this)) */\n      0x04\n      dup3\n      add\n        /* \"#utility.yul\":4348:4399   */\n      mstore\n        /* \"src/AquitardLPCore.0.0.1.sol\":5359:5365  shares */\n      dup4\n      swap1\n        /* \"src/AquitardLPCore.0.0.1.sol\":5326:5331  asset */\n      immutable(\"0xb26b33956cf5e09b9bda3f13e0f5c76b73e9d24f4f4d5a58bdd9de6b8e0a4d8c\")\n      sub(shl(0xa0, 0x01), 0x01)\n        /* \"src/AquitardLPCore.0.0.1.sol\":5326:5341  asset.balanceOf */\n      and\n      swap1\n      0x70a08231\n      swap1\n        /* \"#utility.yul\":4321:4339   */\n      0x24\n      add\n        /* \"src/AquitardLPCore.0.0.1.sol\":5326:5356  asset.balanceOf(address(this)) */\n      0x20\n      mload(0x40)\n      dup1\n      dup4\n      sub\n      dup2\n      dup7\n      gas\n      staticcall\n      iszero\n      dup1\n      iszero\n      tag_275\n      jumpi\n      returndatacopy(0x00, 0x00, returndatasize)\n      revert(0x00, returndatasize)\n    tag_275:\n      pop\n      pop\n      pop\n      pop\n      mload(0x40)\n      returndatasize\n      not(0x1f)\n      0x1f\n      dup3\n      add\n      and\n      dup3\n      add\n      dup1\n      0x40\n      mstore\n      pop\n      dup2\n      add\n      swap1\n      tag_276\n      swap2\n      swap1\n      tag_256\n      jump\t// in\n    tag_276:\n        /* \"src/AquitardLPCore.0.0.1.sol\":5326:5365  asset.balanceOf(address(this)) * shares */\n      tag_277\n      swap2\n      swap1\n      tag_278\n      jump\t// in\n    tag_277:\n        /* \"src/AquitardLPCore.0.0.1.sol\":5326:5381  asset.balanceOf(address(this)) * shares / totalSupply() */\n      tag_279\n      swap2\n      swap1\n      tag_262\n      jump\t// in\n    tag_279:\n        /* \"src/AquitardLPCore.0.0.1.sol\":5319:5381  return asset.balanceOf(address(this)) * shares / totalSupply() */\n      swap3\n        /* \"src/AquitardLPCore.0.0.1.sol\":5243:5389  function convertToAssets(uint shares) public view returns (uint) {... */\n      swap2\n      pop\n      pop\n      jump\t// out\n        /* \"src/AquitardLPCore.0.0.1.sol\":2671:3158  function erc20ToNativeSwap(uint erc20sSold, address recipient) public override returns (uint nativesBought) {... */\n    tag_71:\n        /* \"src/AquitardLPCore.0.0.1.sol\":2759:2777  uint nativesBought */\n      0x00\n        /* \"src/AquitardLPCore.0.0.1.sol\":2806:2839  getERC20ToNativePrice(erc20sSold) */\n      tag_281\n        /* \"src/AquitardLPCore.0.0.1.sol\":2828:2838  erc20sSold */\n      dup4\n        /* \"src/AquitardLPCore.0.0.1.sol\":2806:2827  getERC20ToNativePrice */\n      tag_108\n        /* \"src/AquitardLPCore.0.0.1.sol\":2806:2839  getERC20ToNativePrice(erc20sSold) */\n      jump\t// in\n    tag_281:\n        /* \"src/AquitardLPCore.0.0.1.sol\":2790:2839  nativesBought = getERC20ToNativePrice(erc20sSold) */\n      swap1\n      pop\n        /* \"src/AquitardLPCore.0.0.1.sol\":2922:2959  nativesBought / nativePurchasableRate */\n      tag_282\n      sub(shl(0x80, 0x01), 0x01)\n        /* \"src/AquitardLPCore.0.0.1.sol\":2938:2959  nativePurchasableRate */\n      immutable(\"0xe9e0475224745f570c2fa5a2212581dbb763b0b604cf1588d130cda3bdffbf52\")\n        /* \"src/AquitardLPCore.0.0.1.sol\":2922:2959  nativesBought / nativePurchasableRate */\n      and\n        /* \"src/AquitardLPCore.0.0.1.sol\":2790:2839  nativesBought = getERC20ToNativePrice(erc20sSold) */\n      dup3\n        /* \"src/AquitardLPCore.0.0.1.sol\":2922:2959  nativesBought / nativePurchasableRate */\n      tag_262\n      jump\t// in\n    tag_282:\n        /* \"src/AquitardLPCore.0.0.1.sol\":2897:2918  nativePurchasableTime */\n      0x00\n      0x00\n        /* \"src/AquitardLPCore.0.0.1.sol\":2897:2959  nativePurchasableTime += nativesBought / nativePurchasableRate */\n      dup3\n      dup3\n      sload\n      tag_283\n      swap2\n      swap1\n      tag_264\n      jump\t// in\n    tag_283:\n      swap1\n      swap2\n      sstore\n      pop\n      pop\n        /* \"src/AquitardLPCore.0.0.1.sol\":3000:3055  asset.transferFrom(msg.sender,address(this),erc20sSold) */\n      mload(0x40)\n      shl(0xe0, 0x23b872dd)\n      dup2\n      mstore\n      sub(shl(0xa0, 0x01), 0x01)\n        /* \"src/AquitardLPCore.0.0.1.sol\":3000:3005  asset */\n      immutable(\"0xb26b33956cf5e09b9bda3f13e0f5c76b73e9d24f4f4d5a58bdd9de6b8e0a4d8c\")\n        /* \"src/AquitardLPCore.0.0.1.sol\":3000:3018  asset.transferFrom */\n      and\n      swap1\n      0x23b872dd\n      swap1\n        /* \"src/AquitardLPCore.0.0.1.sol\":3000:3055  asset.transferFrom(msg.sender,address(this),erc20sSold) */\n      tag_284\n      swap1\n        /* \"src/AquitardLPCore.0.0.1.sol\":3019:3029  msg.sender */\n      caller\n      swap1\n        /* \"src/AquitardLPCore.0.0.1.sol\":3038:3042  this */\n      address\n      swap1\n        /* \"src/AquitardLPCore.0.0.1.sol\":3044:3054  erc20sSold */\n      dup9\n      swap1\n        /* \"src/AquitardLPCore.0.0.1.sol\":3000:3055  asset.transferFrom(msg.sender,address(this),erc20sSold) */\n      0x04\n      add\n      tag_285\n      jump\t// in\n    tag_284:\n      0x20\n      mload(0x40)\n      dup1\n      dup4\n      sub\n      dup2\n      0x00\n      dup8\n      gas\n      call\n      iszero\n      dup1\n      iszero\n      tag_287\n      jumpi\n      returndatacopy(0x00, 0x00, returndatasize)\n      revert(0x00, returndatasize)\n    tag_287:\n      pop\n      pop\n      pop\n      pop\n      mload(0x40)\n      returndatasize\n      not(0x1f)\n      0x1f\n      dup3\n      add\n      and\n      dup3\n      add\n      dup1\n      0x40\n      mstore\n      pop\n      dup2\n      add\n      swap1\n      tag_288\n      swap2\n      swap1\n      tag_251\n      jump\t// in\n    tag_288:\n      pop\n        /* \"src/AquitardLPCore.0.0.1.sol\":3067:3079  bool success */\n      0x00\n        /* \"src/AquitardLPCore.0.0.1.sol\":3084:3093  recipient */\n      dup3\n      sub(shl(0xa0, 0x01), 0x01)\n        /* \"src/AquitardLPCore.0.0.1.sol\":3084:3098  recipient.call */\n      and\n        /* \"src/AquitardLPCore.0.0.1.sol\":3105:3118  nativesBought */\n      dup3\n        /* \"src/AquitardLPCore.0.0.1.sol\":3084:3123  recipient.call{value:nativesBought}(\"\") */\n      mload(0x40)\n      0x00\n      mload(0x40)\n      dup1\n      dup4\n      sub\n      dup2\n      dup6\n      dup8\n      gas\n      call\n      swap3\n      pop\n      pop\n      pop\n      returndatasize\n      dup1\n      0x00\n      dup2\n      eq\n      tag_293\n      jumpi\n      mload(0x40)\n      swap2\n      pop\n      and(add(returndatasize, 0x3f), not(0x1f))\n      dup3\n      add\n      0x40\n      mstore\n      returndatasize\n      dup3\n      mstore\n      returndatasize\n      0x00\n      0x20\n      dup5\n      add\n      returndatacopy\n      jump(tag_292)\n    tag_293:\n      0x60\n      swap2\n      pop\n    tag_292:\n      pop\n        /* \"src/AquitardLPCore.0.0.1.sol\":3066:3123  (bool success,) = recipient.call{value:nativesBought}(\"\") */\n      pop\n      swap1\n      pop\n        /* \"src/AquitardLPCore.0.0.1.sol\":3142:3149  success */\n      dup1\n        /* \"src/AquitardLPCore.0.0.1.sol\":3134:3150  require(success) */\n      tag_294\n      jumpi\n      revert(0x00, 0x00)\n    tag_294:\n        /* \"src/AquitardLPCore.0.0.1.sol\":2779:3158  {... */\n      pop\n        /* \"src/AquitardLPCore.0.0.1.sol\":2671:3158  function erc20ToNativeSwap(uint erc20sSold, address recipient) public override returns (uint nativesBought) {... */\n      swap3\n      swap2\n      pop\n      pop\n      jump\t// out\n        /* \"https://github.com/Vectorized/solady/blob/main/src/tokens/ERC20.sol\":8175:9204  function approve(address spender, uint256 amount) public virtual returns (bool) {... */\n    tag_77:\n        /* \"https://github.com/Vectorized/solady/blob/main/src/tokens/ERC20.sol\":8249:8253  bool */\n      0x00\n        /* \"https://github.com/Vectorized/solady/blob/main/src/tokens/ERC20.sol\":8864:8871  spender */\n      dup3\n        /* \"https://github.com/Vectorized/solady/blob/main/src/tokens/ERC20.sol\":8858:8862  0x20 */\n      0x20\n        /* \"https://github.com/Vectorized/solady/blob/main/src/tokens/ERC20.sol\":8851:8872  mstore(0x20, spender) */\n      mstore\n        /* \"https://github.com/Vectorized/solady/blob/main/src/tokens/ERC20.sol\":8898:8918  _ALLOWANCE_SLOT_SEED */\n      0x7f5e9f20\n        /* \"https://github.com/Vectorized/solady/blob/main/src/tokens/ERC20.sol\":8892:8896  0x0c */\n      0x0c\n        /* \"https://github.com/Vectorized/solady/blob/main/src/tokens/ERC20.sol\":8885:8919  mstore(0x0c, _ALLOWANCE_SLOT_SEED) */\n      mstore\n        /* \"https://github.com/Vectorized/solady/blob/main/src/tokens/ERC20.sol\":8945:8953  caller() */\n      caller\n        /* \"https://github.com/Vectorized/solady/blob/main/src/tokens/ERC20.sol\":8939:8943  0x00 */\n      0x00\n        /* \"https://github.com/Vectorized/solady/blob/main/src/tokens/ERC20.sol\":8932:8954  mstore(0x00, caller()) */\n      mstore\n        /* \"https://github.com/Vectorized/solady/blob/main/src/tokens/ERC20.sol\":8997:9003  amount */\n      dup2\n        /* \"https://github.com/Vectorized/solady/blob/main/src/tokens/ERC20.sol\":8990:8994  0x34 */\n      0x34\n        /* \"https://github.com/Vectorized/solady/blob/main/src/tokens/ERC20.sol\":8984:8988  0x0c */\n      0x0c\n        /* \"https://github.com/Vectorized/solady/blob/main/src/tokens/ERC20.sol\":8974:8995  keccak256(0x0c, 0x34) */\n      keccak256\n        /* \"https://github.com/Vectorized/solady/blob/main/src/tokens/ERC20.sol\":8967:9004  sstore(keccak256(0x0c, 0x34), amount) */\n      sstore\n        /* \"https://github.com/Vectorized/solady/blob/main/src/tokens/ERC20.sol\":9072:9078  amount */\n      dup2\n        /* \"https://github.com/Vectorized/solady/blob/main/src/tokens/ERC20.sol\":9066:9070  0x00 */\n      0x00\n        /* \"https://github.com/Vectorized/solady/blob/main/src/tokens/ERC20.sol\":9059:9079  mstore(0x00, amount) */\n      mstore\n        /* \"https://github.com/Vectorized/solady/blob/main/src/tokens/ERC20.sol\":9160:9164  0x2c */\n      0x2c\n        /* \"https://github.com/Vectorized/solady/blob/main/src/tokens/ERC20.sol\":9154:9165  mload(0x2c) */\n      mload\n        /* \"https://github.com/Vectorized/solady/blob/main/src/tokens/ERC20.sol\":9150:9152  96 */\n      0x60\n        /* \"https://github.com/Vectorized/solady/blob/main/src/tokens/ERC20.sol\":9146:9166  shr(96, mload(0x2c)) */\n      shr\n        /* \"https://github.com/Vectorized/solady/blob/main/src/tokens/ERC20.sol\":9136:9144  caller() */\n      caller\n        /* \"https://github.com/Vectorized/solady/blob/main/src/tokens/ERC20.sol\":9109:9134  _APPROVAL_EVENT_SIGNATURE */\n      0x8c5be1e5ebec7d5bd14f71427d1e84f3dd0314c0f7b2291e5b200ac8c7c3b925\n        /* \"https://github.com/Vectorized/solady/blob/main/src/tokens/ERC20.sol\":9103:9107  0x20 */\n      0x20\n        /* \"https://github.com/Vectorized/solady/blob/main/src/tokens/ERC20.sol\":9097:9101  0x00 */\n      0x00\n        /* \"https://github.com/Vectorized/solady/blob/main/src/tokens/ERC20.sol\":9092:9167  log3(0x00, 0x20, _APPROVAL_EVENT_SIGNATURE, caller(), shr(96, mload(0x2c))) */\n      log3\n      pop\n        /* \"https://github.com/Vectorized/solady/blob/main/src/tokens/ERC20.sol\":9193:9197  true */\n      0x01\n        /* \"https://github.com/Vectorized/solady/blob/main/src/tokens/ERC20.sol\":8175:9204  function approve(address spender, uint256 amount) public virtual returns (bool) {... */\n      swap3\n      swap2\n      pop\n      pop\n      jump\t// out\n        /* \"src/SwapAbstract.sol\":814:961  function erc20ToNativeSwap(uint erc20sSold) public returns (uint nativesBought) {... */\n    tag_87:\n        /* \"src/SwapAbstract.sol\":874:892  uint nativesBought */\n      0x00\n        /* \"src/SwapAbstract.sol\":912:953  erc20ToNativeSwap(erc20sSold, msg.sender) */\n      tag_279\n        /* \"src/SwapAbstract.sol\":930:940  erc20sSold */\n      dup3\n        /* \"src/SwapAbstract.sol\":942:952  msg.sender */\n      caller\n        /* \"src/SwapAbstract.sol\":912:929  erc20ToNativeSwap */\n      tag_71\n        /* \"src/SwapAbstract.sol\":912:953  erc20ToNativeSwap(erc20sSold, msg.sender) */\n      jump\t// in\n        /* \"src/SwapAbstract.sol\":1270:1447  function erc20ToNativeSwap(uint erc20sSold, Permit2Sig calldata sig) external returns (uint nativesBought) {... */\n    tag_97:\n        /* \"src/SwapAbstract.sol\":1357:1375  uint nativesBought */\n      0x00\n        /* \"src/SwapAbstract.sol\":1395:1439  erc20ToNativeSwap(erc20sSold,msg.sender,sig) */\n      tag_304\n        /* \"src/SwapAbstract.sol\":1413:1423  erc20sSold */\n      dup4\n        /* \"src/SwapAbstract.sol\":1424:1434  msg.sender */\n      caller\n        /* \"src/SwapAbstract.sol\":1435:1438  sig */\n      dup5\n        /* \"src/SwapAbstract.sol\":1395:1412  erc20ToNativeSwap */\n      tag_229\n        /* \"src/SwapAbstract.sol\":1395:1439  erc20ToNativeSwap(erc20sSold,msg.sender,sig) */\n      jump\t// in\n    tag_304:\n        /* \"src/SwapAbstract.sol\":1388:1439  return erc20ToNativeSwap(erc20sSold,msg.sender,sig) */\n      swap4\n        /* \"src/SwapAbstract.sol\":1270:1447  function erc20ToNativeSwap(uint erc20sSold, Permit2Sig calldata sig) external returns (uint nativesBought) {... */\n      swap3\n      pop\n      pop\n      pop\n      jump\t// out\n        /* \"https://github.com/Vectorized/solady/blob/main/src/tokens/ERC20.sol\":11165:15918  function transferFrom(address from, address to, uint256 amount) public virtual returns (bool) {... */\n    tag_103:\n        /* \"https://github.com/Vectorized/solady/blob/main/src/tokens/ERC20.sol\":11253:11257  bool */\n      0x00\n        /* \"https://github.com/Vectorized/solady/blob/main/src/tokens/ERC20.sol\":13811:13815  from */\n      dup4\n        /* \"https://github.com/Vectorized/solady/blob/main/src/tokens/ERC20.sol\":13807:13809  96 */\n      0x60\n        /* \"https://github.com/Vectorized/solady/blob/main/src/tokens/ERC20.sol\":13803:13816  shl(96, from) */\n      shl\n        /* \"https://github.com/Vectorized/solady/blob/main/src/tokens/ERC20.sol\":13912:13920  caller() */\n      caller\n        /* \"https://github.com/Vectorized/solady/blob/main/src/tokens/ERC20.sol\":13906:13910  0x20 */\n      0x20\n        /* \"https://github.com/Vectorized/solady/blob/main/src/tokens/ERC20.sol\":13899:13921  mstore(0x20, caller()) */\n      mstore\n        /* \"https://github.com/Vectorized/solady/blob/main/src/tokens/ERC20.sol\":13961:13981  _ALLOWANCE_SLOT_SEED */\n      0x7f5e9f20\n        /* \"https://github.com/Vectorized/solady/blob/main/src/tokens/ERC20.sol\":13954:13959  from_ */\n      dup2\n        /* \"https://github.com/Vectorized/solady/blob/main/src/tokens/ERC20.sol\":13951:13982  or(from_, _ALLOWANCE_SLOT_SEED) */\n      or\n        /* \"https://github.com/Vectorized/solady/blob/main/src/tokens/ERC20.sol\":13945:13949  0x0c */\n      0x0c\n        /* \"https://github.com/Vectorized/solady/blob/main/src/tokens/ERC20.sol\":13938:13983  mstore(0x0c, or(from_, _ALLOWANCE_SLOT_SEED)) */\n      mstore\n        /* \"https://github.com/Vectorized/solady/blob/main/src/tokens/ERC20.sol\":14037:14041  0x34 */\n      0x34\n        /* \"https://github.com/Vectorized/solady/blob/main/src/tokens/ERC20.sol\":14031:14035  0x0c */\n      0x0c\n        /* \"https://github.com/Vectorized/solady/blob/main/src/tokens/ERC20.sol\":14021:14042  keccak256(0x0c, 0x34) */\n      keccak256\n        /* \"https://github.com/Vectorized/solady/blob/main/src/tokens/ERC20.sol\":14083:14096  allowanceSlot */\n      dup1\n        /* \"https://github.com/Vectorized/solady/blob/main/src/tokens/ERC20.sol\":14077:14097  sload(allowanceSlot) */\n      sload\n        /* \"https://github.com/Vectorized/solady/blob/main/src/tokens/ERC20.sol\":14191:14201  allowance_ */\n      dup1\n        /* \"https://github.com/Vectorized/solady/blob/main/src/tokens/ERC20.sol\":14187:14202  not(allowance_) */\n      not\n        /* \"https://github.com/Vectorized/solady/blob/main/src/tokens/ERC20.sol\":14184:14631  if not(allowance_) {... */\n      iszero\n      tag_315\n      jumpi\n        /* \"https://github.com/Vectorized/solady/blob/main/src/tokens/ERC20.sol\":14324:14334  allowance_ */\n      dup1\n        /* \"https://github.com/Vectorized/solady/blob/main/src/tokens/ERC20.sol\":14316:14322  amount */\n      dup6\n        /* \"https://github.com/Vectorized/solady/blob/main/src/tokens/ERC20.sol\":14313:14335  gt(amount, allowance_) */\n      gt\n        /* \"https://github.com/Vectorized/solady/blob/main/src/tokens/ERC20.sol\":14310:14481  if gt(amount, allowance_) {... */\n      iszero\n      tag_316\n      jumpi\n        /* \"https://github.com/Vectorized/solady/blob/main/src/tokens/ERC20.sol\":14375:14385  0x13be252b */\n      0x13be252b\n        /* \"https://github.com/Vectorized/solady/blob/main/src/tokens/ERC20.sol\":14369:14373  0x00 */\n      0x00\n        /* \"https://github.com/Vectorized/solady/blob/main/src/tokens/ERC20.sol\":14362:14386  mstore(0x00, 0x13be252b) */\n      mstore\n        /* \"https://github.com/Vectorized/solady/blob/main/src/tokens/ERC20.sol\":14454:14458  0x04 */\n      0x04\n        /* \"https://github.com/Vectorized/solady/blob/main/src/tokens/ERC20.sol\":14448:14452  0x1c */\n      0x1c\n        /* \"https://github.com/Vectorized/solady/blob/main/src/tokens/ERC20.sol\":14441:14459  revert(0x1c, 0x04) */\n      revert\n        /* \"https://github.com/Vectorized/solady/blob/main/src/tokens/ERC20.sol\":14310:14481  if gt(amount, allowance_) {... */\n    tag_316:\n        /* \"https://github.com/Vectorized/solady/blob/main/src/tokens/ERC20.sol\":14605:14611  amount */\n      dup5\n        /* \"https://github.com/Vectorized/solady/blob/main/src/tokens/ERC20.sol\":14593:14603  allowance_ */\n      dup2\n        /* \"https://github.com/Vectorized/solady/blob/main/src/tokens/ERC20.sol\":14589:14612  sub(allowance_, amount) */\n      sub\n        /* \"https://github.com/Vectorized/solady/blob/main/src/tokens/ERC20.sol\":14574:14587  allowanceSlot */\n      dup3\n        /* \"https://github.com/Vectorized/solady/blob/main/src/tokens/ERC20.sol\":14567:14613  sstore(allowanceSlot, sub(allowance_, amount)) */\n      sstore\n        /* \"https://github.com/Vectorized/solady/blob/main/src/tokens/ERC20.sol\":14184:14631  if not(allowance_) {... */\n    tag_315:\n      pop\n      pop\n        /* \"https://github.com/Vectorized/solady/blob/main/src/tokens/ERC20.sol\":14735:14753  _BALANCE_SLOT_SEED */\n      0x87a211a2\n        /* \"https://github.com/Vectorized/solady/blob/main/src/tokens/ERC20.sol\":14728:14733  from_ */\n      dup2\n        /* \"https://github.com/Vectorized/solady/blob/main/src/tokens/ERC20.sol\":14725:14754  or(from_, _BALANCE_SLOT_SEED) */\n      or\n        /* \"https://github.com/Vectorized/solady/blob/main/src/tokens/ERC20.sol\":14719:14723  0x0c */\n      0x0c\n        /* \"https://github.com/Vectorized/solady/blob/main/src/tokens/ERC20.sol\":14712:14755  mstore(0x0c, or(from_, _BALANCE_SLOT_SEED)) */\n      mstore\n        /* \"https://github.com/Vectorized/solady/blob/main/src/tokens/ERC20.sol\":14811:14815  0x20 */\n      0x20\n        /* \"https://github.com/Vectorized/solady/blob/main/src/tokens/ERC20.sol\":14805:14809  0x0c */\n      0x0c\n        /* \"https://github.com/Vectorized/solady/blob/main/src/tokens/ERC20.sol\":14795:14816  keccak256(0x0c, 0x20) */\n      keccak256\n        /* \"https://github.com/Vectorized/solady/blob/main/src/tokens/ERC20.sol\":14858:14873  fromBalanceSlot */\n      dup1\n        /* \"https://github.com/Vectorized/solady/blob/main/src/tokens/ERC20.sol\":14852:14874  sload(fromBalanceSlot) */\n      sload\n        /* \"https://github.com/Vectorized/solady/blob/main/src/tokens/ERC20.sol\":14956:14967  fromBalance */\n      dup1\n        /* \"https://github.com/Vectorized/solady/blob/main/src/tokens/ERC20.sol\":14948:14954  amount */\n      dup6\n        /* \"https://github.com/Vectorized/solady/blob/main/src/tokens/ERC20.sol\":14945:14968  gt(amount, fromBalance) */\n      gt\n        /* \"https://github.com/Vectorized/solady/blob/main/src/tokens/ERC20.sol\":14942:15100  if gt(amount, fromBalance) {... */\n      iszero\n      tag_317\n      jumpi\n        /* \"https://github.com/Vectorized/solady/blob/main/src/tokens/ERC20.sol\":15004:15014  0xf4d678b8 */\n      0xf4d678b8\n        /* \"https://github.com/Vectorized/solady/blob/main/src/tokens/ERC20.sol\":14998:15002  0x00 */\n      0x00\n        /* \"https://github.com/Vectorized/solady/blob/main/src/tokens/ERC20.sol\":14991:15015  mstore(0x00, 0xf4d678b8) */\n      mstore\n        /* \"https://github.com/Vectorized/solady/blob/main/src/tokens/ERC20.sol\":15077:15081  0x04 */\n      0x04\n        /* \"https://github.com/Vectorized/solady/blob/main/src/tokens/ERC20.sol\":15071:15075  0x1c */\n      0x1c\n        /* \"https://github.com/Vectorized/solady/blob/main/src/tokens/ERC20.sol\":15064:15082  revert(0x1c, 0x04) */\n      revert\n        /* \"https://github.com/Vectorized/solady/blob/main/src/tokens/ERC20.sol\":14942:15100  if gt(amount, fromBalance) {... */\n    tag_317:\n        /* \"https://github.com/Vectorized/solady/blob/main/src/tokens/ERC20.sol\":15217:15223  amount */\n      dup5\n        /* \"https://github.com/Vectorized/solady/blob/main/src/tokens/ERC20.sol\":15204:15215  fromBalance */\n      dup2\n        /* \"https://github.com/Vectorized/solady/blob/main/src/tokens/ERC20.sol\":15200:15224  sub(fromBalance, amount) */\n      sub\n        /* \"https://github.com/Vectorized/solady/blob/main/src/tokens/ERC20.sol\":15183:15198  fromBalanceSlot */\n      dup3\n        /* \"https://github.com/Vectorized/solady/blob/main/src/tokens/ERC20.sol\":15176:15225  sstore(fromBalanceSlot, sub(fromBalance, amount)) */\n      sstore\n      pop\n      pop\n        /* \"https://github.com/Vectorized/solady/blob/main/src/tokens/ERC20.sol\":15308:15310  to */\n      dup4\n        /* \"https://github.com/Vectorized/solady/blob/main/src/tokens/ERC20.sol\":15302:15306  0x00 */\n      0x00\n        /* \"https://github.com/Vectorized/solady/blob/main/src/tokens/ERC20.sol\":15295:15311  mstore(0x00, to) */\n      mstore\n        /* \"https://github.com/Vectorized/solady/blob/main/src/tokens/ERC20.sol\":15365:15369  0x20 */\n      0x20\n        /* \"https://github.com/Vectorized/solady/blob/main/src/tokens/ERC20.sol\":15359:15363  0x0c */\n      0x0c\n        /* \"https://github.com/Vectorized/solady/blob/main/src/tokens/ERC20.sol\":15349:15370  keccak256(0x0c, 0x20) */\n      keccak256\n        /* \"https://github.com/Vectorized/solady/blob/main/src/tokens/ERC20.sol\":15631:15637  amount */\n      dup4\n        /* \"https://github.com/Vectorized/solady/blob/main/src/tokens/ERC20.sol\":15615:15628  toBalanceSlot */\n      dup2\n        /* \"https://github.com/Vectorized/solady/blob/main/src/tokens/ERC20.sol\":15609:15629  sload(toBalanceSlot) */\n      sload\n        /* \"https://github.com/Vectorized/solady/blob/main/src/tokens/ERC20.sol\":15605:15638  add(sload(toBalanceSlot), amount) */\n      add\n        /* \"https://github.com/Vectorized/solady/blob/main/src/tokens/ERC20.sol\":15590:15603  toBalanceSlot */\n      dup2\n        /* \"https://github.com/Vectorized/solady/blob/main/src/tokens/ERC20.sol\":15583:15639  sstore(toBalanceSlot, add(sload(toBalanceSlot), amount)) */\n      sstore\n      pop\n        /* \"https://github.com/Vectorized/solady/blob/main/src/tokens/ERC20.sol\":15715:15721  amount */\n      dup3\n        /* \"https://github.com/Vectorized/solady/blob/main/src/tokens/ERC20.sol\":15709:15713  0x20 */\n      0x20\n        /* \"https://github.com/Vectorized/solady/blob/main/src/tokens/ERC20.sol\":15702:15722  mstore(0x20, amount) */\n      mstore\n        /* \"https://github.com/Vectorized/solady/blob/main/src/tokens/ERC20.sol\":15813:15817  0x0c */\n      0x0c\n        /* \"https://github.com/Vectorized/solady/blob/main/src/tokens/ERC20.sol\":15807:15818  mload(0x0c) */\n      mload\n        /* \"https://github.com/Vectorized/solady/blob/main/src/tokens/ERC20.sol\":15803:15805  96 */\n      0x60\n        /* \"https://github.com/Vectorized/solady/blob/main/src/tokens/ERC20.sol\":15799:15819  shr(96, mload(0x0c)) */\n      shr\n        /* \"https://github.com/Vectorized/solady/blob/main/src/tokens/ERC20.sol\":15791:15796  from_ */\n      dup2\n        /* \"https://github.com/Vectorized/solady/blob/main/src/tokens/ERC20.sol\":15787:15789  96 */\n      0x60\n        /* \"https://github.com/Vectorized/solady/blob/main/src/tokens/ERC20.sol\":15783:15797  shr(96, from_) */\n      shr\n      mload(0x00)\n      codecopy(0x00, data_ada389e1fc24a8587c776340efb91b36e675792ab631816100d55df0b5cf3cbc, 0x20)\n      mload(0x00)\n      swap1\n      0x00\n      mstore\n        /* \"https://github.com/Vectorized/solady/blob/main/src/tokens/ERC20.sol\":15750:15754  0x20 */\n      0x20\n        /* \"https://github.com/Vectorized/solady/blob/main/src/tokens/ERC20.sol\":15744:15748  0x20 */\n      dup1\n        /* \"https://github.com/Vectorized/solady/blob/main/src/tokens/ERC20.sol\":15739:15820  log3(0x20, 0x20, _TRANSFER_EVENT_SIGNATURE, shr(96, from_), shr(96, mload(0x0c))) */\n      log3\n      pop\n      pop\n        /* \"https://github.com/Vectorized/solady/blob/main/src/tokens/ERC20.sol\":15907:15911  true */\n      0x01\n        /* \"https://github.com/Vectorized/solady/blob/main/src/tokens/ERC20.sol\":11165:15918  function transferFrom(address from, address to, uint256 amount) public virtual returns (bool) {... */\n      swap4\n      swap3\n      pop\n      pop\n      pop\n      jump\t// out\n        /* \"src/ExchangeAbstract.sol\":1177:1491  function getERC20ToNativePrice(uint erc20sSold) public override view returns (uint nativesBought) {... */\n    tag_108:\n        /* \"src/ExchangeAbstract.sol\":1255:1273  uint nativesBought */\n      0x00\n        /* \"src/ExchangeAbstract.sol\":1339:1366  erc20Inhibitor + erc20sSold */\n      tag_321\n        /* \"src/ExchangeAbstract.sol\":1356:1366  erc20sSold */\n      dup3\n      sub(shl(0x80, 0x01), 0x01)\n        /* \"src/ExchangeAbstract.sol\":1339:1353  erc20Inhibitor */\n      immutable(\"0x294a915770f1abdd270970c5c5e0116f353ee0443c415452cffb70311418f069\")\n        /* \"src/ExchangeAbstract.sol\":1339:1366  erc20Inhibitor + erc20sSold */\n      and\n      tag_264\n      jump\t// in\n    tag_321:\n        /* \"src/ExchangeAbstract.sol\":1325:1335  erc20sSold */\n      dup3\n        /* \"src/ExchangeAbstract.sol\":1302:1322  purchasableNatives() */\n      tag_322\n        /* \"src/ExchangeAbstract.sol\":1302:1320  purchasableNatives */\n      tag_181\n        /* \"src/ExchangeAbstract.sol\":1302:1322  purchasableNatives() */\n      jump\t// in\n    tag_322:\n        /* \"src/ExchangeAbstract.sol\":1302:1335  purchasableNatives() * erc20sSold */\n      tag_323\n      swap2\n      swap1\n      tag_278\n      jump\t// in\n    tag_323:\n        /* \"src/ExchangeAbstract.sol\":1302:1367  purchasableNatives() * erc20sSold / (erc20Inhibitor + erc20sSold) */\n      tag_324\n      swap2\n      swap1\n      tag_262\n      jump\t// in\n    tag_324:\n        /* \"src/ExchangeAbstract.sol\":1286:1367  nativesBought = purchasableNatives() * erc20sSold / (erc20Inhibitor + erc20sSold) */\n      swap1\n      pop\n        /* \"src/ExchangeAbstract.sol\":1405:1418  nativesBought */\n      dup1\n        /* \"src/ExchangeAbstract.sol\":1381:1402  address(this).balance */\n      selfbalance\n        /* \"src/ExchangeAbstract.sol\":1381:1418  address(this).balance < nativesBought */\n      lt\n        /* \"src/ExchangeAbstract.sol\":1378:1484  if(address(this).balance < nativesBought) {... */\n      iszero\n      tag_325\n      jumpi\n      pop\n        /* \"src/ExchangeAbstract.sol\":1451:1472  address(this).balance */\n      selfbalance\n        /* \"src/ExchangeAbstract.sol\":1378:1484  if(address(this).balance < nativesBought) {... */\n    tag_325:\n        /* \"src/ExchangeAbstract.sol\":1177:1491  function getERC20ToNativePrice(uint erc20sSold) public override view returns (uint nativesBought) {... */\n      swap2\n      swap1\n      pop\n      jump\t// out\n        /* \"https://github.com/Vectorized/solady/blob/main/src/tokens/ERC20.sol\":21458:22195  function DOMAIN_SEPARATOR() public view virtual returns (bytes32 result) {... */\n    tag_117:\n        /* \"https://github.com/Vectorized/solady/blob/main/src/tokens/ERC20.sol\":21515:21529  bytes32 result */\n      0x00\n      dup1\n        /* \"https://github.com/Vectorized/solady/blob/main/src/tokens/ERC20.sol\":21738:21744  name() */\n      tag_331\n        /* \"https://github.com/Vectorized/solady/blob/main/src/tokens/ERC20.sol\":21738:21742  name */\n      tag_58\n        /* \"https://github.com/Vectorized/solady/blob/main/src/tokens/ERC20.sol\":21738:21744  name() */\n      jump\t// in\n    tag_331:\n        /* \"https://github.com/Vectorized/solady/blob/main/src/tokens/ERC20.sol\":21722:21746  keccak256(bytes(name())) */\n      dup1\n      mload\n      swap1\n      0x20\n      add\n      keccak256\n        /* \"https://github.com/Vectorized/solady/blob/main/src/tokens/ERC20.sol\":21711:21746  nameHash = keccak256(bytes(name())) */\n      swap1\n      pop\n        /* \"https://github.com/Vectorized/solady/blob/main/src/tokens/ERC20.sol\":21883:21887  0x40 */\n      0x40\n        /* \"https://github.com/Vectorized/solady/blob/main/src/tokens/ERC20.sol\":21877:21888  mload(0x40) */\n      dup1\n      mload\n        /* \"https://github.com/Vectorized/solady/blob/main/src/tokens/ERC20.sol\":21944:21960  _DOMAIN_TYPEHASH */\n      0x8b73c3c69bb8fe3d512ecc4cf759cc79239f7b179b0ffacaa9a75d522b39400f\n        /* \"https://github.com/Vectorized/solady/blob/main/src/tokens/ERC20.sol\":21934:21961  mstore(m, _DOMAIN_TYPEHASH) */\n      dup2\n      mstore\n        /* \"https://github.com/Vectorized/solady/blob/main/src/tokens/ERC20.sol\":21988:21992  0x20 */\n      0x20\n        /* \"https://github.com/Vectorized/solady/blob/main/src/tokens/ERC20.sol\":21981:21993  add(m, 0x20) */\n      dup2\n      add\n        /* \"https://github.com/Vectorized/solady/blob/main/src/tokens/ERC20.sol\":21974:22004  mstore(add(m, 0x20), nameHash) */\n      swap3\n      swap1\n      swap3\n      mstore\n        /* \"https://github.com/Vectorized/solady/blob/main/src/tokens/ERC20.sol\":5177:5243  0xc89efdaa54c0f20c7adf612882df0950f5a951637e0307cdcb4c672f298b8bc6 */\n      0xc89efdaa54c0f20c7adf612882df0950f5a951637e0307cdcb4c672f298b8bc6\n        /* \"https://github.com/Vectorized/solady/blob/main/src/tokens/ERC20.sol\":22024:22036  add(m, 0x40) */\n      swap1\n      dup3\n      add\n        /* \"https://github.com/Vectorized/solady/blob/main/src/tokens/ERC20.sol\":22017:22050  mstore(add(m, 0x40), versionHash) */\n      mstore\n        /* \"https://github.com/Vectorized/solady/blob/main/src/tokens/ERC20.sol\":22084:22093  chainid() */\n      chainid\n        /* \"https://github.com/Vectorized/solady/blob/main/src/tokens/ERC20.sol\":22077:22081  0x60 */\n      0x60\n        /* \"https://github.com/Vectorized/solady/blob/main/src/tokens/ERC20.sol\":22070:22082  add(m, 0x60) */\n      dup3\n      add\n        /* \"https://github.com/Vectorized/solady/blob/main/src/tokens/ERC20.sol\":22063:22094  mstore(add(m, 0x60), chainid()) */\n      mstore\n        /* \"https://github.com/Vectorized/solady/blob/main/src/tokens/ERC20.sol\":22128:22137  address() */\n      address\n        /* \"https://github.com/Vectorized/solady/blob/main/src/tokens/ERC20.sol\":22121:22125  0x80 */\n      0x80\n        /* \"https://github.com/Vectorized/solady/blob/main/src/tokens/ERC20.sol\":22114:22126  add(m, 0x80) */\n      dup3\n      add\n        /* \"https://github.com/Vectorized/solady/blob/main/src/tokens/ERC20.sol\":22107:22138  mstore(add(m, 0x80), address()) */\n      mstore\n        /* \"https://github.com/Vectorized/solady/blob/main/src/tokens/ERC20.sol\":22174:22178  0xa0 */\n      0xa0\n        /* \"https://github.com/Vectorized/solady/blob/main/src/tokens/ERC20.sol\":22161:22179  keccak256(m, 0xa0) */\n      swap1\n      keccak256\n      swap2\n      swap1\n      pop\n        /* \"https://github.com/Vectorized/solady/blob/main/src/tokens/ERC20.sol\":21458:22195  function DOMAIN_SEPARATOR() public view virtual returns (bytes32 result) {... */\n      jump\t// out\n        /* \"src/AquitardLPCore.0.0.1.sol\":5397:5509  function previewRedeem(uint shares) public view returns (uint) {... */\n    tag_141:\n        /* \"src/AquitardLPCore.0.0.1.sol\":5454:5458  uint */\n      0x00\n        /* \"src/AquitardLPCore.0.0.1.sol\":5478:5501  convertToAssets(shares) */\n      tag_279\n        /* \"src/AquitardLPCore.0.0.1.sol\":5494:5500  shares */\n      dup3\n        /* \"src/AquitardLPCore.0.0.1.sol\":5478:5493  convertToAssets */\n      tag_65\n        /* \"src/AquitardLPCore.0.0.1.sol\":5478:5501  convertToAssets(shares) */\n      jump\t// in\n        /* \"src/AquitardLPCore.0.0.1.sol\":3687:4340  function deposit(uint assets, address receiver) payable public returns (uint shares) {... */\n    tag_149:\n        /* \"src/AquitardLPCore.0.0.1.sol\":3759:3770  uint shares */\n      0x00\n        /* \"src/AquitardLPCore.0.0.1.sol\":3792:3814  previewDeposit(assets) */\n      tag_337\n        /* \"src/AquitardLPCore.0.0.1.sol\":3807:3813  assets */\n      dup4\n        /* \"src/AquitardLPCore.0.0.1.sol\":3792:3806  previewDeposit */\n      tag_239\n        /* \"src/AquitardLPCore.0.0.1.sol\":3792:3814  previewDeposit(assets) */\n      jump\t// in\n    tag_337:\n        /* \"src/AquitardLPCore.0.0.1.sol\":3887:3917  asset.balanceOf(address(this)) */\n      mload(0x40)\n      shl(0xe0, 0x70a08231)\n      dup2\n      mstore\n        /* \"src/AquitardLPCore.0.0.1.sol\":3911:3915  this */\n      address\n        /* \"src/AquitardLPCore.0.0.1.sol\":3887:3917  asset.balanceOf(address(this)) */\n      0x04\n      dup3\n      add\n        /* \"#utility.yul\":4348:4399   */\n      mstore\n        /* \"src/AquitardLPCore.0.0.1.sol\":3783:3814  shares = previewDeposit(assets) */\n      swap1\n      swap2\n      pop\n        /* \"src/AquitardLPCore.0.0.1.sol\":3825:3837  uint natives */\n      0x00\n      swap1\n      sub(shl(0xa0, 0x01), 0x01)\n        /* \"src/AquitardLPCore.0.0.1.sol\":3887:3892  asset */\n      immutable(\"0xb26b33956cf5e09b9bda3f13e0f5c76b73e9d24f4f4d5a58bdd9de6b8e0a4d8c\")\n        /* \"src/AquitardLPCore.0.0.1.sol\":3887:3902  asset.balanceOf */\n      and\n      swap1\n      0x70a08231\n      swap1\n        /* \"#utility.yul\":4321:4339   */\n      0x24\n      add\n        /* \"src/AquitardLPCore.0.0.1.sol\":3887:3917  asset.balanceOf(address(this)) */\n      0x20\n      mload(0x40)\n      dup1\n      dup4\n      sub\n      dup2\n      dup7\n      gas\n      staticcall\n      iszero\n      dup1\n      iszero\n      tag_340\n      jumpi\n      returndatacopy(0x00, 0x00, returndatasize)\n      revert(0x00, returndatasize)\n    tag_340:\n      pop\n      pop\n      pop\n      pop\n      mload(0x40)\n      returndatasize\n      not(0x1f)\n      0x1f\n      dup3\n      add\n      and\n      dup3\n      add\n      dup1\n      0x40\n      mstore\n      pop\n      dup2\n      add\n      swap1\n      tag_341\n      swap2\n      swap1\n      tag_256\n      jump\t// in\n    tag_341:\n        /* \"src/AquitardLPCore.0.0.1.sol\":3878:3884  assets */\n      dup5\n        /* \"src/AquitardLPCore.0.0.1.sol\":3841:3874  address(this).balance - msg.value */\n      tag_342\n        /* \"src/AquitardLPCore.0.0.1.sol\":3865:3874  msg.value */\n      callvalue\n        /* \"src/AquitardLPCore.0.0.1.sol\":3841:3862  address(this).balance */\n      selfbalance\n        /* \"src/AquitardLPCore.0.0.1.sol\":3841:3874  address(this).balance - msg.value */\n      tag_258\n      jump\t// in\n    tag_342:\n        /* \"src/AquitardLPCore.0.0.1.sol\":3840:3884  (address(this).balance - msg.value) * assets */\n      tag_343\n      swap2\n      swap1\n      tag_278\n      jump\t// in\n    tag_343:\n        /* \"src/AquitardLPCore.0.0.1.sol\":3840:3917  (address(this).balance - msg.value) * assets / asset.balanceOf(address(this)) */\n      tag_344\n      swap2\n      swap1\n      tag_262\n      jump\t// in\n    tag_344:\n        /* \"src/AquitardLPCore.0.0.1.sol\":3825:3917  uint natives = (address(this).balance - msg.value) * assets / asset.balanceOf(address(this)) */\n      swap1\n      pop\n        /* \"src/AquitardLPCore.0.0.1.sol\":3952:3961  uint diff */\n      0x00\n        /* \"src/AquitardLPCore.0.0.1.sol\":3964:3983  msg.value - natives */\n      tag_345\n        /* \"src/AquitardLPCore.0.0.1.sol\":3825:3917  uint natives = (address(this).balance - msg.value) * assets / asset.balanceOf(address(this)) */\n      dup3\n        /* \"src/AquitardLPCore.0.0.1.sol\":3964:3973  msg.value */\n      callvalue\n        /* \"src/AquitardLPCore.0.0.1.sol\":3964:3983  msg.value - natives */\n      tag_258\n      jump\t// in\n    tag_345:\n        /* \"src/AquitardLPCore.0.0.1.sol\":3952:3983  uint diff = msg.value - natives */\n      swap1\n      pop\n        /* \"src/AquitardLPCore.0.0.1.sol\":4019:4041  _mint(receiver,shares) */\n      tag_346\n        /* \"src/AquitardLPCore.0.0.1.sol\":4025:4033  receiver */\n      dup5\n        /* \"src/AquitardLPCore.0.0.1.sol\":4034:4040  shares */\n      dup5\n        /* \"src/AquitardLPCore.0.0.1.sol\":4019:4024  _mint */\n      tag_347\n        /* \"src/AquitardLPCore.0.0.1.sol\":4019:4041  _mint(receiver,shares) */\n      jump\t// in\n    tag_346:\n        /* \"src/AquitardLPCore.0.0.1.sol\":4082:4133  asset.transferFrom(msg.sender,address(this),assets) */\n      mload(0x40)\n      shl(0xe0, 0x23b872dd)\n      dup2\n      mstore\n      sub(shl(0xa0, 0x01), 0x01)\n        /* \"src/AquitardLPCore.0.0.1.sol\":4082:4087  asset */\n      immutable(\"0xb26b33956cf5e09b9bda3f13e0f5c76b73e9d24f4f4d5a58bdd9de6b8e0a4d8c\")\n        /* \"src/AquitardLPCore.0.0.1.sol\":4082:4100  asset.transferFrom */\n      and\n      swap1\n      0x23b872dd\n      swap1\n        /* \"src/AquitardLPCore.0.0.1.sol\":4082:4133  asset.transferFrom(msg.sender,address(this),assets) */\n      tag_348\n      swap1\n        /* \"src/AquitardLPCore.0.0.1.sol\":4101:4111  msg.sender */\n      caller\n      swap1\n        /* \"src/AquitardLPCore.0.0.1.sol\":4120:4124  this */\n      address\n      swap1\n        /* \"src/AquitardLPCore.0.0.1.sol\":4126:4132  assets */\n      dup11\n      swap1\n        /* \"src/AquitardLPCore.0.0.1.sol\":4082:4133  asset.transferFrom(msg.sender,address(this),assets) */\n      0x04\n      add\n      tag_285\n      jump\t// in\n    tag_348:\n      0x20\n      mload(0x40)\n      dup1\n      dup4\n      sub\n      dup2\n      0x00\n      dup8\n      gas\n      call\n      iszero\n      dup1\n      iszero\n      tag_350\n      jumpi\n      returndatacopy(0x00, 0x00, returndatasize)\n      revert(0x00, returndatasize)\n    tag_350:\n      pop\n      pop\n      pop\n      pop\n      mload(0x40)\n      returndatasize\n      not(0x1f)\n      0x1f\n      dup3\n      add\n      and\n      dup3\n      add\n      dup1\n      0x40\n      mstore\n      pop\n      dup2\n      add\n      swap1\n      tag_351\n      swap2\n      swap1\n      tag_251\n      jump\t// in\n    tag_351:\n      pop\n        /* \"src/AquitardLPCore.0.0.1.sol\":4157:4165  diff > 0 */\n      dup1\n      iszero\n        /* \"src/AquitardLPCore.0.0.1.sol\":4154:4273  if(diff > 0) {... */\n      tag_352\n      jumpi\n        /* \"src/AquitardLPCore.0.0.1.sol\":4183:4195  bool success */\n      0x00\n        /* \"src/AquitardLPCore.0.0.1.sol\":4200:4208  receiver */\n      dup5\n      sub(shl(0xa0, 0x01), 0x01)\n        /* \"src/AquitardLPCore.0.0.1.sol\":4200:4213  receiver.call */\n      and\n        /* \"src/AquitardLPCore.0.0.1.sol\":4221:4225  diff */\n      dup3\n        /* \"src/AquitardLPCore.0.0.1.sol\":4200:4230  receiver.call{value: diff}(\"\") */\n      mload(0x40)\n      0x00\n      mload(0x40)\n      dup1\n      dup4\n      sub\n      dup2\n      dup6\n      dup8\n      gas\n      call\n      swap3\n      pop\n      pop\n      pop\n      returndatasize\n      dup1\n      0x00\n      dup2\n      eq\n      tag_356\n      jumpi\n      mload(0x40)\n      swap2\n      pop\n      and(add(returndatasize, 0x3f), not(0x1f))\n      dup3\n      add\n      0x40\n      mstore\n      returndatasize\n      dup3\n      mstore\n      returndatasize\n      0x00\n      0x20\n      dup5\n      add\n      returndatacopy\n      jump(tag_355)\n    tag_356:\n      0x60\n      swap2\n      pop\n    tag_355:\n      pop\n        /* \"src/AquitardLPCore.0.0.1.sol\":4182:4230  (bool success,) = receiver.call{value: diff}(\"\") */\n      pop\n      swap1\n      pop\n        /* \"src/AquitardLPCore.0.0.1.sol\":4253:4260  success */\n      dup1\n        /* \"src/AquitardLPCore.0.0.1.sol\":4245:4261  require(success) */\n      tag_357\n      jumpi\n      revert(0x00, 0x00)\n    tag_357:\n        /* \"src/AquitardLPCore.0.0.1.sol\":4167:4273  {... */\n      pop\n        /* \"src/AquitardLPCore.0.0.1.sol\":4154:4273  if(diff > 0) {... */\n    tag_352:\n        /* \"src/AquitardLPCore.0.0.1.sol\":4290:4332  Deposit(msg.sender,receiver,assets,shares) */\n      0x40\n      dup1\n      mload\n        /* \"#utility.yul\":9801:9826   */\n      dup7\n      dup2\n      mstore\n        /* \"#utility.yul\":9857:9859   */\n      0x20\n        /* \"#utility.yul\":9842:9860   */\n      dup2\n      add\n        /* \"#utility.yul\":9835:9869   */\n      dup6\n      swap1\n      mstore\n      sub(shl(0xa0, 0x01), 0x01)\n        /* \"src/AquitardLPCore.0.0.1.sol\":4290:4332  Deposit(msg.sender,receiver,assets,shares) */\n      dup7\n      and\n      swap2\n        /* \"src/AquitardLPCore.0.0.1.sol\":4298:4308  msg.sender */\n      caller\n      swap2\n      mload(0x00)\n      codecopy(0x00, data_f153f45295e6c417ef2e31903186ee1a5d0c2546461fb67769dfe29ae5912c6f, 0x20)\n      mload(0x00)\n      swap1\n      0x00\n      mstore\n        /* \"src/AquitardLPCore.0.0.1.sol\":4290:4332  Deposit(msg.sender,receiver,assets,shares) */\n      swap2\n        /* \"#utility.yul\":9774:9792   */\n      add\n        /* \"src/AquitardLPCore.0.0.1.sol\":4290:4332  Deposit(msg.sender,receiver,assets,shares) */\n      mload(0x40)\n      dup1\n      swap2\n      sub\n      swap1\n      log3\n        /* \"src/AquitardLPCore.0.0.1.sol\":3772:4340  {... */\n      pop\n      pop\n        /* \"src/AquitardLPCore.0.0.1.sol\":3687:4340  function deposit(uint assets, address receiver) payable public returns (uint shares) {... */\n      swap3\n      swap2\n      pop\n      pop\n      jump\t// out\n        /* \"src/ExchangeAbstract.sol\":1024:1169  function purchasableERC20s() public view returns (uint) {... */\n    tag_164:\n        /* \"src/ExchangeAbstract.sol\":1074:1078  uint */\n      0x00\n        /* \"src/ExchangeAbstract.sol\":1141:1161  erc20PurchasableRate */\n      immutable(\"0x29f8d1998cd4186678d0085cd54072aeefd05bc476ef1844361510d857ac074b\")\n      sub(shl(0x80, 0x01), 0x01)\n        /* \"src/ExchangeAbstract.sol\":1098:1161  (block.timestamp - erc20PurchasableTime) * erc20PurchasableRate */\n      and\n        /* \"src/ExchangeAbstract.sol\":1117:1137  erc20PurchasableTime */\n      sload(0x01)\n        /* \"src/ExchangeAbstract.sol\":1099:1114  block.timestamp */\n      timestamp\n        /* \"src/ExchangeAbstract.sol\":1099:1137  block.timestamp - erc20PurchasableTime */\n      tag_363\n      swap2\n      swap1\n      tag_258\n      jump\t// in\n    tag_363:\n        /* \"src/ExchangeAbstract.sol\":1098:1161  (block.timestamp - erc20PurchasableTime) * erc20PurchasableRate */\n      tag_364\n      swap2\n      swap1\n      tag_278\n      jump\t// in\n    tag_364:\n        /* \"src/ExchangeAbstract.sol\":1091:1161  return (block.timestamp - erc20PurchasableTime) * erc20PurchasableRate */\n      swap1\n      pop\n        /* \"src/ExchangeAbstract.sol\":1024:1169  function purchasableERC20s() public view returns (uint) {... */\n      swap1\n      jump\t// out\n        /* \"src/ExchangeAbstract.sol\":1499:2017  function nativeToERC20Swap(SwapAbstract sa, uint natives, address receiver) external returns (uint earned) {... */\n    tag_169:\n        /* \"src/ExchangeAbstract.sol\":1637:1667  asset.balanceOf(address(this)) */\n      mload(0x40)\n      shl(0xe0, 0x70a08231)\n      dup2\n      mstore\n        /* \"src/ExchangeAbstract.sol\":1661:1665  this */\n      address\n        /* \"src/ExchangeAbstract.sol\":1637:1667  asset.balanceOf(address(this)) */\n      0x04\n      dup3\n      add\n        /* \"#utility.yul\":4348:4399   */\n      mstore\n        /* \"src/ExchangeAbstract.sol\":1593:1604  uint earned */\n      0x00\n      swap1\n      dup2\n      swap1\n      sub(shl(0xa0, 0x01), 0x01)\n        /* \"src/ExchangeAbstract.sol\":1637:1642  asset */\n      immutable(\"0xb26b33956cf5e09b9bda3f13e0f5c76b73e9d24f4f4d5a58bdd9de6b8e0a4d8c\")\n        /* \"src/ExchangeAbstract.sol\":1637:1652  asset.balanceOf */\n      and\n      swap1\n      0x70a08231\n      swap1\n        /* \"#utility.yul\":4321:4339   */\n      0x24\n      add\n        /* \"src/ExchangeAbstract.sol\":1637:1667  asset.balanceOf(address(this)) */\n      0x20\n      mload(0x40)\n      dup1\n      dup4\n      sub\n      dup2\n      dup7\n      gas\n      staticcall\n      iszero\n      dup1\n      iszero\n      tag_368\n      jumpi\n      returndatacopy(0x00, 0x00, returndatasize)\n      revert(0x00, returndatasize)\n    tag_368:\n      pop\n      pop\n      pop\n      pop\n      mload(0x40)\n      returndatasize\n      not(0x1f)\n      0x1f\n      dup3\n      add\n      and\n      dup3\n      add\n      dup1\n      0x40\n      mstore\n      pop\n      dup2\n      add\n      swap1\n      tag_369\n      swap2\n      swap1\n      tag_256\n      jump\t// in\n    tag_369:\n        /* \"src/ExchangeAbstract.sol\":1617:1667  uint startBalance = asset.balanceOf(address(this)) */\n      swap1\n      pop\n        /* \"src/ExchangeAbstract.sol\":1678:1680  sa */\n      dup5\n      sub(shl(0xa0, 0x01), 0x01)\n        /* \"src/ExchangeAbstract.sol\":1678:1698  sa.nativeToERC20Swap */\n      and\n      0xaea1e3d1\n        /* \"src/ExchangeAbstract.sol\":1705:1712  natives */\n      dup6\n        /* \"src/ExchangeAbstract.sol\":1678:1715  sa.nativeToERC20Swap{value:natives}() */\n      mload(0x40)\n      dup3\n      0xffffffff\n      and\n      0xe0\n      shl\n      dup2\n      mstore\n      0x04\n      add\n      0x20\n      mload(0x40)\n      dup1\n      dup4\n      sub\n      dup2\n      dup6\n      dup9\n      gas\n      call\n      iszero\n      dup1\n      iszero\n      tag_371\n      jumpi\n      returndatacopy(0x00, 0x00, returndatasize)\n      revert(0x00, returndatasize)\n    tag_371:\n      pop\n      pop\n      pop\n      pop\n      pop\n      mload(0x40)\n      returndatasize\n      not(0x1f)\n      0x1f\n      dup3\n      add\n      and\n      dup3\n      add\n      dup1\n      0x40\n      mstore\n      pop\n      dup2\n      add\n      swap1\n      tag_372\n      swap2\n      swap1\n      tag_256\n      jump\t// in\n    tag_372:\n      pop\n        /* \"src/ExchangeAbstract.sol\":1740:1770  asset.balanceOf(address(this)) */\n      mload(0x40)\n      shl(0xe0, 0x70a08231)\n      dup2\n      mstore\n        /* \"src/ExchangeAbstract.sol\":1764:1768  this */\n      address\n        /* \"src/ExchangeAbstract.sol\":1740:1770  asset.balanceOf(address(this)) */\n      0x04\n      dup3\n      add\n        /* \"#utility.yul\":4348:4399   */\n      mstore\n        /* \"src/ExchangeAbstract.sol\":1726:1737  uint assets */\n      0x00\n      swap1\n        /* \"src/ExchangeAbstract.sol\":1773:1785  startBalance */\n      dup3\n      swap1\n      sub(shl(0xa0, 0x01), 0x01)\n        /* \"src/ExchangeAbstract.sol\":1740:1745  asset */\n      immutable(\"0xb26b33956cf5e09b9bda3f13e0f5c76b73e9d24f4f4d5a58bdd9de6b8e0a4d8c\")\n        /* \"src/ExchangeAbstract.sol\":1740:1755  asset.balanceOf */\n      and\n      swap1\n      0x70a08231\n      swap1\n        /* \"#utility.yul\":4321:4339   */\n      0x24\n      add\n        /* \"src/ExchangeAbstract.sol\":1740:1770  asset.balanceOf(address(this)) */\n      0x20\n      mload(0x40)\n      dup1\n      dup4\n      sub\n      dup2\n      dup7\n      gas\n      staticcall\n      iszero\n      dup1\n      iszero\n      tag_375\n      jumpi\n      returndatacopy(0x00, 0x00, returndatasize)\n      revert(0x00, returndatasize)\n    tag_375:\n      pop\n      pop\n      pop\n      pop\n      mload(0x40)\n      returndatasize\n      not(0x1f)\n      0x1f\n      dup3\n      add\n      and\n      dup3\n      add\n      dup1\n      0x40\n      mstore\n      pop\n      dup2\n      add\n      swap1\n      tag_376\n      swap2\n      swap1\n      tag_256\n      jump\t// in\n    tag_376:\n        /* \"src/ExchangeAbstract.sol\":1740:1785  asset.balanceOf(address(this)) - startBalance */\n      tag_377\n      swap2\n      swap1\n      tag_258\n      jump\t// in\n    tag_377:\n        /* \"src/ExchangeAbstract.sol\":1726:1785  uint assets = asset.balanceOf(address(this)) - startBalance */\n      swap1\n      pop\n        /* \"src/ExchangeAbstract.sol\":1839:1846  natives */\n      dup5\n        /* \"src/ExchangeAbstract.sol\":1807:1836  getERC20ToNativePrice(assets) */\n      tag_378\n        /* \"src/ExchangeAbstract.sol\":1829:1835  assets */\n      dup3\n        /* \"src/ExchangeAbstract.sol\":1807:1828  getERC20ToNativePrice */\n      tag_108\n        /* \"src/ExchangeAbstract.sol\":1807:1836  getERC20ToNativePrice(assets) */\n      jump\t// in\n    tag_378:\n        /* \"src/ExchangeAbstract.sol\":1807:1846  getERC20ToNativePrice(assets) - natives */\n      tag_379\n      swap2\n      swap1\n      tag_258\n      jump\t// in\n    tag_379:\n        /* \"src/ExchangeAbstract.sol\":1798:1846  earned = getERC20ToNativePrice(assets) - natives */\n      swap3\n      pop\n        /* \"src/ExchangeAbstract.sol\":1882:1912  earned / nativePurchasableRate */\n      tag_380\n      sub(shl(0x80, 0x01), 0x01)\n        /* \"src/ExchangeAbstract.sol\":1891:1912  nativePurchasableRate */\n      immutable(\"0xe9e0475224745f570c2fa5a2212581dbb763b0b604cf1588d130cda3bdffbf52\")\n        /* \"src/ExchangeAbstract.sol\":1882:1912  earned / nativePurchasableRate */\n      and\n        /* \"src/ExchangeAbstract.sol\":1798:1846  earned = getERC20ToNativePrice(assets) - natives */\n      dup5\n        /* \"src/ExchangeAbstract.sol\":1882:1912  earned / nativePurchasableRate */\n      tag_262\n      jump\t// in\n    tag_380:\n        /* \"src/ExchangeAbstract.sol\":1857:1878  nativePurchasableTime */\n      0x00\n      0x00\n        /* \"src/ExchangeAbstract.sol\":1857:1912  nativePurchasableTime += earned / nativePurchasableRate */\n      dup3\n      dup3\n      sload\n      tag_381\n      swap2\n      swap1\n      tag_264\n      jump\t// in\n    tag_381:\n      swap1\n      swap2\n      sstore\n      pop\n      pop\n        /* \"src/ExchangeAbstract.sol\":1951:1982  receiver.call{value:earned}(\"\") */\n      mload(0x40)\n        /* \"src/ExchangeAbstract.sol\":1934:1946  bool success */\n      0x00\n      swap1\n      sub(shl(0xa0, 0x01), 0x01)\n        /* \"src/ExchangeAbstract.sol\":1951:1964  receiver.call */\n      dup7\n      and\n      swap1\n        /* \"src/ExchangeAbstract.sol\":1971:1977  earned */\n      dup6\n      swap1\n        /* \"src/ExchangeAbstract.sol\":1934:1946  bool success */\n      dup4\n        /* \"src/ExchangeAbstract.sol\":1951:1982  receiver.call{value:earned}(\"\") */\n      dup2\n        /* \"src/ExchangeAbstract.sol\":1934:1946  bool success */\n      dup2\n        /* \"src/ExchangeAbstract.sol\":1951:1982  receiver.call{value:earned}(\"\") */\n      dup2\n        /* \"src/ExchangeAbstract.sol\":1971:1977  earned */\n      dup6\n        /* \"src/ExchangeAbstract.sol\":1951:1964  receiver.call */\n      dup8\n        /* \"src/ExchangeAbstract.sol\":1951:1982  receiver.call{value:earned}(\"\") */\n      gas\n      call\n      swap3\n      pop\n      pop\n      pop\n      returndatasize\n      dup1\n      0x00\n      dup2\n      eq\n      tag_385\n      jumpi\n      mload(0x40)\n      swap2\n      pop\n      and(add(returndatasize, 0x3f), not(0x1f))\n      dup3\n      add\n      0x40\n      mstore\n      returndatasize\n      dup3\n      mstore\n      returndatasize\n      0x00\n      0x20\n      dup5\n      add\n      returndatacopy\n      jump(tag_384)\n    tag_385:\n      0x60\n      swap2\n      pop\n    tag_384:\n      pop\n        /* \"src/ExchangeAbstract.sol\":1933:1982  (bool success,) = receiver.call{value:earned}(\"\") */\n      pop\n      swap1\n      pop\n        /* \"src/ExchangeAbstract.sol\":2001:2008  success */\n      dup1\n        /* \"src/ExchangeAbstract.sol\":1993:2009  require(success) */\n      tag_268\n      jumpi\n      revert(0x00, 0x00)\n        /* \"src/AquitardLPCore.0.0.1.sol\":1255:1688  function noSupplyDeposit(uint assets, address receiver) payable external returns (uint shares) {... */\n    tag_173:\n        /* \"src/AquitardLPCore.0.0.1.sol\":1370:1376  assets */\n      dup2\n        /* \"src/AquitardLPCore.0.0.1.sol\":1427:1440  totalSupply() */\n      tag_388\n        /* \"https://github.com/Vectorized/solady/blob/main/src/tokens/ERC20.sol\":7067:7085  _TOTAL_SUPPLY_SLOT */\n      0x05345cdf77eb68f44c\n        /* \"https://github.com/Vectorized/solady/blob/main/src/tokens/ERC20.sol\":7061:7086  sload(_TOTAL_SUPPLY_SLOT) */\n      sload\n      swap1\n        /* \"https://github.com/Vectorized/solady/blob/main/src/tokens/ERC20.sol\":6907:7102  function totalSupply() public view virtual returns (uint256 result) {... */\n      jump\n        /* \"src/AquitardLPCore.0.0.1.sol\":1427:1440  totalSupply() */\n    tag_388:\n        /* \"src/AquitardLPCore.0.0.1.sol\":1427:1445  totalSupply() == 0 */\n      iszero\n        /* \"src/AquitardLPCore.0.0.1.sol\":1419:1446  require(totalSupply() == 0) */\n      tag_389\n      jumpi\n      revert(0x00, 0x00)\n    tag_389:\n        /* \"src/AquitardLPCore.0.0.1.sol\":1482:1505  _mint(receiver, shares) */\n      tag_390\n        /* \"src/AquitardLPCore.0.0.1.sol\":1488:1496  receiver */\n      dup3\n        /* \"src/AquitardLPCore.0.0.1.sol\":1498:1504  shares */\n      dup3\n        /* \"src/AquitardLPCore.0.0.1.sol\":1482:1487  _mint */\n      tag_347\n        /* \"src/AquitardLPCore.0.0.1.sol\":1482:1505  _mint(receiver, shares) */\n      jump\t// in\n    tag_390:\n        /* \"src/AquitardLPCore.0.0.1.sol\":1546:1599  asset.transferFrom(msg.sender, address(this), assets) */\n      mload(0x40)\n      shl(0xe0, 0x23b872dd)\n      dup2\n      mstore\n      sub(shl(0xa0, 0x01), 0x01)\n        /* \"src/AquitardLPCore.0.0.1.sol\":1546:1551  asset */\n      immutable(\"0xb26b33956cf5e09b9bda3f13e0f5c76b73e9d24f4f4d5a58bdd9de6b8e0a4d8c\")\n        /* \"src/AquitardLPCore.0.0.1.sol\":1546:1564  asset.transferFrom */\n      and\n      swap1\n      0x23b872dd\n      swap1\n        /* \"src/AquitardLPCore.0.0.1.sol\":1546:1599  asset.transferFrom(msg.sender, address(this), assets) */\n      tag_391\n      swap1\n        /* \"src/AquitardLPCore.0.0.1.sol\":1565:1575  msg.sender */\n      caller\n      swap1\n        /* \"src/AquitardLPCore.0.0.1.sol\":1585:1589  this */\n      address\n      swap1\n        /* \"src/AquitardLPCore.0.0.1.sol\":1592:1598  assets */\n      dup9\n      swap1\n        /* \"src/AquitardLPCore.0.0.1.sol\":1546:1599  asset.transferFrom(msg.sender, address(this), assets) */\n      0x04\n      add\n      tag_285\n      jump\t// in\n    tag_391:\n      0x20\n      mload(0x40)\n      dup1\n      dup4\n      sub\n      dup2\n      0x00\n      dup8\n      gas\n      call\n      iszero\n      dup1\n      iszero\n      tag_393\n      jumpi\n      returndatacopy(0x00, 0x00, returndatasize)\n      revert(0x00, returndatasize)\n    tag_393:\n      pop\n      pop\n      pop\n      pop\n      mload(0x40)\n      returndatasize\n      not(0x1f)\n      0x1f\n      dup3\n      add\n      and\n      dup3\n      add\n      dup1\n      0x40\n      mstore\n      pop\n      dup2\n      add\n      swap1\n      tag_394\n      swap2\n      swap1\n      tag_251\n      jump\t// in\n    tag_394:\n      pop\n        /* \"src/AquitardLPCore.0.0.1.sol\":1635:1680  Deposit(msg.sender, receiver, assets, shares) */\n      0x40\n      dup1\n      mload\n        /* \"#utility.yul\":9801:9826   */\n      dup5\n      dup2\n      mstore\n        /* \"#utility.yul\":9857:9859   */\n      0x20\n        /* \"#utility.yul\":9842:9860   */\n      dup2\n      add\n        /* \"#utility.yul\":9835:9869   */\n      dup4\n      swap1\n      mstore\n      sub(shl(0xa0, 0x01), 0x01)\n        /* \"src/AquitardLPCore.0.0.1.sol\":1635:1680  Deposit(msg.sender, receiver, assets, shares) */\n      dup5\n      and\n      swap2\n        /* \"src/AquitardLPCore.0.0.1.sol\":1643:1653  msg.sender */\n      caller\n      swap2\n      mload(0x00)\n      codecopy(0x00, data_f153f45295e6c417ef2e31903186ee1a5d0c2546461fb67769dfe29ae5912c6f, 0x20)\n      mload(0x00)\n      swap1\n      0x00\n      mstore\n        /* \"src/AquitardLPCore.0.0.1.sol\":1635:1680  Deposit(msg.sender, receiver, assets, shares) */\n      swap2\n        /* \"#utility.yul\":9774:9792   */\n      add\n        /* \"src/AquitardLPCore.0.0.1.sol\":1635:1680  Deposit(msg.sender, receiver, assets, shares) */\n      mload(0x40)\n      dup1\n      swap2\n      sub\n      swap1\n      log3\n        /* \"src/AquitardLPCore.0.0.1.sol\":1255:1688  function noSupplyDeposit(uint assets, address receiver) payable external returns (uint shares) {... */\n      swap3\n      swap2\n      pop\n      pop\n      jump\t// out\n        /* \"src/AquitardLPCore.0.0.1.sol\":1124:1247  function symbol() public view override returns (string memory) {... */\n    tag_177:\n        /* \"src/AquitardLPCore.0.0.1.sol\":1172:1185  string memory */\n      0x60\n        /* \"src/AquitardLPCore.0.0.1.sol\":1219:1224  asset */\n      immutable(\"0xb26b33956cf5e09b9bda3f13e0f5c76b73e9d24f4f4d5a58bdd9de6b8e0a4d8c\")\n      sub(shl(0xa0, 0x01), 0x01)\n        /* \"src/AquitardLPCore.0.0.1.sol\":1219:1231  asset.symbol */\n      and\n      0x95d89b41\n        /* \"src/AquitardLPCore.0.0.1.sol\":1219:1233  asset.symbol() */\n      mload(0x40)\n      dup2\n      0xffffffff\n      and\n      0xe0\n      shl\n      dup2\n      mstore\n      0x04\n      add\n      0x00\n      mload(0x40)\n      dup1\n      dup4\n      sub\n      dup2\n      dup7\n      gas\n      staticcall\n      iszero\n      dup1\n      iszero\n      tag_398\n      jumpi\n      returndatacopy(0x00, 0x00, returndatasize)\n      revert(0x00, returndatasize)\n    tag_398:\n      pop\n      pop\n      pop\n      pop\n      mload(0x40)\n      returndatasize\n      0x00\n      dup3\n      returndatacopy\n      0x1f\n      returndatasize\n      swap1\n      dup2\n      add\n      not(0x1f)\n      and\n      dup3\n      add\n      0x40\n      mstore\n      tag_399\n      swap2\n      swap1\n      dup2\n      add\n      swap1\n      tag_400\n      jump\t// in\n    tag_399:\n        /* \"src/AquitardLPCore.0.0.1.sol\":1205:1239  string.concat(asset.symbol(),\"LP\") */\n      add(0x20, mload(0x40))\n      tag_401\n      swap2\n      swap1\n      tag_402\n      jump\t// in\n    tag_401:\n      mload(0x40)\n      0x20\n      dup2\n      dup4\n      sub\n      sub\n      dup2\n      mstore\n      swap1\n      0x40\n      mstore\n        /* \"src/AquitardLPCore.0.0.1.sol\":1198:1239  return string.concat(asset.symbol(),\"LP\") */\n      swap1\n      pop\n        /* \"src/AquitardLPCore.0.0.1.sol\":1124:1247  function symbol() public view override returns (string memory) {... */\n      swap1\n      jump\t// out\n        /* \"src/ExchangeAbstract.sol\":868:1016  function purchasableNatives() public view returns (uint) {... */\n    tag_181:\n        /* \"src/ExchangeAbstract.sol\":919:923  uint */\n      0x00\n        /* \"src/ExchangeAbstract.sol\":987:1008  nativePurchasableRate */\n      immutable(\"0xe9e0475224745f570c2fa5a2212581dbb763b0b604cf1588d130cda3bdffbf52\")\n      sub(shl(0x80, 0x01), 0x01)\n        /* \"src/ExchangeAbstract.sol\":943:1008  (block.timestamp - nativePurchasableTime) * nativePurchasableRate */\n      and\n        /* \"src/ExchangeAbstract.sol\":962:983  nativePurchasableTime */\n      sload(0x00)\n        /* \"src/ExchangeAbstract.sol\":944:959  block.timestamp */\n      timestamp\n        /* \"src/ExchangeAbstract.sol\":944:983  block.timestamp - nativePurchasableTime */\n      tag_363\n      swap2\n      swap1\n      tag_258\n      jump\t// in\n        /* \"https://github.com/Vectorized/solady/blob/main/src/tokens/ERC20.sol\":9391:10797  function transfer(address to, uint256 amount) public virtual returns (bool) {... */\n    tag_186:\n        /* \"https://github.com/Vectorized/solady/blob/main/src/tokens/ERC20.sol\":9461:9465  bool */\n      0x00\n        /* \"https://github.com/Vectorized/solady/blob/main/src/tokens/ERC20.sol\":9670:9688  _BALANCE_SLOT_SEED */\n      0x87a211a2\n        /* \"https://github.com/Vectorized/solady/blob/main/src/tokens/ERC20.sol\":9664:9668  0x0c */\n      0x0c\n        /* \"https://github.com/Vectorized/solady/blob/main/src/tokens/ERC20.sol\":9657:9689  mstore(0x0c, _BALANCE_SLOT_SEED) */\n      mstore\n        /* \"https://github.com/Vectorized/solady/blob/main/src/tokens/ERC20.sol\":9715:9723  caller() */\n      caller\n        /* \"https://github.com/Vectorized/solady/blob/main/src/tokens/ERC20.sol\":9709:9713  0x00 */\n      0x00\n        /* \"https://github.com/Vectorized/solady/blob/main/src/tokens/ERC20.sol\":9702:9724  mstore(0x00, caller()) */\n      mstore\n        /* \"https://github.com/Vectorized/solady/blob/main/src/tokens/ERC20.sol\":9776:9780  0x20 */\n      0x20\n        /* \"https://github.com/Vectorized/solady/blob/main/src/tokens/ERC20.sol\":9770:9774  0x0c */\n      0x0c\n        /* \"https://github.com/Vectorized/solady/blob/main/src/tokens/ERC20.sol\":9760:9781  keccak256(0x0c, 0x20) */\n      keccak256\n        /* \"https://github.com/Vectorized/solady/blob/main/src/tokens/ERC20.sol\":9819:9834  fromBalanceSlot */\n      dup1\n        /* \"https://github.com/Vectorized/solady/blob/main/src/tokens/ERC20.sol\":9813:9835  sload(fromBalanceSlot) */\n      sload\n        /* \"https://github.com/Vectorized/solady/blob/main/src/tokens/ERC20.sol\":9909:9920  fromBalance */\n      dup1\n        /* \"https://github.com/Vectorized/solady/blob/main/src/tokens/ERC20.sol\":9901:9907  amount */\n      dup5\n        /* \"https://github.com/Vectorized/solady/blob/main/src/tokens/ERC20.sol\":9898:9921  gt(amount, fromBalance) */\n      gt\n        /* \"https://github.com/Vectorized/solady/blob/main/src/tokens/ERC20.sol\":9895:10041  if gt(amount, fromBalance) {... */\n      iszero\n      tag_408\n      jumpi\n        /* \"https://github.com/Vectorized/solady/blob/main/src/tokens/ERC20.sol\":9953:9963  0xf4d678b8 */\n      0xf4d678b8\n        /* \"https://github.com/Vectorized/solady/blob/main/src/tokens/ERC20.sol\":9947:9951  0x00 */\n      0x00\n        /* \"https://github.com/Vectorized/solady/blob/main/src/tokens/ERC20.sol\":9940:9964  mstore(0x00, 0xf4d678b8) */\n      mstore\n        /* \"https://github.com/Vectorized/solady/blob/main/src/tokens/ERC20.sol\":10022:10026  0x04 */\n      0x04\n        /* \"https://github.com/Vectorized/solady/blob/main/src/tokens/ERC20.sol\":10016:10020  0x1c */\n      0x1c\n        /* \"https://github.com/Vectorized/solady/blob/main/src/tokens/ERC20.sol\":10009:10027  revert(0x1c, 0x04) */\n      revert\n        /* \"https://github.com/Vectorized/solady/blob/main/src/tokens/ERC20.sol\":9895:10041  if gt(amount, fromBalance) {... */\n    tag_408:\n        /* \"https://github.com/Vectorized/solady/blob/main/src/tokens/ERC20.sol\":10150:10156  amount */\n      dup4\n        /* \"https://github.com/Vectorized/solady/blob/main/src/tokens/ERC20.sol\":10137:10148  fromBalance */\n      dup2\n        /* \"https://github.com/Vectorized/solady/blob/main/src/tokens/ERC20.sol\":10133:10157  sub(fromBalance, amount) */\n      sub\n        /* \"https://github.com/Vectorized/solady/blob/main/src/tokens/ERC20.sol\":10116:10131  fromBalanceSlot */\n      dup3\n        /* \"https://github.com/Vectorized/solady/blob/main/src/tokens/ERC20.sol\":10109:10158  sstore(fromBalanceSlot, sub(fromBalance, amount)) */\n      sstore\n      pop\n      pop\n        /* \"https://github.com/Vectorized/solady/blob/main/src/tokens/ERC20.sol\":10233:10235  to */\n      dup3\n        /* \"https://github.com/Vectorized/solady/blob/main/src/tokens/ERC20.sol\":10227:10231  0x00 */\n      0x00\n        /* \"https://github.com/Vectorized/solady/blob/main/src/tokens/ERC20.sol\":10220:10236  mstore(0x00, to) */\n      mstore\n        /* \"https://github.com/Vectorized/solady/blob/main/src/tokens/ERC20.sol\":10286:10290  0x20 */\n      0x20\n        /* \"https://github.com/Vectorized/solady/blob/main/src/tokens/ERC20.sol\":10280:10284  0x0c */\n      0x0c\n        /* \"https://github.com/Vectorized/solady/blob/main/src/tokens/ERC20.sol\":10270:10291  keccak256(0x0c, 0x20) */\n      keccak256\n        /* \"https://github.com/Vectorized/solady/blob/main/src/tokens/ERC20.sol\":10536:10542  amount */\n      dup3\n        /* \"https://github.com/Vectorized/solady/blob/main/src/tokens/ERC20.sol\":10520:10533  toBalanceSlot */\n      dup2\n        /* \"https://github.com/Vectorized/solady/blob/main/src/tokens/ERC20.sol\":10514:10534  sload(toBalanceSlot) */\n      sload\n        /* \"https://github.com/Vectorized/solady/blob/main/src/tokens/ERC20.sol\":10510:10543  add(sload(toBalanceSlot), amount) */\n      add\n        /* \"https://github.com/Vectorized/solady/blob/main/src/tokens/ERC20.sol\":10495:10508  toBalanceSlot */\n      dup2\n        /* \"https://github.com/Vectorized/solady/blob/main/src/tokens/ERC20.sol\":10488:10544  sstore(toBalanceSlot, add(sload(toBalanceSlot), amount)) */\n      sstore\n      pop\n        /* \"https://github.com/Vectorized/solady/blob/main/src/tokens/ERC20.sol\":10612:10618  amount */\n      dup2\n        /* \"https://github.com/Vectorized/solady/blob/main/src/tokens/ERC20.sol\":10606:10610  0x20 */\n      0x20\n        /* \"https://github.com/Vectorized/solady/blob/main/src/tokens/ERC20.sol\":10599:10619  mstore(0x20, amount) */\n      mstore\n        /* \"https://github.com/Vectorized/solady/blob/main/src/tokens/ERC20.sol\":10700:10704  0x0c */\n      0x0c\n        /* \"https://github.com/Vectorized/solady/blob/main/src/tokens/ERC20.sol\":10694:10705  mload(0x0c) */\n      mload\n        /* \"https://github.com/Vectorized/solady/blob/main/src/tokens/ERC20.sol\":10690:10692  96 */\n      0x60\n        /* \"https://github.com/Vectorized/solady/blob/main/src/tokens/ERC20.sol\":10686:10706  shr(96, mload(0x0c)) */\n      shr\n        /* \"https://github.com/Vectorized/solady/blob/main/src/tokens/ERC20.sol\":10676:10684  caller() */\n      caller\n      mload(0x00)\n      codecopy(0x00, data_ada389e1fc24a8587c776340efb91b36e675792ab631816100d55df0b5cf3cbc, 0x20)\n      mload(0x00)\n      swap1\n      0x00\n      mstore\n        /* \"https://github.com/Vectorized/solady/blob/main/src/tokens/ERC20.sol\":10643:10647  0x20 */\n      0x20\n        /* \"https://github.com/Vectorized/solady/blob/main/src/tokens/ERC20.sol\":10637:10641  0x20 */\n      dup1\n        /* \"https://github.com/Vectorized/solady/blob/main/src/tokens/ERC20.sol\":10632:10707  log3(0x20, 0x20, _TRANSFER_EVENT_SIGNATURE, caller(), shr(96, mload(0x0c))) */\n      log3\n      pop\n        /* \"https://github.com/Vectorized/solady/blob/main/src/tokens/ERC20.sol\":10786:10790  true */\n      0x01\n        /* \"https://github.com/Vectorized/solady/blob/main/src/tokens/ERC20.sol\":9391:10797  function transfer(address to, uint256 amount) public virtual returns (bool) {... */\n      swap3\n      swap2\n      pop\n      pop\n      jump\t// out\n        /* \"src/SwapAbstract.sol\":1459:1588  function nativeToERC20Swap() external payable returns (uint erc20sBought) {... */\n    tag_193:\n        /* \"src/SwapAbstract.sol\":1514:1531  uint erc20sBought */\n      0x00\n        /* \"src/SwapAbstract.sol\":1551:1580  nativeToERC20Swap(msg.sender) */\n      tag_364\n        /* \"src/SwapAbstract.sol\":1569:1579  msg.sender */\n      caller\n        /* \"src/SwapAbstract.sol\":1551:1568  nativeToERC20Swap */\n      tag_203\n        /* \"src/SwapAbstract.sol\":1551:1580  nativeToERC20Swap(msg.sender) */\n      jump\t// in\n        /* \"src/AquitardLPCore.0.0.1.sol\":5517:6208  function redeem(uint shares, address receiver, address owner) external returns (uint assets) {... */\n    tag_199:\n        /* \"src/AquitardLPCore.0.0.1.sol\":5597:5608  uint assets */\n      0x00\n        /* \"src/AquitardLPCore.0.0.1.sol\":5630:5651  previewRedeem(shares) */\n      tag_413\n        /* \"src/AquitardLPCore.0.0.1.sol\":5644:5650  shares */\n      dup5\n        /* \"src/AquitardLPCore.0.0.1.sol\":5630:5643  previewRedeem */\n      tag_141\n        /* \"src/AquitardLPCore.0.0.1.sol\":5630:5651  previewRedeem(shares) */\n      jump\t// in\n    tag_413:\n        /* \"src/AquitardLPCore.0.0.1.sol\":5621:5651  assets = previewRedeem(shares) */\n      swap1\n      pop\n        /* \"src/AquitardLPCore.0.0.1.sol\":5712:5722  msg.sender */\n      caller\n      sub(shl(0xa0, 0x01), 0x01)\n        /* \"src/AquitardLPCore.0.0.1.sol\":5712:5729  msg.sender!=owner */\n      dup4\n      and\n      eq\n        /* \"src/AquitardLPCore.0.0.1.sol\":5709:5773  if(msg.sender!=owner) _spendAllowance(owner, msg.sender, shares) */\n      tag_415\n      jumpi\n        /* \"src/AquitardLPCore.0.0.1.sol\":5731:5773  _spendAllowance(owner, msg.sender, shares) */\n      tag_415\n        /* \"src/AquitardLPCore.0.0.1.sol\":5747:5752  owner */\n      dup3\n        /* \"src/AquitardLPCore.0.0.1.sol\":5754:5764  msg.sender */\n      caller\n        /* \"src/AquitardLPCore.0.0.1.sol\":5766:5772  shares */\n      dup7\n        /* \"src/AquitardLPCore.0.0.1.sol\":5731:5746  _spendAllowance */\n      tag_416\n        /* \"src/AquitardLPCore.0.0.1.sol\":5731:5773  _spendAllowance(owner, msg.sender, shares) */\n      jump\t// in\n    tag_415:\n        /* \"src/AquitardLPCore.0.0.1.sol\":5784:5796  uint natives */\n      0x00\n        /* \"src/AquitardLPCore.0.0.1.sol\":5832:5845  totalSupply() */\n      tag_417\n        /* \"https://github.com/Vectorized/solady/blob/main/src/tokens/ERC20.sol\":7067:7085  _TOTAL_SUPPLY_SLOT */\n      0x05345cdf77eb68f44c\n        /* \"https://github.com/Vectorized/solady/blob/main/src/tokens/ERC20.sol\":7061:7086  sload(_TOTAL_SUPPLY_SLOT) */\n      sload\n      swap1\n        /* \"https://github.com/Vectorized/solady/blob/main/src/tokens/ERC20.sol\":6907:7102  function totalSupply() public view virtual returns (uint256 result) {... */\n      jump\n        /* \"src/AquitardLPCore.0.0.1.sol\":5832:5845  totalSupply() */\n    tag_417:\n        /* \"src/AquitardLPCore.0.0.1.sol\":5799:5829  address(this).balance * shares */\n      tag_418\n        /* \"src/AquitardLPCore.0.0.1.sol\":5823:5829  shares */\n      dup7\n        /* \"src/AquitardLPCore.0.0.1.sol\":5799:5820  address(this).balance */\n      selfbalance\n        /* \"src/AquitardLPCore.0.0.1.sol\":5799:5829  address(this).balance * shares */\n      tag_278\n      jump\t// in\n    tag_418:\n        /* \"src/AquitardLPCore.0.0.1.sol\":5799:5845  address(this).balance * shares / totalSupply() */\n      tag_419\n      swap2\n      swap1\n      tag_262\n      jump\t// in\n    tag_419:\n        /* \"src/AquitardLPCore.0.0.1.sol\":5784:5845  uint natives = address(this).balance * shares / totalSupply() */\n      swap1\n      pop\n        /* \"src/AquitardLPCore.0.0.1.sol\":5856:5875  _burn(owner,shares) */\n      tag_420\n        /* \"src/AquitardLPCore.0.0.1.sol\":5862:5867  owner */\n      dup4\n        /* \"src/AquitardLPCore.0.0.1.sol\":5868:5874  shares */\n      dup7\n        /* \"src/AquitardLPCore.0.0.1.sol\":5856:5861  _burn */\n      tag_421\n        /* \"src/AquitardLPCore.0.0.1.sol\":5856:5875  _burn(owner,shares) */\n      jump\t// in\n    tag_420:\n        /* \"src/AquitardLPCore.0.0.1.sol\":6011:6042  asset.transfer(receiver,assets) */\n      mload(0x40)\n      shl(0xe0, 0xa9059cbb)\n      dup2\n      mstore\n      sub(shl(0xa0, 0x01), 0x01)\n        /* \"#utility.yul\":7485:7517   */\n      dup6\n      dup2\n      and\n        /* \"src/AquitardLPCore.0.0.1.sol\":6011:6042  asset.transfer(receiver,assets) */\n      0x04\n      dup4\n      add\n        /* \"#utility.yul\":7467:7518   */\n      mstore\n        /* \"#utility.yul\":7534:7552   */\n      0x24\n      dup3\n      add\n        /* \"#utility.yul\":7527:7561   */\n      dup5\n      swap1\n      mstore\n        /* \"src/AquitardLPCore.0.0.1.sol\":6011:6016  asset */\n      immutable(\"0xb26b33956cf5e09b9bda3f13e0f5c76b73e9d24f4f4d5a58bdd9de6b8e0a4d8c\")\n        /* \"src/AquitardLPCore.0.0.1.sol\":6011:6025  asset.transfer */\n      and\n      swap1\n      0xa9059cbb\n      swap1\n        /* \"#utility.yul\":7440:7458   */\n      0x44\n      add\n        /* \"src/AquitardLPCore.0.0.1.sol\":6011:6042  asset.transfer(receiver,assets) */\n      0x20\n      mload(0x40)\n      dup1\n      dup4\n      sub\n      dup2\n      0x00\n      dup8\n      gas\n      call\n      iszero\n      dup1\n      iszero\n      tag_424\n      jumpi\n      returndatacopy(0x00, 0x00, returndatasize)\n      revert(0x00, returndatasize)\n    tag_424:\n      pop\n      pop\n      pop\n      pop\n      mload(0x40)\n      returndatasize\n      not(0x1f)\n      0x1f\n      dup3\n      add\n      and\n      dup3\n      add\n      dup1\n      0x40\n      mstore\n      pop\n      dup2\n      add\n      swap1\n      tag_425\n      swap2\n      swap1\n      tag_251\n      jump\t// in\n    tag_425:\n      pop\n        /* \"src/AquitardLPCore.0.0.1.sol\":6056:6068  bool success */\n      0x00\n        /* \"src/AquitardLPCore.0.0.1.sol\":6073:6081  receiver */\n      dup5\n      sub(shl(0xa0, 0x01), 0x01)\n        /* \"src/AquitardLPCore.0.0.1.sol\":6073:6086  receiver.call */\n      and\n        /* \"src/AquitardLPCore.0.0.1.sol\":6094:6101  natives */\n      dup3\n        /* \"src/AquitardLPCore.0.0.1.sol\":6073:6106  receiver.call{value: natives}(\"\") */\n      mload(0x40)\n      0x00\n      mload(0x40)\n      dup1\n      dup4\n      sub\n      dup2\n      dup6\n      dup8\n      gas\n      call\n      swap3\n      pop\n      pop\n      pop\n      returndatasize\n      dup1\n      0x00\n      dup2\n      eq\n      tag_429\n      jumpi\n      mload(0x40)\n      swap2\n      pop\n      and(add(returndatasize, 0x3f), not(0x1f))\n      dup3\n      add\n      0x40\n      mstore\n      returndatasize\n      dup3\n      mstore\n      returndatasize\n      0x00\n      0x20\n      dup5\n      add\n      returndatacopy\n      jump(tag_428)\n    tag_429:\n      0x60\n      swap2\n      pop\n    tag_428:\n      pop\n        /* \"src/AquitardLPCore.0.0.1.sol\":6055:6106  (bool success,) = receiver.call{value: natives}(\"\") */\n      pop\n      swap1\n      pop\n        /* \"src/AquitardLPCore.0.0.1.sol\":6125:6132  success */\n      dup1\n        /* \"src/AquitardLPCore.0.0.1.sol\":6117:6133  require(success) */\n      tag_430\n      jumpi\n      revert(0x00, 0x00)\n    tag_430:\n        /* \"src/AquitardLPCore.0.0.1.sol\":6151:6200  Withdraw(msg.sender,receiver,owner,assets,shares) */\n      0x40\n      dup1\n      mload\n        /* \"#utility.yul\":9801:9826   */\n      dup5\n      dup2\n      mstore\n        /* \"#utility.yul\":9857:9859   */\n      0x20\n        /* \"#utility.yul\":9842:9860   */\n      dup2\n      add\n        /* \"#utility.yul\":9835:9869   */\n      dup9\n      swap1\n      mstore\n      sub(shl(0xa0, 0x01), 0x01)\n        /* \"src/AquitardLPCore.0.0.1.sol\":6151:6200  Withdraw(msg.sender,receiver,owner,assets,shares) */\n      dup1\n      dup8\n      and\n      swap3\n      swap1\n      dup9\n      and\n      swap2\n        /* \"src/AquitardLPCore.0.0.1.sol\":6160:6170  msg.sender */\n      caller\n      swap2\n        /* \"src/AquitardLPCore.0.0.1.sol\":6151:6200  Withdraw(msg.sender,receiver,owner,assets,shares) */\n      0xfbde797d201c681b91056529119e0b02407c7bb96a4a2c75c01fc9667232c8db\n      swap2\n        /* \"#utility.yul\":9774:9792   */\n      add\n        /* \"src/AquitardLPCore.0.0.1.sol\":6151:6200  Withdraw(msg.sender,receiver,owner,assets,shares) */\n      mload(0x40)\n      dup1\n      swap2\n      sub\n      swap1\n      log4\n        /* \"src/AquitardLPCore.0.0.1.sol\":5610:6208  {... */\n      pop\n      pop\n        /* \"src/AquitardLPCore.0.0.1.sol\":5517:6208  function redeem(uint shares, address receiver, address owner) external returns (uint assets) {... */\n      swap4\n      swap3\n      pop\n      pop\n      pop\n      jump\t// out\n        /* \"src/AquitardLPCore.0.0.1.sol\":2302:2663  function nativeToERC20Swap(address recipient) public override payable returns (uint erc20sBought) {... */\n    tag_203:\n        /* \"src/AquitardLPCore.0.0.1.sol\":2381:2398  uint erc20sBought */\n      0x00\n        /* \"src/AquitardLPCore.0.0.1.sol\":2426:2458  getNativeToERC20Price(msg.value) */\n      tag_433\n        /* \"src/AquitardLPCore.0.0.1.sol\":2448:2457  msg.value */\n      callvalue\n        /* \"src/AquitardLPCore.0.0.1.sol\":2426:2447  getNativeToERC20Price */\n      tag_234\n        /* \"src/AquitardLPCore.0.0.1.sol\":2426:2458  getNativeToERC20Price(msg.value) */\n      jump\t// in\n    tag_433:\n        /* \"src/AquitardLPCore.0.0.1.sol\":2411:2458  erc20sBought = getNativeToERC20Price(msg.value) */\n      swap1\n      pop\n        /* \"src/AquitardLPCore.0.0.1.sol\":2540:2575  erc20sBought / erc20PurchasableRate */\n      tag_434\n      sub(shl(0x80, 0x01), 0x01)\n        /* \"src/AquitardLPCore.0.0.1.sol\":2555:2575  erc20PurchasableRate */\n      immutable(\"0x29f8d1998cd4186678d0085cd54072aeefd05bc476ef1844361510d857ac074b\")\n        /* \"src/AquitardLPCore.0.0.1.sol\":2540:2575  erc20sBought / erc20PurchasableRate */\n      and\n        /* \"src/AquitardLPCore.0.0.1.sol\":2411:2458  erc20sBought = getNativeToERC20Price(msg.value) */\n      dup3\n        /* \"src/AquitardLPCore.0.0.1.sol\":2540:2575  erc20sBought / erc20PurchasableRate */\n      tag_262\n      jump\t// in\n    tag_434:\n        /* \"src/AquitardLPCore.0.0.1.sol\":2516:2536  erc20PurchasableTime */\n      0x01\n      0x00\n        /* \"src/AquitardLPCore.0.0.1.sol\":2516:2575  erc20PurchasableTime += erc20sBought / erc20PurchasableRate */\n      dup3\n      dup3\n      sload\n      tag_435\n      swap2\n      swap1\n      tag_264\n      jump\t// in\n    tag_435:\n      swap1\n      swap2\n      sstore\n      pop\n      pop\n        /* \"src/AquitardLPCore.0.0.1.sol\":2616:2655  asset.transfer(recipient, erc20sBought) */\n      mload(0x40)\n      shl(0xe0, 0xa9059cbb)\n      dup2\n      mstore\n      sub(shl(0xa0, 0x01), 0x01)\n        /* \"#utility.yul\":7485:7517   */\n      dup4\n      dup2\n      and\n        /* \"src/AquitardLPCore.0.0.1.sol\":2616:2655  asset.transfer(recipient, erc20sBought) */\n      0x04\n      dup4\n      add\n        /* \"#utility.yul\":7467:7518   */\n      mstore\n        /* \"#utility.yul\":7534:7552   */\n      0x24\n      dup3\n      add\n        /* \"#utility.yul\":7527:7561   */\n      dup4\n      swap1\n      mstore\n        /* \"src/AquitardLPCore.0.0.1.sol\":2616:2621  asset */\n      immutable(\"0xb26b33956cf5e09b9bda3f13e0f5c76b73e9d24f4f4d5a58bdd9de6b8e0a4d8c\")\n        /* \"src/AquitardLPCore.0.0.1.sol\":2616:2630  asset.transfer */\n      and\n      swap1\n      0xa9059cbb\n      swap1\n        /* \"#utility.yul\":7440:7458   */\n      0x44\n      add\n        /* \"src/AquitardLPCore.0.0.1.sol\":2616:2655  asset.transfer(recipient, erc20sBought) */\n      0x20\n      mload(0x40)\n      dup1\n      dup4\n      sub\n      dup2\n      0x00\n      dup8\n      gas\n      call\n      iszero\n      dup1\n      iszero\n      tag_438\n      jumpi\n      returndatacopy(0x00, 0x00, returndatasize)\n      revert(0x00, returndatasize)\n    tag_438:\n      pop\n      pop\n      pop\n      pop\n      mload(0x40)\n      returndatasize\n      not(0x1f)\n      0x1f\n      dup3\n      add\n      and\n      dup3\n      add\n      dup1\n      0x40\n      mstore\n      pop\n      dup2\n      add\n      swap1\n      tag_439\n      swap2\n      swap1\n      tag_251\n      jump\t// in\n    tag_439:\n      pop\n        /* \"src/AquitardLPCore.0.0.1.sol\":2302:2663  function nativeToERC20Swap(address recipient) public override payable returns (uint erc20sBought) {... */\n      swap2\n      swap1\n      pop\n      jump\t// out\n        /* \"src/AquitardLPCore.0.0.1.sol\":1696:1943  function noSupplyDeposit(address receiver) payable external returns (uint shares) {... */\n    tag_207:\n        /* \"src/AquitardLPCore.0.0.1.sol\":1798:1807  msg.value */\n      callvalue\n        /* \"src/AquitardLPCore.0.0.1.sol\":1826:1839  totalSupply() */\n      tag_441\n        /* \"https://github.com/Vectorized/solady/blob/main/src/tokens/ERC20.sol\":7067:7085  _TOTAL_SUPPLY_SLOT */\n      0x05345cdf77eb68f44c\n        /* \"https://github.com/Vectorized/solady/blob/main/src/tokens/ERC20.sol\":7061:7086  sload(_TOTAL_SUPPLY_SLOT) */\n      sload\n      swap1\n        /* \"https://github.com/Vectorized/solady/blob/main/src/tokens/ERC20.sol\":6907:7102  function totalSupply() public view virtual returns (uint256 result) {... */\n      jump\n        /* \"src/AquitardLPCore.0.0.1.sol\":1826:1839  totalSupply() */\n    tag_441:\n        /* \"src/AquitardLPCore.0.0.1.sol\":1826:1844  totalSupply() == 0 */\n      iszero\n        /* \"src/AquitardLPCore.0.0.1.sol\":1818:1845  require(totalSupply() == 0) */\n      tag_442\n      jumpi\n      revert(0x00, 0x00)\n    tag_442:\n        /* \"src/AquitardLPCore.0.0.1.sol\":1856:1879  _mint(receiver, shares) */\n      tag_443\n        /* \"src/AquitardLPCore.0.0.1.sol\":1862:1870  receiver */\n      dup3\n        /* \"src/AquitardLPCore.0.0.1.sol\":1872:1878  shares */\n      dup3\n        /* \"src/AquitardLPCore.0.0.1.sol\":1856:1861  _mint */\n      tag_347\n        /* \"src/AquitardLPCore.0.0.1.sol\":1856:1879  _mint(receiver, shares) */\n      jump\t// in\n    tag_443:\n        /* \"src/AquitardLPCore.0.0.1.sol\":1895:1935  Deposit(msg.sender, receiver, 0, shares) */\n      0x40\n      dup1\n      mload\n        /* \"src/AquitardLPCore.0.0.1.sol\":1925:1926  0 */\n      0x00\n        /* \"#utility.yul\":9801:9826   */\n      dup2\n      mstore\n        /* \"#utility.yul\":9857:9859   */\n      0x20\n        /* \"#utility.yul\":9842:9860   */\n      dup2\n      add\n        /* \"#utility.yul\":9835:9869   */\n      dup4\n      swap1\n      mstore\n      sub(shl(0xa0, 0x01), 0x01)\n        /* \"src/AquitardLPCore.0.0.1.sol\":1895:1935  Deposit(msg.sender, receiver, 0, shares) */\n      dup5\n      and\n      swap2\n        /* \"src/AquitardLPCore.0.0.1.sol\":1903:1913  msg.sender */\n      caller\n      swap2\n      mload(0x00)\n      codecopy(0x00, data_f153f45295e6c417ef2e31903186ee1a5d0c2546461fb67769dfe29ae5912c6f, 0x20)\n      mload(0x00)\n      swap1\n      0x00\n      mstore\n        /* \"src/AquitardLPCore.0.0.1.sol\":1895:1935  Deposit(msg.sender, receiver, 0, shares) */\n      swap2\n        /* \"#utility.yul\":9774:9792   */\n      add\n        /* \"src/AquitardLPCore.0.0.1.sol\":1895:1935  Deposit(msg.sender, receiver, 0, shares) */\n      mload(0x40)\n      dup1\n      swap2\n      sub\n      swap1\n      log3\n        /* \"src/AquitardLPCore.0.0.1.sol\":1696:1943  function noSupplyDeposit(address receiver) payable external returns (uint shares) {... */\n      swap2\n      swap1\n      pop\n      jump\t// out\n        /* \"src/AquitardLPCore.0.0.1.sol\":3166:3312  function convertToShares(uint assets) public view returns (uint) {... */\n    tag_212:\n        /* \"src/AquitardLPCore.0.0.1.sol\":3274:3304  asset.balanceOf(address(this)) */\n      mload(0x40)\n      shl(0xe0, 0x70a08231)\n      dup2\n      mstore\n        /* \"src/AquitardLPCore.0.0.1.sol\":3298:3302  this */\n      address\n        /* \"src/AquitardLPCore.0.0.1.sol\":3274:3304  asset.balanceOf(address(this)) */\n      0x04\n      dup3\n      add\n        /* \"#utility.yul\":4348:4399   */\n      mstore\n        /* \"src/AquitardLPCore.0.0.1.sol\":3225:3229  uint */\n      0x00\n      swap1\n        /* \"src/AquitardLPCore.0.0.1.sol\":3274:3279  asset */\n      immutable(\"0xb26b33956cf5e09b9bda3f13e0f5c76b73e9d24f4f4d5a58bdd9de6b8e0a4d8c\")\n      sub(shl(0xa0, 0x01), 0x01)\n        /* \"src/AquitardLPCore.0.0.1.sol\":3274:3289  asset.balanceOf */\n      and\n      swap1\n      0x70a08231\n      swap1\n        /* \"#utility.yul\":4321:4339   */\n      0x24\n      add\n        /* \"src/AquitardLPCore.0.0.1.sol\":3274:3304  asset.balanceOf(address(this)) */\n      0x20\n      mload(0x40)\n      dup1\n      dup4\n      sub\n      dup2\n      dup7\n      gas\n      staticcall\n      iszero\n      dup1\n      iszero\n      tag_449\n      jumpi\n      returndatacopy(0x00, 0x00, returndatasize)\n      revert(0x00, returndatasize)\n    tag_449:\n      pop\n      pop\n      pop\n      pop\n      mload(0x40)\n      returndatasize\n      not(0x1f)\n      0x1f\n      dup3\n      add\n      and\n      dup3\n      add\n      dup1\n      0x40\n      mstore\n      pop\n      dup2\n      add\n      swap1\n      tag_450\n      swap2\n      swap1\n      tag_256\n      jump\t// in\n    tag_450:\n        /* \"src/AquitardLPCore.0.0.1.sol\":3265:3271  assets */\n      dup3\n        /* \"src/AquitardLPCore.0.0.1.sol\":3249:3262  totalSupply() */\n      tag_276\n        /* \"https://github.com/Vectorized/solady/blob/main/src/tokens/ERC20.sol\":7067:7085  _TOTAL_SUPPLY_SLOT */\n      0x05345cdf77eb68f44c\n        /* \"https://github.com/Vectorized/solady/blob/main/src/tokens/ERC20.sol\":7061:7086  sload(_TOTAL_SUPPLY_SLOT) */\n      sload\n      swap1\n        /* \"https://github.com/Vectorized/solady/blob/main/src/tokens/ERC20.sol\":6907:7102  function totalSupply() public view virtual returns (uint256 result) {... */\n      jump\n        /* \"https://github.com/Vectorized/solady/blob/main/src/tokens/ERC20.sol\":17661:21377  function permit(... */\n    tag_218:\n        /* \"https://github.com/Vectorized/solady/blob/main/src/tokens/ERC20.sol\":18314:18330  bytes32 nameHash */\n      0x00\n        /* \"https://github.com/Vectorized/solady/blob/main/src/tokens/ERC20.sol\":18511:18517  name() */\n      tag_460\n        /* \"https://github.com/Vectorized/solady/blob/main/src/tokens/ERC20.sol\":18511:18515  name */\n      tag_58\n        /* \"https://github.com/Vectorized/solady/blob/main/src/tokens/ERC20.sol\":18511:18517  name() */\n      jump\t// in\n    tag_460:\n        /* \"https://github.com/Vectorized/solady/blob/main/src/tokens/ERC20.sol\":18495:18519  keccak256(bytes(name())) */\n      dup1\n      mload\n      swap1\n      0x20\n      add\n      keccak256\n        /* \"https://github.com/Vectorized/solady/blob/main/src/tokens/ERC20.sol\":18484:18519  nameHash = keccak256(bytes(name())) */\n      swap1\n      pop\n        /* \"https://github.com/Vectorized/solady/blob/main/src/tokens/ERC20.sol\":5177:5243  0xc89efdaa54c0f20c7adf612882df0950f5a951637e0307cdcb4c672f298b8bc6 */\n      0xc89efdaa54c0f20c7adf612882df0950f5a951637e0307cdcb4c672f298b8bc6\n        /* \"https://github.com/Vectorized/solady/blob/main/src/tokens/ERC20.sol\":18720:18731  timestamp() */\n      timestamp\n        /* \"https://github.com/Vectorized/solady/blob/main/src/tokens/ERC20.sol\":18717:18742  gt(timestamp(), deadline) */\n      dup7\n      lt\n        /* \"https://github.com/Vectorized/solady/blob/main/src/tokens/ERC20.sol\":18714:18856  if gt(timestamp(), deadline) {... */\n      iszero\n      tag_462\n      jumpi\n        /* \"https://github.com/Vectorized/solady/blob/main/src/tokens/ERC20.sol\":18774:18784  0x1a15a3cc */\n      0x1a15a3cc\n        /* \"https://github.com/Vectorized/solady/blob/main/src/tokens/ERC20.sol\":18768:18772  0x00 */\n      0x00\n        /* \"https://github.com/Vectorized/solady/blob/main/src/tokens/ERC20.sol\":18761:18785  mstore(0x00, 0x1a15a3cc) */\n      mstore\n        /* \"https://github.com/Vectorized/solady/blob/main/src/tokens/ERC20.sol\":18837:18841  0x04 */\n      0x04\n        /* \"https://github.com/Vectorized/solady/blob/main/src/tokens/ERC20.sol\":18831:18835  0x1c */\n      0x1c\n        /* \"https://github.com/Vectorized/solady/blob/main/src/tokens/ERC20.sol\":18824:18842  revert(0x1c, 0x04) */\n      revert\n        /* \"https://github.com/Vectorized/solady/blob/main/src/tokens/ERC20.sol\":18714:18856  if gt(timestamp(), deadline) {... */\n    tag_462:\n        /* \"https://github.com/Vectorized/solady/blob/main/src/tokens/ERC20.sol\":18884:18888  0x40 */\n      0x40\n        /* \"https://github.com/Vectorized/solady/blob/main/src/tokens/ERC20.sol\":18878:18889  mload(0x40) */\n      mload\n        /* \"https://github.com/Vectorized/solady/blob/main/src/tokens/ERC20.sol\":19000:19005  owner */\n      dup10\n        /* \"https://github.com/Vectorized/solady/blob/main/src/tokens/ERC20.sol\":18996:18998  96 */\n      0x60\n        /* \"https://github.com/Vectorized/solady/blob/main/src/tokens/ERC20.sol\":18992:19006  shl(96, owner) */\n      shl\n        /* \"https://github.com/Vectorized/solady/blob/main/src/tokens/ERC20.sol\":18988:18990  96 */\n      0x60\n        /* \"https://github.com/Vectorized/solady/blob/main/src/tokens/ERC20.sol\":18984:19007  shr(96, shl(96, owner)) */\n      shr\n        /* \"https://github.com/Vectorized/solady/blob/main/src/tokens/ERC20.sol\":18975:19007  owner := shr(96, shl(96, owner)) */\n      swap10\n      pop\n        /* \"https://github.com/Vectorized/solady/blob/main/src/tokens/ERC20.sol\":19047:19054  spender */\n      dup9\n        /* \"https://github.com/Vectorized/solady/blob/main/src/tokens/ERC20.sol\":19043:19045  96 */\n      0x60\n        /* \"https://github.com/Vectorized/solady/blob/main/src/tokens/ERC20.sol\":19039:19055  shl(96, spender) */\n      shl\n        /* \"https://github.com/Vectorized/solady/blob/main/src/tokens/ERC20.sol\":19035:19037  96 */\n      0x60\n        /* \"https://github.com/Vectorized/solady/blob/main/src/tokens/ERC20.sol\":19031:19056  shr(96, shl(96, spender)) */\n      shr\n        /* \"https://github.com/Vectorized/solady/blob/main/src/tokens/ERC20.sol\":19020:19056  spender := shr(96, shl(96, spender)) */\n      swap9\n      pop\n        /* \"https://github.com/Vectorized/solady/blob/main/src/tokens/ERC20.sol\":19140:19179  _NONCES_SLOT_SEED_WITH_SIGNATURE_PREFIX */\n      0x383775081901\n        /* \"https://github.com/Vectorized/solady/blob/main/src/tokens/ERC20.sol\":19134:19138  0x0e */\n      0x0e\n        /* \"https://github.com/Vectorized/solady/blob/main/src/tokens/ERC20.sol\":19127:19180  mstore(0x0e, _NONCES_SLOT_SEED_WITH_SIGNATURE_PREFIX) */\n      mstore\n        /* \"https://github.com/Vectorized/solady/blob/main/src/tokens/ERC20.sol\":19206:19211  owner */\n      dup10\n        /* \"https://github.com/Vectorized/solady/blob/main/src/tokens/ERC20.sol\":19200:19204  0x00 */\n      0x00\n        /* \"https://github.com/Vectorized/solady/blob/main/src/tokens/ERC20.sol\":19193:19212  mstore(0x00, owner) */\n      mstore\n        /* \"https://github.com/Vectorized/solady/blob/main/src/tokens/ERC20.sol\":19258:19262  0x20 */\n      0x20\n        /* \"https://github.com/Vectorized/solady/blob/main/src/tokens/ERC20.sol\":19252:19256  0x0c */\n      0x0c\n        /* \"https://github.com/Vectorized/solady/blob/main/src/tokens/ERC20.sol\":19242:19263  keccak256(0x0c, 0x20) */\n      keccak256\n        /* \"https://github.com/Vectorized/solady/blob/main/src/tokens/ERC20.sol\":19300:19309  nonceSlot */\n      dup1\n        /* \"https://github.com/Vectorized/solady/blob/main/src/tokens/ERC20.sol\":19294:19310  sload(nonceSlot) */\n      sload\n        /* \"https://github.com/Vectorized/solady/blob/main/src/tokens/ERC20.sol\":19378:19394  _DOMAIN_TYPEHASH */\n      0x8b73c3c69bb8fe3d512ecc4cf759cc79239f7b179b0ffacaa9a75d522b39400f\n        /* \"https://github.com/Vectorized/solady/blob/main/src/tokens/ERC20.sol\":19375:19376  m */\n      dup4\n        /* \"https://github.com/Vectorized/solady/blob/main/src/tokens/ERC20.sol\":19368:19395  mstore(m, _DOMAIN_TYPEHASH) */\n      mstore\n        /* \"https://github.com/Vectorized/solady/blob/main/src/tokens/ERC20.sol\":19429:19437  nameHash */\n      dup5\n        /* \"https://github.com/Vectorized/solady/blob/main/src/tokens/ERC20.sol\":19422:19426  0x20 */\n      0x20\n        /* \"https://github.com/Vectorized/solady/blob/main/src/tokens/ERC20.sol\":19419:19420  m */\n      dup5\n        /* \"https://github.com/Vectorized/solady/blob/main/src/tokens/ERC20.sol\":19415:19427  add(m, 0x20) */\n      add\n        /* \"https://github.com/Vectorized/solady/blob/main/src/tokens/ERC20.sol\":19408:19438  mstore(add(m, 0x20), nameHash) */\n      mstore\n        /* \"https://github.com/Vectorized/solady/blob/main/src/tokens/ERC20.sol\":19472:19483  versionHash */\n      dup4\n        /* \"https://github.com/Vectorized/solady/blob/main/src/tokens/ERC20.sol\":19465:19469  0x40 */\n      0x40\n        /* \"https://github.com/Vectorized/solady/blob/main/src/tokens/ERC20.sol\":19462:19463  m */\n      dup5\n        /* \"https://github.com/Vectorized/solady/blob/main/src/tokens/ERC20.sol\":19458:19470  add(m, 0x40) */\n      add\n        /* \"https://github.com/Vectorized/solady/blob/main/src/tokens/ERC20.sol\":19451:19484  mstore(add(m, 0x40), versionHash) */\n      mstore\n        /* \"https://github.com/Vectorized/solady/blob/main/src/tokens/ERC20.sol\":19518:19527  chainid() */\n      chainid\n        /* \"https://github.com/Vectorized/solady/blob/main/src/tokens/ERC20.sol\":19511:19515  0x60 */\n      0x60\n        /* \"https://github.com/Vectorized/solady/blob/main/src/tokens/ERC20.sol\":19508:19509  m */\n      dup5\n        /* \"https://github.com/Vectorized/solady/blob/main/src/tokens/ERC20.sol\":19504:19516  add(m, 0x60) */\n      add\n        /* \"https://github.com/Vectorized/solady/blob/main/src/tokens/ERC20.sol\":19497:19528  mstore(add(m, 0x60), chainid()) */\n      mstore\n        /* \"https://github.com/Vectorized/solady/blob/main/src/tokens/ERC20.sol\":19562:19571  address() */\n      address\n        /* \"https://github.com/Vectorized/solady/blob/main/src/tokens/ERC20.sol\":19555:19559  0x80 */\n      0x80\n        /* \"https://github.com/Vectorized/solady/blob/main/src/tokens/ERC20.sol\":19552:19553  m */\n      dup5\n        /* \"https://github.com/Vectorized/solady/blob/main/src/tokens/ERC20.sol\":19548:19560  add(m, 0x80) */\n      add\n        /* \"https://github.com/Vectorized/solady/blob/main/src/tokens/ERC20.sol\":19541:19572  mstore(add(m, 0x80), address()) */\n      mstore\n        /* \"https://github.com/Vectorized/solady/blob/main/src/tokens/ERC20.sol\":19611:19615  0xa0 */\n      0xa0\n        /* \"https://github.com/Vectorized/solady/blob/main/src/tokens/ERC20.sol\":19608:19609  m */\n      dup4\n        /* \"https://github.com/Vectorized/solady/blob/main/src/tokens/ERC20.sol\":19598:19616  keccak256(m, 0xa0) */\n      keccak256\n        /* \"https://github.com/Vectorized/solady/blob/main/src/tokens/ERC20.sol\":19592:19596  0x2e */\n      0x2e\n        /* \"https://github.com/Vectorized/solady/blob/main/src/tokens/ERC20.sol\":19585:19617  mstore(0x2e, keccak256(m, 0xa0)) */\n      mstore\n        /* \"https://github.com/Vectorized/solady/blob/main/src/tokens/ERC20.sol\":19680:19696  _PERMIT_TYPEHASH */\n      0x6e71edae12b1b97f4d1f60370fef10105fa2faae0126114a169c64845d6126c9\n        /* \"https://github.com/Vectorized/solady/blob/main/src/tokens/ERC20.sol\":19677:19678  m */\n      dup4\n        /* \"https://github.com/Vectorized/solady/blob/main/src/tokens/ERC20.sol\":19670:19697  mstore(m, _PERMIT_TYPEHASH) */\n      mstore\n        /* \"https://github.com/Vectorized/solady/blob/main/src/tokens/ERC20.sol\":19731:19736  owner */\n      dup12\n        /* \"https://github.com/Vectorized/solady/blob/main/src/tokens/ERC20.sol\":19724:19728  0x20 */\n      0x20\n        /* \"https://github.com/Vectorized/solady/blob/main/src/tokens/ERC20.sol\":19721:19722  m */\n      dup5\n        /* \"https://github.com/Vectorized/solady/blob/main/src/tokens/ERC20.sol\":19717:19729  add(m, 0x20) */\n      add\n        /* \"https://github.com/Vectorized/solady/blob/main/src/tokens/ERC20.sol\":19710:19737  mstore(add(m, 0x20), owner) */\n      mstore\n        /* \"https://github.com/Vectorized/solady/blob/main/src/tokens/ERC20.sol\":19771:19778  spender */\n      dup11\n        /* \"https://github.com/Vectorized/solady/blob/main/src/tokens/ERC20.sol\":19764:19768  0x40 */\n      0x40\n        /* \"https://github.com/Vectorized/solady/blob/main/src/tokens/ERC20.sol\":19761:19762  m */\n      dup5\n        /* \"https://github.com/Vectorized/solady/blob/main/src/tokens/ERC20.sol\":19757:19769  add(m, 0x40) */\n      add\n        /* \"https://github.com/Vectorized/solady/blob/main/src/tokens/ERC20.sol\":19750:19779  mstore(add(m, 0x40), spender) */\n      mstore\n        /* \"https://github.com/Vectorized/solady/blob/main/src/tokens/ERC20.sol\":19813:19818  value */\n      dup10\n        /* \"https://github.com/Vectorized/solady/blob/main/src/tokens/ERC20.sol\":19806:19810  0x60 */\n      0x60\n        /* \"https://github.com/Vectorized/solady/blob/main/src/tokens/ERC20.sol\":19803:19804  m */\n      dup5\n        /* \"https://github.com/Vectorized/solady/blob/main/src/tokens/ERC20.sol\":19799:19811  add(m, 0x60) */\n      add\n        /* \"https://github.com/Vectorized/solady/blob/main/src/tokens/ERC20.sol\":19792:19819  mstore(add(m, 0x60), value) */\n      mstore\n        /* \"https://github.com/Vectorized/solady/blob/main/src/tokens/ERC20.sol\":19853:19863  nonceValue */\n      dup1\n        /* \"https://github.com/Vectorized/solady/blob/main/src/tokens/ERC20.sol\":19846:19850  0x80 */\n      0x80\n        /* \"https://github.com/Vectorized/solady/blob/main/src/tokens/ERC20.sol\":19843:19844  m */\n      dup5\n        /* \"https://github.com/Vectorized/solady/blob/main/src/tokens/ERC20.sol\":19839:19851  add(m, 0x80) */\n      add\n        /* \"https://github.com/Vectorized/solady/blob/main/src/tokens/ERC20.sol\":19832:19864  mstore(add(m, 0x80), nonceValue) */\n      mstore\n        /* \"https://github.com/Vectorized/solady/blob/main/src/tokens/ERC20.sol\":19898:19906  deadline */\n      dup9\n        /* \"https://github.com/Vectorized/solady/blob/main/src/tokens/ERC20.sol\":19891:19895  0xa0 */\n      0xa0\n        /* \"https://github.com/Vectorized/solady/blob/main/src/tokens/ERC20.sol\":19888:19889  m */\n      dup5\n        /* \"https://github.com/Vectorized/solady/blob/main/src/tokens/ERC20.sol\":19884:19896  add(m, 0xa0) */\n      add\n        /* \"https://github.com/Vectorized/solady/blob/main/src/tokens/ERC20.sol\":19877:19907  mstore(add(m, 0xa0), deadline) */\n      mstore\n        /* \"https://github.com/Vectorized/solady/blob/main/src/tokens/ERC20.sol\":19946:19950  0xc0 */\n      0xc0\n        /* \"https://github.com/Vectorized/solady/blob/main/src/tokens/ERC20.sol\":19943:19944  m */\n      dup4\n        /* \"https://github.com/Vectorized/solady/blob/main/src/tokens/ERC20.sol\":19933:19951  keccak256(m, 0xc0) */\n      keccak256\n        /* \"https://github.com/Vectorized/solady/blob/main/src/tokens/ERC20.sol\":19927:19931  0x4e */\n      0x4e\n        /* \"https://github.com/Vectorized/solady/blob/main/src/tokens/ERC20.sol\":19920:19952  mstore(0x4e, keccak256(m, 0xc0)) */\n      mstore\n        /* \"https://github.com/Vectorized/solady/blob/main/src/tokens/ERC20.sol\":20041:20045  0x42 */\n      0x42\n        /* \"https://github.com/Vectorized/solady/blob/main/src/tokens/ERC20.sol\":20035:20039  0x2c */\n      0x2c\n        /* \"https://github.com/Vectorized/solady/blob/main/src/tokens/ERC20.sol\":20025:20046  keccak256(0x2c, 0x42) */\n      keccak256\n        /* \"https://github.com/Vectorized/solady/blob/main/src/tokens/ERC20.sol\":20019:20023  0x00 */\n      0x00\n        /* \"https://github.com/Vectorized/solady/blob/main/src/tokens/ERC20.sol\":20012:20047  mstore(0x00, keccak256(0x2c, 0x42)) */\n      mstore\n        /* \"https://github.com/Vectorized/solady/blob/main/src/tokens/ERC20.sol\":20083:20084  v */\n      dup8\n        /* \"https://github.com/Vectorized/solady/blob/main/src/tokens/ERC20.sol\":20077:20081  0xff */\n      0xff\n        /* \"https://github.com/Vectorized/solady/blob/main/src/tokens/ERC20.sol\":20073:20085  and(0xff, v) */\n      and\n        /* \"https://github.com/Vectorized/solady/blob/main/src/tokens/ERC20.sol\":20067:20071  0x20 */\n      0x20\n        /* \"https://github.com/Vectorized/solady/blob/main/src/tokens/ERC20.sol\":20060:20086  mstore(0x20, and(0xff, v)) */\n      mstore\n        /* \"https://github.com/Vectorized/solady/blob/main/src/tokens/ERC20.sol\":20112:20113  r */\n      dup7\n        /* \"https://github.com/Vectorized/solady/blob/main/src/tokens/ERC20.sol\":20106:20110  0x40 */\n      0x40\n        /* \"https://github.com/Vectorized/solady/blob/main/src/tokens/ERC20.sol\":20099:20114  mstore(0x40, r) */\n      mstore\n        /* \"https://github.com/Vectorized/solady/blob/main/src/tokens/ERC20.sol\":20140:20141  s */\n      dup6\n        /* \"https://github.com/Vectorized/solady/blob/main/src/tokens/ERC20.sol\":20134:20138  0x60 */\n      0x60\n        /* \"https://github.com/Vectorized/solady/blob/main/src/tokens/ERC20.sol\":20127:20142  mstore(0x60, s) */\n      mstore\n        /* \"https://github.com/Vectorized/solady/blob/main/src/tokens/ERC20.sol\":20203:20207  0x20 */\n      0x20\n        /* \"https://github.com/Vectorized/solady/blob/main/src/tokens/ERC20.sol\":20197:20201  0x20 */\n      dup1\n        /* \"https://github.com/Vectorized/solady/blob/main/src/tokens/ERC20.sol\":20191:20195  0x80 */\n      0x80\n        /* \"https://github.com/Vectorized/solady/blob/main/src/tokens/ERC20.sol\":20185:20189  0x00 */\n      0x00\n        /* \"https://github.com/Vectorized/solady/blob/main/src/tokens/ERC20.sol\":20182:20183  1 */\n      0x01\n        /* \"https://github.com/Vectorized/solady/blob/main/src/tokens/ERC20.sol\":20175:20180  gas() */\n      gas\n        /* \"https://github.com/Vectorized/solady/blob/main/src/tokens/ERC20.sol\":20164:20208  staticcall(gas(), 1, 0x00, 0x80, 0x20, 0x20) */\n      staticcall\n        /* \"https://github.com/Vectorized/solady/blob/main/src/tokens/ERC20.sol\":20624:20629  owner */\n      dup13\n        /* \"https://github.com/Vectorized/solady/blob/main/src/tokens/ERC20.sol\":20605:20621  returndatasize() */\n      returndatasize\n        /* \"https://github.com/Vectorized/solady/blob/main/src/tokens/ERC20.sol\":20599:20622  mload(returndatasize()) */\n      mload\n        /* \"https://github.com/Vectorized/solady/blob/main/src/tokens/ERC20.sol\":20596:20630  eq(mload(returndatasize()), owner) */\n      eq\n        /* \"https://github.com/Vectorized/solady/blob/main/src/tokens/ERC20.sol\":20586:20745  if iszero(eq(mload(returndatasize()), owner)) {... */\n      tag_463\n      jumpi\n        /* \"https://github.com/Vectorized/solady/blob/main/src/tokens/ERC20.sol\":20663:20673  0xddafbaef */\n      0xddafbaef\n        /* \"https://github.com/Vectorized/solady/blob/main/src/tokens/ERC20.sol\":20657:20661  0x00 */\n      0x00\n        /* \"https://github.com/Vectorized/solady/blob/main/src/tokens/ERC20.sol\":20650:20674  mstore(0x00, 0xddafbaef) */\n      mstore\n        /* \"https://github.com/Vectorized/solady/blob/main/src/tokens/ERC20.sol\":20726:20730  0x04 */\n      0x04\n        /* \"https://github.com/Vectorized/solady/blob/main/src/tokens/ERC20.sol\":20720:20724  0x1c */\n      0x1c\n        /* \"https://github.com/Vectorized/solady/blob/main/src/tokens/ERC20.sol\":20713:20731  revert(0x1c, 0x04) */\n      revert\n        /* \"https://github.com/Vectorized/solady/blob/main/src/tokens/ERC20.sol\":20586:20745  if iszero(eq(mload(returndatasize()), owner)) {... */\n    tag_463:\n        /* \"https://github.com/Vectorized/solady/blob/main/src/tokens/ERC20.sol\":20830:20848  add(nonceValue, t) */\n      add\n        /* \"https://github.com/Vectorized/solady/blob/main/src/tokens/ERC20.sol\":20812:20849  sstore(nonceSlot, add(nonceValue, t)) */\n      swap1\n      sstore\n      shl(0xa5, 0x03faf4f9)\n        /* \"https://github.com/Vectorized/solady/blob/main/src/tokens/ERC20.sol\":21025:21068  or(shl(160, _ALLOWANCE_SLOT_SEED), spender) */\n      dup10\n      or\n        /* \"https://github.com/Vectorized/solady/blob/main/src/tokens/ERC20.sol\":21019:21023  0x40 */\n      0x40\n        /* \"https://github.com/Vectorized/solady/blob/main/src/tokens/ERC20.sol\":21012:21069  mstore(0x40, or(shl(160, _ALLOWANCE_SLOT_SEED), spender)) */\n      mstore\n        /* \"https://github.com/Vectorized/solady/blob/main/src/tokens/ERC20.sol\":21105:21109  0x34 */\n      0x34\n        /* \"https://github.com/Vectorized/solady/blob/main/src/tokens/ERC20.sol\":21099:21103  0x2c */\n      0x2c\n        /* \"https://github.com/Vectorized/solady/blob/main/src/tokens/ERC20.sol\":21089:21110  keccak256(0x2c, 0x34) */\n      keccak256\n        /* \"https://github.com/Vectorized/solady/blob/main/src/tokens/ERC20.sol\":21082:21118  sstore(keccak256(0x2c, 0x34), value) */\n      dup9\n      swap1\n      sstore\n        /* \"https://github.com/Vectorized/solady/blob/main/src/tokens/ERC20.sol\":21060:21067  spender */\n      dup9\n        /* \"https://github.com/Vectorized/solady/blob/main/src/tokens/ERC20.sol\":21225:21230  owner */\n      dup11\n        /* \"https://github.com/Vectorized/solady/blob/main/src/tokens/ERC20.sol\":21198:21223  _APPROVAL_EVENT_SIGNATURE */\n      0x8c5be1e5ebec7d5bd14f71427d1e84f3dd0314c0f7b2291e5b200ac8c7c3b925\n      0x20\n        /* \"https://github.com/Vectorized/solady/blob/main/src/tokens/ERC20.sol\":21185:21189  0x60 */\n      0x60\n        /* \"https://github.com/Vectorized/solady/blob/main/src/tokens/ERC20.sol\":21178:21190  add(m, 0x60) */\n      dup6\n      add\n        /* \"https://github.com/Vectorized/solady/blob/main/src/tokens/ERC20.sol\":21173:21240  log3(add(m, 0x60), 0x20, _APPROVAL_EVENT_SIGNATURE, owner, spender) */\n      log3\n        /* \"https://github.com/Vectorized/solady/blob/main/src/tokens/ERC20.sol\":21260:21264  0x40 */\n      0x40\n        /* \"https://github.com/Vectorized/solady/blob/main/src/tokens/ERC20.sol\":21253:21268  mstore(0x40, m) */\n      mstore\n      pop\n      pop\n        /* \"https://github.com/Vectorized/solady/blob/main/src/tokens/ERC20.sol\":21330:21331  0 */\n      0x00\n        /* \"https://github.com/Vectorized/solady/blob/main/src/tokens/ERC20.sol\":21324:21328  0x60 */\n      0x60\n        /* \"https://github.com/Vectorized/solady/blob/main/src/tokens/ERC20.sol\":21317:21332  mstore(0x60, 0) */\n      mstore\n      pop\n      pop\n      pop\n      pop\n      pop\n      pop\n      pop\n        /* \"https://github.com/Vectorized/solady/blob/main/src/tokens/ERC20.sol\":17661:21377  function permit(... */\n      jump\t// out\n        /* \"src/SwapAbstract.sol\":971:1258  function erc20ToNativeSwap(uint erc20sSold, address recipient, Permit2Sig calldata sig) public returns (uint nativesBought) {... */\n    tag_229:\n        /* \"src/SwapAbstract.sol\":1075:1093  uint nativesBought */\n      0x00\n      sub(shl(0xa0, 0x01), 0x01)\n        /* \"src/SwapAbstract.sol\":1106:1111  asset */\n      immutable(\"0xb26b33956cf5e09b9bda3f13e0f5c76b73e9d24f4f4d5a58bdd9de6b8e0a4d8c\")\n        /* \"src/SwapAbstract.sol\":1106:1118  asset.permit */\n      and\n      0xd505accf\n        /* \"src/SwapAbstract.sol\":1119:1129  msg.sender */\n      caller\n        /* \"src/SwapAbstract.sol\":1139:1143  this */\n      address\n        /* \"src/SwapAbstract.sol\":1146:1156  erc20sSold */\n      dup8\n        /* \"src/SwapAbstract.sol\":1158:1170  sig.deadline */\n      dup7\n      calldataload\n        /* \"src/SwapAbstract.sol\":1172:1177  sig.v */\n      tag_469\n      0x40\n      dup10\n      add\n      0x20\n      dup11\n      add\n      tag_470\n      jump\t// in\n    tag_469:\n        /* \"src/SwapAbstract.sol\":1179:1184  sig.r */\n      0x40\n        /* \"src/SwapAbstract.sol\":1106:1192  asset.permit(msg.sender, address(this), erc20sSold, sig.deadline, sig.v, sig.r, sig.s) */\n      dup1\n      mload\n      not(sub(shl(0xe0, 0x01), 0x01))\n      0xe0\n      dup10\n      swap1\n      shl\n      and\n      dup2\n      mstore\n      sub(shl(0xa0, 0x01), 0x01)\n        /* \"#utility.yul\":12138:12170   */\n      swap7\n      dup8\n      and\n        /* \"src/SwapAbstract.sol\":1106:1192  asset.permit(msg.sender, address(this), erc20sSold, sig.deadline, sig.v, sig.r, sig.s) */\n      0x04\n      dup3\n      add\n        /* \"#utility.yul\":12120:12171   */\n      mstore\n        /* \"#utility.yul\":12207:12239   */\n      swap6\n      swap1\n      swap5\n      and\n        /* \"#utility.yul\":12187:12205   */\n      0x24\n      dup7\n      add\n        /* \"#utility.yul\":12180:12240   */\n      mstore\n        /* \"#utility.yul\":12256:12274   */\n      0x44\n      dup6\n      add\n        /* \"#utility.yul\":12249:12283   */\n      swap3\n      swap1\n      swap3\n      mstore\n        /* \"#utility.yul\":12299:12317   */\n      0x64\n      dup5\n      add\n        /* \"#utility.yul\":12292:12326   */\n      mstore\n        /* \"#utility.yul\":12375:12379   */\n      0xff\n        /* \"#utility.yul\":12363:12380   */\n      and\n        /* \"#utility.yul\":12342:12361   */\n      0x84\n      dup4\n      add\n        /* \"#utility.yul\":12335:12381   */\n      mstore\n        /* \"src/SwapAbstract.sol\":1179:1184  sig.r */\n      dup6\n      add\n      calldataload\n        /* \"#utility.yul\":12397:12416   */\n      0xa4\n      dup3\n      add\n        /* \"#utility.yul\":12390:12425   */\n      mstore\n        /* \"src/SwapAbstract.sol\":1186:1191  sig.s */\n      0x60\n      dup6\n      add\n      calldataload\n        /* \"#utility.yul\":12441:12460   */\n      0xc4\n      dup3\n      add\n        /* \"#utility.yul\":12434:12469   */\n      mstore\n        /* \"#utility.yul\":12092:12111   */\n      0xe4\n      add\n        /* \"src/SwapAbstract.sol\":1106:1192  asset.permit(msg.sender, address(this), erc20sSold, sig.deadline, sig.v, sig.r, sig.s) */\n      0x00\n      mload(0x40)\n      dup1\n      dup4\n      sub\n      dup2\n      0x00\n      dup8\n      dup1\n      extcodesize\n      iszero\n      dup1\n      iszero\n      tag_473\n      jumpi\n      revert(0x00, 0x00)\n    tag_473:\n      pop\n      gas\n      call\n      iszero\n      dup1\n      iszero\n      tag_475\n      jumpi\n      returndatacopy(0x00, 0x00, returndatasize)\n      revert(0x00, returndatasize)\n    tag_475:\n      pop\n      pop\n      pop\n      pop\n        /* \"src/SwapAbstract.sol\":1210:1250  erc20ToNativeSwap(erc20sSold, recipient) */\n      tag_476\n        /* \"src/SwapAbstract.sol\":1228:1238  erc20sSold */\n      dup5\n        /* \"src/SwapAbstract.sol\":1240:1249  recipient */\n      dup5\n        /* \"src/SwapAbstract.sol\":1210:1227  erc20ToNativeSwap */\n      tag_71\n        /* \"src/SwapAbstract.sol\":1210:1250  erc20ToNativeSwap(erc20sSold, recipient) */\n      jump\t// in\n    tag_476:\n        /* \"src/SwapAbstract.sol\":1203:1250  return erc20ToNativeSwap(erc20sSold, recipient) */\n      swap5\n        /* \"src/SwapAbstract.sol\":971:1258  function erc20ToNativeSwap(uint erc20sSold, address recipient, Permit2Sig calldata sig) public returns (uint nativesBought) {... */\n      swap4\n      pop\n      pop\n      pop\n      pop\n      jump\t// out\n        /* \"src/AquitardLPCore.0.0.1.sol\":1951:2294  function getNativeToERC20Price(uint nativesSold) public override view returns (uint erc20sBought) {... */\n    tag_234:\n        /* \"src/AquitardLPCore.0.0.1.sol\":2030:2047  uint erc20sBought */\n      0x00\n        /* \"src/AquitardLPCore.0.0.1.sol\":2112:2141  nativeInhibitor + nativesSold */\n      tag_478\n        /* \"src/AquitardLPCore.0.0.1.sol\":2130:2141  nativesSold */\n      dup3\n      sub(shl(0x80, 0x01), 0x01)\n        /* \"src/AquitardLPCore.0.0.1.sol\":2112:2127  nativeInhibitor */\n      immutable(\"0xc53e81d5df64592d8da771bc0a3ae4c598dca5ecd02622d7a28774b6b78c4b19\")\n        /* \"src/AquitardLPCore.0.0.1.sol\":2112:2141  nativeInhibitor + nativesSold */\n      and\n      tag_264\n      jump\t// in\n    tag_478:\n        /* \"src/AquitardLPCore.0.0.1.sol\":2097:2108  nativesSold */\n      dup3\n        /* \"src/AquitardLPCore.0.0.1.sol\":2075:2094  purchasableERC20s() */\n      tag_479\n        /* \"src/AquitardLPCore.0.0.1.sol\":2075:2092  purchasableERC20s */\n      tag_164\n        /* \"src/AquitardLPCore.0.0.1.sol\":2075:2094  purchasableERC20s() */\n      jump\t// in\n    tag_479:\n        /* \"src/AquitardLPCore.0.0.1.sol\":2075:2108  purchasableERC20s() * nativesSold */\n      tag_480\n      swap2\n      swap1\n      tag_278\n      jump\t// in\n    tag_480:\n        /* \"src/AquitardLPCore.0.0.1.sol\":2075:2142  purchasableERC20s() * nativesSold / (nativeInhibitor + nativesSold) */\n      tag_481\n      swap2\n      swap1\n      tag_262\n      jump\t// in\n    tag_481:\n        /* \"src/AquitardLPCore.0.0.1.sol\":2170:2200  asset.balanceOf(address(this)) */\n      mload(0x40)\n      shl(0xe0, 0x70a08231)\n      dup2\n      mstore\n        /* \"src/AquitardLPCore.0.0.1.sol\":2194:2198  this */\n      address\n        /* \"src/AquitardLPCore.0.0.1.sol\":2170:2200  asset.balanceOf(address(this)) */\n      0x04\n      dup3\n      add\n        /* \"#utility.yul\":4348:4399   */\n      mstore\n        /* \"src/AquitardLPCore.0.0.1.sol\":2060:2142  erc20sBought = purchasableERC20s() * nativesSold / (nativeInhibitor + nativesSold) */\n      swap1\n      swap2\n      pop\n        /* \"src/AquitardLPCore.0.0.1.sol\":2155:2167  uint balance */\n      0x00\n      swap1\n      sub(shl(0xa0, 0x01), 0x01)\n        /* \"src/AquitardLPCore.0.0.1.sol\":2170:2175  asset */\n      immutable(\"0xb26b33956cf5e09b9bda3f13e0f5c76b73e9d24f4f4d5a58bdd9de6b8e0a4d8c\")\n        /* \"src/AquitardLPCore.0.0.1.sol\":2170:2185  asset.balanceOf */\n      and\n      swap1\n      0x70a08231\n      swap1\n        /* \"#utility.yul\":4321:4339   */\n      0x24\n      add\n        /* \"src/AquitardLPCore.0.0.1.sol\":2170:2200  asset.balanceOf(address(this)) */\n      0x20\n      mload(0x40)\n      dup1\n      dup4\n      sub\n      dup2\n      dup7\n      gas\n      staticcall\n      iszero\n      dup1\n      iszero\n      tag_484\n      jumpi\n      returndatacopy(0x00, 0x00, returndatasize)\n      revert(0x00, returndatasize)\n    tag_484:\n      pop\n      pop\n      pop\n      pop\n      mload(0x40)\n      returndatasize\n      not(0x1f)\n      0x1f\n      dup3\n      add\n      and\n      dup3\n      add\n      dup1\n      0x40\n      mstore\n      pop\n      dup2\n      add\n      swap1\n      tag_485\n      swap2\n      swap1\n      tag_256\n      jump\t// in\n    tag_485:\n        /* \"src/AquitardLPCore.0.0.1.sol\":2155:2200  uint balance = asset.balanceOf(address(this)) */\n      swap1\n      pop\n        /* \"src/AquitardLPCore.0.0.1.sol\":2224:2236  erc20sBought */\n      dup2\n        /* \"src/AquitardLPCore.0.0.1.sol\":2214:2221  balance */\n      dup2\n        /* \"src/AquitardLPCore.0.0.1.sol\":2214:2236  balance < erc20sBought */\n      lt\n        /* \"src/AquitardLPCore.0.0.1.sol\":2211:2287  if(balance < erc20sBought) {... */\n      iszero\n      tag_439\n      jumpi\n        /* \"src/AquitardLPCore.0.0.1.sol\":2268:2275  balance */\n      swap3\n        /* \"src/AquitardLPCore.0.0.1.sol\":1951:2294  function getNativeToERC20Price(uint nativesSold) public override view returns (uint erc20sBought) {... */\n      swap2\n      pop\n      pop\n      jump\t// out\n        /* \"src/AquitardLPCore.0.0.1.sol\":3320:3433  function previewDeposit(uint assets) public view returns (uint) {... */\n    tag_239:\n        /* \"src/AquitardLPCore.0.0.1.sol\":3378:3382  uint */\n      0x00\n        /* \"src/AquitardLPCore.0.0.1.sol\":3402:3425  convertToShares(assets) */\n      tag_279\n        /* \"src/AquitardLPCore.0.0.1.sol\":3418:3424  assets */\n      dup3\n        /* \"src/AquitardLPCore.0.0.1.sol\":3402:3417  convertToShares */\n      tag_212\n        /* \"src/AquitardLPCore.0.0.1.sol\":3402:3425  convertToShares(assets) */\n      jump\t// in\n        /* \"src/AquitardLPCore.0.0.1.sol\":4708:5235  function deposit(address receiver) payable public returns (uint shares) {... */\n    tag_243:\n        /* \"src/AquitardLPCore.0.0.1.sol\":4767:4778  uint shares */\n      0x00\n        /* \"src/AquitardLPCore.0.0.1.sol\":4829:4862  address(this).balance - msg.value */\n      tag_490\n        /* \"src/AquitardLPCore.0.0.1.sol\":4853:4862  msg.value */\n      callvalue\n        /* \"src/AquitardLPCore.0.0.1.sol\":4829:4850  address(this).balance */\n      selfbalance\n        /* \"src/AquitardLPCore.0.0.1.sol\":4829:4862  address(this).balance - msg.value */\n      tag_258\n      jump\t// in\n    tag_490:\n        /* \"src/AquitardLPCore.0.0.1.sol\":4816:4825  msg.value */\n      callvalue\n        /* \"src/AquitardLPCore.0.0.1.sol\":4800:4813  totalSupply() */\n      tag_491\n        /* \"https://github.com/Vectorized/solady/blob/main/src/tokens/ERC20.sol\":7067:7085  _TOTAL_SUPPLY_SLOT */\n      0x05345cdf77eb68f44c\n        /* \"https://github.com/Vectorized/solady/blob/main/src/tokens/ERC20.sol\":7061:7086  sload(_TOTAL_SUPPLY_SLOT) */\n      sload\n      swap1\n        /* \"https://github.com/Vectorized/solady/blob/main/src/tokens/ERC20.sol\":6907:7102  function totalSupply() public view virtual returns (uint256 result) {... */\n      jump\n        /* \"src/AquitardLPCore.0.0.1.sol\":4800:4813  totalSupply() */\n    tag_491:\n        /* \"src/AquitardLPCore.0.0.1.sol\":4800:4825  totalSupply() * msg.value */\n      tag_492\n      swap2\n      swap1\n      tag_278\n      jump\t// in\n    tag_492:\n        /* \"src/AquitardLPCore.0.0.1.sol\":4800:4863  totalSupply() * msg.value / (address(this).balance - msg.value) */\n      tag_493\n      swap2\n      swap1\n      tag_262\n      jump\t// in\n    tag_493:\n        /* \"src/AquitardLPCore.0.0.1.sol\":4791:4863  shares = totalSupply() * msg.value / (address(this).balance - msg.value) */\n      swap1\n      pop\n        /* \"src/AquitardLPCore.0.0.1.sol\":4874:4885  uint assets */\n      0x00\n        /* \"src/AquitardLPCore.0.0.1.sol\":4934:4967  address(this).balance - msg.value */\n      tag_494\n        /* \"src/AquitardLPCore.0.0.1.sol\":4958:4967  msg.value */\n      callvalue\n        /* \"src/AquitardLPCore.0.0.1.sol\":4934:4955  address(this).balance */\n      selfbalance\n        /* \"src/AquitardLPCore.0.0.1.sol\":4934:4967  address(this).balance - msg.value */\n      tag_258\n      jump\t// in\n    tag_494:\n        /* \"src/AquitardLPCore.0.0.1.sol\":4888:4918  asset.balanceOf(address(this)) */\n      mload(0x40)\n      shl(0xe0, 0x70a08231)\n      dup2\n      mstore\n        /* \"src/AquitardLPCore.0.0.1.sol\":4912:4916  this */\n      address\n        /* \"src/AquitardLPCore.0.0.1.sol\":4888:4918  asset.balanceOf(address(this)) */\n      0x04\n      dup3\n      add\n        /* \"#utility.yul\":4348:4399   */\n      mstore\n        /* \"src/AquitardLPCore.0.0.1.sol\":4921:4930  msg.value */\n      callvalue\n      swap1\n        /* \"src/AquitardLPCore.0.0.1.sol\":4888:4893  asset */\n      immutable(\"0xb26b33956cf5e09b9bda3f13e0f5c76b73e9d24f4f4d5a58bdd9de6b8e0a4d8c\")\n      sub(shl(0xa0, 0x01), 0x01)\n        /* \"src/AquitardLPCore.0.0.1.sol\":4888:4903  asset.balanceOf */\n      and\n      swap1\n      0x70a08231\n      swap1\n        /* \"#utility.yul\":4321:4339   */\n      0x24\n      add\n        /* \"src/AquitardLPCore.0.0.1.sol\":4888:4918  asset.balanceOf(address(this)) */\n      0x20\n      mload(0x40)\n      dup1\n      dup4\n      sub\n      dup2\n      dup7\n      gas\n      staticcall\n      iszero\n      dup1\n      iszero\n      tag_497\n      jumpi\n      returndatacopy(0x00, 0x00, returndatasize)\n      revert(0x00, returndatasize)\n    tag_497:\n      pop\n      pop\n      pop\n      pop\n      mload(0x40)\n      returndatasize\n      not(0x1f)\n      0x1f\n      dup3\n      add\n      and\n      dup3\n      add\n      dup1\n      0x40\n      mstore\n      pop\n      dup2\n      add\n      swap1\n      tag_498\n      swap2\n      swap1\n      tag_256\n      jump\t// in\n    tag_498:\n        /* \"src/AquitardLPCore.0.0.1.sol\":4888:4930  asset.balanceOf(address(this)) * msg.value */\n      tag_499\n      swap2\n      swap1\n      tag_278\n      jump\t// in\n    tag_499:\n        /* \"src/AquitardLPCore.0.0.1.sol\":4888:4968  asset.balanceOf(address(this)) * msg.value / (address(this).balance - msg.value) */\n      tag_500\n      swap2\n      swap1\n      tag_262\n      jump\t// in\n    tag_500:\n        /* \"src/AquitardLPCore.0.0.1.sol\":4874:4968  uint assets = asset.balanceOf(address(this)) * msg.value / (address(this).balance - msg.value) */\n      swap1\n      pop\n        /* \"src/AquitardLPCore.0.0.1.sol\":5034:5057  _mint(receiver, shares) */\n      tag_501\n        /* \"src/AquitardLPCore.0.0.1.sol\":5040:5048  receiver */\n      dup4\n        /* \"src/AquitardLPCore.0.0.1.sol\":5050:5056  shares */\n      dup4\n        /* \"src/AquitardLPCore.0.0.1.sol\":5034:5039  _mint */\n      tag_347\n        /* \"src/AquitardLPCore.0.0.1.sol\":5034:5057  _mint(receiver, shares) */\n      jump\t// in\n    tag_501:\n        /* \"src/AquitardLPCore.0.0.1.sol\":5098:5149  asset.transferFrom(msg.sender,address(this),assets) */\n      mload(0x40)\n      shl(0xe0, 0x23b872dd)\n      dup2\n      mstore\n      sub(shl(0xa0, 0x01), 0x01)\n        /* \"src/AquitardLPCore.0.0.1.sol\":5098:5103  asset */\n      immutable(\"0xb26b33956cf5e09b9bda3f13e0f5c76b73e9d24f4f4d5a58bdd9de6b8e0a4d8c\")\n        /* \"src/AquitardLPCore.0.0.1.sol\":5098:5116  asset.transferFrom */\n      and\n      swap1\n      0x23b872dd\n      swap1\n        /* \"src/AquitardLPCore.0.0.1.sol\":5098:5149  asset.transferFrom(msg.sender,address(this),assets) */\n      tag_502\n      swap1\n        /* \"src/AquitardLPCore.0.0.1.sol\":5117:5127  msg.sender */\n      caller\n      swap1\n        /* \"src/AquitardLPCore.0.0.1.sol\":5136:5140  this */\n      address\n      swap1\n        /* \"src/AquitardLPCore.0.0.1.sol\":5142:5148  assets */\n      dup7\n      swap1\n        /* \"src/AquitardLPCore.0.0.1.sol\":5098:5149  asset.transferFrom(msg.sender,address(this),assets) */\n      0x04\n      add\n      tag_285\n      jump\t// in\n    tag_502:\n      0x20\n      mload(0x40)\n      dup1\n      dup4\n      sub\n      dup2\n      0x00\n      dup8\n      gas\n      call\n      iszero\n      dup1\n      iszero\n      tag_504\n      jumpi\n      returndatacopy(0x00, 0x00, returndatasize)\n      revert(0x00, returndatasize)\n    tag_504:\n      pop\n      pop\n      pop\n      pop\n      mload(0x40)\n      returndatasize\n      not(0x1f)\n      0x1f\n      dup3\n      add\n      and\n      dup3\n      add\n      dup1\n      0x40\n      mstore\n      pop\n      dup2\n      add\n      swap1\n      tag_505\n      swap2\n      swap1\n      tag_251\n      jump\t// in\n    tag_505:\n      pop\n        /* \"src/AquitardLPCore.0.0.1.sol\":5185:5227  Deposit(msg.sender,receiver,assets,shares) */\n      0x40\n      dup1\n      mload\n        /* \"#utility.yul\":9801:9826   */\n      dup3\n      dup2\n      mstore\n        /* \"#utility.yul\":9857:9859   */\n      0x20\n        /* \"#utility.yul\":9842:9860   */\n      dup2\n      add\n        /* \"#utility.yul\":9835:9869   */\n      dup5\n      swap1\n      mstore\n      sub(shl(0xa0, 0x01), 0x01)\n        /* \"src/AquitardLPCore.0.0.1.sol\":5185:5227  Deposit(msg.sender,receiver,assets,shares) */\n      dup6\n      and\n      swap2\n        /* \"src/AquitardLPCore.0.0.1.sol\":5193:5203  msg.sender */\n      caller\n      swap2\n      mload(0x00)\n      codecopy(0x00, data_f153f45295e6c417ef2e31903186ee1a5d0c2546461fb67769dfe29ae5912c6f, 0x20)\n      mload(0x00)\n      swap1\n      0x00\n      mstore\n        /* \"src/AquitardLPCore.0.0.1.sol\":5185:5227  Deposit(msg.sender,receiver,assets,shares) */\n      swap2\n        /* \"#utility.yul\":9774:9792   */\n      add\n        /* \"src/AquitardLPCore.0.0.1.sol\":5185:5227  Deposit(msg.sender,receiver,assets,shares) */\n      mload(0x40)\n      dup1\n      swap2\n      sub\n      swap1\n      log3\n        /* \"src/AquitardLPCore.0.0.1.sol\":4780:5235  {... */\n      pop\n        /* \"src/AquitardLPCore.0.0.1.sol\":4708:5235  function deposit(address receiver) payable public returns (uint shares) {... */\n      swap2\n      swap1\n      pop\n      jump\t// out\n        /* \"https://github.com/Vectorized/solady/blob/main/src/tokens/ERC20.sol\":22599:23771  function _mint(address to, uint256 amount) internal virtual {... */\n    tag_347:\n        /* \"https://github.com/Vectorized/solady/blob/main/src/tokens/ERC20.sol\":22820:22838  _TOTAL_SUPPLY_SLOT */\n      0x05345cdf77eb68f44c\n        /* \"https://github.com/Vectorized/solady/blob/main/src/tokens/ERC20.sol\":22814:22839  sload(_TOTAL_SUPPLY_SLOT) */\n      sload\n        /* \"https://github.com/Vectorized/solady/blob/main/src/tokens/ERC20.sol\":22899:22905  amount */\n      dup2\n        /* \"https://github.com/Vectorized/solady/blob/main/src/tokens/ERC20.sol\":22880:22897  totalSupplyBefore */\n      dup2\n        /* \"https://github.com/Vectorized/solady/blob/main/src/tokens/ERC20.sol\":22876:22906  add(totalSupplyBefore, amount) */\n      add\n        /* \"https://github.com/Vectorized/solady/blob/main/src/tokens/ERC20.sol\":22996:23013  totalSupplyBefore */\n      dup2\n        /* \"https://github.com/Vectorized/solady/blob/main/src/tokens/ERC20.sol\":22978:22994  totalSupplyAfter */\n      dup2\n        /* \"https://github.com/Vectorized/solady/blob/main/src/tokens/ERC20.sol\":22975:23014  lt(totalSupplyAfter, totalSupplyBefore) */\n      lt\n        /* \"https://github.com/Vectorized/solady/blob/main/src/tokens/ERC20.sol\":22972:23134  if lt(totalSupplyAfter, totalSupplyBefore) {... */\n      iszero\n      tag_514\n      jumpi\n        /* \"https://github.com/Vectorized/solady/blob/main/src/tokens/ERC20.sol\":23046:23056  0xe5cfe957 */\n      0xe5cfe957\n        /* \"https://github.com/Vectorized/solady/blob/main/src/tokens/ERC20.sol\":23040:23044  0x00 */\n      0x00\n        /* \"https://github.com/Vectorized/solady/blob/main/src/tokens/ERC20.sol\":23033:23057  mstore(0x00, 0xe5cfe957) */\n      mstore\n        /* \"https://github.com/Vectorized/solady/blob/main/src/tokens/ERC20.sol\":23115:23119  0x04 */\n      0x04\n        /* \"https://github.com/Vectorized/solady/blob/main/src/tokens/ERC20.sol\":23109:23113  0x1c */\n      0x1c\n        /* \"https://github.com/Vectorized/solady/blob/main/src/tokens/ERC20.sol\":23102:23120  revert(0x1c, 0x04) */\n      revert\n        /* \"https://github.com/Vectorized/solady/blob/main/src/tokens/ERC20.sol\":22972:23134  if lt(totalSupplyAfter, totalSupplyBefore) {... */\n    tag_514:\n        /* \"https://github.com/Vectorized/solady/blob/main/src/tokens/ERC20.sol\":23221:23237  totalSupplyAfter */\n      dup1\n        /* \"https://github.com/Vectorized/solady/blob/main/src/tokens/ERC20.sol\":23201:23219  _TOTAL_SUPPLY_SLOT */\n      0x05345cdf77eb68f44c\n        /* \"https://github.com/Vectorized/solady/blob/main/src/tokens/ERC20.sol\":23194:23238  sstore(_TOTAL_SUPPLY_SLOT, totalSupplyAfter) */\n      sstore\n      pop\n      pop\n        /* \"https://github.com/Vectorized/solady/blob/main/src/tokens/ERC20.sol\":23324:23342  _BALANCE_SLOT_SEED */\n      0x87a211a2\n        /* \"https://github.com/Vectorized/solady/blob/main/src/tokens/ERC20.sol\":23318:23322  0x0c */\n      0x0c\n        /* \"https://github.com/Vectorized/solady/blob/main/src/tokens/ERC20.sol\":23311:23343  mstore(0x0c, _BALANCE_SLOT_SEED) */\n      mstore\n        /* \"https://github.com/Vectorized/solady/blob/main/src/tokens/ERC20.sol\":23369:23371  to */\n      dup2\n        /* \"https://github.com/Vectorized/solady/blob/main/src/tokens/ERC20.sol\":23363:23367  0x00 */\n      0x00\n        /* \"https://github.com/Vectorized/solady/blob/main/src/tokens/ERC20.sol\":23356:23372  mstore(0x00, to) */\n      mstore\n        /* \"https://github.com/Vectorized/solady/blob/main/src/tokens/ERC20.sol\":23422:23426  0x20 */\n      0x20\n        /* \"https://github.com/Vectorized/solady/blob/main/src/tokens/ERC20.sol\":23416:23420  0x0c */\n      0x0c\n        /* \"https://github.com/Vectorized/solady/blob/main/src/tokens/ERC20.sol\":23406:23427  keccak256(0x0c, 0x20) */\n      keccak256\n        /* \"https://github.com/Vectorized/solady/blob/main/src/tokens/ERC20.sol\":23538:23544  amount */\n      dup2\n        /* \"https://github.com/Vectorized/solady/blob/main/src/tokens/ERC20.sol\":23522:23535  toBalanceSlot */\n      dup2\n        /* \"https://github.com/Vectorized/solady/blob/main/src/tokens/ERC20.sol\":23516:23536  sload(toBalanceSlot) */\n      sload\n        /* \"https://github.com/Vectorized/solady/blob/main/src/tokens/ERC20.sol\":23512:23545  add(sload(toBalanceSlot), amount) */\n      add\n        /* \"https://github.com/Vectorized/solady/blob/main/src/tokens/ERC20.sol\":23497:23510  toBalanceSlot */\n      dup2\n        /* \"https://github.com/Vectorized/solady/blob/main/src/tokens/ERC20.sol\":23490:23546  sstore(toBalanceSlot, add(sload(toBalanceSlot), amount)) */\n      sstore\n      pop\n        /* \"https://github.com/Vectorized/solady/blob/main/src/tokens/ERC20.sol\":23614:23620  amount */\n      dup1\n        /* \"https://github.com/Vectorized/solady/blob/main/src/tokens/ERC20.sol\":23608:23612  0x20 */\n      0x20\n        /* \"https://github.com/Vectorized/solady/blob/main/src/tokens/ERC20.sol\":23601:23621  mstore(0x20, amount) */\n      mstore\n        /* \"https://github.com/Vectorized/solady/blob/main/src/tokens/ERC20.sol\":23695:23699  0x0c */\n      0x0c\n        /* \"https://github.com/Vectorized/solady/blob/main/src/tokens/ERC20.sol\":23689:23700  mload(0x0c) */\n      mload\n        /* \"https://github.com/Vectorized/solady/blob/main/src/tokens/ERC20.sol\":23685:23687  96 */\n      0x60\n        /* \"https://github.com/Vectorized/solady/blob/main/src/tokens/ERC20.sol\":23681:23701  shr(96, mload(0x0c)) */\n      shr\n        /* \"https://github.com/Vectorized/solady/blob/main/src/tokens/ERC20.sol\":23678:23679  0 */\n      0x00\n      mload(0x00)\n      codecopy(0x00, data_ada389e1fc24a8587c776340efb91b36e675792ab631816100d55df0b5cf3cbc, 0x20)\n      mload(0x00)\n      swap1\n      0x00\n      mstore\n        /* \"https://github.com/Vectorized/solady/blob/main/src/tokens/ERC20.sol\":23645:23649  0x20 */\n      0x20\n        /* \"https://github.com/Vectorized/solady/blob/main/src/tokens/ERC20.sol\":23639:23643  0x20 */\n      dup1\n        /* \"https://github.com/Vectorized/solady/blob/main/src/tokens/ERC20.sol\":23634:23702  log3(0x20, 0x20, _TRANSFER_EVENT_SIGNATURE, 0, shr(96, mload(0x0c))) */\n      log3\n        /* \"https://github.com/Vectorized/solady/blob/main/src/tokens/ERC20.sol\":22599:23771  function _mint(address to, uint256 amount) internal virtual {... */\n      pop\n      pop\n      jump\t// out\n        /* \"https://github.com/Vectorized/solady/blob/main/src/tokens/ERC20.sol\":27414:28501  function _spendAllowance(address owner, address spender, uint256 amount) internal virtual {... */\n    tag_416:\n        /* \"https://github.com/Vectorized/solady/blob/main/src/tokens/ERC20.sol\":27798:27805  spender */\n      dup2\n        /* \"https://github.com/Vectorized/solady/blob/main/src/tokens/ERC20.sol\":27792:27796  0x20 */\n      0x20\n        /* \"https://github.com/Vectorized/solady/blob/main/src/tokens/ERC20.sol\":27785:27806  mstore(0x20, spender) */\n      mstore\n        /* \"https://github.com/Vectorized/solady/blob/main/src/tokens/ERC20.sol\":27832:27852  _ALLOWANCE_SLOT_SEED */\n      0x7f5e9f20\n        /* \"https://github.com/Vectorized/solady/blob/main/src/tokens/ERC20.sol\":27826:27830  0x0c */\n      0x0c\n        /* \"https://github.com/Vectorized/solady/blob/main/src/tokens/ERC20.sol\":27819:27853  mstore(0x0c, _ALLOWANCE_SLOT_SEED) */\n      mstore\n        /* \"https://github.com/Vectorized/solady/blob/main/src/tokens/ERC20.sol\":27879:27884  owner */\n      dup3\n        /* \"https://github.com/Vectorized/solady/blob/main/src/tokens/ERC20.sol\":27873:27877  0x00 */\n      0x00\n        /* \"https://github.com/Vectorized/solady/blob/main/src/tokens/ERC20.sol\":27866:27885  mstore(0x00, owner) */\n      mstore\n        /* \"https://github.com/Vectorized/solady/blob/main/src/tokens/ERC20.sol\":27935:27939  0x34 */\n      0x34\n        /* \"https://github.com/Vectorized/solady/blob/main/src/tokens/ERC20.sol\":27929:27933  0x0c */\n      0x0c\n        /* \"https://github.com/Vectorized/solady/blob/main/src/tokens/ERC20.sol\":27919:27940  keccak256(0x0c, 0x34) */\n      keccak256\n        /* \"https://github.com/Vectorized/solady/blob/main/src/tokens/ERC20.sol\":27977:27990  allowanceSlot */\n      dup1\n        /* \"https://github.com/Vectorized/solady/blob/main/src/tokens/ERC20.sol\":27971:27991  sload(allowanceSlot) */\n      sload\n        /* \"https://github.com/Vectorized/solady/blob/main/src/tokens/ERC20.sol\":28077:28087  allowance_ */\n      dup1\n        /* \"https://github.com/Vectorized/solady/blob/main/src/tokens/ERC20.sol\":28073:28088  not(allowance_) */\n      not\n        /* \"https://github.com/Vectorized/solady/blob/main/src/tokens/ERC20.sol\":28070:28485  if not(allowance_) {... */\n      iszero\n      tag_520\n      jumpi\n        /* \"https://github.com/Vectorized/solady/blob/main/src/tokens/ERC20.sol\":28202:28212  allowance_ */\n      dup1\n        /* \"https://github.com/Vectorized/solady/blob/main/src/tokens/ERC20.sol\":28194:28200  amount */\n      dup4\n        /* \"https://github.com/Vectorized/solady/blob/main/src/tokens/ERC20.sol\":28191:28213  gt(amount, allowance_) */\n      gt\n        /* \"https://github.com/Vectorized/solady/blob/main/src/tokens/ERC20.sol\":28188:28347  if gt(amount, allowance_) {... */\n      iszero\n      tag_521\n      jumpi\n        /* \"https://github.com/Vectorized/solady/blob/main/src/tokens/ERC20.sol\":28249:28259  0x13be252b */\n      0x13be252b\n        /* \"https://github.com/Vectorized/solady/blob/main/src/tokens/ERC20.sol\":28243:28247  0x00 */\n      0x00\n        /* \"https://github.com/Vectorized/solady/blob/main/src/tokens/ERC20.sol\":28236:28260  mstore(0x00, 0x13be252b) */\n      mstore\n        /* \"https://github.com/Vectorized/solady/blob/main/src/tokens/ERC20.sol\":28324:28328  0x04 */\n      0x04\n        /* \"https://github.com/Vectorized/solady/blob/main/src/tokens/ERC20.sol\":28318:28322  0x1c */\n      0x1c\n        /* \"https://github.com/Vectorized/solady/blob/main/src/tokens/ERC20.sol\":28311:28329  revert(0x1c, 0x04) */\n      revert\n        /* \"https://github.com/Vectorized/solady/blob/main/src/tokens/ERC20.sol\":28188:28347  if gt(amount, allowance_) {... */\n    tag_521:\n        /* \"https://github.com/Vectorized/solady/blob/main/src/tokens/ERC20.sol\":28463:28469  amount */\n      dup3\n        /* \"https://github.com/Vectorized/solady/blob/main/src/tokens/ERC20.sol\":28451:28461  allowance_ */\n      dup2\n        /* \"https://github.com/Vectorized/solady/blob/main/src/tokens/ERC20.sol\":28447:28470  sub(allowance_, amount) */\n      sub\n        /* \"https://github.com/Vectorized/solady/blob/main/src/tokens/ERC20.sol\":28432:28445  allowanceSlot */\n      dup3\n        /* \"https://github.com/Vectorized/solady/blob/main/src/tokens/ERC20.sol\":28425:28471  sstore(allowanceSlot, sub(allowance_, amount)) */\n      sstore\n        /* \"https://github.com/Vectorized/solady/blob/main/src/tokens/ERC20.sol\":28070:28485  if not(allowance_) {... */\n    tag_520:\n      pop\n      pop\n        /* \"https://github.com/Vectorized/solady/blob/main/src/tokens/ERC20.sol\":27414:28501  function _spendAllowance(address owner, address spender, uint256 amount) internal virtual {... */\n      pop\n      pop\n      pop\n      jump\t// out\n        /* \"https://github.com/Vectorized/solady/blob/main/src/tokens/ERC20.sol\":24177:25296  function _burn(address from, uint256 amount) internal virtual {... */\n    tag_421:\n        /* \"https://github.com/Vectorized/solady/blob/main/src/tokens/ERC20.sol\":24444:24462  _BALANCE_SLOT_SEED */\n      0x87a211a2\n        /* \"https://github.com/Vectorized/solady/blob/main/src/tokens/ERC20.sol\":24438:24442  0x0c */\n      0x0c\n        /* \"https://github.com/Vectorized/solady/blob/main/src/tokens/ERC20.sol\":24431:24463  mstore(0x0c, _BALANCE_SLOT_SEED) */\n      mstore\n        /* \"https://github.com/Vectorized/solady/blob/main/src/tokens/ERC20.sol\":24489:24493  from */\n      dup2\n        /* \"https://github.com/Vectorized/solady/blob/main/src/tokens/ERC20.sol\":24483:24487  0x00 */\n      0x00\n        /* \"https://github.com/Vectorized/solady/blob/main/src/tokens/ERC20.sol\":24476:24494  mstore(0x00, from) */\n      mstore\n        /* \"https://github.com/Vectorized/solady/blob/main/src/tokens/ERC20.sol\":24546:24550  0x20 */\n      0x20\n        /* \"https://github.com/Vectorized/solady/blob/main/src/tokens/ERC20.sol\":24540:24544  0x0c */\n      0x0c\n        /* \"https://github.com/Vectorized/solady/blob/main/src/tokens/ERC20.sol\":24530:24551  keccak256(0x0c, 0x20) */\n      keccak256\n        /* \"https://github.com/Vectorized/solady/blob/main/src/tokens/ERC20.sol\":24589:24604  fromBalanceSlot */\n      dup1\n        /* \"https://github.com/Vectorized/solady/blob/main/src/tokens/ERC20.sol\":24583:24605  sload(fromBalanceSlot) */\n      sload\n        /* \"https://github.com/Vectorized/solady/blob/main/src/tokens/ERC20.sol\":24679:24690  fromBalance */\n      dup1\n        /* \"https://github.com/Vectorized/solady/blob/main/src/tokens/ERC20.sol\":24671:24677  amount */\n      dup4\n        /* \"https://github.com/Vectorized/solady/blob/main/src/tokens/ERC20.sol\":24668:24691  gt(amount, fromBalance) */\n      gt\n        /* \"https://github.com/Vectorized/solady/blob/main/src/tokens/ERC20.sol\":24665:24811  if gt(amount, fromBalance) {... */\n      iszero\n      tag_524\n      jumpi\n        /* \"https://github.com/Vectorized/solady/blob/main/src/tokens/ERC20.sol\":24723:24733  0xf4d678b8 */\n      0xf4d678b8\n        /* \"https://github.com/Vectorized/solady/blob/main/src/tokens/ERC20.sol\":24717:24721  0x00 */\n      0x00\n        /* \"https://github.com/Vectorized/solady/blob/main/src/tokens/ERC20.sol\":24710:24734  mstore(0x00, 0xf4d678b8) */\n      mstore\n        /* \"https://github.com/Vectorized/solady/blob/main/src/tokens/ERC20.sol\":24792:24796  0x04 */\n      0x04\n        /* \"https://github.com/Vectorized/solady/blob/main/src/tokens/ERC20.sol\":24786:24790  0x1c */\n      0x1c\n        /* \"https://github.com/Vectorized/solady/blob/main/src/tokens/ERC20.sol\":24779:24797  revert(0x1c, 0x04) */\n      revert\n        /* \"https://github.com/Vectorized/solady/blob/main/src/tokens/ERC20.sol\":24665:24811  if gt(amount, fromBalance) {... */\n    tag_524:\n        /* \"https://github.com/Vectorized/solady/blob/main/src/tokens/ERC20.sol\":24903:24927  sub(fromBalance, amount) */\n      dup3\n      swap1\n      sub\n        /* \"https://github.com/Vectorized/solady/blob/main/src/tokens/ERC20.sol\":24879:24928  sstore(fromBalanceSlot, sub(fromBalance, amount)) */\n      swap1\n      sstore\n        /* \"https://github.com/Vectorized/solady/blob/main/src/tokens/ERC20.sol\":25038:25056  _TOTAL_SUPPLY_SLOT */\n      0x05345cdf77eb68f44c\n        /* \"https://github.com/Vectorized/solady/blob/main/src/tokens/ERC20.sol\":25032:25057  sload(_TOTAL_SUPPLY_SLOT) */\n      dup1\n      sload\n        /* \"https://github.com/Vectorized/solady/blob/main/src/tokens/ERC20.sol\":25028:25066  sub(sload(_TOTAL_SUPPLY_SLOT), amount) */\n      dup3\n      swap1\n      sub\n        /* \"https://github.com/Vectorized/solady/blob/main/src/tokens/ERC20.sol\":25001:25067  sstore(_TOTAL_SUPPLY_SLOT, sub(sload(_TOTAL_SUPPLY_SLOT), amount)) */\n      swap1\n      sstore\n      0x00\n        /* \"https://github.com/Vectorized/solady/blob/main/src/tokens/ERC20.sol\":25122:25142  mstore(0x00, amount) */\n      dup2\n      dup2\n      mstore\n      sub(shl(0xa0, 0x01), 0x01)\n        /* \"https://github.com/Vectorized/solady/blob/main/src/tokens/ERC20.sol\":25199:25221  shr(96, shl(96, from)) */\n      dup4\n      and\n      mload(0x00)\n      codecopy(0x00, data_ada389e1fc24a8587c776340efb91b36e675792ab631816100d55df0b5cf3cbc, 0x20)\n      mload(0x00)\n      swap1\n      0x00\n      mstore\n        /* \"https://github.com/Vectorized/solady/blob/main/src/tokens/ERC20.sol\":25166:25170  0x20 */\n      0x20\n      dup4\n        /* \"https://github.com/Vectorized/solady/blob/main/src/tokens/ERC20.sol\":25155:25225  log3(0x00, 0x20, _TRANSFER_EVENT_SIGNATURE, shr(96, shl(96, from)), 0) */\n      log3\n        /* \"https://github.com/Vectorized/solady/blob/main/src/tokens/ERC20.sol\":22599:23771  function _mint(address to, uint256 amount) internal virtual {... */\n      pop\n      pop\n      jump\t// out\n        /* \"#utility.yul\":14:159   */\n    tag_526:\n      sub(shl(0xa0, 0x01), 0x01)\n        /* \"#utility.yul\":103:134   */\n      dup2\n      and\n        /* \"#utility.yul\":93:135   */\n      dup2\n      eq\n        /* \"#utility.yul\":83:153   */\n      tag_533\n      jumpi\n        /* \"#utility.yul\":149:150   */\n      0x00\n        /* \"#utility.yul\":146:147   */\n      0x00\n        /* \"#utility.yul\":139:151   */\n      revert\n        /* \"#utility.yul\":83:153   */\n    tag_533:\n        /* \"#utility.yul\":14:159   */\n      pop\n      jump\t// out\n        /* \"#utility.yul\":164:721   */\n    tag_52:\n        /* \"#utility.yul\":262:268   */\n      0x00\n        /* \"#utility.yul\":270:276   */\n      0x00\n        /* \"#utility.yul\":278:284   */\n      0x00\n        /* \"#utility.yul\":331:333   */\n      0x60\n        /* \"#utility.yul\":319:328   */\n      dup5\n        /* \"#utility.yul\":310:317   */\n      dup7\n        /* \"#utility.yul\":306:329   */\n      sub\n        /* \"#utility.yul\":302:334   */\n      slt\n        /* \"#utility.yul\":299:351   */\n      iszero\n      tag_535\n      jumpi\n        /* \"#utility.yul\":347:348   */\n      0x00\n        /* \"#utility.yul\":344:345   */\n      0x00\n        /* \"#utility.yul\":337:349   */\n      revert\n        /* \"#utility.yul\":299:351   */\n    tag_535:\n        /* \"#utility.yul\":386:395   */\n      dup4\n        /* \"#utility.yul\":373:396   */\n      calldataload\n        /* \"#utility.yul\":405:450   */\n      tag_536\n        /* \"#utility.yul\":444:449   */\n      dup2\n        /* \"#utility.yul\":405:450   */\n      tag_526\n      jump\t// in\n    tag_536:\n        /* \"#utility.yul\":469:474   */\n      swap3\n      pop\n        /* \"#utility.yul\":547:549   */\n      0x20\n        /* \"#utility.yul\":532:550   */\n      dup5\n      add\n        /* \"#utility.yul\":519:551   */\n      calldataload\n      swap2\n      pop\n        /* \"#utility.yul\":629:631   */\n      0x40\n        /* \"#utility.yul\":614:632   */\n      dup5\n      add\n        /* \"#utility.yul\":601:633   */\n      calldataload\n        /* \"#utility.yul\":642:689   */\n      tag_537\n        /* \"#utility.yul\":601:633   */\n      dup2\n        /* \"#utility.yul\":642:689   */\n      tag_526\n      jump\t// in\n    tag_537:\n        /* \"#utility.yul\":708:715   */\n      dup1\n        /* \"#utility.yul\":698:715   */\n      swap2\n      pop\n      pop\n        /* \"#utility.yul\":164:721   */\n      swap3\n      pop\n      swap3\n      pop\n      swap3\n      jump\t// out\n        /* \"#utility.yul\":908:1326   */\n    tag_60:\n        /* \"#utility.yul\":1057:1059   */\n      0x20\n        /* \"#utility.yul\":1046:1055   */\n      dup2\n        /* \"#utility.yul\":1039:1060   */\n      mstore\n        /* \"#utility.yul\":1020:1024   */\n      0x00\n        /* \"#utility.yul\":1089:1095   */\n      dup3\n        /* \"#utility.yul\":1083:1096   */\n      mload\n        /* \"#utility.yul\":1132:1138   */\n      dup1\n        /* \"#utility.yul\":1127:1129   */\n      0x20\n        /* \"#utility.yul\":1116:1125   */\n      dup5\n        /* \"#utility.yul\":1112:1130   */\n      add\n        /* \"#utility.yul\":1105:1139   */\n      mstore\n        /* \"#utility.yul\":1191:1197   */\n      dup1\n        /* \"#utility.yul\":1186:1188   */\n      0x20\n        /* \"#utility.yul\":1178:1184   */\n      dup6\n        /* \"#utility.yul\":1174:1189   */\n      add\n        /* \"#utility.yul\":1169:1171   */\n      0x40\n        /* \"#utility.yul\":1158:1167   */\n      dup6\n        /* \"#utility.yul\":1154:1172   */\n      add\n        /* \"#utility.yul\":1148:1198   */\n      mcopy\n        /* \"#utility.yul\":1247:1248   */\n      0x00\n        /* \"#utility.yul\":1242:1244   */\n      0x40\n        /* \"#utility.yul\":1233:1239   */\n      dup3\n        /* \"#utility.yul\":1222:1231   */\n      dup6\n        /* \"#utility.yul\":1218:1240   */\n      add\n        /* \"#utility.yul\":1214:1245   */\n      add\n        /* \"#utility.yul\":1207:1249   */\n      mstore\n        /* \"#utility.yul\":1317:1319   */\n      0x40\n        /* \"#utility.yul\":1310:1312   */\n      0x1f\n        /* \"#utility.yul\":1306:1313   */\n      not\n        /* \"#utility.yul\":1301:1303   */\n      0x1f\n        /* \"#utility.yul\":1293:1299   */\n      dup4\n        /* \"#utility.yul\":1289:1304   */\n      add\n        /* \"#utility.yul\":1285:1314   */\n      and\n        /* \"#utility.yul\":1274:1283   */\n      dup5\n        /* \"#utility.yul\":1270:1315   */\n      add\n        /* \"#utility.yul\":1266:1320   */\n      add\n        /* \"#utility.yul\":1258:1320   */\n      swap2\n      pop\n      pop\n        /* \"#utility.yul\":908:1326   */\n      swap3\n      swap2\n      pop\n      pop\n      jump\t// out\n        /* \"#utility.yul\":1331:1557   */\n    tag_64:\n        /* \"#utility.yul\":1390:1396   */\n      0x00\n        /* \"#utility.yul\":1443:1445   */\n      0x20\n        /* \"#utility.yul\":1431:1440   */\n      dup3\n        /* \"#utility.yul\":1422:1429   */\n      dup5\n        /* \"#utility.yul\":1418:1441   */\n      sub\n        /* \"#utility.yul\":1414:1446   */\n      slt\n        /* \"#utility.yul\":1411:1463   */\n      iszero\n      tag_541\n      jumpi\n        /* \"#utility.yul\":1459:1460   */\n      0x00\n        /* \"#utility.yul\":1456:1457   */\n      0x00\n        /* \"#utility.yul\":1449:1461   */\n      revert\n        /* \"#utility.yul\":1411:1463   */\n    tag_541:\n      pop\n        /* \"#utility.yul\":1504:1527   */\n      calldataload\n      swap2\n        /* \"#utility.yul\":1331:1557   */\n      swap1\n      pop\n      jump\t// out\n        /* \"#utility.yul\":1562:1943   */\n    tag_70:\n        /* \"#utility.yul\":1630:1636   */\n      0x00\n        /* \"#utility.yul\":1638:1644   */\n      0x00\n        /* \"#utility.yul\":1691:1693   */\n      0x40\n        /* \"#utility.yul\":1679:1688   */\n      dup4\n        /* \"#utility.yul\":1670:1677   */\n      dup6\n        /* \"#utility.yul\":1666:1689   */\n      sub\n        /* \"#utility.yul\":1662:1694   */\n      slt\n        /* \"#utility.yul\":1659:1711   */\n      iszero\n      tag_543\n      jumpi\n        /* \"#utility.yul\":1707:1708   */\n      0x00\n        /* \"#utility.yul\":1704:1705   */\n      0x00\n        /* \"#utility.yul\":1697:1709   */\n      revert\n        /* \"#utility.yul\":1659:1711   */\n    tag_543:\n        /* \"#utility.yul\":1752:1775   */\n      dup3\n      calldataload\n      swap2\n      pop\n        /* \"#utility.yul\":1851:1853   */\n      0x20\n        /* \"#utility.yul\":1836:1854   */\n      dup4\n      add\n        /* \"#utility.yul\":1823:1855   */\n      calldataload\n        /* \"#utility.yul\":1864:1911   */\n      tag_544\n        /* \"#utility.yul\":1823:1855   */\n      dup2\n        /* \"#utility.yul\":1864:1911   */\n      tag_526\n      jump\t// in\n    tag_544:\n        /* \"#utility.yul\":1930:1937   */\n      dup1\n        /* \"#utility.yul\":1920:1937   */\n      swap2\n      pop\n      pop\n        /* \"#utility.yul\":1562:1943   */\n      swap3\n      pop\n      swap3\n      swap1\n      pop\n      jump\t// out\n        /* \"#utility.yul\":1948:2329   */\n    tag_76:\n        /* \"#utility.yul\":2016:2022   */\n      0x00\n        /* \"#utility.yul\":2024:2030   */\n      0x00\n        /* \"#utility.yul\":2077:2079   */\n      0x40\n        /* \"#utility.yul\":2065:2074   */\n      dup4\n        /* \"#utility.yul\":2056:2063   */\n      dup6\n        /* \"#utility.yul\":2052:2075   */\n      sub\n        /* \"#utility.yul\":2048:2080   */\n      slt\n        /* \"#utility.yul\":2045:2097   */\n      iszero\n      tag_546\n      jumpi\n        /* \"#utility.yul\":2093:2094   */\n      0x00\n        /* \"#utility.yul\":2090:2091   */\n      0x00\n        /* \"#utility.yul\":2083:2095   */\n      revert\n        /* \"#utility.yul\":2045:2097   */\n    tag_546:\n        /* \"#utility.yul\":2132:2141   */\n      dup3\n        /* \"#utility.yul\":2119:2142   */\n      calldataload\n        /* \"#utility.yul\":2151:2196   */\n      tag_547\n        /* \"#utility.yul\":2190:2195   */\n      dup2\n        /* \"#utility.yul\":2151:2196   */\n      tag_526\n      jump\t// in\n    tag_547:\n        /* \"#utility.yul\":2215:2220   */\n      swap5\n        /* \"#utility.yul\":2293:2295   */\n      0x20\n        /* \"#utility.yul\":2278:2296   */\n      swap4\n      swap1\n      swap4\n      add\n        /* \"#utility.yul\":2265:2297   */\n      calldataload\n      swap4\n      pop\n      pop\n      pop\n        /* \"#utility.yul\":1948:2329   */\n      jump\t// out\n        /* \"#utility.yul\":2526:2685   */\n    tag_527:\n        /* \"#utility.yul\":2589:2594   */\n      0x00\n        /* \"#utility.yul\":2634:2637   */\n      0x80\n        /* \"#utility.yul\":2625:2631   */\n      dup3\n        /* \"#utility.yul\":2620:2623   */\n      dup5\n        /* \"#utility.yul\":2616:2632   */\n      sub\n        /* \"#utility.yul\":2612:2638   */\n      slt\n        /* \"#utility.yul\":2609:2655   */\n      iszero\n      tag_439\n      jumpi\n        /* \"#utility.yul\":2651:2652   */\n      0x00\n        /* \"#utility.yul\":2648:2649   */\n      0x00\n        /* \"#utility.yul\":2641:2653   */\n      revert\n        /* \"#utility.yul\":2690:3049   */\n    tag_96:\n        /* \"#utility.yul\":2788:2794   */\n      0x00\n        /* \"#utility.yul\":2796:2802   */\n      0x00\n        /* \"#utility.yul\":2849:2852   */\n      0xa0\n        /* \"#utility.yul\":2837:2846   */\n      dup4\n        /* \"#utility.yul\":2828:2835   */\n      dup6\n        /* \"#utility.yul\":2824:2847   */\n      sub\n        /* \"#utility.yul\":2820:2853   */\n      slt\n        /* \"#utility.yul\":2817:2870   */\n      iszero\n      tag_552\n      jumpi\n        /* \"#utility.yul\":2866:2867   */\n      0x00\n        /* \"#utility.yul\":2863:2864   */\n      0x00\n        /* \"#utility.yul\":2856:2868   */\n      revert\n        /* \"#utility.yul\":2817:2870   */\n    tag_552:\n        /* \"#utility.yul\":2911:2934   */\n      dup3\n      calldataload\n      swap2\n      pop\n        /* \"#utility.yul\":2977:3043   */\n      tag_553\n        /* \"#utility.yul\":3035:3042   */\n      dup5\n        /* \"#utility.yul\":3030:3032   */\n      0x20\n        /* \"#utility.yul\":3015:3033   */\n      dup6\n      add\n        /* \"#utility.yul\":2977:3043   */\n      tag_527\n      jump\t// in\n    tag_553:\n        /* \"#utility.yul\":2967:3043   */\n      swap1\n      pop\n        /* \"#utility.yul\":2690:3049   */\n      swap3\n      pop\n      swap3\n      swap1\n      pop\n      jump\t// out\n        /* \"#utility.yul\":3054:3590   */\n    tag_102:\n        /* \"#utility.yul\":3131:3137   */\n      0x00\n        /* \"#utility.yul\":3139:3145   */\n      0x00\n        /* \"#utility.yul\":3147:3153   */\n      0x00\n        /* \"#utility.yul\":3200:3202   */\n      0x60\n        /* \"#utility.yul\":3188:3197   */\n      dup5\n        /* \"#utility.yul\":3179:3186   */\n      dup7\n        /* \"#utility.yul\":3175:3198   */\n      sub\n        /* \"#utility.yul\":3171:3203   */\n      slt\n        /* \"#utility.yul\":3168:3220   */\n      iszero\n      tag_555\n      jumpi\n        /* \"#utility.yul\":3216:3217   */\n      0x00\n        /* \"#utility.yul\":3213:3214   */\n      0x00\n        /* \"#utility.yul\":3206:3218   */\n      revert\n        /* \"#utility.yul\":3168:3220   */\n    tag_555:\n        /* \"#utility.yul\":3255:3264   */\n      dup4\n        /* \"#utility.yul\":3242:3265   */\n      calldataload\n        /* \"#utility.yul\":3274:3319   */\n      tag_556\n        /* \"#utility.yul\":3313:3318   */\n      dup2\n        /* \"#utility.yul\":3274:3319   */\n      tag_526\n      jump\t// in\n    tag_556:\n        /* \"#utility.yul\":3338:3343   */\n      swap3\n      pop\n        /* \"#utility.yul\":3395:3397   */\n      0x20\n        /* \"#utility.yul\":3380:3398   */\n      dup5\n      add\n        /* \"#utility.yul\":3367:3399   */\n      calldataload\n        /* \"#utility.yul\":3408:3455   */\n      tag_557\n        /* \"#utility.yul\":3367:3399   */\n      dup2\n        /* \"#utility.yul\":3408:3455   */\n      tag_526\n      jump\t// in\n    tag_557:\n        /* \"#utility.yul\":3054:3590   */\n      swap3\n      swap6\n        /* \"#utility.yul\":3474:3481   */\n      swap3\n      swap5\n      pop\n      pop\n      pop\n        /* \"#utility.yul\":3554:3556   */\n      0x40\n        /* \"#utility.yul\":3539:3557   */\n      swap2\n      swap1\n      swap2\n      add\n        /* \"#utility.yul\":3526:3558   */\n      calldataload\n      swap1\n        /* \"#utility.yul\":3054:3590   */\n      jump\t// out\n        /* \"#utility.yul\":4410:4671   */\n    tag_154:\n        /* \"#utility.yul\":4469:4475   */\n      0x00\n        /* \"#utility.yul\":4522:4524   */\n      0x20\n        /* \"#utility.yul\":4510:4519   */\n      dup3\n        /* \"#utility.yul\":4501:4508   */\n      dup5\n        /* \"#utility.yul\":4497:4520   */\n      sub\n        /* \"#utility.yul\":4493:4525   */\n      slt\n        /* \"#utility.yul\":4490:4542   */\n      iszero\n      tag_563\n      jumpi\n        /* \"#utility.yul\":4538:4539   */\n      0x00\n        /* \"#utility.yul\":4535:4536   */\n      0x00\n        /* \"#utility.yul\":4528:4540   */\n      revert\n        /* \"#utility.yul\":4490:4542   */\n    tag_563:\n        /* \"#utility.yul\":4577:4586   */\n      dup2\n        /* \"#utility.yul\":4564:4587   */\n      calldataload\n        /* \"#utility.yul\":4596:4641   */\n      tag_304\n        /* \"#utility.yul\":4635:4640   */\n      dup2\n        /* \"#utility.yul\":4596:4641   */\n      tag_526\n      jump\t// in\n        /* \"#utility.yul\":4676:5212   */\n    tag_198:\n        /* \"#utility.yul\":4753:4759   */\n      0x00\n        /* \"#utility.yul\":4761:4767   */\n      0x00\n        /* \"#utility.yul\":4769:4775   */\n      0x00\n        /* \"#utility.yul\":4822:4824   */\n      0x60\n        /* \"#utility.yul\":4810:4819   */\n      dup5\n        /* \"#utility.yul\":4801:4808   */\n      dup7\n        /* \"#utility.yul\":4797:4820   */\n      sub\n        /* \"#utility.yul\":4793:4825   */\n      slt\n        /* \"#utility.yul\":4790:4842   */\n      iszero\n      tag_566\n      jumpi\n        /* \"#utility.yul\":4838:4839   */\n      0x00\n        /* \"#utility.yul\":4835:4836   */\n      0x00\n        /* \"#utility.yul\":4828:4840   */\n      revert\n        /* \"#utility.yul\":4790:4842   */\n    tag_566:\n        /* \"#utility.yul\":4883:4906   */\n      dup4\n      calldataload\n      swap3\n      pop\n        /* \"#utility.yul\":4982:4984   */\n      0x20\n        /* \"#utility.yul\":4967:4985   */\n      dup5\n      add\n        /* \"#utility.yul\":4954:4986   */\n      calldataload\n        /* \"#utility.yul\":4995:5042   */\n      tag_567\n        /* \"#utility.yul\":4954:4986   */\n      dup2\n        /* \"#utility.yul\":4995:5042   */\n      tag_526\n      jump\t// in\n    tag_567:\n        /* \"#utility.yul\":5061:5068   */\n      swap2\n      pop\n        /* \"#utility.yul\":5120:5122   */\n      0x40\n        /* \"#utility.yul\":5105:5123   */\n      dup5\n      add\n        /* \"#utility.yul\":5092:5124   */\n      calldataload\n        /* \"#utility.yul\":5133:5180   */\n      tag_537\n        /* \"#utility.yul\":5092:5124   */\n      dup2\n        /* \"#utility.yul\":5133:5180   */\n      tag_526\n      jump\t// in\n        /* \"#utility.yul\":5217:5373   */\n    tag_528:\n        /* \"#utility.yul\":5283:5303   */\n      dup1\n      calldataload\n        /* \"#utility.yul\":5343:5347   */\n      0xff\n        /* \"#utility.yul\":5332:5348   */\n      dup2\n      and\n        /* \"#utility.yul\":5322:5349   */\n      dup2\n      eq\n        /* \"#utility.yul\":5312:5367   */\n      tag_325\n      jumpi\n        /* \"#utility.yul\":5363:5364   */\n      0x00\n        /* \"#utility.yul\":5360:5361   */\n      0x00\n        /* \"#utility.yul\":5353:5365   */\n      revert\n        /* \"#utility.yul\":5378:6348   */\n    tag_217:\n        /* \"#utility.yul\":5489:5495   */\n      0x00\n        /* \"#utility.yul\":5497:5503   */\n      0x00\n        /* \"#utility.yul\":5505:5511   */\n      0x00\n        /* \"#utility.yul\":5513:5519   */\n      0x00\n        /* \"#utility.yul\":5521:5527   */\n      0x00\n        /* \"#utility.yul\":5529:5535   */\n      0x00\n        /* \"#utility.yul\":5537:5543   */\n      0x00\n        /* \"#utility.yul\":5590:5593   */\n      0xe0\n        /* \"#utility.yul\":5578:5587   */\n      dup9\n        /* \"#utility.yul\":5569:5576   */\n      dup11\n        /* \"#utility.yul\":5565:5588   */\n      sub\n        /* \"#utility.yul\":5561:5594   */\n      slt\n        /* \"#utility.yul\":5558:5611   */\n      iszero\n      tag_572\n      jumpi\n        /* \"#utility.yul\":5607:5608   */\n      0x00\n        /* \"#utility.yul\":5604:5605   */\n      0x00\n        /* \"#utility.yul\":5597:5609   */\n      revert\n        /* \"#utility.yul\":5558:5611   */\n    tag_572:\n        /* \"#utility.yul\":5646:5655   */\n      dup8\n        /* \"#utility.yul\":5633:5656   */\n      calldataload\n        /* \"#utility.yul\":5665:5710   */\n      tag_573\n        /* \"#utility.yul\":5704:5709   */\n      dup2\n        /* \"#utility.yul\":5665:5710   */\n      tag_526\n      jump\t// in\n    tag_573:\n        /* \"#utility.yul\":5729:5734   */\n      swap7\n      pop\n        /* \"#utility.yul\":5786:5788   */\n      0x20\n        /* \"#utility.yul\":5771:5789   */\n      dup9\n      add\n        /* \"#utility.yul\":5758:5790   */\n      calldataload\n        /* \"#utility.yul\":5799:5846   */\n      tag_574\n        /* \"#utility.yul\":5758:5790   */\n      dup2\n        /* \"#utility.yul\":5799:5846   */\n      tag_526\n      jump\t// in\n    tag_574:\n        /* \"#utility.yul\":5865:5872   */\n      swap6\n      pop\n        /* \"#utility.yul\":5945:5947   */\n      0x40\n        /* \"#utility.yul\":5930:5948   */\n      dup9\n      add\n        /* \"#utility.yul\":5917:5949   */\n      calldataload\n      swap5\n      pop\n        /* \"#utility.yul\":6048:6050   */\n      0x60\n        /* \"#utility.yul\":6033:6051   */\n      dup9\n      add\n        /* \"#utility.yul\":6020:6052   */\n      calldataload\n      swap4\n      pop\n        /* \"#utility.yul\":6097:6134   */\n      tag_575\n        /* \"#utility.yul\":6129:6132   */\n      0x80\n        /* \"#utility.yul\":6114:6133   */\n      dup10\n      add\n        /* \"#utility.yul\":6097:6134   */\n      tag_528\n      jump\t// in\n    tag_575:\n        /* \"#utility.yul\":5378:6348   */\n      swap7\n      swap10\n      swap6\n      swap9\n      pop\n      swap4\n      swap7\n      swap3\n      swap6\n        /* \"#utility.yul\":6087:6134   */\n      swap5\n        /* \"#utility.yul\":6207:6210   */\n      0xa0\n        /* \"#utility.yul\":6192:6211   */\n      dup5\n      add\n        /* \"#utility.yul\":6179:6212   */\n      calldataload\n      swap5\n      pop\n        /* \"#utility.yul\":6311:6314   */\n      0xc0\n        /* \"#utility.yul\":6296:6315   */\n      swap1\n      swap4\n      add\n        /* \"#utility.yul\":6283:6316   */\n      calldataload\n      swap3\n        /* \"#utility.yul\":5378:6348   */\n      swap2\n      pop\n      pop\n      jump\t// out\n        /* \"#utility.yul\":6353:6769   */\n    tag_222:\n        /* \"#utility.yul\":6421:6427   */\n      0x00\n        /* \"#utility.yul\":6429:6435   */\n      0x00\n        /* \"#utility.yul\":6482:6484   */\n      0x40\n        /* \"#utility.yul\":6470:6479   */\n      dup4\n        /* \"#utility.yul\":6461:6468   */\n      dup6\n        /* \"#utility.yul\":6457:6480   */\n      sub\n        /* \"#utility.yul\":6453:6485   */\n      slt\n        /* \"#utility.yul\":6450:6502   */\n      iszero\n      tag_577\n      jumpi\n        /* \"#utility.yul\":6498:6499   */\n      0x00\n        /* \"#utility.yul\":6495:6496   */\n      0x00\n        /* \"#utility.yul\":6488:6500   */\n      revert\n        /* \"#utility.yul\":6450:6502   */\n    tag_577:\n        /* \"#utility.yul\":6537:6546   */\n      dup3\n        /* \"#utility.yul\":6524:6547   */\n      calldataload\n        /* \"#utility.yul\":6556:6601   */\n      tag_578\n        /* \"#utility.yul\":6595:6600   */\n      dup2\n        /* \"#utility.yul\":6556:6601   */\n      tag_526\n      jump\t// in\n    tag_578:\n        /* \"#utility.yul\":6620:6625   */\n      swap2\n      pop\n        /* \"#utility.yul\":6677:6679   */\n      0x20\n        /* \"#utility.yul\":6662:6680   */\n      dup4\n      add\n        /* \"#utility.yul\":6649:6681   */\n      calldataload\n        /* \"#utility.yul\":6690:6737   */\n      tag_544\n        /* \"#utility.yul\":6649:6681   */\n      dup2\n        /* \"#utility.yul\":6690:6737   */\n      tag_526\n      jump\t// in\n        /* \"#utility.yul\":6774:7288   */\n    tag_228:\n        /* \"#utility.yul\":6881:6887   */\n      0x00\n        /* \"#utility.yul\":6889:6895   */\n      0x00\n        /* \"#utility.yul\":6897:6903   */\n      0x00\n        /* \"#utility.yul\":6950:6953   */\n      0xc0\n        /* \"#utility.yul\":6938:6947   */\n      dup5\n        /* \"#utility.yul\":6929:6936   */\n      dup7\n        /* \"#utility.yul\":6925:6948   */\n      sub\n        /* \"#utility.yul\":6921:6954   */\n      slt\n        /* \"#utility.yul\":6918:6971   */\n      iszero\n      tag_581\n      jumpi\n        /* \"#utility.yul\":6967:6968   */\n      0x00\n        /* \"#utility.yul\":6964:6965   */\n      0x00\n        /* \"#utility.yul\":6957:6969   */\n      revert\n        /* \"#utility.yul\":6918:6971   */\n    tag_581:\n        /* \"#utility.yul\":7012:7035   */\n      dup4\n      calldataload\n      swap3\n      pop\n        /* \"#utility.yul\":7111:7113   */\n      0x20\n        /* \"#utility.yul\":7096:7114   */\n      dup5\n      add\n        /* \"#utility.yul\":7083:7115   */\n      calldataload\n        /* \"#utility.yul\":7124:7171   */\n      tag_582\n        /* \"#utility.yul\":7083:7115   */\n      dup2\n        /* \"#utility.yul\":7124:7171   */\n      tag_526\n      jump\t// in\n    tag_582:\n        /* \"#utility.yul\":7190:7197   */\n      swap2\n      pop\n        /* \"#utility.yul\":7216:7282   */\n      tag_583\n        /* \"#utility.yul\":7274:7281   */\n      dup6\n        /* \"#utility.yul\":7269:7271   */\n      0x40\n        /* \"#utility.yul\":7254:7272   */\n      dup7\n      add\n        /* \"#utility.yul\":7216:7282   */\n      tag_527\n      jump\t// in\n    tag_583:\n        /* \"#utility.yul\":7206:7282   */\n      swap1\n      pop\n        /* \"#utility.yul\":6774:7288   */\n      swap3\n      pop\n      swap3\n      pop\n      swap3\n      jump\t// out\n        /* \"#utility.yul\":7572:7849   */\n    tag_251:\n        /* \"#utility.yul\":7639:7645   */\n      0x00\n        /* \"#utility.yul\":7692:7694   */\n      0x20\n        /* \"#utility.yul\":7680:7689   */\n      dup3\n        /* \"#utility.yul\":7671:7678   */\n      dup5\n        /* \"#utility.yul\":7667:7690   */\n      sub\n        /* \"#utility.yul\":7663:7695   */\n      slt\n        /* \"#utility.yul\":7660:7712   */\n      iszero\n      tag_586\n      jumpi\n        /* \"#utility.yul\":7708:7709   */\n      0x00\n        /* \"#utility.yul\":7705:7706   */\n      0x00\n        /* \"#utility.yul\":7698:7710   */\n      revert\n        /* \"#utility.yul\":7660:7712   */\n    tag_586:\n        /* \"#utility.yul\":7740:7749   */\n      dup2\n        /* \"#utility.yul\":7734:7750   */\n      mload\n        /* \"#utility.yul\":7793:7798   */\n      dup1\n        /* \"#utility.yul\":7786:7799   */\n      iszero\n        /* \"#utility.yul\":7779:7800   */\n      iszero\n        /* \"#utility.yul\":7772:7777   */\n      dup2\n        /* \"#utility.yul\":7769:7801   */\n      eq\n        /* \"#utility.yul\":7759:7819   */\n      tag_304\n      jumpi\n        /* \"#utility.yul\":7815:7816   */\n      0x00\n        /* \"#utility.yul\":7812:7813   */\n      0x00\n        /* \"#utility.yul\":7805:7817   */\n      revert\n        /* \"#utility.yul\":7854:8038   */\n    tag_256:\n        /* \"#utility.yul\":7924:7930   */\n      0x00\n        /* \"#utility.yul\":7977:7979   */\n      0x20\n        /* \"#utility.yul\":7965:7974   */\n      dup3\n        /* \"#utility.yul\":7956:7963   */\n      dup5\n        /* \"#utility.yul\":7952:7975   */\n      sub\n        /* \"#utility.yul\":7948:7980   */\n      slt\n        /* \"#utility.yul\":7945:7997   */\n      iszero\n      tag_589\n      jumpi\n        /* \"#utility.yul\":7993:7994   */\n      0x00\n        /* \"#utility.yul\":7990:7991   */\n      0x00\n        /* \"#utility.yul\":7983:7995   */\n      revert\n        /* \"#utility.yul\":7945:7997   */\n    tag_589:\n      pop\n        /* \"#utility.yul\":8016:8032   */\n      mload\n      swap2\n        /* \"#utility.yul\":7854:8038   */\n      swap1\n      pop\n      jump\t// out\n        /* \"#utility.yul\":8043:8170   */\n    tag_529:\n        /* \"#utility.yul\":8104:8114   */\n      0x4e487b71\n        /* \"#utility.yul\":8099:8102   */\n      0xe0\n        /* \"#utility.yul\":8095:8115   */\n      shl\n        /* \"#utility.yul\":8092:8093   */\n      0x00\n        /* \"#utility.yul\":8085:8116   */\n      mstore\n        /* \"#utility.yul\":8135:8139   */\n      0x11\n        /* \"#utility.yul\":8132:8133   */\n      0x04\n        /* \"#utility.yul\":8125:8140   */\n      mstore\n        /* \"#utility.yul\":8159:8163   */\n      0x24\n        /* \"#utility.yul\":8156:8157   */\n      0x00\n        /* \"#utility.yul\":8149:8164   */\n      revert\n        /* \"#utility.yul\":8175:8303   */\n    tag_258:\n        /* \"#utility.yul\":8242:8251   */\n      dup2\n      dup2\n      sub\n        /* \"#utility.yul\":8263:8274   */\n      dup2\n      dup2\n      gt\n        /* \"#utility.yul\":8260:8297   */\n      iszero\n      tag_279\n      jumpi\n        /* \"#utility.yul\":8277:8295   */\n      tag_279\n      tag_529\n      jump\t// in\n        /* \"#utility.yul\":8308:8525   */\n    tag_262:\n        /* \"#utility.yul\":8348:8349   */\n      0x00\n        /* \"#utility.yul\":8374:8375   */\n      dup3\n        /* \"#utility.yul\":8364:8496   */\n      tag_595\n      jumpi\n        /* \"#utility.yul\":8418:8428   */\n      0x4e487b71\n        /* \"#utility.yul\":8413:8416   */\n      0xe0\n        /* \"#utility.yul\":8409:8429   */\n      shl\n        /* \"#utility.yul\":8406:8407   */\n      0x00\n        /* \"#utility.yul\":8399:8430   */\n      mstore\n        /* \"#utility.yul\":8453:8457   */\n      0x12\n        /* \"#utility.yul\":8450:8451   */\n      0x04\n        /* \"#utility.yul\":8443:8458   */\n      mstore\n        /* \"#utility.yul\":8481:8485   */\n      0x24\n        /* \"#utility.yul\":8478:8479   */\n      0x00\n        /* \"#utility.yul\":8471:8486   */\n      revert\n        /* \"#utility.yul\":8364:8496   */\n    tag_595:\n      pop\n        /* \"#utility.yul\":8510:8519   */\n      div\n      swap1\n        /* \"#utility.yul\":8308:8525   */\n      jump\t// out\n        /* \"#utility.yul\":8530:8655   */\n    tag_264:\n        /* \"#utility.yul\":8595:8604   */\n      dup1\n      dup3\n      add\n        /* \"#utility.yul\":8616:8626   */\n      dup1\n      dup3\n      gt\n        /* \"#utility.yul\":8613:8649   */\n      iszero\n      tag_279\n      jumpi\n        /* \"#utility.yul\":8629:8647   */\n      tag_279\n      tag_529\n      jump\t// in\n        /* \"#utility.yul\":8868:9036   */\n    tag_278:\n        /* \"#utility.yul\":8941:8950   */\n      dup1\n      dup3\n      mul\n        /* \"#utility.yul\":8972:8981   */\n      dup2\n      iszero\n        /* \"#utility.yul\":8989:9004   */\n      dup3\n      dup3\n      div\n        /* \"#utility.yul\":8983:9005   */\n      dup5\n      eq\n        /* \"#utility.yul\":8969:9006   */\n      or\n        /* \"#utility.yul\":8959:9030   */\n      tag_279\n      jumpi\n        /* \"#utility.yul\":9010:9028   */\n      tag_279\n      tag_529\n      jump\t// in\n        /* \"#utility.yul\":9041:9412   */\n    tag_285:\n      sub(shl(0xa0, 0x01), 0x01)\n        /* \"#utility.yul\":9261:9293   */\n      swap4\n      dup5\n      and\n        /* \"#utility.yul\":9243:9294   */\n      dup2\n      mstore\n        /* \"#utility.yul\":9330:9362   */\n      swap2\n      swap1\n      swap3\n      and\n        /* \"#utility.yul\":9325:9327   */\n      0x20\n        /* \"#utility.yul\":9310:9328   */\n      dup3\n      add\n        /* \"#utility.yul\":9303:9363   */\n      mstore\n        /* \"#utility.yul\":9394:9396   */\n      0x40\n        /* \"#utility.yul\":9379:9397   */\n      dup2\n      add\n        /* \"#utility.yul\":9372:9406   */\n      swap2\n      swap1\n      swap2\n      mstore\n        /* \"#utility.yul\":9231:9233   */\n      0x60\n        /* \"#utility.yul\":9216:9234   */\n      add\n      swap1\n        /* \"#utility.yul\":9041:9412   */\n      jump\t// out\n        /* \"#utility.yul\":9880:10007   */\n    tag_530:\n        /* \"#utility.yul\":9941:9951   */\n      0x4e487b71\n        /* \"#utility.yul\":9936:9939   */\n      0xe0\n        /* \"#utility.yul\":9932:9952   */\n      shl\n        /* \"#utility.yul\":9929:9930   */\n      0x00\n        /* \"#utility.yul\":9922:9953   */\n      mstore\n        /* \"#utility.yul\":9972:9976   */\n      0x41\n        /* \"#utility.yul\":9969:9970   */\n      0x04\n        /* \"#utility.yul\":9962:9977   */\n      mstore\n        /* \"#utility.yul\":9996:10000   */\n      0x24\n        /* \"#utility.yul\":9993:9994   */\n      0x00\n        /* \"#utility.yul\":9986:10001   */\n      revert\n        /* \"#utility.yul\":10012:10947   */\n    tag_400:\n        /* \"#utility.yul\":10092:10098   */\n      0x00\n        /* \"#utility.yul\":10145:10147   */\n      0x20\n        /* \"#utility.yul\":10133:10142   */\n      dup3\n        /* \"#utility.yul\":10124:10131   */\n      dup5\n        /* \"#utility.yul\":10120:10143   */\n      sub\n        /* \"#utility.yul\":10116:10148   */\n      slt\n        /* \"#utility.yul\":10113:10165   */\n      iszero\n      tag_608\n      jumpi\n        /* \"#utility.yul\":10161:10162   */\n      0x00\n        /* \"#utility.yul\":10158:10159   */\n      0x00\n        /* \"#utility.yul\":10151:10163   */\n      revert\n        /* \"#utility.yul\":10113:10165   */\n    tag_608:\n        /* \"#utility.yul\":10194:10203   */\n      dup2\n        /* \"#utility.yul\":10188:10204   */\n      mload\n        /* \"#utility.yul\":10227:10245   */\n      0xffffffffffffffff\n        /* \"#utility.yul\":10219:10225   */\n      dup2\n        /* \"#utility.yul\":10216:10246   */\n      gt\n        /* \"#utility.yul\":10213:10263   */\n      iszero\n      tag_609\n      jumpi\n        /* \"#utility.yul\":10259:10260   */\n      0x00\n        /* \"#utility.yul\":10256:10257   */\n      0x00\n        /* \"#utility.yul\":10249:10261   */\n      revert\n        /* \"#utility.yul\":10213:10263   */\n    tag_609:\n        /* \"#utility.yul\":10282:10304   */\n      dup3\n      add\n        /* \"#utility.yul\":10335:10339   */\n      0x1f\n        /* \"#utility.yul\":10327:10340   */\n      dup2\n      add\n        /* \"#utility.yul\":10323:10350   */\n      dup5\n      sgt\n        /* \"#utility.yul\":10313:10368   */\n      tag_610\n      jumpi\n        /* \"#utility.yul\":10364:10365   */\n      0x00\n        /* \"#utility.yul\":10361:10362   */\n      0x00\n        /* \"#utility.yul\":10354:10366   */\n      revert\n        /* \"#utility.yul\":10313:10368   */\n    tag_610:\n        /* \"#utility.yul\":10397:10399   */\n      dup1\n        /* \"#utility.yul\":10391:10400   */\n      mload\n        /* \"#utility.yul\":10423:10441   */\n      0xffffffffffffffff\n        /* \"#utility.yul\":10415:10421   */\n      dup2\n        /* \"#utility.yul\":10412:10442   */\n      gt\n        /* \"#utility.yul\":10409:10465   */\n      iszero\n      tag_612\n      jumpi\n        /* \"#utility.yul\":10445:10463   */\n      tag_612\n      tag_530\n      jump\t// in\n    tag_612:\n        /* \"#utility.yul\":10494:10496   */\n      0x40\n        /* \"#utility.yul\":10488:10497   */\n      mload\n        /* \"#utility.yul\":10586:10588   */\n      0x1f\n        /* \"#utility.yul\":10548:10565   */\n      dup3\n      add\n      not(0x1f)\n        /* \"#utility.yul\":10544:10575   */\n      swap1\n      dup2\n      and\n        /* \"#utility.yul\":10577:10579   */\n      0x3f\n        /* \"#utility.yul\":10540:10580   */\n      add\n        /* \"#utility.yul\":10536:10590   */\n      and\n        /* \"#utility.yul\":10524:10591   */\n      dup2\n      add\n        /* \"#utility.yul\":10621:10639   */\n      0xffffffffffffffff\n        /* \"#utility.yul\":10606:10640   */\n      dup2\n      gt\n        /* \"#utility.yul\":10642:10664   */\n      dup3\n      dup3\n      lt\n        /* \"#utility.yul\":10603:10665   */\n      or\n        /* \"#utility.yul\":10600:10688   */\n      iszero\n      tag_614\n      jumpi\n        /* \"#utility.yul\":10668:10686   */\n      tag_614\n      tag_530\n      jump\t// in\n    tag_614:\n        /* \"#utility.yul\":10704:10706   */\n      0x40\n        /* \"#utility.yul\":10697:10719   */\n      mstore\n        /* \"#utility.yul\":10728:10750   */\n      dup2\n      dup2\n      mstore\n        /* \"#utility.yul\":10769:10784   */\n      dup3\n      dup3\n      add\n        /* \"#utility.yul\":10786:10788   */\n      0x20\n        /* \"#utility.yul\":10765:10789   */\n      add\n        /* \"#utility.yul\":10762:10799   */\n      dup7\n      lt\n        /* \"#utility.yul\":10759:10816   */\n      iszero\n      tag_615\n      jumpi\n        /* \"#utility.yul\":10812:10813   */\n      0x00\n        /* \"#utility.yul\":10809:10810   */\n      0x00\n        /* \"#utility.yul\":10802:10814   */\n      revert\n        /* \"#utility.yul\":10759:10816   */\n    tag_615:\n        /* \"#utility.yul\":10861:10867   */\n      dup2\n        /* \"#utility.yul\":10856:10858   */\n      0x20\n        /* \"#utility.yul\":10852:10854   */\n      dup5\n        /* \"#utility.yul\":10848:10859   */\n      add\n        /* \"#utility.yul\":10843:10845   */\n      0x20\n        /* \"#utility.yul\":10835:10841   */\n      dup4\n        /* \"#utility.yul\":10831:10846   */\n      add\n        /* \"#utility.yul\":10825:10868   */\n      mcopy\n        /* \"#utility.yul\":10914:10915   */\n      0x00\n        /* \"#utility.yul\":10888:10907   */\n      swap2\n      dup2\n      add\n        /* \"#utility.yul\":10909:10911   */\n      0x20\n        /* \"#utility.yul\":10884:10912   */\n      add\n        /* \"#utility.yul\":10877:10916   */\n      swap2\n      swap1\n      swap2\n      mstore\n        /* \"#utility.yul\":10892:10898   */\n      swap5\n        /* \"#utility.yul\":10012:10947   */\n      swap4\n      pop\n      pop\n      pop\n      pop\n      jump\t// out\n        /* \"#utility.yul\":10952:11356   */\n    tag_402:\n        /* \"#utility.yul\":11173:11176   */\n      0x00\n        /* \"#utility.yul\":11211:11217   */\n      dup3\n        /* \"#utility.yul\":11205:11218   */\n      mload\n        /* \"#utility.yul\":11257:11263   */\n      dup1\n        /* \"#utility.yul\":11250:11254   */\n      0x20\n        /* \"#utility.yul\":11242:11248   */\n      dup6\n        /* \"#utility.yul\":11238:11255   */\n      add\n        /* \"#utility.yul\":11233:11236   */\n      dup5\n        /* \"#utility.yul\":11227:11264   */\n      mcopy\n      shl(0xf4, 0x04c5)\n        /* \"#utility.yul\":11283:11299   */\n      swap3\n      add\n        /* \"#utility.yul\":11308:11324   */\n      swap2\n      dup3\n      mstore\n      pop\n        /* \"#utility.yul\":11348:11349   */\n      0x02\n        /* \"#utility.yul\":11340:11350   */\n      add\n      swap2\n        /* \"#utility.yul\":10952:11356   */\n      swap1\n      pop\n      jump\t// out\n        /* \"#utility.yul\":11622:11804   */\n    tag_470:\n        /* \"#utility.yul\":11679:11685   */\n      0x00\n        /* \"#utility.yul\":11732:11734   */\n      0x20\n        /* \"#utility.yul\":11720:11729   */\n      dup3\n        /* \"#utility.yul\":11711:11718   */\n      dup5\n        /* \"#utility.yul\":11707:11730   */\n      sub\n        /* \"#utility.yul\":11703:11735   */\n      slt\n        /* \"#utility.yul\":11700:11752   */\n      iszero\n      tag_619\n      jumpi\n        /* \"#utility.yul\":11748:11749   */\n      0x00\n        /* \"#utility.yul\":11745:11746   */\n      0x00\n        /* \"#utility.yul\":11738:11750   */\n      revert\n        /* \"#utility.yul\":11700:11752   */\n    tag_619:\n        /* \"#utility.yul\":11771:11798   */\n      tag_304\n        /* \"#utility.yul\":11788:11797   */\n      dup3\n        /* \"#utility.yul\":11771:11798   */\n      tag_528\n      jump\t// in\n    stop\n    data_ada389e1fc24a8587c776340efb91b36e675792ab631816100d55df0b5cf3cbc ddf252ad1be2c89b69c2b068fc378daa952ba7f163c4a11628f55a4df523b3ef\n    data_f153f45295e6c417ef2e31903186ee1a5d0c2546461fb67769dfe29ae5912c6f dcbc1c05240f31ff3ad067ef1ee35ce4997762752e3a095284754544f4c709d7\n\n    auxdata: 0xa26469706673582212207796afeac98b710cd39ad473b470d11f505871ae43ff985b7216ec16bb83fc1b64736f6c634300081c0033\n}\n",
				"bytecode": {
					"linkReferences": {},
					"object": "610120604052425f5542600155348015610017575f5ffd5b5060405161249c38038061249c83398101604081905261003691610082565b6001600160a01b039094166080526001600160801b0392831660a05290821660c052811660e05216610100526100f0565b80516001600160801b038116811461007d575f5ffd5b919050565b5f5f5f5f5f60a08688031215610096575f5ffd5b85516001600160a01b03811681146100ac575f5ffd5b94506100ba60208701610067565b93506100c860408701610067565b92506100d660608701610067565b91506100e460808701610067565b90509295509295909350565b60805160a05160c05160e051610100516122c06101dc5f395f81816106150152611a3e01525f818161047a0152818161089601528181610f96015261160701525f81816103e40152610cbd01525f81816104e001528181610a6f0152818161118401526113b201525f818161042f01528181610792015281816108f7015281816109cb01528181610ac001528181610dc301528181610e7b01528181610ffc015281816110ec015281816112540152818161130b015281816114d4015281816116680152818161174c0152818161195e01528181611aa201528181611b7a0152611c2201526122c05ff3fe608060405260043610610233575f3560e01c806370a0823111610129578063ba087652116100a8578063dd62ed3e1161006d578063dd62ed3e146106c4578063de899d1f146106f8578063ea6b80b714610717578063ef8b30f714610736578063f340fa0114610755575f5ffd5b8063ba0876521461063f578063bc7105751461065e578063c1a4845f14610671578063c6e6f59214610684578063d505accf146106a3575f5ffd5b806395d89b41116100ee57806395d89b41146105bd57806396a3958d146105d1578063a9059cbb146105e5578063ad33096714610604578063aea1e3d114610637575f5ffd5b806370a08231146105155780637ecebe001461054657806381f2d34e146105775780638a2c9cef1461058b5780638a48b2a5146105aa575f5ffd5b806325d1782d116101b55780633aeeade81161017a5780633aeeade814610469578063421c6a8a1461049c5780634cdad506146104b05780634d016295146104cf5780636e553f6514610502575f5ffd5b806325d1782d14610385578063313ce567146103a45780633644e515146103bf578063367ada10146103d357806338d52e0f1461041e575f5ffd5b80630f2a403f116101fb5780630f2a403f146102f7578063127d04091461030c57806318160ddd1461032b57806319cdf2841461034757806323b872dd14610366575f5ffd5b806304c764e11461023757806306fdde031461026957806307a2d13a1461028a57806308e30698146102a9578063095ea7b3146102c8575b5f5ffd5b348015610242575f5ffd5b50610256610251366004611df5565b610768565b6040519081526020015b60405180910390f35b348015610274575f5ffd5b5061027d61096b565b6040516102609190611e34565b348015610295575f5ffd5b506102566102a4366004611e69565b6109a2565b3480156102b4575f5ffd5b506102566102c3366004611e80565b610a56565b3480156102d3575f5ffd5b506102e76102e2366004611eae565b610b9c565b6040519015158152602001610260565b348015610302575f5ffd5b5061025660015481565b348015610317575f5ffd5b50610256610326366004611e69565b610beb565b348015610336575f5ffd5b506805345cdf77eb68f44c54610256565b348015610352575f5ffd5b50610256610361366004611ee8565b610bf6565b348015610371575f5ffd5b506102e7610380366004611f13565b610c09565b348015610390575f5ffd5b5061025661039f366004611e69565b610cae565b3480156103af575f5ffd5b5060405160128152602001610260565b3480156103ca575f5ffd5b50610256610d11565b3480156103de575f5ffd5b506104067f000000000000000000000000000000000000000000000000000000000000000081565b6040516001600160801b039091168152602001610260565b348015610429575f5ffd5b506104517f000000000000000000000000000000000000000000000000000000000000000081565b6040516001600160a01b039091168152602001610260565b348015610474575f5ffd5b506104067f000000000000000000000000000000000000000000000000000000000000000081565b3480156104a7575f5ffd5b506102565f5481565b3480156104bb575f5ffd5b506102566104ca366004611e69565b610d8d565b3480156104da575f5ffd5b506104067f000000000000000000000000000000000000000000000000000000000000000081565b610256610510366004611e80565b610d97565b348015610520575f5ffd5b5061025661052f366004611f51565b6387a211a2600c9081525f91909152602090205490565b348015610551575f5ffd5b50610256610560366004611f51565b6338377508600c9081525f91909152602090205490565b348015610582575f5ffd5b50610256610f93565b348015610596575f5ffd5b506102566105a5366004611df5565b610fdb565b6102566105b8366004611e80565b611218565b3480156105c8575f5ffd5b5061027d611307565b3480156105dc575f5ffd5b506102566113af565b3480156105f0575f5ffd5b506102e76105ff366004611eae565b6113e7565b34801561060f575f5ffd5b506104067f000000000000000000000000000000000000000000000000000000000000000081565b61025661144b565b34801561064a575f5ffd5b50610256610659366004611f6c565b611455565b61025661066c366004611f51565b6115ee565b61025661067f366004611f51565b6116d8565b34801561068f575f5ffd5b5061025661069e366004611e69565b611735565b3480156106ae575f5ffd5b506106c26106bd366004611fb0565b6117cf565b005b3480156106cf575f5ffd5b506102566106de36600461201a565b602052637f5e9f20600c9081525f91909152603490205490565b348015610703575f5ffd5b50610256610712366004612046565b611953565b348015610722575f5ffd5b50610256610731366004611e69565b611a2f565b348015610741575f5ffd5b50610256610750366004611e69565b611b1b565b610256610763366004611f51565b611b25565b60405163095ea7b360e01b81526001600160a01b038481166004830152602482018490525f9147917f0000000000000000000000000000000000000000000000000000000000000000169063095ea7b3906044016020604051808303815f875af11580156107d8573d5f5f3e3d5ffd5b505050506040513d601f19601f820116820180604052508101906107fc9190612082565b5060405163127d040960e01b8152600481018590526001600160a01b0386169063127d0409906024016020604051808303815f875af1158015610841573d5f5f3e3d5ffd5b505050506040513d601f19601f8201168201806040525081019061086591906120a1565b505f61087182476120cc565b90508461087d82611a2f565b61088791906120cc565b92506108bc6001600160801b037f000000000000000000000000000000000000000000000000000000000000000016846120df565b60015f8282546108cc91906120fe565b909155505060405163a9059cbb60e01b81526001600160a01b038581166004830152602482018590527f0000000000000000000000000000000000000000000000000000000000000000169063a9059cbb906044016020604051808303815f875af115801561093d573d5f5f3e3d5ffd5b505050506040513d601f19601f820116820180604052508101906109619190612082565b5050509392505050565b60408051808201909152601781527f4171756974617264204c697175696469747920506f6f6c000000000000000000602082015290565b5f6109b46805345cdf77eb68f44c5490565b6040516370a0823160e01b815230600482015283907f00000000000000000000000000000000000000000000000000000000000000006001600160a01b0316906370a0823190602401602060405180830381865afa158015610a18573d5f5f3e3d5ffd5b505050506040513d601f19601f82011682018060405250810190610a3c91906120a1565b610a469190612111565b610a5091906120df565b92915050565b5f610a6083610cae565b9050610a956001600160801b037f000000000000000000000000000000000000000000000000000000000000000016826120df565b5f5f828254610aa491906120fe565b90915550506040516323b872dd60e01b81526001600160a01b037f000000000000000000000000000000000000000000000000000000000000000016906323b872dd90610af990339030908890600401612128565b6020604051808303815f875af1158015610b15573d5f5f3e3d5ffd5b505050506040513d601f19601f82011682018060405250810190610b399190612082565b505f826001600160a01b0316826040515f6040518083038185875af1925050503d805f8114610b83576040519150601f19603f3d011682016040523d82523d5f602084013e610b88565b606091505b5050905080610b95575f5ffd5b5092915050565b5f82602052637f5e9f20600c52335f52816034600c2055815f52602c5160601c337f8c5be1e5ebec7d5bd14f71427d1e84f3dd0314c0f7b2291e5b200ac8c7c3b92560205fa350600192915050565b5f610a508233610a56565b5f610c02833384611953565b9392505050565b5f8360601b33602052637f5e9f208117600c526034600c208054801915610c455780851115610c3f576313be252b5f526004601cfd5b84810382555b50506387a211a28117600c526020600c20805480851115610c6d5763f4d678b85f526004601cfd5b84810382555050835f526020600c208381540181555082602052600c5160601c8160601c5f51602061224b5f395f51905f52602080a3505060019392505050565b5f610ce2826001600160801b037f0000000000000000000000000000000000000000000000000000000000000000166120fe565b82610ceb6113af565b610cf59190612111565b610cff91906120df565b905080471015610d0c5750475b919050565b5f80610d1b61096b565b805190602001209050604080517f8b73c3c69bb8fe3d512ecc4cf759cc79239f7b179b0ffacaa9a75d522b39400f815260208101929092527fc89efdaa54c0f20c7adf612882df0950f5a951637e0307cdcb4c672f298b8bc69082015246606082015230608082015260a09020919050565b5f610a50826109a2565b5f610da183611b1b565b6040516370a0823160e01b81523060048201529091505f906001600160a01b037f000000000000000000000000000000000000000000000000000000000000000016906370a0823190602401602060405180830381865afa158015610e08573d5f5f3e3d5ffd5b505050506040513d601f19601f82011682018060405250810190610e2c91906120a1565b84610e3734476120cc565b610e419190612111565b610e4b91906120df565b90505f610e5882346120cc565b9050610e648484611cd5565b6040516323b872dd60e01b81526001600160a01b037f000000000000000000000000000000000000000000000000000000000000000016906323b872dd90610eb490339030908a90600401612128565b6020604051808303815f875af1158015610ed0573d5f5f3e3d5ffd5b505050506040513d601f19601f82011682018060405250810190610ef49190612082565b508015610f58575f846001600160a01b0316826040515f6040518083038185875af1925050503d805f8114610f44576040519150601f19603f3d011682016040523d82523d5f602084013e610f49565b606091505b5050905080610f56575f5ffd5b505b60408051868152602081018590526001600160a01b0386169133915f51602061226b5f395f51905f52910160405180910390a3505092915050565b5f7f00000000000000000000000000000000000000000000000000000000000000006001600160801b031660015442610fcc91906120cc565b610fd69190612111565b905090565b6040516370a0823160e01b81523060048201525f9081906001600160a01b037f000000000000000000000000000000000000000000000000000000000000000016906370a0823190602401602060405180830381865afa158015611041573d5f5f3e3d5ffd5b505050506040513d601f19601f8201168201806040525081019061106591906120a1565b9050846001600160a01b031663aea1e3d1856040518263ffffffff1660e01b815260040160206040518083038185885af11580156110a5573d5f5f3e3d5ffd5b50505050506040513d601f19601f820116820180604052508101906110ca91906120a1565b506040516370a0823160e01b81523060048201525f9082906001600160a01b037f000000000000000000000000000000000000000000000000000000000000000016906370a0823190602401602060405180830381865afa158015611131573d5f5f3e3d5ffd5b505050506040513d601f19601f8201168201806040525081019061115591906120a1565b61115f91906120cc565b90508461116b82610cae565b61117591906120cc565b92506111aa6001600160801b037f000000000000000000000000000000000000000000000000000000000000000016846120df565b5f5f8282546111b991906120fe565b90915550506040515f906001600160a01b0386169085908381818185875af1925050503d805f8114611206576040519150601f19603f3d011682016040523d82523d5f602084013e61120b565b606091505b5050905080610961575f5ffd5b8161122a6805345cdf77eb68f44c5490565b15611233575f5ffd5b61123d8282611cd5565b6040516323b872dd60e01b81526001600160a01b037f000000000000000000000000000000000000000000000000000000000000000016906323b872dd9061128d90339030908890600401612128565b6020604051808303815f875af11580156112a9573d5f5f3e3d5ffd5b505050506040513d601f19601f820116820180604052508101906112cd9190612082565b5060408051848152602081018390526001600160a01b0384169133915f51602061226b5f395f51905f52910160405180910390a392915050565b60607f00000000000000000000000000000000000000000000000000000000000000006001600160a01b03166395d89b416040518163ffffffff1660e01b81526004015f60405180830381865afa158015611364573d5f5f3e3d5ffd5b505050506040513d5f823e601f3d908101601f1916820160405261138b9190810190612160565b60405160200161139b9190612213565b604051602081830303815290604052905090565b5f7f00000000000000000000000000000000000000000000000000000000000000006001600160801b03165f5442610fcc91906120cc565b5f6387a211a2600c52335f526020600c2080548084111561140f5763f4d678b85f526004601cfd5b83810382555050825f526020600c208281540181555081602052600c5160601c335f51602061224b5f395f51905f52602080a350600192915050565b5f610fd6336115ee565b5f61145f84610d8d565b9050336001600160a01b0383161461147c5761147c823386611d3e565b5f61148e6805345cdf77eb68f44c5490565b6114988647612111565b6114a291906120df565b90506114ae8386611d7d565b60405163a9059cbb60e01b81526001600160a01b038581166004830152602482018490527f0000000000000000000000000000000000000000000000000000000000000000169063a9059cbb906044016020604051808303815f875af115801561151a573d5f5f3e3d5ffd5b505050506040513d601f19601f8201168201806040525081019061153e9190612082565b505f846001600160a01b0316826040515f6040518083038185875af1925050503d805f8114611588576040519150601f19603f3d011682016040523d82523d5f602084013e61158d565b606091505b505090508061159a575f5ffd5b60408051848152602081018890526001600160a01b03808716929088169133917ffbde797d201c681b91056529119e0b02407c7bb96a4a2c75c01fc9667232c8db910160405180910390a450509392505050565b5f6115f834611a2f565b905061162d6001600160801b037f000000000000000000000000000000000000000000000000000000000000000016826120df565b60015f82825461163d91906120fe565b909155505060405163a9059cbb60e01b81526001600160a01b038381166004830152602482018390527f0000000000000000000000000000000000000000000000000000000000000000169063a9059cbb906044016020604051808303815f875af11580156116ae573d5f5f3e3d5ffd5b505050506040513d601f19601f820116820180604052508101906116d29190612082565b50919050565b346116ea6805345cdf77eb68f44c5490565b156116f3575f5ffd5b6116fd8282611cd5565b604080515f8152602081018390526001600160a01b0384169133915f51602061226b5f395f51905f52910160405180910390a3919050565b6040516370a0823160e01b81523060048201525f907f00000000000000000000000000000000000000000000000000000000000000006001600160a01b0316906370a0823190602401602060405180830381865afa158015611799573d5f5f3e3d5ffd5b505050506040513d601f19601f820116820180604052508101906117bd91906120a1565b82610a3c6805345cdf77eb68f44c5490565b5f6117d861096b565b8051906020012090507fc89efdaa54c0f20c7adf612882df0950f5a951637e0307cdcb4c672f298b8bc64286101561181757631a15a3cc5f526004601cfd5b6040518960601b60601c99508860601b60601c985065383775081901600e52895f526020600c2080547f8b73c3c69bb8fe3d512ecc4cf759cc79239f7b179b0ffacaa9a75d522b39400f835284602084015283604084015246606084015230608084015260a08320602e527f6e71edae12b1b97f4d1f60370fef10105fa2faae0126114a169c64845d6126c983528b60208401528a60408401528960608401528060808401528860a084015260c08320604e526042602c205f528760ff16602052866040528560605260208060805f60015afa8c3d51146118ff5763ddafbaef5f526004601cfd5b0190556303faf4f960a51b89176040526034602c20889055888a7f8c5be1e5ebec7d5bd14f71427d1e84f3dd0314c0f7b2291e5b200ac8c7c3b925602060608501a360405250505f60605250505050505050565b5f6001600160a01b037f00000000000000000000000000000000000000000000000000000000000000001663d505accf33308786356119986040890160208a01612231565b604080516001600160e01b031960e089901b1681526001600160a01b0396871660048201529590941660248601526044850192909252606484015260ff16608483015285013560a4820152606085013560c482015260e4015f604051808303815f87803b158015611a07575f5ffd5b505af1158015611a19573d5f5f3e3d5ffd5b50505050611a278484610a56565b949350505050565b5f611a63826001600160801b037f0000000000000000000000000000000000000000000000000000000000000000166120fe565b82611a6c610f93565b611a769190612111565b611a8091906120df565b6040516370a0823160e01b81523060048201529091505f906001600160a01b037f000000000000000000000000000000000000000000000000000000000000000016906370a0823190602401602060405180830381865afa158015611ae7573d5f5f3e3d5ffd5b505050506040513d601f19601f82011682018060405250810190611b0b91906120a1565b9050818110156116d25792915050565b5f610a5082611735565b5f611b3034476120cc565b34611b426805345cdf77eb68f44c5490565b611b4c9190612111565b611b5691906120df565b90505f611b6334476120cc565b6040516370a0823160e01b815230600482015234907f00000000000000000000000000000000000000000000000000000000000000006001600160a01b0316906370a0823190602401602060405180830381865afa158015611bc7573d5f5f3e3d5ffd5b505050506040513d601f19601f82011682018060405250810190611beb91906120a1565b611bf59190612111565b611bff91906120df565b9050611c0b8383611cd5565b6040516323b872dd60e01b81526001600160a01b037f000000000000000000000000000000000000000000000000000000000000000016906323b872dd90611c5b90339030908690600401612128565b6020604051808303815f875af1158015611c77573d5f5f3e3d5ffd5b505050506040513d601f19601f82011682018060405250810190611c9b9190612082565b5060408051828152602081018490526001600160a01b0385169133915f51602061226b5f395f51905f52910160405180910390a350919050565b6805345cdf77eb68f44c5481810181811015611cf85763e5cfe9575f526004601cfd5b806805345cdf77eb68f44c5550506387a211a2600c52815f526020600c208181540181555080602052600c5160601c5f5f51602061224b5f395f51905f52602080a35050565b81602052637f5e9f20600c52825f526034600c208054801915611d765780831115611d70576313be252b5f526004601cfd5b82810382555b5050505050565b6387a211a2600c52815f526020600c20805480831115611da45763f4d678b85f526004601cfd5b82900390556805345cdf77eb68f44c805482900390555f8181526001600160a01b0383165f51602061224b5f395f51905f52602083a35050565b6001600160a01b0381168114611df2575f5ffd5b50565b5f5f5f60608486031215611e07575f5ffd5b8335611e1281611dde565b9250602084013591506040840135611e2981611dde565b809150509250925092565b602081525f82518060208401528060208501604085015e5f604082850101526040601f19601f83011684010191505092915050565b5f60208284031215611e79575f5ffd5b5035919050565b5f5f60408385031215611e91575f5ffd5b823591506020830135611ea381611dde565b809150509250929050565b5f5f60408385031215611ebf575f5ffd5b8235611eca81611dde565b946020939093013593505050565b5f608082840312156116d2575f5ffd5b5f5f60a08385031215611ef9575f5ffd5b82359150611f0a8460208501611ed8565b90509250929050565b5f5f5f60608486031215611f25575f5ffd5b8335611f3081611dde565b92506020840135611f4081611dde565b929592945050506040919091013590565b5f60208284031215611f61575f5ffd5b8135610c0281611dde565b5f5f5f60608486031215611f7e575f5ffd5b833592506020840135611f9081611dde565b91506040840135611e2981611dde565b803560ff81168114610d0c575f5ffd5b5f5f5f5f5f5f5f60e0888a031215611fc6575f5ffd5b8735611fd181611dde565b96506020880135611fe181611dde565b95506040880135945060608801359350611ffd60808901611fa0565b9699959850939692959460a0840135945060c09093013592915050565b5f5f6040838503121561202b575f5ffd5b823561203681611dde565b91506020830135611ea381611dde565b5f5f5f60c08486031215612058575f5ffd5b83359250602084013561206a81611dde565b91506120798560408601611ed8565b90509250925092565b5f60208284031215612092575f5ffd5b81518015158114610c02575f5ffd5b5f602082840312156120b1575f5ffd5b5051919050565b634e487b7160e01b5f52601160045260245ffd5b81810381811115610a5057610a506120b8565b5f826120f957634e487b7160e01b5f52601260045260245ffd5b500490565b80820180821115610a5057610a506120b8565b8082028115828204841417610a5057610a506120b8565b6001600160a01b039384168152919092166020820152604081019190915260600190565b634e487b7160e01b5f52604160045260245ffd5b5f60208284031215612170575f5ffd5b815167ffffffffffffffff811115612186575f5ffd5b8201601f81018413612196575f5ffd5b805167ffffffffffffffff8111156121b0576121b061214c565b604051601f8201601f19908116603f0116810167ffffffffffffffff811182821017156121df576121df61214c565b6040528181528282016020018610156121f6575f5ffd5b8160208401602083015e5f91810160200191909152949350505050565b5f82518060208501845e6104c560f41b920191825250600201919050565b5f60208284031215612241575f5ffd5b610c0282611fa056feddf252ad1be2c89b69c2b068fc378daa952ba7f163c4a11628f55a4df523b3efdcbc1c05240f31ff3ad067ef1ee35ce4997762752e3a095284754544f4c709d7a26469706673582212207796afeac98b710cd39ad473b470d11f505871ae43ff985b7216ec16bb83fc1b64736f6c634300081c0033",
					"opcodes": "PUSH2 0x120 PUSH1 0x40 MSTORE TIMESTAMP PUSH0 SSTORE TIMESTAMP PUSH1 0x1 SSTORE CALLVALUE DUP1 ISZERO PUSH2 0x17 JUMPI PUSH0 PUSH0 REVERT JUMPDEST POP PUSH1 0x40 MLOAD PUSH2 0x249C CODESIZE SUB DUP1 PUSH2 0x249C DUP4 CODECOPY DUP2 ADD PUSH1 0x40 DUP2 SWAP1 MSTORE PUSH2 0x36 SWAP2 PUSH2 0x82 JUMP JUMPDEST PUSH1 0x1 PUSH1 0x1 PUSH1 0xA0 SHL SUB SWAP1 SWAP5 AND PUSH1 0x80 MSTORE PUSH1 0x1 PUSH1 0x1 PUSH1 0x80 SHL SUB SWAP3 DUP4 AND PUSH1 0xA0 MSTORE SWAP1 DUP3 AND PUSH1 0xC0 MSTORE DUP2 AND PUSH1 0xE0 MSTORE AND PUSH2 0x100 MSTORE PUSH2 0xF0 JUMP JUMPDEST DUP1 MLOAD PUSH1 0x1 PUSH1 0x1 PUSH1 0x80 SHL SUB DUP2 AND DUP2 EQ PUSH2 0x7D JUMPI PUSH0 PUSH0 REVERT JUMPDEST SWAP2 SWAP1 POP JUMP JUMPDEST PUSH0 PUSH0 PUSH0 PUSH0 PUSH0 PUSH1 0xA0 DUP7 DUP9 SUB SLT ISZERO PUSH2 0x96 JUMPI PUSH0 PUSH0 REVERT JUMPDEST DUP6 MLOAD PUSH1 0x1 PUSH1 0x1 PUSH1 0xA0 SHL SUB DUP2 AND DUP2 EQ PUSH2 0xAC JUMPI PUSH0 PUSH0 REVERT JUMPDEST SWAP5 POP PUSH2 0xBA PUSH1 0x20 DUP8 ADD PUSH2 0x67 JUMP JUMPDEST SWAP4 POP PUSH2 0xC8 PUSH1 0x40 DUP8 ADD PUSH2 0x67 JUMP JUMPDEST SWAP3 POP PUSH2 0xD6 PUSH1 0x60 DUP8 ADD PUSH2 0x67 JUMP JUMPDEST SWAP2 POP PUSH2 0xE4 PUSH1 0x80 DUP8 ADD PUSH2 0x67 JUMP JUMPDEST SWAP1 POP SWAP3 SWAP6 POP SWAP3 SWAP6 SWAP1 SWAP4 POP JUMP JUMPDEST PUSH1 0x80 MLOAD PUSH1 0xA0 MLOAD PUSH1 0xC0 MLOAD PUSH1 0xE0 MLOAD PUSH2 0x100 MLOAD PUSH2 0x22C0 PUSH2 0x1DC PUSH0 CODECOPY PUSH0 DUP2 DUP2 PUSH2 0x615 ADD MSTORE PUSH2 0x1A3E ADD MSTORE PUSH0 DUP2 DUP2 PUSH2 0x47A ADD MSTORE DUP2 DUP2 PUSH2 0x896 ADD MSTORE DUP2 DUP2 PUSH2 0xF96 ADD MSTORE PUSH2 0x1607 ADD MSTORE PUSH0 DUP2 DUP2 PUSH2 0x3E4 ADD MSTORE PUSH2 0xCBD ADD MSTORE PUSH0 DUP2 DUP2 PUSH2 0x4E0 ADD MSTORE DUP2 DUP2 PUSH2 0xA6F ADD MSTORE DUP2 DUP2 PUSH2 0x1184 ADD MSTORE PUSH2 0x13B2 ADD MSTORE PUSH0 DUP2 DUP2 PUSH2 0x42F ADD MSTORE DUP2 DUP2 PUSH2 0x792 ADD MSTORE DUP2 DUP2 PUSH2 0x8F7 ADD MSTORE DUP2 DUP2 PUSH2 0x9CB ADD MSTORE DUP2 DUP2 PUSH2 0xAC0 ADD MSTORE DUP2 DUP2 PUSH2 0xDC3 ADD MSTORE DUP2 DUP2 PUSH2 0xE7B ADD MSTORE DUP2 DUP2 PUSH2 0xFFC ADD MSTORE DUP2 DUP2 PUSH2 0x10EC ADD MSTORE DUP2 DUP2 PUSH2 0x1254 ADD MSTORE DUP2 DUP2 PUSH2 0x130B ADD MSTORE DUP2 DUP2 PUSH2 0x14D4 ADD MSTORE DUP2 DUP2 PUSH2 0x1668 ADD MSTORE DUP2 DUP2 PUSH2 0x174C ADD MSTORE DUP2 DUP2 PUSH2 0x195E ADD MSTORE DUP2 DUP2 PUSH2 0x1AA2 ADD MSTORE DUP2 DUP2 PUSH2 0x1B7A ADD MSTORE PUSH2 0x1C22 ADD MSTORE PUSH2 0x22C0 PUSH0 RETURN INVALID PUSH1 0x80 PUSH1 0x40 MSTORE PUSH1 0x4 CALLDATASIZE LT PUSH2 0x233 JUMPI PUSH0 CALLDATALOAD PUSH1 0xE0 SHR DUP1 PUSH4 0x70A08231 GT PUSH2 0x129 JUMPI DUP1 PUSH4 0xBA087652 GT PUSH2 0xA8 JUMPI DUP1 PUSH4 0xDD62ED3E GT PUSH2 0x6D JUMPI DUP1 PUSH4 0xDD62ED3E EQ PUSH2 0x6C4 JUMPI DUP1 PUSH4 0xDE899D1F EQ PUSH2 0x6F8 JUMPI DUP1 PUSH4 0xEA6B80B7 EQ PUSH2 0x717 JUMPI DUP1 PUSH4 0xEF8B30F7 EQ PUSH2 0x736 JUMPI DUP1 PUSH4 0xF340FA01 EQ PUSH2 0x755 JUMPI PUSH0 PUSH0 REVERT JUMPDEST DUP1 PUSH4 0xBA087652 EQ PUSH2 0x63F JUMPI DUP1 PUSH4 0xBC710575 EQ PUSH2 0x65E JUMPI DUP1 PUSH4 0xC1A4845F EQ PUSH2 0x671 JUMPI DUP1 PUSH4 0xC6E6F592 EQ PUSH2 0x684 JUMPI DUP1 PUSH4 0xD505ACCF EQ PUSH2 0x6A3 JUMPI PUSH0 PUSH0 REVERT JUMPDEST DUP1 PUSH4 0x95D89B41 GT PUSH2 0xEE JUMPI DUP1 PUSH4 0x95D89B41 EQ PUSH2 0x5BD JUMPI DUP1 PUSH4 0x96A3958D EQ PUSH2 0x5D1 JUMPI DUP1 PUSH4 0xA9059CBB EQ PUSH2 0x5E5 JUMPI DUP1 PUSH4 0xAD330967 EQ PUSH2 0x604 JUMPI DUP1 PUSH4 0xAEA1E3D1 EQ PUSH2 0x637 JUMPI PUSH0 PUSH0 REVERT JUMPDEST DUP1 PUSH4 0x70A08231 EQ PUSH2 0x515 JUMPI DUP1 PUSH4 0x7ECEBE00 EQ PUSH2 0x546 JUMPI DUP1 PUSH4 0x81F2D34E EQ PUSH2 0x577 JUMPI DUP1 PUSH4 0x8A2C9CEF EQ PUSH2 0x58B JUMPI DUP1 PUSH4 0x8A48B2A5 EQ PUSH2 0x5AA JUMPI PUSH0 PUSH0 REVERT JUMPDEST DUP1 PUSH4 0x25D1782D GT PUSH2 0x1B5 JUMPI DUP1 PUSH4 0x3AEEADE8 GT PUSH2 0x17A JUMPI DUP1 PUSH4 0x3AEEADE8 EQ PUSH2 0x469 JUMPI DUP1 PUSH4 0x421C6A8A EQ PUSH2 0x49C JUMPI DUP1 PUSH4 0x4CDAD506 EQ PUSH2 0x4B0 JUMPI DUP1 PUSH4 0x4D016295 EQ PUSH2 0x4CF JUMPI DUP1 PUSH4 0x6E553F65 EQ PUSH2 0x502 JUMPI PUSH0 PUSH0 REVERT JUMPDEST DUP1 PUSH4 0x25D1782D EQ PUSH2 0x385 JUMPI DUP1 PUSH4 0x313CE567 EQ PUSH2 0x3A4 JUMPI DUP1 PUSH4 0x3644E515 EQ PUSH2 0x3BF JUMPI DUP1 PUSH4 0x367ADA10 EQ PUSH2 0x3D3 JUMPI DUP1 PUSH4 0x38D52E0F EQ PUSH2 0x41E JUMPI PUSH0 PUSH0 REVERT JUMPDEST DUP1 PUSH4 0xF2A403F GT PUSH2 0x1FB JUMPI DUP1 PUSH4 0xF2A403F EQ PUSH2 0x2F7 JUMPI DUP1 PUSH4 0x127D0409 EQ PUSH2 0x30C JUMPI DUP1 PUSH4 0x18160DDD EQ PUSH2 0x32B JUMPI DUP1 PUSH4 0x19CDF284 EQ PUSH2 0x347 JUMPI DUP1 PUSH4 0x23B872DD EQ PUSH2 0x366 JUMPI PUSH0 PUSH0 REVERT JUMPDEST DUP1 PUSH4 0x4C764E1 EQ PUSH2 0x237 JUMPI DUP1 PUSH4 0x6FDDE03 EQ PUSH2 0x269 JUMPI DUP1 PUSH4 0x7A2D13A EQ PUSH2 0x28A JUMPI DUP1 PUSH4 0x8E30698 EQ PUSH2 0x2A9 JUMPI DUP1 PUSH4 0x95EA7B3 EQ PUSH2 0x2C8 JUMPI JUMPDEST PUSH0 PUSH0 REVERT JUMPDEST CALLVALUE DUP1 ISZERO PUSH2 0x242 JUMPI PUSH0 PUSH0 REVERT JUMPDEST POP PUSH2 0x256 PUSH2 0x251 CALLDATASIZE PUSH1 0x4 PUSH2 0x1DF5 JUMP JUMPDEST PUSH2 0x768 JUMP JUMPDEST PUSH1 0x40 MLOAD SWAP1 DUP2 MSTORE PUSH1 0x20 ADD JUMPDEST PUSH1 0x40 MLOAD DUP1 SWAP2 SUB SWAP1 RETURN JUMPDEST CALLVALUE DUP1 ISZERO PUSH2 0x274 JUMPI PUSH0 PUSH0 REVERT JUMPDEST POP PUSH2 0x27D PUSH2 0x96B JUMP JUMPDEST PUSH1 0x40 MLOAD PUSH2 0x260 SWAP2 SWAP1 PUSH2 0x1E34 JUMP JUMPDEST CALLVALUE DUP1 ISZERO PUSH2 0x295 JUMPI PUSH0 PUSH0 REVERT JUMPDEST POP PUSH2 0x256 PUSH2 0x2A4 CALLDATASIZE PUSH1 0x4 PUSH2 0x1E69 JUMP JUMPDEST PUSH2 0x9A2 JUMP JUMPDEST CALLVALUE DUP1 ISZERO PUSH2 0x2B4 JUMPI PUSH0 PUSH0 REVERT JUMPDEST POP PUSH2 0x256 PUSH2 0x2C3 CALLDATASIZE PUSH1 0x4 PUSH2 0x1E80 JUMP JUMPDEST PUSH2 0xA56 JUMP JUMPDEST CALLVALUE DUP1 ISZERO PUSH2 0x2D3 JUMPI PUSH0 PUSH0 REVERT JUMPDEST POP PUSH2 0x2E7 PUSH2 0x2E2 CALLDATASIZE PUSH1 0x4 PUSH2 0x1EAE JUMP JUMPDEST PUSH2 0xB9C JUMP JUMPDEST PUSH1 0x40 MLOAD SWAP1 ISZERO ISZERO DUP2 MSTORE PUSH1 0x20 ADD PUSH2 0x260 JUMP JUMPDEST CALLVALUE DUP1 ISZERO PUSH2 0x302 JUMPI PUSH0 PUSH0 REVERT JUMPDEST POP PUSH2 0x256 PUSH1 0x1 SLOAD DUP2 JUMP JUMPDEST CALLVALUE DUP1 ISZERO PUSH2 0x317 JUMPI PUSH0 PUSH0 REVERT JUMPDEST POP PUSH2 0x256 PUSH2 0x326 CALLDATASIZE PUSH1 0x4 PUSH2 0x1E69 JUMP JUMPDEST PUSH2 0xBEB JUMP JUMPDEST CALLVALUE DUP1 ISZERO PUSH2 0x336 JUMPI PUSH0 PUSH0 REVERT JUMPDEST POP PUSH9 0x5345CDF77EB68F44C SLOAD PUSH2 0x256 JUMP JUMPDEST CALLVALUE DUP1 ISZERO PUSH2 0x352 JUMPI PUSH0 PUSH0 REVERT JUMPDEST POP PUSH2 0x256 PUSH2 0x361 CALLDATASIZE PUSH1 0x4 PUSH2 0x1EE8 JUMP JUMPDEST PUSH2 0xBF6 JUMP JUMPDEST CALLVALUE DUP1 ISZERO PUSH2 0x371 JUMPI PUSH0 PUSH0 REVERT JUMPDEST POP PUSH2 0x2E7 PUSH2 0x380 CALLDATASIZE PUSH1 0x4 PUSH2 0x1F13 JUMP JUMPDEST PUSH2 0xC09 JUMP JUMPDEST CALLVALUE DUP1 ISZERO PUSH2 0x390 JUMPI PUSH0 PUSH0 REVERT JUMPDEST POP PUSH2 0x256 PUSH2 0x39F CALLDATASIZE PUSH1 0x4 PUSH2 0x1E69 JUMP JUMPDEST PUSH2 0xCAE JUMP JUMPDEST CALLVALUE DUP1 ISZERO PUSH2 0x3AF JUMPI PUSH0 PUSH0 REVERT JUMPDEST POP PUSH1 0x40 MLOAD PUSH1 0x12 DUP2 MSTORE PUSH1 0x20 ADD PUSH2 0x260 JUMP JUMPDEST CALLVALUE DUP1 ISZERO PUSH2 0x3CA JUMPI PUSH0 PUSH0 REVERT JUMPDEST POP PUSH2 0x256 PUSH2 0xD11 JUMP JUMPDEST CALLVALUE DUP1 ISZERO PUSH2 0x3DE JUMPI PUSH0 PUSH0 REVERT JUMPDEST POP PUSH2 0x406 PUSH32 0x0 DUP2 JUMP JUMPDEST PUSH1 0x40 MLOAD PUSH1 0x1 PUSH1 0x1 PUSH1 0x80 SHL SUB SWAP1 SWAP2 AND DUP2 MSTORE PUSH1 0x20 ADD PUSH2 0x260 JUMP JUMPDEST CALLVALUE DUP1 ISZERO PUSH2 0x429 JUMPI PUSH0 PUSH0 REVERT JUMPDEST POP PUSH2 0x451 PUSH32 0x0 DUP2 JUMP JUMPDEST PUSH1 0x40 MLOAD PUSH1 0x1 PUSH1 0x1 PUSH1 0xA0 SHL SUB SWAP1 SWAP2 AND DUP2 MSTORE PUSH1 0x20 ADD PUSH2 0x260 JUMP JUMPDEST CALLVALUE DUP1 ISZERO PUSH2 0x474 JUMPI PUSH0 PUSH0 REVERT JUMPDEST POP PUSH2 0x406 PUSH32 0x0 DUP2 JUMP JUMPDEST CALLVALUE DUP1 ISZERO PUSH2 0x4A7 JUMPI PUSH0 PUSH0 REVERT JUMPDEST POP PUSH2 0x256 PUSH0 SLOAD DUP2 JUMP JUMPDEST CALLVALUE DUP1 ISZERO PUSH2 0x4BB JUMPI PUSH0 PUSH0 REVERT JUMPDEST POP PUSH2 0x256 PUSH2 0x4CA CALLDATASIZE PUSH1 0x4 PUSH2 0x1E69 JUMP JUMPDEST PUSH2 0xD8D JUMP JUMPDEST CALLVALUE DUP1 ISZERO PUSH2 0x4DA JUMPI PUSH0 PUSH0 REVERT JUMPDEST POP PUSH2 0x406 PUSH32 0x0 DUP2 JUMP JUMPDEST PUSH2 0x256 PUSH2 0x510 CALLDATASIZE PUSH1 0x4 PUSH2 0x1E80 JUMP JUMPDEST PUSH2 0xD97 JUMP JUMPDEST CALLVALUE DUP1 ISZERO PUSH2 0x520 JUMPI PUSH0 PUSH0 REVERT JUMPDEST POP PUSH2 0x256 PUSH2 0x52F CALLDATASIZE PUSH1 0x4 PUSH2 0x1F51 JUMP JUMPDEST PUSH4 0x87A211A2 PUSH1 0xC SWAP1 DUP2 MSTORE PUSH0 SWAP2 SWAP1 SWAP2 MSTORE PUSH1 0x20 SWAP1 KECCAK256 SLOAD SWAP1 JUMP JUMPDEST CALLVALUE DUP1 ISZERO PUSH2 0x551 JUMPI PUSH0 PUSH0 REVERT JUMPDEST POP PUSH2 0x256 PUSH2 0x560 CALLDATASIZE PUSH1 0x4 PUSH2 0x1F51 JUMP JUMPDEST PUSH4 0x38377508 PUSH1 0xC SWAP1 DUP2 MSTORE PUSH0 SWAP2 SWAP1 SWAP2 MSTORE PUSH1 0x20 SWAP1 KECCAK256 SLOAD SWAP1 JUMP JUMPDEST CALLVALUE DUP1 ISZERO PUSH2 0x582 JUMPI PUSH0 PUSH0 REVERT JUMPDEST POP PUSH2 0x256 PUSH2 0xF93 JUMP JUMPDEST CALLVALUE DUP1 ISZERO PUSH2 0x596 JUMPI PUSH0 PUSH0 REVERT JUMPDEST POP PUSH2 0x256 PUSH2 0x5A5 CALLDATASIZE PUSH1 0x4 PUSH2 0x1DF5 JUMP JUMPDEST PUSH2 0xFDB JUMP JUMPDEST PUSH2 0x256 PUSH2 0x5B8 CALLDATASIZE PUSH1 0x4 PUSH2 0x1E80 JUMP JUMPDEST PUSH2 0x1218 JUMP JUMPDEST CALLVALUE DUP1 ISZERO PUSH2 0x5C8 JUMPI PUSH0 PUSH0 REVERT JUMPDEST POP PUSH2 0x27D PUSH2 0x1307 JUMP JUMPDEST CALLVALUE DUP1 ISZERO PUSH2 0x5DC JUMPI PUSH0 PUSH0 REVERT JUMPDEST POP PUSH2 0x256 PUSH2 0x13AF JUMP JUMPDEST CALLVALUE DUP1 ISZERO PUSH2 0x5F0 JUMPI PUSH0 PUSH0 REVERT JUMPDEST POP PUSH2 0x2E7 PUSH2 0x5FF CALLDATASIZE PUSH1 0x4 PUSH2 0x1EAE JUMP JUMPDEST PUSH2 0x13E7 JUMP JUMPDEST CALLVALUE DUP1 ISZERO PUSH2 0x60F JUMPI PUSH0 PUSH0 REVERT JUMPDEST POP PUSH2 0x406 PUSH32 0x0 DUP2 JUMP JUMPDEST PUSH2 0x256 PUSH2 0x144B JUMP JUMPDEST CALLVALUE DUP1 ISZERO PUSH2 0x64A JUMPI PUSH0 PUSH0 REVERT JUMPDEST POP PUSH2 0x256 PUSH2 0x659 CALLDATASIZE PUSH1 0x4 PUSH2 0x1F6C JUMP JUMPDEST PUSH2 0x1455 JUMP JUMPDEST PUSH2 0x256 PUSH2 0x66C CALLDATASIZE PUSH1 0x4 PUSH2 0x1F51 JUMP JUMPDEST PUSH2 0x15EE JUMP JUMPDEST PUSH2 0x256 PUSH2 0x67F CALLDATASIZE PUSH1 0x4 PUSH2 0x1F51 JUMP JUMPDEST PUSH2 0x16D8 JUMP JUMPDEST CALLVALUE DUP1 ISZERO PUSH2 0x68F JUMPI PUSH0 PUSH0 REVERT JUMPDEST POP PUSH2 0x256 PUSH2 0x69E CALLDATASIZE PUSH1 0x4 PUSH2 0x1E69 JUMP JUMPDEST PUSH2 0x1735 JUMP JUMPDEST CALLVALUE DUP1 ISZERO PUSH2 0x6AE JUMPI PUSH0 PUSH0 REVERT JUMPDEST POP PUSH2 0x6C2 PUSH2 0x6BD CALLDATASIZE PUSH1 0x4 PUSH2 0x1FB0 JUMP JUMPDEST PUSH2 0x17CF JUMP JUMPDEST STOP JUMPDEST CALLVALUE DUP1 ISZERO PUSH2 0x6CF JUMPI PUSH0 PUSH0 REVERT JUMPDEST POP PUSH2 0x256 PUSH2 0x6DE CALLDATASIZE PUSH1 0x4 PUSH2 0x201A JUMP JUMPDEST PUSH1 0x20 MSTORE PUSH4 0x7F5E9F20 PUSH1 0xC SWAP1 DUP2 MSTORE PUSH0 SWAP2 SWAP1 SWAP2 MSTORE PUSH1 0x34 SWAP1 KECCAK256 SLOAD SWAP1 JUMP JUMPDEST CALLVALUE DUP1 ISZERO PUSH2 0x703 JUMPI PUSH0 PUSH0 REVERT JUMPDEST POP PUSH2 0x256 PUSH2 0x712 CALLDATASIZE PUSH1 0x4 PUSH2 0x2046 JUMP JUMPDEST PUSH2 0x1953 JUMP JUMPDEST CALLVALUE DUP1 ISZERO PUSH2 0x722 JUMPI PUSH0 PUSH0 REVERT JUMPDEST POP PUSH2 0x256 PUSH2 0x731 CALLDATASIZE PUSH1 0x4 PUSH2 0x1E69 JUMP JUMPDEST PUSH2 0x1A2F JUMP JUMPDEST CALLVALUE DUP1 ISZERO PUSH2 0x741 JUMPI PUSH0 PUSH0 REVERT JUMPDEST POP PUSH2 0x256 PUSH2 0x750 CALLDATASIZE PUSH1 0x4 PUSH2 0x1E69 JUMP JUMPDEST PUSH2 0x1B1B JUMP JUMPDEST PUSH2 0x256 PUSH2 0x763 CALLDATASIZE PUSH1 0x4 PUSH2 0x1F51 JUMP JUMPDEST PUSH2 0x1B25 JUMP JUMPDEST PUSH1 0x40 MLOAD PUSH4 0x95EA7B3 PUSH1 0xE0 SHL DUP2 MSTORE PUSH1 0x1 PUSH1 0x1 PUSH1 0xA0 SHL SUB DUP5 DUP2 AND PUSH1 0x4 DUP4 ADD MSTORE PUSH1 0x24 DUP3 ADD DUP5 SWAP1 MSTORE PUSH0 SWAP2 SELFBALANCE SWAP2 PUSH32 0x0 AND SWAP1 PUSH4 0x95EA7B3 SWAP1 PUSH1 0x44 ADD PUSH1 0x20 PUSH1 0x40 MLOAD DUP1 DUP4 SUB DUP2 PUSH0 DUP8 GAS CALL ISZERO DUP1 ISZERO PUSH2 0x7D8 JUMPI RETURNDATASIZE PUSH0 PUSH0 RETURNDATACOPY RETURNDATASIZE PUSH0 REVERT JUMPDEST POP POP POP POP PUSH1 0x40 MLOAD RETURNDATASIZE PUSH1 0x1F NOT PUSH1 0x1F DUP3 ADD AND DUP3 ADD DUP1 PUSH1 0x40 MSTORE POP DUP2 ADD SWAP1 PUSH2 0x7FC SWAP2 SWAP1 PUSH2 0x2082 JUMP JUMPDEST POP PUSH1 0x40 MLOAD PUSH4 0x127D0409 PUSH1 0xE0 SHL DUP2 MSTORE PUSH1 0x4 DUP2 ADD DUP6 SWAP1 MSTORE PUSH1 0x1 PUSH1 0x1 PUSH1 0xA0 SHL SUB DUP7 AND SWAP1 PUSH4 0x127D0409 SWAP1 PUSH1 0x24 ADD PUSH1 0x20 PUSH1 0x40 MLOAD DUP1 DUP4 SUB DUP2 PUSH0 DUP8 GAS CALL ISZERO DUP1 ISZERO PUSH2 0x841 JUMPI RETURNDATASIZE PUSH0 PUSH0 RETURNDATACOPY RETURNDATASIZE PUSH0 REVERT JUMPDEST POP POP POP POP PUSH1 0x40 MLOAD RETURNDATASIZE PUSH1 0x1F NOT PUSH1 0x1F DUP3 ADD AND DUP3 ADD DUP1 PUSH1 0x40 MSTORE POP DUP2 ADD SWAP1 PUSH2 0x865 SWAP2 SWAP1 PUSH2 0x20A1 JUMP JUMPDEST POP PUSH0 PUSH2 0x871 DUP3 SELFBALANCE PUSH2 0x20CC JUMP JUMPDEST SWAP1 POP DUP5 PUSH2 0x87D DUP3 PUSH2 0x1A2F JUMP JUMPDEST PUSH2 0x887 SWAP2 SWAP1 PUSH2 0x20CC JUMP JUMPDEST SWAP3 POP PUSH2 0x8BC PUSH1 0x1 PUSH1 0x1 PUSH1 0x80 SHL SUB PUSH32 0x0 AND DUP5 PUSH2 0x20DF JUMP JUMPDEST PUSH1 0x1 PUSH0 DUP3 DUP3 SLOAD PUSH2 0x8CC SWAP2 SWAP1 PUSH2 0x20FE JUMP JUMPDEST SWAP1 SWAP2 SSTORE POP POP PUSH1 0x40 MLOAD PUSH4 0xA9059CBB PUSH1 0xE0 SHL DUP2 MSTORE PUSH1 0x1 PUSH1 0x1 PUSH1 0xA0 SHL SUB DUP6 DUP2 AND PUSH1 0x4 DUP4 ADD MSTORE PUSH1 0x24 DUP3 ADD DUP6 SWAP1 MSTORE PUSH32 0x0 AND SWAP1 PUSH4 0xA9059CBB SWAP1 PUSH1 0x44 ADD PUSH1 0x20 PUSH1 0x40 MLOAD DUP1 DUP4 SUB DUP2 PUSH0 DUP8 GAS CALL ISZERO DUP1 ISZERO PUSH2 0x93D JUMPI RETURNDATASIZE PUSH0 PUSH0 RETURNDATACOPY RETURNDATASIZE PUSH0 REVERT JUMPDEST POP POP POP POP PUSH1 0x40 MLOAD RETURNDATASIZE PUSH1 0x1F NOT PUSH1 0x1F DUP3 ADD AND DUP3 ADD DUP1 PUSH1 0x40 MSTORE POP DUP2 ADD SWAP1 PUSH2 0x961 SWAP2 SWAP1 PUSH2 0x2082 JUMP JUMPDEST POP POP POP SWAP4 SWAP3 POP POP POP JUMP JUMPDEST PUSH1 0x40 DUP1 MLOAD DUP1 DUP3 ADD SWAP1 SWAP2 MSTORE PUSH1 0x17 DUP2 MSTORE PUSH32 0x4171756974617264204C697175696469747920506F6F6C000000000000000000 PUSH1 0x20 DUP3 ADD MSTORE SWAP1 JUMP JUMPDEST PUSH0 PUSH2 0x9B4 PUSH9 0x5345CDF77EB68F44C SLOAD SWAP1 JUMP JUMPDEST PUSH1 0x40 MLOAD PUSH4 0x70A08231 PUSH1 0xE0 SHL DUP2 MSTORE ADDRESS PUSH1 0x4 DUP3 ADD MSTORE DUP4 SWAP1 PUSH32 0x0 PUSH1 0x1 PUSH1 0x1 PUSH1 0xA0 SHL SUB AND SWAP1 PUSH4 0x70A08231 SWAP1 PUSH1 0x24 ADD PUSH1 0x20 PUSH1 0x40 MLOAD DUP1 DUP4 SUB DUP2 DUP7 GAS STATICCALL ISZERO DUP1 ISZERO PUSH2 0xA18 JUMPI RETURNDATASIZE PUSH0 PUSH0 RETURNDATACOPY RETURNDATASIZE PUSH0 REVERT JUMPDEST POP POP POP POP PUSH1 0x40 MLOAD RETURNDATASIZE PUSH1 0x1F NOT PUSH1 0x1F DUP3 ADD AND DUP3 ADD DUP1 PUSH1 0x40 MSTORE POP DUP2 ADD SWAP1 PUSH2 0xA3C SWAP2 SWAP1 PUSH2 0x20A1 JUMP JUMPDEST PUSH2 0xA46 SWAP2 SWAP1 PUSH2 0x2111 JUMP JUMPDEST PUSH2 0xA50 SWAP2 SWAP1 PUSH2 0x20DF JUMP JUMPDEST SWAP3 SWAP2 POP POP JUMP JUMPDEST PUSH0 PUSH2 0xA60 DUP4 PUSH2 0xCAE JUMP JUMPDEST SWAP1 POP PUSH2 0xA95 PUSH1 0x1 PUSH1 0x1 PUSH1 0x80 SHL SUB PUSH32 0x0 AND DUP3 PUSH2 0x20DF JUMP JUMPDEST PUSH0 PUSH0 DUP3 DUP3 SLOAD PUSH2 0xAA4 SWAP2 SWAP1 PUSH2 0x20FE JUMP JUMPDEST SWAP1 SWAP2 SSTORE POP POP PUSH1 0x40 MLOAD PUSH4 0x23B872DD PUSH1 0xE0 SHL DUP2 MSTORE PUSH1 0x1 PUSH1 0x1 PUSH1 0xA0 SHL SUB PUSH32 0x0 AND SWAP1 PUSH4 0x23B872DD SWAP1 PUSH2 0xAF9 SWAP1 CALLER SWAP1 ADDRESS SWAP1 DUP9 SWAP1 PUSH1 0x4 ADD PUSH2 0x2128 JUMP JUMPDEST PUSH1 0x20 PUSH1 0x40 MLOAD DUP1 DUP4 SUB DUP2 PUSH0 DUP8 GAS CALL ISZERO DUP1 ISZERO PUSH2 0xB15 JUMPI RETURNDATASIZE PUSH0 PUSH0 RETURNDATACOPY RETURNDATASIZE PUSH0 REVERT JUMPDEST POP POP POP POP PUSH1 0x40 MLOAD RETURNDATASIZE PUSH1 0x1F NOT PUSH1 0x1F DUP3 ADD AND DUP3 ADD DUP1 PUSH1 0x40 MSTORE POP DUP2 ADD SWAP1 PUSH2 0xB39 SWAP2 SWAP1 PUSH2 0x2082 JUMP JUMPDEST POP PUSH0 DUP3 PUSH1 0x1 PUSH1 0x1 PUSH1 0xA0 SHL SUB AND DUP3 PUSH1 0x40 MLOAD PUSH0 PUSH1 0x40 MLOAD DUP1 DUP4 SUB DUP2 DUP6 DUP8 GAS CALL SWAP3 POP POP POP RETURNDATASIZE DUP1 PUSH0 DUP2 EQ PUSH2 0xB83 JUMPI PUSH1 0x40 MLOAD SWAP2 POP PUSH1 0x1F NOT PUSH1 0x3F RETURNDATASIZE ADD AND DUP3 ADD PUSH1 0x40 MSTORE RETURNDATASIZE DUP3 MSTORE RETURNDATASIZE PUSH0 PUSH1 0x20 DUP5 ADD RETURNDATACOPY PUSH2 0xB88 JUMP JUMPDEST PUSH1 0x60 SWAP2 POP JUMPDEST POP POP SWAP1 POP DUP1 PUSH2 0xB95 JUMPI PUSH0 PUSH0 REVERT JUMPDEST POP SWAP3 SWAP2 POP POP JUMP JUMPDEST PUSH0 DUP3 PUSH1 0x20 MSTORE PUSH4 0x7F5E9F20 PUSH1 0xC MSTORE CALLER PUSH0 MSTORE DUP2 PUSH1 0x34 PUSH1 0xC KECCAK256 SSTORE DUP2 PUSH0 MSTORE PUSH1 0x2C MLOAD PUSH1 0x60 SHR CALLER PUSH32 0x8C5BE1E5EBEC7D5BD14F71427D1E84F3DD0314C0F7B2291E5B200AC8C7C3B925 PUSH1 0x20 PUSH0 LOG3 POP PUSH1 0x1 SWAP3 SWAP2 POP POP JUMP JUMPDEST PUSH0 PUSH2 0xA50 DUP3 CALLER PUSH2 0xA56 JUMP JUMPDEST PUSH0 PUSH2 0xC02 DUP4 CALLER DUP5 PUSH2 0x1953 JUMP JUMPDEST SWAP4 SWAP3 POP POP POP JUMP JUMPDEST PUSH0 DUP4 PUSH1 0x60 SHL CALLER PUSH1 0x20 MSTORE PUSH4 0x7F5E9F20 DUP2 OR PUSH1 0xC MSTORE PUSH1 0x34 PUSH1 0xC KECCAK256 DUP1 SLOAD DUP1 NOT ISZERO PUSH2 0xC45 JUMPI DUP1 DUP6 GT ISZERO PUSH2 0xC3F JUMPI PUSH4 0x13BE252B PUSH0 MSTORE PUSH1 0x4 PUSH1 0x1C REVERT JUMPDEST DUP5 DUP2 SUB DUP3 SSTORE JUMPDEST POP POP PUSH4 0x87A211A2 DUP2 OR PUSH1 0xC MSTORE PUSH1 0x20 PUSH1 0xC KECCAK256 DUP1 SLOAD DUP1 DUP6 GT ISZERO PUSH2 0xC6D JUMPI PUSH4 0xF4D678B8 PUSH0 MSTORE PUSH1 0x4 PUSH1 0x1C REVERT JUMPDEST DUP5 DUP2 SUB DUP3 SSTORE POP POP DUP4 PUSH0 MSTORE PUSH1 0x20 PUSH1 0xC KECCAK256 DUP4 DUP2 SLOAD ADD DUP2 SSTORE POP DUP3 PUSH1 0x20 MSTORE PUSH1 0xC MLOAD PUSH1 0x60 SHR DUP2 PUSH1 0x60 SHR PUSH0 MLOAD PUSH1 0x20 PUSH2 0x224B PUSH0 CODECOPY PUSH0 MLOAD SWAP1 PUSH0 MSTORE PUSH1 0x20 DUP1 LOG3 POP POP PUSH1 0x1 SWAP4 SWAP3 POP POP POP JUMP JUMPDEST PUSH0 PUSH2 0xCE2 DUP3 PUSH1 0x1 PUSH1 0x1 PUSH1 0x80 SHL SUB PUSH32 0x0 AND PUSH2 0x20FE JUMP JUMPDEST DUP3 PUSH2 0xCEB PUSH2 0x13AF JUMP JUMPDEST PUSH2 0xCF5 SWAP2 SWAP1 PUSH2 0x2111 JUMP JUMPDEST PUSH2 0xCFF SWAP2 SWAP1 PUSH2 0x20DF JUMP JUMPDEST SWAP1 POP DUP1 SELFBALANCE LT ISZERO PUSH2 0xD0C JUMPI POP SELFBALANCE JUMPDEST SWAP2 SWAP1 POP JUMP JUMPDEST PUSH0 DUP1 PUSH2 0xD1B PUSH2 0x96B JUMP JUMPDEST DUP1 MLOAD SWAP1 PUSH1 0x20 ADD KECCAK256 SWAP1 POP PUSH1 0x40 DUP1 MLOAD PUSH32 0x8B73C3C69BB8FE3D512ECC4CF759CC79239F7B179B0FFACAA9A75D522B39400F DUP2 MSTORE PUSH1 0x20 DUP2 ADD SWAP3 SWAP1 SWAP3 MSTORE PUSH32 0xC89EFDAA54C0F20C7ADF612882DF0950F5A951637E0307CDCB4C672F298B8BC6 SWAP1 DUP3 ADD MSTORE CHAINID PUSH1 0x60 DUP3 ADD MSTORE ADDRESS PUSH1 0x80 DUP3 ADD MSTORE PUSH1 0xA0 SWAP1 KECCAK256 SWAP2 SWAP1 POP JUMP JUMPDEST PUSH0 PUSH2 0xA50 DUP3 PUSH2 0x9A2 JUMP JUMPDEST PUSH0 PUSH2 0xDA1 DUP4 PUSH2 0x1B1B JUMP JUMPDEST PUSH1 0x40 MLOAD PUSH4 0x70A08231 PUSH1 0xE0 SHL DUP2 MSTORE ADDRESS PUSH1 0x4 DUP3 ADD MSTORE SWAP1 SWAP2 POP PUSH0 SWAP1 PUSH1 0x1 PUSH1 0x1 PUSH1 0xA0 SHL SUB PUSH32 0x0 AND SWAP1 PUSH4 0x70A08231 SWAP1 PUSH1 0x24 ADD PUSH1 0x20 PUSH1 0x40 MLOAD DUP1 DUP4 SUB DUP2 DUP7 GAS STATICCALL ISZERO DUP1 ISZERO PUSH2 0xE08 JUMPI RETURNDATASIZE PUSH0 PUSH0 RETURNDATACOPY RETURNDATASIZE PUSH0 REVERT JUMPDEST POP POP POP POP PUSH1 0x40 MLOAD RETURNDATASIZE PUSH1 0x1F NOT PUSH1 0x1F DUP3 ADD AND DUP3 ADD DUP1 PUSH1 0x40 MSTORE POP DUP2 ADD SWAP1 PUSH2 0xE2C SWAP2 SWAP1 PUSH2 0x20A1 JUMP JUMPDEST DUP5 PUSH2 0xE37 CALLVALUE SELFBALANCE PUSH2 0x20CC JUMP JUMPDEST PUSH2 0xE41 SWAP2 SWAP1 PUSH2 0x2111 JUMP JUMPDEST PUSH2 0xE4B SWAP2 SWAP1 PUSH2 0x20DF JUMP JUMPDEST SWAP1 POP PUSH0 PUSH2 0xE58 DUP3 CALLVALUE PUSH2 0x20CC JUMP JUMPDEST SWAP1 POP PUSH2 0xE64 DUP5 DUP5 PUSH2 0x1CD5 JUMP JUMPDEST PUSH1 0x40 MLOAD PUSH4 0x23B872DD PUSH1 0xE0 SHL DUP2 MSTORE PUSH1 0x1 PUSH1 0x1 PUSH1 0xA0 SHL SUB PUSH32 0x0 AND SWAP1 PUSH4 0x23B872DD SWAP1 PUSH2 0xEB4 SWAP1 CALLER SWAP1 ADDRESS SWAP1 DUP11 SWAP1 PUSH1 0x4 ADD PUSH2 0x2128 JUMP JUMPDEST PUSH1 0x20 PUSH1 0x40 MLOAD DUP1 DUP4 SUB DUP2 PUSH0 DUP8 GAS CALL ISZERO DUP1 ISZERO PUSH2 0xED0 JUMPI RETURNDATASIZE PUSH0 PUSH0 RETURNDATACOPY RETURNDATASIZE PUSH0 REVERT JUMPDEST POP POP POP POP PUSH1 0x40 MLOAD RETURNDATASIZE PUSH1 0x1F NOT PUSH1 0x1F DUP3 ADD AND DUP3 ADD DUP1 PUSH1 0x40 MSTORE POP DUP2 ADD SWAP1 PUSH2 0xEF4 SWAP2 SWAP1 PUSH2 0x2082 JUMP JUMPDEST POP DUP1 ISZERO PUSH2 0xF58 JUMPI PUSH0 DUP5 PUSH1 0x1 PUSH1 0x1 PUSH1 0xA0 SHL SUB AND DUP3 PUSH1 0x40 MLOAD PUSH0 PUSH1 0x40 MLOAD DUP1 DUP4 SUB DUP2 DUP6 DUP8 GAS CALL SWAP3 POP POP POP RETURNDATASIZE DUP1 PUSH0 DUP2 EQ PUSH2 0xF44 JUMPI PUSH1 0x40 MLOAD SWAP2 POP PUSH1 0x1F NOT PUSH1 0x3F RETURNDATASIZE ADD AND DUP3 ADD PUSH1 0x40 MSTORE RETURNDATASIZE DUP3 MSTORE RETURNDATASIZE PUSH0 PUSH1 0x20 DUP5 ADD RETURNDATACOPY PUSH2 0xF49 JUMP JUMPDEST PUSH1 0x60 SWAP2 POP JUMPDEST POP POP SWAP1 POP DUP1 PUSH2 0xF56 JUMPI PUSH0 PUSH0 REVERT JUMPDEST POP JUMPDEST PUSH1 0x40 DUP1 MLOAD DUP7 DUP2 MSTORE PUSH1 0x20 DUP2 ADD DUP6 SWAP1 MSTORE PUSH1 0x1 PUSH1 0x1 PUSH1 0xA0 SHL SUB DUP7 AND SWAP2 CALLER SWAP2 PUSH0 MLOAD PUSH1 0x20 PUSH2 0x226B PUSH0 CODECOPY PUSH0 MLOAD SWAP1 PUSH0 MSTORE SWAP2 ADD PUSH1 0x40 MLOAD DUP1 SWAP2 SUB SWAP1 LOG3 POP POP SWAP3 SWAP2 POP POP JUMP JUMPDEST PUSH0 PUSH32 0x0 PUSH1 0x1 PUSH1 0x1 PUSH1 0x80 SHL SUB AND PUSH1 0x1 SLOAD TIMESTAMP PUSH2 0xFCC SWAP2 SWAP1 PUSH2 0x20CC JUMP JUMPDEST PUSH2 0xFD6 SWAP2 SWAP1 PUSH2 0x2111 JUMP JUMPDEST SWAP1 POP SWAP1 JUMP JUMPDEST PUSH1 0x40 MLOAD PUSH4 0x70A08231 PUSH1 0xE0 SHL DUP2 MSTORE ADDRESS PUSH1 0x4 DUP3 ADD MSTORE PUSH0 SWAP1 DUP2 SWAP1 PUSH1 0x1 PUSH1 0x1 PUSH1 0xA0 SHL SUB PUSH32 0x0 AND SWAP1 PUSH4 0x70A08231 SWAP1 PUSH1 0x24 ADD PUSH1 0x20 PUSH1 0x40 MLOAD DUP1 DUP4 SUB DUP2 DUP7 GAS STATICCALL ISZERO DUP1 ISZERO PUSH2 0x1041 JUMPI RETURNDATASIZE PUSH0 PUSH0 RETURNDATACOPY RETURNDATASIZE PUSH0 REVERT JUMPDEST POP POP POP POP PUSH1 0x40 MLOAD RETURNDATASIZE PUSH1 0x1F NOT PUSH1 0x1F DUP3 ADD AND DUP3 ADD DUP1 PUSH1 0x40 MSTORE POP DUP2 ADD SWAP1 PUSH2 0x1065 SWAP2 SWAP1 PUSH2 0x20A1 JUMP JUMPDEST SWAP1 POP DUP5 PUSH1 0x1 PUSH1 0x1 PUSH1 0xA0 SHL SUB AND PUSH4 0xAEA1E3D1 DUP6 PUSH1 0x40 MLOAD DUP3 PUSH4 0xFFFFFFFF AND PUSH1 0xE0 SHL DUP2 MSTORE PUSH1 0x4 ADD PUSH1 0x20 PUSH1 0x40 MLOAD DUP1 DUP4 SUB DUP2 DUP6 DUP9 GAS CALL ISZERO DUP1 ISZERO PUSH2 0x10A5 JUMPI RETURNDATASIZE PUSH0 PUSH0 RETURNDATACOPY RETURNDATASIZE PUSH0 REVERT JUMPDEST POP POP POP POP POP PUSH1 0x40 MLOAD RETURNDATASIZE PUSH1 0x1F NOT PUSH1 0x1F DUP3 ADD AND DUP3 ADD DUP1 PUSH1 0x40 MSTORE POP DUP2 ADD SWAP1 PUSH2 0x10CA SWAP2 SWAP1 PUSH2 0x20A1 JUMP JUMPDEST POP PUSH1 0x40 MLOAD PUSH4 0x70A08231 PUSH1 0xE0 SHL DUP2 MSTORE ADDRESS PUSH1 0x4 DUP3 ADD MSTORE PUSH0 SWAP1 DUP3 SWAP1 PUSH1 0x1 PUSH1 0x1 PUSH1 0xA0 SHL SUB PUSH32 0x0 AND SWAP1 PUSH4 0x70A08231 SWAP1 PUSH1 0x24 ADD PUSH1 0x20 PUSH1 0x40 MLOAD DUP1 DUP4 SUB DUP2 DUP7 GAS STATICCALL ISZERO DUP1 ISZERO PUSH2 0x1131 JUMPI RETURNDATASIZE PUSH0 PUSH0 RETURNDATACOPY RETURNDATASIZE PUSH0 REVERT JUMPDEST POP POP POP POP PUSH1 0x40 MLOAD RETURNDATASIZE PUSH1 0x1F NOT PUSH1 0x1F DUP3 ADD AND DUP3 ADD DUP1 PUSH1 0x40 MSTORE POP DUP2 ADD SWAP1 PUSH2 0x1155 SWAP2 SWAP1 PUSH2 0x20A1 JUMP JUMPDEST PUSH2 0x115F SWAP2 SWAP1 PUSH2 0x20CC JUMP JUMPDEST SWAP1 POP DUP5 PUSH2 0x116B DUP3 PUSH2 0xCAE JUMP JUMPDEST PUSH2 0x1175 SWAP2 SWAP1 PUSH2 0x20CC JUMP JUMPDEST SWAP3 POP PUSH2 0x11AA PUSH1 0x1 PUSH1 0x1 PUSH1 0x80 SHL SUB PUSH32 0x0 AND DUP5 PUSH2 0x20DF JUMP JUMPDEST PUSH0 PUSH0 DUP3 DUP3 SLOAD PUSH2 0x11B9 SWAP2 SWAP1 PUSH2 0x20FE JUMP JUMPDEST SWAP1 SWAP2 SSTORE POP POP PUSH1 0x40 MLOAD PUSH0 SWAP1 PUSH1 0x1 PUSH1 0x1 PUSH1 0xA0 SHL SUB DUP7 AND SWAP1 DUP6 SWAP1 DUP4 DUP2 DUP2 DUP2 DUP6 DUP8 GAS CALL SWAP3 POP POP POP RETURNDATASIZE DUP1 PUSH0 DUP2 EQ PUSH2 0x1206 JUMPI PUSH1 0x40 MLOAD SWAP2 POP PUSH1 0x1F NOT PUSH1 0x3F RETURNDATASIZE ADD AND DUP3 ADD PUSH1 0x40 MSTORE RETURNDATASIZE DUP3 MSTORE RETURNDATASIZE PUSH0 PUSH1 0x20 DUP5 ADD RETURNDATACOPY PUSH2 0x120B JUMP JUMPDEST PUSH1 0x60 SWAP2 POP JUMPDEST POP POP SWAP1 POP DUP1 PUSH2 0x961 JUMPI PUSH0 PUSH0 REVERT JUMPDEST DUP2 PUSH2 0x122A PUSH9 0x5345CDF77EB68F44C SLOAD SWAP1 JUMP JUMPDEST ISZERO PUSH2 0x1233 JUMPI PUSH0 PUSH0 REVERT JUMPDEST PUSH2 0x123D DUP3 DUP3 PUSH2 0x1CD5 JUMP JUMPDEST PUSH1 0x40 MLOAD PUSH4 0x23B872DD PUSH1 0xE0 SHL DUP2 MSTORE PUSH1 0x1 PUSH1 0x1 PUSH1 0xA0 SHL SUB PUSH32 0x0 AND SWAP1 PUSH4 0x23B872DD SWAP1 PUSH2 0x128D SWAP1 CALLER SWAP1 ADDRESS SWAP1 DUP9 SWAP1 PUSH1 0x4 ADD PUSH2 0x2128 JUMP JUMPDEST PUSH1 0x20 PUSH1 0x40 MLOAD DUP1 DUP4 SUB DUP2 PUSH0 DUP8 GAS CALL ISZERO DUP1 ISZERO PUSH2 0x12A9 JUMPI RETURNDATASIZE PUSH0 PUSH0 RETURNDATACOPY RETURNDATASIZE PUSH0 REVERT JUMPDEST POP POP POP POP PUSH1 0x40 MLOAD RETURNDATASIZE PUSH1 0x1F NOT PUSH1 0x1F DUP3 ADD AND DUP3 ADD DUP1 PUSH1 0x40 MSTORE POP DUP2 ADD SWAP1 PUSH2 0x12CD SWAP2 SWAP1 PUSH2 0x2082 JUMP JUMPDEST POP PUSH1 0x40 DUP1 MLOAD DUP5 DUP2 MSTORE PUSH1 0x20 DUP2 ADD DUP4 SWAP1 MSTORE PUSH1 0x1 PUSH1 0x1 PUSH1 0xA0 SHL SUB DUP5 AND SWAP2 CALLER SWAP2 PUSH0 MLOAD PUSH1 0x20 PUSH2 0x226B PUSH0 CODECOPY PUSH0 MLOAD SWAP1 PUSH0 MSTORE SWAP2 ADD PUSH1 0x40 MLOAD DUP1 SWAP2 SUB SWAP1 LOG3 SWAP3 SWAP2 POP POP JUMP JUMPDEST PUSH1 0x60 PUSH32 0x0 PUSH1 0x1 PUSH1 0x1 PUSH1 0xA0 SHL SUB AND PUSH4 0x95D89B41 PUSH1 0x40 MLOAD DUP2 PUSH4 0xFFFFFFFF AND PUSH1 0xE0 SHL DUP2 MSTORE PUSH1 0x4 ADD PUSH0 PUSH1 0x40 MLOAD DUP1 DUP4 SUB DUP2 DUP7 GAS STATICCALL ISZERO DUP1 ISZERO PUSH2 0x1364 JUMPI RETURNDATASIZE PUSH0 PUSH0 RETURNDATACOPY RETURNDATASIZE PUSH0 REVERT JUMPDEST POP POP POP POP PUSH1 0x40 MLOAD RETURNDATASIZE PUSH0 DUP3 RETURNDATACOPY PUSH1 0x1F RETURNDATASIZE SWAP1 DUP2 ADD PUSH1 0x1F NOT AND DUP3 ADD PUSH1 0x40 MSTORE PUSH2 0x138B SWAP2 SWAP1 DUP2 ADD SWAP1 PUSH2 0x2160 JUMP JUMPDEST PUSH1 0x40 MLOAD PUSH1 0x20 ADD PUSH2 0x139B SWAP2 SWAP1 PUSH2 0x2213 JUMP JUMPDEST PUSH1 0x40 MLOAD PUSH1 0x20 DUP2 DUP4 SUB SUB DUP2 MSTORE SWAP1 PUSH1 0x40 MSTORE SWAP1 POP SWAP1 JUMP JUMPDEST PUSH0 PUSH32 0x0 PUSH1 0x1 PUSH1 0x1 PUSH1 0x80 SHL SUB AND PUSH0 SLOAD TIMESTAMP PUSH2 0xFCC SWAP2 SWAP1 PUSH2 0x20CC JUMP JUMPDEST PUSH0 PUSH4 0x87A211A2 PUSH1 0xC MSTORE CALLER PUSH0 MSTORE PUSH1 0x20 PUSH1 0xC KECCAK256 DUP1 SLOAD DUP1 DUP5 GT ISZERO PUSH2 0x140F JUMPI PUSH4 0xF4D678B8 PUSH0 MSTORE PUSH1 0x4 PUSH1 0x1C REVERT JUMPDEST DUP4 DUP2 SUB DUP3 SSTORE POP POP DUP3 PUSH0 MSTORE PUSH1 0x20 PUSH1 0xC KECCAK256 DUP3 DUP2 SLOAD ADD DUP2 SSTORE POP DUP2 PUSH1 0x20 MSTORE PUSH1 0xC MLOAD PUSH1 0x60 SHR CALLER PUSH0 MLOAD PUSH1 0x20 PUSH2 0x224B PUSH0 CODECOPY PUSH0 MLOAD SWAP1 PUSH0 MSTORE PUSH1 0x20 DUP1 LOG3 POP PUSH1 0x1 SWAP3 SWAP2 POP POP JUMP JUMPDEST PUSH0 PUSH2 0xFD6 CALLER PUSH2 0x15EE JUMP JUMPDEST PUSH0 PUSH2 0x145F DUP5 PUSH2 0xD8D JUMP JUMPDEST SWAP1 POP CALLER PUSH1 0x1 PUSH1 0x1 PUSH1 0xA0 SHL SUB DUP4 AND EQ PUSH2 0x147C JUMPI PUSH2 0x147C DUP3 CALLER DUP7 PUSH2 0x1D3E JUMP JUMPDEST PUSH0 PUSH2 0x148E PUSH9 0x5345CDF77EB68F44C SLOAD SWAP1 JUMP JUMPDEST PUSH2 0x1498 DUP7 SELFBALANCE PUSH2 0x2111 JUMP JUMPDEST PUSH2 0x14A2 SWAP2 SWAP1 PUSH2 0x20DF JUMP JUMPDEST SWAP1 POP PUSH2 0x14AE DUP4 DUP7 PUSH2 0x1D7D JUMP JUMPDEST PUSH1 0x40 MLOAD PUSH4 0xA9059CBB PUSH1 0xE0 SHL DUP2 MSTORE PUSH1 0x1 PUSH1 0x1 PUSH1 0xA0 SHL SUB DUP6 DUP2 AND PUSH1 0x4 DUP4 ADD MSTORE PUSH1 0x24 DUP3 ADD DUP5 SWAP1 MSTORE PUSH32 0x0 AND SWAP1 PUSH4 0xA9059CBB SWAP1 PUSH1 0x44 ADD PUSH1 0x20 PUSH1 0x40 MLOAD DUP1 DUP4 SUB DUP2 PUSH0 DUP8 GAS CALL ISZERO DUP1 ISZERO PUSH2 0x151A JUMPI RETURNDATASIZE PUSH0 PUSH0 RETURNDATACOPY RETURNDATASIZE PUSH0 REVERT JUMPDEST POP POP POP POP PUSH1 0x40 MLOAD RETURNDATASIZE PUSH1 0x1F NOT PUSH1 0x1F DUP3 ADD AND DUP3 ADD DUP1 PUSH1 0x40 MSTORE POP DUP2 ADD SWAP1 PUSH2 0x153E SWAP2 SWAP1 PUSH2 0x2082 JUMP JUMPDEST POP PUSH0 DUP5 PUSH1 0x1 PUSH1 0x1 PUSH1 0xA0 SHL SUB AND DUP3 PUSH1 0x40 MLOAD PUSH0 PUSH1 0x40 MLOAD DUP1 DUP4 SUB DUP2 DUP6 DUP8 GAS CALL SWAP3 POP POP POP RETURNDATASIZE DUP1 PUSH0 DUP2 EQ PUSH2 0x1588 JUMPI PUSH1 0x40 MLOAD SWAP2 POP PUSH1 0x1F NOT PUSH1 0x3F RETURNDATASIZE ADD AND DUP3 ADD PUSH1 0x40 MSTORE RETURNDATASIZE DUP3 MSTORE RETURNDATASIZE PUSH0 PUSH1 0x20 DUP5 ADD RETURNDATACOPY PUSH2 0x158D JUMP JUMPDEST PUSH1 0x60 SWAP2 POP JUMPDEST POP POP SWAP1 POP DUP1 PUSH2 0x159A JUMPI PUSH0 PUSH0 REVERT JUMPDEST PUSH1 0x40 DUP1 MLOAD DUP5 DUP2 MSTORE PUSH1 0x20 DUP2 ADD DUP9 SWAP1 MSTORE PUSH1 0x1 PUSH1 0x1 PUSH1 0xA0 SHL SUB DUP1 DUP8 AND SWAP3 SWAP1 DUP9 AND SWAP2 CALLER SWAP2 PUSH32 0xFBDE797D201C681B91056529119E0B02407C7BB96A4A2C75C01FC9667232C8DB SWAP2 ADD PUSH1 0x40 MLOAD DUP1 SWAP2 SUB SWAP1 LOG4 POP POP SWAP4 SWAP3 POP POP POP JUMP JUMPDEST PUSH0 PUSH2 0x15F8 CALLVALUE PUSH2 0x1A2F JUMP JUMPDEST SWAP1 POP PUSH2 0x162D PUSH1 0x1 PUSH1 0x1 PUSH1 0x80 SHL SUB PUSH32 0x0 AND DUP3 PUSH2 0x20DF JUMP JUMPDEST PUSH1 0x1 PUSH0 DUP3 DUP3 SLOAD PUSH2 0x163D SWAP2 SWAP1 PUSH2 0x20FE JUMP JUMPDEST SWAP1 SWAP2 SSTORE POP POP PUSH1 0x40 MLOAD PUSH4 0xA9059CBB PUSH1 0xE0 SHL DUP2 MSTORE PUSH1 0x1 PUSH1 0x1 PUSH1 0xA0 SHL SUB DUP4 DUP2 AND PUSH1 0x4 DUP4 ADD MSTORE PUSH1 0x24 DUP3 ADD DUP4 SWAP1 MSTORE PUSH32 0x0 AND SWAP1 PUSH4 0xA9059CBB SWAP1 PUSH1 0x44 ADD PUSH1 0x20 PUSH1 0x40 MLOAD DUP1 DUP4 SUB DUP2 PUSH0 DUP8 GAS CALL ISZERO DUP1 ISZERO PUSH2 0x16AE JUMPI RETURNDATASIZE PUSH0 PUSH0 RETURNDATACOPY RETURNDATASIZE PUSH0 REVERT JUMPDEST POP POP POP POP PUSH1 0x40 MLOAD RETURNDATASIZE PUSH1 0x1F NOT PUSH1 0x1F DUP3 ADD AND DUP3 ADD DUP1 PUSH1 0x40 MSTORE POP DUP2 ADD SWAP1 PUSH2 0x16D2 SWAP2 SWAP1 PUSH2 0x2082 JUMP JUMPDEST POP SWAP2 SWAP1 POP JUMP JUMPDEST CALLVALUE PUSH2 0x16EA PUSH9 0x5345CDF77EB68F44C SLOAD SWAP1 JUMP JUMPDEST ISZERO PUSH2 0x16F3 JUMPI PUSH0 PUSH0 REVERT JUMPDEST PUSH2 0x16FD DUP3 DUP3 PUSH2 0x1CD5 JUMP JUMPDEST PUSH1 0x40 DUP1 MLOAD PUSH0 DUP2 MSTORE PUSH1 0x20 DUP2 ADD DUP4 SWAP1 MSTORE PUSH1 0x1 PUSH1 0x1 PUSH1 0xA0 SHL SUB DUP5 AND SWAP2 CALLER SWAP2 PUSH0 MLOAD PUSH1 0x20 PUSH2 0x226B PUSH0 CODECOPY PUSH0 MLOAD SWAP1 PUSH0 MSTORE SWAP2 ADD PUSH1 0x40 MLOAD DUP1 SWAP2 SUB SWAP1 LOG3 SWAP2 SWAP1 POP JUMP JUMPDEST PUSH1 0x40 MLOAD PUSH4 0x70A08231 PUSH1 0xE0 SHL DUP2 MSTORE ADDRESS PUSH1 0x4 DUP3 ADD MSTORE PUSH0 SWAP1 PUSH32 0x0 PUSH1 0x1 PUSH1 0x1 PUSH1 0xA0 SHL SUB AND SWAP1 PUSH4 0x70A08231 SWAP1 PUSH1 0x24 ADD PUSH1 0x20 PUSH1 0x40 MLOAD DUP1 DUP4 SUB DUP2 DUP7 GAS STATICCALL ISZERO DUP1 ISZERO PUSH2 0x1799 JUMPI RETURNDATASIZE PUSH0 PUSH0 RETURNDATACOPY RETURNDATASIZE PUSH0 REVERT JUMPDEST POP POP POP POP PUSH1 0x40 MLOAD RETURNDATASIZE PUSH1 0x1F NOT PUSH1 0x1F DUP3 ADD AND DUP3 ADD DUP1 PUSH1 0x40 MSTORE POP DUP2 ADD SWAP1 PUSH2 0x17BD SWAP2 SWAP1 PUSH2 0x20A1 JUMP JUMPDEST DUP3 PUSH2 0xA3C PUSH9 0x5345CDF77EB68F44C SLOAD SWAP1 JUMP JUMPDEST PUSH0 PUSH2 0x17D8 PUSH2 0x96B JUMP JUMPDEST DUP1 MLOAD SWAP1 PUSH1 0x20 ADD KECCAK256 SWAP1 POP PUSH32 0xC89EFDAA54C0F20C7ADF612882DF0950F5A951637E0307CDCB4C672F298B8BC6 TIMESTAMP DUP7 LT ISZERO PUSH2 0x1817 JUMPI PUSH4 0x1A15A3CC PUSH0 MSTORE PUSH1 0x4 PUSH1 0x1C REVERT JUMPDEST PUSH1 0x40 MLOAD DUP10 PUSH1 0x60 SHL PUSH1 0x60 SHR SWAP10 POP DUP9 PUSH1 0x60 SHL PUSH1 0x60 SHR SWAP9 POP PUSH6 0x383775081901 PUSH1 0xE MSTORE DUP10 PUSH0 MSTORE PUSH1 0x20 PUSH1 0xC KECCAK256 DUP1 SLOAD PUSH32 0x8B73C3C69BB8FE3D512ECC4CF759CC79239F7B179B0FFACAA9A75D522B39400F DUP4 MSTORE DUP5 PUSH1 0x20 DUP5 ADD MSTORE DUP4 PUSH1 0x40 DUP5 ADD MSTORE CHAINID PUSH1 0x60 DUP5 ADD MSTORE ADDRESS PUSH1 0x80 DUP5 ADD MSTORE PUSH1 0xA0 DUP4 KECCAK256 PUSH1 0x2E MSTORE PUSH32 0x6E71EDAE12B1B97F4D1F60370FEF10105FA2FAAE0126114A169C64845D6126C9 DUP4 MSTORE DUP12 PUSH1 0x20 DUP5 ADD MSTORE DUP11 PUSH1 0x40 DUP5 ADD MSTORE DUP10 PUSH1 0x60 DUP5 ADD MSTORE DUP1 PUSH1 0x80 DUP5 ADD MSTORE DUP9 PUSH1 0xA0 DUP5 ADD MSTORE PUSH1 0xC0 DUP4 KECCAK256 PUSH1 0x4E MSTORE PUSH1 0x42 PUSH1 0x2C KECCAK256 PUSH0 MSTORE DUP8 PUSH1 0xFF AND PUSH1 0x20 MSTORE DUP7 PUSH1 0x40 MSTORE DUP6 PUSH1 0x60 MSTORE PUSH1 0x20 DUP1 PUSH1 0x80 PUSH0 PUSH1 0x1 GAS STATICCALL DUP13 RETURNDATASIZE MLOAD EQ PUSH2 0x18FF JUMPI PUSH4 0xDDAFBAEF PUSH0 MSTORE PUSH1 0x4 PUSH1 0x1C REVERT JUMPDEST ADD SWAP1 SSTORE PUSH4 0x3FAF4F9 PUSH1 0xA5 SHL DUP10 OR PUSH1 0x40 MSTORE PUSH1 0x34 PUSH1 0x2C KECCAK256 DUP9 SWAP1 SSTORE DUP9 DUP11 PUSH32 0x8C5BE1E5EBEC7D5BD14F71427D1E84F3DD0314C0F7B2291E5B200AC8C7C3B925 PUSH1 0x20 PUSH1 0x60 DUP6 ADD LOG3 PUSH1 0x40 MSTORE POP POP PUSH0 PUSH1 0x60 MSTORE POP POP POP POP POP POP POP JUMP JUMPDEST PUSH0 PUSH1 0x1 PUSH1 0x1 PUSH1 0xA0 SHL SUB PUSH32 0x0 AND PUSH4 0xD505ACCF CALLER ADDRESS DUP8 DUP7 CALLDATALOAD PUSH2 0x1998 PUSH1 0x40 DUP10 ADD PUSH1 0x20 DUP11 ADD PUSH2 0x2231 JUMP JUMPDEST PUSH1 0x40 DUP1 MLOAD PUSH1 0x1 PUSH1 0x1 PUSH1 0xE0 SHL SUB NOT PUSH1 0xE0 DUP10 SWAP1 SHL AND DUP2 MSTORE PUSH1 0x1 PUSH1 0x1 PUSH1 0xA0 SHL SUB SWAP7 DUP8 AND PUSH1 0x4 DUP3 ADD MSTORE SWAP6 SWAP1 SWAP5 AND PUSH1 0x24 DUP7 ADD MSTORE PUSH1 0x44 DUP6 ADD SWAP3 SWAP1 SWAP3 MSTORE PUSH1 0x64 DUP5 ADD MSTORE PUSH1 0xFF AND PUSH1 0x84 DUP4 ADD MSTORE DUP6 ADD CALLDATALOAD PUSH1 0xA4 DUP3 ADD MSTORE PUSH1 0x60 DUP6 ADD CALLDATALOAD PUSH1 0xC4 DUP3 ADD MSTORE PUSH1 0xE4 ADD PUSH0 PUSH1 0x40 MLOAD DUP1 DUP4 SUB DUP2 PUSH0 DUP8 DUP1 EXTCODESIZE ISZERO DUP1 ISZERO PUSH2 0x1A07 JUMPI PUSH0 PUSH0 REVERT JUMPDEST POP GAS CALL ISZERO DUP1 ISZERO PUSH2 0x1A19 JUMPI RETURNDATASIZE PUSH0 PUSH0 RETURNDATACOPY RETURNDATASIZE PUSH0 REVERT JUMPDEST POP POP POP POP PUSH2 0x1A27 DUP5 DUP5 PUSH2 0xA56 JUMP JUMPDEST SWAP5 SWAP4 POP POP POP POP JUMP JUMPDEST PUSH0 PUSH2 0x1A63 DUP3 PUSH1 0x1 PUSH1 0x1 PUSH1 0x80 SHL SUB PUSH32 0x0 AND PUSH2 0x20FE JUMP JUMPDEST DUP3 PUSH2 0x1A6C PUSH2 0xF93 JUMP JUMPDEST PUSH2 0x1A76 SWAP2 SWAP1 PUSH2 0x2111 JUMP JUMPDEST PUSH2 0x1A80 SWAP2 SWAP1 PUSH2 0x20DF JUMP JUMPDEST PUSH1 0x40 MLOAD PUSH4 0x70A08231 PUSH1 0xE0 SHL DUP2 MSTORE ADDRESS PUSH1 0x4 DUP3 ADD MSTORE SWAP1 SWAP2 POP PUSH0 SWAP1 PUSH1 0x1 PUSH1 0x1 PUSH1 0xA0 SHL SUB PUSH32 0x0 AND SWAP1 PUSH4 0x70A08231 SWAP1 PUSH1 0x24 ADD PUSH1 0x20 PUSH1 0x40 MLOAD DUP1 DUP4 SUB DUP2 DUP7 GAS STATICCALL ISZERO DUP1 ISZERO PUSH2 0x1AE7 JUMPI RETURNDATASIZE PUSH0 PUSH0 RETURNDATACOPY RETURNDATASIZE PUSH0 REVERT JUMPDEST POP POP POP POP PUSH1 0x40 MLOAD RETURNDATASIZE PUSH1 0x1F NOT PUSH1 0x1F DUP3 ADD AND DUP3 ADD DUP1 PUSH1 0x40 MSTORE POP DUP2 ADD SWAP1 PUSH2 0x1B0B SWAP2 SWAP1 PUSH2 0x20A1 JUMP JUMPDEST SWAP1 POP DUP2 DUP2 LT ISZERO PUSH2 0x16D2 JUMPI SWAP3 SWAP2 POP POP JUMP JUMPDEST PUSH0 PUSH2 0xA50 DUP3 PUSH2 0x1735 JUMP JUMPDEST PUSH0 PUSH2 0x1B30 CALLVALUE SELFBALANCE PUSH2 0x20CC JUMP JUMPDEST CALLVALUE PUSH2 0x1B42 PUSH9 0x5345CDF77EB68F44C SLOAD SWAP1 JUMP JUMPDEST PUSH2 0x1B4C SWAP2 SWAP1 PUSH2 0x2111 JUMP JUMPDEST PUSH2 0x1B56 SWAP2 SWAP1 PUSH2 0x20DF JUMP JUMPDEST SWAP1 POP PUSH0 PUSH2 0x1B63 CALLVALUE SELFBALANCE PUSH2 0x20CC JUMP JUMPDEST PUSH1 0x40 MLOAD PUSH4 0x70A08231 PUSH1 0xE0 SHL DUP2 MSTORE ADDRESS PUSH1 0x4 DUP3 ADD MSTORE CALLVALUE SWAP1 PUSH32 0x0 PUSH1 0x1 PUSH1 0x1 PUSH1 0xA0 SHL SUB AND SWAP1 PUSH4 0x70A08231 SWAP1 PUSH1 0x24 ADD PUSH1 0x20 PUSH1 0x40 MLOAD DUP1 DUP4 SUB DUP2 DUP7 GAS STATICCALL ISZERO DUP1 ISZERO PUSH2 0x1BC7 JUMPI RETURNDATASIZE PUSH0 PUSH0 RETURNDATACOPY RETURNDATASIZE PUSH0 REVERT JUMPDEST POP POP POP POP PUSH1 0x40 MLOAD RETURNDATASIZE PUSH1 0x1F NOT PUSH1 0x1F DUP3 ADD AND DUP3 ADD DUP1 PUSH1 0x40 MSTORE POP DUP2 ADD SWAP1 PUSH2 0x1BEB SWAP2 SWAP1 PUSH2 0x20A1 JUMP JUMPDEST PUSH2 0x1BF5 SWAP2 SWAP1 PUSH2 0x2111 JUMP JUMPDEST PUSH2 0x1BFF SWAP2 SWAP1 PUSH2 0x20DF JUMP JUMPDEST SWAP1 POP PUSH2 0x1C0B DUP4 DUP4 PUSH2 0x1CD5 JUMP JUMPDEST PUSH1 0x40 MLOAD PUSH4 0x23B872DD PUSH1 0xE0 SHL DUP2 MSTORE PUSH1 0x1 PUSH1 0x1 PUSH1 0xA0 SHL SUB PUSH32 0x0 AND SWAP1 PUSH4 0x23B872DD SWAP1 PUSH2 0x1C5B SWAP1 CALLER SWAP1 ADDRESS SWAP1 DUP7 SWAP1 PUSH1 0x4 ADD PUSH2 0x2128 JUMP JUMPDEST PUSH1 0x20 PUSH1 0x40 MLOAD DUP1 DUP4 SUB DUP2 PUSH0 DUP8 GAS CALL ISZERO DUP1 ISZERO PUSH2 0x1C77 JUMPI RETURNDATASIZE PUSH0 PUSH0 RETURNDATACOPY RETURNDATASIZE PUSH0 REVERT JUMPDEST POP POP POP POP PUSH1 0x40 MLOAD RETURNDATASIZE PUSH1 0x1F NOT PUSH1 0x1F DUP3 ADD AND DUP3 ADD DUP1 PUSH1 0x40 MSTORE POP DUP2 ADD SWAP1 PUSH2 0x1C9B SWAP2 SWAP1 PUSH2 0x2082 JUMP JUMPDEST POP PUSH1 0x40 DUP1 MLOAD DUP3 DUP2 MSTORE PUSH1 0x20 DUP2 ADD DUP5 SWAP1 MSTORE PUSH1 0x1 PUSH1 0x1 PUSH1 0xA0 SHL SUB DUP6 AND SWAP2 CALLER SWAP2 PUSH0 MLOAD PUSH1 0x20 PUSH2 0x226B PUSH0 CODECOPY PUSH0 MLOAD SWAP1 PUSH0 MSTORE SWAP2 ADD PUSH1 0x40 MLOAD DUP1 SWAP2 SUB SWAP1 LOG3 POP SWAP2 SWAP1 POP JUMP JUMPDEST PUSH9 0x5345CDF77EB68F44C SLOAD DUP2 DUP2 ADD DUP2 DUP2 LT ISZERO PUSH2 0x1CF8 JUMPI PUSH4 0xE5CFE957 PUSH0 MSTORE PUSH1 0x4 PUSH1 0x1C REVERT JUMPDEST DUP1 PUSH9 0x5345CDF77EB68F44C SSTORE POP POP PUSH4 0x87A211A2 PUSH1 0xC MSTORE DUP2 PUSH0 MSTORE PUSH1 0x20 PUSH1 0xC KECCAK256 DUP2 DUP2 SLOAD ADD DUP2 SSTORE POP DUP1 PUSH1 0x20 MSTORE PUSH1 0xC MLOAD PUSH1 0x60 SHR PUSH0 PUSH0 MLOAD PUSH1 0x20 PUSH2 0x224B PUSH0 CODECOPY PUSH0 MLOAD SWAP1 PUSH0 MSTORE PUSH1 0x20 DUP1 LOG3 POP POP JUMP JUMPDEST DUP2 PUSH1 0x20 MSTORE PUSH4 0x7F5E9F20 PUSH1 0xC MSTORE DUP3 PUSH0 MSTORE PUSH1 0x34 PUSH1 0xC KECCAK256 DUP1 SLOAD DUP1 NOT ISZERO PUSH2 0x1D76 JUMPI DUP1 DUP4 GT ISZERO PUSH2 0x1D70 JUMPI PUSH4 0x13BE252B PUSH0 MSTORE PUSH1 0x4 PUSH1 0x1C REVERT JUMPDEST DUP3 DUP2 SUB DUP3 SSTORE JUMPDEST POP POP POP POP POP JUMP JUMPDEST PUSH4 0x87A211A2 PUSH1 0xC MSTORE DUP2 PUSH0 MSTORE PUSH1 0x20 PUSH1 0xC KECCAK256 DUP1 SLOAD DUP1 DUP4 GT ISZERO PUSH2 0x1DA4 JUMPI PUSH4 0xF4D678B8 PUSH0 MSTORE PUSH1 0x4 PUSH1 0x1C REVERT JUMPDEST DUP3 SWAP1 SUB SWAP1 SSTORE PUSH9 0x5345CDF77EB68F44C DUP1 SLOAD DUP3 SWAP1 SUB SWAP1 SSTORE PUSH0 DUP2 DUP2 MSTORE PUSH1 0x1 PUSH1 0x1 PUSH1 0xA0 SHL SUB DUP4 AND PUSH0 MLOAD PUSH1 0x20 PUSH2 0x224B PUSH0 CODECOPY PUSH0 MLOAD SWAP1 PUSH0 MSTORE PUSH1 0x20 DUP4 LOG3 POP POP JUMP JUMPDEST PUSH1 0x1 PUSH1 0x1 PUSH1 0xA0 SHL SUB DUP2 AND DUP2 EQ PUSH2 0x1DF2 JUMPI PUSH0 PUSH0 REVERT JUMPDEST POP JUMP JUMPDEST PUSH0 PUSH0 PUSH0 PUSH1 0x60 DUP5 DUP7 SUB SLT ISZERO PUSH2 0x1E07 JUMPI PUSH0 PUSH0 REVERT JUMPDEST DUP4 CALLDATALOAD PUSH2 0x1E12 DUP2 PUSH2 0x1DDE JUMP JUMPDEST SWAP3 POP PUSH1 0x20 DUP5 ADD CALLDATALOAD SWAP2 POP PUSH1 0x40 DUP5 ADD CALLDATALOAD PUSH2 0x1E29 DUP2 PUSH2 0x1DDE JUMP JUMPDEST DUP1 SWAP2 POP POP SWAP3 POP SWAP3 POP SWAP3 JUMP JUMPDEST PUSH1 0x20 DUP2 MSTORE PUSH0 DUP3 MLOAD DUP1 PUSH1 0x20 DUP5 ADD MSTORE DUP1 PUSH1 0x20 DUP6 ADD PUSH1 0x40 DUP6 ADD MCOPY PUSH0 PUSH1 0x40 DUP3 DUP6 ADD ADD MSTORE PUSH1 0x40 PUSH1 0x1F NOT PUSH1 0x1F DUP4 ADD AND DUP5 ADD ADD SWAP2 POP POP SWAP3 SWAP2 POP POP JUMP JUMPDEST PUSH0 PUSH1 0x20 DUP3 DUP5 SUB SLT ISZERO PUSH2 0x1E79 JUMPI PUSH0 PUSH0 REVERT JUMPDEST POP CALLDATALOAD SWAP2 SWAP1 POP JUMP JUMPDEST PUSH0 PUSH0 PUSH1 0x40 DUP4 DUP6 SUB SLT ISZERO PUSH2 0x1E91 JUMPI PUSH0 PUSH0 REVERT JUMPDEST DUP3 CALLDATALOAD SWAP2 POP PUSH1 0x20 DUP4 ADD CALLDATALOAD PUSH2 0x1EA3 DUP2 PUSH2 0x1DDE JUMP JUMPDEST DUP1 SWAP2 POP POP SWAP3 POP SWAP3 SWAP1 POP JUMP JUMPDEST PUSH0 PUSH0 PUSH1 0x40 DUP4 DUP6 SUB SLT ISZERO PUSH2 0x1EBF JUMPI PUSH0 PUSH0 REVERT JUMPDEST DUP3 CALLDATALOAD PUSH2 0x1ECA DUP2 PUSH2 0x1DDE JUMP JUMPDEST SWAP5 PUSH1 0x20 SWAP4 SWAP1 SWAP4 ADD CALLDATALOAD SWAP4 POP POP POP JUMP JUMPDEST PUSH0 PUSH1 0x80 DUP3 DUP5 SUB SLT ISZERO PUSH2 0x16D2 JUMPI PUSH0 PUSH0 REVERT JUMPDEST PUSH0 PUSH0 PUSH1 0xA0 DUP4 DUP6 SUB SLT ISZERO PUSH2 0x1EF9 JUMPI PUSH0 PUSH0 REVERT JUMPDEST DUP3 CALLDATALOAD SWAP2 POP PUSH2 0x1F0A DUP5 PUSH1 0x20 DUP6 ADD PUSH2 0x1ED8 JUMP JUMPDEST SWAP1 POP SWAP3 POP SWAP3 SWAP1 POP JUMP JUMPDEST PUSH0 PUSH0 PUSH0 PUSH1 0x60 DUP5 DUP7 SUB SLT ISZERO PUSH2 0x1F25 JUMPI PUSH0 PUSH0 REVERT JUMPDEST DUP4 CALLDATALOAD PUSH2 0x1F30 DUP2 PUSH2 0x1DDE JUMP JUMPDEST SWAP3 POP PUSH1 0x20 DUP5 ADD CALLDATALOAD PUSH2 0x1F40 DUP2 PUSH2 0x1DDE JUMP JUMPDEST SWAP3 SWAP6 SWAP3 SWAP5 POP POP POP PUSH1 0x40 SWAP2 SWAP1 SWAP2 ADD CALLDATALOAD SWAP1 JUMP JUMPDEST PUSH0 PUSH1 0x20 DUP3 DUP5 SUB SLT ISZERO PUSH2 0x1F61 JUMPI PUSH0 PUSH0 REVERT JUMPDEST DUP2 CALLDATALOAD PUSH2 0xC02 DUP2 PUSH2 0x1DDE JUMP JUMPDEST PUSH0 PUSH0 PUSH0 PUSH1 0x60 DUP5 DUP7 SUB SLT ISZERO PUSH2 0x1F7E JUMPI PUSH0 PUSH0 REVERT JUMPDEST DUP4 CALLDATALOAD SWAP3 POP PUSH1 0x20 DUP5 ADD CALLDATALOAD PUSH2 0x1F90 DUP2 PUSH2 0x1DDE JUMP JUMPDEST SWAP2 POP PUSH1 0x40 DUP5 ADD CALLDATALOAD PUSH2 0x1E29 DUP2 PUSH2 0x1DDE JUMP JUMPDEST DUP1 CALLDATALOAD PUSH1 0xFF DUP2 AND DUP2 EQ PUSH2 0xD0C JUMPI PUSH0 PUSH0 REVERT JUMPDEST PUSH0 PUSH0 PUSH0 PUSH0 PUSH0 PUSH0 PUSH0 PUSH1 0xE0 DUP9 DUP11 SUB SLT ISZERO PUSH2 0x1FC6 JUMPI PUSH0 PUSH0 REVERT JUMPDEST DUP8 CALLDATALOAD PUSH2 0x1FD1 DUP2 PUSH2 0x1DDE JUMP JUMPDEST SWAP7 POP PUSH1 0x20 DUP9 ADD CALLDATALOAD PUSH2 0x1FE1 DUP2 PUSH2 0x1DDE JUMP JUMPDEST SWAP6 POP PUSH1 0x40 DUP9 ADD CALLDATALOAD SWAP5 POP PUSH1 0x60 DUP9 ADD CALLDATALOAD SWAP4 POP PUSH2 0x1FFD PUSH1 0x80 DUP10 ADD PUSH2 0x1FA0 JUMP JUMPDEST SWAP7 SWAP10 SWAP6 SWAP9 POP SWAP4 SWAP7 SWAP3 SWAP6 SWAP5 PUSH1 0xA0 DUP5 ADD CALLDATALOAD SWAP5 POP PUSH1 0xC0 SWAP1 SWAP4 ADD CALLDATALOAD SWAP3 SWAP2 POP POP JUMP JUMPDEST PUSH0 PUSH0 PUSH1 0x40 DUP4 DUP6 SUB SLT ISZERO PUSH2 0x202B JUMPI PUSH0 PUSH0 REVERT JUMPDEST DUP3 CALLDATALOAD PUSH2 0x2036 DUP2 PUSH2 0x1DDE JUMP JUMPDEST SWAP2 POP PUSH1 0x20 DUP4 ADD CALLDATALOAD PUSH2 0x1EA3 DUP2 PUSH2 0x1DDE JUMP JUMPDEST PUSH0 PUSH0 PUSH0 PUSH1 0xC0 DUP5 DUP7 SUB SLT ISZERO PUSH2 0x2058 JUMPI PUSH0 PUSH0 REVERT JUMPDEST DUP4 CALLDATALOAD SWAP3 POP PUSH1 0x20 DUP5 ADD CALLDATALOAD PUSH2 0x206A DUP2 PUSH2 0x1DDE JUMP JUMPDEST SWAP2 POP PUSH2 0x2079 DUP6 PUSH1 0x40 DUP7 ADD PUSH2 0x1ED8 JUMP JUMPDEST SWAP1 POP SWAP3 POP SWAP3 POP SWAP3 JUMP JUMPDEST PUSH0 PUSH1 0x20 DUP3 DUP5 SUB SLT ISZERO PUSH2 0x2092 JUMPI PUSH0 PUSH0 REVERT JUMPDEST DUP2 MLOAD DUP1 ISZERO ISZERO DUP2 EQ PUSH2 0xC02 JUMPI PUSH0 PUSH0 REVERT JUMPDEST PUSH0 PUSH1 0x20 DUP3 DUP5 SUB SLT ISZERO PUSH2 0x20B1 JUMPI PUSH0 PUSH0 REVERT JUMPDEST POP MLOAD SWAP2 SWAP1 POP JUMP JUMPDEST PUSH4 0x4E487B71 PUSH1 0xE0 SHL PUSH0 MSTORE PUSH1 0x11 PUSH1 0x4 MSTORE PUSH1 0x24 PUSH0 REVERT JUMPDEST DUP2 DUP2 SUB DUP2 DUP2 GT ISZERO PUSH2 0xA50 JUMPI PUSH2 0xA50 PUSH2 0x20B8 JUMP JUMPDEST PUSH0 DUP3 PUSH2 0x20F9 JUMPI PUSH4 0x4E487B71 PUSH1 0xE0 SHL PUSH0 MSTORE PUSH1 0x12 PUSH1 0x4 MSTORE PUSH1 0x24 PUSH0 REVERT JUMPDEST POP DIV SWAP1 JUMP JUMPDEST DUP1 DUP3 ADD DUP1 DUP3 GT ISZERO PUSH2 0xA50 JUMPI PUSH2 0xA50 PUSH2 0x20B8 JUMP JUMPDEST DUP1 DUP3 MUL DUP2 ISZERO DUP3 DUP3 DIV DUP5 EQ OR PUSH2 0xA50 JUMPI PUSH2 0xA50 PUSH2 0x20B8 JUMP JUMPDEST PUSH1 0x1 PUSH1 0x1 PUSH1 0xA0 SHL SUB SWAP4 DUP5 AND DUP2 MSTORE SWAP2 SWAP1 SWAP3 AND PUSH1 0x20 DUP3 ADD MSTORE PUSH1 0x40 DUP2 ADD SWAP2 SWAP1 SWAP2 MSTORE PUSH1 0x60 ADD SWAP1 JUMP JUMPDEST PUSH4 0x4E487B71 PUSH1 0xE0 SHL PUSH0 MSTORE PUSH1 0x41 PUSH1 0x4 MSTORE PUSH1 0x24 PUSH0 REVERT JUMPDEST PUSH0 PUSH1 0x20 DUP3 DUP5 SUB SLT ISZERO PUSH2 0x2170 JUMPI PUSH0 PUSH0 REVERT JUMPDEST DUP2 MLOAD PUSH8 0xFFFFFFFFFFFFFFFF DUP2 GT ISZERO PUSH2 0x2186 JUMPI PUSH0 PUSH0 REVERT JUMPDEST DUP3 ADD PUSH1 0x1F DUP2 ADD DUP5 SGT PUSH2 0x2196 JUMPI PUSH0 PUSH0 REVERT JUMPDEST DUP1 MLOAD PUSH8 0xFFFFFFFFFFFFFFFF DUP2 GT ISZERO PUSH2 0x21B0 JUMPI PUSH2 0x21B0 PUSH2 0x214C JUMP JUMPDEST PUSH1 0x40 MLOAD PUSH1 0x1F DUP3 ADD PUSH1 0x1F NOT SWAP1 DUP2 AND PUSH1 0x3F ADD AND DUP2 ADD PUSH8 0xFFFFFFFFFFFFFFFF DUP2 GT DUP3 DUP3 LT OR ISZERO PUSH2 0x21DF JUMPI PUSH2 0x21DF PUSH2 0x214C JUMP JUMPDEST PUSH1 0x40 MSTORE DUP2 DUP2 MSTORE DUP3 DUP3 ADD PUSH1 0x20 ADD DUP7 LT ISZERO PUSH2 0x21F6 JUMPI PUSH0 PUSH0 REVERT JUMPDEST DUP2 PUSH1 0x20 DUP5 ADD PUSH1 0x20 DUP4 ADD MCOPY PUSH0 SWAP2 DUP2 ADD PUSH1 0x20 ADD SWAP2 SWAP1 SWAP2 MSTORE SWAP5 SWAP4 POP POP POP POP JUMP JUMPDEST PUSH0 DUP3 MLOAD DUP1 PUSH1 0x20 DUP6 ADD DUP5 MCOPY PUSH2 0x4C5 PUSH1 0xF4 SHL SWAP3 ADD SWAP2 DUP3 MSTORE POP PUSH1 0x2 ADD SWAP2 SWAP1 POP JUMP JUMPDEST PUSH0 PUSH1 0x20 DUP3 DUP5 SUB SLT ISZERO PUSH2 0x2241 JUMPI PUSH0 PUSH0 REVERT JUMPDEST PUSH2 0xC02 DUP3 PUSH2 0x1FA0 JUMP INVALID 0xDD CALLCODE MSTORE 0xAD SHL 0xE2 0xC8 SWAP12 PUSH10 0xC2B068FC378DAA952BA7 CALL PUSH4 0xC4A11628 CREATE2 GAS 0x4D CREATE2 0x23 0xB3 0xEF 0xDC 0xBC SHR SDIV 0x24 0xF BALANCE SELFDESTRUCT GASPRICE 0xD0 PUSH8 0xEF1EE35CE4997762 PUSH22 0x2E3A095284754544F4C709D7A2646970667358221220 PUSH24 0x96AFEAC98B710CD39AD473B470D11F505871AE43FF985B72 AND 0xEC AND 0xBB DUP4 0xFC SHL PUSH5 0x736F6C6343 STOP ADDMOD SHR STOP CALLER "
				},
				"gasEstimates": {
					"creation": {
						"codeDepositCost": "1779200",
						"executionCost": "infinite",
						"totalCost": "infinite"
					},
					"external": {
						"DOMAIN_SEPARATOR()": "592",
						"allowance(address,address)": "infinite",
						"approve(address,uint256)": "24491",
						"asset()": "infinite",
						"balanceOf(address)": "2548",
						"convertToAssets(uint256)": "infinite",
						"convertToShares(uint256)": "infinite",
						"decimals()": "244",
						"deposit(address)": "infinite",
						"deposit(uint256,address)": "infinite",
						"erc20Inhibitor()": "infinite",
						"erc20PurchasableRate()": "infinite",
						"erc20PurchasableTime()": "2329",
						"erc20ToNativeSwap(address,uint256,address)": "infinite",
						"erc20ToNativeSwap(uint256)": "infinite",
						"erc20ToNativeSwap(uint256,(uint256,uint8,bytes32,bytes32))": "infinite",
						"erc20ToNativeSwap(uint256,address)": "infinite",
						"erc20ToNativeSwap(uint256,address,(uint256,uint8,bytes32,bytes32))": "infinite",
						"getERC20ToNativePrice(uint256)": "infinite",
						"getNativeToERC20Price(uint256)": "infinite",
						"name()": "infinite",
						"nativeInhibitor()": "infinite",
						"nativePurchasableRate()": "infinite",
						"nativePurchasableTime()": "2349",
						"nativeToERC20Swap()": "infinite",
						"nativeToERC20Swap(address)": "infinite",
						"nativeToERC20Swap(address,uint256,address)": "infinite",
						"noSupplyDeposit(address)": "infinite",
						"noSupplyDeposit(uint256,address)": "infinite",
						"nonces(address)": "2570",
						"permit(address,address,uint256,uint256,uint8,bytes32,bytes32)": "infinite",
						"previewDeposit(uint256)": "infinite",
						"previewRedeem(uint256)": "infinite",
						"purchasableERC20s()": "infinite",
						"purchasableNatives()": "infinite",
						"redeem(uint256,address,address)": "infinite",
						"symbol()": "infinite",
						"totalSupply()": "2370",
						"transfer(address,uint256)": "infinite",
						"transferFrom(address,address,uint256)": "infinite"
					}
				},
				"methodIdentifiers": {
					"DOMAIN_SEPARATOR()": "3644e515",
					"allowance(address,address)": "dd62ed3e",
					"approve(address,uint256)": "095ea7b3",
					"asset()": "38d52e0f",
					"balanceOf(address)": "70a08231",
					"convertToAssets(uint256)": "07a2d13a",
					"convertToShares(uint256)": "c6e6f592",
					"decimals()": "313ce567",
					"deposit(address)": "f340fa01",
					"deposit(uint256,address)": "6e553f65",
					"erc20Inhibitor()": "367ada10",
					"erc20PurchasableRate()": "3aeeade8",
					"erc20PurchasableTime()": "0f2a403f",
					"erc20ToNativeSwap(address,uint256,address)": "04c764e1",
					"erc20ToNativeSwap(uint256)": "127d0409",
					"erc20ToNativeSwap(uint256,(uint256,uint8,bytes32,bytes32))": "19cdf284",
					"erc20ToNativeSwap(uint256,address)": "08e30698",
					"erc20ToNativeSwap(uint256,address,(uint256,uint8,bytes32,bytes32))": "de899d1f",
					"getERC20ToNativePrice(uint256)": "25d1782d",
					"getNativeToERC20Price(uint256)": "ea6b80b7",
					"name()": "06fdde03",
					"nativeInhibitor()": "ad330967",
					"nativePurchasableRate()": "4d016295",
					"nativePurchasableTime()": "421c6a8a",
					"nativeToERC20Swap()": "aea1e3d1",
					"nativeToERC20Swap(address)": "bc710575",
					"nativeToERC20Swap(address,uint256,address)": "8a2c9cef",
					"noSupplyDeposit(address)": "c1a4845f",
					"noSupplyDeposit(uint256,address)": "8a48b2a5",
					"nonces(address)": "7ecebe00",
					"permit(address,address,uint256,uint256,uint8,bytes32,bytes32)": "d505accf",
					"previewDeposit(uint256)": "ef8b30f7",
					"previewRedeem(uint256)": "4cdad506",
					"purchasableERC20s()": "81f2d34e",
					"purchasableNatives()": "96a3958d",
					"redeem(uint256,address,address)": "ba087652",
					"symbol()": "95d89b41",
					"totalSupply()": "18160ddd",
					"transfer(address,uint256)": "a9059cbb",
					"transferFrom(address,address,uint256)": "23b872dd"
				}
			},
			"storageLayout": {
				"storage": [
					{
						"astId": 1097,
						"contract": "src/AquitardLPCore.0.0.1.sol:AquitardLPCore",
						"label": "nativePurchasableTime",
						"offset": 0,
						"slot": "0",
						"type": "t_uint256"
					},
					{
						"astId": 1105,
						"contract": "src/AquitardLPCore.0.0.1.sol:AquitardLPCore",
						"label": "erc20PurchasableTime",
						"offset": 0,
						"slot": "1",
						"type": "t_uint256"
					}
				],
				"types": {
					"t_uint256": {
						"encoding": "inplace",
						"label": "uint256",
						"numberOfBytes": "32"
					}
				}
			},
			"userdoc": {
				"kind": "user",
				"methods": {},
				"version": 1
			}
		}
	}
}