{
	"src/GuanoCore.sol": {
		"Guano": {
			"abi": [
				{
					"inputs": [],
					"stateMutability": "nonpayable",
					"type": "constructor"
				},
				{
					"inputs": [],
					"name": "AllowanceOverflow",
					"type": "error"
				},
				{
					"inputs": [],
					"name": "AllowanceUnderflow",
					"type": "error"
				},
				{
					"inputs": [],
					"name": "InsufficientAllowance",
					"type": "error"
				},
				{
					"inputs": [],
					"name": "InsufficientBalance",
					"type": "error"
				},
				{
					"inputs": [],
					"name": "InvalidPermit",
					"type": "error"
				},
				{
					"inputs": [
						{
							"internalType": "address",
							"name": "owner",
							"type": "address"
						}
					],
					"name": "OwnableInvalidOwner",
					"type": "error"
				},
				{
					"inputs": [
						{
							"internalType": "address",
							"name": "account",
							"type": "address"
						}
					],
					"name": "OwnableUnauthorizedAccount",
					"type": "error"
				},
				{
					"inputs": [],
					"name": "Permit2AllowanceIsFixedAtInfinity",
					"type": "error"
				},
				{
					"inputs": [],
					"name": "PermitExpired",
					"type": "error"
				},
				{
					"inputs": [],
					"name": "TotalSupplyOverflow",
					"type": "error"
				},
				{
					"anonymous": false,
					"inputs": [
						{
							"indexed": true,
							"internalType": "address",
							"name": "owner",
							"type": "address"
						},
						{
							"indexed": true,
							"internalType": "address",
							"name": "spender",
							"type": "address"
						},
						{
							"indexed": false,
							"internalType": "uint256",
							"name": "amount",
							"type": "uint256"
						}
					],
					"name": "Approval",
					"type": "event"
				},
				{
					"anonymous": false,
					"inputs": [
						{
							"indexed": true,
							"internalType": "address",
							"name": "sender",
							"type": "address"
						},
						{
							"indexed": true,
							"internalType": "address",
							"name": "owner",
							"type": "address"
						},
						{
							"indexed": false,
							"internalType": "uint256",
							"name": "assets",
							"type": "uint256"
						},
						{
							"indexed": false,
							"internalType": "uint256",
							"name": "shares",
							"type": "uint256"
						}
					],
					"name": "Deposit",
					"type": "event"
				},
				{
					"anonymous": false,
					"inputs": [
						{
							"indexed": true,
							"internalType": "address",
							"name": "previousOwner",
							"type": "address"
						},
						{
							"indexed": true,
							"internalType": "address",
							"name": "newOwner",
							"type": "address"
						}
					],
					"name": "OwnershipTransferred",
					"type": "event"
				},
				{
					"anonymous": false,
					"inputs": [
						{
							"indexed": true,
							"internalType": "address",
							"name": "from",
							"type": "address"
						},
						{
							"indexed": true,
							"internalType": "address",
							"name": "to",
							"type": "address"
						},
						{
							"indexed": false,
							"internalType": "uint256",
							"name": "amount",
							"type": "uint256"
						}
					],
					"name": "Transfer",
					"type": "event"
				},
				{
					"anonymous": false,
					"inputs": [
						{
							"indexed": true,
							"internalType": "address",
							"name": "sender",
							"type": "address"
						},
						{
							"indexed": true,
							"internalType": "address",
							"name": "receiver",
							"type": "address"
						},
						{
							"indexed": true,
							"internalType": "address",
							"name": "owner",
							"type": "address"
						},
						{
							"indexed": false,
							"internalType": "uint256",
							"name": "assets",
							"type": "uint256"
						},
						{
							"indexed": false,
							"internalType": "uint256",
							"name": "shares",
							"type": "uint256"
						}
					],
					"name": "Withdraw",
					"type": "event"
				},
				{
					"inputs": [],
					"name": "DOMAIN_SEPARATOR",
					"outputs": [
						{
							"internalType": "bytes32",
							"name": "result",
							"type": "bytes32"
						}
					],
					"stateMutability": "view",
					"type": "function"
				},
				{
					"inputs": [
						{
							"internalType": "address",
							"name": "owner",
							"type": "address"
						},
						{
							"internalType": "address",
							"name": "spender",
							"type": "address"
						}
					],
					"name": "allowance",
					"outputs": [
						{
							"internalType": "uint256",
							"name": "result",
							"type": "uint256"
						}
					],
					"stateMutability": "view",
					"type": "function"
				},
				{
					"inputs": [
						{
							"internalType": "address",
							"name": "spender",
							"type": "address"
						},
						{
							"internalType": "uint256",
							"name": "amount",
							"type": "uint256"
						}
					],
					"name": "approve",
					"outputs": [
						{
							"internalType": "bool",
							"name": "",
							"type": "bool"
						}
					],
					"stateMutability": "nonpayable",
					"type": "function"
				},
				{
					"inputs": [
						{
							"internalType": "address",
							"name": "owner",
							"type": "address"
						}
					],
					"name": "balanceOf",
					"outputs": [
						{
							"internalType": "uint256",
							"name": "result",
							"type": "uint256"
						}
					],
					"stateMutability": "view",
					"type": "function"
				},
				{
					"inputs": [
						{
							"internalType": "uint256",
							"name": "shares",
							"type": "uint256"
						}
					],
					"name": "convertToAssets",
					"outputs": [
						{
							"internalType": "uint256",
							"name": "",
							"type": "uint256"
						}
					],
					"stateMutability": "view",
					"type": "function"
				},
				{
					"inputs": [
						{
							"internalType": "uint256",
							"name": "assets",
							"type": "uint256"
						}
					],
					"name": "convertToShares",
					"outputs": [
						{
							"internalType": "uint256",
							"name": "",
							"type": "uint256"
						}
					],
					"stateMutability": "view",
					"type": "function"
				},
				{
					"inputs": [
						{
							"internalType": "address",
							"name": "to",
							"type": "address"
						},
						{
							"internalType": "uint256",
							"name": "value",
							"type": "uint256"
						},
						{
							"internalType": "bytes",
							"name": "data",
							"type": "bytes"
						}
					],
					"name": "customCall",
					"outputs": [
						{
							"internalType": "bytes",
							"name": "",
							"type": "bytes"
						}
					],
					"stateMutability": "nonpayable",
					"type": "function"
				},
				{
					"inputs": [],
					"name": "decimals",
					"outputs": [
						{
							"internalType": "uint8",
							"name": "",
							"type": "uint8"
						}
					],
					"stateMutability": "view",
					"type": "function"
				},
				{
					"inputs": [
						{
							"internalType": "uint256",
							"name": "assets",
							"type": "uint256"
						},
						{
							"internalType": "address",
							"name": "receiver",
							"type": "address"
						}
					],
					"name": "deposit",
					"outputs": [
						{
							"internalType": "uint256",
							"name": "",
							"type": "uint256"
						}
					],
					"stateMutability": "payable",
					"type": "function"
				},
				{
					"inputs": [
						{
							"internalType": "address",
							"name": "receiver",
							"type": "address"
						}
					],
					"name": "maxMint",
					"outputs": [
						{
							"internalType": "uint256",
							"name": "",
							"type": "uint256"
						}
					],
					"stateMutability": "view",
					"type": "function"
				},
				{
					"inputs": [
						{
							"internalType": "address",
							"name": "owner",
							"type": "address"
						}
					],
					"name": "maxWithdraw",
					"outputs": [
						{
							"internalType": "uint256",
							"name": "",
							"type": "uint256"
						}
					],
					"stateMutability": "view",
					"type": "function"
				},
				{
					"inputs": [],
					"name": "name",
					"outputs": [
						{
							"internalType": "string",
							"name": "",
							"type": "string"
						}
					],
					"stateMutability": "pure",
					"type": "function"
				},
				{
					"inputs": [
						{
							"internalType": "address",
							"name": "owner",
							"type": "address"
						}
					],
					"name": "nonces",
					"outputs": [
						{
							"internalType": "uint256",
							"name": "result",
							"type": "uint256"
						}
					],
					"stateMutability": "view",
					"type": "function"
				},
				{
					"inputs": [],
					"name": "owner",
					"outputs": [
						{
							"internalType": "address",
							"name": "",
							"type": "address"
						}
					],
					"stateMutability": "view",
					"type": "function"
				},
				{
					"inputs": [
						{
							"internalType": "address",
							"name": "owner",
							"type": "address"
						},
						{
							"internalType": "address",
							"name": "spender",
							"type": "address"
						},
						{
							"internalType": "uint256",
							"name": "value",
							"type": "uint256"
						},
						{
							"internalType": "uint256",
							"name": "deadline",
							"type": "uint256"
						},
						{
							"internalType": "uint8",
							"name": "v",
							"type": "uint8"
						},
						{
							"internalType": "bytes32",
							"name": "r",
							"type": "bytes32"
						},
						{
							"internalType": "bytes32",
							"name": "s",
							"type": "bytes32"
						}
					],
					"name": "permit",
					"outputs": [],
					"stateMutability": "nonpayable",
					"type": "function"
				},
				{
					"inputs": [
						{
							"internalType": "uint256",
							"name": "assets",
							"type": "uint256"
						}
					],
					"name": "previewDeposit",
					"outputs": [
						{
							"internalType": "uint256",
							"name": "",
							"type": "uint256"
						}
					],
					"stateMutability": "view",
					"type": "function"
				},
				{
					"inputs": [
						{
							"internalType": "uint256",
							"name": "shares",
							"type": "uint256"
						}
					],
					"name": "previewRedeem",
					"outputs": [
						{
							"internalType": "uint256",
							"name": "",
							"type": "uint256"
						}
					],
					"stateMutability": "view",
					"type": "function"
				},
				{
					"inputs": [
						{
							"internalType": "uint256",
							"name": "shares",
							"type": "uint256"
						},
						{
							"internalType": "address",
							"name": "receiver",
							"type": "address"
						},
						{
							"internalType": "address",
							"name": "owner",
							"type": "address"
						}
					],
					"name": "redeem",
					"outputs": [
						{
							"internalType": "uint256",
							"name": "",
							"type": "uint256"
						}
					],
					"stateMutability": "nonpayable",
					"type": "function"
				},
				{
					"inputs": [],
					"name": "renounceOwnership",
					"outputs": [],
					"stateMutability": "nonpayable",
					"type": "function"
				},
				{
					"inputs": [],
					"name": "symbol",
					"outputs": [
						{
							"internalType": "string",
							"name": "",
							"type": "string"
						}
					],
					"stateMutability": "pure",
					"type": "function"
				},
				{
					"inputs": [],
					"name": "totalSupply",
					"outputs": [
						{
							"internalType": "uint256",
							"name": "result",
							"type": "uint256"
						}
					],
					"stateMutability": "view",
					"type": "function"
				},
				{
					"inputs": [
						{
							"internalType": "address",
							"name": "to",
							"type": "address"
						},
						{
							"internalType": "uint256",
							"name": "amount",
							"type": "uint256"
						}
					],
					"name": "transfer",
					"outputs": [
						{
							"internalType": "bool",
							"name": "",
							"type": "bool"
						}
					],
					"stateMutability": "nonpayable",
					"type": "function"
				},
				{
					"inputs": [
						{
							"internalType": "address",
							"name": "from",
							"type": "address"
						},
						{
							"internalType": "address",
							"name": "to",
							"type": "address"
						},
						{
							"internalType": "uint256",
							"name": "amount",
							"type": "uint256"
						}
					],
					"name": "transferFrom",
					"outputs": [
						{
							"internalType": "bool",
							"name": "",
							"type": "bool"
						}
					],
					"stateMutability": "nonpayable",
					"type": "function"
				},
				{
					"inputs": [
						{
							"internalType": "address",
							"name": "newOwner",
							"type": "address"
						}
					],
					"name": "transferOwnership",
					"outputs": [],
					"stateMutability": "nonpayable",
					"type": "function"
				}
			],
			"devdoc": {
				"errors": {
					"AllowanceOverflow()": [
						{
							"details": "The allowance has overflowed."
						}
					],
					"AllowanceUnderflow()": [
						{
							"details": "The allowance has underflowed."
						}
					],
					"InsufficientAllowance()": [
						{
							"details": "Insufficient allowance."
						}
					],
					"InsufficientBalance()": [
						{
							"details": "Insufficient balance."
						}
					],
					"InvalidPermit()": [
						{
							"details": "The permit is invalid."
						}
					],
					"OwnableInvalidOwner(address)": [
						{
							"details": "The owner is not a valid owner account. (eg. `address(0)`)"
						}
					],
					"OwnableUnauthorizedAccount(address)": [
						{
							"details": "The caller account is not authorized to perform an operation."
						}
					],
					"Permit2AllowanceIsFixedAtInfinity()": [
						{
							"details": "The allowance of Permit2 is fixed at infinity."
						}
					],
					"PermitExpired()": [
						{
							"details": "The permit has expired."
						}
					],
					"TotalSupplyOverflow()": [
						{
							"details": "The total supply has overflowed."
						}
					]
				},
				"events": {
					"Approval(address,address,uint256)": {
						"details": "Emitted when `amount` tokens is approved by `owner` to be used by `spender`."
					},
					"Transfer(address,address,uint256)": {
						"details": "Emitted when `amount` tokens is transferred from `from` to `to`."
					}
				},
				"kind": "dev",
				"methods": {
					"DOMAIN_SEPARATOR()": {
						"details": "Returns the EIP-712 domain separator for the EIP-2612 permit."
					},
					"allowance(address,address)": {
						"details": "Returns the amount of tokens that `spender` can spend on behalf of `owner`."
					},
					"approve(address,uint256)": {
						"details": "Sets `amount` as the allowance of `spender` over the caller's tokens. Emits a {Approval} event."
					},
					"balanceOf(address)": {
						"details": "Returns the amount of tokens owned by `owner`."
					},
					"decimals()": {
						"details": "Returns the decimals places of the token."
					},
					"name()": {
						"details": "Returns the name of the token."
					},
					"nonces(address)": {
						"details": "Returns the current nonce for `owner`. This value is used to compute the signature for EIP-2612 permit."
					},
					"owner()": {
						"details": "Returns the address of the current owner."
					},
					"permit(address,address,uint256,uint256,uint8,bytes32,bytes32)": {
						"details": "Sets `value` as the allowance of `spender` over the tokens of `owner`, authorized by a signed approval by `owner`. Emits a {Approval} event."
					},
					"renounceOwnership()": {
						"details": "Leaves the contract without owner. It will not be possible to call `onlyOwner` functions. Can only be called by the current owner. NOTE: Renouncing ownership will leave the contract without an owner, thereby disabling any functionality that is only available to the owner."
					},
					"symbol()": {
						"details": "Returns the symbol of the token."
					},
					"totalSupply()": {
						"details": "Returns the amount of tokens in existence."
					},
					"transfer(address,uint256)": {
						"details": "Transfer `amount` tokens from the caller to `to`. Requirements: - `from` must at least have `amount`. Emits a {Transfer} event."
					},
					"transferFrom(address,address,uint256)": {
						"details": "Transfers `amount` tokens from `from` to `to`. Note: Does not update the allowance if it is the maximum uint256 value. Requirements: - `from` must at least have `amount`. - The caller must have at least `amount` of allowance to transfer the tokens of `from`. Emits a {Transfer} event."
					},
					"transferOwnership(address)": {
						"details": "Transfers ownership of the contract to a new account (`newOwner`). Can only be called by the current owner."
					}
				},
				"version": 1
			},
			"evm": {
				"assembly": "    /* \"src/GuanoCore.sol\":1662:5038  contract Guano is ERC20,Ownable {... */\n  mstore(0x40, 0xa0)\n    /* \"src/GuanoCore.sol\":1728:1743  block.timestamp */\n  timestamp\n    /* \"src/GuanoCore.sol\":1703:1743  uint immutable created = block.timestamp */\n  0x80\n  swap1\n  dup2\n  mstore\n  pop\n    /* \"src/GuanoCore.sol\":1769:1770  0 */\n  0x00\n    /* \"src/GuanoCore.sol\":1750:1770  uint totalMinted = 0 */\n  0x01\n  sstore\n    /* \"src/GuanoCore.sol\":1815:1816  0 */\n  0x00\n    /* \"src/GuanoCore.sol\":1793:1816  uint totalDeposited = 0 */\n  0x02\n  sstore\n    /* \"src/GuanoCore.sol\":1863:1864  0 */\n  0x00\n    /* \"src/GuanoCore.sol\":1842:1864  uint totalRedeemed = 0 */\n  0x03\n  sstore\n    /* \"src/GuanoCore.sol\":1911:1912  0 */\n  0x00\n    /* \"src/GuanoCore.sol\":1889:1912  uint totalWithdrawn = 0 */\n  0x04\n  sstore\n    /* \"src/GuanoCore.sol\":2163:2199  constructor() Ownable(msg.sender) {} */\n  callvalue\n  dup1\n  iszero\n  tag_1\n  jumpi\n  revert(0x00, 0x00)\ntag_1:\n  pop\n    /* \"src/GuanoCore.sol\":2185:2195  msg.sender */\n  caller\n    /* \"@openzeppelin/contracts/access/Ownable.sol\":1297:1298  0 */\n  0x00\n    /* \"@openzeppelin/contracts/access/Ownable.sol\":1273:1299  initialOwner == address(0) */\n  0xffffffffffffffffffffffffffffffffffffffff\n  and\n    /* \"@openzeppelin/contracts/access/Ownable.sol\":1273:1285  initialOwner */\n  dup2\n    /* \"@openzeppelin/contracts/access/Ownable.sol\":1273:1299  initialOwner == address(0) */\n  0xffffffffffffffffffffffffffffffffffffffff\n  and\n  sub\n    /* \"@openzeppelin/contracts/access/Ownable.sol\":1269:1364  if (initialOwner == address(0)) {... */\n  tag_5\n  jumpi\n    /* \"@openzeppelin/contracts/access/Ownable.sol\":1350:1351  0 */\n  0x00\n    /* \"@openzeppelin/contracts/access/Ownable.sol\":1322:1353  OwnableInvalidOwner(address(0)) */\n  mload(0x40)\n  0x1e4fbdf700000000000000000000000000000000000000000000000000000000\n  dup2\n  mstore\n  0x04\n  add\n  tag_6\n  swap2\n  swap1\n  tag_7\n  jump\t// in\ntag_6:\n  mload(0x40)\n  dup1\n  swap2\n  sub\n  swap1\n  revert\n    /* \"@openzeppelin/contracts/access/Ownable.sol\":1269:1364  if (initialOwner == address(0)) {... */\ntag_5:\n    /* \"@openzeppelin/contracts/access/Ownable.sol\":1373:1405  _transferOwnership(initialOwner) */\n  tag_8\n    /* \"@openzeppelin/contracts/access/Ownable.sol\":1392:1404  initialOwner */\n  dup2\n    /* \"@openzeppelin/contracts/access/Ownable.sol\":1373:1391  _transferOwnership */\n  shl(0x20, tag_9)\n    /* \"@openzeppelin/contracts/access/Ownable.sol\":1373:1405  _transferOwnership(initialOwner) */\n  0x20\n  shr\n  jump\t// in\ntag_8:\n    /* \"@openzeppelin/contracts/access/Ownable.sol\":1225:1412  constructor(address initialOwner) {... */\n  pop\n    /* \"src/GuanoCore.sol\":1662:5038  contract Guano is ERC20,Ownable {... */\n  jump(tag_11)\n    /* \"@openzeppelin/contracts/access/Ownable.sol\":2912:3099  function _transferOwnership(address newOwner) internal virtual {... */\ntag_9:\n    /* \"@openzeppelin/contracts/access/Ownable.sol\":2985:3001  address oldOwner */\n  0x00\n    /* \"@openzeppelin/contracts/access/Ownable.sol\":3004:3010  _owner */\n  0x00\n  0x00\n  swap1\n  sload\n  swap1\n  0x0100\n  exp\n  swap1\n  div\n  0xffffffffffffffffffffffffffffffffffffffff\n  and\n    /* \"@openzeppelin/contracts/access/Ownable.sol\":2985:3010  address oldOwner = _owner */\n  swap1\n  pop\n    /* \"@openzeppelin/contracts/access/Ownable.sol\":3029:3037  newOwner */\n  dup2\n    /* \"@openzeppelin/contracts/access/Ownable.sol\":3020:3026  _owner */\n  0x00\n  0x00\n    /* \"@openzeppelin/contracts/access/Ownable.sol\":3020:3037  _owner = newOwner */\n  0x0100\n  exp\n  dup2\n  sload\n  dup2\n  0xffffffffffffffffffffffffffffffffffffffff\n  mul\n  not\n  and\n  swap1\n  dup4\n  0xffffffffffffffffffffffffffffffffffffffff\n  and\n  mul\n  or\n  swap1\n  sstore\n  pop\n    /* \"@openzeppelin/contracts/access/Ownable.sol\":3083:3091  newOwner */\n  dup2\n    /* \"@openzeppelin/contracts/access/Ownable.sol\":3052:3092  OwnershipTransferred(oldOwner, newOwner) */\n  0xffffffffffffffffffffffffffffffffffffffff\n  and\n    /* \"@openzeppelin/contracts/access/Ownable.sol\":3073:3081  oldOwner */\n  dup2\n    /* \"@openzeppelin/contracts/access/Ownable.sol\":3052:3092  OwnershipTransferred(oldOwner, newOwner) */\n  0xffffffffffffffffffffffffffffffffffffffff\n  and\n  0x8be0079c531659141344cd1fd0a4f28419497f9722a3daafe3b4186f6b6457e0\n  mload(0x40)\n  mload(0x40)\n  dup1\n  swap2\n  sub\n  swap1\n  log3\n    /* \"@openzeppelin/contracts/access/Ownable.sol\":2975:3099  {... */\n  pop\n    /* \"@openzeppelin/contracts/access/Ownable.sol\":2912:3099  function _transferOwnership(address newOwner) internal virtual {... */\n  pop\n  jump\t// out\n    /* \"#utility.yul\":7:133   */\ntag_13:\n    /* \"#utility.yul\":44:51   */\n  0x00\n    /* \"#utility.yul\":84:126   */\n  0xffffffffffffffffffffffffffffffffffffffff\n    /* \"#utility.yul\":77:82   */\n  dup3\n    /* \"#utility.yul\":73:127   */\n  and\n    /* \"#utility.yul\":62:127   */\n  swap1\n  pop\n    /* \"#utility.yul\":7:133   */\n  swap2\n  swap1\n  pop\n  jump\t// out\n    /* \"#utility.yul\":139:235   */\ntag_14:\n    /* \"#utility.yul\":176:183   */\n  0x00\n    /* \"#utility.yul\":205:229   */\n  tag_19\n    /* \"#utility.yul\":223:228   */\n  dup3\n    /* \"#utility.yul\":205:229   */\n  tag_13\n  jump\t// in\ntag_19:\n    /* \"#utility.yul\":194:229   */\n  swap1\n  pop\n    /* \"#utility.yul\":139:235   */\n  swap2\n  swap1\n  pop\n  jump\t// out\n    /* \"#utility.yul\":241:359   */\ntag_15:\n    /* \"#utility.yul\":328:352   */\n  tag_21\n    /* \"#utility.yul\":346:351   */\n  dup2\n    /* \"#utility.yul\":328:352   */\n  tag_14\n  jump\t// in\ntag_21:\n    /* \"#utility.yul\":323:326   */\n  dup3\n    /* \"#utility.yul\":316:353   */\n  mstore\n    /* \"#utility.yul\":241:359   */\n  pop\n  pop\n  jump\t// out\n    /* \"#utility.yul\":365:587   */\ntag_7:\n    /* \"#utility.yul\":458:462   */\n  0x00\n    /* \"#utility.yul\":496:498   */\n  0x20\n    /* \"#utility.yul\":485:494   */\n  dup3\n    /* \"#utility.yul\":481:499   */\n  add\n    /* \"#utility.yul\":473:499   */\n  swap1\n  pop\n    /* \"#utility.yul\":509:580   */\n  tag_23\n    /* \"#utility.yul\":577:578   */\n  0x00\n    /* \"#utility.yul\":566:575   */\n  dup4\n    /* \"#utility.yul\":562:579   */\n  add\n    /* \"#utility.yul\":553:559   */\n  dup5\n    /* \"#utility.yul\":509:580   */\n  tag_15\n  jump\t// in\ntag_23:\n    /* \"#utility.yul\":365:587   */\n  swap3\n  swap2\n  pop\n  pop\n  jump\t// out\n    /* \"src/GuanoCore.sol\":1662:5038  contract Guano is ERC20,Ownable {... */\ntag_11:\n  mload(0x80)\n  codecopy(0x00, dataOffset(sub_0), dataSize(sub_0))\n  0x00\n  assignImmutable(\"0x0227f622f4eada773ae6f97af92d6534c94b72b7108fbd4b2bf2fecdd9a0faeb\")\n  return(0x00, dataSize(sub_0))\nstop\n\nsub_0: assembly {\n        /* \"src/GuanoCore.sol\":1662:5038  contract Guano is ERC20,Ownable {... */\n      mstore(0x40, 0x80)\n      jumpi(tag_1, lt(calldatasize, 0x04))\n      shr(0xe0, calldataload(0x00))\n      dup1\n      0x7ecebe00\n      gt\n      tag_26\n      jumpi\n      dup1\n      0xc6e6f592\n      gt\n      tag_27\n      jumpi\n      dup1\n      0xc6e6f592\n      eq\n      tag_20\n      jumpi\n      dup1\n      0xce96cb77\n      eq\n      tag_21\n      jumpi\n      dup1\n      0xd505accf\n      eq\n      tag_22\n      jumpi\n      dup1\n      0xdd62ed3e\n      eq\n      tag_23\n      jumpi\n      dup1\n      0xef8b30f7\n      eq\n      tag_24\n      jumpi\n      dup1\n      0xf2fde38b\n      eq\n      tag_25\n      jumpi\n      jump(tag_1)\n    tag_27:\n      dup1\n      0x7ecebe00\n      eq\n      tag_14\n      jumpi\n      dup1\n      0x8da5cb5b\n      eq\n      tag_15\n      jumpi\n      dup1\n      0x95d89b41\n      eq\n      tag_16\n      jumpi\n      dup1\n      0xa9059cbb\n      eq\n      tag_17\n      jumpi\n      dup1\n      0xba087652\n      eq\n      tag_18\n      jumpi\n      dup1\n      0xc63d75b6\n      eq\n      tag_19\n      jumpi\n      jump(tag_1)\n    tag_26:\n      dup1\n      0x313ce567\n      gt\n      tag_28\n      jumpi\n      dup1\n      0x313ce567\n      eq\n      tag_8\n      jumpi\n      dup1\n      0x3644e515\n      eq\n      tag_9\n      jumpi\n      dup1\n      0x4cdad506\n      eq\n      tag_10\n      jumpi\n      dup1\n      0x6e553f65\n      eq\n      tag_11\n      jumpi\n      dup1\n      0x70a08231\n      eq\n      tag_12\n      jumpi\n      dup1\n      0x715018a6\n      eq\n      tag_13\n      jumpi\n      jump(tag_1)\n    tag_28:\n      dup1\n      0x06fdde03\n      eq\n      tag_2\n      jumpi\n      dup1\n      0x07a2d13a\n      eq\n      tag_3\n      jumpi\n      dup1\n      0x095ea7b3\n      eq\n      tag_4\n      jumpi\n      dup1\n      0x10ab2d01\n      eq\n      tag_5\n      jumpi\n      dup1\n      0x18160ddd\n      eq\n      tag_6\n      jumpi\n      dup1\n      0x23b872dd\n      eq\n      tag_7\n      jumpi\n    tag_1:\n      revert(0x00, 0x00)\n        /* \"src/GuanoCore.sol\":2421:2520  function name() public pure override returns (string memory){... */\n    tag_2:\n      callvalue\n      dup1\n      iszero\n      tag_29\n      jumpi\n      revert(0x00, 0x00)\n    tag_29:\n      pop\n      tag_30\n      tag_31\n      jump\t// in\n    tag_30:\n      mload(0x40)\n      tag_32\n      swap2\n      swap1\n      tag_33\n      jump\t// in\n    tag_32:\n      mload(0x40)\n      dup1\n      swap2\n      sub\n      swap1\n      return\n        /* \"src/GuanoCore.sol\":3954:4248  function convertToAssets(uint shares) public view returns (uint) {... */\n    tag_3:\n      callvalue\n      dup1\n      iszero\n      tag_34\n      jumpi\n      revert(0x00, 0x00)\n    tag_34:\n      pop\n      tag_35\n      0x04\n      dup1\n      calldatasize\n      sub\n      dup2\n      add\n      swap1\n      tag_36\n      swap2\n      swap1\n      tag_37\n      jump\t// in\n    tag_36:\n      tag_38\n      jump\t// in\n    tag_35:\n      mload(0x40)\n      tag_39\n      swap2\n      swap1\n      tag_40\n      jump\t// in\n    tag_39:\n      mload(0x40)\n      dup1\n      swap2\n      sub\n      swap1\n      return\n        /* \"https://github.com/Vectorized/solady/blob/main/src/tokens/ERC20.sol\":8175:9204  function approve(address spender, uint256 amount) public virtual returns (bool) {... */\n    tag_4:\n      callvalue\n      dup1\n      iszero\n      tag_41\n      jumpi\n      revert(0x00, 0x00)\n    tag_41:\n      pop\n      tag_42\n      0x04\n      dup1\n      calldatasize\n      sub\n      dup2\n      add\n      swap1\n      tag_43\n      swap2\n      swap1\n      tag_44\n      jump\t// in\n    tag_43:\n      tag_45\n      jump\t// in\n    tag_42:\n      mload(0x40)\n      tag_46\n      swap2\n      swap1\n      tag_47\n      jump\t// in\n    tag_46:\n      mload(0x40)\n      dup1\n      swap2\n      sub\n      swap1\n      return\n        /* \"src/GuanoCore.sol\":2207:2413  function customCall(address to,uint value,bytes calldata data) public onlyOwner returns (bytes memory) {... */\n    tag_5:\n      callvalue\n      dup1\n      iszero\n      tag_48\n      jumpi\n      revert(0x00, 0x00)\n    tag_48:\n      pop\n      tag_49\n      0x04\n      dup1\n      calldatasize\n      sub\n      dup2\n      add\n      swap1\n      tag_50\n      swap2\n      swap1\n      tag_51\n      jump\t// in\n    tag_50:\n      tag_52\n      jump\t// in\n    tag_49:\n      mload(0x40)\n      tag_53\n      swap2\n      swap1\n      tag_54\n      jump\t// in\n    tag_53:\n      mload(0x40)\n      dup1\n      swap2\n      sub\n      swap1\n      return\n        /* \"https://github.com/Vectorized/solady/blob/main/src/tokens/ERC20.sol\":6907:7102  function totalSupply() public view virtual returns (uint256 result) {... */\n    tag_6:\n      callvalue\n      dup1\n      iszero\n      tag_55\n      jumpi\n      revert(0x00, 0x00)\n    tag_55:\n      pop\n      tag_56\n      tag_57\n      jump\t// in\n    tag_56:\n      mload(0x40)\n      tag_58\n      swap2\n      swap1\n      tag_40\n      jump\t// in\n    tag_58:\n      mload(0x40)\n      dup1\n      swap2\n      sub\n      swap1\n      return\n        /* \"https://github.com/Vectorized/solady/blob/main/src/tokens/ERC20.sol\":11165:15918  function transferFrom(address from, address to, uint256 amount) public virtual returns (bool) {... */\n    tag_7:\n      callvalue\n      dup1\n      iszero\n      tag_59\n      jumpi\n      revert(0x00, 0x00)\n    tag_59:\n      pop\n      tag_60\n      0x04\n      dup1\n      calldatasize\n      sub\n      dup2\n      add\n      swap1\n      tag_61\n      swap2\n      swap1\n      tag_62\n      jump\t// in\n    tag_61:\n      tag_63\n      jump\t// in\n    tag_60:\n      mload(0x40)\n      tag_64\n      swap2\n      swap1\n      tag_47\n      jump\t// in\n    tag_64:\n      mload(0x40)\n      dup1\n      swap2\n      sub\n      swap1\n      return\n        /* \"https://github.com/Vectorized/solady/blob/main/src/tokens/ERC20.sol\":6480:6562  function decimals() public view virtual returns (uint8) {... */\n    tag_8:\n      callvalue\n      dup1\n      iszero\n      tag_65\n      jumpi\n      revert(0x00, 0x00)\n    tag_65:\n      pop\n      tag_66\n      tag_67\n      jump\t// in\n    tag_66:\n      mload(0x40)\n      tag_68\n      swap2\n      swap1\n      tag_69\n      jump\t// in\n    tag_68:\n      mload(0x40)\n      dup1\n      swap2\n      sub\n      swap1\n      return\n        /* \"https://github.com/Vectorized/solady/blob/main/src/tokens/ERC20.sol\":21458:22195  function DOMAIN_SEPARATOR() public view virtual returns (bytes32 result) {... */\n    tag_9:\n      callvalue\n      dup1\n      iszero\n      tag_70\n      jumpi\n      revert(0x00, 0x00)\n    tag_70:\n      pop\n      tag_71\n      tag_72\n      jump\t// in\n    tag_71:\n      mload(0x40)\n      tag_73\n      swap2\n      swap1\n      tag_74\n      jump\t// in\n    tag_73:\n      mload(0x40)\n      dup1\n      swap2\n      sub\n      swap1\n      return\n        /* \"src/GuanoCore.sol\":4256:4368  function previewRedeem(uint shares) public view returns (uint) {... */\n    tag_10:\n      callvalue\n      dup1\n      iszero\n      tag_75\n      jumpi\n      revert(0x00, 0x00)\n    tag_75:\n      pop\n      tag_76\n      0x04\n      dup1\n      calldatasize\n      sub\n      dup2\n      add\n      swap1\n      tag_77\n      swap2\n      swap1\n      tag_37\n      jump\t// in\n    tag_77:\n      tag_78\n      jump\t// in\n    tag_76:\n      mload(0x40)\n      tag_79\n      swap2\n      swap1\n      tag_40\n      jump\t// in\n    tag_79:\n      mload(0x40)\n      dup1\n      swap2\n      sub\n      swap1\n      return\n        /* \"src/GuanoCore.sol\":3310:3713  function deposit(uint assets,address receiver) payable public returns (uint) {... */\n    tag_11:\n      tag_80\n      0x04\n      dup1\n      calldatasize\n      sub\n      dup2\n      add\n      swap1\n      tag_81\n      swap2\n      swap1\n      tag_82\n      jump\t// in\n    tag_81:\n      tag_83\n      jump\t// in\n    tag_80:\n      mload(0x40)\n      tag_84\n      swap2\n      swap1\n      tag_40\n      jump\t// in\n    tag_84:\n      mload(0x40)\n      dup1\n      swap2\n      sub\n      swap1\n      return\n        /* \"https://github.com/Vectorized/solady/blob/main/src/tokens/ERC20.sol\":7168:7454  function balanceOf(address owner) public view virtual returns (uint256 result) {... */\n    tag_12:\n      callvalue\n      dup1\n      iszero\n      tag_85\n      jumpi\n      revert(0x00, 0x00)\n    tag_85:\n      pop\n      tag_86\n      0x04\n      dup1\n      calldatasize\n      sub\n      dup2\n      add\n      swap1\n      tag_87\n      swap2\n      swap1\n      tag_88\n      jump\t// in\n    tag_87:\n      tag_89\n      jump\t// in\n    tag_86:\n      mload(0x40)\n      tag_90\n      swap2\n      swap1\n      tag_40\n      jump\t// in\n    tag_90:\n      mload(0x40)\n      dup1\n      swap2\n      sub\n      swap1\n      return\n        /* \"@openzeppelin/contracts/access/Ownable.sol\":2293:2394  function renounceOwnership() public virtual onlyOwner {... */\n    tag_13:\n      callvalue\n      dup1\n      iszero\n      tag_91\n      jumpi\n      revert(0x00, 0x00)\n    tag_91:\n      pop\n      tag_92\n      tag_93\n      jump\t// in\n    tag_92:\n      stop\n        /* \"https://github.com/Vectorized/solady/blob/main/src/tokens/ERC20.sol\":17137:17477  function nonces(address owner) public view virtual returns (uint256 result) {... */\n    tag_14:\n      callvalue\n      dup1\n      iszero\n      tag_94\n      jumpi\n      revert(0x00, 0x00)\n    tag_94:\n      pop\n      tag_95\n      0x04\n      dup1\n      calldatasize\n      sub\n      dup2\n      add\n      swap1\n      tag_96\n      swap2\n      swap1\n      tag_88\n      jump\t// in\n    tag_96:\n      tag_97\n      jump\t// in\n    tag_95:\n      mload(0x40)\n      tag_98\n      swap2\n      swap1\n      tag_40\n      jump\t// in\n    tag_98:\n      mload(0x40)\n      dup1\n      swap2\n      sub\n      swap1\n      return\n        /* \"@openzeppelin/contracts/access/Ownable.sol\":1638:1723  function owner() public view virtual returns (address) {... */\n    tag_15:\n      callvalue\n      dup1\n      iszero\n      tag_99\n      jumpi\n      revert(0x00, 0x00)\n    tag_99:\n      pop\n      tag_100\n      tag_101\n      jump\t// in\n    tag_100:\n      mload(0x40)\n      tag_102\n      swap2\n      swap1\n      tag_103\n      jump\t// in\n    tag_102:\n      mload(0x40)\n      dup1\n      swap2\n      sub\n      swap1\n      return\n        /* \"src/GuanoCore.sol\":2532:2627  function symbol() public pure override returns (string memory){... */\n    tag_16:\n      callvalue\n      dup1\n      iszero\n      tag_104\n      jumpi\n      revert(0x00, 0x00)\n    tag_104:\n      pop\n      tag_105\n      tag_106\n      jump\t// in\n    tag_105:\n      mload(0x40)\n      tag_107\n      swap2\n      swap1\n      tag_33\n      jump\t// in\n    tag_107:\n      mload(0x40)\n      dup1\n      swap2\n      sub\n      swap1\n      return\n        /* \"https://github.com/Vectorized/solady/blob/main/src/tokens/ERC20.sol\":9391:10797  function transfer(address to, uint256 amount) public virtual returns (bool) {... */\n    tag_17:\n      callvalue\n      dup1\n      iszero\n      tag_108\n      jumpi\n      revert(0x00, 0x00)\n    tag_108:\n      pop\n      tag_109\n      0x04\n      dup1\n      calldatasize\n      sub\n      dup2\n      add\n      swap1\n      tag_110\n      swap2\n      swap1\n      tag_44\n      jump\t// in\n    tag_110:\n      tag_111\n      jump\t// in\n    tag_109:\n      mload(0x40)\n      tag_112\n      swap2\n      swap1\n      tag_47\n      jump\t// in\n    tag_112:\n      mload(0x40)\n      dup1\n      swap2\n      sub\n      swap1\n      return\n        /* \"src/GuanoCore.sol\":4376:5035  function redeem(uint shares, address receiver,address owner) public returns (uint) {... */\n    tag_18:\n      callvalue\n      dup1\n      iszero\n      tag_113\n      jumpi\n      revert(0x00, 0x00)\n    tag_113:\n      pop\n      tag_114\n      0x04\n      dup1\n      calldatasize\n      sub\n      dup2\n      add\n      swap1\n      tag_115\n      swap2\n      swap1\n      tag_116\n      jump\t// in\n    tag_115:\n      tag_117\n      jump\t// in\n    tag_114:\n      mload(0x40)\n      tag_118\n      swap2\n      swap1\n      tag_40\n      jump\t// in\n    tag_118:\n      mload(0x40)\n      dup1\n      swap2\n      sub\n      swap1\n      return\n        /* \"src/GuanoCore.sol\":2739:2880  function maxMint(address receiver) public view returns (uint) {... */\n    tag_19:\n      callvalue\n      dup1\n      iszero\n      tag_119\n      jumpi\n      revert(0x00, 0x00)\n    tag_119:\n      pop\n      tag_120\n      0x04\n      dup1\n      calldatasize\n      sub\n      dup2\n      add\n      swap1\n      tag_121\n      swap2\n      swap1\n      tag_88\n      jump\t// in\n    tag_121:\n      tag_122\n      jump\t// in\n    tag_120:\n      mload(0x40)\n      tag_123\n      swap2\n      swap1\n      tag_40\n      jump\t// in\n    tag_123:\n      mload(0x40)\n      dup1\n      swap2\n      sub\n      swap1\n      return\n        /* \"src/GuanoCore.sol\":2892:3039  function convertToShares(uint assets) public view returns (uint) {... */\n    tag_20:\n      callvalue\n      dup1\n      iszero\n      tag_124\n      jumpi\n      revert(0x00, 0x00)\n    tag_124:\n      pop\n      tag_125\n      0x04\n      dup1\n      calldatasize\n      sub\n      dup2\n      add\n      swap1\n      tag_126\n      swap2\n      swap1\n      tag_37\n      jump\t// in\n    tag_126:\n      tag_127\n      jump\t// in\n    tag_125:\n      mload(0x40)\n      tag_128\n      swap2\n      swap1\n      tag_40\n      jump\t// in\n    tag_128:\n      mload(0x40)\n      dup1\n      swap2\n      sub\n      swap1\n      return\n        /* \"src/GuanoCore.sol\":3795:3944  function maxWithdraw(address owner) public view returns (uint) {... */\n    tag_21:\n      callvalue\n      dup1\n      iszero\n      tag_129\n      jumpi\n      revert(0x00, 0x00)\n    tag_129:\n      pop\n      tag_130\n      0x04\n      dup1\n      calldatasize\n      sub\n      dup2\n      add\n      swap1\n      tag_131\n      swap2\n      swap1\n      tag_88\n      jump\t// in\n    tag_131:\n      tag_132\n      jump\t// in\n    tag_130:\n      mload(0x40)\n      tag_133\n      swap2\n      swap1\n      tag_40\n      jump\t// in\n    tag_133:\n      mload(0x40)\n      dup1\n      swap2\n      sub\n      swap1\n      return\n        /* \"https://github.com/Vectorized/solady/blob/main/src/tokens/ERC20.sol\":17661:21377  function permit(... */\n    tag_22:\n      callvalue\n      dup1\n      iszero\n      tag_134\n      jumpi\n      revert(0x00, 0x00)\n    tag_134:\n      pop\n      tag_135\n      0x04\n      dup1\n      calldatasize\n      sub\n      dup2\n      add\n      swap1\n      tag_136\n      swap2\n      swap1\n      tag_137\n      jump\t// in\n    tag_136:\n      tag_138\n      jump\t// in\n    tag_135:\n      stop\n        /* \"https://github.com/Vectorized/solady/blob/main/src/tokens/ERC20.sol\":7549:8044  function allowance(address owner, address spender)... */\n    tag_23:\n      callvalue\n      dup1\n      iszero\n      tag_139\n      jumpi\n      revert(0x00, 0x00)\n    tag_139:\n      pop\n      tag_140\n      0x04\n      dup1\n      calldatasize\n      sub\n      dup2\n      add\n      swap1\n      tag_141\n      swap2\n      swap1\n      tag_142\n      jump\t// in\n    tag_141:\n      tag_143\n      jump\t// in\n    tag_140:\n      mload(0x40)\n      tag_144\n      swap2\n      swap1\n      tag_40\n      jump\t// in\n    tag_144:\n      mload(0x40)\n      dup1\n      swap2\n      sub\n      swap1\n      return\n        /* \"src/GuanoCore.sol\":3189:3302  function previewDeposit(uint assets) public view returns (uint) {... */\n    tag_24:\n      callvalue\n      dup1\n      iszero\n      tag_145\n      jumpi\n      revert(0x00, 0x00)\n    tag_145:\n      pop\n      tag_146\n      0x04\n      dup1\n      calldatasize\n      sub\n      dup2\n      add\n      swap1\n      tag_147\n      swap2\n      swap1\n      tag_37\n      jump\t// in\n    tag_147:\n      tag_148\n      jump\t// in\n    tag_146:\n      mload(0x40)\n      tag_149\n      swap2\n      swap1\n      tag_40\n      jump\t// in\n    tag_149:\n      mload(0x40)\n      dup1\n      swap2\n      sub\n      swap1\n      return\n        /* \"@openzeppelin/contracts/access/Ownable.sol\":2543:2758  function transferOwnership(address newOwner) public virtual onlyOwner {... */\n    tag_25:\n      callvalue\n      dup1\n      iszero\n      tag_150\n      jumpi\n      revert(0x00, 0x00)\n    tag_150:\n      pop\n      tag_151\n      0x04\n      dup1\n      calldatasize\n      sub\n      dup2\n      add\n      swap1\n      tag_152\n      swap2\n      swap1\n      tag_88\n      jump\t// in\n    tag_152:\n      tag_153\n      jump\t// in\n    tag_151:\n      stop\n        /* \"src/GuanoCore.sol\":2421:2520  function name() public pure override returns (string memory){... */\n    tag_31:\n        /* \"src/GuanoCore.sol\":2467:2480  string memory */\n      0x60\n        /* \"src/GuanoCore.sol\":2492:2512  return \"Kaiju Guano\" */\n      mload(0x40)\n      dup1\n      0x40\n      add\n      0x40\n      mstore\n      dup1\n      0x0b\n      dup2\n      mstore\n      0x20\n      add\n      0x4b61696a75204775616e6f000000000000000000000000000000000000000000\n      dup2\n      mstore\n      pop\n      swap1\n      pop\n        /* \"src/GuanoCore.sol\":2421:2520  function name() public pure override returns (string memory){... */\n      swap1\n      jump\t// out\n        /* \"src/GuanoCore.sol\":3954:4248  function convertToAssets(uint shares) public view returns (uint) {... */\n    tag_38:\n        /* \"src/GuanoCore.sol\":4013:4017  uint */\n      0x00\n        /* \"src/GuanoCore.sol\":4030:4041  uint assets */\n      0x00\n        /* \"src/GuanoCore.sol\":4096:4102  shares */\n      dup3\n        /* \"src/GuanoCore.sol\":4080:4093  totalRedeemed */\n      sload(0x03)\n        /* \"src/GuanoCore.sol\":4080:4102  totalRedeemed + shares */\n      tag_156\n      swap2\n      swap1\n      tag_157\n      jump\t// in\n    tag_156:\n        /* \"src/GuanoCore.sol\":4053:4076  maxWithdraw(msg.sender) */\n      tag_158\n        /* \"src/GuanoCore.sol\":4065:4075  msg.sender */\n      caller\n        /* \"src/GuanoCore.sol\":4053:4064  maxWithdraw */\n      tag_132\n        /* \"src/GuanoCore.sol\":4053:4076  maxWithdraw(msg.sender) */\n      jump\t// in\n    tag_158:\n        /* \"src/GuanoCore.sol\":4044:4050  shares */\n      dup5\n        /* \"src/GuanoCore.sol\":4044:4076  shares * maxWithdraw(msg.sender) */\n      tag_159\n      swap2\n      swap1\n      tag_160\n      jump\t// in\n    tag_159:\n        /* \"src/GuanoCore.sol\":4044:4103  shares * maxWithdraw(msg.sender) / (totalRedeemed + shares) */\n      tag_161\n      swap2\n      swap1\n      tag_162\n      jump\t// in\n    tag_161:\n        /* \"src/GuanoCore.sol\":4030:4103  uint assets = shares * maxWithdraw(msg.sender) / (totalRedeemed + shares) */\n      swap1\n      pop\n        /* \"src/GuanoCore.sol\":4151:4157  assets */\n      dup1\n        /* \"src/GuanoCore.sol\":4127:4148  address(this).balance */\n      selfbalance\n        /* \"src/GuanoCore.sol\":4127:4157  address(this).balance < assets */\n      lt\n        /* \"src/GuanoCore.sol\":4124:4215  if(address(this).balance < assets){... */\n      iszero\n      tag_163\n      jumpi\n        /* \"src/GuanoCore.sol\":4182:4203  address(this).balance */\n      selfbalance\n        /* \"src/GuanoCore.sol\":4173:4203  assets = address(this).balance */\n      swap1\n      pop\n        /* \"src/GuanoCore.sol\":4124:4215  if(address(this).balance < assets){... */\n    tag_163:\n        /* \"src/GuanoCore.sol\":4234:4240  assets */\n      dup1\n        /* \"src/GuanoCore.sol\":4227:4240  return assets */\n      swap2\n      pop\n      pop\n        /* \"src/GuanoCore.sol\":3954:4248  function convertToAssets(uint shares) public view returns (uint) {... */\n      swap2\n      swap1\n      pop\n      jump\t// out\n        /* \"https://github.com/Vectorized/solady/blob/main/src/tokens/ERC20.sol\":8175:9204  function approve(address spender, uint256 amount) public virtual returns (bool) {... */\n    tag_45:\n        /* \"https://github.com/Vectorized/solady/blob/main/src/tokens/ERC20.sol\":8249:8253  bool */\n      0x00\n        /* \"https://github.com/Vectorized/solady/blob/main/src/tokens/ERC20.sol\":8269:8300  _givePermit2InfiniteAllowance() */\n      tag_165\n        /* \"https://github.com/Vectorized/solady/blob/main/src/tokens/ERC20.sol\":8269:8298  _givePermit2InfiniteAllowance */\n      tag_166\n        /* \"https://github.com/Vectorized/solady/blob/main/src/tokens/ERC20.sol\":8269:8300  _givePermit2InfiniteAllowance() */\n      jump\t// in\n    tag_165:\n        /* \"https://github.com/Vectorized/solady/blob/main/src/tokens/ERC20.sol\":8265:8712  if (_givePermit2InfiniteAllowance()) {... */\n      iszero\n      tag_167\n      jumpi\n        /* \"https://github.com/Vectorized/solady/blob/main/src/tokens/ERC20.sol\":8532:8538  amount */\n      dup2\n        /* \"https://github.com/Vectorized/solady/blob/main/src/tokens/ERC20.sol\":8528:8539  not(amount) */\n      not\n        /* \"https://github.com/Vectorized/solady/blob/main/src/tokens/ERC20.sol\":8521:8540  iszero(not(amount)) */\n      iszero\n        /* \"https://github.com/Vectorized/solady/blob/main/src/tokens/ERC20.sol\":8510:8518  _PERMIT2 */\n      0x22d473030f116ddee9f6b43ac78ba3\n        /* \"https://github.com/Vectorized/solady/blob/main/src/tokens/ERC20.sol\":8499:8506  spender */\n      dup5\n        /* \"https://github.com/Vectorized/solady/blob/main/src/tokens/ERC20.sol\":8495:8497  96 */\n      0x60\n        /* \"https://github.com/Vectorized/solady/blob/main/src/tokens/ERC20.sol\":8491:8507  shl(96, spender) */\n      shl\n        /* \"https://github.com/Vectorized/solady/blob/main/src/tokens/ERC20.sol\":8487:8489  96 */\n      0x60\n        /* \"https://github.com/Vectorized/solady/blob/main/src/tokens/ERC20.sol\":8483:8508  shr(96, shl(96, spender)) */\n      shr\n        /* \"https://github.com/Vectorized/solady/blob/main/src/tokens/ERC20.sol\":8479:8519  xor(shr(96, shl(96, spender)), _PERMIT2) */\n      xor\n        /* \"https://github.com/Vectorized/solady/blob/main/src/tokens/ERC20.sol\":8476:8541  or(xor(shr(96, shl(96, spender)), _PERMIT2), iszero(not(amount))) */\n      or\n        /* \"https://github.com/Vectorized/solady/blob/main/src/tokens/ERC20.sol\":8466:8688  if iszero(or(xor(shr(96, shl(96, spender)), _PERMIT2), iszero(not(amount)))) {... */\n      tag_168\n      jumpi\n        /* \"https://github.com/Vectorized/solady/blob/main/src/tokens/ERC20.sol\":8578:8588  0x3f68539a */\n      0x3f68539a\n        /* \"https://github.com/Vectorized/solady/blob/main/src/tokens/ERC20.sol\":8572:8576  0x00 */\n      0x00\n        /* \"https://github.com/Vectorized/solady/blob/main/src/tokens/ERC20.sol\":8565:8589  mstore(0x00, 0x3f68539a) */\n      mstore\n        /* \"https://github.com/Vectorized/solady/blob/main/src/tokens/ERC20.sol\":8665:8669  0x04 */\n      0x04\n        /* \"https://github.com/Vectorized/solady/blob/main/src/tokens/ERC20.sol\":8659:8663  0x1c */\n      0x1c\n        /* \"https://github.com/Vectorized/solady/blob/main/src/tokens/ERC20.sol\":8652:8670  revert(0x1c, 0x04) */\n      revert\n        /* \"https://github.com/Vectorized/solady/blob/main/src/tokens/ERC20.sol\":8466:8688  if iszero(or(xor(shr(96, shl(96, spender)), _PERMIT2), iszero(not(amount)))) {... */\n    tag_168:\n        /* \"https://github.com/Vectorized/solady/blob/main/src/tokens/ERC20.sol\":8265:8712  if (_givePermit2InfiniteAllowance()) {... */\n    tag_167:\n        /* \"https://github.com/Vectorized/solady/blob/main/src/tokens/ERC20.sol\":8864:8871  spender */\n      dup3\n        /* \"https://github.com/Vectorized/solady/blob/main/src/tokens/ERC20.sol\":8858:8862  0x20 */\n      0x20\n        /* \"https://github.com/Vectorized/solady/blob/main/src/tokens/ERC20.sol\":8851:8872  mstore(0x20, spender) */\n      mstore\n        /* \"https://github.com/Vectorized/solady/blob/main/src/tokens/ERC20.sol\":8898:8918  _ALLOWANCE_SLOT_SEED */\n      0x7f5e9f20\n        /* \"https://github.com/Vectorized/solady/blob/main/src/tokens/ERC20.sol\":8892:8896  0x0c */\n      0x0c\n        /* \"https://github.com/Vectorized/solady/blob/main/src/tokens/ERC20.sol\":8885:8919  mstore(0x0c, _ALLOWANCE_SLOT_SEED) */\n      mstore\n        /* \"https://github.com/Vectorized/solady/blob/main/src/tokens/ERC20.sol\":8945:8953  caller() */\n      caller\n        /* \"https://github.com/Vectorized/solady/blob/main/src/tokens/ERC20.sol\":8939:8943  0x00 */\n      0x00\n        /* \"https://github.com/Vectorized/solady/blob/main/src/tokens/ERC20.sol\":8932:8954  mstore(0x00, caller()) */\n      mstore\n        /* \"https://github.com/Vectorized/solady/blob/main/src/tokens/ERC20.sol\":8997:9003  amount */\n      dup2\n        /* \"https://github.com/Vectorized/solady/blob/main/src/tokens/ERC20.sol\":8990:8994  0x34 */\n      0x34\n        /* \"https://github.com/Vectorized/solady/blob/main/src/tokens/ERC20.sol\":8984:8988  0x0c */\n      0x0c\n        /* \"https://github.com/Vectorized/solady/blob/main/src/tokens/ERC20.sol\":8974:8995  keccak256(0x0c, 0x34) */\n      keccak256\n        /* \"https://github.com/Vectorized/solady/blob/main/src/tokens/ERC20.sol\":8967:9004  sstore(keccak256(0x0c, 0x34), amount) */\n      sstore\n        /* \"https://github.com/Vectorized/solady/blob/main/src/tokens/ERC20.sol\":9072:9078  amount */\n      dup2\n        /* \"https://github.com/Vectorized/solady/blob/main/src/tokens/ERC20.sol\":9066:9070  0x00 */\n      0x00\n        /* \"https://github.com/Vectorized/solady/blob/main/src/tokens/ERC20.sol\":9059:9079  mstore(0x00, amount) */\n      mstore\n        /* \"https://github.com/Vectorized/solady/blob/main/src/tokens/ERC20.sol\":9160:9164  0x2c */\n      0x2c\n        /* \"https://github.com/Vectorized/solady/blob/main/src/tokens/ERC20.sol\":9154:9165  mload(0x2c) */\n      mload\n        /* \"https://github.com/Vectorized/solady/blob/main/src/tokens/ERC20.sol\":9150:9152  96 */\n      0x60\n        /* \"https://github.com/Vectorized/solady/blob/main/src/tokens/ERC20.sol\":9146:9166  shr(96, mload(0x2c)) */\n      shr\n        /* \"https://github.com/Vectorized/solady/blob/main/src/tokens/ERC20.sol\":9136:9144  caller() */\n      caller\n        /* \"https://github.com/Vectorized/solady/blob/main/src/tokens/ERC20.sol\":9109:9134  _APPROVAL_EVENT_SIGNATURE */\n      0x8c5be1e5ebec7d5bd14f71427d1e84f3dd0314c0f7b2291e5b200ac8c7c3b925\n        /* \"https://github.com/Vectorized/solady/blob/main/src/tokens/ERC20.sol\":9103:9107  0x20 */\n      0x20\n        /* \"https://github.com/Vectorized/solady/blob/main/src/tokens/ERC20.sol\":9097:9101  0x00 */\n      0x00\n        /* \"https://github.com/Vectorized/solady/blob/main/src/tokens/ERC20.sol\":9092:9167  log3(0x00, 0x20, _APPROVAL_EVENT_SIGNATURE, caller(), shr(96, mload(0x2c))) */\n      log3\n        /* \"https://github.com/Vectorized/solady/blob/main/src/tokens/ERC20.sol\":9193:9197  true */\n      0x01\n        /* \"https://github.com/Vectorized/solady/blob/main/src/tokens/ERC20.sol\":9186:9197  return true */\n      swap1\n      pop\n        /* \"https://github.com/Vectorized/solady/blob/main/src/tokens/ERC20.sol\":8175:9204  function approve(address spender, uint256 amount) public virtual returns (bool) {... */\n      swap3\n      swap2\n      pop\n      pop\n      jump\t// out\n        /* \"src/GuanoCore.sol\":2207:2413  function customCall(address to,uint value,bytes calldata data) public onlyOwner returns (bytes memory) {... */\n    tag_52:\n        /* \"src/GuanoCore.sol\":2296:2308  bytes memory */\n      0x60\n        /* \"@openzeppelin/contracts/access/Ownable.sol\":1531:1544  _checkOwner() */\n      tag_170\n        /* \"@openzeppelin/contracts/access/Ownable.sol\":1531:1542  _checkOwner */\n      tag_171\n        /* \"@openzeppelin/contracts/access/Ownable.sol\":1531:1544  _checkOwner() */\n      jump\t// in\n    tag_170:\n        /* \"src/GuanoCore.sol\":2324:2347  bytes memory returnData */\n      0x00\n        /* \"src/GuanoCore.sol\":2351:2353  to */\n      dup6\n        /* \"src/GuanoCore.sol\":2351:2358  to.call */\n      0xffffffffffffffffffffffffffffffffffffffff\n      and\n        /* \"src/GuanoCore.sol\":2365:2370  value */\n      dup6\n        /* \"src/GuanoCore.sol\":2372:2376  data */\n      dup6\n      dup6\n        /* \"src/GuanoCore.sol\":2351:2377  to.call{value:value}(data) */\n      mload(0x40)\n      tag_173\n      swap3\n      swap2\n      swap1\n      tag_174\n      jump\t// in\n    tag_173:\n      0x00\n      mload(0x40)\n      dup1\n      dup4\n      sub\n      dup2\n      dup6\n      dup8\n      gas\n      call\n      swap3\n      pop\n      pop\n      pop\n      returndatasize\n      dup1\n      0x00\n      dup2\n      eq\n      tag_177\n      jumpi\n      mload(0x40)\n      swap2\n      pop\n      and(add(returndatasize, 0x3f), not(0x1f))\n      dup3\n      add\n      0x40\n      mstore\n      returndatasize\n      dup3\n      mstore\n      returndatasize\n      0x00\n      0x20\n      dup5\n      add\n      returndatacopy\n      jump(tag_176)\n    tag_177:\n      0x60\n      swap2\n      pop\n    tag_176:\n      pop\n        /* \"src/GuanoCore.sol\":2321:2377  (, bytes memory returnData) = to.call{value:value}(data) */\n      swap2\n      pop\n      pop\n        /* \"src/GuanoCore.sol\":2395:2405  returnData */\n      dup1\n        /* \"src/GuanoCore.sol\":2388:2405  return returnData */\n      swap2\n      pop\n      pop\n        /* \"src/GuanoCore.sol\":2207:2413  function customCall(address to,uint value,bytes calldata data) public onlyOwner returns (bytes memory) {... */\n      swap5\n      swap4\n      pop\n      pop\n      pop\n      pop\n      jump\t// out\n        /* \"https://github.com/Vectorized/solady/blob/main/src/tokens/ERC20.sol\":6907:7102  function totalSupply() public view virtual returns (uint256 result) {... */\n    tag_57:\n        /* \"https://github.com/Vectorized/solady/blob/main/src/tokens/ERC20.sol\":6959:6973  uint256 result */\n      0x00\n        /* \"https://github.com/Vectorized/solady/blob/main/src/tokens/ERC20.sol\":7067:7085  _TOTAL_SUPPLY_SLOT */\n      0x05345cdf77eb68f44c\n        /* \"https://github.com/Vectorized/solady/blob/main/src/tokens/ERC20.sol\":7061:7086  sload(_TOTAL_SUPPLY_SLOT) */\n      sload\n        /* \"https://github.com/Vectorized/solady/blob/main/src/tokens/ERC20.sol\":7051:7086  result := sload(_TOTAL_SUPPLY_SLOT) */\n      swap1\n      pop\n        /* \"https://github.com/Vectorized/solady/blob/main/src/tokens/ERC20.sol\":6907:7102  function totalSupply() public view virtual returns (uint256 result) {... */\n      swap1\n      jump\t// out\n        /* \"https://github.com/Vectorized/solady/blob/main/src/tokens/ERC20.sol\":11165:15918  function transferFrom(address from, address to, uint256 amount) public virtual returns (bool) {... */\n    tag_63:\n        /* \"https://github.com/Vectorized/solady/blob/main/src/tokens/ERC20.sol\":11253:11257  bool */\n      0x00\n        /* \"https://github.com/Vectorized/solady/blob/main/src/tokens/ERC20.sol\":11269:11307  _beforeTokenTransfer(from, to, amount) */\n      tag_180\n        /* \"https://github.com/Vectorized/solady/blob/main/src/tokens/ERC20.sol\":11290:11294  from */\n      dup5\n        /* \"https://github.com/Vectorized/solady/blob/main/src/tokens/ERC20.sol\":11296:11298  to */\n      dup5\n        /* \"https://github.com/Vectorized/solady/blob/main/src/tokens/ERC20.sol\":11300:11306  amount */\n      dup5\n        /* \"https://github.com/Vectorized/solady/blob/main/src/tokens/ERC20.sol\":11269:11289  _beforeTokenTransfer */\n      tag_181\n        /* \"https://github.com/Vectorized/solady/blob/main/src/tokens/ERC20.sol\":11269:11307  _beforeTokenTransfer(from, to, amount) */\n      jump\t// in\n    tag_180:\n        /* \"https://github.com/Vectorized/solady/blob/main/src/tokens/ERC20.sol\":11391:11422  _givePermit2InfiniteAllowance() */\n      tag_182\n        /* \"https://github.com/Vectorized/solady/blob/main/src/tokens/ERC20.sol\":11391:11420  _givePermit2InfiniteAllowance */\n      tag_166\n        /* \"https://github.com/Vectorized/solady/blob/main/src/tokens/ERC20.sol\":11391:11422  _givePermit2InfiniteAllowance() */\n      jump\t// in\n    tag_182:\n        /* \"https://github.com/Vectorized/solady/blob/main/src/tokens/ERC20.sol\":11387:15844  if (_givePermit2InfiniteAllowance()) {... */\n      iszero\n      tag_183\n      jumpi\n        /* \"https://github.com/Vectorized/solady/blob/main/src/tokens/ERC20.sol\":11533:11537  from */\n      dup4\n        /* \"https://github.com/Vectorized/solady/blob/main/src/tokens/ERC20.sol\":11529:11531  96 */\n      0x60\n        /* \"https://github.com/Vectorized/solady/blob/main/src/tokens/ERC20.sol\":11525:11538  shl(96, from) */\n      shl\n        /* \"https://github.com/Vectorized/solady/blob/main/src/tokens/ERC20.sol\":11578:11586  _PERMIT2 */\n      0x22d473030f116ddee9f6b43ac78ba3\n        /* \"https://github.com/Vectorized/solady/blob/main/src/tokens/ERC20.sol\":11568:11576  caller() */\n      caller\n        /* \"https://github.com/Vectorized/solady/blob/main/src/tokens/ERC20.sol\":11565:11587  eq(caller(), _PERMIT2) */\n      eq\n        /* \"https://github.com/Vectorized/solady/blob/main/src/tokens/ERC20.sol\":11555:12483  if iszero(eq(caller(), _PERMIT2)) {... */\n      tag_184\n      jumpi\n        /* \"https://github.com/Vectorized/solady/blob/main/src/tokens/ERC20.sol\":11694:11702  caller() */\n      caller\n        /* \"https://github.com/Vectorized/solady/blob/main/src/tokens/ERC20.sol\":11688:11692  0x20 */\n      0x20\n        /* \"https://github.com/Vectorized/solady/blob/main/src/tokens/ERC20.sol\":11681:11703  mstore(0x20, caller()) */\n      mstore\n        /* \"https://github.com/Vectorized/solady/blob/main/src/tokens/ERC20.sol\":11747:11767  _ALLOWANCE_SLOT_SEED */\n      0x7f5e9f20\n        /* \"https://github.com/Vectorized/solady/blob/main/src/tokens/ERC20.sol\":11740:11745  from_ */\n      dup2\n        /* \"https://github.com/Vectorized/solady/blob/main/src/tokens/ERC20.sol\":11737:11768  or(from_, _ALLOWANCE_SLOT_SEED) */\n      or\n        /* \"https://github.com/Vectorized/solady/blob/main/src/tokens/ERC20.sol\":11731:11735  0x0c */\n      0x0c\n        /* \"https://github.com/Vectorized/solady/blob/main/src/tokens/ERC20.sol\":11724:11769  mstore(0x0c, or(from_, _ALLOWANCE_SLOT_SEED)) */\n      mstore\n        /* \"https://github.com/Vectorized/solady/blob/main/src/tokens/ERC20.sol\":11827:11831  0x34 */\n      0x34\n        /* \"https://github.com/Vectorized/solady/blob/main/src/tokens/ERC20.sol\":11821:11825  0x0c */\n      0x0c\n        /* \"https://github.com/Vectorized/solady/blob/main/src/tokens/ERC20.sol\":11811:11832  keccak256(0x0c, 0x34) */\n      keccak256\n        /* \"https://github.com/Vectorized/solady/blob/main/src/tokens/ERC20.sol\":11877:11890  allowanceSlot */\n      dup1\n        /* \"https://github.com/Vectorized/solady/blob/main/src/tokens/ERC20.sol\":11871:11891  sload(allowanceSlot) */\n      sload\n        /* \"https://github.com/Vectorized/solady/blob/main/src/tokens/ERC20.sol\":11993:12003  allowance_ */\n      dup1\n        /* \"https://github.com/Vectorized/solady/blob/main/src/tokens/ERC20.sol\":11989:12004  not(allowance_) */\n      not\n        /* \"https://github.com/Vectorized/solady/blob/main/src/tokens/ERC20.sol\":11986:12465  if not(allowance_) {... */\n      iszero\n      tag_185\n      jumpi\n        /* \"https://github.com/Vectorized/solady/blob/main/src/tokens/ERC20.sol\":12134:12144  allowance_ */\n      dup1\n        /* \"https://github.com/Vectorized/solady/blob/main/src/tokens/ERC20.sol\":12126:12132  amount */\n      dup6\n        /* \"https://github.com/Vectorized/solady/blob/main/src/tokens/ERC20.sol\":12123:12145  gt(amount, allowance_) */\n      gt\n        /* \"https://github.com/Vectorized/solady/blob/main/src/tokens/ERC20.sol\":12120:12303  if gt(amount, allowance_) {... */\n      iszero\n      tag_186\n      jumpi\n        /* \"https://github.com/Vectorized/solady/blob/main/src/tokens/ERC20.sol\":12189:12199  0x13be252b */\n      0x13be252b\n        /* \"https://github.com/Vectorized/solady/blob/main/src/tokens/ERC20.sol\":12183:12187  0x00 */\n      0x00\n        /* \"https://github.com/Vectorized/solady/blob/main/src/tokens/ERC20.sol\":12176:12200  mstore(0x00, 0x13be252b) */\n      mstore\n        /* \"https://github.com/Vectorized/solady/blob/main/src/tokens/ERC20.sol\":12272:12276  0x04 */\n      0x04\n        /* \"https://github.com/Vectorized/solady/blob/main/src/tokens/ERC20.sol\":12266:12270  0x1c */\n      0x1c\n        /* \"https://github.com/Vectorized/solady/blob/main/src/tokens/ERC20.sol\":12259:12277  revert(0x1c, 0x04) */\n      revert\n        /* \"https://github.com/Vectorized/solady/blob/main/src/tokens/ERC20.sol\":12120:12303  if gt(amount, allowance_) {... */\n    tag_186:\n        /* \"https://github.com/Vectorized/solady/blob/main/src/tokens/ERC20.sol\":12435:12441  amount */\n      dup5\n        /* \"https://github.com/Vectorized/solady/blob/main/src/tokens/ERC20.sol\":12423:12433  allowance_ */\n      dup2\n        /* \"https://github.com/Vectorized/solady/blob/main/src/tokens/ERC20.sol\":12419:12442  sub(allowance_, amount) */\n      sub\n        /* \"https://github.com/Vectorized/solady/blob/main/src/tokens/ERC20.sol\":12404:12417  allowanceSlot */\n      dup3\n        /* \"https://github.com/Vectorized/solady/blob/main/src/tokens/ERC20.sol\":12397:12443  sstore(allowanceSlot, sub(allowance_, amount)) */\n      sstore\n        /* \"https://github.com/Vectorized/solady/blob/main/src/tokens/ERC20.sol\":11986:12465  if not(allowance_) {... */\n    tag_185:\n        /* \"https://github.com/Vectorized/solady/blob/main/src/tokens/ERC20.sol\":11589:12483  {... */\n      pop\n      pop\n        /* \"https://github.com/Vectorized/solady/blob/main/src/tokens/ERC20.sol\":11555:12483  if iszero(eq(caller(), _PERMIT2)) {... */\n    tag_184:\n        /* \"https://github.com/Vectorized/solady/blob/main/src/tokens/ERC20.sol\":12587:12605  _BALANCE_SLOT_SEED */\n      0x87a211a2\n        /* \"https://github.com/Vectorized/solady/blob/main/src/tokens/ERC20.sol\":12580:12585  from_ */\n      dup2\n        /* \"https://github.com/Vectorized/solady/blob/main/src/tokens/ERC20.sol\":12577:12606  or(from_, _BALANCE_SLOT_SEED) */\n      or\n        /* \"https://github.com/Vectorized/solady/blob/main/src/tokens/ERC20.sol\":12571:12575  0x0c */\n      0x0c\n        /* \"https://github.com/Vectorized/solady/blob/main/src/tokens/ERC20.sol\":12564:12607  mstore(0x0c, or(from_, _BALANCE_SLOT_SEED)) */\n      mstore\n        /* \"https://github.com/Vectorized/solady/blob/main/src/tokens/ERC20.sol\":12663:12667  0x20 */\n      0x20\n        /* \"https://github.com/Vectorized/solady/blob/main/src/tokens/ERC20.sol\":12657:12661  0x0c */\n      0x0c\n        /* \"https://github.com/Vectorized/solady/blob/main/src/tokens/ERC20.sol\":12647:12668  keccak256(0x0c, 0x20) */\n      keccak256\n        /* \"https://github.com/Vectorized/solady/blob/main/src/tokens/ERC20.sol\":12710:12725  fromBalanceSlot */\n      dup1\n        /* \"https://github.com/Vectorized/solady/blob/main/src/tokens/ERC20.sol\":12704:12726  sload(fromBalanceSlot) */\n      sload\n        /* \"https://github.com/Vectorized/solady/blob/main/src/tokens/ERC20.sol\":12808:12819  fromBalance */\n      dup1\n        /* \"https://github.com/Vectorized/solady/blob/main/src/tokens/ERC20.sol\":12800:12806  amount */\n      dup6\n        /* \"https://github.com/Vectorized/solady/blob/main/src/tokens/ERC20.sol\":12797:12820  gt(amount, fromBalance) */\n      gt\n        /* \"https://github.com/Vectorized/solady/blob/main/src/tokens/ERC20.sol\":12794:12952  if gt(amount, fromBalance) {... */\n      iszero\n      tag_187\n      jumpi\n        /* \"https://github.com/Vectorized/solady/blob/main/src/tokens/ERC20.sol\":12856:12866  0xf4d678b8 */\n      0xf4d678b8\n        /* \"https://github.com/Vectorized/solady/blob/main/src/tokens/ERC20.sol\":12850:12854  0x00 */\n      0x00\n        /* \"https://github.com/Vectorized/solady/blob/main/src/tokens/ERC20.sol\":12843:12867  mstore(0x00, 0xf4d678b8) */\n      mstore\n        /* \"https://github.com/Vectorized/solady/blob/main/src/tokens/ERC20.sol\":12929:12933  0x04 */\n      0x04\n        /* \"https://github.com/Vectorized/solady/blob/main/src/tokens/ERC20.sol\":12923:12927  0x1c */\n      0x1c\n        /* \"https://github.com/Vectorized/solady/blob/main/src/tokens/ERC20.sol\":12916:12934  revert(0x1c, 0x04) */\n      revert\n        /* \"https://github.com/Vectorized/solady/blob/main/src/tokens/ERC20.sol\":12794:12952  if gt(amount, fromBalance) {... */\n    tag_187:\n        /* \"https://github.com/Vectorized/solady/blob/main/src/tokens/ERC20.sol\":13069:13075  amount */\n      dup5\n        /* \"https://github.com/Vectorized/solady/blob/main/src/tokens/ERC20.sol\":13056:13067  fromBalance */\n      dup2\n        /* \"https://github.com/Vectorized/solady/blob/main/src/tokens/ERC20.sol\":13052:13076  sub(fromBalance, amount) */\n      sub\n        /* \"https://github.com/Vectorized/solady/blob/main/src/tokens/ERC20.sol\":13035:13050  fromBalanceSlot */\n      dup3\n        /* \"https://github.com/Vectorized/solady/blob/main/src/tokens/ERC20.sol\":13028:13077  sstore(fromBalanceSlot, sub(fromBalance, amount)) */\n      sstore\n        /* \"https://github.com/Vectorized/solady/blob/main/src/tokens/ERC20.sol\":13160:13162  to */\n      dup6\n        /* \"https://github.com/Vectorized/solady/blob/main/src/tokens/ERC20.sol\":13154:13158  0x00 */\n      0x00\n        /* \"https://github.com/Vectorized/solady/blob/main/src/tokens/ERC20.sol\":13147:13163  mstore(0x00, to) */\n      mstore\n        /* \"https://github.com/Vectorized/solady/blob/main/src/tokens/ERC20.sol\":13217:13221  0x20 */\n      0x20\n        /* \"https://github.com/Vectorized/solady/blob/main/src/tokens/ERC20.sol\":13211:13215  0x0c */\n      0x0c\n        /* \"https://github.com/Vectorized/solady/blob/main/src/tokens/ERC20.sol\":13201:13222  keccak256(0x0c, 0x20) */\n      keccak256\n        /* \"https://github.com/Vectorized/solady/blob/main/src/tokens/ERC20.sol\":13483:13489  amount */\n      dup6\n        /* \"https://github.com/Vectorized/solady/blob/main/src/tokens/ERC20.sol\":13467:13480  toBalanceSlot */\n      dup2\n        /* \"https://github.com/Vectorized/solady/blob/main/src/tokens/ERC20.sol\":13461:13481  sload(toBalanceSlot) */\n      sload\n        /* \"https://github.com/Vectorized/solady/blob/main/src/tokens/ERC20.sol\":13457:13490  add(sload(toBalanceSlot), amount) */\n      add\n        /* \"https://github.com/Vectorized/solady/blob/main/src/tokens/ERC20.sol\":13442:13455  toBalanceSlot */\n      dup2\n        /* \"https://github.com/Vectorized/solady/blob/main/src/tokens/ERC20.sol\":13435:13491  sstore(toBalanceSlot, add(sload(toBalanceSlot), amount)) */\n      sstore\n        /* \"https://github.com/Vectorized/solady/blob/main/src/tokens/ERC20.sol\":13567:13573  amount */\n      dup6\n        /* \"https://github.com/Vectorized/solady/blob/main/src/tokens/ERC20.sol\":13561:13565  0x20 */\n      0x20\n        /* \"https://github.com/Vectorized/solady/blob/main/src/tokens/ERC20.sol\":13554:13574  mstore(0x20, amount) */\n      mstore\n        /* \"https://github.com/Vectorized/solady/blob/main/src/tokens/ERC20.sol\":13665:13669  0x0c */\n      0x0c\n        /* \"https://github.com/Vectorized/solady/blob/main/src/tokens/ERC20.sol\":13659:13670  mload(0x0c) */\n      mload\n        /* \"https://github.com/Vectorized/solady/blob/main/src/tokens/ERC20.sol\":13655:13657  96 */\n      0x60\n        /* \"https://github.com/Vectorized/solady/blob/main/src/tokens/ERC20.sol\":13651:13671  shr(96, mload(0x0c)) */\n      shr\n        /* \"https://github.com/Vectorized/solady/blob/main/src/tokens/ERC20.sol\":13643:13648  from_ */\n      dup5\n        /* \"https://github.com/Vectorized/solady/blob/main/src/tokens/ERC20.sol\":13639:13641  96 */\n      0x60\n        /* \"https://github.com/Vectorized/solady/blob/main/src/tokens/ERC20.sol\":13635:13649  shr(96, from_) */\n      shr\n        /* \"https://github.com/Vectorized/solady/blob/main/src/tokens/ERC20.sol\":13608:13633  _TRANSFER_EVENT_SIGNATURE */\n      0xddf252ad1be2c89b69c2b068fc378daa952ba7f163c4a11628f55a4df523b3ef\n        /* \"https://github.com/Vectorized/solady/blob/main/src/tokens/ERC20.sol\":13602:13606  0x20 */\n      0x20\n        /* \"https://github.com/Vectorized/solady/blob/main/src/tokens/ERC20.sol\":13596:13600  0x20 */\n      dup1\n        /* \"https://github.com/Vectorized/solady/blob/main/src/tokens/ERC20.sol\":13591:13672  log3(0x20, 0x20, _TRANSFER_EVENT_SIGNATURE, shr(96, from_), shr(96, mload(0x0c))) */\n      log3\n        /* \"https://github.com/Vectorized/solady/blob/main/src/tokens/ERC20.sol\":11494:13686  {... */\n      pop\n      pop\n      pop\n      pop\n        /* \"https://github.com/Vectorized/solady/blob/main/src/tokens/ERC20.sol\":11387:15844  if (_givePermit2InfiniteAllowance()) {... */\n      jump(tag_188)\n    tag_183:\n        /* \"https://github.com/Vectorized/solady/blob/main/src/tokens/ERC20.sol\":13811:13815  from */\n      dup4\n        /* \"https://github.com/Vectorized/solady/blob/main/src/tokens/ERC20.sol\":13807:13809  96 */\n      0x60\n        /* \"https://github.com/Vectorized/solady/blob/main/src/tokens/ERC20.sol\":13803:13816  shl(96, from) */\n      shl\n        /* \"https://github.com/Vectorized/solady/blob/main/src/tokens/ERC20.sol\":13912:13920  caller() */\n      caller\n        /* \"https://github.com/Vectorized/solady/blob/main/src/tokens/ERC20.sol\":13906:13910  0x20 */\n      0x20\n        /* \"https://github.com/Vectorized/solady/blob/main/src/tokens/ERC20.sol\":13899:13921  mstore(0x20, caller()) */\n      mstore\n        /* \"https://github.com/Vectorized/solady/blob/main/src/tokens/ERC20.sol\":13961:13981  _ALLOWANCE_SLOT_SEED */\n      0x7f5e9f20\n        /* \"https://github.com/Vectorized/solady/blob/main/src/tokens/ERC20.sol\":13954:13959  from_ */\n      dup2\n        /* \"https://github.com/Vectorized/solady/blob/main/src/tokens/ERC20.sol\":13951:13982  or(from_, _ALLOWANCE_SLOT_SEED) */\n      or\n        /* \"https://github.com/Vectorized/solady/blob/main/src/tokens/ERC20.sol\":13945:13949  0x0c */\n      0x0c\n        /* \"https://github.com/Vectorized/solady/blob/main/src/tokens/ERC20.sol\":13938:13983  mstore(0x0c, or(from_, _ALLOWANCE_SLOT_SEED)) */\n      mstore\n        /* \"https://github.com/Vectorized/solady/blob/main/src/tokens/ERC20.sol\":14037:14041  0x34 */\n      0x34\n        /* \"https://github.com/Vectorized/solady/blob/main/src/tokens/ERC20.sol\":14031:14035  0x0c */\n      0x0c\n        /* \"https://github.com/Vectorized/solady/blob/main/src/tokens/ERC20.sol\":14021:14042  keccak256(0x0c, 0x34) */\n      keccak256\n        /* \"https://github.com/Vectorized/solady/blob/main/src/tokens/ERC20.sol\":14083:14096  allowanceSlot */\n      dup1\n        /* \"https://github.com/Vectorized/solady/blob/main/src/tokens/ERC20.sol\":14077:14097  sload(allowanceSlot) */\n      sload\n        /* \"https://github.com/Vectorized/solady/blob/main/src/tokens/ERC20.sol\":14191:14201  allowance_ */\n      dup1\n        /* \"https://github.com/Vectorized/solady/blob/main/src/tokens/ERC20.sol\":14187:14202  not(allowance_) */\n      not\n        /* \"https://github.com/Vectorized/solady/blob/main/src/tokens/ERC20.sol\":14184:14631  if not(allowance_) {... */\n      iszero\n      tag_189\n      jumpi\n        /* \"https://github.com/Vectorized/solady/blob/main/src/tokens/ERC20.sol\":14324:14334  allowance_ */\n      dup1\n        /* \"https://github.com/Vectorized/solady/blob/main/src/tokens/ERC20.sol\":14316:14322  amount */\n      dup6\n        /* \"https://github.com/Vectorized/solady/blob/main/src/tokens/ERC20.sol\":14313:14335  gt(amount, allowance_) */\n      gt\n        /* \"https://github.com/Vectorized/solady/blob/main/src/tokens/ERC20.sol\":14310:14481  if gt(amount, allowance_) {... */\n      iszero\n      tag_190\n      jumpi\n        /* \"https://github.com/Vectorized/solady/blob/main/src/tokens/ERC20.sol\":14375:14385  0x13be252b */\n      0x13be252b\n        /* \"https://github.com/Vectorized/solady/blob/main/src/tokens/ERC20.sol\":14369:14373  0x00 */\n      0x00\n        /* \"https://github.com/Vectorized/solady/blob/main/src/tokens/ERC20.sol\":14362:14386  mstore(0x00, 0x13be252b) */\n      mstore\n        /* \"https://github.com/Vectorized/solady/blob/main/src/tokens/ERC20.sol\":14454:14458  0x04 */\n      0x04\n        /* \"https://github.com/Vectorized/solady/blob/main/src/tokens/ERC20.sol\":14448:14452  0x1c */\n      0x1c\n        /* \"https://github.com/Vectorized/solady/blob/main/src/tokens/ERC20.sol\":14441:14459  revert(0x1c, 0x04) */\n      revert\n        /* \"https://github.com/Vectorized/solady/blob/main/src/tokens/ERC20.sol\":14310:14481  if gt(amount, allowance_) {... */\n    tag_190:\n        /* \"https://github.com/Vectorized/solady/blob/main/src/tokens/ERC20.sol\":14605:14611  amount */\n      dup5\n        /* \"https://github.com/Vectorized/solady/blob/main/src/tokens/ERC20.sol\":14593:14603  allowance_ */\n      dup2\n        /* \"https://github.com/Vectorized/solady/blob/main/src/tokens/ERC20.sol\":14589:14612  sub(allowance_, amount) */\n      sub\n        /* \"https://github.com/Vectorized/solady/blob/main/src/tokens/ERC20.sol\":14574:14587  allowanceSlot */\n      dup3\n        /* \"https://github.com/Vectorized/solady/blob/main/src/tokens/ERC20.sol\":14567:14613  sstore(allowanceSlot, sub(allowance_, amount)) */\n      sstore\n        /* \"https://github.com/Vectorized/solady/blob/main/src/tokens/ERC20.sol\":14184:14631  if not(allowance_) {... */\n    tag_189:\n        /* \"https://github.com/Vectorized/solady/blob/main/src/tokens/ERC20.sol\":14735:14753  _BALANCE_SLOT_SEED */\n      0x87a211a2\n        /* \"https://github.com/Vectorized/solady/blob/main/src/tokens/ERC20.sol\":14728:14733  from_ */\n      dup4\n        /* \"https://github.com/Vectorized/solady/blob/main/src/tokens/ERC20.sol\":14725:14754  or(from_, _BALANCE_SLOT_SEED) */\n      or\n        /* \"https://github.com/Vectorized/solady/blob/main/src/tokens/ERC20.sol\":14719:14723  0x0c */\n      0x0c\n        /* \"https://github.com/Vectorized/solady/blob/main/src/tokens/ERC20.sol\":14712:14755  mstore(0x0c, or(from_, _BALANCE_SLOT_SEED)) */\n      mstore\n        /* \"https://github.com/Vectorized/solady/blob/main/src/tokens/ERC20.sol\":14811:14815  0x20 */\n      0x20\n        /* \"https://github.com/Vectorized/solady/blob/main/src/tokens/ERC20.sol\":14805:14809  0x0c */\n      0x0c\n        /* \"https://github.com/Vectorized/solady/blob/main/src/tokens/ERC20.sol\":14795:14816  keccak256(0x0c, 0x20) */\n      keccak256\n        /* \"https://github.com/Vectorized/solady/blob/main/src/tokens/ERC20.sol\":14858:14873  fromBalanceSlot */\n      dup1\n        /* \"https://github.com/Vectorized/solady/blob/main/src/tokens/ERC20.sol\":14852:14874  sload(fromBalanceSlot) */\n      sload\n        /* \"https://github.com/Vectorized/solady/blob/main/src/tokens/ERC20.sol\":14956:14967  fromBalance */\n      dup1\n        /* \"https://github.com/Vectorized/solady/blob/main/src/tokens/ERC20.sol\":14948:14954  amount */\n      dup8\n        /* \"https://github.com/Vectorized/solady/blob/main/src/tokens/ERC20.sol\":14945:14968  gt(amount, fromBalance) */\n      gt\n        /* \"https://github.com/Vectorized/solady/blob/main/src/tokens/ERC20.sol\":14942:15100  if gt(amount, fromBalance) {... */\n      iszero\n      tag_191\n      jumpi\n        /* \"https://github.com/Vectorized/solady/blob/main/src/tokens/ERC20.sol\":15004:15014  0xf4d678b8 */\n      0xf4d678b8\n        /* \"https://github.com/Vectorized/solady/blob/main/src/tokens/ERC20.sol\":14998:15002  0x00 */\n      0x00\n        /* \"https://github.com/Vectorized/solady/blob/main/src/tokens/ERC20.sol\":14991:15015  mstore(0x00, 0xf4d678b8) */\n      mstore\n        /* \"https://github.com/Vectorized/solady/blob/main/src/tokens/ERC20.sol\":15077:15081  0x04 */\n      0x04\n        /* \"https://github.com/Vectorized/solady/blob/main/src/tokens/ERC20.sol\":15071:15075  0x1c */\n      0x1c\n        /* \"https://github.com/Vectorized/solady/blob/main/src/tokens/ERC20.sol\":15064:15082  revert(0x1c, 0x04) */\n      revert\n        /* \"https://github.com/Vectorized/solady/blob/main/src/tokens/ERC20.sol\":14942:15100  if gt(amount, fromBalance) {... */\n    tag_191:\n        /* \"https://github.com/Vectorized/solady/blob/main/src/tokens/ERC20.sol\":15217:15223  amount */\n      dup7\n        /* \"https://github.com/Vectorized/solady/blob/main/src/tokens/ERC20.sol\":15204:15215  fromBalance */\n      dup2\n        /* \"https://github.com/Vectorized/solady/blob/main/src/tokens/ERC20.sol\":15200:15224  sub(fromBalance, amount) */\n      sub\n        /* \"https://github.com/Vectorized/solady/blob/main/src/tokens/ERC20.sol\":15183:15198  fromBalanceSlot */\n      dup3\n        /* \"https://github.com/Vectorized/solady/blob/main/src/tokens/ERC20.sol\":15176:15225  sstore(fromBalanceSlot, sub(fromBalance, amount)) */\n      sstore\n        /* \"https://github.com/Vectorized/solady/blob/main/src/tokens/ERC20.sol\":15308:15310  to */\n      dup8\n        /* \"https://github.com/Vectorized/solady/blob/main/src/tokens/ERC20.sol\":15302:15306  0x00 */\n      0x00\n        /* \"https://github.com/Vectorized/solady/blob/main/src/tokens/ERC20.sol\":15295:15311  mstore(0x00, to) */\n      mstore\n        /* \"https://github.com/Vectorized/solady/blob/main/src/tokens/ERC20.sol\":15365:15369  0x20 */\n      0x20\n        /* \"https://github.com/Vectorized/solady/blob/main/src/tokens/ERC20.sol\":15359:15363  0x0c */\n      0x0c\n        /* \"https://github.com/Vectorized/solady/blob/main/src/tokens/ERC20.sol\":15349:15370  keccak256(0x0c, 0x20) */\n      keccak256\n        /* \"https://github.com/Vectorized/solady/blob/main/src/tokens/ERC20.sol\":15631:15637  amount */\n      dup8\n        /* \"https://github.com/Vectorized/solady/blob/main/src/tokens/ERC20.sol\":15615:15628  toBalanceSlot */\n      dup2\n        /* \"https://github.com/Vectorized/solady/blob/main/src/tokens/ERC20.sol\":15609:15629  sload(toBalanceSlot) */\n      sload\n        /* \"https://github.com/Vectorized/solady/blob/main/src/tokens/ERC20.sol\":15605:15638  add(sload(toBalanceSlot), amount) */\n      add\n        /* \"https://github.com/Vectorized/solady/blob/main/src/tokens/ERC20.sol\":15590:15603  toBalanceSlot */\n      dup2\n        /* \"https://github.com/Vectorized/solady/blob/main/src/tokens/ERC20.sol\":15583:15639  sstore(toBalanceSlot, add(sload(toBalanceSlot), amount)) */\n      sstore\n        /* \"https://github.com/Vectorized/solady/blob/main/src/tokens/ERC20.sol\":15715:15721  amount */\n      dup8\n        /* \"https://github.com/Vectorized/solady/blob/main/src/tokens/ERC20.sol\":15709:15713  0x20 */\n      0x20\n        /* \"https://github.com/Vectorized/solady/blob/main/src/tokens/ERC20.sol\":15702:15722  mstore(0x20, amount) */\n      mstore\n        /* \"https://github.com/Vectorized/solady/blob/main/src/tokens/ERC20.sol\":15813:15817  0x0c */\n      0x0c\n        /* \"https://github.com/Vectorized/solady/blob/main/src/tokens/ERC20.sol\":15807:15818  mload(0x0c) */\n      mload\n        /* \"https://github.com/Vectorized/solady/blob/main/src/tokens/ERC20.sol\":15803:15805  96 */\n      0x60\n        /* \"https://github.com/Vectorized/solady/blob/main/src/tokens/ERC20.sol\":15799:15819  shr(96, mload(0x0c)) */\n      shr\n        /* \"https://github.com/Vectorized/solady/blob/main/src/tokens/ERC20.sol\":15791:15796  from_ */\n      dup7\n        /* \"https://github.com/Vectorized/solady/blob/main/src/tokens/ERC20.sol\":15787:15789  96 */\n      0x60\n        /* \"https://github.com/Vectorized/solady/blob/main/src/tokens/ERC20.sol\":15783:15797  shr(96, from_) */\n      shr\n        /* \"https://github.com/Vectorized/solady/blob/main/src/tokens/ERC20.sol\":15756:15781  _TRANSFER_EVENT_SIGNATURE */\n      0xddf252ad1be2c89b69c2b068fc378daa952ba7f163c4a11628f55a4df523b3ef\n        /* \"https://github.com/Vectorized/solady/blob/main/src/tokens/ERC20.sol\":15750:15754  0x20 */\n      0x20\n        /* \"https://github.com/Vectorized/solady/blob/main/src/tokens/ERC20.sol\":15744:15748  0x20 */\n      dup1\n        /* \"https://github.com/Vectorized/solady/blob/main/src/tokens/ERC20.sol\":15739:15820  log3(0x20, 0x20, _TRANSFER_EVENT_SIGNATURE, shr(96, from_), shr(96, mload(0x0c))) */\n      log3\n        /* \"https://github.com/Vectorized/solady/blob/main/src/tokens/ERC20.sol\":13772:15834  {... */\n      pop\n      pop\n      pop\n      pop\n      pop\n      pop\n        /* \"https://github.com/Vectorized/solady/blob/main/src/tokens/ERC20.sol\":11387:15844  if (_givePermit2InfiniteAllowance()) {... */\n    tag_188:\n        /* \"https://github.com/Vectorized/solady/blob/main/src/tokens/ERC20.sol\":15853:15890  _afterTokenTransfer(from, to, amount) */\n      tag_192\n        /* \"https://github.com/Vectorized/solady/blob/main/src/tokens/ERC20.sol\":15873:15877  from */\n      dup5\n        /* \"https://github.com/Vectorized/solady/blob/main/src/tokens/ERC20.sol\":15879:15881  to */\n      dup5\n        /* \"https://github.com/Vectorized/solady/blob/main/src/tokens/ERC20.sol\":15883:15889  amount */\n      dup5\n        /* \"https://github.com/Vectorized/solady/blob/main/src/tokens/ERC20.sol\":15853:15872  _afterTokenTransfer */\n      tag_193\n        /* \"https://github.com/Vectorized/solady/blob/main/src/tokens/ERC20.sol\":15853:15890  _afterTokenTransfer(from, to, amount) */\n      jump\t// in\n    tag_192:\n        /* \"https://github.com/Vectorized/solady/blob/main/src/tokens/ERC20.sol\":15907:15911  true */\n      0x01\n        /* \"https://github.com/Vectorized/solady/blob/main/src/tokens/ERC20.sol\":15900:15911  return true */\n      swap1\n      pop\n        /* \"https://github.com/Vectorized/solady/blob/main/src/tokens/ERC20.sol\":11165:15918  function transferFrom(address from, address to, uint256 amount) public virtual returns (bool) {... */\n      swap4\n      swap3\n      pop\n      pop\n      pop\n      jump\t// out\n        /* \"https://github.com/Vectorized/solady/blob/main/src/tokens/ERC20.sol\":6480:6562  function decimals() public view virtual returns (uint8) {... */\n    tag_67:\n        /* \"https://github.com/Vectorized/solady/blob/main/src/tokens/ERC20.sol\":6529:6534  uint8 */\n      0x00\n        /* \"https://github.com/Vectorized/solady/blob/main/src/tokens/ERC20.sol\":6553:6555  18 */\n      0x12\n        /* \"https://github.com/Vectorized/solady/blob/main/src/tokens/ERC20.sol\":6546:6555  return 18 */\n      swap1\n      pop\n        /* \"https://github.com/Vectorized/solady/blob/main/src/tokens/ERC20.sol\":6480:6562  function decimals() public view virtual returns (uint8) {... */\n      swap1\n      jump\t// out\n        /* \"https://github.com/Vectorized/solady/blob/main/src/tokens/ERC20.sol\":21458:22195  function DOMAIN_SEPARATOR() public view virtual returns (bytes32 result) {... */\n    tag_72:\n        /* \"https://github.com/Vectorized/solady/blob/main/src/tokens/ERC20.sol\":21515:21529  bytes32 result */\n      0x00\n        /* \"https://github.com/Vectorized/solady/blob/main/src/tokens/ERC20.sol\":21541:21557  bytes32 nameHash */\n      0x00\n        /* \"https://github.com/Vectorized/solady/blob/main/src/tokens/ERC20.sol\":21560:21579  _constantNameHash() */\n      tag_196\n        /* \"https://github.com/Vectorized/solady/blob/main/src/tokens/ERC20.sol\":21560:21577  _constantNameHash */\n      tag_197\n        /* \"https://github.com/Vectorized/solady/blob/main/src/tokens/ERC20.sol\":21560:21579  _constantNameHash() */\n      jump\t// in\n    tag_196:\n        /* \"https://github.com/Vectorized/solady/blob/main/src/tokens/ERC20.sol\":21541:21579  bytes32 nameHash = _constantNameHash() */\n      swap1\n      pop\n        /* \"https://github.com/Vectorized/solady/blob/main/src/tokens/ERC20.sol\":21707:21708  0 */\n      0x00\n        /* \"https://github.com/Vectorized/solady/blob/main/src/tokens/ERC20.sol\":21699:21709  bytes32(0) */\n      0x00\n      shl\n        /* \"https://github.com/Vectorized/solady/blob/main/src/tokens/ERC20.sol\":21687:21695  nameHash */\n      dup2\n        /* \"https://github.com/Vectorized/solady/blob/main/src/tokens/ERC20.sol\":21687:21709  nameHash == bytes32(0) */\n      sub\n        /* \"https://github.com/Vectorized/solady/blob/main/src/tokens/ERC20.sol\":21683:21746  if (nameHash == bytes32(0)) nameHash = keccak256(bytes(name())) */\n      tag_198\n      jumpi\n        /* \"https://github.com/Vectorized/solady/blob/main/src/tokens/ERC20.sol\":21738:21744  name() */\n      tag_199\n        /* \"https://github.com/Vectorized/solady/blob/main/src/tokens/ERC20.sol\":21738:21742  name */\n      tag_31\n        /* \"https://github.com/Vectorized/solady/blob/main/src/tokens/ERC20.sol\":21738:21744  name() */\n      jump\t// in\n    tag_199:\n        /* \"https://github.com/Vectorized/solady/blob/main/src/tokens/ERC20.sol\":21722:21746  keccak256(bytes(name())) */\n      dup1\n      mload\n      swap1\n      0x20\n      add\n      keccak256\n        /* \"https://github.com/Vectorized/solady/blob/main/src/tokens/ERC20.sol\":21711:21746  nameHash = keccak256(bytes(name())) */\n      swap1\n      pop\n        /* \"https://github.com/Vectorized/solady/blob/main/src/tokens/ERC20.sol\":21683:21746  if (nameHash == bytes32(0)) nameHash = keccak256(bytes(name())) */\n    tag_198:\n        /* \"https://github.com/Vectorized/solady/blob/main/src/tokens/ERC20.sol\":21756:21775  bytes32 versionHash */\n      0x00\n        /* \"https://github.com/Vectorized/solady/blob/main/src/tokens/ERC20.sol\":21778:21792  _versionHash() */\n      tag_200\n        /* \"https://github.com/Vectorized/solady/blob/main/src/tokens/ERC20.sol\":21778:21790  _versionHash */\n      tag_201\n        /* \"https://github.com/Vectorized/solady/blob/main/src/tokens/ERC20.sol\":21778:21792  _versionHash() */\n      jump\t// in\n    tag_200:\n        /* \"https://github.com/Vectorized/solady/blob/main/src/tokens/ERC20.sol\":21756:21792  bytes32 versionHash = _versionHash() */\n      swap1\n      pop\n        /* \"https://github.com/Vectorized/solady/blob/main/src/tokens/ERC20.sol\":21883:21887  0x40 */\n      0x40\n        /* \"https://github.com/Vectorized/solady/blob/main/src/tokens/ERC20.sol\":21877:21888  mload(0x40) */\n      mload\n        /* \"https://github.com/Vectorized/solady/blob/main/src/tokens/ERC20.sol\":21944:21960  _DOMAIN_TYPEHASH */\n      0x8b73c3c69bb8fe3d512ecc4cf759cc79239f7b179b0ffacaa9a75d522b39400f\n        /* \"https://github.com/Vectorized/solady/blob/main/src/tokens/ERC20.sol\":21941:21942  m */\n      dup2\n        /* \"https://github.com/Vectorized/solady/blob/main/src/tokens/ERC20.sol\":21934:21961  mstore(m, _DOMAIN_TYPEHASH) */\n      mstore\n        /* \"https://github.com/Vectorized/solady/blob/main/src/tokens/ERC20.sol\":21995:22003  nameHash */\n      dup3\n        /* \"https://github.com/Vectorized/solady/blob/main/src/tokens/ERC20.sol\":21988:21992  0x20 */\n      0x20\n        /* \"https://github.com/Vectorized/solady/blob/main/src/tokens/ERC20.sol\":21985:21986  m */\n      dup3\n        /* \"https://github.com/Vectorized/solady/blob/main/src/tokens/ERC20.sol\":21981:21993  add(m, 0x20) */\n      add\n        /* \"https://github.com/Vectorized/solady/blob/main/src/tokens/ERC20.sol\":21974:22004  mstore(add(m, 0x20), nameHash) */\n      mstore\n        /* \"https://github.com/Vectorized/solady/blob/main/src/tokens/ERC20.sol\":22038:22049  versionHash */\n      dup2\n        /* \"https://github.com/Vectorized/solady/blob/main/src/tokens/ERC20.sol\":22031:22035  0x40 */\n      0x40\n        /* \"https://github.com/Vectorized/solady/blob/main/src/tokens/ERC20.sol\":22028:22029  m */\n      dup3\n        /* \"https://github.com/Vectorized/solady/blob/main/src/tokens/ERC20.sol\":22024:22036  add(m, 0x40) */\n      add\n        /* \"https://github.com/Vectorized/solady/blob/main/src/tokens/ERC20.sol\":22017:22050  mstore(add(m, 0x40), versionHash) */\n      mstore\n        /* \"https://github.com/Vectorized/solady/blob/main/src/tokens/ERC20.sol\":22084:22093  chainid() */\n      chainid\n        /* \"https://github.com/Vectorized/solady/blob/main/src/tokens/ERC20.sol\":22077:22081  0x60 */\n      0x60\n        /* \"https://github.com/Vectorized/solady/blob/main/src/tokens/ERC20.sol\":22074:22075  m */\n      dup3\n        /* \"https://github.com/Vectorized/solady/blob/main/src/tokens/ERC20.sol\":22070:22082  add(m, 0x60) */\n      add\n        /* \"https://github.com/Vectorized/solady/blob/main/src/tokens/ERC20.sol\":22063:22094  mstore(add(m, 0x60), chainid()) */\n      mstore\n        /* \"https://github.com/Vectorized/solady/blob/main/src/tokens/ERC20.sol\":22128:22137  address() */\n      address\n        /* \"https://github.com/Vectorized/solady/blob/main/src/tokens/ERC20.sol\":22121:22125  0x80 */\n      0x80\n        /* \"https://github.com/Vectorized/solady/blob/main/src/tokens/ERC20.sol\":22118:22119  m */\n      dup3\n        /* \"https://github.com/Vectorized/solady/blob/main/src/tokens/ERC20.sol\":22114:22126  add(m, 0x80) */\n      add\n        /* \"https://github.com/Vectorized/solady/blob/main/src/tokens/ERC20.sol\":22107:22138  mstore(add(m, 0x80), address()) */\n      mstore\n        /* \"https://github.com/Vectorized/solady/blob/main/src/tokens/ERC20.sol\":22174:22178  0xa0 */\n      0xa0\n        /* \"https://github.com/Vectorized/solady/blob/main/src/tokens/ERC20.sol\":22171:22172  m */\n      dup2\n        /* \"https://github.com/Vectorized/solady/blob/main/src/tokens/ERC20.sol\":22161:22179  keccak256(m, 0xa0) */\n      keccak256\n        /* \"https://github.com/Vectorized/solady/blob/main/src/tokens/ERC20.sol\":22151:22179  result := keccak256(m, 0xa0) */\n      swap4\n      pop\n        /* \"https://github.com/Vectorized/solady/blob/main/src/tokens/ERC20.sol\":21854:22189  {... */\n      pop\n      pop\n      pop\n        /* \"https://github.com/Vectorized/solady/blob/main/src/tokens/ERC20.sol\":21458:22195  function DOMAIN_SEPARATOR() public view virtual returns (bytes32 result) {... */\n      swap1\n      jump\t// out\n        /* \"src/GuanoCore.sol\":4256:4368  function previewRedeem(uint shares) public view returns (uint) {... */\n    tag_78:\n        /* \"src/GuanoCore.sol\":4313:4317  uint */\n      0x00\n        /* \"src/GuanoCore.sol\":4337:4360  convertToAssets(shares) */\n      tag_203\n        /* \"src/GuanoCore.sol\":4353:4359  shares */\n      dup3\n        /* \"src/GuanoCore.sol\":4337:4352  convertToAssets */\n      tag_38\n        /* \"src/GuanoCore.sol\":4337:4360  convertToAssets(shares) */\n      jump\t// in\n    tag_203:\n        /* \"src/GuanoCore.sol\":4330:4360  return convertToAssets(shares) */\n      swap1\n      pop\n        /* \"src/GuanoCore.sol\":4256:4368  function previewRedeem(uint shares) public view returns (uint) {... */\n      swap2\n      swap1\n      pop\n      jump\t// out\n        /* \"src/GuanoCore.sol\":3310:3713  function deposit(uint assets,address receiver) payable public returns (uint) {... */\n    tag_83:\n        /* \"src/GuanoCore.sol\":3381:3385  uint */\n      0x00\n        /* \"src/GuanoCore.sol\":3398:3409  uint shares */\n      0x00\n        /* \"src/GuanoCore.sol\":3412:3437  previewDeposit(msg.value) */\n      tag_205\n        /* \"src/GuanoCore.sol\":3427:3436  msg.value */\n      callvalue\n        /* \"src/GuanoCore.sol\":3412:3426  previewDeposit */\n      tag_148\n        /* \"src/GuanoCore.sol\":3412:3437  previewDeposit(msg.value) */\n      jump\t// in\n    tag_205:\n        /* \"src/GuanoCore.sol\":3398:3437  uint shares = previewDeposit(msg.value) */\n      swap1\n      pop\n        /* \"src/GuanoCore.sol\":3510:3516  shares */\n      dup1\n        /* \"src/GuanoCore.sol\":3497:3508  totalMinted */\n      0x01\n      0x00\n        /* \"src/GuanoCore.sol\":3497:3516  totalMinted+=shares */\n      dup3\n      dup3\n      sload\n      tag_206\n      swap2\n      swap1\n      tag_157\n      jump\t// in\n    tag_206:\n      swap3\n      pop\n      pop\n      dup2\n      swap1\n      sstore\n      pop\n        /* \"src/GuanoCore.sol\":3543:3552  msg.value */\n      callvalue\n        /* \"src/GuanoCore.sol\":3527:3541  totalDeposited */\n      0x02\n      0x00\n        /* \"src/GuanoCore.sol\":3527:3552  totalDeposited+=msg.value */\n      dup3\n      dup3\n      sload\n      tag_207\n      swap2\n      swap1\n      tag_157\n      jump\t// in\n    tag_207:\n      swap3\n      pop\n      pop\n      dup2\n      swap1\n      sstore\n      pop\n        /* \"src/GuanoCore.sol\":3563:3586  _mint(receiver, shares) */\n      tag_208\n        /* \"src/GuanoCore.sol\":3569:3577  receiver */\n      dup4\n        /* \"src/GuanoCore.sol\":3579:3585  shares */\n      dup3\n        /* \"src/GuanoCore.sol\":3563:3568  _mint */\n      tag_209\n        /* \"src/GuanoCore.sol\":3563:3586  _mint(receiver, shares) */\n      jump\t// in\n    tag_208:\n        /* \"src/GuanoCore.sol\":3653:3661  receiver */\n      dup3\n        /* \"src/GuanoCore.sol\":3634:3679  Deposit(msg.sender,receiver,msg.value,shares) */\n      0xffffffffffffffffffffffffffffffffffffffff\n      and\n        /* \"src/GuanoCore.sol\":3642:3652  msg.sender */\n      caller\n        /* \"src/GuanoCore.sol\":3634:3679  Deposit(msg.sender,receiver,msg.value,shares) */\n      0xffffffffffffffffffffffffffffffffffffffff\n      and\n      0xdcbc1c05240f31ff3ad067ef1ee35ce4997762752e3a095284754544f4c709d7\n        /* \"src/GuanoCore.sol\":3662:3671  msg.value */\n      callvalue\n        /* \"src/GuanoCore.sol\":3672:3678  shares */\n      dup5\n        /* \"src/GuanoCore.sol\":3634:3679  Deposit(msg.sender,receiver,msg.value,shares) */\n      mload(0x40)\n      tag_210\n      swap3\n      swap2\n      swap1\n      tag_211\n      jump\t// in\n    tag_210:\n      mload(0x40)\n      dup1\n      swap2\n      sub\n      swap1\n      log3\n        /* \"src/GuanoCore.sol\":3699:3705  shares */\n      dup1\n        /* \"src/GuanoCore.sol\":3692:3705  return shares */\n      swap2\n      pop\n      pop\n        /* \"src/GuanoCore.sol\":3310:3713  function deposit(uint assets,address receiver) payable public returns (uint) {... */\n      swap3\n      swap2\n      pop\n      pop\n      jump\t// out\n        /* \"https://github.com/Vectorized/solady/blob/main/src/tokens/ERC20.sol\":7168:7454  function balanceOf(address owner) public view virtual returns (uint256 result) {... */\n    tag_89:\n        /* \"https://github.com/Vectorized/solady/blob/main/src/tokens/ERC20.sol\":7231:7245  uint256 result */\n      0x00\n        /* \"https://github.com/Vectorized/solady/blob/main/src/tokens/ERC20.sol\":7336:7354  _BALANCE_SLOT_SEED */\n      0x87a211a2\n        /* \"https://github.com/Vectorized/solady/blob/main/src/tokens/ERC20.sol\":7330:7334  0x0c */\n      0x0c\n        /* \"https://github.com/Vectorized/solady/blob/main/src/tokens/ERC20.sol\":7323:7355  mstore(0x0c, _BALANCE_SLOT_SEED) */\n      mstore\n        /* \"https://github.com/Vectorized/solady/blob/main/src/tokens/ERC20.sol\":7381:7386  owner */\n      dup2\n        /* \"https://github.com/Vectorized/solady/blob/main/src/tokens/ERC20.sol\":7375:7379  0x00 */\n      0x00\n        /* \"https://github.com/Vectorized/solady/blob/main/src/tokens/ERC20.sol\":7368:7387  mstore(0x00, owner) */\n      mstore\n        /* \"https://github.com/Vectorized/solady/blob/main/src/tokens/ERC20.sol\":7432:7436  0x20 */\n      0x20\n        /* \"https://github.com/Vectorized/solady/blob/main/src/tokens/ERC20.sol\":7426:7430  0x0c */\n      0x0c\n        /* \"https://github.com/Vectorized/solady/blob/main/src/tokens/ERC20.sol\":7416:7437  keccak256(0x0c, 0x20) */\n      keccak256\n        /* \"https://github.com/Vectorized/solady/blob/main/src/tokens/ERC20.sol\":7410:7438  sload(keccak256(0x0c, 0x20)) */\n      sload\n        /* \"https://github.com/Vectorized/solady/blob/main/src/tokens/ERC20.sol\":7400:7438  result := sload(keccak256(0x0c, 0x20)) */\n      swap1\n      pop\n        /* \"https://github.com/Vectorized/solady/blob/main/src/tokens/ERC20.sol\":7168:7454  function balanceOf(address owner) public view virtual returns (uint256 result) {... */\n      swap2\n      swap1\n      pop\n      jump\t// out\n        /* \"@openzeppelin/contracts/access/Ownable.sol\":2293:2394  function renounceOwnership() public virtual onlyOwner {... */\n    tag_93:\n        /* \"@openzeppelin/contracts/access/Ownable.sol\":1531:1544  _checkOwner() */\n      tag_214\n        /* \"@openzeppelin/contracts/access/Ownable.sol\":1531:1542  _checkOwner */\n      tag_171\n        /* \"@openzeppelin/contracts/access/Ownable.sol\":1531:1544  _checkOwner() */\n      jump\t// in\n    tag_214:\n        /* \"@openzeppelin/contracts/access/Ownable.sol\":2357:2387  _transferOwnership(address(0)) */\n      tag_216\n        /* \"@openzeppelin/contracts/access/Ownable.sol\":2384:2385  0 */\n      0x00\n        /* \"@openzeppelin/contracts/access/Ownable.sol\":2357:2375  _transferOwnership */\n      tag_217\n        /* \"@openzeppelin/contracts/access/Ownable.sol\":2357:2387  _transferOwnership(address(0)) */\n      jump\t// in\n    tag_216:\n        /* \"@openzeppelin/contracts/access/Ownable.sol\":2293:2394  function renounceOwnership() public virtual onlyOwner {... */\n      jump\t// out\n        /* \"https://github.com/Vectorized/solady/blob/main/src/tokens/ERC20.sol\":17137:17477  function nonces(address owner) public view virtual returns (uint256 result) {... */\n    tag_97:\n        /* \"https://github.com/Vectorized/solady/blob/main/src/tokens/ERC20.sol\":17197:17211  uint256 result */\n      0x00\n        /* \"https://github.com/Vectorized/solady/blob/main/src/tokens/ERC20.sol\":17360:17377  _NONCES_SLOT_SEED */\n      0x38377508\n        /* \"https://github.com/Vectorized/solady/blob/main/src/tokens/ERC20.sol\":17354:17358  0x0c */\n      0x0c\n        /* \"https://github.com/Vectorized/solady/blob/main/src/tokens/ERC20.sol\":17347:17378  mstore(0x0c, _NONCES_SLOT_SEED) */\n      mstore\n        /* \"https://github.com/Vectorized/solady/blob/main/src/tokens/ERC20.sol\":17404:17409  owner */\n      dup2\n        /* \"https://github.com/Vectorized/solady/blob/main/src/tokens/ERC20.sol\":17398:17402  0x00 */\n      0x00\n        /* \"https://github.com/Vectorized/solady/blob/main/src/tokens/ERC20.sol\":17391:17410  mstore(0x00, owner) */\n      mstore\n        /* \"https://github.com/Vectorized/solady/blob/main/src/tokens/ERC20.sol\":17455:17459  0x20 */\n      0x20\n        /* \"https://github.com/Vectorized/solady/blob/main/src/tokens/ERC20.sol\":17449:17453  0x0c */\n      0x0c\n        /* \"https://github.com/Vectorized/solady/blob/main/src/tokens/ERC20.sol\":17439:17460  keccak256(0x0c, 0x20) */\n      keccak256\n        /* \"https://github.com/Vectorized/solady/blob/main/src/tokens/ERC20.sol\":17433:17461  sload(keccak256(0x0c, 0x20)) */\n      sload\n        /* \"https://github.com/Vectorized/solady/blob/main/src/tokens/ERC20.sol\":17423:17461  result := sload(keccak256(0x0c, 0x20)) */\n      swap1\n      pop\n        /* \"https://github.com/Vectorized/solady/blob/main/src/tokens/ERC20.sol\":17137:17477  function nonces(address owner) public view virtual returns (uint256 result) {... */\n      swap2\n      swap1\n      pop\n      jump\t// out\n        /* \"@openzeppelin/contracts/access/Ownable.sol\":1638:1723  function owner() public view virtual returns (address) {... */\n    tag_101:\n        /* \"@openzeppelin/contracts/access/Ownable.sol\":1684:1691  address */\n      0x00\n        /* \"@openzeppelin/contracts/access/Ownable.sol\":1710:1716  _owner */\n      0x00\n      0x00\n      swap1\n      sload\n      swap1\n      0x0100\n      exp\n      swap1\n      div\n      0xffffffffffffffffffffffffffffffffffffffff\n      and\n        /* \"@openzeppelin/contracts/access/Ownable.sol\":1703:1716  return _owner */\n      swap1\n      pop\n        /* \"@openzeppelin/contracts/access/Ownable.sol\":1638:1723  function owner() public view virtual returns (address) {... */\n      swap1\n      jump\t// out\n        /* \"src/GuanoCore.sol\":2532:2627  function symbol() public pure override returns (string memory){... */\n    tag_106:\n        /* \"src/GuanoCore.sol\":2580:2593  string memory */\n      0x60\n        /* \"src/GuanoCore.sol\":2605:2619  return \"GUANO\" */\n      mload(0x40)\n      dup1\n      0x40\n      add\n      0x40\n      mstore\n      dup1\n      0x05\n      dup2\n      mstore\n      0x20\n      add\n      0x4755414e4f000000000000000000000000000000000000000000000000000000\n      dup2\n      mstore\n      pop\n      swap1\n      pop\n        /* \"src/GuanoCore.sol\":2532:2627  function symbol() public pure override returns (string memory){... */\n      swap1\n      jump\t// out\n        /* \"https://github.com/Vectorized/solady/blob/main/src/tokens/ERC20.sol\":9391:10797  function transfer(address to, uint256 amount) public virtual returns (bool) {... */\n    tag_111:\n        /* \"https://github.com/Vectorized/solady/blob/main/src/tokens/ERC20.sol\":9461:9465  bool */\n      0x00\n        /* \"https://github.com/Vectorized/solady/blob/main/src/tokens/ERC20.sol\":9477:9521  _beforeTokenTransfer(msg.sender, to, amount) */\n      tag_222\n        /* \"https://github.com/Vectorized/solady/blob/main/src/tokens/ERC20.sol\":9498:9508  msg.sender */\n      caller\n        /* \"https://github.com/Vectorized/solady/blob/main/src/tokens/ERC20.sol\":9510:9512  to */\n      dup5\n        /* \"https://github.com/Vectorized/solady/blob/main/src/tokens/ERC20.sol\":9514:9520  amount */\n      dup5\n        /* \"https://github.com/Vectorized/solady/blob/main/src/tokens/ERC20.sol\":9477:9497  _beforeTokenTransfer */\n      tag_181\n        /* \"https://github.com/Vectorized/solady/blob/main/src/tokens/ERC20.sol\":9477:9521  _beforeTokenTransfer(msg.sender, to, amount) */\n      jump\t// in\n    tag_222:\n        /* \"https://github.com/Vectorized/solady/blob/main/src/tokens/ERC20.sol\":9670:9688  _BALANCE_SLOT_SEED */\n      0x87a211a2\n        /* \"https://github.com/Vectorized/solady/blob/main/src/tokens/ERC20.sol\":9664:9668  0x0c */\n      0x0c\n        /* \"https://github.com/Vectorized/solady/blob/main/src/tokens/ERC20.sol\":9657:9689  mstore(0x0c, _BALANCE_SLOT_SEED) */\n      mstore\n        /* \"https://github.com/Vectorized/solady/blob/main/src/tokens/ERC20.sol\":9715:9723  caller() */\n      caller\n        /* \"https://github.com/Vectorized/solady/blob/main/src/tokens/ERC20.sol\":9709:9713  0x00 */\n      0x00\n        /* \"https://github.com/Vectorized/solady/blob/main/src/tokens/ERC20.sol\":9702:9724  mstore(0x00, caller()) */\n      mstore\n        /* \"https://github.com/Vectorized/solady/blob/main/src/tokens/ERC20.sol\":9776:9780  0x20 */\n      0x20\n        /* \"https://github.com/Vectorized/solady/blob/main/src/tokens/ERC20.sol\":9770:9774  0x0c */\n      0x0c\n        /* \"https://github.com/Vectorized/solady/blob/main/src/tokens/ERC20.sol\":9760:9781  keccak256(0x0c, 0x20) */\n      keccak256\n        /* \"https://github.com/Vectorized/solady/blob/main/src/tokens/ERC20.sol\":9819:9834  fromBalanceSlot */\n      dup1\n        /* \"https://github.com/Vectorized/solady/blob/main/src/tokens/ERC20.sol\":9813:9835  sload(fromBalanceSlot) */\n      sload\n        /* \"https://github.com/Vectorized/solady/blob/main/src/tokens/ERC20.sol\":9909:9920  fromBalance */\n      dup1\n        /* \"https://github.com/Vectorized/solady/blob/main/src/tokens/ERC20.sol\":9901:9907  amount */\n      dup5\n        /* \"https://github.com/Vectorized/solady/blob/main/src/tokens/ERC20.sol\":9898:9921  gt(amount, fromBalance) */\n      gt\n        /* \"https://github.com/Vectorized/solady/blob/main/src/tokens/ERC20.sol\":9895:10041  if gt(amount, fromBalance) {... */\n      iszero\n      tag_223\n      jumpi\n        /* \"https://github.com/Vectorized/solady/blob/main/src/tokens/ERC20.sol\":9953:9963  0xf4d678b8 */\n      0xf4d678b8\n        /* \"https://github.com/Vectorized/solady/blob/main/src/tokens/ERC20.sol\":9947:9951  0x00 */\n      0x00\n        /* \"https://github.com/Vectorized/solady/blob/main/src/tokens/ERC20.sol\":9940:9964  mstore(0x00, 0xf4d678b8) */\n      mstore\n        /* \"https://github.com/Vectorized/solady/blob/main/src/tokens/ERC20.sol\":10022:10026  0x04 */\n      0x04\n        /* \"https://github.com/Vectorized/solady/blob/main/src/tokens/ERC20.sol\":10016:10020  0x1c */\n      0x1c\n        /* \"https://github.com/Vectorized/solady/blob/main/src/tokens/ERC20.sol\":10009:10027  revert(0x1c, 0x04) */\n      revert\n        /* \"https://github.com/Vectorized/solady/blob/main/src/tokens/ERC20.sol\":9895:10041  if gt(amount, fromBalance) {... */\n    tag_223:\n        /* \"https://github.com/Vectorized/solady/blob/main/src/tokens/ERC20.sol\":10150:10156  amount */\n      dup4\n        /* \"https://github.com/Vectorized/solady/blob/main/src/tokens/ERC20.sol\":10137:10148  fromBalance */\n      dup2\n        /* \"https://github.com/Vectorized/solady/blob/main/src/tokens/ERC20.sol\":10133:10157  sub(fromBalance, amount) */\n      sub\n        /* \"https://github.com/Vectorized/solady/blob/main/src/tokens/ERC20.sol\":10116:10131  fromBalanceSlot */\n      dup3\n        /* \"https://github.com/Vectorized/solady/blob/main/src/tokens/ERC20.sol\":10109:10158  sstore(fromBalanceSlot, sub(fromBalance, amount)) */\n      sstore\n        /* \"https://github.com/Vectorized/solady/blob/main/src/tokens/ERC20.sol\":10233:10235  to */\n      dup5\n        /* \"https://github.com/Vectorized/solady/blob/main/src/tokens/ERC20.sol\":10227:10231  0x00 */\n      0x00\n        /* \"https://github.com/Vectorized/solady/blob/main/src/tokens/ERC20.sol\":10220:10236  mstore(0x00, to) */\n      mstore\n        /* \"https://github.com/Vectorized/solady/blob/main/src/tokens/ERC20.sol\":10286:10290  0x20 */\n      0x20\n        /* \"https://github.com/Vectorized/solady/blob/main/src/tokens/ERC20.sol\":10280:10284  0x0c */\n      0x0c\n        /* \"https://github.com/Vectorized/solady/blob/main/src/tokens/ERC20.sol\":10270:10291  keccak256(0x0c, 0x20) */\n      keccak256\n        /* \"https://github.com/Vectorized/solady/blob/main/src/tokens/ERC20.sol\":10536:10542  amount */\n      dup5\n        /* \"https://github.com/Vectorized/solady/blob/main/src/tokens/ERC20.sol\":10520:10533  toBalanceSlot */\n      dup2\n        /* \"https://github.com/Vectorized/solady/blob/main/src/tokens/ERC20.sol\":10514:10534  sload(toBalanceSlot) */\n      sload\n        /* \"https://github.com/Vectorized/solady/blob/main/src/tokens/ERC20.sol\":10510:10543  add(sload(toBalanceSlot), amount) */\n      add\n        /* \"https://github.com/Vectorized/solady/blob/main/src/tokens/ERC20.sol\":10495:10508  toBalanceSlot */\n      dup2\n        /* \"https://github.com/Vectorized/solady/blob/main/src/tokens/ERC20.sol\":10488:10544  sstore(toBalanceSlot, add(sload(toBalanceSlot), amount)) */\n      sstore\n        /* \"https://github.com/Vectorized/solady/blob/main/src/tokens/ERC20.sol\":10612:10618  amount */\n      dup5\n        /* \"https://github.com/Vectorized/solady/blob/main/src/tokens/ERC20.sol\":10606:10610  0x20 */\n      0x20\n        /* \"https://github.com/Vectorized/solady/blob/main/src/tokens/ERC20.sol\":10599:10619  mstore(0x20, amount) */\n      mstore\n        /* \"https://github.com/Vectorized/solady/blob/main/src/tokens/ERC20.sol\":10700:10704  0x0c */\n      0x0c\n        /* \"https://github.com/Vectorized/solady/blob/main/src/tokens/ERC20.sol\":10694:10705  mload(0x0c) */\n      mload\n        /* \"https://github.com/Vectorized/solady/blob/main/src/tokens/ERC20.sol\":10690:10692  96 */\n      0x60\n        /* \"https://github.com/Vectorized/solady/blob/main/src/tokens/ERC20.sol\":10686:10706  shr(96, mload(0x0c)) */\n      shr\n        /* \"https://github.com/Vectorized/solady/blob/main/src/tokens/ERC20.sol\":10676:10684  caller() */\n      caller\n        /* \"https://github.com/Vectorized/solady/blob/main/src/tokens/ERC20.sol\":10649:10674  _TRANSFER_EVENT_SIGNATURE */\n      0xddf252ad1be2c89b69c2b068fc378daa952ba7f163c4a11628f55a4df523b3ef\n        /* \"https://github.com/Vectorized/solady/blob/main/src/tokens/ERC20.sol\":10643:10647  0x20 */\n      0x20\n        /* \"https://github.com/Vectorized/solady/blob/main/src/tokens/ERC20.sol\":10637:10641  0x20 */\n      dup1\n        /* \"https://github.com/Vectorized/solady/blob/main/src/tokens/ERC20.sol\":10632:10707  log3(0x20, 0x20, _TRANSFER_EVENT_SIGNATURE, caller(), shr(96, mload(0x0c))) */\n      log3\n        /* \"https://github.com/Vectorized/solady/blob/main/src/tokens/ERC20.sol\":9583:10717  {... */\n      pop\n      pop\n      pop\n        /* \"https://github.com/Vectorized/solady/blob/main/src/tokens/ERC20.sol\":10726:10769  _afterTokenTransfer(msg.sender, to, amount) */\n      tag_224\n        /* \"https://github.com/Vectorized/solady/blob/main/src/tokens/ERC20.sol\":10746:10756  msg.sender */\n      caller\n        /* \"https://github.com/Vectorized/solady/blob/main/src/tokens/ERC20.sol\":10758:10760  to */\n      dup5\n        /* \"https://github.com/Vectorized/solady/blob/main/src/tokens/ERC20.sol\":10762:10768  amount */\n      dup5\n        /* \"https://github.com/Vectorized/solady/blob/main/src/tokens/ERC20.sol\":10726:10745  _afterTokenTransfer */\n      tag_193\n        /* \"https://github.com/Vectorized/solady/blob/main/src/tokens/ERC20.sol\":10726:10769  _afterTokenTransfer(msg.sender, to, amount) */\n      jump\t// in\n    tag_224:\n        /* \"https://github.com/Vectorized/solady/blob/main/src/tokens/ERC20.sol\":10786:10790  true */\n      0x01\n        /* \"https://github.com/Vectorized/solady/blob/main/src/tokens/ERC20.sol\":10779:10790  return true */\n      swap1\n      pop\n        /* \"https://github.com/Vectorized/solady/blob/main/src/tokens/ERC20.sol\":9391:10797  function transfer(address to, uint256 amount) public virtual returns (bool) {... */\n      swap3\n      swap2\n      pop\n      pop\n      jump\t// out\n        /* \"src/GuanoCore.sol\":4376:5035  function redeem(uint shares, address receiver,address owner) public returns (uint) {... */\n    tag_117:\n        /* \"src/GuanoCore.sol\":4453:4457  uint */\n      0x00\n        /* \"src/GuanoCore.sol\":4470:4481  uint assets */\n      0x00\n        /* \"src/GuanoCore.sol\":4484:4505  previewRedeem(shares) */\n      tag_226\n        /* \"src/GuanoCore.sol\":4498:4504  shares */\n      dup6\n        /* \"src/GuanoCore.sol\":4484:4497  previewRedeem */\n      tag_78\n        /* \"src/GuanoCore.sol\":4484:4505  previewRedeem(shares) */\n      jump\t// in\n    tag_226:\n        /* \"src/GuanoCore.sol\":4470:4505  uint assets = previewRedeem(shares) */\n      swap1\n      pop\n        /* \"src/GuanoCore.sol\":4553:4558  owner */\n      dup3\n        /* \"src/GuanoCore.sol\":4541:4558  msg.sender!=owner */\n      0xffffffffffffffffffffffffffffffffffffffff\n      and\n        /* \"src/GuanoCore.sol\":4541:4551  msg.sender */\n      caller\n        /* \"src/GuanoCore.sol\":4541:4558  msg.sender!=owner */\n      0xffffffffffffffffffffffffffffffffffffffff\n      and\n      eq\n        /* \"src/GuanoCore.sol\":4538:4602  if(msg.sender!=owner) _spendAllowance(owner, msg.sender, shares) */\n      tag_227\n      jumpi\n        /* \"src/GuanoCore.sol\":4560:4602  _spendAllowance(owner, msg.sender, shares) */\n      tag_228\n        /* \"src/GuanoCore.sol\":4576:4581  owner */\n      dup4\n        /* \"src/GuanoCore.sol\":4583:4593  msg.sender */\n      caller\n        /* \"src/GuanoCore.sol\":4595:4601  shares */\n      dup8\n        /* \"src/GuanoCore.sol\":4560:4575  _spendAllowance */\n      tag_229\n        /* \"src/GuanoCore.sol\":4560:4602  _spendAllowance(owner, msg.sender, shares) */\n      jump\t// in\n    tag_228:\n        /* \"src/GuanoCore.sol\":4538:4602  if(msg.sender!=owner) _spendAllowance(owner, msg.sender, shares) */\n    tag_227:\n        /* \"src/GuanoCore.sol\":4653:4659  shares */\n      dup5\n        /* \"src/GuanoCore.sol\":4638:4651  totalRedeemed */\n      0x03\n      0x00\n        /* \"src/GuanoCore.sol\":4638:4659  totalRedeemed+=shares */\n      dup3\n      dup3\n      sload\n      tag_230\n      swap2\n      swap1\n      tag_157\n      jump\t// in\n    tag_230:\n      swap3\n      pop\n      pop\n      dup2\n      swap1\n      sstore\n      pop\n        /* \"src/GuanoCore.sol\":4686:4692  assets */\n      dup1\n        /* \"src/GuanoCore.sol\":4670:4684  totalWithdrawn */\n      0x04\n      0x00\n        /* \"src/GuanoCore.sol\":4670:4692  totalWithdrawn+=assets */\n      dup3\n      dup3\n      sload\n      tag_231\n      swap2\n      swap1\n      tag_157\n      jump\t// in\n    tag_231:\n      swap3\n      pop\n      pop\n      dup2\n      swap1\n      sstore\n      pop\n        /* \"src/GuanoCore.sol\":4703:4722  _burn(owner,shares) */\n      tag_232\n        /* \"src/GuanoCore.sol\":4709:4714  owner */\n      dup4\n        /* \"src/GuanoCore.sol\":4715:4721  shares */\n      dup7\n        /* \"src/GuanoCore.sol\":4703:4708  _burn */\n      tag_233\n        /* \"src/GuanoCore.sol\":4703:4722  _burn(owner,shares) */\n      jump\t// in\n    tag_232:\n        /* \"src/GuanoCore.sol\":4859:4871  bool success */\n      0x00\n        /* \"src/GuanoCore.sol\":4876:4884  receiver */\n      dup5\n        /* \"src/GuanoCore.sol\":4876:4889  receiver.call */\n      0xffffffffffffffffffffffffffffffffffffffff\n      and\n        /* \"src/GuanoCore.sol\":4896:4902  assets */\n      dup3\n        /* \"src/GuanoCore.sol\":4876:4907  receiver.call{value:assets}(\"\") */\n      mload(0x40)\n      tag_234\n      swap1\n      tag_235\n      jump\t// in\n    tag_234:\n      0x00\n      mload(0x40)\n      dup1\n      dup4\n      sub\n      dup2\n      dup6\n      dup8\n      gas\n      call\n      swap3\n      pop\n      pop\n      pop\n      returndatasize\n      dup1\n      0x00\n      dup2\n      eq\n      tag_238\n      jumpi\n      mload(0x40)\n      swap2\n      pop\n      and(add(returndatasize, 0x3f), not(0x1f))\n      dup3\n      add\n      0x40\n      mstore\n      returndatasize\n      dup3\n      mstore\n      returndatasize\n      0x00\n      0x20\n      dup5\n      add\n      returndatacopy\n      jump(tag_237)\n    tag_238:\n      0x60\n      swap2\n      pop\n    tag_237:\n      pop\n        /* \"src/GuanoCore.sol\":4858:4907  (bool success,) = receiver.call{value:assets}(\"\") */\n      pop\n      swap1\n      pop\n        /* \"src/GuanoCore.sol\":4926:4933  success */\n      dup1\n        /* \"src/GuanoCore.sol\":4918:4934  require(success) */\n      tag_239\n      jumpi\n      revert(0x00, 0x00)\n    tag_239:\n        /* \"src/GuanoCore.sol\":4981:4986  owner */\n      dup4\n        /* \"src/GuanoCore.sol\":4952:5001  Withdraw(msg.sender,receiver,owner,assets,shares) */\n      0xffffffffffffffffffffffffffffffffffffffff\n      and\n        /* \"src/GuanoCore.sol\":4972:4980  receiver */\n      dup6\n        /* \"src/GuanoCore.sol\":4952:5001  Withdraw(msg.sender,receiver,owner,assets,shares) */\n      0xffffffffffffffffffffffffffffffffffffffff\n      and\n        /* \"src/GuanoCore.sol\":4961:4971  msg.sender */\n      caller\n        /* \"src/GuanoCore.sol\":4952:5001  Withdraw(msg.sender,receiver,owner,assets,shares) */\n      0xffffffffffffffffffffffffffffffffffffffff\n      and\n      0xfbde797d201c681b91056529119e0b02407c7bb96a4a2c75c01fc9667232c8db\n        /* \"src/GuanoCore.sol\":4987:4993  assets */\n      dup6\n        /* \"src/GuanoCore.sol\":4994:5000  shares */\n      dup11\n        /* \"src/GuanoCore.sol\":4952:5001  Withdraw(msg.sender,receiver,owner,assets,shares) */\n      mload(0x40)\n      tag_240\n      swap3\n      swap2\n      swap1\n      tag_211\n      jump\t// in\n    tag_240:\n      mload(0x40)\n      dup1\n      swap2\n      sub\n      swap1\n      log4\n        /* \"src/GuanoCore.sol\":5021:5027  assets */\n      dup2\n        /* \"src/GuanoCore.sol\":5014:5027  return assets */\n      swap3\n      pop\n      pop\n      pop\n        /* \"src/GuanoCore.sol\":4376:5035  function redeem(uint shares, address receiver,address owner) public returns (uint) {... */\n      swap4\n      swap3\n      pop\n      pop\n      pop\n      jump\t// out\n        /* \"src/GuanoCore.sol\":2739:2880  function maxMint(address receiver) public view returns (uint) {... */\n    tag_122:\n        /* \"src/GuanoCore.sol\":2795:2799  uint */\n      0x00\n        /* \"src/GuanoCore.sol\":2861:2872  totalMinted */\n      sload(0x01)\n        /* \"src/GuanoCore.sol\":1556:1564  24 hours */\n      0x015180\n        /* \"src/GuanoCore.sol\":1540:1548  .2 ether */\n      0x02c68af0bb140000\n        /* \"src/GuanoCore.sol\":1540:1565  .2 ether / uint(24 hours) */\n      tag_242\n      swap2\n      swap1\n      tag_162\n      jump\t// in\n    tag_242:\n        /* \"src/GuanoCore.sol\":2838:2845  created */\n      immutable(\"0x0227f622f4eada773ae6f97af92d6534c94b72b7108fbd4b2bf2fecdd9a0faeb\")\n        /* \"src/GuanoCore.sol\":2820:2835  block.timestamp */\n      timestamp\n        /* \"src/GuanoCore.sol\":2820:2845  block.timestamp - created */\n      tag_243\n      swap2\n      swap1\n      tag_244\n      jump\t// in\n    tag_243:\n        /* \"src/GuanoCore.sol\":2819:2858  (block.timestamp - created) * MINT_RATE */\n      tag_245\n      swap2\n      swap1\n      tag_160\n      jump\t// in\n    tag_245:\n        /* \"src/GuanoCore.sol\":2819:2872  (block.timestamp - created) * MINT_RATE - totalMinted */\n      tag_246\n      swap2\n      swap1\n      tag_244\n      jump\t// in\n    tag_246:\n        /* \"src/GuanoCore.sol\":2812:2872  return (block.timestamp - created) * MINT_RATE - totalMinted */\n      swap1\n      pop\n        /* \"src/GuanoCore.sol\":2739:2880  function maxMint(address receiver) public view returns (uint) {... */\n      swap2\n      swap1\n      pop\n      jump\t// out\n        /* \"src/GuanoCore.sol\":2892:3039  function convertToShares(uint assets) public view returns (uint) {... */\n    tag_127:\n        /* \"src/GuanoCore.sol\":2951:2955  uint */\n      0x00\n        /* \"src/GuanoCore.sol\":3024:3030  assets */\n      dup2\n        /* \"src/GuanoCore.sol\":3007:3021  totalDeposited */\n      sload(0x02)\n        /* \"src/GuanoCore.sol\":3007:3030  totalDeposited + assets */\n      tag_248\n      swap2\n      swap1\n      tag_157\n      jump\t// in\n    tag_248:\n        /* \"src/GuanoCore.sol\":2984:3003  maxMint(msg.sender) */\n      tag_249\n        /* \"src/GuanoCore.sol\":2992:3002  msg.sender */\n      caller\n        /* \"src/GuanoCore.sol\":2984:2991  maxMint */\n      tag_122\n        /* \"src/GuanoCore.sol\":2984:3003  maxMint(msg.sender) */\n      jump\t// in\n    tag_249:\n        /* \"src/GuanoCore.sol\":2975:2981  assets */\n      dup4\n        /* \"src/GuanoCore.sol\":2975:3003  assets * maxMint(msg.sender) */\n      tag_250\n      swap2\n      swap1\n      tag_160\n      jump\t// in\n    tag_250:\n        /* \"src/GuanoCore.sol\":2975:3031  assets * maxMint(msg.sender) / (totalDeposited + assets) */\n      tag_251\n      swap2\n      swap1\n      tag_162\n      jump\t// in\n    tag_251:\n        /* \"src/GuanoCore.sol\":2968:3031  return assets * maxMint(msg.sender) / (totalDeposited + assets) */\n      swap1\n      pop\n        /* \"src/GuanoCore.sol\":2892:3039  function convertToShares(uint assets) public view returns (uint) {... */\n      swap2\n      swap1\n      pop\n      jump\t// out\n        /* \"src/GuanoCore.sol\":3795:3944  function maxWithdraw(address owner) public view returns (uint) {... */\n    tag_132:\n        /* \"src/GuanoCore.sol\":3852:3856  uint */\n      0x00\n        /* \"src/GuanoCore.sol\":3922:3936  totalWithdrawn */\n      sload(0x04)\n        /* \"src/GuanoCore.sol\":1631:1639  24 hours */\n      0x015180\n        /* \"src/GuanoCore.sol\":1615:1623  .1 ether */\n      0x016345785d8a0000\n        /* \"src/GuanoCore.sol\":1615:1640  .1 ether / uint(24 hours) */\n      tag_253\n      swap2\n      swap1\n      tag_162\n      jump\t// in\n    tag_253:\n        /* \"src/GuanoCore.sol\":3895:3902  created */\n      immutable(\"0x0227f622f4eada773ae6f97af92d6534c94b72b7108fbd4b2bf2fecdd9a0faeb\")\n        /* \"src/GuanoCore.sol\":3877:3892  block.timestamp */\n      timestamp\n        /* \"src/GuanoCore.sol\":3877:3902  block.timestamp - created */\n      tag_254\n      swap2\n      swap1\n      tag_244\n      jump\t// in\n    tag_254:\n        /* \"src/GuanoCore.sol\":3876:3919  (block.timestamp - created) * WITHDRAW_RATE */\n      tag_255\n      swap2\n      swap1\n      tag_160\n      jump\t// in\n    tag_255:\n        /* \"src/GuanoCore.sol\":3876:3936  (block.timestamp - created) * WITHDRAW_RATE - totalWithdrawn */\n      tag_256\n      swap2\n      swap1\n      tag_244\n      jump\t// in\n    tag_256:\n        /* \"src/GuanoCore.sol\":3869:3936  return (block.timestamp - created) * WITHDRAW_RATE - totalWithdrawn */\n      swap1\n      pop\n        /* \"src/GuanoCore.sol\":3795:3944  function maxWithdraw(address owner) public view returns (uint) {... */\n      swap2\n      swap1\n      pop\n      jump\t// out\n        /* \"https://github.com/Vectorized/solady/blob/main/src/tokens/ERC20.sol\":17661:21377  function permit(... */\n    tag_138:\n        /* \"https://github.com/Vectorized/solady/blob/main/src/tokens/ERC20.sol\":17864:17895  _givePermit2InfiniteAllowance() */\n      tag_258\n        /* \"https://github.com/Vectorized/solady/blob/main/src/tokens/ERC20.sol\":17864:17893  _givePermit2InfiniteAllowance */\n      tag_166\n        /* \"https://github.com/Vectorized/solady/blob/main/src/tokens/ERC20.sol\":17864:17895  _givePermit2InfiniteAllowance() */\n      jump\t// in\n    tag_258:\n        /* \"https://github.com/Vectorized/solady/blob/main/src/tokens/ERC20.sol\":17860:18305  if (_givePermit2InfiniteAllowance()) {... */\n      iszero\n      tag_259\n      jumpi\n        /* \"https://github.com/Vectorized/solady/blob/main/src/tokens/ERC20.sol\":18126:18131  value */\n      dup5\n        /* \"https://github.com/Vectorized/solady/blob/main/src/tokens/ERC20.sol\":18122:18132  not(value) */\n      not\n        /* \"https://github.com/Vectorized/solady/blob/main/src/tokens/ERC20.sol\":18115:18133  iszero(not(value)) */\n      iszero\n        /* \"https://github.com/Vectorized/solady/blob/main/src/tokens/ERC20.sol\":18104:18112  _PERMIT2 */\n      0x22d473030f116ddee9f6b43ac78ba3\n        /* \"https://github.com/Vectorized/solady/blob/main/src/tokens/ERC20.sol\":18093:18100  spender */\n      dup8\n        /* \"https://github.com/Vectorized/solady/blob/main/src/tokens/ERC20.sol\":18089:18091  96 */\n      0x60\n        /* \"https://github.com/Vectorized/solady/blob/main/src/tokens/ERC20.sol\":18085:18101  shl(96, spender) */\n      shl\n        /* \"https://github.com/Vectorized/solady/blob/main/src/tokens/ERC20.sol\":18081:18083  96 */\n      0x60\n        /* \"https://github.com/Vectorized/solady/blob/main/src/tokens/ERC20.sol\":18077:18102  shr(96, shl(96, spender)) */\n      shr\n        /* \"https://github.com/Vectorized/solady/blob/main/src/tokens/ERC20.sol\":18073:18113  xor(shr(96, shl(96, spender)), _PERMIT2) */\n      xor\n        /* \"https://github.com/Vectorized/solady/blob/main/src/tokens/ERC20.sol\":18070:18134  or(xor(shr(96, shl(96, spender)), _PERMIT2), iszero(not(value))) */\n      or\n        /* \"https://github.com/Vectorized/solady/blob/main/src/tokens/ERC20.sol\":18060:18281  if iszero(or(xor(shr(96, shl(96, spender)), _PERMIT2), iszero(not(value)))) {... */\n      tag_260\n      jumpi\n        /* \"https://github.com/Vectorized/solady/blob/main/src/tokens/ERC20.sol\":18171:18181  0x3f68539a */\n      0x3f68539a\n        /* \"https://github.com/Vectorized/solady/blob/main/src/tokens/ERC20.sol\":18165:18169  0x00 */\n      0x00\n        /* \"https://github.com/Vectorized/solady/blob/main/src/tokens/ERC20.sol\":18158:18182  mstore(0x00, 0x3f68539a) */\n      mstore\n        /* \"https://github.com/Vectorized/solady/blob/main/src/tokens/ERC20.sol\":18258:18262  0x04 */\n      0x04\n        /* \"https://github.com/Vectorized/solady/blob/main/src/tokens/ERC20.sol\":18252:18256  0x1c */\n      0x1c\n        /* \"https://github.com/Vectorized/solady/blob/main/src/tokens/ERC20.sol\":18245:18263  revert(0x1c, 0x04) */\n      revert\n        /* \"https://github.com/Vectorized/solady/blob/main/src/tokens/ERC20.sol\":18060:18281  if iszero(or(xor(shr(96, shl(96, spender)), _PERMIT2), iszero(not(value)))) {... */\n    tag_260:\n        /* \"https://github.com/Vectorized/solady/blob/main/src/tokens/ERC20.sol\":17860:18305  if (_givePermit2InfiniteAllowance()) {... */\n    tag_259:\n        /* \"https://github.com/Vectorized/solady/blob/main/src/tokens/ERC20.sol\":18314:18330  bytes32 nameHash */\n      0x00\n        /* \"https://github.com/Vectorized/solady/blob/main/src/tokens/ERC20.sol\":18333:18352  _constantNameHash() */\n      tag_261\n        /* \"https://github.com/Vectorized/solady/blob/main/src/tokens/ERC20.sol\":18333:18350  _constantNameHash */\n      tag_197\n        /* \"https://github.com/Vectorized/solady/blob/main/src/tokens/ERC20.sol\":18333:18352  _constantNameHash() */\n      jump\t// in\n    tag_261:\n        /* \"https://github.com/Vectorized/solady/blob/main/src/tokens/ERC20.sol\":18314:18352  bytes32 nameHash = _constantNameHash() */\n      swap1\n      pop\n        /* \"https://github.com/Vectorized/solady/blob/main/src/tokens/ERC20.sol\":18480:18481  0 */\n      0x00\n        /* \"https://github.com/Vectorized/solady/blob/main/src/tokens/ERC20.sol\":18472:18482  bytes32(0) */\n      0x00\n      shl\n        /* \"https://github.com/Vectorized/solady/blob/main/src/tokens/ERC20.sol\":18460:18468  nameHash */\n      dup2\n        /* \"https://github.com/Vectorized/solady/blob/main/src/tokens/ERC20.sol\":18460:18482  nameHash == bytes32(0) */\n      sub\n        /* \"https://github.com/Vectorized/solady/blob/main/src/tokens/ERC20.sol\":18456:18519  if (nameHash == bytes32(0)) nameHash = keccak256(bytes(name())) */\n      tag_262\n      jumpi\n        /* \"https://github.com/Vectorized/solady/blob/main/src/tokens/ERC20.sol\":18511:18517  name() */\n      tag_263\n        /* \"https://github.com/Vectorized/solady/blob/main/src/tokens/ERC20.sol\":18511:18515  name */\n      tag_31\n        /* \"https://github.com/Vectorized/solady/blob/main/src/tokens/ERC20.sol\":18511:18517  name() */\n      jump\t// in\n    tag_263:\n        /* \"https://github.com/Vectorized/solady/blob/main/src/tokens/ERC20.sol\":18495:18519  keccak256(bytes(name())) */\n      dup1\n      mload\n      swap1\n      0x20\n      add\n      keccak256\n        /* \"https://github.com/Vectorized/solady/blob/main/src/tokens/ERC20.sol\":18484:18519  nameHash = keccak256(bytes(name())) */\n      swap1\n      pop\n        /* \"https://github.com/Vectorized/solady/blob/main/src/tokens/ERC20.sol\":18456:18519  if (nameHash == bytes32(0)) nameHash = keccak256(bytes(name())) */\n    tag_262:\n        /* \"https://github.com/Vectorized/solady/blob/main/src/tokens/ERC20.sol\":18529:18548  bytes32 versionHash */\n      0x00\n        /* \"https://github.com/Vectorized/solady/blob/main/src/tokens/ERC20.sol\":18551:18565  _versionHash() */\n      tag_264\n        /* \"https://github.com/Vectorized/solady/blob/main/src/tokens/ERC20.sol\":18551:18563  _versionHash */\n      tag_201\n        /* \"https://github.com/Vectorized/solady/blob/main/src/tokens/ERC20.sol\":18551:18565  _versionHash() */\n      jump\t// in\n    tag_264:\n        /* \"https://github.com/Vectorized/solady/blob/main/src/tokens/ERC20.sol\":18529:18565  bytes32 versionHash = _versionHash() */\n      swap1\n      pop\n        /* \"https://github.com/Vectorized/solady/blob/main/src/tokens/ERC20.sol\":18733:18741  deadline */\n      dup6\n        /* \"https://github.com/Vectorized/solady/blob/main/src/tokens/ERC20.sol\":18720:18731  timestamp() */\n      timestamp\n        /* \"https://github.com/Vectorized/solady/blob/main/src/tokens/ERC20.sol\":18717:18742  gt(timestamp(), deadline) */\n      gt\n        /* \"https://github.com/Vectorized/solady/blob/main/src/tokens/ERC20.sol\":18714:18856  if gt(timestamp(), deadline) {... */\n      iszero\n      tag_265\n      jumpi\n        /* \"https://github.com/Vectorized/solady/blob/main/src/tokens/ERC20.sol\":18774:18784  0x1a15a3cc */\n      0x1a15a3cc\n        /* \"https://github.com/Vectorized/solady/blob/main/src/tokens/ERC20.sol\":18768:18772  0x00 */\n      0x00\n        /* \"https://github.com/Vectorized/solady/blob/main/src/tokens/ERC20.sol\":18761:18785  mstore(0x00, 0x1a15a3cc) */\n      mstore\n        /* \"https://github.com/Vectorized/solady/blob/main/src/tokens/ERC20.sol\":18837:18841  0x04 */\n      0x04\n        /* \"https://github.com/Vectorized/solady/blob/main/src/tokens/ERC20.sol\":18831:18835  0x1c */\n      0x1c\n        /* \"https://github.com/Vectorized/solady/blob/main/src/tokens/ERC20.sol\":18824:18842  revert(0x1c, 0x04) */\n      revert\n        /* \"https://github.com/Vectorized/solady/blob/main/src/tokens/ERC20.sol\":18714:18856  if gt(timestamp(), deadline) {... */\n    tag_265:\n        /* \"https://github.com/Vectorized/solady/blob/main/src/tokens/ERC20.sol\":18884:18888  0x40 */\n      0x40\n        /* \"https://github.com/Vectorized/solady/blob/main/src/tokens/ERC20.sol\":18878:18889  mload(0x40) */\n      mload\n        /* \"https://github.com/Vectorized/solady/blob/main/src/tokens/ERC20.sol\":19000:19005  owner */\n      dup10\n        /* \"https://github.com/Vectorized/solady/blob/main/src/tokens/ERC20.sol\":18996:18998  96 */\n      0x60\n        /* \"https://github.com/Vectorized/solady/blob/main/src/tokens/ERC20.sol\":18992:19006  shl(96, owner) */\n      shl\n        /* \"https://github.com/Vectorized/solady/blob/main/src/tokens/ERC20.sol\":18988:18990  96 */\n      0x60\n        /* \"https://github.com/Vectorized/solady/blob/main/src/tokens/ERC20.sol\":18984:19007  shr(96, shl(96, owner)) */\n      shr\n        /* \"https://github.com/Vectorized/solady/blob/main/src/tokens/ERC20.sol\":18975:19007  owner := shr(96, shl(96, owner)) */\n      swap10\n      pop\n        /* \"https://github.com/Vectorized/solady/blob/main/src/tokens/ERC20.sol\":19047:19054  spender */\n      dup9\n        /* \"https://github.com/Vectorized/solady/blob/main/src/tokens/ERC20.sol\":19043:19045  96 */\n      0x60\n        /* \"https://github.com/Vectorized/solady/blob/main/src/tokens/ERC20.sol\":19039:19055  shl(96, spender) */\n      shl\n        /* \"https://github.com/Vectorized/solady/blob/main/src/tokens/ERC20.sol\":19035:19037  96 */\n      0x60\n        /* \"https://github.com/Vectorized/solady/blob/main/src/tokens/ERC20.sol\":19031:19056  shr(96, shl(96, spender)) */\n      shr\n        /* \"https://github.com/Vectorized/solady/blob/main/src/tokens/ERC20.sol\":19020:19056  spender := shr(96, shl(96, spender)) */\n      swap9\n      pop\n        /* \"https://github.com/Vectorized/solady/blob/main/src/tokens/ERC20.sol\":19140:19179  _NONCES_SLOT_SEED_WITH_SIGNATURE_PREFIX */\n      0x383775081901\n        /* \"https://github.com/Vectorized/solady/blob/main/src/tokens/ERC20.sol\":19134:19138  0x0e */\n      0x0e\n        /* \"https://github.com/Vectorized/solady/blob/main/src/tokens/ERC20.sol\":19127:19180  mstore(0x0e, _NONCES_SLOT_SEED_WITH_SIGNATURE_PREFIX) */\n      mstore\n        /* \"https://github.com/Vectorized/solady/blob/main/src/tokens/ERC20.sol\":19206:19211  owner */\n      dup10\n        /* \"https://github.com/Vectorized/solady/blob/main/src/tokens/ERC20.sol\":19200:19204  0x00 */\n      0x00\n        /* \"https://github.com/Vectorized/solady/blob/main/src/tokens/ERC20.sol\":19193:19212  mstore(0x00, owner) */\n      mstore\n        /* \"https://github.com/Vectorized/solady/blob/main/src/tokens/ERC20.sol\":19258:19262  0x20 */\n      0x20\n        /* \"https://github.com/Vectorized/solady/blob/main/src/tokens/ERC20.sol\":19252:19256  0x0c */\n      0x0c\n        /* \"https://github.com/Vectorized/solady/blob/main/src/tokens/ERC20.sol\":19242:19263  keccak256(0x0c, 0x20) */\n      keccak256\n        /* \"https://github.com/Vectorized/solady/blob/main/src/tokens/ERC20.sol\":19300:19309  nonceSlot */\n      dup1\n        /* \"https://github.com/Vectorized/solady/blob/main/src/tokens/ERC20.sol\":19294:19310  sload(nonceSlot) */\n      sload\n        /* \"https://github.com/Vectorized/solady/blob/main/src/tokens/ERC20.sol\":19378:19394  _DOMAIN_TYPEHASH */\n      0x8b73c3c69bb8fe3d512ecc4cf759cc79239f7b179b0ffacaa9a75d522b39400f\n        /* \"https://github.com/Vectorized/solady/blob/main/src/tokens/ERC20.sol\":19375:19376  m */\n      dup4\n        /* \"https://github.com/Vectorized/solady/blob/main/src/tokens/ERC20.sol\":19368:19395  mstore(m, _DOMAIN_TYPEHASH) */\n      mstore\n        /* \"https://github.com/Vectorized/solady/blob/main/src/tokens/ERC20.sol\":19429:19437  nameHash */\n      dup5\n        /* \"https://github.com/Vectorized/solady/blob/main/src/tokens/ERC20.sol\":19422:19426  0x20 */\n      0x20\n        /* \"https://github.com/Vectorized/solady/blob/main/src/tokens/ERC20.sol\":19419:19420  m */\n      dup5\n        /* \"https://github.com/Vectorized/solady/blob/main/src/tokens/ERC20.sol\":19415:19427  add(m, 0x20) */\n      add\n        /* \"https://github.com/Vectorized/solady/blob/main/src/tokens/ERC20.sol\":19408:19438  mstore(add(m, 0x20), nameHash) */\n      mstore\n        /* \"https://github.com/Vectorized/solady/blob/main/src/tokens/ERC20.sol\":19472:19483  versionHash */\n      dup4\n        /* \"https://github.com/Vectorized/solady/blob/main/src/tokens/ERC20.sol\":19465:19469  0x40 */\n      0x40\n        /* \"https://github.com/Vectorized/solady/blob/main/src/tokens/ERC20.sol\":19462:19463  m */\n      dup5\n        /* \"https://github.com/Vectorized/solady/blob/main/src/tokens/ERC20.sol\":19458:19470  add(m, 0x40) */\n      add\n        /* \"https://github.com/Vectorized/solady/blob/main/src/tokens/ERC20.sol\":19451:19484  mstore(add(m, 0x40), versionHash) */\n      mstore\n        /* \"https://github.com/Vectorized/solady/blob/main/src/tokens/ERC20.sol\":19518:19527  chainid() */\n      chainid\n        /* \"https://github.com/Vectorized/solady/blob/main/src/tokens/ERC20.sol\":19511:19515  0x60 */\n      0x60\n        /* \"https://github.com/Vectorized/solady/blob/main/src/tokens/ERC20.sol\":19508:19509  m */\n      dup5\n        /* \"https://github.com/Vectorized/solady/blob/main/src/tokens/ERC20.sol\":19504:19516  add(m, 0x60) */\n      add\n        /* \"https://github.com/Vectorized/solady/blob/main/src/tokens/ERC20.sol\":19497:19528  mstore(add(m, 0x60), chainid()) */\n      mstore\n        /* \"https://github.com/Vectorized/solady/blob/main/src/tokens/ERC20.sol\":19562:19571  address() */\n      address\n        /* \"https://github.com/Vectorized/solady/blob/main/src/tokens/ERC20.sol\":19555:19559  0x80 */\n      0x80\n        /* \"https://github.com/Vectorized/solady/blob/main/src/tokens/ERC20.sol\":19552:19553  m */\n      dup5\n        /* \"https://github.com/Vectorized/solady/blob/main/src/tokens/ERC20.sol\":19548:19560  add(m, 0x80) */\n      add\n        /* \"https://github.com/Vectorized/solady/blob/main/src/tokens/ERC20.sol\":19541:19572  mstore(add(m, 0x80), address()) */\n      mstore\n        /* \"https://github.com/Vectorized/solady/blob/main/src/tokens/ERC20.sol\":19611:19615  0xa0 */\n      0xa0\n        /* \"https://github.com/Vectorized/solady/blob/main/src/tokens/ERC20.sol\":19608:19609  m */\n      dup4\n        /* \"https://github.com/Vectorized/solady/blob/main/src/tokens/ERC20.sol\":19598:19616  keccak256(m, 0xa0) */\n      keccak256\n        /* \"https://github.com/Vectorized/solady/blob/main/src/tokens/ERC20.sol\":19592:19596  0x2e */\n      0x2e\n        /* \"https://github.com/Vectorized/solady/blob/main/src/tokens/ERC20.sol\":19585:19617  mstore(0x2e, keccak256(m, 0xa0)) */\n      mstore\n        /* \"https://github.com/Vectorized/solady/blob/main/src/tokens/ERC20.sol\":19680:19696  _PERMIT_TYPEHASH */\n      0x6e71edae12b1b97f4d1f60370fef10105fa2faae0126114a169c64845d6126c9\n        /* \"https://github.com/Vectorized/solady/blob/main/src/tokens/ERC20.sol\":19677:19678  m */\n      dup4\n        /* \"https://github.com/Vectorized/solady/blob/main/src/tokens/ERC20.sol\":19670:19697  mstore(m, _PERMIT_TYPEHASH) */\n      mstore\n        /* \"https://github.com/Vectorized/solady/blob/main/src/tokens/ERC20.sol\":19731:19736  owner */\n      dup12\n        /* \"https://github.com/Vectorized/solady/blob/main/src/tokens/ERC20.sol\":19724:19728  0x20 */\n      0x20\n        /* \"https://github.com/Vectorized/solady/blob/main/src/tokens/ERC20.sol\":19721:19722  m */\n      dup5\n        /* \"https://github.com/Vectorized/solady/blob/main/src/tokens/ERC20.sol\":19717:19729  add(m, 0x20) */\n      add\n        /* \"https://github.com/Vectorized/solady/blob/main/src/tokens/ERC20.sol\":19710:19737  mstore(add(m, 0x20), owner) */\n      mstore\n        /* \"https://github.com/Vectorized/solady/blob/main/src/tokens/ERC20.sol\":19771:19778  spender */\n      dup11\n        /* \"https://github.com/Vectorized/solady/blob/main/src/tokens/ERC20.sol\":19764:19768  0x40 */\n      0x40\n        /* \"https://github.com/Vectorized/solady/blob/main/src/tokens/ERC20.sol\":19761:19762  m */\n      dup5\n        /* \"https://github.com/Vectorized/solady/blob/main/src/tokens/ERC20.sol\":19757:19769  add(m, 0x40) */\n      add\n        /* \"https://github.com/Vectorized/solady/blob/main/src/tokens/ERC20.sol\":19750:19779  mstore(add(m, 0x40), spender) */\n      mstore\n        /* \"https://github.com/Vectorized/solady/blob/main/src/tokens/ERC20.sol\":19813:19818  value */\n      dup10\n        /* \"https://github.com/Vectorized/solady/blob/main/src/tokens/ERC20.sol\":19806:19810  0x60 */\n      0x60\n        /* \"https://github.com/Vectorized/solady/blob/main/src/tokens/ERC20.sol\":19803:19804  m */\n      dup5\n        /* \"https://github.com/Vectorized/solady/blob/main/src/tokens/ERC20.sol\":19799:19811  add(m, 0x60) */\n      add\n        /* \"https://github.com/Vectorized/solady/blob/main/src/tokens/ERC20.sol\":19792:19819  mstore(add(m, 0x60), value) */\n      mstore\n        /* \"https://github.com/Vectorized/solady/blob/main/src/tokens/ERC20.sol\":19853:19863  nonceValue */\n      dup1\n        /* \"https://github.com/Vectorized/solady/blob/main/src/tokens/ERC20.sol\":19846:19850  0x80 */\n      0x80\n        /* \"https://github.com/Vectorized/solady/blob/main/src/tokens/ERC20.sol\":19843:19844  m */\n      dup5\n        /* \"https://github.com/Vectorized/solady/blob/main/src/tokens/ERC20.sol\":19839:19851  add(m, 0x80) */\n      add\n        /* \"https://github.com/Vectorized/solady/blob/main/src/tokens/ERC20.sol\":19832:19864  mstore(add(m, 0x80), nonceValue) */\n      mstore\n        /* \"https://github.com/Vectorized/solady/blob/main/src/tokens/ERC20.sol\":19898:19906  deadline */\n      dup9\n        /* \"https://github.com/Vectorized/solady/blob/main/src/tokens/ERC20.sol\":19891:19895  0xa0 */\n      0xa0\n        /* \"https://github.com/Vectorized/solady/blob/main/src/tokens/ERC20.sol\":19888:19889  m */\n      dup5\n        /* \"https://github.com/Vectorized/solady/blob/main/src/tokens/ERC20.sol\":19884:19896  add(m, 0xa0) */\n      add\n        /* \"https://github.com/Vectorized/solady/blob/main/src/tokens/ERC20.sol\":19877:19907  mstore(add(m, 0xa0), deadline) */\n      mstore\n        /* \"https://github.com/Vectorized/solady/blob/main/src/tokens/ERC20.sol\":19946:19950  0xc0 */\n      0xc0\n        /* \"https://github.com/Vectorized/solady/blob/main/src/tokens/ERC20.sol\":19943:19944  m */\n      dup4\n        /* \"https://github.com/Vectorized/solady/blob/main/src/tokens/ERC20.sol\":19933:19951  keccak256(m, 0xc0) */\n      keccak256\n        /* \"https://github.com/Vectorized/solady/blob/main/src/tokens/ERC20.sol\":19927:19931  0x4e */\n      0x4e\n        /* \"https://github.com/Vectorized/solady/blob/main/src/tokens/ERC20.sol\":19920:19952  mstore(0x4e, keccak256(m, 0xc0)) */\n      mstore\n        /* \"https://github.com/Vectorized/solady/blob/main/src/tokens/ERC20.sol\":20041:20045  0x42 */\n      0x42\n        /* \"https://github.com/Vectorized/solady/blob/main/src/tokens/ERC20.sol\":20035:20039  0x2c */\n      0x2c\n        /* \"https://github.com/Vectorized/solady/blob/main/src/tokens/ERC20.sol\":20025:20046  keccak256(0x2c, 0x42) */\n      keccak256\n        /* \"https://github.com/Vectorized/solady/blob/main/src/tokens/ERC20.sol\":20019:20023  0x00 */\n      0x00\n        /* \"https://github.com/Vectorized/solady/blob/main/src/tokens/ERC20.sol\":20012:20047  mstore(0x00, keccak256(0x2c, 0x42)) */\n      mstore\n        /* \"https://github.com/Vectorized/solady/blob/main/src/tokens/ERC20.sol\":20083:20084  v */\n      dup8\n        /* \"https://github.com/Vectorized/solady/blob/main/src/tokens/ERC20.sol\":20077:20081  0xff */\n      0xff\n        /* \"https://github.com/Vectorized/solady/blob/main/src/tokens/ERC20.sol\":20073:20085  and(0xff, v) */\n      and\n        /* \"https://github.com/Vectorized/solady/blob/main/src/tokens/ERC20.sol\":20067:20071  0x20 */\n      0x20\n        /* \"https://github.com/Vectorized/solady/blob/main/src/tokens/ERC20.sol\":20060:20086  mstore(0x20, and(0xff, v)) */\n      mstore\n        /* \"https://github.com/Vectorized/solady/blob/main/src/tokens/ERC20.sol\":20112:20113  r */\n      dup7\n        /* \"https://github.com/Vectorized/solady/blob/main/src/tokens/ERC20.sol\":20106:20110  0x40 */\n      0x40\n        /* \"https://github.com/Vectorized/solady/blob/main/src/tokens/ERC20.sol\":20099:20114  mstore(0x40, r) */\n      mstore\n        /* \"https://github.com/Vectorized/solady/blob/main/src/tokens/ERC20.sol\":20140:20141  s */\n      dup6\n        /* \"https://github.com/Vectorized/solady/blob/main/src/tokens/ERC20.sol\":20134:20138  0x60 */\n      0x60\n        /* \"https://github.com/Vectorized/solady/blob/main/src/tokens/ERC20.sol\":20127:20142  mstore(0x60, s) */\n      mstore\n        /* \"https://github.com/Vectorized/solady/blob/main/src/tokens/ERC20.sol\":20203:20207  0x20 */\n      0x20\n        /* \"https://github.com/Vectorized/solady/blob/main/src/tokens/ERC20.sol\":20197:20201  0x20 */\n      dup1\n        /* \"https://github.com/Vectorized/solady/blob/main/src/tokens/ERC20.sol\":20191:20195  0x80 */\n      0x80\n        /* \"https://github.com/Vectorized/solady/blob/main/src/tokens/ERC20.sol\":20185:20189  0x00 */\n      0x00\n        /* \"https://github.com/Vectorized/solady/blob/main/src/tokens/ERC20.sol\":20182:20183  1 */\n      0x01\n        /* \"https://github.com/Vectorized/solady/blob/main/src/tokens/ERC20.sol\":20175:20180  gas() */\n      gas\n        /* \"https://github.com/Vectorized/solady/blob/main/src/tokens/ERC20.sol\":20164:20208  staticcall(gas(), 1, 0x00, 0x80, 0x20, 0x20) */\n      staticcall\n        /* \"https://github.com/Vectorized/solady/blob/main/src/tokens/ERC20.sol\":20624:20629  owner */\n      dup13\n        /* \"https://github.com/Vectorized/solady/blob/main/src/tokens/ERC20.sol\":20605:20621  returndatasize() */\n      returndatasize\n        /* \"https://github.com/Vectorized/solady/blob/main/src/tokens/ERC20.sol\":20599:20622  mload(returndatasize()) */\n      mload\n        /* \"https://github.com/Vectorized/solady/blob/main/src/tokens/ERC20.sol\":20596:20630  eq(mload(returndatasize()), owner) */\n      eq\n        /* \"https://github.com/Vectorized/solady/blob/main/src/tokens/ERC20.sol\":20586:20745  if iszero(eq(mload(returndatasize()), owner)) {... */\n      tag_266\n      jumpi\n        /* \"https://github.com/Vectorized/solady/blob/main/src/tokens/ERC20.sol\":20663:20673  0xddafbaef */\n      0xddafbaef\n        /* \"https://github.com/Vectorized/solady/blob/main/src/tokens/ERC20.sol\":20657:20661  0x00 */\n      0x00\n        /* \"https://github.com/Vectorized/solady/blob/main/src/tokens/ERC20.sol\":20650:20674  mstore(0x00, 0xddafbaef) */\n      mstore\n        /* \"https://github.com/Vectorized/solady/blob/main/src/tokens/ERC20.sol\":20726:20730  0x04 */\n      0x04\n        /* \"https://github.com/Vectorized/solady/blob/main/src/tokens/ERC20.sol\":20720:20724  0x1c */\n      0x1c\n        /* \"https://github.com/Vectorized/solady/blob/main/src/tokens/ERC20.sol\":20713:20731  revert(0x1c, 0x04) */\n      revert\n        /* \"https://github.com/Vectorized/solady/blob/main/src/tokens/ERC20.sol\":20586:20745  if iszero(eq(mload(returndatasize()), owner)) {... */\n    tag_266:\n        /* \"https://github.com/Vectorized/solady/blob/main/src/tokens/ERC20.sol\":20846:20847  t */\n      dup1\n        /* \"https://github.com/Vectorized/solady/blob/main/src/tokens/ERC20.sol\":20834:20844  nonceValue */\n      dup3\n        /* \"https://github.com/Vectorized/solady/blob/main/src/tokens/ERC20.sol\":20830:20848  add(nonceValue, t) */\n      add\n        /* \"https://github.com/Vectorized/solady/blob/main/src/tokens/ERC20.sol\":20819:20828  nonceSlot */\n      dup4\n        /* \"https://github.com/Vectorized/solady/blob/main/src/tokens/ERC20.sol\":20812:20849  sstore(nonceSlot, add(nonceValue, t)) */\n      sstore\n        /* \"https://github.com/Vectorized/solady/blob/main/src/tokens/ERC20.sol\":21060:21067  spender */\n      dup12\n        /* \"https://github.com/Vectorized/solady/blob/main/src/tokens/ERC20.sol\":21037:21057  _ALLOWANCE_SLOT_SEED */\n      0x7f5e9f20\n        /* \"https://github.com/Vectorized/solady/blob/main/src/tokens/ERC20.sol\":21032:21035  160 */\n      0xa0\n        /* \"https://github.com/Vectorized/solady/blob/main/src/tokens/ERC20.sol\":21028:21058  shl(160, _ALLOWANCE_SLOT_SEED) */\n      shl\n        /* \"https://github.com/Vectorized/solady/blob/main/src/tokens/ERC20.sol\":21025:21068  or(shl(160, _ALLOWANCE_SLOT_SEED), spender) */\n      or\n        /* \"https://github.com/Vectorized/solady/blob/main/src/tokens/ERC20.sol\":21019:21023  0x40 */\n      0x40\n        /* \"https://github.com/Vectorized/solady/blob/main/src/tokens/ERC20.sol\":21012:21069  mstore(0x40, or(shl(160, _ALLOWANCE_SLOT_SEED), spender)) */\n      mstore\n        /* \"https://github.com/Vectorized/solady/blob/main/src/tokens/ERC20.sol\":21112:21117  value */\n      dup11\n        /* \"https://github.com/Vectorized/solady/blob/main/src/tokens/ERC20.sol\":21105:21109  0x34 */\n      0x34\n        /* \"https://github.com/Vectorized/solady/blob/main/src/tokens/ERC20.sol\":21099:21103  0x2c */\n      0x2c\n        /* \"https://github.com/Vectorized/solady/blob/main/src/tokens/ERC20.sol\":21089:21110  keccak256(0x2c, 0x34) */\n      keccak256\n        /* \"https://github.com/Vectorized/solady/blob/main/src/tokens/ERC20.sol\":21082:21118  sstore(keccak256(0x2c, 0x34), value) */\n      sstore\n        /* \"https://github.com/Vectorized/solady/blob/main/src/tokens/ERC20.sol\":21232:21239  spender */\n      dup12\n        /* \"https://github.com/Vectorized/solady/blob/main/src/tokens/ERC20.sol\":21225:21230  owner */\n      dup14\n        /* \"https://github.com/Vectorized/solady/blob/main/src/tokens/ERC20.sol\":21198:21223  _APPROVAL_EVENT_SIGNATURE */\n      0x8c5be1e5ebec7d5bd14f71427d1e84f3dd0314c0f7b2291e5b200ac8c7c3b925\n        /* \"https://github.com/Vectorized/solady/blob/main/src/tokens/ERC20.sol\":21192:21196  0x20 */\n      0x20\n        /* \"https://github.com/Vectorized/solady/blob/main/src/tokens/ERC20.sol\":21185:21189  0x60 */\n      0x60\n        /* \"https://github.com/Vectorized/solady/blob/main/src/tokens/ERC20.sol\":21182:21183  m */\n      dup9\n        /* \"https://github.com/Vectorized/solady/blob/main/src/tokens/ERC20.sol\":21178:21190  add(m, 0x60) */\n      add\n        /* \"https://github.com/Vectorized/solady/blob/main/src/tokens/ERC20.sol\":21173:21240  log3(add(m, 0x60), 0x20, _APPROVAL_EVENT_SIGNATURE, owner, spender) */\n      log3\n        /* \"https://github.com/Vectorized/solady/blob/main/src/tokens/ERC20.sol\":21266:21267  m */\n      dup4\n        /* \"https://github.com/Vectorized/solady/blob/main/src/tokens/ERC20.sol\":21260:21264  0x40 */\n      0x40\n        /* \"https://github.com/Vectorized/solady/blob/main/src/tokens/ERC20.sol\":21253:21268  mstore(0x40, m) */\n      mstore\n        /* \"https://github.com/Vectorized/solady/blob/main/src/tokens/ERC20.sol\":21330:21331  0 */\n      0x00\n        /* \"https://github.com/Vectorized/solady/blob/main/src/tokens/ERC20.sol\":21324:21328  0x60 */\n      0x60\n        /* \"https://github.com/Vectorized/solady/blob/main/src/tokens/ERC20.sol\":21317:21332  mstore(0x60, 0) */\n      mstore\n        /* \"https://github.com/Vectorized/solady/blob/main/src/tokens/ERC20.sol\":18627:21371  {... */\n      pop\n      pop\n      pop\n      pop\n      pop\n      pop\n        /* \"https://github.com/Vectorized/solady/blob/main/src/tokens/ERC20.sol\":17661:21377  function permit(... */\n      pop\n      pop\n      pop\n      pop\n      pop\n      pop\n      pop\n      jump\t// out\n        /* \"https://github.com/Vectorized/solady/blob/main/src/tokens/ERC20.sol\":7549:8044  function allowance(address owner, address spender)... */\n    tag_143:\n        /* \"https://github.com/Vectorized/solady/blob/main/src/tokens/ERC20.sol\":7661:7675  uint256 result */\n      0x00\n        /* \"https://github.com/Vectorized/solady/blob/main/src/tokens/ERC20.sol\":7695:7726  _givePermit2InfiniteAllowance() */\n      tag_268\n        /* \"https://github.com/Vectorized/solady/blob/main/src/tokens/ERC20.sol\":7695:7724  _givePermit2InfiniteAllowance */\n      tag_166\n        /* \"https://github.com/Vectorized/solady/blob/main/src/tokens/ERC20.sol\":7695:7726  _givePermit2InfiniteAllowance() */\n      jump\t// in\n    tag_268:\n        /* \"https://github.com/Vectorized/solady/blob/main/src/tokens/ERC20.sol\":7691:7802  if (_givePermit2InfiniteAllowance()) {... */\n      iszero\n      tag_269\n      jumpi\n        /* \"https://github.com/Vectorized/solady/blob/main/src/tokens/ERC20.sol\":5869:5911  0x000000000022D473030F116dDEE9F6B43aC78BA3 */\n      0x22d473030f116ddee9f6b43ac78ba3\n        /* \"https://github.com/Vectorized/solady/blob/main/src/tokens/ERC20.sol\":7746:7765  spender == _PERMIT2 */\n      0xffffffffffffffffffffffffffffffffffffffff\n      and\n        /* \"https://github.com/Vectorized/solady/blob/main/src/tokens/ERC20.sol\":7746:7753  spender */\n      dup3\n        /* \"https://github.com/Vectorized/solady/blob/main/src/tokens/ERC20.sol\":7746:7765  spender == _PERMIT2 */\n      0xffffffffffffffffffffffffffffffffffffffff\n      and\n      sub\n        /* \"https://github.com/Vectorized/solady/blob/main/src/tokens/ERC20.sol\":7742:7791  if (spender == _PERMIT2) return type(uint256).max */\n      tag_270\n      jumpi\n        /* \"https://github.com/Vectorized/solady/blob/main/src/tokens/ERC20.sol\":7774:7791  type(uint256).max */\n      0xffffffffffffffffffffffffffffffffffffffffffffffffffffffffffffffff\n        /* \"https://github.com/Vectorized/solady/blob/main/src/tokens/ERC20.sol\":7767:7791  return type(uint256).max */\n      swap1\n      pop\n      jump(tag_267)\n        /* \"https://github.com/Vectorized/solady/blob/main/src/tokens/ERC20.sol\":7742:7791  if (spender == _PERMIT2) return type(uint256).max */\n    tag_270:\n        /* \"https://github.com/Vectorized/solady/blob/main/src/tokens/ERC20.sol\":7691:7802  if (_givePermit2InfiniteAllowance()) {... */\n    tag_269:\n        /* \"https://github.com/Vectorized/solady/blob/main/src/tokens/ERC20.sol\":7890:7897  spender */\n      dup2\n        /* \"https://github.com/Vectorized/solady/blob/main/src/tokens/ERC20.sol\":7884:7888  0x20 */\n      0x20\n        /* \"https://github.com/Vectorized/solady/blob/main/src/tokens/ERC20.sol\":7877:7898  mstore(0x20, spender) */\n      mstore\n        /* \"https://github.com/Vectorized/solady/blob/main/src/tokens/ERC20.sol\":7924:7944  _ALLOWANCE_SLOT_SEED */\n      0x7f5e9f20\n        /* \"https://github.com/Vectorized/solady/blob/main/src/tokens/ERC20.sol\":7918:7922  0x0c */\n      0x0c\n        /* \"https://github.com/Vectorized/solady/blob/main/src/tokens/ERC20.sol\":7911:7945  mstore(0x0c, _ALLOWANCE_SLOT_SEED) */\n      mstore\n        /* \"https://github.com/Vectorized/solady/blob/main/src/tokens/ERC20.sol\":7971:7976  owner */\n      dup3\n        /* \"https://github.com/Vectorized/solady/blob/main/src/tokens/ERC20.sol\":7965:7969  0x00 */\n      0x00\n        /* \"https://github.com/Vectorized/solady/blob/main/src/tokens/ERC20.sol\":7958:7977  mstore(0x00, owner) */\n      mstore\n        /* \"https://github.com/Vectorized/solady/blob/main/src/tokens/ERC20.sol\":8022:8026  0x34 */\n      0x34\n        /* \"https://github.com/Vectorized/solady/blob/main/src/tokens/ERC20.sol\":8016:8020  0x0c */\n      0x0c\n        /* \"https://github.com/Vectorized/solady/blob/main/src/tokens/ERC20.sol\":8006:8027  keccak256(0x0c, 0x34) */\n      keccak256\n        /* \"https://github.com/Vectorized/solady/blob/main/src/tokens/ERC20.sol\":8000:8028  sload(keccak256(0x0c, 0x34)) */\n      sload\n        /* \"https://github.com/Vectorized/solady/blob/main/src/tokens/ERC20.sol\":7990:8028  result := sload(keccak256(0x0c, 0x34)) */\n      swap1\n      pop\n        /* \"https://github.com/Vectorized/solady/blob/main/src/tokens/ERC20.sol\":7549:8044  function allowance(address owner, address spender)... */\n    tag_267:\n      swap3\n      swap2\n      pop\n      pop\n      jump\t// out\n        /* \"src/GuanoCore.sol\":3189:3302  function previewDeposit(uint assets) public view returns (uint) {... */\n    tag_148:\n        /* \"src/GuanoCore.sol\":3247:3251  uint */\n      0x00\n        /* \"src/GuanoCore.sol\":3271:3294  convertToShares(assets) */\n      tag_272\n        /* \"src/GuanoCore.sol\":3287:3293  assets */\n      dup3\n        /* \"src/GuanoCore.sol\":3271:3286  convertToShares */\n      tag_127\n        /* \"src/GuanoCore.sol\":3271:3294  convertToShares(assets) */\n      jump\t// in\n    tag_272:\n        /* \"src/GuanoCore.sol\":3264:3294  return convertToShares(assets) */\n      swap1\n      pop\n        /* \"src/GuanoCore.sol\":3189:3302  function previewDeposit(uint assets) public view returns (uint) {... */\n      swap2\n      swap1\n      pop\n      jump\t// out\n        /* \"@openzeppelin/contracts/access/Ownable.sol\":2543:2758  function transferOwnership(address newOwner) public virtual onlyOwner {... */\n    tag_153:\n        /* \"@openzeppelin/contracts/access/Ownable.sol\":1531:1544  _checkOwner() */\n      tag_274\n        /* \"@openzeppelin/contracts/access/Ownable.sol\":1531:1542  _checkOwner */\n      tag_171\n        /* \"@openzeppelin/contracts/access/Ownable.sol\":1531:1544  _checkOwner() */\n      jump\t// in\n    tag_274:\n        /* \"@openzeppelin/contracts/access/Ownable.sol\":2647:2648  0 */\n      0x00\n        /* \"@openzeppelin/contracts/access/Ownable.sol\":2627:2649  newOwner == address(0) */\n      0xffffffffffffffffffffffffffffffffffffffff\n      and\n        /* \"@openzeppelin/contracts/access/Ownable.sol\":2627:2635  newOwner */\n      dup2\n        /* \"@openzeppelin/contracts/access/Ownable.sol\":2627:2649  newOwner == address(0) */\n      0xffffffffffffffffffffffffffffffffffffffff\n      and\n      sub\n        /* \"@openzeppelin/contracts/access/Ownable.sol\":2623:2714  if (newOwner == address(0)) {... */\n      tag_276\n      jumpi\n        /* \"@openzeppelin/contracts/access/Ownable.sol\":2700:2701  0 */\n      0x00\n        /* \"@openzeppelin/contracts/access/Ownable.sol\":2672:2703  OwnableInvalidOwner(address(0)) */\n      mload(0x40)\n      0x1e4fbdf700000000000000000000000000000000000000000000000000000000\n      dup2\n      mstore\n      0x04\n      add\n      tag_277\n      swap2\n      swap1\n      tag_103\n      jump\t// in\n    tag_277:\n      mload(0x40)\n      dup1\n      swap2\n      sub\n      swap1\n      revert\n        /* \"@openzeppelin/contracts/access/Ownable.sol\":2623:2714  if (newOwner == address(0)) {... */\n    tag_276:\n        /* \"@openzeppelin/contracts/access/Ownable.sol\":2723:2751  _transferOwnership(newOwner) */\n      tag_278\n        /* \"@openzeppelin/contracts/access/Ownable.sol\":2742:2750  newOwner */\n      dup2\n        /* \"@openzeppelin/contracts/access/Ownable.sol\":2723:2741  _transferOwnership */\n      tag_217\n        /* \"@openzeppelin/contracts/access/Ownable.sol\":2723:2751  _transferOwnership(newOwner) */\n      jump\t// in\n    tag_278:\n        /* \"@openzeppelin/contracts/access/Ownable.sol\":2543:2758  function transferOwnership(address newOwner) public virtual onlyOwner {... */\n      pop\n      jump\t// out\n        /* \"https://github.com/Vectorized/solady/blob/main/src/tokens/ERC20.sol\":30986:31093  function _givePermit2InfiniteAllowance() internal view virtual returns (bool) {... */\n    tag_166:\n        /* \"https://github.com/Vectorized/solady/blob/main/src/tokens/ERC20.sol\":31058:31062  bool */\n      0x00\n        /* \"https://github.com/Vectorized/solady/blob/main/src/tokens/ERC20.sol\":31081:31086  false */\n      0x00\n        /* \"https://github.com/Vectorized/solady/blob/main/src/tokens/ERC20.sol\":31074:31086  return false */\n      swap1\n      pop\n        /* \"https://github.com/Vectorized/solady/blob/main/src/tokens/ERC20.sol\":30986:31093  function _givePermit2InfiniteAllowance() internal view virtual returns (bool) {... */\n      swap1\n      jump\t// out\n        /* \"@openzeppelin/contracts/access/Ownable.sol\":1796:1958  function _checkOwner() internal view virtual {... */\n    tag_171:\n        /* \"@openzeppelin/contracts/access/Ownable.sol\":1866:1878  _msgSender() */\n      tag_281\n        /* \"@openzeppelin/contracts/access/Ownable.sol\":1866:1876  _msgSender */\n      tag_282\n        /* \"@openzeppelin/contracts/access/Ownable.sol\":1866:1878  _msgSender() */\n      jump\t// in\n    tag_281:\n        /* \"@openzeppelin/contracts/access/Ownable.sol\":1855:1878  owner() != _msgSender() */\n      0xffffffffffffffffffffffffffffffffffffffff\n      and\n        /* \"@openzeppelin/contracts/access/Ownable.sol\":1855:1862  owner() */\n      tag_283\n        /* \"@openzeppelin/contracts/access/Ownable.sol\":1855:1860  owner */\n      tag_101\n        /* \"@openzeppelin/contracts/access/Ownable.sol\":1855:1862  owner() */\n      jump\t// in\n    tag_283:\n        /* \"@openzeppelin/contracts/access/Ownable.sol\":1855:1878  owner() != _msgSender() */\n      0xffffffffffffffffffffffffffffffffffffffff\n      and\n      eq\n        /* \"@openzeppelin/contracts/access/Ownable.sol\":1851:1952  if (owner() != _msgSender()) {... */\n      tag_284\n      jumpi\n        /* \"@openzeppelin/contracts/access/Ownable.sol\":1928:1940  _msgSender() */\n      tag_285\n        /* \"@openzeppelin/contracts/access/Ownable.sol\":1928:1938  _msgSender */\n      tag_282\n        /* \"@openzeppelin/contracts/access/Ownable.sol\":1928:1940  _msgSender() */\n      jump\t// in\n    tag_285:\n        /* \"@openzeppelin/contracts/access/Ownable.sol\":1901:1941  OwnableUnauthorizedAccount(_msgSender()) */\n      mload(0x40)\n      0x118cdaa700000000000000000000000000000000000000000000000000000000\n      dup2\n      mstore\n      0x04\n      add\n      tag_286\n      swap2\n      swap1\n      tag_103\n      jump\t// in\n    tag_286:\n      mload(0x40)\n      dup1\n      swap2\n      sub\n      swap1\n      revert\n        /* \"@openzeppelin/contracts/access/Ownable.sol\":1851:1952  if (owner() != _msgSender()) {... */\n    tag_284:\n        /* \"@openzeppelin/contracts/access/Ownable.sol\":1796:1958  function _checkOwner() internal view virtual {... */\n      jump\t// out\n        /* \"https://github.com/Vectorized/solady/blob/main/src/tokens/ERC20.sol\":30066:30157  function _beforeTokenTransfer(address from, address to, uint256 amount) internal virtual {} */\n    tag_181:\n      pop\n      pop\n      pop\n      jump\t// out\n        /* \"https://github.com/Vectorized/solady/blob/main/src/tokens/ERC20.sol\":30269:30359  function _afterTokenTransfer(address from, address to, uint256 amount) internal virtual {} */\n    tag_193:\n      pop\n      pop\n      pop\n      jump\t// out\n        /* \"https://github.com/Vectorized/solady/blob/main/src/tokens/ERC20.sol\":16349:16427  function _constantNameHash() internal view virtual returns (bytes32 result) {} */\n    tag_197:\n        /* \"https://github.com/Vectorized/solady/blob/main/src/tokens/ERC20.sol\":16409:16423  bytes32 result */\n      0x00\n        /* \"https://github.com/Vectorized/solady/blob/main/src/tokens/ERC20.sol\":16349:16427  function _constantNameHash() internal view virtual returns (bytes32 result) {} */\n      swap1\n      jump\t// out\n        /* \"https://github.com/Vectorized/solady/blob/main/src/tokens/ERC20.sol\":16501:16619  function _versionHash() internal view virtual returns (bytes32 result) {... */\n    tag_201:\n        /* \"https://github.com/Vectorized/solady/blob/main/src/tokens/ERC20.sol\":16556:16570  bytes32 result */\n      0x00\n        /* \"https://github.com/Vectorized/solady/blob/main/src/tokens/ERC20.sol\":5177:5243  0xc89efdaa54c0f20c7adf612882df0950f5a951637e0307cdcb4c672f298b8bc6 */\n      0xc89efdaa54c0f20c7adf612882df0950f5a951637e0307cdcb4c672f298b8bc6\n        /* \"https://github.com/Vectorized/solady/blob/main/src/tokens/ERC20.sol\":16591:16612  _DEFAULT_VERSION_HASH */\n      0x00\n      shl\n        /* \"https://github.com/Vectorized/solady/blob/main/src/tokens/ERC20.sol\":16582:16612  result = _DEFAULT_VERSION_HASH */\n      swap1\n      pop\n        /* \"https://github.com/Vectorized/solady/blob/main/src/tokens/ERC20.sol\":16501:16619  function _versionHash() internal view virtual returns (bytes32 result) {... */\n      swap1\n      jump\t// out\n        /* \"https://github.com/Vectorized/solady/blob/main/src/tokens/ERC20.sol\":22599:23771  function _mint(address to, uint256 amount) internal virtual {... */\n    tag_209:\n        /* \"https://github.com/Vectorized/solady/blob/main/src/tokens/ERC20.sol\":22669:22713  _beforeTokenTransfer(address(0), to, amount) */\n      tag_292\n        /* \"https://github.com/Vectorized/solady/blob/main/src/tokens/ERC20.sol\":22698:22699  0 */\n      0x00\n        /* \"https://github.com/Vectorized/solady/blob/main/src/tokens/ERC20.sol\":22702:22704  to */\n      dup4\n        /* \"https://github.com/Vectorized/solady/blob/main/src/tokens/ERC20.sol\":22706:22712  amount */\n      dup4\n        /* \"https://github.com/Vectorized/solady/blob/main/src/tokens/ERC20.sol\":22669:22689  _beforeTokenTransfer */\n      tag_181\n        /* \"https://github.com/Vectorized/solady/blob/main/src/tokens/ERC20.sol\":22669:22713  _beforeTokenTransfer(address(0), to, amount) */\n      jump\t// in\n    tag_292:\n        /* \"https://github.com/Vectorized/solady/blob/main/src/tokens/ERC20.sol\":22820:22838  _TOTAL_SUPPLY_SLOT */\n      0x05345cdf77eb68f44c\n        /* \"https://github.com/Vectorized/solady/blob/main/src/tokens/ERC20.sol\":22814:22839  sload(_TOTAL_SUPPLY_SLOT) */\n      sload\n        /* \"https://github.com/Vectorized/solady/blob/main/src/tokens/ERC20.sol\":22899:22905  amount */\n      dup2\n        /* \"https://github.com/Vectorized/solady/blob/main/src/tokens/ERC20.sol\":22880:22897  totalSupplyBefore */\n      dup2\n        /* \"https://github.com/Vectorized/solady/blob/main/src/tokens/ERC20.sol\":22876:22906  add(totalSupplyBefore, amount) */\n      add\n        /* \"https://github.com/Vectorized/solady/blob/main/src/tokens/ERC20.sol\":22996:23013  totalSupplyBefore */\n      dup2\n        /* \"https://github.com/Vectorized/solady/blob/main/src/tokens/ERC20.sol\":22978:22994  totalSupplyAfter */\n      dup2\n        /* \"https://github.com/Vectorized/solady/blob/main/src/tokens/ERC20.sol\":22975:23014  lt(totalSupplyAfter, totalSupplyBefore) */\n      lt\n        /* \"https://github.com/Vectorized/solady/blob/main/src/tokens/ERC20.sol\":22972:23134  if lt(totalSupplyAfter, totalSupplyBefore) {... */\n      iszero\n      tag_293\n      jumpi\n        /* \"https://github.com/Vectorized/solady/blob/main/src/tokens/ERC20.sol\":23046:23056  0xe5cfe957 */\n      0xe5cfe957\n        /* \"https://github.com/Vectorized/solady/blob/main/src/tokens/ERC20.sol\":23040:23044  0x00 */\n      0x00\n        /* \"https://github.com/Vectorized/solady/blob/main/src/tokens/ERC20.sol\":23033:23057  mstore(0x00, 0xe5cfe957) */\n      mstore\n        /* \"https://github.com/Vectorized/solady/blob/main/src/tokens/ERC20.sol\":23115:23119  0x04 */\n      0x04\n        /* \"https://github.com/Vectorized/solady/blob/main/src/tokens/ERC20.sol\":23109:23113  0x1c */\n      0x1c\n        /* \"https://github.com/Vectorized/solady/blob/main/src/tokens/ERC20.sol\":23102:23120  revert(0x1c, 0x04) */\n      revert\n        /* \"https://github.com/Vectorized/solady/blob/main/src/tokens/ERC20.sol\":22972:23134  if lt(totalSupplyAfter, totalSupplyBefore) {... */\n    tag_293:\n        /* \"https://github.com/Vectorized/solady/blob/main/src/tokens/ERC20.sol\":23221:23237  totalSupplyAfter */\n      dup1\n        /* \"https://github.com/Vectorized/solady/blob/main/src/tokens/ERC20.sol\":23201:23219  _TOTAL_SUPPLY_SLOT */\n      0x05345cdf77eb68f44c\n        /* \"https://github.com/Vectorized/solady/blob/main/src/tokens/ERC20.sol\":23194:23238  sstore(_TOTAL_SUPPLY_SLOT, totalSupplyAfter) */\n      sstore\n        /* \"https://github.com/Vectorized/solady/blob/main/src/tokens/ERC20.sol\":23324:23342  _BALANCE_SLOT_SEED */\n      0x87a211a2\n        /* \"https://github.com/Vectorized/solady/blob/main/src/tokens/ERC20.sol\":23318:23322  0x0c */\n      0x0c\n        /* \"https://github.com/Vectorized/solady/blob/main/src/tokens/ERC20.sol\":23311:23343  mstore(0x0c, _BALANCE_SLOT_SEED) */\n      mstore\n        /* \"https://github.com/Vectorized/solady/blob/main/src/tokens/ERC20.sol\":23369:23371  to */\n      dup4\n        /* \"https://github.com/Vectorized/solady/blob/main/src/tokens/ERC20.sol\":23363:23367  0x00 */\n      0x00\n        /* \"https://github.com/Vectorized/solady/blob/main/src/tokens/ERC20.sol\":23356:23372  mstore(0x00, to) */\n      mstore\n        /* \"https://github.com/Vectorized/solady/blob/main/src/tokens/ERC20.sol\":23422:23426  0x20 */\n      0x20\n        /* \"https://github.com/Vectorized/solady/blob/main/src/tokens/ERC20.sol\":23416:23420  0x0c */\n      0x0c\n        /* \"https://github.com/Vectorized/solady/blob/main/src/tokens/ERC20.sol\":23406:23427  keccak256(0x0c, 0x20) */\n      keccak256\n        /* \"https://github.com/Vectorized/solady/blob/main/src/tokens/ERC20.sol\":23538:23544  amount */\n      dup4\n        /* \"https://github.com/Vectorized/solady/blob/main/src/tokens/ERC20.sol\":23522:23535  toBalanceSlot */\n      dup2\n        /* \"https://github.com/Vectorized/solady/blob/main/src/tokens/ERC20.sol\":23516:23536  sload(toBalanceSlot) */\n      sload\n        /* \"https://github.com/Vectorized/solady/blob/main/src/tokens/ERC20.sol\":23512:23545  add(sload(toBalanceSlot), amount) */\n      add\n        /* \"https://github.com/Vectorized/solady/blob/main/src/tokens/ERC20.sol\":23497:23510  toBalanceSlot */\n      dup2\n        /* \"https://github.com/Vectorized/solady/blob/main/src/tokens/ERC20.sol\":23490:23546  sstore(toBalanceSlot, add(sload(toBalanceSlot), amount)) */\n      sstore\n        /* \"https://github.com/Vectorized/solady/blob/main/src/tokens/ERC20.sol\":23614:23620  amount */\n      dup4\n        /* \"https://github.com/Vectorized/solady/blob/main/src/tokens/ERC20.sol\":23608:23612  0x20 */\n      0x20\n        /* \"https://github.com/Vectorized/solady/blob/main/src/tokens/ERC20.sol\":23601:23621  mstore(0x20, amount) */\n      mstore\n        /* \"https://github.com/Vectorized/solady/blob/main/src/tokens/ERC20.sol\":23695:23699  0x0c */\n      0x0c\n        /* \"https://github.com/Vectorized/solady/blob/main/src/tokens/ERC20.sol\":23689:23700  mload(0x0c) */\n      mload\n        /* \"https://github.com/Vectorized/solady/blob/main/src/tokens/ERC20.sol\":23685:23687  96 */\n      0x60\n        /* \"https://github.com/Vectorized/solady/blob/main/src/tokens/ERC20.sol\":23681:23701  shr(96, mload(0x0c)) */\n      shr\n        /* \"https://github.com/Vectorized/solady/blob/main/src/tokens/ERC20.sol\":23678:23679  0 */\n      0x00\n        /* \"https://github.com/Vectorized/solady/blob/main/src/tokens/ERC20.sol\":23651:23676  _TRANSFER_EVENT_SIGNATURE */\n      0xddf252ad1be2c89b69c2b068fc378daa952ba7f163c4a11628f55a4df523b3ef\n        /* \"https://github.com/Vectorized/solady/blob/main/src/tokens/ERC20.sol\":23645:23649  0x20 */\n      0x20\n        /* \"https://github.com/Vectorized/solady/blob/main/src/tokens/ERC20.sol\":23639:23643  0x20 */\n      dup1\n        /* \"https://github.com/Vectorized/solady/blob/main/src/tokens/ERC20.sol\":23634:23702  log3(0x20, 0x20, _TRANSFER_EVENT_SIGNATURE, 0, shr(96, mload(0x0c))) */\n      log3\n        /* \"https://github.com/Vectorized/solady/blob/main/src/tokens/ERC20.sol\":22775:23712  {... */\n      pop\n      pop\n      pop\n        /* \"https://github.com/Vectorized/solady/blob/main/src/tokens/ERC20.sol\":23721:23764  _afterTokenTransfer(address(0), to, amount) */\n      tag_294\n        /* \"https://github.com/Vectorized/solady/blob/main/src/tokens/ERC20.sol\":23749:23750  0 */\n      0x00\n        /* \"https://github.com/Vectorized/solady/blob/main/src/tokens/ERC20.sol\":23753:23755  to */\n      dup4\n        /* \"https://github.com/Vectorized/solady/blob/main/src/tokens/ERC20.sol\":23757:23763  amount */\n      dup4\n        /* \"https://github.com/Vectorized/solady/blob/main/src/tokens/ERC20.sol\":23721:23740  _afterTokenTransfer */\n      tag_193\n        /* \"https://github.com/Vectorized/solady/blob/main/src/tokens/ERC20.sol\":23721:23764  _afterTokenTransfer(address(0), to, amount) */\n      jump\t// in\n    tag_294:\n        /* \"https://github.com/Vectorized/solady/blob/main/src/tokens/ERC20.sol\":22599:23771  function _mint(address to, uint256 amount) internal virtual {... */\n      pop\n      pop\n      jump\t// out\n        /* \"@openzeppelin/contracts/access/Ownable.sol\":2912:3099  function _transferOwnership(address newOwner) internal virtual {... */\n    tag_217:\n        /* \"@openzeppelin/contracts/access/Ownable.sol\":2985:3001  address oldOwner */\n      0x00\n        /* \"@openzeppelin/contracts/access/Ownable.sol\":3004:3010  _owner */\n      0x00\n      0x00\n      swap1\n      sload\n      swap1\n      0x0100\n      exp\n      swap1\n      div\n      0xffffffffffffffffffffffffffffffffffffffff\n      and\n        /* \"@openzeppelin/contracts/access/Ownable.sol\":2985:3010  address oldOwner = _owner */\n      swap1\n      pop\n        /* \"@openzeppelin/contracts/access/Ownable.sol\":3029:3037  newOwner */\n      dup2\n        /* \"@openzeppelin/contracts/access/Ownable.sol\":3020:3026  _owner */\n      0x00\n      0x00\n        /* \"@openzeppelin/contracts/access/Ownable.sol\":3020:3037  _owner = newOwner */\n      0x0100\n      exp\n      dup2\n      sload\n      dup2\n      0xffffffffffffffffffffffffffffffffffffffff\n      mul\n      not\n      and\n      swap1\n      dup4\n      0xffffffffffffffffffffffffffffffffffffffff\n      and\n      mul\n      or\n      swap1\n      sstore\n      pop\n        /* \"@openzeppelin/contracts/access/Ownable.sol\":3083:3091  newOwner */\n      dup2\n        /* \"@openzeppelin/contracts/access/Ownable.sol\":3052:3092  OwnershipTransferred(oldOwner, newOwner) */\n      0xffffffffffffffffffffffffffffffffffffffff\n      and\n        /* \"@openzeppelin/contracts/access/Ownable.sol\":3073:3081  oldOwner */\n      dup2\n        /* \"@openzeppelin/contracts/access/Ownable.sol\":3052:3092  OwnershipTransferred(oldOwner, newOwner) */\n      0xffffffffffffffffffffffffffffffffffffffff\n      and\n      0x8be0079c531659141344cd1fd0a4f28419497f9722a3daafe3b4186f6b6457e0\n      mload(0x40)\n      mload(0x40)\n      dup1\n      swap2\n      sub\n      swap1\n      log3\n        /* \"@openzeppelin/contracts/access/Ownable.sol\":2975:3099  {... */\n      pop\n        /* \"@openzeppelin/contracts/access/Ownable.sol\":2912:3099  function _transferOwnership(address newOwner) internal virtual {... */\n      pop\n      jump\t// out\n        /* \"https://github.com/Vectorized/solady/blob/main/src/tokens/ERC20.sol\":27414:28501  function _spendAllowance(address owner, address spender, uint256 amount) internal virtual {... */\n    tag_229:\n        /* \"https://github.com/Vectorized/solady/blob/main/src/tokens/ERC20.sol\":27518:27549  _givePermit2InfiniteAllowance() */\n      tag_297\n        /* \"https://github.com/Vectorized/solady/blob/main/src/tokens/ERC20.sol\":27518:27547  _givePermit2InfiniteAllowance */\n      tag_166\n        /* \"https://github.com/Vectorized/solady/blob/main/src/tokens/ERC20.sol\":27518:27549  _givePermit2InfiniteAllowance() */\n      jump\t// in\n    tag_297:\n        /* \"https://github.com/Vectorized/solady/blob/main/src/tokens/ERC20.sol\":27514:27648  if (_givePermit2InfiniteAllowance()) {... */\n      iszero\n      tag_298\n      jumpi\n        /* \"https://github.com/Vectorized/solady/blob/main/src/tokens/ERC20.sol\":5869:5911  0x000000000022D473030F116dDEE9F6B43aC78BA3 */\n      0x22d473030f116ddee9f6b43ac78ba3\n        /* \"https://github.com/Vectorized/solady/blob/main/src/tokens/ERC20.sol\":27569:27588  spender == _PERMIT2 */\n      0xffffffffffffffffffffffffffffffffffffffff\n      and\n        /* \"https://github.com/Vectorized/solady/blob/main/src/tokens/ERC20.sol\":27569:27576  spender */\n      dup3\n        /* \"https://github.com/Vectorized/solady/blob/main/src/tokens/ERC20.sol\":27569:27588  spender == _PERMIT2 */\n      0xffffffffffffffffffffffffffffffffffffffff\n      and\n      sub\n        /* \"https://github.com/Vectorized/solady/blob/main/src/tokens/ERC20.sol\":27565:27597  if (spender == _PERMIT2) return; */\n      iszero\n        /* \"https://github.com/Vectorized/solady/blob/main/src/tokens/ERC20.sol\":27590:27597  return; */\n      tag_296\n        /* \"https://github.com/Vectorized/solady/blob/main/src/tokens/ERC20.sol\":27565:27597  if (spender == _PERMIT2) return; */\n      jumpi\n        /* \"https://github.com/Vectorized/solady/blob/main/src/tokens/ERC20.sol\":27514:27648  if (_givePermit2InfiniteAllowance()) {... */\n    tag_298:\n        /* \"https://github.com/Vectorized/solady/blob/main/src/tokens/ERC20.sol\":27798:27805  spender */\n      dup2\n        /* \"https://github.com/Vectorized/solady/blob/main/src/tokens/ERC20.sol\":27792:27796  0x20 */\n      0x20\n        /* \"https://github.com/Vectorized/solady/blob/main/src/tokens/ERC20.sol\":27785:27806  mstore(0x20, spender) */\n      mstore\n        /* \"https://github.com/Vectorized/solady/blob/main/src/tokens/ERC20.sol\":27832:27852  _ALLOWANCE_SLOT_SEED */\n      0x7f5e9f20\n        /* \"https://github.com/Vectorized/solady/blob/main/src/tokens/ERC20.sol\":27826:27830  0x0c */\n      0x0c\n        /* \"https://github.com/Vectorized/solady/blob/main/src/tokens/ERC20.sol\":27819:27853  mstore(0x0c, _ALLOWANCE_SLOT_SEED) */\n      mstore\n        /* \"https://github.com/Vectorized/solady/blob/main/src/tokens/ERC20.sol\":27879:27884  owner */\n      dup3\n        /* \"https://github.com/Vectorized/solady/blob/main/src/tokens/ERC20.sol\":27873:27877  0x00 */\n      0x00\n        /* \"https://github.com/Vectorized/solady/blob/main/src/tokens/ERC20.sol\":27866:27885  mstore(0x00, owner) */\n      mstore\n        /* \"https://github.com/Vectorized/solady/blob/main/src/tokens/ERC20.sol\":27935:27939  0x34 */\n      0x34\n        /* \"https://github.com/Vectorized/solady/blob/main/src/tokens/ERC20.sol\":27929:27933  0x0c */\n      0x0c\n        /* \"https://github.com/Vectorized/solady/blob/main/src/tokens/ERC20.sol\":27919:27940  keccak256(0x0c, 0x34) */\n      keccak256\n        /* \"https://github.com/Vectorized/solady/blob/main/src/tokens/ERC20.sol\":27977:27990  allowanceSlot */\n      dup1\n        /* \"https://github.com/Vectorized/solady/blob/main/src/tokens/ERC20.sol\":27971:27991  sload(allowanceSlot) */\n      sload\n        /* \"https://github.com/Vectorized/solady/blob/main/src/tokens/ERC20.sol\":28077:28087  allowance_ */\n      dup1\n        /* \"https://github.com/Vectorized/solady/blob/main/src/tokens/ERC20.sol\":28073:28088  not(allowance_) */\n      not\n        /* \"https://github.com/Vectorized/solady/blob/main/src/tokens/ERC20.sol\":28070:28485  if not(allowance_) {... */\n      iszero\n      tag_300\n      jumpi\n        /* \"https://github.com/Vectorized/solady/blob/main/src/tokens/ERC20.sol\":28202:28212  allowance_ */\n      dup1\n        /* \"https://github.com/Vectorized/solady/blob/main/src/tokens/ERC20.sol\":28194:28200  amount */\n      dup4\n        /* \"https://github.com/Vectorized/solady/blob/main/src/tokens/ERC20.sol\":28191:28213  gt(amount, allowance_) */\n      gt\n        /* \"https://github.com/Vectorized/solady/blob/main/src/tokens/ERC20.sol\":28188:28347  if gt(amount, allowance_) {... */\n      iszero\n      tag_301\n      jumpi\n        /* \"https://github.com/Vectorized/solady/blob/main/src/tokens/ERC20.sol\":28249:28259  0x13be252b */\n      0x13be252b\n        /* \"https://github.com/Vectorized/solady/blob/main/src/tokens/ERC20.sol\":28243:28247  0x00 */\n      0x00\n        /* \"https://github.com/Vectorized/solady/blob/main/src/tokens/ERC20.sol\":28236:28260  mstore(0x00, 0x13be252b) */\n      mstore\n        /* \"https://github.com/Vectorized/solady/blob/main/src/tokens/ERC20.sol\":28324:28328  0x04 */\n      0x04\n        /* \"https://github.com/Vectorized/solady/blob/main/src/tokens/ERC20.sol\":28318:28322  0x1c */\n      0x1c\n        /* \"https://github.com/Vectorized/solady/blob/main/src/tokens/ERC20.sol\":28311:28329  revert(0x1c, 0x04) */\n      revert\n        /* \"https://github.com/Vectorized/solady/blob/main/src/tokens/ERC20.sol\":28188:28347  if gt(amount, allowance_) {... */\n    tag_301:\n        /* \"https://github.com/Vectorized/solady/blob/main/src/tokens/ERC20.sol\":28463:28469  amount */\n      dup3\n        /* \"https://github.com/Vectorized/solady/blob/main/src/tokens/ERC20.sol\":28451:28461  allowance_ */\n      dup2\n        /* \"https://github.com/Vectorized/solady/blob/main/src/tokens/ERC20.sol\":28447:28470  sub(allowance_, amount) */\n      sub\n        /* \"https://github.com/Vectorized/solady/blob/main/src/tokens/ERC20.sol\":28432:28445  allowanceSlot */\n      dup3\n        /* \"https://github.com/Vectorized/solady/blob/main/src/tokens/ERC20.sol\":28425:28471  sstore(allowanceSlot, sub(allowance_, amount)) */\n      sstore\n        /* \"https://github.com/Vectorized/solady/blob/main/src/tokens/ERC20.sol\":28070:28485  if not(allowance_) {... */\n    tag_300:\n        /* \"https://github.com/Vectorized/solady/blob/main/src/tokens/ERC20.sol\":27709:28495  {... */\n      pop\n      pop\n        /* \"https://github.com/Vectorized/solady/blob/main/src/tokens/ERC20.sol\":27414:28501  function _spendAllowance(address owner, address spender, uint256 amount) internal virtual {... */\n    tag_296:\n      pop\n      pop\n      pop\n      jump\t// out\n        /* \"https://github.com/Vectorized/solady/blob/main/src/tokens/ERC20.sol\":24177:25296  function _burn(address from, uint256 amount) internal virtual {... */\n    tag_233:\n        /* \"https://github.com/Vectorized/solady/blob/main/src/tokens/ERC20.sol\":24249:24295  _beforeTokenTransfer(from, address(0), amount) */\n      tag_303\n        /* \"https://github.com/Vectorized/solady/blob/main/src/tokens/ERC20.sol\":24270:24274  from */\n      dup3\n        /* \"https://github.com/Vectorized/solady/blob/main/src/tokens/ERC20.sol\":24284:24285  0 */\n      0x00\n        /* \"https://github.com/Vectorized/solady/blob/main/src/tokens/ERC20.sol\":24288:24294  amount */\n      dup4\n        /* \"https://github.com/Vectorized/solady/blob/main/src/tokens/ERC20.sol\":24249:24269  _beforeTokenTransfer */\n      tag_181\n        /* \"https://github.com/Vectorized/solady/blob/main/src/tokens/ERC20.sol\":24249:24295  _beforeTokenTransfer(from, address(0), amount) */\n      jump\t// in\n    tag_303:\n        /* \"https://github.com/Vectorized/solady/blob/main/src/tokens/ERC20.sol\":24444:24462  _BALANCE_SLOT_SEED */\n      0x87a211a2\n        /* \"https://github.com/Vectorized/solady/blob/main/src/tokens/ERC20.sol\":24438:24442  0x0c */\n      0x0c\n        /* \"https://github.com/Vectorized/solady/blob/main/src/tokens/ERC20.sol\":24431:24463  mstore(0x0c, _BALANCE_SLOT_SEED) */\n      mstore\n        /* \"https://github.com/Vectorized/solady/blob/main/src/tokens/ERC20.sol\":24489:24493  from */\n      dup2\n        /* \"https://github.com/Vectorized/solady/blob/main/src/tokens/ERC20.sol\":24483:24487  0x00 */\n      0x00\n        /* \"https://github.com/Vectorized/solady/blob/main/src/tokens/ERC20.sol\":24476:24494  mstore(0x00, from) */\n      mstore\n        /* \"https://github.com/Vectorized/solady/blob/main/src/tokens/ERC20.sol\":24546:24550  0x20 */\n      0x20\n        /* \"https://github.com/Vectorized/solady/blob/main/src/tokens/ERC20.sol\":24540:24544  0x0c */\n      0x0c\n        /* \"https://github.com/Vectorized/solady/blob/main/src/tokens/ERC20.sol\":24530:24551  keccak256(0x0c, 0x20) */\n      keccak256\n        /* \"https://github.com/Vectorized/solady/blob/main/src/tokens/ERC20.sol\":24589:24604  fromBalanceSlot */\n      dup1\n        /* \"https://github.com/Vectorized/solady/blob/main/src/tokens/ERC20.sol\":24583:24605  sload(fromBalanceSlot) */\n      sload\n        /* \"https://github.com/Vectorized/solady/blob/main/src/tokens/ERC20.sol\":24679:24690  fromBalance */\n      dup1\n        /* \"https://github.com/Vectorized/solady/blob/main/src/tokens/ERC20.sol\":24671:24677  amount */\n      dup4\n        /* \"https://github.com/Vectorized/solady/blob/main/src/tokens/ERC20.sol\":24668:24691  gt(amount, fromBalance) */\n      gt\n        /* \"https://github.com/Vectorized/solady/blob/main/src/tokens/ERC20.sol\":24665:24811  if gt(amount, fromBalance) {... */\n      iszero\n      tag_304\n      jumpi\n        /* \"https://github.com/Vectorized/solady/blob/main/src/tokens/ERC20.sol\":24723:24733  0xf4d678b8 */\n      0xf4d678b8\n        /* \"https://github.com/Vectorized/solady/blob/main/src/tokens/ERC20.sol\":24717:24721  0x00 */\n      0x00\n        /* \"https://github.com/Vectorized/solady/blob/main/src/tokens/ERC20.sol\":24710:24734  mstore(0x00, 0xf4d678b8) */\n      mstore\n        /* \"https://github.com/Vectorized/solady/blob/main/src/tokens/ERC20.sol\":24792:24796  0x04 */\n      0x04\n        /* \"https://github.com/Vectorized/solady/blob/main/src/tokens/ERC20.sol\":24786:24790  0x1c */\n      0x1c\n        /* \"https://github.com/Vectorized/solady/blob/main/src/tokens/ERC20.sol\":24779:24797  revert(0x1c, 0x04) */\n      revert\n        /* \"https://github.com/Vectorized/solady/blob/main/src/tokens/ERC20.sol\":24665:24811  if gt(amount, fromBalance) {... */\n    tag_304:\n        /* \"https://github.com/Vectorized/solady/blob/main/src/tokens/ERC20.sol\":24920:24926  amount */\n      dup3\n        /* \"https://github.com/Vectorized/solady/blob/main/src/tokens/ERC20.sol\":24907:24918  fromBalance */\n      dup2\n        /* \"https://github.com/Vectorized/solady/blob/main/src/tokens/ERC20.sol\":24903:24927  sub(fromBalance, amount) */\n      sub\n        /* \"https://github.com/Vectorized/solady/blob/main/src/tokens/ERC20.sol\":24886:24901  fromBalanceSlot */\n      dup3\n        /* \"https://github.com/Vectorized/solady/blob/main/src/tokens/ERC20.sol\":24879:24928  sstore(fromBalanceSlot, sub(fromBalance, amount)) */\n      sstore\n        /* \"https://github.com/Vectorized/solady/blob/main/src/tokens/ERC20.sol\":25059:25065  amount */\n      dup3\n        /* \"https://github.com/Vectorized/solady/blob/main/src/tokens/ERC20.sol\":25038:25056  _TOTAL_SUPPLY_SLOT */\n      0x05345cdf77eb68f44c\n        /* \"https://github.com/Vectorized/solady/blob/main/src/tokens/ERC20.sol\":25032:25057  sload(_TOTAL_SUPPLY_SLOT) */\n      sload\n        /* \"https://github.com/Vectorized/solady/blob/main/src/tokens/ERC20.sol\":25028:25066  sub(sload(_TOTAL_SUPPLY_SLOT), amount) */\n      sub\n        /* \"https://github.com/Vectorized/solady/blob/main/src/tokens/ERC20.sol\":25008:25026  _TOTAL_SUPPLY_SLOT */\n      0x05345cdf77eb68f44c\n        /* \"https://github.com/Vectorized/solady/blob/main/src/tokens/ERC20.sol\":25001:25067  sstore(_TOTAL_SUPPLY_SLOT, sub(sload(_TOTAL_SUPPLY_SLOT), amount)) */\n      sstore\n        /* \"https://github.com/Vectorized/solady/blob/main/src/tokens/ERC20.sol\":25135:25141  amount */\n      dup3\n        /* \"https://github.com/Vectorized/solady/blob/main/src/tokens/ERC20.sol\":25129:25133  0x00 */\n      0x00\n        /* \"https://github.com/Vectorized/solady/blob/main/src/tokens/ERC20.sol\":25122:25142  mstore(0x00, amount) */\n      mstore\n        /* \"https://github.com/Vectorized/solady/blob/main/src/tokens/ERC20.sol\":25223:25224  0 */\n      0x00\n        /* \"https://github.com/Vectorized/solady/blob/main/src/tokens/ERC20.sol\":25215:25219  from */\n      dup5\n        /* \"https://github.com/Vectorized/solady/blob/main/src/tokens/ERC20.sol\":25211:25213  96 */\n      0x60\n        /* \"https://github.com/Vectorized/solady/blob/main/src/tokens/ERC20.sol\":25207:25220  shl(96, from) */\n      shl\n        /* \"https://github.com/Vectorized/solady/blob/main/src/tokens/ERC20.sol\":25203:25205  96 */\n      0x60\n        /* \"https://github.com/Vectorized/solady/blob/main/src/tokens/ERC20.sol\":25199:25221  shr(96, shl(96, from)) */\n      shr\n        /* \"https://github.com/Vectorized/solady/blob/main/src/tokens/ERC20.sol\":25172:25197  _TRANSFER_EVENT_SIGNATURE */\n      0xddf252ad1be2c89b69c2b068fc378daa952ba7f163c4a11628f55a4df523b3ef\n        /* \"https://github.com/Vectorized/solady/blob/main/src/tokens/ERC20.sol\":25166:25170  0x20 */\n      0x20\n        /* \"https://github.com/Vectorized/solady/blob/main/src/tokens/ERC20.sol\":25160:25164  0x00 */\n      0x00\n        /* \"https://github.com/Vectorized/solady/blob/main/src/tokens/ERC20.sol\":25155:25225  log3(0x00, 0x20, _TRANSFER_EVENT_SIGNATURE, shr(96, shl(96, from)), 0) */\n      log3\n        /* \"https://github.com/Vectorized/solady/blob/main/src/tokens/ERC20.sol\":24357:25235  {... */\n      pop\n      pop\n        /* \"https://github.com/Vectorized/solady/blob/main/src/tokens/ERC20.sol\":25244:25289  _afterTokenTransfer(from, address(0), amount) */\n      tag_305\n        /* \"https://github.com/Vectorized/solady/blob/main/src/tokens/ERC20.sol\":25264:25268  from */\n      dup3\n        /* \"https://github.com/Vectorized/solady/blob/main/src/tokens/ERC20.sol\":25278:25279  0 */\n      0x00\n        /* \"https://github.com/Vectorized/solady/blob/main/src/tokens/ERC20.sol\":25282:25288  amount */\n      dup4\n        /* \"https://github.com/Vectorized/solady/blob/main/src/tokens/ERC20.sol\":25244:25263  _afterTokenTransfer */\n      tag_193\n        /* \"https://github.com/Vectorized/solady/blob/main/src/tokens/ERC20.sol\":25244:25289  _afterTokenTransfer(from, address(0), amount) */\n      jump\t// in\n    tag_305:\n        /* \"https://github.com/Vectorized/solady/blob/main/src/tokens/ERC20.sol\":24177:25296  function _burn(address from, uint256 amount) internal virtual {... */\n      pop\n      pop\n      jump\t// out\n        /* \"@openzeppelin/contracts/utils/Context.sol\":656:752  function _msgSender() internal view virtual returns (address) {... */\n    tag_282:\n        /* \"@openzeppelin/contracts/utils/Context.sol\":709:716  address */\n      0x00\n        /* \"@openzeppelin/contracts/utils/Context.sol\":735:745  msg.sender */\n      caller\n        /* \"@openzeppelin/contracts/utils/Context.sol\":728:745  return msg.sender */\n      swap1\n      pop\n        /* \"@openzeppelin/contracts/utils/Context.sol\":656:752  function _msgSender() internal view virtual returns (address) {... */\n      swap1\n      jump\t// out\n        /* \"#utility.yul\":7:106   */\n    tag_307:\n        /* \"#utility.yul\":59:65   */\n      0x00\n        /* \"#utility.yul\":93:98   */\n      dup2\n        /* \"#utility.yul\":87:99   */\n      mload\n        /* \"#utility.yul\":77:99   */\n      swap1\n      pop\n        /* \"#utility.yul\":7:106   */\n      swap2\n      swap1\n      pop\n      jump\t// out\n        /* \"#utility.yul\":112:281   */\n    tag_308:\n        /* \"#utility.yul\":196:207   */\n      0x00\n        /* \"#utility.yul\":230:236   */\n      dup3\n        /* \"#utility.yul\":225:228   */\n      dup3\n        /* \"#utility.yul\":218:237   */\n      mstore\n        /* \"#utility.yul\":270:274   */\n      0x20\n        /* \"#utility.yul\":265:268   */\n      dup3\n        /* \"#utility.yul\":261:275   */\n      add\n        /* \"#utility.yul\":246:275   */\n      swap1\n      pop\n        /* \"#utility.yul\":112:281   */\n      swap3\n      swap2\n      pop\n      pop\n      jump\t// out\n        /* \"#utility.yul\":287:426   */\n    tag_309:\n        /* \"#utility.yul\":376:382   */\n      dup3\n        /* \"#utility.yul\":371:374   */\n      dup2\n        /* \"#utility.yul\":366:369   */\n      dup4\n        /* \"#utility.yul\":360:383   */\n      mcopy\n        /* \"#utility.yul\":417:418   */\n      0x00\n        /* \"#utility.yul\":408:414   */\n      dup4\n        /* \"#utility.yul\":403:406   */\n      dup4\n        /* \"#utility.yul\":399:415   */\n      add\n        /* \"#utility.yul\":392:419   */\n      mstore\n        /* \"#utility.yul\":287:426   */\n      pop\n      pop\n      pop\n      jump\t// out\n        /* \"#utility.yul\":432:534   */\n    tag_310:\n        /* \"#utility.yul\":473:479   */\n      0x00\n        /* \"#utility.yul\":524:526   */\n      0x1f\n        /* \"#utility.yul\":520:527   */\n      not\n        /* \"#utility.yul\":515:517   */\n      0x1f\n        /* \"#utility.yul\":508:513   */\n      dup4\n        /* \"#utility.yul\":504:518   */\n      add\n        /* \"#utility.yul\":500:528   */\n      and\n        /* \"#utility.yul\":490:528   */\n      swap1\n      pop\n        /* \"#utility.yul\":432:534   */\n      swap2\n      swap1\n      pop\n      jump\t// out\n        /* \"#utility.yul\":540:917   */\n    tag_311:\n        /* \"#utility.yul\":628:631   */\n      0x00\n        /* \"#utility.yul\":656:695   */\n      tag_354\n        /* \"#utility.yul\":689:694   */\n      dup3\n        /* \"#utility.yul\":656:695   */\n      tag_307\n      jump\t// in\n    tag_354:\n        /* \"#utility.yul\":711:782   */\n      tag_355\n        /* \"#utility.yul\":775:781   */\n      dup2\n        /* \"#utility.yul\":770:773   */\n      dup6\n        /* \"#utility.yul\":711:782   */\n      tag_308\n      jump\t// in\n    tag_355:\n        /* \"#utility.yul\":704:782   */\n      swap4\n      pop\n        /* \"#utility.yul\":791:856   */\n      tag_356\n        /* \"#utility.yul\":849:855   */\n      dup2\n        /* \"#utility.yul\":844:847   */\n      dup6\n        /* \"#utility.yul\":837:841   */\n      0x20\n        /* \"#utility.yul\":830:835   */\n      dup7\n        /* \"#utility.yul\":826:842   */\n      add\n        /* \"#utility.yul\":791:856   */\n      tag_309\n      jump\t// in\n    tag_356:\n        /* \"#utility.yul\":881:910   */\n      tag_357\n        /* \"#utility.yul\":903:909   */\n      dup2\n        /* \"#utility.yul\":881:910   */\n      tag_310\n      jump\t// in\n    tag_357:\n        /* \"#utility.yul\":876:879   */\n      dup5\n        /* \"#utility.yul\":872:911   */\n      add\n        /* \"#utility.yul\":865:911   */\n      swap2\n      pop\n        /* \"#utility.yul\":632:917   */\n      pop\n        /* \"#utility.yul\":540:917   */\n      swap3\n      swap2\n      pop\n      pop\n      jump\t// out\n        /* \"#utility.yul\":923:1236   */\n    tag_33:\n        /* \"#utility.yul\":1036:1040   */\n      0x00\n        /* \"#utility.yul\":1074:1076   */\n      0x20\n        /* \"#utility.yul\":1063:1072   */\n      dup3\n        /* \"#utility.yul\":1059:1077   */\n      add\n        /* \"#utility.yul\":1051:1077   */\n      swap1\n      pop\n        /* \"#utility.yul\":1123:1132   */\n      dup2\n        /* \"#utility.yul\":1117:1121   */\n      dup2\n        /* \"#utility.yul\":1113:1133   */\n      sub\n        /* \"#utility.yul\":1109:1110   */\n      0x00\n        /* \"#utility.yul\":1098:1107   */\n      dup4\n        /* \"#utility.yul\":1094:1111   */\n      add\n        /* \"#utility.yul\":1087:1134   */\n      mstore\n        /* \"#utility.yul\":1151:1229   */\n      tag_359\n        /* \"#utility.yul\":1224:1228   */\n      dup2\n        /* \"#utility.yul\":1215:1221   */\n      dup5\n        /* \"#utility.yul\":1151:1229   */\n      tag_311\n      jump\t// in\n    tag_359:\n        /* \"#utility.yul\":1143:1229   */\n      swap1\n      pop\n        /* \"#utility.yul\":923:1236   */\n      swap3\n      swap2\n      pop\n      pop\n      jump\t// out\n        /* \"#utility.yul\":1323:1440   */\n    tag_313:\n        /* \"#utility.yul\":1432:1433   */\n      0x00\n        /* \"#utility.yul\":1429:1430   */\n      0x00\n        /* \"#utility.yul\":1422:1434   */\n      revert\n        /* \"#utility.yul\":1446:1563   */\n    tag_314:\n        /* \"#utility.yul\":1555:1556   */\n      0x00\n        /* \"#utility.yul\":1552:1553   */\n      0x00\n        /* \"#utility.yul\":1545:1557   */\n      revert\n        /* \"#utility.yul\":1569:1646   */\n    tag_315:\n        /* \"#utility.yul\":1606:1613   */\n      0x00\n        /* \"#utility.yul\":1635:1640   */\n      dup2\n        /* \"#utility.yul\":1624:1640   */\n      swap1\n      pop\n        /* \"#utility.yul\":1569:1646   */\n      swap2\n      swap1\n      pop\n      jump\t// out\n        /* \"#utility.yul\":1652:1774   */\n    tag_316:\n        /* \"#utility.yul\":1725:1749   */\n      tag_365\n        /* \"#utility.yul\":1743:1748   */\n      dup2\n        /* \"#utility.yul\":1725:1749   */\n      tag_315\n      jump\t// in\n    tag_365:\n        /* \"#utility.yul\":1718:1723   */\n      dup2\n        /* \"#utility.yul\":1715:1750   */\n      eq\n        /* \"#utility.yul\":1705:1768   */\n      tag_366\n      jumpi\n        /* \"#utility.yul\":1764:1765   */\n      0x00\n        /* \"#utility.yul\":1761:1762   */\n      0x00\n        /* \"#utility.yul\":1754:1766   */\n      revert\n        /* \"#utility.yul\":1705:1768   */\n    tag_366:\n        /* \"#utility.yul\":1652:1774   */\n      pop\n      jump\t// out\n        /* \"#utility.yul\":1780:1919   */\n    tag_317:\n        /* \"#utility.yul\":1826:1831   */\n      0x00\n        /* \"#utility.yul\":1864:1870   */\n      dup2\n        /* \"#utility.yul\":1851:1871   */\n      calldataload\n        /* \"#utility.yul\":1842:1871   */\n      swap1\n      pop\n        /* \"#utility.yul\":1880:1913   */\n      tag_368\n        /* \"#utility.yul\":1907:1912   */\n      dup2\n        /* \"#utility.yul\":1880:1913   */\n      tag_316\n      jump\t// in\n    tag_368:\n        /* \"#utility.yul\":1780:1919   */\n      swap3\n      swap2\n      pop\n      pop\n      jump\t// out\n        /* \"#utility.yul\":1925:2254   */\n    tag_37:\n        /* \"#utility.yul\":1984:1990   */\n      0x00\n        /* \"#utility.yul\":2033:2035   */\n      0x20\n        /* \"#utility.yul\":2021:2030   */\n      dup3\n        /* \"#utility.yul\":2012:2019   */\n      dup5\n        /* \"#utility.yul\":2008:2031   */\n      sub\n        /* \"#utility.yul\":2004:2036   */\n      slt\n        /* \"#utility.yul\":2001:2120   */\n      iszero\n      tag_370\n      jumpi\n        /* \"#utility.yul\":2039:2118   */\n      tag_371\n      tag_313\n      jump\t// in\n    tag_371:\n        /* \"#utility.yul\":2001:2120   */\n    tag_370:\n        /* \"#utility.yul\":2159:2160   */\n      0x00\n        /* \"#utility.yul\":2184:2237   */\n      tag_372\n        /* \"#utility.yul\":2229:2236   */\n      dup5\n        /* \"#utility.yul\":2220:2226   */\n      dup3\n        /* \"#utility.yul\":2209:2218   */\n      dup6\n        /* \"#utility.yul\":2205:2227   */\n      add\n        /* \"#utility.yul\":2184:2237   */\n      tag_317\n      jump\t// in\n    tag_372:\n        /* \"#utility.yul\":2174:2237   */\n      swap2\n      pop\n        /* \"#utility.yul\":2130:2247   */\n      pop\n        /* \"#utility.yul\":1925:2254   */\n      swap3\n      swap2\n      pop\n      pop\n      jump\t// out\n        /* \"#utility.yul\":2260:2378   */\n    tag_318:\n        /* \"#utility.yul\":2347:2371   */\n      tag_374\n        /* \"#utility.yul\":2365:2370   */\n      dup2\n        /* \"#utility.yul\":2347:2371   */\n      tag_315\n      jump\t// in\n    tag_374:\n        /* \"#utility.yul\":2342:2345   */\n      dup3\n        /* \"#utility.yul\":2335:2372   */\n      mstore\n        /* \"#utility.yul\":2260:2378   */\n      pop\n      pop\n      jump\t// out\n        /* \"#utility.yul\":2384:2606   */\n    tag_40:\n        /* \"#utility.yul\":2477:2481   */\n      0x00\n        /* \"#utility.yul\":2515:2517   */\n      0x20\n        /* \"#utility.yul\":2504:2513   */\n      dup3\n        /* \"#utility.yul\":2500:2518   */\n      add\n        /* \"#utility.yul\":2492:2518   */\n      swap1\n      pop\n        /* \"#utility.yul\":2528:2599   */\n      tag_376\n        /* \"#utility.yul\":2596:2597   */\n      0x00\n        /* \"#utility.yul\":2585:2594   */\n      dup4\n        /* \"#utility.yul\":2581:2598   */\n      add\n        /* \"#utility.yul\":2572:2578   */\n      dup5\n        /* \"#utility.yul\":2528:2599   */\n      tag_318\n      jump\t// in\n    tag_376:\n        /* \"#utility.yul\":2384:2606   */\n      swap3\n      swap2\n      pop\n      pop\n      jump\t// out\n        /* \"#utility.yul\":2612:2738   */\n    tag_319:\n        /* \"#utility.yul\":2649:2656   */\n      0x00\n        /* \"#utility.yul\":2689:2731   */\n      0xffffffffffffffffffffffffffffffffffffffff\n        /* \"#utility.yul\":2682:2687   */\n      dup3\n        /* \"#utility.yul\":2678:2732   */\n      and\n        /* \"#utility.yul\":2667:2732   */\n      swap1\n      pop\n        /* \"#utility.yul\":2612:2738   */\n      swap2\n      swap1\n      pop\n      jump\t// out\n        /* \"#utility.yul\":2744:2840   */\n    tag_320:\n        /* \"#utility.yul\":2781:2788   */\n      0x00\n        /* \"#utility.yul\":2810:2834   */\n      tag_379\n        /* \"#utility.yul\":2828:2833   */\n      dup3\n        /* \"#utility.yul\":2810:2834   */\n      tag_319\n      jump\t// in\n    tag_379:\n        /* \"#utility.yul\":2799:2834   */\n      swap1\n      pop\n        /* \"#utility.yul\":2744:2840   */\n      swap2\n      swap1\n      pop\n      jump\t// out\n        /* \"#utility.yul\":2846:2968   */\n    tag_321:\n        /* \"#utility.yul\":2919:2943   */\n      tag_381\n        /* \"#utility.yul\":2937:2942   */\n      dup2\n        /* \"#utility.yul\":2919:2943   */\n      tag_320\n      jump\t// in\n    tag_381:\n        /* \"#utility.yul\":2912:2917   */\n      dup2\n        /* \"#utility.yul\":2909:2944   */\n      eq\n        /* \"#utility.yul\":2899:2962   */\n      tag_382\n      jumpi\n        /* \"#utility.yul\":2958:2959   */\n      0x00\n        /* \"#utility.yul\":2955:2956   */\n      0x00\n        /* \"#utility.yul\":2948:2960   */\n      revert\n        /* \"#utility.yul\":2899:2962   */\n    tag_382:\n        /* \"#utility.yul\":2846:2968   */\n      pop\n      jump\t// out\n        /* \"#utility.yul\":2974:3113   */\n    tag_322:\n        /* \"#utility.yul\":3020:3025   */\n      0x00\n        /* \"#utility.yul\":3058:3064   */\n      dup2\n        /* \"#utility.yul\":3045:3065   */\n      calldataload\n        /* \"#utility.yul\":3036:3065   */\n      swap1\n      pop\n        /* \"#utility.yul\":3074:3107   */\n      tag_384\n        /* \"#utility.yul\":3101:3106   */\n      dup2\n        /* \"#utility.yul\":3074:3107   */\n      tag_321\n      jump\t// in\n    tag_384:\n        /* \"#utility.yul\":2974:3113   */\n      swap3\n      swap2\n      pop\n      pop\n      jump\t// out\n        /* \"#utility.yul\":3119:3593   */\n    tag_44:\n        /* \"#utility.yul\":3187:3193   */\n      0x00\n        /* \"#utility.yul\":3195:3201   */\n      0x00\n        /* \"#utility.yul\":3244:3246   */\n      0x40\n        /* \"#utility.yul\":3232:3241   */\n      dup4\n        /* \"#utility.yul\":3223:3230   */\n      dup6\n        /* \"#utility.yul\":3219:3242   */\n      sub\n        /* \"#utility.yul\":3215:3247   */\n      slt\n        /* \"#utility.yul\":3212:3331   */\n      iszero\n      tag_386\n      jumpi\n        /* \"#utility.yul\":3250:3329   */\n      tag_387\n      tag_313\n      jump\t// in\n    tag_387:\n        /* \"#utility.yul\":3212:3331   */\n    tag_386:\n        /* \"#utility.yul\":3370:3371   */\n      0x00\n        /* \"#utility.yul\":3395:3448   */\n      tag_388\n        /* \"#utility.yul\":3440:3447   */\n      dup6\n        /* \"#utility.yul\":3431:3437   */\n      dup3\n        /* \"#utility.yul\":3420:3429   */\n      dup7\n        /* \"#utility.yul\":3416:3438   */\n      add\n        /* \"#utility.yul\":3395:3448   */\n      tag_322\n      jump\t// in\n    tag_388:\n        /* \"#utility.yul\":3385:3448   */\n      swap3\n      pop\n        /* \"#utility.yul\":3341:3458   */\n      pop\n        /* \"#utility.yul\":3497:3499   */\n      0x20\n        /* \"#utility.yul\":3523:3576   */\n      tag_389\n        /* \"#utility.yul\":3568:3575   */\n      dup6\n        /* \"#utility.yul\":3559:3565   */\n      dup3\n        /* \"#utility.yul\":3548:3557   */\n      dup7\n        /* \"#utility.yul\":3544:3566   */\n      add\n        /* \"#utility.yul\":3523:3576   */\n      tag_317\n      jump\t// in\n    tag_389:\n        /* \"#utility.yul\":3513:3576   */\n      swap2\n      pop\n        /* \"#utility.yul\":3468:3586   */\n      pop\n        /* \"#utility.yul\":3119:3593   */\n      swap3\n      pop\n      swap3\n      swap1\n      pop\n      jump\t// out\n        /* \"#utility.yul\":3599:3689   */\n    tag_323:\n        /* \"#utility.yul\":3633:3640   */\n      0x00\n        /* \"#utility.yul\":3676:3681   */\n      dup2\n        /* \"#utility.yul\":3669:3682   */\n      iszero\n        /* \"#utility.yul\":3662:3683   */\n      iszero\n        /* \"#utility.yul\":3651:3683   */\n      swap1\n      pop\n        /* \"#utility.yul\":3599:3689   */\n      swap2\n      swap1\n      pop\n      jump\t// out\n        /* \"#utility.yul\":3695:3804   */\n    tag_324:\n        /* \"#utility.yul\":3776:3797   */\n      tag_392\n        /* \"#utility.yul\":3791:3796   */\n      dup2\n        /* \"#utility.yul\":3776:3797   */\n      tag_323\n      jump\t// in\n    tag_392:\n        /* \"#utility.yul\":3771:3774   */\n      dup3\n        /* \"#utility.yul\":3764:3798   */\n      mstore\n        /* \"#utility.yul\":3695:3804   */\n      pop\n      pop\n      jump\t// out\n        /* \"#utility.yul\":3810:4020   */\n    tag_47:\n        /* \"#utility.yul\":3897:3901   */\n      0x00\n        /* \"#utility.yul\":3935:3937   */\n      0x20\n        /* \"#utility.yul\":3924:3933   */\n      dup3\n        /* \"#utility.yul\":3920:3938   */\n      add\n        /* \"#utility.yul\":3912:3938   */\n      swap1\n      pop\n        /* \"#utility.yul\":3948:4013   */\n      tag_394\n        /* \"#utility.yul\":4010:4011   */\n      0x00\n        /* \"#utility.yul\":3999:4008   */\n      dup4\n        /* \"#utility.yul\":3995:4012   */\n      add\n        /* \"#utility.yul\":3986:3992   */\n      dup5\n        /* \"#utility.yul\":3948:4013   */\n      tag_324\n      jump\t// in\n    tag_394:\n        /* \"#utility.yul\":3810:4020   */\n      swap3\n      swap2\n      pop\n      pop\n      jump\t// out\n        /* \"#utility.yul\":4026:4143   */\n    tag_325:\n        /* \"#utility.yul\":4135:4136   */\n      0x00\n        /* \"#utility.yul\":4132:4133   */\n      0x00\n        /* \"#utility.yul\":4125:4137   */\n      revert\n        /* \"#utility.yul\":4149:4266   */\n    tag_326:\n        /* \"#utility.yul\":4258:4259   */\n      0x00\n        /* \"#utility.yul\":4255:4256   */\n      0x00\n        /* \"#utility.yul\":4248:4260   */\n      revert\n        /* \"#utility.yul\":4272:4389   */\n    tag_327:\n        /* \"#utility.yul\":4381:4382   */\n      0x00\n        /* \"#utility.yul\":4378:4379   */\n      0x00\n        /* \"#utility.yul\":4371:4383   */\n      revert\n        /* \"#utility.yul\":4408:4960   */\n    tag_328:\n        /* \"#utility.yul\":4465:4473   */\n      0x00\n        /* \"#utility.yul\":4475:4481   */\n      0x00\n        /* \"#utility.yul\":4525:4528   */\n      dup4\n        /* \"#utility.yul\":4518:4522   */\n      0x1f\n        /* \"#utility.yul\":4510:4516   */\n      dup5\n        /* \"#utility.yul\":4506:4523   */\n      add\n        /* \"#utility.yul\":4502:4529   */\n      slt\n        /* \"#utility.yul\":4492:4614   */\n      tag_399\n      jumpi\n        /* \"#utility.yul\":4533:4612   */\n      tag_400\n      tag_325\n      jump\t// in\n    tag_400:\n        /* \"#utility.yul\":4492:4614   */\n    tag_399:\n        /* \"#utility.yul\":4646:4652   */\n      dup3\n        /* \"#utility.yul\":4633:4653   */\n      calldataload\n        /* \"#utility.yul\":4623:4653   */\n      swap1\n      pop\n        /* \"#utility.yul\":4676:4694   */\n      0xffffffffffffffff\n        /* \"#utility.yul\":4668:4674   */\n      dup2\n        /* \"#utility.yul\":4665:4695   */\n      gt\n        /* \"#utility.yul\":4662:4779   */\n      iszero\n      tag_401\n      jumpi\n        /* \"#utility.yul\":4698:4777   */\n      tag_402\n      tag_326\n      jump\t// in\n    tag_402:\n        /* \"#utility.yul\":4662:4779   */\n    tag_401:\n        /* \"#utility.yul\":4812:4816   */\n      0x20\n        /* \"#utility.yul\":4804:4810   */\n      dup4\n        /* \"#utility.yul\":4800:4817   */\n      add\n        /* \"#utility.yul\":4788:4817   */\n      swap2\n      pop\n        /* \"#utility.yul\":4866:4869   */\n      dup4\n        /* \"#utility.yul\":4858:4862   */\n      0x01\n        /* \"#utility.yul\":4850:4856   */\n      dup3\n        /* \"#utility.yul\":4846:4863   */\n      mul\n        /* \"#utility.yul\":4836:4844   */\n      dup4\n        /* \"#utility.yul\":4832:4864   */\n      add\n        /* \"#utility.yul\":4829:4870   */\n      gt\n        /* \"#utility.yul\":4826:4954   */\n      iszero\n      tag_403\n      jumpi\n        /* \"#utility.yul\":4873:4952   */\n      tag_404\n      tag_327\n      jump\t// in\n    tag_404:\n        /* \"#utility.yul\":4826:4954   */\n    tag_403:\n        /* \"#utility.yul\":4408:4960   */\n      swap3\n      pop\n      swap3\n      swap1\n      pop\n      jump\t// out\n        /* \"#utility.yul\":4966:5783   */\n    tag_51:\n        /* \"#utility.yul\":5054:5060   */\n      0x00\n        /* \"#utility.yul\":5062:5068   */\n      0x00\n        /* \"#utility.yul\":5070:5076   */\n      0x00\n        /* \"#utility.yul\":5078:5084   */\n      0x00\n        /* \"#utility.yul\":5127:5129   */\n      0x60\n        /* \"#utility.yul\":5115:5124   */\n      dup6\n        /* \"#utility.yul\":5106:5113   */\n      dup8\n        /* \"#utility.yul\":5102:5125   */\n      sub\n        /* \"#utility.yul\":5098:5130   */\n      slt\n        /* \"#utility.yul\":5095:5214   */\n      iszero\n      tag_406\n      jumpi\n        /* \"#utility.yul\":5133:5212   */\n      tag_407\n      tag_313\n      jump\t// in\n    tag_407:\n        /* \"#utility.yul\":5095:5214   */\n    tag_406:\n        /* \"#utility.yul\":5253:5254   */\n      0x00\n        /* \"#utility.yul\":5278:5331   */\n      tag_408\n        /* \"#utility.yul\":5323:5330   */\n      dup8\n        /* \"#utility.yul\":5314:5320   */\n      dup3\n        /* \"#utility.yul\":5303:5312   */\n      dup9\n        /* \"#utility.yul\":5299:5321   */\n      add\n        /* \"#utility.yul\":5278:5331   */\n      tag_322\n      jump\t// in\n    tag_408:\n        /* \"#utility.yul\":5268:5331   */\n      swap5\n      pop\n        /* \"#utility.yul\":5224:5341   */\n      pop\n        /* \"#utility.yul\":5380:5382   */\n      0x20\n        /* \"#utility.yul\":5406:5459   */\n      tag_409\n        /* \"#utility.yul\":5451:5458   */\n      dup8\n        /* \"#utility.yul\":5442:5448   */\n      dup3\n        /* \"#utility.yul\":5431:5440   */\n      dup9\n        /* \"#utility.yul\":5427:5449   */\n      add\n        /* \"#utility.yul\":5406:5459   */\n      tag_317\n      jump\t// in\n    tag_409:\n        /* \"#utility.yul\":5396:5459   */\n      swap4\n      pop\n        /* \"#utility.yul\":5351:5469   */\n      pop\n        /* \"#utility.yul\":5536:5538   */\n      0x40\n        /* \"#utility.yul\":5525:5534   */\n      dup6\n        /* \"#utility.yul\":5521:5539   */\n      add\n        /* \"#utility.yul\":5508:5540   */\n      calldataload\n        /* \"#utility.yul\":5567:5585   */\n      0xffffffffffffffff\n        /* \"#utility.yul\":5559:5565   */\n      dup2\n        /* \"#utility.yul\":5556:5586   */\n      gt\n        /* \"#utility.yul\":5553:5670   */\n      iszero\n      tag_410\n      jumpi\n        /* \"#utility.yul\":5589:5668   */\n      tag_411\n      tag_314\n      jump\t// in\n    tag_411:\n        /* \"#utility.yul\":5553:5670   */\n    tag_410:\n        /* \"#utility.yul\":5702:5766   */\n      tag_412\n        /* \"#utility.yul\":5758:5765   */\n      dup8\n        /* \"#utility.yul\":5749:5755   */\n      dup3\n        /* \"#utility.yul\":5738:5747   */\n      dup9\n        /* \"#utility.yul\":5734:5756   */\n      add\n        /* \"#utility.yul\":5702:5766   */\n      tag_328\n      jump\t// in\n    tag_412:\n        /* \"#utility.yul\":5684:5766   */\n      swap3\n      pop\n      swap3\n      pop\n        /* \"#utility.yul\":5479:5776   */\n      pop\n        /* \"#utility.yul\":4966:5783   */\n      swap3\n      swap6\n      swap2\n      swap5\n      pop\n      swap3\n      pop\n      jump\t// out\n        /* \"#utility.yul\":5789:5887   */\n    tag_329:\n        /* \"#utility.yul\":5840:5846   */\n      0x00\n        /* \"#utility.yul\":5874:5879   */\n      dup2\n        /* \"#utility.yul\":5868:5880   */\n      mload\n        /* \"#utility.yul\":5858:5880   */\n      swap1\n      pop\n        /* \"#utility.yul\":5789:5887   */\n      swap2\n      swap1\n      pop\n      jump\t// out\n        /* \"#utility.yul\":5893:6061   */\n    tag_330:\n        /* \"#utility.yul\":5976:5987   */\n      0x00\n        /* \"#utility.yul\":6010:6016   */\n      dup3\n        /* \"#utility.yul\":6005:6008   */\n      dup3\n        /* \"#utility.yul\":5998:6017   */\n      mstore\n        /* \"#utility.yul\":6050:6054   */\n      0x20\n        /* \"#utility.yul\":6045:6048   */\n      dup3\n        /* \"#utility.yul\":6041:6055   */\n      add\n        /* \"#utility.yul\":6026:6055   */\n      swap1\n      pop\n        /* \"#utility.yul\":5893:6061   */\n      swap3\n      swap2\n      pop\n      pop\n      jump\t// out\n        /* \"#utility.yul\":6067:6440   */\n    tag_331:\n        /* \"#utility.yul\":6153:6156   */\n      0x00\n        /* \"#utility.yul\":6181:6219   */\n      tag_416\n        /* \"#utility.yul\":6213:6218   */\n      dup3\n        /* \"#utility.yul\":6181:6219   */\n      tag_329\n      jump\t// in\n    tag_416:\n        /* \"#utility.yul\":6235:6305   */\n      tag_417\n        /* \"#utility.yul\":6298:6304   */\n      dup2\n        /* \"#utility.yul\":6293:6296   */\n      dup6\n        /* \"#utility.yul\":6235:6305   */\n      tag_330\n      jump\t// in\n    tag_417:\n        /* \"#utility.yul\":6228:6305   */\n      swap4\n      pop\n        /* \"#utility.yul\":6314:6379   */\n      tag_418\n        /* \"#utility.yul\":6372:6378   */\n      dup2\n        /* \"#utility.yul\":6367:6370   */\n      dup6\n        /* \"#utility.yul\":6360:6364   */\n      0x20\n        /* \"#utility.yul\":6353:6358   */\n      dup7\n        /* \"#utility.yul\":6349:6365   */\n      add\n        /* \"#utility.yul\":6314:6379   */\n      tag_309\n      jump\t// in\n    tag_418:\n        /* \"#utility.yul\":6404:6433   */\n      tag_419\n        /* \"#utility.yul\":6426:6432   */\n      dup2\n        /* \"#utility.yul\":6404:6433   */\n      tag_310\n      jump\t// in\n    tag_419:\n        /* \"#utility.yul\":6399:6402   */\n      dup5\n        /* \"#utility.yul\":6395:6434   */\n      add\n        /* \"#utility.yul\":6388:6434   */\n      swap2\n      pop\n        /* \"#utility.yul\":6157:6440   */\n      pop\n        /* \"#utility.yul\":6067:6440   */\n      swap3\n      swap2\n      pop\n      pop\n      jump\t// out\n        /* \"#utility.yul\":6446:6755   */\n    tag_54:\n        /* \"#utility.yul\":6557:6561   */\n      0x00\n        /* \"#utility.yul\":6595:6597   */\n      0x20\n        /* \"#utility.yul\":6584:6593   */\n      dup3\n        /* \"#utility.yul\":6580:6598   */\n      add\n        /* \"#utility.yul\":6572:6598   */\n      swap1\n      pop\n        /* \"#utility.yul\":6644:6653   */\n      dup2\n        /* \"#utility.yul\":6638:6642   */\n      dup2\n        /* \"#utility.yul\":6634:6654   */\n      sub\n        /* \"#utility.yul\":6630:6631   */\n      0x00\n        /* \"#utility.yul\":6619:6628   */\n      dup4\n        /* \"#utility.yul\":6615:6632   */\n      add\n        /* \"#utility.yul\":6608:6655   */\n      mstore\n        /* \"#utility.yul\":6672:6748   */\n      tag_421\n        /* \"#utility.yul\":6743:6747   */\n      dup2\n        /* \"#utility.yul\":6734:6740   */\n      dup5\n        /* \"#utility.yul\":6672:6748   */\n      tag_331\n      jump\t// in\n    tag_421:\n        /* \"#utility.yul\":6664:6748   */\n      swap1\n      pop\n        /* \"#utility.yul\":6446:6755   */\n      swap3\n      swap2\n      pop\n      pop\n      jump\t// out\n        /* \"#utility.yul\":6761:7380   */\n    tag_62:\n        /* \"#utility.yul\":6838:6844   */\n      0x00\n        /* \"#utility.yul\":6846:6852   */\n      0x00\n        /* \"#utility.yul\":6854:6860   */\n      0x00\n        /* \"#utility.yul\":6903:6905   */\n      0x60\n        /* \"#utility.yul\":6891:6900   */\n      dup5\n        /* \"#utility.yul\":6882:6889   */\n      dup7\n        /* \"#utility.yul\":6878:6901   */\n      sub\n        /* \"#utility.yul\":6874:6906   */\n      slt\n        /* \"#utility.yul\":6871:6990   */\n      iszero\n      tag_423\n      jumpi\n        /* \"#utility.yul\":6909:6988   */\n      tag_424\n      tag_313\n      jump\t// in\n    tag_424:\n        /* \"#utility.yul\":6871:6990   */\n    tag_423:\n        /* \"#utility.yul\":7029:7030   */\n      0x00\n        /* \"#utility.yul\":7054:7107   */\n      tag_425\n        /* \"#utility.yul\":7099:7106   */\n      dup7\n        /* \"#utility.yul\":7090:7096   */\n      dup3\n        /* \"#utility.yul\":7079:7088   */\n      dup8\n        /* \"#utility.yul\":7075:7097   */\n      add\n        /* \"#utility.yul\":7054:7107   */\n      tag_322\n      jump\t// in\n    tag_425:\n        /* \"#utility.yul\":7044:7107   */\n      swap4\n      pop\n        /* \"#utility.yul\":7000:7117   */\n      pop\n        /* \"#utility.yul\":7156:7158   */\n      0x20\n        /* \"#utility.yul\":7182:7235   */\n      tag_426\n        /* \"#utility.yul\":7227:7234   */\n      dup7\n        /* \"#utility.yul\":7218:7224   */\n      dup3\n        /* \"#utility.yul\":7207:7216   */\n      dup8\n        /* \"#utility.yul\":7203:7225   */\n      add\n        /* \"#utility.yul\":7182:7235   */\n      tag_322\n      jump\t// in\n    tag_426:\n        /* \"#utility.yul\":7172:7235   */\n      swap3\n      pop\n        /* \"#utility.yul\":7127:7245   */\n      pop\n        /* \"#utility.yul\":7284:7286   */\n      0x40\n        /* \"#utility.yul\":7310:7363   */\n      tag_427\n        /* \"#utility.yul\":7355:7362   */\n      dup7\n        /* \"#utility.yul\":7346:7352   */\n      dup3\n        /* \"#utility.yul\":7335:7344   */\n      dup8\n        /* \"#utility.yul\":7331:7353   */\n      add\n        /* \"#utility.yul\":7310:7363   */\n      tag_317\n      jump\t// in\n    tag_427:\n        /* \"#utility.yul\":7300:7363   */\n      swap2\n      pop\n        /* \"#utility.yul\":7255:7373   */\n      pop\n        /* \"#utility.yul\":6761:7380   */\n      swap3\n      pop\n      swap3\n      pop\n      swap3\n      jump\t// out\n        /* \"#utility.yul\":7386:7472   */\n    tag_332:\n        /* \"#utility.yul\":7421:7428   */\n      0x00\n        /* \"#utility.yul\":7461:7465   */\n      0xff\n        /* \"#utility.yul\":7454:7459   */\n      dup3\n        /* \"#utility.yul\":7450:7466   */\n      and\n        /* \"#utility.yul\":7439:7466   */\n      swap1\n      pop\n        /* \"#utility.yul\":7386:7472   */\n      swap2\n      swap1\n      pop\n      jump\t// out\n        /* \"#utility.yul\":7478:7590   */\n    tag_333:\n        /* \"#utility.yul\":7561:7583   */\n      tag_430\n        /* \"#utility.yul\":7577:7582   */\n      dup2\n        /* \"#utility.yul\":7561:7583   */\n      tag_332\n      jump\t// in\n    tag_430:\n        /* \"#utility.yul\":7556:7559   */\n      dup3\n        /* \"#utility.yul\":7549:7584   */\n      mstore\n        /* \"#utility.yul\":7478:7590   */\n      pop\n      pop\n      jump\t// out\n        /* \"#utility.yul\":7596:7810   */\n    tag_69:\n        /* \"#utility.yul\":7685:7689   */\n      0x00\n        /* \"#utility.yul\":7723:7725   */\n      0x20\n        /* \"#utility.yul\":7712:7721   */\n      dup3\n        /* \"#utility.yul\":7708:7726   */\n      add\n        /* \"#utility.yul\":7700:7726   */\n      swap1\n      pop\n        /* \"#utility.yul\":7736:7803   */\n      tag_432\n        /* \"#utility.yul\":7800:7801   */\n      0x00\n        /* \"#utility.yul\":7789:7798   */\n      dup4\n        /* \"#utility.yul\":7785:7802   */\n      add\n        /* \"#utility.yul\":7776:7782   */\n      dup5\n        /* \"#utility.yul\":7736:7803   */\n      tag_333\n      jump\t// in\n    tag_432:\n        /* \"#utility.yul\":7596:7810   */\n      swap3\n      swap2\n      pop\n      pop\n      jump\t// out\n        /* \"#utility.yul\":7816:7893   */\n    tag_334:\n        /* \"#utility.yul\":7853:7860   */\n      0x00\n        /* \"#utility.yul\":7882:7887   */\n      dup2\n        /* \"#utility.yul\":7871:7887   */\n      swap1\n      pop\n        /* \"#utility.yul\":7816:7893   */\n      swap2\n      swap1\n      pop\n      jump\t// out\n        /* \"#utility.yul\":7899:8017   */\n    tag_335:\n        /* \"#utility.yul\":7986:8010   */\n      tag_435\n        /* \"#utility.yul\":8004:8009   */\n      dup2\n        /* \"#utility.yul\":7986:8010   */\n      tag_334\n      jump\t// in\n    tag_435:\n        /* \"#utility.yul\":7981:7984   */\n      dup3\n        /* \"#utility.yul\":7974:8011   */\n      mstore\n        /* \"#utility.yul\":7899:8017   */\n      pop\n      pop\n      jump\t// out\n        /* \"#utility.yul\":8023:8245   */\n    tag_74:\n        /* \"#utility.yul\":8116:8120   */\n      0x00\n        /* \"#utility.yul\":8154:8156   */\n      0x20\n        /* \"#utility.yul\":8143:8152   */\n      dup3\n        /* \"#utility.yul\":8139:8157   */\n      add\n        /* \"#utility.yul\":8131:8157   */\n      swap1\n      pop\n        /* \"#utility.yul\":8167:8238   */\n      tag_437\n        /* \"#utility.yul\":8235:8236   */\n      0x00\n        /* \"#utility.yul\":8224:8233   */\n      dup4\n        /* \"#utility.yul\":8220:8237   */\n      add\n        /* \"#utility.yul\":8211:8217   */\n      dup5\n        /* \"#utility.yul\":8167:8238   */\n      tag_335\n      jump\t// in\n    tag_437:\n        /* \"#utility.yul\":8023:8245   */\n      swap3\n      swap2\n      pop\n      pop\n      jump\t// out\n        /* \"#utility.yul\":8251:8725   */\n    tag_82:\n        /* \"#utility.yul\":8319:8325   */\n      0x00\n        /* \"#utility.yul\":8327:8333   */\n      0x00\n        /* \"#utility.yul\":8376:8378   */\n      0x40\n        /* \"#utility.yul\":8364:8373   */\n      dup4\n        /* \"#utility.yul\":8355:8362   */\n      dup6\n        /* \"#utility.yul\":8351:8374   */\n      sub\n        /* \"#utility.yul\":8347:8379   */\n      slt\n        /* \"#utility.yul\":8344:8463   */\n      iszero\n      tag_439\n      jumpi\n        /* \"#utility.yul\":8382:8461   */\n      tag_440\n      tag_313\n      jump\t// in\n    tag_440:\n        /* \"#utility.yul\":8344:8463   */\n    tag_439:\n        /* \"#utility.yul\":8502:8503   */\n      0x00\n        /* \"#utility.yul\":8527:8580   */\n      tag_441\n        /* \"#utility.yul\":8572:8579   */\n      dup6\n        /* \"#utility.yul\":8563:8569   */\n      dup3\n        /* \"#utility.yul\":8552:8561   */\n      dup7\n        /* \"#utility.yul\":8548:8570   */\n      add\n        /* \"#utility.yul\":8527:8580   */\n      tag_317\n      jump\t// in\n    tag_441:\n        /* \"#utility.yul\":8517:8580   */\n      swap3\n      pop\n        /* \"#utility.yul\":8473:8590   */\n      pop\n        /* \"#utility.yul\":8629:8631   */\n      0x20\n        /* \"#utility.yul\":8655:8708   */\n      tag_442\n        /* \"#utility.yul\":8700:8707   */\n      dup6\n        /* \"#utility.yul\":8691:8697   */\n      dup3\n        /* \"#utility.yul\":8680:8689   */\n      dup7\n        /* \"#utility.yul\":8676:8698   */\n      add\n        /* \"#utility.yul\":8655:8708   */\n      tag_322\n      jump\t// in\n    tag_442:\n        /* \"#utility.yul\":8645:8708   */\n      swap2\n      pop\n        /* \"#utility.yul\":8600:8718   */\n      pop\n        /* \"#utility.yul\":8251:8725   */\n      swap3\n      pop\n      swap3\n      swap1\n      pop\n      jump\t// out\n        /* \"#utility.yul\":8731:9060   */\n    tag_88:\n        /* \"#utility.yul\":8790:8796   */\n      0x00\n        /* \"#utility.yul\":8839:8841   */\n      0x20\n        /* \"#utility.yul\":8827:8836   */\n      dup3\n        /* \"#utility.yul\":8818:8825   */\n      dup5\n        /* \"#utility.yul\":8814:8837   */\n      sub\n        /* \"#utility.yul\":8810:8842   */\n      slt\n        /* \"#utility.yul\":8807:8926   */\n      iszero\n      tag_444\n      jumpi\n        /* \"#utility.yul\":8845:8924   */\n      tag_445\n      tag_313\n      jump\t// in\n    tag_445:\n        /* \"#utility.yul\":8807:8926   */\n    tag_444:\n        /* \"#utility.yul\":8965:8966   */\n      0x00\n        /* \"#utility.yul\":8990:9043   */\n      tag_446\n        /* \"#utility.yul\":9035:9042   */\n      dup5\n        /* \"#utility.yul\":9026:9032   */\n      dup3\n        /* \"#utility.yul\":9015:9024   */\n      dup6\n        /* \"#utility.yul\":9011:9033   */\n      add\n        /* \"#utility.yul\":8990:9043   */\n      tag_322\n      jump\t// in\n    tag_446:\n        /* \"#utility.yul\":8980:9043   */\n      swap2\n      pop\n        /* \"#utility.yul\":8936:9053   */\n      pop\n        /* \"#utility.yul\":8731:9060   */\n      swap3\n      swap2\n      pop\n      pop\n      jump\t// out\n        /* \"#utility.yul\":9066:9184   */\n    tag_336:\n        /* \"#utility.yul\":9153:9177   */\n      tag_448\n        /* \"#utility.yul\":9171:9176   */\n      dup2\n        /* \"#utility.yul\":9153:9177   */\n      tag_320\n      jump\t// in\n    tag_448:\n        /* \"#utility.yul\":9148:9151   */\n      dup3\n        /* \"#utility.yul\":9141:9178   */\n      mstore\n        /* \"#utility.yul\":9066:9184   */\n      pop\n      pop\n      jump\t// out\n        /* \"#utility.yul\":9190:9412   */\n    tag_103:\n        /* \"#utility.yul\":9283:9287   */\n      0x00\n        /* \"#utility.yul\":9321:9323   */\n      0x20\n        /* \"#utility.yul\":9310:9319   */\n      dup3\n        /* \"#utility.yul\":9306:9324   */\n      add\n        /* \"#utility.yul\":9298:9324   */\n      swap1\n      pop\n        /* \"#utility.yul\":9334:9405   */\n      tag_450\n        /* \"#utility.yul\":9402:9403   */\n      0x00\n        /* \"#utility.yul\":9391:9400   */\n      dup4\n        /* \"#utility.yul\":9387:9404   */\n      add\n        /* \"#utility.yul\":9378:9384   */\n      dup5\n        /* \"#utility.yul\":9334:9405   */\n      tag_336\n      jump\t// in\n    tag_450:\n        /* \"#utility.yul\":9190:9412   */\n      swap3\n      swap2\n      pop\n      pop\n      jump\t// out\n        /* \"#utility.yul\":9418:10037   */\n    tag_116:\n        /* \"#utility.yul\":9495:9501   */\n      0x00\n        /* \"#utility.yul\":9503:9509   */\n      0x00\n        /* \"#utility.yul\":9511:9517   */\n      0x00\n        /* \"#utility.yul\":9560:9562   */\n      0x60\n        /* \"#utility.yul\":9548:9557   */\n      dup5\n        /* \"#utility.yul\":9539:9546   */\n      dup7\n        /* \"#utility.yul\":9535:9558   */\n      sub\n        /* \"#utility.yul\":9531:9563   */\n      slt\n        /* \"#utility.yul\":9528:9647   */\n      iszero\n      tag_452\n      jumpi\n        /* \"#utility.yul\":9566:9645   */\n      tag_453\n      tag_313\n      jump\t// in\n    tag_453:\n        /* \"#utility.yul\":9528:9647   */\n    tag_452:\n        /* \"#utility.yul\":9686:9687   */\n      0x00\n        /* \"#utility.yul\":9711:9764   */\n      tag_454\n        /* \"#utility.yul\":9756:9763   */\n      dup7\n        /* \"#utility.yul\":9747:9753   */\n      dup3\n        /* \"#utility.yul\":9736:9745   */\n      dup8\n        /* \"#utility.yul\":9732:9754   */\n      add\n        /* \"#utility.yul\":9711:9764   */\n      tag_317\n      jump\t// in\n    tag_454:\n        /* \"#utility.yul\":9701:9764   */\n      swap4\n      pop\n        /* \"#utility.yul\":9657:9774   */\n      pop\n        /* \"#utility.yul\":9813:9815   */\n      0x20\n        /* \"#utility.yul\":9839:9892   */\n      tag_455\n        /* \"#utility.yul\":9884:9891   */\n      dup7\n        /* \"#utility.yul\":9875:9881   */\n      dup3\n        /* \"#utility.yul\":9864:9873   */\n      dup8\n        /* \"#utility.yul\":9860:9882   */\n      add\n        /* \"#utility.yul\":9839:9892   */\n      tag_322\n      jump\t// in\n    tag_455:\n        /* \"#utility.yul\":9829:9892   */\n      swap3\n      pop\n        /* \"#utility.yul\":9784:9902   */\n      pop\n        /* \"#utility.yul\":9941:9943   */\n      0x40\n        /* \"#utility.yul\":9967:10020   */\n      tag_456\n        /* \"#utility.yul\":10012:10019   */\n      dup7\n        /* \"#utility.yul\":10003:10009   */\n      dup3\n        /* \"#utility.yul\":9992:10001   */\n      dup8\n        /* \"#utility.yul\":9988:10010   */\n      add\n        /* \"#utility.yul\":9967:10020   */\n      tag_322\n      jump\t// in\n    tag_456:\n        /* \"#utility.yul\":9957:10020   */\n      swap2\n      pop\n        /* \"#utility.yul\":9912:10030   */\n      pop\n        /* \"#utility.yul\":9418:10037   */\n      swap3\n      pop\n      swap3\n      pop\n      swap3\n      jump\t// out\n        /* \"#utility.yul\":10043:10161   */\n    tag_337:\n        /* \"#utility.yul\":10114:10136   */\n      tag_458\n        /* \"#utility.yul\":10130:10135   */\n      dup2\n        /* \"#utility.yul\":10114:10136   */\n      tag_332\n      jump\t// in\n    tag_458:\n        /* \"#utility.yul\":10107:10112   */\n      dup2\n        /* \"#utility.yul\":10104:10137   */\n      eq\n        /* \"#utility.yul\":10094:10155   */\n      tag_459\n      jumpi\n        /* \"#utility.yul\":10151:10152   */\n      0x00\n        /* \"#utility.yul\":10148:10149   */\n      0x00\n        /* \"#utility.yul\":10141:10153   */\n      revert\n        /* \"#utility.yul\":10094:10155   */\n    tag_459:\n        /* \"#utility.yul\":10043:10161   */\n      pop\n      jump\t// out\n        /* \"#utility.yul\":10167:10302   */\n    tag_338:\n        /* \"#utility.yul\":10211:10216   */\n      0x00\n        /* \"#utility.yul\":10249:10255   */\n      dup2\n        /* \"#utility.yul\":10236:10256   */\n      calldataload\n        /* \"#utility.yul\":10227:10256   */\n      swap1\n      pop\n        /* \"#utility.yul\":10265:10296   */\n      tag_461\n        /* \"#utility.yul\":10290:10295   */\n      dup2\n        /* \"#utility.yul\":10265:10296   */\n      tag_337\n      jump\t// in\n    tag_461:\n        /* \"#utility.yul\":10167:10302   */\n      swap3\n      swap2\n      pop\n      pop\n      jump\t// out\n        /* \"#utility.yul\":10308:10430   */\n    tag_339:\n        /* \"#utility.yul\":10381:10405   */\n      tag_463\n        /* \"#utility.yul\":10399:10404   */\n      dup2\n        /* \"#utility.yul\":10381:10405   */\n      tag_334\n      jump\t// in\n    tag_463:\n        /* \"#utility.yul\":10374:10379   */\n      dup2\n        /* \"#utility.yul\":10371:10406   */\n      eq\n        /* \"#utility.yul\":10361:10424   */\n      tag_464\n      jumpi\n        /* \"#utility.yul\":10420:10421   */\n      0x00\n        /* \"#utility.yul\":10417:10418   */\n      0x00\n        /* \"#utility.yul\":10410:10422   */\n      revert\n        /* \"#utility.yul\":10361:10424   */\n    tag_464:\n        /* \"#utility.yul\":10308:10430   */\n      pop\n      jump\t// out\n        /* \"#utility.yul\":10436:10575   */\n    tag_340:\n        /* \"#utility.yul\":10482:10487   */\n      0x00\n        /* \"#utility.yul\":10520:10526   */\n      dup2\n        /* \"#utility.yul\":10507:10527   */\n      calldataload\n        /* \"#utility.yul\":10498:10527   */\n      swap1\n      pop\n        /* \"#utility.yul\":10536:10569   */\n      tag_466\n        /* \"#utility.yul\":10563:10568   */\n      dup2\n        /* \"#utility.yul\":10536:10569   */\n      tag_339\n      jump\t// in\n    tag_466:\n        /* \"#utility.yul\":10436:10575   */\n      swap3\n      swap2\n      pop\n      pop\n      jump\t// out\n        /* \"#utility.yul\":10581:11780   */\n    tag_137:\n        /* \"#utility.yul\":10692:10698   */\n      0x00\n        /* \"#utility.yul\":10700:10706   */\n      0x00\n        /* \"#utility.yul\":10708:10714   */\n      0x00\n        /* \"#utility.yul\":10716:10722   */\n      0x00\n        /* \"#utility.yul\":10724:10730   */\n      0x00\n        /* \"#utility.yul\":10732:10738   */\n      0x00\n        /* \"#utility.yul\":10740:10746   */\n      0x00\n        /* \"#utility.yul\":10789:10792   */\n      0xe0\n        /* \"#utility.yul\":10777:10786   */\n      dup9\n        /* \"#utility.yul\":10768:10775   */\n      dup11\n        /* \"#utility.yul\":10764:10787   */\n      sub\n        /* \"#utility.yul\":10760:10793   */\n      slt\n        /* \"#utility.yul\":10757:10877   */\n      iszero\n      tag_468\n      jumpi\n        /* \"#utility.yul\":10796:10875   */\n      tag_469\n      tag_313\n      jump\t// in\n    tag_469:\n        /* \"#utility.yul\":10757:10877   */\n    tag_468:\n        /* \"#utility.yul\":10916:10917   */\n      0x00\n        /* \"#utility.yul\":10941:10994   */\n      tag_470\n        /* \"#utility.yul\":10986:10993   */\n      dup11\n        /* \"#utility.yul\":10977:10983   */\n      dup3\n        /* \"#utility.yul\":10966:10975   */\n      dup12\n        /* \"#utility.yul\":10962:10984   */\n      add\n        /* \"#utility.yul\":10941:10994   */\n      tag_322\n      jump\t// in\n    tag_470:\n        /* \"#utility.yul\":10931:10994   */\n      swap8\n      pop\n        /* \"#utility.yul\":10887:11004   */\n      pop\n        /* \"#utility.yul\":11043:11045   */\n      0x20\n        /* \"#utility.yul\":11069:11122   */\n      tag_471\n        /* \"#utility.yul\":11114:11121   */\n      dup11\n        /* \"#utility.yul\":11105:11111   */\n      dup3\n        /* \"#utility.yul\":11094:11103   */\n      dup12\n        /* \"#utility.yul\":11090:11112   */\n      add\n        /* \"#utility.yul\":11069:11122   */\n      tag_322\n      jump\t// in\n    tag_471:\n        /* \"#utility.yul\":11059:11122   */\n      swap7\n      pop\n        /* \"#utility.yul\":11014:11132   */\n      pop\n        /* \"#utility.yul\":11171:11173   */\n      0x40\n        /* \"#utility.yul\":11197:11250   */\n      tag_472\n        /* \"#utility.yul\":11242:11249   */\n      dup11\n        /* \"#utility.yul\":11233:11239   */\n      dup3\n        /* \"#utility.yul\":11222:11231   */\n      dup12\n        /* \"#utility.yul\":11218:11240   */\n      add\n        /* \"#utility.yul\":11197:11250   */\n      tag_317\n      jump\t// in\n    tag_472:\n        /* \"#utility.yul\":11187:11250   */\n      swap6\n      pop\n        /* \"#utility.yul\":11142:11260   */\n      pop\n        /* \"#utility.yul\":11299:11301   */\n      0x60\n        /* \"#utility.yul\":11325:11378   */\n      tag_473\n        /* \"#utility.yul\":11370:11377   */\n      dup11\n        /* \"#utility.yul\":11361:11367   */\n      dup3\n        /* \"#utility.yul\":11350:11359   */\n      dup12\n        /* \"#utility.yul\":11346:11368   */\n      add\n        /* \"#utility.yul\":11325:11378   */\n      tag_317\n      jump\t// in\n    tag_473:\n        /* \"#utility.yul\":11315:11378   */\n      swap5\n      pop\n        /* \"#utility.yul\":11270:11388   */\n      pop\n        /* \"#utility.yul\":11427:11430   */\n      0x80\n        /* \"#utility.yul\":11454:11505   */\n      tag_474\n        /* \"#utility.yul\":11497:11504   */\n      dup11\n        /* \"#utility.yul\":11488:11494   */\n      dup3\n        /* \"#utility.yul\":11477:11486   */\n      dup12\n        /* \"#utility.yul\":11473:11495   */\n      add\n        /* \"#utility.yul\":11454:11505   */\n      tag_338\n      jump\t// in\n    tag_474:\n        /* \"#utility.yul\":11444:11505   */\n      swap4\n      pop\n        /* \"#utility.yul\":11398:11515   */\n      pop\n        /* \"#utility.yul\":11554:11557   */\n      0xa0\n        /* \"#utility.yul\":11581:11634   */\n      tag_475\n        /* \"#utility.yul\":11626:11633   */\n      dup11\n        /* \"#utility.yul\":11617:11623   */\n      dup3\n        /* \"#utility.yul\":11606:11615   */\n      dup12\n        /* \"#utility.yul\":11602:11624   */\n      add\n        /* \"#utility.yul\":11581:11634   */\n      tag_340\n      jump\t// in\n    tag_475:\n        /* \"#utility.yul\":11571:11634   */\n      swap3\n      pop\n        /* \"#utility.yul\":11525:11644   */\n      pop\n        /* \"#utility.yul\":11683:11686   */\n      0xc0\n        /* \"#utility.yul\":11710:11763   */\n      tag_476\n        /* \"#utility.yul\":11755:11762   */\n      dup11\n        /* \"#utility.yul\":11746:11752   */\n      dup3\n        /* \"#utility.yul\":11735:11744   */\n      dup12\n        /* \"#utility.yul\":11731:11753   */\n      add\n        /* \"#utility.yul\":11710:11763   */\n      tag_340\n      jump\t// in\n    tag_476:\n        /* \"#utility.yul\":11700:11763   */\n      swap2\n      pop\n        /* \"#utility.yul\":11654:11773   */\n      pop\n        /* \"#utility.yul\":10581:11780   */\n      swap3\n      swap6\n      swap9\n      swap2\n      swap5\n      swap8\n      pop\n      swap3\n      swap6\n      pop\n      jump\t// out\n        /* \"#utility.yul\":11786:12260   */\n    tag_142:\n        /* \"#utility.yul\":11854:11860   */\n      0x00\n        /* \"#utility.yul\":11862:11868   */\n      0x00\n        /* \"#utility.yul\":11911:11913   */\n      0x40\n        /* \"#utility.yul\":11899:11908   */\n      dup4\n        /* \"#utility.yul\":11890:11897   */\n      dup6\n        /* \"#utility.yul\":11886:11909   */\n      sub\n        /* \"#utility.yul\":11882:11914   */\n      slt\n        /* \"#utility.yul\":11879:11998   */\n      iszero\n      tag_478\n      jumpi\n        /* \"#utility.yul\":11917:11996   */\n      tag_479\n      tag_313\n      jump\t// in\n    tag_479:\n        /* \"#utility.yul\":11879:11998   */\n    tag_478:\n        /* \"#utility.yul\":12037:12038   */\n      0x00\n        /* \"#utility.yul\":12062:12115   */\n      tag_480\n        /* \"#utility.yul\":12107:12114   */\n      dup6\n        /* \"#utility.yul\":12098:12104   */\n      dup3\n        /* \"#utility.yul\":12087:12096   */\n      dup7\n        /* \"#utility.yul\":12083:12105   */\n      add\n        /* \"#utility.yul\":12062:12115   */\n      tag_322\n      jump\t// in\n    tag_480:\n        /* \"#utility.yul\":12052:12115   */\n      swap3\n      pop\n        /* \"#utility.yul\":12008:12125   */\n      pop\n        /* \"#utility.yul\":12164:12166   */\n      0x20\n        /* \"#utility.yul\":12190:12243   */\n      tag_481\n        /* \"#utility.yul\":12235:12242   */\n      dup6\n        /* \"#utility.yul\":12226:12232   */\n      dup3\n        /* \"#utility.yul\":12215:12224   */\n      dup7\n        /* \"#utility.yul\":12211:12233   */\n      add\n        /* \"#utility.yul\":12190:12243   */\n      tag_322\n      jump\t// in\n    tag_481:\n        /* \"#utility.yul\":12180:12243   */\n      swap2\n      pop\n        /* \"#utility.yul\":12135:12253   */\n      pop\n        /* \"#utility.yul\":11786:12260   */\n      swap3\n      pop\n      swap3\n      swap1\n      pop\n      jump\t// out\n        /* \"#utility.yul\":12266:12446   */\n    tag_341:\n        /* \"#utility.yul\":12314:12391   */\n      0x4e487b7100000000000000000000000000000000000000000000000000000000\n        /* \"#utility.yul\":12311:12312   */\n      0x00\n        /* \"#utility.yul\":12304:12392   */\n      mstore\n        /* \"#utility.yul\":12411:12415   */\n      0x11\n        /* \"#utility.yul\":12408:12409   */\n      0x04\n        /* \"#utility.yul\":12401:12416   */\n      mstore\n        /* \"#utility.yul\":12435:12439   */\n      0x24\n        /* \"#utility.yul\":12432:12433   */\n      0x00\n        /* \"#utility.yul\":12425:12440   */\n      revert\n        /* \"#utility.yul\":12452:12643   */\n    tag_157:\n        /* \"#utility.yul\":12492:12495   */\n      0x00\n        /* \"#utility.yul\":12511:12531   */\n      tag_484\n        /* \"#utility.yul\":12529:12530   */\n      dup3\n        /* \"#utility.yul\":12511:12531   */\n      tag_315\n      jump\t// in\n    tag_484:\n        /* \"#utility.yul\":12506:12531   */\n      swap2\n      pop\n        /* \"#utility.yul\":12545:12565   */\n      tag_485\n        /* \"#utility.yul\":12563:12564   */\n      dup4\n        /* \"#utility.yul\":12545:12565   */\n      tag_315\n      jump\t// in\n    tag_485:\n        /* \"#utility.yul\":12540:12565   */\n      swap3\n      pop\n        /* \"#utility.yul\":12588:12589   */\n      dup3\n        /* \"#utility.yul\":12585:12586   */\n      dup3\n        /* \"#utility.yul\":12581:12590   */\n      add\n        /* \"#utility.yul\":12574:12590   */\n      swap1\n      pop\n        /* \"#utility.yul\":12609:12612   */\n      dup1\n        /* \"#utility.yul\":12606:12607   */\n      dup3\n        /* \"#utility.yul\":12603:12613   */\n      gt\n        /* \"#utility.yul\":12600:12636   */\n      iszero\n      tag_486\n      jumpi\n        /* \"#utility.yul\":12616:12634   */\n      tag_487\n      tag_341\n      jump\t// in\n    tag_487:\n        /* \"#utility.yul\":12600:12636   */\n    tag_486:\n        /* \"#utility.yul\":12452:12643   */\n      swap3\n      swap2\n      pop\n      pop\n      jump\t// out\n        /* \"#utility.yul\":12649:13059   */\n    tag_160:\n        /* \"#utility.yul\":12689:12696   */\n      0x00\n        /* \"#utility.yul\":12712:12732   */\n      tag_489\n        /* \"#utility.yul\":12730:12731   */\n      dup3\n        /* \"#utility.yul\":12712:12732   */\n      tag_315\n      jump\t// in\n    tag_489:\n        /* \"#utility.yul\":12707:12732   */\n      swap2\n      pop\n        /* \"#utility.yul\":12746:12766   */\n      tag_490\n        /* \"#utility.yul\":12764:12765   */\n      dup4\n        /* \"#utility.yul\":12746:12766   */\n      tag_315\n      jump\t// in\n    tag_490:\n        /* \"#utility.yul\":12741:12766   */\n      swap3\n      pop\n        /* \"#utility.yul\":12801:12802   */\n      dup3\n        /* \"#utility.yul\":12798:12799   */\n      dup3\n        /* \"#utility.yul\":12794:12803   */\n      mul\n        /* \"#utility.yul\":12823:12853   */\n      tag_491\n        /* \"#utility.yul\":12841:12852   */\n      dup2\n        /* \"#utility.yul\":12823:12853   */\n      tag_315\n      jump\t// in\n    tag_491:\n        /* \"#utility.yul\":12812:12853   */\n      swap2\n      pop\n        /* \"#utility.yul\":13002:13003   */\n      dup3\n        /* \"#utility.yul\":12993:13000   */\n      dup3\n        /* \"#utility.yul\":12989:13004   */\n      div\n        /* \"#utility.yul\":12986:12987   */\n      dup5\n        /* \"#utility.yul\":12983:13005   */\n      eq\n        /* \"#utility.yul\":12963:12964   */\n      dup4\n        /* \"#utility.yul\":12956:12965   */\n      iszero\n        /* \"#utility.yul\":12936:13019   */\n      or\n        /* \"#utility.yul\":12913:13052   */\n      tag_492\n      jumpi\n        /* \"#utility.yul\":13032:13050   */\n      tag_493\n      tag_341\n      jump\t// in\n    tag_493:\n        /* \"#utility.yul\":12913:13052   */\n    tag_492:\n        /* \"#utility.yul\":12697:13059   */\n      pop\n        /* \"#utility.yul\":12649:13059   */\n      swap3\n      swap2\n      pop\n      pop\n      jump\t// out\n        /* \"#utility.yul\":13065:13245   */\n    tag_342:\n        /* \"#utility.yul\":13113:13190   */\n      0x4e487b7100000000000000000000000000000000000000000000000000000000\n        /* \"#utility.yul\":13110:13111   */\n      0x00\n        /* \"#utility.yul\":13103:13191   */\n      mstore\n        /* \"#utility.yul\":13210:13214   */\n      0x12\n        /* \"#utility.yul\":13207:13208   */\n      0x04\n        /* \"#utility.yul\":13200:13215   */\n      mstore\n        /* \"#utility.yul\":13234:13238   */\n      0x24\n        /* \"#utility.yul\":13231:13232   */\n      0x00\n        /* \"#utility.yul\":13224:13239   */\n      revert\n        /* \"#utility.yul\":13251:13436   */\n    tag_162:\n        /* \"#utility.yul\":13291:13292   */\n      0x00\n        /* \"#utility.yul\":13308:13328   */\n      tag_496\n        /* \"#utility.yul\":13326:13327   */\n      dup3\n        /* \"#utility.yul\":13308:13328   */\n      tag_315\n      jump\t// in\n    tag_496:\n        /* \"#utility.yul\":13303:13328   */\n      swap2\n      pop\n        /* \"#utility.yul\":13342:13362   */\n      tag_497\n        /* \"#utility.yul\":13360:13361   */\n      dup4\n        /* \"#utility.yul\":13342:13362   */\n      tag_315\n      jump\t// in\n    tag_497:\n        /* \"#utility.yul\":13337:13362   */\n      swap3\n      pop\n        /* \"#utility.yul\":13381:13382   */\n      dup3\n        /* \"#utility.yul\":13371:13406   */\n      tag_498\n      jumpi\n        /* \"#utility.yul\":13386:13404   */\n      tag_499\n      tag_342\n      jump\t// in\n    tag_499:\n        /* \"#utility.yul\":13371:13406   */\n    tag_498:\n        /* \"#utility.yul\":13428:13429   */\n      dup3\n        /* \"#utility.yul\":13425:13426   */\n      dup3\n        /* \"#utility.yul\":13421:13430   */\n      div\n        /* \"#utility.yul\":13416:13430   */\n      swap1\n      pop\n        /* \"#utility.yul\":13251:13436   */\n      swap3\n      swap2\n      pop\n      pop\n      jump\t// out\n        /* \"#utility.yul\":13442:13589   */\n    tag_343:\n        /* \"#utility.yul\":13543:13554   */\n      0x00\n        /* \"#utility.yul\":13580:13583   */\n      dup2\n        /* \"#utility.yul\":13565:13583   */\n      swap1\n      pop\n        /* \"#utility.yul\":13442:13589   */\n      swap3\n      swap2\n      pop\n      pop\n      jump\t// out\n        /* \"#utility.yul\":13595:13743   */\n    tag_344:\n        /* \"#utility.yul\":13693:13699   */\n      dup3\n        /* \"#utility.yul\":13688:13691   */\n      dup2\n        /* \"#utility.yul\":13683:13686   */\n      dup4\n        /* \"#utility.yul\":13670:13700   */\n      calldatacopy\n        /* \"#utility.yul\":13734:13735   */\n      0x00\n        /* \"#utility.yul\":13725:13731   */\n      dup4\n        /* \"#utility.yul\":13720:13723   */\n      dup4\n        /* \"#utility.yul\":13716:13732   */\n      add\n        /* \"#utility.yul\":13709:13736   */\n      mstore\n        /* \"#utility.yul\":13595:13743   */\n      pop\n      pop\n      pop\n      jump\t// out\n        /* \"#utility.yul\":13771:14098   */\n    tag_345:\n        /* \"#utility.yul\":13885:13888   */\n      0x00\n        /* \"#utility.yul\":13906:13994   */\n      tag_503\n        /* \"#utility.yul\":13987:13993   */\n      dup4\n        /* \"#utility.yul\":13982:13985   */\n      dup6\n        /* \"#utility.yul\":13906:13994   */\n      tag_343\n      jump\t// in\n    tag_503:\n        /* \"#utility.yul\":13899:13994   */\n      swap4\n      pop\n        /* \"#utility.yul\":14004:14060   */\n      tag_504\n        /* \"#utility.yul\":14053:14059   */\n      dup4\n        /* \"#utility.yul\":14048:14051   */\n      dup6\n        /* \"#utility.yul\":14041:14046   */\n      dup5\n        /* \"#utility.yul\":14004:14060   */\n      tag_344\n      jump\t// in\n    tag_504:\n        /* \"#utility.yul\":14085:14091   */\n      dup3\n        /* \"#utility.yul\":14080:14083   */\n      dup5\n        /* \"#utility.yul\":14076:14092   */\n      add\n        /* \"#utility.yul\":14069:14092   */\n      swap1\n      pop\n        /* \"#utility.yul\":13771:14098   */\n      swap4\n      swap3\n      pop\n      pop\n      pop\n      jump\t// out\n        /* \"#utility.yul\":14104:14395   */\n    tag_174:\n        /* \"#utility.yul\":14244:14247   */\n      0x00\n        /* \"#utility.yul\":14266:14369   */\n      tag_506\n        /* \"#utility.yul\":14365:14368   */\n      dup3\n        /* \"#utility.yul\":14356:14362   */\n      dup5\n        /* \"#utility.yul\":14348:14354   */\n      dup7\n        /* \"#utility.yul\":14266:14369   */\n      tag_345\n      jump\t// in\n    tag_506:\n        /* \"#utility.yul\":14259:14369   */\n      swap2\n      pop\n        /* \"#utility.yul\":14386:14389   */\n      dup2\n        /* \"#utility.yul\":14379:14389   */\n      swap1\n      pop\n        /* \"#utility.yul\":14104:14395   */\n      swap4\n      swap3\n      pop\n      pop\n      pop\n      jump\t// out\n        /* \"#utility.yul\":14401:14733   */\n    tag_211:\n        /* \"#utility.yul\":14522:14526   */\n      0x00\n        /* \"#utility.yul\":14560:14562   */\n      0x40\n        /* \"#utility.yul\":14549:14558   */\n      dup3\n        /* \"#utility.yul\":14545:14563   */\n      add\n        /* \"#utility.yul\":14537:14563   */\n      swap1\n      pop\n        /* \"#utility.yul\":14573:14644   */\n      tag_508\n        /* \"#utility.yul\":14641:14642   */\n      0x00\n        /* \"#utility.yul\":14630:14639   */\n      dup4\n        /* \"#utility.yul\":14626:14643   */\n      add\n        /* \"#utility.yul\":14617:14623   */\n      dup6\n        /* \"#utility.yul\":14573:14644   */\n      tag_318\n      jump\t// in\n    tag_508:\n        /* \"#utility.yul\":14654:14726   */\n      tag_509\n        /* \"#utility.yul\":14722:14724   */\n      0x20\n        /* \"#utility.yul\":14711:14720   */\n      dup4\n        /* \"#utility.yul\":14707:14725   */\n      add\n        /* \"#utility.yul\":14698:14704   */\n      dup5\n        /* \"#utility.yul\":14654:14726   */\n      tag_318\n      jump\t// in\n    tag_509:\n        /* \"#utility.yul\":14401:14733   */\n      swap4\n      swap3\n      pop\n      pop\n      pop\n      jump\t// out\n        /* \"#utility.yul\":14739:14853   */\n    tag_346:\n      pop\n      jump\t// out\n        /* \"#utility.yul\":14859:15257   */\n    tag_347:\n        /* \"#utility.yul\":15018:15021   */\n      0x00\n        /* \"#utility.yul\":15039:15122   */\n      tag_512\n        /* \"#utility.yul\":15120:15121   */\n      0x00\n        /* \"#utility.yul\":15115:15118   */\n      dup4\n        /* \"#utility.yul\":15039:15122   */\n      tag_343\n      jump\t// in\n    tag_512:\n        /* \"#utility.yul\":15032:15122   */\n      swap2\n      pop\n        /* \"#utility.yul\":15131:15224   */\n      tag_513\n        /* \"#utility.yul\":15220:15223   */\n      dup3\n        /* \"#utility.yul\":15131:15224   */\n      tag_346\n      jump\t// in\n    tag_513:\n        /* \"#utility.yul\":15249:15250   */\n      0x00\n        /* \"#utility.yul\":15244:15247   */\n      dup3\n        /* \"#utility.yul\":15240:15251   */\n      add\n        /* \"#utility.yul\":15233:15251   */\n      swap1\n      pop\n        /* \"#utility.yul\":14859:15257   */\n      swap2\n      swap1\n      pop\n      jump\t// out\n        /* \"#utility.yul\":15263:15642   */\n    tag_235:\n        /* \"#utility.yul\":15447:15450   */\n      0x00\n        /* \"#utility.yul\":15469:15616   */\n      tag_515\n        /* \"#utility.yul\":15612:15615   */\n      dup3\n        /* \"#utility.yul\":15469:15616   */\n      tag_347\n      jump\t// in\n    tag_515:\n        /* \"#utility.yul\":15462:15616   */\n      swap2\n      pop\n        /* \"#utility.yul\":15633:15636   */\n      dup2\n        /* \"#utility.yul\":15626:15636   */\n      swap1\n      pop\n        /* \"#utility.yul\":15263:15642   */\n      swap2\n      swap1\n      pop\n      jump\t// out\n        /* \"#utility.yul\":15648:15842   */\n    tag_244:\n        /* \"#utility.yul\":15688:15692   */\n      0x00\n        /* \"#utility.yul\":15708:15728   */\n      tag_517\n        /* \"#utility.yul\":15726:15727   */\n      dup3\n        /* \"#utility.yul\":15708:15728   */\n      tag_315\n      jump\t// in\n    tag_517:\n        /* \"#utility.yul\":15703:15728   */\n      swap2\n      pop\n        /* \"#utility.yul\":15742:15762   */\n      tag_518\n        /* \"#utility.yul\":15760:15761   */\n      dup4\n        /* \"#utility.yul\":15742:15762   */\n      tag_315\n      jump\t// in\n    tag_518:\n        /* \"#utility.yul\":15737:15762   */\n      swap3\n      pop\n        /* \"#utility.yul\":15786:15787   */\n      dup3\n        /* \"#utility.yul\":15783:15784   */\n      dup3\n        /* \"#utility.yul\":15779:15788   */\n      sub\n        /* \"#utility.yul\":15771:15788   */\n      swap1\n      pop\n        /* \"#utility.yul\":15810:15811   */\n      dup2\n        /* \"#utility.yul\":15804:15808   */\n      dup2\n        /* \"#utility.yul\":15801:15812   */\n      gt\n        /* \"#utility.yul\":15798:15835   */\n      iszero\n      tag_519\n      jumpi\n        /* \"#utility.yul\":15815:15833   */\n      tag_520\n      tag_341\n      jump\t// in\n    tag_520:\n        /* \"#utility.yul\":15798:15835   */\n    tag_519:\n        /* \"#utility.yul\":15648:15842   */\n      swap3\n      swap2\n      pop\n      pop\n      jump\t// out\n\n    auxdata: 0xa26469706673582212208746bf9f250fe39a75a257010f711754ddab1ee6aaa0f60ad2cf217c9595918e64736f6c634300081c0033\n}\n",
				"bytecode": {
					"linkReferences": {},
					"object": "60a0604052426080908152505f6001555f6002555f6003555f600455348015610026575f5ffd5b50335f73ffffffffffffffffffffffffffffffffffffffff168173ffffffffffffffffffffffffffffffffffffffff1603610098575f6040517f1e4fbdf700000000000000000000000000000000000000000000000000000000815260040161008f91906101ad565b60405180910390fd5b6100a7816100ad60201b60201c565b506101c6565b5f5f5f9054906101000a900473ffffffffffffffffffffffffffffffffffffffff169050815f5f6101000a81548173ffffffffffffffffffffffffffffffffffffffff021916908373ffffffffffffffffffffffffffffffffffffffff1602179055508173ffffffffffffffffffffffffffffffffffffffff168173ffffffffffffffffffffffffffffffffffffffff167f8be0079c531659141344cd1fd0a4f28419497f9722a3daafe3b4186f6b6457e060405160405180910390a35050565b5f73ffffffffffffffffffffffffffffffffffffffff82169050919050565b5f6101978261016e565b9050919050565b6101a78161018d565b82525050565b5f6020820190506101c05f83018461019e565b92915050565b608051611ca56101e55f395f8181610d900152610e260152611ca55ff3fe60806040526004361061014a575f3560e01c80637ecebe00116100b5578063c6e6f5921161006e578063c6e6f592146104e8578063ce96cb7714610524578063d505accf14610560578063dd62ed3e14610588578063ef8b30f7146105c4578063f2fde38b146106005761014a565b80637ecebe00146103a45780638da5cb5b146103e057806395d89b411461040a578063a9059cbb14610434578063ba08765214610470578063c63d75b6146104ac5761014a565b8063313ce56711610107578063313ce567146102925780633644e515146102bc5780634cdad506146102e65780636e553f651461032257806370a0823114610352578063715018a61461038e5761014a565b806306fdde031461014e57806307a2d13a14610178578063095ea7b3146101b457806310ab2d01146101f057806318160ddd1461022c57806323b872dd14610256575b5f5ffd5b348015610159575f5ffd5b50610162610628565b60405161016f919061150a565b60405180910390f35b348015610183575f5ffd5b5061019e60048036038101906101999190611565565b610665565b6040516101ab919061159f565b60405180910390f35b3480156101bf575f5ffd5b506101da60048036038101906101d59190611612565b6106aa565b6040516101e7919061166a565b60405180910390f35b3480156101fb575f5ffd5b50610216600480360381019061021191906116e4565b610735565b60405161022391906117a7565b60405180910390f35b348015610237575f5ffd5b506102406107b7565b60405161024d919061159f565b60405180910390f35b348015610261575f5ffd5b5061027c600480360381019061027791906117c7565b6107c8565b604051610289919061166a565b60405180910390f35b34801561029d575f5ffd5b506102a661096e565b6040516102b39190611832565b60405180910390f35b3480156102c7575f5ffd5b506102d0610976565b6040516102dd9190611863565b60405180910390f35b3480156102f1575f5ffd5b5061030c60048036038101906103079190611565565b6109f2565b604051610319919061159f565b60405180910390f35b61033c6004803603810190610337919061187c565b610a03565b604051610349919061159f565b60405180910390f35b34801561035d575f5ffd5b50610378600480360381019061037391906118ba565b610abb565b604051610385919061159f565b60405180910390f35b348015610399575f5ffd5b506103a2610ad4565b005b3480156103af575f5ffd5b506103ca60048036038101906103c591906118ba565b610ae7565b6040516103d7919061159f565b60405180910390f35b3480156103eb575f5ffd5b506103f4610b00565b60405161040191906118f4565b60405180910390f35b348015610415575f5ffd5b5061041e610b27565b60405161042b919061150a565b60405180910390f35b34801561043f575f5ffd5b5061045a60048036038101906104559190611612565b610b64565b604051610467919061166a565b60405180910390f35b34801561047b575f5ffd5b506104966004803603810190610491919061190d565b610bf2565b6040516104a3919061159f565b60405180910390f35b3480156104b7575f5ffd5b506104d260048036038101906104cd91906118ba565b610d73565b6040516104df919061159f565b60405180910390f35b3480156104f3575f5ffd5b5061050e60048036038101906105099190611565565b610dd5565b60405161051b919061159f565b60405180910390f35b34801561052f575f5ffd5b5061054a600480360381019061054591906118ba565b610e09565b604051610557919061159f565b60405180910390f35b34801561056b575f5ffd5b50610586600480360381019061058191906119b1565b610e6b565b005b348015610593575f5ffd5b506105ae60048036038101906105a99190611a4e565b61102e565b6040516105bb919061159f565b60405180910390f35b3480156105cf575f5ffd5b506105ea60048036038101906105e59190611565565b6110c5565b6040516105f7919061159f565b60405180910390f35b34801561060b575f5ffd5b50610626600480360381019061062191906118ba565b6110d6565b005b60606040518060400160405280600b81526020017f4b61696a75204775616e6f000000000000000000000000000000000000000000815250905090565b5f5f826003546106759190611ab9565b61067e33610e09565b846106899190611aec565b6106939190611b5a565b9050804710156106a1574790505b80915050919050565b5f6106b361115a565b156106e6578119156e22d473030f116ddee9f6b43ac78ba38460601b60601c18176106e557633f68539a5f526004601cfd5b5b82602052637f5e9f20600c52335f52816034600c2055815f52602c5160601c337f8c5be1e5ebec7d5bd14f71427d1e84f3dd0314c0f7b2291e5b200ac8c7c3b92560205fa36001905092915050565b606061073f611161565b5f8573ffffffffffffffffffffffffffffffffffffffff16858585604051610768929190611bc6565b5f6040518083038185875af1925050503d805f81146107a2576040519150601f19603f3d011682016040523d82523d5f602084013e6107a7565b606091505b5091505080915050949350505050565b5f6805345cdf77eb68f44c54905090565b5f6107d48484846111e8565b6107dc61115a565b156108aa578360601b6e22d473030f116ddee9f6b43ac78ba333146108355733602052637f5e9f208117600c526034600c208054801915610832578085111561082c576313be252b5f526004601cfd5b84810382555b50505b6387a211a28117600c526020600c2080548085111561085b5763f4d678b85f526004601cfd5b8481038255855f526020600c2085815401815585602052600c5160601c8460601c7fddf252ad1be2c89b69c2b068fc378daa952ba7f163c4a11628f55a4df523b3ef602080a350505050610958565b8360601b33602052637f5e9f208117600c526034600c2080548019156108e557808511156108df576313be252b5f526004601cfd5b84810382555b6387a211a28317600c526020600c2080548087111561090b5763f4d678b85f526004601cfd5b8681038255875f526020600c2087815401815587602052600c5160601c8660601c7fddf252ad1be2c89b69c2b068fc378daa952ba7f163c4a11628f55a4df523b3ef602080a35050505050505b6109638484846111ed565b600190509392505050565b5f6012905090565b5f5f6109806111f2565b90505f5f1b810361099d57610993610628565b8051906020012090505b5f6109a66111f6565b90506040517f8b73c3c69bb8fe3d512ecc4cf759cc79239f7b179b0ffacaa9a75d522b39400f815282602082015281604082015246606082015230608082015260a08120935050505090565b5f6109fc82610665565b9050919050565b5f5f610a0e346110c5565b90508060015f828254610a219190611ab9565b925050819055503460025f828254610a399190611ab9565b92505081905550610a4a838261121f565b8273ffffffffffffffffffffffffffffffffffffffff163373ffffffffffffffffffffffffffffffffffffffff167fdcbc1c05240f31ff3ad067ef1ee35ce4997762752e3a095284754544f4c709d73484604051610aa9929190611bde565b60405180910390a38091505092915050565b5f6387a211a2600c52815f526020600c20549050919050565b610adc611161565b610ae55f6112b1565b565b5f6338377508600c52815f526020600c20549050919050565b5f5f5f9054906101000a900473ffffffffffffffffffffffffffffffffffffffff16905090565b60606040518060400160405280600581526020017f4755414e4f000000000000000000000000000000000000000000000000000000815250905090565b5f610b703384846111e8565b6387a211a2600c52335f526020600c20805480841115610b975763f4d678b85f526004601cfd5b8381038255845f526020600c2084815401815584602052600c5160601c337fddf252ad1be2c89b69c2b068fc378daa952ba7f163c4a11628f55a4df523b3ef602080a3505050610be83384846111ed565b6001905092915050565b5f5f610bfd856109f2565b90508273ffffffffffffffffffffffffffffffffffffffff163373ffffffffffffffffffffffffffffffffffffffff1614610c3e57610c3d833387611372565b5b8460035f828254610c4f9190611ab9565b925050819055508060045f828254610c679190611ab9565b92505081905550610c788386611403565b5f8473ffffffffffffffffffffffffffffffffffffffff1682604051610c9d90611c28565b5f6040518083038185875af1925050503d805f8114610cd7576040519150601f19603f3d011682016040523d82523d5f602084013e610cdc565b606091505b5050905080610ce9575f5ffd5b8373ffffffffffffffffffffffffffffffffffffffff168573ffffffffffffffffffffffffffffffffffffffff163373ffffffffffffffffffffffffffffffffffffffff167ffbde797d201c681b91056529119e0b02407c7bb96a4a2c75c01fc9667232c8db858a604051610d5f929190611bde565b60405180910390a481925050509392505050565b5f600154620151806702c68af0bb140000610d8e9190611b5a565b7f000000000000000000000000000000000000000000000000000000000000000042610dba9190611c3c565b610dc49190611aec565b610dce9190611c3c565b9050919050565b5f81600254610de49190611ab9565b610ded33610d73565b83610df89190611aec565b610e029190611b5a565b9050919050565b5f6004546201518067016345785d8a0000610e249190611b5a565b7f000000000000000000000000000000000000000000000000000000000000000042610e509190611c3c565b610e5a9190611aec565b610e649190611c3c565b9050919050565b610e7361115a565b15610ea6578419156e22d473030f116ddee9f6b43ac78ba38760601b60601c1817610ea557633f68539a5f526004601cfd5b5b5f610eaf6111f2565b90505f5f1b8103610ecc57610ec2610628565b8051906020012090505b5f610ed56111f6565b905085421115610eec57631a15a3cc5f526004601cfd5b6040518960601b60601c99508860601b60601c985065383775081901600e52895f526020600c2080547f8b73c3c69bb8fe3d512ecc4cf759cc79239f7b179b0ffacaa9a75d522b39400f835284602084015283604084015246606084015230608084015260a08320602e527f6e71edae12b1b97f4d1f60370fef10105fa2faae0126114a169c64845d6126c983528b60208401528a60408401528960608401528060808401528860a084015260c08320604e526042602c205f528760ff16602052866040528560605260208060805f60015afa8c3d5114610fd45763ddafbaef5f526004601cfd5b80820183558b637f5e9f2060a01b176040528a6034602c20558b8d7f8c5be1e5ebec7d5bd14f71427d1e84f3dd0314c0f7b2291e5b200ac8c7c3b925602060608801a3836040525f60605250505050505050505050505050565b5f61103761115a565b156110a7576e22d473030f116ddee9f6b43ac78ba373ffffffffffffffffffffffffffffffffffffffff168273ffffffffffffffffffffffffffffffffffffffff16036110a6577fffffffffffffffffffffffffffffffffffffffffffffffffffffffffffffffff90506110bf565b5b81602052637f5e9f20600c52825f526034600c205490505b92915050565b5f6110cf82610dd5565b9050919050565b6110de611161565b5f73ffffffffffffffffffffffffffffffffffffffff168173ffffffffffffffffffffffffffffffffffffffff160361114e575f6040517f1e4fbdf700000000000000000000000000000000000000000000000000000000815260040161114591906118f4565b60405180910390fd5b611157816112b1565b50565b5f5f905090565b611169611493565b73ffffffffffffffffffffffffffffffffffffffff16611187610b00565b73ffffffffffffffffffffffffffffffffffffffff16146111e6576111aa611493565b6040517f118cdaa70000000000000000000000000000000000000000000000000000000081526004016111dd91906118f4565b60405180910390fd5b565b505050565b505050565b5f90565b5f7fc89efdaa54c0f20c7adf612882df0950f5a951637e0307cdcb4c672f298b8bc65f1b905090565b61122a5f83836111e8565b6805345cdf77eb68f44c548181018181101561124d5763e5cfe9575f526004601cfd5b806805345cdf77eb68f44c556387a211a2600c52835f526020600c2083815401815583602052600c5160601c5f7fddf252ad1be2c89b69c2b068fc378daa952ba7f163c4a11628f55a4df523b3ef602080a35050506112ad5f83836111ed565b5050565b5f5f5f9054906101000a900473ffffffffffffffffffffffffffffffffffffffff169050815f5f6101000a81548173ffffffffffffffffffffffffffffffffffffffff021916908373ffffffffffffffffffffffffffffffffffffffff1602179055508173ffffffffffffffffffffffffffffffffffffffff168173ffffffffffffffffffffffffffffffffffffffff167f8be0079c531659141344cd1fd0a4f28419497f9722a3daafe3b4186f6b6457e060405160405180910390a35050565b61137a61115a565b156113c3576e22d473030f116ddee9f6b43ac78ba373ffffffffffffffffffffffffffffffffffffffff168273ffffffffffffffffffffffffffffffffffffffff1603156113fe575b81602052637f5e9f20600c52825f526034600c2080548019156113fb57808311156113f5576313be252b5f526004601cfd5b82810382555b50505b505050565b61140e825f836111e8565b6387a211a2600c52815f526020600c208054808311156114355763f4d678b85f526004601cfd5b8281038255826805345cdf77eb68f44c54036805345cdf77eb68f44c55825f525f8460601b60601c7fddf252ad1be2c89b69c2b068fc378daa952ba7f163c4a11628f55a4df523b3ef60205fa3505061148f825f836111ed565b5050565b5f33905090565b5f81519050919050565b5f82825260208201905092915050565b8281835e5f83830152505050565b5f601f19601f8301169050919050565b5f6114dc8261149a565b6114e681856114a4565b93506114f68185602086016114b4565b6114ff816114c2565b840191505092915050565b5f6020820190508181035f83015261152281846114d2565b905092915050565b5f5ffd5b5f5ffd5b5f819050919050565b61154481611532565b811461154e575f5ffd5b50565b5f8135905061155f8161153b565b92915050565b5f6020828403121561157a5761157961152a565b5b5f61158784828501611551565b91505092915050565b61159981611532565b82525050565b5f6020820190506115b25f830184611590565b92915050565b5f73ffffffffffffffffffffffffffffffffffffffff82169050919050565b5f6115e1826115b8565b9050919050565b6115f1816115d7565b81146115fb575f5ffd5b50565b5f8135905061160c816115e8565b92915050565b5f5f604083850312156116285761162761152a565b5b5f611635858286016115fe565b925050602061164685828601611551565b9150509250929050565b5f8115159050919050565b61166481611650565b82525050565b5f60208201905061167d5f83018461165b565b92915050565b5f5ffd5b5f5ffd5b5f5ffd5b5f5f83601f8401126116a4576116a3611683565b5b8235905067ffffffffffffffff8111156116c1576116c0611687565b5b6020830191508360018202830111156116dd576116dc61168b565b5b9250929050565b5f5f5f5f606085870312156116fc576116fb61152a565b5b5f611709878288016115fe565b945050602061171a87828801611551565b935050604085013567ffffffffffffffff81111561173b5761173a61152e565b5b6117478782880161168f565b925092505092959194509250565b5f81519050919050565b5f82825260208201905092915050565b5f61177982611755565b611783818561175f565b93506117938185602086016114b4565b61179c816114c2565b840191505092915050565b5f6020820190508181035f8301526117bf818461176f565b905092915050565b5f5f5f606084860312156117de576117dd61152a565b5b5f6117eb868287016115fe565b93505060206117fc868287016115fe565b925050604061180d86828701611551565b9150509250925092565b5f60ff82169050919050565b61182c81611817565b82525050565b5f6020820190506118455f830184611823565b92915050565b5f819050919050565b61185d8161184b565b82525050565b5f6020820190506118765f830184611854565b92915050565b5f5f604083850312156118925761189161152a565b5b5f61189f85828601611551565b92505060206118b0858286016115fe565b9150509250929050565b5f602082840312156118cf576118ce61152a565b5b5f6118dc848285016115fe565b91505092915050565b6118ee816115d7565b82525050565b5f6020820190506119075f8301846118e5565b92915050565b5f5f5f606084860312156119245761192361152a565b5b5f61193186828701611551565b9350506020611942868287016115fe565b9250506040611953868287016115fe565b9150509250925092565b61196681611817565b8114611970575f5ffd5b50565b5f813590506119818161195d565b92915050565b6119908161184b565b811461199a575f5ffd5b50565b5f813590506119ab81611987565b92915050565b5f5f5f5f5f5f5f60e0888a0312156119cc576119cb61152a565b5b5f6119d98a828b016115fe565b97505060206119ea8a828b016115fe565b96505060406119fb8a828b01611551565b9550506060611a0c8a828b01611551565b9450506080611a1d8a828b01611973565b93505060a0611a2e8a828b0161199d565b92505060c0611a3f8a828b0161199d565b91505092959891949750929550565b5f5f60408385031215611a6457611a6361152a565b5b5f611a71858286016115fe565b9250506020611a82858286016115fe565b9150509250929050565b7f4e487b71000000000000000000000000000000000000000000000000000000005f52601160045260245ffd5b5f611ac382611532565b9150611ace83611532565b9250828201905080821115611ae657611ae5611a8c565b5b92915050565b5f611af682611532565b9150611b0183611532565b9250828202611b0f81611532565b91508282048414831517611b2657611b25611a8c565b5b5092915050565b7f4e487b71000000000000000000000000000000000000000000000000000000005f52601260045260245ffd5b5f611b6482611532565b9150611b6f83611532565b925082611b7f57611b7e611b2d565b5b828204905092915050565b5f81905092915050565b828183375f83830152505050565b5f611bad8385611b8a565b9350611bba838584611b94565b82840190509392505050565b5f611bd2828486611ba2565b91508190509392505050565b5f604082019050611bf15f830185611590565b611bfe6020830184611590565b9392505050565b50565b5f611c135f83611b8a565b9150611c1e82611c05565b5f82019050919050565b5f611c3282611c08565b9150819050919050565b5f611c4682611532565b9150611c5183611532565b9250828203905081811115611c6957611c68611a8c565b5b9291505056fea26469706673582212208746bf9f250fe39a75a257010f711754ddab1ee6aaa0f60ad2cf217c9595918e64736f6c634300081c0033",
					"opcodes": "PUSH1 0xA0 PUSH1 0x40 MSTORE TIMESTAMP PUSH1 0x80 SWAP1 DUP2 MSTORE POP PUSH0 PUSH1 0x1 SSTORE PUSH0 PUSH1 0x2 SSTORE PUSH0 PUSH1 0x3 SSTORE PUSH0 PUSH1 0x4 SSTORE CALLVALUE DUP1 ISZERO PUSH2 0x26 JUMPI PUSH0 PUSH0 REVERT JUMPDEST POP CALLER PUSH0 PUSH20 0xFFFFFFFFFFFFFFFFFFFFFFFFFFFFFFFFFFFFFFFF AND DUP2 PUSH20 0xFFFFFFFFFFFFFFFFFFFFFFFFFFFFFFFFFFFFFFFF AND SUB PUSH2 0x98 JUMPI PUSH0 PUSH1 0x40 MLOAD PUSH32 0x1E4FBDF700000000000000000000000000000000000000000000000000000000 DUP2 MSTORE PUSH1 0x4 ADD PUSH2 0x8F SWAP2 SWAP1 PUSH2 0x1AD JUMP JUMPDEST PUSH1 0x40 MLOAD DUP1 SWAP2 SUB SWAP1 REVERT JUMPDEST PUSH2 0xA7 DUP2 PUSH2 0xAD PUSH1 0x20 SHL PUSH1 0x20 SHR JUMP JUMPDEST POP PUSH2 0x1C6 JUMP JUMPDEST PUSH0 PUSH0 PUSH0 SWAP1 SLOAD SWAP1 PUSH2 0x100 EXP SWAP1 DIV PUSH20 0xFFFFFFFFFFFFFFFFFFFFFFFFFFFFFFFFFFFFFFFF AND SWAP1 POP DUP2 PUSH0 PUSH0 PUSH2 0x100 EXP DUP2 SLOAD DUP2 PUSH20 0xFFFFFFFFFFFFFFFFFFFFFFFFFFFFFFFFFFFFFFFF MUL NOT AND SWAP1 DUP4 PUSH20 0xFFFFFFFFFFFFFFFFFFFFFFFFFFFFFFFFFFFFFFFF AND MUL OR SWAP1 SSTORE POP DUP2 PUSH20 0xFFFFFFFFFFFFFFFFFFFFFFFFFFFFFFFFFFFFFFFF AND DUP2 PUSH20 0xFFFFFFFFFFFFFFFFFFFFFFFFFFFFFFFFFFFFFFFF AND PUSH32 0x8BE0079C531659141344CD1FD0A4F28419497F9722A3DAAFE3B4186F6B6457E0 PUSH1 0x40 MLOAD PUSH1 0x40 MLOAD DUP1 SWAP2 SUB SWAP1 LOG3 POP POP JUMP JUMPDEST PUSH0 PUSH20 0xFFFFFFFFFFFFFFFFFFFFFFFFFFFFFFFFFFFFFFFF DUP3 AND SWAP1 POP SWAP2 SWAP1 POP JUMP JUMPDEST PUSH0 PUSH2 0x197 DUP3 PUSH2 0x16E JUMP JUMPDEST SWAP1 POP SWAP2 SWAP1 POP JUMP JUMPDEST PUSH2 0x1A7 DUP2 PUSH2 0x18D JUMP JUMPDEST DUP3 MSTORE POP POP JUMP JUMPDEST PUSH0 PUSH1 0x20 DUP3 ADD SWAP1 POP PUSH2 0x1C0 PUSH0 DUP4 ADD DUP5 PUSH2 0x19E JUMP JUMPDEST SWAP3 SWAP2 POP POP JUMP JUMPDEST PUSH1 0x80 MLOAD PUSH2 0x1CA5 PUSH2 0x1E5 PUSH0 CODECOPY PUSH0 DUP2 DUP2 PUSH2 0xD90 ADD MSTORE PUSH2 0xE26 ADD MSTORE PUSH2 0x1CA5 PUSH0 RETURN INVALID PUSH1 0x80 PUSH1 0x40 MSTORE PUSH1 0x4 CALLDATASIZE LT PUSH2 0x14A JUMPI PUSH0 CALLDATALOAD PUSH1 0xE0 SHR DUP1 PUSH4 0x7ECEBE00 GT PUSH2 0xB5 JUMPI DUP1 PUSH4 0xC6E6F592 GT PUSH2 0x6E JUMPI DUP1 PUSH4 0xC6E6F592 EQ PUSH2 0x4E8 JUMPI DUP1 PUSH4 0xCE96CB77 EQ PUSH2 0x524 JUMPI DUP1 PUSH4 0xD505ACCF EQ PUSH2 0x560 JUMPI DUP1 PUSH4 0xDD62ED3E EQ PUSH2 0x588 JUMPI DUP1 PUSH4 0xEF8B30F7 EQ PUSH2 0x5C4 JUMPI DUP1 PUSH4 0xF2FDE38B EQ PUSH2 0x600 JUMPI PUSH2 0x14A JUMP JUMPDEST DUP1 PUSH4 0x7ECEBE00 EQ PUSH2 0x3A4 JUMPI DUP1 PUSH4 0x8DA5CB5B EQ PUSH2 0x3E0 JUMPI DUP1 PUSH4 0x95D89B41 EQ PUSH2 0x40A JUMPI DUP1 PUSH4 0xA9059CBB EQ PUSH2 0x434 JUMPI DUP1 PUSH4 0xBA087652 EQ PUSH2 0x470 JUMPI DUP1 PUSH4 0xC63D75B6 EQ PUSH2 0x4AC JUMPI PUSH2 0x14A JUMP JUMPDEST DUP1 PUSH4 0x313CE567 GT PUSH2 0x107 JUMPI DUP1 PUSH4 0x313CE567 EQ PUSH2 0x292 JUMPI DUP1 PUSH4 0x3644E515 EQ PUSH2 0x2BC JUMPI DUP1 PUSH4 0x4CDAD506 EQ PUSH2 0x2E6 JUMPI DUP1 PUSH4 0x6E553F65 EQ PUSH2 0x322 JUMPI DUP1 PUSH4 0x70A08231 EQ PUSH2 0x352 JUMPI DUP1 PUSH4 0x715018A6 EQ PUSH2 0x38E JUMPI PUSH2 0x14A JUMP JUMPDEST DUP1 PUSH4 0x6FDDE03 EQ PUSH2 0x14E JUMPI DUP1 PUSH4 0x7A2D13A EQ PUSH2 0x178 JUMPI DUP1 PUSH4 0x95EA7B3 EQ PUSH2 0x1B4 JUMPI DUP1 PUSH4 0x10AB2D01 EQ PUSH2 0x1F0 JUMPI DUP1 PUSH4 0x18160DDD EQ PUSH2 0x22C JUMPI DUP1 PUSH4 0x23B872DD EQ PUSH2 0x256 JUMPI JUMPDEST PUSH0 PUSH0 REVERT JUMPDEST CALLVALUE DUP1 ISZERO PUSH2 0x159 JUMPI PUSH0 PUSH0 REVERT JUMPDEST POP PUSH2 0x162 PUSH2 0x628 JUMP JUMPDEST PUSH1 0x40 MLOAD PUSH2 0x16F SWAP2 SWAP1 PUSH2 0x150A JUMP JUMPDEST PUSH1 0x40 MLOAD DUP1 SWAP2 SUB SWAP1 RETURN JUMPDEST CALLVALUE DUP1 ISZERO PUSH2 0x183 JUMPI PUSH0 PUSH0 REVERT JUMPDEST POP PUSH2 0x19E PUSH1 0x4 DUP1 CALLDATASIZE SUB DUP2 ADD SWAP1 PUSH2 0x199 SWAP2 SWAP1 PUSH2 0x1565 JUMP JUMPDEST PUSH2 0x665 JUMP JUMPDEST PUSH1 0x40 MLOAD PUSH2 0x1AB SWAP2 SWAP1 PUSH2 0x159F JUMP JUMPDEST PUSH1 0x40 MLOAD DUP1 SWAP2 SUB SWAP1 RETURN JUMPDEST CALLVALUE DUP1 ISZERO PUSH2 0x1BF JUMPI PUSH0 PUSH0 REVERT JUMPDEST POP PUSH2 0x1DA PUSH1 0x4 DUP1 CALLDATASIZE SUB DUP2 ADD SWAP1 PUSH2 0x1D5 SWAP2 SWAP1 PUSH2 0x1612 JUMP JUMPDEST PUSH2 0x6AA JUMP JUMPDEST PUSH1 0x40 MLOAD PUSH2 0x1E7 SWAP2 SWAP1 PUSH2 0x166A JUMP JUMPDEST PUSH1 0x40 MLOAD DUP1 SWAP2 SUB SWAP1 RETURN JUMPDEST CALLVALUE DUP1 ISZERO PUSH2 0x1FB JUMPI PUSH0 PUSH0 REVERT JUMPDEST POP PUSH2 0x216 PUSH1 0x4 DUP1 CALLDATASIZE SUB DUP2 ADD SWAP1 PUSH2 0x211 SWAP2 SWAP1 PUSH2 0x16E4 JUMP JUMPDEST PUSH2 0x735 JUMP JUMPDEST PUSH1 0x40 MLOAD PUSH2 0x223 SWAP2 SWAP1 PUSH2 0x17A7 JUMP JUMPDEST PUSH1 0x40 MLOAD DUP1 SWAP2 SUB SWAP1 RETURN JUMPDEST CALLVALUE DUP1 ISZERO PUSH2 0x237 JUMPI PUSH0 PUSH0 REVERT JUMPDEST POP PUSH2 0x240 PUSH2 0x7B7 JUMP JUMPDEST PUSH1 0x40 MLOAD PUSH2 0x24D SWAP2 SWAP1 PUSH2 0x159F JUMP JUMPDEST PUSH1 0x40 MLOAD DUP1 SWAP2 SUB SWAP1 RETURN JUMPDEST CALLVALUE DUP1 ISZERO PUSH2 0x261 JUMPI PUSH0 PUSH0 REVERT JUMPDEST POP PUSH2 0x27C PUSH1 0x4 DUP1 CALLDATASIZE SUB DUP2 ADD SWAP1 PUSH2 0x277 SWAP2 SWAP1 PUSH2 0x17C7 JUMP JUMPDEST PUSH2 0x7C8 JUMP JUMPDEST PUSH1 0x40 MLOAD PUSH2 0x289 SWAP2 SWAP1 PUSH2 0x166A JUMP JUMPDEST PUSH1 0x40 MLOAD DUP1 SWAP2 SUB SWAP1 RETURN JUMPDEST CALLVALUE DUP1 ISZERO PUSH2 0x29D JUMPI PUSH0 PUSH0 REVERT JUMPDEST POP PUSH2 0x2A6 PUSH2 0x96E JUMP JUMPDEST PUSH1 0x40 MLOAD PUSH2 0x2B3 SWAP2 SWAP1 PUSH2 0x1832 JUMP JUMPDEST PUSH1 0x40 MLOAD DUP1 SWAP2 SUB SWAP1 RETURN JUMPDEST CALLVALUE DUP1 ISZERO PUSH2 0x2C7 JUMPI PUSH0 PUSH0 REVERT JUMPDEST POP PUSH2 0x2D0 PUSH2 0x976 JUMP JUMPDEST PUSH1 0x40 MLOAD PUSH2 0x2DD SWAP2 SWAP1 PUSH2 0x1863 JUMP JUMPDEST PUSH1 0x40 MLOAD DUP1 SWAP2 SUB SWAP1 RETURN JUMPDEST CALLVALUE DUP1 ISZERO PUSH2 0x2F1 JUMPI PUSH0 PUSH0 REVERT JUMPDEST POP PUSH2 0x30C PUSH1 0x4 DUP1 CALLDATASIZE SUB DUP2 ADD SWAP1 PUSH2 0x307 SWAP2 SWAP1 PUSH2 0x1565 JUMP JUMPDEST PUSH2 0x9F2 JUMP JUMPDEST PUSH1 0x40 MLOAD PUSH2 0x319 SWAP2 SWAP1 PUSH2 0x159F JUMP JUMPDEST PUSH1 0x40 MLOAD DUP1 SWAP2 SUB SWAP1 RETURN JUMPDEST PUSH2 0x33C PUSH1 0x4 DUP1 CALLDATASIZE SUB DUP2 ADD SWAP1 PUSH2 0x337 SWAP2 SWAP1 PUSH2 0x187C JUMP JUMPDEST PUSH2 0xA03 JUMP JUMPDEST PUSH1 0x40 MLOAD PUSH2 0x349 SWAP2 SWAP1 PUSH2 0x159F JUMP JUMPDEST PUSH1 0x40 MLOAD DUP1 SWAP2 SUB SWAP1 RETURN JUMPDEST CALLVALUE DUP1 ISZERO PUSH2 0x35D JUMPI PUSH0 PUSH0 REVERT JUMPDEST POP PUSH2 0x378 PUSH1 0x4 DUP1 CALLDATASIZE SUB DUP2 ADD SWAP1 PUSH2 0x373 SWAP2 SWAP1 PUSH2 0x18BA JUMP JUMPDEST PUSH2 0xABB JUMP JUMPDEST PUSH1 0x40 MLOAD PUSH2 0x385 SWAP2 SWAP1 PUSH2 0x159F JUMP JUMPDEST PUSH1 0x40 MLOAD DUP1 SWAP2 SUB SWAP1 RETURN JUMPDEST CALLVALUE DUP1 ISZERO PUSH2 0x399 JUMPI PUSH0 PUSH0 REVERT JUMPDEST POP PUSH2 0x3A2 PUSH2 0xAD4 JUMP JUMPDEST STOP JUMPDEST CALLVALUE DUP1 ISZERO PUSH2 0x3AF JUMPI PUSH0 PUSH0 REVERT JUMPDEST POP PUSH2 0x3CA PUSH1 0x4 DUP1 CALLDATASIZE SUB DUP2 ADD SWAP1 PUSH2 0x3C5 SWAP2 SWAP1 PUSH2 0x18BA JUMP JUMPDEST PUSH2 0xAE7 JUMP JUMPDEST PUSH1 0x40 MLOAD PUSH2 0x3D7 SWAP2 SWAP1 PUSH2 0x159F JUMP JUMPDEST PUSH1 0x40 MLOAD DUP1 SWAP2 SUB SWAP1 RETURN JUMPDEST CALLVALUE DUP1 ISZERO PUSH2 0x3EB JUMPI PUSH0 PUSH0 REVERT JUMPDEST POP PUSH2 0x3F4 PUSH2 0xB00 JUMP JUMPDEST PUSH1 0x40 MLOAD PUSH2 0x401 SWAP2 SWAP1 PUSH2 0x18F4 JUMP JUMPDEST PUSH1 0x40 MLOAD DUP1 SWAP2 SUB SWAP1 RETURN JUMPDEST CALLVALUE DUP1 ISZERO PUSH2 0x415 JUMPI PUSH0 PUSH0 REVERT JUMPDEST POP PUSH2 0x41E PUSH2 0xB27 JUMP JUMPDEST PUSH1 0x40 MLOAD PUSH2 0x42B SWAP2 SWAP1 PUSH2 0x150A JUMP JUMPDEST PUSH1 0x40 MLOAD DUP1 SWAP2 SUB SWAP1 RETURN JUMPDEST CALLVALUE DUP1 ISZERO PUSH2 0x43F JUMPI PUSH0 PUSH0 REVERT JUMPDEST POP PUSH2 0x45A PUSH1 0x4 DUP1 CALLDATASIZE SUB DUP2 ADD SWAP1 PUSH2 0x455 SWAP2 SWAP1 PUSH2 0x1612 JUMP JUMPDEST PUSH2 0xB64 JUMP JUMPDEST PUSH1 0x40 MLOAD PUSH2 0x467 SWAP2 SWAP1 PUSH2 0x166A JUMP JUMPDEST PUSH1 0x40 MLOAD DUP1 SWAP2 SUB SWAP1 RETURN JUMPDEST CALLVALUE DUP1 ISZERO PUSH2 0x47B JUMPI PUSH0 PUSH0 REVERT JUMPDEST POP PUSH2 0x496 PUSH1 0x4 DUP1 CALLDATASIZE SUB DUP2 ADD SWAP1 PUSH2 0x491 SWAP2 SWAP1 PUSH2 0x190D JUMP JUMPDEST PUSH2 0xBF2 JUMP JUMPDEST PUSH1 0x40 MLOAD PUSH2 0x4A3 SWAP2 SWAP1 PUSH2 0x159F JUMP JUMPDEST PUSH1 0x40 MLOAD DUP1 SWAP2 SUB SWAP1 RETURN JUMPDEST CALLVALUE DUP1 ISZERO PUSH2 0x4B7 JUMPI PUSH0 PUSH0 REVERT JUMPDEST POP PUSH2 0x4D2 PUSH1 0x4 DUP1 CALLDATASIZE SUB DUP2 ADD SWAP1 PUSH2 0x4CD SWAP2 SWAP1 PUSH2 0x18BA JUMP JUMPDEST PUSH2 0xD73 JUMP JUMPDEST PUSH1 0x40 MLOAD PUSH2 0x4DF SWAP2 SWAP1 PUSH2 0x159F JUMP JUMPDEST PUSH1 0x40 MLOAD DUP1 SWAP2 SUB SWAP1 RETURN JUMPDEST CALLVALUE DUP1 ISZERO PUSH2 0x4F3 JUMPI PUSH0 PUSH0 REVERT JUMPDEST POP PUSH2 0x50E PUSH1 0x4 DUP1 CALLDATASIZE SUB DUP2 ADD SWAP1 PUSH2 0x509 SWAP2 SWAP1 PUSH2 0x1565 JUMP JUMPDEST PUSH2 0xDD5 JUMP JUMPDEST PUSH1 0x40 MLOAD PUSH2 0x51B SWAP2 SWAP1 PUSH2 0x159F JUMP JUMPDEST PUSH1 0x40 MLOAD DUP1 SWAP2 SUB SWAP1 RETURN JUMPDEST CALLVALUE DUP1 ISZERO PUSH2 0x52F JUMPI PUSH0 PUSH0 REVERT JUMPDEST POP PUSH2 0x54A PUSH1 0x4 DUP1 CALLDATASIZE SUB DUP2 ADD SWAP1 PUSH2 0x545 SWAP2 SWAP1 PUSH2 0x18BA JUMP JUMPDEST PUSH2 0xE09 JUMP JUMPDEST PUSH1 0x40 MLOAD PUSH2 0x557 SWAP2 SWAP1 PUSH2 0x159F JUMP JUMPDEST PUSH1 0x40 MLOAD DUP1 SWAP2 SUB SWAP1 RETURN JUMPDEST CALLVALUE DUP1 ISZERO PUSH2 0x56B JUMPI PUSH0 PUSH0 REVERT JUMPDEST POP PUSH2 0x586 PUSH1 0x4 DUP1 CALLDATASIZE SUB DUP2 ADD SWAP1 PUSH2 0x581 SWAP2 SWAP1 PUSH2 0x19B1 JUMP JUMPDEST PUSH2 0xE6B JUMP JUMPDEST STOP JUMPDEST CALLVALUE DUP1 ISZERO PUSH2 0x593 JUMPI PUSH0 PUSH0 REVERT JUMPDEST POP PUSH2 0x5AE PUSH1 0x4 DUP1 CALLDATASIZE SUB DUP2 ADD SWAP1 PUSH2 0x5A9 SWAP2 SWAP1 PUSH2 0x1A4E JUMP JUMPDEST PUSH2 0x102E JUMP JUMPDEST PUSH1 0x40 MLOAD PUSH2 0x5BB SWAP2 SWAP1 PUSH2 0x159F JUMP JUMPDEST PUSH1 0x40 MLOAD DUP1 SWAP2 SUB SWAP1 RETURN JUMPDEST CALLVALUE DUP1 ISZERO PUSH2 0x5CF JUMPI PUSH0 PUSH0 REVERT JUMPDEST POP PUSH2 0x5EA PUSH1 0x4 DUP1 CALLDATASIZE SUB DUP2 ADD SWAP1 PUSH2 0x5E5 SWAP2 SWAP1 PUSH2 0x1565 JUMP JUMPDEST PUSH2 0x10C5 JUMP JUMPDEST PUSH1 0x40 MLOAD PUSH2 0x5F7 SWAP2 SWAP1 PUSH2 0x159F JUMP JUMPDEST PUSH1 0x40 MLOAD DUP1 SWAP2 SUB SWAP1 RETURN JUMPDEST CALLVALUE DUP1 ISZERO PUSH2 0x60B JUMPI PUSH0 PUSH0 REVERT JUMPDEST POP PUSH2 0x626 PUSH1 0x4 DUP1 CALLDATASIZE SUB DUP2 ADD SWAP1 PUSH2 0x621 SWAP2 SWAP1 PUSH2 0x18BA JUMP JUMPDEST PUSH2 0x10D6 JUMP JUMPDEST STOP JUMPDEST PUSH1 0x60 PUSH1 0x40 MLOAD DUP1 PUSH1 0x40 ADD PUSH1 0x40 MSTORE DUP1 PUSH1 0xB DUP2 MSTORE PUSH1 0x20 ADD PUSH32 0x4B61696A75204775616E6F000000000000000000000000000000000000000000 DUP2 MSTORE POP SWAP1 POP SWAP1 JUMP JUMPDEST PUSH0 PUSH0 DUP3 PUSH1 0x3 SLOAD PUSH2 0x675 SWAP2 SWAP1 PUSH2 0x1AB9 JUMP JUMPDEST PUSH2 0x67E CALLER PUSH2 0xE09 JUMP JUMPDEST DUP5 PUSH2 0x689 SWAP2 SWAP1 PUSH2 0x1AEC JUMP JUMPDEST PUSH2 0x693 SWAP2 SWAP1 PUSH2 0x1B5A JUMP JUMPDEST SWAP1 POP DUP1 SELFBALANCE LT ISZERO PUSH2 0x6A1 JUMPI SELFBALANCE SWAP1 POP JUMPDEST DUP1 SWAP2 POP POP SWAP2 SWAP1 POP JUMP JUMPDEST PUSH0 PUSH2 0x6B3 PUSH2 0x115A JUMP JUMPDEST ISZERO PUSH2 0x6E6 JUMPI DUP2 NOT ISZERO PUSH15 0x22D473030F116DDEE9F6B43AC78BA3 DUP5 PUSH1 0x60 SHL PUSH1 0x60 SHR XOR OR PUSH2 0x6E5 JUMPI PUSH4 0x3F68539A PUSH0 MSTORE PUSH1 0x4 PUSH1 0x1C REVERT JUMPDEST JUMPDEST DUP3 PUSH1 0x20 MSTORE PUSH4 0x7F5E9F20 PUSH1 0xC MSTORE CALLER PUSH0 MSTORE DUP2 PUSH1 0x34 PUSH1 0xC KECCAK256 SSTORE DUP2 PUSH0 MSTORE PUSH1 0x2C MLOAD PUSH1 0x60 SHR CALLER PUSH32 0x8C5BE1E5EBEC7D5BD14F71427D1E84F3DD0314C0F7B2291E5B200AC8C7C3B925 PUSH1 0x20 PUSH0 LOG3 PUSH1 0x1 SWAP1 POP SWAP3 SWAP2 POP POP JUMP JUMPDEST PUSH1 0x60 PUSH2 0x73F PUSH2 0x1161 JUMP JUMPDEST PUSH0 DUP6 PUSH20 0xFFFFFFFFFFFFFFFFFFFFFFFFFFFFFFFFFFFFFFFF AND DUP6 DUP6 DUP6 PUSH1 0x40 MLOAD PUSH2 0x768 SWAP3 SWAP2 SWAP1 PUSH2 0x1BC6 JUMP JUMPDEST PUSH0 PUSH1 0x40 MLOAD DUP1 DUP4 SUB DUP2 DUP6 DUP8 GAS CALL SWAP3 POP POP POP RETURNDATASIZE DUP1 PUSH0 DUP2 EQ PUSH2 0x7A2 JUMPI PUSH1 0x40 MLOAD SWAP2 POP PUSH1 0x1F NOT PUSH1 0x3F RETURNDATASIZE ADD AND DUP3 ADD PUSH1 0x40 MSTORE RETURNDATASIZE DUP3 MSTORE RETURNDATASIZE PUSH0 PUSH1 0x20 DUP5 ADD RETURNDATACOPY PUSH2 0x7A7 JUMP JUMPDEST PUSH1 0x60 SWAP2 POP JUMPDEST POP SWAP2 POP POP DUP1 SWAP2 POP POP SWAP5 SWAP4 POP POP POP POP JUMP JUMPDEST PUSH0 PUSH9 0x5345CDF77EB68F44C SLOAD SWAP1 POP SWAP1 JUMP JUMPDEST PUSH0 PUSH2 0x7D4 DUP5 DUP5 DUP5 PUSH2 0x11E8 JUMP JUMPDEST PUSH2 0x7DC PUSH2 0x115A JUMP JUMPDEST ISZERO PUSH2 0x8AA JUMPI DUP4 PUSH1 0x60 SHL PUSH15 0x22D473030F116DDEE9F6B43AC78BA3 CALLER EQ PUSH2 0x835 JUMPI CALLER PUSH1 0x20 MSTORE PUSH4 0x7F5E9F20 DUP2 OR PUSH1 0xC MSTORE PUSH1 0x34 PUSH1 0xC KECCAK256 DUP1 SLOAD DUP1 NOT ISZERO PUSH2 0x832 JUMPI DUP1 DUP6 GT ISZERO PUSH2 0x82C JUMPI PUSH4 0x13BE252B PUSH0 MSTORE PUSH1 0x4 PUSH1 0x1C REVERT JUMPDEST DUP5 DUP2 SUB DUP3 SSTORE JUMPDEST POP POP JUMPDEST PUSH4 0x87A211A2 DUP2 OR PUSH1 0xC MSTORE PUSH1 0x20 PUSH1 0xC KECCAK256 DUP1 SLOAD DUP1 DUP6 GT ISZERO PUSH2 0x85B JUMPI PUSH4 0xF4D678B8 PUSH0 MSTORE PUSH1 0x4 PUSH1 0x1C REVERT JUMPDEST DUP5 DUP2 SUB DUP3 SSTORE DUP6 PUSH0 MSTORE PUSH1 0x20 PUSH1 0xC KECCAK256 DUP6 DUP2 SLOAD ADD DUP2 SSTORE DUP6 PUSH1 0x20 MSTORE PUSH1 0xC MLOAD PUSH1 0x60 SHR DUP5 PUSH1 0x60 SHR PUSH32 0xDDF252AD1BE2C89B69C2B068FC378DAA952BA7F163C4A11628F55A4DF523B3EF PUSH1 0x20 DUP1 LOG3 POP POP POP POP PUSH2 0x958 JUMP JUMPDEST DUP4 PUSH1 0x60 SHL CALLER PUSH1 0x20 MSTORE PUSH4 0x7F5E9F20 DUP2 OR PUSH1 0xC MSTORE PUSH1 0x34 PUSH1 0xC KECCAK256 DUP1 SLOAD DUP1 NOT ISZERO PUSH2 0x8E5 JUMPI DUP1 DUP6 GT ISZERO PUSH2 0x8DF JUMPI PUSH4 0x13BE252B PUSH0 MSTORE PUSH1 0x4 PUSH1 0x1C REVERT JUMPDEST DUP5 DUP2 SUB DUP3 SSTORE JUMPDEST PUSH4 0x87A211A2 DUP4 OR PUSH1 0xC MSTORE PUSH1 0x20 PUSH1 0xC KECCAK256 DUP1 SLOAD DUP1 DUP8 GT ISZERO PUSH2 0x90B JUMPI PUSH4 0xF4D678B8 PUSH0 MSTORE PUSH1 0x4 PUSH1 0x1C REVERT JUMPDEST DUP7 DUP2 SUB DUP3 SSTORE DUP8 PUSH0 MSTORE PUSH1 0x20 PUSH1 0xC KECCAK256 DUP8 DUP2 SLOAD ADD DUP2 SSTORE DUP8 PUSH1 0x20 MSTORE PUSH1 0xC MLOAD PUSH1 0x60 SHR DUP7 PUSH1 0x60 SHR PUSH32 0xDDF252AD1BE2C89B69C2B068FC378DAA952BA7F163C4A11628F55A4DF523B3EF PUSH1 0x20 DUP1 LOG3 POP POP POP POP POP POP JUMPDEST PUSH2 0x963 DUP5 DUP5 DUP5 PUSH2 0x11ED JUMP JUMPDEST PUSH1 0x1 SWAP1 POP SWAP4 SWAP3 POP POP POP JUMP JUMPDEST PUSH0 PUSH1 0x12 SWAP1 POP SWAP1 JUMP JUMPDEST PUSH0 PUSH0 PUSH2 0x980 PUSH2 0x11F2 JUMP JUMPDEST SWAP1 POP PUSH0 PUSH0 SHL DUP2 SUB PUSH2 0x99D JUMPI PUSH2 0x993 PUSH2 0x628 JUMP JUMPDEST DUP1 MLOAD SWAP1 PUSH1 0x20 ADD KECCAK256 SWAP1 POP JUMPDEST PUSH0 PUSH2 0x9A6 PUSH2 0x11F6 JUMP JUMPDEST SWAP1 POP PUSH1 0x40 MLOAD PUSH32 0x8B73C3C69BB8FE3D512ECC4CF759CC79239F7B179B0FFACAA9A75D522B39400F DUP2 MSTORE DUP3 PUSH1 0x20 DUP3 ADD MSTORE DUP2 PUSH1 0x40 DUP3 ADD MSTORE CHAINID PUSH1 0x60 DUP3 ADD MSTORE ADDRESS PUSH1 0x80 DUP3 ADD MSTORE PUSH1 0xA0 DUP2 KECCAK256 SWAP4 POP POP POP POP SWAP1 JUMP JUMPDEST PUSH0 PUSH2 0x9FC DUP3 PUSH2 0x665 JUMP JUMPDEST SWAP1 POP SWAP2 SWAP1 POP JUMP JUMPDEST PUSH0 PUSH0 PUSH2 0xA0E CALLVALUE PUSH2 0x10C5 JUMP JUMPDEST SWAP1 POP DUP1 PUSH1 0x1 PUSH0 DUP3 DUP3 SLOAD PUSH2 0xA21 SWAP2 SWAP1 PUSH2 0x1AB9 JUMP JUMPDEST SWAP3 POP POP DUP2 SWAP1 SSTORE POP CALLVALUE PUSH1 0x2 PUSH0 DUP3 DUP3 SLOAD PUSH2 0xA39 SWAP2 SWAP1 PUSH2 0x1AB9 JUMP JUMPDEST SWAP3 POP POP DUP2 SWAP1 SSTORE POP PUSH2 0xA4A DUP4 DUP3 PUSH2 0x121F JUMP JUMPDEST DUP3 PUSH20 0xFFFFFFFFFFFFFFFFFFFFFFFFFFFFFFFFFFFFFFFF AND CALLER PUSH20 0xFFFFFFFFFFFFFFFFFFFFFFFFFFFFFFFFFFFFFFFF AND PUSH32 0xDCBC1C05240F31FF3AD067EF1EE35CE4997762752E3A095284754544F4C709D7 CALLVALUE DUP5 PUSH1 0x40 MLOAD PUSH2 0xAA9 SWAP3 SWAP2 SWAP1 PUSH2 0x1BDE JUMP JUMPDEST PUSH1 0x40 MLOAD DUP1 SWAP2 SUB SWAP1 LOG3 DUP1 SWAP2 POP POP SWAP3 SWAP2 POP POP JUMP JUMPDEST PUSH0 PUSH4 0x87A211A2 PUSH1 0xC MSTORE DUP2 PUSH0 MSTORE PUSH1 0x20 PUSH1 0xC KECCAK256 SLOAD SWAP1 POP SWAP2 SWAP1 POP JUMP JUMPDEST PUSH2 0xADC PUSH2 0x1161 JUMP JUMPDEST PUSH2 0xAE5 PUSH0 PUSH2 0x12B1 JUMP JUMPDEST JUMP JUMPDEST PUSH0 PUSH4 0x38377508 PUSH1 0xC MSTORE DUP2 PUSH0 MSTORE PUSH1 0x20 PUSH1 0xC KECCAK256 SLOAD SWAP1 POP SWAP2 SWAP1 POP JUMP JUMPDEST PUSH0 PUSH0 PUSH0 SWAP1 SLOAD SWAP1 PUSH2 0x100 EXP SWAP1 DIV PUSH20 0xFFFFFFFFFFFFFFFFFFFFFFFFFFFFFFFFFFFFFFFF AND SWAP1 POP SWAP1 JUMP JUMPDEST PUSH1 0x60 PUSH1 0x40 MLOAD DUP1 PUSH1 0x40 ADD PUSH1 0x40 MSTORE DUP1 PUSH1 0x5 DUP2 MSTORE PUSH1 0x20 ADD PUSH32 0x4755414E4F000000000000000000000000000000000000000000000000000000 DUP2 MSTORE POP SWAP1 POP SWAP1 JUMP JUMPDEST PUSH0 PUSH2 0xB70 CALLER DUP5 DUP5 PUSH2 0x11E8 JUMP JUMPDEST PUSH4 0x87A211A2 PUSH1 0xC MSTORE CALLER PUSH0 MSTORE PUSH1 0x20 PUSH1 0xC KECCAK256 DUP1 SLOAD DUP1 DUP5 GT ISZERO PUSH2 0xB97 JUMPI PUSH4 0xF4D678B8 PUSH0 MSTORE PUSH1 0x4 PUSH1 0x1C REVERT JUMPDEST DUP4 DUP2 SUB DUP3 SSTORE DUP5 PUSH0 MSTORE PUSH1 0x20 PUSH1 0xC KECCAK256 DUP5 DUP2 SLOAD ADD DUP2 SSTORE DUP5 PUSH1 0x20 MSTORE PUSH1 0xC MLOAD PUSH1 0x60 SHR CALLER PUSH32 0xDDF252AD1BE2C89B69C2B068FC378DAA952BA7F163C4A11628F55A4DF523B3EF PUSH1 0x20 DUP1 LOG3 POP POP POP PUSH2 0xBE8 CALLER DUP5 DUP5 PUSH2 0x11ED JUMP JUMPDEST PUSH1 0x1 SWAP1 POP SWAP3 SWAP2 POP POP JUMP JUMPDEST PUSH0 PUSH0 PUSH2 0xBFD DUP6 PUSH2 0x9F2 JUMP JUMPDEST SWAP1 POP DUP3 PUSH20 0xFFFFFFFFFFFFFFFFFFFFFFFFFFFFFFFFFFFFFFFF AND CALLER PUSH20 0xFFFFFFFFFFFFFFFFFFFFFFFFFFFFFFFFFFFFFFFF AND EQ PUSH2 0xC3E JUMPI PUSH2 0xC3D DUP4 CALLER DUP8 PUSH2 0x1372 JUMP JUMPDEST JUMPDEST DUP5 PUSH1 0x3 PUSH0 DUP3 DUP3 SLOAD PUSH2 0xC4F SWAP2 SWAP1 PUSH2 0x1AB9 JUMP JUMPDEST SWAP3 POP POP DUP2 SWAP1 SSTORE POP DUP1 PUSH1 0x4 PUSH0 DUP3 DUP3 SLOAD PUSH2 0xC67 SWAP2 SWAP1 PUSH2 0x1AB9 JUMP JUMPDEST SWAP3 POP POP DUP2 SWAP1 SSTORE POP PUSH2 0xC78 DUP4 DUP7 PUSH2 0x1403 JUMP JUMPDEST PUSH0 DUP5 PUSH20 0xFFFFFFFFFFFFFFFFFFFFFFFFFFFFFFFFFFFFFFFF AND DUP3 PUSH1 0x40 MLOAD PUSH2 0xC9D SWAP1 PUSH2 0x1C28 JUMP JUMPDEST PUSH0 PUSH1 0x40 MLOAD DUP1 DUP4 SUB DUP2 DUP6 DUP8 GAS CALL SWAP3 POP POP POP RETURNDATASIZE DUP1 PUSH0 DUP2 EQ PUSH2 0xCD7 JUMPI PUSH1 0x40 MLOAD SWAP2 POP PUSH1 0x1F NOT PUSH1 0x3F RETURNDATASIZE ADD AND DUP3 ADD PUSH1 0x40 MSTORE RETURNDATASIZE DUP3 MSTORE RETURNDATASIZE PUSH0 PUSH1 0x20 DUP5 ADD RETURNDATACOPY PUSH2 0xCDC JUMP JUMPDEST PUSH1 0x60 SWAP2 POP JUMPDEST POP POP SWAP1 POP DUP1 PUSH2 0xCE9 JUMPI PUSH0 PUSH0 REVERT JUMPDEST DUP4 PUSH20 0xFFFFFFFFFFFFFFFFFFFFFFFFFFFFFFFFFFFFFFFF AND DUP6 PUSH20 0xFFFFFFFFFFFFFFFFFFFFFFFFFFFFFFFFFFFFFFFF AND CALLER PUSH20 0xFFFFFFFFFFFFFFFFFFFFFFFFFFFFFFFFFFFFFFFF AND PUSH32 0xFBDE797D201C681B91056529119E0B02407C7BB96A4A2C75C01FC9667232C8DB DUP6 DUP11 PUSH1 0x40 MLOAD PUSH2 0xD5F SWAP3 SWAP2 SWAP1 PUSH2 0x1BDE JUMP JUMPDEST PUSH1 0x40 MLOAD DUP1 SWAP2 SUB SWAP1 LOG4 DUP2 SWAP3 POP POP POP SWAP4 SWAP3 POP POP POP JUMP JUMPDEST PUSH0 PUSH1 0x1 SLOAD PUSH3 0x15180 PUSH8 0x2C68AF0BB140000 PUSH2 0xD8E SWAP2 SWAP1 PUSH2 0x1B5A JUMP JUMPDEST PUSH32 0x0 TIMESTAMP PUSH2 0xDBA SWAP2 SWAP1 PUSH2 0x1C3C JUMP JUMPDEST PUSH2 0xDC4 SWAP2 SWAP1 PUSH2 0x1AEC JUMP JUMPDEST PUSH2 0xDCE SWAP2 SWAP1 PUSH2 0x1C3C JUMP JUMPDEST SWAP1 POP SWAP2 SWAP1 POP JUMP JUMPDEST PUSH0 DUP2 PUSH1 0x2 SLOAD PUSH2 0xDE4 SWAP2 SWAP1 PUSH2 0x1AB9 JUMP JUMPDEST PUSH2 0xDED CALLER PUSH2 0xD73 JUMP JUMPDEST DUP4 PUSH2 0xDF8 SWAP2 SWAP1 PUSH2 0x1AEC JUMP JUMPDEST PUSH2 0xE02 SWAP2 SWAP1 PUSH2 0x1B5A JUMP JUMPDEST SWAP1 POP SWAP2 SWAP1 POP JUMP JUMPDEST PUSH0 PUSH1 0x4 SLOAD PUSH3 0x15180 PUSH8 0x16345785D8A0000 PUSH2 0xE24 SWAP2 SWAP1 PUSH2 0x1B5A JUMP JUMPDEST PUSH32 0x0 TIMESTAMP PUSH2 0xE50 SWAP2 SWAP1 PUSH2 0x1C3C JUMP JUMPDEST PUSH2 0xE5A SWAP2 SWAP1 PUSH2 0x1AEC JUMP JUMPDEST PUSH2 0xE64 SWAP2 SWAP1 PUSH2 0x1C3C JUMP JUMPDEST SWAP1 POP SWAP2 SWAP1 POP JUMP JUMPDEST PUSH2 0xE73 PUSH2 0x115A JUMP JUMPDEST ISZERO PUSH2 0xEA6 JUMPI DUP5 NOT ISZERO PUSH15 0x22D473030F116DDEE9F6B43AC78BA3 DUP8 PUSH1 0x60 SHL PUSH1 0x60 SHR XOR OR PUSH2 0xEA5 JUMPI PUSH4 0x3F68539A PUSH0 MSTORE PUSH1 0x4 PUSH1 0x1C REVERT JUMPDEST JUMPDEST PUSH0 PUSH2 0xEAF PUSH2 0x11F2 JUMP JUMPDEST SWAP1 POP PUSH0 PUSH0 SHL DUP2 SUB PUSH2 0xECC JUMPI PUSH2 0xEC2 PUSH2 0x628 JUMP JUMPDEST DUP1 MLOAD SWAP1 PUSH1 0x20 ADD KECCAK256 SWAP1 POP JUMPDEST PUSH0 PUSH2 0xED5 PUSH2 0x11F6 JUMP JUMPDEST SWAP1 POP DUP6 TIMESTAMP GT ISZERO PUSH2 0xEEC JUMPI PUSH4 0x1A15A3CC PUSH0 MSTORE PUSH1 0x4 PUSH1 0x1C REVERT JUMPDEST PUSH1 0x40 MLOAD DUP10 PUSH1 0x60 SHL PUSH1 0x60 SHR SWAP10 POP DUP9 PUSH1 0x60 SHL PUSH1 0x60 SHR SWAP9 POP PUSH6 0x383775081901 PUSH1 0xE MSTORE DUP10 PUSH0 MSTORE PUSH1 0x20 PUSH1 0xC KECCAK256 DUP1 SLOAD PUSH32 0x8B73C3C69BB8FE3D512ECC4CF759CC79239F7B179B0FFACAA9A75D522B39400F DUP4 MSTORE DUP5 PUSH1 0x20 DUP5 ADD MSTORE DUP4 PUSH1 0x40 DUP5 ADD MSTORE CHAINID PUSH1 0x60 DUP5 ADD MSTORE ADDRESS PUSH1 0x80 DUP5 ADD MSTORE PUSH1 0xA0 DUP4 KECCAK256 PUSH1 0x2E MSTORE PUSH32 0x6E71EDAE12B1B97F4D1F60370FEF10105FA2FAAE0126114A169C64845D6126C9 DUP4 MSTORE DUP12 PUSH1 0x20 DUP5 ADD MSTORE DUP11 PUSH1 0x40 DUP5 ADD MSTORE DUP10 PUSH1 0x60 DUP5 ADD MSTORE DUP1 PUSH1 0x80 DUP5 ADD MSTORE DUP9 PUSH1 0xA0 DUP5 ADD MSTORE PUSH1 0xC0 DUP4 KECCAK256 PUSH1 0x4E MSTORE PUSH1 0x42 PUSH1 0x2C KECCAK256 PUSH0 MSTORE DUP8 PUSH1 0xFF AND PUSH1 0x20 MSTORE DUP7 PUSH1 0x40 MSTORE DUP6 PUSH1 0x60 MSTORE PUSH1 0x20 DUP1 PUSH1 0x80 PUSH0 PUSH1 0x1 GAS STATICCALL DUP13 RETURNDATASIZE MLOAD EQ PUSH2 0xFD4 JUMPI PUSH4 0xDDAFBAEF PUSH0 MSTORE PUSH1 0x4 PUSH1 0x1C REVERT JUMPDEST DUP1 DUP3 ADD DUP4 SSTORE DUP12 PUSH4 0x7F5E9F20 PUSH1 0xA0 SHL OR PUSH1 0x40 MSTORE DUP11 PUSH1 0x34 PUSH1 0x2C KECCAK256 SSTORE DUP12 DUP14 PUSH32 0x8C5BE1E5EBEC7D5BD14F71427D1E84F3DD0314C0F7B2291E5B200AC8C7C3B925 PUSH1 0x20 PUSH1 0x60 DUP9 ADD LOG3 DUP4 PUSH1 0x40 MSTORE PUSH0 PUSH1 0x60 MSTORE POP POP POP POP POP POP POP POP POP POP POP POP POP JUMP JUMPDEST PUSH0 PUSH2 0x1037 PUSH2 0x115A JUMP JUMPDEST ISZERO PUSH2 0x10A7 JUMPI PUSH15 0x22D473030F116DDEE9F6B43AC78BA3 PUSH20 0xFFFFFFFFFFFFFFFFFFFFFFFFFFFFFFFFFFFFFFFF AND DUP3 PUSH20 0xFFFFFFFFFFFFFFFFFFFFFFFFFFFFFFFFFFFFFFFF AND SUB PUSH2 0x10A6 JUMPI PUSH32 0xFFFFFFFFFFFFFFFFFFFFFFFFFFFFFFFFFFFFFFFFFFFFFFFFFFFFFFFFFFFFFFFF SWAP1 POP PUSH2 0x10BF JUMP JUMPDEST JUMPDEST DUP2 PUSH1 0x20 MSTORE PUSH4 0x7F5E9F20 PUSH1 0xC MSTORE DUP3 PUSH0 MSTORE PUSH1 0x34 PUSH1 0xC KECCAK256 SLOAD SWAP1 POP JUMPDEST SWAP3 SWAP2 POP POP JUMP JUMPDEST PUSH0 PUSH2 0x10CF DUP3 PUSH2 0xDD5 JUMP JUMPDEST SWAP1 POP SWAP2 SWAP1 POP JUMP JUMPDEST PUSH2 0x10DE PUSH2 0x1161 JUMP JUMPDEST PUSH0 PUSH20 0xFFFFFFFFFFFFFFFFFFFFFFFFFFFFFFFFFFFFFFFF AND DUP2 PUSH20 0xFFFFFFFFFFFFFFFFFFFFFFFFFFFFFFFFFFFFFFFF AND SUB PUSH2 0x114E JUMPI PUSH0 PUSH1 0x40 MLOAD PUSH32 0x1E4FBDF700000000000000000000000000000000000000000000000000000000 DUP2 MSTORE PUSH1 0x4 ADD PUSH2 0x1145 SWAP2 SWAP1 PUSH2 0x18F4 JUMP JUMPDEST PUSH1 0x40 MLOAD DUP1 SWAP2 SUB SWAP1 REVERT JUMPDEST PUSH2 0x1157 DUP2 PUSH2 0x12B1 JUMP JUMPDEST POP JUMP JUMPDEST PUSH0 PUSH0 SWAP1 POP SWAP1 JUMP JUMPDEST PUSH2 0x1169 PUSH2 0x1493 JUMP JUMPDEST PUSH20 0xFFFFFFFFFFFFFFFFFFFFFFFFFFFFFFFFFFFFFFFF AND PUSH2 0x1187 PUSH2 0xB00 JUMP JUMPDEST PUSH20 0xFFFFFFFFFFFFFFFFFFFFFFFFFFFFFFFFFFFFFFFF AND EQ PUSH2 0x11E6 JUMPI PUSH2 0x11AA PUSH2 0x1493 JUMP JUMPDEST PUSH1 0x40 MLOAD PUSH32 0x118CDAA700000000000000000000000000000000000000000000000000000000 DUP2 MSTORE PUSH1 0x4 ADD PUSH2 0x11DD SWAP2 SWAP1 PUSH2 0x18F4 JUMP JUMPDEST PUSH1 0x40 MLOAD DUP1 SWAP2 SUB SWAP1 REVERT JUMPDEST JUMP JUMPDEST POP POP POP JUMP JUMPDEST POP POP POP JUMP JUMPDEST PUSH0 SWAP1 JUMP JUMPDEST PUSH0 PUSH32 0xC89EFDAA54C0F20C7ADF612882DF0950F5A951637E0307CDCB4C672F298B8BC6 PUSH0 SHL SWAP1 POP SWAP1 JUMP JUMPDEST PUSH2 0x122A PUSH0 DUP4 DUP4 PUSH2 0x11E8 JUMP JUMPDEST PUSH9 0x5345CDF77EB68F44C SLOAD DUP2 DUP2 ADD DUP2 DUP2 LT ISZERO PUSH2 0x124D JUMPI PUSH4 0xE5CFE957 PUSH0 MSTORE PUSH1 0x4 PUSH1 0x1C REVERT JUMPDEST DUP1 PUSH9 0x5345CDF77EB68F44C SSTORE PUSH4 0x87A211A2 PUSH1 0xC MSTORE DUP4 PUSH0 MSTORE PUSH1 0x20 PUSH1 0xC KECCAK256 DUP4 DUP2 SLOAD ADD DUP2 SSTORE DUP4 PUSH1 0x20 MSTORE PUSH1 0xC MLOAD PUSH1 0x60 SHR PUSH0 PUSH32 0xDDF252AD1BE2C89B69C2B068FC378DAA952BA7F163C4A11628F55A4DF523B3EF PUSH1 0x20 DUP1 LOG3 POP POP POP PUSH2 0x12AD PUSH0 DUP4 DUP4 PUSH2 0x11ED JUMP JUMPDEST POP POP JUMP JUMPDEST PUSH0 PUSH0 PUSH0 SWAP1 SLOAD SWAP1 PUSH2 0x100 EXP SWAP1 DIV PUSH20 0xFFFFFFFFFFFFFFFFFFFFFFFFFFFFFFFFFFFFFFFF AND SWAP1 POP DUP2 PUSH0 PUSH0 PUSH2 0x100 EXP DUP2 SLOAD DUP2 PUSH20 0xFFFFFFFFFFFFFFFFFFFFFFFFFFFFFFFFFFFFFFFF MUL NOT AND SWAP1 DUP4 PUSH20 0xFFFFFFFFFFFFFFFFFFFFFFFFFFFFFFFFFFFFFFFF AND MUL OR SWAP1 SSTORE POP DUP2 PUSH20 0xFFFFFFFFFFFFFFFFFFFFFFFFFFFFFFFFFFFFFFFF AND DUP2 PUSH20 0xFFFFFFFFFFFFFFFFFFFFFFFFFFFFFFFFFFFFFFFF AND PUSH32 0x8BE0079C531659141344CD1FD0A4F28419497F9722A3DAAFE3B4186F6B6457E0 PUSH1 0x40 MLOAD PUSH1 0x40 MLOAD DUP1 SWAP2 SUB SWAP1 LOG3 POP POP JUMP JUMPDEST PUSH2 0x137A PUSH2 0x115A JUMP JUMPDEST ISZERO PUSH2 0x13C3 JUMPI PUSH15 0x22D473030F116DDEE9F6B43AC78BA3 PUSH20 0xFFFFFFFFFFFFFFFFFFFFFFFFFFFFFFFFFFFFFFFF AND DUP3 PUSH20 0xFFFFFFFFFFFFFFFFFFFFFFFFFFFFFFFFFFFFFFFF AND SUB ISZERO PUSH2 0x13FE JUMPI JUMPDEST DUP2 PUSH1 0x20 MSTORE PUSH4 0x7F5E9F20 PUSH1 0xC MSTORE DUP3 PUSH0 MSTORE PUSH1 0x34 PUSH1 0xC KECCAK256 DUP1 SLOAD DUP1 NOT ISZERO PUSH2 0x13FB JUMPI DUP1 DUP4 GT ISZERO PUSH2 0x13F5 JUMPI PUSH4 0x13BE252B PUSH0 MSTORE PUSH1 0x4 PUSH1 0x1C REVERT JUMPDEST DUP3 DUP2 SUB DUP3 SSTORE JUMPDEST POP POP JUMPDEST POP POP POP JUMP JUMPDEST PUSH2 0x140E DUP3 PUSH0 DUP4 PUSH2 0x11E8 JUMP JUMPDEST PUSH4 0x87A211A2 PUSH1 0xC MSTORE DUP2 PUSH0 MSTORE PUSH1 0x20 PUSH1 0xC KECCAK256 DUP1 SLOAD DUP1 DUP4 GT ISZERO PUSH2 0x1435 JUMPI PUSH4 0xF4D678B8 PUSH0 MSTORE PUSH1 0x4 PUSH1 0x1C REVERT JUMPDEST DUP3 DUP2 SUB DUP3 SSTORE DUP3 PUSH9 0x5345CDF77EB68F44C SLOAD SUB PUSH9 0x5345CDF77EB68F44C SSTORE DUP3 PUSH0 MSTORE PUSH0 DUP5 PUSH1 0x60 SHL PUSH1 0x60 SHR PUSH32 0xDDF252AD1BE2C89B69C2B068FC378DAA952BA7F163C4A11628F55A4DF523B3EF PUSH1 0x20 PUSH0 LOG3 POP POP PUSH2 0x148F DUP3 PUSH0 DUP4 PUSH2 0x11ED JUMP JUMPDEST POP POP JUMP JUMPDEST PUSH0 CALLER SWAP1 POP SWAP1 JUMP JUMPDEST PUSH0 DUP2 MLOAD SWAP1 POP SWAP2 SWAP1 POP JUMP JUMPDEST PUSH0 DUP3 DUP3 MSTORE PUSH1 0x20 DUP3 ADD SWAP1 POP SWAP3 SWAP2 POP POP JUMP JUMPDEST DUP3 DUP2 DUP4 MCOPY PUSH0 DUP4 DUP4 ADD MSTORE POP POP POP JUMP JUMPDEST PUSH0 PUSH1 0x1F NOT PUSH1 0x1F DUP4 ADD AND SWAP1 POP SWAP2 SWAP1 POP JUMP JUMPDEST PUSH0 PUSH2 0x14DC DUP3 PUSH2 0x149A JUMP JUMPDEST PUSH2 0x14E6 DUP2 DUP6 PUSH2 0x14A4 JUMP JUMPDEST SWAP4 POP PUSH2 0x14F6 DUP2 DUP6 PUSH1 0x20 DUP7 ADD PUSH2 0x14B4 JUMP JUMPDEST PUSH2 0x14FF DUP2 PUSH2 0x14C2 JUMP JUMPDEST DUP5 ADD SWAP2 POP POP SWAP3 SWAP2 POP POP JUMP JUMPDEST PUSH0 PUSH1 0x20 DUP3 ADD SWAP1 POP DUP2 DUP2 SUB PUSH0 DUP4 ADD MSTORE PUSH2 0x1522 DUP2 DUP5 PUSH2 0x14D2 JUMP JUMPDEST SWAP1 POP SWAP3 SWAP2 POP POP JUMP JUMPDEST PUSH0 PUSH0 REVERT JUMPDEST PUSH0 PUSH0 REVERT JUMPDEST PUSH0 DUP2 SWAP1 POP SWAP2 SWAP1 POP JUMP JUMPDEST PUSH2 0x1544 DUP2 PUSH2 0x1532 JUMP JUMPDEST DUP2 EQ PUSH2 0x154E JUMPI PUSH0 PUSH0 REVERT JUMPDEST POP JUMP JUMPDEST PUSH0 DUP2 CALLDATALOAD SWAP1 POP PUSH2 0x155F DUP2 PUSH2 0x153B JUMP JUMPDEST SWAP3 SWAP2 POP POP JUMP JUMPDEST PUSH0 PUSH1 0x20 DUP3 DUP5 SUB SLT ISZERO PUSH2 0x157A JUMPI PUSH2 0x1579 PUSH2 0x152A JUMP JUMPDEST JUMPDEST PUSH0 PUSH2 0x1587 DUP5 DUP3 DUP6 ADD PUSH2 0x1551 JUMP JUMPDEST SWAP2 POP POP SWAP3 SWAP2 POP POP JUMP JUMPDEST PUSH2 0x1599 DUP2 PUSH2 0x1532 JUMP JUMPDEST DUP3 MSTORE POP POP JUMP JUMPDEST PUSH0 PUSH1 0x20 DUP3 ADD SWAP1 POP PUSH2 0x15B2 PUSH0 DUP4 ADD DUP5 PUSH2 0x1590 JUMP JUMPDEST SWAP3 SWAP2 POP POP JUMP JUMPDEST PUSH0 PUSH20 0xFFFFFFFFFFFFFFFFFFFFFFFFFFFFFFFFFFFFFFFF DUP3 AND SWAP1 POP SWAP2 SWAP1 POP JUMP JUMPDEST PUSH0 PUSH2 0x15E1 DUP3 PUSH2 0x15B8 JUMP JUMPDEST SWAP1 POP SWAP2 SWAP1 POP JUMP JUMPDEST PUSH2 0x15F1 DUP2 PUSH2 0x15D7 JUMP JUMPDEST DUP2 EQ PUSH2 0x15FB JUMPI PUSH0 PUSH0 REVERT JUMPDEST POP JUMP JUMPDEST PUSH0 DUP2 CALLDATALOAD SWAP1 POP PUSH2 0x160C DUP2 PUSH2 0x15E8 JUMP JUMPDEST SWAP3 SWAP2 POP POP JUMP JUMPDEST PUSH0 PUSH0 PUSH1 0x40 DUP4 DUP6 SUB SLT ISZERO PUSH2 0x1628 JUMPI PUSH2 0x1627 PUSH2 0x152A JUMP JUMPDEST JUMPDEST PUSH0 PUSH2 0x1635 DUP6 DUP3 DUP7 ADD PUSH2 0x15FE JUMP JUMPDEST SWAP3 POP POP PUSH1 0x20 PUSH2 0x1646 DUP6 DUP3 DUP7 ADD PUSH2 0x1551 JUMP JUMPDEST SWAP2 POP POP SWAP3 POP SWAP3 SWAP1 POP JUMP JUMPDEST PUSH0 DUP2 ISZERO ISZERO SWAP1 POP SWAP2 SWAP1 POP JUMP JUMPDEST PUSH2 0x1664 DUP2 PUSH2 0x1650 JUMP JUMPDEST DUP3 MSTORE POP POP JUMP JUMPDEST PUSH0 PUSH1 0x20 DUP3 ADD SWAP1 POP PUSH2 0x167D PUSH0 DUP4 ADD DUP5 PUSH2 0x165B JUMP JUMPDEST SWAP3 SWAP2 POP POP JUMP JUMPDEST PUSH0 PUSH0 REVERT JUMPDEST PUSH0 PUSH0 REVERT JUMPDEST PUSH0 PUSH0 REVERT JUMPDEST PUSH0 PUSH0 DUP4 PUSH1 0x1F DUP5 ADD SLT PUSH2 0x16A4 JUMPI PUSH2 0x16A3 PUSH2 0x1683 JUMP JUMPDEST JUMPDEST DUP3 CALLDATALOAD SWAP1 POP PUSH8 0xFFFFFFFFFFFFFFFF DUP2 GT ISZERO PUSH2 0x16C1 JUMPI PUSH2 0x16C0 PUSH2 0x1687 JUMP JUMPDEST JUMPDEST PUSH1 0x20 DUP4 ADD SWAP2 POP DUP4 PUSH1 0x1 DUP3 MUL DUP4 ADD GT ISZERO PUSH2 0x16DD JUMPI PUSH2 0x16DC PUSH2 0x168B JUMP JUMPDEST JUMPDEST SWAP3 POP SWAP3 SWAP1 POP JUMP JUMPDEST PUSH0 PUSH0 PUSH0 PUSH0 PUSH1 0x60 DUP6 DUP8 SUB SLT ISZERO PUSH2 0x16FC JUMPI PUSH2 0x16FB PUSH2 0x152A JUMP JUMPDEST JUMPDEST PUSH0 PUSH2 0x1709 DUP8 DUP3 DUP9 ADD PUSH2 0x15FE JUMP JUMPDEST SWAP5 POP POP PUSH1 0x20 PUSH2 0x171A DUP8 DUP3 DUP9 ADD PUSH2 0x1551 JUMP JUMPDEST SWAP4 POP POP PUSH1 0x40 DUP6 ADD CALLDATALOAD PUSH8 0xFFFFFFFFFFFFFFFF DUP2 GT ISZERO PUSH2 0x173B JUMPI PUSH2 0x173A PUSH2 0x152E JUMP JUMPDEST JUMPDEST PUSH2 0x1747 DUP8 DUP3 DUP9 ADD PUSH2 0x168F JUMP JUMPDEST SWAP3 POP SWAP3 POP POP SWAP3 SWAP6 SWAP2 SWAP5 POP SWAP3 POP JUMP JUMPDEST PUSH0 DUP2 MLOAD SWAP1 POP SWAP2 SWAP1 POP JUMP JUMPDEST PUSH0 DUP3 DUP3 MSTORE PUSH1 0x20 DUP3 ADD SWAP1 POP SWAP3 SWAP2 POP POP JUMP JUMPDEST PUSH0 PUSH2 0x1779 DUP3 PUSH2 0x1755 JUMP JUMPDEST PUSH2 0x1783 DUP2 DUP6 PUSH2 0x175F JUMP JUMPDEST SWAP4 POP PUSH2 0x1793 DUP2 DUP6 PUSH1 0x20 DUP7 ADD PUSH2 0x14B4 JUMP JUMPDEST PUSH2 0x179C DUP2 PUSH2 0x14C2 JUMP JUMPDEST DUP5 ADD SWAP2 POP POP SWAP3 SWAP2 POP POP JUMP JUMPDEST PUSH0 PUSH1 0x20 DUP3 ADD SWAP1 POP DUP2 DUP2 SUB PUSH0 DUP4 ADD MSTORE PUSH2 0x17BF DUP2 DUP5 PUSH2 0x176F JUMP JUMPDEST SWAP1 POP SWAP3 SWAP2 POP POP JUMP JUMPDEST PUSH0 PUSH0 PUSH0 PUSH1 0x60 DUP5 DUP7 SUB SLT ISZERO PUSH2 0x17DE JUMPI PUSH2 0x17DD PUSH2 0x152A JUMP JUMPDEST JUMPDEST PUSH0 PUSH2 0x17EB DUP7 DUP3 DUP8 ADD PUSH2 0x15FE JUMP JUMPDEST SWAP4 POP POP PUSH1 0x20 PUSH2 0x17FC DUP7 DUP3 DUP8 ADD PUSH2 0x15FE JUMP JUMPDEST SWAP3 POP POP PUSH1 0x40 PUSH2 0x180D DUP7 DUP3 DUP8 ADD PUSH2 0x1551 JUMP JUMPDEST SWAP2 POP POP SWAP3 POP SWAP3 POP SWAP3 JUMP JUMPDEST PUSH0 PUSH1 0xFF DUP3 AND SWAP1 POP SWAP2 SWAP1 POP JUMP JUMPDEST PUSH2 0x182C DUP2 PUSH2 0x1817 JUMP JUMPDEST DUP3 MSTORE POP POP JUMP JUMPDEST PUSH0 PUSH1 0x20 DUP3 ADD SWAP1 POP PUSH2 0x1845 PUSH0 DUP4 ADD DUP5 PUSH2 0x1823 JUMP JUMPDEST SWAP3 SWAP2 POP POP JUMP JUMPDEST PUSH0 DUP2 SWAP1 POP SWAP2 SWAP1 POP JUMP JUMPDEST PUSH2 0x185D DUP2 PUSH2 0x184B JUMP JUMPDEST DUP3 MSTORE POP POP JUMP JUMPDEST PUSH0 PUSH1 0x20 DUP3 ADD SWAP1 POP PUSH2 0x1876 PUSH0 DUP4 ADD DUP5 PUSH2 0x1854 JUMP JUMPDEST SWAP3 SWAP2 POP POP JUMP JUMPDEST PUSH0 PUSH0 PUSH1 0x40 DUP4 DUP6 SUB SLT ISZERO PUSH2 0x1892 JUMPI PUSH2 0x1891 PUSH2 0x152A JUMP JUMPDEST JUMPDEST PUSH0 PUSH2 0x189F DUP6 DUP3 DUP7 ADD PUSH2 0x1551 JUMP JUMPDEST SWAP3 POP POP PUSH1 0x20 PUSH2 0x18B0 DUP6 DUP3 DUP7 ADD PUSH2 0x15FE JUMP JUMPDEST SWAP2 POP POP SWAP3 POP SWAP3 SWAP1 POP JUMP JUMPDEST PUSH0 PUSH1 0x20 DUP3 DUP5 SUB SLT ISZERO PUSH2 0x18CF JUMPI PUSH2 0x18CE PUSH2 0x152A JUMP JUMPDEST JUMPDEST PUSH0 PUSH2 0x18DC DUP5 DUP3 DUP6 ADD PUSH2 0x15FE JUMP JUMPDEST SWAP2 POP POP SWAP3 SWAP2 POP POP JUMP JUMPDEST PUSH2 0x18EE DUP2 PUSH2 0x15D7 JUMP JUMPDEST DUP3 MSTORE POP POP JUMP JUMPDEST PUSH0 PUSH1 0x20 DUP3 ADD SWAP1 POP PUSH2 0x1907 PUSH0 DUP4 ADD DUP5 PUSH2 0x18E5 JUMP JUMPDEST SWAP3 SWAP2 POP POP JUMP JUMPDEST PUSH0 PUSH0 PUSH0 PUSH1 0x60 DUP5 DUP7 SUB SLT ISZERO PUSH2 0x1924 JUMPI PUSH2 0x1923 PUSH2 0x152A JUMP JUMPDEST JUMPDEST PUSH0 PUSH2 0x1931 DUP7 DUP3 DUP8 ADD PUSH2 0x1551 JUMP JUMPDEST SWAP4 POP POP PUSH1 0x20 PUSH2 0x1942 DUP7 DUP3 DUP8 ADD PUSH2 0x15FE JUMP JUMPDEST SWAP3 POP POP PUSH1 0x40 PUSH2 0x1953 DUP7 DUP3 DUP8 ADD PUSH2 0x15FE JUMP JUMPDEST SWAP2 POP POP SWAP3 POP SWAP3 POP SWAP3 JUMP JUMPDEST PUSH2 0x1966 DUP2 PUSH2 0x1817 JUMP JUMPDEST DUP2 EQ PUSH2 0x1970 JUMPI PUSH0 PUSH0 REVERT JUMPDEST POP JUMP JUMPDEST PUSH0 DUP2 CALLDATALOAD SWAP1 POP PUSH2 0x1981 DUP2 PUSH2 0x195D JUMP JUMPDEST SWAP3 SWAP2 POP POP JUMP JUMPDEST PUSH2 0x1990 DUP2 PUSH2 0x184B JUMP JUMPDEST DUP2 EQ PUSH2 0x199A JUMPI PUSH0 PUSH0 REVERT JUMPDEST POP JUMP JUMPDEST PUSH0 DUP2 CALLDATALOAD SWAP1 POP PUSH2 0x19AB DUP2 PUSH2 0x1987 JUMP JUMPDEST SWAP3 SWAP2 POP POP JUMP JUMPDEST PUSH0 PUSH0 PUSH0 PUSH0 PUSH0 PUSH0 PUSH0 PUSH1 0xE0 DUP9 DUP11 SUB SLT ISZERO PUSH2 0x19CC JUMPI PUSH2 0x19CB PUSH2 0x152A JUMP JUMPDEST JUMPDEST PUSH0 PUSH2 0x19D9 DUP11 DUP3 DUP12 ADD PUSH2 0x15FE JUMP JUMPDEST SWAP8 POP POP PUSH1 0x20 PUSH2 0x19EA DUP11 DUP3 DUP12 ADD PUSH2 0x15FE JUMP JUMPDEST SWAP7 POP POP PUSH1 0x40 PUSH2 0x19FB DUP11 DUP3 DUP12 ADD PUSH2 0x1551 JUMP JUMPDEST SWAP6 POP POP PUSH1 0x60 PUSH2 0x1A0C DUP11 DUP3 DUP12 ADD PUSH2 0x1551 JUMP JUMPDEST SWAP5 POP POP PUSH1 0x80 PUSH2 0x1A1D DUP11 DUP3 DUP12 ADD PUSH2 0x1973 JUMP JUMPDEST SWAP4 POP POP PUSH1 0xA0 PUSH2 0x1A2E DUP11 DUP3 DUP12 ADD PUSH2 0x199D JUMP JUMPDEST SWAP3 POP POP PUSH1 0xC0 PUSH2 0x1A3F DUP11 DUP3 DUP12 ADD PUSH2 0x199D JUMP JUMPDEST SWAP2 POP POP SWAP3 SWAP6 SWAP9 SWAP2 SWAP5 SWAP8 POP SWAP3 SWAP6 POP JUMP JUMPDEST PUSH0 PUSH0 PUSH1 0x40 DUP4 DUP6 SUB SLT ISZERO PUSH2 0x1A64 JUMPI PUSH2 0x1A63 PUSH2 0x152A JUMP JUMPDEST JUMPDEST PUSH0 PUSH2 0x1A71 DUP6 DUP3 DUP7 ADD PUSH2 0x15FE JUMP JUMPDEST SWAP3 POP POP PUSH1 0x20 PUSH2 0x1A82 DUP6 DUP3 DUP7 ADD PUSH2 0x15FE JUMP JUMPDEST SWAP2 POP POP SWAP3 POP SWAP3 SWAP1 POP JUMP JUMPDEST PUSH32 0x4E487B7100000000000000000000000000000000000000000000000000000000 PUSH0 MSTORE PUSH1 0x11 PUSH1 0x4 MSTORE PUSH1 0x24 PUSH0 REVERT JUMPDEST PUSH0 PUSH2 0x1AC3 DUP3 PUSH2 0x1532 JUMP JUMPDEST SWAP2 POP PUSH2 0x1ACE DUP4 PUSH2 0x1532 JUMP JUMPDEST SWAP3 POP DUP3 DUP3 ADD SWAP1 POP DUP1 DUP3 GT ISZERO PUSH2 0x1AE6 JUMPI PUSH2 0x1AE5 PUSH2 0x1A8C JUMP JUMPDEST JUMPDEST SWAP3 SWAP2 POP POP JUMP JUMPDEST PUSH0 PUSH2 0x1AF6 DUP3 PUSH2 0x1532 JUMP JUMPDEST SWAP2 POP PUSH2 0x1B01 DUP4 PUSH2 0x1532 JUMP JUMPDEST SWAP3 POP DUP3 DUP3 MUL PUSH2 0x1B0F DUP2 PUSH2 0x1532 JUMP JUMPDEST SWAP2 POP DUP3 DUP3 DIV DUP5 EQ DUP4 ISZERO OR PUSH2 0x1B26 JUMPI PUSH2 0x1B25 PUSH2 0x1A8C JUMP JUMPDEST JUMPDEST POP SWAP3 SWAP2 POP POP JUMP JUMPDEST PUSH32 0x4E487B7100000000000000000000000000000000000000000000000000000000 PUSH0 MSTORE PUSH1 0x12 PUSH1 0x4 MSTORE PUSH1 0x24 PUSH0 REVERT JUMPDEST PUSH0 PUSH2 0x1B64 DUP3 PUSH2 0x1532 JUMP JUMPDEST SWAP2 POP PUSH2 0x1B6F DUP4 PUSH2 0x1532 JUMP JUMPDEST SWAP3 POP DUP3 PUSH2 0x1B7F JUMPI PUSH2 0x1B7E PUSH2 0x1B2D JUMP JUMPDEST JUMPDEST DUP3 DUP3 DIV SWAP1 POP SWAP3 SWAP2 POP POP JUMP JUMPDEST PUSH0 DUP2 SWAP1 POP SWAP3 SWAP2 POP POP JUMP JUMPDEST DUP3 DUP2 DUP4 CALLDATACOPY PUSH0 DUP4 DUP4 ADD MSTORE POP POP POP JUMP JUMPDEST PUSH0 PUSH2 0x1BAD DUP4 DUP6 PUSH2 0x1B8A JUMP JUMPDEST SWAP4 POP PUSH2 0x1BBA DUP4 DUP6 DUP5 PUSH2 0x1B94 JUMP JUMPDEST DUP3 DUP5 ADD SWAP1 POP SWAP4 SWAP3 POP POP POP JUMP JUMPDEST PUSH0 PUSH2 0x1BD2 DUP3 DUP5 DUP7 PUSH2 0x1BA2 JUMP JUMPDEST SWAP2 POP DUP2 SWAP1 POP SWAP4 SWAP3 POP POP POP JUMP JUMPDEST PUSH0 PUSH1 0x40 DUP3 ADD SWAP1 POP PUSH2 0x1BF1 PUSH0 DUP4 ADD DUP6 PUSH2 0x1590 JUMP JUMPDEST PUSH2 0x1BFE PUSH1 0x20 DUP4 ADD DUP5 PUSH2 0x1590 JUMP JUMPDEST SWAP4 SWAP3 POP POP POP JUMP JUMPDEST POP JUMP JUMPDEST PUSH0 PUSH2 0x1C13 PUSH0 DUP4 PUSH2 0x1B8A JUMP JUMPDEST SWAP2 POP PUSH2 0x1C1E DUP3 PUSH2 0x1C05 JUMP JUMPDEST PUSH0 DUP3 ADD SWAP1 POP SWAP2 SWAP1 POP JUMP JUMPDEST PUSH0 PUSH2 0x1C32 DUP3 PUSH2 0x1C08 JUMP JUMPDEST SWAP2 POP DUP2 SWAP1 POP SWAP2 SWAP1 POP JUMP JUMPDEST PUSH0 PUSH2 0x1C46 DUP3 PUSH2 0x1532 JUMP JUMPDEST SWAP2 POP PUSH2 0x1C51 DUP4 PUSH2 0x1532 JUMP JUMPDEST SWAP3 POP DUP3 DUP3 SUB SWAP1 POP DUP2 DUP2 GT ISZERO PUSH2 0x1C69 JUMPI PUSH2 0x1C68 PUSH2 0x1A8C JUMP JUMPDEST JUMPDEST SWAP3 SWAP2 POP POP JUMP INVALID LOG2 PUSH5 0x6970667358 0x22 SLT KECCAK256 DUP8 CHAINID 0xBF SWAP16 0x25 0xF 0xE3 SWAP11 PUSH22 0xA257010F711754DDAB1EE6AAA0F60AD2CF217C959591 DUP15 PUSH5 0x736F6C6343 STOP ADDMOD SHR STOP CALLER "
				},
				"gasEstimates": {
					"creation": {
						"codeDepositCost": "1466600",
						"executionCost": "infinite",
						"totalCost": "infinite"
					},
					"external": {
						"DOMAIN_SEPARATOR()": "790",
						"allowance(address,address)": "infinite",
						"approve(address,uint256)": "24900",
						"balanceOf(address)": "2908",
						"convertToAssets(uint256)": "infinite",
						"convertToShares(uint256)": "infinite",
						"customCall(address,uint256,bytes)": "infinite",
						"decimals()": "361",
						"deposit(uint256,address)": "infinite",
						"maxMint(address)": "infinite",
						"maxWithdraw(address)": "infinite",
						"name()": "infinite",
						"nonces(address)": "2820",
						"owner()": "2559",
						"permit(address,address,uint256,uint256,uint8,bytes32,bytes32)": "infinite",
						"previewDeposit(uint256)": "infinite",
						"previewRedeem(uint256)": "infinite",
						"redeem(uint256,address,address)": "infinite",
						"renounceOwnership()": "infinite",
						"symbol()": "infinite",
						"totalSupply()": "2544",
						"transfer(address,uint256)": "51337",
						"transferFrom(address,address,uint256)": "infinite",
						"transferOwnership(address)": "infinite"
					}
				},
				"methodIdentifiers": {
					"DOMAIN_SEPARATOR()": "3644e515",
					"allowance(address,address)": "dd62ed3e",
					"approve(address,uint256)": "095ea7b3",
					"balanceOf(address)": "70a08231",
					"convertToAssets(uint256)": "07a2d13a",
					"convertToShares(uint256)": "c6e6f592",
					"customCall(address,uint256,bytes)": "10ab2d01",
					"decimals()": "313ce567",
					"deposit(uint256,address)": "6e553f65",
					"maxMint(address)": "c63d75b6",
					"maxWithdraw(address)": "ce96cb77",
					"name()": "06fdde03",
					"nonces(address)": "7ecebe00",
					"owner()": "8da5cb5b",
					"permit(address,address,uint256,uint256,uint8,bytes32,bytes32)": "d505accf",
					"previewDeposit(uint256)": "ef8b30f7",
					"previewRedeem(uint256)": "4cdad506",
					"redeem(uint256,address,address)": "ba087652",
					"renounceOwnership()": "715018a6",
					"symbol()": "95d89b41",
					"totalSupply()": "18160ddd",
					"transfer(address,uint256)": "a9059cbb",
					"transferFrom(address,address,uint256)": "23b872dd",
					"transferOwnership(address)": "f2fde38b"
				}
			},
			"storageLayout": {
				"storage": [
					{
						"astId": 8,
						"contract": "src/GuanoCore.sol:Guano",
						"label": "_owner",
						"offset": 0,
						"slot": "0",
						"type": "t_address"
					},
					{
						"astId": 716,
						"contract": "src/GuanoCore.sol:Guano",
						"label": "totalMinted",
						"offset": 0,
						"slot": "1",
						"type": "t_uint256"
					},
					{
						"astId": 719,
						"contract": "src/GuanoCore.sol:Guano",
						"label": "totalDeposited",
						"offset": 0,
						"slot": "2",
						"type": "t_uint256"
					},
					{
						"astId": 722,
						"contract": "src/GuanoCore.sol:Guano",
						"label": "totalRedeemed",
						"offset": 0,
						"slot": "3",
						"type": "t_uint256"
					},
					{
						"astId": 725,
						"contract": "src/GuanoCore.sol:Guano",
						"label": "totalWithdrawn",
						"offset": 0,
						"slot": "4",
						"type": "t_uint256"
					}
				],
				"types": {
					"t_address": {
						"encoding": "inplace",
						"label": "address",
						"numberOfBytes": "20"
					},
					"t_uint256": {
						"encoding": "inplace",
						"label": "uint256",
						"numberOfBytes": "32"
					}
				}
			},
			"userdoc": {
				"kind": "user",
				"methods": {},
				"version": 1
			}
		}
	}
}