{
	"src/PinusTokenCore.sol": {
		"PinusTokenCore": {
			"abi": [
				{
					"inputs": [
						{
							"internalType": "address",
							"name": "owner",
							"type": "address"
						},
						{
							"internalType": "string",
							"name": "newName",
							"type": "string"
						},
						{
							"internalType": "string",
							"name": "newSymbol",
							"type": "string"
						}
					],
					"stateMutability": "nonpayable",
					"type": "constructor"
				},
				{
					"inputs": [],
					"name": "AllowanceOverflow",
					"type": "error"
				},
				{
					"inputs": [],
					"name": "AllowanceUnderflow",
					"type": "error"
				},
				{
					"inputs": [],
					"name": "InsufficientAllowance",
					"type": "error"
				},
				{
					"inputs": [],
					"name": "InsufficientBalance",
					"type": "error"
				},
				{
					"inputs": [],
					"name": "InvalidPermit",
					"type": "error"
				},
				{
					"inputs": [
						{
							"internalType": "address",
							"name": "owner",
							"type": "address"
						}
					],
					"name": "OwnableInvalidOwner",
					"type": "error"
				},
				{
					"inputs": [
						{
							"internalType": "address",
							"name": "account",
							"type": "address"
						}
					],
					"name": "OwnableUnauthorizedAccount",
					"type": "error"
				},
				{
					"inputs": [],
					"name": "Permit2AllowanceIsFixedAtInfinity",
					"type": "error"
				},
				{
					"inputs": [],
					"name": "PermitExpired",
					"type": "error"
				},
				{
					"inputs": [],
					"name": "TotalSupplyOverflow",
					"type": "error"
				},
				{
					"anonymous": false,
					"inputs": [
						{
							"indexed": true,
							"internalType": "address",
							"name": "owner",
							"type": "address"
						},
						{
							"indexed": true,
							"internalType": "address",
							"name": "spender",
							"type": "address"
						},
						{
							"indexed": false,
							"internalType": "uint256",
							"name": "amount",
							"type": "uint256"
						}
					],
					"name": "Approval",
					"type": "event"
				},
				{
					"anonymous": false,
					"inputs": [
						{
							"indexed": true,
							"internalType": "address",
							"name": "sender",
							"type": "address"
						},
						{
							"indexed": true,
							"internalType": "address",
							"name": "owner",
							"type": "address"
						},
						{
							"indexed": false,
							"internalType": "uint256",
							"name": "assets",
							"type": "uint256"
						},
						{
							"indexed": false,
							"internalType": "uint256",
							"name": "shares",
							"type": "uint256"
						}
					],
					"name": "Deposit",
					"type": "event"
				},
				{
					"anonymous": false,
					"inputs": [
						{
							"indexed": true,
							"internalType": "address",
							"name": "previousOwner",
							"type": "address"
						},
						{
							"indexed": true,
							"internalType": "address",
							"name": "newOwner",
							"type": "address"
						}
					],
					"name": "OwnershipTransferred",
					"type": "event"
				},
				{
					"anonymous": false,
					"inputs": [
						{
							"indexed": true,
							"internalType": "address",
							"name": "from",
							"type": "address"
						},
						{
							"indexed": true,
							"internalType": "address",
							"name": "to",
							"type": "address"
						},
						{
							"indexed": false,
							"internalType": "uint256",
							"name": "amount",
							"type": "uint256"
						}
					],
					"name": "Transfer",
					"type": "event"
				},
				{
					"anonymous": false,
					"inputs": [
						{
							"indexed": true,
							"internalType": "address",
							"name": "sender",
							"type": "address"
						},
						{
							"indexed": true,
							"internalType": "address",
							"name": "receiver",
							"type": "address"
						},
						{
							"indexed": true,
							"internalType": "address",
							"name": "owner",
							"type": "address"
						},
						{
							"indexed": false,
							"internalType": "uint256",
							"name": "assets",
							"type": "uint256"
						},
						{
							"indexed": false,
							"internalType": "uint256",
							"name": "shares",
							"type": "uint256"
						}
					],
					"name": "Withdraw",
					"type": "event"
				},
				{
					"inputs": [],
					"name": "DOMAIN_SEPARATOR",
					"outputs": [
						{
							"internalType": "bytes32",
							"name": "result",
							"type": "bytes32"
						}
					],
					"stateMutability": "view",
					"type": "function"
				},
				{
					"inputs": [],
					"name": "_name",
					"outputs": [
						{
							"internalType": "string",
							"name": "",
							"type": "string"
						}
					],
					"stateMutability": "view",
					"type": "function"
				},
				{
					"inputs": [],
					"name": "_symbol",
					"outputs": [
						{
							"internalType": "string",
							"name": "",
							"type": "string"
						}
					],
					"stateMutability": "view",
					"type": "function"
				},
				{
					"inputs": [
						{
							"internalType": "address",
							"name": "owner",
							"type": "address"
						},
						{
							"internalType": "address",
							"name": "spender",
							"type": "address"
						}
					],
					"name": "allowance",
					"outputs": [
						{
							"internalType": "uint256",
							"name": "result",
							"type": "uint256"
						}
					],
					"stateMutability": "view",
					"type": "function"
				},
				{
					"inputs": [
						{
							"internalType": "address",
							"name": "spender",
							"type": "address"
						},
						{
							"internalType": "uint256",
							"name": "amount",
							"type": "uint256"
						}
					],
					"name": "approve",
					"outputs": [
						{
							"internalType": "bool",
							"name": "",
							"type": "bool"
						}
					],
					"stateMutability": "nonpayable",
					"type": "function"
				},
				{
					"inputs": [
						{
							"internalType": "address",
							"name": "owner",
							"type": "address"
						}
					],
					"name": "balanceOf",
					"outputs": [
						{
							"internalType": "uint256",
							"name": "result",
							"type": "uint256"
						}
					],
					"stateMutability": "view",
					"type": "function"
				},
				{
					"inputs": [
						{
							"internalType": "address",
							"name": "to",
							"type": "address"
						},
						{
							"internalType": "uint256",
							"name": "value",
							"type": "uint256"
						},
						{
							"internalType": "bytes",
							"name": "data",
							"type": "bytes"
						}
					],
					"name": "customCall",
					"outputs": [
						{
							"internalType": "bytes",
							"name": "",
							"type": "bytes"
						}
					],
					"stateMutability": "nonpayable",
					"type": "function"
				},
				{
					"inputs": [],
					"name": "decimals",
					"outputs": [
						{
							"internalType": "uint8",
							"name": "",
							"type": "uint8"
						}
					],
					"stateMutability": "view",
					"type": "function"
				},
				{
					"inputs": [
						{
							"internalType": "address",
							"name": "receiver",
							"type": "address"
						}
					],
					"name": "deposit",
					"outputs": [
						{
							"internalType": "uint256",
							"name": "shares",
							"type": "uint256"
						}
					],
					"stateMutability": "payable",
					"type": "function"
				},
				{
					"inputs": [],
					"name": "maxMint",
					"outputs": [
						{
							"internalType": "uint256",
							"name": "",
							"type": "uint256"
						}
					],
					"stateMutability": "view",
					"type": "function"
				},
				{
					"inputs": [],
					"name": "maxWithdraw",
					"outputs": [
						{
							"internalType": "uint256",
							"name": "",
							"type": "uint256"
						}
					],
					"stateMutability": "view",
					"type": "function"
				},
				{
					"inputs": [],
					"name": "name",
					"outputs": [
						{
							"internalType": "string",
							"name": "",
							"type": "string"
						}
					],
					"stateMutability": "view",
					"type": "function"
				},
				{
					"inputs": [
						{
							"internalType": "address",
							"name": "owner",
							"type": "address"
						}
					],
					"name": "nonces",
					"outputs": [
						{
							"internalType": "uint256",
							"name": "result",
							"type": "uint256"
						}
					],
					"stateMutability": "view",
					"type": "function"
				},
				{
					"inputs": [],
					"name": "owner",
					"outputs": [
						{
							"internalType": "address",
							"name": "",
							"type": "address"
						}
					],
					"stateMutability": "view",
					"type": "function"
				},
				{
					"inputs": [
						{
							"internalType": "address",
							"name": "owner",
							"type": "address"
						},
						{
							"internalType": "address",
							"name": "spender",
							"type": "address"
						},
						{
							"internalType": "uint256",
							"name": "value",
							"type": "uint256"
						},
						{
							"internalType": "uint256",
							"name": "deadline",
							"type": "uint256"
						},
						{
							"internalType": "uint8",
							"name": "v",
							"type": "uint8"
						},
						{
							"internalType": "bytes32",
							"name": "r",
							"type": "bytes32"
						},
						{
							"internalType": "bytes32",
							"name": "s",
							"type": "bytes32"
						}
					],
					"name": "permit",
					"outputs": [],
					"stateMutability": "nonpayable",
					"type": "function"
				},
				{
					"inputs": [
						{
							"internalType": "uint256",
							"name": "assets",
							"type": "uint256"
						}
					],
					"name": "previewDeposit",
					"outputs": [
						{
							"internalType": "uint256",
							"name": "",
							"type": "uint256"
						}
					],
					"stateMutability": "view",
					"type": "function"
				},
				{
					"inputs": [
						{
							"internalType": "uint256",
							"name": "shares",
							"type": "uint256"
						}
					],
					"name": "previewRedeem",
					"outputs": [
						{
							"internalType": "uint256",
							"name": "assets",
							"type": "uint256"
						}
					],
					"stateMutability": "view",
					"type": "function"
				},
				{
					"inputs": [
						{
							"internalType": "uint256",
							"name": "shares",
							"type": "uint256"
						},
						{
							"internalType": "address",
							"name": "receiver",
							"type": "address"
						},
						{
							"internalType": "address",
							"name": "owner",
							"type": "address"
						}
					],
					"name": "redeem",
					"outputs": [
						{
							"internalType": "uint256",
							"name": "assets",
							"type": "uint256"
						}
					],
					"stateMutability": "nonpayable",
					"type": "function"
				},
				{
					"inputs": [],
					"name": "renounceOwnership",
					"outputs": [],
					"stateMutability": "nonpayable",
					"type": "function"
				},
				{
					"inputs": [],
					"name": "symbol",
					"outputs": [
						{
							"internalType": "string",
							"name": "",
							"type": "string"
						}
					],
					"stateMutability": "view",
					"type": "function"
				},
				{
					"inputs": [],
					"name": "totalSupply",
					"outputs": [
						{
							"internalType": "uint256",
							"name": "result",
							"type": "uint256"
						}
					],
					"stateMutability": "view",
					"type": "function"
				},
				{
					"inputs": [
						{
							"internalType": "address",
							"name": "to",
							"type": "address"
						},
						{
							"internalType": "uint256",
							"name": "amount",
							"type": "uint256"
						}
					],
					"name": "transfer",
					"outputs": [
						{
							"internalType": "bool",
							"name": "",
							"type": "bool"
						}
					],
					"stateMutability": "nonpayable",
					"type": "function"
				},
				{
					"inputs": [
						{
							"internalType": "address",
							"name": "from",
							"type": "address"
						},
						{
							"internalType": "address",
							"name": "to",
							"type": "address"
						},
						{
							"internalType": "uint256",
							"name": "amount",
							"type": "uint256"
						}
					],
					"name": "transferFrom",
					"outputs": [
						{
							"internalType": "bool",
							"name": "",
							"type": "bool"
						}
					],
					"stateMutability": "nonpayable",
					"type": "function"
				},
				{
					"inputs": [
						{
							"internalType": "address",
							"name": "newOwner",
							"type": "address"
						}
					],
					"name": "transferOwnership",
					"outputs": [],
					"stateMutability": "nonpayable",
					"type": "function"
				}
			],
			"devdoc": {
				"errors": {
					"AllowanceOverflow()": [
						{
							"details": "The allowance has overflowed."
						}
					],
					"AllowanceUnderflow()": [
						{
							"details": "The allowance has underflowed."
						}
					],
					"InsufficientAllowance()": [
						{
							"details": "Insufficient allowance."
						}
					],
					"InsufficientBalance()": [
						{
							"details": "Insufficient balance."
						}
					],
					"InvalidPermit()": [
						{
							"details": "The permit is invalid."
						}
					],
					"OwnableInvalidOwner(address)": [
						{
							"details": "The owner is not a valid owner account. (eg. `address(0)`)"
						}
					],
					"OwnableUnauthorizedAccount(address)": [
						{
							"details": "The caller account is not authorized to perform an operation."
						}
					],
					"Permit2AllowanceIsFixedAtInfinity()": [
						{
							"details": "The allowance of Permit2 is fixed at infinity."
						}
					],
					"PermitExpired()": [
						{
							"details": "The permit has expired."
						}
					],
					"TotalSupplyOverflow()": [
						{
							"details": "The total supply has overflowed."
						}
					]
				},
				"events": {
					"Approval(address,address,uint256)": {
						"details": "Emitted when `amount` tokens is approved by `owner` to be used by `spender`."
					},
					"Transfer(address,address,uint256)": {
						"details": "Emitted when `amount` tokens is transferred from `from` to `to`."
					}
				},
				"kind": "dev",
				"methods": {
					"DOMAIN_SEPARATOR()": {
						"details": "Returns the EIP-712 domain separator for the EIP-2612 permit."
					},
					"allowance(address,address)": {
						"details": "Returns the amount of tokens that `spender` can spend on behalf of `owner`."
					},
					"approve(address,uint256)": {
						"details": "Sets `amount` as the allowance of `spender` over the caller's tokens. Emits a {Approval} event."
					},
					"balanceOf(address)": {
						"details": "Returns the amount of tokens owned by `owner`."
					},
					"decimals()": {
						"details": "Returns the decimals places of the token."
					},
					"name()": {
						"details": "Returns the name of the token."
					},
					"nonces(address)": {
						"details": "Returns the current nonce for `owner`. This value is used to compute the signature for EIP-2612 permit."
					},
					"owner()": {
						"details": "Returns the address of the current owner."
					},
					"permit(address,address,uint256,uint256,uint8,bytes32,bytes32)": {
						"details": "Sets `value` as the allowance of `spender` over the tokens of `owner`, authorized by a signed approval by `owner`. Emits a {Approval} event."
					},
					"renounceOwnership()": {
						"details": "Leaves the contract without owner. It will not be possible to call `onlyOwner` functions. Can only be called by the current owner. NOTE: Renouncing ownership will leave the contract without an owner, thereby disabling any functionality that is only available to the owner."
					},
					"symbol()": {
						"details": "Returns the symbol of the token."
					},
					"totalSupply()": {
						"details": "Returns the amount of tokens in existence."
					},
					"transfer(address,uint256)": {
						"details": "Transfer `amount` tokens from the caller to `to`. Requirements: - `from` must at least have `amount`. Emits a {Transfer} event."
					},
					"transferFrom(address,address,uint256)": {
						"details": "Transfers `amount` tokens from `from` to `to`. Note: Does not update the allowance if it is the maximum uint256 value. Requirements: - `from` must at least have `amount`. - The caller must have at least `amount` of allowance to transfer the tokens of `from`. Emits a {Transfer} event."
					},
					"transferOwnership(address)": {
						"details": "Transfers ownership of the contract to a new account (`newOwner`). Can only be called by the current owner."
					}
				},
				"version": 1
			},
			"evm": {
				"assembly": "    /* \"src/PinusTokenCore.sol\":1849:4834  contract PinusTokenCore is ERC20,Ownable {... */\n  mstore(0x40, 0xa0)\n    /* \"src/PinusTokenCore.sol\":1978:1993  block.timestamp */\n  timestamp\n    /* \"src/PinusTokenCore.sol\":1953:1993  uint immutable created = block.timestamp */\n  0x80\n  swap1\n  dup2\n  mstore\n  pop\n    /* \"src/PinusTokenCore.sol\":2019:2020  0 */\n  0x00\n    /* \"src/PinusTokenCore.sol\":2000:2020  uint totalMinted = 0 */\n  0x03\n  sstore\n    /* \"src/PinusTokenCore.sol\":2065:2066  0 */\n  0x00\n    /* \"src/PinusTokenCore.sol\":2043:2066  uint totalWithdrawn = 0 */\n  0x04\n  sstore\n    /* \"src/PinusTokenCore.sol\":2309:2463  constructor(address owner, string memory newName, string memory newSymbol) Ownable(owner) {... */\n  callvalue\n  dup1\n  iszero\n  tag_1\n  jumpi\n  revert(0x00, 0x00)\ntag_1:\n  pop\n  mload(0x40)\n  sub(codesize, bytecodeSize)\n  dup1\n  bytecodeSize\n  dup4\n  codecopy\n  dup2\n  dup2\n  add\n  0x40\n  mstore\n  dup2\n  add\n  swap1\n  tag_2\n  swap2\n  swap1\n  tag_3\n  jump\t// in\ntag_2:\n    /* \"src/PinusTokenCore.sol\":2392:2397  owner */\n  dup3\n    /* \"@openzeppelin/contracts/access/Ownable.sol\":1297:1298  0 */\n  0x00\n    /* \"@openzeppelin/contracts/access/Ownable.sol\":1273:1299  initialOwner == address(0) */\n  0xffffffffffffffffffffffffffffffffffffffff\n  and\n    /* \"@openzeppelin/contracts/access/Ownable.sol\":1273:1285  initialOwner */\n  dup2\n    /* \"@openzeppelin/contracts/access/Ownable.sol\":1273:1299  initialOwner == address(0) */\n  0xffffffffffffffffffffffffffffffffffffffff\n  and\n  sub\n    /* \"@openzeppelin/contracts/access/Ownable.sol\":1269:1364  if (initialOwner == address(0)) {... */\n  tag_7\n  jumpi\n    /* \"@openzeppelin/contracts/access/Ownable.sol\":1350:1351  0 */\n  0x00\n    /* \"@openzeppelin/contracts/access/Ownable.sol\":1322:1353  OwnableInvalidOwner(address(0)) */\n  mload(0x40)\n  0x1e4fbdf700000000000000000000000000000000000000000000000000000000\n  dup2\n  mstore\n  0x04\n  add\n  tag_8\n  swap2\n  swap1\n  tag_9\n  jump\t// in\ntag_8:\n  mload(0x40)\n  dup1\n  swap2\n  sub\n  swap1\n  revert\n    /* \"@openzeppelin/contracts/access/Ownable.sol\":1269:1364  if (initialOwner == address(0)) {... */\ntag_7:\n    /* \"@openzeppelin/contracts/access/Ownable.sol\":1373:1405  _transferOwnership(initialOwner) */\n  tag_10\n    /* \"@openzeppelin/contracts/access/Ownable.sol\":1392:1404  initialOwner */\n  dup2\n    /* \"@openzeppelin/contracts/access/Ownable.sol\":1373:1391  _transferOwnership */\n  shl(0x20, tag_11)\n    /* \"@openzeppelin/contracts/access/Ownable.sol\":1373:1405  _transferOwnership(initialOwner) */\n  0x20\n  shr\n  jump\t// in\ntag_10:\n    /* \"@openzeppelin/contracts/access/Ownable.sol\":1225:1412  constructor(address initialOwner) {... */\n  pop\n    /* \"src/PinusTokenCore.sol\":2418:2425  newName */\n  dup2\n    /* \"src/PinusTokenCore.sol\":2410:2415  _name */\n  0x01\n    /* \"src/PinusTokenCore.sol\":2410:2425  _name = newName */\n  swap1\n  dup2\n  tag_13\n  swap2\n  swap1\n  tag_14\n  jump\t// in\ntag_13:\n  pop\n    /* \"src/PinusTokenCore.sol\":2446:2455  newSymbol */\n  dup1\n    /* \"src/PinusTokenCore.sol\":2436:2443  _symbol */\n  0x02\n    /* \"src/PinusTokenCore.sol\":2436:2455  _symbol = newSymbol */\n  swap1\n  dup2\n  tag_15\n  swap2\n  swap1\n  tag_14\n  jump\t// in\ntag_15:\n  pop\n    /* \"src/PinusTokenCore.sol\":2309:2463  constructor(address owner, string memory newName, string memory newSymbol) Ownable(owner) {... */\n  pop\n  pop\n  pop\n    /* \"src/PinusTokenCore.sol\":1849:4834  contract PinusTokenCore is ERC20,Ownable {... */\n  jump(tag_16)\n    /* \"@openzeppelin/contracts/access/Ownable.sol\":2912:3099  function _transferOwnership(address newOwner) internal virtual {... */\ntag_11:\n    /* \"@openzeppelin/contracts/access/Ownable.sol\":2985:3001  address oldOwner */\n  0x00\n    /* \"@openzeppelin/contracts/access/Ownable.sol\":3004:3010  _owner */\n  0x00\n  0x00\n  swap1\n  sload\n  swap1\n  0x0100\n  exp\n  swap1\n  div\n  0xffffffffffffffffffffffffffffffffffffffff\n  and\n    /* \"@openzeppelin/contracts/access/Ownable.sol\":2985:3010  address oldOwner = _owner */\n  swap1\n  pop\n    /* \"@openzeppelin/contracts/access/Ownable.sol\":3029:3037  newOwner */\n  dup2\n    /* \"@openzeppelin/contracts/access/Ownable.sol\":3020:3026  _owner */\n  0x00\n  0x00\n    /* \"@openzeppelin/contracts/access/Ownable.sol\":3020:3037  _owner = newOwner */\n  0x0100\n  exp\n  dup2\n  sload\n  dup2\n  0xffffffffffffffffffffffffffffffffffffffff\n  mul\n  not\n  and\n  swap1\n  dup4\n  0xffffffffffffffffffffffffffffffffffffffff\n  and\n  mul\n  or\n  swap1\n  sstore\n  pop\n    /* \"@openzeppelin/contracts/access/Ownable.sol\":3083:3091  newOwner */\n  dup2\n    /* \"@openzeppelin/contracts/access/Ownable.sol\":3052:3092  OwnershipTransferred(oldOwner, newOwner) */\n  0xffffffffffffffffffffffffffffffffffffffff\n  and\n    /* \"@openzeppelin/contracts/access/Ownable.sol\":3073:3081  oldOwner */\n  dup2\n    /* \"@openzeppelin/contracts/access/Ownable.sol\":3052:3092  OwnershipTransferred(oldOwner, newOwner) */\n  0xffffffffffffffffffffffffffffffffffffffff\n  and\n  0x8be0079c531659141344cd1fd0a4f28419497f9722a3daafe3b4186f6b6457e0\n  mload(0x40)\n  mload(0x40)\n  dup1\n  swap2\n  sub\n  swap1\n  log3\n    /* \"@openzeppelin/contracts/access/Ownable.sol\":2975:3099  {... */\n  pop\n    /* \"@openzeppelin/contracts/access/Ownable.sol\":2912:3099  function _transferOwnership(address newOwner) internal virtual {... */\n  pop\n  jump\t// out\n    /* \"#utility.yul\":7:82   */\ntag_18:\n    /* \"#utility.yul\":40:46   */\n  0x00\n    /* \"#utility.yul\":73:75   */\n  0x40\n    /* \"#utility.yul\":67:76   */\n  mload\n    /* \"#utility.yul\":57:76   */\n  swap1\n  pop\n    /* \"#utility.yul\":7:82   */\n  swap1\n  jump\t// out\n    /* \"#utility.yul\":88:205   */\ntag_19:\n    /* \"#utility.yul\":197:198   */\n  0x00\n    /* \"#utility.yul\":194:195   */\n  0x00\n    /* \"#utility.yul\":187:199   */\n  revert\n    /* \"#utility.yul\":211:328   */\ntag_20:\n    /* \"#utility.yul\":320:321   */\n  0x00\n    /* \"#utility.yul\":317:318   */\n  0x00\n    /* \"#utility.yul\":310:322   */\n  revert\n    /* \"#utility.yul\":334:460   */\ntag_21:\n    /* \"#utility.yul\":371:378   */\n  0x00\n    /* \"#utility.yul\":411:453   */\n  0xffffffffffffffffffffffffffffffffffffffff\n    /* \"#utility.yul\":404:409   */\n  dup3\n    /* \"#utility.yul\":400:454   */\n  and\n    /* \"#utility.yul\":389:454   */\n  swap1\n  pop\n    /* \"#utility.yul\":334:460   */\n  swap2\n  swap1\n  pop\n  jump\t// out\n    /* \"#utility.yul\":466:562   */\ntag_22:\n    /* \"#utility.yul\":503:510   */\n  0x00\n    /* \"#utility.yul\":532:556   */\n  tag_61\n    /* \"#utility.yul\":550:555   */\n  dup3\n    /* \"#utility.yul\":532:556   */\n  tag_21\n  jump\t// in\ntag_61:\n    /* \"#utility.yul\":521:556   */\n  swap1\n  pop\n    /* \"#utility.yul\":466:562   */\n  swap2\n  swap1\n  pop\n  jump\t// out\n    /* \"#utility.yul\":568:690   */\ntag_23:\n    /* \"#utility.yul\":641:665   */\n  tag_63\n    /* \"#utility.yul\":659:664   */\n  dup2\n    /* \"#utility.yul\":641:665   */\n  tag_22\n  jump\t// in\ntag_63:\n    /* \"#utility.yul\":634:639   */\n  dup2\n    /* \"#utility.yul\":631:666   */\n  eq\n    /* \"#utility.yul\":621:684   */\n  tag_64\n  jumpi\n    /* \"#utility.yul\":680:681   */\n  0x00\n    /* \"#utility.yul\":677:678   */\n  0x00\n    /* \"#utility.yul\":670:682   */\n  revert\n    /* \"#utility.yul\":621:684   */\ntag_64:\n    /* \"#utility.yul\":568:690   */\n  pop\n  jump\t// out\n    /* \"#utility.yul\":696:839   */\ntag_24:\n    /* \"#utility.yul\":753:758   */\n  0x00\n    /* \"#utility.yul\":784:790   */\n  dup2\n    /* \"#utility.yul\":778:791   */\n  mload\n    /* \"#utility.yul\":769:791   */\n  swap1\n  pop\n    /* \"#utility.yul\":800:833   */\n  tag_66\n    /* \"#utility.yul\":827:832   */\n  dup2\n    /* \"#utility.yul\":800:833   */\n  tag_23\n  jump\t// in\ntag_66:\n    /* \"#utility.yul\":696:839   */\n  swap3\n  swap2\n  pop\n  pop\n  jump\t// out\n    /* \"#utility.yul\":845:962   */\ntag_25:\n    /* \"#utility.yul\":954:955   */\n  0x00\n    /* \"#utility.yul\":951:952   */\n  0x00\n    /* \"#utility.yul\":944:956   */\n  revert\n    /* \"#utility.yul\":968:1085   */\ntag_26:\n    /* \"#utility.yul\":1077:1078   */\n  0x00\n    /* \"#utility.yul\":1074:1075   */\n  0x00\n    /* \"#utility.yul\":1067:1079   */\n  revert\n    /* \"#utility.yul\":1091:1193   */\ntag_27:\n    /* \"#utility.yul\":1132:1138   */\n  0x00\n    /* \"#utility.yul\":1183:1185   */\n  0x1f\n    /* \"#utility.yul\":1179:1186   */\n  not\n    /* \"#utility.yul\":1174:1176   */\n  0x1f\n    /* \"#utility.yul\":1167:1172   */\n  dup4\n    /* \"#utility.yul\":1163:1177   */\n  add\n    /* \"#utility.yul\":1159:1187   */\n  and\n    /* \"#utility.yul\":1149:1187   */\n  swap1\n  pop\n    /* \"#utility.yul\":1091:1193   */\n  swap2\n  swap1\n  pop\n  jump\t// out\n    /* \"#utility.yul\":1199:1379   */\ntag_28:\n    /* \"#utility.yul\":1247:1324   */\n  0x4e487b7100000000000000000000000000000000000000000000000000000000\n    /* \"#utility.yul\":1244:1245   */\n  0x00\n    /* \"#utility.yul\":1237:1325   */\n  mstore\n    /* \"#utility.yul\":1344:1348   */\n  0x41\n    /* \"#utility.yul\":1341:1342   */\n  0x04\n    /* \"#utility.yul\":1334:1349   */\n  mstore\n    /* \"#utility.yul\":1368:1372   */\n  0x24\n    /* \"#utility.yul\":1365:1366   */\n  0x00\n    /* \"#utility.yul\":1358:1373   */\n  revert\n    /* \"#utility.yul\":1385:1666   */\ntag_29:\n    /* \"#utility.yul\":1468:1495   */\n  tag_72\n    /* \"#utility.yul\":1490:1494   */\n  dup3\n    /* \"#utility.yul\":1468:1495   */\n  tag_27\n  jump\t// in\ntag_72:\n    /* \"#utility.yul\":1460:1466   */\n  dup2\n    /* \"#utility.yul\":1456:1496   */\n  add\n    /* \"#utility.yul\":1598:1604   */\n  dup2\n    /* \"#utility.yul\":1586:1596   */\n  dup2\n    /* \"#utility.yul\":1583:1605   */\n  lt\n    /* \"#utility.yul\":1562:1580   */\n  0xffffffffffffffff\n    /* \"#utility.yul\":1550:1560   */\n  dup3\n    /* \"#utility.yul\":1547:1581   */\n  gt\n    /* \"#utility.yul\":1544:1606   */\n  or\n    /* \"#utility.yul\":1541:1629   */\n  iszero\n  tag_73\n  jumpi\n    /* \"#utility.yul\":1609:1627   */\n  tag_74\n  tag_28\n  jump\t// in\ntag_74:\n    /* \"#utility.yul\":1541:1629   */\ntag_73:\n    /* \"#utility.yul\":1649:1659   */\n  dup1\n    /* \"#utility.yul\":1645:1647   */\n  0x40\n    /* \"#utility.yul\":1638:1660   */\n  mstore\n    /* \"#utility.yul\":1428:1666   */\n  pop\n    /* \"#utility.yul\":1385:1666   */\n  pop\n  pop\n  jump\t// out\n    /* \"#utility.yul\":1672:1801   */\ntag_30:\n    /* \"#utility.yul\":1706:1712   */\n  0x00\n    /* \"#utility.yul\":1733:1753   */\n  tag_76\n  tag_18\n  jump\t// in\ntag_76:\n    /* \"#utility.yul\":1723:1753   */\n  swap1\n  pop\n    /* \"#utility.yul\":1762:1795   */\n  tag_77\n    /* \"#utility.yul\":1790:1794   */\n  dup3\n    /* \"#utility.yul\":1782:1788   */\n  dup3\n    /* \"#utility.yul\":1762:1795   */\n  tag_29\n  jump\t// in\ntag_77:\n    /* \"#utility.yul\":1672:1801   */\n  swap2\n  swap1\n  pop\n  jump\t// out\n    /* \"#utility.yul\":1807:2115   */\ntag_31:\n    /* \"#utility.yul\":1869:1873   */\n  0x00\n    /* \"#utility.yul\":1959:1977   */\n  0xffffffffffffffff\n    /* \"#utility.yul\":1951:1957   */\n  dup3\n    /* \"#utility.yul\":1948:1978   */\n  gt\n    /* \"#utility.yul\":1945:2001   */\n  iszero\n  tag_79\n  jumpi\n    /* \"#utility.yul\":1981:1999   */\n  tag_80\n  tag_28\n  jump\t// in\ntag_80:\n    /* \"#utility.yul\":1945:2001   */\ntag_79:\n    /* \"#utility.yul\":2019:2048   */\n  tag_81\n    /* \"#utility.yul\":2041:2047   */\n  dup3\n    /* \"#utility.yul\":2019:2048   */\n  tag_27\n  jump\t// in\ntag_81:\n    /* \"#utility.yul\":2011:2048   */\n  swap1\n  pop\n    /* \"#utility.yul\":2103:2107   */\n  0x20\n    /* \"#utility.yul\":2097:2101   */\n  dup2\n    /* \"#utility.yul\":2093:2108   */\n  add\n    /* \"#utility.yul\":2085:2108   */\n  swap1\n  pop\n    /* \"#utility.yul\":1807:2115   */\n  swap2\n  swap1\n  pop\n  jump\t// out\n    /* \"#utility.yul\":2121:2260   */\ntag_32:\n    /* \"#utility.yul\":2210:2216   */\n  dup3\n    /* \"#utility.yul\":2205:2208   */\n  dup2\n    /* \"#utility.yul\":2200:2203   */\n  dup4\n    /* \"#utility.yul\":2194:2217   */\n  mcopy\n    /* \"#utility.yul\":2251:2252   */\n  0x00\n    /* \"#utility.yul\":2242:2248   */\n  dup4\n    /* \"#utility.yul\":2237:2240   */\n  dup4\n    /* \"#utility.yul\":2233:2249   */\n  add\n    /* \"#utility.yul\":2226:2253   */\n  mstore\n    /* \"#utility.yul\":2121:2260   */\n  pop\n  pop\n  pop\n  jump\t// out\n    /* \"#utility.yul\":2266:2700   */\ntag_33:\n    /* \"#utility.yul\":2355:2360   */\n  0x00\n    /* \"#utility.yul\":2380:2446   */\n  tag_84\n    /* \"#utility.yul\":2396:2445   */\n  tag_85\n    /* \"#utility.yul\":2438:2444   */\n  dup5\n    /* \"#utility.yul\":2396:2445   */\n  tag_31\n  jump\t// in\ntag_85:\n    /* \"#utility.yul\":2380:2446   */\n  tag_30\n  jump\t// in\ntag_84:\n    /* \"#utility.yul\":2371:2446   */\n  swap1\n  pop\n    /* \"#utility.yul\":2469:2475   */\n  dup3\n    /* \"#utility.yul\":2462:2467   */\n  dup2\n    /* \"#utility.yul\":2455:2476   */\n  mstore\n    /* \"#utility.yul\":2507:2511   */\n  0x20\n    /* \"#utility.yul\":2500:2505   */\n  dup2\n    /* \"#utility.yul\":2496:2512   */\n  add\n    /* \"#utility.yul\":2545:2548   */\n  dup5\n    /* \"#utility.yul\":2536:2542   */\n  dup5\n    /* \"#utility.yul\":2531:2534   */\n  dup5\n    /* \"#utility.yul\":2527:2543   */\n  add\n    /* \"#utility.yul\":2524:2549   */\n  gt\n    /* \"#utility.yul\":2521:2633   */\n  iszero\n  tag_86\n  jumpi\n    /* \"#utility.yul\":2552:2631   */\n  tag_87\n  tag_26\n  jump\t// in\ntag_87:\n    /* \"#utility.yul\":2521:2633   */\ntag_86:\n    /* \"#utility.yul\":2642:2694   */\n  tag_88\n    /* \"#utility.yul\":2687:2693   */\n  dup5\n    /* \"#utility.yul\":2682:2685   */\n  dup3\n    /* \"#utility.yul\":2677:2680   */\n  dup6\n    /* \"#utility.yul\":2642:2694   */\n  tag_32\n  jump\t// in\ntag_88:\n    /* \"#utility.yul\":2361:2700   */\n  pop\n    /* \"#utility.yul\":2266:2700   */\n  swap4\n  swap3\n  pop\n  pop\n  pop\n  jump\t// out\n    /* \"#utility.yul\":2720:3075   */\ntag_34:\n    /* \"#utility.yul\":2787:2792   */\n  0x00\n    /* \"#utility.yul\":2836:2839   */\n  dup3\n    /* \"#utility.yul\":2829:2833   */\n  0x1f\n    /* \"#utility.yul\":2821:2827   */\n  dup4\n    /* \"#utility.yul\":2817:2834   */\n  add\n    /* \"#utility.yul\":2813:2840   */\n  slt\n    /* \"#utility.yul\":2803:2925   */\n  tag_90\n  jumpi\n    /* \"#utility.yul\":2844:2923   */\n  tag_91\n  tag_25\n  jump\t// in\ntag_91:\n    /* \"#utility.yul\":2803:2925   */\ntag_90:\n    /* \"#utility.yul\":2954:2960   */\n  dup2\n    /* \"#utility.yul\":2948:2961   */\n  mload\n    /* \"#utility.yul\":2979:3069   */\n  tag_92\n    /* \"#utility.yul\":3065:3068   */\n  dup5\n    /* \"#utility.yul\":3057:3063   */\n  dup3\n    /* \"#utility.yul\":3050:3054   */\n  0x20\n    /* \"#utility.yul\":3042:3048   */\n  dup7\n    /* \"#utility.yul\":3038:3055   */\n  add\n    /* \"#utility.yul\":2979:3069   */\n  tag_33\n  jump\t// in\ntag_92:\n    /* \"#utility.yul\":2970:3069   */\n  swap2\n  pop\n    /* \"#utility.yul\":2793:3075   */\n  pop\n    /* \"#utility.yul\":2720:3075   */\n  swap3\n  swap2\n  pop\n  pop\n  jump\t// out\n    /* \"#utility.yul\":3081:4090   */\ntag_3:\n    /* \"#utility.yul\":3189:3195   */\n  0x00\n    /* \"#utility.yul\":3197:3203   */\n  0x00\n    /* \"#utility.yul\":3205:3211   */\n  0x00\n    /* \"#utility.yul\":3254:3256   */\n  0x60\n    /* \"#utility.yul\":3242:3251   */\n  dup5\n    /* \"#utility.yul\":3233:3240   */\n  dup7\n    /* \"#utility.yul\":3229:3252   */\n  sub\n    /* \"#utility.yul\":3225:3257   */\n  slt\n    /* \"#utility.yul\":3222:3341   */\n  iszero\n  tag_94\n  jumpi\n    /* \"#utility.yul\":3260:3339   */\n  tag_95\n  tag_19\n  jump\t// in\ntag_95:\n    /* \"#utility.yul\":3222:3341   */\ntag_94:\n    /* \"#utility.yul\":3380:3381   */\n  0x00\n    /* \"#utility.yul\":3405:3469   */\n  tag_96\n    /* \"#utility.yul\":3461:3468   */\n  dup7\n    /* \"#utility.yul\":3452:3458   */\n  dup3\n    /* \"#utility.yul\":3441:3450   */\n  dup8\n    /* \"#utility.yul\":3437:3459   */\n  add\n    /* \"#utility.yul\":3405:3469   */\n  tag_24\n  jump\t// in\ntag_96:\n    /* \"#utility.yul\":3395:3469   */\n  swap4\n  pop\n    /* \"#utility.yul\":3351:3479   */\n  pop\n    /* \"#utility.yul\":3539:3541   */\n  0x20\n    /* \"#utility.yul\":3528:3537   */\n  dup5\n    /* \"#utility.yul\":3524:3542   */\n  add\n    /* \"#utility.yul\":3518:3543   */\n  mload\n    /* \"#utility.yul\":3570:3588   */\n  0xffffffffffffffff\n    /* \"#utility.yul\":3562:3568   */\n  dup2\n    /* \"#utility.yul\":3559:3589   */\n  gt\n    /* \"#utility.yul\":3556:3673   */\n  iszero\n  tag_97\n  jumpi\n    /* \"#utility.yul\":3592:3671   */\n  tag_98\n  tag_20\n  jump\t// in\ntag_98:\n    /* \"#utility.yul\":3556:3673   */\ntag_97:\n    /* \"#utility.yul\":3697:3771   */\n  tag_99\n    /* \"#utility.yul\":3763:3770   */\n  dup7\n    /* \"#utility.yul\":3754:3760   */\n  dup3\n    /* \"#utility.yul\":3743:3752   */\n  dup8\n    /* \"#utility.yul\":3739:3761   */\n  add\n    /* \"#utility.yul\":3697:3771   */\n  tag_34\n  jump\t// in\ntag_99:\n    /* \"#utility.yul\":3687:3771   */\n  swap3\n  pop\n    /* \"#utility.yul\":3489:3781   */\n  pop\n    /* \"#utility.yul\":3841:3843   */\n  0x40\n    /* \"#utility.yul\":3830:3839   */\n  dup5\n    /* \"#utility.yul\":3826:3844   */\n  add\n    /* \"#utility.yul\":3820:3845   */\n  mload\n    /* \"#utility.yul\":3872:3890   */\n  0xffffffffffffffff\n    /* \"#utility.yul\":3864:3870   */\n  dup2\n    /* \"#utility.yul\":3861:3891   */\n  gt\n    /* \"#utility.yul\":3858:3975   */\n  iszero\n  tag_100\n  jumpi\n    /* \"#utility.yul\":3894:3973   */\n  tag_101\n  tag_20\n  jump\t// in\ntag_101:\n    /* \"#utility.yul\":3858:3975   */\ntag_100:\n    /* \"#utility.yul\":3999:4073   */\n  tag_102\n    /* \"#utility.yul\":4065:4072   */\n  dup7\n    /* \"#utility.yul\":4056:4062   */\n  dup3\n    /* \"#utility.yul\":4045:4054   */\n  dup8\n    /* \"#utility.yul\":4041:4063   */\n  add\n    /* \"#utility.yul\":3999:4073   */\n  tag_34\n  jump\t// in\ntag_102:\n    /* \"#utility.yul\":3989:4073   */\n  swap2\n  pop\n    /* \"#utility.yul\":3791:4083   */\n  pop\n    /* \"#utility.yul\":3081:4090   */\n  swap3\n  pop\n  swap3\n  pop\n  swap3\n  jump\t// out\n    /* \"#utility.yul\":4096:4214   */\ntag_35:\n    /* \"#utility.yul\":4183:4207   */\n  tag_104\n    /* \"#utility.yul\":4201:4206   */\n  dup2\n    /* \"#utility.yul\":4183:4207   */\n  tag_22\n  jump\t// in\ntag_104:\n    /* \"#utility.yul\":4178:4181   */\n  dup3\n    /* \"#utility.yul\":4171:4208   */\n  mstore\n    /* \"#utility.yul\":4096:4214   */\n  pop\n  pop\n  jump\t// out\n    /* \"#utility.yul\":4220:4442   */\ntag_9:\n    /* \"#utility.yul\":4313:4317   */\n  0x00\n    /* \"#utility.yul\":4351:4353   */\n  0x20\n    /* \"#utility.yul\":4340:4349   */\n  dup3\n    /* \"#utility.yul\":4336:4354   */\n  add\n    /* \"#utility.yul\":4328:4354   */\n  swap1\n  pop\n    /* \"#utility.yul\":4364:4435   */\n  tag_106\n    /* \"#utility.yul\":4432:4433   */\n  0x00\n    /* \"#utility.yul\":4421:4430   */\n  dup4\n    /* \"#utility.yul\":4417:4434   */\n  add\n    /* \"#utility.yul\":4408:4414   */\n  dup5\n    /* \"#utility.yul\":4364:4435   */\n  tag_35\n  jump\t// in\ntag_106:\n    /* \"#utility.yul\":4220:4442   */\n  swap3\n  swap2\n  pop\n  pop\n  jump\t// out\n    /* \"#utility.yul\":4448:4547   */\ntag_36:\n    /* \"#utility.yul\":4500:4506   */\n  0x00\n    /* \"#utility.yul\":4534:4539   */\n  dup2\n    /* \"#utility.yul\":4528:4540   */\n  mload\n    /* \"#utility.yul\":4518:4540   */\n  swap1\n  pop\n    /* \"#utility.yul\":4448:4547   */\n  swap2\n  swap1\n  pop\n  jump\t// out\n    /* \"#utility.yul\":4553:4733   */\ntag_37:\n    /* \"#utility.yul\":4601:4678   */\n  0x4e487b7100000000000000000000000000000000000000000000000000000000\n    /* \"#utility.yul\":4598:4599   */\n  0x00\n    /* \"#utility.yul\":4591:4679   */\n  mstore\n    /* \"#utility.yul\":4698:4702   */\n  0x22\n    /* \"#utility.yul\":4695:4696   */\n  0x04\n    /* \"#utility.yul\":4688:4703   */\n  mstore\n    /* \"#utility.yul\":4722:4726   */\n  0x24\n    /* \"#utility.yul\":4719:4720   */\n  0x00\n    /* \"#utility.yul\":4712:4727   */\n  revert\n    /* \"#utility.yul\":4739:5059   */\ntag_38:\n    /* \"#utility.yul\":4783:4789   */\n  0x00\n    /* \"#utility.yul\":4820:4821   */\n  0x02\n    /* \"#utility.yul\":4814:4818   */\n  dup3\n    /* \"#utility.yul\":4810:4822   */\n  div\n    /* \"#utility.yul\":4800:4822   */\n  swap1\n  pop\n    /* \"#utility.yul\":4867:4868   */\n  0x01\n    /* \"#utility.yul\":4861:4865   */\n  dup3\n    /* \"#utility.yul\":4857:4869   */\n  and\n    /* \"#utility.yul\":4888:4906   */\n  dup1\n    /* \"#utility.yul\":4878:4959   */\n  tag_110\n  jumpi\n    /* \"#utility.yul\":4944:4948   */\n  0x7f\n    /* \"#utility.yul\":4936:4942   */\n  dup3\n    /* \"#utility.yul\":4932:4949   */\n  and\n    /* \"#utility.yul\":4922:4949   */\n  swap2\n  pop\n    /* \"#utility.yul\":4878:4959   */\ntag_110:\n    /* \"#utility.yul\":5006:5008   */\n  0x20\n    /* \"#utility.yul\":4998:5004   */\n  dup3\n    /* \"#utility.yul\":4995:5009   */\n  lt\n    /* \"#utility.yul\":4975:4993   */\n  dup2\n    /* \"#utility.yul\":4972:5010   */\n  sub\n    /* \"#utility.yul\":4969:5053   */\n  tag_111\n  jumpi\n    /* \"#utility.yul\":5025:5043   */\n  tag_112\n  tag_37\n  jump\t// in\ntag_112:\n    /* \"#utility.yul\":4969:5053   */\ntag_111:\n    /* \"#utility.yul\":4790:5059   */\n  pop\n    /* \"#utility.yul\":4739:5059   */\n  swap2\n  swap1\n  pop\n  jump\t// out\n    /* \"#utility.yul\":5065:5206   */\ntag_39:\n    /* \"#utility.yul\":5114:5118   */\n  0x00\n    /* \"#utility.yul\":5137:5140   */\n  dup2\n    /* \"#utility.yul\":5129:5140   */\n  swap1\n  pop\n    /* \"#utility.yul\":5160:5163   */\n  dup2\n    /* \"#utility.yul\":5157:5158   */\n  0x00\n    /* \"#utility.yul\":5150:5164   */\n  mstore\n    /* \"#utility.yul\":5194:5198   */\n  0x20\n    /* \"#utility.yul\":5191:5192   */\n  0x00\n    /* \"#utility.yul\":5181:5199   */\n  keccak256\n    /* \"#utility.yul\":5173:5199   */\n  swap1\n  pop\n    /* \"#utility.yul\":5065:5206   */\n  swap2\n  swap1\n  pop\n  jump\t// out\n    /* \"#utility.yul\":5212:5305   */\ntag_40:\n    /* \"#utility.yul\":5249:5255   */\n  0x00\n    /* \"#utility.yul\":5296:5298   */\n  0x20\n    /* \"#utility.yul\":5291:5293   */\n  0x1f\n    /* \"#utility.yul\":5284:5289   */\n  dup4\n    /* \"#utility.yul\":5280:5294   */\n  add\n    /* \"#utility.yul\":5276:5299   */\n  div\n    /* \"#utility.yul\":5266:5299   */\n  swap1\n  pop\n    /* \"#utility.yul\":5212:5305   */\n  swap2\n  swap1\n  pop\n  jump\t// out\n    /* \"#utility.yul\":5311:5418   */\ntag_41:\n    /* \"#utility.yul\":5355:5363   */\n  0x00\n    /* \"#utility.yul\":5405:5410   */\n  dup3\n    /* \"#utility.yul\":5399:5403   */\n  dup3\n    /* \"#utility.yul\":5395:5411   */\n  shl\n    /* \"#utility.yul\":5374:5411   */\n  swap1\n  pop\n    /* \"#utility.yul\":5311:5418   */\n  swap3\n  swap2\n  pop\n  pop\n  jump\t// out\n    /* \"#utility.yul\":5424:5817   */\ntag_42:\n    /* \"#utility.yul\":5493:5499   */\n  0x00\n    /* \"#utility.yul\":5543:5544   */\n  0x08\n    /* \"#utility.yul\":5531:5541   */\n  dup4\n    /* \"#utility.yul\":5527:5545   */\n  mul\n    /* \"#utility.yul\":5566:5663   */\n  tag_117\n    /* \"#utility.yul\":5596:5662   */\n  0xffffffffffffffffffffffffffffffffffffffffffffffffffffffffffffffff\n    /* \"#utility.yul\":5585:5594   */\n  dup3\n    /* \"#utility.yul\":5566:5663   */\n  tag_41\n  jump\t// in\ntag_117:\n    /* \"#utility.yul\":5684:5723   */\n  tag_118\n    /* \"#utility.yul\":5714:5722   */\n  dup7\n    /* \"#utility.yul\":5703:5712   */\n  dup4\n    /* \"#utility.yul\":5684:5723   */\n  tag_41\n  jump\t// in\ntag_118:\n    /* \"#utility.yul\":5672:5723   */\n  swap6\n  pop\n    /* \"#utility.yul\":5756:5760   */\n  dup1\n    /* \"#utility.yul\":5752:5761   */\n  not\n    /* \"#utility.yul\":5745:5750   */\n  dup5\n    /* \"#utility.yul\":5741:5762   */\n  and\n    /* \"#utility.yul\":5732:5762   */\n  swap4\n  pop\n    /* \"#utility.yul\":5805:5809   */\n  dup1\n    /* \"#utility.yul\":5795:5803   */\n  dup7\n    /* \"#utility.yul\":5791:5810   */\n  and\n    /* \"#utility.yul\":5784:5789   */\n  dup5\n    /* \"#utility.yul\":5781:5811   */\n  or\n    /* \"#utility.yul\":5771:5811   */\n  swap3\n  pop\n    /* \"#utility.yul\":5500:5817   */\n  pop\n  pop\n    /* \"#utility.yul\":5424:5817   */\n  swap4\n  swap3\n  pop\n  pop\n  pop\n  jump\t// out\n    /* \"#utility.yul\":5823:5900   */\ntag_43:\n    /* \"#utility.yul\":5860:5867   */\n  0x00\n    /* \"#utility.yul\":5889:5894   */\n  dup2\n    /* \"#utility.yul\":5878:5894   */\n  swap1\n  pop\n    /* \"#utility.yul\":5823:5900   */\n  swap2\n  swap1\n  pop\n  jump\t// out\n    /* \"#utility.yul\":5906:5966   */\ntag_44:\n    /* \"#utility.yul\":5934:5937   */\n  0x00\n    /* \"#utility.yul\":5955:5960   */\n  dup2\n    /* \"#utility.yul\":5948:5960   */\n  swap1\n  pop\n    /* \"#utility.yul\":5906:5966   */\n  swap2\n  swap1\n  pop\n  jump\t// out\n    /* \"#utility.yul\":5972:6114   */\ntag_45:\n    /* \"#utility.yul\":6022:6031   */\n  0x00\n    /* \"#utility.yul\":6055:6108   */\n  tag_122\n    /* \"#utility.yul\":6073:6107   */\n  tag_123\n    /* \"#utility.yul\":6082:6106   */\n  tag_124\n    /* \"#utility.yul\":6100:6105   */\n  dup5\n    /* \"#utility.yul\":6082:6106   */\n  tag_43\n  jump\t// in\ntag_124:\n    /* \"#utility.yul\":6073:6107   */\n  tag_44\n  jump\t// in\ntag_123:\n    /* \"#utility.yul\":6055:6108   */\n  tag_43\n  jump\t// in\ntag_122:\n    /* \"#utility.yul\":6042:6108   */\n  swap1\n  pop\n    /* \"#utility.yul\":5972:6114   */\n  swap2\n  swap1\n  pop\n  jump\t// out\n    /* \"#utility.yul\":6120:6195   */\ntag_46:\n    /* \"#utility.yul\":6163:6166   */\n  0x00\n    /* \"#utility.yul\":6184:6189   */\n  dup2\n    /* \"#utility.yul\":6177:6189   */\n  swap1\n  pop\n    /* \"#utility.yul\":6120:6195   */\n  swap2\n  swap1\n  pop\n  jump\t// out\n    /* \"#utility.yul\":6201:6470   */\ntag_47:\n    /* \"#utility.yul\":6311:6350   */\n  tag_127\n    /* \"#utility.yul\":6342:6349   */\n  dup4\n    /* \"#utility.yul\":6311:6350   */\n  tag_45\n  jump\t// in\ntag_127:\n    /* \"#utility.yul\":6372:6463   */\n  tag_128\n    /* \"#utility.yul\":6421:6462   */\n  tag_129\n    /* \"#utility.yul\":6445:6461   */\n  dup3\n    /* \"#utility.yul\":6421:6462   */\n  tag_46\n  jump\t// in\ntag_129:\n    /* \"#utility.yul\":6413:6419   */\n  dup5\n    /* \"#utility.yul\":6406:6410   */\n  dup5\n    /* \"#utility.yul\":6400:6411   */\n  sload\n    /* \"#utility.yul\":6372:6463   */\n  tag_42\n  jump\t// in\ntag_128:\n    /* \"#utility.yul\":6366:6370   */\n  dup3\n    /* \"#utility.yul\":6359:6464   */\n  sstore\n    /* \"#utility.yul\":6277:6470   */\n  pop\n    /* \"#utility.yul\":6201:6470   */\n  pop\n  pop\n  pop\n  jump\t// out\n    /* \"#utility.yul\":6476:6549   */\ntag_48:\n    /* \"#utility.yul\":6521:6524   */\n  0x00\n    /* \"#utility.yul\":6542:6543   */\n  0x00\n    /* \"#utility.yul\":6535:6543   */\n  swap1\n  pop\n    /* \"#utility.yul\":6476:6549   */\n  swap1\n  jump\t// out\n    /* \"#utility.yul\":6555:6744   */\ntag_49:\n    /* \"#utility.yul\":6632:6664   */\n  tag_132\n  tag_48\n  jump\t// in\ntag_132:\n    /* \"#utility.yul\":6673:6738   */\n  tag_133\n    /* \"#utility.yul\":6731:6737   */\n  dup2\n    /* \"#utility.yul\":6723:6729   */\n  dup5\n    /* \"#utility.yul\":6717:6721   */\n  dup5\n    /* \"#utility.yul\":6673:6738   */\n  tag_47\n  jump\t// in\ntag_133:\n    /* \"#utility.yul\":6608:6744   */\n  pop\n    /* \"#utility.yul\":6555:6744   */\n  pop\n  pop\n  jump\t// out\n    /* \"#utility.yul\":6750:6936   */\ntag_50:\n    /* \"#utility.yul\":6810:6930   */\ntag_135:\n    /* \"#utility.yul\":6827:6830   */\n  dup2\n    /* \"#utility.yul\":6820:6825   */\n  dup2\n    /* \"#utility.yul\":6817:6831   */\n  lt\n    /* \"#utility.yul\":6810:6930   */\n  iszero\n  tag_137\n  jumpi\n    /* \"#utility.yul\":6881:6920   */\n  tag_138\n    /* \"#utility.yul\":6918:6919   */\n  0x00\n    /* \"#utility.yul\":6911:6916   */\n  dup3\n    /* \"#utility.yul\":6881:6920   */\n  tag_49\n  jump\t// in\ntag_138:\n    /* \"#utility.yul\":6854:6855   */\n  0x01\n    /* \"#utility.yul\":6847:6852   */\n  dup2\n    /* \"#utility.yul\":6843:6856   */\n  add\n    /* \"#utility.yul\":6834:6856   */\n  swap1\n  pop\n    /* \"#utility.yul\":6810:6930   */\n  jump(tag_135)\ntag_137:\n    /* \"#utility.yul\":6750:6936   */\n  pop\n  pop\n  jump\t// out\n    /* \"#utility.yul\":6942:7485   */\ntag_51:\n    /* \"#utility.yul\":7043:7045   */\n  0x1f\n    /* \"#utility.yul\":7038:7041   */\n  dup3\n    /* \"#utility.yul\":7035:7046   */\n  gt\n    /* \"#utility.yul\":7032:7478   */\n  iszero\n  tag_140\n  jumpi\n    /* \"#utility.yul\":7077:7115   */\n  tag_141\n    /* \"#utility.yul\":7109:7114   */\n  dup2\n    /* \"#utility.yul\":7077:7115   */\n  tag_39\n  jump\t// in\ntag_141:\n    /* \"#utility.yul\":7161:7190   */\n  tag_142\n    /* \"#utility.yul\":7179:7189   */\n  dup5\n    /* \"#utility.yul\":7161:7190   */\n  tag_40\n  jump\t// in\ntag_142:\n    /* \"#utility.yul\":7151:7159   */\n  dup2\n    /* \"#utility.yul\":7147:7191   */\n  add\n    /* \"#utility.yul\":7344:7346   */\n  0x20\n    /* \"#utility.yul\":7332:7342   */\n  dup6\n    /* \"#utility.yul\":7329:7347   */\n  lt\n    /* \"#utility.yul\":7326:7375   */\n  iszero\n  tag_143\n  jumpi\n    /* \"#utility.yul\":7365:7373   */\n  dup2\n    /* \"#utility.yul\":7350:7373   */\n  swap1\n  pop\n    /* \"#utility.yul\":7326:7375   */\ntag_143:\n    /* \"#utility.yul\":7388:7468   */\n  tag_144\n    /* \"#utility.yul\":7444:7466   */\n  tag_145\n    /* \"#utility.yul\":7462:7465   */\n  dup6\n    /* \"#utility.yul\":7444:7466   */\n  tag_40\n  jump\t// in\ntag_145:\n    /* \"#utility.yul\":7434:7442   */\n  dup4\n    /* \"#utility.yul\":7430:7467   */\n  add\n    /* \"#utility.yul\":7417:7428   */\n  dup3\n    /* \"#utility.yul\":7388:7468   */\n  tag_50\n  jump\t// in\ntag_144:\n    /* \"#utility.yul\":7047:7478   */\n  pop\n  pop\n    /* \"#utility.yul\":7032:7478   */\ntag_140:\n    /* \"#utility.yul\":6942:7485   */\n  pop\n  pop\n  pop\n  jump\t// out\n    /* \"#utility.yul\":7491:7608   */\ntag_52:\n    /* \"#utility.yul\":7545:7553   */\n  0x00\n    /* \"#utility.yul\":7595:7600   */\n  dup3\n    /* \"#utility.yul\":7589:7593   */\n  dup3\n    /* \"#utility.yul\":7585:7601   */\n  shr\n    /* \"#utility.yul\":7564:7601   */\n  swap1\n  pop\n    /* \"#utility.yul\":7491:7608   */\n  swap3\n  swap2\n  pop\n  pop\n  jump\t// out\n    /* \"#utility.yul\":7614:7783   */\ntag_53:\n    /* \"#utility.yul\":7658:7664   */\n  0x00\n    /* \"#utility.yul\":7691:7742   */\n  tag_148\n    /* \"#utility.yul\":7739:7740   */\n  0x00\n    /* \"#utility.yul\":7735:7741   */\n  not\n    /* \"#utility.yul\":7727:7732   */\n  dup5\n    /* \"#utility.yul\":7724:7725   */\n  0x08\n    /* \"#utility.yul\":7720:7733   */\n  mul\n    /* \"#utility.yul\":7691:7742   */\n  tag_52\n  jump\t// in\ntag_148:\n    /* \"#utility.yul\":7687:7743   */\n  not\n    /* \"#utility.yul\":7772:7776   */\n  dup1\n    /* \"#utility.yul\":7766:7770   */\n  dup4\n    /* \"#utility.yul\":7762:7777   */\n  and\n    /* \"#utility.yul\":7752:7777   */\n  swap2\n  pop\n    /* \"#utility.yul\":7665:7783   */\n  pop\n    /* \"#utility.yul\":7614:7783   */\n  swap3\n  swap2\n  pop\n  pop\n  jump\t// out\n    /* \"#utility.yul\":7788:8083   */\ntag_54:\n    /* \"#utility.yul\":7864:7868   */\n  0x00\n    /* \"#utility.yul\":8010:8039   */\n  tag_150\n    /* \"#utility.yul\":8035:8038   */\n  dup4\n    /* \"#utility.yul\":8029:8033   */\n  dup4\n    /* \"#utility.yul\":8010:8039   */\n  tag_53\n  jump\t// in\ntag_150:\n    /* \"#utility.yul\":8002:8039   */\n  swap2\n  pop\n    /* \"#utility.yul\":8072:8075   */\n  dup3\n    /* \"#utility.yul\":8069:8070   */\n  0x02\n    /* \"#utility.yul\":8065:8076   */\n  mul\n    /* \"#utility.yul\":8059:8063   */\n  dup3\n    /* \"#utility.yul\":8056:8077   */\n  or\n    /* \"#utility.yul\":8048:8077   */\n  swap1\n  pop\n    /* \"#utility.yul\":7788:8083   */\n  swap3\n  swap2\n  pop\n  pop\n  jump\t// out\n    /* \"#utility.yul\":8088:9483   */\ntag_14:\n    /* \"#utility.yul\":8205:8242   */\n  tag_152\n    /* \"#utility.yul\":8238:8241   */\n  dup3\n    /* \"#utility.yul\":8205:8242   */\n  tag_36\n  jump\t// in\ntag_152:\n    /* \"#utility.yul\":8307:8325   */\n  0xffffffffffffffff\n    /* \"#utility.yul\":8299:8305   */\n  dup2\n    /* \"#utility.yul\":8296:8326   */\n  gt\n    /* \"#utility.yul\":8293:8349   */\n  iszero\n  tag_153\n  jumpi\n    /* \"#utility.yul\":8329:8347   */\n  tag_154\n  tag_28\n  jump\t// in\ntag_154:\n    /* \"#utility.yul\":8293:8349   */\ntag_153:\n    /* \"#utility.yul\":8373:8411   */\n  tag_155\n    /* \"#utility.yul\":8405:8409   */\n  dup3\n    /* \"#utility.yul\":8399:8410   */\n  sload\n    /* \"#utility.yul\":8373:8411   */\n  tag_38\n  jump\t// in\ntag_155:\n    /* \"#utility.yul\":8458:8525   */\n  tag_156\n    /* \"#utility.yul\":8518:8524   */\n  dup3\n    /* \"#utility.yul\":8510:8516   */\n  dup3\n    /* \"#utility.yul\":8504:8508   */\n  dup6\n    /* \"#utility.yul\":8458:8525   */\n  tag_51\n  jump\t// in\ntag_156:\n    /* \"#utility.yul\":8552:8553   */\n  0x00\n    /* \"#utility.yul\":8576:8580   */\n  0x20\n    /* \"#utility.yul\":8563:8580   */\n  swap1\n  pop\n    /* \"#utility.yul\":8608:8610   */\n  0x1f\n    /* \"#utility.yul\":8600:8606   */\n  dup4\n    /* \"#utility.yul\":8597:8611   */\n  gt\n    /* \"#utility.yul\":8625:8626   */\n  0x01\n    /* \"#utility.yul\":8620:9238   */\n  dup2\n  eq\n  tag_158\n  jumpi\n    /* \"#utility.yul\":9282:9283   */\n  0x00\n    /* \"#utility.yul\":9299:9305   */\n  dup5\n    /* \"#utility.yul\":9296:9373   */\n  iszero\n  tag_159\n  jumpi\n    /* \"#utility.yul\":9348:9357   */\n  dup3\n    /* \"#utility.yul\":9343:9346   */\n  dup8\n    /* \"#utility.yul\":9339:9358   */\n  add\n    /* \"#utility.yul\":9333:9359   */\n  mload\n    /* \"#utility.yul\":9324:9359   */\n  swap1\n  pop\n    /* \"#utility.yul\":9296:9373   */\ntag_159:\n    /* \"#utility.yul\":9399:9466   */\n  tag_160\n    /* \"#utility.yul\":9459:9465   */\n  dup6\n    /* \"#utility.yul\":9452:9457   */\n  dup3\n    /* \"#utility.yul\":9399:9466   */\n  tag_54\n  jump\t// in\ntag_160:\n    /* \"#utility.yul\":9393:9397   */\n  dup7\n    /* \"#utility.yul\":9386:9467   */\n  sstore\n    /* \"#utility.yul\":9255:9477   */\n  pop\n    /* \"#utility.yul\":8590:9477   */\n  jump(tag_157)\n    /* \"#utility.yul\":8620:9238   */\ntag_158:\n    /* \"#utility.yul\":8672:8676   */\n  0x1f\n    /* \"#utility.yul\":8668:8677   */\n  not\n    /* \"#utility.yul\":8660:8666   */\n  dup5\n    /* \"#utility.yul\":8656:8678   */\n  and\n    /* \"#utility.yul\":8706:8743   */\n  tag_161\n    /* \"#utility.yul\":8738:8742   */\n  dup7\n    /* \"#utility.yul\":8706:8743   */\n  tag_39\n  jump\t// in\ntag_161:\n    /* \"#utility.yul\":8765:8766   */\n  0x00\n    /* \"#utility.yul\":8779:8987   */\ntag_162:\n    /* \"#utility.yul\":8793:8800   */\n  dup3\n    /* \"#utility.yul\":8790:8791   */\n  dup2\n    /* \"#utility.yul\":8787:8801   */\n  lt\n    /* \"#utility.yul\":8779:8987   */\n  iszero\n  tag_164\n  jumpi\n    /* \"#utility.yul\":8872:8881   */\n  dup5\n    /* \"#utility.yul\":8867:8870   */\n  dup10\n    /* \"#utility.yul\":8863:8882   */\n  add\n    /* \"#utility.yul\":8857:8883   */\n  mload\n    /* \"#utility.yul\":8849:8855   */\n  dup3\n    /* \"#utility.yul\":8842:8884   */\n  sstore\n    /* \"#utility.yul\":8923:8924   */\n  0x01\n    /* \"#utility.yul\":8915:8921   */\n  dup3\n    /* \"#utility.yul\":8911:8925   */\n  add\n    /* \"#utility.yul\":8901:8925   */\n  swap2\n  pop\n    /* \"#utility.yul\":8970:8972   */\n  0x20\n    /* \"#utility.yul\":8959:8968   */\n  dup6\n    /* \"#utility.yul\":8955:8973   */\n  add\n    /* \"#utility.yul\":8942:8973   */\n  swap5\n  pop\n    /* \"#utility.yul\":8816:8820   */\n  0x20\n    /* \"#utility.yul\":8813:8814   */\n  dup2\n    /* \"#utility.yul\":8809:8821   */\n  add\n    /* \"#utility.yul\":8804:8821   */\n  swap1\n  pop\n    /* \"#utility.yul\":8779:8987   */\n  jump(tag_162)\ntag_164:\n    /* \"#utility.yul\":9015:9021   */\n  dup7\n    /* \"#utility.yul\":9006:9013   */\n  dup4\n    /* \"#utility.yul\":9003:9022   */\n  lt\n    /* \"#utility.yul\":9000:9179   */\n  iszero\n  tag_165\n  jumpi\n    /* \"#utility.yul\":9073:9082   */\n  dup5\n    /* \"#utility.yul\":9068:9071   */\n  dup10\n    /* \"#utility.yul\":9064:9083   */\n  add\n    /* \"#utility.yul\":9058:9084   */\n  mload\n    /* \"#utility.yul\":9116:9164   */\n  tag_166\n    /* \"#utility.yul\":9158:9162   */\n  0x1f\n    /* \"#utility.yul\":9150:9156   */\n  dup10\n    /* \"#utility.yul\":9146:9163   */\n  and\n    /* \"#utility.yul\":9135:9144   */\n  dup3\n    /* \"#utility.yul\":9116:9164   */\n  tag_53\n  jump\t// in\ntag_166:\n    /* \"#utility.yul\":9108:9114   */\n  dup4\n    /* \"#utility.yul\":9101:9165   */\n  sstore\n    /* \"#utility.yul\":9023:9179   */\n  pop\n    /* \"#utility.yul\":9000:9179   */\ntag_165:\n    /* \"#utility.yul\":9225:9226   */\n  0x01\n    /* \"#utility.yul\":9221:9222   */\n  0x02\n    /* \"#utility.yul\":9213:9219   */\n  dup9\n    /* \"#utility.yul\":9209:9223   */\n  mul\n    /* \"#utility.yul\":9205:9227   */\n  add\n    /* \"#utility.yul\":9199:9203   */\n  dup9\n    /* \"#utility.yul\":9192:9228   */\n  sstore\n    /* \"#utility.yul\":8627:9238   */\n  pop\n  pop\n  pop\n    /* \"#utility.yul\":8590:9477   */\ntag_157:\n  pop\n    /* \"#utility.yul\":8180:9483   */\n  pop\n  pop\n  pop\n    /* \"#utility.yul\":8088:9483   */\n  pop\n  pop\n  jump\t// out\n    /* \"src/PinusTokenCore.sol\":1849:4834  contract PinusTokenCore is ERC20,Ownable {... */\ntag_16:\n  mload(0x80)\n  codecopy(0x00, dataOffset(sub_0), dataSize(sub_0))\n  0x00\n  assignImmutable(\"0x26f35bd790fe311c873adf45be525666a51285a6fd0030cb973705f80b0e4cd9\")\n  return(0x00, dataSize(sub_0))\nstop\n\nsub_0: assembly {\n        /* \"src/PinusTokenCore.sol\":1849:4834  contract PinusTokenCore is ERC20,Ownable {... */\n      mstore(0x40, 0x80)\n      jumpi(tag_1, lt(calldatasize, 0x04))\n      shr(0xe0, calldataload(0x00))\n      dup1\n      0x8da5cb5b\n      gt\n      tag_26\n      jumpi\n      dup1\n      0xd28d8852\n      gt\n      tag_27\n      jumpi\n      dup1\n      0xd28d8852\n      eq\n      tag_20\n      jumpi\n      dup1\n      0xd505accf\n      eq\n      tag_21\n      jumpi\n      dup1\n      0xdd62ed3e\n      eq\n      tag_22\n      jumpi\n      dup1\n      0xef8b30f7\n      eq\n      tag_23\n      jumpi\n      dup1\n      0xf2fde38b\n      eq\n      tag_24\n      jumpi\n      dup1\n      0xf340fa01\n      eq\n      tag_25\n      jumpi\n      jump(tag_1)\n    tag_27:\n      dup1\n      0x8da5cb5b\n      eq\n      tag_14\n      jumpi\n      dup1\n      0x95d89b41\n      eq\n      tag_15\n      jumpi\n      dup1\n      0xa9059cbb\n      eq\n      tag_16\n      jumpi\n      dup1\n      0xac7a1b5b\n      eq\n      tag_17\n      jumpi\n      dup1\n      0xb09f1266\n      eq\n      tag_18\n      jumpi\n      dup1\n      0xba087652\n      eq\n      tag_19\n      jumpi\n      jump(tag_1)\n    tag_26:\n      dup1\n      0x3644e515\n      gt\n      tag_28\n      jumpi\n      dup1\n      0x3644e515\n      eq\n      tag_8\n      jumpi\n      dup1\n      0x4cdad506\n      eq\n      tag_9\n      jumpi\n      dup1\n      0x70a08231\n      eq\n      tag_10\n      jumpi\n      dup1\n      0x715018a6\n      eq\n      tag_11\n      jumpi\n      dup1\n      0x7501f741\n      eq\n      tag_12\n      jumpi\n      dup1\n      0x7ecebe00\n      eq\n      tag_13\n      jumpi\n      jump(tag_1)\n    tag_28:\n      dup1\n      0x06fdde03\n      eq\n      tag_2\n      jumpi\n      dup1\n      0x095ea7b3\n      eq\n      tag_3\n      jumpi\n      dup1\n      0x10ab2d01\n      eq\n      tag_4\n      jumpi\n      dup1\n      0x18160ddd\n      eq\n      tag_5\n      jumpi\n      dup1\n      0x23b872dd\n      eq\n      tag_6\n      jumpi\n      dup1\n      0x313ce567\n      eq\n      tag_7\n      jumpi\n    tag_1:\n      revert(0x00, 0x00)\n        /* \"src/PinusTokenCore.sol\":2685:2776  function name() public view override returns (string memory){... */\n    tag_2:\n      callvalue\n      dup1\n      iszero\n      tag_29\n      jumpi\n      revert(0x00, 0x00)\n    tag_29:\n      pop\n      tag_30\n      tag_31\n      jump\t// in\n    tag_30:\n      mload(0x40)\n      tag_32\n      swap2\n      swap1\n      tag_33\n      jump\t// in\n    tag_32:\n      mload(0x40)\n      dup1\n      swap2\n      sub\n      swap1\n      return\n        /* \"https://github.com/Vectorized/solady/blob/main/src/tokens/ERC20.sol\":8175:9204  function approve(address spender, uint256 amount) public virtual returns (bool) {... */\n    tag_3:\n      callvalue\n      dup1\n      iszero\n      tag_34\n      jumpi\n      revert(0x00, 0x00)\n    tag_34:\n      pop\n      tag_35\n      0x04\n      dup1\n      calldatasize\n      sub\n      dup2\n      add\n      swap1\n      tag_36\n      swap2\n      swap1\n      tag_37\n      jump\t// in\n    tag_36:\n      tag_38\n      jump\t// in\n    tag_35:\n      mload(0x40)\n      tag_39\n      swap2\n      swap1\n      tag_40\n      jump\t// in\n    tag_39:\n      mload(0x40)\n      dup1\n      swap2\n      sub\n      swap1\n      return\n        /* \"src/PinusTokenCore.sol\":2471:2677  function customCall(address to,uint value,bytes calldata data) public onlyOwner returns (bytes memory) {... */\n    tag_4:\n      callvalue\n      dup1\n      iszero\n      tag_41\n      jumpi\n      revert(0x00, 0x00)\n    tag_41:\n      pop\n      tag_42\n      0x04\n      dup1\n      calldatasize\n      sub\n      dup2\n      add\n      swap1\n      tag_43\n      swap2\n      swap1\n      tag_44\n      jump\t// in\n    tag_43:\n      tag_45\n      jump\t// in\n    tag_42:\n      mload(0x40)\n      tag_46\n      swap2\n      swap1\n      tag_47\n      jump\t// in\n    tag_46:\n      mload(0x40)\n      dup1\n      swap2\n      sub\n      swap1\n      return\n        /* \"https://github.com/Vectorized/solady/blob/main/src/tokens/ERC20.sol\":6907:7102  function totalSupply() public view virtual returns (uint256 result) {... */\n    tag_5:\n      callvalue\n      dup1\n      iszero\n      tag_48\n      jumpi\n      revert(0x00, 0x00)\n    tag_48:\n      pop\n      tag_49\n      tag_50\n      jump\t// in\n    tag_49:\n      mload(0x40)\n      tag_51\n      swap2\n      swap1\n      tag_52\n      jump\t// in\n    tag_51:\n      mload(0x40)\n      dup1\n      swap2\n      sub\n      swap1\n      return\n        /* \"https://github.com/Vectorized/solady/blob/main/src/tokens/ERC20.sol\":11165:15918  function transferFrom(address from, address to, uint256 amount) public virtual returns (bool) {... */\n    tag_6:\n      callvalue\n      dup1\n      iszero\n      tag_53\n      jumpi\n      revert(0x00, 0x00)\n    tag_53:\n      pop\n      tag_54\n      0x04\n      dup1\n      calldatasize\n      sub\n      dup2\n      add\n      swap1\n      tag_55\n      swap2\n      swap1\n      tag_56\n      jump\t// in\n    tag_55:\n      tag_57\n      jump\t// in\n    tag_54:\n      mload(0x40)\n      tag_58\n      swap2\n      swap1\n      tag_40\n      jump\t// in\n    tag_58:\n      mload(0x40)\n      dup1\n      swap2\n      sub\n      swap1\n      return\n        /* \"https://github.com/Vectorized/solady/blob/main/src/tokens/ERC20.sol\":6480:6562  function decimals() public view virtual returns (uint8) {... */\n    tag_7:\n      callvalue\n      dup1\n      iszero\n      tag_59\n      jumpi\n      revert(0x00, 0x00)\n    tag_59:\n      pop\n      tag_60\n      tag_61\n      jump\t// in\n    tag_60:\n      mload(0x40)\n      tag_62\n      swap2\n      swap1\n      tag_63\n      jump\t// in\n    tag_62:\n      mload(0x40)\n      dup1\n      swap2\n      sub\n      swap1\n      return\n        /* \"https://github.com/Vectorized/solady/blob/main/src/tokens/ERC20.sol\":21458:22195  function DOMAIN_SEPARATOR() public view virtual returns (bytes32 result) {... */\n    tag_8:\n      callvalue\n      dup1\n      iszero\n      tag_64\n      jumpi\n      revert(0x00, 0x00)\n    tag_64:\n      pop\n      tag_65\n      tag_66\n      jump\t// in\n    tag_65:\n      mload(0x40)\n      tag_67\n      swap2\n      swap1\n      tag_68\n      jump\t// in\n    tag_67:\n      mload(0x40)\n      dup1\n      swap2\n      sub\n      swap1\n      return\n        /* \"src/PinusTokenCore.sol\":3964:4218  function previewRedeem(uint shares) public view returns (uint assets) {... */\n    tag_9:\n      callvalue\n      dup1\n      iszero\n      tag_69\n      jumpi\n      revert(0x00, 0x00)\n    tag_69:\n      pop\n      tag_70\n      0x04\n      dup1\n      calldatasize\n      sub\n      dup2\n      add\n      swap1\n      tag_71\n      swap2\n      swap1\n      tag_72\n      jump\t// in\n    tag_71:\n      tag_73\n      jump\t// in\n    tag_70:\n      mload(0x40)\n      tag_74\n      swap2\n      swap1\n      tag_52\n      jump\t// in\n    tag_74:\n      mload(0x40)\n      dup1\n      swap2\n      sub\n      swap1\n      return\n        /* \"https://github.com/Vectorized/solady/blob/main/src/tokens/ERC20.sol\":7168:7454  function balanceOf(address owner) public view virtual returns (uint256 result) {... */\n    tag_10:\n      callvalue\n      dup1\n      iszero\n      tag_75\n      jumpi\n      revert(0x00, 0x00)\n    tag_75:\n      pop\n      tag_76\n      0x04\n      dup1\n      calldatasize\n      sub\n      dup2\n      add\n      swap1\n      tag_77\n      swap2\n      swap1\n      tag_78\n      jump\t// in\n    tag_77:\n      tag_79\n      jump\t// in\n    tag_76:\n      mload(0x40)\n      tag_80\n      swap2\n      swap1\n      tag_52\n      jump\t// in\n    tag_80:\n      mload(0x40)\n      dup1\n      swap2\n      sub\n      swap1\n      return\n        /* \"@openzeppelin/contracts/access/Ownable.sol\":2293:2394  function renounceOwnership() public virtual onlyOwner {... */\n    tag_11:\n      callvalue\n      dup1\n      iszero\n      tag_81\n      jumpi\n      revert(0x00, 0x00)\n    tag_81:\n      pop\n      tag_82\n      tag_83\n      jump\t// in\n    tag_82:\n      stop\n        /* \"src/PinusTokenCore.sol\":2995:3120  function maxMint() public view returns (uint) {... */\n    tag_12:\n      callvalue\n      dup1\n      iszero\n      tag_84\n      jumpi\n      revert(0x00, 0x00)\n    tag_84:\n      pop\n      tag_85\n      tag_86\n      jump\t// in\n    tag_85:\n      mload(0x40)\n      tag_87\n      swap2\n      swap1\n      tag_52\n      jump\t// in\n    tag_87:\n      mload(0x40)\n      dup1\n      swap2\n      sub\n      swap1\n      return\n        /* \"https://github.com/Vectorized/solady/blob/main/src/tokens/ERC20.sol\":17137:17477  function nonces(address owner) public view virtual returns (uint256 result) {... */\n    tag_13:\n      callvalue\n      dup1\n      iszero\n      tag_88\n      jumpi\n      revert(0x00, 0x00)\n    tag_88:\n      pop\n      tag_89\n      0x04\n      dup1\n      calldatasize\n      sub\n      dup2\n      add\n      swap1\n      tag_90\n      swap2\n      swap1\n      tag_78\n      jump\t// in\n    tag_90:\n      tag_91\n      jump\t// in\n    tag_89:\n      mload(0x40)\n      tag_92\n      swap2\n      swap1\n      tag_52\n      jump\t// in\n    tag_92:\n      mload(0x40)\n      dup1\n      swap2\n      sub\n      swap1\n      return\n        /* \"@openzeppelin/contracts/access/Ownable.sol\":1638:1723  function owner() public view virtual returns (address) {... */\n    tag_14:\n      callvalue\n      dup1\n      iszero\n      tag_93\n      jumpi\n      revert(0x00, 0x00)\n    tag_93:\n      pop\n      tag_94\n      tag_95\n      jump\t// in\n    tag_94:\n      mload(0x40)\n      tag_96\n      swap2\n      swap1\n      tag_97\n      jump\t// in\n    tag_96:\n      mload(0x40)\n      dup1\n      swap2\n      sub\n      swap1\n      return\n        /* \"src/PinusTokenCore.sol\":2788:2883  function symbol() public view override returns (string memory){... */\n    tag_15:\n      callvalue\n      dup1\n      iszero\n      tag_98\n      jumpi\n      revert(0x00, 0x00)\n    tag_98:\n      pop\n      tag_99\n      tag_100\n      jump\t// in\n    tag_99:\n      mload(0x40)\n      tag_101\n      swap2\n      swap1\n      tag_33\n      jump\t// in\n    tag_101:\n      mload(0x40)\n      dup1\n      swap2\n      sub\n      swap1\n      return\n        /* \"https://github.com/Vectorized/solady/blob/main/src/tokens/ERC20.sol\":9391:10797  function transfer(address to, uint256 amount) public virtual returns (bool) {... */\n    tag_16:\n      callvalue\n      dup1\n      iszero\n      tag_102\n      jumpi\n      revert(0x00, 0x00)\n    tag_102:\n      pop\n      tag_103\n      0x04\n      dup1\n      calldatasize\n      sub\n      dup2\n      add\n      swap1\n      tag_104\n      swap2\n      swap1\n      tag_37\n      jump\t// in\n    tag_104:\n      tag_105\n      jump\t// in\n    tag_103:\n      mload(0x40)\n      tag_106\n      swap2\n      swap1\n      tag_40\n      jump\t// in\n    tag_106:\n      mload(0x40)\n      dup1\n      swap2\n      sub\n      swap1\n      return\n        /* \"src/PinusTokenCore.sol\":3820:3956  function maxWithdraw() public view returns (uint) {... */\n    tag_17:\n      callvalue\n      dup1\n      iszero\n      tag_107\n      jumpi\n      revert(0x00, 0x00)\n    tag_107:\n      pop\n      tag_108\n      tag_109\n      jump\t// in\n    tag_108:\n      mload(0x40)\n      tag_110\n      swap2\n      swap1\n      tag_52\n      jump\t// in\n    tag_110:\n      mload(0x40)\n      dup1\n      swap2\n      sub\n      swap1\n      return\n        /* \"src/PinusTokenCore.sol\":1923:1944  string public _symbol */\n    tag_18:\n      callvalue\n      dup1\n      iszero\n      tag_111\n      jumpi\n      revert(0x00, 0x00)\n    tag_111:\n      pop\n      tag_112\n      tag_113\n      jump\t// in\n    tag_112:\n      mload(0x40)\n      tag_114\n      swap2\n      swap1\n      tag_33\n      jump\t// in\n    tag_114:\n      mload(0x40)\n      dup1\n      swap2\n      sub\n      swap1\n      return\n        /* \"src/PinusTokenCore.sol\":4226:4829  function redeem(uint shares, address receiver,address owner) public returns (uint assets) {... */\n    tag_19:\n      callvalue\n      dup1\n      iszero\n      tag_115\n      jumpi\n      revert(0x00, 0x00)\n    tag_115:\n      pop\n      tag_116\n      0x04\n      dup1\n      calldatasize\n      sub\n      dup2\n      add\n      swap1\n      tag_117\n      swap2\n      swap1\n      tag_118\n      jump\t// in\n    tag_117:\n      tag_119\n      jump\t// in\n    tag_116:\n      mload(0x40)\n      tag_120\n      swap2\n      swap1\n      tag_52\n      jump\t// in\n    tag_120:\n      mload(0x40)\n      dup1\n      swap2\n      sub\n      swap1\n      return\n        /* \"src/PinusTokenCore.sol\":1897:1916  string public _name */\n    tag_20:\n      callvalue\n      dup1\n      iszero\n      tag_121\n      jumpi\n      revert(0x00, 0x00)\n    tag_121:\n      pop\n      tag_122\n      tag_123\n      jump\t// in\n    tag_122:\n      mload(0x40)\n      tag_124\n      swap2\n      swap1\n      tag_33\n      jump\t// in\n    tag_124:\n      mload(0x40)\n      dup1\n      swap2\n      sub\n      swap1\n      return\n        /* \"https://github.com/Vectorized/solady/blob/main/src/tokens/ERC20.sol\":17661:21377  function permit(... */\n    tag_21:\n      callvalue\n      dup1\n      iszero\n      tag_125\n      jumpi\n      revert(0x00, 0x00)\n    tag_125:\n      pop\n      tag_126\n      0x04\n      dup1\n      calldatasize\n      sub\n      dup2\n      add\n      swap1\n      tag_127\n      swap2\n      swap1\n      tag_128\n      jump\t// in\n    tag_127:\n      tag_129\n      jump\t// in\n    tag_126:\n      stop\n        /* \"https://github.com/Vectorized/solady/blob/main/src/tokens/ERC20.sol\":7549:8044  function allowance(address owner, address spender)... */\n    tag_22:\n      callvalue\n      dup1\n      iszero\n      tag_130\n      jumpi\n      revert(0x00, 0x00)\n    tag_130:\n      pop\n      tag_131\n      0x04\n      dup1\n      calldatasize\n      sub\n      dup2\n      add\n      swap1\n      tag_132\n      swap2\n      swap1\n      tag_133\n      jump\t// in\n    tag_132:\n      tag_134\n      jump\t// in\n    tag_131:\n      mload(0x40)\n      tag_135\n      swap2\n      swap1\n      tag_52\n      jump\t// in\n    tag_135:\n      mload(0x40)\n      dup1\n      swap2\n      sub\n      swap1\n      return\n        /* \"src/PinusTokenCore.sol\":3270:3401  function previewDeposit(uint assets) public view returns (uint) {... */\n    tag_23:\n      callvalue\n      dup1\n      iszero\n      tag_136\n      jumpi\n      revert(0x00, 0x00)\n    tag_136:\n      pop\n      tag_137\n      0x04\n      dup1\n      calldatasize\n      sub\n      dup2\n      add\n      swap1\n      tag_138\n      swap2\n      swap1\n      tag_72\n      jump\t// in\n    tag_138:\n      tag_139\n      jump\t// in\n    tag_137:\n      mload(0x40)\n      tag_140\n      swap2\n      swap1\n      tag_52\n      jump\t// in\n    tag_140:\n      mload(0x40)\n      dup1\n      swap2\n      sub\n      swap1\n      return\n        /* \"@openzeppelin/contracts/access/Ownable.sol\":2543:2758  function transferOwnership(address newOwner) public virtual onlyOwner {... */\n    tag_24:\n      callvalue\n      dup1\n      iszero\n      tag_141\n      jumpi\n      revert(0x00, 0x00)\n    tag_141:\n      pop\n      tag_142\n      0x04\n      dup1\n      calldatasize\n      sub\n      dup2\n      add\n      swap1\n      tag_143\n      swap2\n      swap1\n      tag_78\n      jump\t// in\n    tag_143:\n      tag_144\n      jump\t// in\n    tag_142:\n      stop\n        /* \"src/PinusTokenCore.sol\":3409:3738  function deposit(address receiver) payable public returns (uint shares) {... */\n    tag_25:\n      tag_145\n      0x04\n      dup1\n      calldatasize\n      sub\n      dup2\n      add\n      swap1\n      tag_146\n      swap2\n      swap1\n      tag_78\n      jump\t// in\n    tag_146:\n      tag_147\n      jump\t// in\n    tag_145:\n      mload(0x40)\n      tag_148\n      swap2\n      swap1\n      tag_52\n      jump\t// in\n    tag_148:\n      mload(0x40)\n      dup1\n      swap2\n      sub\n      swap1\n      return\n        /* \"src/PinusTokenCore.sol\":2685:2776  function name() public view override returns (string memory){... */\n    tag_31:\n        /* \"src/PinusTokenCore.sol\":2731:2744  string memory */\n      0x60\n        /* \"src/PinusTokenCore.sol\":2763:2768  _name */\n      0x01\n        /* \"src/PinusTokenCore.sol\":2756:2768  return _name */\n      dup1\n      sload\n      tag_150\n      swap1\n      tag_151\n      jump\t// in\n    tag_150:\n      dup1\n      0x1f\n      add\n      0x20\n      dup1\n      swap2\n      div\n      mul\n      0x20\n      add\n      mload(0x40)\n      swap1\n      dup2\n      add\n      0x40\n      mstore\n      dup1\n      swap3\n      swap2\n      swap1\n      dup2\n      dup2\n      mstore\n      0x20\n      add\n      dup3\n      dup1\n      sload\n      tag_152\n      swap1\n      tag_151\n      jump\t// in\n    tag_152:\n      dup1\n      iszero\n      tag_153\n      jumpi\n      dup1\n      0x1f\n      lt\n      tag_154\n      jumpi\n      0x0100\n      dup1\n      dup4\n      sload\n      div\n      mul\n      dup4\n      mstore\n      swap2\n      0x20\n      add\n      swap2\n      jump(tag_153)\n    tag_154:\n      dup3\n      add\n      swap2\n      swap1\n      0x00\n      mstore\n      keccak256(0x00, 0x20)\n      swap1\n    tag_155:\n      dup2\n      sload\n      dup2\n      mstore\n      swap1\n      0x01\n      add\n      swap1\n      0x20\n      add\n      dup1\n      dup4\n      gt\n      tag_155\n      jumpi\n      dup3\n      swap1\n      sub\n      0x1f\n      and\n      dup3\n      add\n      swap2\n    tag_153:\n      pop\n      pop\n      pop\n      pop\n      pop\n      swap1\n      pop\n        /* \"src/PinusTokenCore.sol\":2685:2776  function name() public view override returns (string memory){... */\n      swap1\n      jump\t// out\n        /* \"https://github.com/Vectorized/solady/blob/main/src/tokens/ERC20.sol\":8175:9204  function approve(address spender, uint256 amount) public virtual returns (bool) {... */\n    tag_38:\n        /* \"https://github.com/Vectorized/solady/blob/main/src/tokens/ERC20.sol\":8249:8253  bool */\n      0x00\n        /* \"https://github.com/Vectorized/solady/blob/main/src/tokens/ERC20.sol\":8269:8300  _givePermit2InfiniteAllowance() */\n      tag_157\n        /* \"https://github.com/Vectorized/solady/blob/main/src/tokens/ERC20.sol\":8269:8298  _givePermit2InfiniteAllowance */\n      tag_158\n        /* \"https://github.com/Vectorized/solady/blob/main/src/tokens/ERC20.sol\":8269:8300  _givePermit2InfiniteAllowance() */\n      jump\t// in\n    tag_157:\n        /* \"https://github.com/Vectorized/solady/blob/main/src/tokens/ERC20.sol\":8265:8712  if (_givePermit2InfiniteAllowance()) {... */\n      iszero\n      tag_159\n      jumpi\n        /* \"https://github.com/Vectorized/solady/blob/main/src/tokens/ERC20.sol\":8532:8538  amount */\n      dup2\n        /* \"https://github.com/Vectorized/solady/blob/main/src/tokens/ERC20.sol\":8528:8539  not(amount) */\n      not\n        /* \"https://github.com/Vectorized/solady/blob/main/src/tokens/ERC20.sol\":8521:8540  iszero(not(amount)) */\n      iszero\n        /* \"https://github.com/Vectorized/solady/blob/main/src/tokens/ERC20.sol\":8510:8518  _PERMIT2 */\n      0x22d473030f116ddee9f6b43ac78ba3\n        /* \"https://github.com/Vectorized/solady/blob/main/src/tokens/ERC20.sol\":8499:8506  spender */\n      dup5\n        /* \"https://github.com/Vectorized/solady/blob/main/src/tokens/ERC20.sol\":8495:8497  96 */\n      0x60\n        /* \"https://github.com/Vectorized/solady/blob/main/src/tokens/ERC20.sol\":8491:8507  shl(96, spender) */\n      shl\n        /* \"https://github.com/Vectorized/solady/blob/main/src/tokens/ERC20.sol\":8487:8489  96 */\n      0x60\n        /* \"https://github.com/Vectorized/solady/blob/main/src/tokens/ERC20.sol\":8483:8508  shr(96, shl(96, spender)) */\n      shr\n        /* \"https://github.com/Vectorized/solady/blob/main/src/tokens/ERC20.sol\":8479:8519  xor(shr(96, shl(96, spender)), _PERMIT2) */\n      xor\n        /* \"https://github.com/Vectorized/solady/blob/main/src/tokens/ERC20.sol\":8476:8541  or(xor(shr(96, shl(96, spender)), _PERMIT2), iszero(not(amount))) */\n      or\n        /* \"https://github.com/Vectorized/solady/blob/main/src/tokens/ERC20.sol\":8466:8688  if iszero(or(xor(shr(96, shl(96, spender)), _PERMIT2), iszero(not(amount)))) {... */\n      tag_160\n      jumpi\n        /* \"https://github.com/Vectorized/solady/blob/main/src/tokens/ERC20.sol\":8578:8588  0x3f68539a */\n      0x3f68539a\n        /* \"https://github.com/Vectorized/solady/blob/main/src/tokens/ERC20.sol\":8572:8576  0x00 */\n      0x00\n        /* \"https://github.com/Vectorized/solady/blob/main/src/tokens/ERC20.sol\":8565:8589  mstore(0x00, 0x3f68539a) */\n      mstore\n        /* \"https://github.com/Vectorized/solady/blob/main/src/tokens/ERC20.sol\":8665:8669  0x04 */\n      0x04\n        /* \"https://github.com/Vectorized/solady/blob/main/src/tokens/ERC20.sol\":8659:8663  0x1c */\n      0x1c\n        /* \"https://github.com/Vectorized/solady/blob/main/src/tokens/ERC20.sol\":8652:8670  revert(0x1c, 0x04) */\n      revert\n        /* \"https://github.com/Vectorized/solady/blob/main/src/tokens/ERC20.sol\":8466:8688  if iszero(or(xor(shr(96, shl(96, spender)), _PERMIT2), iszero(not(amount)))) {... */\n    tag_160:\n        /* \"https://github.com/Vectorized/solady/blob/main/src/tokens/ERC20.sol\":8265:8712  if (_givePermit2InfiniteAllowance()) {... */\n    tag_159:\n        /* \"https://github.com/Vectorized/solady/blob/main/src/tokens/ERC20.sol\":8864:8871  spender */\n      dup3\n        /* \"https://github.com/Vectorized/solady/blob/main/src/tokens/ERC20.sol\":8858:8862  0x20 */\n      0x20\n        /* \"https://github.com/Vectorized/solady/blob/main/src/tokens/ERC20.sol\":8851:8872  mstore(0x20, spender) */\n      mstore\n        /* \"https://github.com/Vectorized/solady/blob/main/src/tokens/ERC20.sol\":8898:8918  _ALLOWANCE_SLOT_SEED */\n      0x7f5e9f20\n        /* \"https://github.com/Vectorized/solady/blob/main/src/tokens/ERC20.sol\":8892:8896  0x0c */\n      0x0c\n        /* \"https://github.com/Vectorized/solady/blob/main/src/tokens/ERC20.sol\":8885:8919  mstore(0x0c, _ALLOWANCE_SLOT_SEED) */\n      mstore\n        /* \"https://github.com/Vectorized/solady/blob/main/src/tokens/ERC20.sol\":8945:8953  caller() */\n      caller\n        /* \"https://github.com/Vectorized/solady/blob/main/src/tokens/ERC20.sol\":8939:8943  0x00 */\n      0x00\n        /* \"https://github.com/Vectorized/solady/blob/main/src/tokens/ERC20.sol\":8932:8954  mstore(0x00, caller()) */\n      mstore\n        /* \"https://github.com/Vectorized/solady/blob/main/src/tokens/ERC20.sol\":8997:9003  amount */\n      dup2\n        /* \"https://github.com/Vectorized/solady/blob/main/src/tokens/ERC20.sol\":8990:8994  0x34 */\n      0x34\n        /* \"https://github.com/Vectorized/solady/blob/main/src/tokens/ERC20.sol\":8984:8988  0x0c */\n      0x0c\n        /* \"https://github.com/Vectorized/solady/blob/main/src/tokens/ERC20.sol\":8974:8995  keccak256(0x0c, 0x34) */\n      keccak256\n        /* \"https://github.com/Vectorized/solady/blob/main/src/tokens/ERC20.sol\":8967:9004  sstore(keccak256(0x0c, 0x34), amount) */\n      sstore\n        /* \"https://github.com/Vectorized/solady/blob/main/src/tokens/ERC20.sol\":9072:9078  amount */\n      dup2\n        /* \"https://github.com/Vectorized/solady/blob/main/src/tokens/ERC20.sol\":9066:9070  0x00 */\n      0x00\n        /* \"https://github.com/Vectorized/solady/blob/main/src/tokens/ERC20.sol\":9059:9079  mstore(0x00, amount) */\n      mstore\n        /* \"https://github.com/Vectorized/solady/blob/main/src/tokens/ERC20.sol\":9160:9164  0x2c */\n      0x2c\n        /* \"https://github.com/Vectorized/solady/blob/main/src/tokens/ERC20.sol\":9154:9165  mload(0x2c) */\n      mload\n        /* \"https://github.com/Vectorized/solady/blob/main/src/tokens/ERC20.sol\":9150:9152  96 */\n      0x60\n        /* \"https://github.com/Vectorized/solady/blob/main/src/tokens/ERC20.sol\":9146:9166  shr(96, mload(0x2c)) */\n      shr\n        /* \"https://github.com/Vectorized/solady/blob/main/src/tokens/ERC20.sol\":9136:9144  caller() */\n      caller\n        /* \"https://github.com/Vectorized/solady/blob/main/src/tokens/ERC20.sol\":9109:9134  _APPROVAL_EVENT_SIGNATURE */\n      0x8c5be1e5ebec7d5bd14f71427d1e84f3dd0314c0f7b2291e5b200ac8c7c3b925\n        /* \"https://github.com/Vectorized/solady/blob/main/src/tokens/ERC20.sol\":9103:9107  0x20 */\n      0x20\n        /* \"https://github.com/Vectorized/solady/blob/main/src/tokens/ERC20.sol\":9097:9101  0x00 */\n      0x00\n        /* \"https://github.com/Vectorized/solady/blob/main/src/tokens/ERC20.sol\":9092:9167  log3(0x00, 0x20, _APPROVAL_EVENT_SIGNATURE, caller(), shr(96, mload(0x2c))) */\n      log3\n        /* \"https://github.com/Vectorized/solady/blob/main/src/tokens/ERC20.sol\":9193:9197  true */\n      0x01\n        /* \"https://github.com/Vectorized/solady/blob/main/src/tokens/ERC20.sol\":9186:9197  return true */\n      swap1\n      pop\n        /* \"https://github.com/Vectorized/solady/blob/main/src/tokens/ERC20.sol\":8175:9204  function approve(address spender, uint256 amount) public virtual returns (bool) {... */\n      swap3\n      swap2\n      pop\n      pop\n      jump\t// out\n        /* \"src/PinusTokenCore.sol\":2471:2677  function customCall(address to,uint value,bytes calldata data) public onlyOwner returns (bytes memory) {... */\n    tag_45:\n        /* \"src/PinusTokenCore.sol\":2560:2572  bytes memory */\n      0x60\n        /* \"@openzeppelin/contracts/access/Ownable.sol\":1531:1544  _checkOwner() */\n      tag_162\n        /* \"@openzeppelin/contracts/access/Ownable.sol\":1531:1542  _checkOwner */\n      tag_163\n        /* \"@openzeppelin/contracts/access/Ownable.sol\":1531:1544  _checkOwner() */\n      jump\t// in\n    tag_162:\n        /* \"src/PinusTokenCore.sol\":2588:2611  bytes memory returnData */\n      0x00\n        /* \"src/PinusTokenCore.sol\":2615:2617  to */\n      dup6\n        /* \"src/PinusTokenCore.sol\":2615:2622  to.call */\n      0xffffffffffffffffffffffffffffffffffffffff\n      and\n        /* \"src/PinusTokenCore.sol\":2629:2634  value */\n      dup6\n        /* \"src/PinusTokenCore.sol\":2636:2640  data */\n      dup6\n      dup6\n        /* \"src/PinusTokenCore.sol\":2615:2641  to.call{value:value}(data) */\n      mload(0x40)\n      tag_165\n      swap3\n      swap2\n      swap1\n      tag_166\n      jump\t// in\n    tag_165:\n      0x00\n      mload(0x40)\n      dup1\n      dup4\n      sub\n      dup2\n      dup6\n      dup8\n      gas\n      call\n      swap3\n      pop\n      pop\n      pop\n      returndatasize\n      dup1\n      0x00\n      dup2\n      eq\n      tag_169\n      jumpi\n      mload(0x40)\n      swap2\n      pop\n      and(add(returndatasize, 0x3f), not(0x1f))\n      dup3\n      add\n      0x40\n      mstore\n      returndatasize\n      dup3\n      mstore\n      returndatasize\n      0x00\n      0x20\n      dup5\n      add\n      returndatacopy\n      jump(tag_168)\n    tag_169:\n      0x60\n      swap2\n      pop\n    tag_168:\n      pop\n        /* \"src/PinusTokenCore.sol\":2585:2641  (, bytes memory returnData) = to.call{value:value}(data) */\n      swap2\n      pop\n      pop\n        /* \"src/PinusTokenCore.sol\":2659:2669  returnData */\n      dup1\n        /* \"src/PinusTokenCore.sol\":2652:2669  return returnData */\n      swap2\n      pop\n      pop\n        /* \"src/PinusTokenCore.sol\":2471:2677  function customCall(address to,uint value,bytes calldata data) public onlyOwner returns (bytes memory) {... */\n      swap5\n      swap4\n      pop\n      pop\n      pop\n      pop\n      jump\t// out\n        /* \"https://github.com/Vectorized/solady/blob/main/src/tokens/ERC20.sol\":6907:7102  function totalSupply() public view virtual returns (uint256 result) {... */\n    tag_50:\n        /* \"https://github.com/Vectorized/solady/blob/main/src/tokens/ERC20.sol\":6959:6973  uint256 result */\n      0x00\n        /* \"https://github.com/Vectorized/solady/blob/main/src/tokens/ERC20.sol\":7067:7085  _TOTAL_SUPPLY_SLOT */\n      0x05345cdf77eb68f44c\n        /* \"https://github.com/Vectorized/solady/blob/main/src/tokens/ERC20.sol\":7061:7086  sload(_TOTAL_SUPPLY_SLOT) */\n      sload\n        /* \"https://github.com/Vectorized/solady/blob/main/src/tokens/ERC20.sol\":7051:7086  result := sload(_TOTAL_SUPPLY_SLOT) */\n      swap1\n      pop\n        /* \"https://github.com/Vectorized/solady/blob/main/src/tokens/ERC20.sol\":6907:7102  function totalSupply() public view virtual returns (uint256 result) {... */\n      swap1\n      jump\t// out\n        /* \"https://github.com/Vectorized/solady/blob/main/src/tokens/ERC20.sol\":11165:15918  function transferFrom(address from, address to, uint256 amount) public virtual returns (bool) {... */\n    tag_57:\n        /* \"https://github.com/Vectorized/solady/blob/main/src/tokens/ERC20.sol\":11253:11257  bool */\n      0x00\n        /* \"https://github.com/Vectorized/solady/blob/main/src/tokens/ERC20.sol\":11269:11307  _beforeTokenTransfer(from, to, amount) */\n      tag_172\n        /* \"https://github.com/Vectorized/solady/blob/main/src/tokens/ERC20.sol\":11290:11294  from */\n      dup5\n        /* \"https://github.com/Vectorized/solady/blob/main/src/tokens/ERC20.sol\":11296:11298  to */\n      dup5\n        /* \"https://github.com/Vectorized/solady/blob/main/src/tokens/ERC20.sol\":11300:11306  amount */\n      dup5\n        /* \"https://github.com/Vectorized/solady/blob/main/src/tokens/ERC20.sol\":11269:11289  _beforeTokenTransfer */\n      tag_173\n        /* \"https://github.com/Vectorized/solady/blob/main/src/tokens/ERC20.sol\":11269:11307  _beforeTokenTransfer(from, to, amount) */\n      jump\t// in\n    tag_172:\n        /* \"https://github.com/Vectorized/solady/blob/main/src/tokens/ERC20.sol\":11391:11422  _givePermit2InfiniteAllowance() */\n      tag_174\n        /* \"https://github.com/Vectorized/solady/blob/main/src/tokens/ERC20.sol\":11391:11420  _givePermit2InfiniteAllowance */\n      tag_158\n        /* \"https://github.com/Vectorized/solady/blob/main/src/tokens/ERC20.sol\":11391:11422  _givePermit2InfiniteAllowance() */\n      jump\t// in\n    tag_174:\n        /* \"https://github.com/Vectorized/solady/blob/main/src/tokens/ERC20.sol\":11387:15844  if (_givePermit2InfiniteAllowance()) {... */\n      iszero\n      tag_175\n      jumpi\n        /* \"https://github.com/Vectorized/solady/blob/main/src/tokens/ERC20.sol\":11533:11537  from */\n      dup4\n        /* \"https://github.com/Vectorized/solady/blob/main/src/tokens/ERC20.sol\":11529:11531  96 */\n      0x60\n        /* \"https://github.com/Vectorized/solady/blob/main/src/tokens/ERC20.sol\":11525:11538  shl(96, from) */\n      shl\n        /* \"https://github.com/Vectorized/solady/blob/main/src/tokens/ERC20.sol\":11578:11586  _PERMIT2 */\n      0x22d473030f116ddee9f6b43ac78ba3\n        /* \"https://github.com/Vectorized/solady/blob/main/src/tokens/ERC20.sol\":11568:11576  caller() */\n      caller\n        /* \"https://github.com/Vectorized/solady/blob/main/src/tokens/ERC20.sol\":11565:11587  eq(caller(), _PERMIT2) */\n      eq\n        /* \"https://github.com/Vectorized/solady/blob/main/src/tokens/ERC20.sol\":11555:12483  if iszero(eq(caller(), _PERMIT2)) {... */\n      tag_176\n      jumpi\n        /* \"https://github.com/Vectorized/solady/blob/main/src/tokens/ERC20.sol\":11694:11702  caller() */\n      caller\n        /* \"https://github.com/Vectorized/solady/blob/main/src/tokens/ERC20.sol\":11688:11692  0x20 */\n      0x20\n        /* \"https://github.com/Vectorized/solady/blob/main/src/tokens/ERC20.sol\":11681:11703  mstore(0x20, caller()) */\n      mstore\n        /* \"https://github.com/Vectorized/solady/blob/main/src/tokens/ERC20.sol\":11747:11767  _ALLOWANCE_SLOT_SEED */\n      0x7f5e9f20\n        /* \"https://github.com/Vectorized/solady/blob/main/src/tokens/ERC20.sol\":11740:11745  from_ */\n      dup2\n        /* \"https://github.com/Vectorized/solady/blob/main/src/tokens/ERC20.sol\":11737:11768  or(from_, _ALLOWANCE_SLOT_SEED) */\n      or\n        /* \"https://github.com/Vectorized/solady/blob/main/src/tokens/ERC20.sol\":11731:11735  0x0c */\n      0x0c\n        /* \"https://github.com/Vectorized/solady/blob/main/src/tokens/ERC20.sol\":11724:11769  mstore(0x0c, or(from_, _ALLOWANCE_SLOT_SEED)) */\n      mstore\n        /* \"https://github.com/Vectorized/solady/blob/main/src/tokens/ERC20.sol\":11827:11831  0x34 */\n      0x34\n        /* \"https://github.com/Vectorized/solady/blob/main/src/tokens/ERC20.sol\":11821:11825  0x0c */\n      0x0c\n        /* \"https://github.com/Vectorized/solady/blob/main/src/tokens/ERC20.sol\":11811:11832  keccak256(0x0c, 0x34) */\n      keccak256\n        /* \"https://github.com/Vectorized/solady/blob/main/src/tokens/ERC20.sol\":11877:11890  allowanceSlot */\n      dup1\n        /* \"https://github.com/Vectorized/solady/blob/main/src/tokens/ERC20.sol\":11871:11891  sload(allowanceSlot) */\n      sload\n        /* \"https://github.com/Vectorized/solady/blob/main/src/tokens/ERC20.sol\":11993:12003  allowance_ */\n      dup1\n        /* \"https://github.com/Vectorized/solady/blob/main/src/tokens/ERC20.sol\":11989:12004  not(allowance_) */\n      not\n        /* \"https://github.com/Vectorized/solady/blob/main/src/tokens/ERC20.sol\":11986:12465  if not(allowance_) {... */\n      iszero\n      tag_177\n      jumpi\n        /* \"https://github.com/Vectorized/solady/blob/main/src/tokens/ERC20.sol\":12134:12144  allowance_ */\n      dup1\n        /* \"https://github.com/Vectorized/solady/blob/main/src/tokens/ERC20.sol\":12126:12132  amount */\n      dup6\n        /* \"https://github.com/Vectorized/solady/blob/main/src/tokens/ERC20.sol\":12123:12145  gt(amount, allowance_) */\n      gt\n        /* \"https://github.com/Vectorized/solady/blob/main/src/tokens/ERC20.sol\":12120:12303  if gt(amount, allowance_) {... */\n      iszero\n      tag_178\n      jumpi\n        /* \"https://github.com/Vectorized/solady/blob/main/src/tokens/ERC20.sol\":12189:12199  0x13be252b */\n      0x13be252b\n        /* \"https://github.com/Vectorized/solady/blob/main/src/tokens/ERC20.sol\":12183:12187  0x00 */\n      0x00\n        /* \"https://github.com/Vectorized/solady/blob/main/src/tokens/ERC20.sol\":12176:12200  mstore(0x00, 0x13be252b) */\n      mstore\n        /* \"https://github.com/Vectorized/solady/blob/main/src/tokens/ERC20.sol\":12272:12276  0x04 */\n      0x04\n        /* \"https://github.com/Vectorized/solady/blob/main/src/tokens/ERC20.sol\":12266:12270  0x1c */\n      0x1c\n        /* \"https://github.com/Vectorized/solady/blob/main/src/tokens/ERC20.sol\":12259:12277  revert(0x1c, 0x04) */\n      revert\n        /* \"https://github.com/Vectorized/solady/blob/main/src/tokens/ERC20.sol\":12120:12303  if gt(amount, allowance_) {... */\n    tag_178:\n        /* \"https://github.com/Vectorized/solady/blob/main/src/tokens/ERC20.sol\":12435:12441  amount */\n      dup5\n        /* \"https://github.com/Vectorized/solady/blob/main/src/tokens/ERC20.sol\":12423:12433  allowance_ */\n      dup2\n        /* \"https://github.com/Vectorized/solady/blob/main/src/tokens/ERC20.sol\":12419:12442  sub(allowance_, amount) */\n      sub\n        /* \"https://github.com/Vectorized/solady/blob/main/src/tokens/ERC20.sol\":12404:12417  allowanceSlot */\n      dup3\n        /* \"https://github.com/Vectorized/solady/blob/main/src/tokens/ERC20.sol\":12397:12443  sstore(allowanceSlot, sub(allowance_, amount)) */\n      sstore\n        /* \"https://github.com/Vectorized/solady/blob/main/src/tokens/ERC20.sol\":11986:12465  if not(allowance_) {... */\n    tag_177:\n        /* \"https://github.com/Vectorized/solady/blob/main/src/tokens/ERC20.sol\":11589:12483  {... */\n      pop\n      pop\n        /* \"https://github.com/Vectorized/solady/blob/main/src/tokens/ERC20.sol\":11555:12483  if iszero(eq(caller(), _PERMIT2)) {... */\n    tag_176:\n        /* \"https://github.com/Vectorized/solady/blob/main/src/tokens/ERC20.sol\":12587:12605  _BALANCE_SLOT_SEED */\n      0x87a211a2\n        /* \"https://github.com/Vectorized/solady/blob/main/src/tokens/ERC20.sol\":12580:12585  from_ */\n      dup2\n        /* \"https://github.com/Vectorized/solady/blob/main/src/tokens/ERC20.sol\":12577:12606  or(from_, _BALANCE_SLOT_SEED) */\n      or\n        /* \"https://github.com/Vectorized/solady/blob/main/src/tokens/ERC20.sol\":12571:12575  0x0c */\n      0x0c\n        /* \"https://github.com/Vectorized/solady/blob/main/src/tokens/ERC20.sol\":12564:12607  mstore(0x0c, or(from_, _BALANCE_SLOT_SEED)) */\n      mstore\n        /* \"https://github.com/Vectorized/solady/blob/main/src/tokens/ERC20.sol\":12663:12667  0x20 */\n      0x20\n        /* \"https://github.com/Vectorized/solady/blob/main/src/tokens/ERC20.sol\":12657:12661  0x0c */\n      0x0c\n        /* \"https://github.com/Vectorized/solady/blob/main/src/tokens/ERC20.sol\":12647:12668  keccak256(0x0c, 0x20) */\n      keccak256\n        /* \"https://github.com/Vectorized/solady/blob/main/src/tokens/ERC20.sol\":12710:12725  fromBalanceSlot */\n      dup1\n        /* \"https://github.com/Vectorized/solady/blob/main/src/tokens/ERC20.sol\":12704:12726  sload(fromBalanceSlot) */\n      sload\n        /* \"https://github.com/Vectorized/solady/blob/main/src/tokens/ERC20.sol\":12808:12819  fromBalance */\n      dup1\n        /* \"https://github.com/Vectorized/solady/blob/main/src/tokens/ERC20.sol\":12800:12806  amount */\n      dup6\n        /* \"https://github.com/Vectorized/solady/blob/main/src/tokens/ERC20.sol\":12797:12820  gt(amount, fromBalance) */\n      gt\n        /* \"https://github.com/Vectorized/solady/blob/main/src/tokens/ERC20.sol\":12794:12952  if gt(amount, fromBalance) {... */\n      iszero\n      tag_179\n      jumpi\n        /* \"https://github.com/Vectorized/solady/blob/main/src/tokens/ERC20.sol\":12856:12866  0xf4d678b8 */\n      0xf4d678b8\n        /* \"https://github.com/Vectorized/solady/blob/main/src/tokens/ERC20.sol\":12850:12854  0x00 */\n      0x00\n        /* \"https://github.com/Vectorized/solady/blob/main/src/tokens/ERC20.sol\":12843:12867  mstore(0x00, 0xf4d678b8) */\n      mstore\n        /* \"https://github.com/Vectorized/solady/blob/main/src/tokens/ERC20.sol\":12929:12933  0x04 */\n      0x04\n        /* \"https://github.com/Vectorized/solady/blob/main/src/tokens/ERC20.sol\":12923:12927  0x1c */\n      0x1c\n        /* \"https://github.com/Vectorized/solady/blob/main/src/tokens/ERC20.sol\":12916:12934  revert(0x1c, 0x04) */\n      revert\n        /* \"https://github.com/Vectorized/solady/blob/main/src/tokens/ERC20.sol\":12794:12952  if gt(amount, fromBalance) {... */\n    tag_179:\n        /* \"https://github.com/Vectorized/solady/blob/main/src/tokens/ERC20.sol\":13069:13075  amount */\n      dup5\n        /* \"https://github.com/Vectorized/solady/blob/main/src/tokens/ERC20.sol\":13056:13067  fromBalance */\n      dup2\n        /* \"https://github.com/Vectorized/solady/blob/main/src/tokens/ERC20.sol\":13052:13076  sub(fromBalance, amount) */\n      sub\n        /* \"https://github.com/Vectorized/solady/blob/main/src/tokens/ERC20.sol\":13035:13050  fromBalanceSlot */\n      dup3\n        /* \"https://github.com/Vectorized/solady/blob/main/src/tokens/ERC20.sol\":13028:13077  sstore(fromBalanceSlot, sub(fromBalance, amount)) */\n      sstore\n        /* \"https://github.com/Vectorized/solady/blob/main/src/tokens/ERC20.sol\":13160:13162  to */\n      dup6\n        /* \"https://github.com/Vectorized/solady/blob/main/src/tokens/ERC20.sol\":13154:13158  0x00 */\n      0x00\n        /* \"https://github.com/Vectorized/solady/blob/main/src/tokens/ERC20.sol\":13147:13163  mstore(0x00, to) */\n      mstore\n        /* \"https://github.com/Vectorized/solady/blob/main/src/tokens/ERC20.sol\":13217:13221  0x20 */\n      0x20\n        /* \"https://github.com/Vectorized/solady/blob/main/src/tokens/ERC20.sol\":13211:13215  0x0c */\n      0x0c\n        /* \"https://github.com/Vectorized/solady/blob/main/src/tokens/ERC20.sol\":13201:13222  keccak256(0x0c, 0x20) */\n      keccak256\n        /* \"https://github.com/Vectorized/solady/blob/main/src/tokens/ERC20.sol\":13483:13489  amount */\n      dup6\n        /* \"https://github.com/Vectorized/solady/blob/main/src/tokens/ERC20.sol\":13467:13480  toBalanceSlot */\n      dup2\n        /* \"https://github.com/Vectorized/solady/blob/main/src/tokens/ERC20.sol\":13461:13481  sload(toBalanceSlot) */\n      sload\n        /* \"https://github.com/Vectorized/solady/blob/main/src/tokens/ERC20.sol\":13457:13490  add(sload(toBalanceSlot), amount) */\n      add\n        /* \"https://github.com/Vectorized/solady/blob/main/src/tokens/ERC20.sol\":13442:13455  toBalanceSlot */\n      dup2\n        /* \"https://github.com/Vectorized/solady/blob/main/src/tokens/ERC20.sol\":13435:13491  sstore(toBalanceSlot, add(sload(toBalanceSlot), amount)) */\n      sstore\n        /* \"https://github.com/Vectorized/solady/blob/main/src/tokens/ERC20.sol\":13567:13573  amount */\n      dup6\n        /* \"https://github.com/Vectorized/solady/blob/main/src/tokens/ERC20.sol\":13561:13565  0x20 */\n      0x20\n        /* \"https://github.com/Vectorized/solady/blob/main/src/tokens/ERC20.sol\":13554:13574  mstore(0x20, amount) */\n      mstore\n        /* \"https://github.com/Vectorized/solady/blob/main/src/tokens/ERC20.sol\":13665:13669  0x0c */\n      0x0c\n        /* \"https://github.com/Vectorized/solady/blob/main/src/tokens/ERC20.sol\":13659:13670  mload(0x0c) */\n      mload\n        /* \"https://github.com/Vectorized/solady/blob/main/src/tokens/ERC20.sol\":13655:13657  96 */\n      0x60\n        /* \"https://github.com/Vectorized/solady/blob/main/src/tokens/ERC20.sol\":13651:13671  shr(96, mload(0x0c)) */\n      shr\n        /* \"https://github.com/Vectorized/solady/blob/main/src/tokens/ERC20.sol\":13643:13648  from_ */\n      dup5\n        /* \"https://github.com/Vectorized/solady/blob/main/src/tokens/ERC20.sol\":13639:13641  96 */\n      0x60\n        /* \"https://github.com/Vectorized/solady/blob/main/src/tokens/ERC20.sol\":13635:13649  shr(96, from_) */\n      shr\n        /* \"https://github.com/Vectorized/solady/blob/main/src/tokens/ERC20.sol\":13608:13633  _TRANSFER_EVENT_SIGNATURE */\n      0xddf252ad1be2c89b69c2b068fc378daa952ba7f163c4a11628f55a4df523b3ef\n        /* \"https://github.com/Vectorized/solady/blob/main/src/tokens/ERC20.sol\":13602:13606  0x20 */\n      0x20\n        /* \"https://github.com/Vectorized/solady/blob/main/src/tokens/ERC20.sol\":13596:13600  0x20 */\n      dup1\n        /* \"https://github.com/Vectorized/solady/blob/main/src/tokens/ERC20.sol\":13591:13672  log3(0x20, 0x20, _TRANSFER_EVENT_SIGNATURE, shr(96, from_), shr(96, mload(0x0c))) */\n      log3\n        /* \"https://github.com/Vectorized/solady/blob/main/src/tokens/ERC20.sol\":11494:13686  {... */\n      pop\n      pop\n      pop\n      pop\n        /* \"https://github.com/Vectorized/solady/blob/main/src/tokens/ERC20.sol\":11387:15844  if (_givePermit2InfiniteAllowance()) {... */\n      jump(tag_180)\n    tag_175:\n        /* \"https://github.com/Vectorized/solady/blob/main/src/tokens/ERC20.sol\":13811:13815  from */\n      dup4\n        /* \"https://github.com/Vectorized/solady/blob/main/src/tokens/ERC20.sol\":13807:13809  96 */\n      0x60\n        /* \"https://github.com/Vectorized/solady/blob/main/src/tokens/ERC20.sol\":13803:13816  shl(96, from) */\n      shl\n        /* \"https://github.com/Vectorized/solady/blob/main/src/tokens/ERC20.sol\":13912:13920  caller() */\n      caller\n        /* \"https://github.com/Vectorized/solady/blob/main/src/tokens/ERC20.sol\":13906:13910  0x20 */\n      0x20\n        /* \"https://github.com/Vectorized/solady/blob/main/src/tokens/ERC20.sol\":13899:13921  mstore(0x20, caller()) */\n      mstore\n        /* \"https://github.com/Vectorized/solady/blob/main/src/tokens/ERC20.sol\":13961:13981  _ALLOWANCE_SLOT_SEED */\n      0x7f5e9f20\n        /* \"https://github.com/Vectorized/solady/blob/main/src/tokens/ERC20.sol\":13954:13959  from_ */\n      dup2\n        /* \"https://github.com/Vectorized/solady/blob/main/src/tokens/ERC20.sol\":13951:13982  or(from_, _ALLOWANCE_SLOT_SEED) */\n      or\n        /* \"https://github.com/Vectorized/solady/blob/main/src/tokens/ERC20.sol\":13945:13949  0x0c */\n      0x0c\n        /* \"https://github.com/Vectorized/solady/blob/main/src/tokens/ERC20.sol\":13938:13983  mstore(0x0c, or(from_, _ALLOWANCE_SLOT_SEED)) */\n      mstore\n        /* \"https://github.com/Vectorized/solady/blob/main/src/tokens/ERC20.sol\":14037:14041  0x34 */\n      0x34\n        /* \"https://github.com/Vectorized/solady/blob/main/src/tokens/ERC20.sol\":14031:14035  0x0c */\n      0x0c\n        /* \"https://github.com/Vectorized/solady/blob/main/src/tokens/ERC20.sol\":14021:14042  keccak256(0x0c, 0x34) */\n      keccak256\n        /* \"https://github.com/Vectorized/solady/blob/main/src/tokens/ERC20.sol\":14083:14096  allowanceSlot */\n      dup1\n        /* \"https://github.com/Vectorized/solady/blob/main/src/tokens/ERC20.sol\":14077:14097  sload(allowanceSlot) */\n      sload\n        /* \"https://github.com/Vectorized/solady/blob/main/src/tokens/ERC20.sol\":14191:14201  allowance_ */\n      dup1\n        /* \"https://github.com/Vectorized/solady/blob/main/src/tokens/ERC20.sol\":14187:14202  not(allowance_) */\n      not\n        /* \"https://github.com/Vectorized/solady/blob/main/src/tokens/ERC20.sol\":14184:14631  if not(allowance_) {... */\n      iszero\n      tag_181\n      jumpi\n        /* \"https://github.com/Vectorized/solady/blob/main/src/tokens/ERC20.sol\":14324:14334  allowance_ */\n      dup1\n        /* \"https://github.com/Vectorized/solady/blob/main/src/tokens/ERC20.sol\":14316:14322  amount */\n      dup6\n        /* \"https://github.com/Vectorized/solady/blob/main/src/tokens/ERC20.sol\":14313:14335  gt(amount, allowance_) */\n      gt\n        /* \"https://github.com/Vectorized/solady/blob/main/src/tokens/ERC20.sol\":14310:14481  if gt(amount, allowance_) {... */\n      iszero\n      tag_182\n      jumpi\n        /* \"https://github.com/Vectorized/solady/blob/main/src/tokens/ERC20.sol\":14375:14385  0x13be252b */\n      0x13be252b\n        /* \"https://github.com/Vectorized/solady/blob/main/src/tokens/ERC20.sol\":14369:14373  0x00 */\n      0x00\n        /* \"https://github.com/Vectorized/solady/blob/main/src/tokens/ERC20.sol\":14362:14386  mstore(0x00, 0x13be252b) */\n      mstore\n        /* \"https://github.com/Vectorized/solady/blob/main/src/tokens/ERC20.sol\":14454:14458  0x04 */\n      0x04\n        /* \"https://github.com/Vectorized/solady/blob/main/src/tokens/ERC20.sol\":14448:14452  0x1c */\n      0x1c\n        /* \"https://github.com/Vectorized/solady/blob/main/src/tokens/ERC20.sol\":14441:14459  revert(0x1c, 0x04) */\n      revert\n        /* \"https://github.com/Vectorized/solady/blob/main/src/tokens/ERC20.sol\":14310:14481  if gt(amount, allowance_) {... */\n    tag_182:\n        /* \"https://github.com/Vectorized/solady/blob/main/src/tokens/ERC20.sol\":14605:14611  amount */\n      dup5\n        /* \"https://github.com/Vectorized/solady/blob/main/src/tokens/ERC20.sol\":14593:14603  allowance_ */\n      dup2\n        /* \"https://github.com/Vectorized/solady/blob/main/src/tokens/ERC20.sol\":14589:14612  sub(allowance_, amount) */\n      sub\n        /* \"https://github.com/Vectorized/solady/blob/main/src/tokens/ERC20.sol\":14574:14587  allowanceSlot */\n      dup3\n        /* \"https://github.com/Vectorized/solady/blob/main/src/tokens/ERC20.sol\":14567:14613  sstore(allowanceSlot, sub(allowance_, amount)) */\n      sstore\n        /* \"https://github.com/Vectorized/solady/blob/main/src/tokens/ERC20.sol\":14184:14631  if not(allowance_) {... */\n    tag_181:\n        /* \"https://github.com/Vectorized/solady/blob/main/src/tokens/ERC20.sol\":14735:14753  _BALANCE_SLOT_SEED */\n      0x87a211a2\n        /* \"https://github.com/Vectorized/solady/blob/main/src/tokens/ERC20.sol\":14728:14733  from_ */\n      dup4\n        /* \"https://github.com/Vectorized/solady/blob/main/src/tokens/ERC20.sol\":14725:14754  or(from_, _BALANCE_SLOT_SEED) */\n      or\n        /* \"https://github.com/Vectorized/solady/blob/main/src/tokens/ERC20.sol\":14719:14723  0x0c */\n      0x0c\n        /* \"https://github.com/Vectorized/solady/blob/main/src/tokens/ERC20.sol\":14712:14755  mstore(0x0c, or(from_, _BALANCE_SLOT_SEED)) */\n      mstore\n        /* \"https://github.com/Vectorized/solady/blob/main/src/tokens/ERC20.sol\":14811:14815  0x20 */\n      0x20\n        /* \"https://github.com/Vectorized/solady/blob/main/src/tokens/ERC20.sol\":14805:14809  0x0c */\n      0x0c\n        /* \"https://github.com/Vectorized/solady/blob/main/src/tokens/ERC20.sol\":14795:14816  keccak256(0x0c, 0x20) */\n      keccak256\n        /* \"https://github.com/Vectorized/solady/blob/main/src/tokens/ERC20.sol\":14858:14873  fromBalanceSlot */\n      dup1\n        /* \"https://github.com/Vectorized/solady/blob/main/src/tokens/ERC20.sol\":14852:14874  sload(fromBalanceSlot) */\n      sload\n        /* \"https://github.com/Vectorized/solady/blob/main/src/tokens/ERC20.sol\":14956:14967  fromBalance */\n      dup1\n        /* \"https://github.com/Vectorized/solady/blob/main/src/tokens/ERC20.sol\":14948:14954  amount */\n      dup8\n        /* \"https://github.com/Vectorized/solady/blob/main/src/tokens/ERC20.sol\":14945:14968  gt(amount, fromBalance) */\n      gt\n        /* \"https://github.com/Vectorized/solady/blob/main/src/tokens/ERC20.sol\":14942:15100  if gt(amount, fromBalance) {... */\n      iszero\n      tag_183\n      jumpi\n        /* \"https://github.com/Vectorized/solady/blob/main/src/tokens/ERC20.sol\":15004:15014  0xf4d678b8 */\n      0xf4d678b8\n        /* \"https://github.com/Vectorized/solady/blob/main/src/tokens/ERC20.sol\":14998:15002  0x00 */\n      0x00\n        /* \"https://github.com/Vectorized/solady/blob/main/src/tokens/ERC20.sol\":14991:15015  mstore(0x00, 0xf4d678b8) */\n      mstore\n        /* \"https://github.com/Vectorized/solady/blob/main/src/tokens/ERC20.sol\":15077:15081  0x04 */\n      0x04\n        /* \"https://github.com/Vectorized/solady/blob/main/src/tokens/ERC20.sol\":15071:15075  0x1c */\n      0x1c\n        /* \"https://github.com/Vectorized/solady/blob/main/src/tokens/ERC20.sol\":15064:15082  revert(0x1c, 0x04) */\n      revert\n        /* \"https://github.com/Vectorized/solady/blob/main/src/tokens/ERC20.sol\":14942:15100  if gt(amount, fromBalance) {... */\n    tag_183:\n        /* \"https://github.com/Vectorized/solady/blob/main/src/tokens/ERC20.sol\":15217:15223  amount */\n      dup7\n        /* \"https://github.com/Vectorized/solady/blob/main/src/tokens/ERC20.sol\":15204:15215  fromBalance */\n      dup2\n        /* \"https://github.com/Vectorized/solady/blob/main/src/tokens/ERC20.sol\":15200:15224  sub(fromBalance, amount) */\n      sub\n        /* \"https://github.com/Vectorized/solady/blob/main/src/tokens/ERC20.sol\":15183:15198  fromBalanceSlot */\n      dup3\n        /* \"https://github.com/Vectorized/solady/blob/main/src/tokens/ERC20.sol\":15176:15225  sstore(fromBalanceSlot, sub(fromBalance, amount)) */\n      sstore\n        /* \"https://github.com/Vectorized/solady/blob/main/src/tokens/ERC20.sol\":15308:15310  to */\n      dup8\n        /* \"https://github.com/Vectorized/solady/blob/main/src/tokens/ERC20.sol\":15302:15306  0x00 */\n      0x00\n        /* \"https://github.com/Vectorized/solady/blob/main/src/tokens/ERC20.sol\":15295:15311  mstore(0x00, to) */\n      mstore\n        /* \"https://github.com/Vectorized/solady/blob/main/src/tokens/ERC20.sol\":15365:15369  0x20 */\n      0x20\n        /* \"https://github.com/Vectorized/solady/blob/main/src/tokens/ERC20.sol\":15359:15363  0x0c */\n      0x0c\n        /* \"https://github.com/Vectorized/solady/blob/main/src/tokens/ERC20.sol\":15349:15370  keccak256(0x0c, 0x20) */\n      keccak256\n        /* \"https://github.com/Vectorized/solady/blob/main/src/tokens/ERC20.sol\":15631:15637  amount */\n      dup8\n        /* \"https://github.com/Vectorized/solady/blob/main/src/tokens/ERC20.sol\":15615:15628  toBalanceSlot */\n      dup2\n        /* \"https://github.com/Vectorized/solady/blob/main/src/tokens/ERC20.sol\":15609:15629  sload(toBalanceSlot) */\n      sload\n        /* \"https://github.com/Vectorized/solady/blob/main/src/tokens/ERC20.sol\":15605:15638  add(sload(toBalanceSlot), amount) */\n      add\n        /* \"https://github.com/Vectorized/solady/blob/main/src/tokens/ERC20.sol\":15590:15603  toBalanceSlot */\n      dup2\n        /* \"https://github.com/Vectorized/solady/blob/main/src/tokens/ERC20.sol\":15583:15639  sstore(toBalanceSlot, add(sload(toBalanceSlot), amount)) */\n      sstore\n        /* \"https://github.com/Vectorized/solady/blob/main/src/tokens/ERC20.sol\":15715:15721  amount */\n      dup8\n        /* \"https://github.com/Vectorized/solady/blob/main/src/tokens/ERC20.sol\":15709:15713  0x20 */\n      0x20\n        /* \"https://github.com/Vectorized/solady/blob/main/src/tokens/ERC20.sol\":15702:15722  mstore(0x20, amount) */\n      mstore\n        /* \"https://github.com/Vectorized/solady/blob/main/src/tokens/ERC20.sol\":15813:15817  0x0c */\n      0x0c\n        /* \"https://github.com/Vectorized/solady/blob/main/src/tokens/ERC20.sol\":15807:15818  mload(0x0c) */\n      mload\n        /* \"https://github.com/Vectorized/solady/blob/main/src/tokens/ERC20.sol\":15803:15805  96 */\n      0x60\n        /* \"https://github.com/Vectorized/solady/blob/main/src/tokens/ERC20.sol\":15799:15819  shr(96, mload(0x0c)) */\n      shr\n        /* \"https://github.com/Vectorized/solady/blob/main/src/tokens/ERC20.sol\":15791:15796  from_ */\n      dup7\n        /* \"https://github.com/Vectorized/solady/blob/main/src/tokens/ERC20.sol\":15787:15789  96 */\n      0x60\n        /* \"https://github.com/Vectorized/solady/blob/main/src/tokens/ERC20.sol\":15783:15797  shr(96, from_) */\n      shr\n        /* \"https://github.com/Vectorized/solady/blob/main/src/tokens/ERC20.sol\":15756:15781  _TRANSFER_EVENT_SIGNATURE */\n      0xddf252ad1be2c89b69c2b068fc378daa952ba7f163c4a11628f55a4df523b3ef\n        /* \"https://github.com/Vectorized/solady/blob/main/src/tokens/ERC20.sol\":15750:15754  0x20 */\n      0x20\n        /* \"https://github.com/Vectorized/solady/blob/main/src/tokens/ERC20.sol\":15744:15748  0x20 */\n      dup1\n        /* \"https://github.com/Vectorized/solady/blob/main/src/tokens/ERC20.sol\":15739:15820  log3(0x20, 0x20, _TRANSFER_EVENT_SIGNATURE, shr(96, from_), shr(96, mload(0x0c))) */\n      log3\n        /* \"https://github.com/Vectorized/solady/blob/main/src/tokens/ERC20.sol\":13772:15834  {... */\n      pop\n      pop\n      pop\n      pop\n      pop\n      pop\n        /* \"https://github.com/Vectorized/solady/blob/main/src/tokens/ERC20.sol\":11387:15844  if (_givePermit2InfiniteAllowance()) {... */\n    tag_180:\n        /* \"https://github.com/Vectorized/solady/blob/main/src/tokens/ERC20.sol\":15853:15890  _afterTokenTransfer(from, to, amount) */\n      tag_184\n        /* \"https://github.com/Vectorized/solady/blob/main/src/tokens/ERC20.sol\":15873:15877  from */\n      dup5\n        /* \"https://github.com/Vectorized/solady/blob/main/src/tokens/ERC20.sol\":15879:15881  to */\n      dup5\n        /* \"https://github.com/Vectorized/solady/blob/main/src/tokens/ERC20.sol\":15883:15889  amount */\n      dup5\n        /* \"https://github.com/Vectorized/solady/blob/main/src/tokens/ERC20.sol\":15853:15872  _afterTokenTransfer */\n      tag_185\n        /* \"https://github.com/Vectorized/solady/blob/main/src/tokens/ERC20.sol\":15853:15890  _afterTokenTransfer(from, to, amount) */\n      jump\t// in\n    tag_184:\n        /* \"https://github.com/Vectorized/solady/blob/main/src/tokens/ERC20.sol\":15907:15911  true */\n      0x01\n        /* \"https://github.com/Vectorized/solady/blob/main/src/tokens/ERC20.sol\":15900:15911  return true */\n      swap1\n      pop\n        /* \"https://github.com/Vectorized/solady/blob/main/src/tokens/ERC20.sol\":11165:15918  function transferFrom(address from, address to, uint256 amount) public virtual returns (bool) {... */\n      swap4\n      swap3\n      pop\n      pop\n      pop\n      jump\t// out\n        /* \"https://github.com/Vectorized/solady/blob/main/src/tokens/ERC20.sol\":6480:6562  function decimals() public view virtual returns (uint8) {... */\n    tag_61:\n        /* \"https://github.com/Vectorized/solady/blob/main/src/tokens/ERC20.sol\":6529:6534  uint8 */\n      0x00\n        /* \"https://github.com/Vectorized/solady/blob/main/src/tokens/ERC20.sol\":6553:6555  18 */\n      0x12\n        /* \"https://github.com/Vectorized/solady/blob/main/src/tokens/ERC20.sol\":6546:6555  return 18 */\n      swap1\n      pop\n        /* \"https://github.com/Vectorized/solady/blob/main/src/tokens/ERC20.sol\":6480:6562  function decimals() public view virtual returns (uint8) {... */\n      swap1\n      jump\t// out\n        /* \"https://github.com/Vectorized/solady/blob/main/src/tokens/ERC20.sol\":21458:22195  function DOMAIN_SEPARATOR() public view virtual returns (bytes32 result) {... */\n    tag_66:\n        /* \"https://github.com/Vectorized/solady/blob/main/src/tokens/ERC20.sol\":21515:21529  bytes32 result */\n      0x00\n        /* \"https://github.com/Vectorized/solady/blob/main/src/tokens/ERC20.sol\":21541:21557  bytes32 nameHash */\n      0x00\n        /* \"https://github.com/Vectorized/solady/blob/main/src/tokens/ERC20.sol\":21560:21579  _constantNameHash() */\n      tag_188\n        /* \"https://github.com/Vectorized/solady/blob/main/src/tokens/ERC20.sol\":21560:21577  _constantNameHash */\n      tag_189\n        /* \"https://github.com/Vectorized/solady/blob/main/src/tokens/ERC20.sol\":21560:21579  _constantNameHash() */\n      jump\t// in\n    tag_188:\n        /* \"https://github.com/Vectorized/solady/blob/main/src/tokens/ERC20.sol\":21541:21579  bytes32 nameHash = _constantNameHash() */\n      swap1\n      pop\n        /* \"https://github.com/Vectorized/solady/blob/main/src/tokens/ERC20.sol\":21707:21708  0 */\n      0x00\n        /* \"https://github.com/Vectorized/solady/blob/main/src/tokens/ERC20.sol\":21699:21709  bytes32(0) */\n      0x00\n      shl\n        /* \"https://github.com/Vectorized/solady/blob/main/src/tokens/ERC20.sol\":21687:21695  nameHash */\n      dup2\n        /* \"https://github.com/Vectorized/solady/blob/main/src/tokens/ERC20.sol\":21687:21709  nameHash == bytes32(0) */\n      sub\n        /* \"https://github.com/Vectorized/solady/blob/main/src/tokens/ERC20.sol\":21683:21746  if (nameHash == bytes32(0)) nameHash = keccak256(bytes(name())) */\n      tag_190\n      jumpi\n        /* \"https://github.com/Vectorized/solady/blob/main/src/tokens/ERC20.sol\":21738:21744  name() */\n      tag_191\n        /* \"https://github.com/Vectorized/solady/blob/main/src/tokens/ERC20.sol\":21738:21742  name */\n      tag_31\n        /* \"https://github.com/Vectorized/solady/blob/main/src/tokens/ERC20.sol\":21738:21744  name() */\n      jump\t// in\n    tag_191:\n        /* \"https://github.com/Vectorized/solady/blob/main/src/tokens/ERC20.sol\":21722:21746  keccak256(bytes(name())) */\n      dup1\n      mload\n      swap1\n      0x20\n      add\n      keccak256\n        /* \"https://github.com/Vectorized/solady/blob/main/src/tokens/ERC20.sol\":21711:21746  nameHash = keccak256(bytes(name())) */\n      swap1\n      pop\n        /* \"https://github.com/Vectorized/solady/blob/main/src/tokens/ERC20.sol\":21683:21746  if (nameHash == bytes32(0)) nameHash = keccak256(bytes(name())) */\n    tag_190:\n        /* \"https://github.com/Vectorized/solady/blob/main/src/tokens/ERC20.sol\":21756:21775  bytes32 versionHash */\n      0x00\n        /* \"https://github.com/Vectorized/solady/blob/main/src/tokens/ERC20.sol\":21778:21792  _versionHash() */\n      tag_192\n        /* \"https://github.com/Vectorized/solady/blob/main/src/tokens/ERC20.sol\":21778:21790  _versionHash */\n      tag_193\n        /* \"https://github.com/Vectorized/solady/blob/main/src/tokens/ERC20.sol\":21778:21792  _versionHash() */\n      jump\t// in\n    tag_192:\n        /* \"https://github.com/Vectorized/solady/blob/main/src/tokens/ERC20.sol\":21756:21792  bytes32 versionHash = _versionHash() */\n      swap1\n      pop\n        /* \"https://github.com/Vectorized/solady/blob/main/src/tokens/ERC20.sol\":21883:21887  0x40 */\n      0x40\n        /* \"https://github.com/Vectorized/solady/blob/main/src/tokens/ERC20.sol\":21877:21888  mload(0x40) */\n      mload\n        /* \"https://github.com/Vectorized/solady/blob/main/src/tokens/ERC20.sol\":21944:21960  _DOMAIN_TYPEHASH */\n      0x8b73c3c69bb8fe3d512ecc4cf759cc79239f7b179b0ffacaa9a75d522b39400f\n        /* \"https://github.com/Vectorized/solady/blob/main/src/tokens/ERC20.sol\":21941:21942  m */\n      dup2\n        /* \"https://github.com/Vectorized/solady/blob/main/src/tokens/ERC20.sol\":21934:21961  mstore(m, _DOMAIN_TYPEHASH) */\n      mstore\n        /* \"https://github.com/Vectorized/solady/blob/main/src/tokens/ERC20.sol\":21995:22003  nameHash */\n      dup3\n        /* \"https://github.com/Vectorized/solady/blob/main/src/tokens/ERC20.sol\":21988:21992  0x20 */\n      0x20\n        /* \"https://github.com/Vectorized/solady/blob/main/src/tokens/ERC20.sol\":21985:21986  m */\n      dup3\n        /* \"https://github.com/Vectorized/solady/blob/main/src/tokens/ERC20.sol\":21981:21993  add(m, 0x20) */\n      add\n        /* \"https://github.com/Vectorized/solady/blob/main/src/tokens/ERC20.sol\":21974:22004  mstore(add(m, 0x20), nameHash) */\n      mstore\n        /* \"https://github.com/Vectorized/solady/blob/main/src/tokens/ERC20.sol\":22038:22049  versionHash */\n      dup2\n        /* \"https://github.com/Vectorized/solady/blob/main/src/tokens/ERC20.sol\":22031:22035  0x40 */\n      0x40\n        /* \"https://github.com/Vectorized/solady/blob/main/src/tokens/ERC20.sol\":22028:22029  m */\n      dup3\n        /* \"https://github.com/Vectorized/solady/blob/main/src/tokens/ERC20.sol\":22024:22036  add(m, 0x40) */\n      add\n        /* \"https://github.com/Vectorized/solady/blob/main/src/tokens/ERC20.sol\":22017:22050  mstore(add(m, 0x40), versionHash) */\n      mstore\n        /* \"https://github.com/Vectorized/solady/blob/main/src/tokens/ERC20.sol\":22084:22093  chainid() */\n      chainid\n        /* \"https://github.com/Vectorized/solady/blob/main/src/tokens/ERC20.sol\":22077:22081  0x60 */\n      0x60\n        /* \"https://github.com/Vectorized/solady/blob/main/src/tokens/ERC20.sol\":22074:22075  m */\n      dup3\n        /* \"https://github.com/Vectorized/solady/blob/main/src/tokens/ERC20.sol\":22070:22082  add(m, 0x60) */\n      add\n        /* \"https://github.com/Vectorized/solady/blob/main/src/tokens/ERC20.sol\":22063:22094  mstore(add(m, 0x60), chainid()) */\n      mstore\n        /* \"https://github.com/Vectorized/solady/blob/main/src/tokens/ERC20.sol\":22128:22137  address() */\n      address\n        /* \"https://github.com/Vectorized/solady/blob/main/src/tokens/ERC20.sol\":22121:22125  0x80 */\n      0x80\n        /* \"https://github.com/Vectorized/solady/blob/main/src/tokens/ERC20.sol\":22118:22119  m */\n      dup3\n        /* \"https://github.com/Vectorized/solady/blob/main/src/tokens/ERC20.sol\":22114:22126  add(m, 0x80) */\n      add\n        /* \"https://github.com/Vectorized/solady/blob/main/src/tokens/ERC20.sol\":22107:22138  mstore(add(m, 0x80), address()) */\n      mstore\n        /* \"https://github.com/Vectorized/solady/blob/main/src/tokens/ERC20.sol\":22174:22178  0xa0 */\n      0xa0\n        /* \"https://github.com/Vectorized/solady/blob/main/src/tokens/ERC20.sol\":22171:22172  m */\n      dup2\n        /* \"https://github.com/Vectorized/solady/blob/main/src/tokens/ERC20.sol\":22161:22179  keccak256(m, 0xa0) */\n      keccak256\n        /* \"https://github.com/Vectorized/solady/blob/main/src/tokens/ERC20.sol\":22151:22179  result := keccak256(m, 0xa0) */\n      swap4\n      pop\n        /* \"https://github.com/Vectorized/solady/blob/main/src/tokens/ERC20.sol\":21854:22189  {... */\n      pop\n      pop\n      pop\n        /* \"https://github.com/Vectorized/solady/blob/main/src/tokens/ERC20.sol\":21458:22195  function DOMAIN_SEPARATOR() public view virtual returns (bytes32 result) {... */\n      swap1\n      jump\t// out\n        /* \"src/PinusTokenCore.sol\":3964:4218  function previewRedeem(uint shares) public view returns (uint assets) {... */\n    tag_73:\n        /* \"src/PinusTokenCore.sol\":4021:4032  uint assets */\n      0x00\n        /* \"src/PinusTokenCore.sol\":4092:4098  shares */\n      dup2\n        /* \"src/PinusTokenCore.sol\":1683:1690  1 ether */\n      0x0de0b6b3a7640000\n        /* \"src/PinusTokenCore.sol\":4080:4098  SHARE_CAP + shares */\n      tag_195\n      swap2\n      swap1\n      tag_196\n      jump\t// in\n    tag_195:\n        /* \"src/PinusTokenCore.sol\":4070:4076  shares */\n      dup3\n        /* \"src/PinusTokenCore.sol\":4054:4067  maxWithdraw() */\n      tag_197\n        /* \"src/PinusTokenCore.sol\":4054:4065  maxWithdraw */\n      tag_109\n        /* \"src/PinusTokenCore.sol\":4054:4067  maxWithdraw() */\n      jump\t// in\n    tag_197:\n        /* \"src/PinusTokenCore.sol\":4054:4076  maxWithdraw() * shares */\n      tag_198\n      swap2\n      swap1\n      tag_199\n      jump\t// in\n    tag_198:\n        /* \"src/PinusTokenCore.sol\":4054:4099  maxWithdraw() * shares / (SHARE_CAP + shares) */\n      tag_200\n      swap2\n      swap1\n      tag_201\n      jump\t// in\n    tag_200:\n        /* \"src/PinusTokenCore.sol\":4045:4099  assets = maxWithdraw() * shares / (SHARE_CAP + shares) */\n      swap1\n      pop\n        /* \"src/PinusTokenCore.sol\":4147:4153  assets */\n      dup1\n        /* \"src/PinusTokenCore.sol\":4123:4144  address(this).balance */\n      selfbalance\n        /* \"src/PinusTokenCore.sol\":4123:4153  address(this).balance < assets */\n      lt\n        /* \"src/PinusTokenCore.sol\":4120:4211  if(address(this).balance < assets){... */\n      iszero\n      tag_202\n      jumpi\n        /* \"src/PinusTokenCore.sol\":4178:4199  address(this).balance */\n      selfbalance\n        /* \"src/PinusTokenCore.sol\":4169:4199  assets = address(this).balance */\n      swap1\n      pop\n        /* \"src/PinusTokenCore.sol\":4120:4211  if(address(this).balance < assets){... */\n    tag_202:\n        /* \"src/PinusTokenCore.sol\":3964:4218  function previewRedeem(uint shares) public view returns (uint assets) {... */\n      swap2\n      swap1\n      pop\n      jump\t// out\n        /* \"https://github.com/Vectorized/solady/blob/main/src/tokens/ERC20.sol\":7168:7454  function balanceOf(address owner) public view virtual returns (uint256 result) {... */\n    tag_79:\n        /* \"https://github.com/Vectorized/solady/blob/main/src/tokens/ERC20.sol\":7231:7245  uint256 result */\n      0x00\n        /* \"https://github.com/Vectorized/solady/blob/main/src/tokens/ERC20.sol\":7336:7354  _BALANCE_SLOT_SEED */\n      0x87a211a2\n        /* \"https://github.com/Vectorized/solady/blob/main/src/tokens/ERC20.sol\":7330:7334  0x0c */\n      0x0c\n        /* \"https://github.com/Vectorized/solady/blob/main/src/tokens/ERC20.sol\":7323:7355  mstore(0x0c, _BALANCE_SLOT_SEED) */\n      mstore\n        /* \"https://github.com/Vectorized/solady/blob/main/src/tokens/ERC20.sol\":7381:7386  owner */\n      dup2\n        /* \"https://github.com/Vectorized/solady/blob/main/src/tokens/ERC20.sol\":7375:7379  0x00 */\n      0x00\n        /* \"https://github.com/Vectorized/solady/blob/main/src/tokens/ERC20.sol\":7368:7387  mstore(0x00, owner) */\n      mstore\n        /* \"https://github.com/Vectorized/solady/blob/main/src/tokens/ERC20.sol\":7432:7436  0x20 */\n      0x20\n        /* \"https://github.com/Vectorized/solady/blob/main/src/tokens/ERC20.sol\":7426:7430  0x0c */\n      0x0c\n        /* \"https://github.com/Vectorized/solady/blob/main/src/tokens/ERC20.sol\":7416:7437  keccak256(0x0c, 0x20) */\n      keccak256\n        /* \"https://github.com/Vectorized/solady/blob/main/src/tokens/ERC20.sol\":7410:7438  sload(keccak256(0x0c, 0x20)) */\n      sload\n        /* \"https://github.com/Vectorized/solady/blob/main/src/tokens/ERC20.sol\":7400:7438  result := sload(keccak256(0x0c, 0x20)) */\n      swap1\n      pop\n        /* \"https://github.com/Vectorized/solady/blob/main/src/tokens/ERC20.sol\":7168:7454  function balanceOf(address owner) public view virtual returns (uint256 result) {... */\n      swap2\n      swap1\n      pop\n      jump\t// out\n        /* \"@openzeppelin/contracts/access/Ownable.sol\":2293:2394  function renounceOwnership() public virtual onlyOwner {... */\n    tag_83:\n        /* \"@openzeppelin/contracts/access/Ownable.sol\":1531:1544  _checkOwner() */\n      tag_205\n        /* \"@openzeppelin/contracts/access/Ownable.sol\":1531:1542  _checkOwner */\n      tag_163\n        /* \"@openzeppelin/contracts/access/Ownable.sol\":1531:1544  _checkOwner() */\n      jump\t// in\n    tag_205:\n        /* \"@openzeppelin/contracts/access/Ownable.sol\":2357:2387  _transferOwnership(address(0)) */\n      tag_207\n        /* \"@openzeppelin/contracts/access/Ownable.sol\":2384:2385  0 */\n      0x00\n        /* \"@openzeppelin/contracts/access/Ownable.sol\":2357:2375  _transferOwnership */\n      tag_208\n        /* \"@openzeppelin/contracts/access/Ownable.sol\":2357:2387  _transferOwnership(address(0)) */\n      jump\t// in\n    tag_207:\n        /* \"@openzeppelin/contracts/access/Ownable.sol\":2293:2394  function renounceOwnership() public virtual onlyOwner {... */\n      jump\t// out\n        /* \"src/PinusTokenCore.sol\":2995:3120  function maxMint() public view returns (uint) {... */\n    tag_86:\n        /* \"src/PinusTokenCore.sol\":3035:3039  uint */\n      0x00\n        /* \"src/PinusTokenCore.sol\":3101:3112  totalMinted */\n      sload(0x03)\n        /* \"src/PinusTokenCore.sol\":1737:1745  24 hours */\n      0x015180\n        /* \"src/PinusTokenCore.sol\":1683:1690  1 ether */\n      0x0de0b6b3a7640000\n        /* \"src/PinusTokenCore.sol\":1720:1746  SHARE_CAP / uint(24 hours) */\n      tag_210\n      swap2\n      swap1\n      tag_201\n      jump\t// in\n    tag_210:\n        /* \"src/PinusTokenCore.sol\":3078:3085  created */\n      immutable(\"0x26f35bd790fe311c873adf45be525666a51285a6fd0030cb973705f80b0e4cd9\")\n        /* \"src/PinusTokenCore.sol\":3060:3075  block.timestamp */\n      timestamp\n        /* \"src/PinusTokenCore.sol\":3060:3085  block.timestamp - created */\n      tag_211\n      swap2\n      swap1\n      tag_212\n      jump\t// in\n    tag_211:\n        /* \"src/PinusTokenCore.sol\":3059:3098  (block.timestamp - created) * MINT_RATE */\n      tag_213\n      swap2\n      swap1\n      tag_199\n      jump\t// in\n    tag_213:\n        /* \"src/PinusTokenCore.sol\":3059:3112  (block.timestamp - created) * MINT_RATE - totalMinted */\n      tag_214\n      swap2\n      swap1\n      tag_212\n      jump\t// in\n    tag_214:\n        /* \"src/PinusTokenCore.sol\":3052:3112  return (block.timestamp - created) * MINT_RATE - totalMinted */\n      swap1\n      pop\n        /* \"src/PinusTokenCore.sol\":2995:3120  function maxMint() public view returns (uint) {... */\n      swap1\n      jump\t// out\n        /* \"https://github.com/Vectorized/solady/blob/main/src/tokens/ERC20.sol\":17137:17477  function nonces(address owner) public view virtual returns (uint256 result) {... */\n    tag_91:\n        /* \"https://github.com/Vectorized/solady/blob/main/src/tokens/ERC20.sol\":17197:17211  uint256 result */\n      0x00\n        /* \"https://github.com/Vectorized/solady/blob/main/src/tokens/ERC20.sol\":17360:17377  _NONCES_SLOT_SEED */\n      0x38377508\n        /* \"https://github.com/Vectorized/solady/blob/main/src/tokens/ERC20.sol\":17354:17358  0x0c */\n      0x0c\n        /* \"https://github.com/Vectorized/solady/blob/main/src/tokens/ERC20.sol\":17347:17378  mstore(0x0c, _NONCES_SLOT_SEED) */\n      mstore\n        /* \"https://github.com/Vectorized/solady/blob/main/src/tokens/ERC20.sol\":17404:17409  owner */\n      dup2\n        /* \"https://github.com/Vectorized/solady/blob/main/src/tokens/ERC20.sol\":17398:17402  0x00 */\n      0x00\n        /* \"https://github.com/Vectorized/solady/blob/main/src/tokens/ERC20.sol\":17391:17410  mstore(0x00, owner) */\n      mstore\n        /* \"https://github.com/Vectorized/solady/blob/main/src/tokens/ERC20.sol\":17455:17459  0x20 */\n      0x20\n        /* \"https://github.com/Vectorized/solady/blob/main/src/tokens/ERC20.sol\":17449:17453  0x0c */\n      0x0c\n        /* \"https://github.com/Vectorized/solady/blob/main/src/tokens/ERC20.sol\":17439:17460  keccak256(0x0c, 0x20) */\n      keccak256\n        /* \"https://github.com/Vectorized/solady/blob/main/src/tokens/ERC20.sol\":17433:17461  sload(keccak256(0x0c, 0x20)) */\n      sload\n        /* \"https://github.com/Vectorized/solady/blob/main/src/tokens/ERC20.sol\":17423:17461  result := sload(keccak256(0x0c, 0x20)) */\n      swap1\n      pop\n        /* \"https://github.com/Vectorized/solady/blob/main/src/tokens/ERC20.sol\":17137:17477  function nonces(address owner) public view virtual returns (uint256 result) {... */\n      swap2\n      swap1\n      pop\n      jump\t// out\n        /* \"@openzeppelin/contracts/access/Ownable.sol\":1638:1723  function owner() public view virtual returns (address) {... */\n    tag_95:\n        /* \"@openzeppelin/contracts/access/Ownable.sol\":1684:1691  address */\n      0x00\n        /* \"@openzeppelin/contracts/access/Ownable.sol\":1710:1716  _owner */\n      0x00\n      0x00\n      swap1\n      sload\n      swap1\n      0x0100\n      exp\n      swap1\n      div\n      0xffffffffffffffffffffffffffffffffffffffff\n      and\n        /* \"@openzeppelin/contracts/access/Ownable.sol\":1703:1716  return _owner */\n      swap1\n      pop\n        /* \"@openzeppelin/contracts/access/Ownable.sol\":1638:1723  function owner() public view virtual returns (address) {... */\n      swap1\n      jump\t// out\n        /* \"src/PinusTokenCore.sol\":2788:2883  function symbol() public view override returns (string memory){... */\n    tag_100:\n        /* \"src/PinusTokenCore.sol\":2836:2849  string memory */\n      0x60\n        /* \"src/PinusTokenCore.sol\":2868:2875  _symbol */\n      0x02\n        /* \"src/PinusTokenCore.sol\":2861:2875  return _symbol */\n      dup1\n      sload\n      tag_218\n      swap1\n      tag_151\n      jump\t// in\n    tag_218:\n      dup1\n      0x1f\n      add\n      0x20\n      dup1\n      swap2\n      div\n      mul\n      0x20\n      add\n      mload(0x40)\n      swap1\n      dup2\n      add\n      0x40\n      mstore\n      dup1\n      swap3\n      swap2\n      swap1\n      dup2\n      dup2\n      mstore\n      0x20\n      add\n      dup3\n      dup1\n      sload\n      tag_219\n      swap1\n      tag_151\n      jump\t// in\n    tag_219:\n      dup1\n      iszero\n      tag_220\n      jumpi\n      dup1\n      0x1f\n      lt\n      tag_221\n      jumpi\n      0x0100\n      dup1\n      dup4\n      sload\n      div\n      mul\n      dup4\n      mstore\n      swap2\n      0x20\n      add\n      swap2\n      jump(tag_220)\n    tag_221:\n      dup3\n      add\n      swap2\n      swap1\n      0x00\n      mstore\n      keccak256(0x00, 0x20)\n      swap1\n    tag_222:\n      dup2\n      sload\n      dup2\n      mstore\n      swap1\n      0x01\n      add\n      swap1\n      0x20\n      add\n      dup1\n      dup4\n      gt\n      tag_222\n      jumpi\n      dup3\n      swap1\n      sub\n      0x1f\n      and\n      dup3\n      add\n      swap2\n    tag_220:\n      pop\n      pop\n      pop\n      pop\n      pop\n      swap1\n      pop\n        /* \"src/PinusTokenCore.sol\":2788:2883  function symbol() public view override returns (string memory){... */\n      swap1\n      jump\t// out\n        /* \"https://github.com/Vectorized/solady/blob/main/src/tokens/ERC20.sol\":9391:10797  function transfer(address to, uint256 amount) public virtual returns (bool) {... */\n    tag_105:\n        /* \"https://github.com/Vectorized/solady/blob/main/src/tokens/ERC20.sol\":9461:9465  bool */\n      0x00\n        /* \"https://github.com/Vectorized/solady/blob/main/src/tokens/ERC20.sol\":9477:9521  _beforeTokenTransfer(msg.sender, to, amount) */\n      tag_224\n        /* \"https://github.com/Vectorized/solady/blob/main/src/tokens/ERC20.sol\":9498:9508  msg.sender */\n      caller\n        /* \"https://github.com/Vectorized/solady/blob/main/src/tokens/ERC20.sol\":9510:9512  to */\n      dup5\n        /* \"https://github.com/Vectorized/solady/blob/main/src/tokens/ERC20.sol\":9514:9520  amount */\n      dup5\n        /* \"https://github.com/Vectorized/solady/blob/main/src/tokens/ERC20.sol\":9477:9497  _beforeTokenTransfer */\n      tag_173\n        /* \"https://github.com/Vectorized/solady/blob/main/src/tokens/ERC20.sol\":9477:9521  _beforeTokenTransfer(msg.sender, to, amount) */\n      jump\t// in\n    tag_224:\n        /* \"https://github.com/Vectorized/solady/blob/main/src/tokens/ERC20.sol\":9670:9688  _BALANCE_SLOT_SEED */\n      0x87a211a2\n        /* \"https://github.com/Vectorized/solady/blob/main/src/tokens/ERC20.sol\":9664:9668  0x0c */\n      0x0c\n        /* \"https://github.com/Vectorized/solady/blob/main/src/tokens/ERC20.sol\":9657:9689  mstore(0x0c, _BALANCE_SLOT_SEED) */\n      mstore\n        /* \"https://github.com/Vectorized/solady/blob/main/src/tokens/ERC20.sol\":9715:9723  caller() */\n      caller\n        /* \"https://github.com/Vectorized/solady/blob/main/src/tokens/ERC20.sol\":9709:9713  0x00 */\n      0x00\n        /* \"https://github.com/Vectorized/solady/blob/main/src/tokens/ERC20.sol\":9702:9724  mstore(0x00, caller()) */\n      mstore\n        /* \"https://github.com/Vectorized/solady/blob/main/src/tokens/ERC20.sol\":9776:9780  0x20 */\n      0x20\n        /* \"https://github.com/Vectorized/solady/blob/main/src/tokens/ERC20.sol\":9770:9774  0x0c */\n      0x0c\n        /* \"https://github.com/Vectorized/solady/blob/main/src/tokens/ERC20.sol\":9760:9781  keccak256(0x0c, 0x20) */\n      keccak256\n        /* \"https://github.com/Vectorized/solady/blob/main/src/tokens/ERC20.sol\":9819:9834  fromBalanceSlot */\n      dup1\n        /* \"https://github.com/Vectorized/solady/blob/main/src/tokens/ERC20.sol\":9813:9835  sload(fromBalanceSlot) */\n      sload\n        /* \"https://github.com/Vectorized/solady/blob/main/src/tokens/ERC20.sol\":9909:9920  fromBalance */\n      dup1\n        /* \"https://github.com/Vectorized/solady/blob/main/src/tokens/ERC20.sol\":9901:9907  amount */\n      dup5\n        /* \"https://github.com/Vectorized/solady/blob/main/src/tokens/ERC20.sol\":9898:9921  gt(amount, fromBalance) */\n      gt\n        /* \"https://github.com/Vectorized/solady/blob/main/src/tokens/ERC20.sol\":9895:10041  if gt(amount, fromBalance) {... */\n      iszero\n      tag_225\n      jumpi\n        /* \"https://github.com/Vectorized/solady/blob/main/src/tokens/ERC20.sol\":9953:9963  0xf4d678b8 */\n      0xf4d678b8\n        /* \"https://github.com/Vectorized/solady/blob/main/src/tokens/ERC20.sol\":9947:9951  0x00 */\n      0x00\n        /* \"https://github.com/Vectorized/solady/blob/main/src/tokens/ERC20.sol\":9940:9964  mstore(0x00, 0xf4d678b8) */\n      mstore\n        /* \"https://github.com/Vectorized/solady/blob/main/src/tokens/ERC20.sol\":10022:10026  0x04 */\n      0x04\n        /* \"https://github.com/Vectorized/solady/blob/main/src/tokens/ERC20.sol\":10016:10020  0x1c */\n      0x1c\n        /* \"https://github.com/Vectorized/solady/blob/main/src/tokens/ERC20.sol\":10009:10027  revert(0x1c, 0x04) */\n      revert\n        /* \"https://github.com/Vectorized/solady/blob/main/src/tokens/ERC20.sol\":9895:10041  if gt(amount, fromBalance) {... */\n    tag_225:\n        /* \"https://github.com/Vectorized/solady/blob/main/src/tokens/ERC20.sol\":10150:10156  amount */\n      dup4\n        /* \"https://github.com/Vectorized/solady/blob/main/src/tokens/ERC20.sol\":10137:10148  fromBalance */\n      dup2\n        /* \"https://github.com/Vectorized/solady/blob/main/src/tokens/ERC20.sol\":10133:10157  sub(fromBalance, amount) */\n      sub\n        /* \"https://github.com/Vectorized/solady/blob/main/src/tokens/ERC20.sol\":10116:10131  fromBalanceSlot */\n      dup3\n        /* \"https://github.com/Vectorized/solady/blob/main/src/tokens/ERC20.sol\":10109:10158  sstore(fromBalanceSlot, sub(fromBalance, amount)) */\n      sstore\n        /* \"https://github.com/Vectorized/solady/blob/main/src/tokens/ERC20.sol\":10233:10235  to */\n      dup5\n        /* \"https://github.com/Vectorized/solady/blob/main/src/tokens/ERC20.sol\":10227:10231  0x00 */\n      0x00\n        /* \"https://github.com/Vectorized/solady/blob/main/src/tokens/ERC20.sol\":10220:10236  mstore(0x00, to) */\n      mstore\n        /* \"https://github.com/Vectorized/solady/blob/main/src/tokens/ERC20.sol\":10286:10290  0x20 */\n      0x20\n        /* \"https://github.com/Vectorized/solady/blob/main/src/tokens/ERC20.sol\":10280:10284  0x0c */\n      0x0c\n        /* \"https://github.com/Vectorized/solady/blob/main/src/tokens/ERC20.sol\":10270:10291  keccak256(0x0c, 0x20) */\n      keccak256\n        /* \"https://github.com/Vectorized/solady/blob/main/src/tokens/ERC20.sol\":10536:10542  amount */\n      dup5\n        /* \"https://github.com/Vectorized/solady/blob/main/src/tokens/ERC20.sol\":10520:10533  toBalanceSlot */\n      dup2\n        /* \"https://github.com/Vectorized/solady/blob/main/src/tokens/ERC20.sol\":10514:10534  sload(toBalanceSlot) */\n      sload\n        /* \"https://github.com/Vectorized/solady/blob/main/src/tokens/ERC20.sol\":10510:10543  add(sload(toBalanceSlot), amount) */\n      add\n        /* \"https://github.com/Vectorized/solady/blob/main/src/tokens/ERC20.sol\":10495:10508  toBalanceSlot */\n      dup2\n        /* \"https://github.com/Vectorized/solady/blob/main/src/tokens/ERC20.sol\":10488:10544  sstore(toBalanceSlot, add(sload(toBalanceSlot), amount)) */\n      sstore\n        /* \"https://github.com/Vectorized/solady/blob/main/src/tokens/ERC20.sol\":10612:10618  amount */\n      dup5\n        /* \"https://github.com/Vectorized/solady/blob/main/src/tokens/ERC20.sol\":10606:10610  0x20 */\n      0x20\n        /* \"https://github.com/Vectorized/solady/blob/main/src/tokens/ERC20.sol\":10599:10619  mstore(0x20, amount) */\n      mstore\n        /* \"https://github.com/Vectorized/solady/blob/main/src/tokens/ERC20.sol\":10700:10704  0x0c */\n      0x0c\n        /* \"https://github.com/Vectorized/solady/blob/main/src/tokens/ERC20.sol\":10694:10705  mload(0x0c) */\n      mload\n        /* \"https://github.com/Vectorized/solady/blob/main/src/tokens/ERC20.sol\":10690:10692  96 */\n      0x60\n        /* \"https://github.com/Vectorized/solady/blob/main/src/tokens/ERC20.sol\":10686:10706  shr(96, mload(0x0c)) */\n      shr\n        /* \"https://github.com/Vectorized/solady/blob/main/src/tokens/ERC20.sol\":10676:10684  caller() */\n      caller\n        /* \"https://github.com/Vectorized/solady/blob/main/src/tokens/ERC20.sol\":10649:10674  _TRANSFER_EVENT_SIGNATURE */\n      0xddf252ad1be2c89b69c2b068fc378daa952ba7f163c4a11628f55a4df523b3ef\n        /* \"https://github.com/Vectorized/solady/blob/main/src/tokens/ERC20.sol\":10643:10647  0x20 */\n      0x20\n        /* \"https://github.com/Vectorized/solady/blob/main/src/tokens/ERC20.sol\":10637:10641  0x20 */\n      dup1\n        /* \"https://github.com/Vectorized/solady/blob/main/src/tokens/ERC20.sol\":10632:10707  log3(0x20, 0x20, _TRANSFER_EVENT_SIGNATURE, caller(), shr(96, mload(0x0c))) */\n      log3\n        /* \"https://github.com/Vectorized/solady/blob/main/src/tokens/ERC20.sol\":9583:10717  {... */\n      pop\n      pop\n      pop\n        /* \"https://github.com/Vectorized/solady/blob/main/src/tokens/ERC20.sol\":10726:10769  _afterTokenTransfer(msg.sender, to, amount) */\n      tag_226\n        /* \"https://github.com/Vectorized/solady/blob/main/src/tokens/ERC20.sol\":10746:10756  msg.sender */\n      caller\n        /* \"https://github.com/Vectorized/solady/blob/main/src/tokens/ERC20.sol\":10758:10760  to */\n      dup5\n        /* \"https://github.com/Vectorized/solady/blob/main/src/tokens/ERC20.sol\":10762:10768  amount */\n      dup5\n        /* \"https://github.com/Vectorized/solady/blob/main/src/tokens/ERC20.sol\":10726:10745  _afterTokenTransfer */\n      tag_185\n        /* \"https://github.com/Vectorized/solady/blob/main/src/tokens/ERC20.sol\":10726:10769  _afterTokenTransfer(msg.sender, to, amount) */\n      jump\t// in\n    tag_226:\n        /* \"https://github.com/Vectorized/solady/blob/main/src/tokens/ERC20.sol\":10786:10790  true */\n      0x01\n        /* \"https://github.com/Vectorized/solady/blob/main/src/tokens/ERC20.sol\":10779:10790  return true */\n      swap1\n      pop\n        /* \"https://github.com/Vectorized/solady/blob/main/src/tokens/ERC20.sol\":9391:10797  function transfer(address to, uint256 amount) public virtual returns (bool) {... */\n      swap3\n      swap2\n      pop\n      pop\n      jump\t// out\n        /* \"src/PinusTokenCore.sol\":3820:3956  function maxWithdraw() public view returns (uint) {... */\n    tag_109:\n        /* \"src/PinusTokenCore.sol\":3864:3868  uint */\n      0x00\n        /* \"src/PinusTokenCore.sol\":3934:3948  totalWithdrawn */\n      sload(0x04)\n        /* \"src/PinusTokenCore.sol\":1814:1822  24 hours */\n      0x015180\n        /* \"src/PinusTokenCore.sol\":1646:1654  .1 ether */\n      0x016345785d8a0000\n        /* \"src/PinusTokenCore.sol\":1797:1823  ASSET_CAP / uint(24 hours) */\n      tag_228\n      swap2\n      swap1\n      tag_201\n      jump\t// in\n    tag_228:\n        /* \"src/PinusTokenCore.sol\":3907:3914  created */\n      immutable(\"0x26f35bd790fe311c873adf45be525666a51285a6fd0030cb973705f80b0e4cd9\")\n        /* \"src/PinusTokenCore.sol\":3889:3904  block.timestamp */\n      timestamp\n        /* \"src/PinusTokenCore.sol\":3889:3914  block.timestamp - created */\n      tag_229\n      swap2\n      swap1\n      tag_212\n      jump\t// in\n    tag_229:\n        /* \"src/PinusTokenCore.sol\":3888:3931  (block.timestamp - created) * WITHDRAW_RATE */\n      tag_230\n      swap2\n      swap1\n      tag_199\n      jump\t// in\n    tag_230:\n        /* \"src/PinusTokenCore.sol\":3888:3948  (block.timestamp - created) * WITHDRAW_RATE - totalWithdrawn */\n      tag_231\n      swap2\n      swap1\n      tag_212\n      jump\t// in\n    tag_231:\n        /* \"src/PinusTokenCore.sol\":3881:3948  return (block.timestamp - created) * WITHDRAW_RATE - totalWithdrawn */\n      swap1\n      pop\n        /* \"src/PinusTokenCore.sol\":3820:3956  function maxWithdraw() public view returns (uint) {... */\n      swap1\n      jump\t// out\n        /* \"src/PinusTokenCore.sol\":1923:1944  string public _symbol */\n    tag_113:\n      0x02\n      dup1\n      sload\n      tag_232\n      swap1\n      tag_151\n      jump\t// in\n    tag_232:\n      dup1\n      0x1f\n      add\n      0x20\n      dup1\n      swap2\n      div\n      mul\n      0x20\n      add\n      mload(0x40)\n      swap1\n      dup2\n      add\n      0x40\n      mstore\n      dup1\n      swap3\n      swap2\n      swap1\n      dup2\n      dup2\n      mstore\n      0x20\n      add\n      dup3\n      dup1\n      sload\n      tag_233\n      swap1\n      tag_151\n      jump\t// in\n    tag_233:\n      dup1\n      iszero\n      tag_234\n      jumpi\n      dup1\n      0x1f\n      lt\n      tag_235\n      jumpi\n      0x0100\n      dup1\n      dup4\n      sload\n      div\n      mul\n      dup4\n      mstore\n      swap2\n      0x20\n      add\n      swap2\n      jump(tag_234)\n    tag_235:\n      dup3\n      add\n      swap2\n      swap1\n      0x00\n      mstore\n      keccak256(0x00, 0x20)\n      swap1\n    tag_236:\n      dup2\n      sload\n      dup2\n      mstore\n      swap1\n      0x01\n      add\n      swap1\n      0x20\n      add\n      dup1\n      dup4\n      gt\n      tag_236\n      jumpi\n      dup3\n      swap1\n      sub\n      0x1f\n      and\n      dup3\n      add\n      swap2\n    tag_234:\n      pop\n      pop\n      pop\n      pop\n      pop\n      dup2\n      jump\t// out\n        /* \"src/PinusTokenCore.sol\":4226:4829  function redeem(uint shares, address receiver,address owner) public returns (uint assets) {... */\n    tag_119:\n        /* \"src/PinusTokenCore.sol\":4303:4314  uint assets */\n      0x00\n        /* \"src/PinusTokenCore.sol\":4336:4357  previewRedeem(shares) */\n      tag_238\n        /* \"src/PinusTokenCore.sol\":4350:4356  shares */\n      dup5\n        /* \"src/PinusTokenCore.sol\":4336:4349  previewRedeem */\n      tag_73\n        /* \"src/PinusTokenCore.sol\":4336:4357  previewRedeem(shares) */\n      jump\t// in\n    tag_238:\n        /* \"src/PinusTokenCore.sol\":4327:4357  assets = previewRedeem(shares) */\n      swap1\n      pop\n        /* \"src/PinusTokenCore.sol\":4405:4410  owner */\n      dup2\n        /* \"src/PinusTokenCore.sol\":4393:4410  msg.sender!=owner */\n      0xffffffffffffffffffffffffffffffffffffffff\n      and\n        /* \"src/PinusTokenCore.sol\":4393:4403  msg.sender */\n      caller\n        /* \"src/PinusTokenCore.sol\":4393:4410  msg.sender!=owner */\n      0xffffffffffffffffffffffffffffffffffffffff\n      and\n      eq\n        /* \"src/PinusTokenCore.sol\":4390:4454  if(msg.sender!=owner) _spendAllowance(owner, msg.sender, shares) */\n      tag_239\n      jumpi\n        /* \"src/PinusTokenCore.sol\":4412:4454  _spendAllowance(owner, msg.sender, shares) */\n      tag_240\n        /* \"src/PinusTokenCore.sol\":4428:4433  owner */\n      dup3\n        /* \"src/PinusTokenCore.sol\":4435:4445  msg.sender */\n      caller\n        /* \"src/PinusTokenCore.sol\":4447:4453  shares */\n      dup7\n        /* \"src/PinusTokenCore.sol\":4412:4427  _spendAllowance */\n      tag_241\n        /* \"src/PinusTokenCore.sol\":4412:4454  _spendAllowance(owner, msg.sender, shares) */\n      jump\t// in\n    tag_240:\n        /* \"src/PinusTokenCore.sol\":4390:4454  if(msg.sender!=owner) _spendAllowance(owner, msg.sender, shares) */\n    tag_239:\n        /* \"src/PinusTokenCore.sol\":4506:4512  assets */\n      dup1\n        /* \"src/PinusTokenCore.sol\":4490:4504  totalWithdrawn */\n      0x04\n      0x00\n        /* \"src/PinusTokenCore.sol\":4490:4512  totalWithdrawn+=assets */\n      dup3\n      dup3\n      sload\n      tag_242\n      swap2\n      swap1\n      tag_196\n      jump\t// in\n    tag_242:\n      swap3\n      pop\n      pop\n      dup2\n      swap1\n      sstore\n      pop\n        /* \"src/PinusTokenCore.sol\":4523:4542  _burn(owner,shares) */\n      tag_243\n        /* \"src/PinusTokenCore.sol\":4529:4534  owner */\n      dup3\n        /* \"src/PinusTokenCore.sol\":4535:4541  shares */\n      dup6\n        /* \"src/PinusTokenCore.sol\":4523:4528  _burn */\n      tag_244\n        /* \"src/PinusTokenCore.sol\":4523:4542  _burn(owner,shares) */\n      jump\t// in\n    tag_243:\n        /* \"src/PinusTokenCore.sol\":4679:4691  bool success */\n      0x00\n        /* \"src/PinusTokenCore.sol\":4696:4704  receiver */\n      dup4\n        /* \"src/PinusTokenCore.sol\":4696:4709  receiver.call */\n      0xffffffffffffffffffffffffffffffffffffffff\n      and\n        /* \"src/PinusTokenCore.sol\":4716:4722  assets */\n      dup3\n        /* \"src/PinusTokenCore.sol\":4696:4727  receiver.call{value:assets}(\"\") */\n      mload(0x40)\n      tag_245\n      swap1\n      tag_246\n      jump\t// in\n    tag_245:\n      0x00\n      mload(0x40)\n      dup1\n      dup4\n      sub\n      dup2\n      dup6\n      dup8\n      gas\n      call\n      swap3\n      pop\n      pop\n      pop\n      returndatasize\n      dup1\n      0x00\n      dup2\n      eq\n      tag_249\n      jumpi\n      mload(0x40)\n      swap2\n      pop\n      and(add(returndatasize, 0x3f), not(0x1f))\n      dup3\n      add\n      0x40\n      mstore\n      returndatasize\n      dup3\n      mstore\n      returndatasize\n      0x00\n      0x20\n      dup5\n      add\n      returndatacopy\n      jump(tag_248)\n    tag_249:\n      0x60\n      swap2\n      pop\n    tag_248:\n      pop\n        /* \"src/PinusTokenCore.sol\":4678:4727  (bool success,) = receiver.call{value:assets}(\"\") */\n      pop\n      swap1\n      pop\n        /* \"src/PinusTokenCore.sol\":4746:4753  success */\n      dup1\n        /* \"src/PinusTokenCore.sol\":4738:4754  require(success) */\n      tag_250\n      jumpi\n      revert(0x00, 0x00)\n    tag_250:\n        /* \"src/PinusTokenCore.sol\":4801:4806  owner */\n      dup3\n        /* \"src/PinusTokenCore.sol\":4772:4821  Withdraw(msg.sender,receiver,owner,assets,shares) */\n      0xffffffffffffffffffffffffffffffffffffffff\n      and\n        /* \"src/PinusTokenCore.sol\":4792:4800  receiver */\n      dup5\n        /* \"src/PinusTokenCore.sol\":4772:4821  Withdraw(msg.sender,receiver,owner,assets,shares) */\n      0xffffffffffffffffffffffffffffffffffffffff\n      and\n        /* \"src/PinusTokenCore.sol\":4781:4791  msg.sender */\n      caller\n        /* \"src/PinusTokenCore.sol\":4772:4821  Withdraw(msg.sender,receiver,owner,assets,shares) */\n      0xffffffffffffffffffffffffffffffffffffffff\n      and\n      0xfbde797d201c681b91056529119e0b02407c7bb96a4a2c75c01fc9667232c8db\n        /* \"src/PinusTokenCore.sol\":4807:4813  assets */\n      dup6\n        /* \"src/PinusTokenCore.sol\":4814:4820  shares */\n      dup10\n        /* \"src/PinusTokenCore.sol\":4772:4821  Withdraw(msg.sender,receiver,owner,assets,shares) */\n      mload(0x40)\n      tag_251\n      swap3\n      swap2\n      swap1\n      tag_252\n      jump\t// in\n    tag_251:\n      mload(0x40)\n      dup1\n      swap2\n      sub\n      swap1\n      log4\n        /* \"src/PinusTokenCore.sol\":4316:4829  {... */\n      pop\n        /* \"src/PinusTokenCore.sol\":4226:4829  function redeem(uint shares, address receiver,address owner) public returns (uint assets) {... */\n      swap4\n      swap3\n      pop\n      pop\n      pop\n      jump\t// out\n        /* \"src/PinusTokenCore.sol\":1897:1916  string public _name */\n    tag_123:\n      0x01\n      dup1\n      sload\n      tag_253\n      swap1\n      tag_151\n      jump\t// in\n    tag_253:\n      dup1\n      0x1f\n      add\n      0x20\n      dup1\n      swap2\n      div\n      mul\n      0x20\n      add\n      mload(0x40)\n      swap1\n      dup2\n      add\n      0x40\n      mstore\n      dup1\n      swap3\n      swap2\n      swap1\n      dup2\n      dup2\n      mstore\n      0x20\n      add\n      dup3\n      dup1\n      sload\n      tag_254\n      swap1\n      tag_151\n      jump\t// in\n    tag_254:\n      dup1\n      iszero\n      tag_255\n      jumpi\n      dup1\n      0x1f\n      lt\n      tag_256\n      jumpi\n      0x0100\n      dup1\n      dup4\n      sload\n      div\n      mul\n      dup4\n      mstore\n      swap2\n      0x20\n      add\n      swap2\n      jump(tag_255)\n    tag_256:\n      dup3\n      add\n      swap2\n      swap1\n      0x00\n      mstore\n      keccak256(0x00, 0x20)\n      swap1\n    tag_257:\n      dup2\n      sload\n      dup2\n      mstore\n      swap1\n      0x01\n      add\n      swap1\n      0x20\n      add\n      dup1\n      dup4\n      gt\n      tag_257\n      jumpi\n      dup3\n      swap1\n      sub\n      0x1f\n      and\n      dup3\n      add\n      swap2\n    tag_255:\n      pop\n      pop\n      pop\n      pop\n      pop\n      dup2\n      jump\t// out\n        /* \"https://github.com/Vectorized/solady/blob/main/src/tokens/ERC20.sol\":17661:21377  function permit(... */\n    tag_129:\n        /* \"https://github.com/Vectorized/solady/blob/main/src/tokens/ERC20.sol\":17864:17895  _givePermit2InfiniteAllowance() */\n      tag_259\n        /* \"https://github.com/Vectorized/solady/blob/main/src/tokens/ERC20.sol\":17864:17893  _givePermit2InfiniteAllowance */\n      tag_158\n        /* \"https://github.com/Vectorized/solady/blob/main/src/tokens/ERC20.sol\":17864:17895  _givePermit2InfiniteAllowance() */\n      jump\t// in\n    tag_259:\n        /* \"https://github.com/Vectorized/solady/blob/main/src/tokens/ERC20.sol\":17860:18305  if (_givePermit2InfiniteAllowance()) {... */\n      iszero\n      tag_260\n      jumpi\n        /* \"https://github.com/Vectorized/solady/blob/main/src/tokens/ERC20.sol\":18126:18131  value */\n      dup5\n        /* \"https://github.com/Vectorized/solady/blob/main/src/tokens/ERC20.sol\":18122:18132  not(value) */\n      not\n        /* \"https://github.com/Vectorized/solady/blob/main/src/tokens/ERC20.sol\":18115:18133  iszero(not(value)) */\n      iszero\n        /* \"https://github.com/Vectorized/solady/blob/main/src/tokens/ERC20.sol\":18104:18112  _PERMIT2 */\n      0x22d473030f116ddee9f6b43ac78ba3\n        /* \"https://github.com/Vectorized/solady/blob/main/src/tokens/ERC20.sol\":18093:18100  spender */\n      dup8\n        /* \"https://github.com/Vectorized/solady/blob/main/src/tokens/ERC20.sol\":18089:18091  96 */\n      0x60\n        /* \"https://github.com/Vectorized/solady/blob/main/src/tokens/ERC20.sol\":18085:18101  shl(96, spender) */\n      shl\n        /* \"https://github.com/Vectorized/solady/blob/main/src/tokens/ERC20.sol\":18081:18083  96 */\n      0x60\n        /* \"https://github.com/Vectorized/solady/blob/main/src/tokens/ERC20.sol\":18077:18102  shr(96, shl(96, spender)) */\n      shr\n        /* \"https://github.com/Vectorized/solady/blob/main/src/tokens/ERC20.sol\":18073:18113  xor(shr(96, shl(96, spender)), _PERMIT2) */\n      xor\n        /* \"https://github.com/Vectorized/solady/blob/main/src/tokens/ERC20.sol\":18070:18134  or(xor(shr(96, shl(96, spender)), _PERMIT2), iszero(not(value))) */\n      or\n        /* \"https://github.com/Vectorized/solady/blob/main/src/tokens/ERC20.sol\":18060:18281  if iszero(or(xor(shr(96, shl(96, spender)), _PERMIT2), iszero(not(value)))) {... */\n      tag_261\n      jumpi\n        /* \"https://github.com/Vectorized/solady/blob/main/src/tokens/ERC20.sol\":18171:18181  0x3f68539a */\n      0x3f68539a\n        /* \"https://github.com/Vectorized/solady/blob/main/src/tokens/ERC20.sol\":18165:18169  0x00 */\n      0x00\n        /* \"https://github.com/Vectorized/solady/blob/main/src/tokens/ERC20.sol\":18158:18182  mstore(0x00, 0x3f68539a) */\n      mstore\n        /* \"https://github.com/Vectorized/solady/blob/main/src/tokens/ERC20.sol\":18258:18262  0x04 */\n      0x04\n        /* \"https://github.com/Vectorized/solady/blob/main/src/tokens/ERC20.sol\":18252:18256  0x1c */\n      0x1c\n        /* \"https://github.com/Vectorized/solady/blob/main/src/tokens/ERC20.sol\":18245:18263  revert(0x1c, 0x04) */\n      revert\n        /* \"https://github.com/Vectorized/solady/blob/main/src/tokens/ERC20.sol\":18060:18281  if iszero(or(xor(shr(96, shl(96, spender)), _PERMIT2), iszero(not(value)))) {... */\n    tag_261:\n        /* \"https://github.com/Vectorized/solady/blob/main/src/tokens/ERC20.sol\":17860:18305  if (_givePermit2InfiniteAllowance()) {... */\n    tag_260:\n        /* \"https://github.com/Vectorized/solady/blob/main/src/tokens/ERC20.sol\":18314:18330  bytes32 nameHash */\n      0x00\n        /* \"https://github.com/Vectorized/solady/blob/main/src/tokens/ERC20.sol\":18333:18352  _constantNameHash() */\n      tag_262\n        /* \"https://github.com/Vectorized/solady/blob/main/src/tokens/ERC20.sol\":18333:18350  _constantNameHash */\n      tag_189\n        /* \"https://github.com/Vectorized/solady/blob/main/src/tokens/ERC20.sol\":18333:18352  _constantNameHash() */\n      jump\t// in\n    tag_262:\n        /* \"https://github.com/Vectorized/solady/blob/main/src/tokens/ERC20.sol\":18314:18352  bytes32 nameHash = _constantNameHash() */\n      swap1\n      pop\n        /* \"https://github.com/Vectorized/solady/blob/main/src/tokens/ERC20.sol\":18480:18481  0 */\n      0x00\n        /* \"https://github.com/Vectorized/solady/blob/main/src/tokens/ERC20.sol\":18472:18482  bytes32(0) */\n      0x00\n      shl\n        /* \"https://github.com/Vectorized/solady/blob/main/src/tokens/ERC20.sol\":18460:18468  nameHash */\n      dup2\n        /* \"https://github.com/Vectorized/solady/blob/main/src/tokens/ERC20.sol\":18460:18482  nameHash == bytes32(0) */\n      sub\n        /* \"https://github.com/Vectorized/solady/blob/main/src/tokens/ERC20.sol\":18456:18519  if (nameHash == bytes32(0)) nameHash = keccak256(bytes(name())) */\n      tag_263\n      jumpi\n        /* \"https://github.com/Vectorized/solady/blob/main/src/tokens/ERC20.sol\":18511:18517  name() */\n      tag_264\n        /* \"https://github.com/Vectorized/solady/blob/main/src/tokens/ERC20.sol\":18511:18515  name */\n      tag_31\n        /* \"https://github.com/Vectorized/solady/blob/main/src/tokens/ERC20.sol\":18511:18517  name() */\n      jump\t// in\n    tag_264:\n        /* \"https://github.com/Vectorized/solady/blob/main/src/tokens/ERC20.sol\":18495:18519  keccak256(bytes(name())) */\n      dup1\n      mload\n      swap1\n      0x20\n      add\n      keccak256\n        /* \"https://github.com/Vectorized/solady/blob/main/src/tokens/ERC20.sol\":18484:18519  nameHash = keccak256(bytes(name())) */\n      swap1\n      pop\n        /* \"https://github.com/Vectorized/solady/blob/main/src/tokens/ERC20.sol\":18456:18519  if (nameHash == bytes32(0)) nameHash = keccak256(bytes(name())) */\n    tag_263:\n        /* \"https://github.com/Vectorized/solady/blob/main/src/tokens/ERC20.sol\":18529:18548  bytes32 versionHash */\n      0x00\n        /* \"https://github.com/Vectorized/solady/blob/main/src/tokens/ERC20.sol\":18551:18565  _versionHash() */\n      tag_265\n        /* \"https://github.com/Vectorized/solady/blob/main/src/tokens/ERC20.sol\":18551:18563  _versionHash */\n      tag_193\n        /* \"https://github.com/Vectorized/solady/blob/main/src/tokens/ERC20.sol\":18551:18565  _versionHash() */\n      jump\t// in\n    tag_265:\n        /* \"https://github.com/Vectorized/solady/blob/main/src/tokens/ERC20.sol\":18529:18565  bytes32 versionHash = _versionHash() */\n      swap1\n      pop\n        /* \"https://github.com/Vectorized/solady/blob/main/src/tokens/ERC20.sol\":18733:18741  deadline */\n      dup6\n        /* \"https://github.com/Vectorized/solady/blob/main/src/tokens/ERC20.sol\":18720:18731  timestamp() */\n      timestamp\n        /* \"https://github.com/Vectorized/solady/blob/main/src/tokens/ERC20.sol\":18717:18742  gt(timestamp(), deadline) */\n      gt\n        /* \"https://github.com/Vectorized/solady/blob/main/src/tokens/ERC20.sol\":18714:18856  if gt(timestamp(), deadline) {... */\n      iszero\n      tag_266\n      jumpi\n        /* \"https://github.com/Vectorized/solady/blob/main/src/tokens/ERC20.sol\":18774:18784  0x1a15a3cc */\n      0x1a15a3cc\n        /* \"https://github.com/Vectorized/solady/blob/main/src/tokens/ERC20.sol\":18768:18772  0x00 */\n      0x00\n        /* \"https://github.com/Vectorized/solady/blob/main/src/tokens/ERC20.sol\":18761:18785  mstore(0x00, 0x1a15a3cc) */\n      mstore\n        /* \"https://github.com/Vectorized/solady/blob/main/src/tokens/ERC20.sol\":18837:18841  0x04 */\n      0x04\n        /* \"https://github.com/Vectorized/solady/blob/main/src/tokens/ERC20.sol\":18831:18835  0x1c */\n      0x1c\n        /* \"https://github.com/Vectorized/solady/blob/main/src/tokens/ERC20.sol\":18824:18842  revert(0x1c, 0x04) */\n      revert\n        /* \"https://github.com/Vectorized/solady/blob/main/src/tokens/ERC20.sol\":18714:18856  if gt(timestamp(), deadline) {... */\n    tag_266:\n        /* \"https://github.com/Vectorized/solady/blob/main/src/tokens/ERC20.sol\":18884:18888  0x40 */\n      0x40\n        /* \"https://github.com/Vectorized/solady/blob/main/src/tokens/ERC20.sol\":18878:18889  mload(0x40) */\n      mload\n        /* \"https://github.com/Vectorized/solady/blob/main/src/tokens/ERC20.sol\":19000:19005  owner */\n      dup10\n        /* \"https://github.com/Vectorized/solady/blob/main/src/tokens/ERC20.sol\":18996:18998  96 */\n      0x60\n        /* \"https://github.com/Vectorized/solady/blob/main/src/tokens/ERC20.sol\":18992:19006  shl(96, owner) */\n      shl\n        /* \"https://github.com/Vectorized/solady/blob/main/src/tokens/ERC20.sol\":18988:18990  96 */\n      0x60\n        /* \"https://github.com/Vectorized/solady/blob/main/src/tokens/ERC20.sol\":18984:19007  shr(96, shl(96, owner)) */\n      shr\n        /* \"https://github.com/Vectorized/solady/blob/main/src/tokens/ERC20.sol\":18975:19007  owner := shr(96, shl(96, owner)) */\n      swap10\n      pop\n        /* \"https://github.com/Vectorized/solady/blob/main/src/tokens/ERC20.sol\":19047:19054  spender */\n      dup9\n        /* \"https://github.com/Vectorized/solady/blob/main/src/tokens/ERC20.sol\":19043:19045  96 */\n      0x60\n        /* \"https://github.com/Vectorized/solady/blob/main/src/tokens/ERC20.sol\":19039:19055  shl(96, spender) */\n      shl\n        /* \"https://github.com/Vectorized/solady/blob/main/src/tokens/ERC20.sol\":19035:19037  96 */\n      0x60\n        /* \"https://github.com/Vectorized/solady/blob/main/src/tokens/ERC20.sol\":19031:19056  shr(96, shl(96, spender)) */\n      shr\n        /* \"https://github.com/Vectorized/solady/blob/main/src/tokens/ERC20.sol\":19020:19056  spender := shr(96, shl(96, spender)) */\n      swap9\n      pop\n        /* \"https://github.com/Vectorized/solady/blob/main/src/tokens/ERC20.sol\":19140:19179  _NONCES_SLOT_SEED_WITH_SIGNATURE_PREFIX */\n      0x383775081901\n        /* \"https://github.com/Vectorized/solady/blob/main/src/tokens/ERC20.sol\":19134:19138  0x0e */\n      0x0e\n        /* \"https://github.com/Vectorized/solady/blob/main/src/tokens/ERC20.sol\":19127:19180  mstore(0x0e, _NONCES_SLOT_SEED_WITH_SIGNATURE_PREFIX) */\n      mstore\n        /* \"https://github.com/Vectorized/solady/blob/main/src/tokens/ERC20.sol\":19206:19211  owner */\n      dup10\n        /* \"https://github.com/Vectorized/solady/blob/main/src/tokens/ERC20.sol\":19200:19204  0x00 */\n      0x00\n        /* \"https://github.com/Vectorized/solady/blob/main/src/tokens/ERC20.sol\":19193:19212  mstore(0x00, owner) */\n      mstore\n        /* \"https://github.com/Vectorized/solady/blob/main/src/tokens/ERC20.sol\":19258:19262  0x20 */\n      0x20\n        /* \"https://github.com/Vectorized/solady/blob/main/src/tokens/ERC20.sol\":19252:19256  0x0c */\n      0x0c\n        /* \"https://github.com/Vectorized/solady/blob/main/src/tokens/ERC20.sol\":19242:19263  keccak256(0x0c, 0x20) */\n      keccak256\n        /* \"https://github.com/Vectorized/solady/blob/main/src/tokens/ERC20.sol\":19300:19309  nonceSlot */\n      dup1\n        /* \"https://github.com/Vectorized/solady/blob/main/src/tokens/ERC20.sol\":19294:19310  sload(nonceSlot) */\n      sload\n        /* \"https://github.com/Vectorized/solady/blob/main/src/tokens/ERC20.sol\":19378:19394  _DOMAIN_TYPEHASH */\n      0x8b73c3c69bb8fe3d512ecc4cf759cc79239f7b179b0ffacaa9a75d522b39400f\n        /* \"https://github.com/Vectorized/solady/blob/main/src/tokens/ERC20.sol\":19375:19376  m */\n      dup4\n        /* \"https://github.com/Vectorized/solady/blob/main/src/tokens/ERC20.sol\":19368:19395  mstore(m, _DOMAIN_TYPEHASH) */\n      mstore\n        /* \"https://github.com/Vectorized/solady/blob/main/src/tokens/ERC20.sol\":19429:19437  nameHash */\n      dup5\n        /* \"https://github.com/Vectorized/solady/blob/main/src/tokens/ERC20.sol\":19422:19426  0x20 */\n      0x20\n        /* \"https://github.com/Vectorized/solady/blob/main/src/tokens/ERC20.sol\":19419:19420  m */\n      dup5\n        /* \"https://github.com/Vectorized/solady/blob/main/src/tokens/ERC20.sol\":19415:19427  add(m, 0x20) */\n      add\n        /* \"https://github.com/Vectorized/solady/blob/main/src/tokens/ERC20.sol\":19408:19438  mstore(add(m, 0x20), nameHash) */\n      mstore\n        /* \"https://github.com/Vectorized/solady/blob/main/src/tokens/ERC20.sol\":19472:19483  versionHash */\n      dup4\n        /* \"https://github.com/Vectorized/solady/blob/main/src/tokens/ERC20.sol\":19465:19469  0x40 */\n      0x40\n        /* \"https://github.com/Vectorized/solady/blob/main/src/tokens/ERC20.sol\":19462:19463  m */\n      dup5\n        /* \"https://github.com/Vectorized/solady/blob/main/src/tokens/ERC20.sol\":19458:19470  add(m, 0x40) */\n      add\n        /* \"https://github.com/Vectorized/solady/blob/main/src/tokens/ERC20.sol\":19451:19484  mstore(add(m, 0x40), versionHash) */\n      mstore\n        /* \"https://github.com/Vectorized/solady/blob/main/src/tokens/ERC20.sol\":19518:19527  chainid() */\n      chainid\n        /* \"https://github.com/Vectorized/solady/blob/main/src/tokens/ERC20.sol\":19511:19515  0x60 */\n      0x60\n        /* \"https://github.com/Vectorized/solady/blob/main/src/tokens/ERC20.sol\":19508:19509  m */\n      dup5\n        /* \"https://github.com/Vectorized/solady/blob/main/src/tokens/ERC20.sol\":19504:19516  add(m, 0x60) */\n      add\n        /* \"https://github.com/Vectorized/solady/blob/main/src/tokens/ERC20.sol\":19497:19528  mstore(add(m, 0x60), chainid()) */\n      mstore\n        /* \"https://github.com/Vectorized/solady/blob/main/src/tokens/ERC20.sol\":19562:19571  address() */\n      address\n        /* \"https://github.com/Vectorized/solady/blob/main/src/tokens/ERC20.sol\":19555:19559  0x80 */\n      0x80\n        /* \"https://github.com/Vectorized/solady/blob/main/src/tokens/ERC20.sol\":19552:19553  m */\n      dup5\n        /* \"https://github.com/Vectorized/solady/blob/main/src/tokens/ERC20.sol\":19548:19560  add(m, 0x80) */\n      add\n        /* \"https://github.com/Vectorized/solady/blob/main/src/tokens/ERC20.sol\":19541:19572  mstore(add(m, 0x80), address()) */\n      mstore\n        /* \"https://github.com/Vectorized/solady/blob/main/src/tokens/ERC20.sol\":19611:19615  0xa0 */\n      0xa0\n        /* \"https://github.com/Vectorized/solady/blob/main/src/tokens/ERC20.sol\":19608:19609  m */\n      dup4\n        /* \"https://github.com/Vectorized/solady/blob/main/src/tokens/ERC20.sol\":19598:19616  keccak256(m, 0xa0) */\n      keccak256\n        /* \"https://github.com/Vectorized/solady/blob/main/src/tokens/ERC20.sol\":19592:19596  0x2e */\n      0x2e\n        /* \"https://github.com/Vectorized/solady/blob/main/src/tokens/ERC20.sol\":19585:19617  mstore(0x2e, keccak256(m, 0xa0)) */\n      mstore\n        /* \"https://github.com/Vectorized/solady/blob/main/src/tokens/ERC20.sol\":19680:19696  _PERMIT_TYPEHASH */\n      0x6e71edae12b1b97f4d1f60370fef10105fa2faae0126114a169c64845d6126c9\n        /* \"https://github.com/Vectorized/solady/blob/main/src/tokens/ERC20.sol\":19677:19678  m */\n      dup4\n        /* \"https://github.com/Vectorized/solady/blob/main/src/tokens/ERC20.sol\":19670:19697  mstore(m, _PERMIT_TYPEHASH) */\n      mstore\n        /* \"https://github.com/Vectorized/solady/blob/main/src/tokens/ERC20.sol\":19731:19736  owner */\n      dup12\n        /* \"https://github.com/Vectorized/solady/blob/main/src/tokens/ERC20.sol\":19724:19728  0x20 */\n      0x20\n        /* \"https://github.com/Vectorized/solady/blob/main/src/tokens/ERC20.sol\":19721:19722  m */\n      dup5\n        /* \"https://github.com/Vectorized/solady/blob/main/src/tokens/ERC20.sol\":19717:19729  add(m, 0x20) */\n      add\n        /* \"https://github.com/Vectorized/solady/blob/main/src/tokens/ERC20.sol\":19710:19737  mstore(add(m, 0x20), owner) */\n      mstore\n        /* \"https://github.com/Vectorized/solady/blob/main/src/tokens/ERC20.sol\":19771:19778  spender */\n      dup11\n        /* \"https://github.com/Vectorized/solady/blob/main/src/tokens/ERC20.sol\":19764:19768  0x40 */\n      0x40\n        /* \"https://github.com/Vectorized/solady/blob/main/src/tokens/ERC20.sol\":19761:19762  m */\n      dup5\n        /* \"https://github.com/Vectorized/solady/blob/main/src/tokens/ERC20.sol\":19757:19769  add(m, 0x40) */\n      add\n        /* \"https://github.com/Vectorized/solady/blob/main/src/tokens/ERC20.sol\":19750:19779  mstore(add(m, 0x40), spender) */\n      mstore\n        /* \"https://github.com/Vectorized/solady/blob/main/src/tokens/ERC20.sol\":19813:19818  value */\n      dup10\n        /* \"https://github.com/Vectorized/solady/blob/main/src/tokens/ERC20.sol\":19806:19810  0x60 */\n      0x60\n        /* \"https://github.com/Vectorized/solady/blob/main/src/tokens/ERC20.sol\":19803:19804  m */\n      dup5\n        /* \"https://github.com/Vectorized/solady/blob/main/src/tokens/ERC20.sol\":19799:19811  add(m, 0x60) */\n      add\n        /* \"https://github.com/Vectorized/solady/blob/main/src/tokens/ERC20.sol\":19792:19819  mstore(add(m, 0x60), value) */\n      mstore\n        /* \"https://github.com/Vectorized/solady/blob/main/src/tokens/ERC20.sol\":19853:19863  nonceValue */\n      dup1\n        /* \"https://github.com/Vectorized/solady/blob/main/src/tokens/ERC20.sol\":19846:19850  0x80 */\n      0x80\n        /* \"https://github.com/Vectorized/solady/blob/main/src/tokens/ERC20.sol\":19843:19844  m */\n      dup5\n        /* \"https://github.com/Vectorized/solady/blob/main/src/tokens/ERC20.sol\":19839:19851  add(m, 0x80) */\n      add\n        /* \"https://github.com/Vectorized/solady/blob/main/src/tokens/ERC20.sol\":19832:19864  mstore(add(m, 0x80), nonceValue) */\n      mstore\n        /* \"https://github.com/Vectorized/solady/blob/main/src/tokens/ERC20.sol\":19898:19906  deadline */\n      dup9\n        /* \"https://github.com/Vectorized/solady/blob/main/src/tokens/ERC20.sol\":19891:19895  0xa0 */\n      0xa0\n        /* \"https://github.com/Vectorized/solady/blob/main/src/tokens/ERC20.sol\":19888:19889  m */\n      dup5\n        /* \"https://github.com/Vectorized/solady/blob/main/src/tokens/ERC20.sol\":19884:19896  add(m, 0xa0) */\n      add\n        /* \"https://github.com/Vectorized/solady/blob/main/src/tokens/ERC20.sol\":19877:19907  mstore(add(m, 0xa0), deadline) */\n      mstore\n        /* \"https://github.com/Vectorized/solady/blob/main/src/tokens/ERC20.sol\":19946:19950  0xc0 */\n      0xc0\n        /* \"https://github.com/Vectorized/solady/blob/main/src/tokens/ERC20.sol\":19943:19944  m */\n      dup4\n        /* \"https://github.com/Vectorized/solady/blob/main/src/tokens/ERC20.sol\":19933:19951  keccak256(m, 0xc0) */\n      keccak256\n        /* \"https://github.com/Vectorized/solady/blob/main/src/tokens/ERC20.sol\":19927:19931  0x4e */\n      0x4e\n        /* \"https://github.com/Vectorized/solady/blob/main/src/tokens/ERC20.sol\":19920:19952  mstore(0x4e, keccak256(m, 0xc0)) */\n      mstore\n        /* \"https://github.com/Vectorized/solady/blob/main/src/tokens/ERC20.sol\":20041:20045  0x42 */\n      0x42\n        /* \"https://github.com/Vectorized/solady/blob/main/src/tokens/ERC20.sol\":20035:20039  0x2c */\n      0x2c\n        /* \"https://github.com/Vectorized/solady/blob/main/src/tokens/ERC20.sol\":20025:20046  keccak256(0x2c, 0x42) */\n      keccak256\n        /* \"https://github.com/Vectorized/solady/blob/main/src/tokens/ERC20.sol\":20019:20023  0x00 */\n      0x00\n        /* \"https://github.com/Vectorized/solady/blob/main/src/tokens/ERC20.sol\":20012:20047  mstore(0x00, keccak256(0x2c, 0x42)) */\n      mstore\n        /* \"https://github.com/Vectorized/solady/blob/main/src/tokens/ERC20.sol\":20083:20084  v */\n      dup8\n        /* \"https://github.com/Vectorized/solady/blob/main/src/tokens/ERC20.sol\":20077:20081  0xff */\n      0xff\n        /* \"https://github.com/Vectorized/solady/blob/main/src/tokens/ERC20.sol\":20073:20085  and(0xff, v) */\n      and\n        /* \"https://github.com/Vectorized/solady/blob/main/src/tokens/ERC20.sol\":20067:20071  0x20 */\n      0x20\n        /* \"https://github.com/Vectorized/solady/blob/main/src/tokens/ERC20.sol\":20060:20086  mstore(0x20, and(0xff, v)) */\n      mstore\n        /* \"https://github.com/Vectorized/solady/blob/main/src/tokens/ERC20.sol\":20112:20113  r */\n      dup7\n        /* \"https://github.com/Vectorized/solady/blob/main/src/tokens/ERC20.sol\":20106:20110  0x40 */\n      0x40\n        /* \"https://github.com/Vectorized/solady/blob/main/src/tokens/ERC20.sol\":20099:20114  mstore(0x40, r) */\n      mstore\n        /* \"https://github.com/Vectorized/solady/blob/main/src/tokens/ERC20.sol\":20140:20141  s */\n      dup6\n        /* \"https://github.com/Vectorized/solady/blob/main/src/tokens/ERC20.sol\":20134:20138  0x60 */\n      0x60\n        /* \"https://github.com/Vectorized/solady/blob/main/src/tokens/ERC20.sol\":20127:20142  mstore(0x60, s) */\n      mstore\n        /* \"https://github.com/Vectorized/solady/blob/main/src/tokens/ERC20.sol\":20203:20207  0x20 */\n      0x20\n        /* \"https://github.com/Vectorized/solady/blob/main/src/tokens/ERC20.sol\":20197:20201  0x20 */\n      dup1\n        /* \"https://github.com/Vectorized/solady/blob/main/src/tokens/ERC20.sol\":20191:20195  0x80 */\n      0x80\n        /* \"https://github.com/Vectorized/solady/blob/main/src/tokens/ERC20.sol\":20185:20189  0x00 */\n      0x00\n        /* \"https://github.com/Vectorized/solady/blob/main/src/tokens/ERC20.sol\":20182:20183  1 */\n      0x01\n        /* \"https://github.com/Vectorized/solady/blob/main/src/tokens/ERC20.sol\":20175:20180  gas() */\n      gas\n        /* \"https://github.com/Vectorized/solady/blob/main/src/tokens/ERC20.sol\":20164:20208  staticcall(gas(), 1, 0x00, 0x80, 0x20, 0x20) */\n      staticcall\n        /* \"https://github.com/Vectorized/solady/blob/main/src/tokens/ERC20.sol\":20624:20629  owner */\n      dup13\n        /* \"https://github.com/Vectorized/solady/blob/main/src/tokens/ERC20.sol\":20605:20621  returndatasize() */\n      returndatasize\n        /* \"https://github.com/Vectorized/solady/blob/main/src/tokens/ERC20.sol\":20599:20622  mload(returndatasize()) */\n      mload\n        /* \"https://github.com/Vectorized/solady/blob/main/src/tokens/ERC20.sol\":20596:20630  eq(mload(returndatasize()), owner) */\n      eq\n        /* \"https://github.com/Vectorized/solady/blob/main/src/tokens/ERC20.sol\":20586:20745  if iszero(eq(mload(returndatasize()), owner)) {... */\n      tag_267\n      jumpi\n        /* \"https://github.com/Vectorized/solady/blob/main/src/tokens/ERC20.sol\":20663:20673  0xddafbaef */\n      0xddafbaef\n        /* \"https://github.com/Vectorized/solady/blob/main/src/tokens/ERC20.sol\":20657:20661  0x00 */\n      0x00\n        /* \"https://github.com/Vectorized/solady/blob/main/src/tokens/ERC20.sol\":20650:20674  mstore(0x00, 0xddafbaef) */\n      mstore\n        /* \"https://github.com/Vectorized/solady/blob/main/src/tokens/ERC20.sol\":20726:20730  0x04 */\n      0x04\n        /* \"https://github.com/Vectorized/solady/blob/main/src/tokens/ERC20.sol\":20720:20724  0x1c */\n      0x1c\n        /* \"https://github.com/Vectorized/solady/blob/main/src/tokens/ERC20.sol\":20713:20731  revert(0x1c, 0x04) */\n      revert\n        /* \"https://github.com/Vectorized/solady/blob/main/src/tokens/ERC20.sol\":20586:20745  if iszero(eq(mload(returndatasize()), owner)) {... */\n    tag_267:\n        /* \"https://github.com/Vectorized/solady/blob/main/src/tokens/ERC20.sol\":20846:20847  t */\n      dup1\n        /* \"https://github.com/Vectorized/solady/blob/main/src/tokens/ERC20.sol\":20834:20844  nonceValue */\n      dup3\n        /* \"https://github.com/Vectorized/solady/blob/main/src/tokens/ERC20.sol\":20830:20848  add(nonceValue, t) */\n      add\n        /* \"https://github.com/Vectorized/solady/blob/main/src/tokens/ERC20.sol\":20819:20828  nonceSlot */\n      dup4\n        /* \"https://github.com/Vectorized/solady/blob/main/src/tokens/ERC20.sol\":20812:20849  sstore(nonceSlot, add(nonceValue, t)) */\n      sstore\n        /* \"https://github.com/Vectorized/solady/blob/main/src/tokens/ERC20.sol\":21060:21067  spender */\n      dup12\n        /* \"https://github.com/Vectorized/solady/blob/main/src/tokens/ERC20.sol\":21037:21057  _ALLOWANCE_SLOT_SEED */\n      0x7f5e9f20\n        /* \"https://github.com/Vectorized/solady/blob/main/src/tokens/ERC20.sol\":21032:21035  160 */\n      0xa0\n        /* \"https://github.com/Vectorized/solady/blob/main/src/tokens/ERC20.sol\":21028:21058  shl(160, _ALLOWANCE_SLOT_SEED) */\n      shl\n        /* \"https://github.com/Vectorized/solady/blob/main/src/tokens/ERC20.sol\":21025:21068  or(shl(160, _ALLOWANCE_SLOT_SEED), spender) */\n      or\n        /* \"https://github.com/Vectorized/solady/blob/main/src/tokens/ERC20.sol\":21019:21023  0x40 */\n      0x40\n        /* \"https://github.com/Vectorized/solady/blob/main/src/tokens/ERC20.sol\":21012:21069  mstore(0x40, or(shl(160, _ALLOWANCE_SLOT_SEED), spender)) */\n      mstore\n        /* \"https://github.com/Vectorized/solady/blob/main/src/tokens/ERC20.sol\":21112:21117  value */\n      dup11\n        /* \"https://github.com/Vectorized/solady/blob/main/src/tokens/ERC20.sol\":21105:21109  0x34 */\n      0x34\n        /* \"https://github.com/Vectorized/solady/blob/main/src/tokens/ERC20.sol\":21099:21103  0x2c */\n      0x2c\n        /* \"https://github.com/Vectorized/solady/blob/main/src/tokens/ERC20.sol\":21089:21110  keccak256(0x2c, 0x34) */\n      keccak256\n        /* \"https://github.com/Vectorized/solady/blob/main/src/tokens/ERC20.sol\":21082:21118  sstore(keccak256(0x2c, 0x34), value) */\n      sstore\n        /* \"https://github.com/Vectorized/solady/blob/main/src/tokens/ERC20.sol\":21232:21239  spender */\n      dup12\n        /* \"https://github.com/Vectorized/solady/blob/main/src/tokens/ERC20.sol\":21225:21230  owner */\n      dup14\n        /* \"https://github.com/Vectorized/solady/blob/main/src/tokens/ERC20.sol\":21198:21223  _APPROVAL_EVENT_SIGNATURE */\n      0x8c5be1e5ebec7d5bd14f71427d1e84f3dd0314c0f7b2291e5b200ac8c7c3b925\n        /* \"https://github.com/Vectorized/solady/blob/main/src/tokens/ERC20.sol\":21192:21196  0x20 */\n      0x20\n        /* \"https://github.com/Vectorized/solady/blob/main/src/tokens/ERC20.sol\":21185:21189  0x60 */\n      0x60\n        /* \"https://github.com/Vectorized/solady/blob/main/src/tokens/ERC20.sol\":21182:21183  m */\n      dup9\n        /* \"https://github.com/Vectorized/solady/blob/main/src/tokens/ERC20.sol\":21178:21190  add(m, 0x60) */\n      add\n        /* \"https://github.com/Vectorized/solady/blob/main/src/tokens/ERC20.sol\":21173:21240  log3(add(m, 0x60), 0x20, _APPROVAL_EVENT_SIGNATURE, owner, spender) */\n      log3\n        /* \"https://github.com/Vectorized/solady/blob/main/src/tokens/ERC20.sol\":21266:21267  m */\n      dup4\n        /* \"https://github.com/Vectorized/solady/blob/main/src/tokens/ERC20.sol\":21260:21264  0x40 */\n      0x40\n        /* \"https://github.com/Vectorized/solady/blob/main/src/tokens/ERC20.sol\":21253:21268  mstore(0x40, m) */\n      mstore\n        /* \"https://github.com/Vectorized/solady/blob/main/src/tokens/ERC20.sol\":21330:21331  0 */\n      0x00\n        /* \"https://github.com/Vectorized/solady/blob/main/src/tokens/ERC20.sol\":21324:21328  0x60 */\n      0x60\n        /* \"https://github.com/Vectorized/solady/blob/main/src/tokens/ERC20.sol\":21317:21332  mstore(0x60, 0) */\n      mstore\n        /* \"https://github.com/Vectorized/solady/blob/main/src/tokens/ERC20.sol\":18627:21371  {... */\n      pop\n      pop\n      pop\n      pop\n      pop\n      pop\n        /* \"https://github.com/Vectorized/solady/blob/main/src/tokens/ERC20.sol\":17661:21377  function permit(... */\n      pop\n      pop\n      pop\n      pop\n      pop\n      pop\n      pop\n      jump\t// out\n        /* \"https://github.com/Vectorized/solady/blob/main/src/tokens/ERC20.sol\":7549:8044  function allowance(address owner, address spender)... */\n    tag_134:\n        /* \"https://github.com/Vectorized/solady/blob/main/src/tokens/ERC20.sol\":7661:7675  uint256 result */\n      0x00\n        /* \"https://github.com/Vectorized/solady/blob/main/src/tokens/ERC20.sol\":7695:7726  _givePermit2InfiniteAllowance() */\n      tag_269\n        /* \"https://github.com/Vectorized/solady/blob/main/src/tokens/ERC20.sol\":7695:7724  _givePermit2InfiniteAllowance */\n      tag_158\n        /* \"https://github.com/Vectorized/solady/blob/main/src/tokens/ERC20.sol\":7695:7726  _givePermit2InfiniteAllowance() */\n      jump\t// in\n    tag_269:\n        /* \"https://github.com/Vectorized/solady/blob/main/src/tokens/ERC20.sol\":7691:7802  if (_givePermit2InfiniteAllowance()) {... */\n      iszero\n      tag_270\n      jumpi\n        /* \"https://github.com/Vectorized/solady/blob/main/src/tokens/ERC20.sol\":5869:5911  0x000000000022D473030F116dDEE9F6B43aC78BA3 */\n      0x22d473030f116ddee9f6b43ac78ba3\n        /* \"https://github.com/Vectorized/solady/blob/main/src/tokens/ERC20.sol\":7746:7765  spender == _PERMIT2 */\n      0xffffffffffffffffffffffffffffffffffffffff\n      and\n        /* \"https://github.com/Vectorized/solady/blob/main/src/tokens/ERC20.sol\":7746:7753  spender */\n      dup3\n        /* \"https://github.com/Vectorized/solady/blob/main/src/tokens/ERC20.sol\":7746:7765  spender == _PERMIT2 */\n      0xffffffffffffffffffffffffffffffffffffffff\n      and\n      sub\n        /* \"https://github.com/Vectorized/solady/blob/main/src/tokens/ERC20.sol\":7742:7791  if (spender == _PERMIT2) return type(uint256).max */\n      tag_271\n      jumpi\n        /* \"https://github.com/Vectorized/solady/blob/main/src/tokens/ERC20.sol\":7774:7791  type(uint256).max */\n      0xffffffffffffffffffffffffffffffffffffffffffffffffffffffffffffffff\n        /* \"https://github.com/Vectorized/solady/blob/main/src/tokens/ERC20.sol\":7767:7791  return type(uint256).max */\n      swap1\n      pop\n      jump(tag_268)\n        /* \"https://github.com/Vectorized/solady/blob/main/src/tokens/ERC20.sol\":7742:7791  if (spender == _PERMIT2) return type(uint256).max */\n    tag_271:\n        /* \"https://github.com/Vectorized/solady/blob/main/src/tokens/ERC20.sol\":7691:7802  if (_givePermit2InfiniteAllowance()) {... */\n    tag_270:\n        /* \"https://github.com/Vectorized/solady/blob/main/src/tokens/ERC20.sol\":7890:7897  spender */\n      dup2\n        /* \"https://github.com/Vectorized/solady/blob/main/src/tokens/ERC20.sol\":7884:7888  0x20 */\n      0x20\n        /* \"https://github.com/Vectorized/solady/blob/main/src/tokens/ERC20.sol\":7877:7898  mstore(0x20, spender) */\n      mstore\n        /* \"https://github.com/Vectorized/solady/blob/main/src/tokens/ERC20.sol\":7924:7944  _ALLOWANCE_SLOT_SEED */\n      0x7f5e9f20\n        /* \"https://github.com/Vectorized/solady/blob/main/src/tokens/ERC20.sol\":7918:7922  0x0c */\n      0x0c\n        /* \"https://github.com/Vectorized/solady/blob/main/src/tokens/ERC20.sol\":7911:7945  mstore(0x0c, _ALLOWANCE_SLOT_SEED) */\n      mstore\n        /* \"https://github.com/Vectorized/solady/blob/main/src/tokens/ERC20.sol\":7971:7976  owner */\n      dup3\n        /* \"https://github.com/Vectorized/solady/blob/main/src/tokens/ERC20.sol\":7965:7969  0x00 */\n      0x00\n        /* \"https://github.com/Vectorized/solady/blob/main/src/tokens/ERC20.sol\":7958:7977  mstore(0x00, owner) */\n      mstore\n        /* \"https://github.com/Vectorized/solady/blob/main/src/tokens/ERC20.sol\":8022:8026  0x34 */\n      0x34\n        /* \"https://github.com/Vectorized/solady/blob/main/src/tokens/ERC20.sol\":8016:8020  0x0c */\n      0x0c\n        /* \"https://github.com/Vectorized/solady/blob/main/src/tokens/ERC20.sol\":8006:8027  keccak256(0x0c, 0x34) */\n      keccak256\n        /* \"https://github.com/Vectorized/solady/blob/main/src/tokens/ERC20.sol\":8000:8028  sload(keccak256(0x0c, 0x34)) */\n      sload\n        /* \"https://github.com/Vectorized/solady/blob/main/src/tokens/ERC20.sol\":7990:8028  result := sload(keccak256(0x0c, 0x34)) */\n      swap1\n      pop\n        /* \"https://github.com/Vectorized/solady/blob/main/src/tokens/ERC20.sol\":7549:8044  function allowance(address owner, address spender)... */\n    tag_268:\n      swap3\n      swap2\n      pop\n      pop\n      jump\t// out\n        /* \"src/PinusTokenCore.sol\":3270:3401  function previewDeposit(uint assets) public view returns (uint) {... */\n    tag_139:\n        /* \"src/PinusTokenCore.sol\":3328:3332  uint */\n      0x00\n        /* \"src/PinusTokenCore.sol\":3386:3392  assets */\n      dup2\n        /* \"src/PinusTokenCore.sol\":1646:1654  .1 ether */\n      0x016345785d8a0000\n        /* \"src/PinusTokenCore.sol\":3374:3392  ASSET_CAP + assets */\n      tag_273\n      swap2\n      swap1\n      tag_196\n      jump\t// in\n    tag_273:\n        /* \"src/PinusTokenCore.sol\":3364:3370  assets */\n      dup3\n        /* \"src/PinusTokenCore.sol\":3352:3361  maxMint() */\n      tag_274\n        /* \"src/PinusTokenCore.sol\":3352:3359  maxMint */\n      tag_86\n        /* \"src/PinusTokenCore.sol\":3352:3361  maxMint() */\n      jump\t// in\n    tag_274:\n        /* \"src/PinusTokenCore.sol\":3352:3370  maxMint() * assets */\n      tag_275\n      swap2\n      swap1\n      tag_199\n      jump\t// in\n    tag_275:\n        /* \"src/PinusTokenCore.sol\":3352:3393  maxMint() * assets / (ASSET_CAP + assets) */\n      tag_276\n      swap2\n      swap1\n      tag_201\n      jump\t// in\n    tag_276:\n        /* \"src/PinusTokenCore.sol\":3345:3393  return maxMint() * assets / (ASSET_CAP + assets) */\n      swap1\n      pop\n        /* \"src/PinusTokenCore.sol\":3270:3401  function previewDeposit(uint assets) public view returns (uint) {... */\n      swap2\n      swap1\n      pop\n      jump\t// out\n        /* \"@openzeppelin/contracts/access/Ownable.sol\":2543:2758  function transferOwnership(address newOwner) public virtual onlyOwner {... */\n    tag_144:\n        /* \"@openzeppelin/contracts/access/Ownable.sol\":1531:1544  _checkOwner() */\n      tag_278\n        /* \"@openzeppelin/contracts/access/Ownable.sol\":1531:1542  _checkOwner */\n      tag_163\n        /* \"@openzeppelin/contracts/access/Ownable.sol\":1531:1544  _checkOwner() */\n      jump\t// in\n    tag_278:\n        /* \"@openzeppelin/contracts/access/Ownable.sol\":2647:2648  0 */\n      0x00\n        /* \"@openzeppelin/contracts/access/Ownable.sol\":2627:2649  newOwner == address(0) */\n      0xffffffffffffffffffffffffffffffffffffffff\n      and\n        /* \"@openzeppelin/contracts/access/Ownable.sol\":2627:2635  newOwner */\n      dup2\n        /* \"@openzeppelin/contracts/access/Ownable.sol\":2627:2649  newOwner == address(0) */\n      0xffffffffffffffffffffffffffffffffffffffff\n      and\n      sub\n        /* \"@openzeppelin/contracts/access/Ownable.sol\":2623:2714  if (newOwner == address(0)) {... */\n      tag_280\n      jumpi\n        /* \"@openzeppelin/contracts/access/Ownable.sol\":2700:2701  0 */\n      0x00\n        /* \"@openzeppelin/contracts/access/Ownable.sol\":2672:2703  OwnableInvalidOwner(address(0)) */\n      mload(0x40)\n      0x1e4fbdf700000000000000000000000000000000000000000000000000000000\n      dup2\n      mstore\n      0x04\n      add\n      tag_281\n      swap2\n      swap1\n      tag_97\n      jump\t// in\n    tag_281:\n      mload(0x40)\n      dup1\n      swap2\n      sub\n      swap1\n      revert\n        /* \"@openzeppelin/contracts/access/Ownable.sol\":2623:2714  if (newOwner == address(0)) {... */\n    tag_280:\n        /* \"@openzeppelin/contracts/access/Ownable.sol\":2723:2751  _transferOwnership(newOwner) */\n      tag_282\n        /* \"@openzeppelin/contracts/access/Ownable.sol\":2742:2750  newOwner */\n      dup2\n        /* \"@openzeppelin/contracts/access/Ownable.sol\":2723:2741  _transferOwnership */\n      tag_208\n        /* \"@openzeppelin/contracts/access/Ownable.sol\":2723:2751  _transferOwnership(newOwner) */\n      jump\t// in\n    tag_282:\n        /* \"@openzeppelin/contracts/access/Ownable.sol\":2543:2758  function transferOwnership(address newOwner) public virtual onlyOwner {... */\n      pop\n      jump\t// out\n        /* \"src/PinusTokenCore.sol\":3409:3738  function deposit(address receiver) payable public returns (uint shares) {... */\n    tag_147:\n        /* \"src/PinusTokenCore.sol\":3468:3479  uint shares */\n      0x00\n        /* \"src/PinusTokenCore.sol\":3501:3526  previewDeposit(msg.value) */\n      tag_284\n        /* \"src/PinusTokenCore.sol\":3516:3525  msg.value */\n      callvalue\n        /* \"src/PinusTokenCore.sol\":3501:3515  previewDeposit */\n      tag_139\n        /* \"src/PinusTokenCore.sol\":3501:3526  previewDeposit(msg.value) */\n      jump\t// in\n    tag_284:\n        /* \"src/PinusTokenCore.sol\":3492:3526  shares = previewDeposit(msg.value) */\n      swap1\n      pop\n        /* \"src/PinusTokenCore.sol\":3599:3605  shares */\n      dup1\n        /* \"src/PinusTokenCore.sol\":3586:3597  totalMinted */\n      0x03\n      0x00\n        /* \"src/PinusTokenCore.sol\":3586:3605  totalMinted+=shares */\n      dup3\n      dup3\n      sload\n      tag_285\n      swap2\n      swap1\n      tag_196\n      jump\t// in\n    tag_285:\n      swap3\n      pop\n      pop\n      dup2\n      swap1\n      sstore\n      pop\n        /* \"src/PinusTokenCore.sol\":3616:3639  _mint(receiver, shares) */\n      tag_286\n        /* \"src/PinusTokenCore.sol\":3622:3630  receiver */\n      dup3\n        /* \"src/PinusTokenCore.sol\":3632:3638  shares */\n      dup3\n        /* \"src/PinusTokenCore.sol\":3616:3621  _mint */\n      tag_287\n        /* \"src/PinusTokenCore.sol\":3616:3639  _mint(receiver, shares) */\n      jump\t// in\n    tag_286:\n        /* \"src/PinusTokenCore.sol\":3704:3712  receiver */\n      dup2\n        /* \"src/PinusTokenCore.sol\":3685:3730  Deposit(msg.sender,receiver,msg.value,shares) */\n      0xffffffffffffffffffffffffffffffffffffffff\n      and\n        /* \"src/PinusTokenCore.sol\":3693:3703  msg.sender */\n      caller\n        /* \"src/PinusTokenCore.sol\":3685:3730  Deposit(msg.sender,receiver,msg.value,shares) */\n      0xffffffffffffffffffffffffffffffffffffffff\n      and\n      0xdcbc1c05240f31ff3ad067ef1ee35ce4997762752e3a095284754544f4c709d7\n        /* \"src/PinusTokenCore.sol\":3713:3722  msg.value */\n      callvalue\n        /* \"src/PinusTokenCore.sol\":3723:3729  shares */\n      dup5\n        /* \"src/PinusTokenCore.sol\":3685:3730  Deposit(msg.sender,receiver,msg.value,shares) */\n      mload(0x40)\n      tag_288\n      swap3\n      swap2\n      swap1\n      tag_252\n      jump\t// in\n    tag_288:\n      mload(0x40)\n      dup1\n      swap2\n      sub\n      swap1\n      log3\n        /* \"src/PinusTokenCore.sol\":3409:3738  function deposit(address receiver) payable public returns (uint shares) {... */\n      swap2\n      swap1\n      pop\n      jump\t// out\n        /* \"https://github.com/Vectorized/solady/blob/main/src/tokens/ERC20.sol\":30986:31093  function _givePermit2InfiniteAllowance() internal view virtual returns (bool) {... */\n    tag_158:\n        /* \"https://github.com/Vectorized/solady/blob/main/src/tokens/ERC20.sol\":31058:31062  bool */\n      0x00\n        /* \"https://github.com/Vectorized/solady/blob/main/src/tokens/ERC20.sol\":31081:31086  false */\n      0x00\n        /* \"https://github.com/Vectorized/solady/blob/main/src/tokens/ERC20.sol\":31074:31086  return false */\n      swap1\n      pop\n        /* \"https://github.com/Vectorized/solady/blob/main/src/tokens/ERC20.sol\":30986:31093  function _givePermit2InfiniteAllowance() internal view virtual returns (bool) {... */\n      swap1\n      jump\t// out\n        /* \"@openzeppelin/contracts/access/Ownable.sol\":1796:1958  function _checkOwner() internal view virtual {... */\n    tag_163:\n        /* \"@openzeppelin/contracts/access/Ownable.sol\":1866:1878  _msgSender() */\n      tag_291\n        /* \"@openzeppelin/contracts/access/Ownable.sol\":1866:1876  _msgSender */\n      tag_292\n        /* \"@openzeppelin/contracts/access/Ownable.sol\":1866:1878  _msgSender() */\n      jump\t// in\n    tag_291:\n        /* \"@openzeppelin/contracts/access/Ownable.sol\":1855:1878  owner() != _msgSender() */\n      0xffffffffffffffffffffffffffffffffffffffff\n      and\n        /* \"@openzeppelin/contracts/access/Ownable.sol\":1855:1862  owner() */\n      tag_293\n        /* \"@openzeppelin/contracts/access/Ownable.sol\":1855:1860  owner */\n      tag_95\n        /* \"@openzeppelin/contracts/access/Ownable.sol\":1855:1862  owner() */\n      jump\t// in\n    tag_293:\n        /* \"@openzeppelin/contracts/access/Ownable.sol\":1855:1878  owner() != _msgSender() */\n      0xffffffffffffffffffffffffffffffffffffffff\n      and\n      eq\n        /* \"@openzeppelin/contracts/access/Ownable.sol\":1851:1952  if (owner() != _msgSender()) {... */\n      tag_294\n      jumpi\n        /* \"@openzeppelin/contracts/access/Ownable.sol\":1928:1940  _msgSender() */\n      tag_295\n        /* \"@openzeppelin/contracts/access/Ownable.sol\":1928:1938  _msgSender */\n      tag_292\n        /* \"@openzeppelin/contracts/access/Ownable.sol\":1928:1940  _msgSender() */\n      jump\t// in\n    tag_295:\n        /* \"@openzeppelin/contracts/access/Ownable.sol\":1901:1941  OwnableUnauthorizedAccount(_msgSender()) */\n      mload(0x40)\n      0x118cdaa700000000000000000000000000000000000000000000000000000000\n      dup2\n      mstore\n      0x04\n      add\n      tag_296\n      swap2\n      swap1\n      tag_97\n      jump\t// in\n    tag_296:\n      mload(0x40)\n      dup1\n      swap2\n      sub\n      swap1\n      revert\n        /* \"@openzeppelin/contracts/access/Ownable.sol\":1851:1952  if (owner() != _msgSender()) {... */\n    tag_294:\n        /* \"@openzeppelin/contracts/access/Ownable.sol\":1796:1958  function _checkOwner() internal view virtual {... */\n      jump\t// out\n        /* \"https://github.com/Vectorized/solady/blob/main/src/tokens/ERC20.sol\":30066:30157  function _beforeTokenTransfer(address from, address to, uint256 amount) internal virtual {} */\n    tag_173:\n      pop\n      pop\n      pop\n      jump\t// out\n        /* \"https://github.com/Vectorized/solady/blob/main/src/tokens/ERC20.sol\":30269:30359  function _afterTokenTransfer(address from, address to, uint256 amount) internal virtual {} */\n    tag_185:\n      pop\n      pop\n      pop\n      jump\t// out\n        /* \"https://github.com/Vectorized/solady/blob/main/src/tokens/ERC20.sol\":16349:16427  function _constantNameHash() internal view virtual returns (bytes32 result) {} */\n    tag_189:\n        /* \"https://github.com/Vectorized/solady/blob/main/src/tokens/ERC20.sol\":16409:16423  bytes32 result */\n      0x00\n        /* \"https://github.com/Vectorized/solady/blob/main/src/tokens/ERC20.sol\":16349:16427  function _constantNameHash() internal view virtual returns (bytes32 result) {} */\n      swap1\n      jump\t// out\n        /* \"https://github.com/Vectorized/solady/blob/main/src/tokens/ERC20.sol\":16501:16619  function _versionHash() internal view virtual returns (bytes32 result) {... */\n    tag_193:\n        /* \"https://github.com/Vectorized/solady/blob/main/src/tokens/ERC20.sol\":16556:16570  bytes32 result */\n      0x00\n        /* \"https://github.com/Vectorized/solady/blob/main/src/tokens/ERC20.sol\":5177:5243  0xc89efdaa54c0f20c7adf612882df0950f5a951637e0307cdcb4c672f298b8bc6 */\n      0xc89efdaa54c0f20c7adf612882df0950f5a951637e0307cdcb4c672f298b8bc6\n        /* \"https://github.com/Vectorized/solady/blob/main/src/tokens/ERC20.sol\":16591:16612  _DEFAULT_VERSION_HASH */\n      0x00\n      shl\n        /* \"https://github.com/Vectorized/solady/blob/main/src/tokens/ERC20.sol\":16582:16612  result = _DEFAULT_VERSION_HASH */\n      swap1\n      pop\n        /* \"https://github.com/Vectorized/solady/blob/main/src/tokens/ERC20.sol\":16501:16619  function _versionHash() internal view virtual returns (bytes32 result) {... */\n      swap1\n      jump\t// out\n        /* \"@openzeppelin/contracts/access/Ownable.sol\":2912:3099  function _transferOwnership(address newOwner) internal virtual {... */\n    tag_208:\n        /* \"@openzeppelin/contracts/access/Ownable.sol\":2985:3001  address oldOwner */\n      0x00\n        /* \"@openzeppelin/contracts/access/Ownable.sol\":3004:3010  _owner */\n      0x00\n      0x00\n      swap1\n      sload\n      swap1\n      0x0100\n      exp\n      swap1\n      div\n      0xffffffffffffffffffffffffffffffffffffffff\n      and\n        /* \"@openzeppelin/contracts/access/Ownable.sol\":2985:3010  address oldOwner = _owner */\n      swap1\n      pop\n        /* \"@openzeppelin/contracts/access/Ownable.sol\":3029:3037  newOwner */\n      dup2\n        /* \"@openzeppelin/contracts/access/Ownable.sol\":3020:3026  _owner */\n      0x00\n      0x00\n        /* \"@openzeppelin/contracts/access/Ownable.sol\":3020:3037  _owner = newOwner */\n      0x0100\n      exp\n      dup2\n      sload\n      dup2\n      0xffffffffffffffffffffffffffffffffffffffff\n      mul\n      not\n      and\n      swap1\n      dup4\n      0xffffffffffffffffffffffffffffffffffffffff\n      and\n      mul\n      or\n      swap1\n      sstore\n      pop\n        /* \"@openzeppelin/contracts/access/Ownable.sol\":3083:3091  newOwner */\n      dup2\n        /* \"@openzeppelin/contracts/access/Ownable.sol\":3052:3092  OwnershipTransferred(oldOwner, newOwner) */\n      0xffffffffffffffffffffffffffffffffffffffff\n      and\n        /* \"@openzeppelin/contracts/access/Ownable.sol\":3073:3081  oldOwner */\n      dup2\n        /* \"@openzeppelin/contracts/access/Ownable.sol\":3052:3092  OwnershipTransferred(oldOwner, newOwner) */\n      0xffffffffffffffffffffffffffffffffffffffff\n      and\n      0x8be0079c531659141344cd1fd0a4f28419497f9722a3daafe3b4186f6b6457e0\n      mload(0x40)\n      mload(0x40)\n      dup1\n      swap2\n      sub\n      swap1\n      log3\n        /* \"@openzeppelin/contracts/access/Ownable.sol\":2975:3099  {... */\n      pop\n        /* \"@openzeppelin/contracts/access/Ownable.sol\":2912:3099  function _transferOwnership(address newOwner) internal virtual {... */\n      pop\n      jump\t// out\n        /* \"https://github.com/Vectorized/solady/blob/main/src/tokens/ERC20.sol\":27414:28501  function _spendAllowance(address owner, address spender, uint256 amount) internal virtual {... */\n    tag_241:\n        /* \"https://github.com/Vectorized/solady/blob/main/src/tokens/ERC20.sol\":27518:27549  _givePermit2InfiniteAllowance() */\n      tag_303\n        /* \"https://github.com/Vectorized/solady/blob/main/src/tokens/ERC20.sol\":27518:27547  _givePermit2InfiniteAllowance */\n      tag_158\n        /* \"https://github.com/Vectorized/solady/blob/main/src/tokens/ERC20.sol\":27518:27549  _givePermit2InfiniteAllowance() */\n      jump\t// in\n    tag_303:\n        /* \"https://github.com/Vectorized/solady/blob/main/src/tokens/ERC20.sol\":27514:27648  if (_givePermit2InfiniteAllowance()) {... */\n      iszero\n      tag_304\n      jumpi\n        /* \"https://github.com/Vectorized/solady/blob/main/src/tokens/ERC20.sol\":5869:5911  0x000000000022D473030F116dDEE9F6B43aC78BA3 */\n      0x22d473030f116ddee9f6b43ac78ba3\n        /* \"https://github.com/Vectorized/solady/blob/main/src/tokens/ERC20.sol\":27569:27588  spender == _PERMIT2 */\n      0xffffffffffffffffffffffffffffffffffffffff\n      and\n        /* \"https://github.com/Vectorized/solady/blob/main/src/tokens/ERC20.sol\":27569:27576  spender */\n      dup3\n        /* \"https://github.com/Vectorized/solady/blob/main/src/tokens/ERC20.sol\":27569:27588  spender == _PERMIT2 */\n      0xffffffffffffffffffffffffffffffffffffffff\n      and\n      sub\n        /* \"https://github.com/Vectorized/solady/blob/main/src/tokens/ERC20.sol\":27565:27597  if (spender == _PERMIT2) return; */\n      iszero\n        /* \"https://github.com/Vectorized/solady/blob/main/src/tokens/ERC20.sol\":27590:27597  return; */\n      tag_302\n        /* \"https://github.com/Vectorized/solady/blob/main/src/tokens/ERC20.sol\":27565:27597  if (spender == _PERMIT2) return; */\n      jumpi\n        /* \"https://github.com/Vectorized/solady/blob/main/src/tokens/ERC20.sol\":27514:27648  if (_givePermit2InfiniteAllowance()) {... */\n    tag_304:\n        /* \"https://github.com/Vectorized/solady/blob/main/src/tokens/ERC20.sol\":27798:27805  spender */\n      dup2\n        /* \"https://github.com/Vectorized/solady/blob/main/src/tokens/ERC20.sol\":27792:27796  0x20 */\n      0x20\n        /* \"https://github.com/Vectorized/solady/blob/main/src/tokens/ERC20.sol\":27785:27806  mstore(0x20, spender) */\n      mstore\n        /* \"https://github.com/Vectorized/solady/blob/main/src/tokens/ERC20.sol\":27832:27852  _ALLOWANCE_SLOT_SEED */\n      0x7f5e9f20\n        /* \"https://github.com/Vectorized/solady/blob/main/src/tokens/ERC20.sol\":27826:27830  0x0c */\n      0x0c\n        /* \"https://github.com/Vectorized/solady/blob/main/src/tokens/ERC20.sol\":27819:27853  mstore(0x0c, _ALLOWANCE_SLOT_SEED) */\n      mstore\n        /* \"https://github.com/Vectorized/solady/blob/main/src/tokens/ERC20.sol\":27879:27884  owner */\n      dup3\n        /* \"https://github.com/Vectorized/solady/blob/main/src/tokens/ERC20.sol\":27873:27877  0x00 */\n      0x00\n        /* \"https://github.com/Vectorized/solady/blob/main/src/tokens/ERC20.sol\":27866:27885  mstore(0x00, owner) */\n      mstore\n        /* \"https://github.com/Vectorized/solady/blob/main/src/tokens/ERC20.sol\":27935:27939  0x34 */\n      0x34\n        /* \"https://github.com/Vectorized/solady/blob/main/src/tokens/ERC20.sol\":27929:27933  0x0c */\n      0x0c\n        /* \"https://github.com/Vectorized/solady/blob/main/src/tokens/ERC20.sol\":27919:27940  keccak256(0x0c, 0x34) */\n      keccak256\n        /* \"https://github.com/Vectorized/solady/blob/main/src/tokens/ERC20.sol\":27977:27990  allowanceSlot */\n      dup1\n        /* \"https://github.com/Vectorized/solady/blob/main/src/tokens/ERC20.sol\":27971:27991  sload(allowanceSlot) */\n      sload\n        /* \"https://github.com/Vectorized/solady/blob/main/src/tokens/ERC20.sol\":28077:28087  allowance_ */\n      dup1\n        /* \"https://github.com/Vectorized/solady/blob/main/src/tokens/ERC20.sol\":28073:28088  not(allowance_) */\n      not\n        /* \"https://github.com/Vectorized/solady/blob/main/src/tokens/ERC20.sol\":28070:28485  if not(allowance_) {... */\n      iszero\n      tag_306\n      jumpi\n        /* \"https://github.com/Vectorized/solady/blob/main/src/tokens/ERC20.sol\":28202:28212  allowance_ */\n      dup1\n        /* \"https://github.com/Vectorized/solady/blob/main/src/tokens/ERC20.sol\":28194:28200  amount */\n      dup4\n        /* \"https://github.com/Vectorized/solady/blob/main/src/tokens/ERC20.sol\":28191:28213  gt(amount, allowance_) */\n      gt\n        /* \"https://github.com/Vectorized/solady/blob/main/src/tokens/ERC20.sol\":28188:28347  if gt(amount, allowance_) {... */\n      iszero\n      tag_307\n      jumpi\n        /* \"https://github.com/Vectorized/solady/blob/main/src/tokens/ERC20.sol\":28249:28259  0x13be252b */\n      0x13be252b\n        /* \"https://github.com/Vectorized/solady/blob/main/src/tokens/ERC20.sol\":28243:28247  0x00 */\n      0x00\n        /* \"https://github.com/Vectorized/solady/blob/main/src/tokens/ERC20.sol\":28236:28260  mstore(0x00, 0x13be252b) */\n      mstore\n        /* \"https://github.com/Vectorized/solady/blob/main/src/tokens/ERC20.sol\":28324:28328  0x04 */\n      0x04\n        /* \"https://github.com/Vectorized/solady/blob/main/src/tokens/ERC20.sol\":28318:28322  0x1c */\n      0x1c\n        /* \"https://github.com/Vectorized/solady/blob/main/src/tokens/ERC20.sol\":28311:28329  revert(0x1c, 0x04) */\n      revert\n        /* \"https://github.com/Vectorized/solady/blob/main/src/tokens/ERC20.sol\":28188:28347  if gt(amount, allowance_) {... */\n    tag_307:\n        /* \"https://github.com/Vectorized/solady/blob/main/src/tokens/ERC20.sol\":28463:28469  amount */\n      dup3\n        /* \"https://github.com/Vectorized/solady/blob/main/src/tokens/ERC20.sol\":28451:28461  allowance_ */\n      dup2\n        /* \"https://github.com/Vectorized/solady/blob/main/src/tokens/ERC20.sol\":28447:28470  sub(allowance_, amount) */\n      sub\n        /* \"https://github.com/Vectorized/solady/blob/main/src/tokens/ERC20.sol\":28432:28445  allowanceSlot */\n      dup3\n        /* \"https://github.com/Vectorized/solady/blob/main/src/tokens/ERC20.sol\":28425:28471  sstore(allowanceSlot, sub(allowance_, amount)) */\n      sstore\n        /* \"https://github.com/Vectorized/solady/blob/main/src/tokens/ERC20.sol\":28070:28485  if not(allowance_) {... */\n    tag_306:\n        /* \"https://github.com/Vectorized/solady/blob/main/src/tokens/ERC20.sol\":27709:28495  {... */\n      pop\n      pop\n        /* \"https://github.com/Vectorized/solady/blob/main/src/tokens/ERC20.sol\":27414:28501  function _spendAllowance(address owner, address spender, uint256 amount) internal virtual {... */\n    tag_302:\n      pop\n      pop\n      pop\n      jump\t// out\n        /* \"https://github.com/Vectorized/solady/blob/main/src/tokens/ERC20.sol\":24177:25296  function _burn(address from, uint256 amount) internal virtual {... */\n    tag_244:\n        /* \"https://github.com/Vectorized/solady/blob/main/src/tokens/ERC20.sol\":24249:24295  _beforeTokenTransfer(from, address(0), amount) */\n      tag_309\n        /* \"https://github.com/Vectorized/solady/blob/main/src/tokens/ERC20.sol\":24270:24274  from */\n      dup3\n        /* \"https://github.com/Vectorized/solady/blob/main/src/tokens/ERC20.sol\":24284:24285  0 */\n      0x00\n        /* \"https://github.com/Vectorized/solady/blob/main/src/tokens/ERC20.sol\":24288:24294  amount */\n      dup4\n        /* \"https://github.com/Vectorized/solady/blob/main/src/tokens/ERC20.sol\":24249:24269  _beforeTokenTransfer */\n      tag_173\n        /* \"https://github.com/Vectorized/solady/blob/main/src/tokens/ERC20.sol\":24249:24295  _beforeTokenTransfer(from, address(0), amount) */\n      jump\t// in\n    tag_309:\n        /* \"https://github.com/Vectorized/solady/blob/main/src/tokens/ERC20.sol\":24444:24462  _BALANCE_SLOT_SEED */\n      0x87a211a2\n        /* \"https://github.com/Vectorized/solady/blob/main/src/tokens/ERC20.sol\":24438:24442  0x0c */\n      0x0c\n        /* \"https://github.com/Vectorized/solady/blob/main/src/tokens/ERC20.sol\":24431:24463  mstore(0x0c, _BALANCE_SLOT_SEED) */\n      mstore\n        /* \"https://github.com/Vectorized/solady/blob/main/src/tokens/ERC20.sol\":24489:24493  from */\n      dup2\n        /* \"https://github.com/Vectorized/solady/blob/main/src/tokens/ERC20.sol\":24483:24487  0x00 */\n      0x00\n        /* \"https://github.com/Vectorized/solady/blob/main/src/tokens/ERC20.sol\":24476:24494  mstore(0x00, from) */\n      mstore\n        /* \"https://github.com/Vectorized/solady/blob/main/src/tokens/ERC20.sol\":24546:24550  0x20 */\n      0x20\n        /* \"https://github.com/Vectorized/solady/blob/main/src/tokens/ERC20.sol\":24540:24544  0x0c */\n      0x0c\n        /* \"https://github.com/Vectorized/solady/blob/main/src/tokens/ERC20.sol\":24530:24551  keccak256(0x0c, 0x20) */\n      keccak256\n        /* \"https://github.com/Vectorized/solady/blob/main/src/tokens/ERC20.sol\":24589:24604  fromBalanceSlot */\n      dup1\n        /* \"https://github.com/Vectorized/solady/blob/main/src/tokens/ERC20.sol\":24583:24605  sload(fromBalanceSlot) */\n      sload\n        /* \"https://github.com/Vectorized/solady/blob/main/src/tokens/ERC20.sol\":24679:24690  fromBalance */\n      dup1\n        /* \"https://github.com/Vectorized/solady/blob/main/src/tokens/ERC20.sol\":24671:24677  amount */\n      dup4\n        /* \"https://github.com/Vectorized/solady/blob/main/src/tokens/ERC20.sol\":24668:24691  gt(amount, fromBalance) */\n      gt\n        /* \"https://github.com/Vectorized/solady/blob/main/src/tokens/ERC20.sol\":24665:24811  if gt(amount, fromBalance) {... */\n      iszero\n      tag_310\n      jumpi\n        /* \"https://github.com/Vectorized/solady/blob/main/src/tokens/ERC20.sol\":24723:24733  0xf4d678b8 */\n      0xf4d678b8\n        /* \"https://github.com/Vectorized/solady/blob/main/src/tokens/ERC20.sol\":24717:24721  0x00 */\n      0x00\n        /* \"https://github.com/Vectorized/solady/blob/main/src/tokens/ERC20.sol\":24710:24734  mstore(0x00, 0xf4d678b8) */\n      mstore\n        /* \"https://github.com/Vectorized/solady/blob/main/src/tokens/ERC20.sol\":24792:24796  0x04 */\n      0x04\n        /* \"https://github.com/Vectorized/solady/blob/main/src/tokens/ERC20.sol\":24786:24790  0x1c */\n      0x1c\n        /* \"https://github.com/Vectorized/solady/blob/main/src/tokens/ERC20.sol\":24779:24797  revert(0x1c, 0x04) */\n      revert\n        /* \"https://github.com/Vectorized/solady/blob/main/src/tokens/ERC20.sol\":24665:24811  if gt(amount, fromBalance) {... */\n    tag_310:\n        /* \"https://github.com/Vectorized/solady/blob/main/src/tokens/ERC20.sol\":24920:24926  amount */\n      dup3\n        /* \"https://github.com/Vectorized/solady/blob/main/src/tokens/ERC20.sol\":24907:24918  fromBalance */\n      dup2\n        /* \"https://github.com/Vectorized/solady/blob/main/src/tokens/ERC20.sol\":24903:24927  sub(fromBalance, amount) */\n      sub\n        /* \"https://github.com/Vectorized/solady/blob/main/src/tokens/ERC20.sol\":24886:24901  fromBalanceSlot */\n      dup3\n        /* \"https://github.com/Vectorized/solady/blob/main/src/tokens/ERC20.sol\":24879:24928  sstore(fromBalanceSlot, sub(fromBalance, amount)) */\n      sstore\n        /* \"https://github.com/Vectorized/solady/blob/main/src/tokens/ERC20.sol\":25059:25065  amount */\n      dup3\n        /* \"https://github.com/Vectorized/solady/blob/main/src/tokens/ERC20.sol\":25038:25056  _TOTAL_SUPPLY_SLOT */\n      0x05345cdf77eb68f44c\n        /* \"https://github.com/Vectorized/solady/blob/main/src/tokens/ERC20.sol\":25032:25057  sload(_TOTAL_SUPPLY_SLOT) */\n      sload\n        /* \"https://github.com/Vectorized/solady/blob/main/src/tokens/ERC20.sol\":25028:25066  sub(sload(_TOTAL_SUPPLY_SLOT), amount) */\n      sub\n        /* \"https://github.com/Vectorized/solady/blob/main/src/tokens/ERC20.sol\":25008:25026  _TOTAL_SUPPLY_SLOT */\n      0x05345cdf77eb68f44c\n        /* \"https://github.com/Vectorized/solady/blob/main/src/tokens/ERC20.sol\":25001:25067  sstore(_TOTAL_SUPPLY_SLOT, sub(sload(_TOTAL_SUPPLY_SLOT), amount)) */\n      sstore\n        /* \"https://github.com/Vectorized/solady/blob/main/src/tokens/ERC20.sol\":25135:25141  amount */\n      dup3\n        /* \"https://github.com/Vectorized/solady/blob/main/src/tokens/ERC20.sol\":25129:25133  0x00 */\n      0x00\n        /* \"https://github.com/Vectorized/solady/blob/main/src/tokens/ERC20.sol\":25122:25142  mstore(0x00, amount) */\n      mstore\n        /* \"https://github.com/Vectorized/solady/blob/main/src/tokens/ERC20.sol\":25223:25224  0 */\n      0x00\n        /* \"https://github.com/Vectorized/solady/blob/main/src/tokens/ERC20.sol\":25215:25219  from */\n      dup5\n        /* \"https://github.com/Vectorized/solady/blob/main/src/tokens/ERC20.sol\":25211:25213  96 */\n      0x60\n        /* \"https://github.com/Vectorized/solady/blob/main/src/tokens/ERC20.sol\":25207:25220  shl(96, from) */\n      shl\n        /* \"https://github.com/Vectorized/solady/blob/main/src/tokens/ERC20.sol\":25203:25205  96 */\n      0x60\n        /* \"https://github.com/Vectorized/solady/blob/main/src/tokens/ERC20.sol\":25199:25221  shr(96, shl(96, from)) */\n      shr\n        /* \"https://github.com/Vectorized/solady/blob/main/src/tokens/ERC20.sol\":25172:25197  _TRANSFER_EVENT_SIGNATURE */\n      0xddf252ad1be2c89b69c2b068fc378daa952ba7f163c4a11628f55a4df523b3ef\n        /* \"https://github.com/Vectorized/solady/blob/main/src/tokens/ERC20.sol\":25166:25170  0x20 */\n      0x20\n        /* \"https://github.com/Vectorized/solady/blob/main/src/tokens/ERC20.sol\":25160:25164  0x00 */\n      0x00\n        /* \"https://github.com/Vectorized/solady/blob/main/src/tokens/ERC20.sol\":25155:25225  log3(0x00, 0x20, _TRANSFER_EVENT_SIGNATURE, shr(96, shl(96, from)), 0) */\n      log3\n        /* \"https://github.com/Vectorized/solady/blob/main/src/tokens/ERC20.sol\":24357:25235  {... */\n      pop\n      pop\n        /* \"https://github.com/Vectorized/solady/blob/main/src/tokens/ERC20.sol\":25244:25289  _afterTokenTransfer(from, address(0), amount) */\n      tag_311\n        /* \"https://github.com/Vectorized/solady/blob/main/src/tokens/ERC20.sol\":25264:25268  from */\n      dup3\n        /* \"https://github.com/Vectorized/solady/blob/main/src/tokens/ERC20.sol\":25278:25279  0 */\n      0x00\n        /* \"https://github.com/Vectorized/solady/blob/main/src/tokens/ERC20.sol\":25282:25288  amount */\n      dup4\n        /* \"https://github.com/Vectorized/solady/blob/main/src/tokens/ERC20.sol\":25244:25263  _afterTokenTransfer */\n      tag_185\n        /* \"https://github.com/Vectorized/solady/blob/main/src/tokens/ERC20.sol\":25244:25289  _afterTokenTransfer(from, address(0), amount) */\n      jump\t// in\n    tag_311:\n        /* \"https://github.com/Vectorized/solady/blob/main/src/tokens/ERC20.sol\":24177:25296  function _burn(address from, uint256 amount) internal virtual {... */\n      pop\n      pop\n      jump\t// out\n        /* \"https://github.com/Vectorized/solady/blob/main/src/tokens/ERC20.sol\":22599:23771  function _mint(address to, uint256 amount) internal virtual {... */\n    tag_287:\n        /* \"https://github.com/Vectorized/solady/blob/main/src/tokens/ERC20.sol\":22669:22713  _beforeTokenTransfer(address(0), to, amount) */\n      tag_313\n        /* \"https://github.com/Vectorized/solady/blob/main/src/tokens/ERC20.sol\":22698:22699  0 */\n      0x00\n        /* \"https://github.com/Vectorized/solady/blob/main/src/tokens/ERC20.sol\":22702:22704  to */\n      dup4\n        /* \"https://github.com/Vectorized/solady/blob/main/src/tokens/ERC20.sol\":22706:22712  amount */\n      dup4\n        /* \"https://github.com/Vectorized/solady/blob/main/src/tokens/ERC20.sol\":22669:22689  _beforeTokenTransfer */\n      tag_173\n        /* \"https://github.com/Vectorized/solady/blob/main/src/tokens/ERC20.sol\":22669:22713  _beforeTokenTransfer(address(0), to, amount) */\n      jump\t// in\n    tag_313:\n        /* \"https://github.com/Vectorized/solady/blob/main/src/tokens/ERC20.sol\":22820:22838  _TOTAL_SUPPLY_SLOT */\n      0x05345cdf77eb68f44c\n        /* \"https://github.com/Vectorized/solady/blob/main/src/tokens/ERC20.sol\":22814:22839  sload(_TOTAL_SUPPLY_SLOT) */\n      sload\n        /* \"https://github.com/Vectorized/solady/blob/main/src/tokens/ERC20.sol\":22899:22905  amount */\n      dup2\n        /* \"https://github.com/Vectorized/solady/blob/main/src/tokens/ERC20.sol\":22880:22897  totalSupplyBefore */\n      dup2\n        /* \"https://github.com/Vectorized/solady/blob/main/src/tokens/ERC20.sol\":22876:22906  add(totalSupplyBefore, amount) */\n      add\n        /* \"https://github.com/Vectorized/solady/blob/main/src/tokens/ERC20.sol\":22996:23013  totalSupplyBefore */\n      dup2\n        /* \"https://github.com/Vectorized/solady/blob/main/src/tokens/ERC20.sol\":22978:22994  totalSupplyAfter */\n      dup2\n        /* \"https://github.com/Vectorized/solady/blob/main/src/tokens/ERC20.sol\":22975:23014  lt(totalSupplyAfter, totalSupplyBefore) */\n      lt\n        /* \"https://github.com/Vectorized/solady/blob/main/src/tokens/ERC20.sol\":22972:23134  if lt(totalSupplyAfter, totalSupplyBefore) {... */\n      iszero\n      tag_314\n      jumpi\n        /* \"https://github.com/Vectorized/solady/blob/main/src/tokens/ERC20.sol\":23046:23056  0xe5cfe957 */\n      0xe5cfe957\n        /* \"https://github.com/Vectorized/solady/blob/main/src/tokens/ERC20.sol\":23040:23044  0x00 */\n      0x00\n        /* \"https://github.com/Vectorized/solady/blob/main/src/tokens/ERC20.sol\":23033:23057  mstore(0x00, 0xe5cfe957) */\n      mstore\n        /* \"https://github.com/Vectorized/solady/blob/main/src/tokens/ERC20.sol\":23115:23119  0x04 */\n      0x04\n        /* \"https://github.com/Vectorized/solady/blob/main/src/tokens/ERC20.sol\":23109:23113  0x1c */\n      0x1c\n        /* \"https://github.com/Vectorized/solady/blob/main/src/tokens/ERC20.sol\":23102:23120  revert(0x1c, 0x04) */\n      revert\n        /* \"https://github.com/Vectorized/solady/blob/main/src/tokens/ERC20.sol\":22972:23134  if lt(totalSupplyAfter, totalSupplyBefore) {... */\n    tag_314:\n        /* \"https://github.com/Vectorized/solady/blob/main/src/tokens/ERC20.sol\":23221:23237  totalSupplyAfter */\n      dup1\n        /* \"https://github.com/Vectorized/solady/blob/main/src/tokens/ERC20.sol\":23201:23219  _TOTAL_SUPPLY_SLOT */\n      0x05345cdf77eb68f44c\n        /* \"https://github.com/Vectorized/solady/blob/main/src/tokens/ERC20.sol\":23194:23238  sstore(_TOTAL_SUPPLY_SLOT, totalSupplyAfter) */\n      sstore\n        /* \"https://github.com/Vectorized/solady/blob/main/src/tokens/ERC20.sol\":23324:23342  _BALANCE_SLOT_SEED */\n      0x87a211a2\n        /* \"https://github.com/Vectorized/solady/blob/main/src/tokens/ERC20.sol\":23318:23322  0x0c */\n      0x0c\n        /* \"https://github.com/Vectorized/solady/blob/main/src/tokens/ERC20.sol\":23311:23343  mstore(0x0c, _BALANCE_SLOT_SEED) */\n      mstore\n        /* \"https://github.com/Vectorized/solady/blob/main/src/tokens/ERC20.sol\":23369:23371  to */\n      dup4\n        /* \"https://github.com/Vectorized/solady/blob/main/src/tokens/ERC20.sol\":23363:23367  0x00 */\n      0x00\n        /* \"https://github.com/Vectorized/solady/blob/main/src/tokens/ERC20.sol\":23356:23372  mstore(0x00, to) */\n      mstore\n        /* \"https://github.com/Vectorized/solady/blob/main/src/tokens/ERC20.sol\":23422:23426  0x20 */\n      0x20\n        /* \"https://github.com/Vectorized/solady/blob/main/src/tokens/ERC20.sol\":23416:23420  0x0c */\n      0x0c\n        /* \"https://github.com/Vectorized/solady/blob/main/src/tokens/ERC20.sol\":23406:23427  keccak256(0x0c, 0x20) */\n      keccak256\n        /* \"https://github.com/Vectorized/solady/blob/main/src/tokens/ERC20.sol\":23538:23544  amount */\n      dup4\n        /* \"https://github.com/Vectorized/solady/blob/main/src/tokens/ERC20.sol\":23522:23535  toBalanceSlot */\n      dup2\n        /* \"https://github.com/Vectorized/solady/blob/main/src/tokens/ERC20.sol\":23516:23536  sload(toBalanceSlot) */\n      sload\n        /* \"https://github.com/Vectorized/solady/blob/main/src/tokens/ERC20.sol\":23512:23545  add(sload(toBalanceSlot), amount) */\n      add\n        /* \"https://github.com/Vectorized/solady/blob/main/src/tokens/ERC20.sol\":23497:23510  toBalanceSlot */\n      dup2\n        /* \"https://github.com/Vectorized/solady/blob/main/src/tokens/ERC20.sol\":23490:23546  sstore(toBalanceSlot, add(sload(toBalanceSlot), amount)) */\n      sstore\n        /* \"https://github.com/Vectorized/solady/blob/main/src/tokens/ERC20.sol\":23614:23620  amount */\n      dup4\n        /* \"https://github.com/Vectorized/solady/blob/main/src/tokens/ERC20.sol\":23608:23612  0x20 */\n      0x20\n        /* \"https://github.com/Vectorized/solady/blob/main/src/tokens/ERC20.sol\":23601:23621  mstore(0x20, amount) */\n      mstore\n        /* \"https://github.com/Vectorized/solady/blob/main/src/tokens/ERC20.sol\":23695:23699  0x0c */\n      0x0c\n        /* \"https://github.com/Vectorized/solady/blob/main/src/tokens/ERC20.sol\":23689:23700  mload(0x0c) */\n      mload\n        /* \"https://github.com/Vectorized/solady/blob/main/src/tokens/ERC20.sol\":23685:23687  96 */\n      0x60\n        /* \"https://github.com/Vectorized/solady/blob/main/src/tokens/ERC20.sol\":23681:23701  shr(96, mload(0x0c)) */\n      shr\n        /* \"https://github.com/Vectorized/solady/blob/main/src/tokens/ERC20.sol\":23678:23679  0 */\n      0x00\n        /* \"https://github.com/Vectorized/solady/blob/main/src/tokens/ERC20.sol\":23651:23676  _TRANSFER_EVENT_SIGNATURE */\n      0xddf252ad1be2c89b69c2b068fc378daa952ba7f163c4a11628f55a4df523b3ef\n        /* \"https://github.com/Vectorized/solady/blob/main/src/tokens/ERC20.sol\":23645:23649  0x20 */\n      0x20\n        /* \"https://github.com/Vectorized/solady/blob/main/src/tokens/ERC20.sol\":23639:23643  0x20 */\n      dup1\n        /* \"https://github.com/Vectorized/solady/blob/main/src/tokens/ERC20.sol\":23634:23702  log3(0x20, 0x20, _TRANSFER_EVENT_SIGNATURE, 0, shr(96, mload(0x0c))) */\n      log3\n        /* \"https://github.com/Vectorized/solady/blob/main/src/tokens/ERC20.sol\":22775:23712  {... */\n      pop\n      pop\n      pop\n        /* \"https://github.com/Vectorized/solady/blob/main/src/tokens/ERC20.sol\":23721:23764  _afterTokenTransfer(address(0), to, amount) */\n      tag_315\n        /* \"https://github.com/Vectorized/solady/blob/main/src/tokens/ERC20.sol\":23749:23750  0 */\n      0x00\n        /* \"https://github.com/Vectorized/solady/blob/main/src/tokens/ERC20.sol\":23753:23755  to */\n      dup4\n        /* \"https://github.com/Vectorized/solady/blob/main/src/tokens/ERC20.sol\":23757:23763  amount */\n      dup4\n        /* \"https://github.com/Vectorized/solady/blob/main/src/tokens/ERC20.sol\":23721:23740  _afterTokenTransfer */\n      tag_185\n        /* \"https://github.com/Vectorized/solady/blob/main/src/tokens/ERC20.sol\":23721:23764  _afterTokenTransfer(address(0), to, amount) */\n      jump\t// in\n    tag_315:\n        /* \"https://github.com/Vectorized/solady/blob/main/src/tokens/ERC20.sol\":22599:23771  function _mint(address to, uint256 amount) internal virtual {... */\n      pop\n      pop\n      jump\t// out\n        /* \"@openzeppelin/contracts/utils/Context.sol\":656:752  function _msgSender() internal view virtual returns (address) {... */\n    tag_292:\n        /* \"@openzeppelin/contracts/utils/Context.sol\":709:716  address */\n      0x00\n        /* \"@openzeppelin/contracts/utils/Context.sol\":735:745  msg.sender */\n      caller\n        /* \"@openzeppelin/contracts/utils/Context.sol\":728:745  return msg.sender */\n      swap1\n      pop\n        /* \"@openzeppelin/contracts/utils/Context.sol\":656:752  function _msgSender() internal view virtual returns (address) {... */\n      swap1\n      jump\t// out\n        /* \"#utility.yul\":7:106   */\n    tag_317:\n        /* \"#utility.yul\":59:65   */\n      0x00\n        /* \"#utility.yul\":93:98   */\n      dup2\n        /* \"#utility.yul\":87:99   */\n      mload\n        /* \"#utility.yul\":77:99   */\n      swap1\n      pop\n        /* \"#utility.yul\":7:106   */\n      swap2\n      swap1\n      pop\n      jump\t// out\n        /* \"#utility.yul\":112:281   */\n    tag_318:\n        /* \"#utility.yul\":196:207   */\n      0x00\n        /* \"#utility.yul\":230:236   */\n      dup3\n        /* \"#utility.yul\":225:228   */\n      dup3\n        /* \"#utility.yul\":218:237   */\n      mstore\n        /* \"#utility.yul\":270:274   */\n      0x20\n        /* \"#utility.yul\":265:268   */\n      dup3\n        /* \"#utility.yul\":261:275   */\n      add\n        /* \"#utility.yul\":246:275   */\n      swap1\n      pop\n        /* \"#utility.yul\":112:281   */\n      swap3\n      swap2\n      pop\n      pop\n      jump\t// out\n        /* \"#utility.yul\":287:426   */\n    tag_319:\n        /* \"#utility.yul\":376:382   */\n      dup3\n        /* \"#utility.yul\":371:374   */\n      dup2\n        /* \"#utility.yul\":366:369   */\n      dup4\n        /* \"#utility.yul\":360:383   */\n      mcopy\n        /* \"#utility.yul\":417:418   */\n      0x00\n        /* \"#utility.yul\":408:414   */\n      dup4\n        /* \"#utility.yul\":403:406   */\n      dup4\n        /* \"#utility.yul\":399:415   */\n      add\n        /* \"#utility.yul\":392:419   */\n      mstore\n        /* \"#utility.yul\":287:426   */\n      pop\n      pop\n      pop\n      jump\t// out\n        /* \"#utility.yul\":432:534   */\n    tag_320:\n        /* \"#utility.yul\":473:479   */\n      0x00\n        /* \"#utility.yul\":524:526   */\n      0x1f\n        /* \"#utility.yul\":520:527   */\n      not\n        /* \"#utility.yul\":515:517   */\n      0x1f\n        /* \"#utility.yul\":508:513   */\n      dup4\n        /* \"#utility.yul\":504:518   */\n      add\n        /* \"#utility.yul\":500:528   */\n      and\n        /* \"#utility.yul\":490:528   */\n      swap1\n      pop\n        /* \"#utility.yul\":432:534   */\n      swap2\n      swap1\n      pop\n      jump\t// out\n        /* \"#utility.yul\":540:917   */\n    tag_321:\n        /* \"#utility.yul\":628:631   */\n      0x00\n        /* \"#utility.yul\":656:695   */\n      tag_365\n        /* \"#utility.yul\":689:694   */\n      dup3\n        /* \"#utility.yul\":656:695   */\n      tag_317\n      jump\t// in\n    tag_365:\n        /* \"#utility.yul\":711:782   */\n      tag_366\n        /* \"#utility.yul\":775:781   */\n      dup2\n        /* \"#utility.yul\":770:773   */\n      dup6\n        /* \"#utility.yul\":711:782   */\n      tag_318\n      jump\t// in\n    tag_366:\n        /* \"#utility.yul\":704:782   */\n      swap4\n      pop\n        /* \"#utility.yul\":791:856   */\n      tag_367\n        /* \"#utility.yul\":849:855   */\n      dup2\n        /* \"#utility.yul\":844:847   */\n      dup6\n        /* \"#utility.yul\":837:841   */\n      0x20\n        /* \"#utility.yul\":830:835   */\n      dup7\n        /* \"#utility.yul\":826:842   */\n      add\n        /* \"#utility.yul\":791:856   */\n      tag_319\n      jump\t// in\n    tag_367:\n        /* \"#utility.yul\":881:910   */\n      tag_368\n        /* \"#utility.yul\":903:909   */\n      dup2\n        /* \"#utility.yul\":881:910   */\n      tag_320\n      jump\t// in\n    tag_368:\n        /* \"#utility.yul\":876:879   */\n      dup5\n        /* \"#utility.yul\":872:911   */\n      add\n        /* \"#utility.yul\":865:911   */\n      swap2\n      pop\n        /* \"#utility.yul\":632:917   */\n      pop\n        /* \"#utility.yul\":540:917   */\n      swap3\n      swap2\n      pop\n      pop\n      jump\t// out\n        /* \"#utility.yul\":923:1236   */\n    tag_33:\n        /* \"#utility.yul\":1036:1040   */\n      0x00\n        /* \"#utility.yul\":1074:1076   */\n      0x20\n        /* \"#utility.yul\":1063:1072   */\n      dup3\n        /* \"#utility.yul\":1059:1077   */\n      add\n        /* \"#utility.yul\":1051:1077   */\n      swap1\n      pop\n        /* \"#utility.yul\":1123:1132   */\n      dup2\n        /* \"#utility.yul\":1117:1121   */\n      dup2\n        /* \"#utility.yul\":1113:1133   */\n      sub\n        /* \"#utility.yul\":1109:1110   */\n      0x00\n        /* \"#utility.yul\":1098:1107   */\n      dup4\n        /* \"#utility.yul\":1094:1111   */\n      add\n        /* \"#utility.yul\":1087:1134   */\n      mstore\n        /* \"#utility.yul\":1151:1229   */\n      tag_370\n        /* \"#utility.yul\":1224:1228   */\n      dup2\n        /* \"#utility.yul\":1215:1221   */\n      dup5\n        /* \"#utility.yul\":1151:1229   */\n      tag_321\n      jump\t// in\n    tag_370:\n        /* \"#utility.yul\":1143:1229   */\n      swap1\n      pop\n        /* \"#utility.yul\":923:1236   */\n      swap3\n      swap2\n      pop\n      pop\n      jump\t// out\n        /* \"#utility.yul\":1323:1440   */\n    tag_323:\n        /* \"#utility.yul\":1432:1433   */\n      0x00\n        /* \"#utility.yul\":1429:1430   */\n      0x00\n        /* \"#utility.yul\":1422:1434   */\n      revert\n        /* \"#utility.yul\":1446:1563   */\n    tag_324:\n        /* \"#utility.yul\":1555:1556   */\n      0x00\n        /* \"#utility.yul\":1552:1553   */\n      0x00\n        /* \"#utility.yul\":1545:1557   */\n      revert\n        /* \"#utility.yul\":1569:1695   */\n    tag_325:\n        /* \"#utility.yul\":1606:1613   */\n      0x00\n        /* \"#utility.yul\":1646:1688   */\n      0xffffffffffffffffffffffffffffffffffffffff\n        /* \"#utility.yul\":1639:1644   */\n      dup3\n        /* \"#utility.yul\":1635:1689   */\n      and\n        /* \"#utility.yul\":1624:1689   */\n      swap1\n      pop\n        /* \"#utility.yul\":1569:1695   */\n      swap2\n      swap1\n      pop\n      jump\t// out\n        /* \"#utility.yul\":1701:1797   */\n    tag_326:\n        /* \"#utility.yul\":1738:1745   */\n      0x00\n        /* \"#utility.yul\":1767:1791   */\n      tag_376\n        /* \"#utility.yul\":1785:1790   */\n      dup3\n        /* \"#utility.yul\":1767:1791   */\n      tag_325\n      jump\t// in\n    tag_376:\n        /* \"#utility.yul\":1756:1791   */\n      swap1\n      pop\n        /* \"#utility.yul\":1701:1797   */\n      swap2\n      swap1\n      pop\n      jump\t// out\n        /* \"#utility.yul\":1803:1925   */\n    tag_327:\n        /* \"#utility.yul\":1876:1900   */\n      tag_378\n        /* \"#utility.yul\":1894:1899   */\n      dup2\n        /* \"#utility.yul\":1876:1900   */\n      tag_326\n      jump\t// in\n    tag_378:\n        /* \"#utility.yul\":1869:1874   */\n      dup2\n        /* \"#utility.yul\":1866:1901   */\n      eq\n        /* \"#utility.yul\":1856:1919   */\n      tag_379\n      jumpi\n        /* \"#utility.yul\":1915:1916   */\n      0x00\n        /* \"#utility.yul\":1912:1913   */\n      0x00\n        /* \"#utility.yul\":1905:1917   */\n      revert\n        /* \"#utility.yul\":1856:1919   */\n    tag_379:\n        /* \"#utility.yul\":1803:1925   */\n      pop\n      jump\t// out\n        /* \"#utility.yul\":1931:2070   */\n    tag_328:\n        /* \"#utility.yul\":1977:1982   */\n      0x00\n        /* \"#utility.yul\":2015:2021   */\n      dup2\n        /* \"#utility.yul\":2002:2022   */\n      calldataload\n        /* \"#utility.yul\":1993:2022   */\n      swap1\n      pop\n        /* \"#utility.yul\":2031:2064   */\n      tag_381\n        /* \"#utility.yul\":2058:2063   */\n      dup2\n        /* \"#utility.yul\":2031:2064   */\n      tag_327\n      jump\t// in\n    tag_381:\n        /* \"#utility.yul\":1931:2070   */\n      swap3\n      swap2\n      pop\n      pop\n      jump\t// out\n        /* \"#utility.yul\":2076:2153   */\n    tag_329:\n        /* \"#utility.yul\":2113:2120   */\n      0x00\n        /* \"#utility.yul\":2142:2147   */\n      dup2\n        /* \"#utility.yul\":2131:2147   */\n      swap1\n      pop\n        /* \"#utility.yul\":2076:2153   */\n      swap2\n      swap1\n      pop\n      jump\t// out\n        /* \"#utility.yul\":2159:2281   */\n    tag_330:\n        /* \"#utility.yul\":2232:2256   */\n      tag_384\n        /* \"#utility.yul\":2250:2255   */\n      dup2\n        /* \"#utility.yul\":2232:2256   */\n      tag_329\n      jump\t// in\n    tag_384:\n        /* \"#utility.yul\":2225:2230   */\n      dup2\n        /* \"#utility.yul\":2222:2257   */\n      eq\n        /* \"#utility.yul\":2212:2275   */\n      tag_385\n      jumpi\n        /* \"#utility.yul\":2271:2272   */\n      0x00\n        /* \"#utility.yul\":2268:2269   */\n      0x00\n        /* \"#utility.yul\":2261:2273   */\n      revert\n        /* \"#utility.yul\":2212:2275   */\n    tag_385:\n        /* \"#utility.yul\":2159:2281   */\n      pop\n      jump\t// out\n        /* \"#utility.yul\":2287:2426   */\n    tag_331:\n        /* \"#utility.yul\":2333:2338   */\n      0x00\n        /* \"#utility.yul\":2371:2377   */\n      dup2\n        /* \"#utility.yul\":2358:2378   */\n      calldataload\n        /* \"#utility.yul\":2349:2378   */\n      swap1\n      pop\n        /* \"#utility.yul\":2387:2420   */\n      tag_387\n        /* \"#utility.yul\":2414:2419   */\n      dup2\n        /* \"#utility.yul\":2387:2420   */\n      tag_330\n      jump\t// in\n    tag_387:\n        /* \"#utility.yul\":2287:2426   */\n      swap3\n      swap2\n      pop\n      pop\n      jump\t// out\n        /* \"#utility.yul\":2432:2906   */\n    tag_37:\n        /* \"#utility.yul\":2500:2506   */\n      0x00\n        /* \"#utility.yul\":2508:2514   */\n      0x00\n        /* \"#utility.yul\":2557:2559   */\n      0x40\n        /* \"#utility.yul\":2545:2554   */\n      dup4\n        /* \"#utility.yul\":2536:2543   */\n      dup6\n        /* \"#utility.yul\":2532:2555   */\n      sub\n        /* \"#utility.yul\":2528:2560   */\n      slt\n        /* \"#utility.yul\":2525:2644   */\n      iszero\n      tag_389\n      jumpi\n        /* \"#utility.yul\":2563:2642   */\n      tag_390\n      tag_323\n      jump\t// in\n    tag_390:\n        /* \"#utility.yul\":2525:2644   */\n    tag_389:\n        /* \"#utility.yul\":2683:2684   */\n      0x00\n        /* \"#utility.yul\":2708:2761   */\n      tag_391\n        /* \"#utility.yul\":2753:2760   */\n      dup6\n        /* \"#utility.yul\":2744:2750   */\n      dup3\n        /* \"#utility.yul\":2733:2742   */\n      dup7\n        /* \"#utility.yul\":2729:2751   */\n      add\n        /* \"#utility.yul\":2708:2761   */\n      tag_328\n      jump\t// in\n    tag_391:\n        /* \"#utility.yul\":2698:2761   */\n      swap3\n      pop\n        /* \"#utility.yul\":2654:2771   */\n      pop\n        /* \"#utility.yul\":2810:2812   */\n      0x20\n        /* \"#utility.yul\":2836:2889   */\n      tag_392\n        /* \"#utility.yul\":2881:2888   */\n      dup6\n        /* \"#utility.yul\":2872:2878   */\n      dup3\n        /* \"#utility.yul\":2861:2870   */\n      dup7\n        /* \"#utility.yul\":2857:2879   */\n      add\n        /* \"#utility.yul\":2836:2889   */\n      tag_331\n      jump\t// in\n    tag_392:\n        /* \"#utility.yul\":2826:2889   */\n      swap2\n      pop\n        /* \"#utility.yul\":2781:2899   */\n      pop\n        /* \"#utility.yul\":2432:2906   */\n      swap3\n      pop\n      swap3\n      swap1\n      pop\n      jump\t// out\n        /* \"#utility.yul\":2912:3002   */\n    tag_332:\n        /* \"#utility.yul\":2946:2953   */\n      0x00\n        /* \"#utility.yul\":2989:2994   */\n      dup2\n        /* \"#utility.yul\":2982:2995   */\n      iszero\n        /* \"#utility.yul\":2975:2996   */\n      iszero\n        /* \"#utility.yul\":2964:2996   */\n      swap1\n      pop\n        /* \"#utility.yul\":2912:3002   */\n      swap2\n      swap1\n      pop\n      jump\t// out\n        /* \"#utility.yul\":3008:3117   */\n    tag_333:\n        /* \"#utility.yul\":3089:3110   */\n      tag_395\n        /* \"#utility.yul\":3104:3109   */\n      dup2\n        /* \"#utility.yul\":3089:3110   */\n      tag_332\n      jump\t// in\n    tag_395:\n        /* \"#utility.yul\":3084:3087   */\n      dup3\n        /* \"#utility.yul\":3077:3111   */\n      mstore\n        /* \"#utility.yul\":3008:3117   */\n      pop\n      pop\n      jump\t// out\n        /* \"#utility.yul\":3123:3333   */\n    tag_40:\n        /* \"#utility.yul\":3210:3214   */\n      0x00\n        /* \"#utility.yul\":3248:3250   */\n      0x20\n        /* \"#utility.yul\":3237:3246   */\n      dup3\n        /* \"#utility.yul\":3233:3251   */\n      add\n        /* \"#utility.yul\":3225:3251   */\n      swap1\n      pop\n        /* \"#utility.yul\":3261:3326   */\n      tag_397\n        /* \"#utility.yul\":3323:3324   */\n      0x00\n        /* \"#utility.yul\":3312:3321   */\n      dup4\n        /* \"#utility.yul\":3308:3325   */\n      add\n        /* \"#utility.yul\":3299:3305   */\n      dup5\n        /* \"#utility.yul\":3261:3326   */\n      tag_333\n      jump\t// in\n    tag_397:\n        /* \"#utility.yul\":3123:3333   */\n      swap3\n      swap2\n      pop\n      pop\n      jump\t// out\n        /* \"#utility.yul\":3339:3456   */\n    tag_334:\n        /* \"#utility.yul\":3448:3449   */\n      0x00\n        /* \"#utility.yul\":3445:3446   */\n      0x00\n        /* \"#utility.yul\":3438:3450   */\n      revert\n        /* \"#utility.yul\":3462:3579   */\n    tag_335:\n        /* \"#utility.yul\":3571:3572   */\n      0x00\n        /* \"#utility.yul\":3568:3569   */\n      0x00\n        /* \"#utility.yul\":3561:3573   */\n      revert\n        /* \"#utility.yul\":3585:3702   */\n    tag_336:\n        /* \"#utility.yul\":3694:3695   */\n      0x00\n        /* \"#utility.yul\":3691:3692   */\n      0x00\n        /* \"#utility.yul\":3684:3696   */\n      revert\n        /* \"#utility.yul\":3721:4273   */\n    tag_337:\n        /* \"#utility.yul\":3778:3786   */\n      0x00\n        /* \"#utility.yul\":3788:3794   */\n      0x00\n        /* \"#utility.yul\":3838:3841   */\n      dup4\n        /* \"#utility.yul\":3831:3835   */\n      0x1f\n        /* \"#utility.yul\":3823:3829   */\n      dup5\n        /* \"#utility.yul\":3819:3836   */\n      add\n        /* \"#utility.yul\":3815:3842   */\n      slt\n        /* \"#utility.yul\":3805:3927   */\n      tag_402\n      jumpi\n        /* \"#utility.yul\":3846:3925   */\n      tag_403\n      tag_334\n      jump\t// in\n    tag_403:\n        /* \"#utility.yul\":3805:3927   */\n    tag_402:\n        /* \"#utility.yul\":3959:3965   */\n      dup3\n        /* \"#utility.yul\":3946:3966   */\n      calldataload\n        /* \"#utility.yul\":3936:3966   */\n      swap1\n      pop\n        /* \"#utility.yul\":3989:4007   */\n      0xffffffffffffffff\n        /* \"#utility.yul\":3981:3987   */\n      dup2\n        /* \"#utility.yul\":3978:4008   */\n      gt\n        /* \"#utility.yul\":3975:4092   */\n      iszero\n      tag_404\n      jumpi\n        /* \"#utility.yul\":4011:4090   */\n      tag_405\n      tag_335\n      jump\t// in\n    tag_405:\n        /* \"#utility.yul\":3975:4092   */\n    tag_404:\n        /* \"#utility.yul\":4125:4129   */\n      0x20\n        /* \"#utility.yul\":4117:4123   */\n      dup4\n        /* \"#utility.yul\":4113:4130   */\n      add\n        /* \"#utility.yul\":4101:4130   */\n      swap2\n      pop\n        /* \"#utility.yul\":4179:4182   */\n      dup4\n        /* \"#utility.yul\":4171:4175   */\n      0x01\n        /* \"#utility.yul\":4163:4169   */\n      dup3\n        /* \"#utility.yul\":4159:4176   */\n      mul\n        /* \"#utility.yul\":4149:4157   */\n      dup4\n        /* \"#utility.yul\":4145:4177   */\n      add\n        /* \"#utility.yul\":4142:4183   */\n      gt\n        /* \"#utility.yul\":4139:4267   */\n      iszero\n      tag_406\n      jumpi\n        /* \"#utility.yul\":4186:4265   */\n      tag_407\n      tag_336\n      jump\t// in\n    tag_407:\n        /* \"#utility.yul\":4139:4267   */\n    tag_406:\n        /* \"#utility.yul\":3721:4273   */\n      swap3\n      pop\n      swap3\n      swap1\n      pop\n      jump\t// out\n        /* \"#utility.yul\":4279:5096   */\n    tag_44:\n        /* \"#utility.yul\":4367:4373   */\n      0x00\n        /* \"#utility.yul\":4375:4381   */\n      0x00\n        /* \"#utility.yul\":4383:4389   */\n      0x00\n        /* \"#utility.yul\":4391:4397   */\n      0x00\n        /* \"#utility.yul\":4440:4442   */\n      0x60\n        /* \"#utility.yul\":4428:4437   */\n      dup6\n        /* \"#utility.yul\":4419:4426   */\n      dup8\n        /* \"#utility.yul\":4415:4438   */\n      sub\n        /* \"#utility.yul\":4411:4443   */\n      slt\n        /* \"#utility.yul\":4408:4527   */\n      iszero\n      tag_409\n      jumpi\n        /* \"#utility.yul\":4446:4525   */\n      tag_410\n      tag_323\n      jump\t// in\n    tag_410:\n        /* \"#utility.yul\":4408:4527   */\n    tag_409:\n        /* \"#utility.yul\":4566:4567   */\n      0x00\n        /* \"#utility.yul\":4591:4644   */\n      tag_411\n        /* \"#utility.yul\":4636:4643   */\n      dup8\n        /* \"#utility.yul\":4627:4633   */\n      dup3\n        /* \"#utility.yul\":4616:4625   */\n      dup9\n        /* \"#utility.yul\":4612:4634   */\n      add\n        /* \"#utility.yul\":4591:4644   */\n      tag_328\n      jump\t// in\n    tag_411:\n        /* \"#utility.yul\":4581:4644   */\n      swap5\n      pop\n        /* \"#utility.yul\":4537:4654   */\n      pop\n        /* \"#utility.yul\":4693:4695   */\n      0x20\n        /* \"#utility.yul\":4719:4772   */\n      tag_412\n        /* \"#utility.yul\":4764:4771   */\n      dup8\n        /* \"#utility.yul\":4755:4761   */\n      dup3\n        /* \"#utility.yul\":4744:4753   */\n      dup9\n        /* \"#utility.yul\":4740:4762   */\n      add\n        /* \"#utility.yul\":4719:4772   */\n      tag_331\n      jump\t// in\n    tag_412:\n        /* \"#utility.yul\":4709:4772   */\n      swap4\n      pop\n        /* \"#utility.yul\":4664:4782   */\n      pop\n        /* \"#utility.yul\":4849:4851   */\n      0x40\n        /* \"#utility.yul\":4838:4847   */\n      dup6\n        /* \"#utility.yul\":4834:4852   */\n      add\n        /* \"#utility.yul\":4821:4853   */\n      calldataload\n        /* \"#utility.yul\":4880:4898   */\n      0xffffffffffffffff\n        /* \"#utility.yul\":4872:4878   */\n      dup2\n        /* \"#utility.yul\":4869:4899   */\n      gt\n        /* \"#utility.yul\":4866:4983   */\n      iszero\n      tag_413\n      jumpi\n        /* \"#utility.yul\":4902:4981   */\n      tag_414\n      tag_324\n      jump\t// in\n    tag_414:\n        /* \"#utility.yul\":4866:4983   */\n    tag_413:\n        /* \"#utility.yul\":5015:5079   */\n      tag_415\n        /* \"#utility.yul\":5071:5078   */\n      dup8\n        /* \"#utility.yul\":5062:5068   */\n      dup3\n        /* \"#utility.yul\":5051:5060   */\n      dup9\n        /* \"#utility.yul\":5047:5069   */\n      add\n        /* \"#utility.yul\":5015:5079   */\n      tag_337\n      jump\t// in\n    tag_415:\n        /* \"#utility.yul\":4997:5079   */\n      swap3\n      pop\n      swap3\n      pop\n        /* \"#utility.yul\":4792:5089   */\n      pop\n        /* \"#utility.yul\":4279:5096   */\n      swap3\n      swap6\n      swap2\n      swap5\n      pop\n      swap3\n      pop\n      jump\t// out\n        /* \"#utility.yul\":5102:5200   */\n    tag_338:\n        /* \"#utility.yul\":5153:5159   */\n      0x00\n        /* \"#utility.yul\":5187:5192   */\n      dup2\n        /* \"#utility.yul\":5181:5193   */\n      mload\n        /* \"#utility.yul\":5171:5193   */\n      swap1\n      pop\n        /* \"#utility.yul\":5102:5200   */\n      swap2\n      swap1\n      pop\n      jump\t// out\n        /* \"#utility.yul\":5206:5374   */\n    tag_339:\n        /* \"#utility.yul\":5289:5300   */\n      0x00\n        /* \"#utility.yul\":5323:5329   */\n      dup3\n        /* \"#utility.yul\":5318:5321   */\n      dup3\n        /* \"#utility.yul\":5311:5330   */\n      mstore\n        /* \"#utility.yul\":5363:5367   */\n      0x20\n        /* \"#utility.yul\":5358:5361   */\n      dup3\n        /* \"#utility.yul\":5354:5368   */\n      add\n        /* \"#utility.yul\":5339:5368   */\n      swap1\n      pop\n        /* \"#utility.yul\":5206:5374   */\n      swap3\n      swap2\n      pop\n      pop\n      jump\t// out\n        /* \"#utility.yul\":5380:5753   */\n    tag_340:\n        /* \"#utility.yul\":5466:5469   */\n      0x00\n        /* \"#utility.yul\":5494:5532   */\n      tag_419\n        /* \"#utility.yul\":5526:5531   */\n      dup3\n        /* \"#utility.yul\":5494:5532   */\n      tag_338\n      jump\t// in\n    tag_419:\n        /* \"#utility.yul\":5548:5618   */\n      tag_420\n        /* \"#utility.yul\":5611:5617   */\n      dup2\n        /* \"#utility.yul\":5606:5609   */\n      dup6\n        /* \"#utility.yul\":5548:5618   */\n      tag_339\n      jump\t// in\n    tag_420:\n        /* \"#utility.yul\":5541:5618   */\n      swap4\n      pop\n        /* \"#utility.yul\":5627:5692   */\n      tag_421\n        /* \"#utility.yul\":5685:5691   */\n      dup2\n        /* \"#utility.yul\":5680:5683   */\n      dup6\n        /* \"#utility.yul\":5673:5677   */\n      0x20\n        /* \"#utility.yul\":5666:5671   */\n      dup7\n        /* \"#utility.yul\":5662:5678   */\n      add\n        /* \"#utility.yul\":5627:5692   */\n      tag_319\n      jump\t// in\n    tag_421:\n        /* \"#utility.yul\":5717:5746   */\n      tag_422\n        /* \"#utility.yul\":5739:5745   */\n      dup2\n        /* \"#utility.yul\":5717:5746   */\n      tag_320\n      jump\t// in\n    tag_422:\n        /* \"#utility.yul\":5712:5715   */\n      dup5\n        /* \"#utility.yul\":5708:5747   */\n      add\n        /* \"#utility.yul\":5701:5747   */\n      swap2\n      pop\n        /* \"#utility.yul\":5470:5753   */\n      pop\n        /* \"#utility.yul\":5380:5753   */\n      swap3\n      swap2\n      pop\n      pop\n      jump\t// out\n        /* \"#utility.yul\":5759:6068   */\n    tag_47:\n        /* \"#utility.yul\":5870:5874   */\n      0x00\n        /* \"#utility.yul\":5908:5910   */\n      0x20\n        /* \"#utility.yul\":5897:5906   */\n      dup3\n        /* \"#utility.yul\":5893:5911   */\n      add\n        /* \"#utility.yul\":5885:5911   */\n      swap1\n      pop\n        /* \"#utility.yul\":5957:5966   */\n      dup2\n        /* \"#utility.yul\":5951:5955   */\n      dup2\n        /* \"#utility.yul\":5947:5967   */\n      sub\n        /* \"#utility.yul\":5943:5944   */\n      0x00\n        /* \"#utility.yul\":5932:5941   */\n      dup4\n        /* \"#utility.yul\":5928:5945   */\n      add\n        /* \"#utility.yul\":5921:5968   */\n      mstore\n        /* \"#utility.yul\":5985:6061   */\n      tag_424\n        /* \"#utility.yul\":6056:6060   */\n      dup2\n        /* \"#utility.yul\":6047:6053   */\n      dup5\n        /* \"#utility.yul\":5985:6061   */\n      tag_340\n      jump\t// in\n    tag_424:\n        /* \"#utility.yul\":5977:6061   */\n      swap1\n      pop\n        /* \"#utility.yul\":5759:6068   */\n      swap3\n      swap2\n      pop\n      pop\n      jump\t// out\n        /* \"#utility.yul\":6074:6192   */\n    tag_341:\n        /* \"#utility.yul\":6161:6185   */\n      tag_426\n        /* \"#utility.yul\":6179:6184   */\n      dup2\n        /* \"#utility.yul\":6161:6185   */\n      tag_329\n      jump\t// in\n    tag_426:\n        /* \"#utility.yul\":6156:6159   */\n      dup3\n        /* \"#utility.yul\":6149:6186   */\n      mstore\n        /* \"#utility.yul\":6074:6192   */\n      pop\n      pop\n      jump\t// out\n        /* \"#utility.yul\":6198:6420   */\n    tag_52:\n        /* \"#utility.yul\":6291:6295   */\n      0x00\n        /* \"#utility.yul\":6329:6331   */\n      0x20\n        /* \"#utility.yul\":6318:6327   */\n      dup3\n        /* \"#utility.yul\":6314:6332   */\n      add\n        /* \"#utility.yul\":6306:6332   */\n      swap1\n      pop\n        /* \"#utility.yul\":6342:6413   */\n      tag_428\n        /* \"#utility.yul\":6410:6411   */\n      0x00\n        /* \"#utility.yul\":6399:6408   */\n      dup4\n        /* \"#utility.yul\":6395:6412   */\n      add\n        /* \"#utility.yul\":6386:6392   */\n      dup5\n        /* \"#utility.yul\":6342:6413   */\n      tag_341\n      jump\t// in\n    tag_428:\n        /* \"#utility.yul\":6198:6420   */\n      swap3\n      swap2\n      pop\n      pop\n      jump\t// out\n        /* \"#utility.yul\":6426:7045   */\n    tag_56:\n        /* \"#utility.yul\":6503:6509   */\n      0x00\n        /* \"#utility.yul\":6511:6517   */\n      0x00\n        /* \"#utility.yul\":6519:6525   */\n      0x00\n        /* \"#utility.yul\":6568:6570   */\n      0x60\n        /* \"#utility.yul\":6556:6565   */\n      dup5\n        /* \"#utility.yul\":6547:6554   */\n      dup7\n        /* \"#utility.yul\":6543:6566   */\n      sub\n        /* \"#utility.yul\":6539:6571   */\n      slt\n        /* \"#utility.yul\":6536:6655   */\n      iszero\n      tag_430\n      jumpi\n        /* \"#utility.yul\":6574:6653   */\n      tag_431\n      tag_323\n      jump\t// in\n    tag_431:\n        /* \"#utility.yul\":6536:6655   */\n    tag_430:\n        /* \"#utility.yul\":6694:6695   */\n      0x00\n        /* \"#utility.yul\":6719:6772   */\n      tag_432\n        /* \"#utility.yul\":6764:6771   */\n      dup7\n        /* \"#utility.yul\":6755:6761   */\n      dup3\n        /* \"#utility.yul\":6744:6753   */\n      dup8\n        /* \"#utility.yul\":6740:6762   */\n      add\n        /* \"#utility.yul\":6719:6772   */\n      tag_328\n      jump\t// in\n    tag_432:\n        /* \"#utility.yul\":6709:6772   */\n      swap4\n      pop\n        /* \"#utility.yul\":6665:6782   */\n      pop\n        /* \"#utility.yul\":6821:6823   */\n      0x20\n        /* \"#utility.yul\":6847:6900   */\n      tag_433\n        /* \"#utility.yul\":6892:6899   */\n      dup7\n        /* \"#utility.yul\":6883:6889   */\n      dup3\n        /* \"#utility.yul\":6872:6881   */\n      dup8\n        /* \"#utility.yul\":6868:6890   */\n      add\n        /* \"#utility.yul\":6847:6900   */\n      tag_328\n      jump\t// in\n    tag_433:\n        /* \"#utility.yul\":6837:6900   */\n      swap3\n      pop\n        /* \"#utility.yul\":6792:6910   */\n      pop\n        /* \"#utility.yul\":6949:6951   */\n      0x40\n        /* \"#utility.yul\":6975:7028   */\n      tag_434\n        /* \"#utility.yul\":7020:7027   */\n      dup7\n        /* \"#utility.yul\":7011:7017   */\n      dup3\n        /* \"#utility.yul\":7000:7009   */\n      dup8\n        /* \"#utility.yul\":6996:7018   */\n      add\n        /* \"#utility.yul\":6975:7028   */\n      tag_331\n      jump\t// in\n    tag_434:\n        /* \"#utility.yul\":6965:7028   */\n      swap2\n      pop\n        /* \"#utility.yul\":6920:7038   */\n      pop\n        /* \"#utility.yul\":6426:7045   */\n      swap3\n      pop\n      swap3\n      pop\n      swap3\n      jump\t// out\n        /* \"#utility.yul\":7051:7137   */\n    tag_342:\n        /* \"#utility.yul\":7086:7093   */\n      0x00\n        /* \"#utility.yul\":7126:7130   */\n      0xff\n        /* \"#utility.yul\":7119:7124   */\n      dup3\n        /* \"#utility.yul\":7115:7131   */\n      and\n        /* \"#utility.yul\":7104:7131   */\n      swap1\n      pop\n        /* \"#utility.yul\":7051:7137   */\n      swap2\n      swap1\n      pop\n      jump\t// out\n        /* \"#utility.yul\":7143:7255   */\n    tag_343:\n        /* \"#utility.yul\":7226:7248   */\n      tag_437\n        /* \"#utility.yul\":7242:7247   */\n      dup2\n        /* \"#utility.yul\":7226:7248   */\n      tag_342\n      jump\t// in\n    tag_437:\n        /* \"#utility.yul\":7221:7224   */\n      dup3\n        /* \"#utility.yul\":7214:7249   */\n      mstore\n        /* \"#utility.yul\":7143:7255   */\n      pop\n      pop\n      jump\t// out\n        /* \"#utility.yul\":7261:7475   */\n    tag_63:\n        /* \"#utility.yul\":7350:7354   */\n      0x00\n        /* \"#utility.yul\":7388:7390   */\n      0x20\n        /* \"#utility.yul\":7377:7386   */\n      dup3\n        /* \"#utility.yul\":7373:7391   */\n      add\n        /* \"#utility.yul\":7365:7391   */\n      swap1\n      pop\n        /* \"#utility.yul\":7401:7468   */\n      tag_439\n        /* \"#utility.yul\":7465:7466   */\n      0x00\n        /* \"#utility.yul\":7454:7463   */\n      dup4\n        /* \"#utility.yul\":7450:7467   */\n      add\n        /* \"#utility.yul\":7441:7447   */\n      dup5\n        /* \"#utility.yul\":7401:7468   */\n      tag_343\n      jump\t// in\n    tag_439:\n        /* \"#utility.yul\":7261:7475   */\n      swap3\n      swap2\n      pop\n      pop\n      jump\t// out\n        /* \"#utility.yul\":7481:7558   */\n    tag_344:\n        /* \"#utility.yul\":7518:7525   */\n      0x00\n        /* \"#utility.yul\":7547:7552   */\n      dup2\n        /* \"#utility.yul\":7536:7552   */\n      swap1\n      pop\n        /* \"#utility.yul\":7481:7558   */\n      swap2\n      swap1\n      pop\n      jump\t// out\n        /* \"#utility.yul\":7564:7682   */\n    tag_345:\n        /* \"#utility.yul\":7651:7675   */\n      tag_442\n        /* \"#utility.yul\":7669:7674   */\n      dup2\n        /* \"#utility.yul\":7651:7675   */\n      tag_344\n      jump\t// in\n    tag_442:\n        /* \"#utility.yul\":7646:7649   */\n      dup3\n        /* \"#utility.yul\":7639:7676   */\n      mstore\n        /* \"#utility.yul\":7564:7682   */\n      pop\n      pop\n      jump\t// out\n        /* \"#utility.yul\":7688:7910   */\n    tag_68:\n        /* \"#utility.yul\":7781:7785   */\n      0x00\n        /* \"#utility.yul\":7819:7821   */\n      0x20\n        /* \"#utility.yul\":7808:7817   */\n      dup3\n        /* \"#utility.yul\":7804:7822   */\n      add\n        /* \"#utility.yul\":7796:7822   */\n      swap1\n      pop\n        /* \"#utility.yul\":7832:7903   */\n      tag_444\n        /* \"#utility.yul\":7900:7901   */\n      0x00\n        /* \"#utility.yul\":7889:7898   */\n      dup4\n        /* \"#utility.yul\":7885:7902   */\n      add\n        /* \"#utility.yul\":7876:7882   */\n      dup5\n        /* \"#utility.yul\":7832:7903   */\n      tag_345\n      jump\t// in\n    tag_444:\n        /* \"#utility.yul\":7688:7910   */\n      swap3\n      swap2\n      pop\n      pop\n      jump\t// out\n        /* \"#utility.yul\":7916:8245   */\n    tag_72:\n        /* \"#utility.yul\":7975:7981   */\n      0x00\n        /* \"#utility.yul\":8024:8026   */\n      0x20\n        /* \"#utility.yul\":8012:8021   */\n      dup3\n        /* \"#utility.yul\":8003:8010   */\n      dup5\n        /* \"#utility.yul\":7999:8022   */\n      sub\n        /* \"#utility.yul\":7995:8027   */\n      slt\n        /* \"#utility.yul\":7992:8111   */\n      iszero\n      tag_446\n      jumpi\n        /* \"#utility.yul\":8030:8109   */\n      tag_447\n      tag_323\n      jump\t// in\n    tag_447:\n        /* \"#utility.yul\":7992:8111   */\n    tag_446:\n        /* \"#utility.yul\":8150:8151   */\n      0x00\n        /* \"#utility.yul\":8175:8228   */\n      tag_448\n        /* \"#utility.yul\":8220:8227   */\n      dup5\n        /* \"#utility.yul\":8211:8217   */\n      dup3\n        /* \"#utility.yul\":8200:8209   */\n      dup6\n        /* \"#utility.yul\":8196:8218   */\n      add\n        /* \"#utility.yul\":8175:8228   */\n      tag_331\n      jump\t// in\n    tag_448:\n        /* \"#utility.yul\":8165:8228   */\n      swap2\n      pop\n        /* \"#utility.yul\":8121:8238   */\n      pop\n        /* \"#utility.yul\":7916:8245   */\n      swap3\n      swap2\n      pop\n      pop\n      jump\t// out\n        /* \"#utility.yul\":8251:8580   */\n    tag_78:\n        /* \"#utility.yul\":8310:8316   */\n      0x00\n        /* \"#utility.yul\":8359:8361   */\n      0x20\n        /* \"#utility.yul\":8347:8356   */\n      dup3\n        /* \"#utility.yul\":8338:8345   */\n      dup5\n        /* \"#utility.yul\":8334:8357   */\n      sub\n        /* \"#utility.yul\":8330:8362   */\n      slt\n        /* \"#utility.yul\":8327:8446   */\n      iszero\n      tag_450\n      jumpi\n        /* \"#utility.yul\":8365:8444   */\n      tag_451\n      tag_323\n      jump\t// in\n    tag_451:\n        /* \"#utility.yul\":8327:8446   */\n    tag_450:\n        /* \"#utility.yul\":8485:8486   */\n      0x00\n        /* \"#utility.yul\":8510:8563   */\n      tag_452\n        /* \"#utility.yul\":8555:8562   */\n      dup5\n        /* \"#utility.yul\":8546:8552   */\n      dup3\n        /* \"#utility.yul\":8535:8544   */\n      dup6\n        /* \"#utility.yul\":8531:8553   */\n      add\n        /* \"#utility.yul\":8510:8563   */\n      tag_328\n      jump\t// in\n    tag_452:\n        /* \"#utility.yul\":8500:8563   */\n      swap2\n      pop\n        /* \"#utility.yul\":8456:8573   */\n      pop\n        /* \"#utility.yul\":8251:8580   */\n      swap3\n      swap2\n      pop\n      pop\n      jump\t// out\n        /* \"#utility.yul\":8586:8704   */\n    tag_346:\n        /* \"#utility.yul\":8673:8697   */\n      tag_454\n        /* \"#utility.yul\":8691:8696   */\n      dup2\n        /* \"#utility.yul\":8673:8697   */\n      tag_326\n      jump\t// in\n    tag_454:\n        /* \"#utility.yul\":8668:8671   */\n      dup3\n        /* \"#utility.yul\":8661:8698   */\n      mstore\n        /* \"#utility.yul\":8586:8704   */\n      pop\n      pop\n      jump\t// out\n        /* \"#utility.yul\":8710:8932   */\n    tag_97:\n        /* \"#utility.yul\":8803:8807   */\n      0x00\n        /* \"#utility.yul\":8841:8843   */\n      0x20\n        /* \"#utility.yul\":8830:8839   */\n      dup3\n        /* \"#utility.yul\":8826:8844   */\n      add\n        /* \"#utility.yul\":8818:8844   */\n      swap1\n      pop\n        /* \"#utility.yul\":8854:8925   */\n      tag_456\n        /* \"#utility.yul\":8922:8923   */\n      0x00\n        /* \"#utility.yul\":8911:8920   */\n      dup4\n        /* \"#utility.yul\":8907:8924   */\n      add\n        /* \"#utility.yul\":8898:8904   */\n      dup5\n        /* \"#utility.yul\":8854:8925   */\n      tag_346\n      jump\t// in\n    tag_456:\n        /* \"#utility.yul\":8710:8932   */\n      swap3\n      swap2\n      pop\n      pop\n      jump\t// out\n        /* \"#utility.yul\":8938:9557   */\n    tag_118:\n        /* \"#utility.yul\":9015:9021   */\n      0x00\n        /* \"#utility.yul\":9023:9029   */\n      0x00\n        /* \"#utility.yul\":9031:9037   */\n      0x00\n        /* \"#utility.yul\":9080:9082   */\n      0x60\n        /* \"#utility.yul\":9068:9077   */\n      dup5\n        /* \"#utility.yul\":9059:9066   */\n      dup7\n        /* \"#utility.yul\":9055:9078   */\n      sub\n        /* \"#utility.yul\":9051:9083   */\n      slt\n        /* \"#utility.yul\":9048:9167   */\n      iszero\n      tag_458\n      jumpi\n        /* \"#utility.yul\":9086:9165   */\n      tag_459\n      tag_323\n      jump\t// in\n    tag_459:\n        /* \"#utility.yul\":9048:9167   */\n    tag_458:\n        /* \"#utility.yul\":9206:9207   */\n      0x00\n        /* \"#utility.yul\":9231:9284   */\n      tag_460\n        /* \"#utility.yul\":9276:9283   */\n      dup7\n        /* \"#utility.yul\":9267:9273   */\n      dup3\n        /* \"#utility.yul\":9256:9265   */\n      dup8\n        /* \"#utility.yul\":9252:9274   */\n      add\n        /* \"#utility.yul\":9231:9284   */\n      tag_331\n      jump\t// in\n    tag_460:\n        /* \"#utility.yul\":9221:9284   */\n      swap4\n      pop\n        /* \"#utility.yul\":9177:9294   */\n      pop\n        /* \"#utility.yul\":9333:9335   */\n      0x20\n        /* \"#utility.yul\":9359:9412   */\n      tag_461\n        /* \"#utility.yul\":9404:9411   */\n      dup7\n        /* \"#utility.yul\":9395:9401   */\n      dup3\n        /* \"#utility.yul\":9384:9393   */\n      dup8\n        /* \"#utility.yul\":9380:9402   */\n      add\n        /* \"#utility.yul\":9359:9412   */\n      tag_328\n      jump\t// in\n    tag_461:\n        /* \"#utility.yul\":9349:9412   */\n      swap3\n      pop\n        /* \"#utility.yul\":9304:9422   */\n      pop\n        /* \"#utility.yul\":9461:9463   */\n      0x40\n        /* \"#utility.yul\":9487:9540   */\n      tag_462\n        /* \"#utility.yul\":9532:9539   */\n      dup7\n        /* \"#utility.yul\":9523:9529   */\n      dup3\n        /* \"#utility.yul\":9512:9521   */\n      dup8\n        /* \"#utility.yul\":9508:9530   */\n      add\n        /* \"#utility.yul\":9487:9540   */\n      tag_328\n      jump\t// in\n    tag_462:\n        /* \"#utility.yul\":9477:9540   */\n      swap2\n      pop\n        /* \"#utility.yul\":9432:9550   */\n      pop\n        /* \"#utility.yul\":8938:9557   */\n      swap3\n      pop\n      swap3\n      pop\n      swap3\n      jump\t// out\n        /* \"#utility.yul\":9563:9681   */\n    tag_347:\n        /* \"#utility.yul\":9634:9656   */\n      tag_464\n        /* \"#utility.yul\":9650:9655   */\n      dup2\n        /* \"#utility.yul\":9634:9656   */\n      tag_342\n      jump\t// in\n    tag_464:\n        /* \"#utility.yul\":9627:9632   */\n      dup2\n        /* \"#utility.yul\":9624:9657   */\n      eq\n        /* \"#utility.yul\":9614:9675   */\n      tag_465\n      jumpi\n        /* \"#utility.yul\":9671:9672   */\n      0x00\n        /* \"#utility.yul\":9668:9669   */\n      0x00\n        /* \"#utility.yul\":9661:9673   */\n      revert\n        /* \"#utility.yul\":9614:9675   */\n    tag_465:\n        /* \"#utility.yul\":9563:9681   */\n      pop\n      jump\t// out\n        /* \"#utility.yul\":9687:9822   */\n    tag_348:\n        /* \"#utility.yul\":9731:9736   */\n      0x00\n        /* \"#utility.yul\":9769:9775   */\n      dup2\n        /* \"#utility.yul\":9756:9776   */\n      calldataload\n        /* \"#utility.yul\":9747:9776   */\n      swap1\n      pop\n        /* \"#utility.yul\":9785:9816   */\n      tag_467\n        /* \"#utility.yul\":9810:9815   */\n      dup2\n        /* \"#utility.yul\":9785:9816   */\n      tag_347\n      jump\t// in\n    tag_467:\n        /* \"#utility.yul\":9687:9822   */\n      swap3\n      swap2\n      pop\n      pop\n      jump\t// out\n        /* \"#utility.yul\":9828:9950   */\n    tag_349:\n        /* \"#utility.yul\":9901:9925   */\n      tag_469\n        /* \"#utility.yul\":9919:9924   */\n      dup2\n        /* \"#utility.yul\":9901:9925   */\n      tag_344\n      jump\t// in\n    tag_469:\n        /* \"#utility.yul\":9894:9899   */\n      dup2\n        /* \"#utility.yul\":9891:9926   */\n      eq\n        /* \"#utility.yul\":9881:9944   */\n      tag_470\n      jumpi\n        /* \"#utility.yul\":9940:9941   */\n      0x00\n        /* \"#utility.yul\":9937:9938   */\n      0x00\n        /* \"#utility.yul\":9930:9942   */\n      revert\n        /* \"#utility.yul\":9881:9944   */\n    tag_470:\n        /* \"#utility.yul\":9828:9950   */\n      pop\n      jump\t// out\n        /* \"#utility.yul\":9956:10095   */\n    tag_350:\n        /* \"#utility.yul\":10002:10007   */\n      0x00\n        /* \"#utility.yul\":10040:10046   */\n      dup2\n        /* \"#utility.yul\":10027:10047   */\n      calldataload\n        /* \"#utility.yul\":10018:10047   */\n      swap1\n      pop\n        /* \"#utility.yul\":10056:10089   */\n      tag_472\n        /* \"#utility.yul\":10083:10088   */\n      dup2\n        /* \"#utility.yul\":10056:10089   */\n      tag_349\n      jump\t// in\n    tag_472:\n        /* \"#utility.yul\":9956:10095   */\n      swap3\n      swap2\n      pop\n      pop\n      jump\t// out\n        /* \"#utility.yul\":10101:11300   */\n    tag_128:\n        /* \"#utility.yul\":10212:10218   */\n      0x00\n        /* \"#utility.yul\":10220:10226   */\n      0x00\n        /* \"#utility.yul\":10228:10234   */\n      0x00\n        /* \"#utility.yul\":10236:10242   */\n      0x00\n        /* \"#utility.yul\":10244:10250   */\n      0x00\n        /* \"#utility.yul\":10252:10258   */\n      0x00\n        /* \"#utility.yul\":10260:10266   */\n      0x00\n        /* \"#utility.yul\":10309:10312   */\n      0xe0\n        /* \"#utility.yul\":10297:10306   */\n      dup9\n        /* \"#utility.yul\":10288:10295   */\n      dup11\n        /* \"#utility.yul\":10284:10307   */\n      sub\n        /* \"#utility.yul\":10280:10313   */\n      slt\n        /* \"#utility.yul\":10277:10397   */\n      iszero\n      tag_474\n      jumpi\n        /* \"#utility.yul\":10316:10395   */\n      tag_475\n      tag_323\n      jump\t// in\n    tag_475:\n        /* \"#utility.yul\":10277:10397   */\n    tag_474:\n        /* \"#utility.yul\":10436:10437   */\n      0x00\n        /* \"#utility.yul\":10461:10514   */\n      tag_476\n        /* \"#utility.yul\":10506:10513   */\n      dup11\n        /* \"#utility.yul\":10497:10503   */\n      dup3\n        /* \"#utility.yul\":10486:10495   */\n      dup12\n        /* \"#utility.yul\":10482:10504   */\n      add\n        /* \"#utility.yul\":10461:10514   */\n      tag_328\n      jump\t// in\n    tag_476:\n        /* \"#utility.yul\":10451:10514   */\n      swap8\n      pop\n        /* \"#utility.yul\":10407:10524   */\n      pop\n        /* \"#utility.yul\":10563:10565   */\n      0x20\n        /* \"#utility.yul\":10589:10642   */\n      tag_477\n        /* \"#utility.yul\":10634:10641   */\n      dup11\n        /* \"#utility.yul\":10625:10631   */\n      dup3\n        /* \"#utility.yul\":10614:10623   */\n      dup12\n        /* \"#utility.yul\":10610:10632   */\n      add\n        /* \"#utility.yul\":10589:10642   */\n      tag_328\n      jump\t// in\n    tag_477:\n        /* \"#utility.yul\":10579:10642   */\n      swap7\n      pop\n        /* \"#utility.yul\":10534:10652   */\n      pop\n        /* \"#utility.yul\":10691:10693   */\n      0x40\n        /* \"#utility.yul\":10717:10770   */\n      tag_478\n        /* \"#utility.yul\":10762:10769   */\n      dup11\n        /* \"#utility.yul\":10753:10759   */\n      dup3\n        /* \"#utility.yul\":10742:10751   */\n      dup12\n        /* \"#utility.yul\":10738:10760   */\n      add\n        /* \"#utility.yul\":10717:10770   */\n      tag_331\n      jump\t// in\n    tag_478:\n        /* \"#utility.yul\":10707:10770   */\n      swap6\n      pop\n        /* \"#utility.yul\":10662:10780   */\n      pop\n        /* \"#utility.yul\":10819:10821   */\n      0x60\n        /* \"#utility.yul\":10845:10898   */\n      tag_479\n        /* \"#utility.yul\":10890:10897   */\n      dup11\n        /* \"#utility.yul\":10881:10887   */\n      dup3\n        /* \"#utility.yul\":10870:10879   */\n      dup12\n        /* \"#utility.yul\":10866:10888   */\n      add\n        /* \"#utility.yul\":10845:10898   */\n      tag_331\n      jump\t// in\n    tag_479:\n        /* \"#utility.yul\":10835:10898   */\n      swap5\n      pop\n        /* \"#utility.yul\":10790:10908   */\n      pop\n        /* \"#utility.yul\":10947:10950   */\n      0x80\n        /* \"#utility.yul\":10974:11025   */\n      tag_480\n        /* \"#utility.yul\":11017:11024   */\n      dup11\n        /* \"#utility.yul\":11008:11014   */\n      dup3\n        /* \"#utility.yul\":10997:11006   */\n      dup12\n        /* \"#utility.yul\":10993:11015   */\n      add\n        /* \"#utility.yul\":10974:11025   */\n      tag_348\n      jump\t// in\n    tag_480:\n        /* \"#utility.yul\":10964:11025   */\n      swap4\n      pop\n        /* \"#utility.yul\":10918:11035   */\n      pop\n        /* \"#utility.yul\":11074:11077   */\n      0xa0\n        /* \"#utility.yul\":11101:11154   */\n      tag_481\n        /* \"#utility.yul\":11146:11153   */\n      dup11\n        /* \"#utility.yul\":11137:11143   */\n      dup3\n        /* \"#utility.yul\":11126:11135   */\n      dup12\n        /* \"#utility.yul\":11122:11144   */\n      add\n        /* \"#utility.yul\":11101:11154   */\n      tag_350\n      jump\t// in\n    tag_481:\n        /* \"#utility.yul\":11091:11154   */\n      swap3\n      pop\n        /* \"#utility.yul\":11045:11164   */\n      pop\n        /* \"#utility.yul\":11203:11206   */\n      0xc0\n        /* \"#utility.yul\":11230:11283   */\n      tag_482\n        /* \"#utility.yul\":11275:11282   */\n      dup11\n        /* \"#utility.yul\":11266:11272   */\n      dup3\n        /* \"#utility.yul\":11255:11264   */\n      dup12\n        /* \"#utility.yul\":11251:11273   */\n      add\n        /* \"#utility.yul\":11230:11283   */\n      tag_350\n      jump\t// in\n    tag_482:\n        /* \"#utility.yul\":11220:11283   */\n      swap2\n      pop\n        /* \"#utility.yul\":11174:11293   */\n      pop\n        /* \"#utility.yul\":10101:11300   */\n      swap3\n      swap6\n      swap9\n      swap2\n      swap5\n      swap8\n      pop\n      swap3\n      swap6\n      pop\n      jump\t// out\n        /* \"#utility.yul\":11306:11780   */\n    tag_133:\n        /* \"#utility.yul\":11374:11380   */\n      0x00\n        /* \"#utility.yul\":11382:11388   */\n      0x00\n        /* \"#utility.yul\":11431:11433   */\n      0x40\n        /* \"#utility.yul\":11419:11428   */\n      dup4\n        /* \"#utility.yul\":11410:11417   */\n      dup6\n        /* \"#utility.yul\":11406:11429   */\n      sub\n        /* \"#utility.yul\":11402:11434   */\n      slt\n        /* \"#utility.yul\":11399:11518   */\n      iszero\n      tag_484\n      jumpi\n        /* \"#utility.yul\":11437:11516   */\n      tag_485\n      tag_323\n      jump\t// in\n    tag_485:\n        /* \"#utility.yul\":11399:11518   */\n    tag_484:\n        /* \"#utility.yul\":11557:11558   */\n      0x00\n        /* \"#utility.yul\":11582:11635   */\n      tag_486\n        /* \"#utility.yul\":11627:11634   */\n      dup6\n        /* \"#utility.yul\":11618:11624   */\n      dup3\n        /* \"#utility.yul\":11607:11616   */\n      dup7\n        /* \"#utility.yul\":11603:11625   */\n      add\n        /* \"#utility.yul\":11582:11635   */\n      tag_328\n      jump\t// in\n    tag_486:\n        /* \"#utility.yul\":11572:11635   */\n      swap3\n      pop\n        /* \"#utility.yul\":11528:11645   */\n      pop\n        /* \"#utility.yul\":11684:11686   */\n      0x20\n        /* \"#utility.yul\":11710:11763   */\n      tag_487\n        /* \"#utility.yul\":11755:11762   */\n      dup6\n        /* \"#utility.yul\":11746:11752   */\n      dup3\n        /* \"#utility.yul\":11735:11744   */\n      dup7\n        /* \"#utility.yul\":11731:11753   */\n      add\n        /* \"#utility.yul\":11710:11763   */\n      tag_328\n      jump\t// in\n    tag_487:\n        /* \"#utility.yul\":11700:11763   */\n      swap2\n      pop\n        /* \"#utility.yul\":11655:11773   */\n      pop\n        /* \"#utility.yul\":11306:11780   */\n      swap3\n      pop\n      swap3\n      swap1\n      pop\n      jump\t// out\n        /* \"#utility.yul\":11786:11966   */\n    tag_351:\n        /* \"#utility.yul\":11834:11911   */\n      0x4e487b7100000000000000000000000000000000000000000000000000000000\n        /* \"#utility.yul\":11831:11832   */\n      0x00\n        /* \"#utility.yul\":11824:11912   */\n      mstore\n        /* \"#utility.yul\":11931:11935   */\n      0x22\n        /* \"#utility.yul\":11928:11929   */\n      0x04\n        /* \"#utility.yul\":11921:11936   */\n      mstore\n        /* \"#utility.yul\":11955:11959   */\n      0x24\n        /* \"#utility.yul\":11952:11953   */\n      0x00\n        /* \"#utility.yul\":11945:11960   */\n      revert\n        /* \"#utility.yul\":11972:12292   */\n    tag_151:\n        /* \"#utility.yul\":12016:12022   */\n      0x00\n        /* \"#utility.yul\":12053:12054   */\n      0x02\n        /* \"#utility.yul\":12047:12051   */\n      dup3\n        /* \"#utility.yul\":12043:12055   */\n      div\n        /* \"#utility.yul\":12033:12055   */\n      swap1\n      pop\n        /* \"#utility.yul\":12100:12101   */\n      0x01\n        /* \"#utility.yul\":12094:12098   */\n      dup3\n        /* \"#utility.yul\":12090:12102   */\n      and\n        /* \"#utility.yul\":12121:12139   */\n      dup1\n        /* \"#utility.yul\":12111:12192   */\n      tag_490\n      jumpi\n        /* \"#utility.yul\":12177:12181   */\n      0x7f\n        /* \"#utility.yul\":12169:12175   */\n      dup3\n        /* \"#utility.yul\":12165:12182   */\n      and\n        /* \"#utility.yul\":12155:12182   */\n      swap2\n      pop\n        /* \"#utility.yul\":12111:12192   */\n    tag_490:\n        /* \"#utility.yul\":12239:12241   */\n      0x20\n        /* \"#utility.yul\":12231:12237   */\n      dup3\n        /* \"#utility.yul\":12228:12242   */\n      lt\n        /* \"#utility.yul\":12208:12226   */\n      dup2\n        /* \"#utility.yul\":12205:12243   */\n      sub\n        /* \"#utility.yul\":12202:12286   */\n      tag_491\n      jumpi\n        /* \"#utility.yul\":12258:12276   */\n      tag_492\n      tag_351\n      jump\t// in\n    tag_492:\n        /* \"#utility.yul\":12202:12286   */\n    tag_491:\n        /* \"#utility.yul\":12023:12292   */\n      pop\n        /* \"#utility.yul\":11972:12292   */\n      swap2\n      swap1\n      pop\n      jump\t// out\n        /* \"#utility.yul\":12298:12445   */\n    tag_352:\n        /* \"#utility.yul\":12399:12410   */\n      0x00\n        /* \"#utility.yul\":12436:12439   */\n      dup2\n        /* \"#utility.yul\":12421:12439   */\n      swap1\n      pop\n        /* \"#utility.yul\":12298:12445   */\n      swap3\n      swap2\n      pop\n      pop\n      jump\t// out\n        /* \"#utility.yul\":12451:12599   */\n    tag_353:\n        /* \"#utility.yul\":12549:12555   */\n      dup3\n        /* \"#utility.yul\":12544:12547   */\n      dup2\n        /* \"#utility.yul\":12539:12542   */\n      dup4\n        /* \"#utility.yul\":12526:12556   */\n      calldatacopy\n        /* \"#utility.yul\":12590:12591   */\n      0x00\n        /* \"#utility.yul\":12581:12587   */\n      dup4\n        /* \"#utility.yul\":12576:12579   */\n      dup4\n        /* \"#utility.yul\":12572:12588   */\n      add\n        /* \"#utility.yul\":12565:12592   */\n      mstore\n        /* \"#utility.yul\":12451:12599   */\n      pop\n      pop\n      pop\n      jump\t// out\n        /* \"#utility.yul\":12627:12954   */\n    tag_354:\n        /* \"#utility.yul\":12741:12744   */\n      0x00\n        /* \"#utility.yul\":12762:12850   */\n      tag_496\n        /* \"#utility.yul\":12843:12849   */\n      dup4\n        /* \"#utility.yul\":12838:12841   */\n      dup6\n        /* \"#utility.yul\":12762:12850   */\n      tag_352\n      jump\t// in\n    tag_496:\n        /* \"#utility.yul\":12755:12850   */\n      swap4\n      pop\n        /* \"#utility.yul\":12860:12916   */\n      tag_497\n        /* \"#utility.yul\":12909:12915   */\n      dup4\n        /* \"#utility.yul\":12904:12907   */\n      dup6\n        /* \"#utility.yul\":12897:12902   */\n      dup5\n        /* \"#utility.yul\":12860:12916   */\n      tag_353\n      jump\t// in\n    tag_497:\n        /* \"#utility.yul\":12941:12947   */\n      dup3\n        /* \"#utility.yul\":12936:12939   */\n      dup5\n        /* \"#utility.yul\":12932:12948   */\n      add\n        /* \"#utility.yul\":12925:12948   */\n      swap1\n      pop\n        /* \"#utility.yul\":12627:12954   */\n      swap4\n      swap3\n      pop\n      pop\n      pop\n      jump\t// out\n        /* \"#utility.yul\":12960:13251   */\n    tag_166:\n        /* \"#utility.yul\":13100:13103   */\n      0x00\n        /* \"#utility.yul\":13122:13225   */\n      tag_499\n        /* \"#utility.yul\":13221:13224   */\n      dup3\n        /* \"#utility.yul\":13212:13218   */\n      dup5\n        /* \"#utility.yul\":13204:13210   */\n      dup7\n        /* \"#utility.yul\":13122:13225   */\n      tag_354\n      jump\t// in\n    tag_499:\n        /* \"#utility.yul\":13115:13225   */\n      swap2\n      pop\n        /* \"#utility.yul\":13242:13245   */\n      dup2\n        /* \"#utility.yul\":13235:13245   */\n      swap1\n      pop\n        /* \"#utility.yul\":12960:13251   */\n      swap4\n      swap3\n      pop\n      pop\n      pop\n      jump\t// out\n        /* \"#utility.yul\":13257:13437   */\n    tag_355:\n        /* \"#utility.yul\":13305:13382   */\n      0x4e487b7100000000000000000000000000000000000000000000000000000000\n        /* \"#utility.yul\":13302:13303   */\n      0x00\n        /* \"#utility.yul\":13295:13383   */\n      mstore\n        /* \"#utility.yul\":13402:13406   */\n      0x11\n        /* \"#utility.yul\":13399:13400   */\n      0x04\n        /* \"#utility.yul\":13392:13407   */\n      mstore\n        /* \"#utility.yul\":13426:13430   */\n      0x24\n        /* \"#utility.yul\":13423:13424   */\n      0x00\n        /* \"#utility.yul\":13416:13431   */\n      revert\n        /* \"#utility.yul\":13443:13634   */\n    tag_196:\n        /* \"#utility.yul\":13483:13486   */\n      0x00\n        /* \"#utility.yul\":13502:13522   */\n      tag_502\n        /* \"#utility.yul\":13520:13521   */\n      dup3\n        /* \"#utility.yul\":13502:13522   */\n      tag_329\n      jump\t// in\n    tag_502:\n        /* \"#utility.yul\":13497:13522   */\n      swap2\n      pop\n        /* \"#utility.yul\":13536:13556   */\n      tag_503\n        /* \"#utility.yul\":13554:13555   */\n      dup4\n        /* \"#utility.yul\":13536:13556   */\n      tag_329\n      jump\t// in\n    tag_503:\n        /* \"#utility.yul\":13531:13556   */\n      swap3\n      pop\n        /* \"#utility.yul\":13579:13580   */\n      dup3\n        /* \"#utility.yul\":13576:13577   */\n      dup3\n        /* \"#utility.yul\":13572:13581   */\n      add\n        /* \"#utility.yul\":13565:13581   */\n      swap1\n      pop\n        /* \"#utility.yul\":13600:13603   */\n      dup1\n        /* \"#utility.yul\":13597:13598   */\n      dup3\n        /* \"#utility.yul\":13594:13604   */\n      gt\n        /* \"#utility.yul\":13591:13627   */\n      iszero\n      tag_504\n      jumpi\n        /* \"#utility.yul\":13607:13625   */\n      tag_505\n      tag_355\n      jump\t// in\n    tag_505:\n        /* \"#utility.yul\":13591:13627   */\n    tag_504:\n        /* \"#utility.yul\":13443:13634   */\n      swap3\n      swap2\n      pop\n      pop\n      jump\t// out\n        /* \"#utility.yul\":13640:14050   */\n    tag_199:\n        /* \"#utility.yul\":13680:13687   */\n      0x00\n        /* \"#utility.yul\":13703:13723   */\n      tag_507\n        /* \"#utility.yul\":13721:13722   */\n      dup3\n        /* \"#utility.yul\":13703:13723   */\n      tag_329\n      jump\t// in\n    tag_507:\n        /* \"#utility.yul\":13698:13723   */\n      swap2\n      pop\n        /* \"#utility.yul\":13737:13757   */\n      tag_508\n        /* \"#utility.yul\":13755:13756   */\n      dup4\n        /* \"#utility.yul\":13737:13757   */\n      tag_329\n      jump\t// in\n    tag_508:\n        /* \"#utility.yul\":13732:13757   */\n      swap3\n      pop\n        /* \"#utility.yul\":13792:13793   */\n      dup3\n        /* \"#utility.yul\":13789:13790   */\n      dup3\n        /* \"#utility.yul\":13785:13794   */\n      mul\n        /* \"#utility.yul\":13814:13844   */\n      tag_509\n        /* \"#utility.yul\":13832:13843   */\n      dup2\n        /* \"#utility.yul\":13814:13844   */\n      tag_329\n      jump\t// in\n    tag_509:\n        /* \"#utility.yul\":13803:13844   */\n      swap2\n      pop\n        /* \"#utility.yul\":13993:13994   */\n      dup3\n        /* \"#utility.yul\":13984:13991   */\n      dup3\n        /* \"#utility.yul\":13980:13995   */\n      div\n        /* \"#utility.yul\":13977:13978   */\n      dup5\n        /* \"#utility.yul\":13974:13996   */\n      eq\n        /* \"#utility.yul\":13954:13955   */\n      dup4\n        /* \"#utility.yul\":13947:13956   */\n      iszero\n        /* \"#utility.yul\":13927:14010   */\n      or\n        /* \"#utility.yul\":13904:14043   */\n      tag_510\n      jumpi\n        /* \"#utility.yul\":14023:14041   */\n      tag_511\n      tag_355\n      jump\t// in\n    tag_511:\n        /* \"#utility.yul\":13904:14043   */\n    tag_510:\n        /* \"#utility.yul\":13688:14050   */\n      pop\n        /* \"#utility.yul\":13640:14050   */\n      swap3\n      swap2\n      pop\n      pop\n      jump\t// out\n        /* \"#utility.yul\":14056:14236   */\n    tag_356:\n        /* \"#utility.yul\":14104:14181   */\n      0x4e487b7100000000000000000000000000000000000000000000000000000000\n        /* \"#utility.yul\":14101:14102   */\n      0x00\n        /* \"#utility.yul\":14094:14182   */\n      mstore\n        /* \"#utility.yul\":14201:14205   */\n      0x12\n        /* \"#utility.yul\":14198:14199   */\n      0x04\n        /* \"#utility.yul\":14191:14206   */\n      mstore\n        /* \"#utility.yul\":14225:14229   */\n      0x24\n        /* \"#utility.yul\":14222:14223   */\n      0x00\n        /* \"#utility.yul\":14215:14230   */\n      revert\n        /* \"#utility.yul\":14242:14427   */\n    tag_201:\n        /* \"#utility.yul\":14282:14283   */\n      0x00\n        /* \"#utility.yul\":14299:14319   */\n      tag_514\n        /* \"#utility.yul\":14317:14318   */\n      dup3\n        /* \"#utility.yul\":14299:14319   */\n      tag_329\n      jump\t// in\n    tag_514:\n        /* \"#utility.yul\":14294:14319   */\n      swap2\n      pop\n        /* \"#utility.yul\":14333:14353   */\n      tag_515\n        /* \"#utility.yul\":14351:14352   */\n      dup4\n        /* \"#utility.yul\":14333:14353   */\n      tag_329\n      jump\t// in\n    tag_515:\n        /* \"#utility.yul\":14328:14353   */\n      swap3\n      pop\n        /* \"#utility.yul\":14372:14373   */\n      dup3\n        /* \"#utility.yul\":14362:14397   */\n      tag_516\n      jumpi\n        /* \"#utility.yul\":14377:14395   */\n      tag_517\n      tag_356\n      jump\t// in\n    tag_517:\n        /* \"#utility.yul\":14362:14397   */\n    tag_516:\n        /* \"#utility.yul\":14419:14420   */\n      dup3\n        /* \"#utility.yul\":14416:14417   */\n      dup3\n        /* \"#utility.yul\":14412:14421   */\n      div\n        /* \"#utility.yul\":14407:14421   */\n      swap1\n      pop\n        /* \"#utility.yul\":14242:14427   */\n      swap3\n      swap2\n      pop\n      pop\n      jump\t// out\n        /* \"#utility.yul\":14433:14627   */\n    tag_212:\n        /* \"#utility.yul\":14473:14477   */\n      0x00\n        /* \"#utility.yul\":14493:14513   */\n      tag_519\n        /* \"#utility.yul\":14511:14512   */\n      dup3\n        /* \"#utility.yul\":14493:14513   */\n      tag_329\n      jump\t// in\n    tag_519:\n        /* \"#utility.yul\":14488:14513   */\n      swap2\n      pop\n        /* \"#utility.yul\":14527:14547   */\n      tag_520\n        /* \"#utility.yul\":14545:14546   */\n      dup4\n        /* \"#utility.yul\":14527:14547   */\n      tag_329\n      jump\t// in\n    tag_520:\n        /* \"#utility.yul\":14522:14547   */\n      swap3\n      pop\n        /* \"#utility.yul\":14571:14572   */\n      dup3\n        /* \"#utility.yul\":14568:14569   */\n      dup3\n        /* \"#utility.yul\":14564:14573   */\n      sub\n        /* \"#utility.yul\":14556:14573   */\n      swap1\n      pop\n        /* \"#utility.yul\":14595:14596   */\n      dup2\n        /* \"#utility.yul\":14589:14593   */\n      dup2\n        /* \"#utility.yul\":14586:14597   */\n      gt\n        /* \"#utility.yul\":14583:14620   */\n      iszero\n      tag_521\n      jumpi\n        /* \"#utility.yul\":14600:14618   */\n      tag_522\n      tag_355\n      jump\t// in\n    tag_522:\n        /* \"#utility.yul\":14583:14620   */\n    tag_521:\n        /* \"#utility.yul\":14433:14627   */\n      swap3\n      swap2\n      pop\n      pop\n      jump\t// out\n        /* \"#utility.yul\":14633:14747   */\n    tag_357:\n      pop\n      jump\t// out\n        /* \"#utility.yul\":14753:15151   */\n    tag_358:\n        /* \"#utility.yul\":14912:14915   */\n      0x00\n        /* \"#utility.yul\":14933:15016   */\n      tag_525\n        /* \"#utility.yul\":15014:15015   */\n      0x00\n        /* \"#utility.yul\":15009:15012   */\n      dup4\n        /* \"#utility.yul\":14933:15016   */\n      tag_352\n      jump\t// in\n    tag_525:\n        /* \"#utility.yul\":14926:15016   */\n      swap2\n      pop\n        /* \"#utility.yul\":15025:15118   */\n      tag_526\n        /* \"#utility.yul\":15114:15117   */\n      dup3\n        /* \"#utility.yul\":15025:15118   */\n      tag_357\n      jump\t// in\n    tag_526:\n        /* \"#utility.yul\":15143:15144   */\n      0x00\n        /* \"#utility.yul\":15138:15141   */\n      dup3\n        /* \"#utility.yul\":15134:15145   */\n      add\n        /* \"#utility.yul\":15127:15145   */\n      swap1\n      pop\n        /* \"#utility.yul\":14753:15151   */\n      swap2\n      swap1\n      pop\n      jump\t// out\n        /* \"#utility.yul\":15157:15536   */\n    tag_246:\n        /* \"#utility.yul\":15341:15344   */\n      0x00\n        /* \"#utility.yul\":15363:15510   */\n      tag_528\n        /* \"#utility.yul\":15506:15509   */\n      dup3\n        /* \"#utility.yul\":15363:15510   */\n      tag_358\n      jump\t// in\n    tag_528:\n        /* \"#utility.yul\":15356:15510   */\n      swap2\n      pop\n        /* \"#utility.yul\":15527:15530   */\n      dup2\n        /* \"#utility.yul\":15520:15530   */\n      swap1\n      pop\n        /* \"#utility.yul\":15157:15536   */\n      swap2\n      swap1\n      pop\n      jump\t// out\n        /* \"#utility.yul\":15542:15874   */\n    tag_252:\n        /* \"#utility.yul\":15663:15667   */\n      0x00\n        /* \"#utility.yul\":15701:15703   */\n      0x40\n        /* \"#utility.yul\":15690:15699   */\n      dup3\n        /* \"#utility.yul\":15686:15704   */\n      add\n        /* \"#utility.yul\":15678:15704   */\n      swap1\n      pop\n        /* \"#utility.yul\":15714:15785   */\n      tag_530\n        /* \"#utility.yul\":15782:15783   */\n      0x00\n        /* \"#utility.yul\":15771:15780   */\n      dup4\n        /* \"#utility.yul\":15767:15784   */\n      add\n        /* \"#utility.yul\":15758:15764   */\n      dup6\n        /* \"#utility.yul\":15714:15785   */\n      tag_341\n      jump\t// in\n    tag_530:\n        /* \"#utility.yul\":15795:15867   */\n      tag_531\n        /* \"#utility.yul\":15863:15865   */\n      0x20\n        /* \"#utility.yul\":15852:15861   */\n      dup4\n        /* \"#utility.yul\":15848:15866   */\n      add\n        /* \"#utility.yul\":15839:15845   */\n      dup5\n        /* \"#utility.yul\":15795:15867   */\n      tag_341\n      jump\t// in\n    tag_531:\n        /* \"#utility.yul\":15542:15874   */\n      swap4\n      swap3\n      pop\n      pop\n      pop\n      jump\t// out\n\n    auxdata: 0xa2646970667358221220777e1fc85ded1323491fc3b1403bc48112df8c7520f5203ebfda43e69fdfb90b64736f6c634300081c0033\n}\n",
				"bytecode": {
					"linkReferences": {},
					"object": "60a0604052426080908152505f6003555f60045534801561001e575f5ffd5b506040516124dd3803806124dd83398181016040528101906100409190610351565b825f73ffffffffffffffffffffffffffffffffffffffff168173ffffffffffffffffffffffffffffffffffffffff16036100b1575f6040517f1e4fbdf70000000000000000000000000000000000000000000000000000000081526004016100a891906103e8565b60405180910390fd5b6100c0816100e960201b60201c565b5081600190816100d09190610611565b5080600290816100e09190610611565b505050506106e0565b5f5f5f9054906101000a900473ffffffffffffffffffffffffffffffffffffffff169050815f5f6101000a81548173ffffffffffffffffffffffffffffffffffffffff021916908373ffffffffffffffffffffffffffffffffffffffff1602179055508173ffffffffffffffffffffffffffffffffffffffff168173ffffffffffffffffffffffffffffffffffffffff167f8be0079c531659141344cd1fd0a4f28419497f9722a3daafe3b4186f6b6457e060405160405180910390a35050565b5f604051905090565b5f5ffd5b5f5ffd5b5f73ffffffffffffffffffffffffffffffffffffffff82169050919050565b5f6101e4826101bb565b9050919050565b6101f4816101da565b81146101fe575f5ffd5b50565b5f8151905061020f816101eb565b92915050565b5f5ffd5b5f5ffd5b5f601f19601f8301169050919050565b7f4e487b71000000000000000000000000000000000000000000000000000000005f52604160045260245ffd5b6102638261021d565b810181811067ffffffffffffffff821117156102825761028161022d565b5b80604052505050565b5f6102946101aa565b90506102a0828261025a565b919050565b5f67ffffffffffffffff8211156102bf576102be61022d565b5b6102c88261021d565b9050602081019050919050565b8281835e5f83830152505050565b5f6102f56102f0846102a5565b61028b565b90508281526020810184848401111561031157610310610219565b5b61031c8482856102d5565b509392505050565b5f82601f83011261033857610337610215565b5b81516103488482602086016102e3565b91505092915050565b5f5f5f60608486031215610368576103676101b3565b5b5f61037586828701610201565b935050602084015167ffffffffffffffff811115610396576103956101b7565b5b6103a286828701610324565b925050604084015167ffffffffffffffff8111156103c3576103c26101b7565b5b6103cf86828701610324565b9150509250925092565b6103e2816101da565b82525050565b5f6020820190506103fb5f8301846103d9565b92915050565b5f81519050919050565b7f4e487b71000000000000000000000000000000000000000000000000000000005f52602260045260245ffd5b5f600282049050600182168061044f57607f821691505b6020821081036104625761046161040b565b5b50919050565b5f819050815f5260205f209050919050565b5f6020601f8301049050919050565b5f82821b905092915050565b5f600883026104c47fffffffffffffffffffffffffffffffffffffffffffffffffffffffffffffffff82610489565b6104ce8683610489565b95508019841693508086168417925050509392505050565b5f819050919050565b5f819050919050565b5f61051261050d610508846104e6565b6104ef565b6104e6565b9050919050565b5f819050919050565b61052b836104f8565b61053f61053782610519565b848454610495565b825550505050565b5f5f905090565b610556610547565b610561818484610522565b505050565b5b81811015610584576105795f8261054e565b600181019050610567565b5050565b601f8211156105c95761059a81610468565b6105a38461047a565b810160208510156105b2578190505b6105c66105be8561047a565b830182610566565b50505b505050565b5f82821c905092915050565b5f6105e95f19846008026105ce565b1980831691505092915050565b5f61060183836105da565b9150826002028217905092915050565b61061a82610401565b67ffffffffffffffff8111156106335761063261022d565b5b61063d8254610438565b610648828285610588565b5f60209050601f831160018114610679575f8415610667578287015190505b61067185826105f6565b8655506106d8565b601f19841661068786610468565b5f5b828110156106ae57848901518255600182019150602085019450602081019050610689565b868310156106cb57848901516106c7601f8916826105da565b8355505b6001600288020188555050505b505050505050565b608051611dde6106ff5f395f8181610a460152610c040152611dde5ff3fe60806040526004361061014a575f3560e01c80638da5cb5b116100b5578063d28d88521161006e578063d28d8852146104be578063d505accf146104e8578063dd62ed3e14610510578063ef8b30f71461054c578063f2fde38b14610588578063f340fa01146105b05761014a565b80638da5cb5b1461039e57806395d89b41146103c8578063a9059cbb146103f2578063ac7a1b5b1461042e578063b09f126614610458578063ba087652146104825761014a565b80633644e515116101075780633644e515146102805780634cdad506146102aa57806370a08231146102e6578063715018a6146103225780637501f741146103385780637ecebe00146103625761014a565b806306fdde031461014e578063095ea7b31461017857806310ab2d01146101b457806318160ddd146101f057806323b872dd1461021a578063313ce56714610256575b5f5ffd5b348015610159575f5ffd5b506101626105e0565b60405161016f9190611624565b60405180910390f35b348015610183575f5ffd5b5061019e600480360381019061019991906116d9565b610670565b6040516101ab9190611731565b60405180910390f35b3480156101bf575f5ffd5b506101da60048036038101906101d591906117ab565b6106fb565b6040516101e7919061186e565b60405180910390f35b3480156101fb575f5ffd5b5061020461077d565b604051610211919061189d565b60405180910390f35b348015610225575f5ffd5b50610240600480360381019061023b91906118b6565b61078e565b60405161024d9190611731565b60405180910390f35b348015610261575f5ffd5b5061026a610934565b6040516102779190611921565b60405180910390f35b34801561028b575f5ffd5b5061029461093c565b6040516102a19190611952565b60405180910390f35b3480156102b5575f5ffd5b506102d060048036038101906102cb919061196b565b6109b8565b6040516102dd919061189d565b60405180910390f35b3480156102f1575f5ffd5b5061030c60048036038101906103079190611996565b6109fd565b604051610319919061189d565b60405180910390f35b34801561032d575f5ffd5b50610336610a16565b005b348015610343575f5ffd5b5061034c610a29565b604051610359919061189d565b60405180910390f35b34801561036d575f5ffd5b5061038860048036038101906103839190611996565b610a89565b604051610395919061189d565b60405180910390f35b3480156103a9575f5ffd5b506103b2610aa2565b6040516103bf91906119d0565b60405180910390f35b3480156103d3575f5ffd5b506103dc610ac9565b6040516103e99190611624565b60405180910390f35b3480156103fd575f5ffd5b50610418600480360381019061041391906116d9565b610b59565b6040516104259190611731565b60405180910390f35b348015610439575f5ffd5b50610442610be7565b60405161044f919061189d565b60405180910390f35b348015610463575f5ffd5b5061046c610c47565b6040516104799190611624565b60405180910390f35b34801561048d575f5ffd5b506104a860048036038101906104a391906119e9565b610cd3565b6040516104b5919061189d565b60405180910390f35b3480156104c9575f5ffd5b506104d2610e37565b6040516104df9190611624565b60405180910390f35b3480156104f3575f5ffd5b5061050e60048036038101906105099190611a8d565b610ec3565b005b34801561051b575f5ffd5b5061053660048036038101906105319190611b2a565b611086565b604051610543919061189d565b60405180910390f35b348015610557575f5ffd5b50610572600480360381019061056d919061196b565b61111d565b60405161057f919061189d565b60405180910390f35b348015610593575f5ffd5b506105ae60048036038101906105a99190611996565b611156565b005b6105ca60048036038101906105c59190611996565b6111da565b6040516105d7919061189d565b60405180910390f35b6060600180546105ef90611b95565b80601f016020809104026020016040519081016040528092919081815260200182805461061b90611b95565b80156106665780601f1061063d57610100808354040283529160200191610666565b820191905f5260205f20905b81548152906001019060200180831161064957829003601f168201915b5050505050905090565b5f610679611274565b156106ac578119156e22d473030f116ddee9f6b43ac78ba38460601b60601c18176106ab57633f68539a5f526004601cfd5b5b82602052637f5e9f20600c52335f52816034600c2055815f52602c5160601c337f8c5be1e5ebec7d5bd14f71427d1e84f3dd0314c0f7b2291e5b200ac8c7c3b92560205fa36001905092915050565b606061070561127b565b5f8573ffffffffffffffffffffffffffffffffffffffff1685858560405161072e929190611c01565b5f6040518083038185875af1925050503d805f8114610768576040519150601f19603f3d011682016040523d82523d5f602084013e61076d565b606091505b5091505080915050949350505050565b5f6805345cdf77eb68f44c54905090565b5f61079a848484611302565b6107a2611274565b15610870578360601b6e22d473030f116ddee9f6b43ac78ba333146107fb5733602052637f5e9f208117600c526034600c2080548019156107f857808511156107f2576313be252b5f526004601cfd5b84810382555b50505b6387a211a28117600c526020600c208054808511156108215763f4d678b85f526004601cfd5b8481038255855f526020600c2085815401815585602052600c5160601c8460601c7fddf252ad1be2c89b69c2b068fc378daa952ba7f163c4a11628f55a4df523b3ef602080a35050505061091e565b8360601b33602052637f5e9f208117600c526034600c2080548019156108ab57808511156108a5576313be252b5f526004601cfd5b84810382555b6387a211a28317600c526020600c208054808711156108d15763f4d678b85f526004601cfd5b8681038255875f526020600c2087815401815587602052600c5160601c8660601c7fddf252ad1be2c89b69c2b068fc378daa952ba7f163c4a11628f55a4df523b3ef602080a35050505050505b610929848484611307565b600190509392505050565b5f6012905090565b5f5f61094661130c565b90505f5f1b8103610963576109596105e0565b8051906020012090505b5f61096c611310565b90506040517f8b73c3c69bb8fe3d512ecc4cf759cc79239f7b179b0ffacaa9a75d522b39400f815282602082015281604082015246606082015230608082015260a08120935050505090565b5f81670de0b6b3a76400006109cd9190611c46565b826109d6610be7565b6109e09190611c79565b6109ea9190611ce7565b9050804710156109f8574790505b919050565b5f6387a211a2600c52815f526020600c20549050919050565b610a1e61127b565b610a275f611339565b565b5f60035462015180670de0b6b3a7640000610a449190611ce7565b7f000000000000000000000000000000000000000000000000000000000000000042610a709190611d17565b610a7a9190611c79565b610a849190611d17565b905090565b5f6338377508600c52815f526020600c20549050919050565b5f5f5f9054906101000a900473ffffffffffffffffffffffffffffffffffffffff16905090565b606060028054610ad890611b95565b80601f0160208091040260200160405190810160405280929190818152602001828054610b0490611b95565b8015610b4f5780601f10610b2657610100808354040283529160200191610b4f565b820191905f5260205f20905b815481529060010190602001808311610b3257829003601f168201915b5050505050905090565b5f610b65338484611302565b6387a211a2600c52335f526020600c20805480841115610b8c5763f4d678b85f526004601cfd5b8381038255845f526020600c2084815401815584602052600c5160601c337fddf252ad1be2c89b69c2b068fc378daa952ba7f163c4a11628f55a4df523b3ef602080a3505050610bdd338484611307565b6001905092915050565b5f6004546201518067016345785d8a0000610c029190611ce7565b7f000000000000000000000000000000000000000000000000000000000000000042610c2e9190611d17565b610c389190611c79565b610c429190611d17565b905090565b60028054610c5490611b95565b80601f0160208091040260200160405190810160405280929190818152602001828054610c8090611b95565b8015610ccb5780601f10610ca257610100808354040283529160200191610ccb565b820191905f5260205f20905b815481529060010190602001808311610cae57829003601f168201915b505050505081565b5f610cdd846109b8565b90508173ffffffffffffffffffffffffffffffffffffffff163373ffffffffffffffffffffffffffffffffffffffff1614610d1e57610d1d8233866113fa565b5b8060045f828254610d2f9190611c46565b92505081905550610d40828561148b565b5f8373ffffffffffffffffffffffffffffffffffffffff1682604051610d6590611d6d565b5f6040518083038185875af1925050503d805f8114610d9f576040519150601f19603f3d011682016040523d82523d5f602084013e610da4565b606091505b5050905080610db1575f5ffd5b8273ffffffffffffffffffffffffffffffffffffffff168473ffffffffffffffffffffffffffffffffffffffff163373ffffffffffffffffffffffffffffffffffffffff167ffbde797d201c681b91056529119e0b02407c7bb96a4a2c75c01fc9667232c8db8589604051610e27929190611d81565b60405180910390a4509392505050565b60018054610e4490611b95565b80601f0160208091040260200160405190810160405280929190818152602001828054610e7090611b95565b8015610ebb5780601f10610e9257610100808354040283529160200191610ebb565b820191905f5260205f20905b815481529060010190602001808311610e9e57829003601f168201915b505050505081565b610ecb611274565b15610efe578419156e22d473030f116ddee9f6b43ac78ba38760601b60601c1817610efd57633f68539a5f526004601cfd5b5b5f610f0761130c565b90505f5f1b8103610f2457610f1a6105e0565b8051906020012090505b5f610f2d611310565b905085421115610f4457631a15a3cc5f526004601cfd5b6040518960601b60601c99508860601b60601c985065383775081901600e52895f526020600c2080547f8b73c3c69bb8fe3d512ecc4cf759cc79239f7b179b0ffacaa9a75d522b39400f835284602084015283604084015246606084015230608084015260a08320602e527f6e71edae12b1b97f4d1f60370fef10105fa2faae0126114a169c64845d6126c983528b60208401528a60408401528960608401528060808401528860a084015260c08320604e526042602c205f528760ff16602052866040528560605260208060805f60015afa8c3d511461102c5763ddafbaef5f526004601cfd5b80820183558b637f5e9f2060a01b176040528a6034602c20558b8d7f8c5be1e5ebec7d5bd14f71427d1e84f3dd0314c0f7b2291e5b200ac8c7c3b925602060608801a3836040525f60605250505050505050505050505050565b5f61108f611274565b156110ff576e22d473030f116ddee9f6b43ac78ba373ffffffffffffffffffffffffffffffffffffffff168273ffffffffffffffffffffffffffffffffffffffff16036110fe577fffffffffffffffffffffffffffffffffffffffffffffffffffffffffffffffff9050611117565b5b81602052637f5e9f20600c52825f526034600c205490505b92915050565b5f8167016345785d8a00006111329190611c46565b8261113b610a29565b6111459190611c79565b61114f9190611ce7565b9050919050565b61115e61127b565b5f73ffffffffffffffffffffffffffffffffffffffff168173ffffffffffffffffffffffffffffffffffffffff16036111ce575f6040517f1e4fbdf70000000000000000000000000000000000000000000000000000000081526004016111c591906119d0565b60405180910390fd5b6111d781611339565b50565b5f6111e43461111d565b90508060035f8282546111f79190611c46565b92505081905550611208828261151b565b8173ffffffffffffffffffffffffffffffffffffffff163373ffffffffffffffffffffffffffffffffffffffff167fdcbc1c05240f31ff3ad067ef1ee35ce4997762752e3a095284754544f4c709d73484604051611267929190611d81565b60405180910390a3919050565b5f5f905090565b6112836115ad565b73ffffffffffffffffffffffffffffffffffffffff166112a1610aa2565b73ffffffffffffffffffffffffffffffffffffffff1614611300576112c46115ad565b6040517f118cdaa70000000000000000000000000000000000000000000000000000000081526004016112f791906119d0565b60405180910390fd5b565b505050565b505050565b5f90565b5f7fc89efdaa54c0f20c7adf612882df0950f5a951637e0307cdcb4c672f298b8bc65f1b905090565b5f5f5f9054906101000a900473ffffffffffffffffffffffffffffffffffffffff169050815f5f6101000a81548173ffffffffffffffffffffffffffffffffffffffff021916908373ffffffffffffffffffffffffffffffffffffffff1602179055508173ffffffffffffffffffffffffffffffffffffffff168173ffffffffffffffffffffffffffffffffffffffff167f8be0079c531659141344cd1fd0a4f28419497f9722a3daafe3b4186f6b6457e060405160405180910390a35050565b611402611274565b1561144b576e22d473030f116ddee9f6b43ac78ba373ffffffffffffffffffffffffffffffffffffffff168273ffffffffffffffffffffffffffffffffffffffff160315611486575b81602052637f5e9f20600c52825f526034600c208054801915611483578083111561147d576313be252b5f526004601cfd5b82810382555b50505b505050565b611496825f83611302565b6387a211a2600c52815f526020600c208054808311156114bd5763f4d678b85f526004601cfd5b8281038255826805345cdf77eb68f44c54036805345cdf77eb68f44c55825f525f8460601b60601c7fddf252ad1be2c89b69c2b068fc378daa952ba7f163c4a11628f55a4df523b3ef60205fa35050611517825f83611307565b5050565b6115265f8383611302565b6805345cdf77eb68f44c54818101818110156115495763e5cfe9575f526004601cfd5b806805345cdf77eb68f44c556387a211a2600c52835f526020600c2083815401815583602052600c5160601c5f7fddf252ad1be2c89b69c2b068fc378daa952ba7f163c4a11628f55a4df523b3ef602080a35050506115a95f8383611307565b5050565b5f33905090565b5f81519050919050565b5f82825260208201905092915050565b8281835e5f83830152505050565b5f601f19601f8301169050919050565b5f6115f6826115b4565b61160081856115be565b93506116108185602086016115ce565b611619816115dc565b840191505092915050565b5f6020820190508181035f83015261163c81846115ec565b905092915050565b5f5ffd5b5f5ffd5b5f73ffffffffffffffffffffffffffffffffffffffff82169050919050565b5f6116758261164c565b9050919050565b6116858161166b565b811461168f575f5ffd5b50565b5f813590506116a08161167c565b92915050565b5f819050919050565b6116b8816116a6565b81146116c2575f5ffd5b50565b5f813590506116d3816116af565b92915050565b5f5f604083850312156116ef576116ee611644565b5b5f6116fc85828601611692565b925050602061170d858286016116c5565b9150509250929050565b5f8115159050919050565b61172b81611717565b82525050565b5f6020820190506117445f830184611722565b92915050565b5f5ffd5b5f5ffd5b5f5ffd5b5f5f83601f84011261176b5761176a61174a565b5b8235905067ffffffffffffffff8111156117885761178761174e565b5b6020830191508360018202830111156117a4576117a3611752565b5b9250929050565b5f5f5f5f606085870312156117c3576117c2611644565b5b5f6117d087828801611692565b94505060206117e1878288016116c5565b935050604085013567ffffffffffffffff81111561180257611801611648565b5b61180e87828801611756565b925092505092959194509250565b5f81519050919050565b5f82825260208201905092915050565b5f6118408261181c565b61184a8185611826565b935061185a8185602086016115ce565b611863816115dc565b840191505092915050565b5f6020820190508181035f8301526118868184611836565b905092915050565b611897816116a6565b82525050565b5f6020820190506118b05f83018461188e565b92915050565b5f5f5f606084860312156118cd576118cc611644565b5b5f6118da86828701611692565b93505060206118eb86828701611692565b92505060406118fc868287016116c5565b9150509250925092565b5f60ff82169050919050565b61191b81611906565b82525050565b5f6020820190506119345f830184611912565b92915050565b5f819050919050565b61194c8161193a565b82525050565b5f6020820190506119655f830184611943565b92915050565b5f602082840312156119805761197f611644565b5b5f61198d848285016116c5565b91505092915050565b5f602082840312156119ab576119aa611644565b5b5f6119b884828501611692565b91505092915050565b6119ca8161166b565b82525050565b5f6020820190506119e35f8301846119c1565b92915050565b5f5f5f60608486031215611a00576119ff611644565b5b5f611a0d868287016116c5565b9350506020611a1e86828701611692565b9250506040611a2f86828701611692565b9150509250925092565b611a4281611906565b8114611a4c575f5ffd5b50565b5f81359050611a5d81611a39565b92915050565b611a6c8161193a565b8114611a76575f5ffd5b50565b5f81359050611a8781611a63565b92915050565b5f5f5f5f5f5f5f60e0888a031215611aa857611aa7611644565b5b5f611ab58a828b01611692565b9750506020611ac68a828b01611692565b9650506040611ad78a828b016116c5565b9550506060611ae88a828b016116c5565b9450506080611af98a828b01611a4f565b93505060a0611b0a8a828b01611a79565b92505060c0611b1b8a828b01611a79565b91505092959891949750929550565b5f5f60408385031215611b4057611b3f611644565b5b5f611b4d85828601611692565b9250506020611b5e85828601611692565b9150509250929050565b7f4e487b71000000000000000000000000000000000000000000000000000000005f52602260045260245ffd5b5f6002820490506001821680611bac57607f821691505b602082108103611bbf57611bbe611b68565b5b50919050565b5f81905092915050565b828183375f83830152505050565b5f611be88385611bc5565b9350611bf5838584611bcf565b82840190509392505050565b5f611c0d828486611bdd565b91508190509392505050565b7f4e487b71000000000000000000000000000000000000000000000000000000005f52601160045260245ffd5b5f611c50826116a6565b9150611c5b836116a6565b9250828201905080821115611c7357611c72611c19565b5b92915050565b5f611c83826116a6565b9150611c8e836116a6565b9250828202611c9c816116a6565b91508282048414831517611cb357611cb2611c19565b5b5092915050565b7f4e487b71000000000000000000000000000000000000000000000000000000005f52601260045260245ffd5b5f611cf1826116a6565b9150611cfc836116a6565b925082611d0c57611d0b611cba565b5b828204905092915050565b5f611d21826116a6565b9150611d2c836116a6565b9250828203905081811115611d4457611d43611c19565b5b92915050565b50565b5f611d585f83611bc5565b9150611d6382611d4a565b5f82019050919050565b5f611d7782611d4d565b9150819050919050565b5f604082019050611d945f83018561188e565b611da1602083018461188e565b939250505056fea2646970667358221220777e1fc85ded1323491fc3b1403bc48112df8c7520f5203ebfda43e69fdfb90b64736f6c634300081c0033",
					"opcodes": "PUSH1 0xA0 PUSH1 0x40 MSTORE TIMESTAMP PUSH1 0x80 SWAP1 DUP2 MSTORE POP PUSH0 PUSH1 0x3 SSTORE PUSH0 PUSH1 0x4 SSTORE CALLVALUE DUP1 ISZERO PUSH2 0x1E JUMPI PUSH0 PUSH0 REVERT JUMPDEST POP PUSH1 0x40 MLOAD PUSH2 0x24DD CODESIZE SUB DUP1 PUSH2 0x24DD DUP4 CODECOPY DUP2 DUP2 ADD PUSH1 0x40 MSTORE DUP2 ADD SWAP1 PUSH2 0x40 SWAP2 SWAP1 PUSH2 0x351 JUMP JUMPDEST DUP3 PUSH0 PUSH20 0xFFFFFFFFFFFFFFFFFFFFFFFFFFFFFFFFFFFFFFFF AND DUP2 PUSH20 0xFFFFFFFFFFFFFFFFFFFFFFFFFFFFFFFFFFFFFFFF AND SUB PUSH2 0xB1 JUMPI PUSH0 PUSH1 0x40 MLOAD PUSH32 0x1E4FBDF700000000000000000000000000000000000000000000000000000000 DUP2 MSTORE PUSH1 0x4 ADD PUSH2 0xA8 SWAP2 SWAP1 PUSH2 0x3E8 JUMP JUMPDEST PUSH1 0x40 MLOAD DUP1 SWAP2 SUB SWAP1 REVERT JUMPDEST PUSH2 0xC0 DUP2 PUSH2 0xE9 PUSH1 0x20 SHL PUSH1 0x20 SHR JUMP JUMPDEST POP DUP2 PUSH1 0x1 SWAP1 DUP2 PUSH2 0xD0 SWAP2 SWAP1 PUSH2 0x611 JUMP JUMPDEST POP DUP1 PUSH1 0x2 SWAP1 DUP2 PUSH2 0xE0 SWAP2 SWAP1 PUSH2 0x611 JUMP JUMPDEST POP POP POP POP PUSH2 0x6E0 JUMP JUMPDEST PUSH0 PUSH0 PUSH0 SWAP1 SLOAD SWAP1 PUSH2 0x100 EXP SWAP1 DIV PUSH20 0xFFFFFFFFFFFFFFFFFFFFFFFFFFFFFFFFFFFFFFFF AND SWAP1 POP DUP2 PUSH0 PUSH0 PUSH2 0x100 EXP DUP2 SLOAD DUP2 PUSH20 0xFFFFFFFFFFFFFFFFFFFFFFFFFFFFFFFFFFFFFFFF MUL NOT AND SWAP1 DUP4 PUSH20 0xFFFFFFFFFFFFFFFFFFFFFFFFFFFFFFFFFFFFFFFF AND MUL OR SWAP1 SSTORE POP DUP2 PUSH20 0xFFFFFFFFFFFFFFFFFFFFFFFFFFFFFFFFFFFFFFFF AND DUP2 PUSH20 0xFFFFFFFFFFFFFFFFFFFFFFFFFFFFFFFFFFFFFFFF AND PUSH32 0x8BE0079C531659141344CD1FD0A4F28419497F9722A3DAAFE3B4186F6B6457E0 PUSH1 0x40 MLOAD PUSH1 0x40 MLOAD DUP1 SWAP2 SUB SWAP1 LOG3 POP POP JUMP JUMPDEST PUSH0 PUSH1 0x40 MLOAD SWAP1 POP SWAP1 JUMP JUMPDEST PUSH0 PUSH0 REVERT JUMPDEST PUSH0 PUSH0 REVERT JUMPDEST PUSH0 PUSH20 0xFFFFFFFFFFFFFFFFFFFFFFFFFFFFFFFFFFFFFFFF DUP3 AND SWAP1 POP SWAP2 SWAP1 POP JUMP JUMPDEST PUSH0 PUSH2 0x1E4 DUP3 PUSH2 0x1BB JUMP JUMPDEST SWAP1 POP SWAP2 SWAP1 POP JUMP JUMPDEST PUSH2 0x1F4 DUP2 PUSH2 0x1DA JUMP JUMPDEST DUP2 EQ PUSH2 0x1FE JUMPI PUSH0 PUSH0 REVERT JUMPDEST POP JUMP JUMPDEST PUSH0 DUP2 MLOAD SWAP1 POP PUSH2 0x20F DUP2 PUSH2 0x1EB JUMP JUMPDEST SWAP3 SWAP2 POP POP JUMP JUMPDEST PUSH0 PUSH0 REVERT JUMPDEST PUSH0 PUSH0 REVERT JUMPDEST PUSH0 PUSH1 0x1F NOT PUSH1 0x1F DUP4 ADD AND SWAP1 POP SWAP2 SWAP1 POP JUMP JUMPDEST PUSH32 0x4E487B7100000000000000000000000000000000000000000000000000000000 PUSH0 MSTORE PUSH1 0x41 PUSH1 0x4 MSTORE PUSH1 0x24 PUSH0 REVERT JUMPDEST PUSH2 0x263 DUP3 PUSH2 0x21D JUMP JUMPDEST DUP2 ADD DUP2 DUP2 LT PUSH8 0xFFFFFFFFFFFFFFFF DUP3 GT OR ISZERO PUSH2 0x282 JUMPI PUSH2 0x281 PUSH2 0x22D JUMP JUMPDEST JUMPDEST DUP1 PUSH1 0x40 MSTORE POP POP POP JUMP JUMPDEST PUSH0 PUSH2 0x294 PUSH2 0x1AA JUMP JUMPDEST SWAP1 POP PUSH2 0x2A0 DUP3 DUP3 PUSH2 0x25A JUMP JUMPDEST SWAP2 SWAP1 POP JUMP JUMPDEST PUSH0 PUSH8 0xFFFFFFFFFFFFFFFF DUP3 GT ISZERO PUSH2 0x2BF JUMPI PUSH2 0x2BE PUSH2 0x22D JUMP JUMPDEST JUMPDEST PUSH2 0x2C8 DUP3 PUSH2 0x21D JUMP JUMPDEST SWAP1 POP PUSH1 0x20 DUP2 ADD SWAP1 POP SWAP2 SWAP1 POP JUMP JUMPDEST DUP3 DUP2 DUP4 MCOPY PUSH0 DUP4 DUP4 ADD MSTORE POP POP POP JUMP JUMPDEST PUSH0 PUSH2 0x2F5 PUSH2 0x2F0 DUP5 PUSH2 0x2A5 JUMP JUMPDEST PUSH2 0x28B JUMP JUMPDEST SWAP1 POP DUP3 DUP2 MSTORE PUSH1 0x20 DUP2 ADD DUP5 DUP5 DUP5 ADD GT ISZERO PUSH2 0x311 JUMPI PUSH2 0x310 PUSH2 0x219 JUMP JUMPDEST JUMPDEST PUSH2 0x31C DUP5 DUP3 DUP6 PUSH2 0x2D5 JUMP JUMPDEST POP SWAP4 SWAP3 POP POP POP JUMP JUMPDEST PUSH0 DUP3 PUSH1 0x1F DUP4 ADD SLT PUSH2 0x338 JUMPI PUSH2 0x337 PUSH2 0x215 JUMP JUMPDEST JUMPDEST DUP2 MLOAD PUSH2 0x348 DUP5 DUP3 PUSH1 0x20 DUP7 ADD PUSH2 0x2E3 JUMP JUMPDEST SWAP2 POP POP SWAP3 SWAP2 POP POP JUMP JUMPDEST PUSH0 PUSH0 PUSH0 PUSH1 0x60 DUP5 DUP7 SUB SLT ISZERO PUSH2 0x368 JUMPI PUSH2 0x367 PUSH2 0x1B3 JUMP JUMPDEST JUMPDEST PUSH0 PUSH2 0x375 DUP7 DUP3 DUP8 ADD PUSH2 0x201 JUMP JUMPDEST SWAP4 POP POP PUSH1 0x20 DUP5 ADD MLOAD PUSH8 0xFFFFFFFFFFFFFFFF DUP2 GT ISZERO PUSH2 0x396 JUMPI PUSH2 0x395 PUSH2 0x1B7 JUMP JUMPDEST JUMPDEST PUSH2 0x3A2 DUP7 DUP3 DUP8 ADD PUSH2 0x324 JUMP JUMPDEST SWAP3 POP POP PUSH1 0x40 DUP5 ADD MLOAD PUSH8 0xFFFFFFFFFFFFFFFF DUP2 GT ISZERO PUSH2 0x3C3 JUMPI PUSH2 0x3C2 PUSH2 0x1B7 JUMP JUMPDEST JUMPDEST PUSH2 0x3CF DUP7 DUP3 DUP8 ADD PUSH2 0x324 JUMP JUMPDEST SWAP2 POP POP SWAP3 POP SWAP3 POP SWAP3 JUMP JUMPDEST PUSH2 0x3E2 DUP2 PUSH2 0x1DA JUMP JUMPDEST DUP3 MSTORE POP POP JUMP JUMPDEST PUSH0 PUSH1 0x20 DUP3 ADD SWAP1 POP PUSH2 0x3FB PUSH0 DUP4 ADD DUP5 PUSH2 0x3D9 JUMP JUMPDEST SWAP3 SWAP2 POP POP JUMP JUMPDEST PUSH0 DUP2 MLOAD SWAP1 POP SWAP2 SWAP1 POP JUMP JUMPDEST PUSH32 0x4E487B7100000000000000000000000000000000000000000000000000000000 PUSH0 MSTORE PUSH1 0x22 PUSH1 0x4 MSTORE PUSH1 0x24 PUSH0 REVERT JUMPDEST PUSH0 PUSH1 0x2 DUP3 DIV SWAP1 POP PUSH1 0x1 DUP3 AND DUP1 PUSH2 0x44F JUMPI PUSH1 0x7F DUP3 AND SWAP2 POP JUMPDEST PUSH1 0x20 DUP3 LT DUP2 SUB PUSH2 0x462 JUMPI PUSH2 0x461 PUSH2 0x40B JUMP JUMPDEST JUMPDEST POP SWAP2 SWAP1 POP JUMP JUMPDEST PUSH0 DUP2 SWAP1 POP DUP2 PUSH0 MSTORE PUSH1 0x20 PUSH0 KECCAK256 SWAP1 POP SWAP2 SWAP1 POP JUMP JUMPDEST PUSH0 PUSH1 0x20 PUSH1 0x1F DUP4 ADD DIV SWAP1 POP SWAP2 SWAP1 POP JUMP JUMPDEST PUSH0 DUP3 DUP3 SHL SWAP1 POP SWAP3 SWAP2 POP POP JUMP JUMPDEST PUSH0 PUSH1 0x8 DUP4 MUL PUSH2 0x4C4 PUSH32 0xFFFFFFFFFFFFFFFFFFFFFFFFFFFFFFFFFFFFFFFFFFFFFFFFFFFFFFFFFFFFFFFF DUP3 PUSH2 0x489 JUMP JUMPDEST PUSH2 0x4CE DUP7 DUP4 PUSH2 0x489 JUMP JUMPDEST SWAP6 POP DUP1 NOT DUP5 AND SWAP4 POP DUP1 DUP7 AND DUP5 OR SWAP3 POP POP POP SWAP4 SWAP3 POP POP POP JUMP JUMPDEST PUSH0 DUP2 SWAP1 POP SWAP2 SWAP1 POP JUMP JUMPDEST PUSH0 DUP2 SWAP1 POP SWAP2 SWAP1 POP JUMP JUMPDEST PUSH0 PUSH2 0x512 PUSH2 0x50D PUSH2 0x508 DUP5 PUSH2 0x4E6 JUMP JUMPDEST PUSH2 0x4EF JUMP JUMPDEST PUSH2 0x4E6 JUMP JUMPDEST SWAP1 POP SWAP2 SWAP1 POP JUMP JUMPDEST PUSH0 DUP2 SWAP1 POP SWAP2 SWAP1 POP JUMP JUMPDEST PUSH2 0x52B DUP4 PUSH2 0x4F8 JUMP JUMPDEST PUSH2 0x53F PUSH2 0x537 DUP3 PUSH2 0x519 JUMP JUMPDEST DUP5 DUP5 SLOAD PUSH2 0x495 JUMP JUMPDEST DUP3 SSTORE POP POP POP POP JUMP JUMPDEST PUSH0 PUSH0 SWAP1 POP SWAP1 JUMP JUMPDEST PUSH2 0x556 PUSH2 0x547 JUMP JUMPDEST PUSH2 0x561 DUP2 DUP5 DUP5 PUSH2 0x522 JUMP JUMPDEST POP POP POP JUMP JUMPDEST JUMPDEST DUP2 DUP2 LT ISZERO PUSH2 0x584 JUMPI PUSH2 0x579 PUSH0 DUP3 PUSH2 0x54E JUMP JUMPDEST PUSH1 0x1 DUP2 ADD SWAP1 POP PUSH2 0x567 JUMP JUMPDEST POP POP JUMP JUMPDEST PUSH1 0x1F DUP3 GT ISZERO PUSH2 0x5C9 JUMPI PUSH2 0x59A DUP2 PUSH2 0x468 JUMP JUMPDEST PUSH2 0x5A3 DUP5 PUSH2 0x47A JUMP JUMPDEST DUP2 ADD PUSH1 0x20 DUP6 LT ISZERO PUSH2 0x5B2 JUMPI DUP2 SWAP1 POP JUMPDEST PUSH2 0x5C6 PUSH2 0x5BE DUP6 PUSH2 0x47A JUMP JUMPDEST DUP4 ADD DUP3 PUSH2 0x566 JUMP JUMPDEST POP POP JUMPDEST POP POP POP JUMP JUMPDEST PUSH0 DUP3 DUP3 SHR SWAP1 POP SWAP3 SWAP2 POP POP JUMP JUMPDEST PUSH0 PUSH2 0x5E9 PUSH0 NOT DUP5 PUSH1 0x8 MUL PUSH2 0x5CE JUMP JUMPDEST NOT DUP1 DUP4 AND SWAP2 POP POP SWAP3 SWAP2 POP POP JUMP JUMPDEST PUSH0 PUSH2 0x601 DUP4 DUP4 PUSH2 0x5DA JUMP JUMPDEST SWAP2 POP DUP3 PUSH1 0x2 MUL DUP3 OR SWAP1 POP SWAP3 SWAP2 POP POP JUMP JUMPDEST PUSH2 0x61A DUP3 PUSH2 0x401 JUMP JUMPDEST PUSH8 0xFFFFFFFFFFFFFFFF DUP2 GT ISZERO PUSH2 0x633 JUMPI PUSH2 0x632 PUSH2 0x22D JUMP JUMPDEST JUMPDEST PUSH2 0x63D DUP3 SLOAD PUSH2 0x438 JUMP JUMPDEST PUSH2 0x648 DUP3 DUP3 DUP6 PUSH2 0x588 JUMP JUMPDEST PUSH0 PUSH1 0x20 SWAP1 POP PUSH1 0x1F DUP4 GT PUSH1 0x1 DUP2 EQ PUSH2 0x679 JUMPI PUSH0 DUP5 ISZERO PUSH2 0x667 JUMPI DUP3 DUP8 ADD MLOAD SWAP1 POP JUMPDEST PUSH2 0x671 DUP6 DUP3 PUSH2 0x5F6 JUMP JUMPDEST DUP7 SSTORE POP PUSH2 0x6D8 JUMP JUMPDEST PUSH1 0x1F NOT DUP5 AND PUSH2 0x687 DUP7 PUSH2 0x468 JUMP JUMPDEST PUSH0 JUMPDEST DUP3 DUP2 LT ISZERO PUSH2 0x6AE JUMPI DUP5 DUP10 ADD MLOAD DUP3 SSTORE PUSH1 0x1 DUP3 ADD SWAP2 POP PUSH1 0x20 DUP6 ADD SWAP5 POP PUSH1 0x20 DUP2 ADD SWAP1 POP PUSH2 0x689 JUMP JUMPDEST DUP7 DUP4 LT ISZERO PUSH2 0x6CB JUMPI DUP5 DUP10 ADD MLOAD PUSH2 0x6C7 PUSH1 0x1F DUP10 AND DUP3 PUSH2 0x5DA JUMP JUMPDEST DUP4 SSTORE POP JUMPDEST PUSH1 0x1 PUSH1 0x2 DUP9 MUL ADD DUP9 SSTORE POP POP POP JUMPDEST POP POP POP POP POP POP JUMP JUMPDEST PUSH1 0x80 MLOAD PUSH2 0x1DDE PUSH2 0x6FF PUSH0 CODECOPY PUSH0 DUP2 DUP2 PUSH2 0xA46 ADD MSTORE PUSH2 0xC04 ADD MSTORE PUSH2 0x1DDE PUSH0 RETURN INVALID PUSH1 0x80 PUSH1 0x40 MSTORE PUSH1 0x4 CALLDATASIZE LT PUSH2 0x14A JUMPI PUSH0 CALLDATALOAD PUSH1 0xE0 SHR DUP1 PUSH4 0x8DA5CB5B GT PUSH2 0xB5 JUMPI DUP1 PUSH4 0xD28D8852 GT PUSH2 0x6E JUMPI DUP1 PUSH4 0xD28D8852 EQ PUSH2 0x4BE JUMPI DUP1 PUSH4 0xD505ACCF EQ PUSH2 0x4E8 JUMPI DUP1 PUSH4 0xDD62ED3E EQ PUSH2 0x510 JUMPI DUP1 PUSH4 0xEF8B30F7 EQ PUSH2 0x54C JUMPI DUP1 PUSH4 0xF2FDE38B EQ PUSH2 0x588 JUMPI DUP1 PUSH4 0xF340FA01 EQ PUSH2 0x5B0 JUMPI PUSH2 0x14A JUMP JUMPDEST DUP1 PUSH4 0x8DA5CB5B EQ PUSH2 0x39E JUMPI DUP1 PUSH4 0x95D89B41 EQ PUSH2 0x3C8 JUMPI DUP1 PUSH4 0xA9059CBB EQ PUSH2 0x3F2 JUMPI DUP1 PUSH4 0xAC7A1B5B EQ PUSH2 0x42E JUMPI DUP1 PUSH4 0xB09F1266 EQ PUSH2 0x458 JUMPI DUP1 PUSH4 0xBA087652 EQ PUSH2 0x482 JUMPI PUSH2 0x14A JUMP JUMPDEST DUP1 PUSH4 0x3644E515 GT PUSH2 0x107 JUMPI DUP1 PUSH4 0x3644E515 EQ PUSH2 0x280 JUMPI DUP1 PUSH4 0x4CDAD506 EQ PUSH2 0x2AA JUMPI DUP1 PUSH4 0x70A08231 EQ PUSH2 0x2E6 JUMPI DUP1 PUSH4 0x715018A6 EQ PUSH2 0x322 JUMPI DUP1 PUSH4 0x7501F741 EQ PUSH2 0x338 JUMPI DUP1 PUSH4 0x7ECEBE00 EQ PUSH2 0x362 JUMPI PUSH2 0x14A JUMP JUMPDEST DUP1 PUSH4 0x6FDDE03 EQ PUSH2 0x14E JUMPI DUP1 PUSH4 0x95EA7B3 EQ PUSH2 0x178 JUMPI DUP1 PUSH4 0x10AB2D01 EQ PUSH2 0x1B4 JUMPI DUP1 PUSH4 0x18160DDD EQ PUSH2 0x1F0 JUMPI DUP1 PUSH4 0x23B872DD EQ PUSH2 0x21A JUMPI DUP1 PUSH4 0x313CE567 EQ PUSH2 0x256 JUMPI JUMPDEST PUSH0 PUSH0 REVERT JUMPDEST CALLVALUE DUP1 ISZERO PUSH2 0x159 JUMPI PUSH0 PUSH0 REVERT JUMPDEST POP PUSH2 0x162 PUSH2 0x5E0 JUMP JUMPDEST PUSH1 0x40 MLOAD PUSH2 0x16F SWAP2 SWAP1 PUSH2 0x1624 JUMP JUMPDEST PUSH1 0x40 MLOAD DUP1 SWAP2 SUB SWAP1 RETURN JUMPDEST CALLVALUE DUP1 ISZERO PUSH2 0x183 JUMPI PUSH0 PUSH0 REVERT JUMPDEST POP PUSH2 0x19E PUSH1 0x4 DUP1 CALLDATASIZE SUB DUP2 ADD SWAP1 PUSH2 0x199 SWAP2 SWAP1 PUSH2 0x16D9 JUMP JUMPDEST PUSH2 0x670 JUMP JUMPDEST PUSH1 0x40 MLOAD PUSH2 0x1AB SWAP2 SWAP1 PUSH2 0x1731 JUMP JUMPDEST PUSH1 0x40 MLOAD DUP1 SWAP2 SUB SWAP1 RETURN JUMPDEST CALLVALUE DUP1 ISZERO PUSH2 0x1BF JUMPI PUSH0 PUSH0 REVERT JUMPDEST POP PUSH2 0x1DA PUSH1 0x4 DUP1 CALLDATASIZE SUB DUP2 ADD SWAP1 PUSH2 0x1D5 SWAP2 SWAP1 PUSH2 0x17AB JUMP JUMPDEST PUSH2 0x6FB JUMP JUMPDEST PUSH1 0x40 MLOAD PUSH2 0x1E7 SWAP2 SWAP1 PUSH2 0x186E JUMP JUMPDEST PUSH1 0x40 MLOAD DUP1 SWAP2 SUB SWAP1 RETURN JUMPDEST CALLVALUE DUP1 ISZERO PUSH2 0x1FB JUMPI PUSH0 PUSH0 REVERT JUMPDEST POP PUSH2 0x204 PUSH2 0x77D JUMP JUMPDEST PUSH1 0x40 MLOAD PUSH2 0x211 SWAP2 SWAP1 PUSH2 0x189D JUMP JUMPDEST PUSH1 0x40 MLOAD DUP1 SWAP2 SUB SWAP1 RETURN JUMPDEST CALLVALUE DUP1 ISZERO PUSH2 0x225 JUMPI PUSH0 PUSH0 REVERT JUMPDEST POP PUSH2 0x240 PUSH1 0x4 DUP1 CALLDATASIZE SUB DUP2 ADD SWAP1 PUSH2 0x23B SWAP2 SWAP1 PUSH2 0x18B6 JUMP JUMPDEST PUSH2 0x78E JUMP JUMPDEST PUSH1 0x40 MLOAD PUSH2 0x24D SWAP2 SWAP1 PUSH2 0x1731 JUMP JUMPDEST PUSH1 0x40 MLOAD DUP1 SWAP2 SUB SWAP1 RETURN JUMPDEST CALLVALUE DUP1 ISZERO PUSH2 0x261 JUMPI PUSH0 PUSH0 REVERT JUMPDEST POP PUSH2 0x26A PUSH2 0x934 JUMP JUMPDEST PUSH1 0x40 MLOAD PUSH2 0x277 SWAP2 SWAP1 PUSH2 0x1921 JUMP JUMPDEST PUSH1 0x40 MLOAD DUP1 SWAP2 SUB SWAP1 RETURN JUMPDEST CALLVALUE DUP1 ISZERO PUSH2 0x28B JUMPI PUSH0 PUSH0 REVERT JUMPDEST POP PUSH2 0x294 PUSH2 0x93C JUMP JUMPDEST PUSH1 0x40 MLOAD PUSH2 0x2A1 SWAP2 SWAP1 PUSH2 0x1952 JUMP JUMPDEST PUSH1 0x40 MLOAD DUP1 SWAP2 SUB SWAP1 RETURN JUMPDEST CALLVALUE DUP1 ISZERO PUSH2 0x2B5 JUMPI PUSH0 PUSH0 REVERT JUMPDEST POP PUSH2 0x2D0 PUSH1 0x4 DUP1 CALLDATASIZE SUB DUP2 ADD SWAP1 PUSH2 0x2CB SWAP2 SWAP1 PUSH2 0x196B JUMP JUMPDEST PUSH2 0x9B8 JUMP JUMPDEST PUSH1 0x40 MLOAD PUSH2 0x2DD SWAP2 SWAP1 PUSH2 0x189D JUMP JUMPDEST PUSH1 0x40 MLOAD DUP1 SWAP2 SUB SWAP1 RETURN JUMPDEST CALLVALUE DUP1 ISZERO PUSH2 0x2F1 JUMPI PUSH0 PUSH0 REVERT JUMPDEST POP PUSH2 0x30C PUSH1 0x4 DUP1 CALLDATASIZE SUB DUP2 ADD SWAP1 PUSH2 0x307 SWAP2 SWAP1 PUSH2 0x1996 JUMP JUMPDEST PUSH2 0x9FD JUMP JUMPDEST PUSH1 0x40 MLOAD PUSH2 0x319 SWAP2 SWAP1 PUSH2 0x189D JUMP JUMPDEST PUSH1 0x40 MLOAD DUP1 SWAP2 SUB SWAP1 RETURN JUMPDEST CALLVALUE DUP1 ISZERO PUSH2 0x32D JUMPI PUSH0 PUSH0 REVERT JUMPDEST POP PUSH2 0x336 PUSH2 0xA16 JUMP JUMPDEST STOP JUMPDEST CALLVALUE DUP1 ISZERO PUSH2 0x343 JUMPI PUSH0 PUSH0 REVERT JUMPDEST POP PUSH2 0x34C PUSH2 0xA29 JUMP JUMPDEST PUSH1 0x40 MLOAD PUSH2 0x359 SWAP2 SWAP1 PUSH2 0x189D JUMP JUMPDEST PUSH1 0x40 MLOAD DUP1 SWAP2 SUB SWAP1 RETURN JUMPDEST CALLVALUE DUP1 ISZERO PUSH2 0x36D JUMPI PUSH0 PUSH0 REVERT JUMPDEST POP PUSH2 0x388 PUSH1 0x4 DUP1 CALLDATASIZE SUB DUP2 ADD SWAP1 PUSH2 0x383 SWAP2 SWAP1 PUSH2 0x1996 JUMP JUMPDEST PUSH2 0xA89 JUMP JUMPDEST PUSH1 0x40 MLOAD PUSH2 0x395 SWAP2 SWAP1 PUSH2 0x189D JUMP JUMPDEST PUSH1 0x40 MLOAD DUP1 SWAP2 SUB SWAP1 RETURN JUMPDEST CALLVALUE DUP1 ISZERO PUSH2 0x3A9 JUMPI PUSH0 PUSH0 REVERT JUMPDEST POP PUSH2 0x3B2 PUSH2 0xAA2 JUMP JUMPDEST PUSH1 0x40 MLOAD PUSH2 0x3BF SWAP2 SWAP1 PUSH2 0x19D0 JUMP JUMPDEST PUSH1 0x40 MLOAD DUP1 SWAP2 SUB SWAP1 RETURN JUMPDEST CALLVALUE DUP1 ISZERO PUSH2 0x3D3 JUMPI PUSH0 PUSH0 REVERT JUMPDEST POP PUSH2 0x3DC PUSH2 0xAC9 JUMP JUMPDEST PUSH1 0x40 MLOAD PUSH2 0x3E9 SWAP2 SWAP1 PUSH2 0x1624 JUMP JUMPDEST PUSH1 0x40 MLOAD DUP1 SWAP2 SUB SWAP1 RETURN JUMPDEST CALLVALUE DUP1 ISZERO PUSH2 0x3FD JUMPI PUSH0 PUSH0 REVERT JUMPDEST POP PUSH2 0x418 PUSH1 0x4 DUP1 CALLDATASIZE SUB DUP2 ADD SWAP1 PUSH2 0x413 SWAP2 SWAP1 PUSH2 0x16D9 JUMP JUMPDEST PUSH2 0xB59 JUMP JUMPDEST PUSH1 0x40 MLOAD PUSH2 0x425 SWAP2 SWAP1 PUSH2 0x1731 JUMP JUMPDEST PUSH1 0x40 MLOAD DUP1 SWAP2 SUB SWAP1 RETURN JUMPDEST CALLVALUE DUP1 ISZERO PUSH2 0x439 JUMPI PUSH0 PUSH0 REVERT JUMPDEST POP PUSH2 0x442 PUSH2 0xBE7 JUMP JUMPDEST PUSH1 0x40 MLOAD PUSH2 0x44F SWAP2 SWAP1 PUSH2 0x189D JUMP JUMPDEST PUSH1 0x40 MLOAD DUP1 SWAP2 SUB SWAP1 RETURN JUMPDEST CALLVALUE DUP1 ISZERO PUSH2 0x463 JUMPI PUSH0 PUSH0 REVERT JUMPDEST POP PUSH2 0x46C PUSH2 0xC47 JUMP JUMPDEST PUSH1 0x40 MLOAD PUSH2 0x479 SWAP2 SWAP1 PUSH2 0x1624 JUMP JUMPDEST PUSH1 0x40 MLOAD DUP1 SWAP2 SUB SWAP1 RETURN JUMPDEST CALLVALUE DUP1 ISZERO PUSH2 0x48D JUMPI PUSH0 PUSH0 REVERT JUMPDEST POP PUSH2 0x4A8 PUSH1 0x4 DUP1 CALLDATASIZE SUB DUP2 ADD SWAP1 PUSH2 0x4A3 SWAP2 SWAP1 PUSH2 0x19E9 JUMP JUMPDEST PUSH2 0xCD3 JUMP JUMPDEST PUSH1 0x40 MLOAD PUSH2 0x4B5 SWAP2 SWAP1 PUSH2 0x189D JUMP JUMPDEST PUSH1 0x40 MLOAD DUP1 SWAP2 SUB SWAP1 RETURN JUMPDEST CALLVALUE DUP1 ISZERO PUSH2 0x4C9 JUMPI PUSH0 PUSH0 REVERT JUMPDEST POP PUSH2 0x4D2 PUSH2 0xE37 JUMP JUMPDEST PUSH1 0x40 MLOAD PUSH2 0x4DF SWAP2 SWAP1 PUSH2 0x1624 JUMP JUMPDEST PUSH1 0x40 MLOAD DUP1 SWAP2 SUB SWAP1 RETURN JUMPDEST CALLVALUE DUP1 ISZERO PUSH2 0x4F3 JUMPI PUSH0 PUSH0 REVERT JUMPDEST POP PUSH2 0x50E PUSH1 0x4 DUP1 CALLDATASIZE SUB DUP2 ADD SWAP1 PUSH2 0x509 SWAP2 SWAP1 PUSH2 0x1A8D JUMP JUMPDEST PUSH2 0xEC3 JUMP JUMPDEST STOP JUMPDEST CALLVALUE DUP1 ISZERO PUSH2 0x51B JUMPI PUSH0 PUSH0 REVERT JUMPDEST POP PUSH2 0x536 PUSH1 0x4 DUP1 CALLDATASIZE SUB DUP2 ADD SWAP1 PUSH2 0x531 SWAP2 SWAP1 PUSH2 0x1B2A JUMP JUMPDEST PUSH2 0x1086 JUMP JUMPDEST PUSH1 0x40 MLOAD PUSH2 0x543 SWAP2 SWAP1 PUSH2 0x189D JUMP JUMPDEST PUSH1 0x40 MLOAD DUP1 SWAP2 SUB SWAP1 RETURN JUMPDEST CALLVALUE DUP1 ISZERO PUSH2 0x557 JUMPI PUSH0 PUSH0 REVERT JUMPDEST POP PUSH2 0x572 PUSH1 0x4 DUP1 CALLDATASIZE SUB DUP2 ADD SWAP1 PUSH2 0x56D SWAP2 SWAP1 PUSH2 0x196B JUMP JUMPDEST PUSH2 0x111D JUMP JUMPDEST PUSH1 0x40 MLOAD PUSH2 0x57F SWAP2 SWAP1 PUSH2 0x189D JUMP JUMPDEST PUSH1 0x40 MLOAD DUP1 SWAP2 SUB SWAP1 RETURN JUMPDEST CALLVALUE DUP1 ISZERO PUSH2 0x593 JUMPI PUSH0 PUSH0 REVERT JUMPDEST POP PUSH2 0x5AE PUSH1 0x4 DUP1 CALLDATASIZE SUB DUP2 ADD SWAP1 PUSH2 0x5A9 SWAP2 SWAP1 PUSH2 0x1996 JUMP JUMPDEST PUSH2 0x1156 JUMP JUMPDEST STOP JUMPDEST PUSH2 0x5CA PUSH1 0x4 DUP1 CALLDATASIZE SUB DUP2 ADD SWAP1 PUSH2 0x5C5 SWAP2 SWAP1 PUSH2 0x1996 JUMP JUMPDEST PUSH2 0x11DA JUMP JUMPDEST PUSH1 0x40 MLOAD PUSH2 0x5D7 SWAP2 SWAP1 PUSH2 0x189D JUMP JUMPDEST PUSH1 0x40 MLOAD DUP1 SWAP2 SUB SWAP1 RETURN JUMPDEST PUSH1 0x60 PUSH1 0x1 DUP1 SLOAD PUSH2 0x5EF SWAP1 PUSH2 0x1B95 JUMP JUMPDEST DUP1 PUSH1 0x1F ADD PUSH1 0x20 DUP1 SWAP2 DIV MUL PUSH1 0x20 ADD PUSH1 0x40 MLOAD SWAP1 DUP2 ADD PUSH1 0x40 MSTORE DUP1 SWAP3 SWAP2 SWAP1 DUP2 DUP2 MSTORE PUSH1 0x20 ADD DUP3 DUP1 SLOAD PUSH2 0x61B SWAP1 PUSH2 0x1B95 JUMP JUMPDEST DUP1 ISZERO PUSH2 0x666 JUMPI DUP1 PUSH1 0x1F LT PUSH2 0x63D JUMPI PUSH2 0x100 DUP1 DUP4 SLOAD DIV MUL DUP4 MSTORE SWAP2 PUSH1 0x20 ADD SWAP2 PUSH2 0x666 JUMP JUMPDEST DUP3 ADD SWAP2 SWAP1 PUSH0 MSTORE PUSH1 0x20 PUSH0 KECCAK256 SWAP1 JUMPDEST DUP2 SLOAD DUP2 MSTORE SWAP1 PUSH1 0x1 ADD SWAP1 PUSH1 0x20 ADD DUP1 DUP4 GT PUSH2 0x649 JUMPI DUP3 SWAP1 SUB PUSH1 0x1F AND DUP3 ADD SWAP2 JUMPDEST POP POP POP POP POP SWAP1 POP SWAP1 JUMP JUMPDEST PUSH0 PUSH2 0x679 PUSH2 0x1274 JUMP JUMPDEST ISZERO PUSH2 0x6AC JUMPI DUP2 NOT ISZERO PUSH15 0x22D473030F116DDEE9F6B43AC78BA3 DUP5 PUSH1 0x60 SHL PUSH1 0x60 SHR XOR OR PUSH2 0x6AB JUMPI PUSH4 0x3F68539A PUSH0 MSTORE PUSH1 0x4 PUSH1 0x1C REVERT JUMPDEST JUMPDEST DUP3 PUSH1 0x20 MSTORE PUSH4 0x7F5E9F20 PUSH1 0xC MSTORE CALLER PUSH0 MSTORE DUP2 PUSH1 0x34 PUSH1 0xC KECCAK256 SSTORE DUP2 PUSH0 MSTORE PUSH1 0x2C MLOAD PUSH1 0x60 SHR CALLER PUSH32 0x8C5BE1E5EBEC7D5BD14F71427D1E84F3DD0314C0F7B2291E5B200AC8C7C3B925 PUSH1 0x20 PUSH0 LOG3 PUSH1 0x1 SWAP1 POP SWAP3 SWAP2 POP POP JUMP JUMPDEST PUSH1 0x60 PUSH2 0x705 PUSH2 0x127B JUMP JUMPDEST PUSH0 DUP6 PUSH20 0xFFFFFFFFFFFFFFFFFFFFFFFFFFFFFFFFFFFFFFFF AND DUP6 DUP6 DUP6 PUSH1 0x40 MLOAD PUSH2 0x72E SWAP3 SWAP2 SWAP1 PUSH2 0x1C01 JUMP JUMPDEST PUSH0 PUSH1 0x40 MLOAD DUP1 DUP4 SUB DUP2 DUP6 DUP8 GAS CALL SWAP3 POP POP POP RETURNDATASIZE DUP1 PUSH0 DUP2 EQ PUSH2 0x768 JUMPI PUSH1 0x40 MLOAD SWAP2 POP PUSH1 0x1F NOT PUSH1 0x3F RETURNDATASIZE ADD AND DUP3 ADD PUSH1 0x40 MSTORE RETURNDATASIZE DUP3 MSTORE RETURNDATASIZE PUSH0 PUSH1 0x20 DUP5 ADD RETURNDATACOPY PUSH2 0x76D JUMP JUMPDEST PUSH1 0x60 SWAP2 POP JUMPDEST POP SWAP2 POP POP DUP1 SWAP2 POP POP SWAP5 SWAP4 POP POP POP POP JUMP JUMPDEST PUSH0 PUSH9 0x5345CDF77EB68F44C SLOAD SWAP1 POP SWAP1 JUMP JUMPDEST PUSH0 PUSH2 0x79A DUP5 DUP5 DUP5 PUSH2 0x1302 JUMP JUMPDEST PUSH2 0x7A2 PUSH2 0x1274 JUMP JUMPDEST ISZERO PUSH2 0x870 JUMPI DUP4 PUSH1 0x60 SHL PUSH15 0x22D473030F116DDEE9F6B43AC78BA3 CALLER EQ PUSH2 0x7FB JUMPI CALLER PUSH1 0x20 MSTORE PUSH4 0x7F5E9F20 DUP2 OR PUSH1 0xC MSTORE PUSH1 0x34 PUSH1 0xC KECCAK256 DUP1 SLOAD DUP1 NOT ISZERO PUSH2 0x7F8 JUMPI DUP1 DUP6 GT ISZERO PUSH2 0x7F2 JUMPI PUSH4 0x13BE252B PUSH0 MSTORE PUSH1 0x4 PUSH1 0x1C REVERT JUMPDEST DUP5 DUP2 SUB DUP3 SSTORE JUMPDEST POP POP JUMPDEST PUSH4 0x87A211A2 DUP2 OR PUSH1 0xC MSTORE PUSH1 0x20 PUSH1 0xC KECCAK256 DUP1 SLOAD DUP1 DUP6 GT ISZERO PUSH2 0x821 JUMPI PUSH4 0xF4D678B8 PUSH0 MSTORE PUSH1 0x4 PUSH1 0x1C REVERT JUMPDEST DUP5 DUP2 SUB DUP3 SSTORE DUP6 PUSH0 MSTORE PUSH1 0x20 PUSH1 0xC KECCAK256 DUP6 DUP2 SLOAD ADD DUP2 SSTORE DUP6 PUSH1 0x20 MSTORE PUSH1 0xC MLOAD PUSH1 0x60 SHR DUP5 PUSH1 0x60 SHR PUSH32 0xDDF252AD1BE2C89B69C2B068FC378DAA952BA7F163C4A11628F55A4DF523B3EF PUSH1 0x20 DUP1 LOG3 POP POP POP POP PUSH2 0x91E JUMP JUMPDEST DUP4 PUSH1 0x60 SHL CALLER PUSH1 0x20 MSTORE PUSH4 0x7F5E9F20 DUP2 OR PUSH1 0xC MSTORE PUSH1 0x34 PUSH1 0xC KECCAK256 DUP1 SLOAD DUP1 NOT ISZERO PUSH2 0x8AB JUMPI DUP1 DUP6 GT ISZERO PUSH2 0x8A5 JUMPI PUSH4 0x13BE252B PUSH0 MSTORE PUSH1 0x4 PUSH1 0x1C REVERT JUMPDEST DUP5 DUP2 SUB DUP3 SSTORE JUMPDEST PUSH4 0x87A211A2 DUP4 OR PUSH1 0xC MSTORE PUSH1 0x20 PUSH1 0xC KECCAK256 DUP1 SLOAD DUP1 DUP8 GT ISZERO PUSH2 0x8D1 JUMPI PUSH4 0xF4D678B8 PUSH0 MSTORE PUSH1 0x4 PUSH1 0x1C REVERT JUMPDEST DUP7 DUP2 SUB DUP3 SSTORE DUP8 PUSH0 MSTORE PUSH1 0x20 PUSH1 0xC KECCAK256 DUP8 DUP2 SLOAD ADD DUP2 SSTORE DUP8 PUSH1 0x20 MSTORE PUSH1 0xC MLOAD PUSH1 0x60 SHR DUP7 PUSH1 0x60 SHR PUSH32 0xDDF252AD1BE2C89B69C2B068FC378DAA952BA7F163C4A11628F55A4DF523B3EF PUSH1 0x20 DUP1 LOG3 POP POP POP POP POP POP JUMPDEST PUSH2 0x929 DUP5 DUP5 DUP5 PUSH2 0x1307 JUMP JUMPDEST PUSH1 0x1 SWAP1 POP SWAP4 SWAP3 POP POP POP JUMP JUMPDEST PUSH0 PUSH1 0x12 SWAP1 POP SWAP1 JUMP JUMPDEST PUSH0 PUSH0 PUSH2 0x946 PUSH2 0x130C JUMP JUMPDEST SWAP1 POP PUSH0 PUSH0 SHL DUP2 SUB PUSH2 0x963 JUMPI PUSH2 0x959 PUSH2 0x5E0 JUMP JUMPDEST DUP1 MLOAD SWAP1 PUSH1 0x20 ADD KECCAK256 SWAP1 POP JUMPDEST PUSH0 PUSH2 0x96C PUSH2 0x1310 JUMP JUMPDEST SWAP1 POP PUSH1 0x40 MLOAD PUSH32 0x8B73C3C69BB8FE3D512ECC4CF759CC79239F7B179B0FFACAA9A75D522B39400F DUP2 MSTORE DUP3 PUSH1 0x20 DUP3 ADD MSTORE DUP2 PUSH1 0x40 DUP3 ADD MSTORE CHAINID PUSH1 0x60 DUP3 ADD MSTORE ADDRESS PUSH1 0x80 DUP3 ADD MSTORE PUSH1 0xA0 DUP2 KECCAK256 SWAP4 POP POP POP POP SWAP1 JUMP JUMPDEST PUSH0 DUP2 PUSH8 0xDE0B6B3A7640000 PUSH2 0x9CD SWAP2 SWAP1 PUSH2 0x1C46 JUMP JUMPDEST DUP3 PUSH2 0x9D6 PUSH2 0xBE7 JUMP JUMPDEST PUSH2 0x9E0 SWAP2 SWAP1 PUSH2 0x1C79 JUMP JUMPDEST PUSH2 0x9EA SWAP2 SWAP1 PUSH2 0x1CE7 JUMP JUMPDEST SWAP1 POP DUP1 SELFBALANCE LT ISZERO PUSH2 0x9F8 JUMPI SELFBALANCE SWAP1 POP JUMPDEST SWAP2 SWAP1 POP JUMP JUMPDEST PUSH0 PUSH4 0x87A211A2 PUSH1 0xC MSTORE DUP2 PUSH0 MSTORE PUSH1 0x20 PUSH1 0xC KECCAK256 SLOAD SWAP1 POP SWAP2 SWAP1 POP JUMP JUMPDEST PUSH2 0xA1E PUSH2 0x127B JUMP JUMPDEST PUSH2 0xA27 PUSH0 PUSH2 0x1339 JUMP JUMPDEST JUMP JUMPDEST PUSH0 PUSH1 0x3 SLOAD PUSH3 0x15180 PUSH8 0xDE0B6B3A7640000 PUSH2 0xA44 SWAP2 SWAP1 PUSH2 0x1CE7 JUMP JUMPDEST PUSH32 0x0 TIMESTAMP PUSH2 0xA70 SWAP2 SWAP1 PUSH2 0x1D17 JUMP JUMPDEST PUSH2 0xA7A SWAP2 SWAP1 PUSH2 0x1C79 JUMP JUMPDEST PUSH2 0xA84 SWAP2 SWAP1 PUSH2 0x1D17 JUMP JUMPDEST SWAP1 POP SWAP1 JUMP JUMPDEST PUSH0 PUSH4 0x38377508 PUSH1 0xC MSTORE DUP2 PUSH0 MSTORE PUSH1 0x20 PUSH1 0xC KECCAK256 SLOAD SWAP1 POP SWAP2 SWAP1 POP JUMP JUMPDEST PUSH0 PUSH0 PUSH0 SWAP1 SLOAD SWAP1 PUSH2 0x100 EXP SWAP1 DIV PUSH20 0xFFFFFFFFFFFFFFFFFFFFFFFFFFFFFFFFFFFFFFFF AND SWAP1 POP SWAP1 JUMP JUMPDEST PUSH1 0x60 PUSH1 0x2 DUP1 SLOAD PUSH2 0xAD8 SWAP1 PUSH2 0x1B95 JUMP JUMPDEST DUP1 PUSH1 0x1F ADD PUSH1 0x20 DUP1 SWAP2 DIV MUL PUSH1 0x20 ADD PUSH1 0x40 MLOAD SWAP1 DUP2 ADD PUSH1 0x40 MSTORE DUP1 SWAP3 SWAP2 SWAP1 DUP2 DUP2 MSTORE PUSH1 0x20 ADD DUP3 DUP1 SLOAD PUSH2 0xB04 SWAP1 PUSH2 0x1B95 JUMP JUMPDEST DUP1 ISZERO PUSH2 0xB4F JUMPI DUP1 PUSH1 0x1F LT PUSH2 0xB26 JUMPI PUSH2 0x100 DUP1 DUP4 SLOAD DIV MUL DUP4 MSTORE SWAP2 PUSH1 0x20 ADD SWAP2 PUSH2 0xB4F JUMP JUMPDEST DUP3 ADD SWAP2 SWAP1 PUSH0 MSTORE PUSH1 0x20 PUSH0 KECCAK256 SWAP1 JUMPDEST DUP2 SLOAD DUP2 MSTORE SWAP1 PUSH1 0x1 ADD SWAP1 PUSH1 0x20 ADD DUP1 DUP4 GT PUSH2 0xB32 JUMPI DUP3 SWAP1 SUB PUSH1 0x1F AND DUP3 ADD SWAP2 JUMPDEST POP POP POP POP POP SWAP1 POP SWAP1 JUMP JUMPDEST PUSH0 PUSH2 0xB65 CALLER DUP5 DUP5 PUSH2 0x1302 JUMP JUMPDEST PUSH4 0x87A211A2 PUSH1 0xC MSTORE CALLER PUSH0 MSTORE PUSH1 0x20 PUSH1 0xC KECCAK256 DUP1 SLOAD DUP1 DUP5 GT ISZERO PUSH2 0xB8C JUMPI PUSH4 0xF4D678B8 PUSH0 MSTORE PUSH1 0x4 PUSH1 0x1C REVERT JUMPDEST DUP4 DUP2 SUB DUP3 SSTORE DUP5 PUSH0 MSTORE PUSH1 0x20 PUSH1 0xC KECCAK256 DUP5 DUP2 SLOAD ADD DUP2 SSTORE DUP5 PUSH1 0x20 MSTORE PUSH1 0xC MLOAD PUSH1 0x60 SHR CALLER PUSH32 0xDDF252AD1BE2C89B69C2B068FC378DAA952BA7F163C4A11628F55A4DF523B3EF PUSH1 0x20 DUP1 LOG3 POP POP POP PUSH2 0xBDD CALLER DUP5 DUP5 PUSH2 0x1307 JUMP JUMPDEST PUSH1 0x1 SWAP1 POP SWAP3 SWAP2 POP POP JUMP JUMPDEST PUSH0 PUSH1 0x4 SLOAD PUSH3 0x15180 PUSH8 0x16345785D8A0000 PUSH2 0xC02 SWAP2 SWAP1 PUSH2 0x1CE7 JUMP JUMPDEST PUSH32 0x0 TIMESTAMP PUSH2 0xC2E SWAP2 SWAP1 PUSH2 0x1D17 JUMP JUMPDEST PUSH2 0xC38 SWAP2 SWAP1 PUSH2 0x1C79 JUMP JUMPDEST PUSH2 0xC42 SWAP2 SWAP1 PUSH2 0x1D17 JUMP JUMPDEST SWAP1 POP SWAP1 JUMP JUMPDEST PUSH1 0x2 DUP1 SLOAD PUSH2 0xC54 SWAP1 PUSH2 0x1B95 JUMP JUMPDEST DUP1 PUSH1 0x1F ADD PUSH1 0x20 DUP1 SWAP2 DIV MUL PUSH1 0x20 ADD PUSH1 0x40 MLOAD SWAP1 DUP2 ADD PUSH1 0x40 MSTORE DUP1 SWAP3 SWAP2 SWAP1 DUP2 DUP2 MSTORE PUSH1 0x20 ADD DUP3 DUP1 SLOAD PUSH2 0xC80 SWAP1 PUSH2 0x1B95 JUMP JUMPDEST DUP1 ISZERO PUSH2 0xCCB JUMPI DUP1 PUSH1 0x1F LT PUSH2 0xCA2 JUMPI PUSH2 0x100 DUP1 DUP4 SLOAD DIV MUL DUP4 MSTORE SWAP2 PUSH1 0x20 ADD SWAP2 PUSH2 0xCCB JUMP JUMPDEST DUP3 ADD SWAP2 SWAP1 PUSH0 MSTORE PUSH1 0x20 PUSH0 KECCAK256 SWAP1 JUMPDEST DUP2 SLOAD DUP2 MSTORE SWAP1 PUSH1 0x1 ADD SWAP1 PUSH1 0x20 ADD DUP1 DUP4 GT PUSH2 0xCAE JUMPI DUP3 SWAP1 SUB PUSH1 0x1F AND DUP3 ADD SWAP2 JUMPDEST POP POP POP POP POP DUP2 JUMP JUMPDEST PUSH0 PUSH2 0xCDD DUP5 PUSH2 0x9B8 JUMP JUMPDEST SWAP1 POP DUP2 PUSH20 0xFFFFFFFFFFFFFFFFFFFFFFFFFFFFFFFFFFFFFFFF AND CALLER PUSH20 0xFFFFFFFFFFFFFFFFFFFFFFFFFFFFFFFFFFFFFFFF AND EQ PUSH2 0xD1E JUMPI PUSH2 0xD1D DUP3 CALLER DUP7 PUSH2 0x13FA JUMP JUMPDEST JUMPDEST DUP1 PUSH1 0x4 PUSH0 DUP3 DUP3 SLOAD PUSH2 0xD2F SWAP2 SWAP1 PUSH2 0x1C46 JUMP JUMPDEST SWAP3 POP POP DUP2 SWAP1 SSTORE POP PUSH2 0xD40 DUP3 DUP6 PUSH2 0x148B JUMP JUMPDEST PUSH0 DUP4 PUSH20 0xFFFFFFFFFFFFFFFFFFFFFFFFFFFFFFFFFFFFFFFF AND DUP3 PUSH1 0x40 MLOAD PUSH2 0xD65 SWAP1 PUSH2 0x1D6D JUMP JUMPDEST PUSH0 PUSH1 0x40 MLOAD DUP1 DUP4 SUB DUP2 DUP6 DUP8 GAS CALL SWAP3 POP POP POP RETURNDATASIZE DUP1 PUSH0 DUP2 EQ PUSH2 0xD9F JUMPI PUSH1 0x40 MLOAD SWAP2 POP PUSH1 0x1F NOT PUSH1 0x3F RETURNDATASIZE ADD AND DUP3 ADD PUSH1 0x40 MSTORE RETURNDATASIZE DUP3 MSTORE RETURNDATASIZE PUSH0 PUSH1 0x20 DUP5 ADD RETURNDATACOPY PUSH2 0xDA4 JUMP JUMPDEST PUSH1 0x60 SWAP2 POP JUMPDEST POP POP SWAP1 POP DUP1 PUSH2 0xDB1 JUMPI PUSH0 PUSH0 REVERT JUMPDEST DUP3 PUSH20 0xFFFFFFFFFFFFFFFFFFFFFFFFFFFFFFFFFFFFFFFF AND DUP5 PUSH20 0xFFFFFFFFFFFFFFFFFFFFFFFFFFFFFFFFFFFFFFFF AND CALLER PUSH20 0xFFFFFFFFFFFFFFFFFFFFFFFFFFFFFFFFFFFFFFFF AND PUSH32 0xFBDE797D201C681B91056529119E0B02407C7BB96A4A2C75C01FC9667232C8DB DUP6 DUP10 PUSH1 0x40 MLOAD PUSH2 0xE27 SWAP3 SWAP2 SWAP1 PUSH2 0x1D81 JUMP JUMPDEST PUSH1 0x40 MLOAD DUP1 SWAP2 SUB SWAP1 LOG4 POP SWAP4 SWAP3 POP POP POP JUMP JUMPDEST PUSH1 0x1 DUP1 SLOAD PUSH2 0xE44 SWAP1 PUSH2 0x1B95 JUMP JUMPDEST DUP1 PUSH1 0x1F ADD PUSH1 0x20 DUP1 SWAP2 DIV MUL PUSH1 0x20 ADD PUSH1 0x40 MLOAD SWAP1 DUP2 ADD PUSH1 0x40 MSTORE DUP1 SWAP3 SWAP2 SWAP1 DUP2 DUP2 MSTORE PUSH1 0x20 ADD DUP3 DUP1 SLOAD PUSH2 0xE70 SWAP1 PUSH2 0x1B95 JUMP JUMPDEST DUP1 ISZERO PUSH2 0xEBB JUMPI DUP1 PUSH1 0x1F LT PUSH2 0xE92 JUMPI PUSH2 0x100 DUP1 DUP4 SLOAD DIV MUL DUP4 MSTORE SWAP2 PUSH1 0x20 ADD SWAP2 PUSH2 0xEBB JUMP JUMPDEST DUP3 ADD SWAP2 SWAP1 PUSH0 MSTORE PUSH1 0x20 PUSH0 KECCAK256 SWAP1 JUMPDEST DUP2 SLOAD DUP2 MSTORE SWAP1 PUSH1 0x1 ADD SWAP1 PUSH1 0x20 ADD DUP1 DUP4 GT PUSH2 0xE9E JUMPI DUP3 SWAP1 SUB PUSH1 0x1F AND DUP3 ADD SWAP2 JUMPDEST POP POP POP POP POP DUP2 JUMP JUMPDEST PUSH2 0xECB PUSH2 0x1274 JUMP JUMPDEST ISZERO PUSH2 0xEFE JUMPI DUP5 NOT ISZERO PUSH15 0x22D473030F116DDEE9F6B43AC78BA3 DUP8 PUSH1 0x60 SHL PUSH1 0x60 SHR XOR OR PUSH2 0xEFD JUMPI PUSH4 0x3F68539A PUSH0 MSTORE PUSH1 0x4 PUSH1 0x1C REVERT JUMPDEST JUMPDEST PUSH0 PUSH2 0xF07 PUSH2 0x130C JUMP JUMPDEST SWAP1 POP PUSH0 PUSH0 SHL DUP2 SUB PUSH2 0xF24 JUMPI PUSH2 0xF1A PUSH2 0x5E0 JUMP JUMPDEST DUP1 MLOAD SWAP1 PUSH1 0x20 ADD KECCAK256 SWAP1 POP JUMPDEST PUSH0 PUSH2 0xF2D PUSH2 0x1310 JUMP JUMPDEST SWAP1 POP DUP6 TIMESTAMP GT ISZERO PUSH2 0xF44 JUMPI PUSH4 0x1A15A3CC PUSH0 MSTORE PUSH1 0x4 PUSH1 0x1C REVERT JUMPDEST PUSH1 0x40 MLOAD DUP10 PUSH1 0x60 SHL PUSH1 0x60 SHR SWAP10 POP DUP9 PUSH1 0x60 SHL PUSH1 0x60 SHR SWAP9 POP PUSH6 0x383775081901 PUSH1 0xE MSTORE DUP10 PUSH0 MSTORE PUSH1 0x20 PUSH1 0xC KECCAK256 DUP1 SLOAD PUSH32 0x8B73C3C69BB8FE3D512ECC4CF759CC79239F7B179B0FFACAA9A75D522B39400F DUP4 MSTORE DUP5 PUSH1 0x20 DUP5 ADD MSTORE DUP4 PUSH1 0x40 DUP5 ADD MSTORE CHAINID PUSH1 0x60 DUP5 ADD MSTORE ADDRESS PUSH1 0x80 DUP5 ADD MSTORE PUSH1 0xA0 DUP4 KECCAK256 PUSH1 0x2E MSTORE PUSH32 0x6E71EDAE12B1B97F4D1F60370FEF10105FA2FAAE0126114A169C64845D6126C9 DUP4 MSTORE DUP12 PUSH1 0x20 DUP5 ADD MSTORE DUP11 PUSH1 0x40 DUP5 ADD MSTORE DUP10 PUSH1 0x60 DUP5 ADD MSTORE DUP1 PUSH1 0x80 DUP5 ADD MSTORE DUP9 PUSH1 0xA0 DUP5 ADD MSTORE PUSH1 0xC0 DUP4 KECCAK256 PUSH1 0x4E MSTORE PUSH1 0x42 PUSH1 0x2C KECCAK256 PUSH0 MSTORE DUP8 PUSH1 0xFF AND PUSH1 0x20 MSTORE DUP7 PUSH1 0x40 MSTORE DUP6 PUSH1 0x60 MSTORE PUSH1 0x20 DUP1 PUSH1 0x80 PUSH0 PUSH1 0x1 GAS STATICCALL DUP13 RETURNDATASIZE MLOAD EQ PUSH2 0x102C JUMPI PUSH4 0xDDAFBAEF PUSH0 MSTORE PUSH1 0x4 PUSH1 0x1C REVERT JUMPDEST DUP1 DUP3 ADD DUP4 SSTORE DUP12 PUSH4 0x7F5E9F20 PUSH1 0xA0 SHL OR PUSH1 0x40 MSTORE DUP11 PUSH1 0x34 PUSH1 0x2C KECCAK256 SSTORE DUP12 DUP14 PUSH32 0x8C5BE1E5EBEC7D5BD14F71427D1E84F3DD0314C0F7B2291E5B200AC8C7C3B925 PUSH1 0x20 PUSH1 0x60 DUP9 ADD LOG3 DUP4 PUSH1 0x40 MSTORE PUSH0 PUSH1 0x60 MSTORE POP POP POP POP POP POP POP POP POP POP POP POP POP JUMP JUMPDEST PUSH0 PUSH2 0x108F PUSH2 0x1274 JUMP JUMPDEST ISZERO PUSH2 0x10FF JUMPI PUSH15 0x22D473030F116DDEE9F6B43AC78BA3 PUSH20 0xFFFFFFFFFFFFFFFFFFFFFFFFFFFFFFFFFFFFFFFF AND DUP3 PUSH20 0xFFFFFFFFFFFFFFFFFFFFFFFFFFFFFFFFFFFFFFFF AND SUB PUSH2 0x10FE JUMPI PUSH32 0xFFFFFFFFFFFFFFFFFFFFFFFFFFFFFFFFFFFFFFFFFFFFFFFFFFFFFFFFFFFFFFFF SWAP1 POP PUSH2 0x1117 JUMP JUMPDEST JUMPDEST DUP2 PUSH1 0x20 MSTORE PUSH4 0x7F5E9F20 PUSH1 0xC MSTORE DUP3 PUSH0 MSTORE PUSH1 0x34 PUSH1 0xC KECCAK256 SLOAD SWAP1 POP JUMPDEST SWAP3 SWAP2 POP POP JUMP JUMPDEST PUSH0 DUP2 PUSH8 0x16345785D8A0000 PUSH2 0x1132 SWAP2 SWAP1 PUSH2 0x1C46 JUMP JUMPDEST DUP3 PUSH2 0x113B PUSH2 0xA29 JUMP JUMPDEST PUSH2 0x1145 SWAP2 SWAP1 PUSH2 0x1C79 JUMP JUMPDEST PUSH2 0x114F SWAP2 SWAP1 PUSH2 0x1CE7 JUMP JUMPDEST SWAP1 POP SWAP2 SWAP1 POP JUMP JUMPDEST PUSH2 0x115E PUSH2 0x127B JUMP JUMPDEST PUSH0 PUSH20 0xFFFFFFFFFFFFFFFFFFFFFFFFFFFFFFFFFFFFFFFF AND DUP2 PUSH20 0xFFFFFFFFFFFFFFFFFFFFFFFFFFFFFFFFFFFFFFFF AND SUB PUSH2 0x11CE JUMPI PUSH0 PUSH1 0x40 MLOAD PUSH32 0x1E4FBDF700000000000000000000000000000000000000000000000000000000 DUP2 MSTORE PUSH1 0x4 ADD PUSH2 0x11C5 SWAP2 SWAP1 PUSH2 0x19D0 JUMP JUMPDEST PUSH1 0x40 MLOAD DUP1 SWAP2 SUB SWAP1 REVERT JUMPDEST PUSH2 0x11D7 DUP2 PUSH2 0x1339 JUMP JUMPDEST POP JUMP JUMPDEST PUSH0 PUSH2 0x11E4 CALLVALUE PUSH2 0x111D JUMP JUMPDEST SWAP1 POP DUP1 PUSH1 0x3 PUSH0 DUP3 DUP3 SLOAD PUSH2 0x11F7 SWAP2 SWAP1 PUSH2 0x1C46 JUMP JUMPDEST SWAP3 POP POP DUP2 SWAP1 SSTORE POP PUSH2 0x1208 DUP3 DUP3 PUSH2 0x151B JUMP JUMPDEST DUP2 PUSH20 0xFFFFFFFFFFFFFFFFFFFFFFFFFFFFFFFFFFFFFFFF AND CALLER PUSH20 0xFFFFFFFFFFFFFFFFFFFFFFFFFFFFFFFFFFFFFFFF AND PUSH32 0xDCBC1C05240F31FF3AD067EF1EE35CE4997762752E3A095284754544F4C709D7 CALLVALUE DUP5 PUSH1 0x40 MLOAD PUSH2 0x1267 SWAP3 SWAP2 SWAP1 PUSH2 0x1D81 JUMP JUMPDEST PUSH1 0x40 MLOAD DUP1 SWAP2 SUB SWAP1 LOG3 SWAP2 SWAP1 POP JUMP JUMPDEST PUSH0 PUSH0 SWAP1 POP SWAP1 JUMP JUMPDEST PUSH2 0x1283 PUSH2 0x15AD JUMP JUMPDEST PUSH20 0xFFFFFFFFFFFFFFFFFFFFFFFFFFFFFFFFFFFFFFFF AND PUSH2 0x12A1 PUSH2 0xAA2 JUMP JUMPDEST PUSH20 0xFFFFFFFFFFFFFFFFFFFFFFFFFFFFFFFFFFFFFFFF AND EQ PUSH2 0x1300 JUMPI PUSH2 0x12C4 PUSH2 0x15AD JUMP JUMPDEST PUSH1 0x40 MLOAD PUSH32 0x118CDAA700000000000000000000000000000000000000000000000000000000 DUP2 MSTORE PUSH1 0x4 ADD PUSH2 0x12F7 SWAP2 SWAP1 PUSH2 0x19D0 JUMP JUMPDEST PUSH1 0x40 MLOAD DUP1 SWAP2 SUB SWAP1 REVERT JUMPDEST JUMP JUMPDEST POP POP POP JUMP JUMPDEST POP POP POP JUMP JUMPDEST PUSH0 SWAP1 JUMP JUMPDEST PUSH0 PUSH32 0xC89EFDAA54C0F20C7ADF612882DF0950F5A951637E0307CDCB4C672F298B8BC6 PUSH0 SHL SWAP1 POP SWAP1 JUMP JUMPDEST PUSH0 PUSH0 PUSH0 SWAP1 SLOAD SWAP1 PUSH2 0x100 EXP SWAP1 DIV PUSH20 0xFFFFFFFFFFFFFFFFFFFFFFFFFFFFFFFFFFFFFFFF AND SWAP1 POP DUP2 PUSH0 PUSH0 PUSH2 0x100 EXP DUP2 SLOAD DUP2 PUSH20 0xFFFFFFFFFFFFFFFFFFFFFFFFFFFFFFFFFFFFFFFF MUL NOT AND SWAP1 DUP4 PUSH20 0xFFFFFFFFFFFFFFFFFFFFFFFFFFFFFFFFFFFFFFFF AND MUL OR SWAP1 SSTORE POP DUP2 PUSH20 0xFFFFFFFFFFFFFFFFFFFFFFFFFFFFFFFFFFFFFFFF AND DUP2 PUSH20 0xFFFFFFFFFFFFFFFFFFFFFFFFFFFFFFFFFFFFFFFF AND PUSH32 0x8BE0079C531659141344CD1FD0A4F28419497F9722A3DAAFE3B4186F6B6457E0 PUSH1 0x40 MLOAD PUSH1 0x40 MLOAD DUP1 SWAP2 SUB SWAP1 LOG3 POP POP JUMP JUMPDEST PUSH2 0x1402 PUSH2 0x1274 JUMP JUMPDEST ISZERO PUSH2 0x144B JUMPI PUSH15 0x22D473030F116DDEE9F6B43AC78BA3 PUSH20 0xFFFFFFFFFFFFFFFFFFFFFFFFFFFFFFFFFFFFFFFF AND DUP3 PUSH20 0xFFFFFFFFFFFFFFFFFFFFFFFFFFFFFFFFFFFFFFFF AND SUB ISZERO PUSH2 0x1486 JUMPI JUMPDEST DUP2 PUSH1 0x20 MSTORE PUSH4 0x7F5E9F20 PUSH1 0xC MSTORE DUP3 PUSH0 MSTORE PUSH1 0x34 PUSH1 0xC KECCAK256 DUP1 SLOAD DUP1 NOT ISZERO PUSH2 0x1483 JUMPI DUP1 DUP4 GT ISZERO PUSH2 0x147D JUMPI PUSH4 0x13BE252B PUSH0 MSTORE PUSH1 0x4 PUSH1 0x1C REVERT JUMPDEST DUP3 DUP2 SUB DUP3 SSTORE JUMPDEST POP POP JUMPDEST POP POP POP JUMP JUMPDEST PUSH2 0x1496 DUP3 PUSH0 DUP4 PUSH2 0x1302 JUMP JUMPDEST PUSH4 0x87A211A2 PUSH1 0xC MSTORE DUP2 PUSH0 MSTORE PUSH1 0x20 PUSH1 0xC KECCAK256 DUP1 SLOAD DUP1 DUP4 GT ISZERO PUSH2 0x14BD JUMPI PUSH4 0xF4D678B8 PUSH0 MSTORE PUSH1 0x4 PUSH1 0x1C REVERT JUMPDEST DUP3 DUP2 SUB DUP3 SSTORE DUP3 PUSH9 0x5345CDF77EB68F44C SLOAD SUB PUSH9 0x5345CDF77EB68F44C SSTORE DUP3 PUSH0 MSTORE PUSH0 DUP5 PUSH1 0x60 SHL PUSH1 0x60 SHR PUSH32 0xDDF252AD1BE2C89B69C2B068FC378DAA952BA7F163C4A11628F55A4DF523B3EF PUSH1 0x20 PUSH0 LOG3 POP POP PUSH2 0x1517 DUP3 PUSH0 DUP4 PUSH2 0x1307 JUMP JUMPDEST POP POP JUMP JUMPDEST PUSH2 0x1526 PUSH0 DUP4 DUP4 PUSH2 0x1302 JUMP JUMPDEST PUSH9 0x5345CDF77EB68F44C SLOAD DUP2 DUP2 ADD DUP2 DUP2 LT ISZERO PUSH2 0x1549 JUMPI PUSH4 0xE5CFE957 PUSH0 MSTORE PUSH1 0x4 PUSH1 0x1C REVERT JUMPDEST DUP1 PUSH9 0x5345CDF77EB68F44C SSTORE PUSH4 0x87A211A2 PUSH1 0xC MSTORE DUP4 PUSH0 MSTORE PUSH1 0x20 PUSH1 0xC KECCAK256 DUP4 DUP2 SLOAD ADD DUP2 SSTORE DUP4 PUSH1 0x20 MSTORE PUSH1 0xC MLOAD PUSH1 0x60 SHR PUSH0 PUSH32 0xDDF252AD1BE2C89B69C2B068FC378DAA952BA7F163C4A11628F55A4DF523B3EF PUSH1 0x20 DUP1 LOG3 POP POP POP PUSH2 0x15A9 PUSH0 DUP4 DUP4 PUSH2 0x1307 JUMP JUMPDEST POP POP JUMP JUMPDEST PUSH0 CALLER SWAP1 POP SWAP1 JUMP JUMPDEST PUSH0 DUP2 MLOAD SWAP1 POP SWAP2 SWAP1 POP JUMP JUMPDEST PUSH0 DUP3 DUP3 MSTORE PUSH1 0x20 DUP3 ADD SWAP1 POP SWAP3 SWAP2 POP POP JUMP JUMPDEST DUP3 DUP2 DUP4 MCOPY PUSH0 DUP4 DUP4 ADD MSTORE POP POP POP JUMP JUMPDEST PUSH0 PUSH1 0x1F NOT PUSH1 0x1F DUP4 ADD AND SWAP1 POP SWAP2 SWAP1 POP JUMP JUMPDEST PUSH0 PUSH2 0x15F6 DUP3 PUSH2 0x15B4 JUMP JUMPDEST PUSH2 0x1600 DUP2 DUP6 PUSH2 0x15BE JUMP JUMPDEST SWAP4 POP PUSH2 0x1610 DUP2 DUP6 PUSH1 0x20 DUP7 ADD PUSH2 0x15CE JUMP JUMPDEST PUSH2 0x1619 DUP2 PUSH2 0x15DC JUMP JUMPDEST DUP5 ADD SWAP2 POP POP SWAP3 SWAP2 POP POP JUMP JUMPDEST PUSH0 PUSH1 0x20 DUP3 ADD SWAP1 POP DUP2 DUP2 SUB PUSH0 DUP4 ADD MSTORE PUSH2 0x163C DUP2 DUP5 PUSH2 0x15EC JUMP JUMPDEST SWAP1 POP SWAP3 SWAP2 POP POP JUMP JUMPDEST PUSH0 PUSH0 REVERT JUMPDEST PUSH0 PUSH0 REVERT JUMPDEST PUSH0 PUSH20 0xFFFFFFFFFFFFFFFFFFFFFFFFFFFFFFFFFFFFFFFF DUP3 AND SWAP1 POP SWAP2 SWAP1 POP JUMP JUMPDEST PUSH0 PUSH2 0x1675 DUP3 PUSH2 0x164C JUMP JUMPDEST SWAP1 POP SWAP2 SWAP1 POP JUMP JUMPDEST PUSH2 0x1685 DUP2 PUSH2 0x166B JUMP JUMPDEST DUP2 EQ PUSH2 0x168F JUMPI PUSH0 PUSH0 REVERT JUMPDEST POP JUMP JUMPDEST PUSH0 DUP2 CALLDATALOAD SWAP1 POP PUSH2 0x16A0 DUP2 PUSH2 0x167C JUMP JUMPDEST SWAP3 SWAP2 POP POP JUMP JUMPDEST PUSH0 DUP2 SWAP1 POP SWAP2 SWAP1 POP JUMP JUMPDEST PUSH2 0x16B8 DUP2 PUSH2 0x16A6 JUMP JUMPDEST DUP2 EQ PUSH2 0x16C2 JUMPI PUSH0 PUSH0 REVERT JUMPDEST POP JUMP JUMPDEST PUSH0 DUP2 CALLDATALOAD SWAP1 POP PUSH2 0x16D3 DUP2 PUSH2 0x16AF JUMP JUMPDEST SWAP3 SWAP2 POP POP JUMP JUMPDEST PUSH0 PUSH0 PUSH1 0x40 DUP4 DUP6 SUB SLT ISZERO PUSH2 0x16EF JUMPI PUSH2 0x16EE PUSH2 0x1644 JUMP JUMPDEST JUMPDEST PUSH0 PUSH2 0x16FC DUP6 DUP3 DUP7 ADD PUSH2 0x1692 JUMP JUMPDEST SWAP3 POP POP PUSH1 0x20 PUSH2 0x170D DUP6 DUP3 DUP7 ADD PUSH2 0x16C5 JUMP JUMPDEST SWAP2 POP POP SWAP3 POP SWAP3 SWAP1 POP JUMP JUMPDEST PUSH0 DUP2 ISZERO ISZERO SWAP1 POP SWAP2 SWAP1 POP JUMP JUMPDEST PUSH2 0x172B DUP2 PUSH2 0x1717 JUMP JUMPDEST DUP3 MSTORE POP POP JUMP JUMPDEST PUSH0 PUSH1 0x20 DUP3 ADD SWAP1 POP PUSH2 0x1744 PUSH0 DUP4 ADD DUP5 PUSH2 0x1722 JUMP JUMPDEST SWAP3 SWAP2 POP POP JUMP JUMPDEST PUSH0 PUSH0 REVERT JUMPDEST PUSH0 PUSH0 REVERT JUMPDEST PUSH0 PUSH0 REVERT JUMPDEST PUSH0 PUSH0 DUP4 PUSH1 0x1F DUP5 ADD SLT PUSH2 0x176B JUMPI PUSH2 0x176A PUSH2 0x174A JUMP JUMPDEST JUMPDEST DUP3 CALLDATALOAD SWAP1 POP PUSH8 0xFFFFFFFFFFFFFFFF DUP2 GT ISZERO PUSH2 0x1788 JUMPI PUSH2 0x1787 PUSH2 0x174E JUMP JUMPDEST JUMPDEST PUSH1 0x20 DUP4 ADD SWAP2 POP DUP4 PUSH1 0x1 DUP3 MUL DUP4 ADD GT ISZERO PUSH2 0x17A4 JUMPI PUSH2 0x17A3 PUSH2 0x1752 JUMP JUMPDEST JUMPDEST SWAP3 POP SWAP3 SWAP1 POP JUMP JUMPDEST PUSH0 PUSH0 PUSH0 PUSH0 PUSH1 0x60 DUP6 DUP8 SUB SLT ISZERO PUSH2 0x17C3 JUMPI PUSH2 0x17C2 PUSH2 0x1644 JUMP JUMPDEST JUMPDEST PUSH0 PUSH2 0x17D0 DUP8 DUP3 DUP9 ADD PUSH2 0x1692 JUMP JUMPDEST SWAP5 POP POP PUSH1 0x20 PUSH2 0x17E1 DUP8 DUP3 DUP9 ADD PUSH2 0x16C5 JUMP JUMPDEST SWAP4 POP POP PUSH1 0x40 DUP6 ADD CALLDATALOAD PUSH8 0xFFFFFFFFFFFFFFFF DUP2 GT ISZERO PUSH2 0x1802 JUMPI PUSH2 0x1801 PUSH2 0x1648 JUMP JUMPDEST JUMPDEST PUSH2 0x180E DUP8 DUP3 DUP9 ADD PUSH2 0x1756 JUMP JUMPDEST SWAP3 POP SWAP3 POP POP SWAP3 SWAP6 SWAP2 SWAP5 POP SWAP3 POP JUMP JUMPDEST PUSH0 DUP2 MLOAD SWAP1 POP SWAP2 SWAP1 POP JUMP JUMPDEST PUSH0 DUP3 DUP3 MSTORE PUSH1 0x20 DUP3 ADD SWAP1 POP SWAP3 SWAP2 POP POP JUMP JUMPDEST PUSH0 PUSH2 0x1840 DUP3 PUSH2 0x181C JUMP JUMPDEST PUSH2 0x184A DUP2 DUP6 PUSH2 0x1826 JUMP JUMPDEST SWAP4 POP PUSH2 0x185A DUP2 DUP6 PUSH1 0x20 DUP7 ADD PUSH2 0x15CE JUMP JUMPDEST PUSH2 0x1863 DUP2 PUSH2 0x15DC JUMP JUMPDEST DUP5 ADD SWAP2 POP POP SWAP3 SWAP2 POP POP JUMP JUMPDEST PUSH0 PUSH1 0x20 DUP3 ADD SWAP1 POP DUP2 DUP2 SUB PUSH0 DUP4 ADD MSTORE PUSH2 0x1886 DUP2 DUP5 PUSH2 0x1836 JUMP JUMPDEST SWAP1 POP SWAP3 SWAP2 POP POP JUMP JUMPDEST PUSH2 0x1897 DUP2 PUSH2 0x16A6 JUMP JUMPDEST DUP3 MSTORE POP POP JUMP JUMPDEST PUSH0 PUSH1 0x20 DUP3 ADD SWAP1 POP PUSH2 0x18B0 PUSH0 DUP4 ADD DUP5 PUSH2 0x188E JUMP JUMPDEST SWAP3 SWAP2 POP POP JUMP JUMPDEST PUSH0 PUSH0 PUSH0 PUSH1 0x60 DUP5 DUP7 SUB SLT ISZERO PUSH2 0x18CD JUMPI PUSH2 0x18CC PUSH2 0x1644 JUMP JUMPDEST JUMPDEST PUSH0 PUSH2 0x18DA DUP7 DUP3 DUP8 ADD PUSH2 0x1692 JUMP JUMPDEST SWAP4 POP POP PUSH1 0x20 PUSH2 0x18EB DUP7 DUP3 DUP8 ADD PUSH2 0x1692 JUMP JUMPDEST SWAP3 POP POP PUSH1 0x40 PUSH2 0x18FC DUP7 DUP3 DUP8 ADD PUSH2 0x16C5 JUMP JUMPDEST SWAP2 POP POP SWAP3 POP SWAP3 POP SWAP3 JUMP JUMPDEST PUSH0 PUSH1 0xFF DUP3 AND SWAP1 POP SWAP2 SWAP1 POP JUMP JUMPDEST PUSH2 0x191B DUP2 PUSH2 0x1906 JUMP JUMPDEST DUP3 MSTORE POP POP JUMP JUMPDEST PUSH0 PUSH1 0x20 DUP3 ADD SWAP1 POP PUSH2 0x1934 PUSH0 DUP4 ADD DUP5 PUSH2 0x1912 JUMP JUMPDEST SWAP3 SWAP2 POP POP JUMP JUMPDEST PUSH0 DUP2 SWAP1 POP SWAP2 SWAP1 POP JUMP JUMPDEST PUSH2 0x194C DUP2 PUSH2 0x193A JUMP JUMPDEST DUP3 MSTORE POP POP JUMP JUMPDEST PUSH0 PUSH1 0x20 DUP3 ADD SWAP1 POP PUSH2 0x1965 PUSH0 DUP4 ADD DUP5 PUSH2 0x1943 JUMP JUMPDEST SWAP3 SWAP2 POP POP JUMP JUMPDEST PUSH0 PUSH1 0x20 DUP3 DUP5 SUB SLT ISZERO PUSH2 0x1980 JUMPI PUSH2 0x197F PUSH2 0x1644 JUMP JUMPDEST JUMPDEST PUSH0 PUSH2 0x198D DUP5 DUP3 DUP6 ADD PUSH2 0x16C5 JUMP JUMPDEST SWAP2 POP POP SWAP3 SWAP2 POP POP JUMP JUMPDEST PUSH0 PUSH1 0x20 DUP3 DUP5 SUB SLT ISZERO PUSH2 0x19AB JUMPI PUSH2 0x19AA PUSH2 0x1644 JUMP JUMPDEST JUMPDEST PUSH0 PUSH2 0x19B8 DUP5 DUP3 DUP6 ADD PUSH2 0x1692 JUMP JUMPDEST SWAP2 POP POP SWAP3 SWAP2 POP POP JUMP JUMPDEST PUSH2 0x19CA DUP2 PUSH2 0x166B JUMP JUMPDEST DUP3 MSTORE POP POP JUMP JUMPDEST PUSH0 PUSH1 0x20 DUP3 ADD SWAP1 POP PUSH2 0x19E3 PUSH0 DUP4 ADD DUP5 PUSH2 0x19C1 JUMP JUMPDEST SWAP3 SWAP2 POP POP JUMP JUMPDEST PUSH0 PUSH0 PUSH0 PUSH1 0x60 DUP5 DUP7 SUB SLT ISZERO PUSH2 0x1A00 JUMPI PUSH2 0x19FF PUSH2 0x1644 JUMP JUMPDEST JUMPDEST PUSH0 PUSH2 0x1A0D DUP7 DUP3 DUP8 ADD PUSH2 0x16C5 JUMP JUMPDEST SWAP4 POP POP PUSH1 0x20 PUSH2 0x1A1E DUP7 DUP3 DUP8 ADD PUSH2 0x1692 JUMP JUMPDEST SWAP3 POP POP PUSH1 0x40 PUSH2 0x1A2F DUP7 DUP3 DUP8 ADD PUSH2 0x1692 JUMP JUMPDEST SWAP2 POP POP SWAP3 POP SWAP3 POP SWAP3 JUMP JUMPDEST PUSH2 0x1A42 DUP2 PUSH2 0x1906 JUMP JUMPDEST DUP2 EQ PUSH2 0x1A4C JUMPI PUSH0 PUSH0 REVERT JUMPDEST POP JUMP JUMPDEST PUSH0 DUP2 CALLDATALOAD SWAP1 POP PUSH2 0x1A5D DUP2 PUSH2 0x1A39 JUMP JUMPDEST SWAP3 SWAP2 POP POP JUMP JUMPDEST PUSH2 0x1A6C DUP2 PUSH2 0x193A JUMP JUMPDEST DUP2 EQ PUSH2 0x1A76 JUMPI PUSH0 PUSH0 REVERT JUMPDEST POP JUMP JUMPDEST PUSH0 DUP2 CALLDATALOAD SWAP1 POP PUSH2 0x1A87 DUP2 PUSH2 0x1A63 JUMP JUMPDEST SWAP3 SWAP2 POP POP JUMP JUMPDEST PUSH0 PUSH0 PUSH0 PUSH0 PUSH0 PUSH0 PUSH0 PUSH1 0xE0 DUP9 DUP11 SUB SLT ISZERO PUSH2 0x1AA8 JUMPI PUSH2 0x1AA7 PUSH2 0x1644 JUMP JUMPDEST JUMPDEST PUSH0 PUSH2 0x1AB5 DUP11 DUP3 DUP12 ADD PUSH2 0x1692 JUMP JUMPDEST SWAP8 POP POP PUSH1 0x20 PUSH2 0x1AC6 DUP11 DUP3 DUP12 ADD PUSH2 0x1692 JUMP JUMPDEST SWAP7 POP POP PUSH1 0x40 PUSH2 0x1AD7 DUP11 DUP3 DUP12 ADD PUSH2 0x16C5 JUMP JUMPDEST SWAP6 POP POP PUSH1 0x60 PUSH2 0x1AE8 DUP11 DUP3 DUP12 ADD PUSH2 0x16C5 JUMP JUMPDEST SWAP5 POP POP PUSH1 0x80 PUSH2 0x1AF9 DUP11 DUP3 DUP12 ADD PUSH2 0x1A4F JUMP JUMPDEST SWAP4 POP POP PUSH1 0xA0 PUSH2 0x1B0A DUP11 DUP3 DUP12 ADD PUSH2 0x1A79 JUMP JUMPDEST SWAP3 POP POP PUSH1 0xC0 PUSH2 0x1B1B DUP11 DUP3 DUP12 ADD PUSH2 0x1A79 JUMP JUMPDEST SWAP2 POP POP SWAP3 SWAP6 SWAP9 SWAP2 SWAP5 SWAP8 POP SWAP3 SWAP6 POP JUMP JUMPDEST PUSH0 PUSH0 PUSH1 0x40 DUP4 DUP6 SUB SLT ISZERO PUSH2 0x1B40 JUMPI PUSH2 0x1B3F PUSH2 0x1644 JUMP JUMPDEST JUMPDEST PUSH0 PUSH2 0x1B4D DUP6 DUP3 DUP7 ADD PUSH2 0x1692 JUMP JUMPDEST SWAP3 POP POP PUSH1 0x20 PUSH2 0x1B5E DUP6 DUP3 DUP7 ADD PUSH2 0x1692 JUMP JUMPDEST SWAP2 POP POP SWAP3 POP SWAP3 SWAP1 POP JUMP JUMPDEST PUSH32 0x4E487B7100000000000000000000000000000000000000000000000000000000 PUSH0 MSTORE PUSH1 0x22 PUSH1 0x4 MSTORE PUSH1 0x24 PUSH0 REVERT JUMPDEST PUSH0 PUSH1 0x2 DUP3 DIV SWAP1 POP PUSH1 0x1 DUP3 AND DUP1 PUSH2 0x1BAC JUMPI PUSH1 0x7F DUP3 AND SWAP2 POP JUMPDEST PUSH1 0x20 DUP3 LT DUP2 SUB PUSH2 0x1BBF JUMPI PUSH2 0x1BBE PUSH2 0x1B68 JUMP JUMPDEST JUMPDEST POP SWAP2 SWAP1 POP JUMP JUMPDEST PUSH0 DUP2 SWAP1 POP SWAP3 SWAP2 POP POP JUMP JUMPDEST DUP3 DUP2 DUP4 CALLDATACOPY PUSH0 DUP4 DUP4 ADD MSTORE POP POP POP JUMP JUMPDEST PUSH0 PUSH2 0x1BE8 DUP4 DUP6 PUSH2 0x1BC5 JUMP JUMPDEST SWAP4 POP PUSH2 0x1BF5 DUP4 DUP6 DUP5 PUSH2 0x1BCF JUMP JUMPDEST DUP3 DUP5 ADD SWAP1 POP SWAP4 SWAP3 POP POP POP JUMP JUMPDEST PUSH0 PUSH2 0x1C0D DUP3 DUP5 DUP7 PUSH2 0x1BDD JUMP JUMPDEST SWAP2 POP DUP2 SWAP1 POP SWAP4 SWAP3 POP POP POP JUMP JUMPDEST PUSH32 0x4E487B7100000000000000000000000000000000000000000000000000000000 PUSH0 MSTORE PUSH1 0x11 PUSH1 0x4 MSTORE PUSH1 0x24 PUSH0 REVERT JUMPDEST PUSH0 PUSH2 0x1C50 DUP3 PUSH2 0x16A6 JUMP JUMPDEST SWAP2 POP PUSH2 0x1C5B DUP4 PUSH2 0x16A6 JUMP JUMPDEST SWAP3 POP DUP3 DUP3 ADD SWAP1 POP DUP1 DUP3 GT ISZERO PUSH2 0x1C73 JUMPI PUSH2 0x1C72 PUSH2 0x1C19 JUMP JUMPDEST JUMPDEST SWAP3 SWAP2 POP POP JUMP JUMPDEST PUSH0 PUSH2 0x1C83 DUP3 PUSH2 0x16A6 JUMP JUMPDEST SWAP2 POP PUSH2 0x1C8E DUP4 PUSH2 0x16A6 JUMP JUMPDEST SWAP3 POP DUP3 DUP3 MUL PUSH2 0x1C9C DUP2 PUSH2 0x16A6 JUMP JUMPDEST SWAP2 POP DUP3 DUP3 DIV DUP5 EQ DUP4 ISZERO OR PUSH2 0x1CB3 JUMPI PUSH2 0x1CB2 PUSH2 0x1C19 JUMP JUMPDEST JUMPDEST POP SWAP3 SWAP2 POP POP JUMP JUMPDEST PUSH32 0x4E487B7100000000000000000000000000000000000000000000000000000000 PUSH0 MSTORE PUSH1 0x12 PUSH1 0x4 MSTORE PUSH1 0x24 PUSH0 REVERT JUMPDEST PUSH0 PUSH2 0x1CF1 DUP3 PUSH2 0x16A6 JUMP JUMPDEST SWAP2 POP PUSH2 0x1CFC DUP4 PUSH2 0x16A6 JUMP JUMPDEST SWAP3 POP DUP3 PUSH2 0x1D0C JUMPI PUSH2 0x1D0B PUSH2 0x1CBA JUMP JUMPDEST JUMPDEST DUP3 DUP3 DIV SWAP1 POP SWAP3 SWAP2 POP POP JUMP JUMPDEST PUSH0 PUSH2 0x1D21 DUP3 PUSH2 0x16A6 JUMP JUMPDEST SWAP2 POP PUSH2 0x1D2C DUP4 PUSH2 0x16A6 JUMP JUMPDEST SWAP3 POP DUP3 DUP3 SUB SWAP1 POP DUP2 DUP2 GT ISZERO PUSH2 0x1D44 JUMPI PUSH2 0x1D43 PUSH2 0x1C19 JUMP JUMPDEST JUMPDEST SWAP3 SWAP2 POP POP JUMP JUMPDEST POP JUMP JUMPDEST PUSH0 PUSH2 0x1D58 PUSH0 DUP4 PUSH2 0x1BC5 JUMP JUMPDEST SWAP2 POP PUSH2 0x1D63 DUP3 PUSH2 0x1D4A JUMP JUMPDEST PUSH0 DUP3 ADD SWAP1 POP SWAP2 SWAP1 POP JUMP JUMPDEST PUSH0 PUSH2 0x1D77 DUP3 PUSH2 0x1D4D JUMP JUMPDEST SWAP2 POP DUP2 SWAP1 POP SWAP2 SWAP1 POP JUMP JUMPDEST PUSH0 PUSH1 0x40 DUP3 ADD SWAP1 POP PUSH2 0x1D94 PUSH0 DUP4 ADD DUP6 PUSH2 0x188E JUMP JUMPDEST PUSH2 0x1DA1 PUSH1 0x20 DUP4 ADD DUP5 PUSH2 0x188E JUMP JUMPDEST SWAP4 SWAP3 POP POP POP JUMP INVALID LOG2 PUSH5 0x6970667358 0x22 SLT KECCAK256 PUSH24 0x7E1FC85DED1323491FC3B1403BC48112DF8C7520F5203EBF 0xDA NUMBER 0xE6 SWAP16 0xDF 0xB9 SIGNEXTEND PUSH5 0x736F6C6343 STOP ADDMOD SHR STOP CALLER "
				},
				"gasEstimates": {
					"creation": {
						"codeDepositCost": "1529200",
						"executionCost": "infinite",
						"totalCost": "infinite"
					},
					"external": {
						"DOMAIN_SEPARATOR()": "infinite",
						"_name()": "infinite",
						"_symbol()": "infinite",
						"allowance(address,address)": "infinite",
						"approve(address,uint256)": "24878",
						"balanceOf(address)": "2864",
						"customCall(address,uint256,bytes)": "infinite",
						"decimals()": "472",
						"deposit(address)": "infinite",
						"maxMint()": "infinite",
						"maxWithdraw()": "infinite",
						"name()": "infinite",
						"nonces(address)": "2930",
						"owner()": "2537",
						"permit(address,address,uint256,uint256,uint8,bytes32,bytes32)": "infinite",
						"previewDeposit(uint256)": "infinite",
						"previewRedeem(uint256)": "infinite",
						"redeem(uint256,address,address)": "infinite",
						"renounceOwnership()": "infinite",
						"symbol()": "infinite",
						"totalSupply()": "2522",
						"transfer(address,uint256)": "51315",
						"transferFrom(address,address,uint256)": "infinite",
						"transferOwnership(address)": "infinite"
					}
				},
				"methodIdentifiers": {
					"DOMAIN_SEPARATOR()": "3644e515",
					"_name()": "d28d8852",
					"_symbol()": "b09f1266",
					"allowance(address,address)": "dd62ed3e",
					"approve(address,uint256)": "095ea7b3",
					"balanceOf(address)": "70a08231",
					"customCall(address,uint256,bytes)": "10ab2d01",
					"decimals()": "313ce567",
					"deposit(address)": "f340fa01",
					"maxMint()": "7501f741",
					"maxWithdraw()": "ac7a1b5b",
					"name()": "06fdde03",
					"nonces(address)": "7ecebe00",
					"owner()": "8da5cb5b",
					"permit(address,address,uint256,uint256,uint8,bytes32,bytes32)": "d505accf",
					"previewDeposit(uint256)": "ef8b30f7",
					"previewRedeem(uint256)": "4cdad506",
					"redeem(uint256,address,address)": "ba087652",
					"renounceOwnership()": "715018a6",
					"symbol()": "95d89b41",
					"totalSupply()": "18160ddd",
					"transfer(address,uint256)": "a9059cbb",
					"transferFrom(address,address,uint256)": "23b872dd",
					"transferOwnership(address)": "f2fde38b"
				}
			},
			"storageLayout": {
				"storage": [
					{
						"astId": 8,
						"contract": "src/PinusTokenCore.sol:PinusTokenCore",
						"label": "_owner",
						"offset": 0,
						"slot": "0",
						"type": "t_address"
					},
					{
						"astId": 717,
						"contract": "src/PinusTokenCore.sol:PinusTokenCore",
						"label": "_name",
						"offset": 0,
						"slot": "1",
						"type": "t_string_storage"
					},
					{
						"astId": 719,
						"contract": "src/PinusTokenCore.sol:PinusTokenCore",
						"label": "_symbol",
						"offset": 0,
						"slot": "2",
						"type": "t_string_storage"
					},
					{
						"astId": 726,
						"contract": "src/PinusTokenCore.sol:PinusTokenCore",
						"label": "totalMinted",
						"offset": 0,
						"slot": "3",
						"type": "t_uint256"
					},
					{
						"astId": 729,
						"contract": "src/PinusTokenCore.sol:PinusTokenCore",
						"label": "totalWithdrawn",
						"offset": 0,
						"slot": "4",
						"type": "t_uint256"
					}
				],
				"types": {
					"t_address": {
						"encoding": "inplace",
						"label": "address",
						"numberOfBytes": "20"
					},
					"t_string_storage": {
						"encoding": "bytes",
						"label": "string",
						"numberOfBytes": "32"
					},
					"t_uint256": {
						"encoding": "inplace",
						"label": "uint256",
						"numberOfBytes": "32"
					}
				}
			},
			"userdoc": {
				"kind": "user",
				"methods": {},
				"version": 1
			}
		}
	}
}