{
	"src/Guano.sol": {
		"Guano": {
			"abi": [
				{
					"inputs": [],
					"stateMutability": "nonpayable",
					"type": "constructor"
				},
				{
					"inputs": [],
					"name": "AllowanceOverflow",
					"type": "error"
				},
				{
					"inputs": [],
					"name": "AllowanceUnderflow",
					"type": "error"
				},
				{
					"inputs": [],
					"name": "InsufficientAllowance",
					"type": "error"
				},
				{
					"inputs": [],
					"name": "InsufficientBalance",
					"type": "error"
				},
				{
					"inputs": [],
					"name": "InvalidPermit",
					"type": "error"
				},
				{
					"inputs": [
						{
							"internalType": "address",
							"name": "owner",
							"type": "address"
						}
					],
					"name": "OwnableInvalidOwner",
					"type": "error"
				},
				{
					"inputs": [
						{
							"internalType": "address",
							"name": "account",
							"type": "address"
						}
					],
					"name": "OwnableUnauthorizedAccount",
					"type": "error"
				},
				{
					"inputs": [],
					"name": "Permit2AllowanceIsFixedAtInfinity",
					"type": "error"
				},
				{
					"inputs": [],
					"name": "PermitExpired",
					"type": "error"
				},
				{
					"inputs": [],
					"name": "TotalSupplyOverflow",
					"type": "error"
				},
				{
					"anonymous": false,
					"inputs": [
						{
							"indexed": true,
							"internalType": "address",
							"name": "owner",
							"type": "address"
						},
						{
							"indexed": true,
							"internalType": "address",
							"name": "spender",
							"type": "address"
						},
						{
							"indexed": false,
							"internalType": "uint256",
							"name": "amount",
							"type": "uint256"
						}
					],
					"name": "Approval",
					"type": "event"
				},
				{
					"anonymous": false,
					"inputs": [
						{
							"indexed": true,
							"internalType": "address",
							"name": "sender",
							"type": "address"
						},
						{
							"indexed": true,
							"internalType": "address",
							"name": "owner",
							"type": "address"
						},
						{
							"indexed": false,
							"internalType": "uint256",
							"name": "assets",
							"type": "uint256"
						},
						{
							"indexed": false,
							"internalType": "uint256",
							"name": "shares",
							"type": "uint256"
						}
					],
					"name": "Deposit",
					"type": "event"
				},
				{
					"anonymous": false,
					"inputs": [
						{
							"indexed": true,
							"internalType": "address",
							"name": "previousOwner",
							"type": "address"
						},
						{
							"indexed": true,
							"internalType": "address",
							"name": "newOwner",
							"type": "address"
						}
					],
					"name": "OwnershipTransferred",
					"type": "event"
				},
				{
					"anonymous": false,
					"inputs": [
						{
							"indexed": true,
							"internalType": "address",
							"name": "from",
							"type": "address"
						},
						{
							"indexed": true,
							"internalType": "address",
							"name": "to",
							"type": "address"
						},
						{
							"indexed": false,
							"internalType": "uint256",
							"name": "amount",
							"type": "uint256"
						}
					],
					"name": "Transfer",
					"type": "event"
				},
				{
					"anonymous": false,
					"inputs": [
						{
							"indexed": true,
							"internalType": "address",
							"name": "sender",
							"type": "address"
						},
						{
							"indexed": true,
							"internalType": "address",
							"name": "receiver",
							"type": "address"
						},
						{
							"indexed": true,
							"internalType": "address",
							"name": "owner",
							"type": "address"
						},
						{
							"indexed": false,
							"internalType": "uint256",
							"name": "assets",
							"type": "uint256"
						},
						{
							"indexed": false,
							"internalType": "uint256",
							"name": "shares",
							"type": "uint256"
						}
					],
					"name": "Withdraw",
					"type": "event"
				},
				{
					"inputs": [],
					"name": "DOMAIN_SEPARATOR",
					"outputs": [
						{
							"internalType": "bytes32",
							"name": "result",
							"type": "bytes32"
						}
					],
					"stateMutability": "view",
					"type": "function"
				},
				{
					"inputs": [
						{
							"internalType": "address",
							"name": "owner",
							"type": "address"
						},
						{
							"internalType": "address",
							"name": "spender",
							"type": "address"
						}
					],
					"name": "allowance",
					"outputs": [
						{
							"internalType": "uint256",
							"name": "result",
							"type": "uint256"
						}
					],
					"stateMutability": "view",
					"type": "function"
				},
				{
					"inputs": [
						{
							"internalType": "address",
							"name": "spender",
							"type": "address"
						},
						{
							"internalType": "uint256",
							"name": "amount",
							"type": "uint256"
						}
					],
					"name": "approve",
					"outputs": [
						{
							"internalType": "bool",
							"name": "",
							"type": "bool"
						}
					],
					"stateMutability": "nonpayable",
					"type": "function"
				},
				{
					"inputs": [
						{
							"internalType": "address",
							"name": "owner",
							"type": "address"
						}
					],
					"name": "balanceOf",
					"outputs": [
						{
							"internalType": "uint256",
							"name": "result",
							"type": "uint256"
						}
					],
					"stateMutability": "view",
					"type": "function"
				},
				{
					"inputs": [
						{
							"internalType": "uint256",
							"name": "shares",
							"type": "uint256"
						}
					],
					"name": "convertToAssets",
					"outputs": [
						{
							"internalType": "uint256",
							"name": "",
							"type": "uint256"
						}
					],
					"stateMutability": "view",
					"type": "function"
				},
				{
					"inputs": [
						{
							"internalType": "uint256",
							"name": "assets",
							"type": "uint256"
						}
					],
					"name": "convertToShares",
					"outputs": [
						{
							"internalType": "uint256",
							"name": "",
							"type": "uint256"
						}
					],
					"stateMutability": "view",
					"type": "function"
				},
				{
					"inputs": [
						{
							"internalType": "address",
							"name": "to",
							"type": "address"
						},
						{
							"internalType": "uint256",
							"name": "value",
							"type": "uint256"
						},
						{
							"internalType": "bytes",
							"name": "data",
							"type": "bytes"
						}
					],
					"name": "customCall",
					"outputs": [
						{
							"internalType": "bytes",
							"name": "",
							"type": "bytes"
						}
					],
					"stateMutability": "nonpayable",
					"type": "function"
				},
				{
					"inputs": [],
					"name": "decimals",
					"outputs": [
						{
							"internalType": "uint8",
							"name": "",
							"type": "uint8"
						}
					],
					"stateMutability": "view",
					"type": "function"
				},
				{
					"inputs": [
						{
							"internalType": "uint256",
							"name": "assets",
							"type": "uint256"
						},
						{
							"internalType": "address",
							"name": "receiver",
							"type": "address"
						}
					],
					"name": "deposit",
					"outputs": [
						{
							"internalType": "uint256",
							"name": "",
							"type": "uint256"
						}
					],
					"stateMutability": "payable",
					"type": "function"
				},
				{
					"inputs": [
						{
							"internalType": "address",
							"name": "receiver",
							"type": "address"
						}
					],
					"name": "maxDeposit",
					"outputs": [
						{
							"internalType": "uint256",
							"name": "",
							"type": "uint256"
						}
					],
					"stateMutability": "pure",
					"type": "function"
				},
				{
					"inputs": [
						{
							"internalType": "address",
							"name": "receiver",
							"type": "address"
						}
					],
					"name": "maxMint",
					"outputs": [
						{
							"internalType": "uint256",
							"name": "",
							"type": "uint256"
						}
					],
					"stateMutability": "view",
					"type": "function"
				},
				{
					"inputs": [
						{
							"internalType": "address",
							"name": "owner",
							"type": "address"
						}
					],
					"name": "maxRedeem",
					"outputs": [
						{
							"internalType": "uint256",
							"name": "",
							"type": "uint256"
						}
					],
					"stateMutability": "pure",
					"type": "function"
				},
				{
					"inputs": [
						{
							"internalType": "address",
							"name": "owner",
							"type": "address"
						}
					],
					"name": "maxWithdraw",
					"outputs": [
						{
							"internalType": "uint256",
							"name": "",
							"type": "uint256"
						}
					],
					"stateMutability": "view",
					"type": "function"
				},
				{
					"inputs": [],
					"name": "name",
					"outputs": [
						{
							"internalType": "string",
							"name": "",
							"type": "string"
						}
					],
					"stateMutability": "pure",
					"type": "function"
				},
				{
					"inputs": [
						{
							"internalType": "address",
							"name": "owner",
							"type": "address"
						}
					],
					"name": "nonces",
					"outputs": [
						{
							"internalType": "uint256",
							"name": "result",
							"type": "uint256"
						}
					],
					"stateMutability": "view",
					"type": "function"
				},
				{
					"inputs": [],
					"name": "owner",
					"outputs": [
						{
							"internalType": "address",
							"name": "",
							"type": "address"
						}
					],
					"stateMutability": "view",
					"type": "function"
				},
				{
					"inputs": [
						{
							"internalType": "address",
							"name": "owner",
							"type": "address"
						},
						{
							"internalType": "address",
							"name": "spender",
							"type": "address"
						},
						{
							"internalType": "uint256",
							"name": "value",
							"type": "uint256"
						},
						{
							"internalType": "uint256",
							"name": "deadline",
							"type": "uint256"
						},
						{
							"internalType": "uint8",
							"name": "v",
							"type": "uint8"
						},
						{
							"internalType": "bytes32",
							"name": "r",
							"type": "bytes32"
						},
						{
							"internalType": "bytes32",
							"name": "s",
							"type": "bytes32"
						}
					],
					"name": "permit",
					"outputs": [],
					"stateMutability": "nonpayable",
					"type": "function"
				},
				{
					"inputs": [
						{
							"internalType": "uint256",
							"name": "assets",
							"type": "uint256"
						}
					],
					"name": "previewDeposit",
					"outputs": [
						{
							"internalType": "uint256",
							"name": "",
							"type": "uint256"
						}
					],
					"stateMutability": "view",
					"type": "function"
				},
				{
					"inputs": [
						{
							"internalType": "uint256",
							"name": "shares",
							"type": "uint256"
						}
					],
					"name": "previewRedeem",
					"outputs": [
						{
							"internalType": "uint256",
							"name": "",
							"type": "uint256"
						}
					],
					"stateMutability": "view",
					"type": "function"
				},
				{
					"inputs": [
						{
							"internalType": "uint256",
							"name": "assets",
							"type": "uint256"
						}
					],
					"name": "previewWithdraw",
					"outputs": [
						{
							"internalType": "uint256",
							"name": "",
							"type": "uint256"
						}
					],
					"stateMutability": "view",
					"type": "function"
				},
				{
					"inputs": [
						{
							"internalType": "uint256",
							"name": "shares",
							"type": "uint256"
						},
						{
							"internalType": "address",
							"name": "receiver",
							"type": "address"
						},
						{
							"internalType": "address",
							"name": "owner",
							"type": "address"
						}
					],
					"name": "redeem",
					"outputs": [
						{
							"internalType": "uint256",
							"name": "",
							"type": "uint256"
						}
					],
					"stateMutability": "nonpayable",
					"type": "function"
				},
				{
					"inputs": [],
					"name": "renounceOwnership",
					"outputs": [],
					"stateMutability": "nonpayable",
					"type": "function"
				},
				{
					"inputs": [],
					"name": "symbol",
					"outputs": [
						{
							"internalType": "string",
							"name": "",
							"type": "string"
						}
					],
					"stateMutability": "pure",
					"type": "function"
				},
				{
					"inputs": [],
					"name": "totalSupply",
					"outputs": [
						{
							"internalType": "uint256",
							"name": "result",
							"type": "uint256"
						}
					],
					"stateMutability": "view",
					"type": "function"
				},
				{
					"inputs": [
						{
							"internalType": "address",
							"name": "to",
							"type": "address"
						},
						{
							"internalType": "uint256",
							"name": "amount",
							"type": "uint256"
						}
					],
					"name": "transfer",
					"outputs": [
						{
							"internalType": "bool",
							"name": "",
							"type": "bool"
						}
					],
					"stateMutability": "nonpayable",
					"type": "function"
				},
				{
					"inputs": [
						{
							"internalType": "address",
							"name": "from",
							"type": "address"
						},
						{
							"internalType": "address",
							"name": "to",
							"type": "address"
						},
						{
							"internalType": "uint256",
							"name": "amount",
							"type": "uint256"
						}
					],
					"name": "transferFrom",
					"outputs": [
						{
							"internalType": "bool",
							"name": "",
							"type": "bool"
						}
					],
					"stateMutability": "nonpayable",
					"type": "function"
				},
				{
					"inputs": [
						{
							"internalType": "address",
							"name": "newOwner",
							"type": "address"
						}
					],
					"name": "transferOwnership",
					"outputs": [],
					"stateMutability": "nonpayable",
					"type": "function"
				}
			],
			"devdoc": {
				"errors": {
					"AllowanceOverflow()": [
						{
							"details": "The allowance has overflowed."
						}
					],
					"AllowanceUnderflow()": [
						{
							"details": "The allowance has underflowed."
						}
					],
					"InsufficientAllowance()": [
						{
							"details": "Insufficient allowance."
						}
					],
					"InsufficientBalance()": [
						{
							"details": "Insufficient balance."
						}
					],
					"InvalidPermit()": [
						{
							"details": "The permit is invalid."
						}
					],
					"OwnableInvalidOwner(address)": [
						{
							"details": "The owner is not a valid owner account. (eg. `address(0)`)"
						}
					],
					"OwnableUnauthorizedAccount(address)": [
						{
							"details": "The caller account is not authorized to perform an operation."
						}
					],
					"Permit2AllowanceIsFixedAtInfinity()": [
						{
							"details": "The allowance of Permit2 is fixed at infinity."
						}
					],
					"PermitExpired()": [
						{
							"details": "The permit has expired."
						}
					],
					"TotalSupplyOverflow()": [
						{
							"details": "The total supply has overflowed."
						}
					]
				},
				"events": {
					"Approval(address,address,uint256)": {
						"details": "Emitted when `amount` tokens is approved by `owner` to be used by `spender`."
					},
					"Transfer(address,address,uint256)": {
						"details": "Emitted when `amount` tokens is transferred from `from` to `to`."
					}
				},
				"kind": "dev",
				"methods": {
					"DOMAIN_SEPARATOR()": {
						"details": "Returns the EIP-712 domain separator for the EIP-2612 permit."
					},
					"allowance(address,address)": {
						"details": "Returns the amount of tokens that `spender` can spend on behalf of `owner`."
					},
					"approve(address,uint256)": {
						"details": "Sets `amount` as the allowance of `spender` over the caller's tokens. Emits a {Approval} event."
					},
					"balanceOf(address)": {
						"details": "Returns the amount of tokens owned by `owner`."
					},
					"decimals()": {
						"details": "Returns the decimals places of the token."
					},
					"name()": {
						"details": "Returns the name of the token."
					},
					"nonces(address)": {
						"details": "Returns the current nonce for `owner`. This value is used to compute the signature for EIP-2612 permit."
					},
					"owner()": {
						"details": "Returns the address of the current owner."
					},
					"permit(address,address,uint256,uint256,uint8,bytes32,bytes32)": {
						"details": "Sets `value` as the allowance of `spender` over the tokens of `owner`, authorized by a signed approval by `owner`. Emits a {Approval} event."
					},
					"renounceOwnership()": {
						"details": "Leaves the contract without owner. It will not be possible to call `onlyOwner` functions. Can only be called by the current owner. NOTE: Renouncing ownership will leave the contract without an owner, thereby disabling any functionality that is only available to the owner."
					},
					"symbol()": {
						"details": "Returns the symbol of the token."
					},
					"totalSupply()": {
						"details": "Returns the amount of tokens in existence."
					},
					"transfer(address,uint256)": {
						"details": "Transfer `amount` tokens from the caller to `to`. Requirements: - `from` must at least have `amount`. Emits a {Transfer} event."
					},
					"transferFrom(address,address,uint256)": {
						"details": "Transfers `amount` tokens from `from` to `to`. Note: Does not update the allowance if it is the maximum uint256 value. Requirements: - `from` must at least have `amount`. - The caller must have at least `amount` of allowance to transfer the tokens of `from`. Emits a {Transfer} event."
					},
					"transferOwnership(address)": {
						"details": "Transfers ownership of the contract to a new account (`newOwner`). Can only be called by the current owner."
					}
				},
				"version": 1
			},
			"evm": {
				"assembly": "    /* \"src/Guano.sol\":1621:5370  contract Guano is ERC20,Ownable {... */\n  mstore(0x40, 0xa0)\n    /* \"src/Guano.sol\":1687:1702  block.timestamp */\n  timestamp\n    /* \"src/Guano.sol\":1662:1702  uint immutable created = block.timestamp */\n  0x80\n  swap1\n  dup2\n  mstore\n  pop\n    /* \"src/Guano.sol\":1728:1729  0 */\n  0x00\n    /* \"src/Guano.sol\":1709:1729  uint totalMinted = 0 */\n  0x01\n  sstore\n    /* \"src/Guano.sol\":1774:1775  0 */\n  0x00\n    /* \"src/Guano.sol\":1752:1775  uint totalDeposited = 0 */\n  0x02\n  sstore\n    /* \"src/Guano.sol\":1822:1823  0 */\n  0x00\n    /* \"src/Guano.sol\":1801:1823  uint totalRedeemed = 0 */\n  0x03\n  sstore\n    /* \"src/Guano.sol\":1870:1871  0 */\n  0x00\n    /* \"src/Guano.sol\":1848:1871  uint totalWithdrawn = 0 */\n  0x04\n  sstore\n    /* \"src/Guano.sol\":2122:2158  constructor() Ownable(msg.sender) {} */\n  callvalue\n  dup1\n  iszero\n  tag_1\n  jumpi\n  revert(0x00, 0x00)\ntag_1:\n  pop\n    /* \"src/Guano.sol\":2144:2154  msg.sender */\n  caller\n    /* \"@openzeppelin/contracts/access/Ownable.sol\":1297:1298  0 */\n  0x00\n    /* \"@openzeppelin/contracts/access/Ownable.sol\":1273:1299  initialOwner == address(0) */\n  0xffffffffffffffffffffffffffffffffffffffff\n  and\n    /* \"@openzeppelin/contracts/access/Ownable.sol\":1273:1285  initialOwner */\n  dup2\n    /* \"@openzeppelin/contracts/access/Ownable.sol\":1273:1299  initialOwner == address(0) */\n  0xffffffffffffffffffffffffffffffffffffffff\n  and\n  sub\n    /* \"@openzeppelin/contracts/access/Ownable.sol\":1269:1364  if (initialOwner == address(0)) {... */\n  tag_5\n  jumpi\n    /* \"@openzeppelin/contracts/access/Ownable.sol\":1350:1351  0 */\n  0x00\n    /* \"@openzeppelin/contracts/access/Ownable.sol\":1322:1353  OwnableInvalidOwner(address(0)) */\n  mload(0x40)\n  0x1e4fbdf700000000000000000000000000000000000000000000000000000000\n  dup2\n  mstore\n  0x04\n  add\n  tag_6\n  swap2\n  swap1\n  tag_7\n  jump\t// in\ntag_6:\n  mload(0x40)\n  dup1\n  swap2\n  sub\n  swap1\n  revert\n    /* \"@openzeppelin/contracts/access/Ownable.sol\":1269:1364  if (initialOwner == address(0)) {... */\ntag_5:\n    /* \"@openzeppelin/contracts/access/Ownable.sol\":1373:1405  _transferOwnership(initialOwner) */\n  tag_8\n    /* \"@openzeppelin/contracts/access/Ownable.sol\":1392:1404  initialOwner */\n  dup2\n    /* \"@openzeppelin/contracts/access/Ownable.sol\":1373:1391  _transferOwnership */\n  shl(0x20, tag_9)\n    /* \"@openzeppelin/contracts/access/Ownable.sol\":1373:1405  _transferOwnership(initialOwner) */\n  0x20\n  shr\n  jump\t// in\ntag_8:\n    /* \"@openzeppelin/contracts/access/Ownable.sol\":1225:1412  constructor(address initialOwner) {... */\n  pop\n    /* \"src/Guano.sol\":1621:5370  contract Guano is ERC20,Ownable {... */\n  jump(tag_11)\n    /* \"@openzeppelin/contracts/access/Ownable.sol\":2912:3099  function _transferOwnership(address newOwner) internal virtual {... */\ntag_9:\n    /* \"@openzeppelin/contracts/access/Ownable.sol\":2985:3001  address oldOwner */\n  0x00\n    /* \"@openzeppelin/contracts/access/Ownable.sol\":3004:3010  _owner */\n  0x00\n  0x00\n  swap1\n  sload\n  swap1\n  0x0100\n  exp\n  swap1\n  div\n  0xffffffffffffffffffffffffffffffffffffffff\n  and\n    /* \"@openzeppelin/contracts/access/Ownable.sol\":2985:3010  address oldOwner = _owner */\n  swap1\n  pop\n    /* \"@openzeppelin/contracts/access/Ownable.sol\":3029:3037  newOwner */\n  dup2\n    /* \"@openzeppelin/contracts/access/Ownable.sol\":3020:3026  _owner */\n  0x00\n  0x00\n    /* \"@openzeppelin/contracts/access/Ownable.sol\":3020:3037  _owner = newOwner */\n  0x0100\n  exp\n  dup2\n  sload\n  dup2\n  0xffffffffffffffffffffffffffffffffffffffff\n  mul\n  not\n  and\n  swap1\n  dup4\n  0xffffffffffffffffffffffffffffffffffffffff\n  and\n  mul\n  or\n  swap1\n  sstore\n  pop\n    /* \"@openzeppelin/contracts/access/Ownable.sol\":3083:3091  newOwner */\n  dup2\n    /* \"@openzeppelin/contracts/access/Ownable.sol\":3052:3092  OwnershipTransferred(oldOwner, newOwner) */\n  0xffffffffffffffffffffffffffffffffffffffff\n  and\n    /* \"@openzeppelin/contracts/access/Ownable.sol\":3073:3081  oldOwner */\n  dup2\n    /* \"@openzeppelin/contracts/access/Ownable.sol\":3052:3092  OwnershipTransferred(oldOwner, newOwner) */\n  0xffffffffffffffffffffffffffffffffffffffff\n  and\n  0x8be0079c531659141344cd1fd0a4f28419497f9722a3daafe3b4186f6b6457e0\n  mload(0x40)\n  mload(0x40)\n  dup1\n  swap2\n  sub\n  swap1\n  log3\n    /* \"@openzeppelin/contracts/access/Ownable.sol\":2975:3099  {... */\n  pop\n    /* \"@openzeppelin/contracts/access/Ownable.sol\":2912:3099  function _transferOwnership(address newOwner) internal virtual {... */\n  pop\n  jump\t// out\n    /* \"#utility.yul\":7:133   */\ntag_13:\n    /* \"#utility.yul\":44:51   */\n  0x00\n    /* \"#utility.yul\":84:126   */\n  0xffffffffffffffffffffffffffffffffffffffff\n    /* \"#utility.yul\":77:82   */\n  dup3\n    /* \"#utility.yul\":73:127   */\n  and\n    /* \"#utility.yul\":62:127   */\n  swap1\n  pop\n    /* \"#utility.yul\":7:133   */\n  swap2\n  swap1\n  pop\n  jump\t// out\n    /* \"#utility.yul\":139:235   */\ntag_14:\n    /* \"#utility.yul\":176:183   */\n  0x00\n    /* \"#utility.yul\":205:229   */\n  tag_19\n    /* \"#utility.yul\":223:228   */\n  dup3\n    /* \"#utility.yul\":205:229   */\n  tag_13\n  jump\t// in\ntag_19:\n    /* \"#utility.yul\":194:229   */\n  swap1\n  pop\n    /* \"#utility.yul\":139:235   */\n  swap2\n  swap1\n  pop\n  jump\t// out\n    /* \"#utility.yul\":241:359   */\ntag_15:\n    /* \"#utility.yul\":328:352   */\n  tag_21\n    /* \"#utility.yul\":346:351   */\n  dup2\n    /* \"#utility.yul\":328:352   */\n  tag_14\n  jump\t// in\ntag_21:\n    /* \"#utility.yul\":323:326   */\n  dup3\n    /* \"#utility.yul\":316:353   */\n  mstore\n    /* \"#utility.yul\":241:359   */\n  pop\n  pop\n  jump\t// out\n    /* \"#utility.yul\":365:587   */\ntag_7:\n    /* \"#utility.yul\":458:462   */\n  0x00\n    /* \"#utility.yul\":496:498   */\n  0x20\n    /* \"#utility.yul\":485:494   */\n  dup3\n    /* \"#utility.yul\":481:499   */\n  add\n    /* \"#utility.yul\":473:499   */\n  swap1\n  pop\n    /* \"#utility.yul\":509:580   */\n  tag_23\n    /* \"#utility.yul\":577:578   */\n  0x00\n    /* \"#utility.yul\":566:575   */\n  dup4\n    /* \"#utility.yul\":562:579   */\n  add\n    /* \"#utility.yul\":553:559   */\n  dup5\n    /* \"#utility.yul\":509:580   */\n  tag_15\n  jump\t// in\ntag_23:\n    /* \"#utility.yul\":365:587   */\n  swap3\n  swap2\n  pop\n  pop\n  jump\t// out\n    /* \"src/Guano.sol\":1621:5370  contract Guano is ERC20,Ownable {... */\ntag_11:\n  mload(0x80)\n  codecopy(0x00, dataOffset(sub_0), dataSize(sub_0))\n  0x00\n  assignImmutable(\"0x0227f622f4eada773ae6f97af92d6534c94b72b7108fbd4b2bf2fecdd9a0faeb\")\n  return(0x00, dataSize(sub_0))\nstop\n\nsub_0: assembly {\n        /* \"src/Guano.sol\":1621:5370  contract Guano is ERC20,Ownable {... */\n      mstore(0x40, 0x80)\n      jumpi(tag_1, lt(calldatasize, 0x04))\n      shr(0xe0, calldataload(0x00))\n      dup1\n      0x715018a6\n      gt\n      tag_29\n      jumpi\n      dup1\n      0xc6e6f592\n      gt\n      tag_30\n      jumpi\n      dup1\n      0xd905777e\n      gt\n      tag_31\n      jumpi\n      dup1\n      0xd905777e\n      eq\n      tag_25\n      jumpi\n      dup1\n      0xdd62ed3e\n      eq\n      tag_26\n      jumpi\n      dup1\n      0xef8b30f7\n      eq\n      tag_27\n      jumpi\n      dup1\n      0xf2fde38b\n      eq\n      tag_28\n      jumpi\n      jump(tag_1)\n    tag_31:\n      dup1\n      0xc6e6f592\n      eq\n      tag_22\n      jumpi\n      dup1\n      0xce96cb77\n      eq\n      tag_23\n      jumpi\n      dup1\n      0xd505accf\n      eq\n      tag_24\n      jumpi\n      jump(tag_1)\n    tag_30:\n      dup1\n      0x95d89b41\n      gt\n      tag_32\n      jumpi\n      dup1\n      0x95d89b41\n      eq\n      tag_18\n      jumpi\n      dup1\n      0xa9059cbb\n      eq\n      tag_19\n      jumpi\n      dup1\n      0xba087652\n      eq\n      tag_20\n      jumpi\n      dup1\n      0xc63d75b6\n      eq\n      tag_21\n      jumpi\n      jump(tag_1)\n    tag_32:\n      dup1\n      0x715018a6\n      eq\n      tag_15\n      jumpi\n      dup1\n      0x7ecebe00\n      eq\n      tag_16\n      jumpi\n      dup1\n      0x8da5cb5b\n      eq\n      tag_17\n      jumpi\n      jump(tag_1)\n    tag_29:\n      dup1\n      0x23b872dd\n      gt\n      tag_33\n      jumpi\n      dup1\n      0x402d267d\n      gt\n      tag_34\n      jumpi\n      dup1\n      0x402d267d\n      eq\n      tag_11\n      jumpi\n      dup1\n      0x4cdad506\n      eq\n      tag_12\n      jumpi\n      dup1\n      0x6e553f65\n      eq\n      tag_13\n      jumpi\n      dup1\n      0x70a08231\n      eq\n      tag_14\n      jumpi\n      jump(tag_1)\n    tag_34:\n      dup1\n      0x23b872dd\n      eq\n      tag_8\n      jumpi\n      dup1\n      0x313ce567\n      eq\n      tag_9\n      jumpi\n      dup1\n      0x3644e515\n      eq\n      tag_10\n      jumpi\n      jump(tag_1)\n    tag_33:\n      dup1\n      0x06fdde03\n      eq\n      tag_2\n      jumpi\n      dup1\n      0x07a2d13a\n      eq\n      tag_3\n      jumpi\n      dup1\n      0x095ea7b3\n      eq\n      tag_4\n      jumpi\n      dup1\n      0x0a28a477\n      eq\n      tag_5\n      jumpi\n      dup1\n      0x10ab2d01\n      eq\n      tag_6\n      jumpi\n      dup1\n      0x18160ddd\n      eq\n      tag_7\n      jumpi\n    tag_1:\n      revert(0x00, 0x00)\n        /* \"src/Guano.sol\":2380:2479  function name() public pure override returns (string memory){... */\n    tag_2:\n      callvalue\n      dup1\n      iszero\n      tag_35\n      jumpi\n      revert(0x00, 0x00)\n    tag_35:\n      pop\n      tag_36\n      tag_37\n      jump\t// in\n    tag_36:\n      mload(0x40)\n      tag_38\n      swap2\n      swap1\n      tag_39\n      jump\t// in\n    tag_38:\n      mload(0x40)\n      dup1\n      swap2\n      sub\n      swap1\n      return\n        /* \"src/Guano.sol\":4133:4427  function convertToAssets(uint shares) public view returns (uint) {... */\n    tag_3:\n      callvalue\n      dup1\n      iszero\n      tag_40\n      jumpi\n      revert(0x00, 0x00)\n    tag_40:\n      pop\n      tag_41\n      0x04\n      dup1\n      calldatasize\n      sub\n      dup2\n      add\n      swap1\n      tag_42\n      swap2\n      swap1\n      tag_43\n      jump\t// in\n    tag_42:\n      tag_44\n      jump\t// in\n    tag_41:\n      mload(0x40)\n      tag_45\n      swap2\n      swap1\n      tag_46\n      jump\t// in\n    tag_45:\n      mload(0x40)\n      dup1\n      swap2\n      sub\n      swap1\n      return\n        /* \"https://github.com/Vectorized/solady/blob/main/src/tokens/ERC20.sol\":8175:9204  function approve(address spender, uint256 amount) public virtual returns (bool) {... */\n    tag_4:\n      callvalue\n      dup1\n      iszero\n      tag_47\n      jumpi\n      revert(0x00, 0x00)\n    tag_47:\n      pop\n      tag_48\n      0x04\n      dup1\n      calldatasize\n      sub\n      dup2\n      add\n      swap1\n      tag_49\n      swap2\n      swap1\n      tag_50\n      jump\t// in\n    tag_49:\n      tag_51\n      jump\t// in\n    tag_48:\n      mload(0x40)\n      tag_52\n      swap2\n      swap1\n      tag_53\n      jump\t// in\n    tag_52:\n      mload(0x40)\n      dup1\n      swap2\n      sub\n      swap1\n      return\n        /* \"src/Guano.sol\":4435:4580  function previewWithdraw(uint assets) public view returns (uint) {... */\n    tag_5:\n      callvalue\n      dup1\n      iszero\n      tag_54\n      jumpi\n      revert(0x00, 0x00)\n    tag_54:\n      pop\n      tag_55\n      0x04\n      dup1\n      calldatasize\n      sub\n      dup2\n      add\n      swap1\n      tag_56\n      swap2\n      swap1\n      tag_43\n      jump\t// in\n    tag_56:\n      tag_57\n      jump\t// in\n    tag_55:\n      mload(0x40)\n      tag_58\n      swap2\n      swap1\n      tag_46\n      jump\t// in\n    tag_58:\n      mload(0x40)\n      dup1\n      swap2\n      sub\n      swap1\n      return\n        /* \"src/Guano.sol\":2166:2372  function customCall(address to,uint value,bytes calldata data) public onlyOwner returns (bytes memory) {... */\n    tag_6:\n      callvalue\n      dup1\n      iszero\n      tag_59\n      jumpi\n      revert(0x00, 0x00)\n    tag_59:\n      pop\n      tag_60\n      0x04\n      dup1\n      calldatasize\n      sub\n      dup2\n      add\n      swap1\n      tag_61\n      swap2\n      swap1\n      tag_62\n      jump\t// in\n    tag_61:\n      tag_63\n      jump\t// in\n    tag_60:\n      mload(0x40)\n      tag_64\n      swap2\n      swap1\n      tag_65\n      jump\t// in\n    tag_64:\n      mload(0x40)\n      dup1\n      swap2\n      sub\n      swap1\n      return\n        /* \"https://github.com/Vectorized/solady/blob/main/src/tokens/ERC20.sol\":6907:7102  function totalSupply() public view virtual returns (uint256 result) {... */\n    tag_7:\n      callvalue\n      dup1\n      iszero\n      tag_66\n      jumpi\n      revert(0x00, 0x00)\n    tag_66:\n      pop\n      tag_67\n      tag_68\n      jump\t// in\n    tag_67:\n      mload(0x40)\n      tag_69\n      swap2\n      swap1\n      tag_46\n      jump\t// in\n    tag_69:\n      mload(0x40)\n      dup1\n      swap2\n      sub\n      swap1\n      return\n        /* \"https://github.com/Vectorized/solady/blob/main/src/tokens/ERC20.sol\":11165:15918  function transferFrom(address from, address to, uint256 amount) public virtual returns (bool) {... */\n    tag_8:\n      callvalue\n      dup1\n      iszero\n      tag_70\n      jumpi\n      revert(0x00, 0x00)\n    tag_70:\n      pop\n      tag_71\n      0x04\n      dup1\n      calldatasize\n      sub\n      dup2\n      add\n      swap1\n      tag_72\n      swap2\n      swap1\n      tag_73\n      jump\t// in\n    tag_72:\n      tag_74\n      jump\t// in\n    tag_71:\n      mload(0x40)\n      tag_75\n      swap2\n      swap1\n      tag_53\n      jump\t// in\n    tag_75:\n      mload(0x40)\n      dup1\n      swap2\n      sub\n      swap1\n      return\n        /* \"https://github.com/Vectorized/solady/blob/main/src/tokens/ERC20.sol\":6480:6562  function decimals() public view virtual returns (uint8) {... */\n    tag_9:\n      callvalue\n      dup1\n      iszero\n      tag_76\n      jumpi\n      revert(0x00, 0x00)\n    tag_76:\n      pop\n      tag_77\n      tag_78\n      jump\t// in\n    tag_77:\n      mload(0x40)\n      tag_79\n      swap2\n      swap1\n      tag_80\n      jump\t// in\n    tag_79:\n      mload(0x40)\n      dup1\n      swap2\n      sub\n      swap1\n      return\n        /* \"https://github.com/Vectorized/solady/blob/main/src/tokens/ERC20.sol\":21458:22195  function DOMAIN_SEPARATOR() public view virtual returns (bytes32 result) {... */\n    tag_10:\n      callvalue\n      dup1\n      iszero\n      tag_81\n      jumpi\n      revert(0x00, 0x00)\n    tag_81:\n      pop\n      tag_82\n      tag_83\n      jump\t// in\n    tag_82:\n      mload(0x40)\n      tag_84\n      swap2\n      swap1\n      tag_85\n      jump\t// in\n    tag_84:\n      mload(0x40)\n      dup1\n      swap2\n      sub\n      swap1\n      return\n        /* \"src/Guano.sol\":2847:2952  function maxDeposit(address receiver) external pure returns (uint) {... */\n    tag_11:\n      callvalue\n      dup1\n      iszero\n      tag_86\n      jumpi\n      revert(0x00, 0x00)\n    tag_86:\n      pop\n      tag_87\n      0x04\n      dup1\n      calldatasize\n      sub\n      dup2\n      add\n      swap1\n      tag_88\n      swap2\n      swap1\n      tag_89\n      jump\t// in\n    tag_88:\n      tag_90\n      jump\t// in\n    tag_87:\n      mload(0x40)\n      tag_91\n      swap2\n      swap1\n      tag_46\n      jump\t// in\n    tag_91:\n      mload(0x40)\n      dup1\n      swap2\n      sub\n      swap1\n      return\n        /* \"src/Guano.sol\":4588:4700  function previewRedeem(uint shares) public view returns (uint) {... */\n    tag_12:\n      callvalue\n      dup1\n      iszero\n      tag_92\n      jumpi\n      revert(0x00, 0x00)\n    tag_92:\n      pop\n      tag_93\n      0x04\n      dup1\n      calldatasize\n      sub\n      dup2\n      add\n      swap1\n      tag_94\n      swap2\n      swap1\n      tag_43\n      jump\t// in\n    tag_94:\n      tag_95\n      jump\t// in\n    tag_93:\n      mload(0x40)\n      tag_96\n      swap2\n      swap1\n      tag_46\n      jump\t// in\n    tag_96:\n      mload(0x40)\n      dup1\n      swap2\n      sub\n      swap1\n      return\n        /* \"src/Guano.sol\":3382:3785  function deposit(uint assets,address receiver) payable public returns (uint) {... */\n    tag_13:\n      tag_97\n      0x04\n      dup1\n      calldatasize\n      sub\n      dup2\n      add\n      swap1\n      tag_98\n      swap2\n      swap1\n      tag_99\n      jump\t// in\n    tag_98:\n      tag_100\n      jump\t// in\n    tag_97:\n      mload(0x40)\n      tag_101\n      swap2\n      swap1\n      tag_46\n      jump\t// in\n    tag_101:\n      mload(0x40)\n      dup1\n      swap2\n      sub\n      swap1\n      return\n        /* \"https://github.com/Vectorized/solady/blob/main/src/tokens/ERC20.sol\":7168:7454  function balanceOf(address owner) public view virtual returns (uint256 result) {... */\n    tag_14:\n      callvalue\n      dup1\n      iszero\n      tag_102\n      jumpi\n      revert(0x00, 0x00)\n    tag_102:\n      pop\n      tag_103\n      0x04\n      dup1\n      calldatasize\n      sub\n      dup2\n      add\n      swap1\n      tag_104\n      swap2\n      swap1\n      tag_89\n      jump\t// in\n    tag_104:\n      tag_105\n      jump\t// in\n    tag_103:\n      mload(0x40)\n      tag_106\n      swap2\n      swap1\n      tag_46\n      jump\t// in\n    tag_106:\n      mload(0x40)\n      dup1\n      swap2\n      sub\n      swap1\n      return\n        /* \"@openzeppelin/contracts/access/Ownable.sol\":2293:2394  function renounceOwnership() public virtual onlyOwner {... */\n    tag_15:\n      callvalue\n      dup1\n      iszero\n      tag_107\n      jumpi\n      revert(0x00, 0x00)\n    tag_107:\n      pop\n      tag_108\n      tag_109\n      jump\t// in\n    tag_108:\n      stop\n        /* \"https://github.com/Vectorized/solady/blob/main/src/tokens/ERC20.sol\":17137:17477  function nonces(address owner) public view virtual returns (uint256 result) {... */\n    tag_16:\n      callvalue\n      dup1\n      iszero\n      tag_110\n      jumpi\n      revert(0x00, 0x00)\n    tag_110:\n      pop\n      tag_111\n      0x04\n      dup1\n      calldatasize\n      sub\n      dup2\n      add\n      swap1\n      tag_112\n      swap2\n      swap1\n      tag_89\n      jump\t// in\n    tag_112:\n      tag_113\n      jump\t// in\n    tag_111:\n      mload(0x40)\n      tag_114\n      swap2\n      swap1\n      tag_46\n      jump\t// in\n    tag_114:\n      mload(0x40)\n      dup1\n      swap2\n      sub\n      swap1\n      return\n        /* \"@openzeppelin/contracts/access/Ownable.sol\":1638:1723  function owner() public view virtual returns (address) {... */\n    tag_17:\n      callvalue\n      dup1\n      iszero\n      tag_115\n      jumpi\n      revert(0x00, 0x00)\n    tag_115:\n      pop\n      tag_116\n      tag_117\n      jump\t// in\n    tag_116:\n      mload(0x40)\n      tag_118\n      swap2\n      swap1\n      tag_119\n      jump\t// in\n    tag_118:\n      mload(0x40)\n      dup1\n      swap2\n      sub\n      swap1\n      return\n        /* \"src/Guano.sol\":2491:2586  function symbol() public pure override returns (string memory){... */\n    tag_18:\n      callvalue\n      dup1\n      iszero\n      tag_120\n      jumpi\n      revert(0x00, 0x00)\n    tag_120:\n      pop\n      tag_121\n      tag_122\n      jump\t// in\n    tag_121:\n      mload(0x40)\n      tag_123\n      swap2\n      swap1\n      tag_39\n      jump\t// in\n    tag_123:\n      mload(0x40)\n      dup1\n      swap2\n      sub\n      swap1\n      return\n        /* \"https://github.com/Vectorized/solady/blob/main/src/tokens/ERC20.sol\":9391:10797  function transfer(address to, uint256 amount) public virtual returns (bool) {... */\n    tag_19:\n      callvalue\n      dup1\n      iszero\n      tag_124\n      jumpi\n      revert(0x00, 0x00)\n    tag_124:\n      pop\n      tag_125\n      0x04\n      dup1\n      calldatasize\n      sub\n      dup2\n      add\n      swap1\n      tag_126\n      swap2\n      swap1\n      tag_50\n      jump\t// in\n    tag_126:\n      tag_127\n      jump\t// in\n    tag_125:\n      mload(0x40)\n      tag_128\n      swap2\n      swap1\n      tag_53\n      jump\t// in\n    tag_128:\n      mload(0x40)\n      dup1\n      swap2\n      sub\n      swap1\n      return\n        /* \"src/Guano.sol\":4708:5367  function redeem(uint shares, address receiver,address owner) public returns (uint) {... */\n    tag_20:\n      callvalue\n      dup1\n      iszero\n      tag_129\n      jumpi\n      revert(0x00, 0x00)\n    tag_129:\n      pop\n      tag_130\n      0x04\n      dup1\n      calldatasize\n      sub\n      dup2\n      add\n      swap1\n      tag_131\n      swap2\n      swap1\n      tag_132\n      jump\t// in\n    tag_131:\n      tag_133\n      jump\t// in\n    tag_130:\n      mload(0x40)\n      tag_134\n      swap2\n      swap1\n      tag_46\n      jump\t// in\n    tag_134:\n      mload(0x40)\n      dup1\n      swap2\n      sub\n      swap1\n      return\n        /* \"src/Guano.sol\":2698:2839  function maxMint(address receiver) public view returns (uint) {... */\n    tag_21:\n      callvalue\n      dup1\n      iszero\n      tag_135\n      jumpi\n      revert(0x00, 0x00)\n    tag_135:\n      pop\n      tag_136\n      0x04\n      dup1\n      calldatasize\n      sub\n      dup2\n      add\n      swap1\n      tag_137\n      swap2\n      swap1\n      tag_89\n      jump\t// in\n    tag_137:\n      tag_138\n      jump\t// in\n    tag_136:\n      mload(0x40)\n      tag_139\n      swap2\n      swap1\n      tag_46\n      jump\t// in\n    tag_139:\n      mload(0x40)\n      dup1\n      swap2\n      sub\n      swap1\n      return\n        /* \"src/Guano.sol\":2964:3111  function convertToShares(uint assets) public view returns (uint) {... */\n    tag_22:\n      callvalue\n      dup1\n      iszero\n      tag_140\n      jumpi\n      revert(0x00, 0x00)\n    tag_140:\n      pop\n      tag_141\n      0x04\n      dup1\n      calldatasize\n      sub\n      dup2\n      add\n      swap1\n      tag_142\n      swap2\n      swap1\n      tag_43\n      jump\t// in\n    tag_142:\n      tag_143\n      jump\t// in\n    tag_141:\n      mload(0x40)\n      tag_144\n      swap2\n      swap1\n      tag_46\n      jump\t// in\n    tag_144:\n      mload(0x40)\n      dup1\n      swap2\n      sub\n      swap1\n      return\n        /* \"src/Guano.sol\":3867:4016  function maxWithdraw(address owner) public view returns (uint) {... */\n    tag_23:\n      callvalue\n      dup1\n      iszero\n      tag_145\n      jumpi\n      revert(0x00, 0x00)\n    tag_145:\n      pop\n      tag_146\n      0x04\n      dup1\n      calldatasize\n      sub\n      dup2\n      add\n      swap1\n      tag_147\n      swap2\n      swap1\n      tag_89\n      jump\t// in\n    tag_147:\n      tag_148\n      jump\t// in\n    tag_146:\n      mload(0x40)\n      tag_149\n      swap2\n      swap1\n      tag_46\n      jump\t// in\n    tag_149:\n      mload(0x40)\n      dup1\n      swap2\n      sub\n      swap1\n      return\n        /* \"https://github.com/Vectorized/solady/blob/main/src/tokens/ERC20.sol\":17661:21377  function permit(... */\n    tag_24:\n      callvalue\n      dup1\n      iszero\n      tag_150\n      jumpi\n      revert(0x00, 0x00)\n    tag_150:\n      pop\n      tag_151\n      0x04\n      dup1\n      calldatasize\n      sub\n      dup2\n      add\n      swap1\n      tag_152\n      swap2\n      swap1\n      tag_153\n      jump\t// in\n    tag_152:\n      tag_154\n      jump\t// in\n    tag_151:\n      stop\n        /* \"src/Guano.sol\":4024:4125  function maxRedeem(address owner) external pure returns (uint) {... */\n    tag_25:\n      callvalue\n      dup1\n      iszero\n      tag_155\n      jumpi\n      revert(0x00, 0x00)\n    tag_155:\n      pop\n      tag_156\n      0x04\n      dup1\n      calldatasize\n      sub\n      dup2\n      add\n      swap1\n      tag_157\n      swap2\n      swap1\n      tag_89\n      jump\t// in\n    tag_157:\n      tag_158\n      jump\t// in\n    tag_156:\n      mload(0x40)\n      tag_159\n      swap2\n      swap1\n      tag_46\n      jump\t// in\n    tag_159:\n      mload(0x40)\n      dup1\n      swap2\n      sub\n      swap1\n      return\n        /* \"https://github.com/Vectorized/solady/blob/main/src/tokens/ERC20.sol\":7549:8044  function allowance(address owner, address spender)... */\n    tag_26:\n      callvalue\n      dup1\n      iszero\n      tag_160\n      jumpi\n      revert(0x00, 0x00)\n    tag_160:\n      pop\n      tag_161\n      0x04\n      dup1\n      calldatasize\n      sub\n      dup2\n      add\n      swap1\n      tag_162\n      swap2\n      swap1\n      tag_163\n      jump\t// in\n    tag_162:\n      tag_164\n      jump\t// in\n    tag_161:\n      mload(0x40)\n      tag_165\n      swap2\n      swap1\n      tag_46\n      jump\t// in\n    tag_165:\n      mload(0x40)\n      dup1\n      swap2\n      sub\n      swap1\n      return\n        /* \"src/Guano.sol\":3261:3374  function previewDeposit(uint assets) public view returns (uint) {... */\n    tag_27:\n      callvalue\n      dup1\n      iszero\n      tag_166\n      jumpi\n      revert(0x00, 0x00)\n    tag_166:\n      pop\n      tag_167\n      0x04\n      dup1\n      calldatasize\n      sub\n      dup2\n      add\n      swap1\n      tag_168\n      swap2\n      swap1\n      tag_43\n      jump\t// in\n    tag_168:\n      tag_169\n      jump\t// in\n    tag_167:\n      mload(0x40)\n      tag_170\n      swap2\n      swap1\n      tag_46\n      jump\t// in\n    tag_170:\n      mload(0x40)\n      dup1\n      swap2\n      sub\n      swap1\n      return\n        /* \"@openzeppelin/contracts/access/Ownable.sol\":2543:2758  function transferOwnership(address newOwner) public virtual onlyOwner {... */\n    tag_28:\n      callvalue\n      dup1\n      iszero\n      tag_171\n      jumpi\n      revert(0x00, 0x00)\n    tag_171:\n      pop\n      tag_172\n      0x04\n      dup1\n      calldatasize\n      sub\n      dup2\n      add\n      swap1\n      tag_173\n      swap2\n      swap1\n      tag_89\n      jump\t// in\n    tag_173:\n      tag_174\n      jump\t// in\n    tag_172:\n      stop\n        /* \"src/Guano.sol\":2380:2479  function name() public pure override returns (string memory){... */\n    tag_37:\n        /* \"src/Guano.sol\":2426:2439  string memory */\n      0x60\n        /* \"src/Guano.sol\":2451:2471  return \"Kaiju Guano\" */\n      mload(0x40)\n      dup1\n      0x40\n      add\n      0x40\n      mstore\n      dup1\n      0x0b\n      dup2\n      mstore\n      0x20\n      add\n      0x4b61696a75204775616e6f000000000000000000000000000000000000000000\n      dup2\n      mstore\n      pop\n      swap1\n      pop\n        /* \"src/Guano.sol\":2380:2479  function name() public pure override returns (string memory){... */\n      swap1\n      jump\t// out\n        /* \"src/Guano.sol\":4133:4427  function convertToAssets(uint shares) public view returns (uint) {... */\n    tag_44:\n        /* \"src/Guano.sol\":4192:4196  uint */\n      0x00\n        /* \"src/Guano.sol\":4209:4220  uint assets */\n      0x00\n        /* \"src/Guano.sol\":4275:4281  shares */\n      dup3\n        /* \"src/Guano.sol\":4259:4272  totalRedeemed */\n      sload(0x03)\n        /* \"src/Guano.sol\":4259:4281  totalRedeemed + shares */\n      tag_177\n      swap2\n      swap1\n      tag_178\n      jump\t// in\n    tag_177:\n        /* \"src/Guano.sol\":4232:4255  maxWithdraw(msg.sender) */\n      tag_179\n        /* \"src/Guano.sol\":4244:4254  msg.sender */\n      caller\n        /* \"src/Guano.sol\":4232:4243  maxWithdraw */\n      tag_148\n        /* \"src/Guano.sol\":4232:4255  maxWithdraw(msg.sender) */\n      jump\t// in\n    tag_179:\n        /* \"src/Guano.sol\":4223:4229  shares */\n      dup5\n        /* \"src/Guano.sol\":4223:4255  shares * maxWithdraw(msg.sender) */\n      tag_180\n      swap2\n      swap1\n      tag_181\n      jump\t// in\n    tag_180:\n        /* \"src/Guano.sol\":4223:4282  shares * maxWithdraw(msg.sender) / (totalRedeemed + shares) */\n      tag_182\n      swap2\n      swap1\n      tag_183\n      jump\t// in\n    tag_182:\n        /* \"src/Guano.sol\":4209:4282  uint assets = shares * maxWithdraw(msg.sender) / (totalRedeemed + shares) */\n      swap1\n      pop\n        /* \"src/Guano.sol\":4330:4336  assets */\n      dup1\n        /* \"src/Guano.sol\":4306:4327  address(this).balance */\n      selfbalance\n        /* \"src/Guano.sol\":4306:4336  address(this).balance < assets */\n      lt\n        /* \"src/Guano.sol\":4303:4394  if(address(this).balance < assets){... */\n      iszero\n      tag_184\n      jumpi\n        /* \"src/Guano.sol\":4361:4382  address(this).balance */\n      selfbalance\n        /* \"src/Guano.sol\":4352:4382  assets = address(this).balance */\n      swap1\n      pop\n        /* \"src/Guano.sol\":4303:4394  if(address(this).balance < assets){... */\n    tag_184:\n        /* \"src/Guano.sol\":4413:4419  assets */\n      dup1\n        /* \"src/Guano.sol\":4406:4419  return assets */\n      swap2\n      pop\n      pop\n        /* \"src/Guano.sol\":4133:4427  function convertToAssets(uint shares) public view returns (uint) {... */\n      swap2\n      swap1\n      pop\n      jump\t// out\n        /* \"https://github.com/Vectorized/solady/blob/main/src/tokens/ERC20.sol\":8175:9204  function approve(address spender, uint256 amount) public virtual returns (bool) {... */\n    tag_51:\n        /* \"https://github.com/Vectorized/solady/blob/main/src/tokens/ERC20.sol\":8249:8253  bool */\n      0x00\n        /* \"https://github.com/Vectorized/solady/blob/main/src/tokens/ERC20.sol\":8269:8300  _givePermit2InfiniteAllowance() */\n      tag_186\n        /* \"https://github.com/Vectorized/solady/blob/main/src/tokens/ERC20.sol\":8269:8298  _givePermit2InfiniteAllowance */\n      tag_187\n        /* \"https://github.com/Vectorized/solady/blob/main/src/tokens/ERC20.sol\":8269:8300  _givePermit2InfiniteAllowance() */\n      jump\t// in\n    tag_186:\n        /* \"https://github.com/Vectorized/solady/blob/main/src/tokens/ERC20.sol\":8265:8712  if (_givePermit2InfiniteAllowance()) {... */\n      iszero\n      tag_188\n      jumpi\n        /* \"https://github.com/Vectorized/solady/blob/main/src/tokens/ERC20.sol\":8532:8538  amount */\n      dup2\n        /* \"https://github.com/Vectorized/solady/blob/main/src/tokens/ERC20.sol\":8528:8539  not(amount) */\n      not\n        /* \"https://github.com/Vectorized/solady/blob/main/src/tokens/ERC20.sol\":8521:8540  iszero(not(amount)) */\n      iszero\n        /* \"https://github.com/Vectorized/solady/blob/main/src/tokens/ERC20.sol\":8510:8518  _PERMIT2 */\n      0x22d473030f116ddee9f6b43ac78ba3\n        /* \"https://github.com/Vectorized/solady/blob/main/src/tokens/ERC20.sol\":8499:8506  spender */\n      dup5\n        /* \"https://github.com/Vectorized/solady/blob/main/src/tokens/ERC20.sol\":8495:8497  96 */\n      0x60\n        /* \"https://github.com/Vectorized/solady/blob/main/src/tokens/ERC20.sol\":8491:8507  shl(96, spender) */\n      shl\n        /* \"https://github.com/Vectorized/solady/blob/main/src/tokens/ERC20.sol\":8487:8489  96 */\n      0x60\n        /* \"https://github.com/Vectorized/solady/blob/main/src/tokens/ERC20.sol\":8483:8508  shr(96, shl(96, spender)) */\n      shr\n        /* \"https://github.com/Vectorized/solady/blob/main/src/tokens/ERC20.sol\":8479:8519  xor(shr(96, shl(96, spender)), _PERMIT2) */\n      xor\n        /* \"https://github.com/Vectorized/solady/blob/main/src/tokens/ERC20.sol\":8476:8541  or(xor(shr(96, shl(96, spender)), _PERMIT2), iszero(not(amount))) */\n      or\n        /* \"https://github.com/Vectorized/solady/blob/main/src/tokens/ERC20.sol\":8466:8688  if iszero(or(xor(shr(96, shl(96, spender)), _PERMIT2), iszero(not(amount)))) {... */\n      tag_189\n      jumpi\n        /* \"https://github.com/Vectorized/solady/blob/main/src/tokens/ERC20.sol\":8578:8588  0x3f68539a */\n      0x3f68539a\n        /* \"https://github.com/Vectorized/solady/blob/main/src/tokens/ERC20.sol\":8572:8576  0x00 */\n      0x00\n        /* \"https://github.com/Vectorized/solady/blob/main/src/tokens/ERC20.sol\":8565:8589  mstore(0x00, 0x3f68539a) */\n      mstore\n        /* \"https://github.com/Vectorized/solady/blob/main/src/tokens/ERC20.sol\":8665:8669  0x04 */\n      0x04\n        /* \"https://github.com/Vectorized/solady/blob/main/src/tokens/ERC20.sol\":8659:8663  0x1c */\n      0x1c\n        /* \"https://github.com/Vectorized/solady/blob/main/src/tokens/ERC20.sol\":8652:8670  revert(0x1c, 0x04) */\n      revert\n        /* \"https://github.com/Vectorized/solady/blob/main/src/tokens/ERC20.sol\":8466:8688  if iszero(or(xor(shr(96, shl(96, spender)), _PERMIT2), iszero(not(amount)))) {... */\n    tag_189:\n        /* \"https://github.com/Vectorized/solady/blob/main/src/tokens/ERC20.sol\":8265:8712  if (_givePermit2InfiniteAllowance()) {... */\n    tag_188:\n        /* \"https://github.com/Vectorized/solady/blob/main/src/tokens/ERC20.sol\":8864:8871  spender */\n      dup3\n        /* \"https://github.com/Vectorized/solady/blob/main/src/tokens/ERC20.sol\":8858:8862  0x20 */\n      0x20\n        /* \"https://github.com/Vectorized/solady/blob/main/src/tokens/ERC20.sol\":8851:8872  mstore(0x20, spender) */\n      mstore\n        /* \"https://github.com/Vectorized/solady/blob/main/src/tokens/ERC20.sol\":8898:8918  _ALLOWANCE_SLOT_SEED */\n      0x7f5e9f20\n        /* \"https://github.com/Vectorized/solady/blob/main/src/tokens/ERC20.sol\":8892:8896  0x0c */\n      0x0c\n        /* \"https://github.com/Vectorized/solady/blob/main/src/tokens/ERC20.sol\":8885:8919  mstore(0x0c, _ALLOWANCE_SLOT_SEED) */\n      mstore\n        /* \"https://github.com/Vectorized/solady/blob/main/src/tokens/ERC20.sol\":8945:8953  caller() */\n      caller\n        /* \"https://github.com/Vectorized/solady/blob/main/src/tokens/ERC20.sol\":8939:8943  0x00 */\n      0x00\n        /* \"https://github.com/Vectorized/solady/blob/main/src/tokens/ERC20.sol\":8932:8954  mstore(0x00, caller()) */\n      mstore\n        /* \"https://github.com/Vectorized/solady/blob/main/src/tokens/ERC20.sol\":8997:9003  amount */\n      dup2\n        /* \"https://github.com/Vectorized/solady/blob/main/src/tokens/ERC20.sol\":8990:8994  0x34 */\n      0x34\n        /* \"https://github.com/Vectorized/solady/blob/main/src/tokens/ERC20.sol\":8984:8988  0x0c */\n      0x0c\n        /* \"https://github.com/Vectorized/solady/blob/main/src/tokens/ERC20.sol\":8974:8995  keccak256(0x0c, 0x34) */\n      keccak256\n        /* \"https://github.com/Vectorized/solady/blob/main/src/tokens/ERC20.sol\":8967:9004  sstore(keccak256(0x0c, 0x34), amount) */\n      sstore\n        /* \"https://github.com/Vectorized/solady/blob/main/src/tokens/ERC20.sol\":9072:9078  amount */\n      dup2\n        /* \"https://github.com/Vectorized/solady/blob/main/src/tokens/ERC20.sol\":9066:9070  0x00 */\n      0x00\n        /* \"https://github.com/Vectorized/solady/blob/main/src/tokens/ERC20.sol\":9059:9079  mstore(0x00, amount) */\n      mstore\n        /* \"https://github.com/Vectorized/solady/blob/main/src/tokens/ERC20.sol\":9160:9164  0x2c */\n      0x2c\n        /* \"https://github.com/Vectorized/solady/blob/main/src/tokens/ERC20.sol\":9154:9165  mload(0x2c) */\n      mload\n        /* \"https://github.com/Vectorized/solady/blob/main/src/tokens/ERC20.sol\":9150:9152  96 */\n      0x60\n        /* \"https://github.com/Vectorized/solady/blob/main/src/tokens/ERC20.sol\":9146:9166  shr(96, mload(0x2c)) */\n      shr\n        /* \"https://github.com/Vectorized/solady/blob/main/src/tokens/ERC20.sol\":9136:9144  caller() */\n      caller\n        /* \"https://github.com/Vectorized/solady/blob/main/src/tokens/ERC20.sol\":9109:9134  _APPROVAL_EVENT_SIGNATURE */\n      0x8c5be1e5ebec7d5bd14f71427d1e84f3dd0314c0f7b2291e5b200ac8c7c3b925\n        /* \"https://github.com/Vectorized/solady/blob/main/src/tokens/ERC20.sol\":9103:9107  0x20 */\n      0x20\n        /* \"https://github.com/Vectorized/solady/blob/main/src/tokens/ERC20.sol\":9097:9101  0x00 */\n      0x00\n        /* \"https://github.com/Vectorized/solady/blob/main/src/tokens/ERC20.sol\":9092:9167  log3(0x00, 0x20, _APPROVAL_EVENT_SIGNATURE, caller(), shr(96, mload(0x2c))) */\n      log3\n        /* \"https://github.com/Vectorized/solady/blob/main/src/tokens/ERC20.sol\":9193:9197  true */\n      0x01\n        /* \"https://github.com/Vectorized/solady/blob/main/src/tokens/ERC20.sol\":9186:9197  return true */\n      swap1\n      pop\n        /* \"https://github.com/Vectorized/solady/blob/main/src/tokens/ERC20.sol\":8175:9204  function approve(address spender, uint256 amount) public virtual returns (bool) {... */\n      swap3\n      swap2\n      pop\n      pop\n      jump\t// out\n        /* \"src/Guano.sol\":4435:4580  function previewWithdraw(uint assets) public view returns (uint) {... */\n    tag_57:\n        /* \"src/Guano.sol\":4494:4498  uint */\n      0x00\n        /* \"src/Guano.sol\":4570:4571  1 */\n      0x01\n        /* \"src/Guano.sol\":4561:4567  assets */\n      dup3\n        /* \"src/Guano.sol\":4535:4558  maxWithdraw(msg.sender) */\n      tag_191\n        /* \"src/Guano.sol\":4547:4557  msg.sender */\n      caller\n        /* \"src/Guano.sol\":4535:4546  maxWithdraw */\n      tag_148\n        /* \"src/Guano.sol\":4535:4558  maxWithdraw(msg.sender) */\n      jump\t// in\n    tag_191:\n        /* \"src/Guano.sol\":4535:4567  maxWithdraw(msg.sender) / assets */\n      tag_192\n      swap2\n      swap1\n      tag_183\n      jump\t// in\n    tag_192:\n        /* \"src/Guano.sol\":4535:4571  maxWithdraw(msg.sender) / assets - 1 */\n      tag_193\n      swap2\n      swap1\n      tag_194\n      jump\t// in\n    tag_193:\n        /* \"src/Guano.sol\":4518:4531  totalRedeemed */\n      sload(0x03)\n        /* \"src/Guano.sol\":4518:4572  totalRedeemed / (maxWithdraw(msg.sender) / assets - 1) */\n      tag_195\n      swap2\n      swap1\n      tag_183\n      jump\t// in\n    tag_195:\n        /* \"src/Guano.sol\":4511:4572  return totalRedeemed / (maxWithdraw(msg.sender) / assets - 1) */\n      swap1\n      pop\n        /* \"src/Guano.sol\":4435:4580  function previewWithdraw(uint assets) public view returns (uint) {... */\n      swap2\n      swap1\n      pop\n      jump\t// out\n        /* \"src/Guano.sol\":2166:2372  function customCall(address to,uint value,bytes calldata data) public onlyOwner returns (bytes memory) {... */\n    tag_63:\n        /* \"src/Guano.sol\":2255:2267  bytes memory */\n      0x60\n        /* \"@openzeppelin/contracts/access/Ownable.sol\":1531:1544  _checkOwner() */\n      tag_197\n        /* \"@openzeppelin/contracts/access/Ownable.sol\":1531:1542  _checkOwner */\n      tag_198\n        /* \"@openzeppelin/contracts/access/Ownable.sol\":1531:1544  _checkOwner() */\n      jump\t// in\n    tag_197:\n        /* \"src/Guano.sol\":2283:2306  bytes memory returnData */\n      0x00\n        /* \"src/Guano.sol\":2310:2312  to */\n      dup6\n        /* \"src/Guano.sol\":2310:2317  to.call */\n      0xffffffffffffffffffffffffffffffffffffffff\n      and\n        /* \"src/Guano.sol\":2324:2329  value */\n      dup6\n        /* \"src/Guano.sol\":2331:2335  data */\n      dup6\n      dup6\n        /* \"src/Guano.sol\":2310:2336  to.call{value:value}(data) */\n      mload(0x40)\n      tag_200\n      swap3\n      swap2\n      swap1\n      tag_201\n      jump\t// in\n    tag_200:\n      0x00\n      mload(0x40)\n      dup1\n      dup4\n      sub\n      dup2\n      dup6\n      dup8\n      gas\n      call\n      swap3\n      pop\n      pop\n      pop\n      returndatasize\n      dup1\n      0x00\n      dup2\n      eq\n      tag_204\n      jumpi\n      mload(0x40)\n      swap2\n      pop\n      and(add(returndatasize, 0x3f), not(0x1f))\n      dup3\n      add\n      0x40\n      mstore\n      returndatasize\n      dup3\n      mstore\n      returndatasize\n      0x00\n      0x20\n      dup5\n      add\n      returndatacopy\n      jump(tag_203)\n    tag_204:\n      0x60\n      swap2\n      pop\n    tag_203:\n      pop\n        /* \"src/Guano.sol\":2280:2336  (, bytes memory returnData) = to.call{value:value}(data) */\n      swap2\n      pop\n      pop\n        /* \"src/Guano.sol\":2354:2364  returnData */\n      dup1\n        /* \"src/Guano.sol\":2347:2364  return returnData */\n      swap2\n      pop\n      pop\n        /* \"src/Guano.sol\":2166:2372  function customCall(address to,uint value,bytes calldata data) public onlyOwner returns (bytes memory) {... */\n      swap5\n      swap4\n      pop\n      pop\n      pop\n      pop\n      jump\t// out\n        /* \"https://github.com/Vectorized/solady/blob/main/src/tokens/ERC20.sol\":6907:7102  function totalSupply() public view virtual returns (uint256 result) {... */\n    tag_68:\n        /* \"https://github.com/Vectorized/solady/blob/main/src/tokens/ERC20.sol\":6959:6973  uint256 result */\n      0x00\n        /* \"https://github.com/Vectorized/solady/blob/main/src/tokens/ERC20.sol\":7067:7085  _TOTAL_SUPPLY_SLOT */\n      0x05345cdf77eb68f44c\n        /* \"https://github.com/Vectorized/solady/blob/main/src/tokens/ERC20.sol\":7061:7086  sload(_TOTAL_SUPPLY_SLOT) */\n      sload\n        /* \"https://github.com/Vectorized/solady/blob/main/src/tokens/ERC20.sol\":7051:7086  result := sload(_TOTAL_SUPPLY_SLOT) */\n      swap1\n      pop\n        /* \"https://github.com/Vectorized/solady/blob/main/src/tokens/ERC20.sol\":6907:7102  function totalSupply() public view virtual returns (uint256 result) {... */\n      swap1\n      jump\t// out\n        /* \"https://github.com/Vectorized/solady/blob/main/src/tokens/ERC20.sol\":11165:15918  function transferFrom(address from, address to, uint256 amount) public virtual returns (bool) {... */\n    tag_74:\n        /* \"https://github.com/Vectorized/solady/blob/main/src/tokens/ERC20.sol\":11253:11257  bool */\n      0x00\n        /* \"https://github.com/Vectorized/solady/blob/main/src/tokens/ERC20.sol\":11269:11307  _beforeTokenTransfer(from, to, amount) */\n      tag_207\n        /* \"https://github.com/Vectorized/solady/blob/main/src/tokens/ERC20.sol\":11290:11294  from */\n      dup5\n        /* \"https://github.com/Vectorized/solady/blob/main/src/tokens/ERC20.sol\":11296:11298  to */\n      dup5\n        /* \"https://github.com/Vectorized/solady/blob/main/src/tokens/ERC20.sol\":11300:11306  amount */\n      dup5\n        /* \"https://github.com/Vectorized/solady/blob/main/src/tokens/ERC20.sol\":11269:11289  _beforeTokenTransfer */\n      tag_208\n        /* \"https://github.com/Vectorized/solady/blob/main/src/tokens/ERC20.sol\":11269:11307  _beforeTokenTransfer(from, to, amount) */\n      jump\t// in\n    tag_207:\n        /* \"https://github.com/Vectorized/solady/blob/main/src/tokens/ERC20.sol\":11391:11422  _givePermit2InfiniteAllowance() */\n      tag_209\n        /* \"https://github.com/Vectorized/solady/blob/main/src/tokens/ERC20.sol\":11391:11420  _givePermit2InfiniteAllowance */\n      tag_187\n        /* \"https://github.com/Vectorized/solady/blob/main/src/tokens/ERC20.sol\":11391:11422  _givePermit2InfiniteAllowance() */\n      jump\t// in\n    tag_209:\n        /* \"https://github.com/Vectorized/solady/blob/main/src/tokens/ERC20.sol\":11387:15844  if (_givePermit2InfiniteAllowance()) {... */\n      iszero\n      tag_210\n      jumpi\n        /* \"https://github.com/Vectorized/solady/blob/main/src/tokens/ERC20.sol\":11533:11537  from */\n      dup4\n        /* \"https://github.com/Vectorized/solady/blob/main/src/tokens/ERC20.sol\":11529:11531  96 */\n      0x60\n        /* \"https://github.com/Vectorized/solady/blob/main/src/tokens/ERC20.sol\":11525:11538  shl(96, from) */\n      shl\n        /* \"https://github.com/Vectorized/solady/blob/main/src/tokens/ERC20.sol\":11578:11586  _PERMIT2 */\n      0x22d473030f116ddee9f6b43ac78ba3\n        /* \"https://github.com/Vectorized/solady/blob/main/src/tokens/ERC20.sol\":11568:11576  caller() */\n      caller\n        /* \"https://github.com/Vectorized/solady/blob/main/src/tokens/ERC20.sol\":11565:11587  eq(caller(), _PERMIT2) */\n      eq\n        /* \"https://github.com/Vectorized/solady/blob/main/src/tokens/ERC20.sol\":11555:12483  if iszero(eq(caller(), _PERMIT2)) {... */\n      tag_211\n      jumpi\n        /* \"https://github.com/Vectorized/solady/blob/main/src/tokens/ERC20.sol\":11694:11702  caller() */\n      caller\n        /* \"https://github.com/Vectorized/solady/blob/main/src/tokens/ERC20.sol\":11688:11692  0x20 */\n      0x20\n        /* \"https://github.com/Vectorized/solady/blob/main/src/tokens/ERC20.sol\":11681:11703  mstore(0x20, caller()) */\n      mstore\n        /* \"https://github.com/Vectorized/solady/blob/main/src/tokens/ERC20.sol\":11747:11767  _ALLOWANCE_SLOT_SEED */\n      0x7f5e9f20\n        /* \"https://github.com/Vectorized/solady/blob/main/src/tokens/ERC20.sol\":11740:11745  from_ */\n      dup2\n        /* \"https://github.com/Vectorized/solady/blob/main/src/tokens/ERC20.sol\":11737:11768  or(from_, _ALLOWANCE_SLOT_SEED) */\n      or\n        /* \"https://github.com/Vectorized/solady/blob/main/src/tokens/ERC20.sol\":11731:11735  0x0c */\n      0x0c\n        /* \"https://github.com/Vectorized/solady/blob/main/src/tokens/ERC20.sol\":11724:11769  mstore(0x0c, or(from_, _ALLOWANCE_SLOT_SEED)) */\n      mstore\n        /* \"https://github.com/Vectorized/solady/blob/main/src/tokens/ERC20.sol\":11827:11831  0x34 */\n      0x34\n        /* \"https://github.com/Vectorized/solady/blob/main/src/tokens/ERC20.sol\":11821:11825  0x0c */\n      0x0c\n        /* \"https://github.com/Vectorized/solady/blob/main/src/tokens/ERC20.sol\":11811:11832  keccak256(0x0c, 0x34) */\n      keccak256\n        /* \"https://github.com/Vectorized/solady/blob/main/src/tokens/ERC20.sol\":11877:11890  allowanceSlot */\n      dup1\n        /* \"https://github.com/Vectorized/solady/blob/main/src/tokens/ERC20.sol\":11871:11891  sload(allowanceSlot) */\n      sload\n        /* \"https://github.com/Vectorized/solady/blob/main/src/tokens/ERC20.sol\":11993:12003  allowance_ */\n      dup1\n        /* \"https://github.com/Vectorized/solady/blob/main/src/tokens/ERC20.sol\":11989:12004  not(allowance_) */\n      not\n        /* \"https://github.com/Vectorized/solady/blob/main/src/tokens/ERC20.sol\":11986:12465  if not(allowance_) {... */\n      iszero\n      tag_212\n      jumpi\n        /* \"https://github.com/Vectorized/solady/blob/main/src/tokens/ERC20.sol\":12134:12144  allowance_ */\n      dup1\n        /* \"https://github.com/Vectorized/solady/blob/main/src/tokens/ERC20.sol\":12126:12132  amount */\n      dup6\n        /* \"https://github.com/Vectorized/solady/blob/main/src/tokens/ERC20.sol\":12123:12145  gt(amount, allowance_) */\n      gt\n        /* \"https://github.com/Vectorized/solady/blob/main/src/tokens/ERC20.sol\":12120:12303  if gt(amount, allowance_) {... */\n      iszero\n      tag_213\n      jumpi\n        /* \"https://github.com/Vectorized/solady/blob/main/src/tokens/ERC20.sol\":12189:12199  0x13be252b */\n      0x13be252b\n        /* \"https://github.com/Vectorized/solady/blob/main/src/tokens/ERC20.sol\":12183:12187  0x00 */\n      0x00\n        /* \"https://github.com/Vectorized/solady/blob/main/src/tokens/ERC20.sol\":12176:12200  mstore(0x00, 0x13be252b) */\n      mstore\n        /* \"https://github.com/Vectorized/solady/blob/main/src/tokens/ERC20.sol\":12272:12276  0x04 */\n      0x04\n        /* \"https://github.com/Vectorized/solady/blob/main/src/tokens/ERC20.sol\":12266:12270  0x1c */\n      0x1c\n        /* \"https://github.com/Vectorized/solady/blob/main/src/tokens/ERC20.sol\":12259:12277  revert(0x1c, 0x04) */\n      revert\n        /* \"https://github.com/Vectorized/solady/blob/main/src/tokens/ERC20.sol\":12120:12303  if gt(amount, allowance_) {... */\n    tag_213:\n        /* \"https://github.com/Vectorized/solady/blob/main/src/tokens/ERC20.sol\":12435:12441  amount */\n      dup5\n        /* \"https://github.com/Vectorized/solady/blob/main/src/tokens/ERC20.sol\":12423:12433  allowance_ */\n      dup2\n        /* \"https://github.com/Vectorized/solady/blob/main/src/tokens/ERC20.sol\":12419:12442  sub(allowance_, amount) */\n      sub\n        /* \"https://github.com/Vectorized/solady/blob/main/src/tokens/ERC20.sol\":12404:12417  allowanceSlot */\n      dup3\n        /* \"https://github.com/Vectorized/solady/blob/main/src/tokens/ERC20.sol\":12397:12443  sstore(allowanceSlot, sub(allowance_, amount)) */\n      sstore\n        /* \"https://github.com/Vectorized/solady/blob/main/src/tokens/ERC20.sol\":11986:12465  if not(allowance_) {... */\n    tag_212:\n        /* \"https://github.com/Vectorized/solady/blob/main/src/tokens/ERC20.sol\":11589:12483  {... */\n      pop\n      pop\n        /* \"https://github.com/Vectorized/solady/blob/main/src/tokens/ERC20.sol\":11555:12483  if iszero(eq(caller(), _PERMIT2)) {... */\n    tag_211:\n        /* \"https://github.com/Vectorized/solady/blob/main/src/tokens/ERC20.sol\":12587:12605  _BALANCE_SLOT_SEED */\n      0x87a211a2\n        /* \"https://github.com/Vectorized/solady/blob/main/src/tokens/ERC20.sol\":12580:12585  from_ */\n      dup2\n        /* \"https://github.com/Vectorized/solady/blob/main/src/tokens/ERC20.sol\":12577:12606  or(from_, _BALANCE_SLOT_SEED) */\n      or\n        /* \"https://github.com/Vectorized/solady/blob/main/src/tokens/ERC20.sol\":12571:12575  0x0c */\n      0x0c\n        /* \"https://github.com/Vectorized/solady/blob/main/src/tokens/ERC20.sol\":12564:12607  mstore(0x0c, or(from_, _BALANCE_SLOT_SEED)) */\n      mstore\n        /* \"https://github.com/Vectorized/solady/blob/main/src/tokens/ERC20.sol\":12663:12667  0x20 */\n      0x20\n        /* \"https://github.com/Vectorized/solady/blob/main/src/tokens/ERC20.sol\":12657:12661  0x0c */\n      0x0c\n        /* \"https://github.com/Vectorized/solady/blob/main/src/tokens/ERC20.sol\":12647:12668  keccak256(0x0c, 0x20) */\n      keccak256\n        /* \"https://github.com/Vectorized/solady/blob/main/src/tokens/ERC20.sol\":12710:12725  fromBalanceSlot */\n      dup1\n        /* \"https://github.com/Vectorized/solady/blob/main/src/tokens/ERC20.sol\":12704:12726  sload(fromBalanceSlot) */\n      sload\n        /* \"https://github.com/Vectorized/solady/blob/main/src/tokens/ERC20.sol\":12808:12819  fromBalance */\n      dup1\n        /* \"https://github.com/Vectorized/solady/blob/main/src/tokens/ERC20.sol\":12800:12806  amount */\n      dup6\n        /* \"https://github.com/Vectorized/solady/blob/main/src/tokens/ERC20.sol\":12797:12820  gt(amount, fromBalance) */\n      gt\n        /* \"https://github.com/Vectorized/solady/blob/main/src/tokens/ERC20.sol\":12794:12952  if gt(amount, fromBalance) {... */\n      iszero\n      tag_214\n      jumpi\n        /* \"https://github.com/Vectorized/solady/blob/main/src/tokens/ERC20.sol\":12856:12866  0xf4d678b8 */\n      0xf4d678b8\n        /* \"https://github.com/Vectorized/solady/blob/main/src/tokens/ERC20.sol\":12850:12854  0x00 */\n      0x00\n        /* \"https://github.com/Vectorized/solady/blob/main/src/tokens/ERC20.sol\":12843:12867  mstore(0x00, 0xf4d678b8) */\n      mstore\n        /* \"https://github.com/Vectorized/solady/blob/main/src/tokens/ERC20.sol\":12929:12933  0x04 */\n      0x04\n        /* \"https://github.com/Vectorized/solady/blob/main/src/tokens/ERC20.sol\":12923:12927  0x1c */\n      0x1c\n        /* \"https://github.com/Vectorized/solady/blob/main/src/tokens/ERC20.sol\":12916:12934  revert(0x1c, 0x04) */\n      revert\n        /* \"https://github.com/Vectorized/solady/blob/main/src/tokens/ERC20.sol\":12794:12952  if gt(amount, fromBalance) {... */\n    tag_214:\n        /* \"https://github.com/Vectorized/solady/blob/main/src/tokens/ERC20.sol\":13069:13075  amount */\n      dup5\n        /* \"https://github.com/Vectorized/solady/blob/main/src/tokens/ERC20.sol\":13056:13067  fromBalance */\n      dup2\n        /* \"https://github.com/Vectorized/solady/blob/main/src/tokens/ERC20.sol\":13052:13076  sub(fromBalance, amount) */\n      sub\n        /* \"https://github.com/Vectorized/solady/blob/main/src/tokens/ERC20.sol\":13035:13050  fromBalanceSlot */\n      dup3\n        /* \"https://github.com/Vectorized/solady/blob/main/src/tokens/ERC20.sol\":13028:13077  sstore(fromBalanceSlot, sub(fromBalance, amount)) */\n      sstore\n        /* \"https://github.com/Vectorized/solady/blob/main/src/tokens/ERC20.sol\":13160:13162  to */\n      dup6\n        /* \"https://github.com/Vectorized/solady/blob/main/src/tokens/ERC20.sol\":13154:13158  0x00 */\n      0x00\n        /* \"https://github.com/Vectorized/solady/blob/main/src/tokens/ERC20.sol\":13147:13163  mstore(0x00, to) */\n      mstore\n        /* \"https://github.com/Vectorized/solady/blob/main/src/tokens/ERC20.sol\":13217:13221  0x20 */\n      0x20\n        /* \"https://github.com/Vectorized/solady/blob/main/src/tokens/ERC20.sol\":13211:13215  0x0c */\n      0x0c\n        /* \"https://github.com/Vectorized/solady/blob/main/src/tokens/ERC20.sol\":13201:13222  keccak256(0x0c, 0x20) */\n      keccak256\n        /* \"https://github.com/Vectorized/solady/blob/main/src/tokens/ERC20.sol\":13483:13489  amount */\n      dup6\n        /* \"https://github.com/Vectorized/solady/blob/main/src/tokens/ERC20.sol\":13467:13480  toBalanceSlot */\n      dup2\n        /* \"https://github.com/Vectorized/solady/blob/main/src/tokens/ERC20.sol\":13461:13481  sload(toBalanceSlot) */\n      sload\n        /* \"https://github.com/Vectorized/solady/blob/main/src/tokens/ERC20.sol\":13457:13490  add(sload(toBalanceSlot), amount) */\n      add\n        /* \"https://github.com/Vectorized/solady/blob/main/src/tokens/ERC20.sol\":13442:13455  toBalanceSlot */\n      dup2\n        /* \"https://github.com/Vectorized/solady/blob/main/src/tokens/ERC20.sol\":13435:13491  sstore(toBalanceSlot, add(sload(toBalanceSlot), amount)) */\n      sstore\n        /* \"https://github.com/Vectorized/solady/blob/main/src/tokens/ERC20.sol\":13567:13573  amount */\n      dup6\n        /* \"https://github.com/Vectorized/solady/blob/main/src/tokens/ERC20.sol\":13561:13565  0x20 */\n      0x20\n        /* \"https://github.com/Vectorized/solady/blob/main/src/tokens/ERC20.sol\":13554:13574  mstore(0x20, amount) */\n      mstore\n        /* \"https://github.com/Vectorized/solady/blob/main/src/tokens/ERC20.sol\":13665:13669  0x0c */\n      0x0c\n        /* \"https://github.com/Vectorized/solady/blob/main/src/tokens/ERC20.sol\":13659:13670  mload(0x0c) */\n      mload\n        /* \"https://github.com/Vectorized/solady/blob/main/src/tokens/ERC20.sol\":13655:13657  96 */\n      0x60\n        /* \"https://github.com/Vectorized/solady/blob/main/src/tokens/ERC20.sol\":13651:13671  shr(96, mload(0x0c)) */\n      shr\n        /* \"https://github.com/Vectorized/solady/blob/main/src/tokens/ERC20.sol\":13643:13648  from_ */\n      dup5\n        /* \"https://github.com/Vectorized/solady/blob/main/src/tokens/ERC20.sol\":13639:13641  96 */\n      0x60\n        /* \"https://github.com/Vectorized/solady/blob/main/src/tokens/ERC20.sol\":13635:13649  shr(96, from_) */\n      shr\n        /* \"https://github.com/Vectorized/solady/blob/main/src/tokens/ERC20.sol\":13608:13633  _TRANSFER_EVENT_SIGNATURE */\n      0xddf252ad1be2c89b69c2b068fc378daa952ba7f163c4a11628f55a4df523b3ef\n        /* \"https://github.com/Vectorized/solady/blob/main/src/tokens/ERC20.sol\":13602:13606  0x20 */\n      0x20\n        /* \"https://github.com/Vectorized/solady/blob/main/src/tokens/ERC20.sol\":13596:13600  0x20 */\n      dup1\n        /* \"https://github.com/Vectorized/solady/blob/main/src/tokens/ERC20.sol\":13591:13672  log3(0x20, 0x20, _TRANSFER_EVENT_SIGNATURE, shr(96, from_), shr(96, mload(0x0c))) */\n      log3\n        /* \"https://github.com/Vectorized/solady/blob/main/src/tokens/ERC20.sol\":11494:13686  {... */\n      pop\n      pop\n      pop\n      pop\n        /* \"https://github.com/Vectorized/solady/blob/main/src/tokens/ERC20.sol\":11387:15844  if (_givePermit2InfiniteAllowance()) {... */\n      jump(tag_215)\n    tag_210:\n        /* \"https://github.com/Vectorized/solady/blob/main/src/tokens/ERC20.sol\":13811:13815  from */\n      dup4\n        /* \"https://github.com/Vectorized/solady/blob/main/src/tokens/ERC20.sol\":13807:13809  96 */\n      0x60\n        /* \"https://github.com/Vectorized/solady/blob/main/src/tokens/ERC20.sol\":13803:13816  shl(96, from) */\n      shl\n        /* \"https://github.com/Vectorized/solady/blob/main/src/tokens/ERC20.sol\":13912:13920  caller() */\n      caller\n        /* \"https://github.com/Vectorized/solady/blob/main/src/tokens/ERC20.sol\":13906:13910  0x20 */\n      0x20\n        /* \"https://github.com/Vectorized/solady/blob/main/src/tokens/ERC20.sol\":13899:13921  mstore(0x20, caller()) */\n      mstore\n        /* \"https://github.com/Vectorized/solady/blob/main/src/tokens/ERC20.sol\":13961:13981  _ALLOWANCE_SLOT_SEED */\n      0x7f5e9f20\n        /* \"https://github.com/Vectorized/solady/blob/main/src/tokens/ERC20.sol\":13954:13959  from_ */\n      dup2\n        /* \"https://github.com/Vectorized/solady/blob/main/src/tokens/ERC20.sol\":13951:13982  or(from_, _ALLOWANCE_SLOT_SEED) */\n      or\n        /* \"https://github.com/Vectorized/solady/blob/main/src/tokens/ERC20.sol\":13945:13949  0x0c */\n      0x0c\n        /* \"https://github.com/Vectorized/solady/blob/main/src/tokens/ERC20.sol\":13938:13983  mstore(0x0c, or(from_, _ALLOWANCE_SLOT_SEED)) */\n      mstore\n        /* \"https://github.com/Vectorized/solady/blob/main/src/tokens/ERC20.sol\":14037:14041  0x34 */\n      0x34\n        /* \"https://github.com/Vectorized/solady/blob/main/src/tokens/ERC20.sol\":14031:14035  0x0c */\n      0x0c\n        /* \"https://github.com/Vectorized/solady/blob/main/src/tokens/ERC20.sol\":14021:14042  keccak256(0x0c, 0x34) */\n      keccak256\n        /* \"https://github.com/Vectorized/solady/blob/main/src/tokens/ERC20.sol\":14083:14096  allowanceSlot */\n      dup1\n        /* \"https://github.com/Vectorized/solady/blob/main/src/tokens/ERC20.sol\":14077:14097  sload(allowanceSlot) */\n      sload\n        /* \"https://github.com/Vectorized/solady/blob/main/src/tokens/ERC20.sol\":14191:14201  allowance_ */\n      dup1\n        /* \"https://github.com/Vectorized/solady/blob/main/src/tokens/ERC20.sol\":14187:14202  not(allowance_) */\n      not\n        /* \"https://github.com/Vectorized/solady/blob/main/src/tokens/ERC20.sol\":14184:14631  if not(allowance_) {... */\n      iszero\n      tag_216\n      jumpi\n        /* \"https://github.com/Vectorized/solady/blob/main/src/tokens/ERC20.sol\":14324:14334  allowance_ */\n      dup1\n        /* \"https://github.com/Vectorized/solady/blob/main/src/tokens/ERC20.sol\":14316:14322  amount */\n      dup6\n        /* \"https://github.com/Vectorized/solady/blob/main/src/tokens/ERC20.sol\":14313:14335  gt(amount, allowance_) */\n      gt\n        /* \"https://github.com/Vectorized/solady/blob/main/src/tokens/ERC20.sol\":14310:14481  if gt(amount, allowance_) {... */\n      iszero\n      tag_217\n      jumpi\n        /* \"https://github.com/Vectorized/solady/blob/main/src/tokens/ERC20.sol\":14375:14385  0x13be252b */\n      0x13be252b\n        /* \"https://github.com/Vectorized/solady/blob/main/src/tokens/ERC20.sol\":14369:14373  0x00 */\n      0x00\n        /* \"https://github.com/Vectorized/solady/blob/main/src/tokens/ERC20.sol\":14362:14386  mstore(0x00, 0x13be252b) */\n      mstore\n        /* \"https://github.com/Vectorized/solady/blob/main/src/tokens/ERC20.sol\":14454:14458  0x04 */\n      0x04\n        /* \"https://github.com/Vectorized/solady/blob/main/src/tokens/ERC20.sol\":14448:14452  0x1c */\n      0x1c\n        /* \"https://github.com/Vectorized/solady/blob/main/src/tokens/ERC20.sol\":14441:14459  revert(0x1c, 0x04) */\n      revert\n        /* \"https://github.com/Vectorized/solady/blob/main/src/tokens/ERC20.sol\":14310:14481  if gt(amount, allowance_) {... */\n    tag_217:\n        /* \"https://github.com/Vectorized/solady/blob/main/src/tokens/ERC20.sol\":14605:14611  amount */\n      dup5\n        /* \"https://github.com/Vectorized/solady/blob/main/src/tokens/ERC20.sol\":14593:14603  allowance_ */\n      dup2\n        /* \"https://github.com/Vectorized/solady/blob/main/src/tokens/ERC20.sol\":14589:14612  sub(allowance_, amount) */\n      sub\n        /* \"https://github.com/Vectorized/solady/blob/main/src/tokens/ERC20.sol\":14574:14587  allowanceSlot */\n      dup3\n        /* \"https://github.com/Vectorized/solady/blob/main/src/tokens/ERC20.sol\":14567:14613  sstore(allowanceSlot, sub(allowance_, amount)) */\n      sstore\n        /* \"https://github.com/Vectorized/solady/blob/main/src/tokens/ERC20.sol\":14184:14631  if not(allowance_) {... */\n    tag_216:\n        /* \"https://github.com/Vectorized/solady/blob/main/src/tokens/ERC20.sol\":14735:14753  _BALANCE_SLOT_SEED */\n      0x87a211a2\n        /* \"https://github.com/Vectorized/solady/blob/main/src/tokens/ERC20.sol\":14728:14733  from_ */\n      dup4\n        /* \"https://github.com/Vectorized/solady/blob/main/src/tokens/ERC20.sol\":14725:14754  or(from_, _BALANCE_SLOT_SEED) */\n      or\n        /* \"https://github.com/Vectorized/solady/blob/main/src/tokens/ERC20.sol\":14719:14723  0x0c */\n      0x0c\n        /* \"https://github.com/Vectorized/solady/blob/main/src/tokens/ERC20.sol\":14712:14755  mstore(0x0c, or(from_, _BALANCE_SLOT_SEED)) */\n      mstore\n        /* \"https://github.com/Vectorized/solady/blob/main/src/tokens/ERC20.sol\":14811:14815  0x20 */\n      0x20\n        /* \"https://github.com/Vectorized/solady/blob/main/src/tokens/ERC20.sol\":14805:14809  0x0c */\n      0x0c\n        /* \"https://github.com/Vectorized/solady/blob/main/src/tokens/ERC20.sol\":14795:14816  keccak256(0x0c, 0x20) */\n      keccak256\n        /* \"https://github.com/Vectorized/solady/blob/main/src/tokens/ERC20.sol\":14858:14873  fromBalanceSlot */\n      dup1\n        /* \"https://github.com/Vectorized/solady/blob/main/src/tokens/ERC20.sol\":14852:14874  sload(fromBalanceSlot) */\n      sload\n        /* \"https://github.com/Vectorized/solady/blob/main/src/tokens/ERC20.sol\":14956:14967  fromBalance */\n      dup1\n        /* \"https://github.com/Vectorized/solady/blob/main/src/tokens/ERC20.sol\":14948:14954  amount */\n      dup8\n        /* \"https://github.com/Vectorized/solady/blob/main/src/tokens/ERC20.sol\":14945:14968  gt(amount, fromBalance) */\n      gt\n        /* \"https://github.com/Vectorized/solady/blob/main/src/tokens/ERC20.sol\":14942:15100  if gt(amount, fromBalance) {... */\n      iszero\n      tag_218\n      jumpi\n        /* \"https://github.com/Vectorized/solady/blob/main/src/tokens/ERC20.sol\":15004:15014  0xf4d678b8 */\n      0xf4d678b8\n        /* \"https://github.com/Vectorized/solady/blob/main/src/tokens/ERC20.sol\":14998:15002  0x00 */\n      0x00\n        /* \"https://github.com/Vectorized/solady/blob/main/src/tokens/ERC20.sol\":14991:15015  mstore(0x00, 0xf4d678b8) */\n      mstore\n        /* \"https://github.com/Vectorized/solady/blob/main/src/tokens/ERC20.sol\":15077:15081  0x04 */\n      0x04\n        /* \"https://github.com/Vectorized/solady/blob/main/src/tokens/ERC20.sol\":15071:15075  0x1c */\n      0x1c\n        /* \"https://github.com/Vectorized/solady/blob/main/src/tokens/ERC20.sol\":15064:15082  revert(0x1c, 0x04) */\n      revert\n        /* \"https://github.com/Vectorized/solady/blob/main/src/tokens/ERC20.sol\":14942:15100  if gt(amount, fromBalance) {... */\n    tag_218:\n        /* \"https://github.com/Vectorized/solady/blob/main/src/tokens/ERC20.sol\":15217:15223  amount */\n      dup7\n        /* \"https://github.com/Vectorized/solady/blob/main/src/tokens/ERC20.sol\":15204:15215  fromBalance */\n      dup2\n        /* \"https://github.com/Vectorized/solady/blob/main/src/tokens/ERC20.sol\":15200:15224  sub(fromBalance, amount) */\n      sub\n        /* \"https://github.com/Vectorized/solady/blob/main/src/tokens/ERC20.sol\":15183:15198  fromBalanceSlot */\n      dup3\n        /* \"https://github.com/Vectorized/solady/blob/main/src/tokens/ERC20.sol\":15176:15225  sstore(fromBalanceSlot, sub(fromBalance, amount)) */\n      sstore\n        /* \"https://github.com/Vectorized/solady/blob/main/src/tokens/ERC20.sol\":15308:15310  to */\n      dup8\n        /* \"https://github.com/Vectorized/solady/blob/main/src/tokens/ERC20.sol\":15302:15306  0x00 */\n      0x00\n        /* \"https://github.com/Vectorized/solady/blob/main/src/tokens/ERC20.sol\":15295:15311  mstore(0x00, to) */\n      mstore\n        /* \"https://github.com/Vectorized/solady/blob/main/src/tokens/ERC20.sol\":15365:15369  0x20 */\n      0x20\n        /* \"https://github.com/Vectorized/solady/blob/main/src/tokens/ERC20.sol\":15359:15363  0x0c */\n      0x0c\n        /* \"https://github.com/Vectorized/solady/blob/main/src/tokens/ERC20.sol\":15349:15370  keccak256(0x0c, 0x20) */\n      keccak256\n        /* \"https://github.com/Vectorized/solady/blob/main/src/tokens/ERC20.sol\":15631:15637  amount */\n      dup8\n        /* \"https://github.com/Vectorized/solady/blob/main/src/tokens/ERC20.sol\":15615:15628  toBalanceSlot */\n      dup2\n        /* \"https://github.com/Vectorized/solady/blob/main/src/tokens/ERC20.sol\":15609:15629  sload(toBalanceSlot) */\n      sload\n        /* \"https://github.com/Vectorized/solady/blob/main/src/tokens/ERC20.sol\":15605:15638  add(sload(toBalanceSlot), amount) */\n      add\n        /* \"https://github.com/Vectorized/solady/blob/main/src/tokens/ERC20.sol\":15590:15603  toBalanceSlot */\n      dup2\n        /* \"https://github.com/Vectorized/solady/blob/main/src/tokens/ERC20.sol\":15583:15639  sstore(toBalanceSlot, add(sload(toBalanceSlot), amount)) */\n      sstore\n        /* \"https://github.com/Vectorized/solady/blob/main/src/tokens/ERC20.sol\":15715:15721  amount */\n      dup8\n        /* \"https://github.com/Vectorized/solady/blob/main/src/tokens/ERC20.sol\":15709:15713  0x20 */\n      0x20\n        /* \"https://github.com/Vectorized/solady/blob/main/src/tokens/ERC20.sol\":15702:15722  mstore(0x20, amount) */\n      mstore\n        /* \"https://github.com/Vectorized/solady/blob/main/src/tokens/ERC20.sol\":15813:15817  0x0c */\n      0x0c\n        /* \"https://github.com/Vectorized/solady/blob/main/src/tokens/ERC20.sol\":15807:15818  mload(0x0c) */\n      mload\n        /* \"https://github.com/Vectorized/solady/blob/main/src/tokens/ERC20.sol\":15803:15805  96 */\n      0x60\n        /* \"https://github.com/Vectorized/solady/blob/main/src/tokens/ERC20.sol\":15799:15819  shr(96, mload(0x0c)) */\n      shr\n        /* \"https://github.com/Vectorized/solady/blob/main/src/tokens/ERC20.sol\":15791:15796  from_ */\n      dup7\n        /* \"https://github.com/Vectorized/solady/blob/main/src/tokens/ERC20.sol\":15787:15789  96 */\n      0x60\n        /* \"https://github.com/Vectorized/solady/blob/main/src/tokens/ERC20.sol\":15783:15797  shr(96, from_) */\n      shr\n        /* \"https://github.com/Vectorized/solady/blob/main/src/tokens/ERC20.sol\":15756:15781  _TRANSFER_EVENT_SIGNATURE */\n      0xddf252ad1be2c89b69c2b068fc378daa952ba7f163c4a11628f55a4df523b3ef\n        /* \"https://github.com/Vectorized/solady/blob/main/src/tokens/ERC20.sol\":15750:15754  0x20 */\n      0x20\n        /* \"https://github.com/Vectorized/solady/blob/main/src/tokens/ERC20.sol\":15744:15748  0x20 */\n      dup1\n        /* \"https://github.com/Vectorized/solady/blob/main/src/tokens/ERC20.sol\":15739:15820  log3(0x20, 0x20, _TRANSFER_EVENT_SIGNATURE, shr(96, from_), shr(96, mload(0x0c))) */\n      log3\n        /* \"https://github.com/Vectorized/solady/blob/main/src/tokens/ERC20.sol\":13772:15834  {... */\n      pop\n      pop\n      pop\n      pop\n      pop\n      pop\n        /* \"https://github.com/Vectorized/solady/blob/main/src/tokens/ERC20.sol\":11387:15844  if (_givePermit2InfiniteAllowance()) {... */\n    tag_215:\n        /* \"https://github.com/Vectorized/solady/blob/main/src/tokens/ERC20.sol\":15853:15890  _afterTokenTransfer(from, to, amount) */\n      tag_219\n        /* \"https://github.com/Vectorized/solady/blob/main/src/tokens/ERC20.sol\":15873:15877  from */\n      dup5\n        /* \"https://github.com/Vectorized/solady/blob/main/src/tokens/ERC20.sol\":15879:15881  to */\n      dup5\n        /* \"https://github.com/Vectorized/solady/blob/main/src/tokens/ERC20.sol\":15883:15889  amount */\n      dup5\n        /* \"https://github.com/Vectorized/solady/blob/main/src/tokens/ERC20.sol\":15853:15872  _afterTokenTransfer */\n      tag_220\n        /* \"https://github.com/Vectorized/solady/blob/main/src/tokens/ERC20.sol\":15853:15890  _afterTokenTransfer(from, to, amount) */\n      jump\t// in\n    tag_219:\n        /* \"https://github.com/Vectorized/solady/blob/main/src/tokens/ERC20.sol\":15907:15911  true */\n      0x01\n        /* \"https://github.com/Vectorized/solady/blob/main/src/tokens/ERC20.sol\":15900:15911  return true */\n      swap1\n      pop\n        /* \"https://github.com/Vectorized/solady/blob/main/src/tokens/ERC20.sol\":11165:15918  function transferFrom(address from, address to, uint256 amount) public virtual returns (bool) {... */\n      swap4\n      swap3\n      pop\n      pop\n      pop\n      jump\t// out\n        /* \"https://github.com/Vectorized/solady/blob/main/src/tokens/ERC20.sol\":6480:6562  function decimals() public view virtual returns (uint8) {... */\n    tag_78:\n        /* \"https://github.com/Vectorized/solady/blob/main/src/tokens/ERC20.sol\":6529:6534  uint8 */\n      0x00\n        /* \"https://github.com/Vectorized/solady/blob/main/src/tokens/ERC20.sol\":6553:6555  18 */\n      0x12\n        /* \"https://github.com/Vectorized/solady/blob/main/src/tokens/ERC20.sol\":6546:6555  return 18 */\n      swap1\n      pop\n        /* \"https://github.com/Vectorized/solady/blob/main/src/tokens/ERC20.sol\":6480:6562  function decimals() public view virtual returns (uint8) {... */\n      swap1\n      jump\t// out\n        /* \"https://github.com/Vectorized/solady/blob/main/src/tokens/ERC20.sol\":21458:22195  function DOMAIN_SEPARATOR() public view virtual returns (bytes32 result) {... */\n    tag_83:\n        /* \"https://github.com/Vectorized/solady/blob/main/src/tokens/ERC20.sol\":21515:21529  bytes32 result */\n      0x00\n        /* \"https://github.com/Vectorized/solady/blob/main/src/tokens/ERC20.sol\":21541:21557  bytes32 nameHash */\n      0x00\n        /* \"https://github.com/Vectorized/solady/blob/main/src/tokens/ERC20.sol\":21560:21579  _constantNameHash() */\n      tag_223\n        /* \"https://github.com/Vectorized/solady/blob/main/src/tokens/ERC20.sol\":21560:21577  _constantNameHash */\n      tag_224\n        /* \"https://github.com/Vectorized/solady/blob/main/src/tokens/ERC20.sol\":21560:21579  _constantNameHash() */\n      jump\t// in\n    tag_223:\n        /* \"https://github.com/Vectorized/solady/blob/main/src/tokens/ERC20.sol\":21541:21579  bytes32 nameHash = _constantNameHash() */\n      swap1\n      pop\n        /* \"https://github.com/Vectorized/solady/blob/main/src/tokens/ERC20.sol\":21707:21708  0 */\n      0x00\n        /* \"https://github.com/Vectorized/solady/blob/main/src/tokens/ERC20.sol\":21699:21709  bytes32(0) */\n      0x00\n      shl\n        /* \"https://github.com/Vectorized/solady/blob/main/src/tokens/ERC20.sol\":21687:21695  nameHash */\n      dup2\n        /* \"https://github.com/Vectorized/solady/blob/main/src/tokens/ERC20.sol\":21687:21709  nameHash == bytes32(0) */\n      sub\n        /* \"https://github.com/Vectorized/solady/blob/main/src/tokens/ERC20.sol\":21683:21746  if (nameHash == bytes32(0)) nameHash = keccak256(bytes(name())) */\n      tag_225\n      jumpi\n        /* \"https://github.com/Vectorized/solady/blob/main/src/tokens/ERC20.sol\":21738:21744  name() */\n      tag_226\n        /* \"https://github.com/Vectorized/solady/blob/main/src/tokens/ERC20.sol\":21738:21742  name */\n      tag_37\n        /* \"https://github.com/Vectorized/solady/blob/main/src/tokens/ERC20.sol\":21738:21744  name() */\n      jump\t// in\n    tag_226:\n        /* \"https://github.com/Vectorized/solady/blob/main/src/tokens/ERC20.sol\":21722:21746  keccak256(bytes(name())) */\n      dup1\n      mload\n      swap1\n      0x20\n      add\n      keccak256\n        /* \"https://github.com/Vectorized/solady/blob/main/src/tokens/ERC20.sol\":21711:21746  nameHash = keccak256(bytes(name())) */\n      swap1\n      pop\n        /* \"https://github.com/Vectorized/solady/blob/main/src/tokens/ERC20.sol\":21683:21746  if (nameHash == bytes32(0)) nameHash = keccak256(bytes(name())) */\n    tag_225:\n        /* \"https://github.com/Vectorized/solady/blob/main/src/tokens/ERC20.sol\":21756:21775  bytes32 versionHash */\n      0x00\n        /* \"https://github.com/Vectorized/solady/blob/main/src/tokens/ERC20.sol\":21778:21792  _versionHash() */\n      tag_227\n        /* \"https://github.com/Vectorized/solady/blob/main/src/tokens/ERC20.sol\":21778:21790  _versionHash */\n      tag_228\n        /* \"https://github.com/Vectorized/solady/blob/main/src/tokens/ERC20.sol\":21778:21792  _versionHash() */\n      jump\t// in\n    tag_227:\n        /* \"https://github.com/Vectorized/solady/blob/main/src/tokens/ERC20.sol\":21756:21792  bytes32 versionHash = _versionHash() */\n      swap1\n      pop\n        /* \"https://github.com/Vectorized/solady/blob/main/src/tokens/ERC20.sol\":21883:21887  0x40 */\n      0x40\n        /* \"https://github.com/Vectorized/solady/blob/main/src/tokens/ERC20.sol\":21877:21888  mload(0x40) */\n      mload\n        /* \"https://github.com/Vectorized/solady/blob/main/src/tokens/ERC20.sol\":21944:21960  _DOMAIN_TYPEHASH */\n      0x8b73c3c69bb8fe3d512ecc4cf759cc79239f7b179b0ffacaa9a75d522b39400f\n        /* \"https://github.com/Vectorized/solady/blob/main/src/tokens/ERC20.sol\":21941:21942  m */\n      dup2\n        /* \"https://github.com/Vectorized/solady/blob/main/src/tokens/ERC20.sol\":21934:21961  mstore(m, _DOMAIN_TYPEHASH) */\n      mstore\n        /* \"https://github.com/Vectorized/solady/blob/main/src/tokens/ERC20.sol\":21995:22003  nameHash */\n      dup3\n        /* \"https://github.com/Vectorized/solady/blob/main/src/tokens/ERC20.sol\":21988:21992  0x20 */\n      0x20\n        /* \"https://github.com/Vectorized/solady/blob/main/src/tokens/ERC20.sol\":21985:21986  m */\n      dup3\n        /* \"https://github.com/Vectorized/solady/blob/main/src/tokens/ERC20.sol\":21981:21993  add(m, 0x20) */\n      add\n        /* \"https://github.com/Vectorized/solady/blob/main/src/tokens/ERC20.sol\":21974:22004  mstore(add(m, 0x20), nameHash) */\n      mstore\n        /* \"https://github.com/Vectorized/solady/blob/main/src/tokens/ERC20.sol\":22038:22049  versionHash */\n      dup2\n        /* \"https://github.com/Vectorized/solady/blob/main/src/tokens/ERC20.sol\":22031:22035  0x40 */\n      0x40\n        /* \"https://github.com/Vectorized/solady/blob/main/src/tokens/ERC20.sol\":22028:22029  m */\n      dup3\n        /* \"https://github.com/Vectorized/solady/blob/main/src/tokens/ERC20.sol\":22024:22036  add(m, 0x40) */\n      add\n        /* \"https://github.com/Vectorized/solady/blob/main/src/tokens/ERC20.sol\":22017:22050  mstore(add(m, 0x40), versionHash) */\n      mstore\n        /* \"https://github.com/Vectorized/solady/blob/main/src/tokens/ERC20.sol\":22084:22093  chainid() */\n      chainid\n        /* \"https://github.com/Vectorized/solady/blob/main/src/tokens/ERC20.sol\":22077:22081  0x60 */\n      0x60\n        /* \"https://github.com/Vectorized/solady/blob/main/src/tokens/ERC20.sol\":22074:22075  m */\n      dup3\n        /* \"https://github.com/Vectorized/solady/blob/main/src/tokens/ERC20.sol\":22070:22082  add(m, 0x60) */\n      add\n        /* \"https://github.com/Vectorized/solady/blob/main/src/tokens/ERC20.sol\":22063:22094  mstore(add(m, 0x60), chainid()) */\n      mstore\n        /* \"https://github.com/Vectorized/solady/blob/main/src/tokens/ERC20.sol\":22128:22137  address() */\n      address\n        /* \"https://github.com/Vectorized/solady/blob/main/src/tokens/ERC20.sol\":22121:22125  0x80 */\n      0x80\n        /* \"https://github.com/Vectorized/solady/blob/main/src/tokens/ERC20.sol\":22118:22119  m */\n      dup3\n        /* \"https://github.com/Vectorized/solady/blob/main/src/tokens/ERC20.sol\":22114:22126  add(m, 0x80) */\n      add\n        /* \"https://github.com/Vectorized/solady/blob/main/src/tokens/ERC20.sol\":22107:22138  mstore(add(m, 0x80), address()) */\n      mstore\n        /* \"https://github.com/Vectorized/solady/blob/main/src/tokens/ERC20.sol\":22174:22178  0xa0 */\n      0xa0\n        /* \"https://github.com/Vectorized/solady/blob/main/src/tokens/ERC20.sol\":22171:22172  m */\n      dup2\n        /* \"https://github.com/Vectorized/solady/blob/main/src/tokens/ERC20.sol\":22161:22179  keccak256(m, 0xa0) */\n      keccak256\n        /* \"https://github.com/Vectorized/solady/blob/main/src/tokens/ERC20.sol\":22151:22179  result := keccak256(m, 0xa0) */\n      swap4\n      pop\n        /* \"https://github.com/Vectorized/solady/blob/main/src/tokens/ERC20.sol\":21854:22189  {... */\n      pop\n      pop\n      pop\n        /* \"https://github.com/Vectorized/solady/blob/main/src/tokens/ERC20.sol\":21458:22195  function DOMAIN_SEPARATOR() public view virtual returns (bytes32 result) {... */\n      swap1\n      jump\t// out\n        /* \"src/Guano.sol\":2847:2952  function maxDeposit(address receiver) external pure returns (uint) {... */\n    tag_90:\n        /* \"src/Guano.sol\":2908:2912  uint */\n      0x00\n        /* \"src/Guano.sol\":2932:2944  2 ** 256 - 1 */\n      0xffffffffffffffffffffffffffffffffffffffffffffffffffffffffffffffff\n        /* \"src/Guano.sol\":2925:2944  return 2 ** 256 - 1 */\n      swap1\n      pop\n        /* \"src/Guano.sol\":2847:2952  function maxDeposit(address receiver) external pure returns (uint) {... */\n      swap2\n      swap1\n      pop\n      jump\t// out\n        /* \"src/Guano.sol\":4588:4700  function previewRedeem(uint shares) public view returns (uint) {... */\n    tag_95:\n        /* \"src/Guano.sol\":4645:4649  uint */\n      0x00\n        /* \"src/Guano.sol\":4669:4692  convertToAssets(shares) */\n      tag_231\n        /* \"src/Guano.sol\":4685:4691  shares */\n      dup3\n        /* \"src/Guano.sol\":4669:4684  convertToAssets */\n      tag_44\n        /* \"src/Guano.sol\":4669:4692  convertToAssets(shares) */\n      jump\t// in\n    tag_231:\n        /* \"src/Guano.sol\":4662:4692  return convertToAssets(shares) */\n      swap1\n      pop\n        /* \"src/Guano.sol\":4588:4700  function previewRedeem(uint shares) public view returns (uint) {... */\n      swap2\n      swap1\n      pop\n      jump\t// out\n        /* \"src/Guano.sol\":3382:3785  function deposit(uint assets,address receiver) payable public returns (uint) {... */\n    tag_100:\n        /* \"src/Guano.sol\":3453:3457  uint */\n      0x00\n        /* \"src/Guano.sol\":3470:3481  uint shares */\n      0x00\n        /* \"src/Guano.sol\":3484:3509  previewDeposit(msg.value) */\n      tag_233\n        /* \"src/Guano.sol\":3499:3508  msg.value */\n      callvalue\n        /* \"src/Guano.sol\":3484:3498  previewDeposit */\n      tag_169\n        /* \"src/Guano.sol\":3484:3509  previewDeposit(msg.value) */\n      jump\t// in\n    tag_233:\n        /* \"src/Guano.sol\":3470:3509  uint shares = previewDeposit(msg.value) */\n      swap1\n      pop\n        /* \"src/Guano.sol\":3582:3588  shares */\n      dup1\n        /* \"src/Guano.sol\":3569:3580  totalMinted */\n      0x01\n      0x00\n        /* \"src/Guano.sol\":3569:3588  totalMinted+=shares */\n      dup3\n      dup3\n      sload\n      tag_234\n      swap2\n      swap1\n      tag_178\n      jump\t// in\n    tag_234:\n      swap3\n      pop\n      pop\n      dup2\n      swap1\n      sstore\n      pop\n        /* \"src/Guano.sol\":3615:3624  msg.value */\n      callvalue\n        /* \"src/Guano.sol\":3599:3613  totalDeposited */\n      0x02\n      0x00\n        /* \"src/Guano.sol\":3599:3624  totalDeposited+=msg.value */\n      dup3\n      dup3\n      sload\n      tag_235\n      swap2\n      swap1\n      tag_178\n      jump\t// in\n    tag_235:\n      swap3\n      pop\n      pop\n      dup2\n      swap1\n      sstore\n      pop\n        /* \"src/Guano.sol\":3635:3658  _mint(receiver, shares) */\n      tag_236\n        /* \"src/Guano.sol\":3641:3649  receiver */\n      dup4\n        /* \"src/Guano.sol\":3651:3657  shares */\n      dup3\n        /* \"src/Guano.sol\":3635:3640  _mint */\n      tag_237\n        /* \"src/Guano.sol\":3635:3658  _mint(receiver, shares) */\n      jump\t// in\n    tag_236:\n        /* \"src/Guano.sol\":3725:3733  receiver */\n      dup3\n        /* \"src/Guano.sol\":3706:3751  Deposit(msg.sender,receiver,msg.value,shares) */\n      0xffffffffffffffffffffffffffffffffffffffff\n      and\n        /* \"src/Guano.sol\":3714:3724  msg.sender */\n      caller\n        /* \"src/Guano.sol\":3706:3751  Deposit(msg.sender,receiver,msg.value,shares) */\n      0xffffffffffffffffffffffffffffffffffffffff\n      and\n      0xdcbc1c05240f31ff3ad067ef1ee35ce4997762752e3a095284754544f4c709d7\n        /* \"src/Guano.sol\":3734:3743  msg.value */\n      callvalue\n        /* \"src/Guano.sol\":3744:3750  shares */\n      dup5\n        /* \"src/Guano.sol\":3706:3751  Deposit(msg.sender,receiver,msg.value,shares) */\n      mload(0x40)\n      tag_238\n      swap3\n      swap2\n      swap1\n      tag_239\n      jump\t// in\n    tag_238:\n      mload(0x40)\n      dup1\n      swap2\n      sub\n      swap1\n      log3\n        /* \"src/Guano.sol\":3771:3777  shares */\n      dup1\n        /* \"src/Guano.sol\":3764:3777  return shares */\n      swap2\n      pop\n      pop\n        /* \"src/Guano.sol\":3382:3785  function deposit(uint assets,address receiver) payable public returns (uint) {... */\n      swap3\n      swap2\n      pop\n      pop\n      jump\t// out\n        /* \"https://github.com/Vectorized/solady/blob/main/src/tokens/ERC20.sol\":7168:7454  function balanceOf(address owner) public view virtual returns (uint256 result) {... */\n    tag_105:\n        /* \"https://github.com/Vectorized/solady/blob/main/src/tokens/ERC20.sol\":7231:7245  uint256 result */\n      0x00\n        /* \"https://github.com/Vectorized/solady/blob/main/src/tokens/ERC20.sol\":7336:7354  _BALANCE_SLOT_SEED */\n      0x87a211a2\n        /* \"https://github.com/Vectorized/solady/blob/main/src/tokens/ERC20.sol\":7330:7334  0x0c */\n      0x0c\n        /* \"https://github.com/Vectorized/solady/blob/main/src/tokens/ERC20.sol\":7323:7355  mstore(0x0c, _BALANCE_SLOT_SEED) */\n      mstore\n        /* \"https://github.com/Vectorized/solady/blob/main/src/tokens/ERC20.sol\":7381:7386  owner */\n      dup2\n        /* \"https://github.com/Vectorized/solady/blob/main/src/tokens/ERC20.sol\":7375:7379  0x00 */\n      0x00\n        /* \"https://github.com/Vectorized/solady/blob/main/src/tokens/ERC20.sol\":7368:7387  mstore(0x00, owner) */\n      mstore\n        /* \"https://github.com/Vectorized/solady/blob/main/src/tokens/ERC20.sol\":7432:7436  0x20 */\n      0x20\n        /* \"https://github.com/Vectorized/solady/blob/main/src/tokens/ERC20.sol\":7426:7430  0x0c */\n      0x0c\n        /* \"https://github.com/Vectorized/solady/blob/main/src/tokens/ERC20.sol\":7416:7437  keccak256(0x0c, 0x20) */\n      keccak256\n        /* \"https://github.com/Vectorized/solady/blob/main/src/tokens/ERC20.sol\":7410:7438  sload(keccak256(0x0c, 0x20)) */\n      sload\n        /* \"https://github.com/Vectorized/solady/blob/main/src/tokens/ERC20.sol\":7400:7438  result := sload(keccak256(0x0c, 0x20)) */\n      swap1\n      pop\n        /* \"https://github.com/Vectorized/solady/blob/main/src/tokens/ERC20.sol\":7168:7454  function balanceOf(address owner) public view virtual returns (uint256 result) {... */\n      swap2\n      swap1\n      pop\n      jump\t// out\n        /* \"@openzeppelin/contracts/access/Ownable.sol\":2293:2394  function renounceOwnership() public virtual onlyOwner {... */\n    tag_109:\n        /* \"@openzeppelin/contracts/access/Ownable.sol\":1531:1544  _checkOwner() */\n      tag_242\n        /* \"@openzeppelin/contracts/access/Ownable.sol\":1531:1542  _checkOwner */\n      tag_198\n        /* \"@openzeppelin/contracts/access/Ownable.sol\":1531:1544  _checkOwner() */\n      jump\t// in\n    tag_242:\n        /* \"@openzeppelin/contracts/access/Ownable.sol\":2357:2387  _transferOwnership(address(0)) */\n      tag_244\n        /* \"@openzeppelin/contracts/access/Ownable.sol\":2384:2385  0 */\n      0x00\n        /* \"@openzeppelin/contracts/access/Ownable.sol\":2357:2375  _transferOwnership */\n      tag_245\n        /* \"@openzeppelin/contracts/access/Ownable.sol\":2357:2387  _transferOwnership(address(0)) */\n      jump\t// in\n    tag_244:\n        /* \"@openzeppelin/contracts/access/Ownable.sol\":2293:2394  function renounceOwnership() public virtual onlyOwner {... */\n      jump\t// out\n        /* \"https://github.com/Vectorized/solady/blob/main/src/tokens/ERC20.sol\":17137:17477  function nonces(address owner) public view virtual returns (uint256 result) {... */\n    tag_113:\n        /* \"https://github.com/Vectorized/solady/blob/main/src/tokens/ERC20.sol\":17197:17211  uint256 result */\n      0x00\n        /* \"https://github.com/Vectorized/solady/blob/main/src/tokens/ERC20.sol\":17360:17377  _NONCES_SLOT_SEED */\n      0x38377508\n        /* \"https://github.com/Vectorized/solady/blob/main/src/tokens/ERC20.sol\":17354:17358  0x0c */\n      0x0c\n        /* \"https://github.com/Vectorized/solady/blob/main/src/tokens/ERC20.sol\":17347:17378  mstore(0x0c, _NONCES_SLOT_SEED) */\n      mstore\n        /* \"https://github.com/Vectorized/solady/blob/main/src/tokens/ERC20.sol\":17404:17409  owner */\n      dup2\n        /* \"https://github.com/Vectorized/solady/blob/main/src/tokens/ERC20.sol\":17398:17402  0x00 */\n      0x00\n        /* \"https://github.com/Vectorized/solady/blob/main/src/tokens/ERC20.sol\":17391:17410  mstore(0x00, owner) */\n      mstore\n        /* \"https://github.com/Vectorized/solady/blob/main/src/tokens/ERC20.sol\":17455:17459  0x20 */\n      0x20\n        /* \"https://github.com/Vectorized/solady/blob/main/src/tokens/ERC20.sol\":17449:17453  0x0c */\n      0x0c\n        /* \"https://github.com/Vectorized/solady/blob/main/src/tokens/ERC20.sol\":17439:17460  keccak256(0x0c, 0x20) */\n      keccak256\n        /* \"https://github.com/Vectorized/solady/blob/main/src/tokens/ERC20.sol\":17433:17461  sload(keccak256(0x0c, 0x20)) */\n      sload\n        /* \"https://github.com/Vectorized/solady/blob/main/src/tokens/ERC20.sol\":17423:17461  result := sload(keccak256(0x0c, 0x20)) */\n      swap1\n      pop\n        /* \"https://github.com/Vectorized/solady/blob/main/src/tokens/ERC20.sol\":17137:17477  function nonces(address owner) public view virtual returns (uint256 result) {... */\n      swap2\n      swap1\n      pop\n      jump\t// out\n        /* \"@openzeppelin/contracts/access/Ownable.sol\":1638:1723  function owner() public view virtual returns (address) {... */\n    tag_117:\n        /* \"@openzeppelin/contracts/access/Ownable.sol\":1684:1691  address */\n      0x00\n        /* \"@openzeppelin/contracts/access/Ownable.sol\":1710:1716  _owner */\n      0x00\n      0x00\n      swap1\n      sload\n      swap1\n      0x0100\n      exp\n      swap1\n      div\n      0xffffffffffffffffffffffffffffffffffffffff\n      and\n        /* \"@openzeppelin/contracts/access/Ownable.sol\":1703:1716  return _owner */\n      swap1\n      pop\n        /* \"@openzeppelin/contracts/access/Ownable.sol\":1638:1723  function owner() public view virtual returns (address) {... */\n      swap1\n      jump\t// out\n        /* \"src/Guano.sol\":2491:2586  function symbol() public pure override returns (string memory){... */\n    tag_122:\n        /* \"src/Guano.sol\":2539:2552  string memory */\n      0x60\n        /* \"src/Guano.sol\":2564:2578  return \"GUANO\" */\n      mload(0x40)\n      dup1\n      0x40\n      add\n      0x40\n      mstore\n      dup1\n      0x05\n      dup2\n      mstore\n      0x20\n      add\n      0x4755414e4f000000000000000000000000000000000000000000000000000000\n      dup2\n      mstore\n      pop\n      swap1\n      pop\n        /* \"src/Guano.sol\":2491:2586  function symbol() public pure override returns (string memory){... */\n      swap1\n      jump\t// out\n        /* \"https://github.com/Vectorized/solady/blob/main/src/tokens/ERC20.sol\":9391:10797  function transfer(address to, uint256 amount) public virtual returns (bool) {... */\n    tag_127:\n        /* \"https://github.com/Vectorized/solady/blob/main/src/tokens/ERC20.sol\":9461:9465  bool */\n      0x00\n        /* \"https://github.com/Vectorized/solady/blob/main/src/tokens/ERC20.sol\":9477:9521  _beforeTokenTransfer(msg.sender, to, amount) */\n      tag_250\n        /* \"https://github.com/Vectorized/solady/blob/main/src/tokens/ERC20.sol\":9498:9508  msg.sender */\n      caller\n        /* \"https://github.com/Vectorized/solady/blob/main/src/tokens/ERC20.sol\":9510:9512  to */\n      dup5\n        /* \"https://github.com/Vectorized/solady/blob/main/src/tokens/ERC20.sol\":9514:9520  amount */\n      dup5\n        /* \"https://github.com/Vectorized/solady/blob/main/src/tokens/ERC20.sol\":9477:9497  _beforeTokenTransfer */\n      tag_208\n        /* \"https://github.com/Vectorized/solady/blob/main/src/tokens/ERC20.sol\":9477:9521  _beforeTokenTransfer(msg.sender, to, amount) */\n      jump\t// in\n    tag_250:\n        /* \"https://github.com/Vectorized/solady/blob/main/src/tokens/ERC20.sol\":9670:9688  _BALANCE_SLOT_SEED */\n      0x87a211a2\n        /* \"https://github.com/Vectorized/solady/blob/main/src/tokens/ERC20.sol\":9664:9668  0x0c */\n      0x0c\n        /* \"https://github.com/Vectorized/solady/blob/main/src/tokens/ERC20.sol\":9657:9689  mstore(0x0c, _BALANCE_SLOT_SEED) */\n      mstore\n        /* \"https://github.com/Vectorized/solady/blob/main/src/tokens/ERC20.sol\":9715:9723  caller() */\n      caller\n        /* \"https://github.com/Vectorized/solady/blob/main/src/tokens/ERC20.sol\":9709:9713  0x00 */\n      0x00\n        /* \"https://github.com/Vectorized/solady/blob/main/src/tokens/ERC20.sol\":9702:9724  mstore(0x00, caller()) */\n      mstore\n        /* \"https://github.com/Vectorized/solady/blob/main/src/tokens/ERC20.sol\":9776:9780  0x20 */\n      0x20\n        /* \"https://github.com/Vectorized/solady/blob/main/src/tokens/ERC20.sol\":9770:9774  0x0c */\n      0x0c\n        /* \"https://github.com/Vectorized/solady/blob/main/src/tokens/ERC20.sol\":9760:9781  keccak256(0x0c, 0x20) */\n      keccak256\n        /* \"https://github.com/Vectorized/solady/blob/main/src/tokens/ERC20.sol\":9819:9834  fromBalanceSlot */\n      dup1\n        /* \"https://github.com/Vectorized/solady/blob/main/src/tokens/ERC20.sol\":9813:9835  sload(fromBalanceSlot) */\n      sload\n        /* \"https://github.com/Vectorized/solady/blob/main/src/tokens/ERC20.sol\":9909:9920  fromBalance */\n      dup1\n        /* \"https://github.com/Vectorized/solady/blob/main/src/tokens/ERC20.sol\":9901:9907  amount */\n      dup5\n        /* \"https://github.com/Vectorized/solady/blob/main/src/tokens/ERC20.sol\":9898:9921  gt(amount, fromBalance) */\n      gt\n        /* \"https://github.com/Vectorized/solady/blob/main/src/tokens/ERC20.sol\":9895:10041  if gt(amount, fromBalance) {... */\n      iszero\n      tag_251\n      jumpi\n        /* \"https://github.com/Vectorized/solady/blob/main/src/tokens/ERC20.sol\":9953:9963  0xf4d678b8 */\n      0xf4d678b8\n        /* \"https://github.com/Vectorized/solady/blob/main/src/tokens/ERC20.sol\":9947:9951  0x00 */\n      0x00\n        /* \"https://github.com/Vectorized/solady/blob/main/src/tokens/ERC20.sol\":9940:9964  mstore(0x00, 0xf4d678b8) */\n      mstore\n        /* \"https://github.com/Vectorized/solady/blob/main/src/tokens/ERC20.sol\":10022:10026  0x04 */\n      0x04\n        /* \"https://github.com/Vectorized/solady/blob/main/src/tokens/ERC20.sol\":10016:10020  0x1c */\n      0x1c\n        /* \"https://github.com/Vectorized/solady/blob/main/src/tokens/ERC20.sol\":10009:10027  revert(0x1c, 0x04) */\n      revert\n        /* \"https://github.com/Vectorized/solady/blob/main/src/tokens/ERC20.sol\":9895:10041  if gt(amount, fromBalance) {... */\n    tag_251:\n        /* \"https://github.com/Vectorized/solady/blob/main/src/tokens/ERC20.sol\":10150:10156  amount */\n      dup4\n        /* \"https://github.com/Vectorized/solady/blob/main/src/tokens/ERC20.sol\":10137:10148  fromBalance */\n      dup2\n        /* \"https://github.com/Vectorized/solady/blob/main/src/tokens/ERC20.sol\":10133:10157  sub(fromBalance, amount) */\n      sub\n        /* \"https://github.com/Vectorized/solady/blob/main/src/tokens/ERC20.sol\":10116:10131  fromBalanceSlot */\n      dup3\n        /* \"https://github.com/Vectorized/solady/blob/main/src/tokens/ERC20.sol\":10109:10158  sstore(fromBalanceSlot, sub(fromBalance, amount)) */\n      sstore\n        /* \"https://github.com/Vectorized/solady/blob/main/src/tokens/ERC20.sol\":10233:10235  to */\n      dup5\n        /* \"https://github.com/Vectorized/solady/blob/main/src/tokens/ERC20.sol\":10227:10231  0x00 */\n      0x00\n        /* \"https://github.com/Vectorized/solady/blob/main/src/tokens/ERC20.sol\":10220:10236  mstore(0x00, to) */\n      mstore\n        /* \"https://github.com/Vectorized/solady/blob/main/src/tokens/ERC20.sol\":10286:10290  0x20 */\n      0x20\n        /* \"https://github.com/Vectorized/solady/blob/main/src/tokens/ERC20.sol\":10280:10284  0x0c */\n      0x0c\n        /* \"https://github.com/Vectorized/solady/blob/main/src/tokens/ERC20.sol\":10270:10291  keccak256(0x0c, 0x20) */\n      keccak256\n        /* \"https://github.com/Vectorized/solady/blob/main/src/tokens/ERC20.sol\":10536:10542  amount */\n      dup5\n        /* \"https://github.com/Vectorized/solady/blob/main/src/tokens/ERC20.sol\":10520:10533  toBalanceSlot */\n      dup2\n        /* \"https://github.com/Vectorized/solady/blob/main/src/tokens/ERC20.sol\":10514:10534  sload(toBalanceSlot) */\n      sload\n        /* \"https://github.com/Vectorized/solady/blob/main/src/tokens/ERC20.sol\":10510:10543  add(sload(toBalanceSlot), amount) */\n      add\n        /* \"https://github.com/Vectorized/solady/blob/main/src/tokens/ERC20.sol\":10495:10508  toBalanceSlot */\n      dup2\n        /* \"https://github.com/Vectorized/solady/blob/main/src/tokens/ERC20.sol\":10488:10544  sstore(toBalanceSlot, add(sload(toBalanceSlot), amount)) */\n      sstore\n        /* \"https://github.com/Vectorized/solady/blob/main/src/tokens/ERC20.sol\":10612:10618  amount */\n      dup5\n        /* \"https://github.com/Vectorized/solady/blob/main/src/tokens/ERC20.sol\":10606:10610  0x20 */\n      0x20\n        /* \"https://github.com/Vectorized/solady/blob/main/src/tokens/ERC20.sol\":10599:10619  mstore(0x20, amount) */\n      mstore\n        /* \"https://github.com/Vectorized/solady/blob/main/src/tokens/ERC20.sol\":10700:10704  0x0c */\n      0x0c\n        /* \"https://github.com/Vectorized/solady/blob/main/src/tokens/ERC20.sol\":10694:10705  mload(0x0c) */\n      mload\n        /* \"https://github.com/Vectorized/solady/blob/main/src/tokens/ERC20.sol\":10690:10692  96 */\n      0x60\n        /* \"https://github.com/Vectorized/solady/blob/main/src/tokens/ERC20.sol\":10686:10706  shr(96, mload(0x0c)) */\n      shr\n        /* \"https://github.com/Vectorized/solady/blob/main/src/tokens/ERC20.sol\":10676:10684  caller() */\n      caller\n        /* \"https://github.com/Vectorized/solady/blob/main/src/tokens/ERC20.sol\":10649:10674  _TRANSFER_EVENT_SIGNATURE */\n      0xddf252ad1be2c89b69c2b068fc378daa952ba7f163c4a11628f55a4df523b3ef\n        /* \"https://github.com/Vectorized/solady/blob/main/src/tokens/ERC20.sol\":10643:10647  0x20 */\n      0x20\n        /* \"https://github.com/Vectorized/solady/blob/main/src/tokens/ERC20.sol\":10637:10641  0x20 */\n      dup1\n        /* \"https://github.com/Vectorized/solady/blob/main/src/tokens/ERC20.sol\":10632:10707  log3(0x20, 0x20, _TRANSFER_EVENT_SIGNATURE, caller(), shr(96, mload(0x0c))) */\n      log3\n        /* \"https://github.com/Vectorized/solady/blob/main/src/tokens/ERC20.sol\":9583:10717  {... */\n      pop\n      pop\n      pop\n        /* \"https://github.com/Vectorized/solady/blob/main/src/tokens/ERC20.sol\":10726:10769  _afterTokenTransfer(msg.sender, to, amount) */\n      tag_252\n        /* \"https://github.com/Vectorized/solady/blob/main/src/tokens/ERC20.sol\":10746:10756  msg.sender */\n      caller\n        /* \"https://github.com/Vectorized/solady/blob/main/src/tokens/ERC20.sol\":10758:10760  to */\n      dup5\n        /* \"https://github.com/Vectorized/solady/blob/main/src/tokens/ERC20.sol\":10762:10768  amount */\n      dup5\n        /* \"https://github.com/Vectorized/solady/blob/main/src/tokens/ERC20.sol\":10726:10745  _afterTokenTransfer */\n      tag_220\n        /* \"https://github.com/Vectorized/solady/blob/main/src/tokens/ERC20.sol\":10726:10769  _afterTokenTransfer(msg.sender, to, amount) */\n      jump\t// in\n    tag_252:\n        /* \"https://github.com/Vectorized/solady/blob/main/src/tokens/ERC20.sol\":10786:10790  true */\n      0x01\n        /* \"https://github.com/Vectorized/solady/blob/main/src/tokens/ERC20.sol\":10779:10790  return true */\n      swap1\n      pop\n        /* \"https://github.com/Vectorized/solady/blob/main/src/tokens/ERC20.sol\":9391:10797  function transfer(address to, uint256 amount) public virtual returns (bool) {... */\n      swap3\n      swap2\n      pop\n      pop\n      jump\t// out\n        /* \"src/Guano.sol\":4708:5367  function redeem(uint shares, address receiver,address owner) public returns (uint) {... */\n    tag_133:\n        /* \"src/Guano.sol\":4785:4789  uint */\n      0x00\n        /* \"src/Guano.sol\":4802:4813  uint assets */\n      0x00\n        /* \"src/Guano.sol\":4816:4837  previewRedeem(shares) */\n      tag_254\n        /* \"src/Guano.sol\":4830:4836  shares */\n      dup6\n        /* \"src/Guano.sol\":4816:4829  previewRedeem */\n      tag_95\n        /* \"src/Guano.sol\":4816:4837  previewRedeem(shares) */\n      jump\t// in\n    tag_254:\n        /* \"src/Guano.sol\":4802:4837  uint assets = previewRedeem(shares) */\n      swap1\n      pop\n        /* \"src/Guano.sol\":4885:4890  owner */\n      dup3\n        /* \"src/Guano.sol\":4873:4890  msg.sender!=owner */\n      0xffffffffffffffffffffffffffffffffffffffff\n      and\n        /* \"src/Guano.sol\":4873:4883  msg.sender */\n      caller\n        /* \"src/Guano.sol\":4873:4890  msg.sender!=owner */\n      0xffffffffffffffffffffffffffffffffffffffff\n      and\n      eq\n        /* \"src/Guano.sol\":4870:4934  if(msg.sender!=owner) _spendAllowance(owner, msg.sender, shares) */\n      tag_255\n      jumpi\n        /* \"src/Guano.sol\":4892:4934  _spendAllowance(owner, msg.sender, shares) */\n      tag_256\n        /* \"src/Guano.sol\":4908:4913  owner */\n      dup4\n        /* \"src/Guano.sol\":4915:4925  msg.sender */\n      caller\n        /* \"src/Guano.sol\":4927:4933  shares */\n      dup8\n        /* \"src/Guano.sol\":4892:4907  _spendAllowance */\n      tag_257\n        /* \"src/Guano.sol\":4892:4934  _spendAllowance(owner, msg.sender, shares) */\n      jump\t// in\n    tag_256:\n        /* \"src/Guano.sol\":4870:4934  if(msg.sender!=owner) _spendAllowance(owner, msg.sender, shares) */\n    tag_255:\n        /* \"src/Guano.sol\":4985:4991  shares */\n      dup5\n        /* \"src/Guano.sol\":4970:4983  totalRedeemed */\n      0x03\n      0x00\n        /* \"src/Guano.sol\":4970:4991  totalRedeemed+=shares */\n      dup3\n      dup3\n      sload\n      tag_258\n      swap2\n      swap1\n      tag_178\n      jump\t// in\n    tag_258:\n      swap3\n      pop\n      pop\n      dup2\n      swap1\n      sstore\n      pop\n        /* \"src/Guano.sol\":5018:5024  assets */\n      dup1\n        /* \"src/Guano.sol\":5002:5016  totalWithdrawn */\n      0x04\n      0x00\n        /* \"src/Guano.sol\":5002:5024  totalWithdrawn+=assets */\n      dup3\n      dup3\n      sload\n      tag_259\n      swap2\n      swap1\n      tag_178\n      jump\t// in\n    tag_259:\n      swap3\n      pop\n      pop\n      dup2\n      swap1\n      sstore\n      pop\n        /* \"src/Guano.sol\":5035:5054  _burn(owner,shares) */\n      tag_260\n        /* \"src/Guano.sol\":5041:5046  owner */\n      dup4\n        /* \"src/Guano.sol\":5047:5053  shares */\n      dup7\n        /* \"src/Guano.sol\":5035:5040  _burn */\n      tag_261\n        /* \"src/Guano.sol\":5035:5054  _burn(owner,shares) */\n      jump\t// in\n    tag_260:\n        /* \"src/Guano.sol\":5191:5203  bool success */\n      0x00\n        /* \"src/Guano.sol\":5208:5216  receiver */\n      dup5\n        /* \"src/Guano.sol\":5208:5221  receiver.call */\n      0xffffffffffffffffffffffffffffffffffffffff\n      and\n        /* \"src/Guano.sol\":5228:5234  assets */\n      dup3\n        /* \"src/Guano.sol\":5208:5239  receiver.call{value:assets}(\"\") */\n      mload(0x40)\n      tag_262\n      swap1\n      tag_263\n      jump\t// in\n    tag_262:\n      0x00\n      mload(0x40)\n      dup1\n      dup4\n      sub\n      dup2\n      dup6\n      dup8\n      gas\n      call\n      swap3\n      pop\n      pop\n      pop\n      returndatasize\n      dup1\n      0x00\n      dup2\n      eq\n      tag_266\n      jumpi\n      mload(0x40)\n      swap2\n      pop\n      and(add(returndatasize, 0x3f), not(0x1f))\n      dup3\n      add\n      0x40\n      mstore\n      returndatasize\n      dup3\n      mstore\n      returndatasize\n      0x00\n      0x20\n      dup5\n      add\n      returndatacopy\n      jump(tag_265)\n    tag_266:\n      0x60\n      swap2\n      pop\n    tag_265:\n      pop\n        /* \"src/Guano.sol\":5190:5239  (bool success,) = receiver.call{value:assets}(\"\") */\n      pop\n      swap1\n      pop\n        /* \"src/Guano.sol\":5258:5265  success */\n      dup1\n        /* \"src/Guano.sol\":5250:5266  require(success) */\n      tag_267\n      jumpi\n      revert(0x00, 0x00)\n    tag_267:\n        /* \"src/Guano.sol\":5313:5318  owner */\n      dup4\n        /* \"src/Guano.sol\":5284:5333  Withdraw(msg.sender,receiver,owner,assets,shares) */\n      0xffffffffffffffffffffffffffffffffffffffff\n      and\n        /* \"src/Guano.sol\":5304:5312  receiver */\n      dup6\n        /* \"src/Guano.sol\":5284:5333  Withdraw(msg.sender,receiver,owner,assets,shares) */\n      0xffffffffffffffffffffffffffffffffffffffff\n      and\n        /* \"src/Guano.sol\":5293:5303  msg.sender */\n      caller\n        /* \"src/Guano.sol\":5284:5333  Withdraw(msg.sender,receiver,owner,assets,shares) */\n      0xffffffffffffffffffffffffffffffffffffffff\n      and\n      0xfbde797d201c681b91056529119e0b02407c7bb96a4a2c75c01fc9667232c8db\n        /* \"src/Guano.sol\":5319:5325  assets */\n      dup6\n        /* \"src/Guano.sol\":5326:5332  shares */\n      dup11\n        /* \"src/Guano.sol\":5284:5333  Withdraw(msg.sender,receiver,owner,assets,shares) */\n      mload(0x40)\n      tag_268\n      swap3\n      swap2\n      swap1\n      tag_239\n      jump\t// in\n    tag_268:\n      mload(0x40)\n      dup1\n      swap2\n      sub\n      swap1\n      log4\n        /* \"src/Guano.sol\":5353:5359  assets */\n      dup2\n        /* \"src/Guano.sol\":5346:5359  return assets */\n      swap3\n      pop\n      pop\n      pop\n        /* \"src/Guano.sol\":4708:5367  function redeem(uint shares, address receiver,address owner) public returns (uint) {... */\n      swap4\n      swap3\n      pop\n      pop\n      pop\n      jump\t// out\n        /* \"src/Guano.sol\":2698:2839  function maxMint(address receiver) public view returns (uint) {... */\n    tag_138:\n        /* \"src/Guano.sol\":2754:2758  uint */\n      0x00\n        /* \"src/Guano.sol\":2820:2831  totalMinted */\n      sload(0x01)\n        /* \"src/Guano.sol\":1515:1523  24 hours */\n      0x015180\n        /* \"src/Guano.sol\":1499:1507  .2 ether */\n      0x02c68af0bb140000\n        /* \"src/Guano.sol\":1499:1524  .2 ether / uint(24 hours) */\n      tag_270\n      swap2\n      swap1\n      tag_183\n      jump\t// in\n    tag_270:\n        /* \"src/Guano.sol\":2797:2804  created */\n      immutable(\"0x0227f622f4eada773ae6f97af92d6534c94b72b7108fbd4b2bf2fecdd9a0faeb\")\n        /* \"src/Guano.sol\":2779:2794  block.timestamp */\n      timestamp\n        /* \"src/Guano.sol\":2779:2804  block.timestamp - created */\n      tag_271\n      swap2\n      swap1\n      tag_194\n      jump\t// in\n    tag_271:\n        /* \"src/Guano.sol\":2778:2817  (block.timestamp - created) * MINT_RATE */\n      tag_272\n      swap2\n      swap1\n      tag_181\n      jump\t// in\n    tag_272:\n        /* \"src/Guano.sol\":2778:2831  (block.timestamp - created) * MINT_RATE - totalMinted */\n      tag_273\n      swap2\n      swap1\n      tag_194\n      jump\t// in\n    tag_273:\n        /* \"src/Guano.sol\":2771:2831  return (block.timestamp - created) * MINT_RATE - totalMinted */\n      swap1\n      pop\n        /* \"src/Guano.sol\":2698:2839  function maxMint(address receiver) public view returns (uint) {... */\n      swap2\n      swap1\n      pop\n      jump\t// out\n        /* \"src/Guano.sol\":2964:3111  function convertToShares(uint assets) public view returns (uint) {... */\n    tag_143:\n        /* \"src/Guano.sol\":3023:3027  uint */\n      0x00\n        /* \"src/Guano.sol\":3096:3102  assets */\n      dup2\n        /* \"src/Guano.sol\":3079:3093  totalDeposited */\n      sload(0x02)\n        /* \"src/Guano.sol\":3079:3102  totalDeposited + assets */\n      tag_275\n      swap2\n      swap1\n      tag_178\n      jump\t// in\n    tag_275:\n        /* \"src/Guano.sol\":3056:3075  maxMint(msg.sender) */\n      tag_276\n        /* \"src/Guano.sol\":3064:3074  msg.sender */\n      caller\n        /* \"src/Guano.sol\":3056:3063  maxMint */\n      tag_138\n        /* \"src/Guano.sol\":3056:3075  maxMint(msg.sender) */\n      jump\t// in\n    tag_276:\n        /* \"src/Guano.sol\":3047:3053  assets */\n      dup4\n        /* \"src/Guano.sol\":3047:3075  assets * maxMint(msg.sender) */\n      tag_277\n      swap2\n      swap1\n      tag_181\n      jump\t// in\n    tag_277:\n        /* \"src/Guano.sol\":3047:3103  assets * maxMint(msg.sender) / (totalDeposited + assets) */\n      tag_278\n      swap2\n      swap1\n      tag_183\n      jump\t// in\n    tag_278:\n        /* \"src/Guano.sol\":3040:3103  return assets * maxMint(msg.sender) / (totalDeposited + assets) */\n      swap1\n      pop\n        /* \"src/Guano.sol\":2964:3111  function convertToShares(uint assets) public view returns (uint) {... */\n      swap2\n      swap1\n      pop\n      jump\t// out\n        /* \"src/Guano.sol\":3867:4016  function maxWithdraw(address owner) public view returns (uint) {... */\n    tag_148:\n        /* \"src/Guano.sol\":3924:3928  uint */\n      0x00\n        /* \"src/Guano.sol\":3994:4008  totalWithdrawn */\n      sload(0x04)\n        /* \"src/Guano.sol\":1590:1598  24 hours */\n      0x015180\n        /* \"src/Guano.sol\":1574:1582  .1 ether */\n      0x016345785d8a0000\n        /* \"src/Guano.sol\":1574:1599  .1 ether / uint(24 hours) */\n      tag_280\n      swap2\n      swap1\n      tag_183\n      jump\t// in\n    tag_280:\n        /* \"src/Guano.sol\":3967:3974  created */\n      immutable(\"0x0227f622f4eada773ae6f97af92d6534c94b72b7108fbd4b2bf2fecdd9a0faeb\")\n        /* \"src/Guano.sol\":3949:3964  block.timestamp */\n      timestamp\n        /* \"src/Guano.sol\":3949:3974  block.timestamp - created */\n      tag_281\n      swap2\n      swap1\n      tag_194\n      jump\t// in\n    tag_281:\n        /* \"src/Guano.sol\":3948:3991  (block.timestamp - created) * WITHDRAW_RATE */\n      tag_282\n      swap2\n      swap1\n      tag_181\n      jump\t// in\n    tag_282:\n        /* \"src/Guano.sol\":3948:4008  (block.timestamp - created) * WITHDRAW_RATE - totalWithdrawn */\n      tag_283\n      swap2\n      swap1\n      tag_194\n      jump\t// in\n    tag_283:\n        /* \"src/Guano.sol\":3941:4008  return (block.timestamp - created) * WITHDRAW_RATE - totalWithdrawn */\n      swap1\n      pop\n        /* \"src/Guano.sol\":3867:4016  function maxWithdraw(address owner) public view returns (uint) {... */\n      swap2\n      swap1\n      pop\n      jump\t// out\n        /* \"https://github.com/Vectorized/solady/blob/main/src/tokens/ERC20.sol\":17661:21377  function permit(... */\n    tag_154:\n        /* \"https://github.com/Vectorized/solady/blob/main/src/tokens/ERC20.sol\":17864:17895  _givePermit2InfiniteAllowance() */\n      tag_285\n        /* \"https://github.com/Vectorized/solady/blob/main/src/tokens/ERC20.sol\":17864:17893  _givePermit2InfiniteAllowance */\n      tag_187\n        /* \"https://github.com/Vectorized/solady/blob/main/src/tokens/ERC20.sol\":17864:17895  _givePermit2InfiniteAllowance() */\n      jump\t// in\n    tag_285:\n        /* \"https://github.com/Vectorized/solady/blob/main/src/tokens/ERC20.sol\":17860:18305  if (_givePermit2InfiniteAllowance()) {... */\n      iszero\n      tag_286\n      jumpi\n        /* \"https://github.com/Vectorized/solady/blob/main/src/tokens/ERC20.sol\":18126:18131  value */\n      dup5\n        /* \"https://github.com/Vectorized/solady/blob/main/src/tokens/ERC20.sol\":18122:18132  not(value) */\n      not\n        /* \"https://github.com/Vectorized/solady/blob/main/src/tokens/ERC20.sol\":18115:18133  iszero(not(value)) */\n      iszero\n        /* \"https://github.com/Vectorized/solady/blob/main/src/tokens/ERC20.sol\":18104:18112  _PERMIT2 */\n      0x22d473030f116ddee9f6b43ac78ba3\n        /* \"https://github.com/Vectorized/solady/blob/main/src/tokens/ERC20.sol\":18093:18100  spender */\n      dup8\n        /* \"https://github.com/Vectorized/solady/blob/main/src/tokens/ERC20.sol\":18089:18091  96 */\n      0x60\n        /* \"https://github.com/Vectorized/solady/blob/main/src/tokens/ERC20.sol\":18085:18101  shl(96, spender) */\n      shl\n        /* \"https://github.com/Vectorized/solady/blob/main/src/tokens/ERC20.sol\":18081:18083  96 */\n      0x60\n        /* \"https://github.com/Vectorized/solady/blob/main/src/tokens/ERC20.sol\":18077:18102  shr(96, shl(96, spender)) */\n      shr\n        /* \"https://github.com/Vectorized/solady/blob/main/src/tokens/ERC20.sol\":18073:18113  xor(shr(96, shl(96, spender)), _PERMIT2) */\n      xor\n        /* \"https://github.com/Vectorized/solady/blob/main/src/tokens/ERC20.sol\":18070:18134  or(xor(shr(96, shl(96, spender)), _PERMIT2), iszero(not(value))) */\n      or\n        /* \"https://github.com/Vectorized/solady/blob/main/src/tokens/ERC20.sol\":18060:18281  if iszero(or(xor(shr(96, shl(96, spender)), _PERMIT2), iszero(not(value)))) {... */\n      tag_287\n      jumpi\n        /* \"https://github.com/Vectorized/solady/blob/main/src/tokens/ERC20.sol\":18171:18181  0x3f68539a */\n      0x3f68539a\n        /* \"https://github.com/Vectorized/solady/blob/main/src/tokens/ERC20.sol\":18165:18169  0x00 */\n      0x00\n        /* \"https://github.com/Vectorized/solady/blob/main/src/tokens/ERC20.sol\":18158:18182  mstore(0x00, 0x3f68539a) */\n      mstore\n        /* \"https://github.com/Vectorized/solady/blob/main/src/tokens/ERC20.sol\":18258:18262  0x04 */\n      0x04\n        /* \"https://github.com/Vectorized/solady/blob/main/src/tokens/ERC20.sol\":18252:18256  0x1c */\n      0x1c\n        /* \"https://github.com/Vectorized/solady/blob/main/src/tokens/ERC20.sol\":18245:18263  revert(0x1c, 0x04) */\n      revert\n        /* \"https://github.com/Vectorized/solady/blob/main/src/tokens/ERC20.sol\":18060:18281  if iszero(or(xor(shr(96, shl(96, spender)), _PERMIT2), iszero(not(value)))) {... */\n    tag_287:\n        /* \"https://github.com/Vectorized/solady/blob/main/src/tokens/ERC20.sol\":17860:18305  if (_givePermit2InfiniteAllowance()) {... */\n    tag_286:\n        /* \"https://github.com/Vectorized/solady/blob/main/src/tokens/ERC20.sol\":18314:18330  bytes32 nameHash */\n      0x00\n        /* \"https://github.com/Vectorized/solady/blob/main/src/tokens/ERC20.sol\":18333:18352  _constantNameHash() */\n      tag_288\n        /* \"https://github.com/Vectorized/solady/blob/main/src/tokens/ERC20.sol\":18333:18350  _constantNameHash */\n      tag_224\n        /* \"https://github.com/Vectorized/solady/blob/main/src/tokens/ERC20.sol\":18333:18352  _constantNameHash() */\n      jump\t// in\n    tag_288:\n        /* \"https://github.com/Vectorized/solady/blob/main/src/tokens/ERC20.sol\":18314:18352  bytes32 nameHash = _constantNameHash() */\n      swap1\n      pop\n        /* \"https://github.com/Vectorized/solady/blob/main/src/tokens/ERC20.sol\":18480:18481  0 */\n      0x00\n        /* \"https://github.com/Vectorized/solady/blob/main/src/tokens/ERC20.sol\":18472:18482  bytes32(0) */\n      0x00\n      shl\n        /* \"https://github.com/Vectorized/solady/blob/main/src/tokens/ERC20.sol\":18460:18468  nameHash */\n      dup2\n        /* \"https://github.com/Vectorized/solady/blob/main/src/tokens/ERC20.sol\":18460:18482  nameHash == bytes32(0) */\n      sub\n        /* \"https://github.com/Vectorized/solady/blob/main/src/tokens/ERC20.sol\":18456:18519  if (nameHash == bytes32(0)) nameHash = keccak256(bytes(name())) */\n      tag_289\n      jumpi\n        /* \"https://github.com/Vectorized/solady/blob/main/src/tokens/ERC20.sol\":18511:18517  name() */\n      tag_290\n        /* \"https://github.com/Vectorized/solady/blob/main/src/tokens/ERC20.sol\":18511:18515  name */\n      tag_37\n        /* \"https://github.com/Vectorized/solady/blob/main/src/tokens/ERC20.sol\":18511:18517  name() */\n      jump\t// in\n    tag_290:\n        /* \"https://github.com/Vectorized/solady/blob/main/src/tokens/ERC20.sol\":18495:18519  keccak256(bytes(name())) */\n      dup1\n      mload\n      swap1\n      0x20\n      add\n      keccak256\n        /* \"https://github.com/Vectorized/solady/blob/main/src/tokens/ERC20.sol\":18484:18519  nameHash = keccak256(bytes(name())) */\n      swap1\n      pop\n        /* \"https://github.com/Vectorized/solady/blob/main/src/tokens/ERC20.sol\":18456:18519  if (nameHash == bytes32(0)) nameHash = keccak256(bytes(name())) */\n    tag_289:\n        /* \"https://github.com/Vectorized/solady/blob/main/src/tokens/ERC20.sol\":18529:18548  bytes32 versionHash */\n      0x00\n        /* \"https://github.com/Vectorized/solady/blob/main/src/tokens/ERC20.sol\":18551:18565  _versionHash() */\n      tag_291\n        /* \"https://github.com/Vectorized/solady/blob/main/src/tokens/ERC20.sol\":18551:18563  _versionHash */\n      tag_228\n        /* \"https://github.com/Vectorized/solady/blob/main/src/tokens/ERC20.sol\":18551:18565  _versionHash() */\n      jump\t// in\n    tag_291:\n        /* \"https://github.com/Vectorized/solady/blob/main/src/tokens/ERC20.sol\":18529:18565  bytes32 versionHash = _versionHash() */\n      swap1\n      pop\n        /* \"https://github.com/Vectorized/solady/blob/main/src/tokens/ERC20.sol\":18733:18741  deadline */\n      dup6\n        /* \"https://github.com/Vectorized/solady/blob/main/src/tokens/ERC20.sol\":18720:18731  timestamp() */\n      timestamp\n        /* \"https://github.com/Vectorized/solady/blob/main/src/tokens/ERC20.sol\":18717:18742  gt(timestamp(), deadline) */\n      gt\n        /* \"https://github.com/Vectorized/solady/blob/main/src/tokens/ERC20.sol\":18714:18856  if gt(timestamp(), deadline) {... */\n      iszero\n      tag_292\n      jumpi\n        /* \"https://github.com/Vectorized/solady/blob/main/src/tokens/ERC20.sol\":18774:18784  0x1a15a3cc */\n      0x1a15a3cc\n        /* \"https://github.com/Vectorized/solady/blob/main/src/tokens/ERC20.sol\":18768:18772  0x00 */\n      0x00\n        /* \"https://github.com/Vectorized/solady/blob/main/src/tokens/ERC20.sol\":18761:18785  mstore(0x00, 0x1a15a3cc) */\n      mstore\n        /* \"https://github.com/Vectorized/solady/blob/main/src/tokens/ERC20.sol\":18837:18841  0x04 */\n      0x04\n        /* \"https://github.com/Vectorized/solady/blob/main/src/tokens/ERC20.sol\":18831:18835  0x1c */\n      0x1c\n        /* \"https://github.com/Vectorized/solady/blob/main/src/tokens/ERC20.sol\":18824:18842  revert(0x1c, 0x04) */\n      revert\n        /* \"https://github.com/Vectorized/solady/blob/main/src/tokens/ERC20.sol\":18714:18856  if gt(timestamp(), deadline) {... */\n    tag_292:\n        /* \"https://github.com/Vectorized/solady/blob/main/src/tokens/ERC20.sol\":18884:18888  0x40 */\n      0x40\n        /* \"https://github.com/Vectorized/solady/blob/main/src/tokens/ERC20.sol\":18878:18889  mload(0x40) */\n      mload\n        /* \"https://github.com/Vectorized/solady/blob/main/src/tokens/ERC20.sol\":19000:19005  owner */\n      dup10\n        /* \"https://github.com/Vectorized/solady/blob/main/src/tokens/ERC20.sol\":18996:18998  96 */\n      0x60\n        /* \"https://github.com/Vectorized/solady/blob/main/src/tokens/ERC20.sol\":18992:19006  shl(96, owner) */\n      shl\n        /* \"https://github.com/Vectorized/solady/blob/main/src/tokens/ERC20.sol\":18988:18990  96 */\n      0x60\n        /* \"https://github.com/Vectorized/solady/blob/main/src/tokens/ERC20.sol\":18984:19007  shr(96, shl(96, owner)) */\n      shr\n        /* \"https://github.com/Vectorized/solady/blob/main/src/tokens/ERC20.sol\":18975:19007  owner := shr(96, shl(96, owner)) */\n      swap10\n      pop\n        /* \"https://github.com/Vectorized/solady/blob/main/src/tokens/ERC20.sol\":19047:19054  spender */\n      dup9\n        /* \"https://github.com/Vectorized/solady/blob/main/src/tokens/ERC20.sol\":19043:19045  96 */\n      0x60\n        /* \"https://github.com/Vectorized/solady/blob/main/src/tokens/ERC20.sol\":19039:19055  shl(96, spender) */\n      shl\n        /* \"https://github.com/Vectorized/solady/blob/main/src/tokens/ERC20.sol\":19035:19037  96 */\n      0x60\n        /* \"https://github.com/Vectorized/solady/blob/main/src/tokens/ERC20.sol\":19031:19056  shr(96, shl(96, spender)) */\n      shr\n        /* \"https://github.com/Vectorized/solady/blob/main/src/tokens/ERC20.sol\":19020:19056  spender := shr(96, shl(96, spender)) */\n      swap9\n      pop\n        /* \"https://github.com/Vectorized/solady/blob/main/src/tokens/ERC20.sol\":19140:19179  _NONCES_SLOT_SEED_WITH_SIGNATURE_PREFIX */\n      0x383775081901\n        /* \"https://github.com/Vectorized/solady/blob/main/src/tokens/ERC20.sol\":19134:19138  0x0e */\n      0x0e\n        /* \"https://github.com/Vectorized/solady/blob/main/src/tokens/ERC20.sol\":19127:19180  mstore(0x0e, _NONCES_SLOT_SEED_WITH_SIGNATURE_PREFIX) */\n      mstore\n        /* \"https://github.com/Vectorized/solady/blob/main/src/tokens/ERC20.sol\":19206:19211  owner */\n      dup10\n        /* \"https://github.com/Vectorized/solady/blob/main/src/tokens/ERC20.sol\":19200:19204  0x00 */\n      0x00\n        /* \"https://github.com/Vectorized/solady/blob/main/src/tokens/ERC20.sol\":19193:19212  mstore(0x00, owner) */\n      mstore\n        /* \"https://github.com/Vectorized/solady/blob/main/src/tokens/ERC20.sol\":19258:19262  0x20 */\n      0x20\n        /* \"https://github.com/Vectorized/solady/blob/main/src/tokens/ERC20.sol\":19252:19256  0x0c */\n      0x0c\n        /* \"https://github.com/Vectorized/solady/blob/main/src/tokens/ERC20.sol\":19242:19263  keccak256(0x0c, 0x20) */\n      keccak256\n        /* \"https://github.com/Vectorized/solady/blob/main/src/tokens/ERC20.sol\":19300:19309  nonceSlot */\n      dup1\n        /* \"https://github.com/Vectorized/solady/blob/main/src/tokens/ERC20.sol\":19294:19310  sload(nonceSlot) */\n      sload\n        /* \"https://github.com/Vectorized/solady/blob/main/src/tokens/ERC20.sol\":19378:19394  _DOMAIN_TYPEHASH */\n      0x8b73c3c69bb8fe3d512ecc4cf759cc79239f7b179b0ffacaa9a75d522b39400f\n        /* \"https://github.com/Vectorized/solady/blob/main/src/tokens/ERC20.sol\":19375:19376  m */\n      dup4\n        /* \"https://github.com/Vectorized/solady/blob/main/src/tokens/ERC20.sol\":19368:19395  mstore(m, _DOMAIN_TYPEHASH) */\n      mstore\n        /* \"https://github.com/Vectorized/solady/blob/main/src/tokens/ERC20.sol\":19429:19437  nameHash */\n      dup5\n        /* \"https://github.com/Vectorized/solady/blob/main/src/tokens/ERC20.sol\":19422:19426  0x20 */\n      0x20\n        /* \"https://github.com/Vectorized/solady/blob/main/src/tokens/ERC20.sol\":19419:19420  m */\n      dup5\n        /* \"https://github.com/Vectorized/solady/blob/main/src/tokens/ERC20.sol\":19415:19427  add(m, 0x20) */\n      add\n        /* \"https://github.com/Vectorized/solady/blob/main/src/tokens/ERC20.sol\":19408:19438  mstore(add(m, 0x20), nameHash) */\n      mstore\n        /* \"https://github.com/Vectorized/solady/blob/main/src/tokens/ERC20.sol\":19472:19483  versionHash */\n      dup4\n        /* \"https://github.com/Vectorized/solady/blob/main/src/tokens/ERC20.sol\":19465:19469  0x40 */\n      0x40\n        /* \"https://github.com/Vectorized/solady/blob/main/src/tokens/ERC20.sol\":19462:19463  m */\n      dup5\n        /* \"https://github.com/Vectorized/solady/blob/main/src/tokens/ERC20.sol\":19458:19470  add(m, 0x40) */\n      add\n        /* \"https://github.com/Vectorized/solady/blob/main/src/tokens/ERC20.sol\":19451:19484  mstore(add(m, 0x40), versionHash) */\n      mstore\n        /* \"https://github.com/Vectorized/solady/blob/main/src/tokens/ERC20.sol\":19518:19527  chainid() */\n      chainid\n        /* \"https://github.com/Vectorized/solady/blob/main/src/tokens/ERC20.sol\":19511:19515  0x60 */\n      0x60\n        /* \"https://github.com/Vectorized/solady/blob/main/src/tokens/ERC20.sol\":19508:19509  m */\n      dup5\n        /* \"https://github.com/Vectorized/solady/blob/main/src/tokens/ERC20.sol\":19504:19516  add(m, 0x60) */\n      add\n        /* \"https://github.com/Vectorized/solady/blob/main/src/tokens/ERC20.sol\":19497:19528  mstore(add(m, 0x60), chainid()) */\n      mstore\n        /* \"https://github.com/Vectorized/solady/blob/main/src/tokens/ERC20.sol\":19562:19571  address() */\n      address\n        /* \"https://github.com/Vectorized/solady/blob/main/src/tokens/ERC20.sol\":19555:19559  0x80 */\n      0x80\n        /* \"https://github.com/Vectorized/solady/blob/main/src/tokens/ERC20.sol\":19552:19553  m */\n      dup5\n        /* \"https://github.com/Vectorized/solady/blob/main/src/tokens/ERC20.sol\":19548:19560  add(m, 0x80) */\n      add\n        /* \"https://github.com/Vectorized/solady/blob/main/src/tokens/ERC20.sol\":19541:19572  mstore(add(m, 0x80), address()) */\n      mstore\n        /* \"https://github.com/Vectorized/solady/blob/main/src/tokens/ERC20.sol\":19611:19615  0xa0 */\n      0xa0\n        /* \"https://github.com/Vectorized/solady/blob/main/src/tokens/ERC20.sol\":19608:19609  m */\n      dup4\n        /* \"https://github.com/Vectorized/solady/blob/main/src/tokens/ERC20.sol\":19598:19616  keccak256(m, 0xa0) */\n      keccak256\n        /* \"https://github.com/Vectorized/solady/blob/main/src/tokens/ERC20.sol\":19592:19596  0x2e */\n      0x2e\n        /* \"https://github.com/Vectorized/solady/blob/main/src/tokens/ERC20.sol\":19585:19617  mstore(0x2e, keccak256(m, 0xa0)) */\n      mstore\n        /* \"https://github.com/Vectorized/solady/blob/main/src/tokens/ERC20.sol\":19680:19696  _PERMIT_TYPEHASH */\n      0x6e71edae12b1b97f4d1f60370fef10105fa2faae0126114a169c64845d6126c9\n        /* \"https://github.com/Vectorized/solady/blob/main/src/tokens/ERC20.sol\":19677:19678  m */\n      dup4\n        /* \"https://github.com/Vectorized/solady/blob/main/src/tokens/ERC20.sol\":19670:19697  mstore(m, _PERMIT_TYPEHASH) */\n      mstore\n        /* \"https://github.com/Vectorized/solady/blob/main/src/tokens/ERC20.sol\":19731:19736  owner */\n      dup12\n        /* \"https://github.com/Vectorized/solady/blob/main/src/tokens/ERC20.sol\":19724:19728  0x20 */\n      0x20\n        /* \"https://github.com/Vectorized/solady/blob/main/src/tokens/ERC20.sol\":19721:19722  m */\n      dup5\n        /* \"https://github.com/Vectorized/solady/blob/main/src/tokens/ERC20.sol\":19717:19729  add(m, 0x20) */\n      add\n        /* \"https://github.com/Vectorized/solady/blob/main/src/tokens/ERC20.sol\":19710:19737  mstore(add(m, 0x20), owner) */\n      mstore\n        /* \"https://github.com/Vectorized/solady/blob/main/src/tokens/ERC20.sol\":19771:19778  spender */\n      dup11\n        /* \"https://github.com/Vectorized/solady/blob/main/src/tokens/ERC20.sol\":19764:19768  0x40 */\n      0x40\n        /* \"https://github.com/Vectorized/solady/blob/main/src/tokens/ERC20.sol\":19761:19762  m */\n      dup5\n        /* \"https://github.com/Vectorized/solady/blob/main/src/tokens/ERC20.sol\":19757:19769  add(m, 0x40) */\n      add\n        /* \"https://github.com/Vectorized/solady/blob/main/src/tokens/ERC20.sol\":19750:19779  mstore(add(m, 0x40), spender) */\n      mstore\n        /* \"https://github.com/Vectorized/solady/blob/main/src/tokens/ERC20.sol\":19813:19818  value */\n      dup10\n        /* \"https://github.com/Vectorized/solady/blob/main/src/tokens/ERC20.sol\":19806:19810  0x60 */\n      0x60\n        /* \"https://github.com/Vectorized/solady/blob/main/src/tokens/ERC20.sol\":19803:19804  m */\n      dup5\n        /* \"https://github.com/Vectorized/solady/blob/main/src/tokens/ERC20.sol\":19799:19811  add(m, 0x60) */\n      add\n        /* \"https://github.com/Vectorized/solady/blob/main/src/tokens/ERC20.sol\":19792:19819  mstore(add(m, 0x60), value) */\n      mstore\n        /* \"https://github.com/Vectorized/solady/blob/main/src/tokens/ERC20.sol\":19853:19863  nonceValue */\n      dup1\n        /* \"https://github.com/Vectorized/solady/blob/main/src/tokens/ERC20.sol\":19846:19850  0x80 */\n      0x80\n        /* \"https://github.com/Vectorized/solady/blob/main/src/tokens/ERC20.sol\":19843:19844  m */\n      dup5\n        /* \"https://github.com/Vectorized/solady/blob/main/src/tokens/ERC20.sol\":19839:19851  add(m, 0x80) */\n      add\n        /* \"https://github.com/Vectorized/solady/blob/main/src/tokens/ERC20.sol\":19832:19864  mstore(add(m, 0x80), nonceValue) */\n      mstore\n        /* \"https://github.com/Vectorized/solady/blob/main/src/tokens/ERC20.sol\":19898:19906  deadline */\n      dup9\n        /* \"https://github.com/Vectorized/solady/blob/main/src/tokens/ERC20.sol\":19891:19895  0xa0 */\n      0xa0\n        /* \"https://github.com/Vectorized/solady/blob/main/src/tokens/ERC20.sol\":19888:19889  m */\n      dup5\n        /* \"https://github.com/Vectorized/solady/blob/main/src/tokens/ERC20.sol\":19884:19896  add(m, 0xa0) */\n      add\n        /* \"https://github.com/Vectorized/solady/blob/main/src/tokens/ERC20.sol\":19877:19907  mstore(add(m, 0xa0), deadline) */\n      mstore\n        /* \"https://github.com/Vectorized/solady/blob/main/src/tokens/ERC20.sol\":19946:19950  0xc0 */\n      0xc0\n        /* \"https://github.com/Vectorized/solady/blob/main/src/tokens/ERC20.sol\":19943:19944  m */\n      dup4\n        /* \"https://github.com/Vectorized/solady/blob/main/src/tokens/ERC20.sol\":19933:19951  keccak256(m, 0xc0) */\n      keccak256\n        /* \"https://github.com/Vectorized/solady/blob/main/src/tokens/ERC20.sol\":19927:19931  0x4e */\n      0x4e\n        /* \"https://github.com/Vectorized/solady/blob/main/src/tokens/ERC20.sol\":19920:19952  mstore(0x4e, keccak256(m, 0xc0)) */\n      mstore\n        /* \"https://github.com/Vectorized/solady/blob/main/src/tokens/ERC20.sol\":20041:20045  0x42 */\n      0x42\n        /* \"https://github.com/Vectorized/solady/blob/main/src/tokens/ERC20.sol\":20035:20039  0x2c */\n      0x2c\n        /* \"https://github.com/Vectorized/solady/blob/main/src/tokens/ERC20.sol\":20025:20046  keccak256(0x2c, 0x42) */\n      keccak256\n        /* \"https://github.com/Vectorized/solady/blob/main/src/tokens/ERC20.sol\":20019:20023  0x00 */\n      0x00\n        /* \"https://github.com/Vectorized/solady/blob/main/src/tokens/ERC20.sol\":20012:20047  mstore(0x00, keccak256(0x2c, 0x42)) */\n      mstore\n        /* \"https://github.com/Vectorized/solady/blob/main/src/tokens/ERC20.sol\":20083:20084  v */\n      dup8\n        /* \"https://github.com/Vectorized/solady/blob/main/src/tokens/ERC20.sol\":20077:20081  0xff */\n      0xff\n        /* \"https://github.com/Vectorized/solady/blob/main/src/tokens/ERC20.sol\":20073:20085  and(0xff, v) */\n      and\n        /* \"https://github.com/Vectorized/solady/blob/main/src/tokens/ERC20.sol\":20067:20071  0x20 */\n      0x20\n        /* \"https://github.com/Vectorized/solady/blob/main/src/tokens/ERC20.sol\":20060:20086  mstore(0x20, and(0xff, v)) */\n      mstore\n        /* \"https://github.com/Vectorized/solady/blob/main/src/tokens/ERC20.sol\":20112:20113  r */\n      dup7\n        /* \"https://github.com/Vectorized/solady/blob/main/src/tokens/ERC20.sol\":20106:20110  0x40 */\n      0x40\n        /* \"https://github.com/Vectorized/solady/blob/main/src/tokens/ERC20.sol\":20099:20114  mstore(0x40, r) */\n      mstore\n        /* \"https://github.com/Vectorized/solady/blob/main/src/tokens/ERC20.sol\":20140:20141  s */\n      dup6\n        /* \"https://github.com/Vectorized/solady/blob/main/src/tokens/ERC20.sol\":20134:20138  0x60 */\n      0x60\n        /* \"https://github.com/Vectorized/solady/blob/main/src/tokens/ERC20.sol\":20127:20142  mstore(0x60, s) */\n      mstore\n        /* \"https://github.com/Vectorized/solady/blob/main/src/tokens/ERC20.sol\":20203:20207  0x20 */\n      0x20\n        /* \"https://github.com/Vectorized/solady/blob/main/src/tokens/ERC20.sol\":20197:20201  0x20 */\n      dup1\n        /* \"https://github.com/Vectorized/solady/blob/main/src/tokens/ERC20.sol\":20191:20195  0x80 */\n      0x80\n        /* \"https://github.com/Vectorized/solady/blob/main/src/tokens/ERC20.sol\":20185:20189  0x00 */\n      0x00\n        /* \"https://github.com/Vectorized/solady/blob/main/src/tokens/ERC20.sol\":20182:20183  1 */\n      0x01\n        /* \"https://github.com/Vectorized/solady/blob/main/src/tokens/ERC20.sol\":20175:20180  gas() */\n      gas\n        /* \"https://github.com/Vectorized/solady/blob/main/src/tokens/ERC20.sol\":20164:20208  staticcall(gas(), 1, 0x00, 0x80, 0x20, 0x20) */\n      staticcall\n        /* \"https://github.com/Vectorized/solady/blob/main/src/tokens/ERC20.sol\":20624:20629  owner */\n      dup13\n        /* \"https://github.com/Vectorized/solady/blob/main/src/tokens/ERC20.sol\":20605:20621  returndatasize() */\n      returndatasize\n        /* \"https://github.com/Vectorized/solady/blob/main/src/tokens/ERC20.sol\":20599:20622  mload(returndatasize()) */\n      mload\n        /* \"https://github.com/Vectorized/solady/blob/main/src/tokens/ERC20.sol\":20596:20630  eq(mload(returndatasize()), owner) */\n      eq\n        /* \"https://github.com/Vectorized/solady/blob/main/src/tokens/ERC20.sol\":20586:20745  if iszero(eq(mload(returndatasize()), owner)) {... */\n      tag_293\n      jumpi\n        /* \"https://github.com/Vectorized/solady/blob/main/src/tokens/ERC20.sol\":20663:20673  0xddafbaef */\n      0xddafbaef\n        /* \"https://github.com/Vectorized/solady/blob/main/src/tokens/ERC20.sol\":20657:20661  0x00 */\n      0x00\n        /* \"https://github.com/Vectorized/solady/blob/main/src/tokens/ERC20.sol\":20650:20674  mstore(0x00, 0xddafbaef) */\n      mstore\n        /* \"https://github.com/Vectorized/solady/blob/main/src/tokens/ERC20.sol\":20726:20730  0x04 */\n      0x04\n        /* \"https://github.com/Vectorized/solady/blob/main/src/tokens/ERC20.sol\":20720:20724  0x1c */\n      0x1c\n        /* \"https://github.com/Vectorized/solady/blob/main/src/tokens/ERC20.sol\":20713:20731  revert(0x1c, 0x04) */\n      revert\n        /* \"https://github.com/Vectorized/solady/blob/main/src/tokens/ERC20.sol\":20586:20745  if iszero(eq(mload(returndatasize()), owner)) {... */\n    tag_293:\n        /* \"https://github.com/Vectorized/solady/blob/main/src/tokens/ERC20.sol\":20846:20847  t */\n      dup1\n        /* \"https://github.com/Vectorized/solady/blob/main/src/tokens/ERC20.sol\":20834:20844  nonceValue */\n      dup3\n        /* \"https://github.com/Vectorized/solady/blob/main/src/tokens/ERC20.sol\":20830:20848  add(nonceValue, t) */\n      add\n        /* \"https://github.com/Vectorized/solady/blob/main/src/tokens/ERC20.sol\":20819:20828  nonceSlot */\n      dup4\n        /* \"https://github.com/Vectorized/solady/blob/main/src/tokens/ERC20.sol\":20812:20849  sstore(nonceSlot, add(nonceValue, t)) */\n      sstore\n        /* \"https://github.com/Vectorized/solady/blob/main/src/tokens/ERC20.sol\":21060:21067  spender */\n      dup12\n        /* \"https://github.com/Vectorized/solady/blob/main/src/tokens/ERC20.sol\":21037:21057  _ALLOWANCE_SLOT_SEED */\n      0x7f5e9f20\n        /* \"https://github.com/Vectorized/solady/blob/main/src/tokens/ERC20.sol\":21032:21035  160 */\n      0xa0\n        /* \"https://github.com/Vectorized/solady/blob/main/src/tokens/ERC20.sol\":21028:21058  shl(160, _ALLOWANCE_SLOT_SEED) */\n      shl\n        /* \"https://github.com/Vectorized/solady/blob/main/src/tokens/ERC20.sol\":21025:21068  or(shl(160, _ALLOWANCE_SLOT_SEED), spender) */\n      or\n        /* \"https://github.com/Vectorized/solady/blob/main/src/tokens/ERC20.sol\":21019:21023  0x40 */\n      0x40\n        /* \"https://github.com/Vectorized/solady/blob/main/src/tokens/ERC20.sol\":21012:21069  mstore(0x40, or(shl(160, _ALLOWANCE_SLOT_SEED), spender)) */\n      mstore\n        /* \"https://github.com/Vectorized/solady/blob/main/src/tokens/ERC20.sol\":21112:21117  value */\n      dup11\n        /* \"https://github.com/Vectorized/solady/blob/main/src/tokens/ERC20.sol\":21105:21109  0x34 */\n      0x34\n        /* \"https://github.com/Vectorized/solady/blob/main/src/tokens/ERC20.sol\":21099:21103  0x2c */\n      0x2c\n        /* \"https://github.com/Vectorized/solady/blob/main/src/tokens/ERC20.sol\":21089:21110  keccak256(0x2c, 0x34) */\n      keccak256\n        /* \"https://github.com/Vectorized/solady/blob/main/src/tokens/ERC20.sol\":21082:21118  sstore(keccak256(0x2c, 0x34), value) */\n      sstore\n        /* \"https://github.com/Vectorized/solady/blob/main/src/tokens/ERC20.sol\":21232:21239  spender */\n      dup12\n        /* \"https://github.com/Vectorized/solady/blob/main/src/tokens/ERC20.sol\":21225:21230  owner */\n      dup14\n        /* \"https://github.com/Vectorized/solady/blob/main/src/tokens/ERC20.sol\":21198:21223  _APPROVAL_EVENT_SIGNATURE */\n      0x8c5be1e5ebec7d5bd14f71427d1e84f3dd0314c0f7b2291e5b200ac8c7c3b925\n        /* \"https://github.com/Vectorized/solady/blob/main/src/tokens/ERC20.sol\":21192:21196  0x20 */\n      0x20\n        /* \"https://github.com/Vectorized/solady/blob/main/src/tokens/ERC20.sol\":21185:21189  0x60 */\n      0x60\n        /* \"https://github.com/Vectorized/solady/blob/main/src/tokens/ERC20.sol\":21182:21183  m */\n      dup9\n        /* \"https://github.com/Vectorized/solady/blob/main/src/tokens/ERC20.sol\":21178:21190  add(m, 0x60) */\n      add\n        /* \"https://github.com/Vectorized/solady/blob/main/src/tokens/ERC20.sol\":21173:21240  log3(add(m, 0x60), 0x20, _APPROVAL_EVENT_SIGNATURE, owner, spender) */\n      log3\n        /* \"https://github.com/Vectorized/solady/blob/main/src/tokens/ERC20.sol\":21266:21267  m */\n      dup4\n        /* \"https://github.com/Vectorized/solady/blob/main/src/tokens/ERC20.sol\":21260:21264  0x40 */\n      0x40\n        /* \"https://github.com/Vectorized/solady/blob/main/src/tokens/ERC20.sol\":21253:21268  mstore(0x40, m) */\n      mstore\n        /* \"https://github.com/Vectorized/solady/blob/main/src/tokens/ERC20.sol\":21330:21331  0 */\n      0x00\n        /* \"https://github.com/Vectorized/solady/blob/main/src/tokens/ERC20.sol\":21324:21328  0x60 */\n      0x60\n        /* \"https://github.com/Vectorized/solady/blob/main/src/tokens/ERC20.sol\":21317:21332  mstore(0x60, 0) */\n      mstore\n        /* \"https://github.com/Vectorized/solady/blob/main/src/tokens/ERC20.sol\":18627:21371  {... */\n      pop\n      pop\n      pop\n      pop\n      pop\n      pop\n        /* \"https://github.com/Vectorized/solady/blob/main/src/tokens/ERC20.sol\":17661:21377  function permit(... */\n      pop\n      pop\n      pop\n      pop\n      pop\n      pop\n      pop\n      jump\t// out\n        /* \"src/Guano.sol\":4024:4125  function maxRedeem(address owner) external pure returns (uint) {... */\n    tag_158:\n        /* \"src/Guano.sol\":4081:4085  uint */\n      0x00\n        /* \"src/Guano.sol\":4105:4117  2 ** 256 - 1 */\n      0xffffffffffffffffffffffffffffffffffffffffffffffffffffffffffffffff\n        /* \"src/Guano.sol\":4098:4117  return 2 ** 256 - 1 */\n      swap1\n      pop\n        /* \"src/Guano.sol\":4024:4125  function maxRedeem(address owner) external pure returns (uint) {... */\n      swap2\n      swap1\n      pop\n      jump\t// out\n        /* \"https://github.com/Vectorized/solady/blob/main/src/tokens/ERC20.sol\":7549:8044  function allowance(address owner, address spender)... */\n    tag_164:\n        /* \"https://github.com/Vectorized/solady/blob/main/src/tokens/ERC20.sol\":7661:7675  uint256 result */\n      0x00\n        /* \"https://github.com/Vectorized/solady/blob/main/src/tokens/ERC20.sol\":7695:7726  _givePermit2InfiniteAllowance() */\n      tag_296\n        /* \"https://github.com/Vectorized/solady/blob/main/src/tokens/ERC20.sol\":7695:7724  _givePermit2InfiniteAllowance */\n      tag_187\n        /* \"https://github.com/Vectorized/solady/blob/main/src/tokens/ERC20.sol\":7695:7726  _givePermit2InfiniteAllowance() */\n      jump\t// in\n    tag_296:\n        /* \"https://github.com/Vectorized/solady/blob/main/src/tokens/ERC20.sol\":7691:7802  if (_givePermit2InfiniteAllowance()) {... */\n      iszero\n      tag_297\n      jumpi\n        /* \"https://github.com/Vectorized/solady/blob/main/src/tokens/ERC20.sol\":5869:5911  0x000000000022D473030F116dDEE9F6B43aC78BA3 */\n      0x22d473030f116ddee9f6b43ac78ba3\n        /* \"https://github.com/Vectorized/solady/blob/main/src/tokens/ERC20.sol\":7746:7765  spender == _PERMIT2 */\n      0xffffffffffffffffffffffffffffffffffffffff\n      and\n        /* \"https://github.com/Vectorized/solady/blob/main/src/tokens/ERC20.sol\":7746:7753  spender */\n      dup3\n        /* \"https://github.com/Vectorized/solady/blob/main/src/tokens/ERC20.sol\":7746:7765  spender == _PERMIT2 */\n      0xffffffffffffffffffffffffffffffffffffffff\n      and\n      sub\n        /* \"https://github.com/Vectorized/solady/blob/main/src/tokens/ERC20.sol\":7742:7791  if (spender == _PERMIT2) return type(uint256).max */\n      tag_298\n      jumpi\n        /* \"https://github.com/Vectorized/solady/blob/main/src/tokens/ERC20.sol\":7774:7791  type(uint256).max */\n      0xffffffffffffffffffffffffffffffffffffffffffffffffffffffffffffffff\n        /* \"https://github.com/Vectorized/solady/blob/main/src/tokens/ERC20.sol\":7767:7791  return type(uint256).max */\n      swap1\n      pop\n      jump(tag_295)\n        /* \"https://github.com/Vectorized/solady/blob/main/src/tokens/ERC20.sol\":7742:7791  if (spender == _PERMIT2) return type(uint256).max */\n    tag_298:\n        /* \"https://github.com/Vectorized/solady/blob/main/src/tokens/ERC20.sol\":7691:7802  if (_givePermit2InfiniteAllowance()) {... */\n    tag_297:\n        /* \"https://github.com/Vectorized/solady/blob/main/src/tokens/ERC20.sol\":7890:7897  spender */\n      dup2\n        /* \"https://github.com/Vectorized/solady/blob/main/src/tokens/ERC20.sol\":7884:7888  0x20 */\n      0x20\n        /* \"https://github.com/Vectorized/solady/blob/main/src/tokens/ERC20.sol\":7877:7898  mstore(0x20, spender) */\n      mstore\n        /* \"https://github.com/Vectorized/solady/blob/main/src/tokens/ERC20.sol\":7924:7944  _ALLOWANCE_SLOT_SEED */\n      0x7f5e9f20\n        /* \"https://github.com/Vectorized/solady/blob/main/src/tokens/ERC20.sol\":7918:7922  0x0c */\n      0x0c\n        /* \"https://github.com/Vectorized/solady/blob/main/src/tokens/ERC20.sol\":7911:7945  mstore(0x0c, _ALLOWANCE_SLOT_SEED) */\n      mstore\n        /* \"https://github.com/Vectorized/solady/blob/main/src/tokens/ERC20.sol\":7971:7976  owner */\n      dup3\n        /* \"https://github.com/Vectorized/solady/blob/main/src/tokens/ERC20.sol\":7965:7969  0x00 */\n      0x00\n        /* \"https://github.com/Vectorized/solady/blob/main/src/tokens/ERC20.sol\":7958:7977  mstore(0x00, owner) */\n      mstore\n        /* \"https://github.com/Vectorized/solady/blob/main/src/tokens/ERC20.sol\":8022:8026  0x34 */\n      0x34\n        /* \"https://github.com/Vectorized/solady/blob/main/src/tokens/ERC20.sol\":8016:8020  0x0c */\n      0x0c\n        /* \"https://github.com/Vectorized/solady/blob/main/src/tokens/ERC20.sol\":8006:8027  keccak256(0x0c, 0x34) */\n      keccak256\n        /* \"https://github.com/Vectorized/solady/blob/main/src/tokens/ERC20.sol\":8000:8028  sload(keccak256(0x0c, 0x34)) */\n      sload\n        /* \"https://github.com/Vectorized/solady/blob/main/src/tokens/ERC20.sol\":7990:8028  result := sload(keccak256(0x0c, 0x34)) */\n      swap1\n      pop\n        /* \"https://github.com/Vectorized/solady/blob/main/src/tokens/ERC20.sol\":7549:8044  function allowance(address owner, address spender)... */\n    tag_295:\n      swap3\n      swap2\n      pop\n      pop\n      jump\t// out\n        /* \"src/Guano.sol\":3261:3374  function previewDeposit(uint assets) public view returns (uint) {... */\n    tag_169:\n        /* \"src/Guano.sol\":3319:3323  uint */\n      0x00\n        /* \"src/Guano.sol\":3343:3366  convertToShares(assets) */\n      tag_300\n        /* \"src/Guano.sol\":3359:3365  assets */\n      dup3\n        /* \"src/Guano.sol\":3343:3358  convertToShares */\n      tag_143\n        /* \"src/Guano.sol\":3343:3366  convertToShares(assets) */\n      jump\t// in\n    tag_300:\n        /* \"src/Guano.sol\":3336:3366  return convertToShares(assets) */\n      swap1\n      pop\n        /* \"src/Guano.sol\":3261:3374  function previewDeposit(uint assets) public view returns (uint) {... */\n      swap2\n      swap1\n      pop\n      jump\t// out\n        /* \"@openzeppelin/contracts/access/Ownable.sol\":2543:2758  function transferOwnership(address newOwner) public virtual onlyOwner {... */\n    tag_174:\n        /* \"@openzeppelin/contracts/access/Ownable.sol\":1531:1544  _checkOwner() */\n      tag_302\n        /* \"@openzeppelin/contracts/access/Ownable.sol\":1531:1542  _checkOwner */\n      tag_198\n        /* \"@openzeppelin/contracts/access/Ownable.sol\":1531:1544  _checkOwner() */\n      jump\t// in\n    tag_302:\n        /* \"@openzeppelin/contracts/access/Ownable.sol\":2647:2648  0 */\n      0x00\n        /* \"@openzeppelin/contracts/access/Ownable.sol\":2627:2649  newOwner == address(0) */\n      0xffffffffffffffffffffffffffffffffffffffff\n      and\n        /* \"@openzeppelin/contracts/access/Ownable.sol\":2627:2635  newOwner */\n      dup2\n        /* \"@openzeppelin/contracts/access/Ownable.sol\":2627:2649  newOwner == address(0) */\n      0xffffffffffffffffffffffffffffffffffffffff\n      and\n      sub\n        /* \"@openzeppelin/contracts/access/Ownable.sol\":2623:2714  if (newOwner == address(0)) {... */\n      tag_304\n      jumpi\n        /* \"@openzeppelin/contracts/access/Ownable.sol\":2700:2701  0 */\n      0x00\n        /* \"@openzeppelin/contracts/access/Ownable.sol\":2672:2703  OwnableInvalidOwner(address(0)) */\n      mload(0x40)\n      0x1e4fbdf700000000000000000000000000000000000000000000000000000000\n      dup2\n      mstore\n      0x04\n      add\n      tag_305\n      swap2\n      swap1\n      tag_119\n      jump\t// in\n    tag_305:\n      mload(0x40)\n      dup1\n      swap2\n      sub\n      swap1\n      revert\n        /* \"@openzeppelin/contracts/access/Ownable.sol\":2623:2714  if (newOwner == address(0)) {... */\n    tag_304:\n        /* \"@openzeppelin/contracts/access/Ownable.sol\":2723:2751  _transferOwnership(newOwner) */\n      tag_306\n        /* \"@openzeppelin/contracts/access/Ownable.sol\":2742:2750  newOwner */\n      dup2\n        /* \"@openzeppelin/contracts/access/Ownable.sol\":2723:2741  _transferOwnership */\n      tag_245\n        /* \"@openzeppelin/contracts/access/Ownable.sol\":2723:2751  _transferOwnership(newOwner) */\n      jump\t// in\n    tag_306:\n        /* \"@openzeppelin/contracts/access/Ownable.sol\":2543:2758  function transferOwnership(address newOwner) public virtual onlyOwner {... */\n      pop\n      jump\t// out\n        /* \"https://github.com/Vectorized/solady/blob/main/src/tokens/ERC20.sol\":30986:31093  function _givePermit2InfiniteAllowance() internal view virtual returns (bool) {... */\n    tag_187:\n        /* \"https://github.com/Vectorized/solady/blob/main/src/tokens/ERC20.sol\":31058:31062  bool */\n      0x00\n        /* \"https://github.com/Vectorized/solady/blob/main/src/tokens/ERC20.sol\":31081:31086  false */\n      0x00\n        /* \"https://github.com/Vectorized/solady/blob/main/src/tokens/ERC20.sol\":31074:31086  return false */\n      swap1\n      pop\n        /* \"https://github.com/Vectorized/solady/blob/main/src/tokens/ERC20.sol\":30986:31093  function _givePermit2InfiniteAllowance() internal view virtual returns (bool) {... */\n      swap1\n      jump\t// out\n        /* \"@openzeppelin/contracts/access/Ownable.sol\":1796:1958  function _checkOwner() internal view virtual {... */\n    tag_198:\n        /* \"@openzeppelin/contracts/access/Ownable.sol\":1866:1878  _msgSender() */\n      tag_309\n        /* \"@openzeppelin/contracts/access/Ownable.sol\":1866:1876  _msgSender */\n      tag_310\n        /* \"@openzeppelin/contracts/access/Ownable.sol\":1866:1878  _msgSender() */\n      jump\t// in\n    tag_309:\n        /* \"@openzeppelin/contracts/access/Ownable.sol\":1855:1878  owner() != _msgSender() */\n      0xffffffffffffffffffffffffffffffffffffffff\n      and\n        /* \"@openzeppelin/contracts/access/Ownable.sol\":1855:1862  owner() */\n      tag_311\n        /* \"@openzeppelin/contracts/access/Ownable.sol\":1855:1860  owner */\n      tag_117\n        /* \"@openzeppelin/contracts/access/Ownable.sol\":1855:1862  owner() */\n      jump\t// in\n    tag_311:\n        /* \"@openzeppelin/contracts/access/Ownable.sol\":1855:1878  owner() != _msgSender() */\n      0xffffffffffffffffffffffffffffffffffffffff\n      and\n      eq\n        /* \"@openzeppelin/contracts/access/Ownable.sol\":1851:1952  if (owner() != _msgSender()) {... */\n      tag_312\n      jumpi\n        /* \"@openzeppelin/contracts/access/Ownable.sol\":1928:1940  _msgSender() */\n      tag_313\n        /* \"@openzeppelin/contracts/access/Ownable.sol\":1928:1938  _msgSender */\n      tag_310\n        /* \"@openzeppelin/contracts/access/Ownable.sol\":1928:1940  _msgSender() */\n      jump\t// in\n    tag_313:\n        /* \"@openzeppelin/contracts/access/Ownable.sol\":1901:1941  OwnableUnauthorizedAccount(_msgSender()) */\n      mload(0x40)\n      0x118cdaa700000000000000000000000000000000000000000000000000000000\n      dup2\n      mstore\n      0x04\n      add\n      tag_314\n      swap2\n      swap1\n      tag_119\n      jump\t// in\n    tag_314:\n      mload(0x40)\n      dup1\n      swap2\n      sub\n      swap1\n      revert\n        /* \"@openzeppelin/contracts/access/Ownable.sol\":1851:1952  if (owner() != _msgSender()) {... */\n    tag_312:\n        /* \"@openzeppelin/contracts/access/Ownable.sol\":1796:1958  function _checkOwner() internal view virtual {... */\n      jump\t// out\n        /* \"https://github.com/Vectorized/solady/blob/main/src/tokens/ERC20.sol\":30066:30157  function _beforeTokenTransfer(address from, address to, uint256 amount) internal virtual {} */\n    tag_208:\n      pop\n      pop\n      pop\n      jump\t// out\n        /* \"https://github.com/Vectorized/solady/blob/main/src/tokens/ERC20.sol\":30269:30359  function _afterTokenTransfer(address from, address to, uint256 amount) internal virtual {} */\n    tag_220:\n      pop\n      pop\n      pop\n      jump\t// out\n        /* \"https://github.com/Vectorized/solady/blob/main/src/tokens/ERC20.sol\":16349:16427  function _constantNameHash() internal view virtual returns (bytes32 result) {} */\n    tag_224:\n        /* \"https://github.com/Vectorized/solady/blob/main/src/tokens/ERC20.sol\":16409:16423  bytes32 result */\n      0x00\n        /* \"https://github.com/Vectorized/solady/blob/main/src/tokens/ERC20.sol\":16349:16427  function _constantNameHash() internal view virtual returns (bytes32 result) {} */\n      swap1\n      jump\t// out\n        /* \"https://github.com/Vectorized/solady/blob/main/src/tokens/ERC20.sol\":16501:16619  function _versionHash() internal view virtual returns (bytes32 result) {... */\n    tag_228:\n        /* \"https://github.com/Vectorized/solady/blob/main/src/tokens/ERC20.sol\":16556:16570  bytes32 result */\n      0x00\n        /* \"https://github.com/Vectorized/solady/blob/main/src/tokens/ERC20.sol\":5177:5243  0xc89efdaa54c0f20c7adf612882df0950f5a951637e0307cdcb4c672f298b8bc6 */\n      0xc89efdaa54c0f20c7adf612882df0950f5a951637e0307cdcb4c672f298b8bc6\n        /* \"https://github.com/Vectorized/solady/blob/main/src/tokens/ERC20.sol\":16591:16612  _DEFAULT_VERSION_HASH */\n      0x00\n      shl\n        /* \"https://github.com/Vectorized/solady/blob/main/src/tokens/ERC20.sol\":16582:16612  result = _DEFAULT_VERSION_HASH */\n      swap1\n      pop\n        /* \"https://github.com/Vectorized/solady/blob/main/src/tokens/ERC20.sol\":16501:16619  function _versionHash() internal view virtual returns (bytes32 result) {... */\n      swap1\n      jump\t// out\n        /* \"https://github.com/Vectorized/solady/blob/main/src/tokens/ERC20.sol\":22599:23771  function _mint(address to, uint256 amount) internal virtual {... */\n    tag_237:\n        /* \"https://github.com/Vectorized/solady/blob/main/src/tokens/ERC20.sol\":22669:22713  _beforeTokenTransfer(address(0), to, amount) */\n      tag_320\n        /* \"https://github.com/Vectorized/solady/blob/main/src/tokens/ERC20.sol\":22698:22699  0 */\n      0x00\n        /* \"https://github.com/Vectorized/solady/blob/main/src/tokens/ERC20.sol\":22702:22704  to */\n      dup4\n        /* \"https://github.com/Vectorized/solady/blob/main/src/tokens/ERC20.sol\":22706:22712  amount */\n      dup4\n        /* \"https://github.com/Vectorized/solady/blob/main/src/tokens/ERC20.sol\":22669:22689  _beforeTokenTransfer */\n      tag_208\n        /* \"https://github.com/Vectorized/solady/blob/main/src/tokens/ERC20.sol\":22669:22713  _beforeTokenTransfer(address(0), to, amount) */\n      jump\t// in\n    tag_320:\n        /* \"https://github.com/Vectorized/solady/blob/main/src/tokens/ERC20.sol\":22820:22838  _TOTAL_SUPPLY_SLOT */\n      0x05345cdf77eb68f44c\n        /* \"https://github.com/Vectorized/solady/blob/main/src/tokens/ERC20.sol\":22814:22839  sload(_TOTAL_SUPPLY_SLOT) */\n      sload\n        /* \"https://github.com/Vectorized/solady/blob/main/src/tokens/ERC20.sol\":22899:22905  amount */\n      dup2\n        /* \"https://github.com/Vectorized/solady/blob/main/src/tokens/ERC20.sol\":22880:22897  totalSupplyBefore */\n      dup2\n        /* \"https://github.com/Vectorized/solady/blob/main/src/tokens/ERC20.sol\":22876:22906  add(totalSupplyBefore, amount) */\n      add\n        /* \"https://github.com/Vectorized/solady/blob/main/src/tokens/ERC20.sol\":22996:23013  totalSupplyBefore */\n      dup2\n        /* \"https://github.com/Vectorized/solady/blob/main/src/tokens/ERC20.sol\":22978:22994  totalSupplyAfter */\n      dup2\n        /* \"https://github.com/Vectorized/solady/blob/main/src/tokens/ERC20.sol\":22975:23014  lt(totalSupplyAfter, totalSupplyBefore) */\n      lt\n        /* \"https://github.com/Vectorized/solady/blob/main/src/tokens/ERC20.sol\":22972:23134  if lt(totalSupplyAfter, totalSupplyBefore) {... */\n      iszero\n      tag_321\n      jumpi\n        /* \"https://github.com/Vectorized/solady/blob/main/src/tokens/ERC20.sol\":23046:23056  0xe5cfe957 */\n      0xe5cfe957\n        /* \"https://github.com/Vectorized/solady/blob/main/src/tokens/ERC20.sol\":23040:23044  0x00 */\n      0x00\n        /* \"https://github.com/Vectorized/solady/blob/main/src/tokens/ERC20.sol\":23033:23057  mstore(0x00, 0xe5cfe957) */\n      mstore\n        /* \"https://github.com/Vectorized/solady/blob/main/src/tokens/ERC20.sol\":23115:23119  0x04 */\n      0x04\n        /* \"https://github.com/Vectorized/solady/blob/main/src/tokens/ERC20.sol\":23109:23113  0x1c */\n      0x1c\n        /* \"https://github.com/Vectorized/solady/blob/main/src/tokens/ERC20.sol\":23102:23120  revert(0x1c, 0x04) */\n      revert\n        /* \"https://github.com/Vectorized/solady/blob/main/src/tokens/ERC20.sol\":22972:23134  if lt(totalSupplyAfter, totalSupplyBefore) {... */\n    tag_321:\n        /* \"https://github.com/Vectorized/solady/blob/main/src/tokens/ERC20.sol\":23221:23237  totalSupplyAfter */\n      dup1\n        /* \"https://github.com/Vectorized/solady/blob/main/src/tokens/ERC20.sol\":23201:23219  _TOTAL_SUPPLY_SLOT */\n      0x05345cdf77eb68f44c\n        /* \"https://github.com/Vectorized/solady/blob/main/src/tokens/ERC20.sol\":23194:23238  sstore(_TOTAL_SUPPLY_SLOT, totalSupplyAfter) */\n      sstore\n        /* \"https://github.com/Vectorized/solady/blob/main/src/tokens/ERC20.sol\":23324:23342  _BALANCE_SLOT_SEED */\n      0x87a211a2\n        /* \"https://github.com/Vectorized/solady/blob/main/src/tokens/ERC20.sol\":23318:23322  0x0c */\n      0x0c\n        /* \"https://github.com/Vectorized/solady/blob/main/src/tokens/ERC20.sol\":23311:23343  mstore(0x0c, _BALANCE_SLOT_SEED) */\n      mstore\n        /* \"https://github.com/Vectorized/solady/blob/main/src/tokens/ERC20.sol\":23369:23371  to */\n      dup4\n        /* \"https://github.com/Vectorized/solady/blob/main/src/tokens/ERC20.sol\":23363:23367  0x00 */\n      0x00\n        /* \"https://github.com/Vectorized/solady/blob/main/src/tokens/ERC20.sol\":23356:23372  mstore(0x00, to) */\n      mstore\n        /* \"https://github.com/Vectorized/solady/blob/main/src/tokens/ERC20.sol\":23422:23426  0x20 */\n      0x20\n        /* \"https://github.com/Vectorized/solady/blob/main/src/tokens/ERC20.sol\":23416:23420  0x0c */\n      0x0c\n        /* \"https://github.com/Vectorized/solady/blob/main/src/tokens/ERC20.sol\":23406:23427  keccak256(0x0c, 0x20) */\n      keccak256\n        /* \"https://github.com/Vectorized/solady/blob/main/src/tokens/ERC20.sol\":23538:23544  amount */\n      dup4\n        /* \"https://github.com/Vectorized/solady/blob/main/src/tokens/ERC20.sol\":23522:23535  toBalanceSlot */\n      dup2\n        /* \"https://github.com/Vectorized/solady/blob/main/src/tokens/ERC20.sol\":23516:23536  sload(toBalanceSlot) */\n      sload\n        /* \"https://github.com/Vectorized/solady/blob/main/src/tokens/ERC20.sol\":23512:23545  add(sload(toBalanceSlot), amount) */\n      add\n        /* \"https://github.com/Vectorized/solady/blob/main/src/tokens/ERC20.sol\":23497:23510  toBalanceSlot */\n      dup2\n        /* \"https://github.com/Vectorized/solady/blob/main/src/tokens/ERC20.sol\":23490:23546  sstore(toBalanceSlot, add(sload(toBalanceSlot), amount)) */\n      sstore\n        /* \"https://github.com/Vectorized/solady/blob/main/src/tokens/ERC20.sol\":23614:23620  amount */\n      dup4\n        /* \"https://github.com/Vectorized/solady/blob/main/src/tokens/ERC20.sol\":23608:23612  0x20 */\n      0x20\n        /* \"https://github.com/Vectorized/solady/blob/main/src/tokens/ERC20.sol\":23601:23621  mstore(0x20, amount) */\n      mstore\n        /* \"https://github.com/Vectorized/solady/blob/main/src/tokens/ERC20.sol\":23695:23699  0x0c */\n      0x0c\n        /* \"https://github.com/Vectorized/solady/blob/main/src/tokens/ERC20.sol\":23689:23700  mload(0x0c) */\n      mload\n        /* \"https://github.com/Vectorized/solady/blob/main/src/tokens/ERC20.sol\":23685:23687  96 */\n      0x60\n        /* \"https://github.com/Vectorized/solady/blob/main/src/tokens/ERC20.sol\":23681:23701  shr(96, mload(0x0c)) */\n      shr\n        /* \"https://github.com/Vectorized/solady/blob/main/src/tokens/ERC20.sol\":23678:23679  0 */\n      0x00\n        /* \"https://github.com/Vectorized/solady/blob/main/src/tokens/ERC20.sol\":23651:23676  _TRANSFER_EVENT_SIGNATURE */\n      0xddf252ad1be2c89b69c2b068fc378daa952ba7f163c4a11628f55a4df523b3ef\n        /* \"https://github.com/Vectorized/solady/blob/main/src/tokens/ERC20.sol\":23645:23649  0x20 */\n      0x20\n        /* \"https://github.com/Vectorized/solady/blob/main/src/tokens/ERC20.sol\":23639:23643  0x20 */\n      dup1\n        /* \"https://github.com/Vectorized/solady/blob/main/src/tokens/ERC20.sol\":23634:23702  log3(0x20, 0x20, _TRANSFER_EVENT_SIGNATURE, 0, shr(96, mload(0x0c))) */\n      log3\n        /* \"https://github.com/Vectorized/solady/blob/main/src/tokens/ERC20.sol\":22775:23712  {... */\n      pop\n      pop\n      pop\n        /* \"https://github.com/Vectorized/solady/blob/main/src/tokens/ERC20.sol\":23721:23764  _afterTokenTransfer(address(0), to, amount) */\n      tag_322\n        /* \"https://github.com/Vectorized/solady/blob/main/src/tokens/ERC20.sol\":23749:23750  0 */\n      0x00\n        /* \"https://github.com/Vectorized/solady/blob/main/src/tokens/ERC20.sol\":23753:23755  to */\n      dup4\n        /* \"https://github.com/Vectorized/solady/blob/main/src/tokens/ERC20.sol\":23757:23763  amount */\n      dup4\n        /* \"https://github.com/Vectorized/solady/blob/main/src/tokens/ERC20.sol\":23721:23740  _afterTokenTransfer */\n      tag_220\n        /* \"https://github.com/Vectorized/solady/blob/main/src/tokens/ERC20.sol\":23721:23764  _afterTokenTransfer(address(0), to, amount) */\n      jump\t// in\n    tag_322:\n        /* \"https://github.com/Vectorized/solady/blob/main/src/tokens/ERC20.sol\":22599:23771  function _mint(address to, uint256 amount) internal virtual {... */\n      pop\n      pop\n      jump\t// out\n        /* \"@openzeppelin/contracts/access/Ownable.sol\":2912:3099  function _transferOwnership(address newOwner) internal virtual {... */\n    tag_245:\n        /* \"@openzeppelin/contracts/access/Ownable.sol\":2985:3001  address oldOwner */\n      0x00\n        /* \"@openzeppelin/contracts/access/Ownable.sol\":3004:3010  _owner */\n      0x00\n      0x00\n      swap1\n      sload\n      swap1\n      0x0100\n      exp\n      swap1\n      div\n      0xffffffffffffffffffffffffffffffffffffffff\n      and\n        /* \"@openzeppelin/contracts/access/Ownable.sol\":2985:3010  address oldOwner = _owner */\n      swap1\n      pop\n        /* \"@openzeppelin/contracts/access/Ownable.sol\":3029:3037  newOwner */\n      dup2\n        /* \"@openzeppelin/contracts/access/Ownable.sol\":3020:3026  _owner */\n      0x00\n      0x00\n        /* \"@openzeppelin/contracts/access/Ownable.sol\":3020:3037  _owner = newOwner */\n      0x0100\n      exp\n      dup2\n      sload\n      dup2\n      0xffffffffffffffffffffffffffffffffffffffff\n      mul\n      not\n      and\n      swap1\n      dup4\n      0xffffffffffffffffffffffffffffffffffffffff\n      and\n      mul\n      or\n      swap1\n      sstore\n      pop\n        /* \"@openzeppelin/contracts/access/Ownable.sol\":3083:3091  newOwner */\n      dup2\n        /* \"@openzeppelin/contracts/access/Ownable.sol\":3052:3092  OwnershipTransferred(oldOwner, newOwner) */\n      0xffffffffffffffffffffffffffffffffffffffff\n      and\n        /* \"@openzeppelin/contracts/access/Ownable.sol\":3073:3081  oldOwner */\n      dup2\n        /* \"@openzeppelin/contracts/access/Ownable.sol\":3052:3092  OwnershipTransferred(oldOwner, newOwner) */\n      0xffffffffffffffffffffffffffffffffffffffff\n      and\n      0x8be0079c531659141344cd1fd0a4f28419497f9722a3daafe3b4186f6b6457e0\n      mload(0x40)\n      mload(0x40)\n      dup1\n      swap2\n      sub\n      swap1\n      log3\n        /* \"@openzeppelin/contracts/access/Ownable.sol\":2975:3099  {... */\n      pop\n        /* \"@openzeppelin/contracts/access/Ownable.sol\":2912:3099  function _transferOwnership(address newOwner) internal virtual {... */\n      pop\n      jump\t// out\n        /* \"https://github.com/Vectorized/solady/blob/main/src/tokens/ERC20.sol\":27414:28501  function _spendAllowance(address owner, address spender, uint256 amount) internal virtual {... */\n    tag_257:\n        /* \"https://github.com/Vectorized/solady/blob/main/src/tokens/ERC20.sol\":27518:27549  _givePermit2InfiniteAllowance() */\n      tag_325\n        /* \"https://github.com/Vectorized/solady/blob/main/src/tokens/ERC20.sol\":27518:27547  _givePermit2InfiniteAllowance */\n      tag_187\n        /* \"https://github.com/Vectorized/solady/blob/main/src/tokens/ERC20.sol\":27518:27549  _givePermit2InfiniteAllowance() */\n      jump\t// in\n    tag_325:\n        /* \"https://github.com/Vectorized/solady/blob/main/src/tokens/ERC20.sol\":27514:27648  if (_givePermit2InfiniteAllowance()) {... */\n      iszero\n      tag_326\n      jumpi\n        /* \"https://github.com/Vectorized/solady/blob/main/src/tokens/ERC20.sol\":5869:5911  0x000000000022D473030F116dDEE9F6B43aC78BA3 */\n      0x22d473030f116ddee9f6b43ac78ba3\n        /* \"https://github.com/Vectorized/solady/blob/main/src/tokens/ERC20.sol\":27569:27588  spender == _PERMIT2 */\n      0xffffffffffffffffffffffffffffffffffffffff\n      and\n        /* \"https://github.com/Vectorized/solady/blob/main/src/tokens/ERC20.sol\":27569:27576  spender */\n      dup3\n        /* \"https://github.com/Vectorized/solady/blob/main/src/tokens/ERC20.sol\":27569:27588  spender == _PERMIT2 */\n      0xffffffffffffffffffffffffffffffffffffffff\n      and\n      sub\n        /* \"https://github.com/Vectorized/solady/blob/main/src/tokens/ERC20.sol\":27565:27597  if (spender == _PERMIT2) return; */\n      iszero\n        /* \"https://github.com/Vectorized/solady/blob/main/src/tokens/ERC20.sol\":27590:27597  return; */\n      tag_324\n        /* \"https://github.com/Vectorized/solady/blob/main/src/tokens/ERC20.sol\":27565:27597  if (spender == _PERMIT2) return; */\n      jumpi\n        /* \"https://github.com/Vectorized/solady/blob/main/src/tokens/ERC20.sol\":27514:27648  if (_givePermit2InfiniteAllowance()) {... */\n    tag_326:\n        /* \"https://github.com/Vectorized/solady/blob/main/src/tokens/ERC20.sol\":27798:27805  spender */\n      dup2\n        /* \"https://github.com/Vectorized/solady/blob/main/src/tokens/ERC20.sol\":27792:27796  0x20 */\n      0x20\n        /* \"https://github.com/Vectorized/solady/blob/main/src/tokens/ERC20.sol\":27785:27806  mstore(0x20, spender) */\n      mstore\n        /* \"https://github.com/Vectorized/solady/blob/main/src/tokens/ERC20.sol\":27832:27852  _ALLOWANCE_SLOT_SEED */\n      0x7f5e9f20\n        /* \"https://github.com/Vectorized/solady/blob/main/src/tokens/ERC20.sol\":27826:27830  0x0c */\n      0x0c\n        /* \"https://github.com/Vectorized/solady/blob/main/src/tokens/ERC20.sol\":27819:27853  mstore(0x0c, _ALLOWANCE_SLOT_SEED) */\n      mstore\n        /* \"https://github.com/Vectorized/solady/blob/main/src/tokens/ERC20.sol\":27879:27884  owner */\n      dup3\n        /* \"https://github.com/Vectorized/solady/blob/main/src/tokens/ERC20.sol\":27873:27877  0x00 */\n      0x00\n        /* \"https://github.com/Vectorized/solady/blob/main/src/tokens/ERC20.sol\":27866:27885  mstore(0x00, owner) */\n      mstore\n        /* \"https://github.com/Vectorized/solady/blob/main/src/tokens/ERC20.sol\":27935:27939  0x34 */\n      0x34\n        /* \"https://github.com/Vectorized/solady/blob/main/src/tokens/ERC20.sol\":27929:27933  0x0c */\n      0x0c\n        /* \"https://github.com/Vectorized/solady/blob/main/src/tokens/ERC20.sol\":27919:27940  keccak256(0x0c, 0x34) */\n      keccak256\n        /* \"https://github.com/Vectorized/solady/blob/main/src/tokens/ERC20.sol\":27977:27990  allowanceSlot */\n      dup1\n        /* \"https://github.com/Vectorized/solady/blob/main/src/tokens/ERC20.sol\":27971:27991  sload(allowanceSlot) */\n      sload\n        /* \"https://github.com/Vectorized/solady/blob/main/src/tokens/ERC20.sol\":28077:28087  allowance_ */\n      dup1\n        /* \"https://github.com/Vectorized/solady/blob/main/src/tokens/ERC20.sol\":28073:28088  not(allowance_) */\n      not\n        /* \"https://github.com/Vectorized/solady/blob/main/src/tokens/ERC20.sol\":28070:28485  if not(allowance_) {... */\n      iszero\n      tag_328\n      jumpi\n        /* \"https://github.com/Vectorized/solady/blob/main/src/tokens/ERC20.sol\":28202:28212  allowance_ */\n      dup1\n        /* \"https://github.com/Vectorized/solady/blob/main/src/tokens/ERC20.sol\":28194:28200  amount */\n      dup4\n        /* \"https://github.com/Vectorized/solady/blob/main/src/tokens/ERC20.sol\":28191:28213  gt(amount, allowance_) */\n      gt\n        /* \"https://github.com/Vectorized/solady/blob/main/src/tokens/ERC20.sol\":28188:28347  if gt(amount, allowance_) {... */\n      iszero\n      tag_329\n      jumpi\n        /* \"https://github.com/Vectorized/solady/blob/main/src/tokens/ERC20.sol\":28249:28259  0x13be252b */\n      0x13be252b\n        /* \"https://github.com/Vectorized/solady/blob/main/src/tokens/ERC20.sol\":28243:28247  0x00 */\n      0x00\n        /* \"https://github.com/Vectorized/solady/blob/main/src/tokens/ERC20.sol\":28236:28260  mstore(0x00, 0x13be252b) */\n      mstore\n        /* \"https://github.com/Vectorized/solady/blob/main/src/tokens/ERC20.sol\":28324:28328  0x04 */\n      0x04\n        /* \"https://github.com/Vectorized/solady/blob/main/src/tokens/ERC20.sol\":28318:28322  0x1c */\n      0x1c\n        /* \"https://github.com/Vectorized/solady/blob/main/src/tokens/ERC20.sol\":28311:28329  revert(0x1c, 0x04) */\n      revert\n        /* \"https://github.com/Vectorized/solady/blob/main/src/tokens/ERC20.sol\":28188:28347  if gt(amount, allowance_) {... */\n    tag_329:\n        /* \"https://github.com/Vectorized/solady/blob/main/src/tokens/ERC20.sol\":28463:28469  amount */\n      dup3\n        /* \"https://github.com/Vectorized/solady/blob/main/src/tokens/ERC20.sol\":28451:28461  allowance_ */\n      dup2\n        /* \"https://github.com/Vectorized/solady/blob/main/src/tokens/ERC20.sol\":28447:28470  sub(allowance_, amount) */\n      sub\n        /* \"https://github.com/Vectorized/solady/blob/main/src/tokens/ERC20.sol\":28432:28445  allowanceSlot */\n      dup3\n        /* \"https://github.com/Vectorized/solady/blob/main/src/tokens/ERC20.sol\":28425:28471  sstore(allowanceSlot, sub(allowance_, amount)) */\n      sstore\n        /* \"https://github.com/Vectorized/solady/blob/main/src/tokens/ERC20.sol\":28070:28485  if not(allowance_) {... */\n    tag_328:\n        /* \"https://github.com/Vectorized/solady/blob/main/src/tokens/ERC20.sol\":27709:28495  {... */\n      pop\n      pop\n        /* \"https://github.com/Vectorized/solady/blob/main/src/tokens/ERC20.sol\":27414:28501  function _spendAllowance(address owner, address spender, uint256 amount) internal virtual {... */\n    tag_324:\n      pop\n      pop\n      pop\n      jump\t// out\n        /* \"https://github.com/Vectorized/solady/blob/main/src/tokens/ERC20.sol\":24177:25296  function _burn(address from, uint256 amount) internal virtual {... */\n    tag_261:\n        /* \"https://github.com/Vectorized/solady/blob/main/src/tokens/ERC20.sol\":24249:24295  _beforeTokenTransfer(from, address(0), amount) */\n      tag_331\n        /* \"https://github.com/Vectorized/solady/blob/main/src/tokens/ERC20.sol\":24270:24274  from */\n      dup3\n        /* \"https://github.com/Vectorized/solady/blob/main/src/tokens/ERC20.sol\":24284:24285  0 */\n      0x00\n        /* \"https://github.com/Vectorized/solady/blob/main/src/tokens/ERC20.sol\":24288:24294  amount */\n      dup4\n        /* \"https://github.com/Vectorized/solady/blob/main/src/tokens/ERC20.sol\":24249:24269  _beforeTokenTransfer */\n      tag_208\n        /* \"https://github.com/Vectorized/solady/blob/main/src/tokens/ERC20.sol\":24249:24295  _beforeTokenTransfer(from, address(0), amount) */\n      jump\t// in\n    tag_331:\n        /* \"https://github.com/Vectorized/solady/blob/main/src/tokens/ERC20.sol\":24444:24462  _BALANCE_SLOT_SEED */\n      0x87a211a2\n        /* \"https://github.com/Vectorized/solady/blob/main/src/tokens/ERC20.sol\":24438:24442  0x0c */\n      0x0c\n        /* \"https://github.com/Vectorized/solady/blob/main/src/tokens/ERC20.sol\":24431:24463  mstore(0x0c, _BALANCE_SLOT_SEED) */\n      mstore\n        /* \"https://github.com/Vectorized/solady/blob/main/src/tokens/ERC20.sol\":24489:24493  from */\n      dup2\n        /* \"https://github.com/Vectorized/solady/blob/main/src/tokens/ERC20.sol\":24483:24487  0x00 */\n      0x00\n        /* \"https://github.com/Vectorized/solady/blob/main/src/tokens/ERC20.sol\":24476:24494  mstore(0x00, from) */\n      mstore\n        /* \"https://github.com/Vectorized/solady/blob/main/src/tokens/ERC20.sol\":24546:24550  0x20 */\n      0x20\n        /* \"https://github.com/Vectorized/solady/blob/main/src/tokens/ERC20.sol\":24540:24544  0x0c */\n      0x0c\n        /* \"https://github.com/Vectorized/solady/blob/main/src/tokens/ERC20.sol\":24530:24551  keccak256(0x0c, 0x20) */\n      keccak256\n        /* \"https://github.com/Vectorized/solady/blob/main/src/tokens/ERC20.sol\":24589:24604  fromBalanceSlot */\n      dup1\n        /* \"https://github.com/Vectorized/solady/blob/main/src/tokens/ERC20.sol\":24583:24605  sload(fromBalanceSlot) */\n      sload\n        /* \"https://github.com/Vectorized/solady/blob/main/src/tokens/ERC20.sol\":24679:24690  fromBalance */\n      dup1\n        /* \"https://github.com/Vectorized/solady/blob/main/src/tokens/ERC20.sol\":24671:24677  amount */\n      dup4\n        /* \"https://github.com/Vectorized/solady/blob/main/src/tokens/ERC20.sol\":24668:24691  gt(amount, fromBalance) */\n      gt\n        /* \"https://github.com/Vectorized/solady/blob/main/src/tokens/ERC20.sol\":24665:24811  if gt(amount, fromBalance) {... */\n      iszero\n      tag_332\n      jumpi\n        /* \"https://github.com/Vectorized/solady/blob/main/src/tokens/ERC20.sol\":24723:24733  0xf4d678b8 */\n      0xf4d678b8\n        /* \"https://github.com/Vectorized/solady/blob/main/src/tokens/ERC20.sol\":24717:24721  0x00 */\n      0x00\n        /* \"https://github.com/Vectorized/solady/blob/main/src/tokens/ERC20.sol\":24710:24734  mstore(0x00, 0xf4d678b8) */\n      mstore\n        /* \"https://github.com/Vectorized/solady/blob/main/src/tokens/ERC20.sol\":24792:24796  0x04 */\n      0x04\n        /* \"https://github.com/Vectorized/solady/blob/main/src/tokens/ERC20.sol\":24786:24790  0x1c */\n      0x1c\n        /* \"https://github.com/Vectorized/solady/blob/main/src/tokens/ERC20.sol\":24779:24797  revert(0x1c, 0x04) */\n      revert\n        /* \"https://github.com/Vectorized/solady/blob/main/src/tokens/ERC20.sol\":24665:24811  if gt(amount, fromBalance) {... */\n    tag_332:\n        /* \"https://github.com/Vectorized/solady/blob/main/src/tokens/ERC20.sol\":24920:24926  amount */\n      dup3\n        /* \"https://github.com/Vectorized/solady/blob/main/src/tokens/ERC20.sol\":24907:24918  fromBalance */\n      dup2\n        /* \"https://github.com/Vectorized/solady/blob/main/src/tokens/ERC20.sol\":24903:24927  sub(fromBalance, amount) */\n      sub\n        /* \"https://github.com/Vectorized/solady/blob/main/src/tokens/ERC20.sol\":24886:24901  fromBalanceSlot */\n      dup3\n        /* \"https://github.com/Vectorized/solady/blob/main/src/tokens/ERC20.sol\":24879:24928  sstore(fromBalanceSlot, sub(fromBalance, amount)) */\n      sstore\n        /* \"https://github.com/Vectorized/solady/blob/main/src/tokens/ERC20.sol\":25059:25065  amount */\n      dup3\n        /* \"https://github.com/Vectorized/solady/blob/main/src/tokens/ERC20.sol\":25038:25056  _TOTAL_SUPPLY_SLOT */\n      0x05345cdf77eb68f44c\n        /* \"https://github.com/Vectorized/solady/blob/main/src/tokens/ERC20.sol\":25032:25057  sload(_TOTAL_SUPPLY_SLOT) */\n      sload\n        /* \"https://github.com/Vectorized/solady/blob/main/src/tokens/ERC20.sol\":25028:25066  sub(sload(_TOTAL_SUPPLY_SLOT), amount) */\n      sub\n        /* \"https://github.com/Vectorized/solady/blob/main/src/tokens/ERC20.sol\":25008:25026  _TOTAL_SUPPLY_SLOT */\n      0x05345cdf77eb68f44c\n        /* \"https://github.com/Vectorized/solady/blob/main/src/tokens/ERC20.sol\":25001:25067  sstore(_TOTAL_SUPPLY_SLOT, sub(sload(_TOTAL_SUPPLY_SLOT), amount)) */\n      sstore\n        /* \"https://github.com/Vectorized/solady/blob/main/src/tokens/ERC20.sol\":25135:25141  amount */\n      dup3\n        /* \"https://github.com/Vectorized/solady/blob/main/src/tokens/ERC20.sol\":25129:25133  0x00 */\n      0x00\n        /* \"https://github.com/Vectorized/solady/blob/main/src/tokens/ERC20.sol\":25122:25142  mstore(0x00, amount) */\n      mstore\n        /* \"https://github.com/Vectorized/solady/blob/main/src/tokens/ERC20.sol\":25223:25224  0 */\n      0x00\n        /* \"https://github.com/Vectorized/solady/blob/main/src/tokens/ERC20.sol\":25215:25219  from */\n      dup5\n        /* \"https://github.com/Vectorized/solady/blob/main/src/tokens/ERC20.sol\":25211:25213  96 */\n      0x60\n        /* \"https://github.com/Vectorized/solady/blob/main/src/tokens/ERC20.sol\":25207:25220  shl(96, from) */\n      shl\n        /* \"https://github.com/Vectorized/solady/blob/main/src/tokens/ERC20.sol\":25203:25205  96 */\n      0x60\n        /* \"https://github.com/Vectorized/solady/blob/main/src/tokens/ERC20.sol\":25199:25221  shr(96, shl(96, from)) */\n      shr\n        /* \"https://github.com/Vectorized/solady/blob/main/src/tokens/ERC20.sol\":25172:25197  _TRANSFER_EVENT_SIGNATURE */\n      0xddf252ad1be2c89b69c2b068fc378daa952ba7f163c4a11628f55a4df523b3ef\n        /* \"https://github.com/Vectorized/solady/blob/main/src/tokens/ERC20.sol\":25166:25170  0x20 */\n      0x20\n        /* \"https://github.com/Vectorized/solady/blob/main/src/tokens/ERC20.sol\":25160:25164  0x00 */\n      0x00\n        /* \"https://github.com/Vectorized/solady/blob/main/src/tokens/ERC20.sol\":25155:25225  log3(0x00, 0x20, _TRANSFER_EVENT_SIGNATURE, shr(96, shl(96, from)), 0) */\n      log3\n        /* \"https://github.com/Vectorized/solady/blob/main/src/tokens/ERC20.sol\":24357:25235  {... */\n      pop\n      pop\n        /* \"https://github.com/Vectorized/solady/blob/main/src/tokens/ERC20.sol\":25244:25289  _afterTokenTransfer(from, address(0), amount) */\n      tag_333\n        /* \"https://github.com/Vectorized/solady/blob/main/src/tokens/ERC20.sol\":25264:25268  from */\n      dup3\n        /* \"https://github.com/Vectorized/solady/blob/main/src/tokens/ERC20.sol\":25278:25279  0 */\n      0x00\n        /* \"https://github.com/Vectorized/solady/blob/main/src/tokens/ERC20.sol\":25282:25288  amount */\n      dup4\n        /* \"https://github.com/Vectorized/solady/blob/main/src/tokens/ERC20.sol\":25244:25263  _afterTokenTransfer */\n      tag_220\n        /* \"https://github.com/Vectorized/solady/blob/main/src/tokens/ERC20.sol\":25244:25289  _afterTokenTransfer(from, address(0), amount) */\n      jump\t// in\n    tag_333:\n        /* \"https://github.com/Vectorized/solady/blob/main/src/tokens/ERC20.sol\":24177:25296  function _burn(address from, uint256 amount) internal virtual {... */\n      pop\n      pop\n      jump\t// out\n        /* \"@openzeppelin/contracts/utils/Context.sol\":656:752  function _msgSender() internal view virtual returns (address) {... */\n    tag_310:\n        /* \"@openzeppelin/contracts/utils/Context.sol\":709:716  address */\n      0x00\n        /* \"@openzeppelin/contracts/utils/Context.sol\":735:745  msg.sender */\n      caller\n        /* \"@openzeppelin/contracts/utils/Context.sol\":728:745  return msg.sender */\n      swap1\n      pop\n        /* \"@openzeppelin/contracts/utils/Context.sol\":656:752  function _msgSender() internal view virtual returns (address) {... */\n      swap1\n      jump\t// out\n        /* \"#utility.yul\":7:106   */\n    tag_335:\n        /* \"#utility.yul\":59:65   */\n      0x00\n        /* \"#utility.yul\":93:98   */\n      dup2\n        /* \"#utility.yul\":87:99   */\n      mload\n        /* \"#utility.yul\":77:99   */\n      swap1\n      pop\n        /* \"#utility.yul\":7:106   */\n      swap2\n      swap1\n      pop\n      jump\t// out\n        /* \"#utility.yul\":112:281   */\n    tag_336:\n        /* \"#utility.yul\":196:207   */\n      0x00\n        /* \"#utility.yul\":230:236   */\n      dup3\n        /* \"#utility.yul\":225:228   */\n      dup3\n        /* \"#utility.yul\":218:237   */\n      mstore\n        /* \"#utility.yul\":270:274   */\n      0x20\n        /* \"#utility.yul\":265:268   */\n      dup3\n        /* \"#utility.yul\":261:275   */\n      add\n        /* \"#utility.yul\":246:275   */\n      swap1\n      pop\n        /* \"#utility.yul\":112:281   */\n      swap3\n      swap2\n      pop\n      pop\n      jump\t// out\n        /* \"#utility.yul\":287:426   */\n    tag_337:\n        /* \"#utility.yul\":376:382   */\n      dup3\n        /* \"#utility.yul\":371:374   */\n      dup2\n        /* \"#utility.yul\":366:369   */\n      dup4\n        /* \"#utility.yul\":360:383   */\n      mcopy\n        /* \"#utility.yul\":417:418   */\n      0x00\n        /* \"#utility.yul\":408:414   */\n      dup4\n        /* \"#utility.yul\":403:406   */\n      dup4\n        /* \"#utility.yul\":399:415   */\n      add\n        /* \"#utility.yul\":392:419   */\n      mstore\n        /* \"#utility.yul\":287:426   */\n      pop\n      pop\n      pop\n      jump\t// out\n        /* \"#utility.yul\":432:534   */\n    tag_338:\n        /* \"#utility.yul\":473:479   */\n      0x00\n        /* \"#utility.yul\":524:526   */\n      0x1f\n        /* \"#utility.yul\":520:527   */\n      not\n        /* \"#utility.yul\":515:517   */\n      0x1f\n        /* \"#utility.yul\":508:513   */\n      dup4\n        /* \"#utility.yul\":504:518   */\n      add\n        /* \"#utility.yul\":500:528   */\n      and\n        /* \"#utility.yul\":490:528   */\n      swap1\n      pop\n        /* \"#utility.yul\":432:534   */\n      swap2\n      swap1\n      pop\n      jump\t// out\n        /* \"#utility.yul\":540:917   */\n    tag_339:\n        /* \"#utility.yul\":628:631   */\n      0x00\n        /* \"#utility.yul\":656:695   */\n      tag_382\n        /* \"#utility.yul\":689:694   */\n      dup3\n        /* \"#utility.yul\":656:695   */\n      tag_335\n      jump\t// in\n    tag_382:\n        /* \"#utility.yul\":711:782   */\n      tag_383\n        /* \"#utility.yul\":775:781   */\n      dup2\n        /* \"#utility.yul\":770:773   */\n      dup6\n        /* \"#utility.yul\":711:782   */\n      tag_336\n      jump\t// in\n    tag_383:\n        /* \"#utility.yul\":704:782   */\n      swap4\n      pop\n        /* \"#utility.yul\":791:856   */\n      tag_384\n        /* \"#utility.yul\":849:855   */\n      dup2\n        /* \"#utility.yul\":844:847   */\n      dup6\n        /* \"#utility.yul\":837:841   */\n      0x20\n        /* \"#utility.yul\":830:835   */\n      dup7\n        /* \"#utility.yul\":826:842   */\n      add\n        /* \"#utility.yul\":791:856   */\n      tag_337\n      jump\t// in\n    tag_384:\n        /* \"#utility.yul\":881:910   */\n      tag_385\n        /* \"#utility.yul\":903:909   */\n      dup2\n        /* \"#utility.yul\":881:910   */\n      tag_338\n      jump\t// in\n    tag_385:\n        /* \"#utility.yul\":876:879   */\n      dup5\n        /* \"#utility.yul\":872:911   */\n      add\n        /* \"#utility.yul\":865:911   */\n      swap2\n      pop\n        /* \"#utility.yul\":632:917   */\n      pop\n        /* \"#utility.yul\":540:917   */\n      swap3\n      swap2\n      pop\n      pop\n      jump\t// out\n        /* \"#utility.yul\":923:1236   */\n    tag_39:\n        /* \"#utility.yul\":1036:1040   */\n      0x00\n        /* \"#utility.yul\":1074:1076   */\n      0x20\n        /* \"#utility.yul\":1063:1072   */\n      dup3\n        /* \"#utility.yul\":1059:1077   */\n      add\n        /* \"#utility.yul\":1051:1077   */\n      swap1\n      pop\n        /* \"#utility.yul\":1123:1132   */\n      dup2\n        /* \"#utility.yul\":1117:1121   */\n      dup2\n        /* \"#utility.yul\":1113:1133   */\n      sub\n        /* \"#utility.yul\":1109:1110   */\n      0x00\n        /* \"#utility.yul\":1098:1107   */\n      dup4\n        /* \"#utility.yul\":1094:1111   */\n      add\n        /* \"#utility.yul\":1087:1134   */\n      mstore\n        /* \"#utility.yul\":1151:1229   */\n      tag_387\n        /* \"#utility.yul\":1224:1228   */\n      dup2\n        /* \"#utility.yul\":1215:1221   */\n      dup5\n        /* \"#utility.yul\":1151:1229   */\n      tag_339\n      jump\t// in\n    tag_387:\n        /* \"#utility.yul\":1143:1229   */\n      swap1\n      pop\n        /* \"#utility.yul\":923:1236   */\n      swap3\n      swap2\n      pop\n      pop\n      jump\t// out\n        /* \"#utility.yul\":1323:1440   */\n    tag_341:\n        /* \"#utility.yul\":1432:1433   */\n      0x00\n        /* \"#utility.yul\":1429:1430   */\n      0x00\n        /* \"#utility.yul\":1422:1434   */\n      revert\n        /* \"#utility.yul\":1446:1563   */\n    tag_342:\n        /* \"#utility.yul\":1555:1556   */\n      0x00\n        /* \"#utility.yul\":1552:1553   */\n      0x00\n        /* \"#utility.yul\":1545:1557   */\n      revert\n        /* \"#utility.yul\":1569:1646   */\n    tag_343:\n        /* \"#utility.yul\":1606:1613   */\n      0x00\n        /* \"#utility.yul\":1635:1640   */\n      dup2\n        /* \"#utility.yul\":1624:1640   */\n      swap1\n      pop\n        /* \"#utility.yul\":1569:1646   */\n      swap2\n      swap1\n      pop\n      jump\t// out\n        /* \"#utility.yul\":1652:1774   */\n    tag_344:\n        /* \"#utility.yul\":1725:1749   */\n      tag_393\n        /* \"#utility.yul\":1743:1748   */\n      dup2\n        /* \"#utility.yul\":1725:1749   */\n      tag_343\n      jump\t// in\n    tag_393:\n        /* \"#utility.yul\":1718:1723   */\n      dup2\n        /* \"#utility.yul\":1715:1750   */\n      eq\n        /* \"#utility.yul\":1705:1768   */\n      tag_394\n      jumpi\n        /* \"#utility.yul\":1764:1765   */\n      0x00\n        /* \"#utility.yul\":1761:1762   */\n      0x00\n        /* \"#utility.yul\":1754:1766   */\n      revert\n        /* \"#utility.yul\":1705:1768   */\n    tag_394:\n        /* \"#utility.yul\":1652:1774   */\n      pop\n      jump\t// out\n        /* \"#utility.yul\":1780:1919   */\n    tag_345:\n        /* \"#utility.yul\":1826:1831   */\n      0x00\n        /* \"#utility.yul\":1864:1870   */\n      dup2\n        /* \"#utility.yul\":1851:1871   */\n      calldataload\n        /* \"#utility.yul\":1842:1871   */\n      swap1\n      pop\n        /* \"#utility.yul\":1880:1913   */\n      tag_396\n        /* \"#utility.yul\":1907:1912   */\n      dup2\n        /* \"#utility.yul\":1880:1913   */\n      tag_344\n      jump\t// in\n    tag_396:\n        /* \"#utility.yul\":1780:1919   */\n      swap3\n      swap2\n      pop\n      pop\n      jump\t// out\n        /* \"#utility.yul\":1925:2254   */\n    tag_43:\n        /* \"#utility.yul\":1984:1990   */\n      0x00\n        /* \"#utility.yul\":2033:2035   */\n      0x20\n        /* \"#utility.yul\":2021:2030   */\n      dup3\n        /* \"#utility.yul\":2012:2019   */\n      dup5\n        /* \"#utility.yul\":2008:2031   */\n      sub\n        /* \"#utility.yul\":2004:2036   */\n      slt\n        /* \"#utility.yul\":2001:2120   */\n      iszero\n      tag_398\n      jumpi\n        /* \"#utility.yul\":2039:2118   */\n      tag_399\n      tag_341\n      jump\t// in\n    tag_399:\n        /* \"#utility.yul\":2001:2120   */\n    tag_398:\n        /* \"#utility.yul\":2159:2160   */\n      0x00\n        /* \"#utility.yul\":2184:2237   */\n      tag_400\n        /* \"#utility.yul\":2229:2236   */\n      dup5\n        /* \"#utility.yul\":2220:2226   */\n      dup3\n        /* \"#utility.yul\":2209:2218   */\n      dup6\n        /* \"#utility.yul\":2205:2227   */\n      add\n        /* \"#utility.yul\":2184:2237   */\n      tag_345\n      jump\t// in\n    tag_400:\n        /* \"#utility.yul\":2174:2237   */\n      swap2\n      pop\n        /* \"#utility.yul\":2130:2247   */\n      pop\n        /* \"#utility.yul\":1925:2254   */\n      swap3\n      swap2\n      pop\n      pop\n      jump\t// out\n        /* \"#utility.yul\":2260:2378   */\n    tag_346:\n        /* \"#utility.yul\":2347:2371   */\n      tag_402\n        /* \"#utility.yul\":2365:2370   */\n      dup2\n        /* \"#utility.yul\":2347:2371   */\n      tag_343\n      jump\t// in\n    tag_402:\n        /* \"#utility.yul\":2342:2345   */\n      dup3\n        /* \"#utility.yul\":2335:2372   */\n      mstore\n        /* \"#utility.yul\":2260:2378   */\n      pop\n      pop\n      jump\t// out\n        /* \"#utility.yul\":2384:2606   */\n    tag_46:\n        /* \"#utility.yul\":2477:2481   */\n      0x00\n        /* \"#utility.yul\":2515:2517   */\n      0x20\n        /* \"#utility.yul\":2504:2513   */\n      dup3\n        /* \"#utility.yul\":2500:2518   */\n      add\n        /* \"#utility.yul\":2492:2518   */\n      swap1\n      pop\n        /* \"#utility.yul\":2528:2599   */\n      tag_404\n        /* \"#utility.yul\":2596:2597   */\n      0x00\n        /* \"#utility.yul\":2585:2594   */\n      dup4\n        /* \"#utility.yul\":2581:2598   */\n      add\n        /* \"#utility.yul\":2572:2578   */\n      dup5\n        /* \"#utility.yul\":2528:2599   */\n      tag_346\n      jump\t// in\n    tag_404:\n        /* \"#utility.yul\":2384:2606   */\n      swap3\n      swap2\n      pop\n      pop\n      jump\t// out\n        /* \"#utility.yul\":2612:2738   */\n    tag_347:\n        /* \"#utility.yul\":2649:2656   */\n      0x00\n        /* \"#utility.yul\":2689:2731   */\n      0xffffffffffffffffffffffffffffffffffffffff\n        /* \"#utility.yul\":2682:2687   */\n      dup3\n        /* \"#utility.yul\":2678:2732   */\n      and\n        /* \"#utility.yul\":2667:2732   */\n      swap1\n      pop\n        /* \"#utility.yul\":2612:2738   */\n      swap2\n      swap1\n      pop\n      jump\t// out\n        /* \"#utility.yul\":2744:2840   */\n    tag_348:\n        /* \"#utility.yul\":2781:2788   */\n      0x00\n        /* \"#utility.yul\":2810:2834   */\n      tag_407\n        /* \"#utility.yul\":2828:2833   */\n      dup3\n        /* \"#utility.yul\":2810:2834   */\n      tag_347\n      jump\t// in\n    tag_407:\n        /* \"#utility.yul\":2799:2834   */\n      swap1\n      pop\n        /* \"#utility.yul\":2744:2840   */\n      swap2\n      swap1\n      pop\n      jump\t// out\n        /* \"#utility.yul\":2846:2968   */\n    tag_349:\n        /* \"#utility.yul\":2919:2943   */\n      tag_409\n        /* \"#utility.yul\":2937:2942   */\n      dup2\n        /* \"#utility.yul\":2919:2943   */\n      tag_348\n      jump\t// in\n    tag_409:\n        /* \"#utility.yul\":2912:2917   */\n      dup2\n        /* \"#utility.yul\":2909:2944   */\n      eq\n        /* \"#utility.yul\":2899:2962   */\n      tag_410\n      jumpi\n        /* \"#utility.yul\":2958:2959   */\n      0x00\n        /* \"#utility.yul\":2955:2956   */\n      0x00\n        /* \"#utility.yul\":2948:2960   */\n      revert\n        /* \"#utility.yul\":2899:2962   */\n    tag_410:\n        /* \"#utility.yul\":2846:2968   */\n      pop\n      jump\t// out\n        /* \"#utility.yul\":2974:3113   */\n    tag_350:\n        /* \"#utility.yul\":3020:3025   */\n      0x00\n        /* \"#utility.yul\":3058:3064   */\n      dup2\n        /* \"#utility.yul\":3045:3065   */\n      calldataload\n        /* \"#utility.yul\":3036:3065   */\n      swap1\n      pop\n        /* \"#utility.yul\":3074:3107   */\n      tag_412\n        /* \"#utility.yul\":3101:3106   */\n      dup2\n        /* \"#utility.yul\":3074:3107   */\n      tag_349\n      jump\t// in\n    tag_412:\n        /* \"#utility.yul\":2974:3113   */\n      swap3\n      swap2\n      pop\n      pop\n      jump\t// out\n        /* \"#utility.yul\":3119:3593   */\n    tag_50:\n        /* \"#utility.yul\":3187:3193   */\n      0x00\n        /* \"#utility.yul\":3195:3201   */\n      0x00\n        /* \"#utility.yul\":3244:3246   */\n      0x40\n        /* \"#utility.yul\":3232:3241   */\n      dup4\n        /* \"#utility.yul\":3223:3230   */\n      dup6\n        /* \"#utility.yul\":3219:3242   */\n      sub\n        /* \"#utility.yul\":3215:3247   */\n      slt\n        /* \"#utility.yul\":3212:3331   */\n      iszero\n      tag_414\n      jumpi\n        /* \"#utility.yul\":3250:3329   */\n      tag_415\n      tag_341\n      jump\t// in\n    tag_415:\n        /* \"#utility.yul\":3212:3331   */\n    tag_414:\n        /* \"#utility.yul\":3370:3371   */\n      0x00\n        /* \"#utility.yul\":3395:3448   */\n      tag_416\n        /* \"#utility.yul\":3440:3447   */\n      dup6\n        /* \"#utility.yul\":3431:3437   */\n      dup3\n        /* \"#utility.yul\":3420:3429   */\n      dup7\n        /* \"#utility.yul\":3416:3438   */\n      add\n        /* \"#utility.yul\":3395:3448   */\n      tag_350\n      jump\t// in\n    tag_416:\n        /* \"#utility.yul\":3385:3448   */\n      swap3\n      pop\n        /* \"#utility.yul\":3341:3458   */\n      pop\n        /* \"#utility.yul\":3497:3499   */\n      0x20\n        /* \"#utility.yul\":3523:3576   */\n      tag_417\n        /* \"#utility.yul\":3568:3575   */\n      dup6\n        /* \"#utility.yul\":3559:3565   */\n      dup3\n        /* \"#utility.yul\":3548:3557   */\n      dup7\n        /* \"#utility.yul\":3544:3566   */\n      add\n        /* \"#utility.yul\":3523:3576   */\n      tag_345\n      jump\t// in\n    tag_417:\n        /* \"#utility.yul\":3513:3576   */\n      swap2\n      pop\n        /* \"#utility.yul\":3468:3586   */\n      pop\n        /* \"#utility.yul\":3119:3593   */\n      swap3\n      pop\n      swap3\n      swap1\n      pop\n      jump\t// out\n        /* \"#utility.yul\":3599:3689   */\n    tag_351:\n        /* \"#utility.yul\":3633:3640   */\n      0x00\n        /* \"#utility.yul\":3676:3681   */\n      dup2\n        /* \"#utility.yul\":3669:3682   */\n      iszero\n        /* \"#utility.yul\":3662:3683   */\n      iszero\n        /* \"#utility.yul\":3651:3683   */\n      swap1\n      pop\n        /* \"#utility.yul\":3599:3689   */\n      swap2\n      swap1\n      pop\n      jump\t// out\n        /* \"#utility.yul\":3695:3804   */\n    tag_352:\n        /* \"#utility.yul\":3776:3797   */\n      tag_420\n        /* \"#utility.yul\":3791:3796   */\n      dup2\n        /* \"#utility.yul\":3776:3797   */\n      tag_351\n      jump\t// in\n    tag_420:\n        /* \"#utility.yul\":3771:3774   */\n      dup3\n        /* \"#utility.yul\":3764:3798   */\n      mstore\n        /* \"#utility.yul\":3695:3804   */\n      pop\n      pop\n      jump\t// out\n        /* \"#utility.yul\":3810:4020   */\n    tag_53:\n        /* \"#utility.yul\":3897:3901   */\n      0x00\n        /* \"#utility.yul\":3935:3937   */\n      0x20\n        /* \"#utility.yul\":3924:3933   */\n      dup3\n        /* \"#utility.yul\":3920:3938   */\n      add\n        /* \"#utility.yul\":3912:3938   */\n      swap1\n      pop\n        /* \"#utility.yul\":3948:4013   */\n      tag_422\n        /* \"#utility.yul\":4010:4011   */\n      0x00\n        /* \"#utility.yul\":3999:4008   */\n      dup4\n        /* \"#utility.yul\":3995:4012   */\n      add\n        /* \"#utility.yul\":3986:3992   */\n      dup5\n        /* \"#utility.yul\":3948:4013   */\n      tag_352\n      jump\t// in\n    tag_422:\n        /* \"#utility.yul\":3810:4020   */\n      swap3\n      swap2\n      pop\n      pop\n      jump\t// out\n        /* \"#utility.yul\":4026:4143   */\n    tag_353:\n        /* \"#utility.yul\":4135:4136   */\n      0x00\n        /* \"#utility.yul\":4132:4133   */\n      0x00\n        /* \"#utility.yul\":4125:4137   */\n      revert\n        /* \"#utility.yul\":4149:4266   */\n    tag_354:\n        /* \"#utility.yul\":4258:4259   */\n      0x00\n        /* \"#utility.yul\":4255:4256   */\n      0x00\n        /* \"#utility.yul\":4248:4260   */\n      revert\n        /* \"#utility.yul\":4272:4389   */\n    tag_355:\n        /* \"#utility.yul\":4381:4382   */\n      0x00\n        /* \"#utility.yul\":4378:4379   */\n      0x00\n        /* \"#utility.yul\":4371:4383   */\n      revert\n        /* \"#utility.yul\":4408:4960   */\n    tag_356:\n        /* \"#utility.yul\":4465:4473   */\n      0x00\n        /* \"#utility.yul\":4475:4481   */\n      0x00\n        /* \"#utility.yul\":4525:4528   */\n      dup4\n        /* \"#utility.yul\":4518:4522   */\n      0x1f\n        /* \"#utility.yul\":4510:4516   */\n      dup5\n        /* \"#utility.yul\":4506:4523   */\n      add\n        /* \"#utility.yul\":4502:4529   */\n      slt\n        /* \"#utility.yul\":4492:4614   */\n      tag_427\n      jumpi\n        /* \"#utility.yul\":4533:4612   */\n      tag_428\n      tag_353\n      jump\t// in\n    tag_428:\n        /* \"#utility.yul\":4492:4614   */\n    tag_427:\n        /* \"#utility.yul\":4646:4652   */\n      dup3\n        /* \"#utility.yul\":4633:4653   */\n      calldataload\n        /* \"#utility.yul\":4623:4653   */\n      swap1\n      pop\n        /* \"#utility.yul\":4676:4694   */\n      0xffffffffffffffff\n        /* \"#utility.yul\":4668:4674   */\n      dup2\n        /* \"#utility.yul\":4665:4695   */\n      gt\n        /* \"#utility.yul\":4662:4779   */\n      iszero\n      tag_429\n      jumpi\n        /* \"#utility.yul\":4698:4777   */\n      tag_430\n      tag_354\n      jump\t// in\n    tag_430:\n        /* \"#utility.yul\":4662:4779   */\n    tag_429:\n        /* \"#utility.yul\":4812:4816   */\n      0x20\n        /* \"#utility.yul\":4804:4810   */\n      dup4\n        /* \"#utility.yul\":4800:4817   */\n      add\n        /* \"#utility.yul\":4788:4817   */\n      swap2\n      pop\n        /* \"#utility.yul\":4866:4869   */\n      dup4\n        /* \"#utility.yul\":4858:4862   */\n      0x01\n        /* \"#utility.yul\":4850:4856   */\n      dup3\n        /* \"#utility.yul\":4846:4863   */\n      mul\n        /* \"#utility.yul\":4836:4844   */\n      dup4\n        /* \"#utility.yul\":4832:4864   */\n      add\n        /* \"#utility.yul\":4829:4870   */\n      gt\n        /* \"#utility.yul\":4826:4954   */\n      iszero\n      tag_431\n      jumpi\n        /* \"#utility.yul\":4873:4952   */\n      tag_432\n      tag_355\n      jump\t// in\n    tag_432:\n        /* \"#utility.yul\":4826:4954   */\n    tag_431:\n        /* \"#utility.yul\":4408:4960   */\n      swap3\n      pop\n      swap3\n      swap1\n      pop\n      jump\t// out\n        /* \"#utility.yul\":4966:5783   */\n    tag_62:\n        /* \"#utility.yul\":5054:5060   */\n      0x00\n        /* \"#utility.yul\":5062:5068   */\n      0x00\n        /* \"#utility.yul\":5070:5076   */\n      0x00\n        /* \"#utility.yul\":5078:5084   */\n      0x00\n        /* \"#utility.yul\":5127:5129   */\n      0x60\n        /* \"#utility.yul\":5115:5124   */\n      dup6\n        /* \"#utility.yul\":5106:5113   */\n      dup8\n        /* \"#utility.yul\":5102:5125   */\n      sub\n        /* \"#utility.yul\":5098:5130   */\n      slt\n        /* \"#utility.yul\":5095:5214   */\n      iszero\n      tag_434\n      jumpi\n        /* \"#utility.yul\":5133:5212   */\n      tag_435\n      tag_341\n      jump\t// in\n    tag_435:\n        /* \"#utility.yul\":5095:5214   */\n    tag_434:\n        /* \"#utility.yul\":5253:5254   */\n      0x00\n        /* \"#utility.yul\":5278:5331   */\n      tag_436\n        /* \"#utility.yul\":5323:5330   */\n      dup8\n        /* \"#utility.yul\":5314:5320   */\n      dup3\n        /* \"#utility.yul\":5303:5312   */\n      dup9\n        /* \"#utility.yul\":5299:5321   */\n      add\n        /* \"#utility.yul\":5278:5331   */\n      tag_350\n      jump\t// in\n    tag_436:\n        /* \"#utility.yul\":5268:5331   */\n      swap5\n      pop\n        /* \"#utility.yul\":5224:5341   */\n      pop\n        /* \"#utility.yul\":5380:5382   */\n      0x20\n        /* \"#utility.yul\":5406:5459   */\n      tag_437\n        /* \"#utility.yul\":5451:5458   */\n      dup8\n        /* \"#utility.yul\":5442:5448   */\n      dup3\n        /* \"#utility.yul\":5431:5440   */\n      dup9\n        /* \"#utility.yul\":5427:5449   */\n      add\n        /* \"#utility.yul\":5406:5459   */\n      tag_345\n      jump\t// in\n    tag_437:\n        /* \"#utility.yul\":5396:5459   */\n      swap4\n      pop\n        /* \"#utility.yul\":5351:5469   */\n      pop\n        /* \"#utility.yul\":5536:5538   */\n      0x40\n        /* \"#utility.yul\":5525:5534   */\n      dup6\n        /* \"#utility.yul\":5521:5539   */\n      add\n        /* \"#utility.yul\":5508:5540   */\n      calldataload\n        /* \"#utility.yul\":5567:5585   */\n      0xffffffffffffffff\n        /* \"#utility.yul\":5559:5565   */\n      dup2\n        /* \"#utility.yul\":5556:5586   */\n      gt\n        /* \"#utility.yul\":5553:5670   */\n      iszero\n      tag_438\n      jumpi\n        /* \"#utility.yul\":5589:5668   */\n      tag_439\n      tag_342\n      jump\t// in\n    tag_439:\n        /* \"#utility.yul\":5553:5670   */\n    tag_438:\n        /* \"#utility.yul\":5702:5766   */\n      tag_440\n        /* \"#utility.yul\":5758:5765   */\n      dup8\n        /* \"#utility.yul\":5749:5755   */\n      dup3\n        /* \"#utility.yul\":5738:5747   */\n      dup9\n        /* \"#utility.yul\":5734:5756   */\n      add\n        /* \"#utility.yul\":5702:5766   */\n      tag_356\n      jump\t// in\n    tag_440:\n        /* \"#utility.yul\":5684:5766   */\n      swap3\n      pop\n      swap3\n      pop\n        /* \"#utility.yul\":5479:5776   */\n      pop\n        /* \"#utility.yul\":4966:5783   */\n      swap3\n      swap6\n      swap2\n      swap5\n      pop\n      swap3\n      pop\n      jump\t// out\n        /* \"#utility.yul\":5789:5887   */\n    tag_357:\n        /* \"#utility.yul\":5840:5846   */\n      0x00\n        /* \"#utility.yul\":5874:5879   */\n      dup2\n        /* \"#utility.yul\":5868:5880   */\n      mload\n        /* \"#utility.yul\":5858:5880   */\n      swap1\n      pop\n        /* \"#utility.yul\":5789:5887   */\n      swap2\n      swap1\n      pop\n      jump\t// out\n        /* \"#utility.yul\":5893:6061   */\n    tag_358:\n        /* \"#utility.yul\":5976:5987   */\n      0x00\n        /* \"#utility.yul\":6010:6016   */\n      dup3\n        /* \"#utility.yul\":6005:6008   */\n      dup3\n        /* \"#utility.yul\":5998:6017   */\n      mstore\n        /* \"#utility.yul\":6050:6054   */\n      0x20\n        /* \"#utility.yul\":6045:6048   */\n      dup3\n        /* \"#utility.yul\":6041:6055   */\n      add\n        /* \"#utility.yul\":6026:6055   */\n      swap1\n      pop\n        /* \"#utility.yul\":5893:6061   */\n      swap3\n      swap2\n      pop\n      pop\n      jump\t// out\n        /* \"#utility.yul\":6067:6440   */\n    tag_359:\n        /* \"#utility.yul\":6153:6156   */\n      0x00\n        /* \"#utility.yul\":6181:6219   */\n      tag_444\n        /* \"#utility.yul\":6213:6218   */\n      dup3\n        /* \"#utility.yul\":6181:6219   */\n      tag_357\n      jump\t// in\n    tag_444:\n        /* \"#utility.yul\":6235:6305   */\n      tag_445\n        /* \"#utility.yul\":6298:6304   */\n      dup2\n        /* \"#utility.yul\":6293:6296   */\n      dup6\n        /* \"#utility.yul\":6235:6305   */\n      tag_358\n      jump\t// in\n    tag_445:\n        /* \"#utility.yul\":6228:6305   */\n      swap4\n      pop\n        /* \"#utility.yul\":6314:6379   */\n      tag_446\n        /* \"#utility.yul\":6372:6378   */\n      dup2\n        /* \"#utility.yul\":6367:6370   */\n      dup6\n        /* \"#utility.yul\":6360:6364   */\n      0x20\n        /* \"#utility.yul\":6353:6358   */\n      dup7\n        /* \"#utility.yul\":6349:6365   */\n      add\n        /* \"#utility.yul\":6314:6379   */\n      tag_337\n      jump\t// in\n    tag_446:\n        /* \"#utility.yul\":6404:6433   */\n      tag_447\n        /* \"#utility.yul\":6426:6432   */\n      dup2\n        /* \"#utility.yul\":6404:6433   */\n      tag_338\n      jump\t// in\n    tag_447:\n        /* \"#utility.yul\":6399:6402   */\n      dup5\n        /* \"#utility.yul\":6395:6434   */\n      add\n        /* \"#utility.yul\":6388:6434   */\n      swap2\n      pop\n        /* \"#utility.yul\":6157:6440   */\n      pop\n        /* \"#utility.yul\":6067:6440   */\n      swap3\n      swap2\n      pop\n      pop\n      jump\t// out\n        /* \"#utility.yul\":6446:6755   */\n    tag_65:\n        /* \"#utility.yul\":6557:6561   */\n      0x00\n        /* \"#utility.yul\":6595:6597   */\n      0x20\n        /* \"#utility.yul\":6584:6593   */\n      dup3\n        /* \"#utility.yul\":6580:6598   */\n      add\n        /* \"#utility.yul\":6572:6598   */\n      swap1\n      pop\n        /* \"#utility.yul\":6644:6653   */\n      dup2\n        /* \"#utility.yul\":6638:6642   */\n      dup2\n        /* \"#utility.yul\":6634:6654   */\n      sub\n        /* \"#utility.yul\":6630:6631   */\n      0x00\n        /* \"#utility.yul\":6619:6628   */\n      dup4\n        /* \"#utility.yul\":6615:6632   */\n      add\n        /* \"#utility.yul\":6608:6655   */\n      mstore\n        /* \"#utility.yul\":6672:6748   */\n      tag_449\n        /* \"#utility.yul\":6743:6747   */\n      dup2\n        /* \"#utility.yul\":6734:6740   */\n      dup5\n        /* \"#utility.yul\":6672:6748   */\n      tag_359\n      jump\t// in\n    tag_449:\n        /* \"#utility.yul\":6664:6748   */\n      swap1\n      pop\n        /* \"#utility.yul\":6446:6755   */\n      swap3\n      swap2\n      pop\n      pop\n      jump\t// out\n        /* \"#utility.yul\":6761:7380   */\n    tag_73:\n        /* \"#utility.yul\":6838:6844   */\n      0x00\n        /* \"#utility.yul\":6846:6852   */\n      0x00\n        /* \"#utility.yul\":6854:6860   */\n      0x00\n        /* \"#utility.yul\":6903:6905   */\n      0x60\n        /* \"#utility.yul\":6891:6900   */\n      dup5\n        /* \"#utility.yul\":6882:6889   */\n      dup7\n        /* \"#utility.yul\":6878:6901   */\n      sub\n        /* \"#utility.yul\":6874:6906   */\n      slt\n        /* \"#utility.yul\":6871:6990   */\n      iszero\n      tag_451\n      jumpi\n        /* \"#utility.yul\":6909:6988   */\n      tag_452\n      tag_341\n      jump\t// in\n    tag_452:\n        /* \"#utility.yul\":6871:6990   */\n    tag_451:\n        /* \"#utility.yul\":7029:7030   */\n      0x00\n        /* \"#utility.yul\":7054:7107   */\n      tag_453\n        /* \"#utility.yul\":7099:7106   */\n      dup7\n        /* \"#utility.yul\":7090:7096   */\n      dup3\n        /* \"#utility.yul\":7079:7088   */\n      dup8\n        /* \"#utility.yul\":7075:7097   */\n      add\n        /* \"#utility.yul\":7054:7107   */\n      tag_350\n      jump\t// in\n    tag_453:\n        /* \"#utility.yul\":7044:7107   */\n      swap4\n      pop\n        /* \"#utility.yul\":7000:7117   */\n      pop\n        /* \"#utility.yul\":7156:7158   */\n      0x20\n        /* \"#utility.yul\":7182:7235   */\n      tag_454\n        /* \"#utility.yul\":7227:7234   */\n      dup7\n        /* \"#utility.yul\":7218:7224   */\n      dup3\n        /* \"#utility.yul\":7207:7216   */\n      dup8\n        /* \"#utility.yul\":7203:7225   */\n      add\n        /* \"#utility.yul\":7182:7235   */\n      tag_350\n      jump\t// in\n    tag_454:\n        /* \"#utility.yul\":7172:7235   */\n      swap3\n      pop\n        /* \"#utility.yul\":7127:7245   */\n      pop\n        /* \"#utility.yul\":7284:7286   */\n      0x40\n        /* \"#utility.yul\":7310:7363   */\n      tag_455\n        /* \"#utility.yul\":7355:7362   */\n      dup7\n        /* \"#utility.yul\":7346:7352   */\n      dup3\n        /* \"#utility.yul\":7335:7344   */\n      dup8\n        /* \"#utility.yul\":7331:7353   */\n      add\n        /* \"#utility.yul\":7310:7363   */\n      tag_345\n      jump\t// in\n    tag_455:\n        /* \"#utility.yul\":7300:7363   */\n      swap2\n      pop\n        /* \"#utility.yul\":7255:7373   */\n      pop\n        /* \"#utility.yul\":6761:7380   */\n      swap3\n      pop\n      swap3\n      pop\n      swap3\n      jump\t// out\n        /* \"#utility.yul\":7386:7472   */\n    tag_360:\n        /* \"#utility.yul\":7421:7428   */\n      0x00\n        /* \"#utility.yul\":7461:7465   */\n      0xff\n        /* \"#utility.yul\":7454:7459   */\n      dup3\n        /* \"#utility.yul\":7450:7466   */\n      and\n        /* \"#utility.yul\":7439:7466   */\n      swap1\n      pop\n        /* \"#utility.yul\":7386:7472   */\n      swap2\n      swap1\n      pop\n      jump\t// out\n        /* \"#utility.yul\":7478:7590   */\n    tag_361:\n        /* \"#utility.yul\":7561:7583   */\n      tag_458\n        /* \"#utility.yul\":7577:7582   */\n      dup2\n        /* \"#utility.yul\":7561:7583   */\n      tag_360\n      jump\t// in\n    tag_458:\n        /* \"#utility.yul\":7556:7559   */\n      dup3\n        /* \"#utility.yul\":7549:7584   */\n      mstore\n        /* \"#utility.yul\":7478:7590   */\n      pop\n      pop\n      jump\t// out\n        /* \"#utility.yul\":7596:7810   */\n    tag_80:\n        /* \"#utility.yul\":7685:7689   */\n      0x00\n        /* \"#utility.yul\":7723:7725   */\n      0x20\n        /* \"#utility.yul\":7712:7721   */\n      dup3\n        /* \"#utility.yul\":7708:7726   */\n      add\n        /* \"#utility.yul\":7700:7726   */\n      swap1\n      pop\n        /* \"#utility.yul\":7736:7803   */\n      tag_460\n        /* \"#utility.yul\":7800:7801   */\n      0x00\n        /* \"#utility.yul\":7789:7798   */\n      dup4\n        /* \"#utility.yul\":7785:7802   */\n      add\n        /* \"#utility.yul\":7776:7782   */\n      dup5\n        /* \"#utility.yul\":7736:7803   */\n      tag_361\n      jump\t// in\n    tag_460:\n        /* \"#utility.yul\":7596:7810   */\n      swap3\n      swap2\n      pop\n      pop\n      jump\t// out\n        /* \"#utility.yul\":7816:7893   */\n    tag_362:\n        /* \"#utility.yul\":7853:7860   */\n      0x00\n        /* \"#utility.yul\":7882:7887   */\n      dup2\n        /* \"#utility.yul\":7871:7887   */\n      swap1\n      pop\n        /* \"#utility.yul\":7816:7893   */\n      swap2\n      swap1\n      pop\n      jump\t// out\n        /* \"#utility.yul\":7899:8017   */\n    tag_363:\n        /* \"#utility.yul\":7986:8010   */\n      tag_463\n        /* \"#utility.yul\":8004:8009   */\n      dup2\n        /* \"#utility.yul\":7986:8010   */\n      tag_362\n      jump\t// in\n    tag_463:\n        /* \"#utility.yul\":7981:7984   */\n      dup3\n        /* \"#utility.yul\":7974:8011   */\n      mstore\n        /* \"#utility.yul\":7899:8017   */\n      pop\n      pop\n      jump\t// out\n        /* \"#utility.yul\":8023:8245   */\n    tag_85:\n        /* \"#utility.yul\":8116:8120   */\n      0x00\n        /* \"#utility.yul\":8154:8156   */\n      0x20\n        /* \"#utility.yul\":8143:8152   */\n      dup3\n        /* \"#utility.yul\":8139:8157   */\n      add\n        /* \"#utility.yul\":8131:8157   */\n      swap1\n      pop\n        /* \"#utility.yul\":8167:8238   */\n      tag_465\n        /* \"#utility.yul\":8235:8236   */\n      0x00\n        /* \"#utility.yul\":8224:8233   */\n      dup4\n        /* \"#utility.yul\":8220:8237   */\n      add\n        /* \"#utility.yul\":8211:8217   */\n      dup5\n        /* \"#utility.yul\":8167:8238   */\n      tag_363\n      jump\t// in\n    tag_465:\n        /* \"#utility.yul\":8023:8245   */\n      swap3\n      swap2\n      pop\n      pop\n      jump\t// out\n        /* \"#utility.yul\":8251:8580   */\n    tag_89:\n        /* \"#utility.yul\":8310:8316   */\n      0x00\n        /* \"#utility.yul\":8359:8361   */\n      0x20\n        /* \"#utility.yul\":8347:8356   */\n      dup3\n        /* \"#utility.yul\":8338:8345   */\n      dup5\n        /* \"#utility.yul\":8334:8357   */\n      sub\n        /* \"#utility.yul\":8330:8362   */\n      slt\n        /* \"#utility.yul\":8327:8446   */\n      iszero\n      tag_467\n      jumpi\n        /* \"#utility.yul\":8365:8444   */\n      tag_468\n      tag_341\n      jump\t// in\n    tag_468:\n        /* \"#utility.yul\":8327:8446   */\n    tag_467:\n        /* \"#utility.yul\":8485:8486   */\n      0x00\n        /* \"#utility.yul\":8510:8563   */\n      tag_469\n        /* \"#utility.yul\":8555:8562   */\n      dup5\n        /* \"#utility.yul\":8546:8552   */\n      dup3\n        /* \"#utility.yul\":8535:8544   */\n      dup6\n        /* \"#utility.yul\":8531:8553   */\n      add\n        /* \"#utility.yul\":8510:8563   */\n      tag_350\n      jump\t// in\n    tag_469:\n        /* \"#utility.yul\":8500:8563   */\n      swap2\n      pop\n        /* \"#utility.yul\":8456:8573   */\n      pop\n        /* \"#utility.yul\":8251:8580   */\n      swap3\n      swap2\n      pop\n      pop\n      jump\t// out\n        /* \"#utility.yul\":8586:9060   */\n    tag_99:\n        /* \"#utility.yul\":8654:8660   */\n      0x00\n        /* \"#utility.yul\":8662:8668   */\n      0x00\n        /* \"#utility.yul\":8711:8713   */\n      0x40\n        /* \"#utility.yul\":8699:8708   */\n      dup4\n        /* \"#utility.yul\":8690:8697   */\n      dup6\n        /* \"#utility.yul\":8686:8709   */\n      sub\n        /* \"#utility.yul\":8682:8714   */\n      slt\n        /* \"#utility.yul\":8679:8798   */\n      iszero\n      tag_471\n      jumpi\n        /* \"#utility.yul\":8717:8796   */\n      tag_472\n      tag_341\n      jump\t// in\n    tag_472:\n        /* \"#utility.yul\":8679:8798   */\n    tag_471:\n        /* \"#utility.yul\":8837:8838   */\n      0x00\n        /* \"#utility.yul\":8862:8915   */\n      tag_473\n        /* \"#utility.yul\":8907:8914   */\n      dup6\n        /* \"#utility.yul\":8898:8904   */\n      dup3\n        /* \"#utility.yul\":8887:8896   */\n      dup7\n        /* \"#utility.yul\":8883:8905   */\n      add\n        /* \"#utility.yul\":8862:8915   */\n      tag_345\n      jump\t// in\n    tag_473:\n        /* \"#utility.yul\":8852:8915   */\n      swap3\n      pop\n        /* \"#utility.yul\":8808:8925   */\n      pop\n        /* \"#utility.yul\":8964:8966   */\n      0x20\n        /* \"#utility.yul\":8990:9043   */\n      tag_474\n        /* \"#utility.yul\":9035:9042   */\n      dup6\n        /* \"#utility.yul\":9026:9032   */\n      dup3\n        /* \"#utility.yul\":9015:9024   */\n      dup7\n        /* \"#utility.yul\":9011:9033   */\n      add\n        /* \"#utility.yul\":8990:9043   */\n      tag_350\n      jump\t// in\n    tag_474:\n        /* \"#utility.yul\":8980:9043   */\n      swap2\n      pop\n        /* \"#utility.yul\":8935:9053   */\n      pop\n        /* \"#utility.yul\":8586:9060   */\n      swap3\n      pop\n      swap3\n      swap1\n      pop\n      jump\t// out\n        /* \"#utility.yul\":9066:9184   */\n    tag_364:\n        /* \"#utility.yul\":9153:9177   */\n      tag_476\n        /* \"#utility.yul\":9171:9176   */\n      dup2\n        /* \"#utility.yul\":9153:9177   */\n      tag_348\n      jump\t// in\n    tag_476:\n        /* \"#utility.yul\":9148:9151   */\n      dup3\n        /* \"#utility.yul\":9141:9178   */\n      mstore\n        /* \"#utility.yul\":9066:9184   */\n      pop\n      pop\n      jump\t// out\n        /* \"#utility.yul\":9190:9412   */\n    tag_119:\n        /* \"#utility.yul\":9283:9287   */\n      0x00\n        /* \"#utility.yul\":9321:9323   */\n      0x20\n        /* \"#utility.yul\":9310:9319   */\n      dup3\n        /* \"#utility.yul\":9306:9324   */\n      add\n        /* \"#utility.yul\":9298:9324   */\n      swap1\n      pop\n        /* \"#utility.yul\":9334:9405   */\n      tag_478\n        /* \"#utility.yul\":9402:9403   */\n      0x00\n        /* \"#utility.yul\":9391:9400   */\n      dup4\n        /* \"#utility.yul\":9387:9404   */\n      add\n        /* \"#utility.yul\":9378:9384   */\n      dup5\n        /* \"#utility.yul\":9334:9405   */\n      tag_364\n      jump\t// in\n    tag_478:\n        /* \"#utility.yul\":9190:9412   */\n      swap3\n      swap2\n      pop\n      pop\n      jump\t// out\n        /* \"#utility.yul\":9418:10037   */\n    tag_132:\n        /* \"#utility.yul\":9495:9501   */\n      0x00\n        /* \"#utility.yul\":9503:9509   */\n      0x00\n        /* \"#utility.yul\":9511:9517   */\n      0x00\n        /* \"#utility.yul\":9560:9562   */\n      0x60\n        /* \"#utility.yul\":9548:9557   */\n      dup5\n        /* \"#utility.yul\":9539:9546   */\n      dup7\n        /* \"#utility.yul\":9535:9558   */\n      sub\n        /* \"#utility.yul\":9531:9563   */\n      slt\n        /* \"#utility.yul\":9528:9647   */\n      iszero\n      tag_480\n      jumpi\n        /* \"#utility.yul\":9566:9645   */\n      tag_481\n      tag_341\n      jump\t// in\n    tag_481:\n        /* \"#utility.yul\":9528:9647   */\n    tag_480:\n        /* \"#utility.yul\":9686:9687   */\n      0x00\n        /* \"#utility.yul\":9711:9764   */\n      tag_482\n        /* \"#utility.yul\":9756:9763   */\n      dup7\n        /* \"#utility.yul\":9747:9753   */\n      dup3\n        /* \"#utility.yul\":9736:9745   */\n      dup8\n        /* \"#utility.yul\":9732:9754   */\n      add\n        /* \"#utility.yul\":9711:9764   */\n      tag_345\n      jump\t// in\n    tag_482:\n        /* \"#utility.yul\":9701:9764   */\n      swap4\n      pop\n        /* \"#utility.yul\":9657:9774   */\n      pop\n        /* \"#utility.yul\":9813:9815   */\n      0x20\n        /* \"#utility.yul\":9839:9892   */\n      tag_483\n        /* \"#utility.yul\":9884:9891   */\n      dup7\n        /* \"#utility.yul\":9875:9881   */\n      dup3\n        /* \"#utility.yul\":9864:9873   */\n      dup8\n        /* \"#utility.yul\":9860:9882   */\n      add\n        /* \"#utility.yul\":9839:9892   */\n      tag_350\n      jump\t// in\n    tag_483:\n        /* \"#utility.yul\":9829:9892   */\n      swap3\n      pop\n        /* \"#utility.yul\":9784:9902   */\n      pop\n        /* \"#utility.yul\":9941:9943   */\n      0x40\n        /* \"#utility.yul\":9967:10020   */\n      tag_484\n        /* \"#utility.yul\":10012:10019   */\n      dup7\n        /* \"#utility.yul\":10003:10009   */\n      dup3\n        /* \"#utility.yul\":9992:10001   */\n      dup8\n        /* \"#utility.yul\":9988:10010   */\n      add\n        /* \"#utility.yul\":9967:10020   */\n      tag_350\n      jump\t// in\n    tag_484:\n        /* \"#utility.yul\":9957:10020   */\n      swap2\n      pop\n        /* \"#utility.yul\":9912:10030   */\n      pop\n        /* \"#utility.yul\":9418:10037   */\n      swap3\n      pop\n      swap3\n      pop\n      swap3\n      jump\t// out\n        /* \"#utility.yul\":10043:10161   */\n    tag_365:\n        /* \"#utility.yul\":10114:10136   */\n      tag_486\n        /* \"#utility.yul\":10130:10135   */\n      dup2\n        /* \"#utility.yul\":10114:10136   */\n      tag_360\n      jump\t// in\n    tag_486:\n        /* \"#utility.yul\":10107:10112   */\n      dup2\n        /* \"#utility.yul\":10104:10137   */\n      eq\n        /* \"#utility.yul\":10094:10155   */\n      tag_487\n      jumpi\n        /* \"#utility.yul\":10151:10152   */\n      0x00\n        /* \"#utility.yul\":10148:10149   */\n      0x00\n        /* \"#utility.yul\":10141:10153   */\n      revert\n        /* \"#utility.yul\":10094:10155   */\n    tag_487:\n        /* \"#utility.yul\":10043:10161   */\n      pop\n      jump\t// out\n        /* \"#utility.yul\":10167:10302   */\n    tag_366:\n        /* \"#utility.yul\":10211:10216   */\n      0x00\n        /* \"#utility.yul\":10249:10255   */\n      dup2\n        /* \"#utility.yul\":10236:10256   */\n      calldataload\n        /* \"#utility.yul\":10227:10256   */\n      swap1\n      pop\n        /* \"#utility.yul\":10265:10296   */\n      tag_489\n        /* \"#utility.yul\":10290:10295   */\n      dup2\n        /* \"#utility.yul\":10265:10296   */\n      tag_365\n      jump\t// in\n    tag_489:\n        /* \"#utility.yul\":10167:10302   */\n      swap3\n      swap2\n      pop\n      pop\n      jump\t// out\n        /* \"#utility.yul\":10308:10430   */\n    tag_367:\n        /* \"#utility.yul\":10381:10405   */\n      tag_491\n        /* \"#utility.yul\":10399:10404   */\n      dup2\n        /* \"#utility.yul\":10381:10405   */\n      tag_362\n      jump\t// in\n    tag_491:\n        /* \"#utility.yul\":10374:10379   */\n      dup2\n        /* \"#utility.yul\":10371:10406   */\n      eq\n        /* \"#utility.yul\":10361:10424   */\n      tag_492\n      jumpi\n        /* \"#utility.yul\":10420:10421   */\n      0x00\n        /* \"#utility.yul\":10417:10418   */\n      0x00\n        /* \"#utility.yul\":10410:10422   */\n      revert\n        /* \"#utility.yul\":10361:10424   */\n    tag_492:\n        /* \"#utility.yul\":10308:10430   */\n      pop\n      jump\t// out\n        /* \"#utility.yul\":10436:10575   */\n    tag_368:\n        /* \"#utility.yul\":10482:10487   */\n      0x00\n        /* \"#utility.yul\":10520:10526   */\n      dup2\n        /* \"#utility.yul\":10507:10527   */\n      calldataload\n        /* \"#utility.yul\":10498:10527   */\n      swap1\n      pop\n        /* \"#utility.yul\":10536:10569   */\n      tag_494\n        /* \"#utility.yul\":10563:10568   */\n      dup2\n        /* \"#utility.yul\":10536:10569   */\n      tag_367\n      jump\t// in\n    tag_494:\n        /* \"#utility.yul\":10436:10575   */\n      swap3\n      swap2\n      pop\n      pop\n      jump\t// out\n        /* \"#utility.yul\":10581:11780   */\n    tag_153:\n        /* \"#utility.yul\":10692:10698   */\n      0x00\n        /* \"#utility.yul\":10700:10706   */\n      0x00\n        /* \"#utility.yul\":10708:10714   */\n      0x00\n        /* \"#utility.yul\":10716:10722   */\n      0x00\n        /* \"#utility.yul\":10724:10730   */\n      0x00\n        /* \"#utility.yul\":10732:10738   */\n      0x00\n        /* \"#utility.yul\":10740:10746   */\n      0x00\n        /* \"#utility.yul\":10789:10792   */\n      0xe0\n        /* \"#utility.yul\":10777:10786   */\n      dup9\n        /* \"#utility.yul\":10768:10775   */\n      dup11\n        /* \"#utility.yul\":10764:10787   */\n      sub\n        /* \"#utility.yul\":10760:10793   */\n      slt\n        /* \"#utility.yul\":10757:10877   */\n      iszero\n      tag_496\n      jumpi\n        /* \"#utility.yul\":10796:10875   */\n      tag_497\n      tag_341\n      jump\t// in\n    tag_497:\n        /* \"#utility.yul\":10757:10877   */\n    tag_496:\n        /* \"#utility.yul\":10916:10917   */\n      0x00\n        /* \"#utility.yul\":10941:10994   */\n      tag_498\n        /* \"#utility.yul\":10986:10993   */\n      dup11\n        /* \"#utility.yul\":10977:10983   */\n      dup3\n        /* \"#utility.yul\":10966:10975   */\n      dup12\n        /* \"#utility.yul\":10962:10984   */\n      add\n        /* \"#utility.yul\":10941:10994   */\n      tag_350\n      jump\t// in\n    tag_498:\n        /* \"#utility.yul\":10931:10994   */\n      swap8\n      pop\n        /* \"#utility.yul\":10887:11004   */\n      pop\n        /* \"#utility.yul\":11043:11045   */\n      0x20\n        /* \"#utility.yul\":11069:11122   */\n      tag_499\n        /* \"#utility.yul\":11114:11121   */\n      dup11\n        /* \"#utility.yul\":11105:11111   */\n      dup3\n        /* \"#utility.yul\":11094:11103   */\n      dup12\n        /* \"#utility.yul\":11090:11112   */\n      add\n        /* \"#utility.yul\":11069:11122   */\n      tag_350\n      jump\t// in\n    tag_499:\n        /* \"#utility.yul\":11059:11122   */\n      swap7\n      pop\n        /* \"#utility.yul\":11014:11132   */\n      pop\n        /* \"#utility.yul\":11171:11173   */\n      0x40\n        /* \"#utility.yul\":11197:11250   */\n      tag_500\n        /* \"#utility.yul\":11242:11249   */\n      dup11\n        /* \"#utility.yul\":11233:11239   */\n      dup3\n        /* \"#utility.yul\":11222:11231   */\n      dup12\n        /* \"#utility.yul\":11218:11240   */\n      add\n        /* \"#utility.yul\":11197:11250   */\n      tag_345\n      jump\t// in\n    tag_500:\n        /* \"#utility.yul\":11187:11250   */\n      swap6\n      pop\n        /* \"#utility.yul\":11142:11260   */\n      pop\n        /* \"#utility.yul\":11299:11301   */\n      0x60\n        /* \"#utility.yul\":11325:11378   */\n      tag_501\n        /* \"#utility.yul\":11370:11377   */\n      dup11\n        /* \"#utility.yul\":11361:11367   */\n      dup3\n        /* \"#utility.yul\":11350:11359   */\n      dup12\n        /* \"#utility.yul\":11346:11368   */\n      add\n        /* \"#utility.yul\":11325:11378   */\n      tag_345\n      jump\t// in\n    tag_501:\n        /* \"#utility.yul\":11315:11378   */\n      swap5\n      pop\n        /* \"#utility.yul\":11270:11388   */\n      pop\n        /* \"#utility.yul\":11427:11430   */\n      0x80\n        /* \"#utility.yul\":11454:11505   */\n      tag_502\n        /* \"#utility.yul\":11497:11504   */\n      dup11\n        /* \"#utility.yul\":11488:11494   */\n      dup3\n        /* \"#utility.yul\":11477:11486   */\n      dup12\n        /* \"#utility.yul\":11473:11495   */\n      add\n        /* \"#utility.yul\":11454:11505   */\n      tag_366\n      jump\t// in\n    tag_502:\n        /* \"#utility.yul\":11444:11505   */\n      swap4\n      pop\n        /* \"#utility.yul\":11398:11515   */\n      pop\n        /* \"#utility.yul\":11554:11557   */\n      0xa0\n        /* \"#utility.yul\":11581:11634   */\n      tag_503\n        /* \"#utility.yul\":11626:11633   */\n      dup11\n        /* \"#utility.yul\":11617:11623   */\n      dup3\n        /* \"#utility.yul\":11606:11615   */\n      dup12\n        /* \"#utility.yul\":11602:11624   */\n      add\n        /* \"#utility.yul\":11581:11634   */\n      tag_368\n      jump\t// in\n    tag_503:\n        /* \"#utility.yul\":11571:11634   */\n      swap3\n      pop\n        /* \"#utility.yul\":11525:11644   */\n      pop\n        /* \"#utility.yul\":11683:11686   */\n      0xc0\n        /* \"#utility.yul\":11710:11763   */\n      tag_504\n        /* \"#utility.yul\":11755:11762   */\n      dup11\n        /* \"#utility.yul\":11746:11752   */\n      dup3\n        /* \"#utility.yul\":11735:11744   */\n      dup12\n        /* \"#utility.yul\":11731:11753   */\n      add\n        /* \"#utility.yul\":11710:11763   */\n      tag_368\n      jump\t// in\n    tag_504:\n        /* \"#utility.yul\":11700:11763   */\n      swap2\n      pop\n        /* \"#utility.yul\":11654:11773   */\n      pop\n        /* \"#utility.yul\":10581:11780   */\n      swap3\n      swap6\n      swap9\n      swap2\n      swap5\n      swap8\n      pop\n      swap3\n      swap6\n      pop\n      jump\t// out\n        /* \"#utility.yul\":11786:12260   */\n    tag_163:\n        /* \"#utility.yul\":11854:11860   */\n      0x00\n        /* \"#utility.yul\":11862:11868   */\n      0x00\n        /* \"#utility.yul\":11911:11913   */\n      0x40\n        /* \"#utility.yul\":11899:11908   */\n      dup4\n        /* \"#utility.yul\":11890:11897   */\n      dup6\n        /* \"#utility.yul\":11886:11909   */\n      sub\n        /* \"#utility.yul\":11882:11914   */\n      slt\n        /* \"#utility.yul\":11879:11998   */\n      iszero\n      tag_506\n      jumpi\n        /* \"#utility.yul\":11917:11996   */\n      tag_507\n      tag_341\n      jump\t// in\n    tag_507:\n        /* \"#utility.yul\":11879:11998   */\n    tag_506:\n        /* \"#utility.yul\":12037:12038   */\n      0x00\n        /* \"#utility.yul\":12062:12115   */\n      tag_508\n        /* \"#utility.yul\":12107:12114   */\n      dup6\n        /* \"#utility.yul\":12098:12104   */\n      dup3\n        /* \"#utility.yul\":12087:12096   */\n      dup7\n        /* \"#utility.yul\":12083:12105   */\n      add\n        /* \"#utility.yul\":12062:12115   */\n      tag_350\n      jump\t// in\n    tag_508:\n        /* \"#utility.yul\":12052:12115   */\n      swap3\n      pop\n        /* \"#utility.yul\":12008:12125   */\n      pop\n        /* \"#utility.yul\":12164:12166   */\n      0x20\n        /* \"#utility.yul\":12190:12243   */\n      tag_509\n        /* \"#utility.yul\":12235:12242   */\n      dup6\n        /* \"#utility.yul\":12226:12232   */\n      dup3\n        /* \"#utility.yul\":12215:12224   */\n      dup7\n        /* \"#utility.yul\":12211:12233   */\n      add\n        /* \"#utility.yul\":12190:12243   */\n      tag_350\n      jump\t// in\n    tag_509:\n        /* \"#utility.yul\":12180:12243   */\n      swap2\n      pop\n        /* \"#utility.yul\":12135:12253   */\n      pop\n        /* \"#utility.yul\":11786:12260   */\n      swap3\n      pop\n      swap3\n      swap1\n      pop\n      jump\t// out\n        /* \"#utility.yul\":12266:12446   */\n    tag_369:\n        /* \"#utility.yul\":12314:12391   */\n      0x4e487b7100000000000000000000000000000000000000000000000000000000\n        /* \"#utility.yul\":12311:12312   */\n      0x00\n        /* \"#utility.yul\":12304:12392   */\n      mstore\n        /* \"#utility.yul\":12411:12415   */\n      0x11\n        /* \"#utility.yul\":12408:12409   */\n      0x04\n        /* \"#utility.yul\":12401:12416   */\n      mstore\n        /* \"#utility.yul\":12435:12439   */\n      0x24\n        /* \"#utility.yul\":12432:12433   */\n      0x00\n        /* \"#utility.yul\":12425:12440   */\n      revert\n        /* \"#utility.yul\":12452:12643   */\n    tag_178:\n        /* \"#utility.yul\":12492:12495   */\n      0x00\n        /* \"#utility.yul\":12511:12531   */\n      tag_512\n        /* \"#utility.yul\":12529:12530   */\n      dup3\n        /* \"#utility.yul\":12511:12531   */\n      tag_343\n      jump\t// in\n    tag_512:\n        /* \"#utility.yul\":12506:12531   */\n      swap2\n      pop\n        /* \"#utility.yul\":12545:12565   */\n      tag_513\n        /* \"#utility.yul\":12563:12564   */\n      dup4\n        /* \"#utility.yul\":12545:12565   */\n      tag_343\n      jump\t// in\n    tag_513:\n        /* \"#utility.yul\":12540:12565   */\n      swap3\n      pop\n        /* \"#utility.yul\":12588:12589   */\n      dup3\n        /* \"#utility.yul\":12585:12586   */\n      dup3\n        /* \"#utility.yul\":12581:12590   */\n      add\n        /* \"#utility.yul\":12574:12590   */\n      swap1\n      pop\n        /* \"#utility.yul\":12609:12612   */\n      dup1\n        /* \"#utility.yul\":12606:12607   */\n      dup3\n        /* \"#utility.yul\":12603:12613   */\n      gt\n        /* \"#utility.yul\":12600:12636   */\n      iszero\n      tag_514\n      jumpi\n        /* \"#utility.yul\":12616:12634   */\n      tag_515\n      tag_369\n      jump\t// in\n    tag_515:\n        /* \"#utility.yul\":12600:12636   */\n    tag_514:\n        /* \"#utility.yul\":12452:12643   */\n      swap3\n      swap2\n      pop\n      pop\n      jump\t// out\n        /* \"#utility.yul\":12649:13059   */\n    tag_181:\n        /* \"#utility.yul\":12689:12696   */\n      0x00\n        /* \"#utility.yul\":12712:12732   */\n      tag_517\n        /* \"#utility.yul\":12730:12731   */\n      dup3\n        /* \"#utility.yul\":12712:12732   */\n      tag_343\n      jump\t// in\n    tag_517:\n        /* \"#utility.yul\":12707:12732   */\n      swap2\n      pop\n        /* \"#utility.yul\":12746:12766   */\n      tag_518\n        /* \"#utility.yul\":12764:12765   */\n      dup4\n        /* \"#utility.yul\":12746:12766   */\n      tag_343\n      jump\t// in\n    tag_518:\n        /* \"#utility.yul\":12741:12766   */\n      swap3\n      pop\n        /* \"#utility.yul\":12801:12802   */\n      dup3\n        /* \"#utility.yul\":12798:12799   */\n      dup3\n        /* \"#utility.yul\":12794:12803   */\n      mul\n        /* \"#utility.yul\":12823:12853   */\n      tag_519\n        /* \"#utility.yul\":12841:12852   */\n      dup2\n        /* \"#utility.yul\":12823:12853   */\n      tag_343\n      jump\t// in\n    tag_519:\n        /* \"#utility.yul\":12812:12853   */\n      swap2\n      pop\n        /* \"#utility.yul\":13002:13003   */\n      dup3\n        /* \"#utility.yul\":12993:13000   */\n      dup3\n        /* \"#utility.yul\":12989:13004   */\n      div\n        /* \"#utility.yul\":12986:12987   */\n      dup5\n        /* \"#utility.yul\":12983:13005   */\n      eq\n        /* \"#utility.yul\":12963:12964   */\n      dup4\n        /* \"#utility.yul\":12956:12965   */\n      iszero\n        /* \"#utility.yul\":12936:13019   */\n      or\n        /* \"#utility.yul\":12913:13052   */\n      tag_520\n      jumpi\n        /* \"#utility.yul\":13032:13050   */\n      tag_521\n      tag_369\n      jump\t// in\n    tag_521:\n        /* \"#utility.yul\":12913:13052   */\n    tag_520:\n        /* \"#utility.yul\":12697:13059   */\n      pop\n        /* \"#utility.yul\":12649:13059   */\n      swap3\n      swap2\n      pop\n      pop\n      jump\t// out\n        /* \"#utility.yul\":13065:13245   */\n    tag_370:\n        /* \"#utility.yul\":13113:13190   */\n      0x4e487b7100000000000000000000000000000000000000000000000000000000\n        /* \"#utility.yul\":13110:13111   */\n      0x00\n        /* \"#utility.yul\":13103:13191   */\n      mstore\n        /* \"#utility.yul\":13210:13214   */\n      0x12\n        /* \"#utility.yul\":13207:13208   */\n      0x04\n        /* \"#utility.yul\":13200:13215   */\n      mstore\n        /* \"#utility.yul\":13234:13238   */\n      0x24\n        /* \"#utility.yul\":13231:13232   */\n      0x00\n        /* \"#utility.yul\":13224:13239   */\n      revert\n        /* \"#utility.yul\":13251:13436   */\n    tag_183:\n        /* \"#utility.yul\":13291:13292   */\n      0x00\n        /* \"#utility.yul\":13308:13328   */\n      tag_524\n        /* \"#utility.yul\":13326:13327   */\n      dup3\n        /* \"#utility.yul\":13308:13328   */\n      tag_343\n      jump\t// in\n    tag_524:\n        /* \"#utility.yul\":13303:13328   */\n      swap2\n      pop\n        /* \"#utility.yul\":13342:13362   */\n      tag_525\n        /* \"#utility.yul\":13360:13361   */\n      dup4\n        /* \"#utility.yul\":13342:13362   */\n      tag_343\n      jump\t// in\n    tag_525:\n        /* \"#utility.yul\":13337:13362   */\n      swap3\n      pop\n        /* \"#utility.yul\":13381:13382   */\n      dup3\n        /* \"#utility.yul\":13371:13406   */\n      tag_526\n      jumpi\n        /* \"#utility.yul\":13386:13404   */\n      tag_527\n      tag_370\n      jump\t// in\n    tag_527:\n        /* \"#utility.yul\":13371:13406   */\n    tag_526:\n        /* \"#utility.yul\":13428:13429   */\n      dup3\n        /* \"#utility.yul\":13425:13426   */\n      dup3\n        /* \"#utility.yul\":13421:13430   */\n      div\n        /* \"#utility.yul\":13416:13430   */\n      swap1\n      pop\n        /* \"#utility.yul\":13251:13436   */\n      swap3\n      swap2\n      pop\n      pop\n      jump\t// out\n        /* \"#utility.yul\":13442:13636   */\n    tag_194:\n        /* \"#utility.yul\":13482:13486   */\n      0x00\n        /* \"#utility.yul\":13502:13522   */\n      tag_529\n        /* \"#utility.yul\":13520:13521   */\n      dup3\n        /* \"#utility.yul\":13502:13522   */\n      tag_343\n      jump\t// in\n    tag_529:\n        /* \"#utility.yul\":13497:13522   */\n      swap2\n      pop\n        /* \"#utility.yul\":13536:13556   */\n      tag_530\n        /* \"#utility.yul\":13554:13555   */\n      dup4\n        /* \"#utility.yul\":13536:13556   */\n      tag_343\n      jump\t// in\n    tag_530:\n        /* \"#utility.yul\":13531:13556   */\n      swap3\n      pop\n        /* \"#utility.yul\":13580:13581   */\n      dup3\n        /* \"#utility.yul\":13577:13578   */\n      dup3\n        /* \"#utility.yul\":13573:13582   */\n      sub\n        /* \"#utility.yul\":13565:13582   */\n      swap1\n      pop\n        /* \"#utility.yul\":13604:13605   */\n      dup2\n        /* \"#utility.yul\":13598:13602   */\n      dup2\n        /* \"#utility.yul\":13595:13606   */\n      gt\n        /* \"#utility.yul\":13592:13629   */\n      iszero\n      tag_531\n      jumpi\n        /* \"#utility.yul\":13609:13627   */\n      tag_532\n      tag_369\n      jump\t// in\n    tag_532:\n        /* \"#utility.yul\":13592:13629   */\n    tag_531:\n        /* \"#utility.yul\":13442:13636   */\n      swap3\n      swap2\n      pop\n      pop\n      jump\t// out\n        /* \"#utility.yul\":13642:13789   */\n    tag_371:\n        /* \"#utility.yul\":13743:13754   */\n      0x00\n        /* \"#utility.yul\":13780:13783   */\n      dup2\n        /* \"#utility.yul\":13765:13783   */\n      swap1\n      pop\n        /* \"#utility.yul\":13642:13789   */\n      swap3\n      swap2\n      pop\n      pop\n      jump\t// out\n        /* \"#utility.yul\":13795:13943   */\n    tag_372:\n        /* \"#utility.yul\":13893:13899   */\n      dup3\n        /* \"#utility.yul\":13888:13891   */\n      dup2\n        /* \"#utility.yul\":13883:13886   */\n      dup4\n        /* \"#utility.yul\":13870:13900   */\n      calldatacopy\n        /* \"#utility.yul\":13934:13935   */\n      0x00\n        /* \"#utility.yul\":13925:13931   */\n      dup4\n        /* \"#utility.yul\":13920:13923   */\n      dup4\n        /* \"#utility.yul\":13916:13932   */\n      add\n        /* \"#utility.yul\":13909:13936   */\n      mstore\n        /* \"#utility.yul\":13795:13943   */\n      pop\n      pop\n      pop\n      jump\t// out\n        /* \"#utility.yul\":13971:14298   */\n    tag_373:\n        /* \"#utility.yul\":14085:14088   */\n      0x00\n        /* \"#utility.yul\":14106:14194   */\n      tag_536\n        /* \"#utility.yul\":14187:14193   */\n      dup4\n        /* \"#utility.yul\":14182:14185   */\n      dup6\n        /* \"#utility.yul\":14106:14194   */\n      tag_371\n      jump\t// in\n    tag_536:\n        /* \"#utility.yul\":14099:14194   */\n      swap4\n      pop\n        /* \"#utility.yul\":14204:14260   */\n      tag_537\n        /* \"#utility.yul\":14253:14259   */\n      dup4\n        /* \"#utility.yul\":14248:14251   */\n      dup6\n        /* \"#utility.yul\":14241:14246   */\n      dup5\n        /* \"#utility.yul\":14204:14260   */\n      tag_372\n      jump\t// in\n    tag_537:\n        /* \"#utility.yul\":14285:14291   */\n      dup3\n        /* \"#utility.yul\":14280:14283   */\n      dup5\n        /* \"#utility.yul\":14276:14292   */\n      add\n        /* \"#utility.yul\":14269:14292   */\n      swap1\n      pop\n        /* \"#utility.yul\":13971:14298   */\n      swap4\n      swap3\n      pop\n      pop\n      pop\n      jump\t// out\n        /* \"#utility.yul\":14304:14595   */\n    tag_201:\n        /* \"#utility.yul\":14444:14447   */\n      0x00\n        /* \"#utility.yul\":14466:14569   */\n      tag_539\n        /* \"#utility.yul\":14565:14568   */\n      dup3\n        /* \"#utility.yul\":14556:14562   */\n      dup5\n        /* \"#utility.yul\":14548:14554   */\n      dup7\n        /* \"#utility.yul\":14466:14569   */\n      tag_373\n      jump\t// in\n    tag_539:\n        /* \"#utility.yul\":14459:14569   */\n      swap2\n      pop\n        /* \"#utility.yul\":14586:14589   */\n      dup2\n        /* \"#utility.yul\":14579:14589   */\n      swap1\n      pop\n        /* \"#utility.yul\":14304:14595   */\n      swap4\n      swap3\n      pop\n      pop\n      pop\n      jump\t// out\n        /* \"#utility.yul\":14601:14933   */\n    tag_239:\n        /* \"#utility.yul\":14722:14726   */\n      0x00\n        /* \"#utility.yul\":14760:14762   */\n      0x40\n        /* \"#utility.yul\":14749:14758   */\n      dup3\n        /* \"#utility.yul\":14745:14763   */\n      add\n        /* \"#utility.yul\":14737:14763   */\n      swap1\n      pop\n        /* \"#utility.yul\":14773:14844   */\n      tag_541\n        /* \"#utility.yul\":14841:14842   */\n      0x00\n        /* \"#utility.yul\":14830:14839   */\n      dup4\n        /* \"#utility.yul\":14826:14843   */\n      add\n        /* \"#utility.yul\":14817:14823   */\n      dup6\n        /* \"#utility.yul\":14773:14844   */\n      tag_346\n      jump\t// in\n    tag_541:\n        /* \"#utility.yul\":14854:14926   */\n      tag_542\n        /* \"#utility.yul\":14922:14924   */\n      0x20\n        /* \"#utility.yul\":14911:14920   */\n      dup4\n        /* \"#utility.yul\":14907:14925   */\n      add\n        /* \"#utility.yul\":14898:14904   */\n      dup5\n        /* \"#utility.yul\":14854:14926   */\n      tag_346\n      jump\t// in\n    tag_542:\n        /* \"#utility.yul\":14601:14933   */\n      swap4\n      swap3\n      pop\n      pop\n      pop\n      jump\t// out\n        /* \"#utility.yul\":14939:15053   */\n    tag_374:\n      pop\n      jump\t// out\n        /* \"#utility.yul\":15059:15457   */\n    tag_375:\n        /* \"#utility.yul\":15218:15221   */\n      0x00\n        /* \"#utility.yul\":15239:15322   */\n      tag_545\n        /* \"#utility.yul\":15320:15321   */\n      0x00\n        /* \"#utility.yul\":15315:15318   */\n      dup4\n        /* \"#utility.yul\":15239:15322   */\n      tag_371\n      jump\t// in\n    tag_545:\n        /* \"#utility.yul\":15232:15322   */\n      swap2\n      pop\n        /* \"#utility.yul\":15331:15424   */\n      tag_546\n        /* \"#utility.yul\":15420:15423   */\n      dup3\n        /* \"#utility.yul\":15331:15424   */\n      tag_374\n      jump\t// in\n    tag_546:\n        /* \"#utility.yul\":15449:15450   */\n      0x00\n        /* \"#utility.yul\":15444:15447   */\n      dup3\n        /* \"#utility.yul\":15440:15451   */\n      add\n        /* \"#utility.yul\":15433:15451   */\n      swap1\n      pop\n        /* \"#utility.yul\":15059:15457   */\n      swap2\n      swap1\n      pop\n      jump\t// out\n        /* \"#utility.yul\":15463:15842   */\n    tag_263:\n        /* \"#utility.yul\":15647:15650   */\n      0x00\n        /* \"#utility.yul\":15669:15816   */\n      tag_548\n        /* \"#utility.yul\":15812:15815   */\n      dup3\n        /* \"#utility.yul\":15669:15816   */\n      tag_375\n      jump\t// in\n    tag_548:\n        /* \"#utility.yul\":15662:15816   */\n      swap2\n      pop\n        /* \"#utility.yul\":15833:15836   */\n      dup2\n        /* \"#utility.yul\":15826:15836   */\n      swap1\n      pop\n        /* \"#utility.yul\":15463:15842   */\n      swap2\n      swap1\n      pop\n      jump\t// out\n\n    auxdata: 0xa2646970667358221220392c9a2ec9d7d8f915227354a1dc199321d0e34abaff0c3c3e185f24fe4f407d64736f6c634300081c0033\n}\n",
				"bytecode": {
					"linkReferences": {},
					"object": "60a0604052426080908152505f6001555f6002555f6003555f600455348015610026575f5ffd5b50335f73ffffffffffffffffffffffffffffffffffffffff168173ffffffffffffffffffffffffffffffffffffffff1603610098575f6040517f1e4fbdf700000000000000000000000000000000000000000000000000000000815260040161008f91906101ad565b60405180910390fd5b6100a7816100ad60201b60201c565b506101c6565b5f5f5f9054906101000a900473ffffffffffffffffffffffffffffffffffffffff169050815f5f6101000a81548173ffffffffffffffffffffffffffffffffffffffff021916908373ffffffffffffffffffffffffffffffffffffffff1602179055508173ffffffffffffffffffffffffffffffffffffffff168173ffffffffffffffffffffffffffffffffffffffff167f8be0079c531659141344cd1fd0a4f28419497f9722a3daafe3b4186f6b6457e060405160405180910390a35050565b5f73ffffffffffffffffffffffffffffffffffffffff82169050919050565b5f6101978261016e565b9050919050565b6101a78161018d565b82525050565b5f6020820190506101c05f83018461019e565b92915050565b608051611e316101e55f395f8181610ef30152610f890152611e315ff3fe60806040526004361061019b575f3560e01c8063715018a6116100eb578063c6e6f59211610089578063d905777e11610063578063d905777e14610651578063dd62ed3e1461068d578063ef8b30f7146106c9578063f2fde38b146107055761019b565b8063c6e6f592146105b1578063ce96cb77146105ed578063d505accf146106295761019b565b806395d89b41116100c557806395d89b41146104d3578063a9059cbb146104fd578063ba08765214610539578063c63d75b6146105755761019b565b8063715018a6146104575780637ecebe001461046d5780638da5cb5b146104a95761019b565b806323b872dd11610158578063402d267d11610132578063402d267d146103735780634cdad506146103af5780636e553f65146103eb57806370a082311461041b5761019b565b806323b872dd146102e3578063313ce5671461031f5780633644e515146103495761019b565b806306fdde031461019f57806307a2d13a146101c9578063095ea7b3146102055780630a28a4771461024157806310ab2d011461027d57806318160ddd146102b9575b5f5ffd5b3480156101aa575f5ffd5b506101b361072d565b6040516101c09190611696565b60405180910390f35b3480156101d4575f5ffd5b506101ef60048036038101906101ea91906116f1565b61076a565b6040516101fc919061172b565b60405180910390f35b348015610210575f5ffd5b5061022b6004803603810190610226919061179e565b6107af565b60405161023891906117f6565b60405180910390f35b34801561024c575f5ffd5b50610267600480360381019061026291906116f1565b61083a565b604051610274919061172b565b60405180910390f35b348015610288575f5ffd5b506102a3600480360381019061029e9190611870565b61086f565b6040516102b09190611933565b60405180910390f35b3480156102c4575f5ffd5b506102cd6108f1565b6040516102da919061172b565b60405180910390f35b3480156102ee575f5ffd5b5061030960048036038101906103049190611953565b610902565b60405161031691906117f6565b60405180910390f35b34801561032a575f5ffd5b50610333610aa8565b60405161034091906119be565b60405180910390f35b348015610354575f5ffd5b5061035d610ab0565b60405161036a91906119ef565b60405180910390f35b34801561037e575f5ffd5b5061039960048036038101906103949190611a08565b610b2c565b6040516103a6919061172b565b60405180910390f35b3480156103ba575f5ffd5b506103d560048036038101906103d091906116f1565b610b55565b6040516103e2919061172b565b60405180910390f35b61040560048036038101906104009190611a33565b610b66565b604051610412919061172b565b60405180910390f35b348015610426575f5ffd5b50610441600480360381019061043c9190611a08565b610c1e565b60405161044e919061172b565b60405180910390f35b348015610462575f5ffd5b5061046b610c37565b005b348015610478575f5ffd5b50610493600480360381019061048e9190611a08565b610c4a565b6040516104a0919061172b565b60405180910390f35b3480156104b4575f5ffd5b506104bd610c63565b6040516104ca9190611a80565b60405180910390f35b3480156104de575f5ffd5b506104e7610c8a565b6040516104f49190611696565b60405180910390f35b348015610508575f5ffd5b50610523600480360381019061051e919061179e565b610cc7565b60405161053091906117f6565b60405180910390f35b348015610544575f5ffd5b5061055f600480360381019061055a9190611a99565b610d55565b60405161056c919061172b565b60405180910390f35b348015610580575f5ffd5b5061059b60048036038101906105969190611a08565b610ed6565b6040516105a8919061172b565b60405180910390f35b3480156105bc575f5ffd5b506105d760048036038101906105d291906116f1565b610f38565b6040516105e4919061172b565b60405180910390f35b3480156105f8575f5ffd5b50610613600480360381019061060e9190611a08565b610f6c565b604051610620919061172b565b60405180910390f35b348015610634575f5ffd5b5061064f600480360381019061064a9190611b3d565b610fce565b005b34801561065c575f5ffd5b5061067760048036038101906106729190611a08565b611191565b604051610684919061172b565b60405180910390f35b348015610698575f5ffd5b506106b360048036038101906106ae9190611bda565b6111ba565b6040516106c0919061172b565b60405180910390f35b3480156106d4575f5ffd5b506106ef60048036038101906106ea91906116f1565b611251565b6040516106fc919061172b565b60405180910390f35b348015610710575f5ffd5b5061072b60048036038101906107269190611a08565b611262565b005b60606040518060400160405280600b81526020017f4b61696a75204775616e6f000000000000000000000000000000000000000000815250905090565b5f5f8260035461077a9190611c45565b61078333610f6c565b8461078e9190611c78565b6107989190611ce6565b9050804710156107a6574790505b80915050919050565b5f6107b86112e6565b156107eb578119156e22d473030f116ddee9f6b43ac78ba38460601b60601c18176107ea57633f68539a5f526004601cfd5b5b82602052637f5e9f20600c52335f52816034600c2055815f52602c5160601c337f8c5be1e5ebec7d5bd14f71427d1e84f3dd0314c0f7b2291e5b200ac8c7c3b92560205fa36001905092915050565b5f60018261084733610f6c565b6108519190611ce6565b61085b9190611d16565b6003546108689190611ce6565b9050919050565b60606108796112ed565b5f8573ffffffffffffffffffffffffffffffffffffffff168585856040516108a2929190611d85565b5f6040518083038185875af1925050503d805f81146108dc576040519150601f19603f3d011682016040523d82523d5f602084013e6108e1565b606091505b5091505080915050949350505050565b5f6805345cdf77eb68f44c54905090565b5f61090e848484611374565b6109166112e6565b156109e4578360601b6e22d473030f116ddee9f6b43ac78ba3331461096f5733602052637f5e9f208117600c526034600c20805480191561096c5780851115610966576313be252b5f526004601cfd5b84810382555b50505b6387a211a28117600c526020600c208054808511156109955763f4d678b85f526004601cfd5b8481038255855f526020600c2085815401815585602052600c5160601c8460601c7fddf252ad1be2c89b69c2b068fc378daa952ba7f163c4a11628f55a4df523b3ef602080a350505050610a92565b8360601b33602052637f5e9f208117600c526034600c208054801915610a1f5780851115610a19576313be252b5f526004601cfd5b84810382555b6387a211a28317600c526020600c20805480871115610a455763f4d678b85f526004601cfd5b8681038255875f526020600c2087815401815587602052600c5160601c8660601c7fddf252ad1be2c89b69c2b068fc378daa952ba7f163c4a11628f55a4df523b3ef602080a35050505050505b610a9d848484611379565b600190509392505050565b5f6012905090565b5f5f610aba61137e565b90505f5f1b8103610ad757610acd61072d565b8051906020012090505b5f610ae0611382565b90506040517f8b73c3c69bb8fe3d512ecc4cf759cc79239f7b179b0ffacaa9a75d522b39400f815282602082015281604082015246606082015230608082015260a08120935050505090565b5f7fffffffffffffffffffffffffffffffffffffffffffffffffffffffffffffffff9050919050565b5f610b5f8261076a565b9050919050565b5f5f610b7134611251565b90508060015f828254610b849190611c45565b925050819055503460025f828254610b9c9190611c45565b92505081905550610bad83826113ab565b8273ffffffffffffffffffffffffffffffffffffffff163373ffffffffffffffffffffffffffffffffffffffff167fdcbc1c05240f31ff3ad067ef1ee35ce4997762752e3a095284754544f4c709d73484604051610c0c929190611d9d565b60405180910390a38091505092915050565b5f6387a211a2600c52815f526020600c20549050919050565b610c3f6112ed565b610c485f61143d565b565b5f6338377508600c52815f526020600c20549050919050565b5f5f5f9054906101000a900473ffffffffffffffffffffffffffffffffffffffff16905090565b60606040518060400160405280600581526020017f4755414e4f000000000000000000000000000000000000000000000000000000815250905090565b5f610cd3338484611374565b6387a211a2600c52335f526020600c20805480841115610cfa5763f4d678b85f526004601cfd5b8381038255845f526020600c2084815401815584602052600c5160601c337fddf252ad1be2c89b69c2b068fc378daa952ba7f163c4a11628f55a4df523b3ef602080a3505050610d4b338484611379565b6001905092915050565b5f5f610d6085610b55565b90508273ffffffffffffffffffffffffffffffffffffffff163373ffffffffffffffffffffffffffffffffffffffff1614610da157610da08333876114fe565b5b8460035f828254610db29190611c45565b925050819055508060045f828254610dca9190611c45565b92505081905550610ddb838661158f565b5f8473ffffffffffffffffffffffffffffffffffffffff1682604051610e0090611de7565b5f6040518083038185875af1925050503d805f8114610e3a576040519150601f19603f3d011682016040523d82523d5f602084013e610e3f565b606091505b5050905080610e4c575f5ffd5b8373ffffffffffffffffffffffffffffffffffffffff168573ffffffffffffffffffffffffffffffffffffffff163373ffffffffffffffffffffffffffffffffffffffff167ffbde797d201c681b91056529119e0b02407c7bb96a4a2c75c01fc9667232c8db858a604051610ec2929190611d9d565b60405180910390a481925050509392505050565b5f600154620151806702c68af0bb140000610ef19190611ce6565b7f000000000000000000000000000000000000000000000000000000000000000042610f1d9190611d16565b610f279190611c78565b610f319190611d16565b9050919050565b5f81600254610f479190611c45565b610f5033610ed6565b83610f5b9190611c78565b610f659190611ce6565b9050919050565b5f6004546201518067016345785d8a0000610f879190611ce6565b7f000000000000000000000000000000000000000000000000000000000000000042610fb39190611d16565b610fbd9190611c78565b610fc79190611d16565b9050919050565b610fd66112e6565b15611009578419156e22d473030f116ddee9f6b43ac78ba38760601b60601c181761100857633f68539a5f526004601cfd5b5b5f61101261137e565b90505f5f1b810361102f5761102561072d565b8051906020012090505b5f611038611382565b90508542111561104f57631a15a3cc5f526004601cfd5b6040518960601b60601c99508860601b60601c985065383775081901600e52895f526020600c2080547f8b73c3c69bb8fe3d512ecc4cf759cc79239f7b179b0ffacaa9a75d522b39400f835284602084015283604084015246606084015230608084015260a08320602e527f6e71edae12b1b97f4d1f60370fef10105fa2faae0126114a169c64845d6126c983528b60208401528a60408401528960608401528060808401528860a084015260c08320604e526042602c205f528760ff16602052866040528560605260208060805f60015afa8c3d51146111375763ddafbaef5f526004601cfd5b80820183558b637f5e9f2060a01b176040528a6034602c20558b8d7f8c5be1e5ebec7d5bd14f71427d1e84f3dd0314c0f7b2291e5b200ac8c7c3b925602060608801a3836040525f60605250505050505050505050505050565b5f7fffffffffffffffffffffffffffffffffffffffffffffffffffffffffffffffff9050919050565b5f6111c36112e6565b15611233576e22d473030f116ddee9f6b43ac78ba373ffffffffffffffffffffffffffffffffffffffff168273ffffffffffffffffffffffffffffffffffffffff1603611232577fffffffffffffffffffffffffffffffffffffffffffffffffffffffffffffffff905061124b565b5b81602052637f5e9f20600c52825f526034600c205490505b92915050565b5f61125b82610f38565b9050919050565b61126a6112ed565b5f73ffffffffffffffffffffffffffffffffffffffff168173ffffffffffffffffffffffffffffffffffffffff16036112da575f6040517f1e4fbdf70000000000000000000000000000000000000000000000000000000081526004016112d19190611a80565b60405180910390fd5b6112e38161143d565b50565b5f5f905090565b6112f561161f565b73ffffffffffffffffffffffffffffffffffffffff16611313610c63565b73ffffffffffffffffffffffffffffffffffffffff16146113725761133661161f565b6040517f118cdaa70000000000000000000000000000000000000000000000000000000081526004016113699190611a80565b60405180910390fd5b565b505050565b505050565b5f90565b5f7fc89efdaa54c0f20c7adf612882df0950f5a951637e0307cdcb4c672f298b8bc65f1b905090565b6113b65f8383611374565b6805345cdf77eb68f44c54818101818110156113d95763e5cfe9575f526004601cfd5b806805345cdf77eb68f44c556387a211a2600c52835f526020600c2083815401815583602052600c5160601c5f7fddf252ad1be2c89b69c2b068fc378daa952ba7f163c4a11628f55a4df523b3ef602080a35050506114395f8383611379565b5050565b5f5f5f9054906101000a900473ffffffffffffffffffffffffffffffffffffffff169050815f5f6101000a81548173ffffffffffffffffffffffffffffffffffffffff021916908373ffffffffffffffffffffffffffffffffffffffff1602179055508173ffffffffffffffffffffffffffffffffffffffff168173ffffffffffffffffffffffffffffffffffffffff167f8be0079c531659141344cd1fd0a4f28419497f9722a3daafe3b4186f6b6457e060405160405180910390a35050565b6115066112e6565b1561154f576e22d473030f116ddee9f6b43ac78ba373ffffffffffffffffffffffffffffffffffffffff168273ffffffffffffffffffffffffffffffffffffffff16031561158a575b81602052637f5e9f20600c52825f526034600c2080548019156115875780831115611581576313be252b5f526004601cfd5b82810382555b50505b505050565b61159a825f83611374565b6387a211a2600c52815f526020600c208054808311156115c15763f4d678b85f526004601cfd5b8281038255826805345cdf77eb68f44c54036805345cdf77eb68f44c55825f525f8460601b60601c7fddf252ad1be2c89b69c2b068fc378daa952ba7f163c4a11628f55a4df523b3ef60205fa3505061161b825f83611379565b5050565b5f33905090565b5f81519050919050565b5f82825260208201905092915050565b8281835e5f83830152505050565b5f601f19601f8301169050919050565b5f61166882611626565b6116728185611630565b9350611682818560208601611640565b61168b8161164e565b840191505092915050565b5f6020820190508181035f8301526116ae818461165e565b905092915050565b5f5ffd5b5f5ffd5b5f819050919050565b6116d0816116be565b81146116da575f5ffd5b50565b5f813590506116eb816116c7565b92915050565b5f60208284031215611706576117056116b6565b5b5f611713848285016116dd565b91505092915050565b611725816116be565b82525050565b5f60208201905061173e5f83018461171c565b92915050565b5f73ffffffffffffffffffffffffffffffffffffffff82169050919050565b5f61176d82611744565b9050919050565b61177d81611763565b8114611787575f5ffd5b50565b5f8135905061179881611774565b92915050565b5f5f604083850312156117b4576117b36116b6565b5b5f6117c18582860161178a565b92505060206117d2858286016116dd565b9150509250929050565b5f8115159050919050565b6117f0816117dc565b82525050565b5f6020820190506118095f8301846117e7565b92915050565b5f5ffd5b5f5ffd5b5f5ffd5b5f5f83601f8401126118305761182f61180f565b5b8235905067ffffffffffffffff81111561184d5761184c611813565b5b60208301915083600182028301111561186957611868611817565b5b9250929050565b5f5f5f5f60608587031215611888576118876116b6565b5b5f6118958782880161178a565b94505060206118a6878288016116dd565b935050604085013567ffffffffffffffff8111156118c7576118c66116ba565b5b6118d38782880161181b565b925092505092959194509250565b5f81519050919050565b5f82825260208201905092915050565b5f611905826118e1565b61190f81856118eb565b935061191f818560208601611640565b6119288161164e565b840191505092915050565b5f6020820190508181035f83015261194b81846118fb565b905092915050565b5f5f5f6060848603121561196a576119696116b6565b5b5f6119778682870161178a565b93505060206119888682870161178a565b9250506040611999868287016116dd565b9150509250925092565b5f60ff82169050919050565b6119b8816119a3565b82525050565b5f6020820190506119d15f8301846119af565b92915050565b5f819050919050565b6119e9816119d7565b82525050565b5f602082019050611a025f8301846119e0565b92915050565b5f60208284031215611a1d57611a1c6116b6565b5b5f611a2a8482850161178a565b91505092915050565b5f5f60408385031215611a4957611a486116b6565b5b5f611a56858286016116dd565b9250506020611a678582860161178a565b9150509250929050565b611a7a81611763565b82525050565b5f602082019050611a935f830184611a71565b92915050565b5f5f5f60608486031215611ab057611aaf6116b6565b5b5f611abd868287016116dd565b9350506020611ace8682870161178a565b9250506040611adf8682870161178a565b9150509250925092565b611af2816119a3565b8114611afc575f5ffd5b50565b5f81359050611b0d81611ae9565b92915050565b611b1c816119d7565b8114611b26575f5ffd5b50565b5f81359050611b3781611b13565b92915050565b5f5f5f5f5f5f5f60e0888a031215611b5857611b576116b6565b5b5f611b658a828b0161178a565b9750506020611b768a828b0161178a565b9650506040611b878a828b016116dd565b9550506060611b988a828b016116dd565b9450506080611ba98a828b01611aff565b93505060a0611bba8a828b01611b29565b92505060c0611bcb8a828b01611b29565b91505092959891949750929550565b5f5f60408385031215611bf057611bef6116b6565b5b5f611bfd8582860161178a565b9250506020611c0e8582860161178a565b9150509250929050565b7f4e487b71000000000000000000000000000000000000000000000000000000005f52601160045260245ffd5b5f611c4f826116be565b9150611c5a836116be565b9250828201905080821115611c7257611c71611c18565b5b92915050565b5f611c82826116be565b9150611c8d836116be565b9250828202611c9b816116be565b91508282048414831517611cb257611cb1611c18565b5b5092915050565b7f4e487b71000000000000000000000000000000000000000000000000000000005f52601260045260245ffd5b5f611cf0826116be565b9150611cfb836116be565b925082611d0b57611d0a611cb9565b5b828204905092915050565b5f611d20826116be565b9150611d2b836116be565b9250828203905081811115611d4357611d42611c18565b5b92915050565b5f81905092915050565b828183375f83830152505050565b5f611d6c8385611d49565b9350611d79838584611d53565b82840190509392505050565b5f611d91828486611d61565b91508190509392505050565b5f604082019050611db05f83018561171c565b611dbd602083018461171c565b9392505050565b50565b5f611dd25f83611d49565b9150611ddd82611dc4565b5f82019050919050565b5f611df182611dc7565b915081905091905056fea2646970667358221220392c9a2ec9d7d8f915227354a1dc199321d0e34abaff0c3c3e185f24fe4f407d64736f6c634300081c0033",
					"opcodes": "PUSH1 0xA0 PUSH1 0x40 MSTORE TIMESTAMP PUSH1 0x80 SWAP1 DUP2 MSTORE POP PUSH0 PUSH1 0x1 SSTORE PUSH0 PUSH1 0x2 SSTORE PUSH0 PUSH1 0x3 SSTORE PUSH0 PUSH1 0x4 SSTORE CALLVALUE DUP1 ISZERO PUSH2 0x26 JUMPI PUSH0 PUSH0 REVERT JUMPDEST POP CALLER PUSH0 PUSH20 0xFFFFFFFFFFFFFFFFFFFFFFFFFFFFFFFFFFFFFFFF AND DUP2 PUSH20 0xFFFFFFFFFFFFFFFFFFFFFFFFFFFFFFFFFFFFFFFF AND SUB PUSH2 0x98 JUMPI PUSH0 PUSH1 0x40 MLOAD PUSH32 0x1E4FBDF700000000000000000000000000000000000000000000000000000000 DUP2 MSTORE PUSH1 0x4 ADD PUSH2 0x8F SWAP2 SWAP1 PUSH2 0x1AD JUMP JUMPDEST PUSH1 0x40 MLOAD DUP1 SWAP2 SUB SWAP1 REVERT JUMPDEST PUSH2 0xA7 DUP2 PUSH2 0xAD PUSH1 0x20 SHL PUSH1 0x20 SHR JUMP JUMPDEST POP PUSH2 0x1C6 JUMP JUMPDEST PUSH0 PUSH0 PUSH0 SWAP1 SLOAD SWAP1 PUSH2 0x100 EXP SWAP1 DIV PUSH20 0xFFFFFFFFFFFFFFFFFFFFFFFFFFFFFFFFFFFFFFFF AND SWAP1 POP DUP2 PUSH0 PUSH0 PUSH2 0x100 EXP DUP2 SLOAD DUP2 PUSH20 0xFFFFFFFFFFFFFFFFFFFFFFFFFFFFFFFFFFFFFFFF MUL NOT AND SWAP1 DUP4 PUSH20 0xFFFFFFFFFFFFFFFFFFFFFFFFFFFFFFFFFFFFFFFF AND MUL OR SWAP1 SSTORE POP DUP2 PUSH20 0xFFFFFFFFFFFFFFFFFFFFFFFFFFFFFFFFFFFFFFFF AND DUP2 PUSH20 0xFFFFFFFFFFFFFFFFFFFFFFFFFFFFFFFFFFFFFFFF AND PUSH32 0x8BE0079C531659141344CD1FD0A4F28419497F9722A3DAAFE3B4186F6B6457E0 PUSH1 0x40 MLOAD PUSH1 0x40 MLOAD DUP1 SWAP2 SUB SWAP1 LOG3 POP POP JUMP JUMPDEST PUSH0 PUSH20 0xFFFFFFFFFFFFFFFFFFFFFFFFFFFFFFFFFFFFFFFF DUP3 AND SWAP1 POP SWAP2 SWAP1 POP JUMP JUMPDEST PUSH0 PUSH2 0x197 DUP3 PUSH2 0x16E JUMP JUMPDEST SWAP1 POP SWAP2 SWAP1 POP JUMP JUMPDEST PUSH2 0x1A7 DUP2 PUSH2 0x18D JUMP JUMPDEST DUP3 MSTORE POP POP JUMP JUMPDEST PUSH0 PUSH1 0x20 DUP3 ADD SWAP1 POP PUSH2 0x1C0 PUSH0 DUP4 ADD DUP5 PUSH2 0x19E JUMP JUMPDEST SWAP3 SWAP2 POP POP JUMP JUMPDEST PUSH1 0x80 MLOAD PUSH2 0x1E31 PUSH2 0x1E5 PUSH0 CODECOPY PUSH0 DUP2 DUP2 PUSH2 0xEF3 ADD MSTORE PUSH2 0xF89 ADD MSTORE PUSH2 0x1E31 PUSH0 RETURN INVALID PUSH1 0x80 PUSH1 0x40 MSTORE PUSH1 0x4 CALLDATASIZE LT PUSH2 0x19B JUMPI PUSH0 CALLDATALOAD PUSH1 0xE0 SHR DUP1 PUSH4 0x715018A6 GT PUSH2 0xEB JUMPI DUP1 PUSH4 0xC6E6F592 GT PUSH2 0x89 JUMPI DUP1 PUSH4 0xD905777E GT PUSH2 0x63 JUMPI DUP1 PUSH4 0xD905777E EQ PUSH2 0x651 JUMPI DUP1 PUSH4 0xDD62ED3E EQ PUSH2 0x68D JUMPI DUP1 PUSH4 0xEF8B30F7 EQ PUSH2 0x6C9 JUMPI DUP1 PUSH4 0xF2FDE38B EQ PUSH2 0x705 JUMPI PUSH2 0x19B JUMP JUMPDEST DUP1 PUSH4 0xC6E6F592 EQ PUSH2 0x5B1 JUMPI DUP1 PUSH4 0xCE96CB77 EQ PUSH2 0x5ED JUMPI DUP1 PUSH4 0xD505ACCF EQ PUSH2 0x629 JUMPI PUSH2 0x19B JUMP JUMPDEST DUP1 PUSH4 0x95D89B41 GT PUSH2 0xC5 JUMPI DUP1 PUSH4 0x95D89B41 EQ PUSH2 0x4D3 JUMPI DUP1 PUSH4 0xA9059CBB EQ PUSH2 0x4FD JUMPI DUP1 PUSH4 0xBA087652 EQ PUSH2 0x539 JUMPI DUP1 PUSH4 0xC63D75B6 EQ PUSH2 0x575 JUMPI PUSH2 0x19B JUMP JUMPDEST DUP1 PUSH4 0x715018A6 EQ PUSH2 0x457 JUMPI DUP1 PUSH4 0x7ECEBE00 EQ PUSH2 0x46D JUMPI DUP1 PUSH4 0x8DA5CB5B EQ PUSH2 0x4A9 JUMPI PUSH2 0x19B JUMP JUMPDEST DUP1 PUSH4 0x23B872DD GT PUSH2 0x158 JUMPI DUP1 PUSH4 0x402D267D GT PUSH2 0x132 JUMPI DUP1 PUSH4 0x402D267D EQ PUSH2 0x373 JUMPI DUP1 PUSH4 0x4CDAD506 EQ PUSH2 0x3AF JUMPI DUP1 PUSH4 0x6E553F65 EQ PUSH2 0x3EB JUMPI DUP1 PUSH4 0x70A08231 EQ PUSH2 0x41B JUMPI PUSH2 0x19B JUMP JUMPDEST DUP1 PUSH4 0x23B872DD EQ PUSH2 0x2E3 JUMPI DUP1 PUSH4 0x313CE567 EQ PUSH2 0x31F JUMPI DUP1 PUSH4 0x3644E515 EQ PUSH2 0x349 JUMPI PUSH2 0x19B JUMP JUMPDEST DUP1 PUSH4 0x6FDDE03 EQ PUSH2 0x19F JUMPI DUP1 PUSH4 0x7A2D13A EQ PUSH2 0x1C9 JUMPI DUP1 PUSH4 0x95EA7B3 EQ PUSH2 0x205 JUMPI DUP1 PUSH4 0xA28A477 EQ PUSH2 0x241 JUMPI DUP1 PUSH4 0x10AB2D01 EQ PUSH2 0x27D JUMPI DUP1 PUSH4 0x18160DDD EQ PUSH2 0x2B9 JUMPI JUMPDEST PUSH0 PUSH0 REVERT JUMPDEST CALLVALUE DUP1 ISZERO PUSH2 0x1AA JUMPI PUSH0 PUSH0 REVERT JUMPDEST POP PUSH2 0x1B3 PUSH2 0x72D JUMP JUMPDEST PUSH1 0x40 MLOAD PUSH2 0x1C0 SWAP2 SWAP1 PUSH2 0x1696 JUMP JUMPDEST PUSH1 0x40 MLOAD DUP1 SWAP2 SUB SWAP1 RETURN JUMPDEST CALLVALUE DUP1 ISZERO PUSH2 0x1D4 JUMPI PUSH0 PUSH0 REVERT JUMPDEST POP PUSH2 0x1EF PUSH1 0x4 DUP1 CALLDATASIZE SUB DUP2 ADD SWAP1 PUSH2 0x1EA SWAP2 SWAP1 PUSH2 0x16F1 JUMP JUMPDEST PUSH2 0x76A JUMP JUMPDEST PUSH1 0x40 MLOAD PUSH2 0x1FC SWAP2 SWAP1 PUSH2 0x172B JUMP JUMPDEST PUSH1 0x40 MLOAD DUP1 SWAP2 SUB SWAP1 RETURN JUMPDEST CALLVALUE DUP1 ISZERO PUSH2 0x210 JUMPI PUSH0 PUSH0 REVERT JUMPDEST POP PUSH2 0x22B PUSH1 0x4 DUP1 CALLDATASIZE SUB DUP2 ADD SWAP1 PUSH2 0x226 SWAP2 SWAP1 PUSH2 0x179E JUMP JUMPDEST PUSH2 0x7AF JUMP JUMPDEST PUSH1 0x40 MLOAD PUSH2 0x238 SWAP2 SWAP1 PUSH2 0x17F6 JUMP JUMPDEST PUSH1 0x40 MLOAD DUP1 SWAP2 SUB SWAP1 RETURN JUMPDEST CALLVALUE DUP1 ISZERO PUSH2 0x24C JUMPI PUSH0 PUSH0 REVERT JUMPDEST POP PUSH2 0x267 PUSH1 0x4 DUP1 CALLDATASIZE SUB DUP2 ADD SWAP1 PUSH2 0x262 SWAP2 SWAP1 PUSH2 0x16F1 JUMP JUMPDEST PUSH2 0x83A JUMP JUMPDEST PUSH1 0x40 MLOAD PUSH2 0x274 SWAP2 SWAP1 PUSH2 0x172B JUMP JUMPDEST PUSH1 0x40 MLOAD DUP1 SWAP2 SUB SWAP1 RETURN JUMPDEST CALLVALUE DUP1 ISZERO PUSH2 0x288 JUMPI PUSH0 PUSH0 REVERT JUMPDEST POP PUSH2 0x2A3 PUSH1 0x4 DUP1 CALLDATASIZE SUB DUP2 ADD SWAP1 PUSH2 0x29E SWAP2 SWAP1 PUSH2 0x1870 JUMP JUMPDEST PUSH2 0x86F JUMP JUMPDEST PUSH1 0x40 MLOAD PUSH2 0x2B0 SWAP2 SWAP1 PUSH2 0x1933 JUMP JUMPDEST PUSH1 0x40 MLOAD DUP1 SWAP2 SUB SWAP1 RETURN JUMPDEST CALLVALUE DUP1 ISZERO PUSH2 0x2C4 JUMPI PUSH0 PUSH0 REVERT JUMPDEST POP PUSH2 0x2CD PUSH2 0x8F1 JUMP JUMPDEST PUSH1 0x40 MLOAD PUSH2 0x2DA SWAP2 SWAP1 PUSH2 0x172B JUMP JUMPDEST PUSH1 0x40 MLOAD DUP1 SWAP2 SUB SWAP1 RETURN JUMPDEST CALLVALUE DUP1 ISZERO PUSH2 0x2EE JUMPI PUSH0 PUSH0 REVERT JUMPDEST POP PUSH2 0x309 PUSH1 0x4 DUP1 CALLDATASIZE SUB DUP2 ADD SWAP1 PUSH2 0x304 SWAP2 SWAP1 PUSH2 0x1953 JUMP JUMPDEST PUSH2 0x902 JUMP JUMPDEST PUSH1 0x40 MLOAD PUSH2 0x316 SWAP2 SWAP1 PUSH2 0x17F6 JUMP JUMPDEST PUSH1 0x40 MLOAD DUP1 SWAP2 SUB SWAP1 RETURN JUMPDEST CALLVALUE DUP1 ISZERO PUSH2 0x32A JUMPI PUSH0 PUSH0 REVERT JUMPDEST POP PUSH2 0x333 PUSH2 0xAA8 JUMP JUMPDEST PUSH1 0x40 MLOAD PUSH2 0x340 SWAP2 SWAP1 PUSH2 0x19BE JUMP JUMPDEST PUSH1 0x40 MLOAD DUP1 SWAP2 SUB SWAP1 RETURN JUMPDEST CALLVALUE DUP1 ISZERO PUSH2 0x354 JUMPI PUSH0 PUSH0 REVERT JUMPDEST POP PUSH2 0x35D PUSH2 0xAB0 JUMP JUMPDEST PUSH1 0x40 MLOAD PUSH2 0x36A SWAP2 SWAP1 PUSH2 0x19EF JUMP JUMPDEST PUSH1 0x40 MLOAD DUP1 SWAP2 SUB SWAP1 RETURN JUMPDEST CALLVALUE DUP1 ISZERO PUSH2 0x37E JUMPI PUSH0 PUSH0 REVERT JUMPDEST POP PUSH2 0x399 PUSH1 0x4 DUP1 CALLDATASIZE SUB DUP2 ADD SWAP1 PUSH2 0x394 SWAP2 SWAP1 PUSH2 0x1A08 JUMP JUMPDEST PUSH2 0xB2C JUMP JUMPDEST PUSH1 0x40 MLOAD PUSH2 0x3A6 SWAP2 SWAP1 PUSH2 0x172B JUMP JUMPDEST PUSH1 0x40 MLOAD DUP1 SWAP2 SUB SWAP1 RETURN JUMPDEST CALLVALUE DUP1 ISZERO PUSH2 0x3BA JUMPI PUSH0 PUSH0 REVERT JUMPDEST POP PUSH2 0x3D5 PUSH1 0x4 DUP1 CALLDATASIZE SUB DUP2 ADD SWAP1 PUSH2 0x3D0 SWAP2 SWAP1 PUSH2 0x16F1 JUMP JUMPDEST PUSH2 0xB55 JUMP JUMPDEST PUSH1 0x40 MLOAD PUSH2 0x3E2 SWAP2 SWAP1 PUSH2 0x172B JUMP JUMPDEST PUSH1 0x40 MLOAD DUP1 SWAP2 SUB SWAP1 RETURN JUMPDEST PUSH2 0x405 PUSH1 0x4 DUP1 CALLDATASIZE SUB DUP2 ADD SWAP1 PUSH2 0x400 SWAP2 SWAP1 PUSH2 0x1A33 JUMP JUMPDEST PUSH2 0xB66 JUMP JUMPDEST PUSH1 0x40 MLOAD PUSH2 0x412 SWAP2 SWAP1 PUSH2 0x172B JUMP JUMPDEST PUSH1 0x40 MLOAD DUP1 SWAP2 SUB SWAP1 RETURN JUMPDEST CALLVALUE DUP1 ISZERO PUSH2 0x426 JUMPI PUSH0 PUSH0 REVERT JUMPDEST POP PUSH2 0x441 PUSH1 0x4 DUP1 CALLDATASIZE SUB DUP2 ADD SWAP1 PUSH2 0x43C SWAP2 SWAP1 PUSH2 0x1A08 JUMP JUMPDEST PUSH2 0xC1E JUMP JUMPDEST PUSH1 0x40 MLOAD PUSH2 0x44E SWAP2 SWAP1 PUSH2 0x172B JUMP JUMPDEST PUSH1 0x40 MLOAD DUP1 SWAP2 SUB SWAP1 RETURN JUMPDEST CALLVALUE DUP1 ISZERO PUSH2 0x462 JUMPI PUSH0 PUSH0 REVERT JUMPDEST POP PUSH2 0x46B PUSH2 0xC37 JUMP JUMPDEST STOP JUMPDEST CALLVALUE DUP1 ISZERO PUSH2 0x478 JUMPI PUSH0 PUSH0 REVERT JUMPDEST POP PUSH2 0x493 PUSH1 0x4 DUP1 CALLDATASIZE SUB DUP2 ADD SWAP1 PUSH2 0x48E SWAP2 SWAP1 PUSH2 0x1A08 JUMP JUMPDEST PUSH2 0xC4A JUMP JUMPDEST PUSH1 0x40 MLOAD PUSH2 0x4A0 SWAP2 SWAP1 PUSH2 0x172B JUMP JUMPDEST PUSH1 0x40 MLOAD DUP1 SWAP2 SUB SWAP1 RETURN JUMPDEST CALLVALUE DUP1 ISZERO PUSH2 0x4B4 JUMPI PUSH0 PUSH0 REVERT JUMPDEST POP PUSH2 0x4BD PUSH2 0xC63 JUMP JUMPDEST PUSH1 0x40 MLOAD PUSH2 0x4CA SWAP2 SWAP1 PUSH2 0x1A80 JUMP JUMPDEST PUSH1 0x40 MLOAD DUP1 SWAP2 SUB SWAP1 RETURN JUMPDEST CALLVALUE DUP1 ISZERO PUSH2 0x4DE JUMPI PUSH0 PUSH0 REVERT JUMPDEST POP PUSH2 0x4E7 PUSH2 0xC8A JUMP JUMPDEST PUSH1 0x40 MLOAD PUSH2 0x4F4 SWAP2 SWAP1 PUSH2 0x1696 JUMP JUMPDEST PUSH1 0x40 MLOAD DUP1 SWAP2 SUB SWAP1 RETURN JUMPDEST CALLVALUE DUP1 ISZERO PUSH2 0x508 JUMPI PUSH0 PUSH0 REVERT JUMPDEST POP PUSH2 0x523 PUSH1 0x4 DUP1 CALLDATASIZE SUB DUP2 ADD SWAP1 PUSH2 0x51E SWAP2 SWAP1 PUSH2 0x179E JUMP JUMPDEST PUSH2 0xCC7 JUMP JUMPDEST PUSH1 0x40 MLOAD PUSH2 0x530 SWAP2 SWAP1 PUSH2 0x17F6 JUMP JUMPDEST PUSH1 0x40 MLOAD DUP1 SWAP2 SUB SWAP1 RETURN JUMPDEST CALLVALUE DUP1 ISZERO PUSH2 0x544 JUMPI PUSH0 PUSH0 REVERT JUMPDEST POP PUSH2 0x55F PUSH1 0x4 DUP1 CALLDATASIZE SUB DUP2 ADD SWAP1 PUSH2 0x55A SWAP2 SWAP1 PUSH2 0x1A99 JUMP JUMPDEST PUSH2 0xD55 JUMP JUMPDEST PUSH1 0x40 MLOAD PUSH2 0x56C SWAP2 SWAP1 PUSH2 0x172B JUMP JUMPDEST PUSH1 0x40 MLOAD DUP1 SWAP2 SUB SWAP1 RETURN JUMPDEST CALLVALUE DUP1 ISZERO PUSH2 0x580 JUMPI PUSH0 PUSH0 REVERT JUMPDEST POP PUSH2 0x59B PUSH1 0x4 DUP1 CALLDATASIZE SUB DUP2 ADD SWAP1 PUSH2 0x596 SWAP2 SWAP1 PUSH2 0x1A08 JUMP JUMPDEST PUSH2 0xED6 JUMP JUMPDEST PUSH1 0x40 MLOAD PUSH2 0x5A8 SWAP2 SWAP1 PUSH2 0x172B JUMP JUMPDEST PUSH1 0x40 MLOAD DUP1 SWAP2 SUB SWAP1 RETURN JUMPDEST CALLVALUE DUP1 ISZERO PUSH2 0x5BC JUMPI PUSH0 PUSH0 REVERT JUMPDEST POP PUSH2 0x5D7 PUSH1 0x4 DUP1 CALLDATASIZE SUB DUP2 ADD SWAP1 PUSH2 0x5D2 SWAP2 SWAP1 PUSH2 0x16F1 JUMP JUMPDEST PUSH2 0xF38 JUMP JUMPDEST PUSH1 0x40 MLOAD PUSH2 0x5E4 SWAP2 SWAP1 PUSH2 0x172B JUMP JUMPDEST PUSH1 0x40 MLOAD DUP1 SWAP2 SUB SWAP1 RETURN JUMPDEST CALLVALUE DUP1 ISZERO PUSH2 0x5F8 JUMPI PUSH0 PUSH0 REVERT JUMPDEST POP PUSH2 0x613 PUSH1 0x4 DUP1 CALLDATASIZE SUB DUP2 ADD SWAP1 PUSH2 0x60E SWAP2 SWAP1 PUSH2 0x1A08 JUMP JUMPDEST PUSH2 0xF6C JUMP JUMPDEST PUSH1 0x40 MLOAD PUSH2 0x620 SWAP2 SWAP1 PUSH2 0x172B JUMP JUMPDEST PUSH1 0x40 MLOAD DUP1 SWAP2 SUB SWAP1 RETURN JUMPDEST CALLVALUE DUP1 ISZERO PUSH2 0x634 JUMPI PUSH0 PUSH0 REVERT JUMPDEST POP PUSH2 0x64F PUSH1 0x4 DUP1 CALLDATASIZE SUB DUP2 ADD SWAP1 PUSH2 0x64A SWAP2 SWAP1 PUSH2 0x1B3D JUMP JUMPDEST PUSH2 0xFCE JUMP JUMPDEST STOP JUMPDEST CALLVALUE DUP1 ISZERO PUSH2 0x65C JUMPI PUSH0 PUSH0 REVERT JUMPDEST POP PUSH2 0x677 PUSH1 0x4 DUP1 CALLDATASIZE SUB DUP2 ADD SWAP1 PUSH2 0x672 SWAP2 SWAP1 PUSH2 0x1A08 JUMP JUMPDEST PUSH2 0x1191 JUMP JUMPDEST PUSH1 0x40 MLOAD PUSH2 0x684 SWAP2 SWAP1 PUSH2 0x172B JUMP JUMPDEST PUSH1 0x40 MLOAD DUP1 SWAP2 SUB SWAP1 RETURN JUMPDEST CALLVALUE DUP1 ISZERO PUSH2 0x698 JUMPI PUSH0 PUSH0 REVERT JUMPDEST POP PUSH2 0x6B3 PUSH1 0x4 DUP1 CALLDATASIZE SUB DUP2 ADD SWAP1 PUSH2 0x6AE SWAP2 SWAP1 PUSH2 0x1BDA JUMP JUMPDEST PUSH2 0x11BA JUMP JUMPDEST PUSH1 0x40 MLOAD PUSH2 0x6C0 SWAP2 SWAP1 PUSH2 0x172B JUMP JUMPDEST PUSH1 0x40 MLOAD DUP1 SWAP2 SUB SWAP1 RETURN JUMPDEST CALLVALUE DUP1 ISZERO PUSH2 0x6D4 JUMPI PUSH0 PUSH0 REVERT JUMPDEST POP PUSH2 0x6EF PUSH1 0x4 DUP1 CALLDATASIZE SUB DUP2 ADD SWAP1 PUSH2 0x6EA SWAP2 SWAP1 PUSH2 0x16F1 JUMP JUMPDEST PUSH2 0x1251 JUMP JUMPDEST PUSH1 0x40 MLOAD PUSH2 0x6FC SWAP2 SWAP1 PUSH2 0x172B JUMP JUMPDEST PUSH1 0x40 MLOAD DUP1 SWAP2 SUB SWAP1 RETURN JUMPDEST CALLVALUE DUP1 ISZERO PUSH2 0x710 JUMPI PUSH0 PUSH0 REVERT JUMPDEST POP PUSH2 0x72B PUSH1 0x4 DUP1 CALLDATASIZE SUB DUP2 ADD SWAP1 PUSH2 0x726 SWAP2 SWAP1 PUSH2 0x1A08 JUMP JUMPDEST PUSH2 0x1262 JUMP JUMPDEST STOP JUMPDEST PUSH1 0x60 PUSH1 0x40 MLOAD DUP1 PUSH1 0x40 ADD PUSH1 0x40 MSTORE DUP1 PUSH1 0xB DUP2 MSTORE PUSH1 0x20 ADD PUSH32 0x4B61696A75204775616E6F000000000000000000000000000000000000000000 DUP2 MSTORE POP SWAP1 POP SWAP1 JUMP JUMPDEST PUSH0 PUSH0 DUP3 PUSH1 0x3 SLOAD PUSH2 0x77A SWAP2 SWAP1 PUSH2 0x1C45 JUMP JUMPDEST PUSH2 0x783 CALLER PUSH2 0xF6C JUMP JUMPDEST DUP5 PUSH2 0x78E SWAP2 SWAP1 PUSH2 0x1C78 JUMP JUMPDEST PUSH2 0x798 SWAP2 SWAP1 PUSH2 0x1CE6 JUMP JUMPDEST SWAP1 POP DUP1 SELFBALANCE LT ISZERO PUSH2 0x7A6 JUMPI SELFBALANCE SWAP1 POP JUMPDEST DUP1 SWAP2 POP POP SWAP2 SWAP1 POP JUMP JUMPDEST PUSH0 PUSH2 0x7B8 PUSH2 0x12E6 JUMP JUMPDEST ISZERO PUSH2 0x7EB JUMPI DUP2 NOT ISZERO PUSH15 0x22D473030F116DDEE9F6B43AC78BA3 DUP5 PUSH1 0x60 SHL PUSH1 0x60 SHR XOR OR PUSH2 0x7EA JUMPI PUSH4 0x3F68539A PUSH0 MSTORE PUSH1 0x4 PUSH1 0x1C REVERT JUMPDEST JUMPDEST DUP3 PUSH1 0x20 MSTORE PUSH4 0x7F5E9F20 PUSH1 0xC MSTORE CALLER PUSH0 MSTORE DUP2 PUSH1 0x34 PUSH1 0xC KECCAK256 SSTORE DUP2 PUSH0 MSTORE PUSH1 0x2C MLOAD PUSH1 0x60 SHR CALLER PUSH32 0x8C5BE1E5EBEC7D5BD14F71427D1E84F3DD0314C0F7B2291E5B200AC8C7C3B925 PUSH1 0x20 PUSH0 LOG3 PUSH1 0x1 SWAP1 POP SWAP3 SWAP2 POP POP JUMP JUMPDEST PUSH0 PUSH1 0x1 DUP3 PUSH2 0x847 CALLER PUSH2 0xF6C JUMP JUMPDEST PUSH2 0x851 SWAP2 SWAP1 PUSH2 0x1CE6 JUMP JUMPDEST PUSH2 0x85B SWAP2 SWAP1 PUSH2 0x1D16 JUMP JUMPDEST PUSH1 0x3 SLOAD PUSH2 0x868 SWAP2 SWAP1 PUSH2 0x1CE6 JUMP JUMPDEST SWAP1 POP SWAP2 SWAP1 POP JUMP JUMPDEST PUSH1 0x60 PUSH2 0x879 PUSH2 0x12ED JUMP JUMPDEST PUSH0 DUP6 PUSH20 0xFFFFFFFFFFFFFFFFFFFFFFFFFFFFFFFFFFFFFFFF AND DUP6 DUP6 DUP6 PUSH1 0x40 MLOAD PUSH2 0x8A2 SWAP3 SWAP2 SWAP1 PUSH2 0x1D85 JUMP JUMPDEST PUSH0 PUSH1 0x40 MLOAD DUP1 DUP4 SUB DUP2 DUP6 DUP8 GAS CALL SWAP3 POP POP POP RETURNDATASIZE DUP1 PUSH0 DUP2 EQ PUSH2 0x8DC JUMPI PUSH1 0x40 MLOAD SWAP2 POP PUSH1 0x1F NOT PUSH1 0x3F RETURNDATASIZE ADD AND DUP3 ADD PUSH1 0x40 MSTORE RETURNDATASIZE DUP3 MSTORE RETURNDATASIZE PUSH0 PUSH1 0x20 DUP5 ADD RETURNDATACOPY PUSH2 0x8E1 JUMP JUMPDEST PUSH1 0x60 SWAP2 POP JUMPDEST POP SWAP2 POP POP DUP1 SWAP2 POP POP SWAP5 SWAP4 POP POP POP POP JUMP JUMPDEST PUSH0 PUSH9 0x5345CDF77EB68F44C SLOAD SWAP1 POP SWAP1 JUMP JUMPDEST PUSH0 PUSH2 0x90E DUP5 DUP5 DUP5 PUSH2 0x1374 JUMP JUMPDEST PUSH2 0x916 PUSH2 0x12E6 JUMP JUMPDEST ISZERO PUSH2 0x9E4 JUMPI DUP4 PUSH1 0x60 SHL PUSH15 0x22D473030F116DDEE9F6B43AC78BA3 CALLER EQ PUSH2 0x96F JUMPI CALLER PUSH1 0x20 MSTORE PUSH4 0x7F5E9F20 DUP2 OR PUSH1 0xC MSTORE PUSH1 0x34 PUSH1 0xC KECCAK256 DUP1 SLOAD DUP1 NOT ISZERO PUSH2 0x96C JUMPI DUP1 DUP6 GT ISZERO PUSH2 0x966 JUMPI PUSH4 0x13BE252B PUSH0 MSTORE PUSH1 0x4 PUSH1 0x1C REVERT JUMPDEST DUP5 DUP2 SUB DUP3 SSTORE JUMPDEST POP POP JUMPDEST PUSH4 0x87A211A2 DUP2 OR PUSH1 0xC MSTORE PUSH1 0x20 PUSH1 0xC KECCAK256 DUP1 SLOAD DUP1 DUP6 GT ISZERO PUSH2 0x995 JUMPI PUSH4 0xF4D678B8 PUSH0 MSTORE PUSH1 0x4 PUSH1 0x1C REVERT JUMPDEST DUP5 DUP2 SUB DUP3 SSTORE DUP6 PUSH0 MSTORE PUSH1 0x20 PUSH1 0xC KECCAK256 DUP6 DUP2 SLOAD ADD DUP2 SSTORE DUP6 PUSH1 0x20 MSTORE PUSH1 0xC MLOAD PUSH1 0x60 SHR DUP5 PUSH1 0x60 SHR PUSH32 0xDDF252AD1BE2C89B69C2B068FC378DAA952BA7F163C4A11628F55A4DF523B3EF PUSH1 0x20 DUP1 LOG3 POP POP POP POP PUSH2 0xA92 JUMP JUMPDEST DUP4 PUSH1 0x60 SHL CALLER PUSH1 0x20 MSTORE PUSH4 0x7F5E9F20 DUP2 OR PUSH1 0xC MSTORE PUSH1 0x34 PUSH1 0xC KECCAK256 DUP1 SLOAD DUP1 NOT ISZERO PUSH2 0xA1F JUMPI DUP1 DUP6 GT ISZERO PUSH2 0xA19 JUMPI PUSH4 0x13BE252B PUSH0 MSTORE PUSH1 0x4 PUSH1 0x1C REVERT JUMPDEST DUP5 DUP2 SUB DUP3 SSTORE JUMPDEST PUSH4 0x87A211A2 DUP4 OR PUSH1 0xC MSTORE PUSH1 0x20 PUSH1 0xC KECCAK256 DUP1 SLOAD DUP1 DUP8 GT ISZERO PUSH2 0xA45 JUMPI PUSH4 0xF4D678B8 PUSH0 MSTORE PUSH1 0x4 PUSH1 0x1C REVERT JUMPDEST DUP7 DUP2 SUB DUP3 SSTORE DUP8 PUSH0 MSTORE PUSH1 0x20 PUSH1 0xC KECCAK256 DUP8 DUP2 SLOAD ADD DUP2 SSTORE DUP8 PUSH1 0x20 MSTORE PUSH1 0xC MLOAD PUSH1 0x60 SHR DUP7 PUSH1 0x60 SHR PUSH32 0xDDF252AD1BE2C89B69C2B068FC378DAA952BA7F163C4A11628F55A4DF523B3EF PUSH1 0x20 DUP1 LOG3 POP POP POP POP POP POP JUMPDEST PUSH2 0xA9D DUP5 DUP5 DUP5 PUSH2 0x1379 JUMP JUMPDEST PUSH1 0x1 SWAP1 POP SWAP4 SWAP3 POP POP POP JUMP JUMPDEST PUSH0 PUSH1 0x12 SWAP1 POP SWAP1 JUMP JUMPDEST PUSH0 PUSH0 PUSH2 0xABA PUSH2 0x137E JUMP JUMPDEST SWAP1 POP PUSH0 PUSH0 SHL DUP2 SUB PUSH2 0xAD7 JUMPI PUSH2 0xACD PUSH2 0x72D JUMP JUMPDEST DUP1 MLOAD SWAP1 PUSH1 0x20 ADD KECCAK256 SWAP1 POP JUMPDEST PUSH0 PUSH2 0xAE0 PUSH2 0x1382 JUMP JUMPDEST SWAP1 POP PUSH1 0x40 MLOAD PUSH32 0x8B73C3C69BB8FE3D512ECC4CF759CC79239F7B179B0FFACAA9A75D522B39400F DUP2 MSTORE DUP3 PUSH1 0x20 DUP3 ADD MSTORE DUP2 PUSH1 0x40 DUP3 ADD MSTORE CHAINID PUSH1 0x60 DUP3 ADD MSTORE ADDRESS PUSH1 0x80 DUP3 ADD MSTORE PUSH1 0xA0 DUP2 KECCAK256 SWAP4 POP POP POP POP SWAP1 JUMP JUMPDEST PUSH0 PUSH32 0xFFFFFFFFFFFFFFFFFFFFFFFFFFFFFFFFFFFFFFFFFFFFFFFFFFFFFFFFFFFFFFFF SWAP1 POP SWAP2 SWAP1 POP JUMP JUMPDEST PUSH0 PUSH2 0xB5F DUP3 PUSH2 0x76A JUMP JUMPDEST SWAP1 POP SWAP2 SWAP1 POP JUMP JUMPDEST PUSH0 PUSH0 PUSH2 0xB71 CALLVALUE PUSH2 0x1251 JUMP JUMPDEST SWAP1 POP DUP1 PUSH1 0x1 PUSH0 DUP3 DUP3 SLOAD PUSH2 0xB84 SWAP2 SWAP1 PUSH2 0x1C45 JUMP JUMPDEST SWAP3 POP POP DUP2 SWAP1 SSTORE POP CALLVALUE PUSH1 0x2 PUSH0 DUP3 DUP3 SLOAD PUSH2 0xB9C SWAP2 SWAP1 PUSH2 0x1C45 JUMP JUMPDEST SWAP3 POP POP DUP2 SWAP1 SSTORE POP PUSH2 0xBAD DUP4 DUP3 PUSH2 0x13AB JUMP JUMPDEST DUP3 PUSH20 0xFFFFFFFFFFFFFFFFFFFFFFFFFFFFFFFFFFFFFFFF AND CALLER PUSH20 0xFFFFFFFFFFFFFFFFFFFFFFFFFFFFFFFFFFFFFFFF AND PUSH32 0xDCBC1C05240F31FF3AD067EF1EE35CE4997762752E3A095284754544F4C709D7 CALLVALUE DUP5 PUSH1 0x40 MLOAD PUSH2 0xC0C SWAP3 SWAP2 SWAP1 PUSH2 0x1D9D JUMP JUMPDEST PUSH1 0x40 MLOAD DUP1 SWAP2 SUB SWAP1 LOG3 DUP1 SWAP2 POP POP SWAP3 SWAP2 POP POP JUMP JUMPDEST PUSH0 PUSH4 0x87A211A2 PUSH1 0xC MSTORE DUP2 PUSH0 MSTORE PUSH1 0x20 PUSH1 0xC KECCAK256 SLOAD SWAP1 POP SWAP2 SWAP1 POP JUMP JUMPDEST PUSH2 0xC3F PUSH2 0x12ED JUMP JUMPDEST PUSH2 0xC48 PUSH0 PUSH2 0x143D JUMP JUMPDEST JUMP JUMPDEST PUSH0 PUSH4 0x38377508 PUSH1 0xC MSTORE DUP2 PUSH0 MSTORE PUSH1 0x20 PUSH1 0xC KECCAK256 SLOAD SWAP1 POP SWAP2 SWAP1 POP JUMP JUMPDEST PUSH0 PUSH0 PUSH0 SWAP1 SLOAD SWAP1 PUSH2 0x100 EXP SWAP1 DIV PUSH20 0xFFFFFFFFFFFFFFFFFFFFFFFFFFFFFFFFFFFFFFFF AND SWAP1 POP SWAP1 JUMP JUMPDEST PUSH1 0x60 PUSH1 0x40 MLOAD DUP1 PUSH1 0x40 ADD PUSH1 0x40 MSTORE DUP1 PUSH1 0x5 DUP2 MSTORE PUSH1 0x20 ADD PUSH32 0x4755414E4F000000000000000000000000000000000000000000000000000000 DUP2 MSTORE POP SWAP1 POP SWAP1 JUMP JUMPDEST PUSH0 PUSH2 0xCD3 CALLER DUP5 DUP5 PUSH2 0x1374 JUMP JUMPDEST PUSH4 0x87A211A2 PUSH1 0xC MSTORE CALLER PUSH0 MSTORE PUSH1 0x20 PUSH1 0xC KECCAK256 DUP1 SLOAD DUP1 DUP5 GT ISZERO PUSH2 0xCFA JUMPI PUSH4 0xF4D678B8 PUSH0 MSTORE PUSH1 0x4 PUSH1 0x1C REVERT JUMPDEST DUP4 DUP2 SUB DUP3 SSTORE DUP5 PUSH0 MSTORE PUSH1 0x20 PUSH1 0xC KECCAK256 DUP5 DUP2 SLOAD ADD DUP2 SSTORE DUP5 PUSH1 0x20 MSTORE PUSH1 0xC MLOAD PUSH1 0x60 SHR CALLER PUSH32 0xDDF252AD1BE2C89B69C2B068FC378DAA952BA7F163C4A11628F55A4DF523B3EF PUSH1 0x20 DUP1 LOG3 POP POP POP PUSH2 0xD4B CALLER DUP5 DUP5 PUSH2 0x1379 JUMP JUMPDEST PUSH1 0x1 SWAP1 POP SWAP3 SWAP2 POP POP JUMP JUMPDEST PUSH0 PUSH0 PUSH2 0xD60 DUP6 PUSH2 0xB55 JUMP JUMPDEST SWAP1 POP DUP3 PUSH20 0xFFFFFFFFFFFFFFFFFFFFFFFFFFFFFFFFFFFFFFFF AND CALLER PUSH20 0xFFFFFFFFFFFFFFFFFFFFFFFFFFFFFFFFFFFFFFFF AND EQ PUSH2 0xDA1 JUMPI PUSH2 0xDA0 DUP4 CALLER DUP8 PUSH2 0x14FE JUMP JUMPDEST JUMPDEST DUP5 PUSH1 0x3 PUSH0 DUP3 DUP3 SLOAD PUSH2 0xDB2 SWAP2 SWAP1 PUSH2 0x1C45 JUMP JUMPDEST SWAP3 POP POP DUP2 SWAP1 SSTORE POP DUP1 PUSH1 0x4 PUSH0 DUP3 DUP3 SLOAD PUSH2 0xDCA SWAP2 SWAP1 PUSH2 0x1C45 JUMP JUMPDEST SWAP3 POP POP DUP2 SWAP1 SSTORE POP PUSH2 0xDDB DUP4 DUP7 PUSH2 0x158F JUMP JUMPDEST PUSH0 DUP5 PUSH20 0xFFFFFFFFFFFFFFFFFFFFFFFFFFFFFFFFFFFFFFFF AND DUP3 PUSH1 0x40 MLOAD PUSH2 0xE00 SWAP1 PUSH2 0x1DE7 JUMP JUMPDEST PUSH0 PUSH1 0x40 MLOAD DUP1 DUP4 SUB DUP2 DUP6 DUP8 GAS CALL SWAP3 POP POP POP RETURNDATASIZE DUP1 PUSH0 DUP2 EQ PUSH2 0xE3A JUMPI PUSH1 0x40 MLOAD SWAP2 POP PUSH1 0x1F NOT PUSH1 0x3F RETURNDATASIZE ADD AND DUP3 ADD PUSH1 0x40 MSTORE RETURNDATASIZE DUP3 MSTORE RETURNDATASIZE PUSH0 PUSH1 0x20 DUP5 ADD RETURNDATACOPY PUSH2 0xE3F JUMP JUMPDEST PUSH1 0x60 SWAP2 POP JUMPDEST POP POP SWAP1 POP DUP1 PUSH2 0xE4C JUMPI PUSH0 PUSH0 REVERT JUMPDEST DUP4 PUSH20 0xFFFFFFFFFFFFFFFFFFFFFFFFFFFFFFFFFFFFFFFF AND DUP6 PUSH20 0xFFFFFFFFFFFFFFFFFFFFFFFFFFFFFFFFFFFFFFFF AND CALLER PUSH20 0xFFFFFFFFFFFFFFFFFFFFFFFFFFFFFFFFFFFFFFFF AND PUSH32 0xFBDE797D201C681B91056529119E0B02407C7BB96A4A2C75C01FC9667232C8DB DUP6 DUP11 PUSH1 0x40 MLOAD PUSH2 0xEC2 SWAP3 SWAP2 SWAP1 PUSH2 0x1D9D JUMP JUMPDEST PUSH1 0x40 MLOAD DUP1 SWAP2 SUB SWAP1 LOG4 DUP2 SWAP3 POP POP POP SWAP4 SWAP3 POP POP POP JUMP JUMPDEST PUSH0 PUSH1 0x1 SLOAD PUSH3 0x15180 PUSH8 0x2C68AF0BB140000 PUSH2 0xEF1 SWAP2 SWAP1 PUSH2 0x1CE6 JUMP JUMPDEST PUSH32 0x0 TIMESTAMP PUSH2 0xF1D SWAP2 SWAP1 PUSH2 0x1D16 JUMP JUMPDEST PUSH2 0xF27 SWAP2 SWAP1 PUSH2 0x1C78 JUMP JUMPDEST PUSH2 0xF31 SWAP2 SWAP1 PUSH2 0x1D16 JUMP JUMPDEST SWAP1 POP SWAP2 SWAP1 POP JUMP JUMPDEST PUSH0 DUP2 PUSH1 0x2 SLOAD PUSH2 0xF47 SWAP2 SWAP1 PUSH2 0x1C45 JUMP JUMPDEST PUSH2 0xF50 CALLER PUSH2 0xED6 JUMP JUMPDEST DUP4 PUSH2 0xF5B SWAP2 SWAP1 PUSH2 0x1C78 JUMP JUMPDEST PUSH2 0xF65 SWAP2 SWAP1 PUSH2 0x1CE6 JUMP JUMPDEST SWAP1 POP SWAP2 SWAP1 POP JUMP JUMPDEST PUSH0 PUSH1 0x4 SLOAD PUSH3 0x15180 PUSH8 0x16345785D8A0000 PUSH2 0xF87 SWAP2 SWAP1 PUSH2 0x1CE6 JUMP JUMPDEST PUSH32 0x0 TIMESTAMP PUSH2 0xFB3 SWAP2 SWAP1 PUSH2 0x1D16 JUMP JUMPDEST PUSH2 0xFBD SWAP2 SWAP1 PUSH2 0x1C78 JUMP JUMPDEST PUSH2 0xFC7 SWAP2 SWAP1 PUSH2 0x1D16 JUMP JUMPDEST SWAP1 POP SWAP2 SWAP1 POP JUMP JUMPDEST PUSH2 0xFD6 PUSH2 0x12E6 JUMP JUMPDEST ISZERO PUSH2 0x1009 JUMPI DUP5 NOT ISZERO PUSH15 0x22D473030F116DDEE9F6B43AC78BA3 DUP8 PUSH1 0x60 SHL PUSH1 0x60 SHR XOR OR PUSH2 0x1008 JUMPI PUSH4 0x3F68539A PUSH0 MSTORE PUSH1 0x4 PUSH1 0x1C REVERT JUMPDEST JUMPDEST PUSH0 PUSH2 0x1012 PUSH2 0x137E JUMP JUMPDEST SWAP1 POP PUSH0 PUSH0 SHL DUP2 SUB PUSH2 0x102F JUMPI PUSH2 0x1025 PUSH2 0x72D JUMP JUMPDEST DUP1 MLOAD SWAP1 PUSH1 0x20 ADD KECCAK256 SWAP1 POP JUMPDEST PUSH0 PUSH2 0x1038 PUSH2 0x1382 JUMP JUMPDEST SWAP1 POP DUP6 TIMESTAMP GT ISZERO PUSH2 0x104F JUMPI PUSH4 0x1A15A3CC PUSH0 MSTORE PUSH1 0x4 PUSH1 0x1C REVERT JUMPDEST PUSH1 0x40 MLOAD DUP10 PUSH1 0x60 SHL PUSH1 0x60 SHR SWAP10 POP DUP9 PUSH1 0x60 SHL PUSH1 0x60 SHR SWAP9 POP PUSH6 0x383775081901 PUSH1 0xE MSTORE DUP10 PUSH0 MSTORE PUSH1 0x20 PUSH1 0xC KECCAK256 DUP1 SLOAD PUSH32 0x8B73C3C69BB8FE3D512ECC4CF759CC79239F7B179B0FFACAA9A75D522B39400F DUP4 MSTORE DUP5 PUSH1 0x20 DUP5 ADD MSTORE DUP4 PUSH1 0x40 DUP5 ADD MSTORE CHAINID PUSH1 0x60 DUP5 ADD MSTORE ADDRESS PUSH1 0x80 DUP5 ADD MSTORE PUSH1 0xA0 DUP4 KECCAK256 PUSH1 0x2E MSTORE PUSH32 0x6E71EDAE12B1B97F4D1F60370FEF10105FA2FAAE0126114A169C64845D6126C9 DUP4 MSTORE DUP12 PUSH1 0x20 DUP5 ADD MSTORE DUP11 PUSH1 0x40 DUP5 ADD MSTORE DUP10 PUSH1 0x60 DUP5 ADD MSTORE DUP1 PUSH1 0x80 DUP5 ADD MSTORE DUP9 PUSH1 0xA0 DUP5 ADD MSTORE PUSH1 0xC0 DUP4 KECCAK256 PUSH1 0x4E MSTORE PUSH1 0x42 PUSH1 0x2C KECCAK256 PUSH0 MSTORE DUP8 PUSH1 0xFF AND PUSH1 0x20 MSTORE DUP7 PUSH1 0x40 MSTORE DUP6 PUSH1 0x60 MSTORE PUSH1 0x20 DUP1 PUSH1 0x80 PUSH0 PUSH1 0x1 GAS STATICCALL DUP13 RETURNDATASIZE MLOAD EQ PUSH2 0x1137 JUMPI PUSH4 0xDDAFBAEF PUSH0 MSTORE PUSH1 0x4 PUSH1 0x1C REVERT JUMPDEST DUP1 DUP3 ADD DUP4 SSTORE DUP12 PUSH4 0x7F5E9F20 PUSH1 0xA0 SHL OR PUSH1 0x40 MSTORE DUP11 PUSH1 0x34 PUSH1 0x2C KECCAK256 SSTORE DUP12 DUP14 PUSH32 0x8C5BE1E5EBEC7D5BD14F71427D1E84F3DD0314C0F7B2291E5B200AC8C7C3B925 PUSH1 0x20 PUSH1 0x60 DUP9 ADD LOG3 DUP4 PUSH1 0x40 MSTORE PUSH0 PUSH1 0x60 MSTORE POP POP POP POP POP POP POP POP POP POP POP POP POP JUMP JUMPDEST PUSH0 PUSH32 0xFFFFFFFFFFFFFFFFFFFFFFFFFFFFFFFFFFFFFFFFFFFFFFFFFFFFFFFFFFFFFFFF SWAP1 POP SWAP2 SWAP1 POP JUMP JUMPDEST PUSH0 PUSH2 0x11C3 PUSH2 0x12E6 JUMP JUMPDEST ISZERO PUSH2 0x1233 JUMPI PUSH15 0x22D473030F116DDEE9F6B43AC78BA3 PUSH20 0xFFFFFFFFFFFFFFFFFFFFFFFFFFFFFFFFFFFFFFFF AND DUP3 PUSH20 0xFFFFFFFFFFFFFFFFFFFFFFFFFFFFFFFFFFFFFFFF AND SUB PUSH2 0x1232 JUMPI PUSH32 0xFFFFFFFFFFFFFFFFFFFFFFFFFFFFFFFFFFFFFFFFFFFFFFFFFFFFFFFFFFFFFFFF SWAP1 POP PUSH2 0x124B JUMP JUMPDEST JUMPDEST DUP2 PUSH1 0x20 MSTORE PUSH4 0x7F5E9F20 PUSH1 0xC MSTORE DUP3 PUSH0 MSTORE PUSH1 0x34 PUSH1 0xC KECCAK256 SLOAD SWAP1 POP JUMPDEST SWAP3 SWAP2 POP POP JUMP JUMPDEST PUSH0 PUSH2 0x125B DUP3 PUSH2 0xF38 JUMP JUMPDEST SWAP1 POP SWAP2 SWAP1 POP JUMP JUMPDEST PUSH2 0x126A PUSH2 0x12ED JUMP JUMPDEST PUSH0 PUSH20 0xFFFFFFFFFFFFFFFFFFFFFFFFFFFFFFFFFFFFFFFF AND DUP2 PUSH20 0xFFFFFFFFFFFFFFFFFFFFFFFFFFFFFFFFFFFFFFFF AND SUB PUSH2 0x12DA JUMPI PUSH0 PUSH1 0x40 MLOAD PUSH32 0x1E4FBDF700000000000000000000000000000000000000000000000000000000 DUP2 MSTORE PUSH1 0x4 ADD PUSH2 0x12D1 SWAP2 SWAP1 PUSH2 0x1A80 JUMP JUMPDEST PUSH1 0x40 MLOAD DUP1 SWAP2 SUB SWAP1 REVERT JUMPDEST PUSH2 0x12E3 DUP2 PUSH2 0x143D JUMP JUMPDEST POP JUMP JUMPDEST PUSH0 PUSH0 SWAP1 POP SWAP1 JUMP JUMPDEST PUSH2 0x12F5 PUSH2 0x161F JUMP JUMPDEST PUSH20 0xFFFFFFFFFFFFFFFFFFFFFFFFFFFFFFFFFFFFFFFF AND PUSH2 0x1313 PUSH2 0xC63 JUMP JUMPDEST PUSH20 0xFFFFFFFFFFFFFFFFFFFFFFFFFFFFFFFFFFFFFFFF AND EQ PUSH2 0x1372 JUMPI PUSH2 0x1336 PUSH2 0x161F JUMP JUMPDEST PUSH1 0x40 MLOAD PUSH32 0x118CDAA700000000000000000000000000000000000000000000000000000000 DUP2 MSTORE PUSH1 0x4 ADD PUSH2 0x1369 SWAP2 SWAP1 PUSH2 0x1A80 JUMP JUMPDEST PUSH1 0x40 MLOAD DUP1 SWAP2 SUB SWAP1 REVERT JUMPDEST JUMP JUMPDEST POP POP POP JUMP JUMPDEST POP POP POP JUMP JUMPDEST PUSH0 SWAP1 JUMP JUMPDEST PUSH0 PUSH32 0xC89EFDAA54C0F20C7ADF612882DF0950F5A951637E0307CDCB4C672F298B8BC6 PUSH0 SHL SWAP1 POP SWAP1 JUMP JUMPDEST PUSH2 0x13B6 PUSH0 DUP4 DUP4 PUSH2 0x1374 JUMP JUMPDEST PUSH9 0x5345CDF77EB68F44C SLOAD DUP2 DUP2 ADD DUP2 DUP2 LT ISZERO PUSH2 0x13D9 JUMPI PUSH4 0xE5CFE957 PUSH0 MSTORE PUSH1 0x4 PUSH1 0x1C REVERT JUMPDEST DUP1 PUSH9 0x5345CDF77EB68F44C SSTORE PUSH4 0x87A211A2 PUSH1 0xC MSTORE DUP4 PUSH0 MSTORE PUSH1 0x20 PUSH1 0xC KECCAK256 DUP4 DUP2 SLOAD ADD DUP2 SSTORE DUP4 PUSH1 0x20 MSTORE PUSH1 0xC MLOAD PUSH1 0x60 SHR PUSH0 PUSH32 0xDDF252AD1BE2C89B69C2B068FC378DAA952BA7F163C4A11628F55A4DF523B3EF PUSH1 0x20 DUP1 LOG3 POP POP POP PUSH2 0x1439 PUSH0 DUP4 DUP4 PUSH2 0x1379 JUMP JUMPDEST POP POP JUMP JUMPDEST PUSH0 PUSH0 PUSH0 SWAP1 SLOAD SWAP1 PUSH2 0x100 EXP SWAP1 DIV PUSH20 0xFFFFFFFFFFFFFFFFFFFFFFFFFFFFFFFFFFFFFFFF AND SWAP1 POP DUP2 PUSH0 PUSH0 PUSH2 0x100 EXP DUP2 SLOAD DUP2 PUSH20 0xFFFFFFFFFFFFFFFFFFFFFFFFFFFFFFFFFFFFFFFF MUL NOT AND SWAP1 DUP4 PUSH20 0xFFFFFFFFFFFFFFFFFFFFFFFFFFFFFFFFFFFFFFFF AND MUL OR SWAP1 SSTORE POP DUP2 PUSH20 0xFFFFFFFFFFFFFFFFFFFFFFFFFFFFFFFFFFFFFFFF AND DUP2 PUSH20 0xFFFFFFFFFFFFFFFFFFFFFFFFFFFFFFFFFFFFFFFF AND PUSH32 0x8BE0079C531659141344CD1FD0A4F28419497F9722A3DAAFE3B4186F6B6457E0 PUSH1 0x40 MLOAD PUSH1 0x40 MLOAD DUP1 SWAP2 SUB SWAP1 LOG3 POP POP JUMP JUMPDEST PUSH2 0x1506 PUSH2 0x12E6 JUMP JUMPDEST ISZERO PUSH2 0x154F JUMPI PUSH15 0x22D473030F116DDEE9F6B43AC78BA3 PUSH20 0xFFFFFFFFFFFFFFFFFFFFFFFFFFFFFFFFFFFFFFFF AND DUP3 PUSH20 0xFFFFFFFFFFFFFFFFFFFFFFFFFFFFFFFFFFFFFFFF AND SUB ISZERO PUSH2 0x158A JUMPI JUMPDEST DUP2 PUSH1 0x20 MSTORE PUSH4 0x7F5E9F20 PUSH1 0xC MSTORE DUP3 PUSH0 MSTORE PUSH1 0x34 PUSH1 0xC KECCAK256 DUP1 SLOAD DUP1 NOT ISZERO PUSH2 0x1587 JUMPI DUP1 DUP4 GT ISZERO PUSH2 0x1581 JUMPI PUSH4 0x13BE252B PUSH0 MSTORE PUSH1 0x4 PUSH1 0x1C REVERT JUMPDEST DUP3 DUP2 SUB DUP3 SSTORE JUMPDEST POP POP JUMPDEST POP POP POP JUMP JUMPDEST PUSH2 0x159A DUP3 PUSH0 DUP4 PUSH2 0x1374 JUMP JUMPDEST PUSH4 0x87A211A2 PUSH1 0xC MSTORE DUP2 PUSH0 MSTORE PUSH1 0x20 PUSH1 0xC KECCAK256 DUP1 SLOAD DUP1 DUP4 GT ISZERO PUSH2 0x15C1 JUMPI PUSH4 0xF4D678B8 PUSH0 MSTORE PUSH1 0x4 PUSH1 0x1C REVERT JUMPDEST DUP3 DUP2 SUB DUP3 SSTORE DUP3 PUSH9 0x5345CDF77EB68F44C SLOAD SUB PUSH9 0x5345CDF77EB68F44C SSTORE DUP3 PUSH0 MSTORE PUSH0 DUP5 PUSH1 0x60 SHL PUSH1 0x60 SHR PUSH32 0xDDF252AD1BE2C89B69C2B068FC378DAA952BA7F163C4A11628F55A4DF523B3EF PUSH1 0x20 PUSH0 LOG3 POP POP PUSH2 0x161B DUP3 PUSH0 DUP4 PUSH2 0x1379 JUMP JUMPDEST POP POP JUMP JUMPDEST PUSH0 CALLER SWAP1 POP SWAP1 JUMP JUMPDEST PUSH0 DUP2 MLOAD SWAP1 POP SWAP2 SWAP1 POP JUMP JUMPDEST PUSH0 DUP3 DUP3 MSTORE PUSH1 0x20 DUP3 ADD SWAP1 POP SWAP3 SWAP2 POP POP JUMP JUMPDEST DUP3 DUP2 DUP4 MCOPY PUSH0 DUP4 DUP4 ADD MSTORE POP POP POP JUMP JUMPDEST PUSH0 PUSH1 0x1F NOT PUSH1 0x1F DUP4 ADD AND SWAP1 POP SWAP2 SWAP1 POP JUMP JUMPDEST PUSH0 PUSH2 0x1668 DUP3 PUSH2 0x1626 JUMP JUMPDEST PUSH2 0x1672 DUP2 DUP6 PUSH2 0x1630 JUMP JUMPDEST SWAP4 POP PUSH2 0x1682 DUP2 DUP6 PUSH1 0x20 DUP7 ADD PUSH2 0x1640 JUMP JUMPDEST PUSH2 0x168B DUP2 PUSH2 0x164E JUMP JUMPDEST DUP5 ADD SWAP2 POP POP SWAP3 SWAP2 POP POP JUMP JUMPDEST PUSH0 PUSH1 0x20 DUP3 ADD SWAP1 POP DUP2 DUP2 SUB PUSH0 DUP4 ADD MSTORE PUSH2 0x16AE DUP2 DUP5 PUSH2 0x165E JUMP JUMPDEST SWAP1 POP SWAP3 SWAP2 POP POP JUMP JUMPDEST PUSH0 PUSH0 REVERT JUMPDEST PUSH0 PUSH0 REVERT JUMPDEST PUSH0 DUP2 SWAP1 POP SWAP2 SWAP1 POP JUMP JUMPDEST PUSH2 0x16D0 DUP2 PUSH2 0x16BE JUMP JUMPDEST DUP2 EQ PUSH2 0x16DA JUMPI PUSH0 PUSH0 REVERT JUMPDEST POP JUMP JUMPDEST PUSH0 DUP2 CALLDATALOAD SWAP1 POP PUSH2 0x16EB DUP2 PUSH2 0x16C7 JUMP JUMPDEST SWAP3 SWAP2 POP POP JUMP JUMPDEST PUSH0 PUSH1 0x20 DUP3 DUP5 SUB SLT ISZERO PUSH2 0x1706 JUMPI PUSH2 0x1705 PUSH2 0x16B6 JUMP JUMPDEST JUMPDEST PUSH0 PUSH2 0x1713 DUP5 DUP3 DUP6 ADD PUSH2 0x16DD JUMP JUMPDEST SWAP2 POP POP SWAP3 SWAP2 POP POP JUMP JUMPDEST PUSH2 0x1725 DUP2 PUSH2 0x16BE JUMP JUMPDEST DUP3 MSTORE POP POP JUMP JUMPDEST PUSH0 PUSH1 0x20 DUP3 ADD SWAP1 POP PUSH2 0x173E PUSH0 DUP4 ADD DUP5 PUSH2 0x171C JUMP JUMPDEST SWAP3 SWAP2 POP POP JUMP JUMPDEST PUSH0 PUSH20 0xFFFFFFFFFFFFFFFFFFFFFFFFFFFFFFFFFFFFFFFF DUP3 AND SWAP1 POP SWAP2 SWAP1 POP JUMP JUMPDEST PUSH0 PUSH2 0x176D DUP3 PUSH2 0x1744 JUMP JUMPDEST SWAP1 POP SWAP2 SWAP1 POP JUMP JUMPDEST PUSH2 0x177D DUP2 PUSH2 0x1763 JUMP JUMPDEST DUP2 EQ PUSH2 0x1787 JUMPI PUSH0 PUSH0 REVERT JUMPDEST POP JUMP JUMPDEST PUSH0 DUP2 CALLDATALOAD SWAP1 POP PUSH2 0x1798 DUP2 PUSH2 0x1774 JUMP JUMPDEST SWAP3 SWAP2 POP POP JUMP JUMPDEST PUSH0 PUSH0 PUSH1 0x40 DUP4 DUP6 SUB SLT ISZERO PUSH2 0x17B4 JUMPI PUSH2 0x17B3 PUSH2 0x16B6 JUMP JUMPDEST JUMPDEST PUSH0 PUSH2 0x17C1 DUP6 DUP3 DUP7 ADD PUSH2 0x178A JUMP JUMPDEST SWAP3 POP POP PUSH1 0x20 PUSH2 0x17D2 DUP6 DUP3 DUP7 ADD PUSH2 0x16DD JUMP JUMPDEST SWAP2 POP POP SWAP3 POP SWAP3 SWAP1 POP JUMP JUMPDEST PUSH0 DUP2 ISZERO ISZERO SWAP1 POP SWAP2 SWAP1 POP JUMP JUMPDEST PUSH2 0x17F0 DUP2 PUSH2 0x17DC JUMP JUMPDEST DUP3 MSTORE POP POP JUMP JUMPDEST PUSH0 PUSH1 0x20 DUP3 ADD SWAP1 POP PUSH2 0x1809 PUSH0 DUP4 ADD DUP5 PUSH2 0x17E7 JUMP JUMPDEST SWAP3 SWAP2 POP POP JUMP JUMPDEST PUSH0 PUSH0 REVERT JUMPDEST PUSH0 PUSH0 REVERT JUMPDEST PUSH0 PUSH0 REVERT JUMPDEST PUSH0 PUSH0 DUP4 PUSH1 0x1F DUP5 ADD SLT PUSH2 0x1830 JUMPI PUSH2 0x182F PUSH2 0x180F JUMP JUMPDEST JUMPDEST DUP3 CALLDATALOAD SWAP1 POP PUSH8 0xFFFFFFFFFFFFFFFF DUP2 GT ISZERO PUSH2 0x184D JUMPI PUSH2 0x184C PUSH2 0x1813 JUMP JUMPDEST JUMPDEST PUSH1 0x20 DUP4 ADD SWAP2 POP DUP4 PUSH1 0x1 DUP3 MUL DUP4 ADD GT ISZERO PUSH2 0x1869 JUMPI PUSH2 0x1868 PUSH2 0x1817 JUMP JUMPDEST JUMPDEST SWAP3 POP SWAP3 SWAP1 POP JUMP JUMPDEST PUSH0 PUSH0 PUSH0 PUSH0 PUSH1 0x60 DUP6 DUP8 SUB SLT ISZERO PUSH2 0x1888 JUMPI PUSH2 0x1887 PUSH2 0x16B6 JUMP JUMPDEST JUMPDEST PUSH0 PUSH2 0x1895 DUP8 DUP3 DUP9 ADD PUSH2 0x178A JUMP JUMPDEST SWAP5 POP POP PUSH1 0x20 PUSH2 0x18A6 DUP8 DUP3 DUP9 ADD PUSH2 0x16DD JUMP JUMPDEST SWAP4 POP POP PUSH1 0x40 DUP6 ADD CALLDATALOAD PUSH8 0xFFFFFFFFFFFFFFFF DUP2 GT ISZERO PUSH2 0x18C7 JUMPI PUSH2 0x18C6 PUSH2 0x16BA JUMP JUMPDEST JUMPDEST PUSH2 0x18D3 DUP8 DUP3 DUP9 ADD PUSH2 0x181B JUMP JUMPDEST SWAP3 POP SWAP3 POP POP SWAP3 SWAP6 SWAP2 SWAP5 POP SWAP3 POP JUMP JUMPDEST PUSH0 DUP2 MLOAD SWAP1 POP SWAP2 SWAP1 POP JUMP JUMPDEST PUSH0 DUP3 DUP3 MSTORE PUSH1 0x20 DUP3 ADD SWAP1 POP SWAP3 SWAP2 POP POP JUMP JUMPDEST PUSH0 PUSH2 0x1905 DUP3 PUSH2 0x18E1 JUMP JUMPDEST PUSH2 0x190F DUP2 DUP6 PUSH2 0x18EB JUMP JUMPDEST SWAP4 POP PUSH2 0x191F DUP2 DUP6 PUSH1 0x20 DUP7 ADD PUSH2 0x1640 JUMP JUMPDEST PUSH2 0x1928 DUP2 PUSH2 0x164E JUMP JUMPDEST DUP5 ADD SWAP2 POP POP SWAP3 SWAP2 POP POP JUMP JUMPDEST PUSH0 PUSH1 0x20 DUP3 ADD SWAP1 POP DUP2 DUP2 SUB PUSH0 DUP4 ADD MSTORE PUSH2 0x194B DUP2 DUP5 PUSH2 0x18FB JUMP JUMPDEST SWAP1 POP SWAP3 SWAP2 POP POP JUMP JUMPDEST PUSH0 PUSH0 PUSH0 PUSH1 0x60 DUP5 DUP7 SUB SLT ISZERO PUSH2 0x196A JUMPI PUSH2 0x1969 PUSH2 0x16B6 JUMP JUMPDEST JUMPDEST PUSH0 PUSH2 0x1977 DUP7 DUP3 DUP8 ADD PUSH2 0x178A JUMP JUMPDEST SWAP4 POP POP PUSH1 0x20 PUSH2 0x1988 DUP7 DUP3 DUP8 ADD PUSH2 0x178A JUMP JUMPDEST SWAP3 POP POP PUSH1 0x40 PUSH2 0x1999 DUP7 DUP3 DUP8 ADD PUSH2 0x16DD JUMP JUMPDEST SWAP2 POP POP SWAP3 POP SWAP3 POP SWAP3 JUMP JUMPDEST PUSH0 PUSH1 0xFF DUP3 AND SWAP1 POP SWAP2 SWAP1 POP JUMP JUMPDEST PUSH2 0x19B8 DUP2 PUSH2 0x19A3 JUMP JUMPDEST DUP3 MSTORE POP POP JUMP JUMPDEST PUSH0 PUSH1 0x20 DUP3 ADD SWAP1 POP PUSH2 0x19D1 PUSH0 DUP4 ADD DUP5 PUSH2 0x19AF JUMP JUMPDEST SWAP3 SWAP2 POP POP JUMP JUMPDEST PUSH0 DUP2 SWAP1 POP SWAP2 SWAP1 POP JUMP JUMPDEST PUSH2 0x19E9 DUP2 PUSH2 0x19D7 JUMP JUMPDEST DUP3 MSTORE POP POP JUMP JUMPDEST PUSH0 PUSH1 0x20 DUP3 ADD SWAP1 POP PUSH2 0x1A02 PUSH0 DUP4 ADD DUP5 PUSH2 0x19E0 JUMP JUMPDEST SWAP3 SWAP2 POP POP JUMP JUMPDEST PUSH0 PUSH1 0x20 DUP3 DUP5 SUB SLT ISZERO PUSH2 0x1A1D JUMPI PUSH2 0x1A1C PUSH2 0x16B6 JUMP JUMPDEST JUMPDEST PUSH0 PUSH2 0x1A2A DUP5 DUP3 DUP6 ADD PUSH2 0x178A JUMP JUMPDEST SWAP2 POP POP SWAP3 SWAP2 POP POP JUMP JUMPDEST PUSH0 PUSH0 PUSH1 0x40 DUP4 DUP6 SUB SLT ISZERO PUSH2 0x1A49 JUMPI PUSH2 0x1A48 PUSH2 0x16B6 JUMP JUMPDEST JUMPDEST PUSH0 PUSH2 0x1A56 DUP6 DUP3 DUP7 ADD PUSH2 0x16DD JUMP JUMPDEST SWAP3 POP POP PUSH1 0x20 PUSH2 0x1A67 DUP6 DUP3 DUP7 ADD PUSH2 0x178A JUMP JUMPDEST SWAP2 POP POP SWAP3 POP SWAP3 SWAP1 POP JUMP JUMPDEST PUSH2 0x1A7A DUP2 PUSH2 0x1763 JUMP JUMPDEST DUP3 MSTORE POP POP JUMP JUMPDEST PUSH0 PUSH1 0x20 DUP3 ADD SWAP1 POP PUSH2 0x1A93 PUSH0 DUP4 ADD DUP5 PUSH2 0x1A71 JUMP JUMPDEST SWAP3 SWAP2 POP POP JUMP JUMPDEST PUSH0 PUSH0 PUSH0 PUSH1 0x60 DUP5 DUP7 SUB SLT ISZERO PUSH2 0x1AB0 JUMPI PUSH2 0x1AAF PUSH2 0x16B6 JUMP JUMPDEST JUMPDEST PUSH0 PUSH2 0x1ABD DUP7 DUP3 DUP8 ADD PUSH2 0x16DD JUMP JUMPDEST SWAP4 POP POP PUSH1 0x20 PUSH2 0x1ACE DUP7 DUP3 DUP8 ADD PUSH2 0x178A JUMP JUMPDEST SWAP3 POP POP PUSH1 0x40 PUSH2 0x1ADF DUP7 DUP3 DUP8 ADD PUSH2 0x178A JUMP JUMPDEST SWAP2 POP POP SWAP3 POP SWAP3 POP SWAP3 JUMP JUMPDEST PUSH2 0x1AF2 DUP2 PUSH2 0x19A3 JUMP JUMPDEST DUP2 EQ PUSH2 0x1AFC JUMPI PUSH0 PUSH0 REVERT JUMPDEST POP JUMP JUMPDEST PUSH0 DUP2 CALLDATALOAD SWAP1 POP PUSH2 0x1B0D DUP2 PUSH2 0x1AE9 JUMP JUMPDEST SWAP3 SWAP2 POP POP JUMP JUMPDEST PUSH2 0x1B1C DUP2 PUSH2 0x19D7 JUMP JUMPDEST DUP2 EQ PUSH2 0x1B26 JUMPI PUSH0 PUSH0 REVERT JUMPDEST POP JUMP JUMPDEST PUSH0 DUP2 CALLDATALOAD SWAP1 POP PUSH2 0x1B37 DUP2 PUSH2 0x1B13 JUMP JUMPDEST SWAP3 SWAP2 POP POP JUMP JUMPDEST PUSH0 PUSH0 PUSH0 PUSH0 PUSH0 PUSH0 PUSH0 PUSH1 0xE0 DUP9 DUP11 SUB SLT ISZERO PUSH2 0x1B58 JUMPI PUSH2 0x1B57 PUSH2 0x16B6 JUMP JUMPDEST JUMPDEST PUSH0 PUSH2 0x1B65 DUP11 DUP3 DUP12 ADD PUSH2 0x178A JUMP JUMPDEST SWAP8 POP POP PUSH1 0x20 PUSH2 0x1B76 DUP11 DUP3 DUP12 ADD PUSH2 0x178A JUMP JUMPDEST SWAP7 POP POP PUSH1 0x40 PUSH2 0x1B87 DUP11 DUP3 DUP12 ADD PUSH2 0x16DD JUMP JUMPDEST SWAP6 POP POP PUSH1 0x60 PUSH2 0x1B98 DUP11 DUP3 DUP12 ADD PUSH2 0x16DD JUMP JUMPDEST SWAP5 POP POP PUSH1 0x80 PUSH2 0x1BA9 DUP11 DUP3 DUP12 ADD PUSH2 0x1AFF JUMP JUMPDEST SWAP4 POP POP PUSH1 0xA0 PUSH2 0x1BBA DUP11 DUP3 DUP12 ADD PUSH2 0x1B29 JUMP JUMPDEST SWAP3 POP POP PUSH1 0xC0 PUSH2 0x1BCB DUP11 DUP3 DUP12 ADD PUSH2 0x1B29 JUMP JUMPDEST SWAP2 POP POP SWAP3 SWAP6 SWAP9 SWAP2 SWAP5 SWAP8 POP SWAP3 SWAP6 POP JUMP JUMPDEST PUSH0 PUSH0 PUSH1 0x40 DUP4 DUP6 SUB SLT ISZERO PUSH2 0x1BF0 JUMPI PUSH2 0x1BEF PUSH2 0x16B6 JUMP JUMPDEST JUMPDEST PUSH0 PUSH2 0x1BFD DUP6 DUP3 DUP7 ADD PUSH2 0x178A JUMP JUMPDEST SWAP3 POP POP PUSH1 0x20 PUSH2 0x1C0E DUP6 DUP3 DUP7 ADD PUSH2 0x178A JUMP JUMPDEST SWAP2 POP POP SWAP3 POP SWAP3 SWAP1 POP JUMP JUMPDEST PUSH32 0x4E487B7100000000000000000000000000000000000000000000000000000000 PUSH0 MSTORE PUSH1 0x11 PUSH1 0x4 MSTORE PUSH1 0x24 PUSH0 REVERT JUMPDEST PUSH0 PUSH2 0x1C4F DUP3 PUSH2 0x16BE JUMP JUMPDEST SWAP2 POP PUSH2 0x1C5A DUP4 PUSH2 0x16BE JUMP JUMPDEST SWAP3 POP DUP3 DUP3 ADD SWAP1 POP DUP1 DUP3 GT ISZERO PUSH2 0x1C72 JUMPI PUSH2 0x1C71 PUSH2 0x1C18 JUMP JUMPDEST JUMPDEST SWAP3 SWAP2 POP POP JUMP JUMPDEST PUSH0 PUSH2 0x1C82 DUP3 PUSH2 0x16BE JUMP JUMPDEST SWAP2 POP PUSH2 0x1C8D DUP4 PUSH2 0x16BE JUMP JUMPDEST SWAP3 POP DUP3 DUP3 MUL PUSH2 0x1C9B DUP2 PUSH2 0x16BE JUMP JUMPDEST SWAP2 POP DUP3 DUP3 DIV DUP5 EQ DUP4 ISZERO OR PUSH2 0x1CB2 JUMPI PUSH2 0x1CB1 PUSH2 0x1C18 JUMP JUMPDEST JUMPDEST POP SWAP3 SWAP2 POP POP JUMP JUMPDEST PUSH32 0x4E487B7100000000000000000000000000000000000000000000000000000000 PUSH0 MSTORE PUSH1 0x12 PUSH1 0x4 MSTORE PUSH1 0x24 PUSH0 REVERT JUMPDEST PUSH0 PUSH2 0x1CF0 DUP3 PUSH2 0x16BE JUMP JUMPDEST SWAP2 POP PUSH2 0x1CFB DUP4 PUSH2 0x16BE JUMP JUMPDEST SWAP3 POP DUP3 PUSH2 0x1D0B JUMPI PUSH2 0x1D0A PUSH2 0x1CB9 JUMP JUMPDEST JUMPDEST DUP3 DUP3 DIV SWAP1 POP SWAP3 SWAP2 POP POP JUMP JUMPDEST PUSH0 PUSH2 0x1D20 DUP3 PUSH2 0x16BE JUMP JUMPDEST SWAP2 POP PUSH2 0x1D2B DUP4 PUSH2 0x16BE JUMP JUMPDEST SWAP3 POP DUP3 DUP3 SUB SWAP1 POP DUP2 DUP2 GT ISZERO PUSH2 0x1D43 JUMPI PUSH2 0x1D42 PUSH2 0x1C18 JUMP JUMPDEST JUMPDEST SWAP3 SWAP2 POP POP JUMP JUMPDEST PUSH0 DUP2 SWAP1 POP SWAP3 SWAP2 POP POP JUMP JUMPDEST DUP3 DUP2 DUP4 CALLDATACOPY PUSH0 DUP4 DUP4 ADD MSTORE POP POP POP JUMP JUMPDEST PUSH0 PUSH2 0x1D6C DUP4 DUP6 PUSH2 0x1D49 JUMP JUMPDEST SWAP4 POP PUSH2 0x1D79 DUP4 DUP6 DUP5 PUSH2 0x1D53 JUMP JUMPDEST DUP3 DUP5 ADD SWAP1 POP SWAP4 SWAP3 POP POP POP JUMP JUMPDEST PUSH0 PUSH2 0x1D91 DUP3 DUP5 DUP7 PUSH2 0x1D61 JUMP JUMPDEST SWAP2 POP DUP2 SWAP1 POP SWAP4 SWAP3 POP POP POP JUMP JUMPDEST PUSH0 PUSH1 0x40 DUP3 ADD SWAP1 POP PUSH2 0x1DB0 PUSH0 DUP4 ADD DUP6 PUSH2 0x171C JUMP JUMPDEST PUSH2 0x1DBD PUSH1 0x20 DUP4 ADD DUP5 PUSH2 0x171C JUMP JUMPDEST SWAP4 SWAP3 POP POP POP JUMP JUMPDEST POP JUMP JUMPDEST PUSH0 PUSH2 0x1DD2 PUSH0 DUP4 PUSH2 0x1D49 JUMP JUMPDEST SWAP2 POP PUSH2 0x1DDD DUP3 PUSH2 0x1DC4 JUMP JUMPDEST PUSH0 DUP3 ADD SWAP1 POP SWAP2 SWAP1 POP JUMP JUMPDEST PUSH0 PUSH2 0x1DF1 DUP3 PUSH2 0x1DC7 JUMP JUMPDEST SWAP2 POP DUP2 SWAP1 POP SWAP2 SWAP1 POP JUMP INVALID LOG2 PUSH5 0x6970667358 0x22 SLT KECCAK256 CODECOPY 0x2C SWAP11 0x2E 0xC9 0xD7 0xD8 0xF9 ISZERO 0x22 PUSH20 0x54A1DC199321D0E34ABAFF0C3C3E185F24FE4F40 PUSH30 0x64736F6C634300081C003300000000000000000000000000000000000000 "
				},
				"gasEstimates": {
					"creation": {
						"codeDepositCost": "1545800",
						"executionCost": "infinite",
						"totalCost": "infinite"
					},
					"external": {
						"DOMAIN_SEPARATOR()": "835",
						"allowance(address,address)": "infinite",
						"approve(address,uint256)": "24900",
						"balanceOf(address)": "2908",
						"convertToAssets(uint256)": "infinite",
						"convertToShares(uint256)": "infinite",
						"customCall(address,uint256,bytes)": "infinite",
						"decimals()": "406",
						"deposit(uint256,address)": "infinite",
						"maxDeposit(address)": "686",
						"maxMint(address)": "infinite",
						"maxRedeem(address)": "685",
						"maxWithdraw(address)": "infinite",
						"name()": "infinite",
						"nonces(address)": "2865",
						"owner()": "2604",
						"permit(address,address,uint256,uint256,uint8,bytes32,bytes32)": "infinite",
						"previewDeposit(uint256)": "infinite",
						"previewRedeem(uint256)": "infinite",
						"previewWithdraw(uint256)": "infinite",
						"redeem(uint256,address,address)": "infinite",
						"renounceOwnership()": "infinite",
						"symbol()": "infinite",
						"totalSupply()": "2566",
						"transfer(address,uint256)": "51315",
						"transferFrom(address,address,uint256)": "infinite",
						"transferOwnership(address)": "infinite"
					}
				},
				"methodIdentifiers": {
					"DOMAIN_SEPARATOR()": "3644e515",
					"allowance(address,address)": "dd62ed3e",
					"approve(address,uint256)": "095ea7b3",
					"balanceOf(address)": "70a08231",
					"convertToAssets(uint256)": "07a2d13a",
					"convertToShares(uint256)": "c6e6f592",
					"customCall(address,uint256,bytes)": "10ab2d01",
					"decimals()": "313ce567",
					"deposit(uint256,address)": "6e553f65",
					"maxDeposit(address)": "402d267d",
					"maxMint(address)": "c63d75b6",
					"maxRedeem(address)": "d905777e",
					"maxWithdraw(address)": "ce96cb77",
					"name()": "06fdde03",
					"nonces(address)": "7ecebe00",
					"owner()": "8da5cb5b",
					"permit(address,address,uint256,uint256,uint8,bytes32,bytes32)": "d505accf",
					"previewDeposit(uint256)": "ef8b30f7",
					"previewRedeem(uint256)": "4cdad506",
					"previewWithdraw(uint256)": "0a28a477",
					"redeem(uint256,address,address)": "ba087652",
					"renounceOwnership()": "715018a6",
					"symbol()": "95d89b41",
					"totalSupply()": "18160ddd",
					"transfer(address,uint256)": "a9059cbb",
					"transferFrom(address,address,uint256)": "23b872dd",
					"transferOwnership(address)": "f2fde38b"
				}
			},
			"storageLayout": {
				"storage": [
					{
						"astId": 8,
						"contract": "src/Guano.sol:Guano",
						"label": "_owner",
						"offset": 0,
						"slot": "0",
						"type": "t_address"
					},
					{
						"astId": 716,
						"contract": "src/Guano.sol:Guano",
						"label": "totalMinted",
						"offset": 0,
						"slot": "1",
						"type": "t_uint256"
					},
					{
						"astId": 719,
						"contract": "src/Guano.sol:Guano",
						"label": "totalDeposited",
						"offset": 0,
						"slot": "2",
						"type": "t_uint256"
					},
					{
						"astId": 722,
						"contract": "src/Guano.sol:Guano",
						"label": "totalRedeemed",
						"offset": 0,
						"slot": "3",
						"type": "t_uint256"
					},
					{
						"astId": 725,
						"contract": "src/Guano.sol:Guano",
						"label": "totalWithdrawn",
						"offset": 0,
						"slot": "4",
						"type": "t_uint256"
					}
				],
				"types": {
					"t_address": {
						"encoding": "inplace",
						"label": "address",
						"numberOfBytes": "20"
					},
					"t_uint256": {
						"encoding": "inplace",
						"label": "uint256",
						"numberOfBytes": "32"
					}
				}
			},
			"userdoc": {
				"kind": "user",
				"methods": {},
				"version": 1
			}
		}
	}
}