{
	"src/ConstantOfferRatePool.sol": {
		"ConstantOfferRatePool": {
			"abi": [
				{
					"inputs": [
						{
							"internalType": "contract ERC20",
							"name": "newAsset",
							"type": "address"
						}
					],
					"stateMutability": "nonpayable",
					"type": "constructor"
				},
				{
					"inputs": [],
					"name": "AllowanceOverflow",
					"type": "error"
				},
				{
					"inputs": [],
					"name": "AllowanceUnderflow",
					"type": "error"
				},
				{
					"inputs": [],
					"name": "InsufficientAllowance",
					"type": "error"
				},
				{
					"inputs": [],
					"name": "InsufficientBalance",
					"type": "error"
				},
				{
					"inputs": [],
					"name": "InvalidPermit",
					"type": "error"
				},
				{
					"inputs": [],
					"name": "Permit2AllowanceIsFixedAtInfinity",
					"type": "error"
				},
				{
					"inputs": [],
					"name": "PermitExpired",
					"type": "error"
				},
				{
					"inputs": [],
					"name": "TotalSupplyOverflow",
					"type": "error"
				},
				{
					"anonymous": false,
					"inputs": [
						{
							"indexed": true,
							"internalType": "address",
							"name": "owner",
							"type": "address"
						},
						{
							"indexed": true,
							"internalType": "address",
							"name": "spender",
							"type": "address"
						},
						{
							"indexed": false,
							"internalType": "uint256",
							"name": "amount",
							"type": "uint256"
						}
					],
					"name": "Approval",
					"type": "event"
				},
				{
					"anonymous": false,
					"inputs": [
						{
							"indexed": true,
							"internalType": "address",
							"name": "from",
							"type": "address"
						},
						{
							"indexed": true,
							"internalType": "address",
							"name": "to",
							"type": "address"
						},
						{
							"indexed": false,
							"internalType": "uint256",
							"name": "amount",
							"type": "uint256"
						}
					],
					"name": "Transfer",
					"type": "event"
				},
				{
					"inputs": [],
					"name": "DOMAIN_SEPARATOR",
					"outputs": [
						{
							"internalType": "bytes32",
							"name": "result",
							"type": "bytes32"
						}
					],
					"stateMutability": "view",
					"type": "function"
				},
				{
					"inputs": [],
					"name": "_name",
					"outputs": [
						{
							"internalType": "string",
							"name": "",
							"type": "string"
						}
					],
					"stateMutability": "view",
					"type": "function"
				},
				{
					"inputs": [],
					"name": "_symbol",
					"outputs": [
						{
							"internalType": "string",
							"name": "",
							"type": "string"
						}
					],
					"stateMutability": "view",
					"type": "function"
				},
				{
					"inputs": [
						{
							"internalType": "address",
							"name": "owner",
							"type": "address"
						},
						{
							"internalType": "address",
							"name": "spender",
							"type": "address"
						}
					],
					"name": "allowance",
					"outputs": [
						{
							"internalType": "uint256",
							"name": "result",
							"type": "uint256"
						}
					],
					"stateMutability": "view",
					"type": "function"
				},
				{
					"inputs": [
						{
							"internalType": "address",
							"name": "spender",
							"type": "address"
						},
						{
							"internalType": "uint256",
							"name": "amount",
							"type": "uint256"
						}
					],
					"name": "approve",
					"outputs": [
						{
							"internalType": "bool",
							"name": "",
							"type": "bool"
						}
					],
					"stateMutability": "nonpayable",
					"type": "function"
				},
				{
					"inputs": [],
					"name": "asset",
					"outputs": [
						{
							"internalType": "contract ERC20",
							"name": "",
							"type": "address"
						}
					],
					"stateMutability": "view",
					"type": "function"
				},
				{
					"inputs": [
						{
							"internalType": "address",
							"name": "owner",
							"type": "address"
						}
					],
					"name": "balanceOf",
					"outputs": [
						{
							"internalType": "uint256",
							"name": "result",
							"type": "uint256"
						}
					],
					"stateMutability": "view",
					"type": "function"
				},
				{
					"inputs": [],
					"name": "decimals",
					"outputs": [
						{
							"internalType": "uint8",
							"name": "",
							"type": "uint8"
						}
					],
					"stateMutability": "view",
					"type": "function"
				},
				{
					"inputs": [
						{
							"internalType": "uint256",
							"name": "assets",
							"type": "uint256"
						},
						{
							"internalType": "address",
							"name": "receiver",
							"type": "address"
						}
					],
					"name": "deposit",
					"outputs": [
						{
							"internalType": "uint256",
							"name": "",
							"type": "uint256"
						}
					],
					"stateMutability": "payable",
					"type": "function"
				},
				{
					"inputs": [],
					"name": "name",
					"outputs": [
						{
							"internalType": "string",
							"name": "",
							"type": "string"
						}
					],
					"stateMutability": "view",
					"type": "function"
				},
				{
					"inputs": [
						{
							"internalType": "address",
							"name": "owner",
							"type": "address"
						}
					],
					"name": "nonces",
					"outputs": [
						{
							"internalType": "uint256",
							"name": "result",
							"type": "uint256"
						}
					],
					"stateMutability": "view",
					"type": "function"
				},
				{
					"inputs": [
						{
							"internalType": "address",
							"name": "owner",
							"type": "address"
						},
						{
							"internalType": "address",
							"name": "spender",
							"type": "address"
						},
						{
							"internalType": "uint256",
							"name": "value",
							"type": "uint256"
						},
						{
							"internalType": "uint256",
							"name": "deadline",
							"type": "uint256"
						},
						{
							"internalType": "uint8",
							"name": "v",
							"type": "uint8"
						},
						{
							"internalType": "bytes32",
							"name": "r",
							"type": "bytes32"
						},
						{
							"internalType": "bytes32",
							"name": "s",
							"type": "bytes32"
						}
					],
					"name": "permit",
					"outputs": [],
					"stateMutability": "nonpayable",
					"type": "function"
				},
				{
					"inputs": [
						{
							"internalType": "uint256",
							"name": "assets",
							"type": "uint256"
						}
					],
					"name": "previewDeposit",
					"outputs": [
						{
							"internalType": "uint256",
							"name": "",
							"type": "uint256"
						}
					],
					"stateMutability": "nonpayable",
					"type": "function"
				},
				{
					"inputs": [],
					"name": "symbol",
					"outputs": [
						{
							"internalType": "string",
							"name": "",
							"type": "string"
						}
					],
					"stateMutability": "view",
					"type": "function"
				},
				{
					"inputs": [],
					"name": "totalSupply",
					"outputs": [
						{
							"internalType": "uint256",
							"name": "result",
							"type": "uint256"
						}
					],
					"stateMutability": "view",
					"type": "function"
				},
				{
					"inputs": [
						{
							"internalType": "address",
							"name": "to",
							"type": "address"
						},
						{
							"internalType": "uint256",
							"name": "amount",
							"type": "uint256"
						}
					],
					"name": "transfer",
					"outputs": [
						{
							"internalType": "bool",
							"name": "",
							"type": "bool"
						}
					],
					"stateMutability": "nonpayable",
					"type": "function"
				},
				{
					"inputs": [
						{
							"internalType": "address",
							"name": "from",
							"type": "address"
						},
						{
							"internalType": "address",
							"name": "to",
							"type": "address"
						},
						{
							"internalType": "uint256",
							"name": "amount",
							"type": "uint256"
						}
					],
					"name": "transferFrom",
					"outputs": [
						{
							"internalType": "bool",
							"name": "",
							"type": "bool"
						}
					],
					"stateMutability": "nonpayable",
					"type": "function"
				}
			],
			"devdoc": {
				"errors": {
					"AllowanceOverflow()": [
						{
							"details": "The allowance has overflowed."
						}
					],
					"AllowanceUnderflow()": [
						{
							"details": "The allowance has underflowed."
						}
					],
					"InsufficientAllowance()": [
						{
							"details": "Insufficient allowance."
						}
					],
					"InsufficientBalance()": [
						{
							"details": "Insufficient balance."
						}
					],
					"InvalidPermit()": [
						{
							"details": "The permit is invalid."
						}
					],
					"Permit2AllowanceIsFixedAtInfinity()": [
						{
							"details": "The allowance of Permit2 is fixed at infinity."
						}
					],
					"PermitExpired()": [
						{
							"details": "The permit has expired."
						}
					],
					"TotalSupplyOverflow()": [
						{
							"details": "The total supply has overflowed."
						}
					]
				},
				"events": {
					"Approval(address,address,uint256)": {
						"details": "Emitted when `amount` tokens is approved by `owner` to be used by `spender`."
					},
					"Transfer(address,address,uint256)": {
						"details": "Emitted when `amount` tokens is transferred from `from` to `to`."
					}
				},
				"kind": "dev",
				"methods": {
					"DOMAIN_SEPARATOR()": {
						"details": "Returns the EIP-712 domain separator for the EIP-2612 permit."
					},
					"allowance(address,address)": {
						"details": "Returns the amount of tokens that `spender` can spend on behalf of `owner`."
					},
					"approve(address,uint256)": {
						"details": "Sets `amount` as the allowance of `spender` over the caller's tokens. Emits a {Approval} event."
					},
					"balanceOf(address)": {
						"details": "Returns the amount of tokens owned by `owner`."
					},
					"decimals()": {
						"details": "Returns the decimals places of the token."
					},
					"name()": {
						"details": "Returns the name of the token."
					},
					"nonces(address)": {
						"details": "Returns the current nonce for `owner`. This value is used to compute the signature for EIP-2612 permit."
					},
					"permit(address,address,uint256,uint256,uint8,bytes32,bytes32)": {
						"details": "Sets `value` as the allowance of `spender` over the tokens of `owner`, authorized by a signed approval by `owner`. Emits a {Approval} event."
					},
					"symbol()": {
						"details": "Returns the symbol of the token."
					},
					"totalSupply()": {
						"details": "Returns the amount of tokens in existence."
					},
					"transfer(address,uint256)": {
						"details": "Transfer `amount` tokens from the caller to `to`. Requirements: - `from` must at least have `amount`. Emits a {Transfer} event."
					},
					"transferFrom(address,address,uint256)": {
						"details": "Transfers `amount` tokens from `from` to `to`. Note: Does not update the allowance if it is the maximum uint256 value. Requirements: - `from` must at least have `amount`. - The caller must have at least `amount` of allowance to transfer the tokens of `from`. Emits a {Transfer} event."
					}
				},
				"version": 1
			},
			"evm": {
				"assembly": "    /* \"src/ConstantOfferRatePool.sol\":155:809  contract ConstantOfferRatePool is ERC20 {... */\n  mstore(0x40, 0xa0)\n    /* \"src/ConstantOfferRatePool.sol\":293:355  constructor(ERC20 newAsset){... */\n  callvalue\n  dup1\n  iszero\n  tag_1\n  jumpi\n  revert(0x00, 0x00)\ntag_1:\n  pop\n  mload(0x40)\n  sub(codesize, bytecodeSize)\n  dup1\n  bytecodeSize\n  dup4\n  codecopy\n  dup2\n  dup2\n  add\n  0x40\n  mstore\n  dup2\n  add\n  swap1\n  tag_2\n  swap2\n  swap1\n  tag_3\n  jump\t// in\ntag_2:\n    /* \"src/ConstantOfferRatePool.sol\":339:347  newAsset */\n  dup1\n    /* \"src/ConstantOfferRatePool.sol\":331:347  asset = newAsset */\n  0xffffffffffffffffffffffffffffffffffffffff\n  and\n  0x80\n  dup2\n  0xffffffffffffffffffffffffffffffffffffffff\n  and\n  dup2\n  mstore\n  pop\n  pop\n    /* \"src/ConstantOfferRatePool.sol\":293:355  constructor(ERC20 newAsset){... */\n  pop\n    /* \"src/ConstantOfferRatePool.sol\":155:809  contract ConstantOfferRatePool is ERC20 {... */\n  jump(tag_6)\n    /* \"#utility.yul\":88:205   */\ntag_8:\n    /* \"#utility.yul\":197:198   */\n  0x00\n    /* \"#utility.yul\":194:195   */\n  0x00\n    /* \"#utility.yul\":187:199   */\n  revert\n    /* \"#utility.yul\":334:460   */\ntag_10:\n    /* \"#utility.yul\":371:378   */\n  0x00\n    /* \"#utility.yul\":411:453   */\n  0xffffffffffffffffffffffffffffffffffffffff\n    /* \"#utility.yul\":404:409   */\n  dup3\n    /* \"#utility.yul\":400:454   */\n  and\n    /* \"#utility.yul\":389:454   */\n  swap1\n  pop\n    /* \"#utility.yul\":334:460   */\n  swap2\n  swap1\n  pop\n  jump\t// out\n    /* \"#utility.yul\":466:562   */\ntag_11:\n    /* \"#utility.yul\":503:510   */\n  0x00\n    /* \"#utility.yul\":532:556   */\n  tag_21\n    /* \"#utility.yul\":550:555   */\n  dup3\n    /* \"#utility.yul\":532:556   */\n  tag_10\n  jump\t// in\ntag_21:\n    /* \"#utility.yul\":521:556   */\n  swap1\n  pop\n    /* \"#utility.yul\":466:562   */\n  swap2\n  swap1\n  pop\n  jump\t// out\n    /* \"#utility.yul\":568:677   */\ntag_12:\n    /* \"#utility.yul\":618:625   */\n  0x00\n    /* \"#utility.yul\":647:671   */\n  tag_23\n    /* \"#utility.yul\":665:670   */\n  dup3\n    /* \"#utility.yul\":647:671   */\n  tag_11\n  jump\t// in\ntag_23:\n    /* \"#utility.yul\":636:671   */\n  swap1\n  pop\n    /* \"#utility.yul\":568:677   */\n  swap2\n  swap1\n  pop\n  jump\t// out\n    /* \"#utility.yul\":683:831   */\ntag_13:\n    /* \"#utility.yul\":769:806   */\n  tag_25\n    /* \"#utility.yul\":800:805   */\n  dup2\n    /* \"#utility.yul\":769:806   */\n  tag_12\n  jump\t// in\ntag_25:\n    /* \"#utility.yul\":762:767   */\n  dup2\n    /* \"#utility.yul\":759:807   */\n  eq\n    /* \"#utility.yul\":749:825   */\n  tag_26\n  jumpi\n    /* \"#utility.yul\":821:822   */\n  0x00\n    /* \"#utility.yul\":818:819   */\n  0x00\n    /* \"#utility.yul\":811:823   */\n  revert\n    /* \"#utility.yul\":749:825   */\ntag_26:\n    /* \"#utility.yul\":683:831   */\n  pop\n  jump\t// out\n    /* \"#utility.yul\":837:1006   */\ntag_14:\n    /* \"#utility.yul\":907:912   */\n  0x00\n    /* \"#utility.yul\":938:944   */\n  dup2\n    /* \"#utility.yul\":932:945   */\n  mload\n    /* \"#utility.yul\":923:945   */\n  swap1\n  pop\n    /* \"#utility.yul\":954:1000   */\n  tag_28\n    /* \"#utility.yul\":994:999   */\n  dup2\n    /* \"#utility.yul\":954:1000   */\n  tag_13\n  jump\t// in\ntag_28:\n    /* \"#utility.yul\":837:1006   */\n  swap3\n  swap2\n  pop\n  pop\n  jump\t// out\n    /* \"#utility.yul\":1012:1389   */\ntag_3:\n    /* \"#utility.yul\":1095:1101   */\n  0x00\n    /* \"#utility.yul\":1144:1146   */\n  0x20\n    /* \"#utility.yul\":1132:1141   */\n  dup3\n    /* \"#utility.yul\":1123:1130   */\n  dup5\n    /* \"#utility.yul\":1119:1142   */\n  sub\n    /* \"#utility.yul\":1115:1147   */\n  slt\n    /* \"#utility.yul\":1112:1231   */\n  iszero\n  tag_30\n  jumpi\n    /* \"#utility.yul\":1150:1229   */\n  tag_31\n  tag_8\n  jump\t// in\ntag_31:\n    /* \"#utility.yul\":1112:1231   */\ntag_30:\n    /* \"#utility.yul\":1270:1271   */\n  0x00\n    /* \"#utility.yul\":1295:1372   */\n  tag_32\n    /* \"#utility.yul\":1364:1371   */\n  dup5\n    /* \"#utility.yul\":1355:1361   */\n  dup3\n    /* \"#utility.yul\":1344:1353   */\n  dup6\n    /* \"#utility.yul\":1340:1362   */\n  add\n    /* \"#utility.yul\":1295:1372   */\n  tag_14\n  jump\t// in\ntag_32:\n    /* \"#utility.yul\":1285:1372   */\n  swap2\n  pop\n    /* \"#utility.yul\":1241:1382   */\n  pop\n    /* \"#utility.yul\":1012:1389   */\n  swap3\n  swap2\n  pop\n  pop\n  jump\t// out\n    /* \"src/ConstantOfferRatePool.sol\":155:809  contract ConstantOfferRatePool is ERC20 {... */\ntag_6:\n  mload(0x80)\n  codecopy(0x00, dataOffset(sub_0), dataSize(sub_0))\n  0x00\n  assignImmutable(\"0xa9bbaa6544f2f8b29c05f1a13be9707eb10dfac9213907aecb24a613b51d37c6\")\n  return(0x00, dataSize(sub_0))\nstop\n\nsub_0: assembly {\n        /* \"src/ConstantOfferRatePool.sol\":155:809  contract ConstantOfferRatePool is ERC20 {... */\n      mstore(0x40, 0x80)\n      jumpi(tag_1, lt(calldatasize, 0x04))\n      shr(0xe0, calldataload(0x00))\n      dup1\n      0x70a08231\n      gt\n      tag_19\n      jumpi\n      dup1\n      0xb09f1266\n      gt\n      tag_20\n      jumpi\n      dup1\n      0xb09f1266\n      eq\n      tag_14\n      jumpi\n      dup1\n      0xd28d8852\n      eq\n      tag_15\n      jumpi\n      dup1\n      0xd505accf\n      eq\n      tag_16\n      jumpi\n      dup1\n      0xdd62ed3e\n      eq\n      tag_17\n      jumpi\n      dup1\n      0xef8b30f7\n      eq\n      tag_18\n      jumpi\n      jump(tag_1)\n    tag_20:\n      dup1\n      0x70a08231\n      eq\n      tag_10\n      jumpi\n      dup1\n      0x7ecebe00\n      eq\n      tag_11\n      jumpi\n      dup1\n      0x95d89b41\n      eq\n      tag_12\n      jumpi\n      dup1\n      0xa9059cbb\n      eq\n      tag_13\n      jumpi\n      jump(tag_1)\n    tag_19:\n      dup1\n      0x313ce567\n      gt\n      tag_21\n      jumpi\n      dup1\n      0x313ce567\n      eq\n      tag_6\n      jumpi\n      dup1\n      0x3644e515\n      eq\n      tag_7\n      jumpi\n      dup1\n      0x38d52e0f\n      eq\n      tag_8\n      jumpi\n      dup1\n      0x6e553f65\n      eq\n      tag_9\n      jumpi\n      jump(tag_1)\n    tag_21:\n      dup1\n      0x06fdde03\n      eq\n      tag_2\n      jumpi\n      dup1\n      0x095ea7b3\n      eq\n      tag_3\n      jumpi\n      dup1\n      0x18160ddd\n      eq\n      tag_4\n      jumpi\n      dup1\n      0x23b872dd\n      eq\n      tag_5\n      jumpi\n    tag_1:\n      revert(0x00, 0x00)\n        /* \"src/ConstantOfferRatePool.sol\":367:485  function name() public view override returns (string memory){... */\n    tag_2:\n      callvalue\n      dup1\n      iszero\n      tag_22\n      jumpi\n      revert(0x00, 0x00)\n    tag_22:\n      pop\n      tag_23\n      tag_24\n      jump\t// in\n    tag_23:\n      mload(0x40)\n      tag_25\n      swap2\n      swap1\n      tag_26\n      jump\t// in\n    tag_25:\n      mload(0x40)\n      dup1\n      swap2\n      sub\n      swap1\n      return\n        /* \"https://github.com/Vectorized/solady/blob/main/src/tokens/ERC20.sol\":8175:9204  function approve(address spender, uint256 amount) public virtual returns (bool) {... */\n    tag_3:\n      callvalue\n      dup1\n      iszero\n      tag_27\n      jumpi\n      revert(0x00, 0x00)\n    tag_27:\n      pop\n      tag_28\n      0x04\n      dup1\n      calldatasize\n      sub\n      dup2\n      add\n      swap1\n      tag_29\n      swap2\n      swap1\n      tag_30\n      jump\t// in\n    tag_29:\n      tag_31\n      jump\t// in\n    tag_28:\n      mload(0x40)\n      tag_32\n      swap2\n      swap1\n      tag_33\n      jump\t// in\n    tag_32:\n      mload(0x40)\n      dup1\n      swap2\n      sub\n      swap1\n      return\n        /* \"https://github.com/Vectorized/solady/blob/main/src/tokens/ERC20.sol\":6907:7102  function totalSupply() public view virtual returns (uint256 result) {... */\n    tag_4:\n      callvalue\n      dup1\n      iszero\n      tag_34\n      jumpi\n      revert(0x00, 0x00)\n    tag_34:\n      pop\n      tag_35\n      tag_36\n      jump\t// in\n    tag_35:\n      mload(0x40)\n      tag_37\n      swap2\n      swap1\n      tag_38\n      jump\t// in\n    tag_37:\n      mload(0x40)\n      dup1\n      swap2\n      sub\n      swap1\n      return\n        /* \"https://github.com/Vectorized/solady/blob/main/src/tokens/ERC20.sol\":11165:15918  function transferFrom(address from, address to, uint256 amount) public virtual returns (bool) {... */\n    tag_5:\n      callvalue\n      dup1\n      iszero\n      tag_39\n      jumpi\n      revert(0x00, 0x00)\n    tag_39:\n      pop\n      tag_40\n      0x04\n      dup1\n      calldatasize\n      sub\n      dup2\n      add\n      swap1\n      tag_41\n      swap2\n      swap1\n      tag_42\n      jump\t// in\n    tag_41:\n      tag_43\n      jump\t// in\n    tag_40:\n      mload(0x40)\n      tag_44\n      swap2\n      swap1\n      tag_33\n      jump\t// in\n    tag_44:\n      mload(0x40)\n      dup1\n      swap2\n      sub\n      swap1\n      return\n        /* \"https://github.com/Vectorized/solady/blob/main/src/tokens/ERC20.sol\":6480:6562  function decimals() public view virtual returns (uint8) {... */\n    tag_6:\n      callvalue\n      dup1\n      iszero\n      tag_45\n      jumpi\n      revert(0x00, 0x00)\n    tag_45:\n      pop\n      tag_46\n      tag_47\n      jump\t// in\n    tag_46:\n      mload(0x40)\n      tag_48\n      swap2\n      swap1\n      tag_49\n      jump\t// in\n    tag_48:\n      mload(0x40)\n      dup1\n      swap2\n      sub\n      swap1\n      return\n        /* \"https://github.com/Vectorized/solady/blob/main/src/tokens/ERC20.sol\":21458:22195  function DOMAIN_SEPARATOR() public view virtual returns (bytes32 result) {... */\n    tag_7:\n      callvalue\n      dup1\n      iszero\n      tag_50\n      jumpi\n      revert(0x00, 0x00)\n    tag_50:\n      pop\n      tag_51\n      tag_52\n      jump\t// in\n    tag_51:\n      mload(0x40)\n      tag_53\n      swap2\n      swap1\n      tag_54\n      jump\t// in\n    tag_53:\n      mload(0x40)\n      dup1\n      swap2\n      sub\n      swap1\n      return\n        /* \"src/ConstantOfferRatePool.sol\":202:230  ERC20 public immutable asset */\n    tag_8:\n      callvalue\n      dup1\n      iszero\n      tag_55\n      jumpi\n      revert(0x00, 0x00)\n    tag_55:\n      pop\n      tag_56\n      tag_57\n      jump\t// in\n    tag_56:\n      mload(0x40)\n      tag_58\n      swap2\n      swap1\n      tag_59\n      jump\t// in\n    tag_58:\n      mload(0x40)\n      dup1\n      swap2\n      sub\n      swap1\n      return\n        /* \"src/ConstantOfferRatePool.sol\":688:806  function deposit(uint assets,address receiver) payable public returns (uint) {... */\n    tag_9:\n      tag_60\n      0x04\n      dup1\n      calldatasize\n      sub\n      dup2\n      add\n      swap1\n      tag_61\n      swap2\n      swap1\n      tag_62\n      jump\t// in\n    tag_61:\n      tag_63\n      jump\t// in\n    tag_60:\n      mload(0x40)\n      tag_64\n      swap2\n      swap1\n      tag_38\n      jump\t// in\n    tag_64:\n      mload(0x40)\n      dup1\n      swap2\n      sub\n      swap1\n      return\n        /* \"https://github.com/Vectorized/solady/blob/main/src/tokens/ERC20.sol\":7168:7454  function balanceOf(address owner) public view virtual returns (uint256 result) {... */\n    tag_10:\n      callvalue\n      dup1\n      iszero\n      tag_65\n      jumpi\n      revert(0x00, 0x00)\n    tag_65:\n      pop\n      tag_66\n      0x04\n      dup1\n      calldatasize\n      sub\n      dup2\n      add\n      swap1\n      tag_67\n      swap2\n      swap1\n      tag_68\n      jump\t// in\n    tag_67:\n      tag_69\n      jump\t// in\n    tag_66:\n      mload(0x40)\n      tag_70\n      swap2\n      swap1\n      tag_38\n      jump\t// in\n    tag_70:\n      mload(0x40)\n      dup1\n      swap2\n      sub\n      swap1\n      return\n        /* \"https://github.com/Vectorized/solady/blob/main/src/tokens/ERC20.sol\":17137:17477  function nonces(address owner) public view virtual returns (uint256 result) {... */\n    tag_11:\n      callvalue\n      dup1\n      iszero\n      tag_71\n      jumpi\n      revert(0x00, 0x00)\n    tag_71:\n      pop\n      tag_72\n      0x04\n      dup1\n      calldatasize\n      sub\n      dup2\n      add\n      swap1\n      tag_73\n      swap2\n      swap1\n      tag_68\n      jump\t// in\n    tag_73:\n      tag_74\n      jump\t// in\n    tag_72:\n      mload(0x40)\n      tag_75\n      swap2\n      swap1\n      tag_38\n      jump\t// in\n    tag_75:\n      mload(0x40)\n      dup1\n      swap2\n      sub\n      swap1\n      return\n        /* \"src/ConstantOfferRatePool.sol\":497:613  function symbol() public view override returns (string memory){... */\n    tag_12:\n      callvalue\n      dup1\n      iszero\n      tag_76\n      jumpi\n      revert(0x00, 0x00)\n    tag_76:\n      pop\n      tag_77\n      tag_78\n      jump\t// in\n    tag_77:\n      mload(0x40)\n      tag_79\n      swap2\n      swap1\n      tag_26\n      jump\t// in\n    tag_79:\n      mload(0x40)\n      dup1\n      swap2\n      sub\n      swap1\n      return\n        /* \"https://github.com/Vectorized/solady/blob/main/src/tokens/ERC20.sol\":9391:10797  function transfer(address to, uint256 amount) public virtual returns (bool) {... */\n    tag_13:\n      callvalue\n      dup1\n      iszero\n      tag_80\n      jumpi\n      revert(0x00, 0x00)\n    tag_80:\n      pop\n      tag_81\n      0x04\n      dup1\n      calldatasize\n      sub\n      dup2\n      add\n      swap1\n      tag_82\n      swap2\n      swap1\n      tag_30\n      jump\t// in\n    tag_82:\n      tag_83\n      jump\t// in\n    tag_81:\n      mload(0x40)\n      tag_84\n      swap2\n      swap1\n      tag_33\n      jump\t// in\n    tag_84:\n      mload(0x40)\n      dup1\n      swap2\n      sub\n      swap1\n      return\n        /* \"src/ConstantOfferRatePool.sol\":263:284  string public _symbol */\n    tag_14:\n      callvalue\n      dup1\n      iszero\n      tag_85\n      jumpi\n      revert(0x00, 0x00)\n    tag_85:\n      pop\n      tag_86\n      tag_87\n      jump\t// in\n    tag_86:\n      mload(0x40)\n      tag_88\n      swap2\n      swap1\n      tag_26\n      jump\t// in\n    tag_88:\n      mload(0x40)\n      dup1\n      swap2\n      sub\n      swap1\n      return\n        /* \"src/ConstantOfferRatePool.sol\":237:256  string public _name */\n    tag_15:\n      callvalue\n      dup1\n      iszero\n      tag_89\n      jumpi\n      revert(0x00, 0x00)\n    tag_89:\n      pop\n      tag_90\n      tag_91\n      jump\t// in\n    tag_90:\n      mload(0x40)\n      tag_92\n      swap2\n      swap1\n      tag_26\n      jump\t// in\n    tag_92:\n      mload(0x40)\n      dup1\n      swap2\n      sub\n      swap1\n      return\n        /* \"https://github.com/Vectorized/solady/blob/main/src/tokens/ERC20.sol\":17661:21377  function permit(... */\n    tag_16:\n      callvalue\n      dup1\n      iszero\n      tag_93\n      jumpi\n      revert(0x00, 0x00)\n    tag_93:\n      pop\n      tag_94\n      0x04\n      dup1\n      calldatasize\n      sub\n      dup2\n      add\n      swap1\n      tag_95\n      swap2\n      swap1\n      tag_96\n      jump\t// in\n    tag_95:\n      tag_97\n      jump\t// in\n    tag_94:\n      stop\n        /* \"https://github.com/Vectorized/solady/blob/main/src/tokens/ERC20.sol\":7549:8044  function allowance(address owner, address spender)... */\n    tag_17:\n      callvalue\n      dup1\n      iszero\n      tag_98\n      jumpi\n      revert(0x00, 0x00)\n    tag_98:\n      pop\n      tag_99\n      0x04\n      dup1\n      calldatasize\n      sub\n      dup2\n      add\n      swap1\n      tag_100\n      swap2\n      swap1\n      tag_101\n      jump\t// in\n    tag_100:\n      tag_102\n      jump\t// in\n    tag_99:\n      mload(0x40)\n      tag_103\n      swap2\n      swap1\n      tag_38\n      jump\t// in\n    tag_103:\n      mload(0x40)\n      dup1\n      swap2\n      sub\n      swap1\n      return\n        /* \"src/ConstantOfferRatePool.sol\":621:682  function previewDeposit(uint assets) public returns (uint) {} */\n    tag_18:\n      callvalue\n      dup1\n      iszero\n      tag_104\n      jumpi\n      revert(0x00, 0x00)\n    tag_104:\n      pop\n      tag_105\n      0x04\n      dup1\n      calldatasize\n      sub\n      dup2\n      add\n      swap1\n      tag_106\n      swap2\n      swap1\n      tag_107\n      jump\t// in\n    tag_106:\n      tag_108\n      jump\t// in\n    tag_105:\n      mload(0x40)\n      tag_109\n      swap2\n      swap1\n      tag_38\n      jump\t// in\n    tag_109:\n      mload(0x40)\n      dup1\n      swap2\n      sub\n      swap1\n      return\n        /* \"src/ConstantOfferRatePool.sol\":367:485  function name() public view override returns (string memory){... */\n    tag_24:\n        /* \"src/ConstantOfferRatePool.sol\":413:426  string memory */\n      0x60\n        /* \"src/ConstantOfferRatePool.sol\":459:464  _name */\n      0x00\n        /* \"src/ConstantOfferRatePool.sol\":445:477  string.concat(_name,\" ETH Pool\") */\n      add(0x20, mload(0x40))\n      tag_111\n      swap2\n      swap1\n      tag_112\n      jump\t// in\n    tag_111:\n      mload(0x40)\n      0x20\n      dup2\n      dup4\n      sub\n      sub\n      dup2\n      mstore\n      swap1\n      0x40\n      mstore\n        /* \"src/ConstantOfferRatePool.sol\":438:477  return string.concat(_name,\" ETH Pool\") */\n      swap1\n      pop\n        /* \"src/ConstantOfferRatePool.sol\":367:485  function name() public view override returns (string memory){... */\n      swap1\n      jump\t// out\n        /* \"https://github.com/Vectorized/solady/blob/main/src/tokens/ERC20.sol\":8175:9204  function approve(address spender, uint256 amount) public virtual returns (bool) {... */\n    tag_31:\n        /* \"https://github.com/Vectorized/solady/blob/main/src/tokens/ERC20.sol\":8249:8253  bool */\n      0x00\n        /* \"https://github.com/Vectorized/solady/blob/main/src/tokens/ERC20.sol\":8269:8300  _givePermit2InfiniteAllowance() */\n      tag_114\n        /* \"https://github.com/Vectorized/solady/blob/main/src/tokens/ERC20.sol\":8269:8298  _givePermit2InfiniteAllowance */\n      tag_115\n        /* \"https://github.com/Vectorized/solady/blob/main/src/tokens/ERC20.sol\":8269:8300  _givePermit2InfiniteAllowance() */\n      jump\t// in\n    tag_114:\n        /* \"https://github.com/Vectorized/solady/blob/main/src/tokens/ERC20.sol\":8265:8712  if (_givePermit2InfiniteAllowance()) {... */\n      iszero\n      tag_116\n      jumpi\n        /* \"https://github.com/Vectorized/solady/blob/main/src/tokens/ERC20.sol\":8532:8538  amount */\n      dup2\n        /* \"https://github.com/Vectorized/solady/blob/main/src/tokens/ERC20.sol\":8528:8539  not(amount) */\n      not\n        /* \"https://github.com/Vectorized/solady/blob/main/src/tokens/ERC20.sol\":8521:8540  iszero(not(amount)) */\n      iszero\n        /* \"https://github.com/Vectorized/solady/blob/main/src/tokens/ERC20.sol\":8510:8518  _PERMIT2 */\n      0x22d473030f116ddee9f6b43ac78ba3\n        /* \"https://github.com/Vectorized/solady/blob/main/src/tokens/ERC20.sol\":8499:8506  spender */\n      dup5\n        /* \"https://github.com/Vectorized/solady/blob/main/src/tokens/ERC20.sol\":8495:8497  96 */\n      0x60\n        /* \"https://github.com/Vectorized/solady/blob/main/src/tokens/ERC20.sol\":8491:8507  shl(96, spender) */\n      shl\n        /* \"https://github.com/Vectorized/solady/blob/main/src/tokens/ERC20.sol\":8487:8489  96 */\n      0x60\n        /* \"https://github.com/Vectorized/solady/blob/main/src/tokens/ERC20.sol\":8483:8508  shr(96, shl(96, spender)) */\n      shr\n        /* \"https://github.com/Vectorized/solady/blob/main/src/tokens/ERC20.sol\":8479:8519  xor(shr(96, shl(96, spender)), _PERMIT2) */\n      xor\n        /* \"https://github.com/Vectorized/solady/blob/main/src/tokens/ERC20.sol\":8476:8541  or(xor(shr(96, shl(96, spender)), _PERMIT2), iszero(not(amount))) */\n      or\n        /* \"https://github.com/Vectorized/solady/blob/main/src/tokens/ERC20.sol\":8466:8688  if iszero(or(xor(shr(96, shl(96, spender)), _PERMIT2), iszero(not(amount)))) {... */\n      tag_117\n      jumpi\n        /* \"https://github.com/Vectorized/solady/blob/main/src/tokens/ERC20.sol\":8578:8588  0x3f68539a */\n      0x3f68539a\n        /* \"https://github.com/Vectorized/solady/blob/main/src/tokens/ERC20.sol\":8572:8576  0x00 */\n      0x00\n        /* \"https://github.com/Vectorized/solady/blob/main/src/tokens/ERC20.sol\":8565:8589  mstore(0x00, 0x3f68539a) */\n      mstore\n        /* \"https://github.com/Vectorized/solady/blob/main/src/tokens/ERC20.sol\":8665:8669  0x04 */\n      0x04\n        /* \"https://github.com/Vectorized/solady/blob/main/src/tokens/ERC20.sol\":8659:8663  0x1c */\n      0x1c\n        /* \"https://github.com/Vectorized/solady/blob/main/src/tokens/ERC20.sol\":8652:8670  revert(0x1c, 0x04) */\n      revert\n        /* \"https://github.com/Vectorized/solady/blob/main/src/tokens/ERC20.sol\":8466:8688  if iszero(or(xor(shr(96, shl(96, spender)), _PERMIT2), iszero(not(amount)))) {... */\n    tag_117:\n        /* \"https://github.com/Vectorized/solady/blob/main/src/tokens/ERC20.sol\":8265:8712  if (_givePermit2InfiniteAllowance()) {... */\n    tag_116:\n        /* \"https://github.com/Vectorized/solady/blob/main/src/tokens/ERC20.sol\":8864:8871  spender */\n      dup3\n        /* \"https://github.com/Vectorized/solady/blob/main/src/tokens/ERC20.sol\":8858:8862  0x20 */\n      0x20\n        /* \"https://github.com/Vectorized/solady/blob/main/src/tokens/ERC20.sol\":8851:8872  mstore(0x20, spender) */\n      mstore\n        /* \"https://github.com/Vectorized/solady/blob/main/src/tokens/ERC20.sol\":8898:8918  _ALLOWANCE_SLOT_SEED */\n      0x7f5e9f20\n        /* \"https://github.com/Vectorized/solady/blob/main/src/tokens/ERC20.sol\":8892:8896  0x0c */\n      0x0c\n        /* \"https://github.com/Vectorized/solady/blob/main/src/tokens/ERC20.sol\":8885:8919  mstore(0x0c, _ALLOWANCE_SLOT_SEED) */\n      mstore\n        /* \"https://github.com/Vectorized/solady/blob/main/src/tokens/ERC20.sol\":8945:8953  caller() */\n      caller\n        /* \"https://github.com/Vectorized/solady/blob/main/src/tokens/ERC20.sol\":8939:8943  0x00 */\n      0x00\n        /* \"https://github.com/Vectorized/solady/blob/main/src/tokens/ERC20.sol\":8932:8954  mstore(0x00, caller()) */\n      mstore\n        /* \"https://github.com/Vectorized/solady/blob/main/src/tokens/ERC20.sol\":8997:9003  amount */\n      dup2\n        /* \"https://github.com/Vectorized/solady/blob/main/src/tokens/ERC20.sol\":8990:8994  0x34 */\n      0x34\n        /* \"https://github.com/Vectorized/solady/blob/main/src/tokens/ERC20.sol\":8984:8988  0x0c */\n      0x0c\n        /* \"https://github.com/Vectorized/solady/blob/main/src/tokens/ERC20.sol\":8974:8995  keccak256(0x0c, 0x34) */\n      keccak256\n        /* \"https://github.com/Vectorized/solady/blob/main/src/tokens/ERC20.sol\":8967:9004  sstore(keccak256(0x0c, 0x34), amount) */\n      sstore\n        /* \"https://github.com/Vectorized/solady/blob/main/src/tokens/ERC20.sol\":9072:9078  amount */\n      dup2\n        /* \"https://github.com/Vectorized/solady/blob/main/src/tokens/ERC20.sol\":9066:9070  0x00 */\n      0x00\n        /* \"https://github.com/Vectorized/solady/blob/main/src/tokens/ERC20.sol\":9059:9079  mstore(0x00, amount) */\n      mstore\n        /* \"https://github.com/Vectorized/solady/blob/main/src/tokens/ERC20.sol\":9160:9164  0x2c */\n      0x2c\n        /* \"https://github.com/Vectorized/solady/blob/main/src/tokens/ERC20.sol\":9154:9165  mload(0x2c) */\n      mload\n        /* \"https://github.com/Vectorized/solady/blob/main/src/tokens/ERC20.sol\":9150:9152  96 */\n      0x60\n        /* \"https://github.com/Vectorized/solady/blob/main/src/tokens/ERC20.sol\":9146:9166  shr(96, mload(0x2c)) */\n      shr\n        /* \"https://github.com/Vectorized/solady/blob/main/src/tokens/ERC20.sol\":9136:9144  caller() */\n      caller\n        /* \"https://github.com/Vectorized/solady/blob/main/src/tokens/ERC20.sol\":9109:9134  _APPROVAL_EVENT_SIGNATURE */\n      0x8c5be1e5ebec7d5bd14f71427d1e84f3dd0314c0f7b2291e5b200ac8c7c3b925\n        /* \"https://github.com/Vectorized/solady/blob/main/src/tokens/ERC20.sol\":9103:9107  0x20 */\n      0x20\n        /* \"https://github.com/Vectorized/solady/blob/main/src/tokens/ERC20.sol\":9097:9101  0x00 */\n      0x00\n        /* \"https://github.com/Vectorized/solady/blob/main/src/tokens/ERC20.sol\":9092:9167  log3(0x00, 0x20, _APPROVAL_EVENT_SIGNATURE, caller(), shr(96, mload(0x2c))) */\n      log3\n        /* \"https://github.com/Vectorized/solady/blob/main/src/tokens/ERC20.sol\":9193:9197  true */\n      0x01\n        /* \"https://github.com/Vectorized/solady/blob/main/src/tokens/ERC20.sol\":9186:9197  return true */\n      swap1\n      pop\n        /* \"https://github.com/Vectorized/solady/blob/main/src/tokens/ERC20.sol\":8175:9204  function approve(address spender, uint256 amount) public virtual returns (bool) {... */\n      swap3\n      swap2\n      pop\n      pop\n      jump\t// out\n        /* \"https://github.com/Vectorized/solady/blob/main/src/tokens/ERC20.sol\":6907:7102  function totalSupply() public view virtual returns (uint256 result) {... */\n    tag_36:\n        /* \"https://github.com/Vectorized/solady/blob/main/src/tokens/ERC20.sol\":6959:6973  uint256 result */\n      0x00\n        /* \"https://github.com/Vectorized/solady/blob/main/src/tokens/ERC20.sol\":7067:7085  _TOTAL_SUPPLY_SLOT */\n      0x05345cdf77eb68f44c\n        /* \"https://github.com/Vectorized/solady/blob/main/src/tokens/ERC20.sol\":7061:7086  sload(_TOTAL_SUPPLY_SLOT) */\n      sload\n        /* \"https://github.com/Vectorized/solady/blob/main/src/tokens/ERC20.sol\":7051:7086  result := sload(_TOTAL_SUPPLY_SLOT) */\n      swap1\n      pop\n        /* \"https://github.com/Vectorized/solady/blob/main/src/tokens/ERC20.sol\":6907:7102  function totalSupply() public view virtual returns (uint256 result) {... */\n      swap1\n      jump\t// out\n        /* \"https://github.com/Vectorized/solady/blob/main/src/tokens/ERC20.sol\":11165:15918  function transferFrom(address from, address to, uint256 amount) public virtual returns (bool) {... */\n    tag_43:\n        /* \"https://github.com/Vectorized/solady/blob/main/src/tokens/ERC20.sol\":11253:11257  bool */\n      0x00\n        /* \"https://github.com/Vectorized/solady/blob/main/src/tokens/ERC20.sol\":11269:11307  _beforeTokenTransfer(from, to, amount) */\n      tag_120\n        /* \"https://github.com/Vectorized/solady/blob/main/src/tokens/ERC20.sol\":11290:11294  from */\n      dup5\n        /* \"https://github.com/Vectorized/solady/blob/main/src/tokens/ERC20.sol\":11296:11298  to */\n      dup5\n        /* \"https://github.com/Vectorized/solady/blob/main/src/tokens/ERC20.sol\":11300:11306  amount */\n      dup5\n        /* \"https://github.com/Vectorized/solady/blob/main/src/tokens/ERC20.sol\":11269:11289  _beforeTokenTransfer */\n      tag_121\n        /* \"https://github.com/Vectorized/solady/blob/main/src/tokens/ERC20.sol\":11269:11307  _beforeTokenTransfer(from, to, amount) */\n      jump\t// in\n    tag_120:\n        /* \"https://github.com/Vectorized/solady/blob/main/src/tokens/ERC20.sol\":11391:11422  _givePermit2InfiniteAllowance() */\n      tag_122\n        /* \"https://github.com/Vectorized/solady/blob/main/src/tokens/ERC20.sol\":11391:11420  _givePermit2InfiniteAllowance */\n      tag_115\n        /* \"https://github.com/Vectorized/solady/blob/main/src/tokens/ERC20.sol\":11391:11422  _givePermit2InfiniteAllowance() */\n      jump\t// in\n    tag_122:\n        /* \"https://github.com/Vectorized/solady/blob/main/src/tokens/ERC20.sol\":11387:15844  if (_givePermit2InfiniteAllowance()) {... */\n      iszero\n      tag_123\n      jumpi\n        /* \"https://github.com/Vectorized/solady/blob/main/src/tokens/ERC20.sol\":11533:11537  from */\n      dup4\n        /* \"https://github.com/Vectorized/solady/blob/main/src/tokens/ERC20.sol\":11529:11531  96 */\n      0x60\n        /* \"https://github.com/Vectorized/solady/blob/main/src/tokens/ERC20.sol\":11525:11538  shl(96, from) */\n      shl\n        /* \"https://github.com/Vectorized/solady/blob/main/src/tokens/ERC20.sol\":11578:11586  _PERMIT2 */\n      0x22d473030f116ddee9f6b43ac78ba3\n        /* \"https://github.com/Vectorized/solady/blob/main/src/tokens/ERC20.sol\":11568:11576  caller() */\n      caller\n        /* \"https://github.com/Vectorized/solady/blob/main/src/tokens/ERC20.sol\":11565:11587  eq(caller(), _PERMIT2) */\n      eq\n        /* \"https://github.com/Vectorized/solady/blob/main/src/tokens/ERC20.sol\":11555:12483  if iszero(eq(caller(), _PERMIT2)) {... */\n      tag_124\n      jumpi\n        /* \"https://github.com/Vectorized/solady/blob/main/src/tokens/ERC20.sol\":11694:11702  caller() */\n      caller\n        /* \"https://github.com/Vectorized/solady/blob/main/src/tokens/ERC20.sol\":11688:11692  0x20 */\n      0x20\n        /* \"https://github.com/Vectorized/solady/blob/main/src/tokens/ERC20.sol\":11681:11703  mstore(0x20, caller()) */\n      mstore\n        /* \"https://github.com/Vectorized/solady/blob/main/src/tokens/ERC20.sol\":11747:11767  _ALLOWANCE_SLOT_SEED */\n      0x7f5e9f20\n        /* \"https://github.com/Vectorized/solady/blob/main/src/tokens/ERC20.sol\":11740:11745  from_ */\n      dup2\n        /* \"https://github.com/Vectorized/solady/blob/main/src/tokens/ERC20.sol\":11737:11768  or(from_, _ALLOWANCE_SLOT_SEED) */\n      or\n        /* \"https://github.com/Vectorized/solady/blob/main/src/tokens/ERC20.sol\":11731:11735  0x0c */\n      0x0c\n        /* \"https://github.com/Vectorized/solady/blob/main/src/tokens/ERC20.sol\":11724:11769  mstore(0x0c, or(from_, _ALLOWANCE_SLOT_SEED)) */\n      mstore\n        /* \"https://github.com/Vectorized/solady/blob/main/src/tokens/ERC20.sol\":11827:11831  0x34 */\n      0x34\n        /* \"https://github.com/Vectorized/solady/blob/main/src/tokens/ERC20.sol\":11821:11825  0x0c */\n      0x0c\n        /* \"https://github.com/Vectorized/solady/blob/main/src/tokens/ERC20.sol\":11811:11832  keccak256(0x0c, 0x34) */\n      keccak256\n        /* \"https://github.com/Vectorized/solady/blob/main/src/tokens/ERC20.sol\":11877:11890  allowanceSlot */\n      dup1\n        /* \"https://github.com/Vectorized/solady/blob/main/src/tokens/ERC20.sol\":11871:11891  sload(allowanceSlot) */\n      sload\n        /* \"https://github.com/Vectorized/solady/blob/main/src/tokens/ERC20.sol\":11993:12003  allowance_ */\n      dup1\n        /* \"https://github.com/Vectorized/solady/blob/main/src/tokens/ERC20.sol\":11989:12004  not(allowance_) */\n      not\n        /* \"https://github.com/Vectorized/solady/blob/main/src/tokens/ERC20.sol\":11986:12465  if not(allowance_) {... */\n      iszero\n      tag_125\n      jumpi\n        /* \"https://github.com/Vectorized/solady/blob/main/src/tokens/ERC20.sol\":12134:12144  allowance_ */\n      dup1\n        /* \"https://github.com/Vectorized/solady/blob/main/src/tokens/ERC20.sol\":12126:12132  amount */\n      dup6\n        /* \"https://github.com/Vectorized/solady/blob/main/src/tokens/ERC20.sol\":12123:12145  gt(amount, allowance_) */\n      gt\n        /* \"https://github.com/Vectorized/solady/blob/main/src/tokens/ERC20.sol\":12120:12303  if gt(amount, allowance_) {... */\n      iszero\n      tag_126\n      jumpi\n        /* \"https://github.com/Vectorized/solady/blob/main/src/tokens/ERC20.sol\":12189:12199  0x13be252b */\n      0x13be252b\n        /* \"https://github.com/Vectorized/solady/blob/main/src/tokens/ERC20.sol\":12183:12187  0x00 */\n      0x00\n        /* \"https://github.com/Vectorized/solady/blob/main/src/tokens/ERC20.sol\":12176:12200  mstore(0x00, 0x13be252b) */\n      mstore\n        /* \"https://github.com/Vectorized/solady/blob/main/src/tokens/ERC20.sol\":12272:12276  0x04 */\n      0x04\n        /* \"https://github.com/Vectorized/solady/blob/main/src/tokens/ERC20.sol\":12266:12270  0x1c */\n      0x1c\n        /* \"https://github.com/Vectorized/solady/blob/main/src/tokens/ERC20.sol\":12259:12277  revert(0x1c, 0x04) */\n      revert\n        /* \"https://github.com/Vectorized/solady/blob/main/src/tokens/ERC20.sol\":12120:12303  if gt(amount, allowance_) {... */\n    tag_126:\n        /* \"https://github.com/Vectorized/solady/blob/main/src/tokens/ERC20.sol\":12435:12441  amount */\n      dup5\n        /* \"https://github.com/Vectorized/solady/blob/main/src/tokens/ERC20.sol\":12423:12433  allowance_ */\n      dup2\n        /* \"https://github.com/Vectorized/solady/blob/main/src/tokens/ERC20.sol\":12419:12442  sub(allowance_, amount) */\n      sub\n        /* \"https://github.com/Vectorized/solady/blob/main/src/tokens/ERC20.sol\":12404:12417  allowanceSlot */\n      dup3\n        /* \"https://github.com/Vectorized/solady/blob/main/src/tokens/ERC20.sol\":12397:12443  sstore(allowanceSlot, sub(allowance_, amount)) */\n      sstore\n        /* \"https://github.com/Vectorized/solady/blob/main/src/tokens/ERC20.sol\":11986:12465  if not(allowance_) {... */\n    tag_125:\n        /* \"https://github.com/Vectorized/solady/blob/main/src/tokens/ERC20.sol\":11589:12483  {... */\n      pop\n      pop\n        /* \"https://github.com/Vectorized/solady/blob/main/src/tokens/ERC20.sol\":11555:12483  if iszero(eq(caller(), _PERMIT2)) {... */\n    tag_124:\n        /* \"https://github.com/Vectorized/solady/blob/main/src/tokens/ERC20.sol\":12587:12605  _BALANCE_SLOT_SEED */\n      0x87a211a2\n        /* \"https://github.com/Vectorized/solady/blob/main/src/tokens/ERC20.sol\":12580:12585  from_ */\n      dup2\n        /* \"https://github.com/Vectorized/solady/blob/main/src/tokens/ERC20.sol\":12577:12606  or(from_, _BALANCE_SLOT_SEED) */\n      or\n        /* \"https://github.com/Vectorized/solady/blob/main/src/tokens/ERC20.sol\":12571:12575  0x0c */\n      0x0c\n        /* \"https://github.com/Vectorized/solady/blob/main/src/tokens/ERC20.sol\":12564:12607  mstore(0x0c, or(from_, _BALANCE_SLOT_SEED)) */\n      mstore\n        /* \"https://github.com/Vectorized/solady/blob/main/src/tokens/ERC20.sol\":12663:12667  0x20 */\n      0x20\n        /* \"https://github.com/Vectorized/solady/blob/main/src/tokens/ERC20.sol\":12657:12661  0x0c */\n      0x0c\n        /* \"https://github.com/Vectorized/solady/blob/main/src/tokens/ERC20.sol\":12647:12668  keccak256(0x0c, 0x20) */\n      keccak256\n        /* \"https://github.com/Vectorized/solady/blob/main/src/tokens/ERC20.sol\":12710:12725  fromBalanceSlot */\n      dup1\n        /* \"https://github.com/Vectorized/solady/blob/main/src/tokens/ERC20.sol\":12704:12726  sload(fromBalanceSlot) */\n      sload\n        /* \"https://github.com/Vectorized/solady/blob/main/src/tokens/ERC20.sol\":12808:12819  fromBalance */\n      dup1\n        /* \"https://github.com/Vectorized/solady/blob/main/src/tokens/ERC20.sol\":12800:12806  amount */\n      dup6\n        /* \"https://github.com/Vectorized/solady/blob/main/src/tokens/ERC20.sol\":12797:12820  gt(amount, fromBalance) */\n      gt\n        /* \"https://github.com/Vectorized/solady/blob/main/src/tokens/ERC20.sol\":12794:12952  if gt(amount, fromBalance) {... */\n      iszero\n      tag_127\n      jumpi\n        /* \"https://github.com/Vectorized/solady/blob/main/src/tokens/ERC20.sol\":12856:12866  0xf4d678b8 */\n      0xf4d678b8\n        /* \"https://github.com/Vectorized/solady/blob/main/src/tokens/ERC20.sol\":12850:12854  0x00 */\n      0x00\n        /* \"https://github.com/Vectorized/solady/blob/main/src/tokens/ERC20.sol\":12843:12867  mstore(0x00, 0xf4d678b8) */\n      mstore\n        /* \"https://github.com/Vectorized/solady/blob/main/src/tokens/ERC20.sol\":12929:12933  0x04 */\n      0x04\n        /* \"https://github.com/Vectorized/solady/blob/main/src/tokens/ERC20.sol\":12923:12927  0x1c */\n      0x1c\n        /* \"https://github.com/Vectorized/solady/blob/main/src/tokens/ERC20.sol\":12916:12934  revert(0x1c, 0x04) */\n      revert\n        /* \"https://github.com/Vectorized/solady/blob/main/src/tokens/ERC20.sol\":12794:12952  if gt(amount, fromBalance) {... */\n    tag_127:\n        /* \"https://github.com/Vectorized/solady/blob/main/src/tokens/ERC20.sol\":13069:13075  amount */\n      dup5\n        /* \"https://github.com/Vectorized/solady/blob/main/src/tokens/ERC20.sol\":13056:13067  fromBalance */\n      dup2\n        /* \"https://github.com/Vectorized/solady/blob/main/src/tokens/ERC20.sol\":13052:13076  sub(fromBalance, amount) */\n      sub\n        /* \"https://github.com/Vectorized/solady/blob/main/src/tokens/ERC20.sol\":13035:13050  fromBalanceSlot */\n      dup3\n        /* \"https://github.com/Vectorized/solady/blob/main/src/tokens/ERC20.sol\":13028:13077  sstore(fromBalanceSlot, sub(fromBalance, amount)) */\n      sstore\n        /* \"https://github.com/Vectorized/solady/blob/main/src/tokens/ERC20.sol\":13160:13162  to */\n      dup6\n        /* \"https://github.com/Vectorized/solady/blob/main/src/tokens/ERC20.sol\":13154:13158  0x00 */\n      0x00\n        /* \"https://github.com/Vectorized/solady/blob/main/src/tokens/ERC20.sol\":13147:13163  mstore(0x00, to) */\n      mstore\n        /* \"https://github.com/Vectorized/solady/blob/main/src/tokens/ERC20.sol\":13217:13221  0x20 */\n      0x20\n        /* \"https://github.com/Vectorized/solady/blob/main/src/tokens/ERC20.sol\":13211:13215  0x0c */\n      0x0c\n        /* \"https://github.com/Vectorized/solady/blob/main/src/tokens/ERC20.sol\":13201:13222  keccak256(0x0c, 0x20) */\n      keccak256\n        /* \"https://github.com/Vectorized/solady/blob/main/src/tokens/ERC20.sol\":13483:13489  amount */\n      dup6\n        /* \"https://github.com/Vectorized/solady/blob/main/src/tokens/ERC20.sol\":13467:13480  toBalanceSlot */\n      dup2\n        /* \"https://github.com/Vectorized/solady/blob/main/src/tokens/ERC20.sol\":13461:13481  sload(toBalanceSlot) */\n      sload\n        /* \"https://github.com/Vectorized/solady/blob/main/src/tokens/ERC20.sol\":13457:13490  add(sload(toBalanceSlot), amount) */\n      add\n        /* \"https://github.com/Vectorized/solady/blob/main/src/tokens/ERC20.sol\":13442:13455  toBalanceSlot */\n      dup2\n        /* \"https://github.com/Vectorized/solady/blob/main/src/tokens/ERC20.sol\":13435:13491  sstore(toBalanceSlot, add(sload(toBalanceSlot), amount)) */\n      sstore\n        /* \"https://github.com/Vectorized/solady/blob/main/src/tokens/ERC20.sol\":13567:13573  amount */\n      dup6\n        /* \"https://github.com/Vectorized/solady/blob/main/src/tokens/ERC20.sol\":13561:13565  0x20 */\n      0x20\n        /* \"https://github.com/Vectorized/solady/blob/main/src/tokens/ERC20.sol\":13554:13574  mstore(0x20, amount) */\n      mstore\n        /* \"https://github.com/Vectorized/solady/blob/main/src/tokens/ERC20.sol\":13665:13669  0x0c */\n      0x0c\n        /* \"https://github.com/Vectorized/solady/blob/main/src/tokens/ERC20.sol\":13659:13670  mload(0x0c) */\n      mload\n        /* \"https://github.com/Vectorized/solady/blob/main/src/tokens/ERC20.sol\":13655:13657  96 */\n      0x60\n        /* \"https://github.com/Vectorized/solady/blob/main/src/tokens/ERC20.sol\":13651:13671  shr(96, mload(0x0c)) */\n      shr\n        /* \"https://github.com/Vectorized/solady/blob/main/src/tokens/ERC20.sol\":13643:13648  from_ */\n      dup5\n        /* \"https://github.com/Vectorized/solady/blob/main/src/tokens/ERC20.sol\":13639:13641  96 */\n      0x60\n        /* \"https://github.com/Vectorized/solady/blob/main/src/tokens/ERC20.sol\":13635:13649  shr(96, from_) */\n      shr\n        /* \"https://github.com/Vectorized/solady/blob/main/src/tokens/ERC20.sol\":13608:13633  _TRANSFER_EVENT_SIGNATURE */\n      0xddf252ad1be2c89b69c2b068fc378daa952ba7f163c4a11628f55a4df523b3ef\n        /* \"https://github.com/Vectorized/solady/blob/main/src/tokens/ERC20.sol\":13602:13606  0x20 */\n      0x20\n        /* \"https://github.com/Vectorized/solady/blob/main/src/tokens/ERC20.sol\":13596:13600  0x20 */\n      dup1\n        /* \"https://github.com/Vectorized/solady/blob/main/src/tokens/ERC20.sol\":13591:13672  log3(0x20, 0x20, _TRANSFER_EVENT_SIGNATURE, shr(96, from_), shr(96, mload(0x0c))) */\n      log3\n        /* \"https://github.com/Vectorized/solady/blob/main/src/tokens/ERC20.sol\":11494:13686  {... */\n      pop\n      pop\n      pop\n      pop\n        /* \"https://github.com/Vectorized/solady/blob/main/src/tokens/ERC20.sol\":11387:15844  if (_givePermit2InfiniteAllowance()) {... */\n      jump(tag_128)\n    tag_123:\n        /* \"https://github.com/Vectorized/solady/blob/main/src/tokens/ERC20.sol\":13811:13815  from */\n      dup4\n        /* \"https://github.com/Vectorized/solady/blob/main/src/tokens/ERC20.sol\":13807:13809  96 */\n      0x60\n        /* \"https://github.com/Vectorized/solady/blob/main/src/tokens/ERC20.sol\":13803:13816  shl(96, from) */\n      shl\n        /* \"https://github.com/Vectorized/solady/blob/main/src/tokens/ERC20.sol\":13912:13920  caller() */\n      caller\n        /* \"https://github.com/Vectorized/solady/blob/main/src/tokens/ERC20.sol\":13906:13910  0x20 */\n      0x20\n        /* \"https://github.com/Vectorized/solady/blob/main/src/tokens/ERC20.sol\":13899:13921  mstore(0x20, caller()) */\n      mstore\n        /* \"https://github.com/Vectorized/solady/blob/main/src/tokens/ERC20.sol\":13961:13981  _ALLOWANCE_SLOT_SEED */\n      0x7f5e9f20\n        /* \"https://github.com/Vectorized/solady/blob/main/src/tokens/ERC20.sol\":13954:13959  from_ */\n      dup2\n        /* \"https://github.com/Vectorized/solady/blob/main/src/tokens/ERC20.sol\":13951:13982  or(from_, _ALLOWANCE_SLOT_SEED) */\n      or\n        /* \"https://github.com/Vectorized/solady/blob/main/src/tokens/ERC20.sol\":13945:13949  0x0c */\n      0x0c\n        /* \"https://github.com/Vectorized/solady/blob/main/src/tokens/ERC20.sol\":13938:13983  mstore(0x0c, or(from_, _ALLOWANCE_SLOT_SEED)) */\n      mstore\n        /* \"https://github.com/Vectorized/solady/blob/main/src/tokens/ERC20.sol\":14037:14041  0x34 */\n      0x34\n        /* \"https://github.com/Vectorized/solady/blob/main/src/tokens/ERC20.sol\":14031:14035  0x0c */\n      0x0c\n        /* \"https://github.com/Vectorized/solady/blob/main/src/tokens/ERC20.sol\":14021:14042  keccak256(0x0c, 0x34) */\n      keccak256\n        /* \"https://github.com/Vectorized/solady/blob/main/src/tokens/ERC20.sol\":14083:14096  allowanceSlot */\n      dup1\n        /* \"https://github.com/Vectorized/solady/blob/main/src/tokens/ERC20.sol\":14077:14097  sload(allowanceSlot) */\n      sload\n        /* \"https://github.com/Vectorized/solady/blob/main/src/tokens/ERC20.sol\":14191:14201  allowance_ */\n      dup1\n        /* \"https://github.com/Vectorized/solady/blob/main/src/tokens/ERC20.sol\":14187:14202  not(allowance_) */\n      not\n        /* \"https://github.com/Vectorized/solady/blob/main/src/tokens/ERC20.sol\":14184:14631  if not(allowance_) {... */\n      iszero\n      tag_129\n      jumpi\n        /* \"https://github.com/Vectorized/solady/blob/main/src/tokens/ERC20.sol\":14324:14334  allowance_ */\n      dup1\n        /* \"https://github.com/Vectorized/solady/blob/main/src/tokens/ERC20.sol\":14316:14322  amount */\n      dup6\n        /* \"https://github.com/Vectorized/solady/blob/main/src/tokens/ERC20.sol\":14313:14335  gt(amount, allowance_) */\n      gt\n        /* \"https://github.com/Vectorized/solady/blob/main/src/tokens/ERC20.sol\":14310:14481  if gt(amount, allowance_) {... */\n      iszero\n      tag_130\n      jumpi\n        /* \"https://github.com/Vectorized/solady/blob/main/src/tokens/ERC20.sol\":14375:14385  0x13be252b */\n      0x13be252b\n        /* \"https://github.com/Vectorized/solady/blob/main/src/tokens/ERC20.sol\":14369:14373  0x00 */\n      0x00\n        /* \"https://github.com/Vectorized/solady/blob/main/src/tokens/ERC20.sol\":14362:14386  mstore(0x00, 0x13be252b) */\n      mstore\n        /* \"https://github.com/Vectorized/solady/blob/main/src/tokens/ERC20.sol\":14454:14458  0x04 */\n      0x04\n        /* \"https://github.com/Vectorized/solady/blob/main/src/tokens/ERC20.sol\":14448:14452  0x1c */\n      0x1c\n        /* \"https://github.com/Vectorized/solady/blob/main/src/tokens/ERC20.sol\":14441:14459  revert(0x1c, 0x04) */\n      revert\n        /* \"https://github.com/Vectorized/solady/blob/main/src/tokens/ERC20.sol\":14310:14481  if gt(amount, allowance_) {... */\n    tag_130:\n        /* \"https://github.com/Vectorized/solady/blob/main/src/tokens/ERC20.sol\":14605:14611  amount */\n      dup5\n        /* \"https://github.com/Vectorized/solady/blob/main/src/tokens/ERC20.sol\":14593:14603  allowance_ */\n      dup2\n        /* \"https://github.com/Vectorized/solady/blob/main/src/tokens/ERC20.sol\":14589:14612  sub(allowance_, amount) */\n      sub\n        /* \"https://github.com/Vectorized/solady/blob/main/src/tokens/ERC20.sol\":14574:14587  allowanceSlot */\n      dup3\n        /* \"https://github.com/Vectorized/solady/blob/main/src/tokens/ERC20.sol\":14567:14613  sstore(allowanceSlot, sub(allowance_, amount)) */\n      sstore\n        /* \"https://github.com/Vectorized/solady/blob/main/src/tokens/ERC20.sol\":14184:14631  if not(allowance_) {... */\n    tag_129:\n        /* \"https://github.com/Vectorized/solady/blob/main/src/tokens/ERC20.sol\":14735:14753  _BALANCE_SLOT_SEED */\n      0x87a211a2\n        /* \"https://github.com/Vectorized/solady/blob/main/src/tokens/ERC20.sol\":14728:14733  from_ */\n      dup4\n        /* \"https://github.com/Vectorized/solady/blob/main/src/tokens/ERC20.sol\":14725:14754  or(from_, _BALANCE_SLOT_SEED) */\n      or\n        /* \"https://github.com/Vectorized/solady/blob/main/src/tokens/ERC20.sol\":14719:14723  0x0c */\n      0x0c\n        /* \"https://github.com/Vectorized/solady/blob/main/src/tokens/ERC20.sol\":14712:14755  mstore(0x0c, or(from_, _BALANCE_SLOT_SEED)) */\n      mstore\n        /* \"https://github.com/Vectorized/solady/blob/main/src/tokens/ERC20.sol\":14811:14815  0x20 */\n      0x20\n        /* \"https://github.com/Vectorized/solady/blob/main/src/tokens/ERC20.sol\":14805:14809  0x0c */\n      0x0c\n        /* \"https://github.com/Vectorized/solady/blob/main/src/tokens/ERC20.sol\":14795:14816  keccak256(0x0c, 0x20) */\n      keccak256\n        /* \"https://github.com/Vectorized/solady/blob/main/src/tokens/ERC20.sol\":14858:14873  fromBalanceSlot */\n      dup1\n        /* \"https://github.com/Vectorized/solady/blob/main/src/tokens/ERC20.sol\":14852:14874  sload(fromBalanceSlot) */\n      sload\n        /* \"https://github.com/Vectorized/solady/blob/main/src/tokens/ERC20.sol\":14956:14967  fromBalance */\n      dup1\n        /* \"https://github.com/Vectorized/solady/blob/main/src/tokens/ERC20.sol\":14948:14954  amount */\n      dup8\n        /* \"https://github.com/Vectorized/solady/blob/main/src/tokens/ERC20.sol\":14945:14968  gt(amount, fromBalance) */\n      gt\n        /* \"https://github.com/Vectorized/solady/blob/main/src/tokens/ERC20.sol\":14942:15100  if gt(amount, fromBalance) {... */\n      iszero\n      tag_131\n      jumpi\n        /* \"https://github.com/Vectorized/solady/blob/main/src/tokens/ERC20.sol\":15004:15014  0xf4d678b8 */\n      0xf4d678b8\n        /* \"https://github.com/Vectorized/solady/blob/main/src/tokens/ERC20.sol\":14998:15002  0x00 */\n      0x00\n        /* \"https://github.com/Vectorized/solady/blob/main/src/tokens/ERC20.sol\":14991:15015  mstore(0x00, 0xf4d678b8) */\n      mstore\n        /* \"https://github.com/Vectorized/solady/blob/main/src/tokens/ERC20.sol\":15077:15081  0x04 */\n      0x04\n        /* \"https://github.com/Vectorized/solady/blob/main/src/tokens/ERC20.sol\":15071:15075  0x1c */\n      0x1c\n        /* \"https://github.com/Vectorized/solady/blob/main/src/tokens/ERC20.sol\":15064:15082  revert(0x1c, 0x04) */\n      revert\n        /* \"https://github.com/Vectorized/solady/blob/main/src/tokens/ERC20.sol\":14942:15100  if gt(amount, fromBalance) {... */\n    tag_131:\n        /* \"https://github.com/Vectorized/solady/blob/main/src/tokens/ERC20.sol\":15217:15223  amount */\n      dup7\n        /* \"https://github.com/Vectorized/solady/blob/main/src/tokens/ERC20.sol\":15204:15215  fromBalance */\n      dup2\n        /* \"https://github.com/Vectorized/solady/blob/main/src/tokens/ERC20.sol\":15200:15224  sub(fromBalance, amount) */\n      sub\n        /* \"https://github.com/Vectorized/solady/blob/main/src/tokens/ERC20.sol\":15183:15198  fromBalanceSlot */\n      dup3\n        /* \"https://github.com/Vectorized/solady/blob/main/src/tokens/ERC20.sol\":15176:15225  sstore(fromBalanceSlot, sub(fromBalance, amount)) */\n      sstore\n        /* \"https://github.com/Vectorized/solady/blob/main/src/tokens/ERC20.sol\":15308:15310  to */\n      dup8\n        /* \"https://github.com/Vectorized/solady/blob/main/src/tokens/ERC20.sol\":15302:15306  0x00 */\n      0x00\n        /* \"https://github.com/Vectorized/solady/blob/main/src/tokens/ERC20.sol\":15295:15311  mstore(0x00, to) */\n      mstore\n        /* \"https://github.com/Vectorized/solady/blob/main/src/tokens/ERC20.sol\":15365:15369  0x20 */\n      0x20\n        /* \"https://github.com/Vectorized/solady/blob/main/src/tokens/ERC20.sol\":15359:15363  0x0c */\n      0x0c\n        /* \"https://github.com/Vectorized/solady/blob/main/src/tokens/ERC20.sol\":15349:15370  keccak256(0x0c, 0x20) */\n      keccak256\n        /* \"https://github.com/Vectorized/solady/blob/main/src/tokens/ERC20.sol\":15631:15637  amount */\n      dup8\n        /* \"https://github.com/Vectorized/solady/blob/main/src/tokens/ERC20.sol\":15615:15628  toBalanceSlot */\n      dup2\n        /* \"https://github.com/Vectorized/solady/blob/main/src/tokens/ERC20.sol\":15609:15629  sload(toBalanceSlot) */\n      sload\n        /* \"https://github.com/Vectorized/solady/blob/main/src/tokens/ERC20.sol\":15605:15638  add(sload(toBalanceSlot), amount) */\n      add\n        /* \"https://github.com/Vectorized/solady/blob/main/src/tokens/ERC20.sol\":15590:15603  toBalanceSlot */\n      dup2\n        /* \"https://github.com/Vectorized/solady/blob/main/src/tokens/ERC20.sol\":15583:15639  sstore(toBalanceSlot, add(sload(toBalanceSlot), amount)) */\n      sstore\n        /* \"https://github.com/Vectorized/solady/blob/main/src/tokens/ERC20.sol\":15715:15721  amount */\n      dup8\n        /* \"https://github.com/Vectorized/solady/blob/main/src/tokens/ERC20.sol\":15709:15713  0x20 */\n      0x20\n        /* \"https://github.com/Vectorized/solady/blob/main/src/tokens/ERC20.sol\":15702:15722  mstore(0x20, amount) */\n      mstore\n        /* \"https://github.com/Vectorized/solady/blob/main/src/tokens/ERC20.sol\":15813:15817  0x0c */\n      0x0c\n        /* \"https://github.com/Vectorized/solady/blob/main/src/tokens/ERC20.sol\":15807:15818  mload(0x0c) */\n      mload\n        /* \"https://github.com/Vectorized/solady/blob/main/src/tokens/ERC20.sol\":15803:15805  96 */\n      0x60\n        /* \"https://github.com/Vectorized/solady/blob/main/src/tokens/ERC20.sol\":15799:15819  shr(96, mload(0x0c)) */\n      shr\n        /* \"https://github.com/Vectorized/solady/blob/main/src/tokens/ERC20.sol\":15791:15796  from_ */\n      dup7\n        /* \"https://github.com/Vectorized/solady/blob/main/src/tokens/ERC20.sol\":15787:15789  96 */\n      0x60\n        /* \"https://github.com/Vectorized/solady/blob/main/src/tokens/ERC20.sol\":15783:15797  shr(96, from_) */\n      shr\n        /* \"https://github.com/Vectorized/solady/blob/main/src/tokens/ERC20.sol\":15756:15781  _TRANSFER_EVENT_SIGNATURE */\n      0xddf252ad1be2c89b69c2b068fc378daa952ba7f163c4a11628f55a4df523b3ef\n        /* \"https://github.com/Vectorized/solady/blob/main/src/tokens/ERC20.sol\":15750:15754  0x20 */\n      0x20\n        /* \"https://github.com/Vectorized/solady/blob/main/src/tokens/ERC20.sol\":15744:15748  0x20 */\n      dup1\n        /* \"https://github.com/Vectorized/solady/blob/main/src/tokens/ERC20.sol\":15739:15820  log3(0x20, 0x20, _TRANSFER_EVENT_SIGNATURE, shr(96, from_), shr(96, mload(0x0c))) */\n      log3\n        /* \"https://github.com/Vectorized/solady/blob/main/src/tokens/ERC20.sol\":13772:15834  {... */\n      pop\n      pop\n      pop\n      pop\n      pop\n      pop\n        /* \"https://github.com/Vectorized/solady/blob/main/src/tokens/ERC20.sol\":11387:15844  if (_givePermit2InfiniteAllowance()) {... */\n    tag_128:\n        /* \"https://github.com/Vectorized/solady/blob/main/src/tokens/ERC20.sol\":15853:15890  _afterTokenTransfer(from, to, amount) */\n      tag_132\n        /* \"https://github.com/Vectorized/solady/blob/main/src/tokens/ERC20.sol\":15873:15877  from */\n      dup5\n        /* \"https://github.com/Vectorized/solady/blob/main/src/tokens/ERC20.sol\":15879:15881  to */\n      dup5\n        /* \"https://github.com/Vectorized/solady/blob/main/src/tokens/ERC20.sol\":15883:15889  amount */\n      dup5\n        /* \"https://github.com/Vectorized/solady/blob/main/src/tokens/ERC20.sol\":15853:15872  _afterTokenTransfer */\n      tag_133\n        /* \"https://github.com/Vectorized/solady/blob/main/src/tokens/ERC20.sol\":15853:15890  _afterTokenTransfer(from, to, amount) */\n      jump\t// in\n    tag_132:\n        /* \"https://github.com/Vectorized/solady/blob/main/src/tokens/ERC20.sol\":15907:15911  true */\n      0x01\n        /* \"https://github.com/Vectorized/solady/blob/main/src/tokens/ERC20.sol\":15900:15911  return true */\n      swap1\n      pop\n        /* \"https://github.com/Vectorized/solady/blob/main/src/tokens/ERC20.sol\":11165:15918  function transferFrom(address from, address to, uint256 amount) public virtual returns (bool) {... */\n      swap4\n      swap3\n      pop\n      pop\n      pop\n      jump\t// out\n        /* \"https://github.com/Vectorized/solady/blob/main/src/tokens/ERC20.sol\":6480:6562  function decimals() public view virtual returns (uint8) {... */\n    tag_47:\n        /* \"https://github.com/Vectorized/solady/blob/main/src/tokens/ERC20.sol\":6529:6534  uint8 */\n      0x00\n        /* \"https://github.com/Vectorized/solady/blob/main/src/tokens/ERC20.sol\":6553:6555  18 */\n      0x12\n        /* \"https://github.com/Vectorized/solady/blob/main/src/tokens/ERC20.sol\":6546:6555  return 18 */\n      swap1\n      pop\n        /* \"https://github.com/Vectorized/solady/blob/main/src/tokens/ERC20.sol\":6480:6562  function decimals() public view virtual returns (uint8) {... */\n      swap1\n      jump\t// out\n        /* \"https://github.com/Vectorized/solady/blob/main/src/tokens/ERC20.sol\":21458:22195  function DOMAIN_SEPARATOR() public view virtual returns (bytes32 result) {... */\n    tag_52:\n        /* \"https://github.com/Vectorized/solady/blob/main/src/tokens/ERC20.sol\":21515:21529  bytes32 result */\n      0x00\n        /* \"https://github.com/Vectorized/solady/blob/main/src/tokens/ERC20.sol\":21541:21557  bytes32 nameHash */\n      0x00\n        /* \"https://github.com/Vectorized/solady/blob/main/src/tokens/ERC20.sol\":21560:21579  _constantNameHash() */\n      tag_136\n        /* \"https://github.com/Vectorized/solady/blob/main/src/tokens/ERC20.sol\":21560:21577  _constantNameHash */\n      tag_137\n        /* \"https://github.com/Vectorized/solady/blob/main/src/tokens/ERC20.sol\":21560:21579  _constantNameHash() */\n      jump\t// in\n    tag_136:\n        /* \"https://github.com/Vectorized/solady/blob/main/src/tokens/ERC20.sol\":21541:21579  bytes32 nameHash = _constantNameHash() */\n      swap1\n      pop\n        /* \"https://github.com/Vectorized/solady/blob/main/src/tokens/ERC20.sol\":21707:21708  0 */\n      0x00\n        /* \"https://github.com/Vectorized/solady/blob/main/src/tokens/ERC20.sol\":21699:21709  bytes32(0) */\n      0x00\n      shl\n        /* \"https://github.com/Vectorized/solady/blob/main/src/tokens/ERC20.sol\":21687:21695  nameHash */\n      dup2\n        /* \"https://github.com/Vectorized/solady/blob/main/src/tokens/ERC20.sol\":21687:21709  nameHash == bytes32(0) */\n      sub\n        /* \"https://github.com/Vectorized/solady/blob/main/src/tokens/ERC20.sol\":21683:21746  if (nameHash == bytes32(0)) nameHash = keccak256(bytes(name())) */\n      tag_138\n      jumpi\n        /* \"https://github.com/Vectorized/solady/blob/main/src/tokens/ERC20.sol\":21738:21744  name() */\n      tag_139\n        /* \"https://github.com/Vectorized/solady/blob/main/src/tokens/ERC20.sol\":21738:21742  name */\n      tag_24\n        /* \"https://github.com/Vectorized/solady/blob/main/src/tokens/ERC20.sol\":21738:21744  name() */\n      jump\t// in\n    tag_139:\n        /* \"https://github.com/Vectorized/solady/blob/main/src/tokens/ERC20.sol\":21722:21746  keccak256(bytes(name())) */\n      dup1\n      mload\n      swap1\n      0x20\n      add\n      keccak256\n        /* \"https://github.com/Vectorized/solady/blob/main/src/tokens/ERC20.sol\":21711:21746  nameHash = keccak256(bytes(name())) */\n      swap1\n      pop\n        /* \"https://github.com/Vectorized/solady/blob/main/src/tokens/ERC20.sol\":21683:21746  if (nameHash == bytes32(0)) nameHash = keccak256(bytes(name())) */\n    tag_138:\n        /* \"https://github.com/Vectorized/solady/blob/main/src/tokens/ERC20.sol\":21756:21775  bytes32 versionHash */\n      0x00\n        /* \"https://github.com/Vectorized/solady/blob/main/src/tokens/ERC20.sol\":21778:21792  _versionHash() */\n      tag_140\n        /* \"https://github.com/Vectorized/solady/blob/main/src/tokens/ERC20.sol\":21778:21790  _versionHash */\n      tag_141\n        /* \"https://github.com/Vectorized/solady/blob/main/src/tokens/ERC20.sol\":21778:21792  _versionHash() */\n      jump\t// in\n    tag_140:\n        /* \"https://github.com/Vectorized/solady/blob/main/src/tokens/ERC20.sol\":21756:21792  bytes32 versionHash = _versionHash() */\n      swap1\n      pop\n        /* \"https://github.com/Vectorized/solady/blob/main/src/tokens/ERC20.sol\":21883:21887  0x40 */\n      0x40\n        /* \"https://github.com/Vectorized/solady/blob/main/src/tokens/ERC20.sol\":21877:21888  mload(0x40) */\n      mload\n        /* \"https://github.com/Vectorized/solady/blob/main/src/tokens/ERC20.sol\":21944:21960  _DOMAIN_TYPEHASH */\n      0x8b73c3c69bb8fe3d512ecc4cf759cc79239f7b179b0ffacaa9a75d522b39400f\n        /* \"https://github.com/Vectorized/solady/blob/main/src/tokens/ERC20.sol\":21941:21942  m */\n      dup2\n        /* \"https://github.com/Vectorized/solady/blob/main/src/tokens/ERC20.sol\":21934:21961  mstore(m, _DOMAIN_TYPEHASH) */\n      mstore\n        /* \"https://github.com/Vectorized/solady/blob/main/src/tokens/ERC20.sol\":21995:22003  nameHash */\n      dup3\n        /* \"https://github.com/Vectorized/solady/blob/main/src/tokens/ERC20.sol\":21988:21992  0x20 */\n      0x20\n        /* \"https://github.com/Vectorized/solady/blob/main/src/tokens/ERC20.sol\":21985:21986  m */\n      dup3\n        /* \"https://github.com/Vectorized/solady/blob/main/src/tokens/ERC20.sol\":21981:21993  add(m, 0x20) */\n      add\n        /* \"https://github.com/Vectorized/solady/blob/main/src/tokens/ERC20.sol\":21974:22004  mstore(add(m, 0x20), nameHash) */\n      mstore\n        /* \"https://github.com/Vectorized/solady/blob/main/src/tokens/ERC20.sol\":22038:22049  versionHash */\n      dup2\n        /* \"https://github.com/Vectorized/solady/blob/main/src/tokens/ERC20.sol\":22031:22035  0x40 */\n      0x40\n        /* \"https://github.com/Vectorized/solady/blob/main/src/tokens/ERC20.sol\":22028:22029  m */\n      dup3\n        /* \"https://github.com/Vectorized/solady/blob/main/src/tokens/ERC20.sol\":22024:22036  add(m, 0x40) */\n      add\n        /* \"https://github.com/Vectorized/solady/blob/main/src/tokens/ERC20.sol\":22017:22050  mstore(add(m, 0x40), versionHash) */\n      mstore\n        /* \"https://github.com/Vectorized/solady/blob/main/src/tokens/ERC20.sol\":22084:22093  chainid() */\n      chainid\n        /* \"https://github.com/Vectorized/solady/blob/main/src/tokens/ERC20.sol\":22077:22081  0x60 */\n      0x60\n        /* \"https://github.com/Vectorized/solady/blob/main/src/tokens/ERC20.sol\":22074:22075  m */\n      dup3\n        /* \"https://github.com/Vectorized/solady/blob/main/src/tokens/ERC20.sol\":22070:22082  add(m, 0x60) */\n      add\n        /* \"https://github.com/Vectorized/solady/blob/main/src/tokens/ERC20.sol\":22063:22094  mstore(add(m, 0x60), chainid()) */\n      mstore\n        /* \"https://github.com/Vectorized/solady/blob/main/src/tokens/ERC20.sol\":22128:22137  address() */\n      address\n        /* \"https://github.com/Vectorized/solady/blob/main/src/tokens/ERC20.sol\":22121:22125  0x80 */\n      0x80\n        /* \"https://github.com/Vectorized/solady/blob/main/src/tokens/ERC20.sol\":22118:22119  m */\n      dup3\n        /* \"https://github.com/Vectorized/solady/blob/main/src/tokens/ERC20.sol\":22114:22126  add(m, 0x80) */\n      add\n        /* \"https://github.com/Vectorized/solady/blob/main/src/tokens/ERC20.sol\":22107:22138  mstore(add(m, 0x80), address()) */\n      mstore\n        /* \"https://github.com/Vectorized/solady/blob/main/src/tokens/ERC20.sol\":22174:22178  0xa0 */\n      0xa0\n        /* \"https://github.com/Vectorized/solady/blob/main/src/tokens/ERC20.sol\":22171:22172  m */\n      dup2\n        /* \"https://github.com/Vectorized/solady/blob/main/src/tokens/ERC20.sol\":22161:22179  keccak256(m, 0xa0) */\n      keccak256\n        /* \"https://github.com/Vectorized/solady/blob/main/src/tokens/ERC20.sol\":22151:22179  result := keccak256(m, 0xa0) */\n      swap4\n      pop\n        /* \"https://github.com/Vectorized/solady/blob/main/src/tokens/ERC20.sol\":21854:22189  {... */\n      pop\n      pop\n      pop\n        /* \"https://github.com/Vectorized/solady/blob/main/src/tokens/ERC20.sol\":21458:22195  function DOMAIN_SEPARATOR() public view virtual returns (bytes32 result) {... */\n      swap1\n      jump\t// out\n        /* \"src/ConstantOfferRatePool.sol\":202:230  ERC20 public immutable asset */\n    tag_57:\n      immutable(\"0xa9bbaa6544f2f8b29c05f1a13be9707eb10dfac9213907aecb24a613b51d37c6\")\n      dup2\n      jump\t// out\n        /* \"src/ConstantOfferRatePool.sol\":688:806  function deposit(uint assets,address receiver) payable public returns (uint) {... */\n    tag_63:\n        /* \"src/ConstantOfferRatePool.sol\":759:763  uint */\n      0x00\n        /* \"src/ConstantOfferRatePool.sol\":776:798  previewDeposit(assets) */\n      tag_143\n        /* \"src/ConstantOfferRatePool.sol\":791:797  assets */\n      dup4\n        /* \"src/ConstantOfferRatePool.sol\":776:790  previewDeposit */\n      tag_108\n        /* \"src/ConstantOfferRatePool.sol\":776:798  previewDeposit(assets) */\n      jump\t// in\n    tag_143:\n      pop\n        /* \"src/ConstantOfferRatePool.sol\":688:806  function deposit(uint assets,address receiver) payable public returns (uint) {... */\n      swap3\n      swap2\n      pop\n      pop\n      jump\t// out\n        /* \"https://github.com/Vectorized/solady/blob/main/src/tokens/ERC20.sol\":7168:7454  function balanceOf(address owner) public view virtual returns (uint256 result) {... */\n    tag_69:\n        /* \"https://github.com/Vectorized/solady/blob/main/src/tokens/ERC20.sol\":7231:7245  uint256 result */\n      0x00\n        /* \"https://github.com/Vectorized/solady/blob/main/src/tokens/ERC20.sol\":7336:7354  _BALANCE_SLOT_SEED */\n      0x87a211a2\n        /* \"https://github.com/Vectorized/solady/blob/main/src/tokens/ERC20.sol\":7330:7334  0x0c */\n      0x0c\n        /* \"https://github.com/Vectorized/solady/blob/main/src/tokens/ERC20.sol\":7323:7355  mstore(0x0c, _BALANCE_SLOT_SEED) */\n      mstore\n        /* \"https://github.com/Vectorized/solady/blob/main/src/tokens/ERC20.sol\":7381:7386  owner */\n      dup2\n        /* \"https://github.com/Vectorized/solady/blob/main/src/tokens/ERC20.sol\":7375:7379  0x00 */\n      0x00\n        /* \"https://github.com/Vectorized/solady/blob/main/src/tokens/ERC20.sol\":7368:7387  mstore(0x00, owner) */\n      mstore\n        /* \"https://github.com/Vectorized/solady/blob/main/src/tokens/ERC20.sol\":7432:7436  0x20 */\n      0x20\n        /* \"https://github.com/Vectorized/solady/blob/main/src/tokens/ERC20.sol\":7426:7430  0x0c */\n      0x0c\n        /* \"https://github.com/Vectorized/solady/blob/main/src/tokens/ERC20.sol\":7416:7437  keccak256(0x0c, 0x20) */\n      keccak256\n        /* \"https://github.com/Vectorized/solady/blob/main/src/tokens/ERC20.sol\":7410:7438  sload(keccak256(0x0c, 0x20)) */\n      sload\n        /* \"https://github.com/Vectorized/solady/blob/main/src/tokens/ERC20.sol\":7400:7438  result := sload(keccak256(0x0c, 0x20)) */\n      swap1\n      pop\n        /* \"https://github.com/Vectorized/solady/blob/main/src/tokens/ERC20.sol\":7168:7454  function balanceOf(address owner) public view virtual returns (uint256 result) {... */\n      swap2\n      swap1\n      pop\n      jump\t// out\n        /* \"https://github.com/Vectorized/solady/blob/main/src/tokens/ERC20.sol\":17137:17477  function nonces(address owner) public view virtual returns (uint256 result) {... */\n    tag_74:\n        /* \"https://github.com/Vectorized/solady/blob/main/src/tokens/ERC20.sol\":17197:17211  uint256 result */\n      0x00\n        /* \"https://github.com/Vectorized/solady/blob/main/src/tokens/ERC20.sol\":17360:17377  _NONCES_SLOT_SEED */\n      0x38377508\n        /* \"https://github.com/Vectorized/solady/blob/main/src/tokens/ERC20.sol\":17354:17358  0x0c */\n      0x0c\n        /* \"https://github.com/Vectorized/solady/blob/main/src/tokens/ERC20.sol\":17347:17378  mstore(0x0c, _NONCES_SLOT_SEED) */\n      mstore\n        /* \"https://github.com/Vectorized/solady/blob/main/src/tokens/ERC20.sol\":17404:17409  owner */\n      dup2\n        /* \"https://github.com/Vectorized/solady/blob/main/src/tokens/ERC20.sol\":17398:17402  0x00 */\n      0x00\n        /* \"https://github.com/Vectorized/solady/blob/main/src/tokens/ERC20.sol\":17391:17410  mstore(0x00, owner) */\n      mstore\n        /* \"https://github.com/Vectorized/solady/blob/main/src/tokens/ERC20.sol\":17455:17459  0x20 */\n      0x20\n        /* \"https://github.com/Vectorized/solady/blob/main/src/tokens/ERC20.sol\":17449:17453  0x0c */\n      0x0c\n        /* \"https://github.com/Vectorized/solady/blob/main/src/tokens/ERC20.sol\":17439:17460  keccak256(0x0c, 0x20) */\n      keccak256\n        /* \"https://github.com/Vectorized/solady/blob/main/src/tokens/ERC20.sol\":17433:17461  sload(keccak256(0x0c, 0x20)) */\n      sload\n        /* \"https://github.com/Vectorized/solady/blob/main/src/tokens/ERC20.sol\":17423:17461  result := sload(keccak256(0x0c, 0x20)) */\n      swap1\n      pop\n        /* \"https://github.com/Vectorized/solady/blob/main/src/tokens/ERC20.sol\":17137:17477  function nonces(address owner) public view virtual returns (uint256 result) {... */\n      swap2\n      swap1\n      pop\n      jump\t// out\n        /* \"src/ConstantOfferRatePool.sol\":497:613  function symbol() public view override returns (string memory){... */\n    tag_78:\n        /* \"src/ConstantOfferRatePool.sol\":545:558  string memory */\n      0x60\n        /* \"src/ConstantOfferRatePool.sol\":591:598  _symbol */\n      0x01\n        /* \"src/ConstantOfferRatePool.sol\":577:605  string.concat(_symbol,\"ETH\") */\n      add(0x20, mload(0x40))\n      tag_147\n      swap2\n      swap1\n      tag_148\n      jump\t// in\n    tag_147:\n      mload(0x40)\n      0x20\n      dup2\n      dup4\n      sub\n      sub\n      dup2\n      mstore\n      swap1\n      0x40\n      mstore\n        /* \"src/ConstantOfferRatePool.sol\":570:605  return string.concat(_symbol,\"ETH\") */\n      swap1\n      pop\n        /* \"src/ConstantOfferRatePool.sol\":497:613  function symbol() public view override returns (string memory){... */\n      swap1\n      jump\t// out\n        /* \"https://github.com/Vectorized/solady/blob/main/src/tokens/ERC20.sol\":9391:10797  function transfer(address to, uint256 amount) public virtual returns (bool) {... */\n    tag_83:\n        /* \"https://github.com/Vectorized/solady/blob/main/src/tokens/ERC20.sol\":9461:9465  bool */\n      0x00\n        /* \"https://github.com/Vectorized/solady/blob/main/src/tokens/ERC20.sol\":9477:9521  _beforeTokenTransfer(msg.sender, to, amount) */\n      tag_150\n        /* \"https://github.com/Vectorized/solady/blob/main/src/tokens/ERC20.sol\":9498:9508  msg.sender */\n      caller\n        /* \"https://github.com/Vectorized/solady/blob/main/src/tokens/ERC20.sol\":9510:9512  to */\n      dup5\n        /* \"https://github.com/Vectorized/solady/blob/main/src/tokens/ERC20.sol\":9514:9520  amount */\n      dup5\n        /* \"https://github.com/Vectorized/solady/blob/main/src/tokens/ERC20.sol\":9477:9497  _beforeTokenTransfer */\n      tag_121\n        /* \"https://github.com/Vectorized/solady/blob/main/src/tokens/ERC20.sol\":9477:9521  _beforeTokenTransfer(msg.sender, to, amount) */\n      jump\t// in\n    tag_150:\n        /* \"https://github.com/Vectorized/solady/blob/main/src/tokens/ERC20.sol\":9670:9688  _BALANCE_SLOT_SEED */\n      0x87a211a2\n        /* \"https://github.com/Vectorized/solady/blob/main/src/tokens/ERC20.sol\":9664:9668  0x0c */\n      0x0c\n        /* \"https://github.com/Vectorized/solady/blob/main/src/tokens/ERC20.sol\":9657:9689  mstore(0x0c, _BALANCE_SLOT_SEED) */\n      mstore\n        /* \"https://github.com/Vectorized/solady/blob/main/src/tokens/ERC20.sol\":9715:9723  caller() */\n      caller\n        /* \"https://github.com/Vectorized/solady/blob/main/src/tokens/ERC20.sol\":9709:9713  0x00 */\n      0x00\n        /* \"https://github.com/Vectorized/solady/blob/main/src/tokens/ERC20.sol\":9702:9724  mstore(0x00, caller()) */\n      mstore\n        /* \"https://github.com/Vectorized/solady/blob/main/src/tokens/ERC20.sol\":9776:9780  0x20 */\n      0x20\n        /* \"https://github.com/Vectorized/solady/blob/main/src/tokens/ERC20.sol\":9770:9774  0x0c */\n      0x0c\n        /* \"https://github.com/Vectorized/solady/blob/main/src/tokens/ERC20.sol\":9760:9781  keccak256(0x0c, 0x20) */\n      keccak256\n        /* \"https://github.com/Vectorized/solady/blob/main/src/tokens/ERC20.sol\":9819:9834  fromBalanceSlot */\n      dup1\n        /* \"https://github.com/Vectorized/solady/blob/main/src/tokens/ERC20.sol\":9813:9835  sload(fromBalanceSlot) */\n      sload\n        /* \"https://github.com/Vectorized/solady/blob/main/src/tokens/ERC20.sol\":9909:9920  fromBalance */\n      dup1\n        /* \"https://github.com/Vectorized/solady/blob/main/src/tokens/ERC20.sol\":9901:9907  amount */\n      dup5\n        /* \"https://github.com/Vectorized/solady/blob/main/src/tokens/ERC20.sol\":9898:9921  gt(amount, fromBalance) */\n      gt\n        /* \"https://github.com/Vectorized/solady/blob/main/src/tokens/ERC20.sol\":9895:10041  if gt(amount, fromBalance) {... */\n      iszero\n      tag_151\n      jumpi\n        /* \"https://github.com/Vectorized/solady/blob/main/src/tokens/ERC20.sol\":9953:9963  0xf4d678b8 */\n      0xf4d678b8\n        /* \"https://github.com/Vectorized/solady/blob/main/src/tokens/ERC20.sol\":9947:9951  0x00 */\n      0x00\n        /* \"https://github.com/Vectorized/solady/blob/main/src/tokens/ERC20.sol\":9940:9964  mstore(0x00, 0xf4d678b8) */\n      mstore\n        /* \"https://github.com/Vectorized/solady/blob/main/src/tokens/ERC20.sol\":10022:10026  0x04 */\n      0x04\n        /* \"https://github.com/Vectorized/solady/blob/main/src/tokens/ERC20.sol\":10016:10020  0x1c */\n      0x1c\n        /* \"https://github.com/Vectorized/solady/blob/main/src/tokens/ERC20.sol\":10009:10027  revert(0x1c, 0x04) */\n      revert\n        /* \"https://github.com/Vectorized/solady/blob/main/src/tokens/ERC20.sol\":9895:10041  if gt(amount, fromBalance) {... */\n    tag_151:\n        /* \"https://github.com/Vectorized/solady/blob/main/src/tokens/ERC20.sol\":10150:10156  amount */\n      dup4\n        /* \"https://github.com/Vectorized/solady/blob/main/src/tokens/ERC20.sol\":10137:10148  fromBalance */\n      dup2\n        /* \"https://github.com/Vectorized/solady/blob/main/src/tokens/ERC20.sol\":10133:10157  sub(fromBalance, amount) */\n      sub\n        /* \"https://github.com/Vectorized/solady/blob/main/src/tokens/ERC20.sol\":10116:10131  fromBalanceSlot */\n      dup3\n        /* \"https://github.com/Vectorized/solady/blob/main/src/tokens/ERC20.sol\":10109:10158  sstore(fromBalanceSlot, sub(fromBalance, amount)) */\n      sstore\n        /* \"https://github.com/Vectorized/solady/blob/main/src/tokens/ERC20.sol\":10233:10235  to */\n      dup5\n        /* \"https://github.com/Vectorized/solady/blob/main/src/tokens/ERC20.sol\":10227:10231  0x00 */\n      0x00\n        /* \"https://github.com/Vectorized/solady/blob/main/src/tokens/ERC20.sol\":10220:10236  mstore(0x00, to) */\n      mstore\n        /* \"https://github.com/Vectorized/solady/blob/main/src/tokens/ERC20.sol\":10286:10290  0x20 */\n      0x20\n        /* \"https://github.com/Vectorized/solady/blob/main/src/tokens/ERC20.sol\":10280:10284  0x0c */\n      0x0c\n        /* \"https://github.com/Vectorized/solady/blob/main/src/tokens/ERC20.sol\":10270:10291  keccak256(0x0c, 0x20) */\n      keccak256\n        /* \"https://github.com/Vectorized/solady/blob/main/src/tokens/ERC20.sol\":10536:10542  amount */\n      dup5\n        /* \"https://github.com/Vectorized/solady/blob/main/src/tokens/ERC20.sol\":10520:10533  toBalanceSlot */\n      dup2\n        /* \"https://github.com/Vectorized/solady/blob/main/src/tokens/ERC20.sol\":10514:10534  sload(toBalanceSlot) */\n      sload\n        /* \"https://github.com/Vectorized/solady/blob/main/src/tokens/ERC20.sol\":10510:10543  add(sload(toBalanceSlot), amount) */\n      add\n        /* \"https://github.com/Vectorized/solady/blob/main/src/tokens/ERC20.sol\":10495:10508  toBalanceSlot */\n      dup2\n        /* \"https://github.com/Vectorized/solady/blob/main/src/tokens/ERC20.sol\":10488:10544  sstore(toBalanceSlot, add(sload(toBalanceSlot), amount)) */\n      sstore\n        /* \"https://github.com/Vectorized/solady/blob/main/src/tokens/ERC20.sol\":10612:10618  amount */\n      dup5\n        /* \"https://github.com/Vectorized/solady/blob/main/src/tokens/ERC20.sol\":10606:10610  0x20 */\n      0x20\n        /* \"https://github.com/Vectorized/solady/blob/main/src/tokens/ERC20.sol\":10599:10619  mstore(0x20, amount) */\n      mstore\n        /* \"https://github.com/Vectorized/solady/blob/main/src/tokens/ERC20.sol\":10700:10704  0x0c */\n      0x0c\n        /* \"https://github.com/Vectorized/solady/blob/main/src/tokens/ERC20.sol\":10694:10705  mload(0x0c) */\n      mload\n        /* \"https://github.com/Vectorized/solady/blob/main/src/tokens/ERC20.sol\":10690:10692  96 */\n      0x60\n        /* \"https://github.com/Vectorized/solady/blob/main/src/tokens/ERC20.sol\":10686:10706  shr(96, mload(0x0c)) */\n      shr\n        /* \"https://github.com/Vectorized/solady/blob/main/src/tokens/ERC20.sol\":10676:10684  caller() */\n      caller\n        /* \"https://github.com/Vectorized/solady/blob/main/src/tokens/ERC20.sol\":10649:10674  _TRANSFER_EVENT_SIGNATURE */\n      0xddf252ad1be2c89b69c2b068fc378daa952ba7f163c4a11628f55a4df523b3ef\n        /* \"https://github.com/Vectorized/solady/blob/main/src/tokens/ERC20.sol\":10643:10647  0x20 */\n      0x20\n        /* \"https://github.com/Vectorized/solady/blob/main/src/tokens/ERC20.sol\":10637:10641  0x20 */\n      dup1\n        /* \"https://github.com/Vectorized/solady/blob/main/src/tokens/ERC20.sol\":10632:10707  log3(0x20, 0x20, _TRANSFER_EVENT_SIGNATURE, caller(), shr(96, mload(0x0c))) */\n      log3\n        /* \"https://github.com/Vectorized/solady/blob/main/src/tokens/ERC20.sol\":9583:10717  {... */\n      pop\n      pop\n      pop\n        /* \"https://github.com/Vectorized/solady/blob/main/src/tokens/ERC20.sol\":10726:10769  _afterTokenTransfer(msg.sender, to, amount) */\n      tag_152\n        /* \"https://github.com/Vectorized/solady/blob/main/src/tokens/ERC20.sol\":10746:10756  msg.sender */\n      caller\n        /* \"https://github.com/Vectorized/solady/blob/main/src/tokens/ERC20.sol\":10758:10760  to */\n      dup5\n        /* \"https://github.com/Vectorized/solady/blob/main/src/tokens/ERC20.sol\":10762:10768  amount */\n      dup5\n        /* \"https://github.com/Vectorized/solady/blob/main/src/tokens/ERC20.sol\":10726:10745  _afterTokenTransfer */\n      tag_133\n        /* \"https://github.com/Vectorized/solady/blob/main/src/tokens/ERC20.sol\":10726:10769  _afterTokenTransfer(msg.sender, to, amount) */\n      jump\t// in\n    tag_152:\n        /* \"https://github.com/Vectorized/solady/blob/main/src/tokens/ERC20.sol\":10786:10790  true */\n      0x01\n        /* \"https://github.com/Vectorized/solady/blob/main/src/tokens/ERC20.sol\":10779:10790  return true */\n      swap1\n      pop\n        /* \"https://github.com/Vectorized/solady/blob/main/src/tokens/ERC20.sol\":9391:10797  function transfer(address to, uint256 amount) public virtual returns (bool) {... */\n      swap3\n      swap2\n      pop\n      pop\n      jump\t// out\n        /* \"src/ConstantOfferRatePool.sol\":263:284  string public _symbol */\n    tag_87:\n      0x01\n      dup1\n      sload\n      tag_153\n      swap1\n      tag_154\n      jump\t// in\n    tag_153:\n      dup1\n      0x1f\n      add\n      0x20\n      dup1\n      swap2\n      div\n      mul\n      0x20\n      add\n      mload(0x40)\n      swap1\n      dup2\n      add\n      0x40\n      mstore\n      dup1\n      swap3\n      swap2\n      swap1\n      dup2\n      dup2\n      mstore\n      0x20\n      add\n      dup3\n      dup1\n      sload\n      tag_155\n      swap1\n      tag_154\n      jump\t// in\n    tag_155:\n      dup1\n      iszero\n      tag_156\n      jumpi\n      dup1\n      0x1f\n      lt\n      tag_157\n      jumpi\n      0x0100\n      dup1\n      dup4\n      sload\n      div\n      mul\n      dup4\n      mstore\n      swap2\n      0x20\n      add\n      swap2\n      jump(tag_156)\n    tag_157:\n      dup3\n      add\n      swap2\n      swap1\n      0x00\n      mstore\n      keccak256(0x00, 0x20)\n      swap1\n    tag_158:\n      dup2\n      sload\n      dup2\n      mstore\n      swap1\n      0x01\n      add\n      swap1\n      0x20\n      add\n      dup1\n      dup4\n      gt\n      tag_158\n      jumpi\n      dup3\n      swap1\n      sub\n      0x1f\n      and\n      dup3\n      add\n      swap2\n    tag_156:\n      pop\n      pop\n      pop\n      pop\n      pop\n      dup2\n      jump\t// out\n        /* \"src/ConstantOfferRatePool.sol\":237:256  string public _name */\n    tag_91:\n      0x00\n      dup1\n      sload\n      tag_159\n      swap1\n      tag_154\n      jump\t// in\n    tag_159:\n      dup1\n      0x1f\n      add\n      0x20\n      dup1\n      swap2\n      div\n      mul\n      0x20\n      add\n      mload(0x40)\n      swap1\n      dup2\n      add\n      0x40\n      mstore\n      dup1\n      swap3\n      swap2\n      swap1\n      dup2\n      dup2\n      mstore\n      0x20\n      add\n      dup3\n      dup1\n      sload\n      tag_160\n      swap1\n      tag_154\n      jump\t// in\n    tag_160:\n      dup1\n      iszero\n      tag_161\n      jumpi\n      dup1\n      0x1f\n      lt\n      tag_162\n      jumpi\n      0x0100\n      dup1\n      dup4\n      sload\n      div\n      mul\n      dup4\n      mstore\n      swap2\n      0x20\n      add\n      swap2\n      jump(tag_161)\n    tag_162:\n      dup3\n      add\n      swap2\n      swap1\n      0x00\n      mstore\n      keccak256(0x00, 0x20)\n      swap1\n    tag_163:\n      dup2\n      sload\n      dup2\n      mstore\n      swap1\n      0x01\n      add\n      swap1\n      0x20\n      add\n      dup1\n      dup4\n      gt\n      tag_163\n      jumpi\n      dup3\n      swap1\n      sub\n      0x1f\n      and\n      dup3\n      add\n      swap2\n    tag_161:\n      pop\n      pop\n      pop\n      pop\n      pop\n      dup2\n      jump\t// out\n        /* \"https://github.com/Vectorized/solady/blob/main/src/tokens/ERC20.sol\":17661:21377  function permit(... */\n    tag_97:\n        /* \"https://github.com/Vectorized/solady/blob/main/src/tokens/ERC20.sol\":17864:17895  _givePermit2InfiniteAllowance() */\n      tag_165\n        /* \"https://github.com/Vectorized/solady/blob/main/src/tokens/ERC20.sol\":17864:17893  _givePermit2InfiniteAllowance */\n      tag_115\n        /* \"https://github.com/Vectorized/solady/blob/main/src/tokens/ERC20.sol\":17864:17895  _givePermit2InfiniteAllowance() */\n      jump\t// in\n    tag_165:\n        /* \"https://github.com/Vectorized/solady/blob/main/src/tokens/ERC20.sol\":17860:18305  if (_givePermit2InfiniteAllowance()) {... */\n      iszero\n      tag_166\n      jumpi\n        /* \"https://github.com/Vectorized/solady/blob/main/src/tokens/ERC20.sol\":18126:18131  value */\n      dup5\n        /* \"https://github.com/Vectorized/solady/blob/main/src/tokens/ERC20.sol\":18122:18132  not(value) */\n      not\n        /* \"https://github.com/Vectorized/solady/blob/main/src/tokens/ERC20.sol\":18115:18133  iszero(not(value)) */\n      iszero\n        /* \"https://github.com/Vectorized/solady/blob/main/src/tokens/ERC20.sol\":18104:18112  _PERMIT2 */\n      0x22d473030f116ddee9f6b43ac78ba3\n        /* \"https://github.com/Vectorized/solady/blob/main/src/tokens/ERC20.sol\":18093:18100  spender */\n      dup8\n        /* \"https://github.com/Vectorized/solady/blob/main/src/tokens/ERC20.sol\":18089:18091  96 */\n      0x60\n        /* \"https://github.com/Vectorized/solady/blob/main/src/tokens/ERC20.sol\":18085:18101  shl(96, spender) */\n      shl\n        /* \"https://github.com/Vectorized/solady/blob/main/src/tokens/ERC20.sol\":18081:18083  96 */\n      0x60\n        /* \"https://github.com/Vectorized/solady/blob/main/src/tokens/ERC20.sol\":18077:18102  shr(96, shl(96, spender)) */\n      shr\n        /* \"https://github.com/Vectorized/solady/blob/main/src/tokens/ERC20.sol\":18073:18113  xor(shr(96, shl(96, spender)), _PERMIT2) */\n      xor\n        /* \"https://github.com/Vectorized/solady/blob/main/src/tokens/ERC20.sol\":18070:18134  or(xor(shr(96, shl(96, spender)), _PERMIT2), iszero(not(value))) */\n      or\n        /* \"https://github.com/Vectorized/solady/blob/main/src/tokens/ERC20.sol\":18060:18281  if iszero(or(xor(shr(96, shl(96, spender)), _PERMIT2), iszero(not(value)))) {... */\n      tag_167\n      jumpi\n        /* \"https://github.com/Vectorized/solady/blob/main/src/tokens/ERC20.sol\":18171:18181  0x3f68539a */\n      0x3f68539a\n        /* \"https://github.com/Vectorized/solady/blob/main/src/tokens/ERC20.sol\":18165:18169  0x00 */\n      0x00\n        /* \"https://github.com/Vectorized/solady/blob/main/src/tokens/ERC20.sol\":18158:18182  mstore(0x00, 0x3f68539a) */\n      mstore\n        /* \"https://github.com/Vectorized/solady/blob/main/src/tokens/ERC20.sol\":18258:18262  0x04 */\n      0x04\n        /* \"https://github.com/Vectorized/solady/blob/main/src/tokens/ERC20.sol\":18252:18256  0x1c */\n      0x1c\n        /* \"https://github.com/Vectorized/solady/blob/main/src/tokens/ERC20.sol\":18245:18263  revert(0x1c, 0x04) */\n      revert\n        /* \"https://github.com/Vectorized/solady/blob/main/src/tokens/ERC20.sol\":18060:18281  if iszero(or(xor(shr(96, shl(96, spender)), _PERMIT2), iszero(not(value)))) {... */\n    tag_167:\n        /* \"https://github.com/Vectorized/solady/blob/main/src/tokens/ERC20.sol\":17860:18305  if (_givePermit2InfiniteAllowance()) {... */\n    tag_166:\n        /* \"https://github.com/Vectorized/solady/blob/main/src/tokens/ERC20.sol\":18314:18330  bytes32 nameHash */\n      0x00\n        /* \"https://github.com/Vectorized/solady/blob/main/src/tokens/ERC20.sol\":18333:18352  _constantNameHash() */\n      tag_168\n        /* \"https://github.com/Vectorized/solady/blob/main/src/tokens/ERC20.sol\":18333:18350  _constantNameHash */\n      tag_137\n        /* \"https://github.com/Vectorized/solady/blob/main/src/tokens/ERC20.sol\":18333:18352  _constantNameHash() */\n      jump\t// in\n    tag_168:\n        /* \"https://github.com/Vectorized/solady/blob/main/src/tokens/ERC20.sol\":18314:18352  bytes32 nameHash = _constantNameHash() */\n      swap1\n      pop\n        /* \"https://github.com/Vectorized/solady/blob/main/src/tokens/ERC20.sol\":18480:18481  0 */\n      0x00\n        /* \"https://github.com/Vectorized/solady/blob/main/src/tokens/ERC20.sol\":18472:18482  bytes32(0) */\n      0x00\n      shl\n        /* \"https://github.com/Vectorized/solady/blob/main/src/tokens/ERC20.sol\":18460:18468  nameHash */\n      dup2\n        /* \"https://github.com/Vectorized/solady/blob/main/src/tokens/ERC20.sol\":18460:18482  nameHash == bytes32(0) */\n      sub\n        /* \"https://github.com/Vectorized/solady/blob/main/src/tokens/ERC20.sol\":18456:18519  if (nameHash == bytes32(0)) nameHash = keccak256(bytes(name())) */\n      tag_169\n      jumpi\n        /* \"https://github.com/Vectorized/solady/blob/main/src/tokens/ERC20.sol\":18511:18517  name() */\n      tag_170\n        /* \"https://github.com/Vectorized/solady/blob/main/src/tokens/ERC20.sol\":18511:18515  name */\n      tag_24\n        /* \"https://github.com/Vectorized/solady/blob/main/src/tokens/ERC20.sol\":18511:18517  name() */\n      jump\t// in\n    tag_170:\n        /* \"https://github.com/Vectorized/solady/blob/main/src/tokens/ERC20.sol\":18495:18519  keccak256(bytes(name())) */\n      dup1\n      mload\n      swap1\n      0x20\n      add\n      keccak256\n        /* \"https://github.com/Vectorized/solady/blob/main/src/tokens/ERC20.sol\":18484:18519  nameHash = keccak256(bytes(name())) */\n      swap1\n      pop\n        /* \"https://github.com/Vectorized/solady/blob/main/src/tokens/ERC20.sol\":18456:18519  if (nameHash == bytes32(0)) nameHash = keccak256(bytes(name())) */\n    tag_169:\n        /* \"https://github.com/Vectorized/solady/blob/main/src/tokens/ERC20.sol\":18529:18548  bytes32 versionHash */\n      0x00\n        /* \"https://github.com/Vectorized/solady/blob/main/src/tokens/ERC20.sol\":18551:18565  _versionHash() */\n      tag_171\n        /* \"https://github.com/Vectorized/solady/blob/main/src/tokens/ERC20.sol\":18551:18563  _versionHash */\n      tag_141\n        /* \"https://github.com/Vectorized/solady/blob/main/src/tokens/ERC20.sol\":18551:18565  _versionHash() */\n      jump\t// in\n    tag_171:\n        /* \"https://github.com/Vectorized/solady/blob/main/src/tokens/ERC20.sol\":18529:18565  bytes32 versionHash = _versionHash() */\n      swap1\n      pop\n        /* \"https://github.com/Vectorized/solady/blob/main/src/tokens/ERC20.sol\":18733:18741  deadline */\n      dup6\n        /* \"https://github.com/Vectorized/solady/blob/main/src/tokens/ERC20.sol\":18720:18731  timestamp() */\n      timestamp\n        /* \"https://github.com/Vectorized/solady/blob/main/src/tokens/ERC20.sol\":18717:18742  gt(timestamp(), deadline) */\n      gt\n        /* \"https://github.com/Vectorized/solady/blob/main/src/tokens/ERC20.sol\":18714:18856  if gt(timestamp(), deadline) {... */\n      iszero\n      tag_172\n      jumpi\n        /* \"https://github.com/Vectorized/solady/blob/main/src/tokens/ERC20.sol\":18774:18784  0x1a15a3cc */\n      0x1a15a3cc\n        /* \"https://github.com/Vectorized/solady/blob/main/src/tokens/ERC20.sol\":18768:18772  0x00 */\n      0x00\n        /* \"https://github.com/Vectorized/solady/blob/main/src/tokens/ERC20.sol\":18761:18785  mstore(0x00, 0x1a15a3cc) */\n      mstore\n        /* \"https://github.com/Vectorized/solady/blob/main/src/tokens/ERC20.sol\":18837:18841  0x04 */\n      0x04\n        /* \"https://github.com/Vectorized/solady/blob/main/src/tokens/ERC20.sol\":18831:18835  0x1c */\n      0x1c\n        /* \"https://github.com/Vectorized/solady/blob/main/src/tokens/ERC20.sol\":18824:18842  revert(0x1c, 0x04) */\n      revert\n        /* \"https://github.com/Vectorized/solady/blob/main/src/tokens/ERC20.sol\":18714:18856  if gt(timestamp(), deadline) {... */\n    tag_172:\n        /* \"https://github.com/Vectorized/solady/blob/main/src/tokens/ERC20.sol\":18884:18888  0x40 */\n      0x40\n        /* \"https://github.com/Vectorized/solady/blob/main/src/tokens/ERC20.sol\":18878:18889  mload(0x40) */\n      mload\n        /* \"https://github.com/Vectorized/solady/blob/main/src/tokens/ERC20.sol\":19000:19005  owner */\n      dup10\n        /* \"https://github.com/Vectorized/solady/blob/main/src/tokens/ERC20.sol\":18996:18998  96 */\n      0x60\n        /* \"https://github.com/Vectorized/solady/blob/main/src/tokens/ERC20.sol\":18992:19006  shl(96, owner) */\n      shl\n        /* \"https://github.com/Vectorized/solady/blob/main/src/tokens/ERC20.sol\":18988:18990  96 */\n      0x60\n        /* \"https://github.com/Vectorized/solady/blob/main/src/tokens/ERC20.sol\":18984:19007  shr(96, shl(96, owner)) */\n      shr\n        /* \"https://github.com/Vectorized/solady/blob/main/src/tokens/ERC20.sol\":18975:19007  owner := shr(96, shl(96, owner)) */\n      swap10\n      pop\n        /* \"https://github.com/Vectorized/solady/blob/main/src/tokens/ERC20.sol\":19047:19054  spender */\n      dup9\n        /* \"https://github.com/Vectorized/solady/blob/main/src/tokens/ERC20.sol\":19043:19045  96 */\n      0x60\n        /* \"https://github.com/Vectorized/solady/blob/main/src/tokens/ERC20.sol\":19039:19055  shl(96, spender) */\n      shl\n        /* \"https://github.com/Vectorized/solady/blob/main/src/tokens/ERC20.sol\":19035:19037  96 */\n      0x60\n        /* \"https://github.com/Vectorized/solady/blob/main/src/tokens/ERC20.sol\":19031:19056  shr(96, shl(96, spender)) */\n      shr\n        /* \"https://github.com/Vectorized/solady/blob/main/src/tokens/ERC20.sol\":19020:19056  spender := shr(96, shl(96, spender)) */\n      swap9\n      pop\n        /* \"https://github.com/Vectorized/solady/blob/main/src/tokens/ERC20.sol\":19140:19179  _NONCES_SLOT_SEED_WITH_SIGNATURE_PREFIX */\n      0x383775081901\n        /* \"https://github.com/Vectorized/solady/blob/main/src/tokens/ERC20.sol\":19134:19138  0x0e */\n      0x0e\n        /* \"https://github.com/Vectorized/solady/blob/main/src/tokens/ERC20.sol\":19127:19180  mstore(0x0e, _NONCES_SLOT_SEED_WITH_SIGNATURE_PREFIX) */\n      mstore\n        /* \"https://github.com/Vectorized/solady/blob/main/src/tokens/ERC20.sol\":19206:19211  owner */\n      dup10\n        /* \"https://github.com/Vectorized/solady/blob/main/src/tokens/ERC20.sol\":19200:19204  0x00 */\n      0x00\n        /* \"https://github.com/Vectorized/solady/blob/main/src/tokens/ERC20.sol\":19193:19212  mstore(0x00, owner) */\n      mstore\n        /* \"https://github.com/Vectorized/solady/blob/main/src/tokens/ERC20.sol\":19258:19262  0x20 */\n      0x20\n        /* \"https://github.com/Vectorized/solady/blob/main/src/tokens/ERC20.sol\":19252:19256  0x0c */\n      0x0c\n        /* \"https://github.com/Vectorized/solady/blob/main/src/tokens/ERC20.sol\":19242:19263  keccak256(0x0c, 0x20) */\n      keccak256\n        /* \"https://github.com/Vectorized/solady/blob/main/src/tokens/ERC20.sol\":19300:19309  nonceSlot */\n      dup1\n        /* \"https://github.com/Vectorized/solady/blob/main/src/tokens/ERC20.sol\":19294:19310  sload(nonceSlot) */\n      sload\n        /* \"https://github.com/Vectorized/solady/blob/main/src/tokens/ERC20.sol\":19378:19394  _DOMAIN_TYPEHASH */\n      0x8b73c3c69bb8fe3d512ecc4cf759cc79239f7b179b0ffacaa9a75d522b39400f\n        /* \"https://github.com/Vectorized/solady/blob/main/src/tokens/ERC20.sol\":19375:19376  m */\n      dup4\n        /* \"https://github.com/Vectorized/solady/blob/main/src/tokens/ERC20.sol\":19368:19395  mstore(m, _DOMAIN_TYPEHASH) */\n      mstore\n        /* \"https://github.com/Vectorized/solady/blob/main/src/tokens/ERC20.sol\":19429:19437  nameHash */\n      dup5\n        /* \"https://github.com/Vectorized/solady/blob/main/src/tokens/ERC20.sol\":19422:19426  0x20 */\n      0x20\n        /* \"https://github.com/Vectorized/solady/blob/main/src/tokens/ERC20.sol\":19419:19420  m */\n      dup5\n        /* \"https://github.com/Vectorized/solady/blob/main/src/tokens/ERC20.sol\":19415:19427  add(m, 0x20) */\n      add\n        /* \"https://github.com/Vectorized/solady/blob/main/src/tokens/ERC20.sol\":19408:19438  mstore(add(m, 0x20), nameHash) */\n      mstore\n        /* \"https://github.com/Vectorized/solady/blob/main/src/tokens/ERC20.sol\":19472:19483  versionHash */\n      dup4\n        /* \"https://github.com/Vectorized/solady/blob/main/src/tokens/ERC20.sol\":19465:19469  0x40 */\n      0x40\n        /* \"https://github.com/Vectorized/solady/blob/main/src/tokens/ERC20.sol\":19462:19463  m */\n      dup5\n        /* \"https://github.com/Vectorized/solady/blob/main/src/tokens/ERC20.sol\":19458:19470  add(m, 0x40) */\n      add\n        /* \"https://github.com/Vectorized/solady/blob/main/src/tokens/ERC20.sol\":19451:19484  mstore(add(m, 0x40), versionHash) */\n      mstore\n        /* \"https://github.com/Vectorized/solady/blob/main/src/tokens/ERC20.sol\":19518:19527  chainid() */\n      chainid\n        /* \"https://github.com/Vectorized/solady/blob/main/src/tokens/ERC20.sol\":19511:19515  0x60 */\n      0x60\n        /* \"https://github.com/Vectorized/solady/blob/main/src/tokens/ERC20.sol\":19508:19509  m */\n      dup5\n        /* \"https://github.com/Vectorized/solady/blob/main/src/tokens/ERC20.sol\":19504:19516  add(m, 0x60) */\n      add\n        /* \"https://github.com/Vectorized/solady/blob/main/src/tokens/ERC20.sol\":19497:19528  mstore(add(m, 0x60), chainid()) */\n      mstore\n        /* \"https://github.com/Vectorized/solady/blob/main/src/tokens/ERC20.sol\":19562:19571  address() */\n      address\n        /* \"https://github.com/Vectorized/solady/blob/main/src/tokens/ERC20.sol\":19555:19559  0x80 */\n      0x80\n        /* \"https://github.com/Vectorized/solady/blob/main/src/tokens/ERC20.sol\":19552:19553  m */\n      dup5\n        /* \"https://github.com/Vectorized/solady/blob/main/src/tokens/ERC20.sol\":19548:19560  add(m, 0x80) */\n      add\n        /* \"https://github.com/Vectorized/solady/blob/main/src/tokens/ERC20.sol\":19541:19572  mstore(add(m, 0x80), address()) */\n      mstore\n        /* \"https://github.com/Vectorized/solady/blob/main/src/tokens/ERC20.sol\":19611:19615  0xa0 */\n      0xa0\n        /* \"https://github.com/Vectorized/solady/blob/main/src/tokens/ERC20.sol\":19608:19609  m */\n      dup4\n        /* \"https://github.com/Vectorized/solady/blob/main/src/tokens/ERC20.sol\":19598:19616  keccak256(m, 0xa0) */\n      keccak256\n        /* \"https://github.com/Vectorized/solady/blob/main/src/tokens/ERC20.sol\":19592:19596  0x2e */\n      0x2e\n        /* \"https://github.com/Vectorized/solady/blob/main/src/tokens/ERC20.sol\":19585:19617  mstore(0x2e, keccak256(m, 0xa0)) */\n      mstore\n        /* \"https://github.com/Vectorized/solady/blob/main/src/tokens/ERC20.sol\":19680:19696  _PERMIT_TYPEHASH */\n      0x6e71edae12b1b97f4d1f60370fef10105fa2faae0126114a169c64845d6126c9\n        /* \"https://github.com/Vectorized/solady/blob/main/src/tokens/ERC20.sol\":19677:19678  m */\n      dup4\n        /* \"https://github.com/Vectorized/solady/blob/main/src/tokens/ERC20.sol\":19670:19697  mstore(m, _PERMIT_TYPEHASH) */\n      mstore\n        /* \"https://github.com/Vectorized/solady/blob/main/src/tokens/ERC20.sol\":19731:19736  owner */\n      dup12\n        /* \"https://github.com/Vectorized/solady/blob/main/src/tokens/ERC20.sol\":19724:19728  0x20 */\n      0x20\n        /* \"https://github.com/Vectorized/solady/blob/main/src/tokens/ERC20.sol\":19721:19722  m */\n      dup5\n        /* \"https://github.com/Vectorized/solady/blob/main/src/tokens/ERC20.sol\":19717:19729  add(m, 0x20) */\n      add\n        /* \"https://github.com/Vectorized/solady/blob/main/src/tokens/ERC20.sol\":19710:19737  mstore(add(m, 0x20), owner) */\n      mstore\n        /* \"https://github.com/Vectorized/solady/blob/main/src/tokens/ERC20.sol\":19771:19778  spender */\n      dup11\n        /* \"https://github.com/Vectorized/solady/blob/main/src/tokens/ERC20.sol\":19764:19768  0x40 */\n      0x40\n        /* \"https://github.com/Vectorized/solady/blob/main/src/tokens/ERC20.sol\":19761:19762  m */\n      dup5\n        /* \"https://github.com/Vectorized/solady/blob/main/src/tokens/ERC20.sol\":19757:19769  add(m, 0x40) */\n      add\n        /* \"https://github.com/Vectorized/solady/blob/main/src/tokens/ERC20.sol\":19750:19779  mstore(add(m, 0x40), spender) */\n      mstore\n        /* \"https://github.com/Vectorized/solady/blob/main/src/tokens/ERC20.sol\":19813:19818  value */\n      dup10\n        /* \"https://github.com/Vectorized/solady/blob/main/src/tokens/ERC20.sol\":19806:19810  0x60 */\n      0x60\n        /* \"https://github.com/Vectorized/solady/blob/main/src/tokens/ERC20.sol\":19803:19804  m */\n      dup5\n        /* \"https://github.com/Vectorized/solady/blob/main/src/tokens/ERC20.sol\":19799:19811  add(m, 0x60) */\n      add\n        /* \"https://github.com/Vectorized/solady/blob/main/src/tokens/ERC20.sol\":19792:19819  mstore(add(m, 0x60), value) */\n      mstore\n        /* \"https://github.com/Vectorized/solady/blob/main/src/tokens/ERC20.sol\":19853:19863  nonceValue */\n      dup1\n        /* \"https://github.com/Vectorized/solady/blob/main/src/tokens/ERC20.sol\":19846:19850  0x80 */\n      0x80\n        /* \"https://github.com/Vectorized/solady/blob/main/src/tokens/ERC20.sol\":19843:19844  m */\n      dup5\n        /* \"https://github.com/Vectorized/solady/blob/main/src/tokens/ERC20.sol\":19839:19851  add(m, 0x80) */\n      add\n        /* \"https://github.com/Vectorized/solady/blob/main/src/tokens/ERC20.sol\":19832:19864  mstore(add(m, 0x80), nonceValue) */\n      mstore\n        /* \"https://github.com/Vectorized/solady/blob/main/src/tokens/ERC20.sol\":19898:19906  deadline */\n      dup9\n        /* \"https://github.com/Vectorized/solady/blob/main/src/tokens/ERC20.sol\":19891:19895  0xa0 */\n      0xa0\n        /* \"https://github.com/Vectorized/solady/blob/main/src/tokens/ERC20.sol\":19888:19889  m */\n      dup5\n        /* \"https://github.com/Vectorized/solady/blob/main/src/tokens/ERC20.sol\":19884:19896  add(m, 0xa0) */\n      add\n        /* \"https://github.com/Vectorized/solady/blob/main/src/tokens/ERC20.sol\":19877:19907  mstore(add(m, 0xa0), deadline) */\n      mstore\n        /* \"https://github.com/Vectorized/solady/blob/main/src/tokens/ERC20.sol\":19946:19950  0xc0 */\n      0xc0\n        /* \"https://github.com/Vectorized/solady/blob/main/src/tokens/ERC20.sol\":19943:19944  m */\n      dup4\n        /* \"https://github.com/Vectorized/solady/blob/main/src/tokens/ERC20.sol\":19933:19951  keccak256(m, 0xc0) */\n      keccak256\n        /* \"https://github.com/Vectorized/solady/blob/main/src/tokens/ERC20.sol\":19927:19931  0x4e */\n      0x4e\n        /* \"https://github.com/Vectorized/solady/blob/main/src/tokens/ERC20.sol\":19920:19952  mstore(0x4e, keccak256(m, 0xc0)) */\n      mstore\n        /* \"https://github.com/Vectorized/solady/blob/main/src/tokens/ERC20.sol\":20041:20045  0x42 */\n      0x42\n        /* \"https://github.com/Vectorized/solady/blob/main/src/tokens/ERC20.sol\":20035:20039  0x2c */\n      0x2c\n        /* \"https://github.com/Vectorized/solady/blob/main/src/tokens/ERC20.sol\":20025:20046  keccak256(0x2c, 0x42) */\n      keccak256\n        /* \"https://github.com/Vectorized/solady/blob/main/src/tokens/ERC20.sol\":20019:20023  0x00 */\n      0x00\n        /* \"https://github.com/Vectorized/solady/blob/main/src/tokens/ERC20.sol\":20012:20047  mstore(0x00, keccak256(0x2c, 0x42)) */\n      mstore\n        /* \"https://github.com/Vectorized/solady/blob/main/src/tokens/ERC20.sol\":20083:20084  v */\n      dup8\n        /* \"https://github.com/Vectorized/solady/blob/main/src/tokens/ERC20.sol\":20077:20081  0xff */\n      0xff\n        /* \"https://github.com/Vectorized/solady/blob/main/src/tokens/ERC20.sol\":20073:20085  and(0xff, v) */\n      and\n        /* \"https://github.com/Vectorized/solady/blob/main/src/tokens/ERC20.sol\":20067:20071  0x20 */\n      0x20\n        /* \"https://github.com/Vectorized/solady/blob/main/src/tokens/ERC20.sol\":20060:20086  mstore(0x20, and(0xff, v)) */\n      mstore\n        /* \"https://github.com/Vectorized/solady/blob/main/src/tokens/ERC20.sol\":20112:20113  r */\n      dup7\n        /* \"https://github.com/Vectorized/solady/blob/main/src/tokens/ERC20.sol\":20106:20110  0x40 */\n      0x40\n        /* \"https://github.com/Vectorized/solady/blob/main/src/tokens/ERC20.sol\":20099:20114  mstore(0x40, r) */\n      mstore\n        /* \"https://github.com/Vectorized/solady/blob/main/src/tokens/ERC20.sol\":20140:20141  s */\n      dup6\n        /* \"https://github.com/Vectorized/solady/blob/main/src/tokens/ERC20.sol\":20134:20138  0x60 */\n      0x60\n        /* \"https://github.com/Vectorized/solady/blob/main/src/tokens/ERC20.sol\":20127:20142  mstore(0x60, s) */\n      mstore\n        /* \"https://github.com/Vectorized/solady/blob/main/src/tokens/ERC20.sol\":20203:20207  0x20 */\n      0x20\n        /* \"https://github.com/Vectorized/solady/blob/main/src/tokens/ERC20.sol\":20197:20201  0x20 */\n      dup1\n        /* \"https://github.com/Vectorized/solady/blob/main/src/tokens/ERC20.sol\":20191:20195  0x80 */\n      0x80\n        /* \"https://github.com/Vectorized/solady/blob/main/src/tokens/ERC20.sol\":20185:20189  0x00 */\n      0x00\n        /* \"https://github.com/Vectorized/solady/blob/main/src/tokens/ERC20.sol\":20182:20183  1 */\n      0x01\n        /* \"https://github.com/Vectorized/solady/blob/main/src/tokens/ERC20.sol\":20175:20180  gas() */\n      gas\n        /* \"https://github.com/Vectorized/solady/blob/main/src/tokens/ERC20.sol\":20164:20208  staticcall(gas(), 1, 0x00, 0x80, 0x20, 0x20) */\n      staticcall\n        /* \"https://github.com/Vectorized/solady/blob/main/src/tokens/ERC20.sol\":20624:20629  owner */\n      dup13\n        /* \"https://github.com/Vectorized/solady/blob/main/src/tokens/ERC20.sol\":20605:20621  returndatasize() */\n      returndatasize\n        /* \"https://github.com/Vectorized/solady/blob/main/src/tokens/ERC20.sol\":20599:20622  mload(returndatasize()) */\n      mload\n        /* \"https://github.com/Vectorized/solady/blob/main/src/tokens/ERC20.sol\":20596:20630  eq(mload(returndatasize()), owner) */\n      eq\n        /* \"https://github.com/Vectorized/solady/blob/main/src/tokens/ERC20.sol\":20586:20745  if iszero(eq(mload(returndatasize()), owner)) {... */\n      tag_173\n      jumpi\n        /* \"https://github.com/Vectorized/solady/blob/main/src/tokens/ERC20.sol\":20663:20673  0xddafbaef */\n      0xddafbaef\n        /* \"https://github.com/Vectorized/solady/blob/main/src/tokens/ERC20.sol\":20657:20661  0x00 */\n      0x00\n        /* \"https://github.com/Vectorized/solady/blob/main/src/tokens/ERC20.sol\":20650:20674  mstore(0x00, 0xddafbaef) */\n      mstore\n        /* \"https://github.com/Vectorized/solady/blob/main/src/tokens/ERC20.sol\":20726:20730  0x04 */\n      0x04\n        /* \"https://github.com/Vectorized/solady/blob/main/src/tokens/ERC20.sol\":20720:20724  0x1c */\n      0x1c\n        /* \"https://github.com/Vectorized/solady/blob/main/src/tokens/ERC20.sol\":20713:20731  revert(0x1c, 0x04) */\n      revert\n        /* \"https://github.com/Vectorized/solady/blob/main/src/tokens/ERC20.sol\":20586:20745  if iszero(eq(mload(returndatasize()), owner)) {... */\n    tag_173:\n        /* \"https://github.com/Vectorized/solady/blob/main/src/tokens/ERC20.sol\":20846:20847  t */\n      dup1\n        /* \"https://github.com/Vectorized/solady/blob/main/src/tokens/ERC20.sol\":20834:20844  nonceValue */\n      dup3\n        /* \"https://github.com/Vectorized/solady/blob/main/src/tokens/ERC20.sol\":20830:20848  add(nonceValue, t) */\n      add\n        /* \"https://github.com/Vectorized/solady/blob/main/src/tokens/ERC20.sol\":20819:20828  nonceSlot */\n      dup4\n        /* \"https://github.com/Vectorized/solady/blob/main/src/tokens/ERC20.sol\":20812:20849  sstore(nonceSlot, add(nonceValue, t)) */\n      sstore\n        /* \"https://github.com/Vectorized/solady/blob/main/src/tokens/ERC20.sol\":21060:21067  spender */\n      dup12\n        /* \"https://github.com/Vectorized/solady/blob/main/src/tokens/ERC20.sol\":21037:21057  _ALLOWANCE_SLOT_SEED */\n      0x7f5e9f20\n        /* \"https://github.com/Vectorized/solady/blob/main/src/tokens/ERC20.sol\":21032:21035  160 */\n      0xa0\n        /* \"https://github.com/Vectorized/solady/blob/main/src/tokens/ERC20.sol\":21028:21058  shl(160, _ALLOWANCE_SLOT_SEED) */\n      shl\n        /* \"https://github.com/Vectorized/solady/blob/main/src/tokens/ERC20.sol\":21025:21068  or(shl(160, _ALLOWANCE_SLOT_SEED), spender) */\n      or\n        /* \"https://github.com/Vectorized/solady/blob/main/src/tokens/ERC20.sol\":21019:21023  0x40 */\n      0x40\n        /* \"https://github.com/Vectorized/solady/blob/main/src/tokens/ERC20.sol\":21012:21069  mstore(0x40, or(shl(160, _ALLOWANCE_SLOT_SEED), spender)) */\n      mstore\n        /* \"https://github.com/Vectorized/solady/blob/main/src/tokens/ERC20.sol\":21112:21117  value */\n      dup11\n        /* \"https://github.com/Vectorized/solady/blob/main/src/tokens/ERC20.sol\":21105:21109  0x34 */\n      0x34\n        /* \"https://github.com/Vectorized/solady/blob/main/src/tokens/ERC20.sol\":21099:21103  0x2c */\n      0x2c\n        /* \"https://github.com/Vectorized/solady/blob/main/src/tokens/ERC20.sol\":21089:21110  keccak256(0x2c, 0x34) */\n      keccak256\n        /* \"https://github.com/Vectorized/solady/blob/main/src/tokens/ERC20.sol\":21082:21118  sstore(keccak256(0x2c, 0x34), value) */\n      sstore\n        /* \"https://github.com/Vectorized/solady/blob/main/src/tokens/ERC20.sol\":21232:21239  spender */\n      dup12\n        /* \"https://github.com/Vectorized/solady/blob/main/src/tokens/ERC20.sol\":21225:21230  owner */\n      dup14\n        /* \"https://github.com/Vectorized/solady/blob/main/src/tokens/ERC20.sol\":21198:21223  _APPROVAL_EVENT_SIGNATURE */\n      0x8c5be1e5ebec7d5bd14f71427d1e84f3dd0314c0f7b2291e5b200ac8c7c3b925\n        /* \"https://github.com/Vectorized/solady/blob/main/src/tokens/ERC20.sol\":21192:21196  0x20 */\n      0x20\n        /* \"https://github.com/Vectorized/solady/blob/main/src/tokens/ERC20.sol\":21185:21189  0x60 */\n      0x60\n        /* \"https://github.com/Vectorized/solady/blob/main/src/tokens/ERC20.sol\":21182:21183  m */\n      dup9\n        /* \"https://github.com/Vectorized/solady/blob/main/src/tokens/ERC20.sol\":21178:21190  add(m, 0x60) */\n      add\n        /* \"https://github.com/Vectorized/solady/blob/main/src/tokens/ERC20.sol\":21173:21240  log3(add(m, 0x60), 0x20, _APPROVAL_EVENT_SIGNATURE, owner, spender) */\n      log3\n        /* \"https://github.com/Vectorized/solady/blob/main/src/tokens/ERC20.sol\":21266:21267  m */\n      dup4\n        /* \"https://github.com/Vectorized/solady/blob/main/src/tokens/ERC20.sol\":21260:21264  0x40 */\n      0x40\n        /* \"https://github.com/Vectorized/solady/blob/main/src/tokens/ERC20.sol\":21253:21268  mstore(0x40, m) */\n      mstore\n        /* \"https://github.com/Vectorized/solady/blob/main/src/tokens/ERC20.sol\":21330:21331  0 */\n      0x00\n        /* \"https://github.com/Vectorized/solady/blob/main/src/tokens/ERC20.sol\":21324:21328  0x60 */\n      0x60\n        /* \"https://github.com/Vectorized/solady/blob/main/src/tokens/ERC20.sol\":21317:21332  mstore(0x60, 0) */\n      mstore\n        /* \"https://github.com/Vectorized/solady/blob/main/src/tokens/ERC20.sol\":18627:21371  {... */\n      pop\n      pop\n      pop\n      pop\n      pop\n      pop\n        /* \"https://github.com/Vectorized/solady/blob/main/src/tokens/ERC20.sol\":17661:21377  function permit(... */\n      pop\n      pop\n      pop\n      pop\n      pop\n      pop\n      pop\n      jump\t// out\n        /* \"https://github.com/Vectorized/solady/blob/main/src/tokens/ERC20.sol\":7549:8044  function allowance(address owner, address spender)... */\n    tag_102:\n        /* \"https://github.com/Vectorized/solady/blob/main/src/tokens/ERC20.sol\":7661:7675  uint256 result */\n      0x00\n        /* \"https://github.com/Vectorized/solady/blob/main/src/tokens/ERC20.sol\":7695:7726  _givePermit2InfiniteAllowance() */\n      tag_175\n        /* \"https://github.com/Vectorized/solady/blob/main/src/tokens/ERC20.sol\":7695:7724  _givePermit2InfiniteAllowance */\n      tag_115\n        /* \"https://github.com/Vectorized/solady/blob/main/src/tokens/ERC20.sol\":7695:7726  _givePermit2InfiniteAllowance() */\n      jump\t// in\n    tag_175:\n        /* \"https://github.com/Vectorized/solady/blob/main/src/tokens/ERC20.sol\":7691:7802  if (_givePermit2InfiniteAllowance()) {... */\n      iszero\n      tag_176\n      jumpi\n        /* \"https://github.com/Vectorized/solady/blob/main/src/tokens/ERC20.sol\":5869:5911  0x000000000022D473030F116dDEE9F6B43aC78BA3 */\n      0x22d473030f116ddee9f6b43ac78ba3\n        /* \"https://github.com/Vectorized/solady/blob/main/src/tokens/ERC20.sol\":7746:7765  spender == _PERMIT2 */\n      0xffffffffffffffffffffffffffffffffffffffff\n      and\n        /* \"https://github.com/Vectorized/solady/blob/main/src/tokens/ERC20.sol\":7746:7753  spender */\n      dup3\n        /* \"https://github.com/Vectorized/solady/blob/main/src/tokens/ERC20.sol\":7746:7765  spender == _PERMIT2 */\n      0xffffffffffffffffffffffffffffffffffffffff\n      and\n      sub\n        /* \"https://github.com/Vectorized/solady/blob/main/src/tokens/ERC20.sol\":7742:7791  if (spender == _PERMIT2) return type(uint256).max */\n      tag_177\n      jumpi\n        /* \"https://github.com/Vectorized/solady/blob/main/src/tokens/ERC20.sol\":7774:7791  type(uint256).max */\n      0xffffffffffffffffffffffffffffffffffffffffffffffffffffffffffffffff\n        /* \"https://github.com/Vectorized/solady/blob/main/src/tokens/ERC20.sol\":7767:7791  return type(uint256).max */\n      swap1\n      pop\n      jump(tag_174)\n        /* \"https://github.com/Vectorized/solady/blob/main/src/tokens/ERC20.sol\":7742:7791  if (spender == _PERMIT2) return type(uint256).max */\n    tag_177:\n        /* \"https://github.com/Vectorized/solady/blob/main/src/tokens/ERC20.sol\":7691:7802  if (_givePermit2InfiniteAllowance()) {... */\n    tag_176:\n        /* \"https://github.com/Vectorized/solady/blob/main/src/tokens/ERC20.sol\":7890:7897  spender */\n      dup2\n        /* \"https://github.com/Vectorized/solady/blob/main/src/tokens/ERC20.sol\":7884:7888  0x20 */\n      0x20\n        /* \"https://github.com/Vectorized/solady/blob/main/src/tokens/ERC20.sol\":7877:7898  mstore(0x20, spender) */\n      mstore\n        /* \"https://github.com/Vectorized/solady/blob/main/src/tokens/ERC20.sol\":7924:7944  _ALLOWANCE_SLOT_SEED */\n      0x7f5e9f20\n        /* \"https://github.com/Vectorized/solady/blob/main/src/tokens/ERC20.sol\":7918:7922  0x0c */\n      0x0c\n        /* \"https://github.com/Vectorized/solady/blob/main/src/tokens/ERC20.sol\":7911:7945  mstore(0x0c, _ALLOWANCE_SLOT_SEED) */\n      mstore\n        /* \"https://github.com/Vectorized/solady/blob/main/src/tokens/ERC20.sol\":7971:7976  owner */\n      dup3\n        /* \"https://github.com/Vectorized/solady/blob/main/src/tokens/ERC20.sol\":7965:7969  0x00 */\n      0x00\n        /* \"https://github.com/Vectorized/solady/blob/main/src/tokens/ERC20.sol\":7958:7977  mstore(0x00, owner) */\n      mstore\n        /* \"https://github.com/Vectorized/solady/blob/main/src/tokens/ERC20.sol\":8022:8026  0x34 */\n      0x34\n        /* \"https://github.com/Vectorized/solady/blob/main/src/tokens/ERC20.sol\":8016:8020  0x0c */\n      0x0c\n        /* \"https://github.com/Vectorized/solady/blob/main/src/tokens/ERC20.sol\":8006:8027  keccak256(0x0c, 0x34) */\n      keccak256\n        /* \"https://github.com/Vectorized/solady/blob/main/src/tokens/ERC20.sol\":8000:8028  sload(keccak256(0x0c, 0x34)) */\n      sload\n        /* \"https://github.com/Vectorized/solady/blob/main/src/tokens/ERC20.sol\":7990:8028  result := sload(keccak256(0x0c, 0x34)) */\n      swap1\n      pop\n        /* \"https://github.com/Vectorized/solady/blob/main/src/tokens/ERC20.sol\":7549:8044  function allowance(address owner, address spender)... */\n    tag_174:\n      swap3\n      swap2\n      pop\n      pop\n      jump\t// out\n        /* \"src/ConstantOfferRatePool.sol\":621:682  function previewDeposit(uint assets) public returns (uint) {} */\n    tag_108:\n        /* \"src/ConstantOfferRatePool.sol\":674:678  uint */\n      0x00\n        /* \"src/ConstantOfferRatePool.sol\":621:682  function previewDeposit(uint assets) public returns (uint) {} */\n      swap2\n      swap1\n      pop\n      jump\t// out\n        /* \"https://github.com/Vectorized/solady/blob/main/src/tokens/ERC20.sol\":30986:31093  function _givePermit2InfiniteAllowance() internal view virtual returns (bool) {... */\n    tag_115:\n        /* \"https://github.com/Vectorized/solady/blob/main/src/tokens/ERC20.sol\":31058:31062  bool */\n      0x00\n        /* \"https://github.com/Vectorized/solady/blob/main/src/tokens/ERC20.sol\":31081:31086  false */\n      0x00\n        /* \"https://github.com/Vectorized/solady/blob/main/src/tokens/ERC20.sol\":31074:31086  return false */\n      swap1\n      pop\n        /* \"https://github.com/Vectorized/solady/blob/main/src/tokens/ERC20.sol\":30986:31093  function _givePermit2InfiniteAllowance() internal view virtual returns (bool) {... */\n      swap1\n      jump\t// out\n        /* \"https://github.com/Vectorized/solady/blob/main/src/tokens/ERC20.sol\":30066:30157  function _beforeTokenTransfer(address from, address to, uint256 amount) internal virtual {} */\n    tag_121:\n      pop\n      pop\n      pop\n      jump\t// out\n        /* \"https://github.com/Vectorized/solady/blob/main/src/tokens/ERC20.sol\":30269:30359  function _afterTokenTransfer(address from, address to, uint256 amount) internal virtual {} */\n    tag_133:\n      pop\n      pop\n      pop\n      jump\t// out\n        /* \"https://github.com/Vectorized/solady/blob/main/src/tokens/ERC20.sol\":16349:16427  function _constantNameHash() internal view virtual returns (bytes32 result) {} */\n    tag_137:\n        /* \"https://github.com/Vectorized/solady/blob/main/src/tokens/ERC20.sol\":16409:16423  bytes32 result */\n      0x00\n        /* \"https://github.com/Vectorized/solady/blob/main/src/tokens/ERC20.sol\":16349:16427  function _constantNameHash() internal view virtual returns (bytes32 result) {} */\n      swap1\n      jump\t// out\n        /* \"https://github.com/Vectorized/solady/blob/main/src/tokens/ERC20.sol\":16501:16619  function _versionHash() internal view virtual returns (bytes32 result) {... */\n    tag_141:\n        /* \"https://github.com/Vectorized/solady/blob/main/src/tokens/ERC20.sol\":16556:16570  bytes32 result */\n      0x00\n        /* \"https://github.com/Vectorized/solady/blob/main/src/tokens/ERC20.sol\":5177:5243  0xc89efdaa54c0f20c7adf612882df0950f5a951637e0307cdcb4c672f298b8bc6 */\n      0xc89efdaa54c0f20c7adf612882df0950f5a951637e0307cdcb4c672f298b8bc6\n        /* \"https://github.com/Vectorized/solady/blob/main/src/tokens/ERC20.sol\":16591:16612  _DEFAULT_VERSION_HASH */\n      0x00\n      shl\n        /* \"https://github.com/Vectorized/solady/blob/main/src/tokens/ERC20.sol\":16582:16612  result = _DEFAULT_VERSION_HASH */\n      swap1\n      pop\n        /* \"https://github.com/Vectorized/solady/blob/main/src/tokens/ERC20.sol\":16501:16619  function _versionHash() internal view virtual returns (bytes32 result) {... */\n      swap1\n      jump\t// out\n        /* \"#utility.yul\":7:106   */\n    tag_184:\n        /* \"#utility.yul\":59:65   */\n      0x00\n        /* \"#utility.yul\":93:98   */\n      dup2\n        /* \"#utility.yul\":87:99   */\n      mload\n        /* \"#utility.yul\":77:99   */\n      swap1\n      pop\n        /* \"#utility.yul\":7:106   */\n      swap2\n      swap1\n      pop\n      jump\t// out\n        /* \"#utility.yul\":112:281   */\n    tag_185:\n        /* \"#utility.yul\":196:207   */\n      0x00\n        /* \"#utility.yul\":230:236   */\n      dup3\n        /* \"#utility.yul\":225:228   */\n      dup3\n        /* \"#utility.yul\":218:237   */\n      mstore\n        /* \"#utility.yul\":270:274   */\n      0x20\n        /* \"#utility.yul\":265:268   */\n      dup3\n        /* \"#utility.yul\":261:275   */\n      add\n        /* \"#utility.yul\":246:275   */\n      swap1\n      pop\n        /* \"#utility.yul\":112:281   */\n      swap3\n      swap2\n      pop\n      pop\n      jump\t// out\n        /* \"#utility.yul\":287:426   */\n    tag_186:\n        /* \"#utility.yul\":376:382   */\n      dup3\n        /* \"#utility.yul\":371:374   */\n      dup2\n        /* \"#utility.yul\":366:369   */\n      dup4\n        /* \"#utility.yul\":360:383   */\n      mcopy\n        /* \"#utility.yul\":417:418   */\n      0x00\n        /* \"#utility.yul\":408:414   */\n      dup4\n        /* \"#utility.yul\":403:406   */\n      dup4\n        /* \"#utility.yul\":399:415   */\n      add\n        /* \"#utility.yul\":392:419   */\n      mstore\n        /* \"#utility.yul\":287:426   */\n      pop\n      pop\n      pop\n      jump\t// out\n        /* \"#utility.yul\":432:534   */\n    tag_187:\n        /* \"#utility.yul\":473:479   */\n      0x00\n        /* \"#utility.yul\":524:526   */\n      0x1f\n        /* \"#utility.yul\":520:527   */\n      not\n        /* \"#utility.yul\":515:517   */\n      0x1f\n        /* \"#utility.yul\":508:513   */\n      dup4\n        /* \"#utility.yul\":504:518   */\n      add\n        /* \"#utility.yul\":500:528   */\n      and\n        /* \"#utility.yul\":490:528   */\n      swap1\n      pop\n        /* \"#utility.yul\":432:534   */\n      swap2\n      swap1\n      pop\n      jump\t// out\n        /* \"#utility.yul\":540:917   */\n    tag_188:\n        /* \"#utility.yul\":628:631   */\n      0x00\n        /* \"#utility.yul\":656:695   */\n      tag_227\n        /* \"#utility.yul\":689:694   */\n      dup3\n        /* \"#utility.yul\":656:695   */\n      tag_184\n      jump\t// in\n    tag_227:\n        /* \"#utility.yul\":711:782   */\n      tag_228\n        /* \"#utility.yul\":775:781   */\n      dup2\n        /* \"#utility.yul\":770:773   */\n      dup6\n        /* \"#utility.yul\":711:782   */\n      tag_185\n      jump\t// in\n    tag_228:\n        /* \"#utility.yul\":704:782   */\n      swap4\n      pop\n        /* \"#utility.yul\":791:856   */\n      tag_229\n        /* \"#utility.yul\":849:855   */\n      dup2\n        /* \"#utility.yul\":844:847   */\n      dup6\n        /* \"#utility.yul\":837:841   */\n      0x20\n        /* \"#utility.yul\":830:835   */\n      dup7\n        /* \"#utility.yul\":826:842   */\n      add\n        /* \"#utility.yul\":791:856   */\n      tag_186\n      jump\t// in\n    tag_229:\n        /* \"#utility.yul\":881:910   */\n      tag_230\n        /* \"#utility.yul\":903:909   */\n      dup2\n        /* \"#utility.yul\":881:910   */\n      tag_187\n      jump\t// in\n    tag_230:\n        /* \"#utility.yul\":876:879   */\n      dup5\n        /* \"#utility.yul\":872:911   */\n      add\n        /* \"#utility.yul\":865:911   */\n      swap2\n      pop\n        /* \"#utility.yul\":632:917   */\n      pop\n        /* \"#utility.yul\":540:917   */\n      swap3\n      swap2\n      pop\n      pop\n      jump\t// out\n        /* \"#utility.yul\":923:1236   */\n    tag_26:\n        /* \"#utility.yul\":1036:1040   */\n      0x00\n        /* \"#utility.yul\":1074:1076   */\n      0x20\n        /* \"#utility.yul\":1063:1072   */\n      dup3\n        /* \"#utility.yul\":1059:1077   */\n      add\n        /* \"#utility.yul\":1051:1077   */\n      swap1\n      pop\n        /* \"#utility.yul\":1123:1132   */\n      dup2\n        /* \"#utility.yul\":1117:1121   */\n      dup2\n        /* \"#utility.yul\":1113:1133   */\n      sub\n        /* \"#utility.yul\":1109:1110   */\n      0x00\n        /* \"#utility.yul\":1098:1107   */\n      dup4\n        /* \"#utility.yul\":1094:1111   */\n      add\n        /* \"#utility.yul\":1087:1134   */\n      mstore\n        /* \"#utility.yul\":1151:1229   */\n      tag_232\n        /* \"#utility.yul\":1224:1228   */\n      dup2\n        /* \"#utility.yul\":1215:1221   */\n      dup5\n        /* \"#utility.yul\":1151:1229   */\n      tag_188\n      jump\t// in\n    tag_232:\n        /* \"#utility.yul\":1143:1229   */\n      swap1\n      pop\n        /* \"#utility.yul\":923:1236   */\n      swap3\n      swap2\n      pop\n      pop\n      jump\t// out\n        /* \"#utility.yul\":1323:1440   */\n    tag_190:\n        /* \"#utility.yul\":1432:1433   */\n      0x00\n        /* \"#utility.yul\":1429:1430   */\n      0x00\n        /* \"#utility.yul\":1422:1434   */\n      revert\n        /* \"#utility.yul\":1569:1695   */\n    tag_192:\n        /* \"#utility.yul\":1606:1613   */\n      0x00\n        /* \"#utility.yul\":1646:1688   */\n      0xffffffffffffffffffffffffffffffffffffffff\n        /* \"#utility.yul\":1639:1644   */\n      dup3\n        /* \"#utility.yul\":1635:1689   */\n      and\n        /* \"#utility.yul\":1624:1689   */\n      swap1\n      pop\n        /* \"#utility.yul\":1569:1695   */\n      swap2\n      swap1\n      pop\n      jump\t// out\n        /* \"#utility.yul\":1701:1797   */\n    tag_193:\n        /* \"#utility.yul\":1738:1745   */\n      0x00\n        /* \"#utility.yul\":1767:1791   */\n      tag_238\n        /* \"#utility.yul\":1785:1790   */\n      dup3\n        /* \"#utility.yul\":1767:1791   */\n      tag_192\n      jump\t// in\n    tag_238:\n        /* \"#utility.yul\":1756:1791   */\n      swap1\n      pop\n        /* \"#utility.yul\":1701:1797   */\n      swap2\n      swap1\n      pop\n      jump\t// out\n        /* \"#utility.yul\":1803:1925   */\n    tag_194:\n        /* \"#utility.yul\":1876:1900   */\n      tag_240\n        /* \"#utility.yul\":1894:1899   */\n      dup2\n        /* \"#utility.yul\":1876:1900   */\n      tag_193\n      jump\t// in\n    tag_240:\n        /* \"#utility.yul\":1869:1874   */\n      dup2\n        /* \"#utility.yul\":1866:1901   */\n      eq\n        /* \"#utility.yul\":1856:1919   */\n      tag_241\n      jumpi\n        /* \"#utility.yul\":1915:1916   */\n      0x00\n        /* \"#utility.yul\":1912:1913   */\n      0x00\n        /* \"#utility.yul\":1905:1917   */\n      revert\n        /* \"#utility.yul\":1856:1919   */\n    tag_241:\n        /* \"#utility.yul\":1803:1925   */\n      pop\n      jump\t// out\n        /* \"#utility.yul\":1931:2070   */\n    tag_195:\n        /* \"#utility.yul\":1977:1982   */\n      0x00\n        /* \"#utility.yul\":2015:2021   */\n      dup2\n        /* \"#utility.yul\":2002:2022   */\n      calldataload\n        /* \"#utility.yul\":1993:2022   */\n      swap1\n      pop\n        /* \"#utility.yul\":2031:2064   */\n      tag_243\n        /* \"#utility.yul\":2058:2063   */\n      dup2\n        /* \"#utility.yul\":2031:2064   */\n      tag_194\n      jump\t// in\n    tag_243:\n        /* \"#utility.yul\":1931:2070   */\n      swap3\n      swap2\n      pop\n      pop\n      jump\t// out\n        /* \"#utility.yul\":2076:2153   */\n    tag_196:\n        /* \"#utility.yul\":2113:2120   */\n      0x00\n        /* \"#utility.yul\":2142:2147   */\n      dup2\n        /* \"#utility.yul\":2131:2147   */\n      swap1\n      pop\n        /* \"#utility.yul\":2076:2153   */\n      swap2\n      swap1\n      pop\n      jump\t// out\n        /* \"#utility.yul\":2159:2281   */\n    tag_197:\n        /* \"#utility.yul\":2232:2256   */\n      tag_246\n        /* \"#utility.yul\":2250:2255   */\n      dup2\n        /* \"#utility.yul\":2232:2256   */\n      tag_196\n      jump\t// in\n    tag_246:\n        /* \"#utility.yul\":2225:2230   */\n      dup2\n        /* \"#utility.yul\":2222:2257   */\n      eq\n        /* \"#utility.yul\":2212:2275   */\n      tag_247\n      jumpi\n        /* \"#utility.yul\":2271:2272   */\n      0x00\n        /* \"#utility.yul\":2268:2269   */\n      0x00\n        /* \"#utility.yul\":2261:2273   */\n      revert\n        /* \"#utility.yul\":2212:2275   */\n    tag_247:\n        /* \"#utility.yul\":2159:2281   */\n      pop\n      jump\t// out\n        /* \"#utility.yul\":2287:2426   */\n    tag_198:\n        /* \"#utility.yul\":2333:2338   */\n      0x00\n        /* \"#utility.yul\":2371:2377   */\n      dup2\n        /* \"#utility.yul\":2358:2378   */\n      calldataload\n        /* \"#utility.yul\":2349:2378   */\n      swap1\n      pop\n        /* \"#utility.yul\":2387:2420   */\n      tag_249\n        /* \"#utility.yul\":2414:2419   */\n      dup2\n        /* \"#utility.yul\":2387:2420   */\n      tag_197\n      jump\t// in\n    tag_249:\n        /* \"#utility.yul\":2287:2426   */\n      swap3\n      swap2\n      pop\n      pop\n      jump\t// out\n        /* \"#utility.yul\":2432:2906   */\n    tag_30:\n        /* \"#utility.yul\":2500:2506   */\n      0x00\n        /* \"#utility.yul\":2508:2514   */\n      0x00\n        /* \"#utility.yul\":2557:2559   */\n      0x40\n        /* \"#utility.yul\":2545:2554   */\n      dup4\n        /* \"#utility.yul\":2536:2543   */\n      dup6\n        /* \"#utility.yul\":2532:2555   */\n      sub\n        /* \"#utility.yul\":2528:2560   */\n      slt\n        /* \"#utility.yul\":2525:2644   */\n      iszero\n      tag_251\n      jumpi\n        /* \"#utility.yul\":2563:2642   */\n      tag_252\n      tag_190\n      jump\t// in\n    tag_252:\n        /* \"#utility.yul\":2525:2644   */\n    tag_251:\n        /* \"#utility.yul\":2683:2684   */\n      0x00\n        /* \"#utility.yul\":2708:2761   */\n      tag_253\n        /* \"#utility.yul\":2753:2760   */\n      dup6\n        /* \"#utility.yul\":2744:2750   */\n      dup3\n        /* \"#utility.yul\":2733:2742   */\n      dup7\n        /* \"#utility.yul\":2729:2751   */\n      add\n        /* \"#utility.yul\":2708:2761   */\n      tag_195\n      jump\t// in\n    tag_253:\n        /* \"#utility.yul\":2698:2761   */\n      swap3\n      pop\n        /* \"#utility.yul\":2654:2771   */\n      pop\n        /* \"#utility.yul\":2810:2812   */\n      0x20\n        /* \"#utility.yul\":2836:2889   */\n      tag_254\n        /* \"#utility.yul\":2881:2888   */\n      dup6\n        /* \"#utility.yul\":2872:2878   */\n      dup3\n        /* \"#utility.yul\":2861:2870   */\n      dup7\n        /* \"#utility.yul\":2857:2879   */\n      add\n        /* \"#utility.yul\":2836:2889   */\n      tag_198\n      jump\t// in\n    tag_254:\n        /* \"#utility.yul\":2826:2889   */\n      swap2\n      pop\n        /* \"#utility.yul\":2781:2899   */\n      pop\n        /* \"#utility.yul\":2432:2906   */\n      swap3\n      pop\n      swap3\n      swap1\n      pop\n      jump\t// out\n        /* \"#utility.yul\":2912:3002   */\n    tag_199:\n        /* \"#utility.yul\":2946:2953   */\n      0x00\n        /* \"#utility.yul\":2989:2994   */\n      dup2\n        /* \"#utility.yul\":2982:2995   */\n      iszero\n        /* \"#utility.yul\":2975:2996   */\n      iszero\n        /* \"#utility.yul\":2964:2996   */\n      swap1\n      pop\n        /* \"#utility.yul\":2912:3002   */\n      swap2\n      swap1\n      pop\n      jump\t// out\n        /* \"#utility.yul\":3008:3117   */\n    tag_200:\n        /* \"#utility.yul\":3089:3110   */\n      tag_257\n        /* \"#utility.yul\":3104:3109   */\n      dup2\n        /* \"#utility.yul\":3089:3110   */\n      tag_199\n      jump\t// in\n    tag_257:\n        /* \"#utility.yul\":3084:3087   */\n      dup3\n        /* \"#utility.yul\":3077:3111   */\n      mstore\n        /* \"#utility.yul\":3008:3117   */\n      pop\n      pop\n      jump\t// out\n        /* \"#utility.yul\":3123:3333   */\n    tag_33:\n        /* \"#utility.yul\":3210:3214   */\n      0x00\n        /* \"#utility.yul\":3248:3250   */\n      0x20\n        /* \"#utility.yul\":3237:3246   */\n      dup3\n        /* \"#utility.yul\":3233:3251   */\n      add\n        /* \"#utility.yul\":3225:3251   */\n      swap1\n      pop\n        /* \"#utility.yul\":3261:3326   */\n      tag_259\n        /* \"#utility.yul\":3323:3324   */\n      0x00\n        /* \"#utility.yul\":3312:3321   */\n      dup4\n        /* \"#utility.yul\":3308:3325   */\n      add\n        /* \"#utility.yul\":3299:3305   */\n      dup5\n        /* \"#utility.yul\":3261:3326   */\n      tag_200\n      jump\t// in\n    tag_259:\n        /* \"#utility.yul\":3123:3333   */\n      swap3\n      swap2\n      pop\n      pop\n      jump\t// out\n        /* \"#utility.yul\":3339:3457   */\n    tag_201:\n        /* \"#utility.yul\":3426:3450   */\n      tag_261\n        /* \"#utility.yul\":3444:3449   */\n      dup2\n        /* \"#utility.yul\":3426:3450   */\n      tag_196\n      jump\t// in\n    tag_261:\n        /* \"#utility.yul\":3421:3424   */\n      dup3\n        /* \"#utility.yul\":3414:3451   */\n      mstore\n        /* \"#utility.yul\":3339:3457   */\n      pop\n      pop\n      jump\t// out\n        /* \"#utility.yul\":3463:3685   */\n    tag_38:\n        /* \"#utility.yul\":3556:3560   */\n      0x00\n        /* \"#utility.yul\":3594:3596   */\n      0x20\n        /* \"#utility.yul\":3583:3592   */\n      dup3\n        /* \"#utility.yul\":3579:3597   */\n      add\n        /* \"#utility.yul\":3571:3597   */\n      swap1\n      pop\n        /* \"#utility.yul\":3607:3678   */\n      tag_263\n        /* \"#utility.yul\":3675:3676   */\n      0x00\n        /* \"#utility.yul\":3664:3673   */\n      dup4\n        /* \"#utility.yul\":3660:3677   */\n      add\n        /* \"#utility.yul\":3651:3657   */\n      dup5\n        /* \"#utility.yul\":3607:3678   */\n      tag_201\n      jump\t// in\n    tag_263:\n        /* \"#utility.yul\":3463:3685   */\n      swap3\n      swap2\n      pop\n      pop\n      jump\t// out\n        /* \"#utility.yul\":3691:4310   */\n    tag_42:\n        /* \"#utility.yul\":3768:3774   */\n      0x00\n        /* \"#utility.yul\":3776:3782   */\n      0x00\n        /* \"#utility.yul\":3784:3790   */\n      0x00\n        /* \"#utility.yul\":3833:3835   */\n      0x60\n        /* \"#utility.yul\":3821:3830   */\n      dup5\n        /* \"#utility.yul\":3812:3819   */\n      dup7\n        /* \"#utility.yul\":3808:3831   */\n      sub\n        /* \"#utility.yul\":3804:3836   */\n      slt\n        /* \"#utility.yul\":3801:3920   */\n      iszero\n      tag_265\n      jumpi\n        /* \"#utility.yul\":3839:3918   */\n      tag_266\n      tag_190\n      jump\t// in\n    tag_266:\n        /* \"#utility.yul\":3801:3920   */\n    tag_265:\n        /* \"#utility.yul\":3959:3960   */\n      0x00\n        /* \"#utility.yul\":3984:4037   */\n      tag_267\n        /* \"#utility.yul\":4029:4036   */\n      dup7\n        /* \"#utility.yul\":4020:4026   */\n      dup3\n        /* \"#utility.yul\":4009:4018   */\n      dup8\n        /* \"#utility.yul\":4005:4027   */\n      add\n        /* \"#utility.yul\":3984:4037   */\n      tag_195\n      jump\t// in\n    tag_267:\n        /* \"#utility.yul\":3974:4037   */\n      swap4\n      pop\n        /* \"#utility.yul\":3930:4047   */\n      pop\n        /* \"#utility.yul\":4086:4088   */\n      0x20\n        /* \"#utility.yul\":4112:4165   */\n      tag_268\n        /* \"#utility.yul\":4157:4164   */\n      dup7\n        /* \"#utility.yul\":4148:4154   */\n      dup3\n        /* \"#utility.yul\":4137:4146   */\n      dup8\n        /* \"#utility.yul\":4133:4155   */\n      add\n        /* \"#utility.yul\":4112:4165   */\n      tag_195\n      jump\t// in\n    tag_268:\n        /* \"#utility.yul\":4102:4165   */\n      swap3\n      pop\n        /* \"#utility.yul\":4057:4175   */\n      pop\n        /* \"#utility.yul\":4214:4216   */\n      0x40\n        /* \"#utility.yul\":4240:4293   */\n      tag_269\n        /* \"#utility.yul\":4285:4292   */\n      dup7\n        /* \"#utility.yul\":4276:4282   */\n      dup3\n        /* \"#utility.yul\":4265:4274   */\n      dup8\n        /* \"#utility.yul\":4261:4283   */\n      add\n        /* \"#utility.yul\":4240:4293   */\n      tag_198\n      jump\t// in\n    tag_269:\n        /* \"#utility.yul\":4230:4293   */\n      swap2\n      pop\n        /* \"#utility.yul\":4185:4303   */\n      pop\n        /* \"#utility.yul\":3691:4310   */\n      swap3\n      pop\n      swap3\n      pop\n      swap3\n      jump\t// out\n        /* \"#utility.yul\":4316:4402   */\n    tag_202:\n        /* \"#utility.yul\":4351:4358   */\n      0x00\n        /* \"#utility.yul\":4391:4395   */\n      0xff\n        /* \"#utility.yul\":4384:4389   */\n      dup3\n        /* \"#utility.yul\":4380:4396   */\n      and\n        /* \"#utility.yul\":4369:4396   */\n      swap1\n      pop\n        /* \"#utility.yul\":4316:4402   */\n      swap2\n      swap1\n      pop\n      jump\t// out\n        /* \"#utility.yul\":4408:4520   */\n    tag_203:\n        /* \"#utility.yul\":4491:4513   */\n      tag_272\n        /* \"#utility.yul\":4507:4512   */\n      dup2\n        /* \"#utility.yul\":4491:4513   */\n      tag_202\n      jump\t// in\n    tag_272:\n        /* \"#utility.yul\":4486:4489   */\n      dup3\n        /* \"#utility.yul\":4479:4514   */\n      mstore\n        /* \"#utility.yul\":4408:4520   */\n      pop\n      pop\n      jump\t// out\n        /* \"#utility.yul\":4526:4740   */\n    tag_49:\n        /* \"#utility.yul\":4615:4619   */\n      0x00\n        /* \"#utility.yul\":4653:4655   */\n      0x20\n        /* \"#utility.yul\":4642:4651   */\n      dup3\n        /* \"#utility.yul\":4638:4656   */\n      add\n        /* \"#utility.yul\":4630:4656   */\n      swap1\n      pop\n        /* \"#utility.yul\":4666:4733   */\n      tag_274\n        /* \"#utility.yul\":4730:4731   */\n      0x00\n        /* \"#utility.yul\":4719:4728   */\n      dup4\n        /* \"#utility.yul\":4715:4732   */\n      add\n        /* \"#utility.yul\":4706:4712   */\n      dup5\n        /* \"#utility.yul\":4666:4733   */\n      tag_203\n      jump\t// in\n    tag_274:\n        /* \"#utility.yul\":4526:4740   */\n      swap3\n      swap2\n      pop\n      pop\n      jump\t// out\n        /* \"#utility.yul\":4746:4823   */\n    tag_204:\n        /* \"#utility.yul\":4783:4790   */\n      0x00\n        /* \"#utility.yul\":4812:4817   */\n      dup2\n        /* \"#utility.yul\":4801:4817   */\n      swap1\n      pop\n        /* \"#utility.yul\":4746:4823   */\n      swap2\n      swap1\n      pop\n      jump\t// out\n        /* \"#utility.yul\":4829:4947   */\n    tag_205:\n        /* \"#utility.yul\":4916:4940   */\n      tag_277\n        /* \"#utility.yul\":4934:4939   */\n      dup2\n        /* \"#utility.yul\":4916:4940   */\n      tag_204\n      jump\t// in\n    tag_277:\n        /* \"#utility.yul\":4911:4914   */\n      dup3\n        /* \"#utility.yul\":4904:4941   */\n      mstore\n        /* \"#utility.yul\":4829:4947   */\n      pop\n      pop\n      jump\t// out\n        /* \"#utility.yul\":4953:5175   */\n    tag_54:\n        /* \"#utility.yul\":5046:5050   */\n      0x00\n        /* \"#utility.yul\":5084:5086   */\n      0x20\n        /* \"#utility.yul\":5073:5082   */\n      dup3\n        /* \"#utility.yul\":5069:5087   */\n      add\n        /* \"#utility.yul\":5061:5087   */\n      swap1\n      pop\n        /* \"#utility.yul\":5097:5168   */\n      tag_279\n        /* \"#utility.yul\":5165:5166   */\n      0x00\n        /* \"#utility.yul\":5154:5163   */\n      dup4\n        /* \"#utility.yul\":5150:5167   */\n      add\n        /* \"#utility.yul\":5141:5147   */\n      dup5\n        /* \"#utility.yul\":5097:5168   */\n      tag_205\n      jump\t// in\n    tag_279:\n        /* \"#utility.yul\":4953:5175   */\n      swap3\n      swap2\n      pop\n      pop\n      jump\t// out\n        /* \"#utility.yul\":5181:5241   */\n    tag_206:\n        /* \"#utility.yul\":5209:5212   */\n      0x00\n        /* \"#utility.yul\":5230:5235   */\n      dup2\n        /* \"#utility.yul\":5223:5235   */\n      swap1\n      pop\n        /* \"#utility.yul\":5181:5241   */\n      swap2\n      swap1\n      pop\n      jump\t// out\n        /* \"#utility.yul\":5247:5389   */\n    tag_207:\n        /* \"#utility.yul\":5297:5306   */\n      0x00\n        /* \"#utility.yul\":5330:5383   */\n      tag_282\n        /* \"#utility.yul\":5348:5382   */\n      tag_283\n        /* \"#utility.yul\":5357:5381   */\n      tag_284\n        /* \"#utility.yul\":5375:5380   */\n      dup5\n        /* \"#utility.yul\":5357:5381   */\n      tag_192\n      jump\t// in\n    tag_284:\n        /* \"#utility.yul\":5348:5382   */\n      tag_206\n      jump\t// in\n    tag_283:\n        /* \"#utility.yul\":5330:5383   */\n      tag_192\n      jump\t// in\n    tag_282:\n        /* \"#utility.yul\":5317:5383   */\n      swap1\n      pop\n        /* \"#utility.yul\":5247:5389   */\n      swap2\n      swap1\n      pop\n      jump\t// out\n        /* \"#utility.yul\":5395:5521   */\n    tag_208:\n        /* \"#utility.yul\":5445:5454   */\n      0x00\n        /* \"#utility.yul\":5478:5515   */\n      tag_286\n        /* \"#utility.yul\":5509:5514   */\n      dup3\n        /* \"#utility.yul\":5478:5515   */\n      tag_207\n      jump\t// in\n    tag_286:\n        /* \"#utility.yul\":5465:5515   */\n      swap1\n      pop\n        /* \"#utility.yul\":5395:5521   */\n      swap2\n      swap1\n      pop\n      jump\t// out\n        /* \"#utility.yul\":5527:5666   */\n    tag_209:\n        /* \"#utility.yul\":5590:5599   */\n      0x00\n        /* \"#utility.yul\":5623:5660   */\n      tag_288\n        /* \"#utility.yul\":5654:5659   */\n      dup3\n        /* \"#utility.yul\":5623:5660   */\n      tag_208\n      jump\t// in\n    tag_288:\n        /* \"#utility.yul\":5610:5660   */\n      swap1\n      pop\n        /* \"#utility.yul\":5527:5666   */\n      swap2\n      swap1\n      pop\n      jump\t// out\n        /* \"#utility.yul\":5672:5829   */\n    tag_210:\n        /* \"#utility.yul\":5772:5822   */\n      tag_290\n        /* \"#utility.yul\":5816:5821   */\n      dup2\n        /* \"#utility.yul\":5772:5822   */\n      tag_209\n      jump\t// in\n    tag_290:\n        /* \"#utility.yul\":5767:5770   */\n      dup3\n        /* \"#utility.yul\":5760:5823   */\n      mstore\n        /* \"#utility.yul\":5672:5829   */\n      pop\n      pop\n      jump\t// out\n        /* \"#utility.yul\":5835:6083   */\n    tag_59:\n        /* \"#utility.yul\":5941:5945   */\n      0x00\n        /* \"#utility.yul\":5979:5981   */\n      0x20\n        /* \"#utility.yul\":5968:5977   */\n      dup3\n        /* \"#utility.yul\":5964:5982   */\n      add\n        /* \"#utility.yul\":5956:5982   */\n      swap1\n      pop\n        /* \"#utility.yul\":5992:6076   */\n      tag_292\n        /* \"#utility.yul\":6073:6074   */\n      0x00\n        /* \"#utility.yul\":6062:6071   */\n      dup4\n        /* \"#utility.yul\":6058:6075   */\n      add\n        /* \"#utility.yul\":6049:6055   */\n      dup5\n        /* \"#utility.yul\":5992:6076   */\n      tag_210\n      jump\t// in\n    tag_292:\n        /* \"#utility.yul\":5835:6083   */\n      swap3\n      swap2\n      pop\n      pop\n      jump\t// out\n        /* \"#utility.yul\":6089:6563   */\n    tag_62:\n        /* \"#utility.yul\":6157:6163   */\n      0x00\n        /* \"#utility.yul\":6165:6171   */\n      0x00\n        /* \"#utility.yul\":6214:6216   */\n      0x40\n        /* \"#utility.yul\":6202:6211   */\n      dup4\n        /* \"#utility.yul\":6193:6200   */\n      dup6\n        /* \"#utility.yul\":6189:6212   */\n      sub\n        /* \"#utility.yul\":6185:6217   */\n      slt\n        /* \"#utility.yul\":6182:6301   */\n      iszero\n      tag_294\n      jumpi\n        /* \"#utility.yul\":6220:6299   */\n      tag_295\n      tag_190\n      jump\t// in\n    tag_295:\n        /* \"#utility.yul\":6182:6301   */\n    tag_294:\n        /* \"#utility.yul\":6340:6341   */\n      0x00\n        /* \"#utility.yul\":6365:6418   */\n      tag_296\n        /* \"#utility.yul\":6410:6417   */\n      dup6\n        /* \"#utility.yul\":6401:6407   */\n      dup3\n        /* \"#utility.yul\":6390:6399   */\n      dup7\n        /* \"#utility.yul\":6386:6408   */\n      add\n        /* \"#utility.yul\":6365:6418   */\n      tag_198\n      jump\t// in\n    tag_296:\n        /* \"#utility.yul\":6355:6418   */\n      swap3\n      pop\n        /* \"#utility.yul\":6311:6428   */\n      pop\n        /* \"#utility.yul\":6467:6469   */\n      0x20\n        /* \"#utility.yul\":6493:6546   */\n      tag_297\n        /* \"#utility.yul\":6538:6545   */\n      dup6\n        /* \"#utility.yul\":6529:6535   */\n      dup3\n        /* \"#utility.yul\":6518:6527   */\n      dup7\n        /* \"#utility.yul\":6514:6536   */\n      add\n        /* \"#utility.yul\":6493:6546   */\n      tag_195\n      jump\t// in\n    tag_297:\n        /* \"#utility.yul\":6483:6546   */\n      swap2\n      pop\n        /* \"#utility.yul\":6438:6556   */\n      pop\n        /* \"#utility.yul\":6089:6563   */\n      swap3\n      pop\n      swap3\n      swap1\n      pop\n      jump\t// out\n        /* \"#utility.yul\":6569:6898   */\n    tag_68:\n        /* \"#utility.yul\":6628:6634   */\n      0x00\n        /* \"#utility.yul\":6677:6679   */\n      0x20\n        /* \"#utility.yul\":6665:6674   */\n      dup3\n        /* \"#utility.yul\":6656:6663   */\n      dup5\n        /* \"#utility.yul\":6652:6675   */\n      sub\n        /* \"#utility.yul\":6648:6680   */\n      slt\n        /* \"#utility.yul\":6645:6764   */\n      iszero\n      tag_299\n      jumpi\n        /* \"#utility.yul\":6683:6762   */\n      tag_300\n      tag_190\n      jump\t// in\n    tag_300:\n        /* \"#utility.yul\":6645:6764   */\n    tag_299:\n        /* \"#utility.yul\":6803:6804   */\n      0x00\n        /* \"#utility.yul\":6828:6881   */\n      tag_301\n        /* \"#utility.yul\":6873:6880   */\n      dup5\n        /* \"#utility.yul\":6864:6870   */\n      dup3\n        /* \"#utility.yul\":6853:6862   */\n      dup6\n        /* \"#utility.yul\":6849:6871   */\n      add\n        /* \"#utility.yul\":6828:6881   */\n      tag_195\n      jump\t// in\n    tag_301:\n        /* \"#utility.yul\":6818:6881   */\n      swap2\n      pop\n        /* \"#utility.yul\":6774:6891   */\n      pop\n        /* \"#utility.yul\":6569:6898   */\n      swap3\n      swap2\n      pop\n      pop\n      jump\t// out\n        /* \"#utility.yul\":6904:7022   */\n    tag_211:\n        /* \"#utility.yul\":6975:6997   */\n      tag_303\n        /* \"#utility.yul\":6991:6996   */\n      dup2\n        /* \"#utility.yul\":6975:6997   */\n      tag_202\n      jump\t// in\n    tag_303:\n        /* \"#utility.yul\":6968:6973   */\n      dup2\n        /* \"#utility.yul\":6965:6998   */\n      eq\n        /* \"#utility.yul\":6955:7016   */\n      tag_304\n      jumpi\n        /* \"#utility.yul\":7012:7013   */\n      0x00\n        /* \"#utility.yul\":7009:7010   */\n      0x00\n        /* \"#utility.yul\":7002:7014   */\n      revert\n        /* \"#utility.yul\":6955:7016   */\n    tag_304:\n        /* \"#utility.yul\":6904:7022   */\n      pop\n      jump\t// out\n        /* \"#utility.yul\":7028:7163   */\n    tag_212:\n        /* \"#utility.yul\":7072:7077   */\n      0x00\n        /* \"#utility.yul\":7110:7116   */\n      dup2\n        /* \"#utility.yul\":7097:7117   */\n      calldataload\n        /* \"#utility.yul\":7088:7117   */\n      swap1\n      pop\n        /* \"#utility.yul\":7126:7157   */\n      tag_306\n        /* \"#utility.yul\":7151:7156   */\n      dup2\n        /* \"#utility.yul\":7126:7157   */\n      tag_211\n      jump\t// in\n    tag_306:\n        /* \"#utility.yul\":7028:7163   */\n      swap3\n      swap2\n      pop\n      pop\n      jump\t// out\n        /* \"#utility.yul\":7169:7291   */\n    tag_213:\n        /* \"#utility.yul\":7242:7266   */\n      tag_308\n        /* \"#utility.yul\":7260:7265   */\n      dup2\n        /* \"#utility.yul\":7242:7266   */\n      tag_204\n      jump\t// in\n    tag_308:\n        /* \"#utility.yul\":7235:7240   */\n      dup2\n        /* \"#utility.yul\":7232:7267   */\n      eq\n        /* \"#utility.yul\":7222:7285   */\n      tag_309\n      jumpi\n        /* \"#utility.yul\":7281:7282   */\n      0x00\n        /* \"#utility.yul\":7278:7279   */\n      0x00\n        /* \"#utility.yul\":7271:7283   */\n      revert\n        /* \"#utility.yul\":7222:7285   */\n    tag_309:\n        /* \"#utility.yul\":7169:7291   */\n      pop\n      jump\t// out\n        /* \"#utility.yul\":7297:7436   */\n    tag_214:\n        /* \"#utility.yul\":7343:7348   */\n      0x00\n        /* \"#utility.yul\":7381:7387   */\n      dup2\n        /* \"#utility.yul\":7368:7388   */\n      calldataload\n        /* \"#utility.yul\":7359:7388   */\n      swap1\n      pop\n        /* \"#utility.yul\":7397:7430   */\n      tag_311\n        /* \"#utility.yul\":7424:7429   */\n      dup2\n        /* \"#utility.yul\":7397:7430   */\n      tag_213\n      jump\t// in\n    tag_311:\n        /* \"#utility.yul\":7297:7436   */\n      swap3\n      swap2\n      pop\n      pop\n      jump\t// out\n        /* \"#utility.yul\":7442:8641   */\n    tag_96:\n        /* \"#utility.yul\":7553:7559   */\n      0x00\n        /* \"#utility.yul\":7561:7567   */\n      0x00\n        /* \"#utility.yul\":7569:7575   */\n      0x00\n        /* \"#utility.yul\":7577:7583   */\n      0x00\n        /* \"#utility.yul\":7585:7591   */\n      0x00\n        /* \"#utility.yul\":7593:7599   */\n      0x00\n        /* \"#utility.yul\":7601:7607   */\n      0x00\n        /* \"#utility.yul\":7650:7653   */\n      0xe0\n        /* \"#utility.yul\":7638:7647   */\n      dup9\n        /* \"#utility.yul\":7629:7636   */\n      dup11\n        /* \"#utility.yul\":7625:7648   */\n      sub\n        /* \"#utility.yul\":7621:7654   */\n      slt\n        /* \"#utility.yul\":7618:7738   */\n      iszero\n      tag_313\n      jumpi\n        /* \"#utility.yul\":7657:7736   */\n      tag_314\n      tag_190\n      jump\t// in\n    tag_314:\n        /* \"#utility.yul\":7618:7738   */\n    tag_313:\n        /* \"#utility.yul\":7777:7778   */\n      0x00\n        /* \"#utility.yul\":7802:7855   */\n      tag_315\n        /* \"#utility.yul\":7847:7854   */\n      dup11\n        /* \"#utility.yul\":7838:7844   */\n      dup3\n        /* \"#utility.yul\":7827:7836   */\n      dup12\n        /* \"#utility.yul\":7823:7845   */\n      add\n        /* \"#utility.yul\":7802:7855   */\n      tag_195\n      jump\t// in\n    tag_315:\n        /* \"#utility.yul\":7792:7855   */\n      swap8\n      pop\n        /* \"#utility.yul\":7748:7865   */\n      pop\n        /* \"#utility.yul\":7904:7906   */\n      0x20\n        /* \"#utility.yul\":7930:7983   */\n      tag_316\n        /* \"#utility.yul\":7975:7982   */\n      dup11\n        /* \"#utility.yul\":7966:7972   */\n      dup3\n        /* \"#utility.yul\":7955:7964   */\n      dup12\n        /* \"#utility.yul\":7951:7973   */\n      add\n        /* \"#utility.yul\":7930:7983   */\n      tag_195\n      jump\t// in\n    tag_316:\n        /* \"#utility.yul\":7920:7983   */\n      swap7\n      pop\n        /* \"#utility.yul\":7875:7993   */\n      pop\n        /* \"#utility.yul\":8032:8034   */\n      0x40\n        /* \"#utility.yul\":8058:8111   */\n      tag_317\n        /* \"#utility.yul\":8103:8110   */\n      dup11\n        /* \"#utility.yul\":8094:8100   */\n      dup3\n        /* \"#utility.yul\":8083:8092   */\n      dup12\n        /* \"#utility.yul\":8079:8101   */\n      add\n        /* \"#utility.yul\":8058:8111   */\n      tag_198\n      jump\t// in\n    tag_317:\n        /* \"#utility.yul\":8048:8111   */\n      swap6\n      pop\n        /* \"#utility.yul\":8003:8121   */\n      pop\n        /* \"#utility.yul\":8160:8162   */\n      0x60\n        /* \"#utility.yul\":8186:8239   */\n      tag_318\n        /* \"#utility.yul\":8231:8238   */\n      dup11\n        /* \"#utility.yul\":8222:8228   */\n      dup3\n        /* \"#utility.yul\":8211:8220   */\n      dup12\n        /* \"#utility.yul\":8207:8229   */\n      add\n        /* \"#utility.yul\":8186:8239   */\n      tag_198\n      jump\t// in\n    tag_318:\n        /* \"#utility.yul\":8176:8239   */\n      swap5\n      pop\n        /* \"#utility.yul\":8131:8249   */\n      pop\n        /* \"#utility.yul\":8288:8291   */\n      0x80\n        /* \"#utility.yul\":8315:8366   */\n      tag_319\n        /* \"#utility.yul\":8358:8365   */\n      dup11\n        /* \"#utility.yul\":8349:8355   */\n      dup3\n        /* \"#utility.yul\":8338:8347   */\n      dup12\n        /* \"#utility.yul\":8334:8356   */\n      add\n        /* \"#utility.yul\":8315:8366   */\n      tag_212\n      jump\t// in\n    tag_319:\n        /* \"#utility.yul\":8305:8366   */\n      swap4\n      pop\n        /* \"#utility.yul\":8259:8376   */\n      pop\n        /* \"#utility.yul\":8415:8418   */\n      0xa0\n        /* \"#utility.yul\":8442:8495   */\n      tag_320\n        /* \"#utility.yul\":8487:8494   */\n      dup11\n        /* \"#utility.yul\":8478:8484   */\n      dup3\n        /* \"#utility.yul\":8467:8476   */\n      dup12\n        /* \"#utility.yul\":8463:8485   */\n      add\n        /* \"#utility.yul\":8442:8495   */\n      tag_214\n      jump\t// in\n    tag_320:\n        /* \"#utility.yul\":8432:8495   */\n      swap3\n      pop\n        /* \"#utility.yul\":8386:8505   */\n      pop\n        /* \"#utility.yul\":8544:8547   */\n      0xc0\n        /* \"#utility.yul\":8571:8624   */\n      tag_321\n        /* \"#utility.yul\":8616:8623   */\n      dup11\n        /* \"#utility.yul\":8607:8613   */\n      dup3\n        /* \"#utility.yul\":8596:8605   */\n      dup12\n        /* \"#utility.yul\":8592:8614   */\n      add\n        /* \"#utility.yul\":8571:8624   */\n      tag_214\n      jump\t// in\n    tag_321:\n        /* \"#utility.yul\":8561:8624   */\n      swap2\n      pop\n        /* \"#utility.yul\":8515:8634   */\n      pop\n        /* \"#utility.yul\":7442:8641   */\n      swap3\n      swap6\n      swap9\n      swap2\n      swap5\n      swap8\n      pop\n      swap3\n      swap6\n      pop\n      jump\t// out\n        /* \"#utility.yul\":8647:9121   */\n    tag_101:\n        /* \"#utility.yul\":8715:8721   */\n      0x00\n        /* \"#utility.yul\":8723:8729   */\n      0x00\n        /* \"#utility.yul\":8772:8774   */\n      0x40\n        /* \"#utility.yul\":8760:8769   */\n      dup4\n        /* \"#utility.yul\":8751:8758   */\n      dup6\n        /* \"#utility.yul\":8747:8770   */\n      sub\n        /* \"#utility.yul\":8743:8775   */\n      slt\n        /* \"#utility.yul\":8740:8859   */\n      iszero\n      tag_323\n      jumpi\n        /* \"#utility.yul\":8778:8857   */\n      tag_324\n      tag_190\n      jump\t// in\n    tag_324:\n        /* \"#utility.yul\":8740:8859   */\n    tag_323:\n        /* \"#utility.yul\":8898:8899   */\n      0x00\n        /* \"#utility.yul\":8923:8976   */\n      tag_325\n        /* \"#utility.yul\":8968:8975   */\n      dup6\n        /* \"#utility.yul\":8959:8965   */\n      dup3\n        /* \"#utility.yul\":8948:8957   */\n      dup7\n        /* \"#utility.yul\":8944:8966   */\n      add\n        /* \"#utility.yul\":8923:8976   */\n      tag_195\n      jump\t// in\n    tag_325:\n        /* \"#utility.yul\":8913:8976   */\n      swap3\n      pop\n        /* \"#utility.yul\":8869:8986   */\n      pop\n        /* \"#utility.yul\":9025:9027   */\n      0x20\n        /* \"#utility.yul\":9051:9104   */\n      tag_326\n        /* \"#utility.yul\":9096:9103   */\n      dup6\n        /* \"#utility.yul\":9087:9093   */\n      dup3\n        /* \"#utility.yul\":9076:9085   */\n      dup7\n        /* \"#utility.yul\":9072:9094   */\n      add\n        /* \"#utility.yul\":9051:9104   */\n      tag_195\n      jump\t// in\n    tag_326:\n        /* \"#utility.yul\":9041:9104   */\n      swap2\n      pop\n        /* \"#utility.yul\":8996:9114   */\n      pop\n        /* \"#utility.yul\":8647:9121   */\n      swap3\n      pop\n      swap3\n      swap1\n      pop\n      jump\t// out\n        /* \"#utility.yul\":9127:9456   */\n    tag_107:\n        /* \"#utility.yul\":9186:9192   */\n      0x00\n        /* \"#utility.yul\":9235:9237   */\n      0x20\n        /* \"#utility.yul\":9223:9232   */\n      dup3\n        /* \"#utility.yul\":9214:9221   */\n      dup5\n        /* \"#utility.yul\":9210:9233   */\n      sub\n        /* \"#utility.yul\":9206:9238   */\n      slt\n        /* \"#utility.yul\":9203:9322   */\n      iszero\n      tag_328\n      jumpi\n        /* \"#utility.yul\":9241:9320   */\n      tag_329\n      tag_190\n      jump\t// in\n    tag_329:\n        /* \"#utility.yul\":9203:9322   */\n    tag_328:\n        /* \"#utility.yul\":9361:9362   */\n      0x00\n        /* \"#utility.yul\":9386:9439   */\n      tag_330\n        /* \"#utility.yul\":9431:9438   */\n      dup5\n        /* \"#utility.yul\":9422:9428   */\n      dup3\n        /* \"#utility.yul\":9411:9420   */\n      dup6\n        /* \"#utility.yul\":9407:9429   */\n      add\n        /* \"#utility.yul\":9386:9439   */\n      tag_198\n      jump\t// in\n    tag_330:\n        /* \"#utility.yul\":9376:9439   */\n      swap2\n      pop\n        /* \"#utility.yul\":9332:9449   */\n      pop\n        /* \"#utility.yul\":9127:9456   */\n      swap3\n      swap2\n      pop\n      pop\n      jump\t// out\n        /* \"#utility.yul\":9462:9642   */\n    tag_215:\n        /* \"#utility.yul\":9510:9587   */\n      0x4e487b7100000000000000000000000000000000000000000000000000000000\n        /* \"#utility.yul\":9507:9508   */\n      0x00\n        /* \"#utility.yul\":9500:9588   */\n      mstore\n        /* \"#utility.yul\":9607:9611   */\n      0x22\n        /* \"#utility.yul\":9604:9605   */\n      0x04\n        /* \"#utility.yul\":9597:9612   */\n      mstore\n        /* \"#utility.yul\":9631:9635   */\n      0x24\n        /* \"#utility.yul\":9628:9629   */\n      0x00\n        /* \"#utility.yul\":9621:9636   */\n      revert\n        /* \"#utility.yul\":9648:9968   */\n    tag_154:\n        /* \"#utility.yul\":9692:9698   */\n      0x00\n        /* \"#utility.yul\":9729:9730   */\n      0x02\n        /* \"#utility.yul\":9723:9727   */\n      dup3\n        /* \"#utility.yul\":9719:9731   */\n      div\n        /* \"#utility.yul\":9709:9731   */\n      swap1\n      pop\n        /* \"#utility.yul\":9776:9777   */\n      0x01\n        /* \"#utility.yul\":9770:9774   */\n      dup3\n        /* \"#utility.yul\":9766:9778   */\n      and\n        /* \"#utility.yul\":9797:9815   */\n      dup1\n        /* \"#utility.yul\":9787:9868   */\n      tag_333\n      jumpi\n        /* \"#utility.yul\":9853:9857   */\n      0x7f\n        /* \"#utility.yul\":9845:9851   */\n      dup3\n        /* \"#utility.yul\":9841:9858   */\n      and\n        /* \"#utility.yul\":9831:9858   */\n      swap2\n      pop\n        /* \"#utility.yul\":9787:9868   */\n    tag_333:\n        /* \"#utility.yul\":9915:9917   */\n      0x20\n        /* \"#utility.yul\":9907:9913   */\n      dup3\n        /* \"#utility.yul\":9904:9918   */\n      lt\n        /* \"#utility.yul\":9884:9902   */\n      dup2\n        /* \"#utility.yul\":9881:9919   */\n      sub\n        /* \"#utility.yul\":9878:9962   */\n      tag_334\n      jumpi\n        /* \"#utility.yul\":9934:9952   */\n      tag_335\n      tag_215\n      jump\t// in\n    tag_335:\n        /* \"#utility.yul\":9878:9962   */\n    tag_334:\n        /* \"#utility.yul\":9699:9968   */\n      pop\n        /* \"#utility.yul\":9648:9968   */\n      swap2\n      swap1\n      pop\n      jump\t// out\n        /* \"#utility.yul\":9974:10122   */\n    tag_216:\n        /* \"#utility.yul\":10076:10087   */\n      0x00\n        /* \"#utility.yul\":10113:10116   */\n      dup2\n        /* \"#utility.yul\":10098:10116   */\n      swap1\n      pop\n        /* \"#utility.yul\":9974:10122   */\n      swap3\n      swap2\n      pop\n      pop\n      jump\t// out\n        /* \"#utility.yul\":10128:10269   */\n    tag_217:\n        /* \"#utility.yul\":10177:10181   */\n      0x00\n        /* \"#utility.yul\":10200:10203   */\n      dup2\n        /* \"#utility.yul\":10192:10203   */\n      swap1\n      pop\n        /* \"#utility.yul\":10223:10226   */\n      dup2\n        /* \"#utility.yul\":10220:10221   */\n      0x00\n        /* \"#utility.yul\":10213:10227   */\n      mstore\n        /* \"#utility.yul\":10257:10261   */\n      0x20\n        /* \"#utility.yul\":10254:10255   */\n      0x00\n        /* \"#utility.yul\":10244:10262   */\n      keccak256\n        /* \"#utility.yul\":10236:10262   */\n      swap1\n      pop\n        /* \"#utility.yul\":10128:10269   */\n      swap2\n      swap1\n      pop\n      jump\t// out\n        /* \"#utility.yul\":10299:11173   */\n    tag_218:\n        /* \"#utility.yul\":10402:10405   */\n      0x00\n        /* \"#utility.yul\":10439:10444   */\n      dup2\n        /* \"#utility.yul\":10433:10445   */\n      sload\n        /* \"#utility.yul\":10468:10504   */\n      tag_339\n        /* \"#utility.yul\":10494:10503   */\n      dup2\n        /* \"#utility.yul\":10468:10504   */\n      tag_154\n      jump\t// in\n    tag_339:\n        /* \"#utility.yul\":10520:10609   */\n      tag_340\n        /* \"#utility.yul\":10602:10608   */\n      dup2\n        /* \"#utility.yul\":10597:10600   */\n      dup7\n        /* \"#utility.yul\":10520:10609   */\n      tag_216\n      jump\t// in\n    tag_340:\n        /* \"#utility.yul\":10513:10609   */\n      swap5\n      pop\n        /* \"#utility.yul\":10640:10641   */\n      0x01\n        /* \"#utility.yul\":10629:10638   */\n      dup3\n        /* \"#utility.yul\":10625:10642   */\n      and\n        /* \"#utility.yul\":10656:10657   */\n      0x00\n        /* \"#utility.yul\":10651:10817   */\n      dup2\n      eq\n      tag_342\n      jumpi\n        /* \"#utility.yul\":10831:10832   */\n      0x01\n        /* \"#utility.yul\":10826:11167   */\n      dup2\n      eq\n      tag_343\n      jumpi\n        /* \"#utility.yul\":10618:11167   */\n      jump(tag_341)\n        /* \"#utility.yul\":10651:10817   */\n    tag_342:\n        /* \"#utility.yul\":10735:10739   */\n      0xff\n        /* \"#utility.yul\":10731:10740   */\n      not\n        /* \"#utility.yul\":10720:10729   */\n      dup4\n        /* \"#utility.yul\":10716:10741   */\n      and\n        /* \"#utility.yul\":10711:10714   */\n      dup7\n        /* \"#utility.yul\":10704:10742   */\n      mstore\n        /* \"#utility.yul\":10797:10803   */\n      dup2\n        /* \"#utility.yul\":10790:10804   */\n      iszero\n        /* \"#utility.yul\":10783:10805   */\n      iszero\n        /* \"#utility.yul\":10775:10781   */\n      dup3\n        /* \"#utility.yul\":10771:10806   */\n      mul\n        /* \"#utility.yul\":10766:10769   */\n      dup7\n        /* \"#utility.yul\":10762:10807   */\n      add\n        /* \"#utility.yul\":10755:10807   */\n      swap4\n      pop\n        /* \"#utility.yul\":10651:10817   */\n      jump(tag_341)\n        /* \"#utility.yul\":10826:11167   */\n    tag_343:\n        /* \"#utility.yul\":10893:10931   */\n      tag_344\n        /* \"#utility.yul\":10925:10930   */\n      dup6\n        /* \"#utility.yul\":10893:10931   */\n      tag_217\n      jump\t// in\n    tag_344:\n        /* \"#utility.yul\":10953:10954   */\n      0x00\n        /* \"#utility.yul\":10967:11121   */\n    tag_345:\n        /* \"#utility.yul\":10981:10987   */\n      dup4\n        /* \"#utility.yul\":10978:10979   */\n      dup2\n        /* \"#utility.yul\":10975:10988   */\n      lt\n        /* \"#utility.yul\":10967:11121   */\n      iszero\n      tag_347\n      jumpi\n        /* \"#utility.yul\":11055:11062   */\n      dup2\n        /* \"#utility.yul\":11049:11063   */\n      sload\n        /* \"#utility.yul\":11045:11046   */\n      dup2\n        /* \"#utility.yul\":11040:11043   */\n      dup10\n        /* \"#utility.yul\":11036:11047   */\n      add\n        /* \"#utility.yul\":11029:11064   */\n      mstore\n        /* \"#utility.yul\":11105:11106   */\n      0x01\n        /* \"#utility.yul\":11096:11103   */\n      dup3\n        /* \"#utility.yul\":11092:11107   */\n      add\n        /* \"#utility.yul\":11081:11107   */\n      swap2\n      pop\n        /* \"#utility.yul\":11003:11007   */\n      0x20\n        /* \"#utility.yul\":11000:11001   */\n      dup2\n        /* \"#utility.yul\":10996:11008   */\n      add\n        /* \"#utility.yul\":10991:11008   */\n      swap1\n      pop\n        /* \"#utility.yul\":10967:11121   */\n      jump(tag_345)\n    tag_347:\n        /* \"#utility.yul\":11150:11156   */\n      dup4\n        /* \"#utility.yul\":11145:11148   */\n      dup9\n        /* \"#utility.yul\":11141:11157   */\n      add\n        /* \"#utility.yul\":11134:11157   */\n      swap6\n      pop\n        /* \"#utility.yul\":10833:11167   */\n      pop\n      pop\n        /* \"#utility.yul\":10618:11167   */\n    tag_341:\n      pop\n        /* \"#utility.yul\":10406:11173   */\n      pop\n      pop\n        /* \"#utility.yul\":10299:11173   */\n      swap3\n      swap2\n      pop\n      pop\n      jump\t// out\n        /* \"#utility.yul\":11179:11365   */\n    tag_219:\n        /* \"#utility.yul\":11347:11358   */\n      0x2045544820506f6f6c0000000000000000000000000000000000000000000000\n        /* \"#utility.yul\":11342:11345   */\n      dup2\n        /* \"#utility.yul\":11335:11359   */\n      mstore\n        /* \"#utility.yul\":11179:11365   */\n      pop\n      jump\t// out\n        /* \"#utility.yul\":11371:11904   */\n    tag_112:\n        /* \"#utility.yul\":11590:11593   */\n      0x00\n        /* \"#utility.yul\":11612:11704   */\n      tag_350\n        /* \"#utility.yul\":11700:11703   */\n      dup3\n        /* \"#utility.yul\":11691:11697   */\n      dup5\n        /* \"#utility.yul\":11612:11704   */\n      tag_218\n      jump\t// in\n    tag_350:\n        /* \"#utility.yul\":11605:11704   */\n      swap2\n      pop\n        /* \"#utility.yul\":11714:11851   */\n      tag_351\n        /* \"#utility.yul\":11847:11850   */\n      dup3\n        /* \"#utility.yul\":11714:11851   */\n      tag_219\n      jump\t// in\n    tag_351:\n        /* \"#utility.yul\":11876:11877   */\n      0x09\n        /* \"#utility.yul\":11871:11874   */\n      dup3\n        /* \"#utility.yul\":11867:11878   */\n      add\n        /* \"#utility.yul\":11860:11878   */\n      swap2\n      pop\n        /* \"#utility.yul\":11895:11898   */\n      dup2\n        /* \"#utility.yul\":11888:11898   */\n      swap1\n      pop\n        /* \"#utility.yul\":11371:11904   */\n      swap3\n      swap2\n      pop\n      pop\n      jump\t// out\n        /* \"#utility.yul\":11910:12090   */\n    tag_220:\n        /* \"#utility.yul\":12078:12083   */\n      0x4554480000000000000000000000000000000000000000000000000000000000\n        /* \"#utility.yul\":12073:12076   */\n      dup2\n        /* \"#utility.yul\":12066:12084   */\n      mstore\n        /* \"#utility.yul\":11910:12090   */\n      pop\n      jump\t// out\n        /* \"#utility.yul\":12096:12629   */\n    tag_148:\n        /* \"#utility.yul\":12315:12318   */\n      0x00\n        /* \"#utility.yul\":12337:12429   */\n      tag_354\n        /* \"#utility.yul\":12425:12428   */\n      dup3\n        /* \"#utility.yul\":12416:12422   */\n      dup5\n        /* \"#utility.yul\":12337:12429   */\n      tag_218\n      jump\t// in\n    tag_354:\n        /* \"#utility.yul\":12330:12429   */\n      swap2\n      pop\n        /* \"#utility.yul\":12439:12576   */\n      tag_355\n        /* \"#utility.yul\":12572:12575   */\n      dup3\n        /* \"#utility.yul\":12439:12576   */\n      tag_220\n      jump\t// in\n    tag_355:\n        /* \"#utility.yul\":12601:12602   */\n      0x03\n        /* \"#utility.yul\":12596:12599   */\n      dup3\n        /* \"#utility.yul\":12592:12603   */\n      add\n        /* \"#utility.yul\":12585:12603   */\n      swap2\n      pop\n        /* \"#utility.yul\":12620:12623   */\n      dup2\n        /* \"#utility.yul\":12613:12623   */\n      swap1\n      pop\n        /* \"#utility.yul\":12096:12629   */\n      swap3\n      swap2\n      pop\n      pop\n      jump\t// out\n\n    auxdata: 0xa264697066735822122061dfff5a1923c2abb9cca5f6e4cd486f8130b0cc0660d8a49c047f8aab09a5fa64736f6c634300081c0033\n}\n",
				"bytecode": {
					"linkReferences": {},
					"object": "60a060405234801561000f575f5ffd5b50604051611394380380611394833981810160405281019061003191906100da565b8073ffffffffffffffffffffffffffffffffffffffff1660808173ffffffffffffffffffffffffffffffffffffffff168152505050610105565b5f5ffd5b5f73ffffffffffffffffffffffffffffffffffffffff82169050919050565b5f6100988261006f565b9050919050565b5f6100a98261008e565b9050919050565b6100b98161009f565b81146100c3575f5ffd5b50565b5f815190506100d4816100b0565b92915050565b5f602082840312156100ef576100ee61006b565b5b5f6100fc848285016100c6565b91505092915050565b60805161127761011d5f395f61073c01526112775ff3fe6080604052600436106100fd575f3560e01c806370a0823111610094578063b09f126611610063578063b09f126614610359578063d28d885214610383578063d505accf146103ad578063dd62ed3e146103d5578063ef8b30f714610411576100fd565b806370a082311461027b5780637ecebe00146102b757806395d89b41146102f3578063a9059cbb1461031d576100fd565b8063313ce567116100d0578063313ce567146101cd5780633644e515146101f757806338d52e0f146102215780636e553f651461024b576100fd565b806306fdde0314610101578063095ea7b31461012b57806318160ddd1461016757806323b872dd14610191575b5f5ffd5b34801561010c575f5ffd5b5061011561044d565b6040516101229190610c7c565b60405180910390f35b348015610136575f5ffd5b50610151600480360381019061014c9190610d2d565b610474565b60405161015e9190610d85565b60405180910390f35b348015610172575f5ffd5b5061017b6104ff565b6040516101889190610dad565b60405180910390f35b34801561019c575f5ffd5b506101b760048036038101906101b29190610dc6565b610510565b6040516101c49190610d85565b60405180910390f35b3480156101d8575f5ffd5b506101e16106b6565b6040516101ee9190610e31565b60405180910390f35b348015610202575f5ffd5b5061020b6106be565b6040516102189190610e62565b60405180910390f35b34801561022c575f5ffd5b5061023561073a565b6040516102429190610ed6565b60405180910390f35b61026560048036038101906102609190610eef565b61075e565b6040516102729190610dad565b60405180910390f35b348015610286575f5ffd5b506102a1600480360381019061029c9190610f2d565b61076f565b6040516102ae9190610dad565b60405180910390f35b3480156102c2575f5ffd5b506102dd60048036038101906102d89190610f2d565b610788565b6040516102ea9190610dad565b60405180910390f35b3480156102fe575f5ffd5b506103076107a1565b6040516103149190610c7c565b60405180910390f35b348015610328575f5ffd5b50610343600480360381019061033e9190610d2d565b6107c9565b6040516103509190610d85565b60405180910390f35b348015610364575f5ffd5b5061036d610857565b60405161037a9190610c7c565b60405180910390f35b34801561038e575f5ffd5b506103976108e3565b6040516103a49190610c7c565b60405180910390f35b3480156103b8575f5ffd5b506103d360048036038101906103ce9190610fac565b61096e565b005b3480156103e0575f5ffd5b506103fb60048036038101906103f69190611049565b610b31565b6040516104089190610dad565b60405180910390f35b34801561041c575f5ffd5b5061043760048036038101906104329190611087565b610bc8565b6040516104449190610dad565b60405180910390f35b60605f60405160200161046091906111d1565b604051602081830303815290604052905090565b5f61047d610bce565b156104b0578119156e22d473030f116ddee9f6b43ac78ba38460601b60601c18176104af57633f68539a5f526004601cfd5b5b82602052637f5e9f20600c52335f52816034600c2055815f52602c5160601c337f8c5be1e5ebec7d5bd14f71427d1e84f3dd0314c0f7b2291e5b200ac8c7c3b92560205fa36001905092915050565b5f6805345cdf77eb68f44c54905090565b5f61051c848484610bd5565b610524610bce565b156105f2578360601b6e22d473030f116ddee9f6b43ac78ba3331461057d5733602052637f5e9f208117600c526034600c20805480191561057a5780851115610574576313be252b5f526004601cfd5b84810382555b50505b6387a211a28117600c526020600c208054808511156105a35763f4d678b85f526004601cfd5b8481038255855f526020600c2085815401815585602052600c5160601c8460601c7fddf252ad1be2c89b69c2b068fc378daa952ba7f163c4a11628f55a4df523b3ef602080a3505050506106a0565b8360601b33602052637f5e9f208117600c526034600c20805480191561062d5780851115610627576313be252b5f526004601cfd5b84810382555b6387a211a28317600c526020600c208054808711156106535763f4d678b85f526004601cfd5b8681038255875f526020600c2087815401815587602052600c5160601c8660601c7fddf252ad1be2c89b69c2b068fc378daa952ba7f163c4a11628f55a4df523b3ef602080a35050505050505b6106ab848484610bda565b600190509392505050565b5f6012905090565b5f5f6106c8610bdf565b90505f5f1b81036106e5576106db61044d565b8051906020012090505b5f6106ee610be3565b90506040517f8b73c3c69bb8fe3d512ecc4cf759cc79239f7b179b0ffacaa9a75d522b39400f815282602082015281604082015246606082015230608082015260a08120935050505090565b7f000000000000000000000000000000000000000000000000000000000000000081565b5f61076883610bc8565b5092915050565b5f6387a211a2600c52815f526020600c20549050919050565b5f6338377508600c52815f526020600c20549050919050565b606060016040516020016107b5919061121c565b604051602081830303815290604052905090565b5f6107d5338484610bd5565b6387a211a2600c52335f526020600c208054808411156107fc5763f4d678b85f526004601cfd5b8381038255845f526020600c2084815401815584602052600c5160601c337fddf252ad1be2c89b69c2b068fc378daa952ba7f163c4a11628f55a4df523b3ef602080a350505061084d338484610bda565b6001905092915050565b60018054610864906110df565b80601f0160208091040260200160405190810160405280929190818152602001828054610890906110df565b80156108db5780601f106108b2576101008083540402835291602001916108db565b820191905f5260205f20905b8154815290600101906020018083116108be57829003601f168201915b505050505081565b5f80546108ef906110df565b80601f016020809104026020016040519081016040528092919081815260200182805461091b906110df565b80156109665780601f1061093d57610100808354040283529160200191610966565b820191905f5260205f20905b81548152906001019060200180831161094957829003601f168201915b505050505081565b610976610bce565b156109a9578419156e22d473030f116ddee9f6b43ac78ba38760601b60601c18176109a857633f68539a5f526004601cfd5b5b5f6109b2610bdf565b90505f5f1b81036109cf576109c561044d565b8051906020012090505b5f6109d8610be3565b9050854211156109ef57631a15a3cc5f526004601cfd5b6040518960601b60601c99508860601b60601c985065383775081901600e52895f526020600c2080547f8b73c3c69bb8fe3d512ecc4cf759cc79239f7b179b0ffacaa9a75d522b39400f835284602084015283604084015246606084015230608084015260a08320602e527f6e71edae12b1b97f4d1f60370fef10105fa2faae0126114a169c64845d6126c983528b60208401528a60408401528960608401528060808401528860a084015260c08320604e526042602c205f528760ff16602052866040528560605260208060805f60015afa8c3d5114610ad75763ddafbaef5f526004601cfd5b80820183558b637f5e9f2060a01b176040528a6034602c20558b8d7f8c5be1e5ebec7d5bd14f71427d1e84f3dd0314c0f7b2291e5b200ac8c7c3b925602060608801a3836040525f60605250505050505050505050505050565b5f610b3a610bce565b15610baa576e22d473030f116ddee9f6b43ac78ba373ffffffffffffffffffffffffffffffffffffffff168273ffffffffffffffffffffffffffffffffffffffff1603610ba9577fffffffffffffffffffffffffffffffffffffffffffffffffffffffffffffffff9050610bc2565b5b81602052637f5e9f20600c52825f526034600c205490505b92915050565b5f919050565b5f5f905090565b505050565b505050565b5f90565b5f7fc89efdaa54c0f20c7adf612882df0950f5a951637e0307cdcb4c672f298b8bc65f1b905090565b5f81519050919050565b5f82825260208201905092915050565b8281835e5f83830152505050565b5f601f19601f8301169050919050565b5f610c4e82610c0c565b610c588185610c16565b9350610c68818560208601610c26565b610c7181610c34565b840191505092915050565b5f6020820190508181035f830152610c948184610c44565b905092915050565b5f5ffd5b5f73ffffffffffffffffffffffffffffffffffffffff82169050919050565b5f610cc982610ca0565b9050919050565b610cd981610cbf565b8114610ce3575f5ffd5b50565b5f81359050610cf481610cd0565b92915050565b5f819050919050565b610d0c81610cfa565b8114610d16575f5ffd5b50565b5f81359050610d2781610d03565b92915050565b5f5f60408385031215610d4357610d42610c9c565b5b5f610d5085828601610ce6565b9250506020610d6185828601610d19565b9150509250929050565b5f8115159050919050565b610d7f81610d6b565b82525050565b5f602082019050610d985f830184610d76565b92915050565b610da781610cfa565b82525050565b5f602082019050610dc05f830184610d9e565b92915050565b5f5f5f60608486031215610ddd57610ddc610c9c565b5b5f610dea86828701610ce6565b9350506020610dfb86828701610ce6565b9250506040610e0c86828701610d19565b9150509250925092565b5f60ff82169050919050565b610e2b81610e16565b82525050565b5f602082019050610e445f830184610e22565b92915050565b5f819050919050565b610e5c81610e4a565b82525050565b5f602082019050610e755f830184610e53565b92915050565b5f819050919050565b5f610e9e610e99610e9484610ca0565b610e7b565b610ca0565b9050919050565b5f610eaf82610e84565b9050919050565b5f610ec082610ea5565b9050919050565b610ed081610eb6565b82525050565b5f602082019050610ee95f830184610ec7565b92915050565b5f5f60408385031215610f0557610f04610c9c565b5b5f610f1285828601610d19565b9250506020610f2385828601610ce6565b9150509250929050565b5f60208284031215610f4257610f41610c9c565b5b5f610f4f84828501610ce6565b91505092915050565b610f6181610e16565b8114610f6b575f5ffd5b50565b5f81359050610f7c81610f58565b92915050565b610f8b81610e4a565b8114610f95575f5ffd5b50565b5f81359050610fa681610f82565b92915050565b5f5f5f5f5f5f5f60e0888a031215610fc757610fc6610c9c565b5b5f610fd48a828b01610ce6565b9750506020610fe58a828b01610ce6565b9650506040610ff68a828b01610d19565b95505060606110078a828b01610d19565b94505060806110188a828b01610f6e565b93505060a06110298a828b01610f98565b92505060c061103a8a828b01610f98565b91505092959891949750929550565b5f5f6040838503121561105f5761105e610c9c565b5b5f61106c85828601610ce6565b925050602061107d85828601610ce6565b9150509250929050565b5f6020828403121561109c5761109b610c9c565b5b5f6110a984828501610d19565b91505092915050565b7f4e487b71000000000000000000000000000000000000000000000000000000005f52602260045260245ffd5b5f60028204905060018216806110f657607f821691505b602082108103611109576111086110b2565b5b50919050565b5f81905092915050565b5f819050815f5260205f209050919050565b5f8154611137816110df565b611141818661110f565b9450600182165f811461115b5760018114611170576111a2565b60ff19831686528115158202860193506111a2565b61117985611119565b5f5b8381101561119a5781548189015260018201915060208101905061117b565b838801955050505b50505092915050565b7f2045544820506f6f6c0000000000000000000000000000000000000000000000815250565b5f6111dc828461112b565b91506111e7826111ab565b60098201915081905092915050565b7f4554480000000000000000000000000000000000000000000000000000000000815250565b5f611227828461112b565b9150611232826111f6565b6003820191508190509291505056fea264697066735822122061dfff5a1923c2abb9cca5f6e4cd486f8130b0cc0660d8a49c047f8aab09a5fa64736f6c634300081c0033",
					"opcodes": "PUSH1 0xA0 PUSH1 0x40 MSTORE CALLVALUE DUP1 ISZERO PUSH2 0xF JUMPI PUSH0 PUSH0 REVERT JUMPDEST POP PUSH1 0x40 MLOAD PUSH2 0x1394 CODESIZE SUB DUP1 PUSH2 0x1394 DUP4 CODECOPY DUP2 DUP2 ADD PUSH1 0x40 MSTORE DUP2 ADD SWAP1 PUSH2 0x31 SWAP2 SWAP1 PUSH2 0xDA JUMP JUMPDEST DUP1 PUSH20 0xFFFFFFFFFFFFFFFFFFFFFFFFFFFFFFFFFFFFFFFF AND PUSH1 0x80 DUP2 PUSH20 0xFFFFFFFFFFFFFFFFFFFFFFFFFFFFFFFFFFFFFFFF AND DUP2 MSTORE POP POP POP PUSH2 0x105 JUMP JUMPDEST PUSH0 PUSH0 REVERT JUMPDEST PUSH0 PUSH20 0xFFFFFFFFFFFFFFFFFFFFFFFFFFFFFFFFFFFFFFFF DUP3 AND SWAP1 POP SWAP2 SWAP1 POP JUMP JUMPDEST PUSH0 PUSH2 0x98 DUP3 PUSH2 0x6F JUMP JUMPDEST SWAP1 POP SWAP2 SWAP1 POP JUMP JUMPDEST PUSH0 PUSH2 0xA9 DUP3 PUSH2 0x8E JUMP JUMPDEST SWAP1 POP SWAP2 SWAP1 POP JUMP JUMPDEST PUSH2 0xB9 DUP2 PUSH2 0x9F JUMP JUMPDEST DUP2 EQ PUSH2 0xC3 JUMPI PUSH0 PUSH0 REVERT JUMPDEST POP JUMP JUMPDEST PUSH0 DUP2 MLOAD SWAP1 POP PUSH2 0xD4 DUP2 PUSH2 0xB0 JUMP JUMPDEST SWAP3 SWAP2 POP POP JUMP JUMPDEST PUSH0 PUSH1 0x20 DUP3 DUP5 SUB SLT ISZERO PUSH2 0xEF JUMPI PUSH2 0xEE PUSH2 0x6B JUMP JUMPDEST JUMPDEST PUSH0 PUSH2 0xFC DUP5 DUP3 DUP6 ADD PUSH2 0xC6 JUMP JUMPDEST SWAP2 POP POP SWAP3 SWAP2 POP POP JUMP JUMPDEST PUSH1 0x80 MLOAD PUSH2 0x1277 PUSH2 0x11D PUSH0 CODECOPY PUSH0 PUSH2 0x73C ADD MSTORE PUSH2 0x1277 PUSH0 RETURN INVALID PUSH1 0x80 PUSH1 0x40 MSTORE PUSH1 0x4 CALLDATASIZE LT PUSH2 0xFD JUMPI PUSH0 CALLDATALOAD PUSH1 0xE0 SHR DUP1 PUSH4 0x70A08231 GT PUSH2 0x94 JUMPI DUP1 PUSH4 0xB09F1266 GT PUSH2 0x63 JUMPI DUP1 PUSH4 0xB09F1266 EQ PUSH2 0x359 JUMPI DUP1 PUSH4 0xD28D8852 EQ PUSH2 0x383 JUMPI DUP1 PUSH4 0xD505ACCF EQ PUSH2 0x3AD JUMPI DUP1 PUSH4 0xDD62ED3E EQ PUSH2 0x3D5 JUMPI DUP1 PUSH4 0xEF8B30F7 EQ PUSH2 0x411 JUMPI PUSH2 0xFD JUMP JUMPDEST DUP1 PUSH4 0x70A08231 EQ PUSH2 0x27B JUMPI DUP1 PUSH4 0x7ECEBE00 EQ PUSH2 0x2B7 JUMPI DUP1 PUSH4 0x95D89B41 EQ PUSH2 0x2F3 JUMPI DUP1 PUSH4 0xA9059CBB EQ PUSH2 0x31D JUMPI PUSH2 0xFD JUMP JUMPDEST DUP1 PUSH4 0x313CE567 GT PUSH2 0xD0 JUMPI DUP1 PUSH4 0x313CE567 EQ PUSH2 0x1CD JUMPI DUP1 PUSH4 0x3644E515 EQ PUSH2 0x1F7 JUMPI DUP1 PUSH4 0x38D52E0F EQ PUSH2 0x221 JUMPI DUP1 PUSH4 0x6E553F65 EQ PUSH2 0x24B JUMPI PUSH2 0xFD JUMP JUMPDEST DUP1 PUSH4 0x6FDDE03 EQ PUSH2 0x101 JUMPI DUP1 PUSH4 0x95EA7B3 EQ PUSH2 0x12B JUMPI DUP1 PUSH4 0x18160DDD EQ PUSH2 0x167 JUMPI DUP1 PUSH4 0x23B872DD EQ PUSH2 0x191 JUMPI JUMPDEST PUSH0 PUSH0 REVERT JUMPDEST CALLVALUE DUP1 ISZERO PUSH2 0x10C JUMPI PUSH0 PUSH0 REVERT JUMPDEST POP PUSH2 0x115 PUSH2 0x44D JUMP JUMPDEST PUSH1 0x40 MLOAD PUSH2 0x122 SWAP2 SWAP1 PUSH2 0xC7C JUMP JUMPDEST PUSH1 0x40 MLOAD DUP1 SWAP2 SUB SWAP1 RETURN JUMPDEST CALLVALUE DUP1 ISZERO PUSH2 0x136 JUMPI PUSH0 PUSH0 REVERT JUMPDEST POP PUSH2 0x151 PUSH1 0x4 DUP1 CALLDATASIZE SUB DUP2 ADD SWAP1 PUSH2 0x14C SWAP2 SWAP1 PUSH2 0xD2D JUMP JUMPDEST PUSH2 0x474 JUMP JUMPDEST PUSH1 0x40 MLOAD PUSH2 0x15E SWAP2 SWAP1 PUSH2 0xD85 JUMP JUMPDEST PUSH1 0x40 MLOAD DUP1 SWAP2 SUB SWAP1 RETURN JUMPDEST CALLVALUE DUP1 ISZERO PUSH2 0x172 JUMPI PUSH0 PUSH0 REVERT JUMPDEST POP PUSH2 0x17B PUSH2 0x4FF JUMP JUMPDEST PUSH1 0x40 MLOAD PUSH2 0x188 SWAP2 SWAP1 PUSH2 0xDAD JUMP JUMPDEST PUSH1 0x40 MLOAD DUP1 SWAP2 SUB SWAP1 RETURN JUMPDEST CALLVALUE DUP1 ISZERO PUSH2 0x19C JUMPI PUSH0 PUSH0 REVERT JUMPDEST POP PUSH2 0x1B7 PUSH1 0x4 DUP1 CALLDATASIZE SUB DUP2 ADD SWAP1 PUSH2 0x1B2 SWAP2 SWAP1 PUSH2 0xDC6 JUMP JUMPDEST PUSH2 0x510 JUMP JUMPDEST PUSH1 0x40 MLOAD PUSH2 0x1C4 SWAP2 SWAP1 PUSH2 0xD85 JUMP JUMPDEST PUSH1 0x40 MLOAD DUP1 SWAP2 SUB SWAP1 RETURN JUMPDEST CALLVALUE DUP1 ISZERO PUSH2 0x1D8 JUMPI PUSH0 PUSH0 REVERT JUMPDEST POP PUSH2 0x1E1 PUSH2 0x6B6 JUMP JUMPDEST PUSH1 0x40 MLOAD PUSH2 0x1EE SWAP2 SWAP1 PUSH2 0xE31 JUMP JUMPDEST PUSH1 0x40 MLOAD DUP1 SWAP2 SUB SWAP1 RETURN JUMPDEST CALLVALUE DUP1 ISZERO PUSH2 0x202 JUMPI PUSH0 PUSH0 REVERT JUMPDEST POP PUSH2 0x20B PUSH2 0x6BE JUMP JUMPDEST PUSH1 0x40 MLOAD PUSH2 0x218 SWAP2 SWAP1 PUSH2 0xE62 JUMP JUMPDEST PUSH1 0x40 MLOAD DUP1 SWAP2 SUB SWAP1 RETURN JUMPDEST CALLVALUE DUP1 ISZERO PUSH2 0x22C JUMPI PUSH0 PUSH0 REVERT JUMPDEST POP PUSH2 0x235 PUSH2 0x73A JUMP JUMPDEST PUSH1 0x40 MLOAD PUSH2 0x242 SWAP2 SWAP1 PUSH2 0xED6 JUMP JUMPDEST PUSH1 0x40 MLOAD DUP1 SWAP2 SUB SWAP1 RETURN JUMPDEST PUSH2 0x265 PUSH1 0x4 DUP1 CALLDATASIZE SUB DUP2 ADD SWAP1 PUSH2 0x260 SWAP2 SWAP1 PUSH2 0xEEF JUMP JUMPDEST PUSH2 0x75E JUMP JUMPDEST PUSH1 0x40 MLOAD PUSH2 0x272 SWAP2 SWAP1 PUSH2 0xDAD JUMP JUMPDEST PUSH1 0x40 MLOAD DUP1 SWAP2 SUB SWAP1 RETURN JUMPDEST CALLVALUE DUP1 ISZERO PUSH2 0x286 JUMPI PUSH0 PUSH0 REVERT JUMPDEST POP PUSH2 0x2A1 PUSH1 0x4 DUP1 CALLDATASIZE SUB DUP2 ADD SWAP1 PUSH2 0x29C SWAP2 SWAP1 PUSH2 0xF2D JUMP JUMPDEST PUSH2 0x76F JUMP JUMPDEST PUSH1 0x40 MLOAD PUSH2 0x2AE SWAP2 SWAP1 PUSH2 0xDAD JUMP JUMPDEST PUSH1 0x40 MLOAD DUP1 SWAP2 SUB SWAP1 RETURN JUMPDEST CALLVALUE DUP1 ISZERO PUSH2 0x2C2 JUMPI PUSH0 PUSH0 REVERT JUMPDEST POP PUSH2 0x2DD PUSH1 0x4 DUP1 CALLDATASIZE SUB DUP2 ADD SWAP1 PUSH2 0x2D8 SWAP2 SWAP1 PUSH2 0xF2D JUMP JUMPDEST PUSH2 0x788 JUMP JUMPDEST PUSH1 0x40 MLOAD PUSH2 0x2EA SWAP2 SWAP1 PUSH2 0xDAD JUMP JUMPDEST PUSH1 0x40 MLOAD DUP1 SWAP2 SUB SWAP1 RETURN JUMPDEST CALLVALUE DUP1 ISZERO PUSH2 0x2FE JUMPI PUSH0 PUSH0 REVERT JUMPDEST POP PUSH2 0x307 PUSH2 0x7A1 JUMP JUMPDEST PUSH1 0x40 MLOAD PUSH2 0x314 SWAP2 SWAP1 PUSH2 0xC7C JUMP JUMPDEST PUSH1 0x40 MLOAD DUP1 SWAP2 SUB SWAP1 RETURN JUMPDEST CALLVALUE DUP1 ISZERO PUSH2 0x328 JUMPI PUSH0 PUSH0 REVERT JUMPDEST POP PUSH2 0x343 PUSH1 0x4 DUP1 CALLDATASIZE SUB DUP2 ADD SWAP1 PUSH2 0x33E SWAP2 SWAP1 PUSH2 0xD2D JUMP JUMPDEST PUSH2 0x7C9 JUMP JUMPDEST PUSH1 0x40 MLOAD PUSH2 0x350 SWAP2 SWAP1 PUSH2 0xD85 JUMP JUMPDEST PUSH1 0x40 MLOAD DUP1 SWAP2 SUB SWAP1 RETURN JUMPDEST CALLVALUE DUP1 ISZERO PUSH2 0x364 JUMPI PUSH0 PUSH0 REVERT JUMPDEST POP PUSH2 0x36D PUSH2 0x857 JUMP JUMPDEST PUSH1 0x40 MLOAD PUSH2 0x37A SWAP2 SWAP1 PUSH2 0xC7C JUMP JUMPDEST PUSH1 0x40 MLOAD DUP1 SWAP2 SUB SWAP1 RETURN JUMPDEST CALLVALUE DUP1 ISZERO PUSH2 0x38E JUMPI PUSH0 PUSH0 REVERT JUMPDEST POP PUSH2 0x397 PUSH2 0x8E3 JUMP JUMPDEST PUSH1 0x40 MLOAD PUSH2 0x3A4 SWAP2 SWAP1 PUSH2 0xC7C JUMP JUMPDEST PUSH1 0x40 MLOAD DUP1 SWAP2 SUB SWAP1 RETURN JUMPDEST CALLVALUE DUP1 ISZERO PUSH2 0x3B8 JUMPI PUSH0 PUSH0 REVERT JUMPDEST POP PUSH2 0x3D3 PUSH1 0x4 DUP1 CALLDATASIZE SUB DUP2 ADD SWAP1 PUSH2 0x3CE SWAP2 SWAP1 PUSH2 0xFAC JUMP JUMPDEST PUSH2 0x96E JUMP JUMPDEST STOP JUMPDEST CALLVALUE DUP1 ISZERO PUSH2 0x3E0 JUMPI PUSH0 PUSH0 REVERT JUMPDEST POP PUSH2 0x3FB PUSH1 0x4 DUP1 CALLDATASIZE SUB DUP2 ADD SWAP1 PUSH2 0x3F6 SWAP2 SWAP1 PUSH2 0x1049 JUMP JUMPDEST PUSH2 0xB31 JUMP JUMPDEST PUSH1 0x40 MLOAD PUSH2 0x408 SWAP2 SWAP1 PUSH2 0xDAD JUMP JUMPDEST PUSH1 0x40 MLOAD DUP1 SWAP2 SUB SWAP1 RETURN JUMPDEST CALLVALUE DUP1 ISZERO PUSH2 0x41C JUMPI PUSH0 PUSH0 REVERT JUMPDEST POP PUSH2 0x437 PUSH1 0x4 DUP1 CALLDATASIZE SUB DUP2 ADD SWAP1 PUSH2 0x432 SWAP2 SWAP1 PUSH2 0x1087 JUMP JUMPDEST PUSH2 0xBC8 JUMP JUMPDEST PUSH1 0x40 MLOAD PUSH2 0x444 SWAP2 SWAP1 PUSH2 0xDAD JUMP JUMPDEST PUSH1 0x40 MLOAD DUP1 SWAP2 SUB SWAP1 RETURN JUMPDEST PUSH1 0x60 PUSH0 PUSH1 0x40 MLOAD PUSH1 0x20 ADD PUSH2 0x460 SWAP2 SWAP1 PUSH2 0x11D1 JUMP JUMPDEST PUSH1 0x40 MLOAD PUSH1 0x20 DUP2 DUP4 SUB SUB DUP2 MSTORE SWAP1 PUSH1 0x40 MSTORE SWAP1 POP SWAP1 JUMP JUMPDEST PUSH0 PUSH2 0x47D PUSH2 0xBCE JUMP JUMPDEST ISZERO PUSH2 0x4B0 JUMPI DUP2 NOT ISZERO PUSH15 0x22D473030F116DDEE9F6B43AC78BA3 DUP5 PUSH1 0x60 SHL PUSH1 0x60 SHR XOR OR PUSH2 0x4AF JUMPI PUSH4 0x3F68539A PUSH0 MSTORE PUSH1 0x4 PUSH1 0x1C REVERT JUMPDEST JUMPDEST DUP3 PUSH1 0x20 MSTORE PUSH4 0x7F5E9F20 PUSH1 0xC MSTORE CALLER PUSH0 MSTORE DUP2 PUSH1 0x34 PUSH1 0xC KECCAK256 SSTORE DUP2 PUSH0 MSTORE PUSH1 0x2C MLOAD PUSH1 0x60 SHR CALLER PUSH32 0x8C5BE1E5EBEC7D5BD14F71427D1E84F3DD0314C0F7B2291E5B200AC8C7C3B925 PUSH1 0x20 PUSH0 LOG3 PUSH1 0x1 SWAP1 POP SWAP3 SWAP2 POP POP JUMP JUMPDEST PUSH0 PUSH9 0x5345CDF77EB68F44C SLOAD SWAP1 POP SWAP1 JUMP JUMPDEST PUSH0 PUSH2 0x51C DUP5 DUP5 DUP5 PUSH2 0xBD5 JUMP JUMPDEST PUSH2 0x524 PUSH2 0xBCE JUMP JUMPDEST ISZERO PUSH2 0x5F2 JUMPI DUP4 PUSH1 0x60 SHL PUSH15 0x22D473030F116DDEE9F6B43AC78BA3 CALLER EQ PUSH2 0x57D JUMPI CALLER PUSH1 0x20 MSTORE PUSH4 0x7F5E9F20 DUP2 OR PUSH1 0xC MSTORE PUSH1 0x34 PUSH1 0xC KECCAK256 DUP1 SLOAD DUP1 NOT ISZERO PUSH2 0x57A JUMPI DUP1 DUP6 GT ISZERO PUSH2 0x574 JUMPI PUSH4 0x13BE252B PUSH0 MSTORE PUSH1 0x4 PUSH1 0x1C REVERT JUMPDEST DUP5 DUP2 SUB DUP3 SSTORE JUMPDEST POP POP JUMPDEST PUSH4 0x87A211A2 DUP2 OR PUSH1 0xC MSTORE PUSH1 0x20 PUSH1 0xC KECCAK256 DUP1 SLOAD DUP1 DUP6 GT ISZERO PUSH2 0x5A3 JUMPI PUSH4 0xF4D678B8 PUSH0 MSTORE PUSH1 0x4 PUSH1 0x1C REVERT JUMPDEST DUP5 DUP2 SUB DUP3 SSTORE DUP6 PUSH0 MSTORE PUSH1 0x20 PUSH1 0xC KECCAK256 DUP6 DUP2 SLOAD ADD DUP2 SSTORE DUP6 PUSH1 0x20 MSTORE PUSH1 0xC MLOAD PUSH1 0x60 SHR DUP5 PUSH1 0x60 SHR PUSH32 0xDDF252AD1BE2C89B69C2B068FC378DAA952BA7F163C4A11628F55A4DF523B3EF PUSH1 0x20 DUP1 LOG3 POP POP POP POP PUSH2 0x6A0 JUMP JUMPDEST DUP4 PUSH1 0x60 SHL CALLER PUSH1 0x20 MSTORE PUSH4 0x7F5E9F20 DUP2 OR PUSH1 0xC MSTORE PUSH1 0x34 PUSH1 0xC KECCAK256 DUP1 SLOAD DUP1 NOT ISZERO PUSH2 0x62D JUMPI DUP1 DUP6 GT ISZERO PUSH2 0x627 JUMPI PUSH4 0x13BE252B PUSH0 MSTORE PUSH1 0x4 PUSH1 0x1C REVERT JUMPDEST DUP5 DUP2 SUB DUP3 SSTORE JUMPDEST PUSH4 0x87A211A2 DUP4 OR PUSH1 0xC MSTORE PUSH1 0x20 PUSH1 0xC KECCAK256 DUP1 SLOAD DUP1 DUP8 GT ISZERO PUSH2 0x653 JUMPI PUSH4 0xF4D678B8 PUSH0 MSTORE PUSH1 0x4 PUSH1 0x1C REVERT JUMPDEST DUP7 DUP2 SUB DUP3 SSTORE DUP8 PUSH0 MSTORE PUSH1 0x20 PUSH1 0xC KECCAK256 DUP8 DUP2 SLOAD ADD DUP2 SSTORE DUP8 PUSH1 0x20 MSTORE PUSH1 0xC MLOAD PUSH1 0x60 SHR DUP7 PUSH1 0x60 SHR PUSH32 0xDDF252AD1BE2C89B69C2B068FC378DAA952BA7F163C4A11628F55A4DF523B3EF PUSH1 0x20 DUP1 LOG3 POP POP POP POP POP POP JUMPDEST PUSH2 0x6AB DUP5 DUP5 DUP5 PUSH2 0xBDA JUMP JUMPDEST PUSH1 0x1 SWAP1 POP SWAP4 SWAP3 POP POP POP JUMP JUMPDEST PUSH0 PUSH1 0x12 SWAP1 POP SWAP1 JUMP JUMPDEST PUSH0 PUSH0 PUSH2 0x6C8 PUSH2 0xBDF JUMP JUMPDEST SWAP1 POP PUSH0 PUSH0 SHL DUP2 SUB PUSH2 0x6E5 JUMPI PUSH2 0x6DB PUSH2 0x44D JUMP JUMPDEST DUP1 MLOAD SWAP1 PUSH1 0x20 ADD KECCAK256 SWAP1 POP JUMPDEST PUSH0 PUSH2 0x6EE PUSH2 0xBE3 JUMP JUMPDEST SWAP1 POP PUSH1 0x40 MLOAD PUSH32 0x8B73C3C69BB8FE3D512ECC4CF759CC79239F7B179B0FFACAA9A75D522B39400F DUP2 MSTORE DUP3 PUSH1 0x20 DUP3 ADD MSTORE DUP2 PUSH1 0x40 DUP3 ADD MSTORE CHAINID PUSH1 0x60 DUP3 ADD MSTORE ADDRESS PUSH1 0x80 DUP3 ADD MSTORE PUSH1 0xA0 DUP2 KECCAK256 SWAP4 POP POP POP POP SWAP1 JUMP JUMPDEST PUSH32 0x0 DUP2 JUMP JUMPDEST PUSH0 PUSH2 0x768 DUP4 PUSH2 0xBC8 JUMP JUMPDEST POP SWAP3 SWAP2 POP POP JUMP JUMPDEST PUSH0 PUSH4 0x87A211A2 PUSH1 0xC MSTORE DUP2 PUSH0 MSTORE PUSH1 0x20 PUSH1 0xC KECCAK256 SLOAD SWAP1 POP SWAP2 SWAP1 POP JUMP JUMPDEST PUSH0 PUSH4 0x38377508 PUSH1 0xC MSTORE DUP2 PUSH0 MSTORE PUSH1 0x20 PUSH1 0xC KECCAK256 SLOAD SWAP1 POP SWAP2 SWAP1 POP JUMP JUMPDEST PUSH1 0x60 PUSH1 0x1 PUSH1 0x40 MLOAD PUSH1 0x20 ADD PUSH2 0x7B5 SWAP2 SWAP1 PUSH2 0x121C JUMP JUMPDEST PUSH1 0x40 MLOAD PUSH1 0x20 DUP2 DUP4 SUB SUB DUP2 MSTORE SWAP1 PUSH1 0x40 MSTORE SWAP1 POP SWAP1 JUMP JUMPDEST PUSH0 PUSH2 0x7D5 CALLER DUP5 DUP5 PUSH2 0xBD5 JUMP JUMPDEST PUSH4 0x87A211A2 PUSH1 0xC MSTORE CALLER PUSH0 MSTORE PUSH1 0x20 PUSH1 0xC KECCAK256 DUP1 SLOAD DUP1 DUP5 GT ISZERO PUSH2 0x7FC JUMPI PUSH4 0xF4D678B8 PUSH0 MSTORE PUSH1 0x4 PUSH1 0x1C REVERT JUMPDEST DUP4 DUP2 SUB DUP3 SSTORE DUP5 PUSH0 MSTORE PUSH1 0x20 PUSH1 0xC KECCAK256 DUP5 DUP2 SLOAD ADD DUP2 SSTORE DUP5 PUSH1 0x20 MSTORE PUSH1 0xC MLOAD PUSH1 0x60 SHR CALLER PUSH32 0xDDF252AD1BE2C89B69C2B068FC378DAA952BA7F163C4A11628F55A4DF523B3EF PUSH1 0x20 DUP1 LOG3 POP POP POP PUSH2 0x84D CALLER DUP5 DUP5 PUSH2 0xBDA JUMP JUMPDEST PUSH1 0x1 SWAP1 POP SWAP3 SWAP2 POP POP JUMP JUMPDEST PUSH1 0x1 DUP1 SLOAD PUSH2 0x864 SWAP1 PUSH2 0x10DF JUMP JUMPDEST DUP1 PUSH1 0x1F ADD PUSH1 0x20 DUP1 SWAP2 DIV MUL PUSH1 0x20 ADD PUSH1 0x40 MLOAD SWAP1 DUP2 ADD PUSH1 0x40 MSTORE DUP1 SWAP3 SWAP2 SWAP1 DUP2 DUP2 MSTORE PUSH1 0x20 ADD DUP3 DUP1 SLOAD PUSH2 0x890 SWAP1 PUSH2 0x10DF JUMP JUMPDEST DUP1 ISZERO PUSH2 0x8DB JUMPI DUP1 PUSH1 0x1F LT PUSH2 0x8B2 JUMPI PUSH2 0x100 DUP1 DUP4 SLOAD DIV MUL DUP4 MSTORE SWAP2 PUSH1 0x20 ADD SWAP2 PUSH2 0x8DB JUMP JUMPDEST DUP3 ADD SWAP2 SWAP1 PUSH0 MSTORE PUSH1 0x20 PUSH0 KECCAK256 SWAP1 JUMPDEST DUP2 SLOAD DUP2 MSTORE SWAP1 PUSH1 0x1 ADD SWAP1 PUSH1 0x20 ADD DUP1 DUP4 GT PUSH2 0x8BE JUMPI DUP3 SWAP1 SUB PUSH1 0x1F AND DUP3 ADD SWAP2 JUMPDEST POP POP POP POP POP DUP2 JUMP JUMPDEST PUSH0 DUP1 SLOAD PUSH2 0x8EF SWAP1 PUSH2 0x10DF JUMP JUMPDEST DUP1 PUSH1 0x1F ADD PUSH1 0x20 DUP1 SWAP2 DIV MUL PUSH1 0x20 ADD PUSH1 0x40 MLOAD SWAP1 DUP2 ADD PUSH1 0x40 MSTORE DUP1 SWAP3 SWAP2 SWAP1 DUP2 DUP2 MSTORE PUSH1 0x20 ADD DUP3 DUP1 SLOAD PUSH2 0x91B SWAP1 PUSH2 0x10DF JUMP JUMPDEST DUP1 ISZERO PUSH2 0x966 JUMPI DUP1 PUSH1 0x1F LT PUSH2 0x93D JUMPI PUSH2 0x100 DUP1 DUP4 SLOAD DIV MUL DUP4 MSTORE SWAP2 PUSH1 0x20 ADD SWAP2 PUSH2 0x966 JUMP JUMPDEST DUP3 ADD SWAP2 SWAP1 PUSH0 MSTORE PUSH1 0x20 PUSH0 KECCAK256 SWAP1 JUMPDEST DUP2 SLOAD DUP2 MSTORE SWAP1 PUSH1 0x1 ADD SWAP1 PUSH1 0x20 ADD DUP1 DUP4 GT PUSH2 0x949 JUMPI DUP3 SWAP1 SUB PUSH1 0x1F AND DUP3 ADD SWAP2 JUMPDEST POP POP POP POP POP DUP2 JUMP JUMPDEST PUSH2 0x976 PUSH2 0xBCE JUMP JUMPDEST ISZERO PUSH2 0x9A9 JUMPI DUP5 NOT ISZERO PUSH15 0x22D473030F116DDEE9F6B43AC78BA3 DUP8 PUSH1 0x60 SHL PUSH1 0x60 SHR XOR OR PUSH2 0x9A8 JUMPI PUSH4 0x3F68539A PUSH0 MSTORE PUSH1 0x4 PUSH1 0x1C REVERT JUMPDEST JUMPDEST PUSH0 PUSH2 0x9B2 PUSH2 0xBDF JUMP JUMPDEST SWAP1 POP PUSH0 PUSH0 SHL DUP2 SUB PUSH2 0x9CF JUMPI PUSH2 0x9C5 PUSH2 0x44D JUMP JUMPDEST DUP1 MLOAD SWAP1 PUSH1 0x20 ADD KECCAK256 SWAP1 POP JUMPDEST PUSH0 PUSH2 0x9D8 PUSH2 0xBE3 JUMP JUMPDEST SWAP1 POP DUP6 TIMESTAMP GT ISZERO PUSH2 0x9EF JUMPI PUSH4 0x1A15A3CC PUSH0 MSTORE PUSH1 0x4 PUSH1 0x1C REVERT JUMPDEST PUSH1 0x40 MLOAD DUP10 PUSH1 0x60 SHL PUSH1 0x60 SHR SWAP10 POP DUP9 PUSH1 0x60 SHL PUSH1 0x60 SHR SWAP9 POP PUSH6 0x383775081901 PUSH1 0xE MSTORE DUP10 PUSH0 MSTORE PUSH1 0x20 PUSH1 0xC KECCAK256 DUP1 SLOAD PUSH32 0x8B73C3C69BB8FE3D512ECC4CF759CC79239F7B179B0FFACAA9A75D522B39400F DUP4 MSTORE DUP5 PUSH1 0x20 DUP5 ADD MSTORE DUP4 PUSH1 0x40 DUP5 ADD MSTORE CHAINID PUSH1 0x60 DUP5 ADD MSTORE ADDRESS PUSH1 0x80 DUP5 ADD MSTORE PUSH1 0xA0 DUP4 KECCAK256 PUSH1 0x2E MSTORE PUSH32 0x6E71EDAE12B1B97F4D1F60370FEF10105FA2FAAE0126114A169C64845D6126C9 DUP4 MSTORE DUP12 PUSH1 0x20 DUP5 ADD MSTORE DUP11 PUSH1 0x40 DUP5 ADD MSTORE DUP10 PUSH1 0x60 DUP5 ADD MSTORE DUP1 PUSH1 0x80 DUP5 ADD MSTORE DUP9 PUSH1 0xA0 DUP5 ADD MSTORE PUSH1 0xC0 DUP4 KECCAK256 PUSH1 0x4E MSTORE PUSH1 0x42 PUSH1 0x2C KECCAK256 PUSH0 MSTORE DUP8 PUSH1 0xFF AND PUSH1 0x20 MSTORE DUP7 PUSH1 0x40 MSTORE DUP6 PUSH1 0x60 MSTORE PUSH1 0x20 DUP1 PUSH1 0x80 PUSH0 PUSH1 0x1 GAS STATICCALL DUP13 RETURNDATASIZE MLOAD EQ PUSH2 0xAD7 JUMPI PUSH4 0xDDAFBAEF PUSH0 MSTORE PUSH1 0x4 PUSH1 0x1C REVERT JUMPDEST DUP1 DUP3 ADD DUP4 SSTORE DUP12 PUSH4 0x7F5E9F20 PUSH1 0xA0 SHL OR PUSH1 0x40 MSTORE DUP11 PUSH1 0x34 PUSH1 0x2C KECCAK256 SSTORE DUP12 DUP14 PUSH32 0x8C5BE1E5EBEC7D5BD14F71427D1E84F3DD0314C0F7B2291E5B200AC8C7C3B925 PUSH1 0x20 PUSH1 0x60 DUP9 ADD LOG3 DUP4 PUSH1 0x40 MSTORE PUSH0 PUSH1 0x60 MSTORE POP POP POP POP POP POP POP POP POP POP POP POP POP JUMP JUMPDEST PUSH0 PUSH2 0xB3A PUSH2 0xBCE JUMP JUMPDEST ISZERO PUSH2 0xBAA JUMPI PUSH15 0x22D473030F116DDEE9F6B43AC78BA3 PUSH20 0xFFFFFFFFFFFFFFFFFFFFFFFFFFFFFFFFFFFFFFFF AND DUP3 PUSH20 0xFFFFFFFFFFFFFFFFFFFFFFFFFFFFFFFFFFFFFFFF AND SUB PUSH2 0xBA9 JUMPI PUSH32 0xFFFFFFFFFFFFFFFFFFFFFFFFFFFFFFFFFFFFFFFFFFFFFFFFFFFFFFFFFFFFFFFF SWAP1 POP PUSH2 0xBC2 JUMP JUMPDEST JUMPDEST DUP2 PUSH1 0x20 MSTORE PUSH4 0x7F5E9F20 PUSH1 0xC MSTORE DUP3 PUSH0 MSTORE PUSH1 0x34 PUSH1 0xC KECCAK256 SLOAD SWAP1 POP JUMPDEST SWAP3 SWAP2 POP POP JUMP JUMPDEST PUSH0 SWAP2 SWAP1 POP JUMP JUMPDEST PUSH0 PUSH0 SWAP1 POP SWAP1 JUMP JUMPDEST POP POP POP JUMP JUMPDEST POP POP POP JUMP JUMPDEST PUSH0 SWAP1 JUMP JUMPDEST PUSH0 PUSH32 0xC89EFDAA54C0F20C7ADF612882DF0950F5A951637E0307CDCB4C672F298B8BC6 PUSH0 SHL SWAP1 POP SWAP1 JUMP JUMPDEST PUSH0 DUP2 MLOAD SWAP1 POP SWAP2 SWAP1 POP JUMP JUMPDEST PUSH0 DUP3 DUP3 MSTORE PUSH1 0x20 DUP3 ADD SWAP1 POP SWAP3 SWAP2 POP POP JUMP JUMPDEST DUP3 DUP2 DUP4 MCOPY PUSH0 DUP4 DUP4 ADD MSTORE POP POP POP JUMP JUMPDEST PUSH0 PUSH1 0x1F NOT PUSH1 0x1F DUP4 ADD AND SWAP1 POP SWAP2 SWAP1 POP JUMP JUMPDEST PUSH0 PUSH2 0xC4E DUP3 PUSH2 0xC0C JUMP JUMPDEST PUSH2 0xC58 DUP2 DUP6 PUSH2 0xC16 JUMP JUMPDEST SWAP4 POP PUSH2 0xC68 DUP2 DUP6 PUSH1 0x20 DUP7 ADD PUSH2 0xC26 JUMP JUMPDEST PUSH2 0xC71 DUP2 PUSH2 0xC34 JUMP JUMPDEST DUP5 ADD SWAP2 POP POP SWAP3 SWAP2 POP POP JUMP JUMPDEST PUSH0 PUSH1 0x20 DUP3 ADD SWAP1 POP DUP2 DUP2 SUB PUSH0 DUP4 ADD MSTORE PUSH2 0xC94 DUP2 DUP5 PUSH2 0xC44 JUMP JUMPDEST SWAP1 POP SWAP3 SWAP2 POP POP JUMP JUMPDEST PUSH0 PUSH0 REVERT JUMPDEST PUSH0 PUSH20 0xFFFFFFFFFFFFFFFFFFFFFFFFFFFFFFFFFFFFFFFF DUP3 AND SWAP1 POP SWAP2 SWAP1 POP JUMP JUMPDEST PUSH0 PUSH2 0xCC9 DUP3 PUSH2 0xCA0 JUMP JUMPDEST SWAP1 POP SWAP2 SWAP1 POP JUMP JUMPDEST PUSH2 0xCD9 DUP2 PUSH2 0xCBF JUMP JUMPDEST DUP2 EQ PUSH2 0xCE3 JUMPI PUSH0 PUSH0 REVERT JUMPDEST POP JUMP JUMPDEST PUSH0 DUP2 CALLDATALOAD SWAP1 POP PUSH2 0xCF4 DUP2 PUSH2 0xCD0 JUMP JUMPDEST SWAP3 SWAP2 POP POP JUMP JUMPDEST PUSH0 DUP2 SWAP1 POP SWAP2 SWAP1 POP JUMP JUMPDEST PUSH2 0xD0C DUP2 PUSH2 0xCFA JUMP JUMPDEST DUP2 EQ PUSH2 0xD16 JUMPI PUSH0 PUSH0 REVERT JUMPDEST POP JUMP JUMPDEST PUSH0 DUP2 CALLDATALOAD SWAP1 POP PUSH2 0xD27 DUP2 PUSH2 0xD03 JUMP JUMPDEST SWAP3 SWAP2 POP POP JUMP JUMPDEST PUSH0 PUSH0 PUSH1 0x40 DUP4 DUP6 SUB SLT ISZERO PUSH2 0xD43 JUMPI PUSH2 0xD42 PUSH2 0xC9C JUMP JUMPDEST JUMPDEST PUSH0 PUSH2 0xD50 DUP6 DUP3 DUP7 ADD PUSH2 0xCE6 JUMP JUMPDEST SWAP3 POP POP PUSH1 0x20 PUSH2 0xD61 DUP6 DUP3 DUP7 ADD PUSH2 0xD19 JUMP JUMPDEST SWAP2 POP POP SWAP3 POP SWAP3 SWAP1 POP JUMP JUMPDEST PUSH0 DUP2 ISZERO ISZERO SWAP1 POP SWAP2 SWAP1 POP JUMP JUMPDEST PUSH2 0xD7F DUP2 PUSH2 0xD6B JUMP JUMPDEST DUP3 MSTORE POP POP JUMP JUMPDEST PUSH0 PUSH1 0x20 DUP3 ADD SWAP1 POP PUSH2 0xD98 PUSH0 DUP4 ADD DUP5 PUSH2 0xD76 JUMP JUMPDEST SWAP3 SWAP2 POP POP JUMP JUMPDEST PUSH2 0xDA7 DUP2 PUSH2 0xCFA JUMP JUMPDEST DUP3 MSTORE POP POP JUMP JUMPDEST PUSH0 PUSH1 0x20 DUP3 ADD SWAP1 POP PUSH2 0xDC0 PUSH0 DUP4 ADD DUP5 PUSH2 0xD9E JUMP JUMPDEST SWAP3 SWAP2 POP POP JUMP JUMPDEST PUSH0 PUSH0 PUSH0 PUSH1 0x60 DUP5 DUP7 SUB SLT ISZERO PUSH2 0xDDD JUMPI PUSH2 0xDDC PUSH2 0xC9C JUMP JUMPDEST JUMPDEST PUSH0 PUSH2 0xDEA DUP7 DUP3 DUP8 ADD PUSH2 0xCE6 JUMP JUMPDEST SWAP4 POP POP PUSH1 0x20 PUSH2 0xDFB DUP7 DUP3 DUP8 ADD PUSH2 0xCE6 JUMP JUMPDEST SWAP3 POP POP PUSH1 0x40 PUSH2 0xE0C DUP7 DUP3 DUP8 ADD PUSH2 0xD19 JUMP JUMPDEST SWAP2 POP POP SWAP3 POP SWAP3 POP SWAP3 JUMP JUMPDEST PUSH0 PUSH1 0xFF DUP3 AND SWAP1 POP SWAP2 SWAP1 POP JUMP JUMPDEST PUSH2 0xE2B DUP2 PUSH2 0xE16 JUMP JUMPDEST DUP3 MSTORE POP POP JUMP JUMPDEST PUSH0 PUSH1 0x20 DUP3 ADD SWAP1 POP PUSH2 0xE44 PUSH0 DUP4 ADD DUP5 PUSH2 0xE22 JUMP JUMPDEST SWAP3 SWAP2 POP POP JUMP JUMPDEST PUSH0 DUP2 SWAP1 POP SWAP2 SWAP1 POP JUMP JUMPDEST PUSH2 0xE5C DUP2 PUSH2 0xE4A JUMP JUMPDEST DUP3 MSTORE POP POP JUMP JUMPDEST PUSH0 PUSH1 0x20 DUP3 ADD SWAP1 POP PUSH2 0xE75 PUSH0 DUP4 ADD DUP5 PUSH2 0xE53 JUMP JUMPDEST SWAP3 SWAP2 POP POP JUMP JUMPDEST PUSH0 DUP2 SWAP1 POP SWAP2 SWAP1 POP JUMP JUMPDEST PUSH0 PUSH2 0xE9E PUSH2 0xE99 PUSH2 0xE94 DUP5 PUSH2 0xCA0 JUMP JUMPDEST PUSH2 0xE7B JUMP JUMPDEST PUSH2 0xCA0 JUMP JUMPDEST SWAP1 POP SWAP2 SWAP1 POP JUMP JUMPDEST PUSH0 PUSH2 0xEAF DUP3 PUSH2 0xE84 JUMP JUMPDEST SWAP1 POP SWAP2 SWAP1 POP JUMP JUMPDEST PUSH0 PUSH2 0xEC0 DUP3 PUSH2 0xEA5 JUMP JUMPDEST SWAP1 POP SWAP2 SWAP1 POP JUMP JUMPDEST PUSH2 0xED0 DUP2 PUSH2 0xEB6 JUMP JUMPDEST DUP3 MSTORE POP POP JUMP JUMPDEST PUSH0 PUSH1 0x20 DUP3 ADD SWAP1 POP PUSH2 0xEE9 PUSH0 DUP4 ADD DUP5 PUSH2 0xEC7 JUMP JUMPDEST SWAP3 SWAP2 POP POP JUMP JUMPDEST PUSH0 PUSH0 PUSH1 0x40 DUP4 DUP6 SUB SLT ISZERO PUSH2 0xF05 JUMPI PUSH2 0xF04 PUSH2 0xC9C JUMP JUMPDEST JUMPDEST PUSH0 PUSH2 0xF12 DUP6 DUP3 DUP7 ADD PUSH2 0xD19 JUMP JUMPDEST SWAP3 POP POP PUSH1 0x20 PUSH2 0xF23 DUP6 DUP3 DUP7 ADD PUSH2 0xCE6 JUMP JUMPDEST SWAP2 POP POP SWAP3 POP SWAP3 SWAP1 POP JUMP JUMPDEST PUSH0 PUSH1 0x20 DUP3 DUP5 SUB SLT ISZERO PUSH2 0xF42 JUMPI PUSH2 0xF41 PUSH2 0xC9C JUMP JUMPDEST JUMPDEST PUSH0 PUSH2 0xF4F DUP5 DUP3 DUP6 ADD PUSH2 0xCE6 JUMP JUMPDEST SWAP2 POP POP SWAP3 SWAP2 POP POP JUMP JUMPDEST PUSH2 0xF61 DUP2 PUSH2 0xE16 JUMP JUMPDEST DUP2 EQ PUSH2 0xF6B JUMPI PUSH0 PUSH0 REVERT JUMPDEST POP JUMP JUMPDEST PUSH0 DUP2 CALLDATALOAD SWAP1 POP PUSH2 0xF7C DUP2 PUSH2 0xF58 JUMP JUMPDEST SWAP3 SWAP2 POP POP JUMP JUMPDEST PUSH2 0xF8B DUP2 PUSH2 0xE4A JUMP JUMPDEST DUP2 EQ PUSH2 0xF95 JUMPI PUSH0 PUSH0 REVERT JUMPDEST POP JUMP JUMPDEST PUSH0 DUP2 CALLDATALOAD SWAP1 POP PUSH2 0xFA6 DUP2 PUSH2 0xF82 JUMP JUMPDEST SWAP3 SWAP2 POP POP JUMP JUMPDEST PUSH0 PUSH0 PUSH0 PUSH0 PUSH0 PUSH0 PUSH0 PUSH1 0xE0 DUP9 DUP11 SUB SLT ISZERO PUSH2 0xFC7 JUMPI PUSH2 0xFC6 PUSH2 0xC9C JUMP JUMPDEST JUMPDEST PUSH0 PUSH2 0xFD4 DUP11 DUP3 DUP12 ADD PUSH2 0xCE6 JUMP JUMPDEST SWAP8 POP POP PUSH1 0x20 PUSH2 0xFE5 DUP11 DUP3 DUP12 ADD PUSH2 0xCE6 JUMP JUMPDEST SWAP7 POP POP PUSH1 0x40 PUSH2 0xFF6 DUP11 DUP3 DUP12 ADD PUSH2 0xD19 JUMP JUMPDEST SWAP6 POP POP PUSH1 0x60 PUSH2 0x1007 DUP11 DUP3 DUP12 ADD PUSH2 0xD19 JUMP JUMPDEST SWAP5 POP POP PUSH1 0x80 PUSH2 0x1018 DUP11 DUP3 DUP12 ADD PUSH2 0xF6E JUMP JUMPDEST SWAP4 POP POP PUSH1 0xA0 PUSH2 0x1029 DUP11 DUP3 DUP12 ADD PUSH2 0xF98 JUMP JUMPDEST SWAP3 POP POP PUSH1 0xC0 PUSH2 0x103A DUP11 DUP3 DUP12 ADD PUSH2 0xF98 JUMP JUMPDEST SWAP2 POP POP SWAP3 SWAP6 SWAP9 SWAP2 SWAP5 SWAP8 POP SWAP3 SWAP6 POP JUMP JUMPDEST PUSH0 PUSH0 PUSH1 0x40 DUP4 DUP6 SUB SLT ISZERO PUSH2 0x105F JUMPI PUSH2 0x105E PUSH2 0xC9C JUMP JUMPDEST JUMPDEST PUSH0 PUSH2 0x106C DUP6 DUP3 DUP7 ADD PUSH2 0xCE6 JUMP JUMPDEST SWAP3 POP POP PUSH1 0x20 PUSH2 0x107D DUP6 DUP3 DUP7 ADD PUSH2 0xCE6 JUMP JUMPDEST SWAP2 POP POP SWAP3 POP SWAP3 SWAP1 POP JUMP JUMPDEST PUSH0 PUSH1 0x20 DUP3 DUP5 SUB SLT ISZERO PUSH2 0x109C JUMPI PUSH2 0x109B PUSH2 0xC9C JUMP JUMPDEST JUMPDEST PUSH0 PUSH2 0x10A9 DUP5 DUP3 DUP6 ADD PUSH2 0xD19 JUMP JUMPDEST SWAP2 POP POP SWAP3 SWAP2 POP POP JUMP JUMPDEST PUSH32 0x4E487B7100000000000000000000000000000000000000000000000000000000 PUSH0 MSTORE PUSH1 0x22 PUSH1 0x4 MSTORE PUSH1 0x24 PUSH0 REVERT JUMPDEST PUSH0 PUSH1 0x2 DUP3 DIV SWAP1 POP PUSH1 0x1 DUP3 AND DUP1 PUSH2 0x10F6 JUMPI PUSH1 0x7F DUP3 AND SWAP2 POP JUMPDEST PUSH1 0x20 DUP3 LT DUP2 SUB PUSH2 0x1109 JUMPI PUSH2 0x1108 PUSH2 0x10B2 JUMP JUMPDEST JUMPDEST POP SWAP2 SWAP1 POP JUMP JUMPDEST PUSH0 DUP2 SWAP1 POP SWAP3 SWAP2 POP POP JUMP JUMPDEST PUSH0 DUP2 SWAP1 POP DUP2 PUSH0 MSTORE PUSH1 0x20 PUSH0 KECCAK256 SWAP1 POP SWAP2 SWAP1 POP JUMP JUMPDEST PUSH0 DUP2 SLOAD PUSH2 0x1137 DUP2 PUSH2 0x10DF JUMP JUMPDEST PUSH2 0x1141 DUP2 DUP7 PUSH2 0x110F JUMP JUMPDEST SWAP5 POP PUSH1 0x1 DUP3 AND PUSH0 DUP2 EQ PUSH2 0x115B JUMPI PUSH1 0x1 DUP2 EQ PUSH2 0x1170 JUMPI PUSH2 0x11A2 JUMP JUMPDEST PUSH1 0xFF NOT DUP4 AND DUP7 MSTORE DUP2 ISZERO ISZERO DUP3 MUL DUP7 ADD SWAP4 POP PUSH2 0x11A2 JUMP JUMPDEST PUSH2 0x1179 DUP6 PUSH2 0x1119 JUMP JUMPDEST PUSH0 JUMPDEST DUP4 DUP2 LT ISZERO PUSH2 0x119A JUMPI DUP2 SLOAD DUP2 DUP10 ADD MSTORE PUSH1 0x1 DUP3 ADD SWAP2 POP PUSH1 0x20 DUP2 ADD SWAP1 POP PUSH2 0x117B JUMP JUMPDEST DUP4 DUP9 ADD SWAP6 POP POP POP JUMPDEST POP POP POP SWAP3 SWAP2 POP POP JUMP JUMPDEST PUSH32 0x2045544820506F6F6C0000000000000000000000000000000000000000000000 DUP2 MSTORE POP JUMP JUMPDEST PUSH0 PUSH2 0x11DC DUP3 DUP5 PUSH2 0x112B JUMP JUMPDEST SWAP2 POP PUSH2 0x11E7 DUP3 PUSH2 0x11AB JUMP JUMPDEST PUSH1 0x9 DUP3 ADD SWAP2 POP DUP2 SWAP1 POP SWAP3 SWAP2 POP POP JUMP JUMPDEST PUSH32 0x4554480000000000000000000000000000000000000000000000000000000000 DUP2 MSTORE POP JUMP JUMPDEST PUSH0 PUSH2 0x1227 DUP3 DUP5 PUSH2 0x112B JUMP JUMPDEST SWAP2 POP PUSH2 0x1232 DUP3 PUSH2 0x11F6 JUMP JUMPDEST PUSH1 0x3 DUP3 ADD SWAP2 POP DUP2 SWAP1 POP SWAP3 SWAP2 POP POP JUMP INVALID LOG2 PUSH5 0x6970667358 0x22 SLT KECCAK256 PUSH2 0xDFFF GAS NOT 0x23 0xC2 0xAB 0xB9 0xCC 0xA5 0xF6 0xE4 0xCD BASEFEE PUSH16 0x8130B0CC0660D8A49C047F8AAB09A5FA PUSH5 0x736F6C6343 STOP ADDMOD SHR STOP CALLER "
				},
				"gasEstimates": {
					"creation": {
						"codeDepositCost": "945400",
						"executionCost": "infinite",
						"totalCost": "infinite"
					},
					"external": {
						"DOMAIN_SEPARATOR()": "infinite",
						"_name()": "infinite",
						"_symbol()": "infinite",
						"allowance(address,address)": "infinite",
						"approve(address,uint256)": "24878",
						"asset()": "infinite",
						"balanceOf(address)": "2820",
						"decimals()": "361",
						"deposit(uint256,address)": "infinite",
						"name()": "infinite",
						"nonces(address)": "2842",
						"permit(address,address,uint256,uint256,uint8,bytes32,bytes32)": "infinite",
						"previewDeposit(uint256)": "infinite",
						"symbol()": "infinite",
						"totalSupply()": "2500",
						"transfer(address,uint256)": "51337",
						"transferFrom(address,address,uint256)": "infinite"
					}
				},
				"methodIdentifiers": {
					"DOMAIN_SEPARATOR()": "3644e515",
					"_name()": "d28d8852",
					"_symbol()": "b09f1266",
					"allowance(address,address)": "dd62ed3e",
					"approve(address,uint256)": "095ea7b3",
					"asset()": "38d52e0f",
					"balanceOf(address)": "70a08231",
					"decimals()": "313ce567",
					"deposit(uint256,address)": "6e553f65",
					"name()": "06fdde03",
					"nonces(address)": "7ecebe00",
					"permit(address,address,uint256,uint256,uint8,bytes32,bytes32)": "d505accf",
					"previewDeposit(uint256)": "ef8b30f7",
					"symbol()": "95d89b41",
					"totalSupply()": "18160ddd",
					"transfer(address,uint256)": "a9059cbb",
					"transferFrom(address,address,uint256)": "23b872dd"
				}
			},
			"storageLayout": {
				"storage": [
					{
						"astId": 517,
						"contract": "src/ConstantOfferRatePool.sol:ConstantOfferRatePool",
						"label": "_name",
						"offset": 0,
						"slot": "0",
						"type": "t_string_storage"
					},
					{
						"astId": 519,
						"contract": "src/ConstantOfferRatePool.sol:ConstantOfferRatePool",
						"label": "_symbol",
						"offset": 0,
						"slot": "1",
						"type": "t_string_storage"
					}
				],
				"types": {
					"t_string_storage": {
						"encoding": "bytes",
						"label": "string",
						"numberOfBytes": "32"
					}
				}
			},
			"userdoc": {
				"kind": "user",
				"methods": {},
				"version": 1
			}
		}
	}
}