{
	"src/PinusVault2.sol": {
		"PinusVault2": {
			"abi": [
				{
					"inputs": [
						{
							"internalType": "address",
							"name": "owner",
							"type": "address"
						},
						{
							"internalType": "string",
							"name": "name_",
							"type": "string"
						},
						{
							"internalType": "string",
							"name": "symbol_",
							"type": "string"
						}
					],
					"stateMutability": "nonpayable",
					"type": "constructor"
				},
				{
					"inputs": [],
					"name": "AllowanceOverflow",
					"type": "error"
				},
				{
					"inputs": [],
					"name": "AllowanceUnderflow",
					"type": "error"
				},
				{
					"inputs": [],
					"name": "InsufficientAllowance",
					"type": "error"
				},
				{
					"inputs": [],
					"name": "InsufficientBalance",
					"type": "error"
				},
				{
					"inputs": [],
					"name": "InvalidPermit",
					"type": "error"
				},
				{
					"inputs": [
						{
							"internalType": "address",
							"name": "owner",
							"type": "address"
						}
					],
					"name": "OwnableInvalidOwner",
					"type": "error"
				},
				{
					"inputs": [
						{
							"internalType": "address",
							"name": "account",
							"type": "address"
						}
					],
					"name": "OwnableUnauthorizedAccount",
					"type": "error"
				},
				{
					"inputs": [],
					"name": "Permit2AllowanceIsFixedAtInfinity",
					"type": "error"
				},
				{
					"inputs": [],
					"name": "PermitExpired",
					"type": "error"
				},
				{
					"inputs": [],
					"name": "TotalSupplyOverflow",
					"type": "error"
				},
				{
					"anonymous": false,
					"inputs": [
						{
							"indexed": true,
							"internalType": "address",
							"name": "owner",
							"type": "address"
						},
						{
							"indexed": true,
							"internalType": "address",
							"name": "spender",
							"type": "address"
						},
						{
							"indexed": false,
							"internalType": "uint256",
							"name": "amount",
							"type": "uint256"
						}
					],
					"name": "Approval",
					"type": "event"
				},
				{
					"anonymous": false,
					"inputs": [
						{
							"indexed": true,
							"internalType": "address",
							"name": "previousOwner",
							"type": "address"
						},
						{
							"indexed": true,
							"internalType": "address",
							"name": "newOwner",
							"type": "address"
						}
					],
					"name": "OwnershipTransferred",
					"type": "event"
				},
				{
					"anonymous": false,
					"inputs": [
						{
							"indexed": true,
							"internalType": "address",
							"name": "from",
							"type": "address"
						},
						{
							"indexed": true,
							"internalType": "address",
							"name": "to",
							"type": "address"
						},
						{
							"indexed": false,
							"internalType": "uint256",
							"name": "amount",
							"type": "uint256"
						}
					],
					"name": "Transfer",
					"type": "event"
				},
				{
					"inputs": [],
					"name": "DOMAIN_SEPARATOR",
					"outputs": [
						{
							"internalType": "bytes32",
							"name": "result",
							"type": "bytes32"
						}
					],
					"stateMutability": "view",
					"type": "function"
				},
				{
					"inputs": [
						{
							"internalType": "address",
							"name": "owner",
							"type": "address"
						},
						{
							"internalType": "address",
							"name": "spender",
							"type": "address"
						}
					],
					"name": "allowance",
					"outputs": [
						{
							"internalType": "uint256",
							"name": "result",
							"type": "uint256"
						}
					],
					"stateMutability": "view",
					"type": "function"
				},
				{
					"inputs": [
						{
							"internalType": "address",
							"name": "spender",
							"type": "address"
						},
						{
							"internalType": "uint256",
							"name": "amount",
							"type": "uint256"
						}
					],
					"name": "approve",
					"outputs": [
						{
							"internalType": "bool",
							"name": "",
							"type": "bool"
						}
					],
					"stateMutability": "nonpayable",
					"type": "function"
				},
				{
					"inputs": [],
					"name": "asset",
					"outputs": [
						{
							"internalType": "contract ERC20",
							"name": "",
							"type": "address"
						}
					],
					"stateMutability": "view",
					"type": "function"
				},
				{
					"inputs": [
						{
							"internalType": "address",
							"name": "owner",
							"type": "address"
						}
					],
					"name": "balanceOf",
					"outputs": [
						{
							"internalType": "uint256",
							"name": "result",
							"type": "uint256"
						}
					],
					"stateMutability": "view",
					"type": "function"
				},
				{
					"inputs": [
						{
							"internalType": "address",
							"name": "to",
							"type": "address"
						},
						{
							"internalType": "uint256",
							"name": "value",
							"type": "uint256"
						},
						{
							"internalType": "bytes",
							"name": "data",
							"type": "bytes"
						}
					],
					"name": "customCall",
					"outputs": [
						{
							"internalType": "bool",
							"name": "success",
							"type": "bool"
						},
						{
							"internalType": "bytes",
							"name": "returnData",
							"type": "bytes"
						}
					],
					"stateMutability": "nonpayable",
					"type": "function"
				},
				{
					"inputs": [],
					"name": "decimals",
					"outputs": [
						{
							"internalType": "uint8",
							"name": "",
							"type": "uint8"
						}
					],
					"stateMutability": "view",
					"type": "function"
				},
				{
					"inputs": [],
					"name": "erc20BuyableRate",
					"outputs": [
						{
							"internalType": "uint128",
							"name": "",
							"type": "uint128"
						}
					],
					"stateMutability": "view",
					"type": "function"
				},
				{
					"inputs": [],
					"name": "erc20BuyableTime",
					"outputs": [
						{
							"internalType": "uint256",
							"name": "",
							"type": "uint256"
						}
					],
					"stateMutability": "view",
					"type": "function"
				},
				{
					"inputs": [],
					"name": "erc20SellInhibitor",
					"outputs": [
						{
							"internalType": "uint128",
							"name": "",
							"type": "uint128"
						}
					],
					"stateMutability": "view",
					"type": "function"
				},
				{
					"inputs": [
						{
							"internalType": "uint256",
							"name": "erc20sSold",
							"type": "uint256"
						}
					],
					"name": "erc20ToNativePrice",
					"outputs": [
						{
							"internalType": "uint256",
							"name": "nativesBought",
							"type": "uint256"
						}
					],
					"stateMutability": "view",
					"type": "function"
				},
				{
					"inputs": [],
					"name": "erc20sBuyable",
					"outputs": [
						{
							"internalType": "uint256",
							"name": "",
							"type": "uint256"
						}
					],
					"stateMutability": "view",
					"type": "function"
				},
				{
					"inputs": [],
					"name": "name",
					"outputs": [
						{
							"internalType": "string",
							"name": "",
							"type": "string"
						}
					],
					"stateMutability": "view",
					"type": "function"
				},
				{
					"inputs": [],
					"name": "nameHash",
					"outputs": [
						{
							"internalType": "bytes32",
							"name": "",
							"type": "bytes32"
						}
					],
					"stateMutability": "view",
					"type": "function"
				},
				{
					"inputs": [],
					"name": "nativeBuyableRate",
					"outputs": [
						{
							"internalType": "uint128",
							"name": "",
							"type": "uint128"
						}
					],
					"stateMutability": "view",
					"type": "function"
				},
				{
					"inputs": [],
					"name": "nativeSellInhibitor",
					"outputs": [
						{
							"internalType": "uint128",
							"name": "",
							"type": "uint128"
						}
					],
					"stateMutability": "view",
					"type": "function"
				},
				{
					"inputs": [
						{
							"internalType": "uint256",
							"name": "nativesSold",
							"type": "uint256"
						}
					],
					"name": "nativeToERC20Price",
					"outputs": [
						{
							"internalType": "uint256",
							"name": "erc20sBought",
							"type": "uint256"
						}
					],
					"stateMutability": "view",
					"type": "function"
				},
				{
					"inputs": [],
					"name": "nativesBuyable",
					"outputs": [
						{
							"internalType": "uint256",
							"name": "",
							"type": "uint256"
						}
					],
					"stateMutability": "view",
					"type": "function"
				},
				{
					"inputs": [
						{
							"internalType": "address",
							"name": "owner",
							"type": "address"
						}
					],
					"name": "nonces",
					"outputs": [
						{
							"internalType": "uint256",
							"name": "result",
							"type": "uint256"
						}
					],
					"stateMutability": "view",
					"type": "function"
				},
				{
					"inputs": [],
					"name": "owner",
					"outputs": [
						{
							"internalType": "address",
							"name": "",
							"type": "address"
						}
					],
					"stateMutability": "view",
					"type": "function"
				},
				{
					"inputs": [
						{
							"internalType": "address",
							"name": "owner",
							"type": "address"
						},
						{
							"internalType": "address",
							"name": "spender",
							"type": "address"
						},
						{
							"internalType": "uint256",
							"name": "value",
							"type": "uint256"
						},
						{
							"internalType": "uint256",
							"name": "deadline",
							"type": "uint256"
						},
						{
							"internalType": "uint8",
							"name": "v",
							"type": "uint8"
						},
						{
							"internalType": "bytes32",
							"name": "r",
							"type": "bytes32"
						},
						{
							"internalType": "bytes32",
							"name": "s",
							"type": "bytes32"
						}
					],
					"name": "permit",
					"outputs": [],
					"stateMutability": "nonpayable",
					"type": "function"
				},
				{
					"inputs": [],
					"name": "renounceOwnership",
					"outputs": [],
					"stateMutability": "nonpayable",
					"type": "function"
				},
				{
					"inputs": [
						{
							"internalType": "contract SwapAbstract",
							"name": "sa",
							"type": "address"
						},
						{
							"internalType": "uint256",
							"name": "erc20sSold",
							"type": "uint256"
						},
						{
							"internalType": "address",
							"name": "to",
							"type": "address"
						}
					],
					"name": "swapERC20ToNative",
					"outputs": [
						{
							"internalType": "uint256",
							"name": "erc20sEarned",
							"type": "uint256"
						}
					],
					"stateMutability": "nonpayable",
					"type": "function"
				},
				{
					"inputs": [
						{
							"internalType": "uint256",
							"name": "erc20sSold",
							"type": "uint256"
						}
					],
					"name": "swapERC20ToNative",
					"outputs": [
						{
							"internalType": "uint256",
							"name": "nativesBought",
							"type": "uint256"
						}
					],
					"stateMutability": "nonpayable",
					"type": "function"
				},
				{
					"inputs": [
						{
							"internalType": "uint256",
							"name": "erc20sSold",
							"type": "uint256"
						},
						{
							"components": [
								{
									"internalType": "uint256",
									"name": "deadline",
									"type": "uint256"
								},
								{
									"internalType": "uint8",
									"name": "v",
									"type": "uint8"
								},
								{
									"internalType": "bytes32",
									"name": "r",
									"type": "bytes32"
								},
								{
									"internalType": "bytes32",
									"name": "s",
									"type": "bytes32"
								}
							],
							"internalType": "struct Permit2Sig",
							"name": "sig",
							"type": "tuple"
						}
					],
					"name": "swapERC20ToNative",
					"outputs": [
						{
							"internalType": "uint256",
							"name": "nativesBought",
							"type": "uint256"
						}
					],
					"stateMutability": "nonpayable",
					"type": "function"
				},
				{
					"inputs": [
						{
							"internalType": "uint256",
							"name": "erc20sSold",
							"type": "uint256"
						},
						{
							"internalType": "address",
							"name": "to",
							"type": "address"
						},
						{
							"components": [
								{
									"internalType": "uint256",
									"name": "deadline",
									"type": "uint256"
								},
								{
									"internalType": "uint8",
									"name": "v",
									"type": "uint8"
								},
								{
									"internalType": "bytes32",
									"name": "r",
									"type": "bytes32"
								},
								{
									"internalType": "bytes32",
									"name": "s",
									"type": "bytes32"
								}
							],
							"internalType": "struct Permit2Sig",
							"name": "sig",
							"type": "tuple"
						}
					],
					"name": "swapERC20ToNative",
					"outputs": [
						{
							"internalType": "uint256",
							"name": "nativesBought",
							"type": "uint256"
						}
					],
					"stateMutability": "nonpayable",
					"type": "function"
				},
				{
					"inputs": [
						{
							"internalType": "uint256",
							"name": "erc20sSold",
							"type": "uint256"
						},
						{
							"internalType": "address",
							"name": "recipient",
							"type": "address"
						}
					],
					"name": "swapERC20ToNative",
					"outputs": [
						{
							"internalType": "uint256",
							"name": "nativesBought",
							"type": "uint256"
						}
					],
					"stateMutability": "nonpayable",
					"type": "function"
				},
				{
					"inputs": [
						{
							"internalType": "contract SwapAbstract",
							"name": "sa",
							"type": "address"
						},
						{
							"internalType": "uint256",
							"name": "erc20sSold",
							"type": "uint256"
						},
						{
							"internalType": "address",
							"name": "to",
							"type": "address"
						}
					],
					"name": "swapERC223ToNative",
					"outputs": [
						{
							"internalType": "uint256",
							"name": "erc20sEarned",
							"type": "uint256"
						}
					],
					"stateMutability": "nonpayable",
					"type": "function"
				},
				{
					"inputs": [
						{
							"internalType": "address",
							"name": "to",
							"type": "address"
						}
					],
					"name": "swapNativeToERC20",
					"outputs": [
						{
							"internalType": "uint256",
							"name": "erc20sBought",
							"type": "uint256"
						}
					],
					"stateMutability": "payable",
					"type": "function"
				},
				{
					"inputs": [],
					"name": "swapNativeToERC20",
					"outputs": [
						{
							"internalType": "uint256",
							"name": "erc20sBought",
							"type": "uint256"
						}
					],
					"stateMutability": "payable",
					"type": "function"
				},
				{
					"inputs": [
						{
							"internalType": "contract SwapAbstract",
							"name": "sa",
							"type": "address"
						},
						{
							"internalType": "uint256",
							"name": "nativesSold",
							"type": "uint256"
						},
						{
							"internalType": "address",
							"name": "to",
							"type": "address"
						}
					],
					"name": "swapNativeToERC20",
					"outputs": [
						{
							"internalType": "uint256",
							"name": "nativesEarned",
							"type": "uint256"
						}
					],
					"stateMutability": "nonpayable",
					"type": "function"
				},
				{
					"inputs": [],
					"name": "symbol",
					"outputs": [
						{
							"internalType": "string",
							"name": "",
							"type": "string"
						}
					],
					"stateMutability": "view",
					"type": "function"
				},
				{
					"inputs": [
						{
							"internalType": "address",
							"name": "from",
							"type": "address"
						},
						{
							"internalType": "uint256",
							"name": "value",
							"type": "uint256"
						},
						{
							"internalType": "bytes",
							"name": "",
							"type": "bytes"
						}
					],
					"name": "tokenReceived",
					"outputs": [
						{
							"internalType": "bytes4",
							"name": "",
							"type": "bytes4"
						}
					],
					"stateMutability": "nonpayable",
					"type": "function"
				},
				{
					"inputs": [],
					"name": "totalSupply",
					"outputs": [
						{
							"internalType": "uint256",
							"name": "result",
							"type": "uint256"
						}
					],
					"stateMutability": "view",
					"type": "function"
				},
				{
					"inputs": [
						{
							"internalType": "address",
							"name": "to",
							"type": "address"
						},
						{
							"internalType": "uint256",
							"name": "amount",
							"type": "uint256"
						}
					],
					"name": "transfer",
					"outputs": [
						{
							"internalType": "bool",
							"name": "",
							"type": "bool"
						}
					],
					"stateMutability": "nonpayable",
					"type": "function"
				},
				{
					"inputs": [
						{
							"internalType": "address",
							"name": "_to",
							"type": "address"
						},
						{
							"internalType": "uint256",
							"name": "_value",
							"type": "uint256"
						},
						{
							"internalType": "bytes",
							"name": "_data",
							"type": "bytes"
						}
					],
					"name": "transfer",
					"outputs": [
						{
							"internalType": "bool",
							"name": "success",
							"type": "bool"
						}
					],
					"stateMutability": "nonpayable",
					"type": "function"
				},
				{
					"inputs": [
						{
							"internalType": "address",
							"name": "from",
							"type": "address"
						},
						{
							"internalType": "address",
							"name": "to",
							"type": "address"
						},
						{
							"internalType": "uint256",
							"name": "amount",
							"type": "uint256"
						}
					],
					"name": "transferFrom",
					"outputs": [
						{
							"internalType": "bool",
							"name": "",
							"type": "bool"
						}
					],
					"stateMutability": "nonpayable",
					"type": "function"
				},
				{
					"inputs": [
						{
							"internalType": "address",
							"name": "newOwner",
							"type": "address"
						}
					],
					"name": "transferOwnership",
					"outputs": [],
					"stateMutability": "nonpayable",
					"type": "function"
				}
			],
			"devdoc": {
				"errors": {
					"AllowanceOverflow()": [
						{
							"details": "The allowance has overflowed."
						}
					],
					"AllowanceUnderflow()": [
						{
							"details": "The allowance has underflowed."
						}
					],
					"InsufficientAllowance()": [
						{
							"details": "Insufficient allowance."
						}
					],
					"InsufficientBalance()": [
						{
							"details": "Insufficient balance."
						}
					],
					"InvalidPermit()": [
						{
							"details": "The permit is invalid."
						}
					],
					"OwnableInvalidOwner(address)": [
						{
							"details": "The owner is not a valid owner account. (eg. `address(0)`)"
						}
					],
					"OwnableUnauthorizedAccount(address)": [
						{
							"details": "The caller account is not authorized to perform an operation."
						}
					],
					"Permit2AllowanceIsFixedAtInfinity()": [
						{
							"details": "The allowance of Permit2 is fixed at infinity."
						}
					],
					"PermitExpired()": [
						{
							"details": "The permit has expired."
						}
					],
					"TotalSupplyOverflow()": [
						{
							"details": "The total supply has overflowed."
						}
					]
				},
				"events": {
					"Approval(address,address,uint256)": {
						"details": "Emitted when `amount` tokens is approved by `owner` to be used by `spender`."
					},
					"Transfer(address,address,uint256)": {
						"details": "Emitted when `amount` tokens is transferred from `from` to `to`."
					}
				},
				"kind": "dev",
				"methods": {
					"DOMAIN_SEPARATOR()": {
						"details": "Returns the EIP-712 domain separator for the EIP-2612 permit."
					},
					"allowance(address,address)": {
						"details": "Returns the amount of tokens that `spender` can spend on behalf of `owner`."
					},
					"approve(address,uint256)": {
						"details": "Sets `amount` as the allowance of `spender` over the caller's tokens. Emits a {Approval} event."
					},
					"balanceOf(address)": {
						"details": "Returns the amount of tokens owned by `owner`."
					},
					"decimals()": {
						"details": "Returns the decimals places of the token."
					},
					"name()": {
						"details": "Returns the name of the token."
					},
					"nonces(address)": {
						"details": "Returns the current nonce for `owner`. This value is used to compute the signature for EIP-2612 permit."
					},
					"owner()": {
						"details": "Returns the address of the current owner."
					},
					"permit(address,address,uint256,uint256,uint8,bytes32,bytes32)": {
						"details": "Sets `value` as the allowance of `spender` over the tokens of `owner`, authorized by a signed approval by `owner`. Emits a {Approval} event."
					},
					"renounceOwnership()": {
						"details": "Leaves the contract without owner. It will not be possible to call `onlyOwner` functions. Can only be called by the current owner. NOTE: Renouncing ownership will leave the contract without an owner, thereby disabling any functionality that is only available to the owner."
					},
					"symbol()": {
						"details": "Returns the symbol of the token."
					},
					"totalSupply()": {
						"details": "Returns the amount of tokens in existence."
					},
					"transfer(address,uint256)": {
						"details": "Transfer `amount` tokens from the caller to `to`. Requirements: - `from` must at least have `amount`. Emits a {Transfer} event."
					},
					"transferFrom(address,address,uint256)": {
						"details": "Transfers `amount` tokens from `from` to `to`. Note: Does not update the allowance if it is the maximum uint256 value. Requirements: - `from` must at least have `amount`. - The caller must have at least `amount` of allowance to transfer the tokens of `from`. Emits a {Transfer} event."
					},
					"transferOwnership(address)": {
						"details": "Transfers ownership of the contract to a new account (`newOwner`). Can only be called by the current owner."
					}
				},
				"version": 1
			},
			"evm": {
				"assembly": "    /* \"src/PinusVault2.sol\":1822:3638  contract PinusVault2 ... */\n  mstore(0x40, 0x0180)\n    /* \"src/ExchangeAbstract.sol\":405:420  block.timestamp */\n  timestamp\n    /* \"src/ExchangeAbstract.sol\":374:420  uint public erc20BuyableTime = block.timestamp */\n  0x00\n  sstore\n    /* \"src/ExchangeAbstract.sol\":461:476  block.timestamp */\n  timestamp\n    /* \"src/ExchangeAbstract.sol\":427:476  uint private _nativeBuyableTime = block.timestamp */\n  0x01\n  sstore\n    /* \"src/PinusVault2.sol\":2106:2372  constructor(address owner, string memory name_, string memory symbol_) Ownable(owner) SwapAbstract(this) {... */\n  callvalue\n  dup1\n  iszero\n  tag_1\n  jumpi\n  revert(0x00, 0x00)\ntag_1:\n  pop\n  mload(0x40)\n  sub(codesize, bytecodeSize)\n  dup1\n  bytecodeSize\n  dup4\n  codecopy\n  dup2\n  add\n  0x40\n  dup2\n  swap1\n  mstore\n  tag_2\n  swap2\n  tag_3\n  jump\t// in\ntag_2:\n    /* \"src/PinusVault2.sol\":2185:2190  owner */\n  dup3\n    /* \"src/PinusVault2.sol\":1617:1624  1 ether */\n  0x0de0b6b3a7640000\n    /* \"src/PinusVault2.sol\":1669:1696  1 ether / uint128(24 hours) */\n  tag_6\n    /* \"src/PinusVault2.sol\":1687:1695  24 hours */\n  0x015180\n    /* \"src/PinusVault2.sol\":1617:1624  1 ether */\n  dup3\n    /* \"src/PinusVault2.sol\":1669:1696  1 ether / uint128(24 hours) */\n  tag_7\n  jump\t// in\ntag_6:\n    /* \"src/PinusVault2.sol\":1735:1743  .1 ether */\n  0x016345785d8a0000\n    /* \"src/PinusVault2.sol\":1789:1817  .1 ether / uint128(24 hours) */\n  tag_8\n    /* \"src/PinusVault2.sol\":1808:1816  24 hours */\n  0x015180\n    /* \"src/PinusVault2.sol\":1735:1743  .1 ether */\n  dup3\n    /* \"src/PinusVault2.sol\":1789:1817  .1 ether / uint128(24 hours) */\n  tag_7\n  jump\t// in\ntag_8:\n    /* \"src/PinusVault2.sol\":2205:2209  this */\n  address\n    /* \"src/SwapAbstract.sol\":442:456  asset = asset_ */\n  0x80\n  mstore\n  sub(shl(0x80, 0x01), 0x01)\n    /* \"src/ExchangeAbstract.sol\":666:706  erc20SellInhibitor = erc20SellInhibitor_ */\n  swap4\n  dup5\n  and\n  0xa0\n  mstore\n    /* \"src/ExchangeAbstract.sol\":717:753  erc20BuyableRate = erc20BuyableRate_ */\n  swap2\n  dup4\n  and\n  0xc0\n  mstore\n    /* \"src/ExchangeAbstract.sol\":764:806  nativeSellInhibitor = nativeSellInhibitor_ */\n  dup3\n  and\n  0xe0\n  mstore\n    /* \"src/ExchangeAbstract.sol\":817:855  nativeBuyableRate = nativeBuyableRate_ */\n  and\n  0x0100\n  mstore\n  sub(shl(0xa0, 0x01), 0x01)\n    /* \"@openzeppelin/contracts/access/Ownable.sol\":1273:1299  initialOwner == address(0) */\n  dup2\n  and\n    /* \"@openzeppelin/contracts/access/Ownable.sol\":1269:1364  if (initialOwner == address(0)) {... */\n  tag_14\n  jumpi\n    /* \"@openzeppelin/contracts/access/Ownable.sol\":1322:1353  OwnableInvalidOwner(address(0)) */\n  mload(0x40)\n  shl(0xe0, 0x1e4fbdf7)\n  dup2\n  mstore\n    /* \"@openzeppelin/contracts/access/Ownable.sol\":1350:1351  0 */\n  0x00\n    /* \"@openzeppelin/contracts/access/Ownable.sol\":1322:1353  OwnableInvalidOwner(address(0)) */\n  0x04\n  dup3\n  add\n    /* \"#utility.yul\":2048:2099   */\n  mstore\n    /* \"#utility.yul\":2021:2039   */\n  0x24\n  add\n    /* \"@openzeppelin/contracts/access/Ownable.sol\":1322:1353  OwnableInvalidOwner(address(0)) */\n  mload(0x40)\n  dup1\n  swap2\n  sub\n  swap1\n  revert\n    /* \"@openzeppelin/contracts/access/Ownable.sol\":1269:1364  if (initialOwner == address(0)) {... */\ntag_14:\n    /* \"@openzeppelin/contracts/access/Ownable.sol\":1373:1405  _transferOwnership(initialOwner) */\n  tag_17\n    /* \"@openzeppelin/contracts/access/Ownable.sol\":1392:1404  initialOwner */\n  dup2\n    /* \"@openzeppelin/contracts/access/Ownable.sol\":1373:1391  _transferOwnership */\n  tag_18\n    /* \"@openzeppelin/contracts/access/Ownable.sol\":1373:1405  _transferOwnership(initialOwner) */\n  jump\t// in\ntag_17:\n    /* \"@openzeppelin/contracts/access/Ownable.sol\":1225:1412  constructor(address initialOwner) {... */\n  pop\n    /* \"src/PinusVault2.sol\":2255:2260  name_ */\n  dup2\n    /* \"src/PinusVault2.sol\":2238:2261  abi.encodePacked(name_) */\n  add(0x20, mload(0x40))\n  tag_20\n  swap2\n  swap1\n  tag_21\n  jump\t// in\ntag_20:\n  mload(0x40)\n  0x20\n  dup2\n  dup4\n  sub\n  sub\n  dup2\n  mstore\n  swap1\n  0x40\n  mstore\n    /* \"src/PinusVault2.sol\":2230:2262  bytes32(abi.encodePacked(name_)) */\n  tag_22\n  swap1\n  tag_23\n  jump\t// in\ntag_22:\n    /* \"src/PinusVault2.sol\":2222:2262  _name = bytes32(abi.encodePacked(name_)) */\n  0x0120\n  mstore\n    /* \"src/PinusVault2.sol\":2284:2307  keccak256(bytes(name_)) */\n  dup2\n  mload\n  0x20\n  dup1\n  dup5\n  add\n  swap2\n  swap1\n  swap2\n  keccak256\n    /* \"src/PinusVault2.sol\":2273:2307  nameHash = keccak256(bytes(name_)) */\n  0x0160\n  mstore\n    /* \"src/PinusVault2.sol\":2338:2363  abi.encodePacked(symbol_) */\n  mload(0x40)\n  tag_24\n  swap2\n    /* \"src/PinusVault2.sol\":2355:2362  symbol_ */\n  dup4\n  swap2\n    /* \"src/PinusVault2.sol\":2338:2363  abi.encodePacked(symbol_) */\n  add\n  tag_21\n  jump\t// in\ntag_24:\n  mload(0x40)\n  0x20\n  dup2\n  dup4\n  sub\n  sub\n  dup2\n  mstore\n  swap1\n  0x40\n  mstore\n    /* \"src/PinusVault2.sol\":2330:2364  bytes32(abi.encodePacked(symbol_)) */\n  tag_25\n  swap1\n  tag_23\n  jump\t// in\ntag_25:\n    /* \"src/PinusVault2.sol\":2320:2364  _symbol = bytes32(abi.encodePacked(symbol_)) */\n  0x0140\n  mstore\n  pop\n    /* \"src/PinusVault2.sol\":1822:3638  contract PinusVault2 ... */\n  tag_30\n  swap2\n  pop\n  pop\n  jump\n    /* \"@openzeppelin/contracts/access/Ownable.sol\":2912:3099  function _transferOwnership(address newOwner) internal virtual {... */\ntag_18:\n    /* \"@openzeppelin/contracts/access/Ownable.sol\":3004:3010  _owner */\n  0x02\n  dup1\n  sload\n  sub(shl(0xa0, 0x01), 0x01)\n    /* \"@openzeppelin/contracts/access/Ownable.sol\":3020:3037  _owner = newOwner */\n  dup4\n  dup2\n  and\n  not(sub(shl(0xa0, 0x01), 0x01))\n  dup4\n  and\n  dup2\n  or\n  swap1\n  swap4\n  sstore\n    /* \"@openzeppelin/contracts/access/Ownable.sol\":3052:3092  OwnershipTransferred(oldOwner, newOwner) */\n  mload(0x40)\n    /* \"@openzeppelin/contracts/access/Ownable.sol\":3004:3010  _owner */\n  swap2\n  and\n  swap2\n    /* \"@openzeppelin/contracts/access/Ownable.sol\":3020:3037  _owner = newOwner */\n  swap1\n    /* \"@openzeppelin/contracts/access/Ownable.sol\":3004:3010  _owner */\n  dup3\n  swap1\n    /* \"@openzeppelin/contracts/access/Ownable.sol\":3052:3092  OwnershipTransferred(oldOwner, newOwner) */\n  0x8be0079c531659141344cd1fd0a4f28419497f9722a3daafe3b4186f6b6457e0\n  swap1\n    /* \"@openzeppelin/contracts/access/Ownable.sol\":2985:3001  address oldOwner */\n  0x00\n  swap1\n    /* \"@openzeppelin/contracts/access/Ownable.sol\":3052:3092  OwnershipTransferred(oldOwner, newOwner) */\n  log3\n    /* \"@openzeppelin/contracts/access/Ownable.sol\":2975:3099  {... */\n  pop\n    /* \"@openzeppelin/contracts/access/Ownable.sol\":2912:3099  function _transferOwnership(address newOwner) internal virtual {... */\n  pop\n  jump\t// out\n    /* \"#utility.yul\":14:141   */\ntag_28:\n    /* \"#utility.yul\":75:85   */\n  0x4e487b71\n    /* \"#utility.yul\":70:73   */\n  0xe0\n    /* \"#utility.yul\":66:86   */\n  shl\n    /* \"#utility.yul\":63:64   */\n  0x00\n    /* \"#utility.yul\":56:87   */\n  mstore\n    /* \"#utility.yul\":106:110   */\n  0x41\n    /* \"#utility.yul\":103:104   */\n  0x04\n    /* \"#utility.yul\":96:111   */\n  mstore\n    /* \"#utility.yul\":130:134   */\n  0x24\n    /* \"#utility.yul\":127:128   */\n  0x00\n    /* \"#utility.yul\":120:135   */\n  revert\n    /* \"#utility.yul\":146:869   */\ntag_29:\n    /* \"#utility.yul\":200:205   */\n  0x00\n    /* \"#utility.yul\":253:256   */\n  dup3\n    /* \"#utility.yul\":246:250   */\n  0x1f\n    /* \"#utility.yul\":238:244   */\n  dup4\n    /* \"#utility.yul\":234:251   */\n  add\n    /* \"#utility.yul\":230:257   */\n  slt\n    /* \"#utility.yul\":220:275   */\n  tag_33\n  jumpi\n    /* \"#utility.yul\":271:272   */\n  0x00\n    /* \"#utility.yul\":268:269   */\n  0x00\n    /* \"#utility.yul\":261:273   */\n  revert\n    /* \"#utility.yul\":220:275   */\ntag_33:\n    /* \"#utility.yul\":298:311   */\n  dup2\n  mload\n  sub(shl(0x40, 0x01), 0x01)\n    /* \"#utility.yul\":323:353   */\n  dup2\n  gt\n    /* \"#utility.yul\":320:376   */\n  iszero\n  tag_35\n  jumpi\n    /* \"#utility.yul\":356:374   */\n  tag_35\n  tag_28\n  jump\t// in\ntag_35:\n    /* \"#utility.yul\":405:407   */\n  0x40\n    /* \"#utility.yul\":399:408   */\n  mload\n    /* \"#utility.yul\":497:499   */\n  0x1f\n    /* \"#utility.yul\":459:476   */\n  dup3\n  add\n  not(0x1f)\n    /* \"#utility.yul\":455:486   */\n  swap1\n  dup2\n  and\n    /* \"#utility.yul\":488:490   */\n  0x3f\n    /* \"#utility.yul\":451:491   */\n  add\n    /* \"#utility.yul\":447:501   */\n  and\n    /* \"#utility.yul\":435:502   */\n  dup2\n  add\n  sub(shl(0x40, 0x01), 0x01)\n    /* \"#utility.yul\":517:551   */\n  dup2\n  gt\n    /* \"#utility.yul\":553:575   */\n  dup3\n  dup3\n  lt\n    /* \"#utility.yul\":514:576   */\n  or\n    /* \"#utility.yul\":511:599   */\n  iszero\n  tag_37\n  jumpi\n    /* \"#utility.yul\":579:597   */\n  tag_37\n  tag_28\n  jump\t// in\ntag_37:\n    /* \"#utility.yul\":615:617   */\n  0x40\n    /* \"#utility.yul\":608:630   */\n  mstore\n    /* \"#utility.yul\":639:661   */\n  dup2\n  dup2\n  mstore\n    /* \"#utility.yul\":680:699   */\n  dup4\n  dup3\n  add\n    /* \"#utility.yul\":701:705   */\n  0x20\n    /* \"#utility.yul\":676:706   */\n  add\n    /* \"#utility.yul\":673:712   */\n  dup6\n  lt\n    /* \"#utility.yul\":670:729   */\n  iszero\n  tag_38\n  jumpi\n    /* \"#utility.yul\":725:726   */\n  0x00\n    /* \"#utility.yul\":722:723   */\n  0x00\n    /* \"#utility.yul\":715:727   */\n  revert\n    /* \"#utility.yul\":670:729   */\ntag_38:\n    /* \"#utility.yul\":782:788   */\n  dup2\n    /* \"#utility.yul\":775:779   */\n  0x20\n    /* \"#utility.yul\":767:773   */\n  dup6\n    /* \"#utility.yul\":763:780   */\n  add\n    /* \"#utility.yul\":756:760   */\n  0x20\n    /* \"#utility.yul\":748:754   */\n  dup4\n    /* \"#utility.yul\":744:761   */\n  add\n    /* \"#utility.yul\":738:789   */\n  mcopy\n    /* \"#utility.yul\":837:838   */\n  0x00\n    /* \"#utility.yul\":809:828   */\n  swap2\n  dup2\n  add\n    /* \"#utility.yul\":830:834   */\n  0x20\n    /* \"#utility.yul\":805:835   */\n  add\n    /* \"#utility.yul\":798:839   */\n  swap2\n  swap1\n  swap2\n  mstore\n    /* \"#utility.yul\":813:819   */\n  swap4\n    /* \"#utility.yul\":146:869   */\n  swap3\n  pop\n  pop\n  pop\n  jump\t// out\n    /* \"#utility.yul\":874:1598   */\ntag_3:\n    /* \"#utility.yul\":982:988   */\n  0x00\n    /* \"#utility.yul\":990:996   */\n  0x00\n    /* \"#utility.yul\":998:1004   */\n  0x00\n    /* \"#utility.yul\":1051:1053   */\n  0x60\n    /* \"#utility.yul\":1039:1048   */\n  dup5\n    /* \"#utility.yul\":1030:1037   */\n  dup7\n    /* \"#utility.yul\":1026:1049   */\n  sub\n    /* \"#utility.yul\":1022:1054   */\n  slt\n    /* \"#utility.yul\":1019:1071   */\n  iszero\n  tag_40\n  jumpi\n    /* \"#utility.yul\":1067:1068   */\n  0x00\n    /* \"#utility.yul\":1064:1065   */\n  0x00\n    /* \"#utility.yul\":1057:1069   */\n  revert\n    /* \"#utility.yul\":1019:1071   */\ntag_40:\n    /* \"#utility.yul\":1093:1109   */\n  dup4\n  mload\n  sub(shl(0xa0, 0x01), 0x01)\n    /* \"#utility.yul\":1138:1169   */\n  dup2\n  and\n    /* \"#utility.yul\":1128:1170   */\n  dup2\n  eq\n    /* \"#utility.yul\":1118:1188   */\n  tag_41\n  jumpi\n    /* \"#utility.yul\":1184:1185   */\n  0x00\n    /* \"#utility.yul\":1181:1182   */\n  0x00\n    /* \"#utility.yul\":1174:1186   */\n  revert\n    /* \"#utility.yul\":1118:1188   */\ntag_41:\n    /* \"#utility.yul\":1256:1258   */\n  0x20\n    /* \"#utility.yul\":1241:1259   */\n  dup6\n  add\n    /* \"#utility.yul\":1235:1260   */\n  mload\n    /* \"#utility.yul\":1207:1212   */\n  swap1\n  swap4\n  pop\n  sub(shl(0x40, 0x01), 0x01)\n    /* \"#utility.yul\":1272:1302   */\n  dup2\n  gt\n    /* \"#utility.yul\":1269:1319   */\n  iszero\n  tag_42\n  jumpi\n    /* \"#utility.yul\":1315:1316   */\n  0x00\n    /* \"#utility.yul\":1312:1313   */\n  0x00\n    /* \"#utility.yul\":1305:1317   */\n  revert\n    /* \"#utility.yul\":1269:1319   */\ntag_42:\n    /* \"#utility.yul\":1338:1399   */\n  tag_43\n    /* \"#utility.yul\":1391:1398   */\n  dup7\n    /* \"#utility.yul\":1382:1388   */\n  dup3\n    /* \"#utility.yul\":1371:1380   */\n  dup8\n    /* \"#utility.yul\":1367:1389   */\n  add\n    /* \"#utility.yul\":1338:1399   */\n  tag_29\n  jump\t// in\ntag_43:\n    /* \"#utility.yul\":1445:1447   */\n  0x40\n    /* \"#utility.yul\":1430:1448   */\n  dup7\n  add\n    /* \"#utility.yul\":1424:1449   */\n  mload\n    /* \"#utility.yul\":1328:1399   */\n  swap1\n  swap4\n  pop\n    /* \"#utility.yul\":1424:1449   */\n  swap1\n  pop\n  sub(shl(0x40, 0x01), 0x01)\n    /* \"#utility.yul\":1461:1493   */\n  dup2\n  gt\n    /* \"#utility.yul\":1458:1510   */\n  iszero\n  tag_44\n  jumpi\n    /* \"#utility.yul\":1506:1507   */\n  0x00\n    /* \"#utility.yul\":1503:1504   */\n  0x00\n    /* \"#utility.yul\":1496:1508   */\n  revert\n    /* \"#utility.yul\":1458:1510   */\ntag_44:\n    /* \"#utility.yul\":1529:1592   */\n  tag_45\n    /* \"#utility.yul\":1584:1591   */\n  dup7\n    /* \"#utility.yul\":1573:1581   */\n  dup3\n    /* \"#utility.yul\":1562:1571   */\n  dup8\n    /* \"#utility.yul\":1558:1582   */\n  add\n    /* \"#utility.yul\":1529:1592   */\n  tag_29\n  jump\t// in\ntag_45:\n    /* \"#utility.yul\":1519:1592   */\n  swap2\n  pop\n  pop\n    /* \"#utility.yul\":874:1598   */\n  swap3\n  pop\n  swap3\n  pop\n  swap3\n  jump\t// out\n    /* \"#utility.yul\":1603:1897   */\ntag_7:\n    /* \"#utility.yul\":1643:1644   */\n  0x00\n  sub(shl(0x80, 0x01), 0x01)\n    /* \"#utility.yul\":1670:1697   */\n  dup4\n  and\n  dup1\n    /* \"#utility.yul\":1706:1840   */\n  tag_47\n  jumpi\n    /* \"#utility.yul\":1762:1772   */\n  0x4e487b71\n    /* \"#utility.yul\":1757:1760   */\n  0xe0\n    /* \"#utility.yul\":1753:1773   */\n  shl\n    /* \"#utility.yul\":1750:1751   */\n  0x00\n    /* \"#utility.yul\":1743:1774   */\n  mstore\n    /* \"#utility.yul\":1797:1801   */\n  0x12\n    /* \"#utility.yul\":1794:1795   */\n  0x04\n    /* \"#utility.yul\":1787:1802   */\n  mstore\n    /* \"#utility.yul\":1825:1829   */\n  0x24\n    /* \"#utility.yul\":1822:1823   */\n  0x00\n    /* \"#utility.yul\":1815:1830   */\n  revert\n    /* \"#utility.yul\":1706:1840   */\ntag_47:\n  sub(shl(0x80, 0x01), 0x01)\n    /* \"#utility.yul\":1858:1885   */\n  swap3\n  swap1\n  swap3\n  and\n    /* \"#utility.yul\":1854:1891   */\n  swap2\n  swap1\n  swap2\n  div\n  swap3\n    /* \"#utility.yul\":1603:1897   */\n  swap2\n  pop\n  pop\n  jump\t// out\n    /* \"#utility.yul\":2110:2413   */\ntag_21:\n    /* \"#utility.yul\":2241:2244   */\n  0x00\n    /* \"#utility.yul\":2279:2285   */\n  dup3\n    /* \"#utility.yul\":2273:2286   */\n  mload\n    /* \"#utility.yul\":2325:2331   */\n  dup1\n    /* \"#utility.yul\":2318:2322   */\n  0x20\n    /* \"#utility.yul\":2310:2316   */\n  dup6\n    /* \"#utility.yul\":2306:2323   */\n  add\n    /* \"#utility.yul\":2301:2304   */\n  dup5\n    /* \"#utility.yul\":2295:2332   */\n  mcopy\n    /* \"#utility.yul\":2387:2388   */\n  0x00\n    /* \"#utility.yul\":2351:2367   */\n  swap3\n  add\n    /* \"#utility.yul\":2376:2389   */\n  swap2\n  dup3\n  mstore\n  pop\n    /* \"#utility.yul\":2351:2367   */\n  swap2\n    /* \"#utility.yul\":2110:2413   */\n  swap1\n  pop\n  jump\t// out\n    /* \"#utility.yul\":2418:2715   */\ntag_23:\n    /* \"#utility.yul\":2536:2548   */\n  dup1\n  mload\n    /* \"#utility.yul\":2583:2587   */\n  0x20\n    /* \"#utility.yul\":2572:2588   */\n  dup1\n  dup4\n  add\n    /* \"#utility.yul\":2566:2589   */\n  mload\n  swap2\n    /* \"#utility.yul\":2536:2548   */\n  swap1\n    /* \"#utility.yul\":2601:2617   */\n  dup2\n  lt\n    /* \"#utility.yul\":2598:2709   */\n  iszero\n  tag_51\n  jumpi\n    /* \"#utility.yul\":2695:2696   */\n  0x00\n    /* \"#utility.yul\":2691:2697   */\n  not\n    /* \"#utility.yul\":2681:2687   */\n  dup2\n    /* \"#utility.yul\":2675:2679   */\n  0x20\n    /* \"#utility.yul\":2671:2688   */\n  sub\n    /* \"#utility.yul\":2668:2669   */\n  0x03\n    /* \"#utility.yul\":2664:2689   */\n  shl\n    /* \"#utility.yul\":2660:2698   */\n  shl\n    /* \"#utility.yul\":2653:2658   */\n  dup3\n    /* \"#utility.yul\":2649:2699   */\n  and\n    /* \"#utility.yul\":2640:2699   */\n  swap2\n  pop\n    /* \"#utility.yul\":2598:2709   */\ntag_51:\n  pop\n    /* \"#utility.yul\":2418:2715   */\n  swap2\n  swap1\n  pop\n  jump\t// out\ntag_30:\n    /* \"src/PinusVault2.sol\":1822:3638  contract PinusVault2 ... */\n  mload(0x80)\n  mload(0xa0)\n  mload(0xc0)\n  mload(0xe0)\n  mload(0x0100)\n  mload(0x0120)\n  mload(0x0140)\n  mload(0x0160)\n  codecopy(0x00, dataOffset(sub_0), dataSize(sub_0))\n  0x00\n  assignImmutable(\"0x44986917507edc118e82cff103288e6e452145dcea4c0554fb5180f3e053ae11\")\n  0x00\n  assignImmutable(\"0x61c015546d5e44346798f1c6880464efac2cf5ed99e68a15f785eaa6fd93e7ec\")\n  0x00\n  assignImmutable(\"0x27f7320d12022267a30ae0570361d18e54ded7bfc682ac5b98d912c6ab83c578\")\n  0x00\n  assignImmutable(\"0x7751dd710c07ab49cc2c1853892b3f71f3ced69475463e7c975b4ac84ae5fa90\")\n  0x00\n  assignImmutable(\"0xadda5d3d116db89da9e084ab1b2cc501d795d98d1503f1026c7e065d5d1e5ce7\")\n  0x00\n  assignImmutable(\"0x808f739b0ff6f50ded0ff766b33bc9aee9c87ee99f1e55588f2719e55787021e\")\n  0x00\n  assignImmutable(\"0x3ef4406067f3f2b83779fd8c58e51154fe5e1675c0d17583dd1aac1409fbf9d7\")\n  0x00\n  assignImmutable(\"0xf0e2cc3949b3f2ba23d7d5db31264ca6ec3d5789369d57b2dafef6557c5a1f\")\n  return(0x00, dataSize(sub_0))\nstop\n\nsub_0: assembly {\n        /* \"src/PinusVault2.sol\":1822:3638  contract PinusVault2 ... */\n      mstore(0x40, 0x80)\n      jumpi(tag_1, lt(calldatasize, 0x04))\n      shr(0xe0, calldataload(0x00))\n      dup1\n      0x7ecebe00\n      gt\n      tag_40\n      jumpi\n      dup1\n      0xb3ca7f2a\n      gt\n      tag_41\n      jumpi\n      dup1\n      0xe5aca599\n      gt\n      tag_42\n      jumpi\n      dup1\n      0xe5aca599\n      eq\n      tag_35\n      jumpi\n      dup1\n      0xf172a4ce\n      eq\n      tag_36\n      jumpi\n      dup1\n      0xf2fde38b\n      eq\n      tag_37\n      jumpi\n      dup1\n      0xf4d0bd72\n      eq\n      tag_38\n      jumpi\n      dup1\n      0xf86329e1\n      eq\n      tag_39\n      jumpi\n      revert(0x00, 0x00)\n    tag_42:\n      dup1\n      0xb3ca7f2a\n      eq\n      tag_30\n      jumpi\n      dup1\n      0xbe45fd62\n      eq\n      tag_31\n      jumpi\n      dup1\n      0xd505accf\n      eq\n      tag_32\n      jumpi\n      dup1\n      0xdd62ed3e\n      eq\n      tag_33\n      jumpi\n      dup1\n      0xe46dbd07\n      eq\n      tag_34\n      jumpi\n      revert(0x00, 0x00)\n    tag_41:\n      dup1\n      0x94ef2103\n      gt\n      tag_43\n      jumpi\n      dup1\n      0x94ef2103\n      eq\n      tag_25\n      jumpi\n      dup1\n      0x95d89b41\n      eq\n      tag_26\n      jumpi\n      dup1\n      0xa9059cbb\n      eq\n      tag_27\n      jumpi\n      dup1\n      0xaf4fc206\n      eq\n      tag_28\n      jumpi\n      dup1\n      0xb3841f26\n      eq\n      tag_29\n      jumpi\n      revert(0x00, 0x00)\n    tag_43:\n      dup1\n      0x7ecebe00\n      eq\n      tag_21\n      jumpi\n      dup1\n      0x82e3d8bd\n      eq\n      tag_22\n      jumpi\n      dup1\n      0x8943ec02\n      eq\n      tag_23\n      jumpi\n      dup1\n      0x8da5cb5b\n      eq\n      tag_24\n      jumpi\n      revert(0x00, 0x00)\n    tag_40:\n      dup1\n      0x313ce567\n      gt\n      tag_44\n      jumpi\n      dup1\n      0x6263913c\n      gt\n      tag_45\n      jumpi\n      dup1\n      0x6263913c\n      eq\n      tag_16\n      jumpi\n      dup1\n      0x70a08231\n      eq\n      tag_17\n      jumpi\n      dup1\n      0x715018a6\n      eq\n      tag_18\n      jumpi\n      dup1\n      0x7b383f18\n      eq\n      tag_19\n      jumpi\n      dup1\n      0x7cc27b40\n      eq\n      tag_20\n      jumpi\n      revert(0x00, 0x00)\n    tag_45:\n      dup1\n      0x313ce567\n      eq\n      tag_11\n      jumpi\n      dup1\n      0x3644e515\n      eq\n      tag_12\n      jumpi\n      dup1\n      0x38d52e0f\n      eq\n      tag_13\n      jumpi\n      dup1\n      0x4206abe9\n      eq\n      tag_14\n      jumpi\n      dup1\n      0x6032f600\n      eq\n      tag_15\n      jumpi\n      revert(0x00, 0x00)\n    tag_44:\n      dup1\n      0x12958a6b\n      gt\n      tag_46\n      jumpi\n      dup1\n      0x12958a6b\n      eq\n      tag_6\n      jumpi\n      dup1\n      0x17b31167\n      eq\n      tag_7\n      jumpi\n      dup1\n      0x18160ddd\n      eq\n      tag_8\n      jumpi\n      dup1\n      0x223ecf7e\n      eq\n      tag_9\n      jumpi\n      dup1\n      0x23b872dd\n      eq\n      tag_10\n      jumpi\n      revert(0x00, 0x00)\n    tag_46:\n      dup1\n      0x058d1573\n      eq\n      tag_2\n      jumpi\n      dup1\n      0x06fdde03\n      eq\n      tag_3\n      jumpi\n      dup1\n      0x095ea7b3\n      eq\n      tag_4\n      jumpi\n      dup1\n      0x10ab2d01\n      eq\n      tag_5\n      jumpi\n    tag_1:\n      revert(0x00, 0x00)\n        /* \"src/ExchangeAbstract.sol\":268:312  uint128 public immutable nativeSellInhibitor */\n    tag_2:\n      callvalue\n      dup1\n      iszero\n      tag_47\n      jumpi\n      revert(0x00, 0x00)\n    tag_47:\n      pop\n      tag_48\n      immutable(\"0xadda5d3d116db89da9e084ab1b2cc501d795d98d1503f1026c7e065d5d1e5ce7\")\n      dup2\n      jump\n    tag_48:\n      mload(0x40)\n      sub(shl(0x80, 0x01), 0x01)\n        /* \"#utility.yul\":178:225   */\n      swap1\n      swap2\n      and\n        /* \"#utility.yul\":160:226   */\n      dup2\n      mstore\n        /* \"#utility.yul\":148:150   */\n      0x20\n        /* \"#utility.yul\":133:151   */\n      add\n        /* \"src/ExchangeAbstract.sol\":268:312  uint128 public immutable nativeSellInhibitor */\n    tag_50:\n      mload(0x40)\n      dup1\n      swap2\n      sub\n      swap1\n      return\n        /* \"src/PinusVault2.sol\":2499:2616  function name() public view override returns (string memory){... */\n    tag_3:\n      callvalue\n      dup1\n      iszero\n      tag_52\n      jumpi\n      revert(0x00, 0x00)\n    tag_52:\n      pop\n      tag_53\n      tag_54\n      jump\t// in\n    tag_53:\n      mload(0x40)\n      tag_50\n      swap2\n      swap1\n      tag_56\n      jump\t// in\n        /* \"https://github.com/Vectorized/solady/blob/main/src/tokens/ERC20.sol\":8175:9204  function approve(address spender, uint256 amount) public virtual returns (bool) {... */\n    tag_4:\n      callvalue\n      dup1\n      iszero\n      tag_57\n      jumpi\n      revert(0x00, 0x00)\n    tag_57:\n      pop\n      tag_58\n      tag_59\n      calldatasize\n      0x04\n      tag_60\n      jump\t// in\n    tag_59:\n      tag_61\n      jump\t// in\n    tag_58:\n      mload(0x40)\n        /* \"#utility.yul\":1429:1443   */\n      swap1\n      iszero\n        /* \"#utility.yul\":1422:1444   */\n      iszero\n        /* \"#utility.yul\":1404:1445   */\n      dup2\n      mstore\n        /* \"#utility.yul\":1392:1394   */\n      0x20\n        /* \"#utility.yul\":1377:1395   */\n      add\n        /* \"https://github.com/Vectorized/solady/blob/main/src/tokens/ERC20.sol\":8175:9204  function approve(address spender, uint256 amount) public virtual returns (bool) {... */\n      tag_50\n        /* \"#utility.yul\":1264:1451   */\n      jump\n        /* \"src/PinusVault2.sol\":2757:2937  function customCall(address to,uint value,bytes calldata data) public onlyOwner returns (bool success, bytes memory returnData) {... */\n    tag_5:\n      callvalue\n      dup1\n      iszero\n      tag_64\n      jumpi\n      revert(0x00, 0x00)\n    tag_64:\n      pop\n      tag_65\n      tag_66\n      calldatasize\n      0x04\n      tag_67\n      jump\t// in\n    tag_66:\n      tag_68\n      jump\t// in\n    tag_65:\n      mload(0x40)\n      tag_50\n      swap3\n      swap2\n      swap1\n      tag_70\n      jump\t// in\n        /* \"src/SwapAbstract.sol\":1137:1332  function swapNativeToERC20(address to) public payable returns (uint erc20sBought) {... */\n    tag_6:\n      tag_71\n      tag_72\n      calldatasize\n      0x04\n      tag_73\n      jump\t// in\n    tag_72:\n      tag_74\n      jump\t// in\n    tag_71:\n      mload(0x40)\n        /* \"#utility.yul\":3004:3029   */\n      swap1\n      dup2\n      mstore\n        /* \"#utility.yul\":2992:2994   */\n      0x20\n        /* \"#utility.yul\":2977:2995   */\n      add\n        /* \"src/SwapAbstract.sol\":1137:1332  function swapNativeToERC20(address to) public payable returns (uint erc20sBought) {... */\n      tag_50\n        /* \"#utility.yul\":2858:3035   */\n      jump\n        /* \"src/SwapAbstract.sol\":3295:3836  function swapERC20ToNative(SwapAbstract sa, uint erc20sSold, address to) external returns (uint erc20sEarned) {... */\n    tag_7:\n      callvalue\n      dup1\n      iszero\n      tag_77\n      jumpi\n      revert(0x00, 0x00)\n    tag_77:\n      pop\n      tag_71\n      tag_79\n      calldatasize\n      0x04\n      tag_80\n      jump\t// in\n    tag_79:\n      tag_81\n      jump\t// in\n        /* \"https://github.com/Vectorized/solady/blob/main/src/tokens/ERC20.sol\":6907:7102  function totalSupply() public view virtual returns (uint256 result) {... */\n    tag_8:\n      callvalue\n      dup1\n      iszero\n      tag_83\n      jumpi\n      revert(0x00, 0x00)\n    tag_83:\n      pop\n        /* \"https://github.com/Vectorized/solady/blob/main/src/tokens/ERC20.sol\":7067:7085  _TOTAL_SUPPLY_SLOT */\n      0x05345cdf77eb68f44c\n        /* \"https://github.com/Vectorized/solady/blob/main/src/tokens/ERC20.sol\":7061:7086  sload(_TOTAL_SUPPLY_SLOT) */\n      sload\n        /* \"https://github.com/Vectorized/solady/blob/main/src/tokens/ERC20.sol\":6907:7102  function totalSupply() public view virtual returns (uint256 result) {... */\n      jump(tag_71)\n        /* \"src/SwapAbstract.sol\":2253:2382  function swapNativeToERC20() external payable returns (uint erc20sBought) {... */\n    tag_9:\n      tag_71\n      tag_88\n      jump\t// in\n        /* \"https://github.com/Vectorized/solady/blob/main/src/tokens/ERC20.sol\":11165:15918  function transferFrom(address from, address to, uint256 amount) public virtual returns (bool) {... */\n    tag_10:\n      callvalue\n      dup1\n      iszero\n      tag_90\n      jumpi\n      revert(0x00, 0x00)\n    tag_90:\n      pop\n      tag_58\n      tag_92\n      calldatasize\n      0x04\n      tag_93\n      jump\t// in\n    tag_92:\n      tag_94\n      jump\t// in\n        /* \"https://github.com/Vectorized/solady/blob/main/src/tokens/ERC20.sol\":6480:6562  function decimals() public view virtual returns (uint8) {... */\n    tag_11:\n      callvalue\n      dup1\n      iszero\n      tag_96\n      jumpi\n      revert(0x00, 0x00)\n    tag_96:\n      pop\n      mload(0x40)\n        /* \"https://github.com/Vectorized/solady/blob/main/src/tokens/ERC20.sol\":6553:6555  18 */\n      0x12\n        /* \"#utility.yul\":4229:4265   */\n      dup2\n      mstore\n        /* \"#utility.yul\":4217:4219   */\n      0x20\n        /* \"#utility.yul\":4202:4220   */\n      add\n        /* \"https://github.com/Vectorized/solady/blob/main/src/tokens/ERC20.sol\":6480:6562  function decimals() public view virtual returns (uint8) {... */\n      tag_50\n        /* \"#utility.yul\":4087:4271   */\n      jump\n        /* \"https://github.com/Vectorized/solady/blob/main/src/tokens/ERC20.sol\":21458:22195  function DOMAIN_SEPARATOR() public view virtual returns (bytes32 result) {... */\n    tag_12:\n      callvalue\n      dup1\n      iszero\n      tag_101\n      jumpi\n      revert(0x00, 0x00)\n    tag_101:\n      pop\n      tag_71\n      tag_103\n      jump\t// in\n        /* \"src/SwapAbstract.sol\":369:397  ERC20 public immutable asset */\n    tag_13:\n      callvalue\n      dup1\n      iszero\n      tag_106\n      jumpi\n      revert(0x00, 0x00)\n    tag_106:\n      pop\n      tag_107\n      immutable(\"0xf0e2cc3949b3f2ba23d7d5db31264ca6ec3d5789369d57b2dafef6557c5a1f\")\n      dup2\n      jump\n    tag_107:\n      mload(0x40)\n      sub(shl(0xa0, 0x01), 0x01)\n        /* \"#utility.yul\":4635:4667   */\n      swap1\n      swap2\n      and\n        /* \"#utility.yul\":4617:4668   */\n      dup2\n      mstore\n        /* \"#utility.yul\":4605:4607   */\n      0x20\n        /* \"#utility.yul\":4590:4608   */\n      add\n        /* \"src/SwapAbstract.sol\":369:397  ERC20 public immutable asset */\n      tag_50\n        /* \"#utility.yul\":4458:4674   */\n      jump\n        /* \"src/ExchangeAbstract.sol\":1259:1570  function erc20ToNativePrice(uint erc20sSold) public override view returns (uint nativesBought) {... */\n    tag_14:\n      callvalue\n      dup1\n      iszero\n      tag_111\n      jumpi\n      revert(0x00, 0x00)\n    tag_111:\n      pop\n      tag_71\n      tag_113\n      calldatasize\n      0x04\n      tag_114\n      jump\t// in\n    tag_113:\n      tag_115\n      jump\t// in\n        /* \"src/SwapAbstract.sol\":2098:2245  function swapERC20ToNative(uint erc20sSold) public returns (uint nativesBought) {... */\n    tag_15:\n      callvalue\n      dup1\n      iszero\n      tag_117\n      jumpi\n      revert(0x00, 0x00)\n    tag_117:\n      pop\n      tag_71\n      tag_119\n      calldatasize\n      0x04\n      tag_114\n      jump\t// in\n    tag_119:\n      tag_120\n      jump\t// in\n        /* \"src/SwapAbstract.sol\":2705:2882  function swapERC20ToNative(uint erc20sSold, Permit2Sig calldata sig) external returns (uint nativesBought) {... */\n    tag_16:\n      callvalue\n      dup1\n      iszero\n      tag_122\n      jumpi\n      revert(0x00, 0x00)\n    tag_122:\n      pop\n      tag_71\n      tag_124\n      calldatasize\n      0x04\n      tag_125\n      jump\t// in\n    tag_124:\n      tag_126\n      jump\t// in\n        /* \"https://github.com/Vectorized/solady/blob/main/src/tokens/ERC20.sol\":7168:7454  function balanceOf(address owner) public view virtual returns (uint256 result) {... */\n    tag_17:\n      callvalue\n      dup1\n      iszero\n      tag_128\n      jumpi\n      revert(0x00, 0x00)\n    tag_128:\n      pop\n      tag_71\n      tag_130\n      calldatasize\n      0x04\n      tag_73\n      jump\t// in\n    tag_130:\n        /* \"https://github.com/Vectorized/solady/blob/main/src/tokens/ERC20.sol\":7336:7354  _BALANCE_SLOT_SEED */\n      0x87a211a2\n        /* \"https://github.com/Vectorized/solady/blob/main/src/tokens/ERC20.sol\":7330:7334  0x0c */\n      0x0c\n        /* \"https://github.com/Vectorized/solady/blob/main/src/tokens/ERC20.sol\":7323:7355  mstore(0x0c, _BALANCE_SLOT_SEED) */\n      swap1\n      dup2\n      mstore\n        /* \"https://github.com/Vectorized/solady/blob/main/src/tokens/ERC20.sol\":7231:7245  uint256 result */\n      0x00\n        /* \"https://github.com/Vectorized/solady/blob/main/src/tokens/ERC20.sol\":7368:7387  mstore(0x00, owner) */\n      swap2\n      swap1\n      swap2\n      mstore\n        /* \"https://github.com/Vectorized/solady/blob/main/src/tokens/ERC20.sol\":7432:7436  0x20 */\n      0x20\n        /* \"https://github.com/Vectorized/solady/blob/main/src/tokens/ERC20.sol\":7416:7437  keccak256(0x0c, 0x20) */\n      swap1\n      keccak256\n        /* \"https://github.com/Vectorized/solady/blob/main/src/tokens/ERC20.sol\":7410:7438  sload(keccak256(0x0c, 0x20)) */\n      sload\n      swap1\n        /* \"https://github.com/Vectorized/solady/blob/main/src/tokens/ERC20.sol\":7168:7454  function balanceOf(address owner) public view virtual returns (uint256 result) {... */\n      jump\n        /* \"@openzeppelin/contracts/access/Ownable.sol\":2293:2394  function renounceOwnership() public virtual onlyOwner {... */\n    tag_18:\n      callvalue\n      dup1\n      iszero\n      tag_133\n      jumpi\n      revert(0x00, 0x00)\n    tag_133:\n      pop\n      tag_134\n      tag_135\n      jump\t// in\n    tag_134:\n      stop\n        /* \"src/PinusVault2.sol\":2945:3133  function nativeToERC20Price(uint nativesSold) public override view returns (uint erc20sBought) {... */\n    tag_19:\n      callvalue\n      dup1\n      iszero\n      tag_136\n      jumpi\n      revert(0x00, 0x00)\n    tag_136:\n      pop\n      tag_71\n      tag_138\n      calldatasize\n      0x04\n      tag_114\n      jump\t// in\n    tag_138:\n      tag_139\n      jump\t// in\n        /* \"src/ExchangeAbstract.sol\":319:361  uint128 public immutable nativeBuyableRate */\n    tag_20:\n      callvalue\n      dup1\n      iszero\n      tag_141\n      jumpi\n      revert(0x00, 0x00)\n    tag_141:\n      pop\n      tag_48\n      immutable(\"0x7751dd710c07ab49cc2c1853892b3f71f3ced69475463e7c975b4ac84ae5fa90\")\n      dup2\n      jump\n        /* \"https://github.com/Vectorized/solady/blob/main/src/tokens/ERC20.sol\":17137:17477  function nonces(address owner) public view virtual returns (uint256 result) {... */\n    tag_21:\n      callvalue\n      dup1\n      iszero\n      tag_145\n      jumpi\n      revert(0x00, 0x00)\n    tag_145:\n      pop\n      tag_71\n      tag_147\n      calldatasize\n      0x04\n      tag_73\n      jump\t// in\n    tag_147:\n        /* \"https://github.com/Vectorized/solady/blob/main/src/tokens/ERC20.sol\":17360:17377  _NONCES_SLOT_SEED */\n      0x38377508\n        /* \"https://github.com/Vectorized/solady/blob/main/src/tokens/ERC20.sol\":17354:17358  0x0c */\n      0x0c\n        /* \"https://github.com/Vectorized/solady/blob/main/src/tokens/ERC20.sol\":17347:17378  mstore(0x0c, _NONCES_SLOT_SEED) */\n      swap1\n      dup2\n      mstore\n        /* \"https://github.com/Vectorized/solady/blob/main/src/tokens/ERC20.sol\":17197:17211  uint256 result */\n      0x00\n        /* \"https://github.com/Vectorized/solady/blob/main/src/tokens/ERC20.sol\":17391:17410  mstore(0x00, owner) */\n      swap2\n      swap1\n      swap2\n      mstore\n        /* \"https://github.com/Vectorized/solady/blob/main/src/tokens/ERC20.sol\":17455:17459  0x20 */\n      0x20\n        /* \"https://github.com/Vectorized/solady/blob/main/src/tokens/ERC20.sol\":17439:17460  keccak256(0x0c, 0x20) */\n      swap1\n      keccak256\n        /* \"https://github.com/Vectorized/solady/blob/main/src/tokens/ERC20.sol\":17433:17461  sload(keccak256(0x0c, 0x20)) */\n      sload\n      swap1\n        /* \"https://github.com/Vectorized/solady/blob/main/src/tokens/ERC20.sol\":17137:17477  function nonces(address owner) public view virtual returns (uint256 result) {... */\n      jump\n        /* \"src/ExchangeAbstract.sol\":170:213  uint128 public immutable erc20SellInhibitor */\n    tag_22:\n      callvalue\n      dup1\n      iszero\n      tag_150\n      jumpi\n      revert(0x00, 0x00)\n    tag_150:\n      pop\n      tag_48\n      immutable(\"0x3ef4406067f3f2b83779fd8c58e51154fe5e1675c0d17583dd1aac1409fbf9d7\")\n      dup2\n      jump\n        /* \"src/SwapAbstract.sol\":1759:2060  function tokenReceived(address from, uint value, bytes calldata) external returns (bytes4) {... */\n    tag_23:\n      callvalue\n      dup1\n      iszero\n      tag_154\n      jumpi\n      revert(0x00, 0x00)\n    tag_154:\n      pop\n      tag_155\n      tag_156\n      calldatasize\n      0x04\n      tag_67\n      jump\t// in\n    tag_156:\n      tag_157\n      jump\t// in\n    tag_155:\n      mload(0x40)\n      not(sub(shl(0xe0, 0x01), 0x01))\n        /* \"#utility.yul\":5600:5633   */\n      swap1\n      swap2\n      and\n        /* \"#utility.yul\":5582:5634   */\n      dup2\n      mstore\n        /* \"#utility.yul\":5570:5572   */\n      0x20\n        /* \"#utility.yul\":5555:5573   */\n      add\n        /* \"src/SwapAbstract.sol\":1759:2060  function tokenReceived(address from, uint value, bytes calldata) external returns (bytes4) {... */\n      tag_50\n        /* \"#utility.yul\":5438:5640   */\n      jump\n        /* \"@openzeppelin/contracts/access/Ownable.sol\":1638:1723  function owner() public view virtual returns (address) {... */\n    tag_24:\n      callvalue\n      dup1\n      iszero\n      tag_160\n      jumpi\n      revert(0x00, 0x00)\n    tag_160:\n      pop\n        /* \"@openzeppelin/contracts/access/Ownable.sol\":1710:1716  _owner */\n      and(sub(shl(0xa0, 0x01), 0x01), sload(0x02))\n        /* \"@openzeppelin/contracts/access/Ownable.sol\":1638:1723  function owner() public view virtual returns (address) {... */\n      jump(tag_107)\n        /* \"src/SwapAbstract.sol\":2420:2693  function swapERC20ToNative(uint erc20sSold, address to, Permit2Sig calldata sig) public returns (uint nativesBought) {... */\n    tag_25:\n      callvalue\n      dup1\n      iszero\n      tag_165\n      jumpi\n      revert(0x00, 0x00)\n    tag_165:\n      pop\n      tag_71\n      tag_167\n      calldatasize\n      0x04\n      tag_168\n      jump\t// in\n    tag_167:\n      tag_169\n      jump\t// in\n        /* \"src/PinusVault2.sol\":2628:2749  function symbol() public view override returns (string memory){... */\n    tag_26:\n      callvalue\n      dup1\n      iszero\n      tag_171\n      jumpi\n      revert(0x00, 0x00)\n    tag_171:\n      pop\n      tag_53\n      tag_173\n      jump\t// in\n        /* \"https://github.com/Vectorized/solady/blob/main/src/tokens/ERC20.sol\":9391:10797  function transfer(address to, uint256 amount) public virtual returns (bool) {... */\n    tag_27:\n      callvalue\n      dup1\n      iszero\n      tag_175\n      jumpi\n      revert(0x00, 0x00)\n    tag_175:\n      pop\n      tag_58\n      tag_177\n      calldatasize\n      0x04\n      tag_60\n      jump\t// in\n    tag_177:\n      tag_178\n      jump\t// in\n        /* \"src/SwapAbstract.sol\":3974:4365  function swapERC223ToNative(SwapAbstract sa, uint erc20sSold, address to) external returns (uint erc20sEarned) {... */\n    tag_28:\n      callvalue\n      dup1\n      iszero\n      tag_180\n      jumpi\n      revert(0x00, 0x00)\n    tag_180:\n      pop\n      tag_71\n      tag_182\n      calldatasize\n      0x04\n      tag_80\n      jump\t// in\n    tag_182:\n      tag_183\n      jump\t// in\n        /* \"src/PinusVault2.sol\":3361:3631  function swapERC20ToNative(uint erc20sSold, address recipient) public override returns (uint nativesBought) {... */\n    tag_29:\n      callvalue\n      dup1\n      iszero\n      tag_185\n      jumpi\n      revert(0x00, 0x00)\n    tag_185:\n      pop\n      tag_71\n      tag_187\n      calldatasize\n      0x04\n      tag_188\n      jump\t// in\n    tag_187:\n      tag_189\n      jump\t// in\n        /* \"src/ExchangeAbstract.sol\":973:1110  function nativesBuyable() public view returns (uint) {... */\n    tag_30:\n      callvalue\n      dup1\n      iszero\n      tag_191\n      jumpi\n      revert(0x00, 0x00)\n    tag_191:\n      pop\n      tag_71\n      tag_193\n      jump\t// in\n        /* \"src/ERC223.sol\":309:549  function transfer(address _to, uint _value, bytes calldata _data) public returns (bool success)... */\n    tag_31:\n      callvalue\n      dup1\n      iszero\n      tag_195\n      jumpi\n      revert(0x00, 0x00)\n    tag_195:\n      pop\n      tag_58\n      tag_197\n      calldatasize\n      0x04\n      tag_67\n      jump\t// in\n    tag_197:\n      tag_198\n      jump\t// in\n        /* \"https://github.com/Vectorized/solady/blob/main/src/tokens/ERC20.sol\":17661:21377  function permit(... */\n    tag_32:\n      callvalue\n      dup1\n      iszero\n      tag_200\n      jumpi\n      revert(0x00, 0x00)\n    tag_200:\n      pop\n      tag_134\n      tag_202\n      calldatasize\n      0x04\n      tag_203\n      jump\t// in\n    tag_202:\n      tag_204\n      jump\t// in\n        /* \"https://github.com/Vectorized/solady/blob/main/src/tokens/ERC20.sol\":7549:8044  function allowance(address owner, address spender)... */\n    tag_33:\n      callvalue\n      dup1\n      iszero\n      tag_205\n      jumpi\n      revert(0x00, 0x00)\n    tag_205:\n      pop\n      tag_71\n      tag_207\n      calldatasize\n      0x04\n      tag_208\n      jump\t// in\n    tag_207:\n        /* \"https://github.com/Vectorized/solady/blob/main/src/tokens/ERC20.sol\":7884:7888  0x20 */\n      0x20\n        /* \"https://github.com/Vectorized/solady/blob/main/src/tokens/ERC20.sol\":7877:7898  mstore(0x20, spender) */\n      mstore\n        /* \"https://github.com/Vectorized/solady/blob/main/src/tokens/ERC20.sol\":7924:7944  _ALLOWANCE_SLOT_SEED */\n      0x7f5e9f20\n        /* \"https://github.com/Vectorized/solady/blob/main/src/tokens/ERC20.sol\":7918:7922  0x0c */\n      0x0c\n        /* \"https://github.com/Vectorized/solady/blob/main/src/tokens/ERC20.sol\":7911:7945  mstore(0x0c, _ALLOWANCE_SLOT_SEED) */\n      swap1\n      dup2\n      mstore\n        /* \"https://github.com/Vectorized/solady/blob/main/src/tokens/ERC20.sol\":7965:7969  0x00 */\n      0x00\n        /* \"https://github.com/Vectorized/solady/blob/main/src/tokens/ERC20.sol\":7958:7977  mstore(0x00, owner) */\n      swap2\n      swap1\n      swap2\n      mstore\n        /* \"https://github.com/Vectorized/solady/blob/main/src/tokens/ERC20.sol\":8022:8026  0x34 */\n      0x34\n        /* \"https://github.com/Vectorized/solady/blob/main/src/tokens/ERC20.sol\":8006:8027  keccak256(0x0c, 0x34) */\n      swap1\n      keccak256\n        /* \"https://github.com/Vectorized/solady/blob/main/src/tokens/ERC20.sol\":8000:8028  sload(keccak256(0x0c, 0x34)) */\n      sload\n      swap1\n        /* \"https://github.com/Vectorized/solady/blob/main/src/tokens/ERC20.sol\":7549:8044  function allowance(address owner, address spender)... */\n      jump\n        /* \"src/ExchangeAbstract.sol\":374:420  uint public erc20BuyableTime = block.timestamp */\n    tag_34:\n      callvalue\n      dup1\n      iszero\n      tag_211\n      jumpi\n      revert(0x00, 0x00)\n    tag_211:\n      pop\n      tag_71\n      sload(0x00)\n      dup2\n      jump\n        /* \"src/SwapAbstract.sol\":2890:3287  function swapNativeToERC20(SwapAbstract sa, uint nativesSold, address to) external returns (uint nativesEarned) {... */\n    tag_35:\n      callvalue\n      dup1\n      iszero\n      tag_215\n      jumpi\n      revert(0x00, 0x00)\n    tag_215:\n      pop\n      tag_71\n      tag_217\n      calldatasize\n      0x04\n      tag_80\n      jump\t// in\n    tag_217:\n      tag_218\n      jump\t// in\n        /* \"src/PinusVault2.sol\":2060:2093  bytes32 public immutable nameHash */\n    tag_36:\n      callvalue\n      dup1\n      iszero\n      tag_220\n      jumpi\n      revert(0x00, 0x00)\n    tag_220:\n      pop\n      tag_71\n      immutable(\"0x44986917507edc118e82cff103288e6e452145dcea4c0554fb5180f3e053ae11\")\n      dup2\n      jump\n        /* \"@openzeppelin/contracts/access/Ownable.sol\":2543:2758  function transferOwnership(address newOwner) public virtual onlyOwner {... */\n    tag_37:\n      callvalue\n      dup1\n      iszero\n      tag_224\n      jumpi\n      revert(0x00, 0x00)\n    tag_224:\n      pop\n      tag_134\n      tag_226\n      calldatasize\n      0x04\n      tag_73\n      jump\t// in\n    tag_226:\n      tag_227\n      jump\t// in\n        /* \"src/ExchangeAbstract.sol\":1118:1251  function erc20sBuyable() public view returns (uint) {... */\n    tag_38:\n      callvalue\n      dup1\n      iszero\n      tag_228\n      jumpi\n      revert(0x00, 0x00)\n    tag_228:\n      pop\n      tag_71\n      tag_230\n      jump\t// in\n        /* \"src/ExchangeAbstract.sol\":220:261  uint128 public immutable erc20BuyableRate */\n    tag_39:\n      callvalue\n      dup1\n      iszero\n      tag_232\n      jumpi\n      revert(0x00, 0x00)\n    tag_232:\n      pop\n      tag_48\n      immutable(\"0x808f739b0ff6f50ded0ff766b33bc9aee9c87ee99f1e55588f2719e55787021e\")\n      dup2\n      jump\n        /* \"src/PinusVault2.sol\":2499:2616  function name() public view override returns (string memory){... */\n    tag_54:\n        /* \"src/PinusVault2.sol\":2584:2607  abi.encodePacked(_name) */\n      0x40\n      dup1\n      mload\n        /* \"src/PinusVault2.sol\":2601:2606  _name */\n      immutable(\"0x27f7320d12022267a30ae0570361d18e54ded7bfc682ac5b98d912c6ab83c578\")\n        /* \"src/PinusVault2.sol\":2584:2607  abi.encodePacked(_name) */\n      0x20\n      dup3\n      add\n        /* \"#utility.yul\":8360:8379   */\n      mstore\n        /* \"src/PinusVault2.sol\":2545:2558  string memory */\n      0x60\n      swap2\n        /* \"#utility.yul\":8395:8407   */\n      add\n        /* \"src/PinusVault2.sol\":2584:2607  abi.encodePacked(_name) */\n    tag_237:\n      mload(0x40)\n      0x20\n      dup2\n      dup4\n      sub\n      sub\n      dup2\n      mstore\n      swap1\n      0x40\n      mstore\n        /* \"src/PinusVault2.sol\":2570:2608  return string(abi.encodePacked(_name)) */\n      swap1\n      pop\n        /* \"src/PinusVault2.sol\":2499:2616  function name() public view override returns (string memory){... */\n      swap1\n      jump\t// out\n        /* \"https://github.com/Vectorized/solady/blob/main/src/tokens/ERC20.sol\":8175:9204  function approve(address spender, uint256 amount) public virtual returns (bool) {... */\n    tag_61:\n        /* \"https://github.com/Vectorized/solady/blob/main/src/tokens/ERC20.sol\":8249:8253  bool */\n      0x00\n        /* \"https://github.com/Vectorized/solady/blob/main/src/tokens/ERC20.sol\":8864:8871  spender */\n      dup3\n        /* \"https://github.com/Vectorized/solady/blob/main/src/tokens/ERC20.sol\":8858:8862  0x20 */\n      0x20\n        /* \"https://github.com/Vectorized/solady/blob/main/src/tokens/ERC20.sol\":8851:8872  mstore(0x20, spender) */\n      mstore\n        /* \"https://github.com/Vectorized/solady/blob/main/src/tokens/ERC20.sol\":8898:8918  _ALLOWANCE_SLOT_SEED */\n      0x7f5e9f20\n        /* \"https://github.com/Vectorized/solady/blob/main/src/tokens/ERC20.sol\":8892:8896  0x0c */\n      0x0c\n        /* \"https://github.com/Vectorized/solady/blob/main/src/tokens/ERC20.sol\":8885:8919  mstore(0x0c, _ALLOWANCE_SLOT_SEED) */\n      mstore\n        /* \"https://github.com/Vectorized/solady/blob/main/src/tokens/ERC20.sol\":8945:8953  caller() */\n      caller\n        /* \"https://github.com/Vectorized/solady/blob/main/src/tokens/ERC20.sol\":8939:8943  0x00 */\n      0x00\n        /* \"https://github.com/Vectorized/solady/blob/main/src/tokens/ERC20.sol\":8932:8954  mstore(0x00, caller()) */\n      mstore\n        /* \"https://github.com/Vectorized/solady/blob/main/src/tokens/ERC20.sol\":8997:9003  amount */\n      dup2\n        /* \"https://github.com/Vectorized/solady/blob/main/src/tokens/ERC20.sol\":8990:8994  0x34 */\n      0x34\n        /* \"https://github.com/Vectorized/solady/blob/main/src/tokens/ERC20.sol\":8984:8988  0x0c */\n      0x0c\n        /* \"https://github.com/Vectorized/solady/blob/main/src/tokens/ERC20.sol\":8974:8995  keccak256(0x0c, 0x34) */\n      keccak256\n        /* \"https://github.com/Vectorized/solady/blob/main/src/tokens/ERC20.sol\":8967:9004  sstore(keccak256(0x0c, 0x34), amount) */\n      sstore\n        /* \"https://github.com/Vectorized/solady/blob/main/src/tokens/ERC20.sol\":9072:9078  amount */\n      dup2\n        /* \"https://github.com/Vectorized/solady/blob/main/src/tokens/ERC20.sol\":9066:9070  0x00 */\n      0x00\n        /* \"https://github.com/Vectorized/solady/blob/main/src/tokens/ERC20.sol\":9059:9079  mstore(0x00, amount) */\n      mstore\n        /* \"https://github.com/Vectorized/solady/blob/main/src/tokens/ERC20.sol\":9160:9164  0x2c */\n      0x2c\n        /* \"https://github.com/Vectorized/solady/blob/main/src/tokens/ERC20.sol\":9154:9165  mload(0x2c) */\n      mload\n        /* \"https://github.com/Vectorized/solady/blob/main/src/tokens/ERC20.sol\":9150:9152  96 */\n      0x60\n        /* \"https://github.com/Vectorized/solady/blob/main/src/tokens/ERC20.sol\":9146:9166  shr(96, mload(0x2c)) */\n      shr\n        /* \"https://github.com/Vectorized/solady/blob/main/src/tokens/ERC20.sol\":9136:9144  caller() */\n      caller\n        /* \"https://github.com/Vectorized/solady/blob/main/src/tokens/ERC20.sol\":9109:9134  _APPROVAL_EVENT_SIGNATURE */\n      0x8c5be1e5ebec7d5bd14f71427d1e84f3dd0314c0f7b2291e5b200ac8c7c3b925\n        /* \"https://github.com/Vectorized/solady/blob/main/src/tokens/ERC20.sol\":9103:9107  0x20 */\n      0x20\n        /* \"https://github.com/Vectorized/solady/blob/main/src/tokens/ERC20.sol\":9097:9101  0x00 */\n      0x00\n        /* \"https://github.com/Vectorized/solady/blob/main/src/tokens/ERC20.sol\":9092:9167  log3(0x00, 0x20, _APPROVAL_EVENT_SIGNATURE, caller(), shr(96, mload(0x2c))) */\n      log3\n      pop\n        /* \"https://github.com/Vectorized/solady/blob/main/src/tokens/ERC20.sol\":9193:9197  true */\n      0x01\n        /* \"https://github.com/Vectorized/solady/blob/main/src/tokens/ERC20.sol\":8175:9204  function approve(address spender, uint256 amount) public virtual returns (bool) {... */\n    tag_239:\n      swap3\n      swap2\n      pop\n      pop\n      jump\t// out\n        /* \"src/PinusVault2.sol\":2757:2937  function customCall(address to,uint value,bytes calldata data) public onlyOwner returns (bool success, bytes memory returnData) {... */\n    tag_68:\n        /* \"src/PinusVault2.sol\":2846:2858  bool success */\n      0x00\n        /* \"src/PinusVault2.sol\":2860:2883  bytes memory returnData */\n      0x60\n        /* \"@openzeppelin/contracts/access/Ownable.sol\":1531:1544  _checkOwner() */\n      tag_245\n        /* \"@openzeppelin/contracts/access/Ownable.sol\":1531:1542  _checkOwner */\n      tag_246\n        /* \"@openzeppelin/contracts/access/Ownable.sol\":1531:1544  _checkOwner() */\n      jump\t// in\n    tag_245:\n        /* \"src/PinusVault2.sol\":2903:2905  to */\n      dup6\n      sub(shl(0xa0, 0x01), 0x01)\n        /* \"src/PinusVault2.sol\":2903:2910  to.call */\n      and\n        /* \"src/PinusVault2.sol\":2917:2922  value */\n      dup6\n        /* \"src/PinusVault2.sol\":2924:2928  data */\n      dup6\n      dup6\n        /* \"src/PinusVault2.sol\":2903:2929  to.call{value:value}(data) */\n      mload(0x40)\n      tag_248\n      swap3\n      swap2\n      swap1\n      tag_249\n      jump\t// in\n    tag_248:\n      0x00\n      mload(0x40)\n      dup1\n      dup4\n      sub\n      dup2\n      dup6\n      dup8\n      gas\n      call\n      swap3\n      pop\n      pop\n      pop\n      returndatasize\n      dup1\n      0x00\n      dup2\n      eq\n      tag_252\n      jumpi\n      mload(0x40)\n      swap2\n      pop\n      and(add(returndatasize, 0x3f), not(0x1f))\n      dup3\n      add\n      0x40\n      mstore\n      returndatasize\n      dup3\n      mstore\n      returndatasize\n      0x00\n      0x20\n      dup5\n      add\n      returndatacopy\n      jump(tag_251)\n    tag_252:\n      0x60\n      swap2\n      pop\n    tag_251:\n      pop\n        /* \"src/PinusVault2.sol\":2896:2929  return to.call{value:value}(data) */\n      swap2\n      pop\n      swap2\n      pop\n        /* \"src/PinusVault2.sol\":2757:2937  function customCall(address to,uint value,bytes calldata data) public onlyOwner returns (bool success, bytes memory returnData) {... */\n      swap5\n      pop\n      swap5\n      swap3\n      pop\n      pop\n      pop\n      jump\t// out\n        /* \"src/SwapAbstract.sol\":1137:1332  function swapNativeToERC20(address to) public payable returns (uint erc20sBought) {... */\n    tag_74:\n        /* \"src/SwapAbstract.sol\":1200:1217  uint erc20sBought */\n      0x00\n        /* \"src/SwapAbstract.sol\":1245:1274  nativeToERC20Price(msg.value) */\n      tag_254\n        /* \"src/SwapAbstract.sol\":1264:1273  msg.value */\n      callvalue\n        /* \"src/SwapAbstract.sol\":1245:1263  nativeToERC20Price */\n      tag_139\n        /* \"src/SwapAbstract.sol\":1245:1274  nativeToERC20Price(msg.value) */\n      jump\t// in\n    tag_254:\n        /* \"src/SwapAbstract.sol\":1230:1274  erc20sBought = nativeToERC20Price(msg.value) */\n      swap1\n      pop\n        /* \"src/SwapAbstract.sol\":1285:1324  _transferERC20sBought(to, erc20sBought) */\n      tag_255\n        /* \"src/SwapAbstract.sol\":1307:1309  to */\n      dup3\n        /* \"src/SwapAbstract.sol\":1311:1323  erc20sBought */\n      dup3\n        /* \"src/SwapAbstract.sol\":1285:1306  _transferERC20sBought */\n      tag_256\n        /* \"src/SwapAbstract.sol\":1285:1324  _transferERC20sBought(to, erc20sBought) */\n      jump\t// in\n    tag_255:\n        /* \"src/SwapAbstract.sol\":1137:1332  function swapNativeToERC20(address to) public payable returns (uint erc20sBought) {... */\n      swap2\n      swap1\n      pop\n      jump\t// out\n        /* \"src/SwapAbstract.sol\":3295:3836  function swapERC20ToNative(SwapAbstract sa, uint erc20sSold, address to) external returns (uint erc20sEarned) {... */\n    tag_81:\n        /* \"src/SwapAbstract.sol\":3386:3403  uint erc20sEarned */\n      0x00\n        /* \"src/SwapAbstract.sol\":3416:3433  uint startBalance */\n      0x00\n        /* \"src/SwapAbstract.sol\":3436:3457  address(this).balance */\n      selfbalance\n        /* \"src/SwapAbstract.sol\":3416:3457  uint startBalance = address(this).balance */\n      swap1\n      pop\n        /* \"src/SwapAbstract.sol\":3496:3501  asset */\n      immutable(\"0xf0e2cc3949b3f2ba23d7d5db31264ca6ec3d5789369d57b2dafef6557c5a1f\")\n      sub(shl(0xa0, 0x01), 0x01)\n        /* \"src/SwapAbstract.sol\":3473:3502  address(sa) != address(asset) */\n      and\n        /* \"src/SwapAbstract.sol\":3481:3483  sa */\n      dup6\n      sub(shl(0xa0, 0x01), 0x01)\n        /* \"src/SwapAbstract.sol\":3473:3502  address(sa) != address(asset) */\n      and\n      eq\n        /* \"src/SwapAbstract.sol\":3470:3635  if(address(sa) != address(asset)) { //If the token is from the same contract, it doesn't need approval... */\n      tag_258\n      jumpi\n        /* \"src/SwapAbstract.sol\":3586:3623  asset.approve(address(sa),erc20sSold) */\n      mload(0x40)\n      shl(0xe0, 0x095ea7b3)\n      dup2\n      mstore\n      sub(shl(0xa0, 0x01), 0x01)\n        /* \"#utility.yul\":8886:8918   */\n      dup7\n      dup2\n      and\n        /* \"src/SwapAbstract.sol\":3586:3623  asset.approve(address(sa),erc20sSold) */\n      0x04\n      dup4\n      add\n        /* \"#utility.yul\":8868:8919   */\n      mstore\n        /* \"#utility.yul\":8935:8953   */\n      0x24\n      dup3\n      add\n        /* \"#utility.yul\":8928:8962   */\n      dup7\n      swap1\n      mstore\n        /* \"src/SwapAbstract.sol\":3586:3591  asset */\n      immutable(\"0xf0e2cc3949b3f2ba23d7d5db31264ca6ec3d5789369d57b2dafef6557c5a1f\")\n        /* \"src/SwapAbstract.sol\":3586:3599  asset.approve */\n      and\n      swap1\n      0x095ea7b3\n      swap1\n        /* \"#utility.yul\":8841:8859   */\n      0x44\n      add\n        /* \"src/SwapAbstract.sol\":3586:3623  asset.approve(address(sa),erc20sSold) */\n      0x20\n      mload(0x40)\n      dup1\n      dup4\n      sub\n      dup2\n      0x00\n      dup8\n      gas\n      call\n      iszero\n      dup1\n      iszero\n      tag_262\n      jumpi\n      returndatacopy(0x00, 0x00, returndatasize)\n      revert(0x00, returndatasize)\n    tag_262:\n      pop\n      pop\n      pop\n      pop\n      mload(0x40)\n      returndatasize\n      not(0x1f)\n      0x1f\n      dup3\n      add\n      and\n      dup3\n      add\n      dup1\n      0x40\n      mstore\n      pop\n      dup2\n      add\n      swap1\n      tag_263\n      swap2\n      swap1\n      tag_264\n      jump\t// in\n    tag_263:\n      pop\n        /* \"src/SwapAbstract.sol\":3470:3635  if(address(sa) != address(asset)) { //If the token is from the same contract, it doesn't need approval... */\n    tag_258:\n        /* \"src/SwapAbstract.sol\":3647:3679  sa.swapERC20ToNative(erc20sSold) */\n      mload(0x40)\n      shl(0xe9, 0x30197b)\n      dup2\n      mstore\n      0x04\n      dup2\n      add\n        /* \"#utility.yul\":3004:3029   */\n      dup6\n      swap1\n      mstore\n      sub(shl(0xa0, 0x01), 0x01)\n        /* \"src/SwapAbstract.sol\":3647:3667  sa.swapERC20ToNative */\n      dup7\n      and\n      swap1\n      0x6032f600\n      swap1\n        /* \"#utility.yul\":2977:2995   */\n      0x24\n      add\n        /* \"src/SwapAbstract.sol\":3647:3679  sa.swapERC20ToNative(erc20sSold) */\n      0x20\n      mload(0x40)\n      dup1\n      dup4\n      sub\n      dup2\n      0x00\n      dup8\n      gas\n      call\n      iszero\n      dup1\n      iszero\n      tag_267\n      jumpi\n      returndatacopy(0x00, 0x00, returndatasize)\n      revert(0x00, returndatasize)\n    tag_267:\n      pop\n      pop\n      pop\n      pop\n      mload(0x40)\n      returndatasize\n      not(0x1f)\n      0x1f\n      dup3\n      add\n      and\n      dup3\n      add\n      dup1\n      0x40\n      mstore\n      pop\n      dup2\n      add\n      swap1\n      tag_268\n      swap2\n      swap1\n      tag_269\n      jump\t// in\n    tag_268:\n      pop\n        /* \"src/SwapAbstract.sol\":3766:3776  erc20sSold */\n      dup4\n        /* \"src/SwapAbstract.sol\":3707:3763  nativeToERC20Price(address(this).balance - startBalance) */\n      tag_270\n        /* \"src/SwapAbstract.sol\":3726:3762  address(this).balance - startBalance */\n      tag_138\n        /* \"src/SwapAbstract.sol\":3750:3762  startBalance */\n      dup4\n        /* \"src/SwapAbstract.sol\":3726:3747  address(this).balance */\n      selfbalance\n        /* \"src/SwapAbstract.sol\":3726:3762  address(this).balance - startBalance */\n      tag_272\n      jump\t// in\n        /* \"src/SwapAbstract.sol\":3707:3763  nativeToERC20Price(address(this).balance - startBalance) */\n    tag_270:\n        /* \"src/SwapAbstract.sol\":3707:3776  nativeToERC20Price(address(this).balance - startBalance) - erc20sSold */\n      tag_273\n      swap2\n      swap1\n      tag_272\n      jump\t// in\n    tag_273:\n        /* \"src/SwapAbstract.sol\":3692:3776  erc20sEarned = nativeToERC20Price(address(this).balance - startBalance) - erc20sSold */\n      swap2\n      pop\n        /* \"src/SwapAbstract.sol\":3789:3828  _transferERC20sBought(to, erc20sEarned) */\n      tag_274\n        /* \"src/SwapAbstract.sol\":3811:3813  to */\n      dup4\n        /* \"src/SwapAbstract.sol\":3815:3827  erc20sEarned */\n      dup4\n        /* \"src/SwapAbstract.sol\":3789:3810  _transferERC20sBought */\n      tag_256\n        /* \"src/SwapAbstract.sol\":3789:3828  _transferERC20sBought(to, erc20sEarned) */\n      jump\t// in\n    tag_274:\n        /* \"src/SwapAbstract.sol\":3405:3836  {... */\n      pop\n        /* \"src/SwapAbstract.sol\":3295:3836  function swapERC20ToNative(SwapAbstract sa, uint erc20sSold, address to) external returns (uint erc20sEarned) {... */\n      swap4\n      swap3\n      pop\n      pop\n      pop\n      jump\t// out\n        /* \"src/SwapAbstract.sol\":2253:2382  function swapNativeToERC20() external payable returns (uint erc20sBought) {... */\n    tag_88:\n        /* \"src/SwapAbstract.sol\":2308:2325  uint erc20sBought */\n      0x00\n        /* \"src/SwapAbstract.sol\":2345:2374  swapNativeToERC20(msg.sender) */\n      tag_277\n        /* \"src/SwapAbstract.sol\":2363:2373  msg.sender */\n      caller\n        /* \"src/SwapAbstract.sol\":2345:2362  swapNativeToERC20 */\n      tag_74\n        /* \"src/SwapAbstract.sol\":2345:2374  swapNativeToERC20(msg.sender) */\n      jump\t// in\n    tag_277:\n        /* \"src/SwapAbstract.sol\":2338:2374  return swapNativeToERC20(msg.sender) */\n      swap1\n      pop\n        /* \"src/SwapAbstract.sol\":2253:2382  function swapNativeToERC20() external payable returns (uint erc20sBought) {... */\n      swap1\n      jump\t// out\n        /* \"https://github.com/Vectorized/solady/blob/main/src/tokens/ERC20.sol\":11165:15918  function transferFrom(address from, address to, uint256 amount) public virtual returns (bool) {... */\n    tag_94:\n        /* \"https://github.com/Vectorized/solady/blob/main/src/tokens/ERC20.sol\":11253:11257  bool */\n      0x00\n        /* \"https://github.com/Vectorized/solady/blob/main/src/tokens/ERC20.sol\":13811:13815  from */\n      dup4\n        /* \"https://github.com/Vectorized/solady/blob/main/src/tokens/ERC20.sol\":13807:13809  96 */\n      0x60\n        /* \"https://github.com/Vectorized/solady/blob/main/src/tokens/ERC20.sol\":13803:13816  shl(96, from) */\n      shl\n        /* \"https://github.com/Vectorized/solady/blob/main/src/tokens/ERC20.sol\":13912:13920  caller() */\n      caller\n        /* \"https://github.com/Vectorized/solady/blob/main/src/tokens/ERC20.sol\":13906:13910  0x20 */\n      0x20\n        /* \"https://github.com/Vectorized/solady/blob/main/src/tokens/ERC20.sol\":13899:13921  mstore(0x20, caller()) */\n      mstore\n        /* \"https://github.com/Vectorized/solady/blob/main/src/tokens/ERC20.sol\":13961:13981  _ALLOWANCE_SLOT_SEED */\n      0x7f5e9f20\n        /* \"https://github.com/Vectorized/solady/blob/main/src/tokens/ERC20.sol\":13954:13959  from_ */\n      dup2\n        /* \"https://github.com/Vectorized/solady/blob/main/src/tokens/ERC20.sol\":13951:13982  or(from_, _ALLOWANCE_SLOT_SEED) */\n      or\n        /* \"https://github.com/Vectorized/solady/blob/main/src/tokens/ERC20.sol\":13945:13949  0x0c */\n      0x0c\n        /* \"https://github.com/Vectorized/solady/blob/main/src/tokens/ERC20.sol\":13938:13983  mstore(0x0c, or(from_, _ALLOWANCE_SLOT_SEED)) */\n      mstore\n        /* \"https://github.com/Vectorized/solady/blob/main/src/tokens/ERC20.sol\":14037:14041  0x34 */\n      0x34\n        /* \"https://github.com/Vectorized/solady/blob/main/src/tokens/ERC20.sol\":14031:14035  0x0c */\n      0x0c\n        /* \"https://github.com/Vectorized/solady/blob/main/src/tokens/ERC20.sol\":14021:14042  keccak256(0x0c, 0x34) */\n      keccak256\n        /* \"https://github.com/Vectorized/solady/blob/main/src/tokens/ERC20.sol\":14083:14096  allowanceSlot */\n      dup1\n        /* \"https://github.com/Vectorized/solady/blob/main/src/tokens/ERC20.sol\":14077:14097  sload(allowanceSlot) */\n      sload\n        /* \"https://github.com/Vectorized/solady/blob/main/src/tokens/ERC20.sol\":14191:14201  allowance_ */\n      dup1\n        /* \"https://github.com/Vectorized/solady/blob/main/src/tokens/ERC20.sol\":14187:14202  not(allowance_) */\n      not\n        /* \"https://github.com/Vectorized/solady/blob/main/src/tokens/ERC20.sol\":14184:14631  if not(allowance_) {... */\n      iszero\n      tag_288\n      jumpi\n        /* \"https://github.com/Vectorized/solady/blob/main/src/tokens/ERC20.sol\":14324:14334  allowance_ */\n      dup1\n        /* \"https://github.com/Vectorized/solady/blob/main/src/tokens/ERC20.sol\":14316:14322  amount */\n      dup6\n        /* \"https://github.com/Vectorized/solady/blob/main/src/tokens/ERC20.sol\":14313:14335  gt(amount, allowance_) */\n      gt\n        /* \"https://github.com/Vectorized/solady/blob/main/src/tokens/ERC20.sol\":14310:14481  if gt(amount, allowance_) {... */\n      iszero\n      tag_289\n      jumpi\n        /* \"https://github.com/Vectorized/solady/blob/main/src/tokens/ERC20.sol\":14375:14385  0x13be252b */\n      0x13be252b\n        /* \"https://github.com/Vectorized/solady/blob/main/src/tokens/ERC20.sol\":14369:14373  0x00 */\n      0x00\n        /* \"https://github.com/Vectorized/solady/blob/main/src/tokens/ERC20.sol\":14362:14386  mstore(0x00, 0x13be252b) */\n      mstore\n        /* \"https://github.com/Vectorized/solady/blob/main/src/tokens/ERC20.sol\":14454:14458  0x04 */\n      0x04\n        /* \"https://github.com/Vectorized/solady/blob/main/src/tokens/ERC20.sol\":14448:14452  0x1c */\n      0x1c\n        /* \"https://github.com/Vectorized/solady/blob/main/src/tokens/ERC20.sol\":14441:14459  revert(0x1c, 0x04) */\n      revert\n        /* \"https://github.com/Vectorized/solady/blob/main/src/tokens/ERC20.sol\":14310:14481  if gt(amount, allowance_) {... */\n    tag_289:\n        /* \"https://github.com/Vectorized/solady/blob/main/src/tokens/ERC20.sol\":14605:14611  amount */\n      dup5\n        /* \"https://github.com/Vectorized/solady/blob/main/src/tokens/ERC20.sol\":14593:14603  allowance_ */\n      dup2\n        /* \"https://github.com/Vectorized/solady/blob/main/src/tokens/ERC20.sol\":14589:14612  sub(allowance_, amount) */\n      sub\n        /* \"https://github.com/Vectorized/solady/blob/main/src/tokens/ERC20.sol\":14574:14587  allowanceSlot */\n      dup3\n        /* \"https://github.com/Vectorized/solady/blob/main/src/tokens/ERC20.sol\":14567:14613  sstore(allowanceSlot, sub(allowance_, amount)) */\n      sstore\n        /* \"https://github.com/Vectorized/solady/blob/main/src/tokens/ERC20.sol\":14184:14631  if not(allowance_) {... */\n    tag_288:\n      pop\n      pop\n        /* \"https://github.com/Vectorized/solady/blob/main/src/tokens/ERC20.sol\":14735:14753  _BALANCE_SLOT_SEED */\n      0x87a211a2\n        /* \"https://github.com/Vectorized/solady/blob/main/src/tokens/ERC20.sol\":14728:14733  from_ */\n      dup2\n        /* \"https://github.com/Vectorized/solady/blob/main/src/tokens/ERC20.sol\":14725:14754  or(from_, _BALANCE_SLOT_SEED) */\n      or\n        /* \"https://github.com/Vectorized/solady/blob/main/src/tokens/ERC20.sol\":14719:14723  0x0c */\n      0x0c\n        /* \"https://github.com/Vectorized/solady/blob/main/src/tokens/ERC20.sol\":14712:14755  mstore(0x0c, or(from_, _BALANCE_SLOT_SEED)) */\n      mstore\n        /* \"https://github.com/Vectorized/solady/blob/main/src/tokens/ERC20.sol\":14811:14815  0x20 */\n      0x20\n        /* \"https://github.com/Vectorized/solady/blob/main/src/tokens/ERC20.sol\":14805:14809  0x0c */\n      0x0c\n        /* \"https://github.com/Vectorized/solady/blob/main/src/tokens/ERC20.sol\":14795:14816  keccak256(0x0c, 0x20) */\n      keccak256\n        /* \"https://github.com/Vectorized/solady/blob/main/src/tokens/ERC20.sol\":14858:14873  fromBalanceSlot */\n      dup1\n        /* \"https://github.com/Vectorized/solady/blob/main/src/tokens/ERC20.sol\":14852:14874  sload(fromBalanceSlot) */\n      sload\n        /* \"https://github.com/Vectorized/solady/blob/main/src/tokens/ERC20.sol\":14956:14967  fromBalance */\n      dup1\n        /* \"https://github.com/Vectorized/solady/blob/main/src/tokens/ERC20.sol\":14948:14954  amount */\n      dup6\n        /* \"https://github.com/Vectorized/solady/blob/main/src/tokens/ERC20.sol\":14945:14968  gt(amount, fromBalance) */\n      gt\n        /* \"https://github.com/Vectorized/solady/blob/main/src/tokens/ERC20.sol\":14942:15100  if gt(amount, fromBalance) {... */\n      iszero\n      tag_290\n      jumpi\n        /* \"https://github.com/Vectorized/solady/blob/main/src/tokens/ERC20.sol\":15004:15014  0xf4d678b8 */\n      0xf4d678b8\n        /* \"https://github.com/Vectorized/solady/blob/main/src/tokens/ERC20.sol\":14998:15002  0x00 */\n      0x00\n        /* \"https://github.com/Vectorized/solady/blob/main/src/tokens/ERC20.sol\":14991:15015  mstore(0x00, 0xf4d678b8) */\n      mstore\n        /* \"https://github.com/Vectorized/solady/blob/main/src/tokens/ERC20.sol\":15077:15081  0x04 */\n      0x04\n        /* \"https://github.com/Vectorized/solady/blob/main/src/tokens/ERC20.sol\":15071:15075  0x1c */\n      0x1c\n        /* \"https://github.com/Vectorized/solady/blob/main/src/tokens/ERC20.sol\":15064:15082  revert(0x1c, 0x04) */\n      revert\n        /* \"https://github.com/Vectorized/solady/blob/main/src/tokens/ERC20.sol\":14942:15100  if gt(amount, fromBalance) {... */\n    tag_290:\n        /* \"https://github.com/Vectorized/solady/blob/main/src/tokens/ERC20.sol\":15217:15223  amount */\n      dup5\n        /* \"https://github.com/Vectorized/solady/blob/main/src/tokens/ERC20.sol\":15204:15215  fromBalance */\n      dup2\n        /* \"https://github.com/Vectorized/solady/blob/main/src/tokens/ERC20.sol\":15200:15224  sub(fromBalance, amount) */\n      sub\n        /* \"https://github.com/Vectorized/solady/blob/main/src/tokens/ERC20.sol\":15183:15198  fromBalanceSlot */\n      dup3\n        /* \"https://github.com/Vectorized/solady/blob/main/src/tokens/ERC20.sol\":15176:15225  sstore(fromBalanceSlot, sub(fromBalance, amount)) */\n      sstore\n      pop\n      pop\n        /* \"https://github.com/Vectorized/solady/blob/main/src/tokens/ERC20.sol\":15308:15310  to */\n      dup4\n        /* \"https://github.com/Vectorized/solady/blob/main/src/tokens/ERC20.sol\":15302:15306  0x00 */\n      0x00\n        /* \"https://github.com/Vectorized/solady/blob/main/src/tokens/ERC20.sol\":15295:15311  mstore(0x00, to) */\n      mstore\n        /* \"https://github.com/Vectorized/solady/blob/main/src/tokens/ERC20.sol\":15365:15369  0x20 */\n      0x20\n        /* \"https://github.com/Vectorized/solady/blob/main/src/tokens/ERC20.sol\":15359:15363  0x0c */\n      0x0c\n        /* \"https://github.com/Vectorized/solady/blob/main/src/tokens/ERC20.sol\":15349:15370  keccak256(0x0c, 0x20) */\n      keccak256\n        /* \"https://github.com/Vectorized/solady/blob/main/src/tokens/ERC20.sol\":15631:15637  amount */\n      dup4\n        /* \"https://github.com/Vectorized/solady/blob/main/src/tokens/ERC20.sol\":15615:15628  toBalanceSlot */\n      dup2\n        /* \"https://github.com/Vectorized/solady/blob/main/src/tokens/ERC20.sol\":15609:15629  sload(toBalanceSlot) */\n      sload\n        /* \"https://github.com/Vectorized/solady/blob/main/src/tokens/ERC20.sol\":15605:15638  add(sload(toBalanceSlot), amount) */\n      add\n        /* \"https://github.com/Vectorized/solady/blob/main/src/tokens/ERC20.sol\":15590:15603  toBalanceSlot */\n      dup2\n        /* \"https://github.com/Vectorized/solady/blob/main/src/tokens/ERC20.sol\":15583:15639  sstore(toBalanceSlot, add(sload(toBalanceSlot), amount)) */\n      sstore\n      pop\n        /* \"https://github.com/Vectorized/solady/blob/main/src/tokens/ERC20.sol\":15715:15721  amount */\n      dup3\n        /* \"https://github.com/Vectorized/solady/blob/main/src/tokens/ERC20.sol\":15709:15713  0x20 */\n      0x20\n        /* \"https://github.com/Vectorized/solady/blob/main/src/tokens/ERC20.sol\":15702:15722  mstore(0x20, amount) */\n      mstore\n        /* \"https://github.com/Vectorized/solady/blob/main/src/tokens/ERC20.sol\":15813:15817  0x0c */\n      0x0c\n        /* \"https://github.com/Vectorized/solady/blob/main/src/tokens/ERC20.sol\":15807:15818  mload(0x0c) */\n      mload\n        /* \"https://github.com/Vectorized/solady/blob/main/src/tokens/ERC20.sol\":15803:15805  96 */\n      0x60\n        /* \"https://github.com/Vectorized/solady/blob/main/src/tokens/ERC20.sol\":15799:15819  shr(96, mload(0x0c)) */\n      shr\n        /* \"https://github.com/Vectorized/solady/blob/main/src/tokens/ERC20.sol\":15791:15796  from_ */\n      dup2\n        /* \"https://github.com/Vectorized/solady/blob/main/src/tokens/ERC20.sol\":15787:15789  96 */\n      0x60\n        /* \"https://github.com/Vectorized/solady/blob/main/src/tokens/ERC20.sol\":15783:15797  shr(96, from_) */\n      shr\n      mload(0x00)\n      codecopy(0x00, data_ada389e1fc24a8587c776340efb91b36e675792ab631816100d55df0b5cf3cbc, 0x20)\n      mload(0x00)\n      swap1\n      0x00\n      mstore\n        /* \"https://github.com/Vectorized/solady/blob/main/src/tokens/ERC20.sol\":15750:15754  0x20 */\n      0x20\n        /* \"https://github.com/Vectorized/solady/blob/main/src/tokens/ERC20.sol\":15744:15748  0x20 */\n      dup1\n        /* \"https://github.com/Vectorized/solady/blob/main/src/tokens/ERC20.sol\":15739:15820  log3(0x20, 0x20, _TRANSFER_EVENT_SIGNATURE, shr(96, from_), shr(96, mload(0x0c))) */\n      log3\n      pop\n      pop\n        /* \"https://github.com/Vectorized/solady/blob/main/src/tokens/ERC20.sol\":15907:15911  true */\n      0x01\n        /* \"https://github.com/Vectorized/solady/blob/main/src/tokens/ERC20.sol\":11165:15918  function transferFrom(address from, address to, uint256 amount) public virtual returns (bool) {... */\n      swap4\n      swap3\n      pop\n      pop\n      pop\n      jump\t// out\n        /* \"https://github.com/Vectorized/solady/blob/main/src/tokens/ERC20.sol\":21458:22195  function DOMAIN_SEPARATOR() public view virtual returns (bytes32 result) {... */\n    tag_103:\n        /* \"https://github.com/Vectorized/solady/blob/main/src/tokens/ERC20.sol\":21515:21529  bytes32 result */\n      0x00\n        /* \"src/PinusVault2.sol\":2475:2483  nameHash */\n      immutable(\"0x44986917507edc118e82cff103288e6e452145dcea4c0554fb5180f3e053ae11\")\n      dup1\n        /* \"https://github.com/Vectorized/solady/blob/main/src/tokens/ERC20.sol\":21683:21746  if (nameHash == bytes32(0)) nameHash = keccak256(bytes(name())) */\n      tag_297\n      jumpi\n        /* \"https://github.com/Vectorized/solady/blob/main/src/tokens/ERC20.sol\":21738:21744  name() */\n      tag_298\n        /* \"https://github.com/Vectorized/solady/blob/main/src/tokens/ERC20.sol\":21738:21742  name */\n      tag_54\n        /* \"https://github.com/Vectorized/solady/blob/main/src/tokens/ERC20.sol\":21738:21744  name() */\n      jump\t// in\n    tag_298:\n        /* \"https://github.com/Vectorized/solady/blob/main/src/tokens/ERC20.sol\":21722:21746  keccak256(bytes(name())) */\n      dup1\n      mload\n      swap1\n      0x20\n      add\n      keccak256\n        /* \"https://github.com/Vectorized/solady/blob/main/src/tokens/ERC20.sol\":21711:21746  nameHash = keccak256(bytes(name())) */\n      swap1\n      pop\n        /* \"https://github.com/Vectorized/solady/blob/main/src/tokens/ERC20.sol\":21683:21746  if (nameHash == bytes32(0)) nameHash = keccak256(bytes(name())) */\n    tag_297:\n        /* \"https://github.com/Vectorized/solady/blob/main/src/tokens/ERC20.sol\":21883:21887  0x40 */\n      0x40\n        /* \"https://github.com/Vectorized/solady/blob/main/src/tokens/ERC20.sol\":21877:21888  mload(0x40) */\n      dup1\n      mload\n        /* \"https://github.com/Vectorized/solady/blob/main/src/tokens/ERC20.sol\":21944:21960  _DOMAIN_TYPEHASH */\n      0x8b73c3c69bb8fe3d512ecc4cf759cc79239f7b179b0ffacaa9a75d522b39400f\n        /* \"https://github.com/Vectorized/solady/blob/main/src/tokens/ERC20.sol\":21934:21961  mstore(m, _DOMAIN_TYPEHASH) */\n      dup2\n      mstore\n        /* \"https://github.com/Vectorized/solady/blob/main/src/tokens/ERC20.sol\":21988:21992  0x20 */\n      0x20\n        /* \"https://github.com/Vectorized/solady/blob/main/src/tokens/ERC20.sol\":21981:21993  add(m, 0x20) */\n      dup2\n      add\n        /* \"https://github.com/Vectorized/solady/blob/main/src/tokens/ERC20.sol\":21974:22004  mstore(add(m, 0x20), nameHash) */\n      swap3\n      swap1\n      swap3\n      mstore\n        /* \"https://github.com/Vectorized/solady/blob/main/src/tokens/ERC20.sol\":5177:5243  0xc89efdaa54c0f20c7adf612882df0950f5a951637e0307cdcb4c672f298b8bc6 */\n      0xc89efdaa54c0f20c7adf612882df0950f5a951637e0307cdcb4c672f298b8bc6\n        /* \"https://github.com/Vectorized/solady/blob/main/src/tokens/ERC20.sol\":22024:22036  add(m, 0x40) */\n      swap1\n      dup3\n      add\n        /* \"https://github.com/Vectorized/solady/blob/main/src/tokens/ERC20.sol\":22017:22050  mstore(add(m, 0x40), versionHash) */\n      mstore\n        /* \"https://github.com/Vectorized/solady/blob/main/src/tokens/ERC20.sol\":22084:22093  chainid() */\n      chainid\n        /* \"https://github.com/Vectorized/solady/blob/main/src/tokens/ERC20.sol\":22077:22081  0x60 */\n      0x60\n        /* \"https://github.com/Vectorized/solady/blob/main/src/tokens/ERC20.sol\":22070:22082  add(m, 0x60) */\n      dup3\n      add\n        /* \"https://github.com/Vectorized/solady/blob/main/src/tokens/ERC20.sol\":22063:22094  mstore(add(m, 0x60), chainid()) */\n      mstore\n        /* \"https://github.com/Vectorized/solady/blob/main/src/tokens/ERC20.sol\":22128:22137  address() */\n      address\n        /* \"https://github.com/Vectorized/solady/blob/main/src/tokens/ERC20.sol\":22121:22125  0x80 */\n      0x80\n        /* \"https://github.com/Vectorized/solady/blob/main/src/tokens/ERC20.sol\":22114:22126  add(m, 0x80) */\n      dup3\n      add\n        /* \"https://github.com/Vectorized/solady/blob/main/src/tokens/ERC20.sol\":22107:22138  mstore(add(m, 0x80), address()) */\n      mstore\n        /* \"https://github.com/Vectorized/solady/blob/main/src/tokens/ERC20.sol\":22174:22178  0xa0 */\n      0xa0\n        /* \"https://github.com/Vectorized/solady/blob/main/src/tokens/ERC20.sol\":22161:22179  keccak256(m, 0xa0) */\n      swap1\n      keccak256\n      swap2\n      swap1\n      pop\n        /* \"https://github.com/Vectorized/solady/blob/main/src/tokens/ERC20.sol\":21458:22195  function DOMAIN_SEPARATOR() public view virtual returns (bytes32 result) {... */\n      jump\t// out\n        /* \"src/ExchangeAbstract.sol\":1259:1570  function erc20ToNativePrice(uint erc20sSold) public override view returns (uint nativesBought) {... */\n    tag_115:\n        /* \"src/ExchangeAbstract.sol\":1334:1352  uint nativesBought */\n      0x00\n        /* \"src/ExchangeAbstract.sol\":1414:1445  erc20SellInhibitor + erc20sSold */\n      tag_302\n        /* \"src/ExchangeAbstract.sol\":1435:1445  erc20sSold */\n      dup3\n      sub(shl(0x80, 0x01), 0x01)\n        /* \"src/ExchangeAbstract.sol\":1414:1432  erc20SellInhibitor */\n      immutable(\"0x3ef4406067f3f2b83779fd8c58e51154fe5e1675c0d17583dd1aac1409fbf9d7\")\n        /* \"src/ExchangeAbstract.sol\":1414:1445  erc20SellInhibitor + erc20sSold */\n      and\n      tag_303\n      jump\t// in\n    tag_302:\n        /* \"src/ExchangeAbstract.sol\":1400:1410  erc20sSold */\n      dup3\n        /* \"src/ExchangeAbstract.sol\":1381:1397  nativesBuyable() */\n      tag_304\n        /* \"src/ExchangeAbstract.sol\":1381:1395  nativesBuyable */\n      tag_193\n        /* \"src/ExchangeAbstract.sol\":1381:1397  nativesBuyable() */\n      jump\t// in\n    tag_304:\n        /* \"src/ExchangeAbstract.sol\":1381:1410  nativesBuyable() * erc20sSold */\n      tag_305\n      swap2\n      swap1\n      tag_306\n      jump\t// in\n    tag_305:\n        /* \"src/ExchangeAbstract.sol\":1381:1446  nativesBuyable() * erc20sSold / (erc20SellInhibitor + erc20sSold) */\n      tag_307\n      swap2\n      swap1\n      tag_308\n      jump\t// in\n    tag_307:\n        /* \"src/ExchangeAbstract.sol\":1365:1446  nativesBought = nativesBuyable() * erc20sSold / (erc20SellInhibitor + erc20sSold) */\n      swap1\n      pop\n        /* \"src/ExchangeAbstract.sol\":1484:1497  nativesBought */\n      dup1\n        /* \"src/ExchangeAbstract.sol\":1460:1481  address(this).balance */\n      selfbalance\n        /* \"src/ExchangeAbstract.sol\":1460:1497  address(this).balance < nativesBought */\n      lt\n        /* \"src/ExchangeAbstract.sol\":1457:1563  if(address(this).balance < nativesBought) {... */\n      iszero\n      tag_255\n      jumpi\n      pop\n        /* \"src/ExchangeAbstract.sol\":1530:1551  address(this).balance */\n      selfbalance\n        /* \"src/ExchangeAbstract.sol\":1259:1570  function erc20ToNativePrice(uint erc20sSold) public override view returns (uint nativesBought) {... */\n      swap2\n      swap1\n      pop\n      jump\t// out\n        /* \"src/SwapAbstract.sol\":2098:2245  function swapERC20ToNative(uint erc20sSold) public returns (uint nativesBought) {... */\n    tag_120:\n        /* \"src/SwapAbstract.sol\":2158:2176  uint nativesBought */\n      0x00\n        /* \"src/SwapAbstract.sol\":2196:2237  swapERC20ToNative(erc20sSold, msg.sender) */\n      tag_239\n        /* \"src/SwapAbstract.sol\":2214:2224  erc20sSold */\n      dup3\n        /* \"src/SwapAbstract.sol\":2226:2236  msg.sender */\n      caller\n        /* \"src/SwapAbstract.sol\":2196:2213  swapERC20ToNative */\n      tag_189\n        /* \"src/SwapAbstract.sol\":2196:2237  swapERC20ToNative(erc20sSold, msg.sender) */\n      jump\t// in\n        /* \"src/SwapAbstract.sol\":2705:2882  function swapERC20ToNative(uint erc20sSold, Permit2Sig calldata sig) external returns (uint nativesBought) {... */\n    tag_126:\n        /* \"src/SwapAbstract.sol\":2792:2810  uint nativesBought */\n      0x00\n        /* \"src/SwapAbstract.sol\":2830:2874  swapERC20ToNative(erc20sSold,msg.sender,sig) */\n      tag_313\n        /* \"src/SwapAbstract.sol\":2848:2858  erc20sSold */\n      dup4\n        /* \"src/SwapAbstract.sol\":2859:2869  msg.sender */\n      caller\n        /* \"src/SwapAbstract.sol\":2870:2873  sig */\n      dup5\n        /* \"src/SwapAbstract.sol\":2830:2847  swapERC20ToNative */\n      tag_169\n        /* \"src/SwapAbstract.sol\":2830:2874  swapERC20ToNative(erc20sSold,msg.sender,sig) */\n      jump\t// in\n    tag_313:\n        /* \"src/SwapAbstract.sol\":2823:2874  return swapERC20ToNative(erc20sSold,msg.sender,sig) */\n      swap4\n        /* \"src/SwapAbstract.sol\":2705:2882  function swapERC20ToNative(uint erc20sSold, Permit2Sig calldata sig) external returns (uint nativesBought) {... */\n      swap3\n      pop\n      pop\n      pop\n      jump\t// out\n        /* \"@openzeppelin/contracts/access/Ownable.sol\":2293:2394  function renounceOwnership() public virtual onlyOwner {... */\n    tag_135:\n        /* \"@openzeppelin/contracts/access/Ownable.sol\":1531:1544  _checkOwner() */\n      tag_316\n        /* \"@openzeppelin/contracts/access/Ownable.sol\":1531:1542  _checkOwner */\n      tag_246\n        /* \"@openzeppelin/contracts/access/Ownable.sol\":1531:1544  _checkOwner() */\n      jump\t// in\n    tag_316:\n        /* \"@openzeppelin/contracts/access/Ownable.sol\":2357:2387  _transferOwnership(address(0)) */\n      tag_318\n        /* \"@openzeppelin/contracts/access/Ownable.sol\":2384:2385  0 */\n      0x00\n        /* \"@openzeppelin/contracts/access/Ownable.sol\":2357:2375  _transferOwnership */\n      tag_319\n        /* \"@openzeppelin/contracts/access/Ownable.sol\":2357:2387  _transferOwnership(address(0)) */\n      jump\t// in\n    tag_318:\n        /* \"@openzeppelin/contracts/access/Ownable.sol\":2293:2394  function renounceOwnership() public virtual onlyOwner {... */\n      jump\t// out\n        /* \"src/PinusVault2.sol\":2945:3133  function nativeToERC20Price(uint nativesSold) public override view returns (uint erc20sBought) {... */\n    tag_139:\n        /* \"src/PinusVault2.sol\":3021:3038  uint erc20sBought */\n      0x00\n        /* \"src/PinusVault2.sol\":3091:3124  nativeSellInhibitor + nativesSold */\n      tag_321\n        /* \"src/PinusVault2.sol\":3113:3124  nativesSold */\n      dup3\n      sub(shl(0x80, 0x01), 0x01)\n        /* \"src/PinusVault2.sol\":3091:3110  nativeSellInhibitor */\n      immutable(\"0xadda5d3d116db89da9e084ab1b2cc501d795d98d1503f1026c7e065d5d1e5ce7\")\n        /* \"src/PinusVault2.sol\":3091:3124  nativeSellInhibitor + nativesSold */\n      and\n      tag_303\n      jump\t// in\n    tag_321:\n        /* \"src/PinusVault2.sol\":3076:3087  nativesSold */\n      dup3\n        /* \"src/PinusVault2.sol\":3058:3073  erc20sBuyable() */\n      tag_322\n        /* \"src/PinusVault2.sol\":3058:3071  erc20sBuyable */\n      tag_230\n        /* \"src/PinusVault2.sol\":3058:3073  erc20sBuyable() */\n      jump\t// in\n    tag_322:\n        /* \"src/PinusVault2.sol\":3058:3087  erc20sBuyable() * nativesSold */\n      tag_323\n      swap2\n      swap1\n      tag_306\n      jump\t// in\n    tag_323:\n        /* \"src/PinusVault2.sol\":3058:3125  erc20sBuyable() * nativesSold / (nativeSellInhibitor + nativesSold) */\n      tag_239\n      swap2\n      swap1\n      tag_308\n      jump\t// in\n        /* \"src/SwapAbstract.sol\":1759:2060  function tokenReceived(address from, uint value, bytes calldata) external returns (bytes4) {... */\n    tag_157:\n        /* \"src/SwapAbstract.sol\":1842:1848  bytes4 */\n      0x00\n        /* \"src/SwapAbstract.sol\":1888:1898  msg.sender */\n      caller\n      sub(shl(0xa0, 0x01), 0x01)\n        /* \"src/SwapAbstract.sol\":1910:1915  asset */\n      immutable(\"0xf0e2cc3949b3f2ba23d7d5db31264ca6ec3d5789369d57b2dafef6557c5a1f\")\n        /* \"src/SwapAbstract.sol\":1888:1916  msg.sender == address(asset) */\n      and\n      eq\n        /* \"src/SwapAbstract.sol\":1880:1917  require(msg.sender == address(asset)) */\n      tag_327\n      jumpi\n      revert(0x00, 0x00)\n    tag_327:\n        /* \"src/SwapAbstract.sol\":1967:2022  _transferNativesBought(from, erc20ToNativePrice(value)) */\n      tag_328\n        /* \"src/SwapAbstract.sol\":1990:1994  from */\n      dup6\n        /* \"src/SwapAbstract.sol\":1996:2021  erc20ToNativePrice(value) */\n      tag_329\n        /* \"src/SwapAbstract.sol\":2015:2020  value */\n      dup7\n        /* \"src/SwapAbstract.sol\":1996:2014  erc20ToNativePrice */\n      tag_115\n        /* \"src/SwapAbstract.sol\":1996:2021  erc20ToNativePrice(value) */\n      jump\t// in\n    tag_329:\n        /* \"src/SwapAbstract.sol\":1967:1989  _transferNativesBought */\n      tag_330\n        /* \"src/SwapAbstract.sol\":1967:2022  _transferNativesBought(from, erc20ToNativePrice(value)) */\n      jump\t// in\n    tag_328:\n      pop\n      shl(0xe1, 0x44a1f601)\n        /* \"src/SwapAbstract.sol\":1759:2060  function tokenReceived(address from, uint value, bytes calldata) external returns (bytes4) {... */\n      swap5\n      swap4\n      pop\n      pop\n      pop\n      pop\n      jump\t// out\n        /* \"src/SwapAbstract.sol\":2420:2693  function swapERC20ToNative(uint erc20sSold, address to, Permit2Sig calldata sig) public returns (uint nativesBought) {... */\n    tag_169:\n        /* \"src/SwapAbstract.sol\":2517:2535  uint nativesBought */\n      0x00\n      sub(shl(0xa0, 0x01), 0x01)\n        /* \"src/SwapAbstract.sol\":2548:2553  asset */\n      immutable(\"0xf0e2cc3949b3f2ba23d7d5db31264ca6ec3d5789369d57b2dafef6557c5a1f\")\n        /* \"src/SwapAbstract.sol\":2548:2560  asset.permit */\n      and\n      0xd505accf\n        /* \"src/SwapAbstract.sol\":2561:2571  msg.sender */\n      caller\n        /* \"src/SwapAbstract.sol\":2581:2585  this */\n      address\n        /* \"src/SwapAbstract.sol\":2588:2598  erc20sSold */\n      dup8\n        /* \"src/SwapAbstract.sol\":2600:2612  sig.deadline */\n      dup7\n      calldataload\n        /* \"src/SwapAbstract.sol\":2614:2619  sig.v */\n      tag_333\n      0x40\n      dup10\n      add\n      0x20\n      dup11\n      add\n      tag_334\n      jump\t// in\n    tag_333:\n        /* \"src/SwapAbstract.sol\":2621:2626  sig.r */\n      0x40\n        /* \"src/SwapAbstract.sol\":2548:2634  asset.permit(msg.sender, address(this), erc20sSold, sig.deadline, sig.v, sig.r, sig.s) */\n      dup1\n      mload\n      not(sub(shl(0xe0, 0x01), 0x01))\n      0xe0\n      dup10\n      swap1\n      shl\n      and\n      dup2\n      mstore\n      sub(shl(0xa0, 0x01), 0x01)\n        /* \"#utility.yul\":10750:10782   */\n      swap7\n      dup8\n      and\n        /* \"src/SwapAbstract.sol\":2548:2634  asset.permit(msg.sender, address(this), erc20sSold, sig.deadline, sig.v, sig.r, sig.s) */\n      0x04\n      dup3\n      add\n        /* \"#utility.yul\":10732:10783   */\n      mstore\n        /* \"#utility.yul\":10819:10851   */\n      swap6\n      swap1\n      swap5\n      and\n        /* \"#utility.yul\":10799:10817   */\n      0x24\n      dup7\n      add\n        /* \"#utility.yul\":10792:10852   */\n      mstore\n        /* \"#utility.yul\":10868:10886   */\n      0x44\n      dup6\n      add\n        /* \"#utility.yul\":10861:10895   */\n      swap3\n      swap1\n      swap3\n      mstore\n        /* \"#utility.yul\":10911:10929   */\n      0x64\n      dup5\n      add\n        /* \"#utility.yul\":10904:10938   */\n      mstore\n        /* \"#utility.yul\":10987:10991   */\n      0xff\n        /* \"#utility.yul\":10975:10992   */\n      and\n        /* \"#utility.yul\":10954:10973   */\n      0x84\n      dup4\n      add\n        /* \"#utility.yul\":10947:10993   */\n      mstore\n        /* \"src/SwapAbstract.sol\":2621:2626  sig.r */\n      dup6\n      add\n      calldataload\n        /* \"#utility.yul\":11009:11028   */\n      0xa4\n      dup3\n      add\n        /* \"#utility.yul\":11002:11037   */\n      mstore\n        /* \"src/SwapAbstract.sol\":2628:2633  sig.s */\n      0x60\n      dup6\n      add\n      calldataload\n        /* \"#utility.yul\":11053:11072   */\n      0xc4\n      dup3\n      add\n        /* \"#utility.yul\":11046:11081   */\n      mstore\n        /* \"#utility.yul\":10704:10723   */\n      0xe4\n      add\n        /* \"src/SwapAbstract.sol\":2548:2634  asset.permit(msg.sender, address(this), erc20sSold, sig.deadline, sig.v, sig.r, sig.s) */\n      0x00\n      mload(0x40)\n      dup1\n      dup4\n      sub\n      dup2\n      0x00\n      dup8\n      dup1\n      extcodesize\n      iszero\n      dup1\n      iszero\n      tag_337\n      jumpi\n      revert(0x00, 0x00)\n    tag_337:\n      pop\n      gas\n      call\n      iszero\n      dup1\n      iszero\n      tag_339\n      jumpi\n      returndatacopy(0x00, 0x00, returndatasize)\n      revert(0x00, returndatasize)\n    tag_339:\n      pop\n      pop\n      pop\n      pop\n        /* \"src/SwapAbstract.sol\":2652:2685  swapERC20ToNative(erc20sSold, to) */\n      tag_340\n        /* \"src/SwapAbstract.sol\":2670:2680  erc20sSold */\n      dup5\n        /* \"src/SwapAbstract.sol\":2682:2684  to */\n      dup5\n        /* \"src/SwapAbstract.sol\":2652:2669  swapERC20ToNative */\n      tag_189\n        /* \"src/SwapAbstract.sol\":2652:2685  swapERC20ToNative(erc20sSold, to) */\n      jump\t// in\n    tag_340:\n        /* \"src/SwapAbstract.sol\":2645:2685  return swapERC20ToNative(erc20sSold, to) */\n      swap5\n        /* \"src/SwapAbstract.sol\":2420:2693  function swapERC20ToNative(uint erc20sSold, address to, Permit2Sig calldata sig) public returns (uint nativesBought) {... */\n      swap4\n      pop\n      pop\n      pop\n      pop\n      jump\t// out\n        /* \"src/PinusVault2.sol\":2628:2749  function symbol() public view override returns (string memory){... */\n    tag_173:\n        /* \"src/PinusVault2.sol\":2715:2740  abi.encodePacked(_symbol) */\n      0x40\n      dup1\n      mload\n        /* \"src/PinusVault2.sol\":2732:2739  _symbol */\n      immutable(\"0x61c015546d5e44346798f1c6880464efac2cf5ed99e68a15f785eaa6fd93e7ec\")\n        /* \"src/PinusVault2.sol\":2715:2740  abi.encodePacked(_symbol) */\n      0x20\n      dup3\n      add\n        /* \"#utility.yul\":8360:8379   */\n      mstore\n        /* \"src/PinusVault2.sol\":2676:2689  string memory */\n      0x60\n      swap2\n        /* \"#utility.yul\":8395:8407   */\n      add\n        /* \"src/PinusVault2.sol\":2715:2740  abi.encodePacked(_symbol) */\n      tag_237\n        /* \"#utility.yul\":8231:8413   */\n      jump\n        /* \"https://github.com/Vectorized/solady/blob/main/src/tokens/ERC20.sol\":9391:10797  function transfer(address to, uint256 amount) public virtual returns (bool) {... */\n    tag_178:\n        /* \"https://github.com/Vectorized/solady/blob/main/src/tokens/ERC20.sol\":9461:9465  bool */\n      0x00\n        /* \"https://github.com/Vectorized/solady/blob/main/src/tokens/ERC20.sol\":9670:9688  _BALANCE_SLOT_SEED */\n      0x87a211a2\n        /* \"https://github.com/Vectorized/solady/blob/main/src/tokens/ERC20.sol\":9664:9668  0x0c */\n      0x0c\n        /* \"https://github.com/Vectorized/solady/blob/main/src/tokens/ERC20.sol\":9657:9689  mstore(0x0c, _BALANCE_SLOT_SEED) */\n      mstore\n        /* \"https://github.com/Vectorized/solady/blob/main/src/tokens/ERC20.sol\":9715:9723  caller() */\n      caller\n        /* \"https://github.com/Vectorized/solady/blob/main/src/tokens/ERC20.sol\":9709:9713  0x00 */\n      0x00\n        /* \"https://github.com/Vectorized/solady/blob/main/src/tokens/ERC20.sol\":9702:9724  mstore(0x00, caller()) */\n      mstore\n        /* \"https://github.com/Vectorized/solady/blob/main/src/tokens/ERC20.sol\":9776:9780  0x20 */\n      0x20\n        /* \"https://github.com/Vectorized/solady/blob/main/src/tokens/ERC20.sol\":9770:9774  0x0c */\n      0x0c\n        /* \"https://github.com/Vectorized/solady/blob/main/src/tokens/ERC20.sol\":9760:9781  keccak256(0x0c, 0x20) */\n      keccak256\n        /* \"https://github.com/Vectorized/solady/blob/main/src/tokens/ERC20.sol\":9819:9834  fromBalanceSlot */\n      dup1\n        /* \"https://github.com/Vectorized/solady/blob/main/src/tokens/ERC20.sol\":9813:9835  sload(fromBalanceSlot) */\n      sload\n        /* \"https://github.com/Vectorized/solady/blob/main/src/tokens/ERC20.sol\":9909:9920  fromBalance */\n      dup1\n        /* \"https://github.com/Vectorized/solady/blob/main/src/tokens/ERC20.sol\":9901:9907  amount */\n      dup5\n        /* \"https://github.com/Vectorized/solady/blob/main/src/tokens/ERC20.sol\":9898:9921  gt(amount, fromBalance) */\n      gt\n        /* \"https://github.com/Vectorized/solady/blob/main/src/tokens/ERC20.sol\":9895:10041  if gt(amount, fromBalance) {... */\n      iszero\n      tag_345\n      jumpi\n        /* \"https://github.com/Vectorized/solady/blob/main/src/tokens/ERC20.sol\":9953:9963  0xf4d678b8 */\n      0xf4d678b8\n        /* \"https://github.com/Vectorized/solady/blob/main/src/tokens/ERC20.sol\":9947:9951  0x00 */\n      0x00\n        /* \"https://github.com/Vectorized/solady/blob/main/src/tokens/ERC20.sol\":9940:9964  mstore(0x00, 0xf4d678b8) */\n      mstore\n        /* \"https://github.com/Vectorized/solady/blob/main/src/tokens/ERC20.sol\":10022:10026  0x04 */\n      0x04\n        /* \"https://github.com/Vectorized/solady/blob/main/src/tokens/ERC20.sol\":10016:10020  0x1c */\n      0x1c\n        /* \"https://github.com/Vectorized/solady/blob/main/src/tokens/ERC20.sol\":10009:10027  revert(0x1c, 0x04) */\n      revert\n        /* \"https://github.com/Vectorized/solady/blob/main/src/tokens/ERC20.sol\":9895:10041  if gt(amount, fromBalance) {... */\n    tag_345:\n        /* \"https://github.com/Vectorized/solady/blob/main/src/tokens/ERC20.sol\":10150:10156  amount */\n      dup4\n        /* \"https://github.com/Vectorized/solady/blob/main/src/tokens/ERC20.sol\":10137:10148  fromBalance */\n      dup2\n        /* \"https://github.com/Vectorized/solady/blob/main/src/tokens/ERC20.sol\":10133:10157  sub(fromBalance, amount) */\n      sub\n        /* \"https://github.com/Vectorized/solady/blob/main/src/tokens/ERC20.sol\":10116:10131  fromBalanceSlot */\n      dup3\n        /* \"https://github.com/Vectorized/solady/blob/main/src/tokens/ERC20.sol\":10109:10158  sstore(fromBalanceSlot, sub(fromBalance, amount)) */\n      sstore\n      pop\n      pop\n        /* \"https://github.com/Vectorized/solady/blob/main/src/tokens/ERC20.sol\":10233:10235  to */\n      dup3\n        /* \"https://github.com/Vectorized/solady/blob/main/src/tokens/ERC20.sol\":10227:10231  0x00 */\n      0x00\n        /* \"https://github.com/Vectorized/solady/blob/main/src/tokens/ERC20.sol\":10220:10236  mstore(0x00, to) */\n      mstore\n        /* \"https://github.com/Vectorized/solady/blob/main/src/tokens/ERC20.sol\":10286:10290  0x20 */\n      0x20\n        /* \"https://github.com/Vectorized/solady/blob/main/src/tokens/ERC20.sol\":10280:10284  0x0c */\n      0x0c\n        /* \"https://github.com/Vectorized/solady/blob/main/src/tokens/ERC20.sol\":10270:10291  keccak256(0x0c, 0x20) */\n      keccak256\n        /* \"https://github.com/Vectorized/solady/blob/main/src/tokens/ERC20.sol\":10536:10542  amount */\n      dup3\n        /* \"https://github.com/Vectorized/solady/blob/main/src/tokens/ERC20.sol\":10520:10533  toBalanceSlot */\n      dup2\n        /* \"https://github.com/Vectorized/solady/blob/main/src/tokens/ERC20.sol\":10514:10534  sload(toBalanceSlot) */\n      sload\n        /* \"https://github.com/Vectorized/solady/blob/main/src/tokens/ERC20.sol\":10510:10543  add(sload(toBalanceSlot), amount) */\n      add\n        /* \"https://github.com/Vectorized/solady/blob/main/src/tokens/ERC20.sol\":10495:10508  toBalanceSlot */\n      dup2\n        /* \"https://github.com/Vectorized/solady/blob/main/src/tokens/ERC20.sol\":10488:10544  sstore(toBalanceSlot, add(sload(toBalanceSlot), amount)) */\n      sstore\n      pop\n        /* \"https://github.com/Vectorized/solady/blob/main/src/tokens/ERC20.sol\":10612:10618  amount */\n      dup2\n        /* \"https://github.com/Vectorized/solady/blob/main/src/tokens/ERC20.sol\":10606:10610  0x20 */\n      0x20\n        /* \"https://github.com/Vectorized/solady/blob/main/src/tokens/ERC20.sol\":10599:10619  mstore(0x20, amount) */\n      mstore\n        /* \"https://github.com/Vectorized/solady/blob/main/src/tokens/ERC20.sol\":10700:10704  0x0c */\n      0x0c\n        /* \"https://github.com/Vectorized/solady/blob/main/src/tokens/ERC20.sol\":10694:10705  mload(0x0c) */\n      mload\n        /* \"https://github.com/Vectorized/solady/blob/main/src/tokens/ERC20.sol\":10690:10692  96 */\n      0x60\n        /* \"https://github.com/Vectorized/solady/blob/main/src/tokens/ERC20.sol\":10686:10706  shr(96, mload(0x0c)) */\n      shr\n        /* \"https://github.com/Vectorized/solady/blob/main/src/tokens/ERC20.sol\":10676:10684  caller() */\n      caller\n      mload(0x00)\n      codecopy(0x00, data_ada389e1fc24a8587c776340efb91b36e675792ab631816100d55df0b5cf3cbc, 0x20)\n      mload(0x00)\n      swap1\n      0x00\n      mstore\n        /* \"https://github.com/Vectorized/solady/blob/main/src/tokens/ERC20.sol\":10643:10647  0x20 */\n      0x20\n        /* \"https://github.com/Vectorized/solady/blob/main/src/tokens/ERC20.sol\":10637:10641  0x20 */\n      dup1\n        /* \"https://github.com/Vectorized/solady/blob/main/src/tokens/ERC20.sol\":10632:10707  log3(0x20, 0x20, _TRANSFER_EVENT_SIGNATURE, caller(), shr(96, mload(0x0c))) */\n      log3\n      pop\n        /* \"https://github.com/Vectorized/solady/blob/main/src/tokens/ERC20.sol\":10786:10790  true */\n      0x01\n        /* \"https://github.com/Vectorized/solady/blob/main/src/tokens/ERC20.sol\":9391:10797  function transfer(address to, uint256 amount) public virtual returns (bool) {... */\n      swap3\n      swap2\n      pop\n      pop\n      jump\t// out\n        /* \"src/SwapAbstract.sol\":3974:4365  function swapERC223ToNative(SwapAbstract sa, uint erc20sSold, address to) external returns (uint erc20sEarned) {... */\n    tag_183:\n        /* \"src/SwapAbstract.sol\":4150:4208  ERC223(address(asset)).transfer(address(sa),erc20sSold,\"\") */\n      mload(0x40)\n      shl(0xe1, 0x5f22feb1)\n      dup2\n      mstore\n      sub(shl(0xa0, 0x01), 0x01)\n        /* \"#utility.yul\":11349:11381   */\n      dup5\n      dup2\n      and\n        /* \"src/SwapAbstract.sol\":4150:4208  ERC223(address(asset)).transfer(address(sa),erc20sSold,\"\") */\n      0x04\n      dup4\n      add\n        /* \"#utility.yul\":11331:11382   */\n      mstore\n        /* \"#utility.yul\":11398:11416   */\n      0x24\n      dup3\n      add\n        /* \"#utility.yul\":11391:11425   */\n      dup5\n      swap1\n      mstore\n        /* \"#utility.yul\":11461:11463   */\n      0x60\n        /* \"#utility.yul\":11441:11459   */\n      0x44\n      dup4\n      add\n        /* \"#utility.yul\":11434:11464   */\n      mstore\n        /* \"src/SwapAbstract.sol\":4066:4083  uint erc20sEarned */\n      0x00\n        /* \"#utility.yul\":11480:11498   */\n      0x64\n      dup4\n      add\n        /* \"#utility.yul\":11473:11502   */\n      dup2\n      swap1\n      mstore\n        /* \"src/SwapAbstract.sol\":4066:4083  uint erc20sEarned */\n      swap2\n        /* \"src/SwapAbstract.sol\":4116:4137  address(this).balance */\n      selfbalance\n      swap2\n        /* \"src/SwapAbstract.sol\":4165:4170  asset */\n      immutable(\"0xf0e2cc3949b3f2ba23d7d5db31264ca6ec3d5789369d57b2dafef6557c5a1f\")\n        /* \"src/SwapAbstract.sol\":4150:4181  ERC223(address(asset)).transfer */\n      and\n      swap1\n      0xbe45fd62\n      swap1\n        /* \"#utility.yul\":11519:11538   */\n      0x84\n      add\n        /* \"src/SwapAbstract.sol\":4150:4208  ERC223(address(asset)).transfer(address(sa),erc20sSold,\"\") */\n      0x20\n      mload(0x40)\n      dup1\n      dup4\n      sub\n      dup2\n      0x00\n      dup8\n      gas\n      call\n      iszero\n      dup1\n      iszero\n      tag_351\n      jumpi\n      returndatacopy(0x00, 0x00, returndatasize)\n      revert(0x00, returndatasize)\n    tag_351:\n      pop\n      pop\n      pop\n      pop\n      mload(0x40)\n      returndatasize\n      not(0x1f)\n      0x1f\n      dup3\n      add\n      and\n      dup3\n      add\n      dup1\n      0x40\n      mstore\n      pop\n      dup2\n      add\n      swap1\n      tag_268\n      swap2\n      swap1\n      tag_264\n      jump\t// in\n        /* \"src/PinusVault2.sol\":3361:3631  function swapERC20ToNative(uint erc20sSold, address recipient) public override returns (uint nativesBought) {... */\n    tag_189:\n        /* \"src/PinusVault2.sol\":3449:3467  uint nativesBought */\n      0x00\n        /* \"src/PinusVault2.sol\":3496:3526  erc20ToNativePrice(erc20sSold) */\n      tag_358\n        /* \"src/PinusVault2.sol\":3515:3525  erc20sSold */\n      dup4\n        /* \"src/PinusVault2.sol\":3496:3514  erc20ToNativePrice */\n      tag_115\n        /* \"src/PinusVault2.sol\":3496:3526  erc20ToNativePrice(erc20sSold) */\n      jump\t// in\n    tag_358:\n        /* \"src/PinusVault2.sol\":3480:3526  nativesBought = erc20ToNativePrice(erc20sSold) */\n      swap1\n      pop\n        /* \"src/PinusVault2.sol\":3537:3565  _burn(msg.sender,erc20sSold) */\n      tag_359\n        /* \"src/PinusVault2.sol\":3543:3553  msg.sender */\n      caller\n        /* \"src/PinusVault2.sol\":3554:3564  erc20sSold */\n      dup5\n        /* \"src/PinusVault2.sol\":3537:3542  _burn */\n      tag_360\n        /* \"src/PinusVault2.sol\":3537:3565  _burn(msg.sender,erc20sSold) */\n      jump\t// in\n    tag_359:\n        /* \"src/PinusVault2.sol\":3576:3623  _transferNativesBought(recipient,nativesBought) */\n      tag_239\n        /* \"src/PinusVault2.sol\":3599:3608  recipient */\n      dup3\n        /* \"src/PinusVault2.sol\":3609:3622  nativesBought */\n      dup3\n        /* \"src/PinusVault2.sol\":3576:3598  _transferNativesBought */\n      tag_330\n        /* \"src/PinusVault2.sol\":3576:3623  _transferNativesBought(recipient,nativesBought) */\n      jump\t// in\n        /* \"src/ExchangeAbstract.sol\":973:1110  function nativesBuyable() public view returns (uint) {... */\n    tag_193:\n        /* \"src/ExchangeAbstract.sol\":1020:1024  uint */\n      0x00\n        /* \"src/ExchangeAbstract.sol\":1085:1102  nativeBuyableRate */\n      immutable(\"0x7751dd710c07ab49cc2c1853892b3f71f3ced69475463e7c975b4ac84ae5fa90\")\n      sub(shl(0x80, 0x01), 0x01)\n        /* \"src/ExchangeAbstract.sol\":1044:1102  (block.timestamp - _nativeBuyableTime) * nativeBuyableRate */\n      and\n        /* \"src/ExchangeAbstract.sol\":1063:1081  _nativeBuyableTime */\n      sload(0x01)\n        /* \"src/ExchangeAbstract.sol\":1045:1060  block.timestamp */\n      timestamp\n        /* \"src/ExchangeAbstract.sol\":1045:1081  block.timestamp - _nativeBuyableTime */\n      tag_363\n      swap2\n      swap1\n      tag_272\n      jump\t// in\n    tag_363:\n        /* \"src/ExchangeAbstract.sol\":1044:1102  (block.timestamp - _nativeBuyableTime) * nativeBuyableRate */\n      tag_277\n      swap2\n      swap1\n      tag_306\n      jump\t// in\n        /* \"src/ERC223.sol\":309:549  function transfer(address _to, uint _value, bytes calldata _data) public returns (bool success)... */\n    tag_198:\n        /* \"src/ERC223.sol\":391:403  bool success */\n      0x00\n        /* \"src/ERC223.sol\":421:442  transfer(_to, _value) */\n      tag_366\n        /* \"src/ERC223.sol\":430:433  _to */\n      dup6\n        /* \"src/ERC223.sol\":435:441  _value */\n      dup6\n        /* \"src/ERC223.sol\":421:429  transfer */\n      tag_178\n        /* \"src/ERC223.sol\":421:442  transfer(_to, _value) */\n      jump\t// in\n    tag_366:\n      pop\n        /* \"src/ERC223.sol\":455:517  IERC223Recipient(_to).tokenReceived(msg.sender, _value, _data) */\n      mload(0x40)\n      shl(0xe1, 0x44a1f601)\n      dup2\n      mstore\n      sub(shl(0xa0, 0x01), 0x01)\n        /* \"src/ERC223.sol\":455:490  IERC223Recipient(_to).tokenReceived */\n      dup7\n      and\n      swap1\n      0x8943ec02\n      swap1\n        /* \"src/ERC223.sol\":455:517  IERC223Recipient(_to).tokenReceived(msg.sender, _value, _data) */\n      tag_367\n      swap1\n        /* \"src/ERC223.sol\":491:501  msg.sender */\n      caller\n      swap1\n        /* \"src/ERC223.sol\":503:509  _value */\n      dup9\n      swap1\n        /* \"src/ERC223.sol\":511:516  _data */\n      dup9\n      swap1\n      dup9\n      swap1\n        /* \"src/ERC223.sol\":455:517  IERC223Recipient(_to).tokenReceived(msg.sender, _value, _data) */\n      0x04\n      add\n      tag_368\n      jump\t// in\n    tag_367:\n      0x20\n      mload(0x40)\n      dup1\n      dup4\n      sub\n      dup2\n      0x00\n      dup8\n      gas\n      call\n      iszero\n      dup1\n      iszero\n      tag_370\n      jumpi\n      returndatacopy(0x00, 0x00, returndatasize)\n      revert(0x00, returndatasize)\n    tag_370:\n      pop\n      pop\n      pop\n      pop\n      mload(0x40)\n      returndatasize\n      not(0x1f)\n      0x1f\n      dup3\n      add\n      and\n      dup3\n      add\n      dup1\n      0x40\n      mstore\n      pop\n      dup2\n      add\n      swap1\n      tag_371\n      swap2\n      swap1\n      tag_372\n      jump\t// in\n    tag_371:\n      pop\n        /* \"src/ERC223.sol\":537:541  true */\n      0x01\n      swap6\n        /* \"src/ERC223.sol\":309:549  function transfer(address _to, uint _value, bytes calldata _data) public returns (bool success)... */\n      swap5\n      pop\n      pop\n      pop\n      pop\n      pop\n      jump\t// out\n        /* \"https://github.com/Vectorized/solady/blob/main/src/tokens/ERC20.sol\":17661:21377  function permit(... */\n    tag_204:\n        /* \"src/PinusVault2.sol\":2475:2483  nameHash */\n      immutable(\"0x44986917507edc118e82cff103288e6e452145dcea4c0554fb5180f3e053ae11\")\n      dup1\n        /* \"https://github.com/Vectorized/solady/blob/main/src/tokens/ERC20.sol\":18456:18519  if (nameHash == bytes32(0)) nameHash = keccak256(bytes(name())) */\n      tag_378\n      jumpi\n        /* \"https://github.com/Vectorized/solady/blob/main/src/tokens/ERC20.sol\":18511:18517  name() */\n      tag_379\n        /* \"https://github.com/Vectorized/solady/blob/main/src/tokens/ERC20.sol\":18511:18515  name */\n      tag_54\n        /* \"https://github.com/Vectorized/solady/blob/main/src/tokens/ERC20.sol\":18511:18517  name() */\n      jump\t// in\n    tag_379:\n        /* \"https://github.com/Vectorized/solady/blob/main/src/tokens/ERC20.sol\":18495:18519  keccak256(bytes(name())) */\n      dup1\n      mload\n      swap1\n      0x20\n      add\n      keccak256\n        /* \"https://github.com/Vectorized/solady/blob/main/src/tokens/ERC20.sol\":18484:18519  nameHash = keccak256(bytes(name())) */\n      swap1\n      pop\n        /* \"https://github.com/Vectorized/solady/blob/main/src/tokens/ERC20.sol\":18456:18519  if (nameHash == bytes32(0)) nameHash = keccak256(bytes(name())) */\n    tag_378:\n        /* \"https://github.com/Vectorized/solady/blob/main/src/tokens/ERC20.sol\":5177:5243  0xc89efdaa54c0f20c7adf612882df0950f5a951637e0307cdcb4c672f298b8bc6 */\n      0xc89efdaa54c0f20c7adf612882df0950f5a951637e0307cdcb4c672f298b8bc6\n        /* \"https://github.com/Vectorized/solady/blob/main/src/tokens/ERC20.sol\":18720:18731  timestamp() */\n      timestamp\n        /* \"https://github.com/Vectorized/solady/blob/main/src/tokens/ERC20.sol\":18717:18742  gt(timestamp(), deadline) */\n      dup7\n      lt\n        /* \"https://github.com/Vectorized/solady/blob/main/src/tokens/ERC20.sol\":18714:18856  if gt(timestamp(), deadline) {... */\n      iszero\n      tag_381\n      jumpi\n        /* \"https://github.com/Vectorized/solady/blob/main/src/tokens/ERC20.sol\":18774:18784  0x1a15a3cc */\n      0x1a15a3cc\n        /* \"https://github.com/Vectorized/solady/blob/main/src/tokens/ERC20.sol\":18768:18772  0x00 */\n      0x00\n        /* \"https://github.com/Vectorized/solady/blob/main/src/tokens/ERC20.sol\":18761:18785  mstore(0x00, 0x1a15a3cc) */\n      mstore\n        /* \"https://github.com/Vectorized/solady/blob/main/src/tokens/ERC20.sol\":18837:18841  0x04 */\n      0x04\n        /* \"https://github.com/Vectorized/solady/blob/main/src/tokens/ERC20.sol\":18831:18835  0x1c */\n      0x1c\n        /* \"https://github.com/Vectorized/solady/blob/main/src/tokens/ERC20.sol\":18824:18842  revert(0x1c, 0x04) */\n      revert\n        /* \"https://github.com/Vectorized/solady/blob/main/src/tokens/ERC20.sol\":18714:18856  if gt(timestamp(), deadline) {... */\n    tag_381:\n        /* \"https://github.com/Vectorized/solady/blob/main/src/tokens/ERC20.sol\":18884:18888  0x40 */\n      0x40\n        /* \"https://github.com/Vectorized/solady/blob/main/src/tokens/ERC20.sol\":18878:18889  mload(0x40) */\n      mload\n        /* \"https://github.com/Vectorized/solady/blob/main/src/tokens/ERC20.sol\":19000:19005  owner */\n      dup10\n        /* \"https://github.com/Vectorized/solady/blob/main/src/tokens/ERC20.sol\":18996:18998  96 */\n      0x60\n        /* \"https://github.com/Vectorized/solady/blob/main/src/tokens/ERC20.sol\":18992:19006  shl(96, owner) */\n      shl\n        /* \"https://github.com/Vectorized/solady/blob/main/src/tokens/ERC20.sol\":18988:18990  96 */\n      0x60\n        /* \"https://github.com/Vectorized/solady/blob/main/src/tokens/ERC20.sol\":18984:19007  shr(96, shl(96, owner)) */\n      shr\n        /* \"https://github.com/Vectorized/solady/blob/main/src/tokens/ERC20.sol\":18975:19007  owner := shr(96, shl(96, owner)) */\n      swap10\n      pop\n        /* \"https://github.com/Vectorized/solady/blob/main/src/tokens/ERC20.sol\":19047:19054  spender */\n      dup9\n        /* \"https://github.com/Vectorized/solady/blob/main/src/tokens/ERC20.sol\":19043:19045  96 */\n      0x60\n        /* \"https://github.com/Vectorized/solady/blob/main/src/tokens/ERC20.sol\":19039:19055  shl(96, spender) */\n      shl\n        /* \"https://github.com/Vectorized/solady/blob/main/src/tokens/ERC20.sol\":19035:19037  96 */\n      0x60\n        /* \"https://github.com/Vectorized/solady/blob/main/src/tokens/ERC20.sol\":19031:19056  shr(96, shl(96, spender)) */\n      shr\n        /* \"https://github.com/Vectorized/solady/blob/main/src/tokens/ERC20.sol\":19020:19056  spender := shr(96, shl(96, spender)) */\n      swap9\n      pop\n        /* \"https://github.com/Vectorized/solady/blob/main/src/tokens/ERC20.sol\":19140:19179  _NONCES_SLOT_SEED_WITH_SIGNATURE_PREFIX */\n      0x383775081901\n        /* \"https://github.com/Vectorized/solady/blob/main/src/tokens/ERC20.sol\":19134:19138  0x0e */\n      0x0e\n        /* \"https://github.com/Vectorized/solady/blob/main/src/tokens/ERC20.sol\":19127:19180  mstore(0x0e, _NONCES_SLOT_SEED_WITH_SIGNATURE_PREFIX) */\n      mstore\n        /* \"https://github.com/Vectorized/solady/blob/main/src/tokens/ERC20.sol\":19206:19211  owner */\n      dup10\n        /* \"https://github.com/Vectorized/solady/blob/main/src/tokens/ERC20.sol\":19200:19204  0x00 */\n      0x00\n        /* \"https://github.com/Vectorized/solady/blob/main/src/tokens/ERC20.sol\":19193:19212  mstore(0x00, owner) */\n      mstore\n        /* \"https://github.com/Vectorized/solady/blob/main/src/tokens/ERC20.sol\":19258:19262  0x20 */\n      0x20\n        /* \"https://github.com/Vectorized/solady/blob/main/src/tokens/ERC20.sol\":19252:19256  0x0c */\n      0x0c\n        /* \"https://github.com/Vectorized/solady/blob/main/src/tokens/ERC20.sol\":19242:19263  keccak256(0x0c, 0x20) */\n      keccak256\n        /* \"https://github.com/Vectorized/solady/blob/main/src/tokens/ERC20.sol\":19300:19309  nonceSlot */\n      dup1\n        /* \"https://github.com/Vectorized/solady/blob/main/src/tokens/ERC20.sol\":19294:19310  sload(nonceSlot) */\n      sload\n        /* \"https://github.com/Vectorized/solady/blob/main/src/tokens/ERC20.sol\":19378:19394  _DOMAIN_TYPEHASH */\n      0x8b73c3c69bb8fe3d512ecc4cf759cc79239f7b179b0ffacaa9a75d522b39400f\n        /* \"https://github.com/Vectorized/solady/blob/main/src/tokens/ERC20.sol\":19375:19376  m */\n      dup4\n        /* \"https://github.com/Vectorized/solady/blob/main/src/tokens/ERC20.sol\":19368:19395  mstore(m, _DOMAIN_TYPEHASH) */\n      mstore\n        /* \"https://github.com/Vectorized/solady/blob/main/src/tokens/ERC20.sol\":19429:19437  nameHash */\n      dup5\n        /* \"https://github.com/Vectorized/solady/blob/main/src/tokens/ERC20.sol\":19422:19426  0x20 */\n      0x20\n        /* \"https://github.com/Vectorized/solady/blob/main/src/tokens/ERC20.sol\":19419:19420  m */\n      dup5\n        /* \"https://github.com/Vectorized/solady/blob/main/src/tokens/ERC20.sol\":19415:19427  add(m, 0x20) */\n      add\n        /* \"https://github.com/Vectorized/solady/blob/main/src/tokens/ERC20.sol\":19408:19438  mstore(add(m, 0x20), nameHash) */\n      mstore\n        /* \"https://github.com/Vectorized/solady/blob/main/src/tokens/ERC20.sol\":19472:19483  versionHash */\n      dup4\n        /* \"https://github.com/Vectorized/solady/blob/main/src/tokens/ERC20.sol\":19465:19469  0x40 */\n      0x40\n        /* \"https://github.com/Vectorized/solady/blob/main/src/tokens/ERC20.sol\":19462:19463  m */\n      dup5\n        /* \"https://github.com/Vectorized/solady/blob/main/src/tokens/ERC20.sol\":19458:19470  add(m, 0x40) */\n      add\n        /* \"https://github.com/Vectorized/solady/blob/main/src/tokens/ERC20.sol\":19451:19484  mstore(add(m, 0x40), versionHash) */\n      mstore\n        /* \"https://github.com/Vectorized/solady/blob/main/src/tokens/ERC20.sol\":19518:19527  chainid() */\n      chainid\n        /* \"https://github.com/Vectorized/solady/blob/main/src/tokens/ERC20.sol\":19511:19515  0x60 */\n      0x60\n        /* \"https://github.com/Vectorized/solady/blob/main/src/tokens/ERC20.sol\":19508:19509  m */\n      dup5\n        /* \"https://github.com/Vectorized/solady/blob/main/src/tokens/ERC20.sol\":19504:19516  add(m, 0x60) */\n      add\n        /* \"https://github.com/Vectorized/solady/blob/main/src/tokens/ERC20.sol\":19497:19528  mstore(add(m, 0x60), chainid()) */\n      mstore\n        /* \"https://github.com/Vectorized/solady/blob/main/src/tokens/ERC20.sol\":19562:19571  address() */\n      address\n        /* \"https://github.com/Vectorized/solady/blob/main/src/tokens/ERC20.sol\":19555:19559  0x80 */\n      0x80\n        /* \"https://github.com/Vectorized/solady/blob/main/src/tokens/ERC20.sol\":19552:19553  m */\n      dup5\n        /* \"https://github.com/Vectorized/solady/blob/main/src/tokens/ERC20.sol\":19548:19560  add(m, 0x80) */\n      add\n        /* \"https://github.com/Vectorized/solady/blob/main/src/tokens/ERC20.sol\":19541:19572  mstore(add(m, 0x80), address()) */\n      mstore\n        /* \"https://github.com/Vectorized/solady/blob/main/src/tokens/ERC20.sol\":19611:19615  0xa0 */\n      0xa0\n        /* \"https://github.com/Vectorized/solady/blob/main/src/tokens/ERC20.sol\":19608:19609  m */\n      dup4\n        /* \"https://github.com/Vectorized/solady/blob/main/src/tokens/ERC20.sol\":19598:19616  keccak256(m, 0xa0) */\n      keccak256\n        /* \"https://github.com/Vectorized/solady/blob/main/src/tokens/ERC20.sol\":19592:19596  0x2e */\n      0x2e\n        /* \"https://github.com/Vectorized/solady/blob/main/src/tokens/ERC20.sol\":19585:19617  mstore(0x2e, keccak256(m, 0xa0)) */\n      mstore\n        /* \"https://github.com/Vectorized/solady/blob/main/src/tokens/ERC20.sol\":19680:19696  _PERMIT_TYPEHASH */\n      0x6e71edae12b1b97f4d1f60370fef10105fa2faae0126114a169c64845d6126c9\n        /* \"https://github.com/Vectorized/solady/blob/main/src/tokens/ERC20.sol\":19677:19678  m */\n      dup4\n        /* \"https://github.com/Vectorized/solady/blob/main/src/tokens/ERC20.sol\":19670:19697  mstore(m, _PERMIT_TYPEHASH) */\n      mstore\n        /* \"https://github.com/Vectorized/solady/blob/main/src/tokens/ERC20.sol\":19731:19736  owner */\n      dup12\n        /* \"https://github.com/Vectorized/solady/blob/main/src/tokens/ERC20.sol\":19724:19728  0x20 */\n      0x20\n        /* \"https://github.com/Vectorized/solady/blob/main/src/tokens/ERC20.sol\":19721:19722  m */\n      dup5\n        /* \"https://github.com/Vectorized/solady/blob/main/src/tokens/ERC20.sol\":19717:19729  add(m, 0x20) */\n      add\n        /* \"https://github.com/Vectorized/solady/blob/main/src/tokens/ERC20.sol\":19710:19737  mstore(add(m, 0x20), owner) */\n      mstore\n        /* \"https://github.com/Vectorized/solady/blob/main/src/tokens/ERC20.sol\":19771:19778  spender */\n      dup11\n        /* \"https://github.com/Vectorized/solady/blob/main/src/tokens/ERC20.sol\":19764:19768  0x40 */\n      0x40\n        /* \"https://github.com/Vectorized/solady/blob/main/src/tokens/ERC20.sol\":19761:19762  m */\n      dup5\n        /* \"https://github.com/Vectorized/solady/blob/main/src/tokens/ERC20.sol\":19757:19769  add(m, 0x40) */\n      add\n        /* \"https://github.com/Vectorized/solady/blob/main/src/tokens/ERC20.sol\":19750:19779  mstore(add(m, 0x40), spender) */\n      mstore\n        /* \"https://github.com/Vectorized/solady/blob/main/src/tokens/ERC20.sol\":19813:19818  value */\n      dup10\n        /* \"https://github.com/Vectorized/solady/blob/main/src/tokens/ERC20.sol\":19806:19810  0x60 */\n      0x60\n        /* \"https://github.com/Vectorized/solady/blob/main/src/tokens/ERC20.sol\":19803:19804  m */\n      dup5\n        /* \"https://github.com/Vectorized/solady/blob/main/src/tokens/ERC20.sol\":19799:19811  add(m, 0x60) */\n      add\n        /* \"https://github.com/Vectorized/solady/blob/main/src/tokens/ERC20.sol\":19792:19819  mstore(add(m, 0x60), value) */\n      mstore\n        /* \"https://github.com/Vectorized/solady/blob/main/src/tokens/ERC20.sol\":19853:19863  nonceValue */\n      dup1\n        /* \"https://github.com/Vectorized/solady/blob/main/src/tokens/ERC20.sol\":19846:19850  0x80 */\n      0x80\n        /* \"https://github.com/Vectorized/solady/blob/main/src/tokens/ERC20.sol\":19843:19844  m */\n      dup5\n        /* \"https://github.com/Vectorized/solady/blob/main/src/tokens/ERC20.sol\":19839:19851  add(m, 0x80) */\n      add\n        /* \"https://github.com/Vectorized/solady/blob/main/src/tokens/ERC20.sol\":19832:19864  mstore(add(m, 0x80), nonceValue) */\n      mstore\n        /* \"https://github.com/Vectorized/solady/blob/main/src/tokens/ERC20.sol\":19898:19906  deadline */\n      dup9\n        /* \"https://github.com/Vectorized/solady/blob/main/src/tokens/ERC20.sol\":19891:19895  0xa0 */\n      0xa0\n        /* \"https://github.com/Vectorized/solady/blob/main/src/tokens/ERC20.sol\":19888:19889  m */\n      dup5\n        /* \"https://github.com/Vectorized/solady/blob/main/src/tokens/ERC20.sol\":19884:19896  add(m, 0xa0) */\n      add\n        /* \"https://github.com/Vectorized/solady/blob/main/src/tokens/ERC20.sol\":19877:19907  mstore(add(m, 0xa0), deadline) */\n      mstore\n        /* \"https://github.com/Vectorized/solady/blob/main/src/tokens/ERC20.sol\":19946:19950  0xc0 */\n      0xc0\n        /* \"https://github.com/Vectorized/solady/blob/main/src/tokens/ERC20.sol\":19943:19944  m */\n      dup4\n        /* \"https://github.com/Vectorized/solady/blob/main/src/tokens/ERC20.sol\":19933:19951  keccak256(m, 0xc0) */\n      keccak256\n        /* \"https://github.com/Vectorized/solady/blob/main/src/tokens/ERC20.sol\":19927:19931  0x4e */\n      0x4e\n        /* \"https://github.com/Vectorized/solady/blob/main/src/tokens/ERC20.sol\":19920:19952  mstore(0x4e, keccak256(m, 0xc0)) */\n      mstore\n        /* \"https://github.com/Vectorized/solady/blob/main/src/tokens/ERC20.sol\":20041:20045  0x42 */\n      0x42\n        /* \"https://github.com/Vectorized/solady/blob/main/src/tokens/ERC20.sol\":20035:20039  0x2c */\n      0x2c\n        /* \"https://github.com/Vectorized/solady/blob/main/src/tokens/ERC20.sol\":20025:20046  keccak256(0x2c, 0x42) */\n      keccak256\n        /* \"https://github.com/Vectorized/solady/blob/main/src/tokens/ERC20.sol\":20019:20023  0x00 */\n      0x00\n        /* \"https://github.com/Vectorized/solady/blob/main/src/tokens/ERC20.sol\":20012:20047  mstore(0x00, keccak256(0x2c, 0x42)) */\n      mstore\n        /* \"https://github.com/Vectorized/solady/blob/main/src/tokens/ERC20.sol\":20083:20084  v */\n      dup8\n        /* \"https://github.com/Vectorized/solady/blob/main/src/tokens/ERC20.sol\":20077:20081  0xff */\n      0xff\n        /* \"https://github.com/Vectorized/solady/blob/main/src/tokens/ERC20.sol\":20073:20085  and(0xff, v) */\n      and\n        /* \"https://github.com/Vectorized/solady/blob/main/src/tokens/ERC20.sol\":20067:20071  0x20 */\n      0x20\n        /* \"https://github.com/Vectorized/solady/blob/main/src/tokens/ERC20.sol\":20060:20086  mstore(0x20, and(0xff, v)) */\n      mstore\n        /* \"https://github.com/Vectorized/solady/blob/main/src/tokens/ERC20.sol\":20112:20113  r */\n      dup7\n        /* \"https://github.com/Vectorized/solady/blob/main/src/tokens/ERC20.sol\":20106:20110  0x40 */\n      0x40\n        /* \"https://github.com/Vectorized/solady/blob/main/src/tokens/ERC20.sol\":20099:20114  mstore(0x40, r) */\n      mstore\n        /* \"https://github.com/Vectorized/solady/blob/main/src/tokens/ERC20.sol\":20140:20141  s */\n      dup6\n        /* \"https://github.com/Vectorized/solady/blob/main/src/tokens/ERC20.sol\":20134:20138  0x60 */\n      0x60\n        /* \"https://github.com/Vectorized/solady/blob/main/src/tokens/ERC20.sol\":20127:20142  mstore(0x60, s) */\n      mstore\n        /* \"https://github.com/Vectorized/solady/blob/main/src/tokens/ERC20.sol\":20203:20207  0x20 */\n      0x20\n        /* \"https://github.com/Vectorized/solady/blob/main/src/tokens/ERC20.sol\":20197:20201  0x20 */\n      dup1\n        /* \"https://github.com/Vectorized/solady/blob/main/src/tokens/ERC20.sol\":20191:20195  0x80 */\n      0x80\n        /* \"https://github.com/Vectorized/solady/blob/main/src/tokens/ERC20.sol\":20185:20189  0x00 */\n      0x00\n        /* \"https://github.com/Vectorized/solady/blob/main/src/tokens/ERC20.sol\":20182:20183  1 */\n      0x01\n        /* \"https://github.com/Vectorized/solady/blob/main/src/tokens/ERC20.sol\":20175:20180  gas() */\n      gas\n        /* \"https://github.com/Vectorized/solady/blob/main/src/tokens/ERC20.sol\":20164:20208  staticcall(gas(), 1, 0x00, 0x80, 0x20, 0x20) */\n      staticcall\n        /* \"https://github.com/Vectorized/solady/blob/main/src/tokens/ERC20.sol\":20624:20629  owner */\n      dup13\n        /* \"https://github.com/Vectorized/solady/blob/main/src/tokens/ERC20.sol\":20605:20621  returndatasize() */\n      returndatasize\n        /* \"https://github.com/Vectorized/solady/blob/main/src/tokens/ERC20.sol\":20599:20622  mload(returndatasize()) */\n      mload\n        /* \"https://github.com/Vectorized/solady/blob/main/src/tokens/ERC20.sol\":20596:20630  eq(mload(returndatasize()), owner) */\n      eq\n        /* \"https://github.com/Vectorized/solady/blob/main/src/tokens/ERC20.sol\":20586:20745  if iszero(eq(mload(returndatasize()), owner)) {... */\n      tag_382\n      jumpi\n        /* \"https://github.com/Vectorized/solady/blob/main/src/tokens/ERC20.sol\":20663:20673  0xddafbaef */\n      0xddafbaef\n        /* \"https://github.com/Vectorized/solady/blob/main/src/tokens/ERC20.sol\":20657:20661  0x00 */\n      0x00\n        /* \"https://github.com/Vectorized/solady/blob/main/src/tokens/ERC20.sol\":20650:20674  mstore(0x00, 0xddafbaef) */\n      mstore\n        /* \"https://github.com/Vectorized/solady/blob/main/src/tokens/ERC20.sol\":20726:20730  0x04 */\n      0x04\n        /* \"https://github.com/Vectorized/solady/blob/main/src/tokens/ERC20.sol\":20720:20724  0x1c */\n      0x1c\n        /* \"https://github.com/Vectorized/solady/blob/main/src/tokens/ERC20.sol\":20713:20731  revert(0x1c, 0x04) */\n      revert\n        /* \"https://github.com/Vectorized/solady/blob/main/src/tokens/ERC20.sol\":20586:20745  if iszero(eq(mload(returndatasize()), owner)) {... */\n    tag_382:\n        /* \"https://github.com/Vectorized/solady/blob/main/src/tokens/ERC20.sol\":20830:20848  add(nonceValue, t) */\n      add\n        /* \"https://github.com/Vectorized/solady/blob/main/src/tokens/ERC20.sol\":20812:20849  sstore(nonceSlot, add(nonceValue, t)) */\n      swap1\n      sstore\n      shl(0xa5, 0x03faf4f9)\n        /* \"https://github.com/Vectorized/solady/blob/main/src/tokens/ERC20.sol\":21025:21068  or(shl(160, _ALLOWANCE_SLOT_SEED), spender) */\n      dup10\n      or\n        /* \"https://github.com/Vectorized/solady/blob/main/src/tokens/ERC20.sol\":21019:21023  0x40 */\n      0x40\n        /* \"https://github.com/Vectorized/solady/blob/main/src/tokens/ERC20.sol\":21012:21069  mstore(0x40, or(shl(160, _ALLOWANCE_SLOT_SEED), spender)) */\n      mstore\n        /* \"https://github.com/Vectorized/solady/blob/main/src/tokens/ERC20.sol\":21105:21109  0x34 */\n      0x34\n        /* \"https://github.com/Vectorized/solady/blob/main/src/tokens/ERC20.sol\":21099:21103  0x2c */\n      0x2c\n        /* \"https://github.com/Vectorized/solady/blob/main/src/tokens/ERC20.sol\":21089:21110  keccak256(0x2c, 0x34) */\n      keccak256\n        /* \"https://github.com/Vectorized/solady/blob/main/src/tokens/ERC20.sol\":21082:21118  sstore(keccak256(0x2c, 0x34), value) */\n      dup9\n      swap1\n      sstore\n        /* \"https://github.com/Vectorized/solady/blob/main/src/tokens/ERC20.sol\":21060:21067  spender */\n      dup9\n        /* \"https://github.com/Vectorized/solady/blob/main/src/tokens/ERC20.sol\":21225:21230  owner */\n      dup11\n        /* \"https://github.com/Vectorized/solady/blob/main/src/tokens/ERC20.sol\":21198:21223  _APPROVAL_EVENT_SIGNATURE */\n      0x8c5be1e5ebec7d5bd14f71427d1e84f3dd0314c0f7b2291e5b200ac8c7c3b925\n      0x20\n        /* \"https://github.com/Vectorized/solady/blob/main/src/tokens/ERC20.sol\":21185:21189  0x60 */\n      0x60\n        /* \"https://github.com/Vectorized/solady/blob/main/src/tokens/ERC20.sol\":21178:21190  add(m, 0x60) */\n      dup6\n      add\n        /* \"https://github.com/Vectorized/solady/blob/main/src/tokens/ERC20.sol\":21173:21240  log3(add(m, 0x60), 0x20, _APPROVAL_EVENT_SIGNATURE, owner, spender) */\n      log3\n        /* \"https://github.com/Vectorized/solady/blob/main/src/tokens/ERC20.sol\":21260:21264  0x40 */\n      0x40\n        /* \"https://github.com/Vectorized/solady/blob/main/src/tokens/ERC20.sol\":21253:21268  mstore(0x40, m) */\n      mstore\n      pop\n      pop\n        /* \"https://github.com/Vectorized/solady/blob/main/src/tokens/ERC20.sol\":21330:21331  0 */\n      0x00\n        /* \"https://github.com/Vectorized/solady/blob/main/src/tokens/ERC20.sol\":21324:21328  0x60 */\n      0x60\n        /* \"https://github.com/Vectorized/solady/blob/main/src/tokens/ERC20.sol\":21317:21332  mstore(0x60, 0) */\n      mstore\n      pop\n      pop\n      pop\n      pop\n      pop\n      pop\n      pop\n        /* \"https://github.com/Vectorized/solady/blob/main/src/tokens/ERC20.sol\":17661:21377  function permit(... */\n      jump\t// out\n        /* \"src/SwapAbstract.sol\":2890:3287  function swapNativeToERC20(SwapAbstract sa, uint nativesSold, address to) external returns (uint nativesEarned) {... */\n    tag_218:\n        /* \"src/SwapAbstract.sol\":3033:3063  asset.balanceOf(address(this)) */\n      mload(0x40)\n      shl(0xe0, 0x70a08231)\n      dup2\n      mstore\n        /* \"src/SwapAbstract.sol\":3057:3061  this */\n      address\n        /* \"src/SwapAbstract.sol\":3033:3063  asset.balanceOf(address(this)) */\n      0x04\n      dup3\n      add\n        /* \"#utility.yul\":4617:4668   */\n      mstore\n        /* \"src/SwapAbstract.sol\":2982:3000  uint nativesEarned */\n      0x00\n      swap1\n      dup2\n      swap1\n      sub(shl(0xa0, 0x01), 0x01)\n        /* \"src/SwapAbstract.sol\":3033:3038  asset */\n      immutable(\"0xf0e2cc3949b3f2ba23d7d5db31264ca6ec3d5789369d57b2dafef6557c5a1f\")\n        /* \"src/SwapAbstract.sol\":3033:3048  asset.balanceOf */\n      and\n      swap1\n      0x70a08231\n      swap1\n        /* \"#utility.yul\":4590:4608   */\n      0x24\n      add\n        /* \"src/SwapAbstract.sol\":3033:3063  asset.balanceOf(address(this)) */\n      0x20\n      mload(0x40)\n      dup1\n      dup4\n      sub\n      dup2\n      dup7\n      gas\n      staticcall\n      iszero\n      dup1\n      iszero\n      tag_390\n      jumpi\n      returndatacopy(0x00, 0x00, returndatasize)\n      revert(0x00, returndatasize)\n    tag_390:\n      pop\n      pop\n      pop\n      pop\n      mload(0x40)\n      returndatasize\n      not(0x1f)\n      0x1f\n      dup3\n      add\n      and\n      dup3\n      add\n      dup1\n      0x40\n      mstore\n      pop\n      dup2\n      add\n      swap1\n      tag_391\n      swap2\n      swap1\n      tag_269\n      jump\t// in\n    tag_391:\n        /* \"src/SwapAbstract.sol\":3013:3063  uint startBalance = asset.balanceOf(address(this)) */\n      swap1\n      pop\n        /* \"src/SwapAbstract.sol\":3076:3078  sa */\n      dup5\n      sub(shl(0xa0, 0x01), 0x01)\n        /* \"src/SwapAbstract.sol\":3076:3096  sa.swapNativeToERC20 */\n      and\n      0x223ecf7e\n        /* \"src/SwapAbstract.sol\":3103:3114  nativesSold */\n      dup6\n        /* \"src/SwapAbstract.sol\":3076:3117  sa.swapNativeToERC20{value:nativesSold}() */\n      mload(0x40)\n      dup3\n      0xffffffff\n      and\n      0xe0\n      shl\n      dup2\n      mstore\n      0x04\n      add\n      0x20\n      mload(0x40)\n      dup1\n      dup4\n      sub\n      dup2\n      dup6\n      dup9\n      gas\n      call\n      iszero\n      dup1\n      iszero\n      tag_393\n      jumpi\n      returndatacopy(0x00, 0x00, returndatasize)\n      revert(0x00, returndatasize)\n    tag_393:\n      pop\n      pop\n      pop\n      pop\n      pop\n      mload(0x40)\n      returndatasize\n      not(0x1f)\n      0x1f\n      dup3\n      add\n      and\n      dup3\n      add\n      dup1\n      0x40\n      mstore\n      pop\n      dup2\n      add\n      swap1\n      tag_394\n      swap2\n      swap1\n      tag_269\n      jump\t// in\n    tag_394:\n      pop\n        /* \"src/SwapAbstract.sol\":3165:3195  asset.balanceOf(address(this)) */\n      mload(0x40)\n      shl(0xe0, 0x70a08231)\n      dup2\n      mstore\n        /* \"src/SwapAbstract.sol\":3189:3193  this */\n      address\n        /* \"src/SwapAbstract.sol\":3165:3195  asset.balanceOf(address(this)) */\n      0x04\n      dup3\n      add\n        /* \"#utility.yul\":4617:4668   */\n      mstore\n        /* \"src/SwapAbstract.sol\":3214:3225  nativesSold */\n      dup5\n      swap1\n        /* \"src/SwapAbstract.sol\":3146:3211  erc20ToNativePrice(asset.balanceOf(address(this)) - startBalance) */\n      tag_395\n      swap1\n        /* \"src/SwapAbstract.sol\":3198:3210  startBalance */\n      dup4\n      swap1\n      sub(shl(0xa0, 0x01), 0x01)\n        /* \"src/SwapAbstract.sol\":3165:3170  asset */\n      immutable(\"0xf0e2cc3949b3f2ba23d7d5db31264ca6ec3d5789369d57b2dafef6557c5a1f\")\n        /* \"src/SwapAbstract.sol\":3165:3180  asset.balanceOf */\n      and\n      swap1\n      0x70a08231\n      swap1\n        /* \"#utility.yul\":4590:4608   */\n      0x24\n      add\n        /* \"src/SwapAbstract.sol\":3165:3195  asset.balanceOf(address(this)) */\n      0x20\n      mload(0x40)\n      dup1\n      dup4\n      sub\n      dup2\n      dup7\n      gas\n      staticcall\n      iszero\n      dup1\n      iszero\n      tag_398\n      jumpi\n      returndatacopy(0x00, 0x00, returndatasize)\n      revert(0x00, returndatasize)\n    tag_398:\n      pop\n      pop\n      pop\n      pop\n      mload(0x40)\n      returndatasize\n      not(0x1f)\n      0x1f\n      dup3\n      add\n      and\n      dup3\n      add\n      dup1\n      0x40\n      mstore\n      pop\n      dup2\n      add\n      swap1\n      tag_399\n      swap2\n      swap1\n      tag_269\n      jump\t// in\n    tag_399:\n        /* \"src/SwapAbstract.sol\":3165:3210  asset.balanceOf(address(this)) - startBalance */\n      tag_113\n      swap2\n      swap1\n      tag_272\n      jump\t// in\n        /* \"src/SwapAbstract.sol\":3146:3211  erc20ToNativePrice(asset.balanceOf(address(this)) - startBalance) */\n    tag_395:\n        /* \"src/SwapAbstract.sol\":3146:3225  erc20ToNativePrice(asset.balanceOf(address(this)) - startBalance) - nativesSold */\n      tag_401\n      swap2\n      swap1\n      tag_272\n      jump\t// in\n    tag_401:\n        /* \"src/SwapAbstract.sol\":3130:3225  nativesEarned = erc20ToNativePrice(asset.balanceOf(address(this)) - startBalance) - nativesSold */\n      swap2\n      pop\n        /* \"src/SwapAbstract.sol\":3238:3279  _transferNativesBought(to, nativesEarned) */\n      tag_274\n        /* \"src/SwapAbstract.sol\":3261:3263  to */\n      dup4\n        /* \"src/SwapAbstract.sol\":3265:3278  nativesEarned */\n      dup4\n        /* \"src/SwapAbstract.sol\":3238:3260  _transferNativesBought */\n      tag_330\n        /* \"src/SwapAbstract.sol\":3238:3279  _transferNativesBought(to, nativesEarned) */\n      jump\t// in\n        /* \"@openzeppelin/contracts/access/Ownable.sol\":2543:2758  function transferOwnership(address newOwner) public virtual onlyOwner {... */\n    tag_227:\n        /* \"@openzeppelin/contracts/access/Ownable.sol\":1531:1544  _checkOwner() */\n      tag_404\n        /* \"@openzeppelin/contracts/access/Ownable.sol\":1531:1542  _checkOwner */\n      tag_246\n        /* \"@openzeppelin/contracts/access/Ownable.sol\":1531:1544  _checkOwner() */\n      jump\t// in\n    tag_404:\n      sub(shl(0xa0, 0x01), 0x01)\n        /* \"@openzeppelin/contracts/access/Ownable.sol\":2627:2649  newOwner == address(0) */\n      dup2\n      and\n        /* \"@openzeppelin/contracts/access/Ownable.sol\":2623:2714  if (newOwner == address(0)) {... */\n      tag_406\n      jumpi\n        /* \"@openzeppelin/contracts/access/Ownable.sol\":2672:2703  OwnableInvalidOwner(address(0)) */\n      mload(0x40)\n      shl(0xe0, 0x1e4fbdf7)\n      dup2\n      mstore\n        /* \"@openzeppelin/contracts/access/Ownable.sol\":2700:2701  0 */\n      0x00\n        /* \"@openzeppelin/contracts/access/Ownable.sol\":2672:2703  OwnableInvalidOwner(address(0)) */\n      0x04\n      dup3\n      add\n        /* \"#utility.yul\":4617:4668   */\n      mstore\n        /* \"#utility.yul\":4590:4608   */\n      0x24\n      add\n        /* \"@openzeppelin/contracts/access/Ownable.sol\":2672:2703  OwnableInvalidOwner(address(0)) */\n    tag_407:\n      mload(0x40)\n      dup1\n      swap2\n      sub\n      swap1\n      revert\n        /* \"@openzeppelin/contracts/access/Ownable.sol\":2623:2714  if (newOwner == address(0)) {... */\n    tag_406:\n        /* \"@openzeppelin/contracts/access/Ownable.sol\":2723:2751  _transferOwnership(newOwner) */\n      tag_408\n        /* \"@openzeppelin/contracts/access/Ownable.sol\":2742:2750  newOwner */\n      dup2\n        /* \"@openzeppelin/contracts/access/Ownable.sol\":2723:2741  _transferOwnership */\n      tag_319\n        /* \"@openzeppelin/contracts/access/Ownable.sol\":2723:2751  _transferOwnership(newOwner) */\n      jump\t// in\n    tag_408:\n        /* \"@openzeppelin/contracts/access/Ownable.sol\":2543:2758  function transferOwnership(address newOwner) public virtual onlyOwner {... */\n      pop\n      jump\t// out\n        /* \"src/ExchangeAbstract.sol\":1118:1251  function erc20sBuyable() public view returns (uint) {... */\n    tag_230:\n        /* \"src/ExchangeAbstract.sol\":1164:1168  uint */\n      0x00\n        /* \"src/ExchangeAbstract.sol\":1227:1243  erc20BuyableRate */\n      immutable(\"0x808f739b0ff6f50ded0ff766b33bc9aee9c87ee99f1e55588f2719e55787021e\")\n      sub(shl(0x80, 0x01), 0x01)\n        /* \"src/ExchangeAbstract.sol\":1188:1243  (block.timestamp - erc20BuyableTime) * erc20BuyableRate */\n      and\n        /* \"src/ExchangeAbstract.sol\":1207:1223  erc20BuyableTime */\n      sload(0x00)\n        /* \"src/ExchangeAbstract.sol\":1189:1204  block.timestamp */\n      timestamp\n        /* \"src/ExchangeAbstract.sol\":1189:1223  block.timestamp - erc20BuyableTime */\n      tag_363\n      swap2\n      swap1\n      tag_272\n      jump\t// in\n        /* \"@openzeppelin/contracts/access/Ownable.sol\":1796:1958  function _checkOwner() internal view virtual {... */\n    tag_246:\n        /* \"@openzeppelin/contracts/access/Ownable.sol\":1710:1716  _owner */\n      and(sub(shl(0xa0, 0x01), 0x01), sload(0x02))\n        /* \"@openzeppelin/contracts/utils/Context.sol\":735:745  msg.sender */\n      caller\n        /* \"@openzeppelin/contracts/access/Ownable.sol\":1855:1878  owner() != _msgSender() */\n      eq\n        /* \"@openzeppelin/contracts/access/Ownable.sol\":1851:1952  if (owner() != _msgSender()) {... */\n      tag_318\n      jumpi\n        /* \"@openzeppelin/contracts/access/Ownable.sol\":1901:1941  OwnableUnauthorizedAccount(_msgSender()) */\n      mload(0x40)\n      shl(0xe0, 0x118cdaa7)\n      dup2\n      mstore\n        /* \"@openzeppelin/contracts/utils/Context.sol\":735:745  msg.sender */\n      caller\n        /* \"@openzeppelin/contracts/access/Ownable.sol\":1901:1941  OwnableUnauthorizedAccount(_msgSender()) */\n      0x04\n      dup3\n      add\n        /* \"#utility.yul\":4617:4668   */\n      mstore\n        /* \"#utility.yul\":4590:4608   */\n      0x24\n      add\n        /* \"@openzeppelin/contracts/access/Ownable.sol\":1901:1941  OwnableUnauthorizedAccount(_msgSender()) */\n      tag_407\n        /* \"#utility.yul\":4458:4674   */\n      jump\n        /* \"src/PinusVault2.sol\":3141:3353  function _transferERC20sBought(address to, uint amount) internal override {... */\n    tag_256:\n        /* \"src/PinusVault2.sol\":3266:3291  amount / erc20BuyableRate */\n      tag_421\n      sub(shl(0x80, 0x01), 0x01)\n        /* \"src/PinusVault2.sol\":3275:3291  erc20BuyableRate */\n      immutable(\"0x808f739b0ff6f50ded0ff766b33bc9aee9c87ee99f1e55588f2719e55787021e\")\n        /* \"src/PinusVault2.sol\":3266:3291  amount / erc20BuyableRate */\n      and\n        /* \"src/PinusVault2.sol\":3266:3272  amount */\n      dup3\n        /* \"src/PinusVault2.sol\":3266:3291  amount / erc20BuyableRate */\n      tag_308\n      jump\t// in\n    tag_421:\n        /* \"src/PinusVault2.sol\":3246:3262  erc20BuyableTime */\n      0x00\n      0x00\n        /* \"src/PinusVault2.sol\":3246:3291  erc20BuyableTime += amount / erc20BuyableRate */\n      dup3\n      dup3\n      sload\n      tag_422\n      swap2\n      swap1\n      tag_303\n      jump\t// in\n    tag_422:\n      swap1\n      swap2\n      sstore\n      pop\n        /* \"src/PinusVault2.sol\":3329:3345  _mint(to,amount) */\n      tag_423\n      swap1\n      pop\n        /* \"src/PinusVault2.sol\":3335:3337  to */\n      dup3\n        /* \"src/PinusVault2.sol\":3338:3344  amount */\n      dup3\n        /* \"src/PinusVault2.sol\":3329:3334  _mint */\n      tag_424\n        /* \"src/PinusVault2.sol\":3329:3345  _mint(to,amount) */\n      jump\t// in\n    tag_423:\n        /* \"src/PinusVault2.sol\":3141:3353  function _transferERC20sBought(address to, uint amount) internal override {... */\n      pop\n      pop\n      jump\t// out\n        /* \"https://github.com/Vectorized/solady/blob/main/src/tokens/ERC20.sol\":30066:30157  function _beforeTokenTransfer(address from, address to, uint256 amount) internal virtual {} */\n    tag_280:\n      pop\n      pop\n      pop\n      jump\t// out\n        /* \"@openzeppelin/contracts/access/Ownable.sol\":2912:3099  function _transferOwnership(address newOwner) internal virtual {... */\n    tag_319:\n        /* \"@openzeppelin/contracts/access/Ownable.sol\":3004:3010  _owner */\n      0x02\n      dup1\n      sload\n      sub(shl(0xa0, 0x01), 0x01)\n        /* \"@openzeppelin/contracts/access/Ownable.sol\":3020:3037  _owner = newOwner */\n      dup4\n      dup2\n      and\n      not(sub(shl(0xa0, 0x01), 0x01))\n      dup4\n      and\n      dup2\n      or\n      swap1\n      swap4\n      sstore\n        /* \"@openzeppelin/contracts/access/Ownable.sol\":3052:3092  OwnershipTransferred(oldOwner, newOwner) */\n      mload(0x40)\n        /* \"@openzeppelin/contracts/access/Ownable.sol\":3004:3010  _owner */\n      swap2\n      and\n      swap2\n        /* \"@openzeppelin/contracts/access/Ownable.sol\":3020:3037  _owner = newOwner */\n      swap1\n        /* \"@openzeppelin/contracts/access/Ownable.sol\":3004:3010  _owner */\n      dup3\n      swap1\n        /* \"@openzeppelin/contracts/access/Ownable.sol\":3052:3092  OwnershipTransferred(oldOwner, newOwner) */\n      0x8be0079c531659141344cd1fd0a4f28419497f9722a3daafe3b4186f6b6457e0\n      swap1\n        /* \"@openzeppelin/contracts/access/Ownable.sol\":2985:3001  address oldOwner */\n      0x00\n      swap1\n        /* \"@openzeppelin/contracts/access/Ownable.sol\":3052:3092  OwnershipTransferred(oldOwner, newOwner) */\n      log3\n        /* \"@openzeppelin/contracts/access/Ownable.sol\":2975:3099  {... */\n      pop\n        /* \"@openzeppelin/contracts/access/Ownable.sol\":2912:3099  function _transferOwnership(address newOwner) internal virtual {... */\n      pop\n      jump\t// out\n        /* \"src/ExchangeAbstract.sol\":1578:1856  function _transferNativesBought(address to, uint amount) internal override {... */\n    tag_330:\n        /* \"src/ExchangeAbstract.sol\":1706:1732  amount / nativeBuyableRate */\n      tag_431\n      sub(shl(0x80, 0x01), 0x01)\n        /* \"src/ExchangeAbstract.sol\":1715:1732  nativeBuyableRate */\n      immutable(\"0x7751dd710c07ab49cc2c1853892b3f71f3ced69475463e7c975b4ac84ae5fa90\")\n        /* \"src/ExchangeAbstract.sol\":1706:1732  amount / nativeBuyableRate */\n      and\n        /* \"src/ExchangeAbstract.sol\":1706:1712  amount */\n      dup3\n        /* \"src/ExchangeAbstract.sol\":1706:1732  amount / nativeBuyableRate */\n      tag_308\n      jump\t// in\n    tag_431:\n        /* \"src/ExchangeAbstract.sol\":1684:1702  _nativeBuyableTime */\n      0x01\n      0x00\n        /* \"src/ExchangeAbstract.sol\":1684:1732  _nativeBuyableTime += amount / nativeBuyableRate */\n      dup3\n      dup3\n      sload\n      tag_432\n      swap2\n      swap1\n      tag_303\n      jump\t// in\n    tag_432:\n      swap1\n      swap2\n      sstore\n      pop\n      pop\n        /* \"src/ExchangeAbstract.sol\":1796:1821  to.call{value:amount}(\"\") */\n      mload(0x40)\n        /* \"src/ExchangeAbstract.sol\":1779:1791  bool success */\n      0x00\n      swap1\n      sub(shl(0xa0, 0x01), 0x01)\n        /* \"src/ExchangeAbstract.sol\":1796:1803  to.call */\n      dup5\n      and\n      swap1\n        /* \"src/ExchangeAbstract.sol\":1810:1816  amount */\n      dup4\n      swap1\n        /* \"src/ExchangeAbstract.sol\":1779:1791  bool success */\n      dup4\n        /* \"src/ExchangeAbstract.sol\":1796:1821  to.call{value:amount}(\"\") */\n      dup2\n        /* \"src/ExchangeAbstract.sol\":1779:1791  bool success */\n      dup2\n        /* \"src/ExchangeAbstract.sol\":1796:1821  to.call{value:amount}(\"\") */\n      dup2\n        /* \"src/ExchangeAbstract.sol\":1810:1816  amount */\n      dup6\n        /* \"src/ExchangeAbstract.sol\":1796:1803  to.call */\n      dup8\n        /* \"src/ExchangeAbstract.sol\":1796:1821  to.call{value:amount}(\"\") */\n      gas\n      call\n      swap3\n      pop\n      pop\n      pop\n      returndatasize\n      dup1\n      0x00\n      dup2\n      eq\n      tag_437\n      jumpi\n      mload(0x40)\n      swap2\n      pop\n      and(add(returndatasize, 0x3f), not(0x1f))\n      dup3\n      add\n      0x40\n      mstore\n      returndatasize\n      dup3\n      mstore\n      returndatasize\n      0x00\n      0x20\n      dup5\n      add\n      returndatacopy\n      jump(tag_436)\n    tag_437:\n      0x60\n      swap2\n      pop\n    tag_436:\n      pop\n        /* \"src/ExchangeAbstract.sol\":1778:1821  (bool success,) = to.call{value:amount}(\"\") */\n      pop\n      swap1\n      pop\n        /* \"src/ExchangeAbstract.sol\":1840:1847  success */\n      dup1\n        /* \"src/ExchangeAbstract.sol\":1832:1848  require(success) */\n      tag_280\n      jumpi\n      revert(0x00, 0x00)\n        /* \"https://github.com/Vectorized/solady/blob/main/src/tokens/ERC20.sol\":24177:25296  function _burn(address from, uint256 amount) internal virtual {... */\n    tag_360:\n        /* \"https://github.com/Vectorized/solady/blob/main/src/tokens/ERC20.sol\":24444:24462  _BALANCE_SLOT_SEED */\n      0x87a211a2\n        /* \"https://github.com/Vectorized/solady/blob/main/src/tokens/ERC20.sol\":24438:24442  0x0c */\n      0x0c\n        /* \"https://github.com/Vectorized/solady/blob/main/src/tokens/ERC20.sol\":24431:24463  mstore(0x0c, _BALANCE_SLOT_SEED) */\n      mstore\n        /* \"https://github.com/Vectorized/solady/blob/main/src/tokens/ERC20.sol\":24489:24493  from */\n      dup2\n        /* \"https://github.com/Vectorized/solady/blob/main/src/tokens/ERC20.sol\":24483:24487  0x00 */\n      0x00\n        /* \"https://github.com/Vectorized/solady/blob/main/src/tokens/ERC20.sol\":24476:24494  mstore(0x00, from) */\n      mstore\n        /* \"https://github.com/Vectorized/solady/blob/main/src/tokens/ERC20.sol\":24546:24550  0x20 */\n      0x20\n        /* \"https://github.com/Vectorized/solady/blob/main/src/tokens/ERC20.sol\":24540:24544  0x0c */\n      0x0c\n        /* \"https://github.com/Vectorized/solady/blob/main/src/tokens/ERC20.sol\":24530:24551  keccak256(0x0c, 0x20) */\n      keccak256\n        /* \"https://github.com/Vectorized/solady/blob/main/src/tokens/ERC20.sol\":24589:24604  fromBalanceSlot */\n      dup1\n        /* \"https://github.com/Vectorized/solady/blob/main/src/tokens/ERC20.sol\":24583:24605  sload(fromBalanceSlot) */\n      sload\n        /* \"https://github.com/Vectorized/solady/blob/main/src/tokens/ERC20.sol\":24679:24690  fromBalance */\n      dup1\n        /* \"https://github.com/Vectorized/solady/blob/main/src/tokens/ERC20.sol\":24671:24677  amount */\n      dup4\n        /* \"https://github.com/Vectorized/solady/blob/main/src/tokens/ERC20.sol\":24668:24691  gt(amount, fromBalance) */\n      gt\n        /* \"https://github.com/Vectorized/solady/blob/main/src/tokens/ERC20.sol\":24665:24811  if gt(amount, fromBalance) {... */\n      iszero\n      tag_441\n      jumpi\n        /* \"https://github.com/Vectorized/solady/blob/main/src/tokens/ERC20.sol\":24723:24733  0xf4d678b8 */\n      0xf4d678b8\n        /* \"https://github.com/Vectorized/solady/blob/main/src/tokens/ERC20.sol\":24717:24721  0x00 */\n      0x00\n        /* \"https://github.com/Vectorized/solady/blob/main/src/tokens/ERC20.sol\":24710:24734  mstore(0x00, 0xf4d678b8) */\n      mstore\n        /* \"https://github.com/Vectorized/solady/blob/main/src/tokens/ERC20.sol\":24792:24796  0x04 */\n      0x04\n        /* \"https://github.com/Vectorized/solady/blob/main/src/tokens/ERC20.sol\":24786:24790  0x1c */\n      0x1c\n        /* \"https://github.com/Vectorized/solady/blob/main/src/tokens/ERC20.sol\":24779:24797  revert(0x1c, 0x04) */\n      revert\n        /* \"https://github.com/Vectorized/solady/blob/main/src/tokens/ERC20.sol\":24665:24811  if gt(amount, fromBalance) {... */\n    tag_441:\n        /* \"https://github.com/Vectorized/solady/blob/main/src/tokens/ERC20.sol\":24903:24927  sub(fromBalance, amount) */\n      dup3\n      swap1\n      sub\n        /* \"https://github.com/Vectorized/solady/blob/main/src/tokens/ERC20.sol\":24879:24928  sstore(fromBalanceSlot, sub(fromBalance, amount)) */\n      swap1\n      sstore\n        /* \"https://github.com/Vectorized/solady/blob/main/src/tokens/ERC20.sol\":25038:25056  _TOTAL_SUPPLY_SLOT */\n      0x05345cdf77eb68f44c\n        /* \"https://github.com/Vectorized/solady/blob/main/src/tokens/ERC20.sol\":25032:25057  sload(_TOTAL_SUPPLY_SLOT) */\n      dup1\n      sload\n        /* \"https://github.com/Vectorized/solady/blob/main/src/tokens/ERC20.sol\":25028:25066  sub(sload(_TOTAL_SUPPLY_SLOT), amount) */\n      dup3\n      swap1\n      sub\n        /* \"https://github.com/Vectorized/solady/blob/main/src/tokens/ERC20.sol\":25001:25067  sstore(_TOTAL_SUPPLY_SLOT, sub(sload(_TOTAL_SUPPLY_SLOT), amount)) */\n      swap1\n      sstore\n      0x00\n        /* \"https://github.com/Vectorized/solady/blob/main/src/tokens/ERC20.sol\":25122:25142  mstore(0x00, amount) */\n      dup2\n      dup2\n      mstore\n      sub(shl(0xa0, 0x01), 0x01)\n        /* \"https://github.com/Vectorized/solady/blob/main/src/tokens/ERC20.sol\":25199:25221  shr(96, shl(96, from)) */\n      dup4\n      and\n      mload(0x00)\n      codecopy(0x00, data_ada389e1fc24a8587c776340efb91b36e675792ab631816100d55df0b5cf3cbc, 0x20)\n      mload(0x00)\n      swap1\n      0x00\n      mstore\n        /* \"https://github.com/Vectorized/solady/blob/main/src/tokens/ERC20.sol\":25166:25170  0x20 */\n      0x20\n      dup4\n        /* \"https://github.com/Vectorized/solady/blob/main/src/tokens/ERC20.sol\":25155:25225  log3(0x00, 0x20, _TRANSFER_EVENT_SIGNATURE, shr(96, shl(96, from)), 0) */\n      log3\n        /* \"src/PinusVault2.sol\":3141:3353  function _transferERC20sBought(address to, uint amount) internal override {... */\n      pop\n      pop\n      jump\t// out\n        /* \"https://github.com/Vectorized/solady/blob/main/src/tokens/ERC20.sol\":22599:23771  function _mint(address to, uint256 amount) internal virtual {... */\n    tag_424:\n        /* \"https://github.com/Vectorized/solady/blob/main/src/tokens/ERC20.sol\":22820:22838  _TOTAL_SUPPLY_SLOT */\n      0x05345cdf77eb68f44c\n        /* \"https://github.com/Vectorized/solady/blob/main/src/tokens/ERC20.sol\":22814:22839  sload(_TOTAL_SUPPLY_SLOT) */\n      sload\n        /* \"https://github.com/Vectorized/solady/blob/main/src/tokens/ERC20.sol\":22899:22905  amount */\n      dup2\n        /* \"https://github.com/Vectorized/solady/blob/main/src/tokens/ERC20.sol\":22880:22897  totalSupplyBefore */\n      dup2\n        /* \"https://github.com/Vectorized/solady/blob/main/src/tokens/ERC20.sol\":22876:22906  add(totalSupplyBefore, amount) */\n      add\n        /* \"https://github.com/Vectorized/solady/blob/main/src/tokens/ERC20.sol\":22996:23013  totalSupplyBefore */\n      dup2\n        /* \"https://github.com/Vectorized/solady/blob/main/src/tokens/ERC20.sol\":22978:22994  totalSupplyAfter */\n      dup2\n        /* \"https://github.com/Vectorized/solady/blob/main/src/tokens/ERC20.sol\":22975:23014  lt(totalSupplyAfter, totalSupplyBefore) */\n      lt\n        /* \"https://github.com/Vectorized/solady/blob/main/src/tokens/ERC20.sol\":22972:23134  if lt(totalSupplyAfter, totalSupplyBefore) {... */\n      iszero\n      tag_446\n      jumpi\n        /* \"https://github.com/Vectorized/solady/blob/main/src/tokens/ERC20.sol\":23046:23056  0xe5cfe957 */\n      0xe5cfe957\n        /* \"https://github.com/Vectorized/solady/blob/main/src/tokens/ERC20.sol\":23040:23044  0x00 */\n      0x00\n        /* \"https://github.com/Vectorized/solady/blob/main/src/tokens/ERC20.sol\":23033:23057  mstore(0x00, 0xe5cfe957) */\n      mstore\n        /* \"https://github.com/Vectorized/solady/blob/main/src/tokens/ERC20.sol\":23115:23119  0x04 */\n      0x04\n        /* \"https://github.com/Vectorized/solady/blob/main/src/tokens/ERC20.sol\":23109:23113  0x1c */\n      0x1c\n        /* \"https://github.com/Vectorized/solady/blob/main/src/tokens/ERC20.sol\":23102:23120  revert(0x1c, 0x04) */\n      revert\n        /* \"https://github.com/Vectorized/solady/blob/main/src/tokens/ERC20.sol\":22972:23134  if lt(totalSupplyAfter, totalSupplyBefore) {... */\n    tag_446:\n        /* \"https://github.com/Vectorized/solady/blob/main/src/tokens/ERC20.sol\":23221:23237  totalSupplyAfter */\n      dup1\n        /* \"https://github.com/Vectorized/solady/blob/main/src/tokens/ERC20.sol\":23201:23219  _TOTAL_SUPPLY_SLOT */\n      0x05345cdf77eb68f44c\n        /* \"https://github.com/Vectorized/solady/blob/main/src/tokens/ERC20.sol\":23194:23238  sstore(_TOTAL_SUPPLY_SLOT, totalSupplyAfter) */\n      sstore\n      pop\n      pop\n        /* \"https://github.com/Vectorized/solady/blob/main/src/tokens/ERC20.sol\":23324:23342  _BALANCE_SLOT_SEED */\n      0x87a211a2\n        /* \"https://github.com/Vectorized/solady/blob/main/src/tokens/ERC20.sol\":23318:23322  0x0c */\n      0x0c\n        /* \"https://github.com/Vectorized/solady/blob/main/src/tokens/ERC20.sol\":23311:23343  mstore(0x0c, _BALANCE_SLOT_SEED) */\n      mstore\n        /* \"https://github.com/Vectorized/solady/blob/main/src/tokens/ERC20.sol\":23369:23371  to */\n      dup2\n        /* \"https://github.com/Vectorized/solady/blob/main/src/tokens/ERC20.sol\":23363:23367  0x00 */\n      0x00\n        /* \"https://github.com/Vectorized/solady/blob/main/src/tokens/ERC20.sol\":23356:23372  mstore(0x00, to) */\n      mstore\n        /* \"https://github.com/Vectorized/solady/blob/main/src/tokens/ERC20.sol\":23422:23426  0x20 */\n      0x20\n        /* \"https://github.com/Vectorized/solady/blob/main/src/tokens/ERC20.sol\":23416:23420  0x0c */\n      0x0c\n        /* \"https://github.com/Vectorized/solady/blob/main/src/tokens/ERC20.sol\":23406:23427  keccak256(0x0c, 0x20) */\n      keccak256\n        /* \"https://github.com/Vectorized/solady/blob/main/src/tokens/ERC20.sol\":23538:23544  amount */\n      dup2\n        /* \"https://github.com/Vectorized/solady/blob/main/src/tokens/ERC20.sol\":23522:23535  toBalanceSlot */\n      dup2\n        /* \"https://github.com/Vectorized/solady/blob/main/src/tokens/ERC20.sol\":23516:23536  sload(toBalanceSlot) */\n      sload\n        /* \"https://github.com/Vectorized/solady/blob/main/src/tokens/ERC20.sol\":23512:23545  add(sload(toBalanceSlot), amount) */\n      add\n        /* \"https://github.com/Vectorized/solady/blob/main/src/tokens/ERC20.sol\":23497:23510  toBalanceSlot */\n      dup2\n        /* \"https://github.com/Vectorized/solady/blob/main/src/tokens/ERC20.sol\":23490:23546  sstore(toBalanceSlot, add(sload(toBalanceSlot), amount)) */\n      sstore\n      pop\n        /* \"https://github.com/Vectorized/solady/blob/main/src/tokens/ERC20.sol\":23614:23620  amount */\n      dup1\n        /* \"https://github.com/Vectorized/solady/blob/main/src/tokens/ERC20.sol\":23608:23612  0x20 */\n      0x20\n        /* \"https://github.com/Vectorized/solady/blob/main/src/tokens/ERC20.sol\":23601:23621  mstore(0x20, amount) */\n      mstore\n        /* \"https://github.com/Vectorized/solady/blob/main/src/tokens/ERC20.sol\":23695:23699  0x0c */\n      0x0c\n        /* \"https://github.com/Vectorized/solady/blob/main/src/tokens/ERC20.sol\":23689:23700  mload(0x0c) */\n      mload\n        /* \"https://github.com/Vectorized/solady/blob/main/src/tokens/ERC20.sol\":23685:23687  96 */\n      0x60\n        /* \"https://github.com/Vectorized/solady/blob/main/src/tokens/ERC20.sol\":23681:23701  shr(96, mload(0x0c)) */\n      shr\n        /* \"https://github.com/Vectorized/solady/blob/main/src/tokens/ERC20.sol\":23678:23679  0 */\n      0x00\n      mload(0x00)\n      codecopy(0x00, data_ada389e1fc24a8587c776340efb91b36e675792ab631816100d55df0b5cf3cbc, 0x20)\n      mload(0x00)\n      swap1\n      0x00\n      mstore\n        /* \"https://github.com/Vectorized/solady/blob/main/src/tokens/ERC20.sol\":23645:23649  0x20 */\n      0x20\n        /* \"https://github.com/Vectorized/solady/blob/main/src/tokens/ERC20.sol\":23639:23643  0x20 */\n      dup1\n        /* \"https://github.com/Vectorized/solady/blob/main/src/tokens/ERC20.sol\":23634:23702  log3(0x20, 0x20, _TRANSFER_EVENT_SIGNATURE, 0, shr(96, mload(0x0c))) */\n      log3\n        /* \"src/PinusVault2.sol\":3141:3353  function _transferERC20sBought(address to, uint amount) internal override {... */\n      pop\n      pop\n      jump\t// out\n        /* \"#utility.yul\":237:526   */\n    tag_448:\n        /* \"#utility.yul\":279:282   */\n      0x00\n        /* \"#utility.yul\":317:322   */\n      dup2\n        /* \"#utility.yul\":311:323   */\n      mload\n        /* \"#utility.yul\":344:350   */\n      dup1\n        /* \"#utility.yul\":339:342   */\n      dup5\n        /* \"#utility.yul\":332:351   */\n      mstore\n        /* \"#utility.yul\":400:406   */\n      dup1\n        /* \"#utility.yul\":393:397   */\n      0x20\n        /* \"#utility.yul\":386:391   */\n      dup5\n        /* \"#utility.yul\":382:398   */\n      add\n        /* \"#utility.yul\":375:379   */\n      0x20\n        /* \"#utility.yul\":370:373   */\n      dup7\n        /* \"#utility.yul\":366:380   */\n      add\n        /* \"#utility.yul\":360:407   */\n      mcopy\n        /* \"#utility.yul\":452:453   */\n      0x00\n        /* \"#utility.yul\":445:449   */\n      0x20\n        /* \"#utility.yul\":436:442   */\n      dup3\n        /* \"#utility.yul\":431:434   */\n      dup7\n        /* \"#utility.yul\":427:443   */\n      add\n        /* \"#utility.yul\":423:450   */\n      add\n        /* \"#utility.yul\":416:454   */\n      mstore\n        /* \"#utility.yul\":515:519   */\n      0x20\n        /* \"#utility.yul\":508:510   */\n      0x1f\n        /* \"#utility.yul\":504:511   */\n      not\n        /* \"#utility.yul\":499:501   */\n      0x1f\n        /* \"#utility.yul\":491:497   */\n      dup4\n        /* \"#utility.yul\":487:502   */\n      add\n        /* \"#utility.yul\":483:512   */\n      and\n        /* \"#utility.yul\":478:481   */\n      dup6\n        /* \"#utility.yul\":474:513   */\n      add\n        /* \"#utility.yul\":470:520   */\n      add\n        /* \"#utility.yul\":463:520   */\n      swap2\n      pop\n      pop\n        /* \"#utility.yul\":237:526   */\n      swap3\n      swap2\n      pop\n      pop\n      jump\t// out\n        /* \"#utility.yul\":531:751   */\n    tag_56:\n        /* \"#utility.yul\":680:682   */\n      0x20\n        /* \"#utility.yul\":669:678   */\n      dup2\n        /* \"#utility.yul\":662:683   */\n      mstore\n        /* \"#utility.yul\":643:647   */\n      0x00\n        /* \"#utility.yul\":700:745   */\n      tag_313\n        /* \"#utility.yul\":741:743   */\n      0x20\n        /* \"#utility.yul\":730:739   */\n      dup4\n        /* \"#utility.yul\":726:744   */\n      add\n        /* \"#utility.yul\":718:724   */\n      dup5\n        /* \"#utility.yul\":700:745   */\n      tag_448\n      jump\t// in\n        /* \"#utility.yul\":756:887   */\n    tag_449:\n      sub(shl(0xa0, 0x01), 0x01)\n        /* \"#utility.yul\":831:862   */\n      dup2\n      and\n        /* \"#utility.yul\":821:863   */\n      dup2\n      eq\n        /* \"#utility.yul\":811:881   */\n      tag_408\n      jumpi\n        /* \"#utility.yul\":877:878   */\n      0x00\n        /* \"#utility.yul\":874:875   */\n      0x00\n        /* \"#utility.yul\":867:879   */\n      revert\n        /* \"#utility.yul\":892:1259   */\n    tag_60:\n        /* \"#utility.yul\":960:966   */\n      0x00\n        /* \"#utility.yul\":968:974   */\n      0x00\n        /* \"#utility.yul\":1021:1023   */\n      0x40\n        /* \"#utility.yul\":1009:1018   */\n      dup4\n        /* \"#utility.yul\":1000:1007   */\n      dup6\n        /* \"#utility.yul\":996:1019   */\n      sub\n        /* \"#utility.yul\":992:1024   */\n      slt\n        /* \"#utility.yul\":989:1041   */\n      iszero\n      tag_461\n      jumpi\n        /* \"#utility.yul\":1037:1038   */\n      0x00\n        /* \"#utility.yul\":1034:1035   */\n      0x00\n        /* \"#utility.yul\":1027:1039   */\n      revert\n        /* \"#utility.yul\":989:1041   */\n    tag_461:\n        /* \"#utility.yul\":1076:1085   */\n      dup3\n        /* \"#utility.yul\":1063:1086   */\n      calldataload\n        /* \"#utility.yul\":1095:1126   */\n      tag_462\n        /* \"#utility.yul\":1120:1125   */\n      dup2\n        /* \"#utility.yul\":1095:1126   */\n      tag_449\n      jump\t// in\n    tag_462:\n        /* \"#utility.yul\":1145:1150   */\n      swap5\n        /* \"#utility.yul\":1223:1225   */\n      0x20\n        /* \"#utility.yul\":1208:1226   */\n      swap4\n      swap1\n      swap4\n      add\n        /* \"#utility.yul\":1195:1227   */\n      calldataload\n      swap4\n      pop\n      pop\n      pop\n        /* \"#utility.yul\":892:1259   */\n      jump\t// out\n        /* \"#utility.yul\":1456:2297   */\n    tag_67:\n        /* \"#utility.yul\":1544:1550   */\n      0x00\n        /* \"#utility.yul\":1552:1558   */\n      0x00\n        /* \"#utility.yul\":1560:1566   */\n      0x00\n        /* \"#utility.yul\":1568:1574   */\n      0x00\n        /* \"#utility.yul\":1621:1623   */\n      0x60\n        /* \"#utility.yul\":1609:1618   */\n      dup6\n        /* \"#utility.yul\":1600:1607   */\n      dup8\n        /* \"#utility.yul\":1596:1619   */\n      sub\n        /* \"#utility.yul\":1592:1624   */\n      slt\n        /* \"#utility.yul\":1589:1641   */\n      iszero\n      tag_465\n      jumpi\n        /* \"#utility.yul\":1637:1638   */\n      0x00\n        /* \"#utility.yul\":1634:1635   */\n      0x00\n        /* \"#utility.yul\":1627:1639   */\n      revert\n        /* \"#utility.yul\":1589:1641   */\n    tag_465:\n        /* \"#utility.yul\":1676:1685   */\n      dup5\n        /* \"#utility.yul\":1663:1686   */\n      calldataload\n        /* \"#utility.yul\":1695:1726   */\n      tag_466\n        /* \"#utility.yul\":1720:1725   */\n      dup2\n        /* \"#utility.yul\":1695:1726   */\n      tag_449\n      jump\t// in\n    tag_466:\n        /* \"#utility.yul\":1745:1750   */\n      swap4\n      pop\n        /* \"#utility.yul\":1823:1825   */\n      0x20\n        /* \"#utility.yul\":1808:1826   */\n      dup6\n      add\n        /* \"#utility.yul\":1795:1827   */\n      calldataload\n      swap3\n      pop\n        /* \"#utility.yul\":1904:1906   */\n      0x40\n        /* \"#utility.yul\":1889:1907   */\n      dup6\n      add\n        /* \"#utility.yul\":1876:1908   */\n      calldataload\n        /* \"#utility.yul\":1931:1949   */\n      0xffffffffffffffff\n        /* \"#utility.yul\":1920:1950   */\n      dup2\n      gt\n        /* \"#utility.yul\":1917:1967   */\n      iszero\n      tag_467\n      jumpi\n        /* \"#utility.yul\":1963:1964   */\n      0x00\n        /* \"#utility.yul\":1960:1961   */\n      0x00\n        /* \"#utility.yul\":1953:1965   */\n      revert\n        /* \"#utility.yul\":1917:1967   */\n    tag_467:\n        /* \"#utility.yul\":1986:2008   */\n      dup6\n      add\n        /* \"#utility.yul\":2039:2043   */\n      0x1f\n        /* \"#utility.yul\":2031:2044   */\n      dup2\n      add\n        /* \"#utility.yul\":2027:2054   */\n      dup8\n      sgt\n        /* \"#utility.yul\":2017:2072   */\n      tag_468\n      jumpi\n        /* \"#utility.yul\":2068:2069   */\n      0x00\n        /* \"#utility.yul\":2065:2066   */\n      0x00\n        /* \"#utility.yul\":2058:2070   */\n      revert\n        /* \"#utility.yul\":2017:2072   */\n    tag_468:\n        /* \"#utility.yul\":2108:2110   */\n      dup1\n        /* \"#utility.yul\":2095:2111   */\n      calldataload\n        /* \"#utility.yul\":2134:2152   */\n      0xffffffffffffffff\n        /* \"#utility.yul\":2126:2132   */\n      dup2\n        /* \"#utility.yul\":2123:2153   */\n      gt\n        /* \"#utility.yul\":2120:2170   */\n      iszero\n      tag_469\n      jumpi\n        /* \"#utility.yul\":2166:2167   */\n      0x00\n        /* \"#utility.yul\":2163:2164   */\n      0x00\n        /* \"#utility.yul\":2156:2168   */\n      revert\n        /* \"#utility.yul\":2120:2170   */\n    tag_469:\n        /* \"#utility.yul\":2211:2218   */\n      dup8\n        /* \"#utility.yul\":2206:2208   */\n      0x20\n        /* \"#utility.yul\":2197:2203   */\n      dup3\n        /* \"#utility.yul\":2193:2195   */\n      dup5\n        /* \"#utility.yul\":2189:2204   */\n      add\n        /* \"#utility.yul\":2185:2209   */\n      add\n        /* \"#utility.yul\":2182:2219   */\n      gt\n        /* \"#utility.yul\":2179:2236   */\n      iszero\n      tag_470\n      jumpi\n        /* \"#utility.yul\":2232:2233   */\n      0x00\n        /* \"#utility.yul\":2229:2230   */\n      0x00\n        /* \"#utility.yul\":2222:2234   */\n      revert\n        /* \"#utility.yul\":2179:2236   */\n    tag_470:\n        /* \"#utility.yul\":1456:2297   */\n      swap5\n      swap8\n      swap4\n      swap7\n      pop\n        /* \"#utility.yul\":2263:2265   */\n      0x20\n        /* \"#utility.yul\":2255:2266   */\n      add\n      swap5\n      pop\n      pop\n      pop\n        /* \"#utility.yul\":1456:2297   */\n      jump\t// out\n        /* \"#utility.yul\":2302:2601   */\n    tag_70:\n        /* \"#utility.yul\":2485:2491   */\n      dup3\n        /* \"#utility.yul\":2478:2492   */\n      iszero\n        /* \"#utility.yul\":2471:2493   */\n      iszero\n        /* \"#utility.yul\":2460:2469   */\n      dup2\n        /* \"#utility.yul\":2453:2494   */\n      mstore\n        /* \"#utility.yul\":2530:2532   */\n      0x40\n        /* \"#utility.yul\":2525:2527   */\n      0x20\n        /* \"#utility.yul\":2514:2523   */\n      dup3\n        /* \"#utility.yul\":2510:2528   */\n      add\n        /* \"#utility.yul\":2503:2533   */\n      mstore\n        /* \"#utility.yul\":2434:2438   */\n      0x00\n        /* \"#utility.yul\":2550:2595   */\n      tag_340\n        /* \"#utility.yul\":2591:2593   */\n      0x40\n        /* \"#utility.yul\":2580:2589   */\n      dup4\n        /* \"#utility.yul\":2576:2594   */\n      add\n        /* \"#utility.yul\":2568:2574   */\n      dup5\n        /* \"#utility.yul\":2550:2595   */\n      tag_448\n      jump\t// in\n        /* \"#utility.yul\":2606:2853   */\n    tag_73:\n        /* \"#utility.yul\":2665:2671   */\n      0x00\n        /* \"#utility.yul\":2718:2720   */\n      0x20\n        /* \"#utility.yul\":2706:2715   */\n      dup3\n        /* \"#utility.yul\":2697:2704   */\n      dup5\n        /* \"#utility.yul\":2693:2716   */\n      sub\n        /* \"#utility.yul\":2689:2721   */\n      slt\n        /* \"#utility.yul\":2686:2738   */\n      iszero\n      tag_474\n      jumpi\n        /* \"#utility.yul\":2734:2735   */\n      0x00\n        /* \"#utility.yul\":2731:2732   */\n      0x00\n        /* \"#utility.yul\":2724:2736   */\n      revert\n        /* \"#utility.yul\":2686:2738   */\n    tag_474:\n        /* \"#utility.yul\":2773:2782   */\n      dup2\n        /* \"#utility.yul\":2760:2783   */\n      calldataload\n        /* \"#utility.yul\":2792:2823   */\n      tag_313\n        /* \"#utility.yul\":2817:2822   */\n      dup2\n        /* \"#utility.yul\":2792:2823   */\n      tag_449\n      jump\t// in\n        /* \"#utility.yul\":3040:3569   */\n    tag_80:\n        /* \"#utility.yul\":3138:3144   */\n      0x00\n        /* \"#utility.yul\":3146:3152   */\n      0x00\n        /* \"#utility.yul\":3154:3160   */\n      0x00\n        /* \"#utility.yul\":3207:3209   */\n      0x60\n        /* \"#utility.yul\":3195:3204   */\n      dup5\n        /* \"#utility.yul\":3186:3193   */\n      dup7\n        /* \"#utility.yul\":3182:3205   */\n      sub\n        /* \"#utility.yul\":3178:3210   */\n      slt\n        /* \"#utility.yul\":3175:3227   */\n      iszero\n      tag_478\n      jumpi\n        /* \"#utility.yul\":3223:3224   */\n      0x00\n        /* \"#utility.yul\":3220:3221   */\n      0x00\n        /* \"#utility.yul\":3213:3225   */\n      revert\n        /* \"#utility.yul\":3175:3227   */\n    tag_478:\n        /* \"#utility.yul\":3262:3271   */\n      dup4\n        /* \"#utility.yul\":3249:3272   */\n      calldataload\n        /* \"#utility.yul\":3281:3312   */\n      tag_479\n        /* \"#utility.yul\":3306:3311   */\n      dup2\n        /* \"#utility.yul\":3281:3312   */\n      tag_449\n      jump\t// in\n    tag_479:\n        /* \"#utility.yul\":3331:3336   */\n      swap3\n      pop\n        /* \"#utility.yul\":3409:3411   */\n      0x20\n        /* \"#utility.yul\":3394:3412   */\n      dup5\n      add\n        /* \"#utility.yul\":3381:3413   */\n      calldataload\n      swap2\n      pop\n        /* \"#utility.yul\":3491:3493   */\n      0x40\n        /* \"#utility.yul\":3476:3494   */\n      dup5\n      add\n        /* \"#utility.yul\":3463:3495   */\n      calldataload\n        /* \"#utility.yul\":3504:3537   */\n      tag_480\n        /* \"#utility.yul\":3463:3495   */\n      dup2\n        /* \"#utility.yul\":3504:3537   */\n      tag_449\n      jump\t// in\n    tag_480:\n        /* \"#utility.yul\":3556:3563   */\n      dup1\n        /* \"#utility.yul\":3546:3563   */\n      swap2\n      pop\n      pop\n        /* \"#utility.yul\":3040:3569   */\n      swap3\n      pop\n      swap3\n      pop\n      swap3\n      jump\t// out\n        /* \"#utility.yul\":3574:4082   */\n    tag_93:\n        /* \"#utility.yul\":3651:3657   */\n      0x00\n        /* \"#utility.yul\":3659:3665   */\n      0x00\n        /* \"#utility.yul\":3667:3673   */\n      0x00\n        /* \"#utility.yul\":3720:3722   */\n      0x60\n        /* \"#utility.yul\":3708:3717   */\n      dup5\n        /* \"#utility.yul\":3699:3706   */\n      dup7\n        /* \"#utility.yul\":3695:3718   */\n      sub\n        /* \"#utility.yul\":3691:3723   */\n      slt\n        /* \"#utility.yul\":3688:3740   */\n      iszero\n      tag_482\n      jumpi\n        /* \"#utility.yul\":3736:3737   */\n      0x00\n        /* \"#utility.yul\":3733:3734   */\n      0x00\n        /* \"#utility.yul\":3726:3738   */\n      revert\n        /* \"#utility.yul\":3688:3740   */\n    tag_482:\n        /* \"#utility.yul\":3775:3784   */\n      dup4\n        /* \"#utility.yul\":3762:3785   */\n      calldataload\n        /* \"#utility.yul\":3794:3825   */\n      tag_483\n        /* \"#utility.yul\":3819:3824   */\n      dup2\n        /* \"#utility.yul\":3794:3825   */\n      tag_449\n      jump\t// in\n    tag_483:\n        /* \"#utility.yul\":3844:3849   */\n      swap3\n      pop\n        /* \"#utility.yul\":3901:3903   */\n      0x20\n        /* \"#utility.yul\":3886:3904   */\n      dup5\n      add\n        /* \"#utility.yul\":3873:3905   */\n      calldataload\n        /* \"#utility.yul\":3914:3947   */\n      tag_484\n        /* \"#utility.yul\":3873:3905   */\n      dup2\n        /* \"#utility.yul\":3914:3947   */\n      tag_449\n      jump\t// in\n    tag_484:\n        /* \"#utility.yul\":3574:4082   */\n      swap3\n      swap6\n        /* \"#utility.yul\":3966:3973   */\n      swap3\n      swap5\n      pop\n      pop\n      pop\n        /* \"#utility.yul\":4046:4048   */\n      0x40\n        /* \"#utility.yul\":4031:4049   */\n      swap2\n      swap1\n      swap2\n      add\n        /* \"#utility.yul\":4018:4050   */\n      calldataload\n      swap1\n        /* \"#utility.yul\":3574:4082   */\n      jump\t// out\n        /* \"#utility.yul\":4679:4905   */\n    tag_114:\n        /* \"#utility.yul\":4738:4744   */\n      0x00\n        /* \"#utility.yul\":4791:4793   */\n      0x20\n        /* \"#utility.yul\":4779:4788   */\n      dup3\n        /* \"#utility.yul\":4770:4777   */\n      dup5\n        /* \"#utility.yul\":4766:4789   */\n      sub\n        /* \"#utility.yul\":4762:4794   */\n      slt\n        /* \"#utility.yul\":4759:4811   */\n      iszero\n      tag_489\n      jumpi\n        /* \"#utility.yul\":4807:4808   */\n      0x00\n        /* \"#utility.yul\":4804:4805   */\n      0x00\n        /* \"#utility.yul\":4797:4809   */\n      revert\n        /* \"#utility.yul\":4759:4811   */\n    tag_489:\n      pop\n        /* \"#utility.yul\":4852:4875   */\n      calldataload\n      swap2\n        /* \"#utility.yul\":4679:4905   */\n      swap1\n      pop\n      jump\t// out\n        /* \"#utility.yul\":4910:5069   */\n    tag_450:\n        /* \"#utility.yul\":4973:4978   */\n      0x00\n        /* \"#utility.yul\":5018:5021   */\n      0x80\n        /* \"#utility.yul\":5009:5015   */\n      dup3\n        /* \"#utility.yul\":5004:5007   */\n      dup5\n        /* \"#utility.yul\":5000:5016   */\n      sub\n        /* \"#utility.yul\":4996:5022   */\n      slt\n        /* \"#utility.yul\":4993:5039   */\n      iszero\n      tag_491\n      jumpi\n        /* \"#utility.yul\":5035:5036   */\n      0x00\n        /* \"#utility.yul\":5032:5033   */\n      0x00\n        /* \"#utility.yul\":5025:5037   */\n      revert\n        /* \"#utility.yul\":4993:5039   */\n    tag_491:\n      pop\n        /* \"#utility.yul\":5057:5063   */\n      swap2\n        /* \"#utility.yul\":4910:5069   */\n      swap1\n      pop\n      jump\t// out\n        /* \"#utility.yul\":5074:5433   */\n    tag_125:\n        /* \"#utility.yul\":5172:5178   */\n      0x00\n        /* \"#utility.yul\":5180:5186   */\n      0x00\n        /* \"#utility.yul\":5233:5236   */\n      0xa0\n        /* \"#utility.yul\":5221:5230   */\n      dup4\n        /* \"#utility.yul\":5212:5219   */\n      dup6\n        /* \"#utility.yul\":5208:5231   */\n      sub\n        /* \"#utility.yul\":5204:5237   */\n      slt\n        /* \"#utility.yul\":5201:5254   */\n      iszero\n      tag_493\n      jumpi\n        /* \"#utility.yul\":5250:5251   */\n      0x00\n        /* \"#utility.yul\":5247:5248   */\n      0x00\n        /* \"#utility.yul\":5240:5252   */\n      revert\n        /* \"#utility.yul\":5201:5254   */\n    tag_493:\n        /* \"#utility.yul\":5295:5318   */\n      dup3\n      calldataload\n      swap2\n      pop\n        /* \"#utility.yul\":5361:5427   */\n      tag_494\n        /* \"#utility.yul\":5419:5426   */\n      dup5\n        /* \"#utility.yul\":5414:5416   */\n      0x20\n        /* \"#utility.yul\":5399:5417   */\n      dup6\n      add\n        /* \"#utility.yul\":5361:5427   */\n      tag_450\n      jump\t// in\n    tag_494:\n        /* \"#utility.yul\":5351:5427   */\n      swap1\n      pop\n        /* \"#utility.yul\":5074:5433   */\n      swap3\n      pop\n      swap3\n      swap1\n      pop\n      jump\t// out\n        /* \"#utility.yul\":5853:6353   */\n    tag_168:\n        /* \"#utility.yul\":5960:5966   */\n      0x00\n        /* \"#utility.yul\":5968:5974   */\n      0x00\n        /* \"#utility.yul\":5976:5982   */\n      0x00\n        /* \"#utility.yul\":6029:6032   */\n      0xc0\n        /* \"#utility.yul\":6017:6026   */\n      dup5\n        /* \"#utility.yul\":6008:6015   */\n      dup7\n        /* \"#utility.yul\":6004:6027   */\n      sub\n        /* \"#utility.yul\":6000:6033   */\n      slt\n        /* \"#utility.yul\":5997:6050   */\n      iszero\n      tag_498\n      jumpi\n        /* \"#utility.yul\":6046:6047   */\n      0x00\n        /* \"#utility.yul\":6043:6044   */\n      0x00\n        /* \"#utility.yul\":6036:6048   */\n      revert\n        /* \"#utility.yul\":5997:6050   */\n    tag_498:\n        /* \"#utility.yul\":6091:6114   */\n      dup4\n      calldataload\n      swap3\n      pop\n        /* \"#utility.yul\":6190:6192   */\n      0x20\n        /* \"#utility.yul\":6175:6193   */\n      dup5\n      add\n        /* \"#utility.yul\":6162:6194   */\n      calldataload\n        /* \"#utility.yul\":6203:6236   */\n      tag_499\n        /* \"#utility.yul\":6162:6194   */\n      dup2\n        /* \"#utility.yul\":6203:6236   */\n      tag_449\n      jump\t// in\n    tag_499:\n        /* \"#utility.yul\":6255:6262   */\n      swap2\n      pop\n        /* \"#utility.yul\":6281:6347   */\n      tag_500\n        /* \"#utility.yul\":6339:6346   */\n      dup6\n        /* \"#utility.yul\":6334:6336   */\n      0x40\n        /* \"#utility.yul\":6319:6337   */\n      dup7\n      add\n        /* \"#utility.yul\":6281:6347   */\n      tag_450\n      jump\t// in\n    tag_500:\n        /* \"#utility.yul\":6271:6347   */\n      swap1\n      pop\n        /* \"#utility.yul\":5853:6353   */\n      swap3\n      pop\n      swap3\n      pop\n      swap3\n      jump\t// out\n        /* \"#utility.yul\":6358:6725   */\n    tag_188:\n        /* \"#utility.yul\":6426:6432   */\n      0x00\n        /* \"#utility.yul\":6434:6440   */\n      0x00\n        /* \"#utility.yul\":6487:6489   */\n      0x40\n        /* \"#utility.yul\":6475:6484   */\n      dup4\n        /* \"#utility.yul\":6466:6473   */\n      dup6\n        /* \"#utility.yul\":6462:6485   */\n      sub\n        /* \"#utility.yul\":6458:6490   */\n      slt\n        /* \"#utility.yul\":6455:6507   */\n      iszero\n      tag_502\n      jumpi\n        /* \"#utility.yul\":6503:6504   */\n      0x00\n        /* \"#utility.yul\":6500:6501   */\n      0x00\n        /* \"#utility.yul\":6493:6505   */\n      revert\n        /* \"#utility.yul\":6455:6507   */\n    tag_502:\n        /* \"#utility.yul\":6548:6571   */\n      dup3\n      calldataload\n      swap2\n      pop\n        /* \"#utility.yul\":6647:6649   */\n      0x20\n        /* \"#utility.yul\":6632:6650   */\n      dup4\n      add\n        /* \"#utility.yul\":6619:6651   */\n      calldataload\n        /* \"#utility.yul\":6660:6693   */\n      tag_503\n        /* \"#utility.yul\":6619:6651   */\n      dup2\n        /* \"#utility.yul\":6660:6693   */\n      tag_449\n      jump\t// in\n    tag_503:\n        /* \"#utility.yul\":6712:6719   */\n      dup1\n        /* \"#utility.yul\":6702:6719   */\n      swap2\n      pop\n      pop\n        /* \"#utility.yul\":6358:6725   */\n      swap3\n      pop\n      swap3\n      swap1\n      pop\n      jump\t// out\n        /* \"#utility.yul\":6730:6886   */\n    tag_451:\n        /* \"#utility.yul\":6796:6816   */\n      dup1\n      calldataload\n        /* \"#utility.yul\":6856:6860   */\n      0xff\n        /* \"#utility.yul\":6845:6861   */\n      dup2\n      and\n        /* \"#utility.yul\":6835:6862   */\n      dup2\n      eq\n        /* \"#utility.yul\":6825:6880   */\n      tag_255\n      jumpi\n        /* \"#utility.yul\":6876:6877   */\n      0x00\n        /* \"#utility.yul\":6873:6874   */\n      0x00\n        /* \"#utility.yul\":6866:6878   */\n      revert\n        /* \"#utility.yul\":6891:7833   */\n    tag_203:\n        /* \"#utility.yul\":7002:7008   */\n      0x00\n        /* \"#utility.yul\":7010:7016   */\n      0x00\n        /* \"#utility.yul\":7018:7024   */\n      0x00\n        /* \"#utility.yul\":7026:7032   */\n      0x00\n        /* \"#utility.yul\":7034:7040   */\n      0x00\n        /* \"#utility.yul\":7042:7048   */\n      0x00\n        /* \"#utility.yul\":7050:7056   */\n      0x00\n        /* \"#utility.yul\":7103:7106   */\n      0xe0\n        /* \"#utility.yul\":7091:7100   */\n      dup9\n        /* \"#utility.yul\":7082:7089   */\n      dup11\n        /* \"#utility.yul\":7078:7101   */\n      sub\n        /* \"#utility.yul\":7074:7107   */\n      slt\n        /* \"#utility.yul\":7071:7124   */\n      iszero\n      tag_507\n      jumpi\n        /* \"#utility.yul\":7120:7121   */\n      0x00\n        /* \"#utility.yul\":7117:7118   */\n      0x00\n        /* \"#utility.yul\":7110:7122   */\n      revert\n        /* \"#utility.yul\":7071:7124   */\n    tag_507:\n        /* \"#utility.yul\":7159:7168   */\n      dup8\n        /* \"#utility.yul\":7146:7169   */\n      calldataload\n        /* \"#utility.yul\":7178:7209   */\n      tag_508\n        /* \"#utility.yul\":7203:7208   */\n      dup2\n        /* \"#utility.yul\":7178:7209   */\n      tag_449\n      jump\t// in\n    tag_508:\n        /* \"#utility.yul\":7228:7233   */\n      swap7\n      pop\n        /* \"#utility.yul\":7285:7287   */\n      0x20\n        /* \"#utility.yul\":7270:7288   */\n      dup9\n      add\n        /* \"#utility.yul\":7257:7289   */\n      calldataload\n        /* \"#utility.yul\":7298:7331   */\n      tag_509\n        /* \"#utility.yul\":7257:7289   */\n      dup2\n        /* \"#utility.yul\":7298:7331   */\n      tag_449\n      jump\t// in\n    tag_509:\n        /* \"#utility.yul\":7350:7357   */\n      swap6\n      pop\n        /* \"#utility.yul\":7430:7432   */\n      0x40\n        /* \"#utility.yul\":7415:7433   */\n      dup9\n      add\n        /* \"#utility.yul\":7402:7434   */\n      calldataload\n      swap5\n      pop\n        /* \"#utility.yul\":7533:7535   */\n      0x60\n        /* \"#utility.yul\":7518:7536   */\n      dup9\n      add\n        /* \"#utility.yul\":7505:7537   */\n      calldataload\n      swap4\n      pop\n        /* \"#utility.yul\":7582:7619   */\n      tag_510\n        /* \"#utility.yul\":7614:7617   */\n      0x80\n        /* \"#utility.yul\":7599:7618   */\n      dup10\n      add\n        /* \"#utility.yul\":7582:7619   */\n      tag_451\n      jump\t// in\n    tag_510:\n        /* \"#utility.yul\":6891:7833   */\n      swap7\n      swap10\n      swap6\n      swap9\n      pop\n      swap4\n      swap7\n      swap3\n      swap6\n        /* \"#utility.yul\":7572:7619   */\n      swap5\n        /* \"#utility.yul\":7692:7695   */\n      0xa0\n        /* \"#utility.yul\":7677:7696   */\n      dup5\n      add\n        /* \"#utility.yul\":7664:7697   */\n      calldataload\n      swap5\n      pop\n        /* \"#utility.yul\":7796:7799   */\n      0xc0\n        /* \"#utility.yul\":7781:7800   */\n      swap1\n      swap4\n      add\n        /* \"#utility.yul\":7768:7801   */\n      calldataload\n      swap3\n        /* \"#utility.yul\":6891:7833   */\n      swap2\n      pop\n      pop\n      jump\t// out\n        /* \"#utility.yul\":7838:8226   */\n    tag_208:\n        /* \"#utility.yul\":7906:7912   */\n      0x00\n        /* \"#utility.yul\":7914:7920   */\n      0x00\n        /* \"#utility.yul\":7967:7969   */\n      0x40\n        /* \"#utility.yul\":7955:7964   */\n      dup4\n        /* \"#utility.yul\":7946:7953   */\n      dup6\n        /* \"#utility.yul\":7942:7965   */\n      sub\n        /* \"#utility.yul\":7938:7970   */\n      slt\n        /* \"#utility.yul\":7935:7987   */\n      iszero\n      tag_512\n      jumpi\n        /* \"#utility.yul\":7983:7984   */\n      0x00\n        /* \"#utility.yul\":7980:7981   */\n      0x00\n        /* \"#utility.yul\":7973:7985   */\n      revert\n        /* \"#utility.yul\":7935:7987   */\n    tag_512:\n        /* \"#utility.yul\":8022:8031   */\n      dup3\n        /* \"#utility.yul\":8009:8032   */\n      calldataload\n        /* \"#utility.yul\":8041:8072   */\n      tag_513\n        /* \"#utility.yul\":8066:8071   */\n      dup2\n        /* \"#utility.yul\":8041:8072   */\n      tag_449\n      jump\t// in\n    tag_513:\n        /* \"#utility.yul\":8091:8096   */\n      swap2\n      pop\n        /* \"#utility.yul\":8148:8150   */\n      0x20\n        /* \"#utility.yul\":8133:8151   */\n      dup4\n      add\n        /* \"#utility.yul\":8120:8152   */\n      calldataload\n        /* \"#utility.yul\":8161:8194   */\n      tag_503\n        /* \"#utility.yul\":8120:8152   */\n      dup2\n        /* \"#utility.yul\":8161:8194   */\n      tag_449\n      jump\t// in\n        /* \"#utility.yul\":8418:8689   */\n    tag_249:\n        /* \"#utility.yul\":8601:8607   */\n      dup2\n        /* \"#utility.yul\":8593:8599   */\n      dup4\n        /* \"#utility.yul\":8588:8591   */\n      dup3\n        /* \"#utility.yul\":8575:8608   */\n      calldatacopy\n        /* \"#utility.yul\":8557:8560   */\n      0x00\n        /* \"#utility.yul\":8627:8643   */\n      swap2\n      add\n        /* \"#utility.yul\":8652:8665   */\n      swap1\n      dup2\n      mstore\n        /* \"#utility.yul\":8627:8643   */\n      swap2\n        /* \"#utility.yul\":8418:8689   */\n      swap1\n      pop\n      jump\t// out\n        /* \"#utility.yul\":8973:9250   */\n    tag_264:\n        /* \"#utility.yul\":9040:9046   */\n      0x00\n        /* \"#utility.yul\":9093:9095   */\n      0x20\n        /* \"#utility.yul\":9081:9090   */\n      dup3\n        /* \"#utility.yul\":9072:9079   */\n      dup5\n        /* \"#utility.yul\":9068:9091   */\n      sub\n        /* \"#utility.yul\":9064:9096   */\n      slt\n        /* \"#utility.yul\":9061:9113   */\n      iszero\n      tag_519\n      jumpi\n        /* \"#utility.yul\":9109:9110   */\n      0x00\n        /* \"#utility.yul\":9106:9107   */\n      0x00\n        /* \"#utility.yul\":9099:9111   */\n      revert\n        /* \"#utility.yul\":9061:9113   */\n    tag_519:\n        /* \"#utility.yul\":9141:9150   */\n      dup2\n        /* \"#utility.yul\":9135:9151   */\n      mload\n        /* \"#utility.yul\":9194:9199   */\n      dup1\n        /* \"#utility.yul\":9187:9200   */\n      iszero\n        /* \"#utility.yul\":9180:9201   */\n      iszero\n        /* \"#utility.yul\":9173:9178   */\n      dup2\n        /* \"#utility.yul\":9170:9202   */\n      eq\n        /* \"#utility.yul\":9160:9220   */\n      tag_313\n      jumpi\n        /* \"#utility.yul\":9216:9217   */\n      0x00\n        /* \"#utility.yul\":9213:9214   */\n      0x00\n        /* \"#utility.yul\":9206:9218   */\n      revert\n        /* \"#utility.yul\":9255:9439   */\n    tag_269:\n        /* \"#utility.yul\":9325:9331   */\n      0x00\n        /* \"#utility.yul\":9378:9380   */\n      0x20\n        /* \"#utility.yul\":9366:9375   */\n      dup3\n        /* \"#utility.yul\":9357:9364   */\n      dup5\n        /* \"#utility.yul\":9353:9376   */\n      sub\n        /* \"#utility.yul\":9349:9381   */\n      slt\n        /* \"#utility.yul\":9346:9398   */\n      iszero\n      tag_522\n      jumpi\n        /* \"#utility.yul\":9394:9395   */\n      0x00\n        /* \"#utility.yul\":9391:9392   */\n      0x00\n        /* \"#utility.yul\":9384:9396   */\n      revert\n        /* \"#utility.yul\":9346:9398   */\n    tag_522:\n      pop\n        /* \"#utility.yul\":9417:9433   */\n      mload\n      swap2\n        /* \"#utility.yul\":9255:9439   */\n      swap1\n      pop\n      jump\t// out\n        /* \"#utility.yul\":9444:9571   */\n    tag_452:\n        /* \"#utility.yul\":9505:9515   */\n      0x4e487b71\n        /* \"#utility.yul\":9500:9503   */\n      0xe0\n        /* \"#utility.yul\":9496:9516   */\n      shl\n        /* \"#utility.yul\":9493:9494   */\n      0x00\n        /* \"#utility.yul\":9486:9517   */\n      mstore\n        /* \"#utility.yul\":9536:9540   */\n      0x11\n        /* \"#utility.yul\":9533:9534   */\n      0x04\n        /* \"#utility.yul\":9526:9541   */\n      mstore\n        /* \"#utility.yul\":9560:9564   */\n      0x24\n        /* \"#utility.yul\":9557:9558   */\n      0x00\n        /* \"#utility.yul\":9550:9565   */\n      revert\n        /* \"#utility.yul\":9576:9704   */\n    tag_272:\n        /* \"#utility.yul\":9643:9652   */\n      dup2\n      dup2\n      sub\n        /* \"#utility.yul\":9664:9675   */\n      dup2\n      dup2\n      gt\n        /* \"#utility.yul\":9661:9698   */\n      iszero\n      tag_239\n      jumpi\n        /* \"#utility.yul\":9678:9696   */\n      tag_239\n      tag_452\n      jump\t// in\n        /* \"#utility.yul\":9709:9834   */\n    tag_303:\n        /* \"#utility.yul\":9774:9783   */\n      dup1\n      dup3\n      add\n        /* \"#utility.yul\":9795:9805   */\n      dup1\n      dup3\n      gt\n        /* \"#utility.yul\":9792:9828   */\n      iszero\n      tag_239\n      jumpi\n        /* \"#utility.yul\":9808:9826   */\n      tag_239\n      tag_452\n      jump\t// in\n        /* \"#utility.yul\":9839:10007   */\n    tag_306:\n        /* \"#utility.yul\":9912:9921   */\n      dup1\n      dup3\n      mul\n        /* \"#utility.yul\":9943:9952   */\n      dup2\n      iszero\n        /* \"#utility.yul\":9960:9975   */\n      dup3\n      dup3\n      div\n        /* \"#utility.yul\":9954:9976   */\n      dup5\n      eq\n        /* \"#utility.yul\":9940:9977   */\n      or\n        /* \"#utility.yul\":9930:10001   */\n      tag_239\n      jumpi\n        /* \"#utility.yul\":9981:9999   */\n      tag_239\n      tag_452\n      jump\t// in\n        /* \"#utility.yul\":10012:10229   */\n    tag_308:\n        /* \"#utility.yul\":10052:10053   */\n      0x00\n        /* \"#utility.yul\":10078:10079   */\n      dup3\n        /* \"#utility.yul\":10068:10200   */\n      tag_534\n      jumpi\n        /* \"#utility.yul\":10122:10132   */\n      0x4e487b71\n        /* \"#utility.yul\":10117:10120   */\n      0xe0\n        /* \"#utility.yul\":10113:10133   */\n      shl\n        /* \"#utility.yul\":10110:10111   */\n      0x00\n        /* \"#utility.yul\":10103:10134   */\n      mstore\n        /* \"#utility.yul\":10157:10161   */\n      0x12\n        /* \"#utility.yul\":10154:10155   */\n      0x04\n        /* \"#utility.yul\":10147:10162   */\n      mstore\n        /* \"#utility.yul\":10185:10189   */\n      0x24\n        /* \"#utility.yul\":10182:10183   */\n      0x00\n        /* \"#utility.yul\":10175:10190   */\n      revert\n        /* \"#utility.yul\":10068:10200   */\n    tag_534:\n      pop\n        /* \"#utility.yul\":10214:10223   */\n      div\n      swap1\n        /* \"#utility.yul\":10012:10229   */\n      jump\t// out\n        /* \"#utility.yul\":10234:10416   */\n    tag_334:\n        /* \"#utility.yul\":10291:10297   */\n      0x00\n        /* \"#utility.yul\":10344:10346   */\n      0x20\n        /* \"#utility.yul\":10332:10341   */\n      dup3\n        /* \"#utility.yul\":10323:10330   */\n      dup5\n        /* \"#utility.yul\":10319:10342   */\n      sub\n        /* \"#utility.yul\":10315:10347   */\n      slt\n        /* \"#utility.yul\":10312:10364   */\n      iszero\n      tag_536\n      jumpi\n        /* \"#utility.yul\":10360:10361   */\n      0x00\n        /* \"#utility.yul\":10357:10358   */\n      0x00\n        /* \"#utility.yul\":10350:10362   */\n      revert\n        /* \"#utility.yul\":10312:10364   */\n    tag_536:\n        /* \"#utility.yul\":10383:10410   */\n      tag_313\n        /* \"#utility.yul\":10400:10409   */\n      dup3\n        /* \"#utility.yul\":10383:10410   */\n      tag_451\n      jump\t// in\n        /* \"#utility.yul\":11549:12108   */\n    tag_368:\n      sub(shl(0xa0, 0x01), 0x01)\n        /* \"#utility.yul\":11762:11794   */\n      dup6\n      and\n        /* \"#utility.yul\":11744:11795   */\n      dup2\n      mstore\n        /* \"#utility.yul\":11826:11828   */\n      0x20\n        /* \"#utility.yul\":11811:11829   */\n      dup2\n      add\n        /* \"#utility.yul\":11804:11838   */\n      dup5\n      swap1\n      mstore\n        /* \"#utility.yul\":11874:11876   */\n      0x60\n        /* \"#utility.yul\":11869:11871   */\n      0x40\n        /* \"#utility.yul\":11854:11872   */\n      dup3\n      add\n        /* \"#utility.yul\":11847:11877   */\n      dup2\n      swap1\n      mstore\n        /* \"#utility.yul\":11893:11911   */\n      dup2\n      add\n        /* \"#utility.yul\":11886:11920   */\n      dup3\n      swap1\n      mstore\n        /* \"#utility.yul\":11913:11919   */\n      dup2\n        /* \"#utility.yul\":11963:11969   */\n      dup4\n        /* \"#utility.yul\":11957:11960   */\n      0x80\n        /* \"#utility.yul\":11942:11961   */\n      dup4\n      add\n        /* \"#utility.yul\":11929:11978   */\n      calldatacopy\n        /* \"#utility.yul\":12028:12029   */\n      0x00\n        /* \"#utility.yul\":11998:12020   */\n      dup2\n      dup4\n      add\n        /* \"#utility.yul\":12022:12025   */\n      0x80\n        /* \"#utility.yul\":11994:12026   */\n      swap1\n      dup2\n      add\n        /* \"#utility.yul\":11987:12030   */\n      swap2\n      swap1\n      swap2\n      mstore\n        /* \"#utility.yul\":12091:12093   */\n      0x1f\n        /* \"#utility.yul\":12070:12085   */\n      swap1\n      swap3\n      add\n      not(0x1f)\n        /* \"#utility.yul\":12066:12095   */\n      and\n        /* \"#utility.yul\":12051:12096   */\n      add\n        /* \"#utility.yul\":12047:12102   */\n      add\n      swap4\n        /* \"#utility.yul\":11549:12108   */\n      swap3\n      pop\n      pop\n      pop\n      jump\t// out\n        /* \"#utility.yul\":12113:12403   */\n    tag_372:\n        /* \"#utility.yul\":12182:12188   */\n      0x00\n        /* \"#utility.yul\":12235:12237   */\n      0x20\n        /* \"#utility.yul\":12223:12232   */\n      dup3\n        /* \"#utility.yul\":12214:12221   */\n      dup5\n        /* \"#utility.yul\":12210:12233   */\n      sub\n        /* \"#utility.yul\":12206:12238   */\n      slt\n        /* \"#utility.yul\":12203:12255   */\n      iszero\n      tag_542\n      jumpi\n        /* \"#utility.yul\":12251:12252   */\n      0x00\n        /* \"#utility.yul\":12248:12249   */\n      0x00\n        /* \"#utility.yul\":12241:12253   */\n      revert\n        /* \"#utility.yul\":12203:12255   */\n    tag_542:\n        /* \"#utility.yul\":12277:12293   */\n      dup2\n      mload\n      not(sub(shl(0xe0, 0x01), 0x01))\n        /* \"#utility.yul\":12322:12354   */\n      dup2\n      and\n        /* \"#utility.yul\":12312:12355   */\n      dup2\n      eq\n        /* \"#utility.yul\":12302:12373   */\n      tag_313\n      jumpi\n        /* \"#utility.yul\":12369:12370   */\n      0x00\n        /* \"#utility.yul\":12366:12367   */\n      0x00\n        /* \"#utility.yul\":12359:12371   */\n      revert\n    stop\n    data_ada389e1fc24a8587c776340efb91b36e675792ab631816100d55df0b5cf3cbc ddf252ad1be2c89b69c2b068fc378daa952ba7f163c4a11628f55a4df523b3ef\n\n    auxdata: 0xa264697066735822122078fbabb9203af5204125aa17e7f23569188d6f71eaf067a5ee3ce7d06434200d64736f6c634300081c0033\n}\n",
				"bytecode": {
					"linkReferences": {},
					"object": "610180604052425f5542600155348015610017575f5ffd5b50604051611e21380380611e218339810160408190526100369161021a565b82670de0b6b3a764000061004d620151808261029c565b67016345785d8a0000610063620151808261029c565b306080526001600160801b0393841660a05291831660c052821660e05216610100526001600160a01b0381166100b257604051631e4fbdf760e01b81525f600482015260240160405180910390fd5b6100bb8161012c565b50816040516020016100cd91906102d6565b6040516020818303038152906040526100e5906102ec565b61012052815160208084019190912061016052604051610107918391016102d6565b60405160208183030381529060405261011f906102ec565b6101405250610312915050565b600280546001600160a01b038381166001600160a01b0319831681179093556040519116919082907f8be0079c531659141344cd1fd0a4f28419497f9722a3daafe3b4186f6b6457e0905f90a35050565b634e487b7160e01b5f52604160045260245ffd5b5f82601f8301126101a0575f5ffd5b81516001600160401b038111156101b9576101b961017d565b604051601f8201601f19908116603f011681016001600160401b03811182821017156101e7576101e761017d565b6040528181528382016020018510156101fe575f5ffd5b8160208501602083015e5f918101602001919091529392505050565b5f5f5f6060848603121561022c575f5ffd5b83516001600160a01b0381168114610242575f5ffd5b60208501519093506001600160401b0381111561025d575f5ffd5b61026986828701610191565b604086015190935090506001600160401b03811115610286575f5ffd5b61029286828701610191565b9150509250925092565b5f6001600160801b038316806102c057634e487b7160e01b5f52601260045260245ffd5b6001600160801b03929092169190910492915050565b5f82518060208501845e5f920191825250919050565b8051602080830151919081101561030c575f198160200360031b1b821691505b50919050565b60805160a05160c05160e05161010051610120516101405161016051611a4b6103d65f395f81816106f401528181610ab80152610f9701525f610d7501525f61078201525f81816104bf01528181610ecb015261143d01525f81816102320152610bf901525f818161075a01528181611322015261139101525f81816105230152610b6601525f81816103b1015281816108a40152818161090101528181610c4701528181610c9e01528181610e3e0152818161116001526112540152611a4b5ff3fe60806040526004361061021d575f3560e01c80637ecebe001161011e578063b3ca7f2a116100a8578063e5aca5991161006d578063e5aca599146106c4578063f172a4ce146106e3578063f2fde38b14610716578063f4d0bd7214610735578063f86329e114610749575f5ffd5b8063b3ca7f2a1461062a578063be45fd621461063e578063d505accf1461065d578063dd62ed3e1461067c578063e46dbd07146106b0575f5ffd5b806394ef2103116100ee57806394ef21031461059a57806395d89b41146105b9578063a9059cbb146105cd578063af4fc206146105ec578063b3841f261461060b575f5ffd5b80637ecebe00146104e157806382e3d8bd146105125780638943ec02146105455780638da5cb5b1461057d575f5ffd5b8063313ce567116101aa5780636263913c1161016f5780636263913c1461042957806370a0823114610448578063715018a6146104795780637b383f181461048f5780637cc27b40146104ae575f5ffd5b8063313ce567146103715780633644e5151461038c57806338d52e0f146103a05780634206abe9146103eb5780636032f6001461040a575f5ffd5b806312958a6b116101f057806312958a6b146102ee57806317b311671461030f57806318160ddd1461032e578063223ecf7e1461034a57806323b872dd14610352575f5ffd5b8063058d15731461022157806306fdde0314610271578063095ea7b31461029257806310ab2d01146102c1575b5f5ffd5b34801561022c575f5ffd5b506102547f000000000000000000000000000000000000000000000000000000000000000081565b6040516001600160801b0390911681526020015b60405180910390f35b34801561027c575f5ffd5b5061028561077c565b60405161026891906115ca565b34801561029d575f5ffd5b506102b16102ac3660046115f0565b6107bf565b6040519015158152602001610268565b3480156102cc575f5ffd5b506102e06102db36600461161a565b61080f565b60405161026892919061169f565b6103016102fc3660046116b9565b610882565b604051908152602001610268565b34801561031a575f5ffd5b506103016103293660046116d4565b61089d565b348015610339575f5ffd5b506805345cdf77eb68f44c54610301565b610301610a01565b34801561035d575f5ffd5b506102b161036c366004611713565b610a10565b34801561037c575f5ffd5b5060405160128152602001610268565b348015610397575f5ffd5b50610301610ab5565b3480156103ab575f5ffd5b506103d37f000000000000000000000000000000000000000000000000000000000000000081565b6040516001600160a01b039091168152602001610268565b3480156103f6575f5ffd5b50610301610405366004611751565b610b57565b348015610415575f5ffd5b50610301610424366004611751565b610bb9565b348015610434575f5ffd5b5061030161044336600461177e565b610bc4565b348015610453575f5ffd5b506103016104623660046116b9565b6387a211a2600c9081525f91909152602090205490565b348015610484575f5ffd5b5061048d610bd7565b005b34801561049a575f5ffd5b506103016104a9366004611751565b610bea565b3480156104b9575f5ffd5b506102547f000000000000000000000000000000000000000000000000000000000000000081565b3480156104ec575f5ffd5b506103016104fb3660046116b9565b6338377508600c9081525f91909152602090205490565b34801561051d575f5ffd5b506102547f000000000000000000000000000000000000000000000000000000000000000081565b348015610550575f5ffd5b5061056461055f36600461161a565b610c3b565b6040516001600160e01b03199091168152602001610268565b348015610588575f5ffd5b506002546001600160a01b03166103d3565b3480156105a5575f5ffd5b506103016105b43660046117a9565b610c93565b3480156105c4575f5ffd5b50610285610d6f565b3480156105d8575f5ffd5b506102b16105e73660046115f0565b610da2565b3480156105f7575f5ffd5b506103016106063660046116d4565b610e06565b348015610616575f5ffd5b506103016106253660046117e5565b610ea8565b348015610635575f5ffd5b50610301610ec8565b348015610649575f5ffd5b506102b161065836600461161a565b610f0b565b348015610668575f5ffd5b5061048d610677366004611823565b610f95565b348015610687575f5ffd5b5061030161069636600461188d565b602052637f5e9f20600c9081525f91909152603490205490565b3480156106bb575f5ffd5b506103015f5481565b3480156106cf575f5ffd5b506103016106de3660046116d4565b61113f565b3480156106ee575f5ffd5b506103017f000000000000000000000000000000000000000000000000000000000000000081565b348015610721575f5ffd5b5061048d6107303660046116b9565b6112dd565b348015610740575f5ffd5b5061030161131f565b348015610754575f5ffd5b506102547f000000000000000000000000000000000000000000000000000000000000000081565b604080517f00000000000000000000000000000000000000000000000000000000000000006020820152606091015b604051602081830303815290604052905090565b5f82602052637f5e9f20600c52335f52816034600c2055815f52602c5160601c337f8c5be1e5ebec7d5bd14f71427d1e84f3dd0314c0f7b2291e5b200ac8c7c3b92560205fa35060015b92915050565b5f606061081a611357565b856001600160a01b03168585856040516108359291906118b9565b5f6040518083038185875af1925050503d805f811461086f576040519150601f19603f3d011682016040523d82523d5f602084013e610874565b606091505b509150915094509492505050565b5f61088c34610bea565b90506108988282611384565b919050565b5f5f4790507f00000000000000000000000000000000000000000000000000000000000000006001600160a01b0316856001600160a01b03161461096d5760405163095ea7b360e01b81526001600160a01b038681166004830152602482018690527f0000000000000000000000000000000000000000000000000000000000000000169063095ea7b3906044016020604051808303815f875af1158015610947573d5f5f3e3d5ffd5b505050506040513d601f19601f8201168201806040525081019061096b91906118c8565b505b6040516230197b60e91b8152600481018590526001600160a01b03861690636032f600906024016020604051808303815f875af11580156109b0573d5f5f3e3d5ffd5b505050506040513d601f19601f820116820180604052508101906109d491906118e7565b50836109e36104a98347611912565b6109ed9190611912565b91506109f98383611384565b509392505050565b5f610a0b33610882565b905090565b5f8360601b33602052637f5e9f208117600c526034600c208054801915610a4c5780851115610a46576313be252b5f526004601cfd5b84810382555b50506387a211a28117600c526020600c20805480851115610a745763f4d678b85f526004601cfd5b84810382555050835f526020600c208381540181555082602052600c5160601c8160601c5f5160206119f65f395f51905f52602080a3505060019392505050565b5f7f000000000000000000000000000000000000000000000000000000000000000080610aee57610ae461077c565b8051906020012090505b604080517f8b73c3c69bb8fe3d512ecc4cf759cc79239f7b179b0ffacaa9a75d522b39400f815260208101929092527fc89efdaa54c0f20c7adf612882df0950f5a951637e0307cdcb4c672f298b8bc69082015246606082015230608082015260a09020919050565b5f610b8b826001600160801b037f000000000000000000000000000000000000000000000000000000000000000016611925565b82610b94610ec8565b610b9e9190611938565b610ba8919061194f565b905080471015610898575047919050565b5f6108098233610ea8565b5f610bd0833384610c93565b9392505050565b610bdf611357565b610be85f6113df565b565b5f610c1e826001600160801b037f000000000000000000000000000000000000000000000000000000000000000016611925565b82610c2761131f565b610c319190611938565b610809919061194f565b5f336001600160a01b037f00000000000000000000000000000000000000000000000000000000000000001614610c70575f5ffd5b610c8285610c7d86610b57565b611430565b506344a1f60160e11b949350505050565b5f6001600160a01b037f00000000000000000000000000000000000000000000000000000000000000001663d505accf3330878635610cd86040890160208a0161196e565b604080516001600160e01b031960e089901b1681526001600160a01b0396871660048201529590941660248601526044850192909252606484015260ff16608483015285013560a4820152606085013560c482015260e4015f604051808303815f87803b158015610d47575f5ffd5b505af1158015610d59573d5f5f3e3d5ffd5b50505050610d678484610ea8565b949350505050565b604080517f00000000000000000000000000000000000000000000000000000000000000006020820152606091016107ab565b5f6387a211a2600c52335f526020600c20805480841115610dca5763f4d678b85f526004601cfd5b83810382555050825f526020600c208281540181555081602052600c5160601c335f5160206119f65f395f51905f52602080a350600192915050565b604051635f22feb160e11b81526001600160a01b03848116600483015260248201849052606060448301525f606483018190529147917f0000000000000000000000000000000000000000000000000000000000000000169063be45fd62906084016020604051808303815f875af1158015610e84573d5f5f3e3d5ffd5b505050506040513d601f19601f820116820180604052508101906109d491906118c8565b5f610eb283610b57565b9050610ebe33846114d2565b6108098282611430565b5f7f00000000000000000000000000000000000000000000000000000000000000006001600160801b031660015442610f019190611912565b610a0b9190611938565b5f610f168585610da2565b506040516344a1f60160e11b81526001600160a01b03861690638943ec0290610f49903390889088908890600401611987565b6020604051808303815f875af1158015610f65573d5f5f3e3d5ffd5b505050506040513d601f19601f82011682018060405250810190610f8991906119ce565b50600195945050505050565b7f000000000000000000000000000000000000000000000000000000000000000080610fcd57610fc361077c565b8051906020012090505b7fc89efdaa54c0f20c7adf612882df0950f5a951637e0307cdcb4c672f298b8bc64286101561100357631a15a3cc5f526004601cfd5b6040518960601b60601c99508860601b60601c985065383775081901600e52895f526020600c2080547f8b73c3c69bb8fe3d512ecc4cf759cc79239f7b179b0ffacaa9a75d522b39400f835284602084015283604084015246606084015230608084015260a08320602e527f6e71edae12b1b97f4d1f60370fef10105fa2faae0126114a169c64845d6126c983528b60208401528a60408401528960608401528060808401528860a084015260c08320604e526042602c205f528760ff16602052866040528560605260208060805f60015afa8c3d51146110eb5763ddafbaef5f526004601cfd5b0190556303faf4f960a51b89176040526034602c20889055888a7f8c5be1e5ebec7d5bd14f71427d1e84f3dd0314c0f7b2291e5b200ac8c7c3b925602060608501a360405250505f60605250505050505050565b6040516370a0823160e01b81523060048201525f9081906001600160a01b037f000000000000000000000000000000000000000000000000000000000000000016906370a0823190602401602060405180830381865afa1580156111a5573d5f5f3e3d5ffd5b505050506040513d601f19601f820116820180604052508101906111c991906118e7565b9050846001600160a01b031663223ecf7e856040518263ffffffff1660e01b815260040160206040518083038185885af1158015611209573d5f5f3e3d5ffd5b50505050506040513d601f19601f8201168201806040525081019061122e91906118e7565b506040516370a0823160e01b815230600482015284906112c79083906001600160a01b037f000000000000000000000000000000000000000000000000000000000000000016906370a0823190602401602060405180830381865afa158015611299573d5f5f3e3d5ffd5b505050506040513d601f19601f820116820180604052508101906112bd91906118e7565b6104059190611912565b6112d19190611912565b91506109f98383611430565b6112e5611357565b6001600160a01b03811661131357604051631e4fbdf760e01b81525f60048201526024015b60405180910390fd5b61131c816113df565b50565b5f7f00000000000000000000000000000000000000000000000000000000000000006001600160801b03165f5442610f019190611912565b6002546001600160a01b03163314610be85760405163118cdaa760e01b815233600482015260240161130a565b6113b76001600160801b037f0000000000000000000000000000000000000000000000000000000000000000168261194f565b5f5f8282546113c69190611925565b909155506113d690508282611533565b5050565b505050565b600280546001600160a01b038381166001600160a01b0319831681179093556040519116919082907f8be0079c531659141344cd1fd0a4f28419497f9722a3daafe3b4186f6b6457e0905f90a35050565b6114636001600160801b037f0000000000000000000000000000000000000000000000000000000000000000168261194f565b60015f8282546114739190611925565b90915550506040515f906001600160a01b0384169083908381818185875af1925050503d805f81146114c0576040519150601f19603f3d011682016040523d82523d5f602084013e6114c5565b606091505b50509050806113da575f5ffd5b6387a211a2600c52815f526020600c208054808311156114f95763f4d678b85f526004601cfd5b82900390556805345cdf77eb68f44c805482900390555f8181526001600160a01b0383165f5160206119f65f395f51905f52602083a35050565b6805345cdf77eb68f44c54818101818110156115565763e5cfe9575f526004601cfd5b806805345cdf77eb68f44c5550506387a211a2600c52815f526020600c208181540181555080602052600c5160601c5f5f5160206119f65f395f51905f52602080a35050565b5f81518084528060208401602086015e5f602082860101526020601f19601f83011685010191505092915050565b602081525f610bd0602083018461159c565b6001600160a01b038116811461131c575f5ffd5b5f5f60408385031215611601575f5ffd5b823561160c816115dc565b946020939093013593505050565b5f5f5f5f6060858703121561162d575f5ffd5b8435611638816115dc565b935060208501359250604085013567ffffffffffffffff81111561165a575f5ffd5b8501601f8101871361166a575f5ffd5b803567ffffffffffffffff811115611680575f5ffd5b876020828401011115611691575f5ffd5b949793965060200194505050565b8215158152604060208201525f610d67604083018461159c565b5f602082840312156116c9575f5ffd5b8135610bd0816115dc565b5f5f5f606084860312156116e6575f5ffd5b83356116f1816115dc565b9250602084013591506040840135611708816115dc565b809150509250925092565b5f5f5f60608486031215611725575f5ffd5b8335611730816115dc565b92506020840135611740816115dc565b929592945050506040919091013590565b5f60208284031215611761575f5ffd5b5035919050565b5f60808284031215611778575f5ffd5b50919050565b5f5f60a0838503121561178f575f5ffd5b823591506117a08460208501611768565b90509250929050565b5f5f5f60c084860312156117bb575f5ffd5b8335925060208401356117cd816115dc565b91506117dc8560408601611768565b90509250925092565b5f5f604083850312156117f6575f5ffd5b823591506020830135611808816115dc565b809150509250929050565b803560ff81168114610898575f5ffd5b5f5f5f5f5f5f5f60e0888a031215611839575f5ffd5b8735611844816115dc565b96506020880135611854816115dc565b9550604088013594506060880135935061187060808901611813565b9699959850939692959460a0840135945060c09093013592915050565b5f5f6040838503121561189e575f5ffd5b82356118a9816115dc565b91506020830135611808816115dc565b818382375f9101908152919050565b5f602082840312156118d8575f5ffd5b81518015158114610bd0575f5ffd5b5f602082840312156118f7575f5ffd5b5051919050565b634e487b7160e01b5f52601160045260245ffd5b81810381811115610809576108096118fe565b80820180821115610809576108096118fe565b8082028115828204841417610809576108096118fe565b5f8261196957634e487b7160e01b5f52601260045260245ffd5b500490565b5f6020828403121561197e575f5ffd5b610bd082611813565b6001600160a01b0385168152602081018490526060604082018190528101829052818360808301375f818301608090810191909152601f909201601f191601019392505050565b5f602082840312156119de575f5ffd5b81516001600160e01b031981168114610bd0575f5ffdfeddf252ad1be2c89b69c2b068fc378daa952ba7f163c4a11628f55a4df523b3efa264697066735822122078fbabb9203af5204125aa17e7f23569188d6f71eaf067a5ee3ce7d06434200d64736f6c634300081c0033",
					"opcodes": "PUSH2 0x180 PUSH1 0x40 MSTORE TIMESTAMP PUSH0 SSTORE TIMESTAMP PUSH1 0x1 SSTORE CALLVALUE DUP1 ISZERO PUSH2 0x17 JUMPI PUSH0 PUSH0 REVERT JUMPDEST POP PUSH1 0x40 MLOAD PUSH2 0x1E21 CODESIZE SUB DUP1 PUSH2 0x1E21 DUP4 CODECOPY DUP2 ADD PUSH1 0x40 DUP2 SWAP1 MSTORE PUSH2 0x36 SWAP2 PUSH2 0x21A JUMP JUMPDEST DUP3 PUSH8 0xDE0B6B3A7640000 PUSH2 0x4D PUSH3 0x15180 DUP3 PUSH2 0x29C JUMP JUMPDEST PUSH8 0x16345785D8A0000 PUSH2 0x63 PUSH3 0x15180 DUP3 PUSH2 0x29C JUMP JUMPDEST ADDRESS PUSH1 0x80 MSTORE PUSH1 0x1 PUSH1 0x1 PUSH1 0x80 SHL SUB SWAP4 DUP5 AND PUSH1 0xA0 MSTORE SWAP2 DUP4 AND PUSH1 0xC0 MSTORE DUP3 AND PUSH1 0xE0 MSTORE AND PUSH2 0x100 MSTORE PUSH1 0x1 PUSH1 0x1 PUSH1 0xA0 SHL SUB DUP2 AND PUSH2 0xB2 JUMPI PUSH1 0x40 MLOAD PUSH4 0x1E4FBDF7 PUSH1 0xE0 SHL DUP2 MSTORE PUSH0 PUSH1 0x4 DUP3 ADD MSTORE PUSH1 0x24 ADD PUSH1 0x40 MLOAD DUP1 SWAP2 SUB SWAP1 REVERT JUMPDEST PUSH2 0xBB DUP2 PUSH2 0x12C JUMP JUMPDEST POP DUP2 PUSH1 0x40 MLOAD PUSH1 0x20 ADD PUSH2 0xCD SWAP2 SWAP1 PUSH2 0x2D6 JUMP JUMPDEST PUSH1 0x40 MLOAD PUSH1 0x20 DUP2 DUP4 SUB SUB DUP2 MSTORE SWAP1 PUSH1 0x40 MSTORE PUSH2 0xE5 SWAP1 PUSH2 0x2EC JUMP JUMPDEST PUSH2 0x120 MSTORE DUP2 MLOAD PUSH1 0x20 DUP1 DUP5 ADD SWAP2 SWAP1 SWAP2 KECCAK256 PUSH2 0x160 MSTORE PUSH1 0x40 MLOAD PUSH2 0x107 SWAP2 DUP4 SWAP2 ADD PUSH2 0x2D6 JUMP JUMPDEST PUSH1 0x40 MLOAD PUSH1 0x20 DUP2 DUP4 SUB SUB DUP2 MSTORE SWAP1 PUSH1 0x40 MSTORE PUSH2 0x11F SWAP1 PUSH2 0x2EC JUMP JUMPDEST PUSH2 0x140 MSTORE POP PUSH2 0x312 SWAP2 POP POP JUMP JUMPDEST PUSH1 0x2 DUP1 SLOAD PUSH1 0x1 PUSH1 0x1 PUSH1 0xA0 SHL SUB DUP4 DUP2 AND PUSH1 0x1 PUSH1 0x1 PUSH1 0xA0 SHL SUB NOT DUP4 AND DUP2 OR SWAP1 SWAP4 SSTORE PUSH1 0x40 MLOAD SWAP2 AND SWAP2 SWAP1 DUP3 SWAP1 PUSH32 0x8BE0079C531659141344CD1FD0A4F28419497F9722A3DAAFE3B4186F6B6457E0 SWAP1 PUSH0 SWAP1 LOG3 POP POP JUMP JUMPDEST PUSH4 0x4E487B71 PUSH1 0xE0 SHL PUSH0 MSTORE PUSH1 0x41 PUSH1 0x4 MSTORE PUSH1 0x24 PUSH0 REVERT JUMPDEST PUSH0 DUP3 PUSH1 0x1F DUP4 ADD SLT PUSH2 0x1A0 JUMPI PUSH0 PUSH0 REVERT JUMPDEST DUP2 MLOAD PUSH1 0x1 PUSH1 0x1 PUSH1 0x40 SHL SUB DUP2 GT ISZERO PUSH2 0x1B9 JUMPI PUSH2 0x1B9 PUSH2 0x17D JUMP JUMPDEST PUSH1 0x40 MLOAD PUSH1 0x1F DUP3 ADD PUSH1 0x1F NOT SWAP1 DUP2 AND PUSH1 0x3F ADD AND DUP2 ADD PUSH1 0x1 PUSH1 0x1 PUSH1 0x40 SHL SUB DUP2 GT DUP3 DUP3 LT OR ISZERO PUSH2 0x1E7 JUMPI PUSH2 0x1E7 PUSH2 0x17D JUMP JUMPDEST PUSH1 0x40 MSTORE DUP2 DUP2 MSTORE DUP4 DUP3 ADD PUSH1 0x20 ADD DUP6 LT ISZERO PUSH2 0x1FE JUMPI PUSH0 PUSH0 REVERT JUMPDEST DUP2 PUSH1 0x20 DUP6 ADD PUSH1 0x20 DUP4 ADD MCOPY PUSH0 SWAP2 DUP2 ADD PUSH1 0x20 ADD SWAP2 SWAP1 SWAP2 MSTORE SWAP4 SWAP3 POP POP POP JUMP JUMPDEST PUSH0 PUSH0 PUSH0 PUSH1 0x60 DUP5 DUP7 SUB SLT ISZERO PUSH2 0x22C JUMPI PUSH0 PUSH0 REVERT JUMPDEST DUP4 MLOAD PUSH1 0x1 PUSH1 0x1 PUSH1 0xA0 SHL SUB DUP2 AND DUP2 EQ PUSH2 0x242 JUMPI PUSH0 PUSH0 REVERT JUMPDEST PUSH1 0x20 DUP6 ADD MLOAD SWAP1 SWAP4 POP PUSH1 0x1 PUSH1 0x1 PUSH1 0x40 SHL SUB DUP2 GT ISZERO PUSH2 0x25D JUMPI PUSH0 PUSH0 REVERT JUMPDEST PUSH2 0x269 DUP7 DUP3 DUP8 ADD PUSH2 0x191 JUMP JUMPDEST PUSH1 0x40 DUP7 ADD MLOAD SWAP1 SWAP4 POP SWAP1 POP PUSH1 0x1 PUSH1 0x1 PUSH1 0x40 SHL SUB DUP2 GT ISZERO PUSH2 0x286 JUMPI PUSH0 PUSH0 REVERT JUMPDEST PUSH2 0x292 DUP7 DUP3 DUP8 ADD PUSH2 0x191 JUMP JUMPDEST SWAP2 POP POP SWAP3 POP SWAP3 POP SWAP3 JUMP JUMPDEST PUSH0 PUSH1 0x1 PUSH1 0x1 PUSH1 0x80 SHL SUB DUP4 AND DUP1 PUSH2 0x2C0 JUMPI PUSH4 0x4E487B71 PUSH1 0xE0 SHL PUSH0 MSTORE PUSH1 0x12 PUSH1 0x4 MSTORE PUSH1 0x24 PUSH0 REVERT JUMPDEST PUSH1 0x1 PUSH1 0x1 PUSH1 0x80 SHL SUB SWAP3 SWAP1 SWAP3 AND SWAP2 SWAP1 SWAP2 DIV SWAP3 SWAP2 POP POP JUMP JUMPDEST PUSH0 DUP3 MLOAD DUP1 PUSH1 0x20 DUP6 ADD DUP5 MCOPY PUSH0 SWAP3 ADD SWAP2 DUP3 MSTORE POP SWAP2 SWAP1 POP JUMP JUMPDEST DUP1 MLOAD PUSH1 0x20 DUP1 DUP4 ADD MLOAD SWAP2 SWAP1 DUP2 LT ISZERO PUSH2 0x30C JUMPI PUSH0 NOT DUP2 PUSH1 0x20 SUB PUSH1 0x3 SHL SHL DUP3 AND SWAP2 POP JUMPDEST POP SWAP2 SWAP1 POP JUMP JUMPDEST PUSH1 0x80 MLOAD PUSH1 0xA0 MLOAD PUSH1 0xC0 MLOAD PUSH1 0xE0 MLOAD PUSH2 0x100 MLOAD PUSH2 0x120 MLOAD PUSH2 0x140 MLOAD PUSH2 0x160 MLOAD PUSH2 0x1A4B PUSH2 0x3D6 PUSH0 CODECOPY PUSH0 DUP2 DUP2 PUSH2 0x6F4 ADD MSTORE DUP2 DUP2 PUSH2 0xAB8 ADD MSTORE PUSH2 0xF97 ADD MSTORE PUSH0 PUSH2 0xD75 ADD MSTORE PUSH0 PUSH2 0x782 ADD MSTORE PUSH0 DUP2 DUP2 PUSH2 0x4BF ADD MSTORE DUP2 DUP2 PUSH2 0xECB ADD MSTORE PUSH2 0x143D ADD MSTORE PUSH0 DUP2 DUP2 PUSH2 0x232 ADD MSTORE PUSH2 0xBF9 ADD MSTORE PUSH0 DUP2 DUP2 PUSH2 0x75A ADD MSTORE DUP2 DUP2 PUSH2 0x1322 ADD MSTORE PUSH2 0x1391 ADD MSTORE PUSH0 DUP2 DUP2 PUSH2 0x523 ADD MSTORE PUSH2 0xB66 ADD MSTORE PUSH0 DUP2 DUP2 PUSH2 0x3B1 ADD MSTORE DUP2 DUP2 PUSH2 0x8A4 ADD MSTORE DUP2 DUP2 PUSH2 0x901 ADD MSTORE DUP2 DUP2 PUSH2 0xC47 ADD MSTORE DUP2 DUP2 PUSH2 0xC9E ADD MSTORE DUP2 DUP2 PUSH2 0xE3E ADD MSTORE DUP2 DUP2 PUSH2 0x1160 ADD MSTORE PUSH2 0x1254 ADD MSTORE PUSH2 0x1A4B PUSH0 RETURN INVALID PUSH1 0x80 PUSH1 0x40 MSTORE PUSH1 0x4 CALLDATASIZE LT PUSH2 0x21D JUMPI PUSH0 CALLDATALOAD PUSH1 0xE0 SHR DUP1 PUSH4 0x7ECEBE00 GT PUSH2 0x11E JUMPI DUP1 PUSH4 0xB3CA7F2A GT PUSH2 0xA8 JUMPI DUP1 PUSH4 0xE5ACA599 GT PUSH2 0x6D JUMPI DUP1 PUSH4 0xE5ACA599 EQ PUSH2 0x6C4 JUMPI DUP1 PUSH4 0xF172A4CE EQ PUSH2 0x6E3 JUMPI DUP1 PUSH4 0xF2FDE38B EQ PUSH2 0x716 JUMPI DUP1 PUSH4 0xF4D0BD72 EQ PUSH2 0x735 JUMPI DUP1 PUSH4 0xF86329E1 EQ PUSH2 0x749 JUMPI PUSH0 PUSH0 REVERT JUMPDEST DUP1 PUSH4 0xB3CA7F2A EQ PUSH2 0x62A JUMPI DUP1 PUSH4 0xBE45FD62 EQ PUSH2 0x63E JUMPI DUP1 PUSH4 0xD505ACCF EQ PUSH2 0x65D JUMPI DUP1 PUSH4 0xDD62ED3E EQ PUSH2 0x67C JUMPI DUP1 PUSH4 0xE46DBD07 EQ PUSH2 0x6B0 JUMPI PUSH0 PUSH0 REVERT JUMPDEST DUP1 PUSH4 0x94EF2103 GT PUSH2 0xEE JUMPI DUP1 PUSH4 0x94EF2103 EQ PUSH2 0x59A JUMPI DUP1 PUSH4 0x95D89B41 EQ PUSH2 0x5B9 JUMPI DUP1 PUSH4 0xA9059CBB EQ PUSH2 0x5CD JUMPI DUP1 PUSH4 0xAF4FC206 EQ PUSH2 0x5EC JUMPI DUP1 PUSH4 0xB3841F26 EQ PUSH2 0x60B JUMPI PUSH0 PUSH0 REVERT JUMPDEST DUP1 PUSH4 0x7ECEBE00 EQ PUSH2 0x4E1 JUMPI DUP1 PUSH4 0x82E3D8BD EQ PUSH2 0x512 JUMPI DUP1 PUSH4 0x8943EC02 EQ PUSH2 0x545 JUMPI DUP1 PUSH4 0x8DA5CB5B EQ PUSH2 0x57D JUMPI PUSH0 PUSH0 REVERT JUMPDEST DUP1 PUSH4 0x313CE567 GT PUSH2 0x1AA JUMPI DUP1 PUSH4 0x6263913C GT PUSH2 0x16F JUMPI DUP1 PUSH4 0x6263913C EQ PUSH2 0x429 JUMPI DUP1 PUSH4 0x70A08231 EQ PUSH2 0x448 JUMPI DUP1 PUSH4 0x715018A6 EQ PUSH2 0x479 JUMPI DUP1 PUSH4 0x7B383F18 EQ PUSH2 0x48F JUMPI DUP1 PUSH4 0x7CC27B40 EQ PUSH2 0x4AE JUMPI PUSH0 PUSH0 REVERT JUMPDEST DUP1 PUSH4 0x313CE567 EQ PUSH2 0x371 JUMPI DUP1 PUSH4 0x3644E515 EQ PUSH2 0x38C JUMPI DUP1 PUSH4 0x38D52E0F EQ PUSH2 0x3A0 JUMPI DUP1 PUSH4 0x4206ABE9 EQ PUSH2 0x3EB JUMPI DUP1 PUSH4 0x6032F600 EQ PUSH2 0x40A JUMPI PUSH0 PUSH0 REVERT JUMPDEST DUP1 PUSH4 0x12958A6B GT PUSH2 0x1F0 JUMPI DUP1 PUSH4 0x12958A6B EQ PUSH2 0x2EE JUMPI DUP1 PUSH4 0x17B31167 EQ PUSH2 0x30F JUMPI DUP1 PUSH4 0x18160DDD EQ PUSH2 0x32E JUMPI DUP1 PUSH4 0x223ECF7E EQ PUSH2 0x34A JUMPI DUP1 PUSH4 0x23B872DD EQ PUSH2 0x352 JUMPI PUSH0 PUSH0 REVERT JUMPDEST DUP1 PUSH4 0x58D1573 EQ PUSH2 0x221 JUMPI DUP1 PUSH4 0x6FDDE03 EQ PUSH2 0x271 JUMPI DUP1 PUSH4 0x95EA7B3 EQ PUSH2 0x292 JUMPI DUP1 PUSH4 0x10AB2D01 EQ PUSH2 0x2C1 JUMPI JUMPDEST PUSH0 PUSH0 REVERT JUMPDEST CALLVALUE DUP1 ISZERO PUSH2 0x22C JUMPI PUSH0 PUSH0 REVERT JUMPDEST POP PUSH2 0x254 PUSH32 0x0 DUP2 JUMP JUMPDEST PUSH1 0x40 MLOAD PUSH1 0x1 PUSH1 0x1 PUSH1 0x80 SHL SUB SWAP1 SWAP2 AND DUP2 MSTORE PUSH1 0x20 ADD JUMPDEST PUSH1 0x40 MLOAD DUP1 SWAP2 SUB SWAP1 RETURN JUMPDEST CALLVALUE DUP1 ISZERO PUSH2 0x27C JUMPI PUSH0 PUSH0 REVERT JUMPDEST POP PUSH2 0x285 PUSH2 0x77C JUMP JUMPDEST PUSH1 0x40 MLOAD PUSH2 0x268 SWAP2 SWAP1 PUSH2 0x15CA JUMP JUMPDEST CALLVALUE DUP1 ISZERO PUSH2 0x29D JUMPI PUSH0 PUSH0 REVERT JUMPDEST POP PUSH2 0x2B1 PUSH2 0x2AC CALLDATASIZE PUSH1 0x4 PUSH2 0x15F0 JUMP JUMPDEST PUSH2 0x7BF JUMP JUMPDEST PUSH1 0x40 MLOAD SWAP1 ISZERO ISZERO DUP2 MSTORE PUSH1 0x20 ADD PUSH2 0x268 JUMP JUMPDEST CALLVALUE DUP1 ISZERO PUSH2 0x2CC JUMPI PUSH0 PUSH0 REVERT JUMPDEST POP PUSH2 0x2E0 PUSH2 0x2DB CALLDATASIZE PUSH1 0x4 PUSH2 0x161A JUMP JUMPDEST PUSH2 0x80F JUMP JUMPDEST PUSH1 0x40 MLOAD PUSH2 0x268 SWAP3 SWAP2 SWAP1 PUSH2 0x169F JUMP JUMPDEST PUSH2 0x301 PUSH2 0x2FC CALLDATASIZE PUSH1 0x4 PUSH2 0x16B9 JUMP JUMPDEST PUSH2 0x882 JUMP JUMPDEST PUSH1 0x40 MLOAD SWAP1 DUP2 MSTORE PUSH1 0x20 ADD PUSH2 0x268 JUMP JUMPDEST CALLVALUE DUP1 ISZERO PUSH2 0x31A JUMPI PUSH0 PUSH0 REVERT JUMPDEST POP PUSH2 0x301 PUSH2 0x329 CALLDATASIZE PUSH1 0x4 PUSH2 0x16D4 JUMP JUMPDEST PUSH2 0x89D JUMP JUMPDEST CALLVALUE DUP1 ISZERO PUSH2 0x339 JUMPI PUSH0 PUSH0 REVERT JUMPDEST POP PUSH9 0x5345CDF77EB68F44C SLOAD PUSH2 0x301 JUMP JUMPDEST PUSH2 0x301 PUSH2 0xA01 JUMP JUMPDEST CALLVALUE DUP1 ISZERO PUSH2 0x35D JUMPI PUSH0 PUSH0 REVERT JUMPDEST POP PUSH2 0x2B1 PUSH2 0x36C CALLDATASIZE PUSH1 0x4 PUSH2 0x1713 JUMP JUMPDEST PUSH2 0xA10 JUMP JUMPDEST CALLVALUE DUP1 ISZERO PUSH2 0x37C JUMPI PUSH0 PUSH0 REVERT JUMPDEST POP PUSH1 0x40 MLOAD PUSH1 0x12 DUP2 MSTORE PUSH1 0x20 ADD PUSH2 0x268 JUMP JUMPDEST CALLVALUE DUP1 ISZERO PUSH2 0x397 JUMPI PUSH0 PUSH0 REVERT JUMPDEST POP PUSH2 0x301 PUSH2 0xAB5 JUMP JUMPDEST CALLVALUE DUP1 ISZERO PUSH2 0x3AB JUMPI PUSH0 PUSH0 REVERT JUMPDEST POP PUSH2 0x3D3 PUSH32 0x0 DUP2 JUMP JUMPDEST PUSH1 0x40 MLOAD PUSH1 0x1 PUSH1 0x1 PUSH1 0xA0 SHL SUB SWAP1 SWAP2 AND DUP2 MSTORE PUSH1 0x20 ADD PUSH2 0x268 JUMP JUMPDEST CALLVALUE DUP1 ISZERO PUSH2 0x3F6 JUMPI PUSH0 PUSH0 REVERT JUMPDEST POP PUSH2 0x301 PUSH2 0x405 CALLDATASIZE PUSH1 0x4 PUSH2 0x1751 JUMP JUMPDEST PUSH2 0xB57 JUMP JUMPDEST CALLVALUE DUP1 ISZERO PUSH2 0x415 JUMPI PUSH0 PUSH0 REVERT JUMPDEST POP PUSH2 0x301 PUSH2 0x424 CALLDATASIZE PUSH1 0x4 PUSH2 0x1751 JUMP JUMPDEST PUSH2 0xBB9 JUMP JUMPDEST CALLVALUE DUP1 ISZERO PUSH2 0x434 JUMPI PUSH0 PUSH0 REVERT JUMPDEST POP PUSH2 0x301 PUSH2 0x443 CALLDATASIZE PUSH1 0x4 PUSH2 0x177E JUMP JUMPDEST PUSH2 0xBC4 JUMP JUMPDEST CALLVALUE DUP1 ISZERO PUSH2 0x453 JUMPI PUSH0 PUSH0 REVERT JUMPDEST POP PUSH2 0x301 PUSH2 0x462 CALLDATASIZE PUSH1 0x4 PUSH2 0x16B9 JUMP JUMPDEST PUSH4 0x87A211A2 PUSH1 0xC SWAP1 DUP2 MSTORE PUSH0 SWAP2 SWAP1 SWAP2 MSTORE PUSH1 0x20 SWAP1 KECCAK256 SLOAD SWAP1 JUMP JUMPDEST CALLVALUE DUP1 ISZERO PUSH2 0x484 JUMPI PUSH0 PUSH0 REVERT JUMPDEST POP PUSH2 0x48D PUSH2 0xBD7 JUMP JUMPDEST STOP JUMPDEST CALLVALUE DUP1 ISZERO PUSH2 0x49A JUMPI PUSH0 PUSH0 REVERT JUMPDEST POP PUSH2 0x301 PUSH2 0x4A9 CALLDATASIZE PUSH1 0x4 PUSH2 0x1751 JUMP JUMPDEST PUSH2 0xBEA JUMP JUMPDEST CALLVALUE DUP1 ISZERO PUSH2 0x4B9 JUMPI PUSH0 PUSH0 REVERT JUMPDEST POP PUSH2 0x254 PUSH32 0x0 DUP2 JUMP JUMPDEST CALLVALUE DUP1 ISZERO PUSH2 0x4EC JUMPI PUSH0 PUSH0 REVERT JUMPDEST POP PUSH2 0x301 PUSH2 0x4FB CALLDATASIZE PUSH1 0x4 PUSH2 0x16B9 JUMP JUMPDEST PUSH4 0x38377508 PUSH1 0xC SWAP1 DUP2 MSTORE PUSH0 SWAP2 SWAP1 SWAP2 MSTORE PUSH1 0x20 SWAP1 KECCAK256 SLOAD SWAP1 JUMP JUMPDEST CALLVALUE DUP1 ISZERO PUSH2 0x51D JUMPI PUSH0 PUSH0 REVERT JUMPDEST POP PUSH2 0x254 PUSH32 0x0 DUP2 JUMP JUMPDEST CALLVALUE DUP1 ISZERO PUSH2 0x550 JUMPI PUSH0 PUSH0 REVERT JUMPDEST POP PUSH2 0x564 PUSH2 0x55F CALLDATASIZE PUSH1 0x4 PUSH2 0x161A JUMP JUMPDEST PUSH2 0xC3B JUMP JUMPDEST PUSH1 0x40 MLOAD PUSH1 0x1 PUSH1 0x1 PUSH1 0xE0 SHL SUB NOT SWAP1 SWAP2 AND DUP2 MSTORE PUSH1 0x20 ADD PUSH2 0x268 JUMP JUMPDEST CALLVALUE DUP1 ISZERO PUSH2 0x588 JUMPI PUSH0 PUSH0 REVERT JUMPDEST POP PUSH1 0x2 SLOAD PUSH1 0x1 PUSH1 0x1 PUSH1 0xA0 SHL SUB AND PUSH2 0x3D3 JUMP JUMPDEST CALLVALUE DUP1 ISZERO PUSH2 0x5A5 JUMPI PUSH0 PUSH0 REVERT JUMPDEST POP PUSH2 0x301 PUSH2 0x5B4 CALLDATASIZE PUSH1 0x4 PUSH2 0x17A9 JUMP JUMPDEST PUSH2 0xC93 JUMP JUMPDEST CALLVALUE DUP1 ISZERO PUSH2 0x5C4 JUMPI PUSH0 PUSH0 REVERT JUMPDEST POP PUSH2 0x285 PUSH2 0xD6F JUMP JUMPDEST CALLVALUE DUP1 ISZERO PUSH2 0x5D8 JUMPI PUSH0 PUSH0 REVERT JUMPDEST POP PUSH2 0x2B1 PUSH2 0x5E7 CALLDATASIZE PUSH1 0x4 PUSH2 0x15F0 JUMP JUMPDEST PUSH2 0xDA2 JUMP JUMPDEST CALLVALUE DUP1 ISZERO PUSH2 0x5F7 JUMPI PUSH0 PUSH0 REVERT JUMPDEST POP PUSH2 0x301 PUSH2 0x606 CALLDATASIZE PUSH1 0x4 PUSH2 0x16D4 JUMP JUMPDEST PUSH2 0xE06 JUMP JUMPDEST CALLVALUE DUP1 ISZERO PUSH2 0x616 JUMPI PUSH0 PUSH0 REVERT JUMPDEST POP PUSH2 0x301 PUSH2 0x625 CALLDATASIZE PUSH1 0x4 PUSH2 0x17E5 JUMP JUMPDEST PUSH2 0xEA8 JUMP JUMPDEST CALLVALUE DUP1 ISZERO PUSH2 0x635 JUMPI PUSH0 PUSH0 REVERT JUMPDEST POP PUSH2 0x301 PUSH2 0xEC8 JUMP JUMPDEST CALLVALUE DUP1 ISZERO PUSH2 0x649 JUMPI PUSH0 PUSH0 REVERT JUMPDEST POP PUSH2 0x2B1 PUSH2 0x658 CALLDATASIZE PUSH1 0x4 PUSH2 0x161A JUMP JUMPDEST PUSH2 0xF0B JUMP JUMPDEST CALLVALUE DUP1 ISZERO PUSH2 0x668 JUMPI PUSH0 PUSH0 REVERT JUMPDEST POP PUSH2 0x48D PUSH2 0x677 CALLDATASIZE PUSH1 0x4 PUSH2 0x1823 JUMP JUMPDEST PUSH2 0xF95 JUMP JUMPDEST CALLVALUE DUP1 ISZERO PUSH2 0x687 JUMPI PUSH0 PUSH0 REVERT JUMPDEST POP PUSH2 0x301 PUSH2 0x696 CALLDATASIZE PUSH1 0x4 PUSH2 0x188D JUMP JUMPDEST PUSH1 0x20 MSTORE PUSH4 0x7F5E9F20 PUSH1 0xC SWAP1 DUP2 MSTORE PUSH0 SWAP2 SWAP1 SWAP2 MSTORE PUSH1 0x34 SWAP1 KECCAK256 SLOAD SWAP1 JUMP JUMPDEST CALLVALUE DUP1 ISZERO PUSH2 0x6BB JUMPI PUSH0 PUSH0 REVERT JUMPDEST POP PUSH2 0x301 PUSH0 SLOAD DUP2 JUMP JUMPDEST CALLVALUE DUP1 ISZERO PUSH2 0x6CF JUMPI PUSH0 PUSH0 REVERT JUMPDEST POP PUSH2 0x301 PUSH2 0x6DE CALLDATASIZE PUSH1 0x4 PUSH2 0x16D4 JUMP JUMPDEST PUSH2 0x113F JUMP JUMPDEST CALLVALUE DUP1 ISZERO PUSH2 0x6EE JUMPI PUSH0 PUSH0 REVERT JUMPDEST POP PUSH2 0x301 PUSH32 0x0 DUP2 JUMP JUMPDEST CALLVALUE DUP1 ISZERO PUSH2 0x721 JUMPI PUSH0 PUSH0 REVERT JUMPDEST POP PUSH2 0x48D PUSH2 0x730 CALLDATASIZE PUSH1 0x4 PUSH2 0x16B9 JUMP JUMPDEST PUSH2 0x12DD JUMP JUMPDEST CALLVALUE DUP1 ISZERO PUSH2 0x740 JUMPI PUSH0 PUSH0 REVERT JUMPDEST POP PUSH2 0x301 PUSH2 0x131F JUMP JUMPDEST CALLVALUE DUP1 ISZERO PUSH2 0x754 JUMPI PUSH0 PUSH0 REVERT JUMPDEST POP PUSH2 0x254 PUSH32 0x0 DUP2 JUMP JUMPDEST PUSH1 0x40 DUP1 MLOAD PUSH32 0x0 PUSH1 0x20 DUP3 ADD MSTORE PUSH1 0x60 SWAP2 ADD JUMPDEST PUSH1 0x40 MLOAD PUSH1 0x20 DUP2 DUP4 SUB SUB DUP2 MSTORE SWAP1 PUSH1 0x40 MSTORE SWAP1 POP SWAP1 JUMP JUMPDEST PUSH0 DUP3 PUSH1 0x20 MSTORE PUSH4 0x7F5E9F20 PUSH1 0xC MSTORE CALLER PUSH0 MSTORE DUP2 PUSH1 0x34 PUSH1 0xC KECCAK256 SSTORE DUP2 PUSH0 MSTORE PUSH1 0x2C MLOAD PUSH1 0x60 SHR CALLER PUSH32 0x8C5BE1E5EBEC7D5BD14F71427D1E84F3DD0314C0F7B2291E5B200AC8C7C3B925 PUSH1 0x20 PUSH0 LOG3 POP PUSH1 0x1 JUMPDEST SWAP3 SWAP2 POP POP JUMP JUMPDEST PUSH0 PUSH1 0x60 PUSH2 0x81A PUSH2 0x1357 JUMP JUMPDEST DUP6 PUSH1 0x1 PUSH1 0x1 PUSH1 0xA0 SHL SUB AND DUP6 DUP6 DUP6 PUSH1 0x40 MLOAD PUSH2 0x835 SWAP3 SWAP2 SWAP1 PUSH2 0x18B9 JUMP JUMPDEST PUSH0 PUSH1 0x40 MLOAD DUP1 DUP4 SUB DUP2 DUP6 DUP8 GAS CALL SWAP3 POP POP POP RETURNDATASIZE DUP1 PUSH0 DUP2 EQ PUSH2 0x86F JUMPI PUSH1 0x40 MLOAD SWAP2 POP PUSH1 0x1F NOT PUSH1 0x3F RETURNDATASIZE ADD AND DUP3 ADD PUSH1 0x40 MSTORE RETURNDATASIZE DUP3 MSTORE RETURNDATASIZE PUSH0 PUSH1 0x20 DUP5 ADD RETURNDATACOPY PUSH2 0x874 JUMP JUMPDEST PUSH1 0x60 SWAP2 POP JUMPDEST POP SWAP2 POP SWAP2 POP SWAP5 POP SWAP5 SWAP3 POP POP POP JUMP JUMPDEST PUSH0 PUSH2 0x88C CALLVALUE PUSH2 0xBEA JUMP JUMPDEST SWAP1 POP PUSH2 0x898 DUP3 DUP3 PUSH2 0x1384 JUMP JUMPDEST SWAP2 SWAP1 POP JUMP JUMPDEST PUSH0 PUSH0 SELFBALANCE SWAP1 POP PUSH32 0x0 PUSH1 0x1 PUSH1 0x1 PUSH1 0xA0 SHL SUB AND DUP6 PUSH1 0x1 PUSH1 0x1 PUSH1 0xA0 SHL SUB AND EQ PUSH2 0x96D JUMPI PUSH1 0x40 MLOAD PUSH4 0x95EA7B3 PUSH1 0xE0 SHL DUP2 MSTORE PUSH1 0x1 PUSH1 0x1 PUSH1 0xA0 SHL SUB DUP7 DUP2 AND PUSH1 0x4 DUP4 ADD MSTORE PUSH1 0x24 DUP3 ADD DUP7 SWAP1 MSTORE PUSH32 0x0 AND SWAP1 PUSH4 0x95EA7B3 SWAP1 PUSH1 0x44 ADD PUSH1 0x20 PUSH1 0x40 MLOAD DUP1 DUP4 SUB DUP2 PUSH0 DUP8 GAS CALL ISZERO DUP1 ISZERO PUSH2 0x947 JUMPI RETURNDATASIZE PUSH0 PUSH0 RETURNDATACOPY RETURNDATASIZE PUSH0 REVERT JUMPDEST POP POP POP POP PUSH1 0x40 MLOAD RETURNDATASIZE PUSH1 0x1F NOT PUSH1 0x1F DUP3 ADD AND DUP3 ADD DUP1 PUSH1 0x40 MSTORE POP DUP2 ADD SWAP1 PUSH2 0x96B SWAP2 SWAP1 PUSH2 0x18C8 JUMP JUMPDEST POP JUMPDEST PUSH1 0x40 MLOAD PUSH3 0x30197B PUSH1 0xE9 SHL DUP2 MSTORE PUSH1 0x4 DUP2 ADD DUP6 SWAP1 MSTORE PUSH1 0x1 PUSH1 0x1 PUSH1 0xA0 SHL SUB DUP7 AND SWAP1 PUSH4 0x6032F600 SWAP1 PUSH1 0x24 ADD PUSH1 0x20 PUSH1 0x40 MLOAD DUP1 DUP4 SUB DUP2 PUSH0 DUP8 GAS CALL ISZERO DUP1 ISZERO PUSH2 0x9B0 JUMPI RETURNDATASIZE PUSH0 PUSH0 RETURNDATACOPY RETURNDATASIZE PUSH0 REVERT JUMPDEST POP POP POP POP PUSH1 0x40 MLOAD RETURNDATASIZE PUSH1 0x1F NOT PUSH1 0x1F DUP3 ADD AND DUP3 ADD DUP1 PUSH1 0x40 MSTORE POP DUP2 ADD SWAP1 PUSH2 0x9D4 SWAP2 SWAP1 PUSH2 0x18E7 JUMP JUMPDEST POP DUP4 PUSH2 0x9E3 PUSH2 0x4A9 DUP4 SELFBALANCE PUSH2 0x1912 JUMP JUMPDEST PUSH2 0x9ED SWAP2 SWAP1 PUSH2 0x1912 JUMP JUMPDEST SWAP2 POP PUSH2 0x9F9 DUP4 DUP4 PUSH2 0x1384 JUMP JUMPDEST POP SWAP4 SWAP3 POP POP POP JUMP JUMPDEST PUSH0 PUSH2 0xA0B CALLER PUSH2 0x882 JUMP JUMPDEST SWAP1 POP SWAP1 JUMP JUMPDEST PUSH0 DUP4 PUSH1 0x60 SHL CALLER PUSH1 0x20 MSTORE PUSH4 0x7F5E9F20 DUP2 OR PUSH1 0xC MSTORE PUSH1 0x34 PUSH1 0xC KECCAK256 DUP1 SLOAD DUP1 NOT ISZERO PUSH2 0xA4C JUMPI DUP1 DUP6 GT ISZERO PUSH2 0xA46 JUMPI PUSH4 0x13BE252B PUSH0 MSTORE PUSH1 0x4 PUSH1 0x1C REVERT JUMPDEST DUP5 DUP2 SUB DUP3 SSTORE JUMPDEST POP POP PUSH4 0x87A211A2 DUP2 OR PUSH1 0xC MSTORE PUSH1 0x20 PUSH1 0xC KECCAK256 DUP1 SLOAD DUP1 DUP6 GT ISZERO PUSH2 0xA74 JUMPI PUSH4 0xF4D678B8 PUSH0 MSTORE PUSH1 0x4 PUSH1 0x1C REVERT JUMPDEST DUP5 DUP2 SUB DUP3 SSTORE POP POP DUP4 PUSH0 MSTORE PUSH1 0x20 PUSH1 0xC KECCAK256 DUP4 DUP2 SLOAD ADD DUP2 SSTORE POP DUP3 PUSH1 0x20 MSTORE PUSH1 0xC MLOAD PUSH1 0x60 SHR DUP2 PUSH1 0x60 SHR PUSH0 MLOAD PUSH1 0x20 PUSH2 0x19F6 PUSH0 CODECOPY PUSH0 MLOAD SWAP1 PUSH0 MSTORE PUSH1 0x20 DUP1 LOG3 POP POP PUSH1 0x1 SWAP4 SWAP3 POP POP POP JUMP JUMPDEST PUSH0 PUSH32 0x0 DUP1 PUSH2 0xAEE JUMPI PUSH2 0xAE4 PUSH2 0x77C JUMP JUMPDEST DUP1 MLOAD SWAP1 PUSH1 0x20 ADD KECCAK256 SWAP1 POP JUMPDEST PUSH1 0x40 DUP1 MLOAD PUSH32 0x8B73C3C69BB8FE3D512ECC4CF759CC79239F7B179B0FFACAA9A75D522B39400F DUP2 MSTORE PUSH1 0x20 DUP2 ADD SWAP3 SWAP1 SWAP3 MSTORE PUSH32 0xC89EFDAA54C0F20C7ADF612882DF0950F5A951637E0307CDCB4C672F298B8BC6 SWAP1 DUP3 ADD MSTORE CHAINID PUSH1 0x60 DUP3 ADD MSTORE ADDRESS PUSH1 0x80 DUP3 ADD MSTORE PUSH1 0xA0 SWAP1 KECCAK256 SWAP2 SWAP1 POP JUMP JUMPDEST PUSH0 PUSH2 0xB8B DUP3 PUSH1 0x1 PUSH1 0x1 PUSH1 0x80 SHL SUB PUSH32 0x0 AND PUSH2 0x1925 JUMP JUMPDEST DUP3 PUSH2 0xB94 PUSH2 0xEC8 JUMP JUMPDEST PUSH2 0xB9E SWAP2 SWAP1 PUSH2 0x1938 JUMP JUMPDEST PUSH2 0xBA8 SWAP2 SWAP1 PUSH2 0x194F JUMP JUMPDEST SWAP1 POP DUP1 SELFBALANCE LT ISZERO PUSH2 0x898 JUMPI POP SELFBALANCE SWAP2 SWAP1 POP JUMP JUMPDEST PUSH0 PUSH2 0x809 DUP3 CALLER PUSH2 0xEA8 JUMP JUMPDEST PUSH0 PUSH2 0xBD0 DUP4 CALLER DUP5 PUSH2 0xC93 JUMP JUMPDEST SWAP4 SWAP3 POP POP POP JUMP JUMPDEST PUSH2 0xBDF PUSH2 0x1357 JUMP JUMPDEST PUSH2 0xBE8 PUSH0 PUSH2 0x13DF JUMP JUMPDEST JUMP JUMPDEST PUSH0 PUSH2 0xC1E DUP3 PUSH1 0x1 PUSH1 0x1 PUSH1 0x80 SHL SUB PUSH32 0x0 AND PUSH2 0x1925 JUMP JUMPDEST DUP3 PUSH2 0xC27 PUSH2 0x131F JUMP JUMPDEST PUSH2 0xC31 SWAP2 SWAP1 PUSH2 0x1938 JUMP JUMPDEST PUSH2 0x809 SWAP2 SWAP1 PUSH2 0x194F JUMP JUMPDEST PUSH0 CALLER PUSH1 0x1 PUSH1 0x1 PUSH1 0xA0 SHL SUB PUSH32 0x0 AND EQ PUSH2 0xC70 JUMPI PUSH0 PUSH0 REVERT JUMPDEST PUSH2 0xC82 DUP6 PUSH2 0xC7D DUP7 PUSH2 0xB57 JUMP JUMPDEST PUSH2 0x1430 JUMP JUMPDEST POP PUSH4 0x44A1F601 PUSH1 0xE1 SHL SWAP5 SWAP4 POP POP POP POP JUMP JUMPDEST PUSH0 PUSH1 0x1 PUSH1 0x1 PUSH1 0xA0 SHL SUB PUSH32 0x0 AND PUSH4 0xD505ACCF CALLER ADDRESS DUP8 DUP7 CALLDATALOAD PUSH2 0xCD8 PUSH1 0x40 DUP10 ADD PUSH1 0x20 DUP11 ADD PUSH2 0x196E JUMP JUMPDEST PUSH1 0x40 DUP1 MLOAD PUSH1 0x1 PUSH1 0x1 PUSH1 0xE0 SHL SUB NOT PUSH1 0xE0 DUP10 SWAP1 SHL AND DUP2 MSTORE PUSH1 0x1 PUSH1 0x1 PUSH1 0xA0 SHL SUB SWAP7 DUP8 AND PUSH1 0x4 DUP3 ADD MSTORE SWAP6 SWAP1 SWAP5 AND PUSH1 0x24 DUP7 ADD MSTORE PUSH1 0x44 DUP6 ADD SWAP3 SWAP1 SWAP3 MSTORE PUSH1 0x64 DUP5 ADD MSTORE PUSH1 0xFF AND PUSH1 0x84 DUP4 ADD MSTORE DUP6 ADD CALLDATALOAD PUSH1 0xA4 DUP3 ADD MSTORE PUSH1 0x60 DUP6 ADD CALLDATALOAD PUSH1 0xC4 DUP3 ADD MSTORE PUSH1 0xE4 ADD PUSH0 PUSH1 0x40 MLOAD DUP1 DUP4 SUB DUP2 PUSH0 DUP8 DUP1 EXTCODESIZE ISZERO DUP1 ISZERO PUSH2 0xD47 JUMPI PUSH0 PUSH0 REVERT JUMPDEST POP GAS CALL ISZERO DUP1 ISZERO PUSH2 0xD59 JUMPI RETURNDATASIZE PUSH0 PUSH0 RETURNDATACOPY RETURNDATASIZE PUSH0 REVERT JUMPDEST POP POP POP POP PUSH2 0xD67 DUP5 DUP5 PUSH2 0xEA8 JUMP JUMPDEST SWAP5 SWAP4 POP POP POP POP JUMP JUMPDEST PUSH1 0x40 DUP1 MLOAD PUSH32 0x0 PUSH1 0x20 DUP3 ADD MSTORE PUSH1 0x60 SWAP2 ADD PUSH2 0x7AB JUMP JUMPDEST PUSH0 PUSH4 0x87A211A2 PUSH1 0xC MSTORE CALLER PUSH0 MSTORE PUSH1 0x20 PUSH1 0xC KECCAK256 DUP1 SLOAD DUP1 DUP5 GT ISZERO PUSH2 0xDCA JUMPI PUSH4 0xF4D678B8 PUSH0 MSTORE PUSH1 0x4 PUSH1 0x1C REVERT JUMPDEST DUP4 DUP2 SUB DUP3 SSTORE POP POP DUP3 PUSH0 MSTORE PUSH1 0x20 PUSH1 0xC KECCAK256 DUP3 DUP2 SLOAD ADD DUP2 SSTORE POP DUP2 PUSH1 0x20 MSTORE PUSH1 0xC MLOAD PUSH1 0x60 SHR CALLER PUSH0 MLOAD PUSH1 0x20 PUSH2 0x19F6 PUSH0 CODECOPY PUSH0 MLOAD SWAP1 PUSH0 MSTORE PUSH1 0x20 DUP1 LOG3 POP PUSH1 0x1 SWAP3 SWAP2 POP POP JUMP JUMPDEST PUSH1 0x40 MLOAD PUSH4 0x5F22FEB1 PUSH1 0xE1 SHL DUP2 MSTORE PUSH1 0x1 PUSH1 0x1 PUSH1 0xA0 SHL SUB DUP5 DUP2 AND PUSH1 0x4 DUP4 ADD MSTORE PUSH1 0x24 DUP3 ADD DUP5 SWAP1 MSTORE PUSH1 0x60 PUSH1 0x44 DUP4 ADD MSTORE PUSH0 PUSH1 0x64 DUP4 ADD DUP2 SWAP1 MSTORE SWAP2 SELFBALANCE SWAP2 PUSH32 0x0 AND SWAP1 PUSH4 0xBE45FD62 SWAP1 PUSH1 0x84 ADD PUSH1 0x20 PUSH1 0x40 MLOAD DUP1 DUP4 SUB DUP2 PUSH0 DUP8 GAS CALL ISZERO DUP1 ISZERO PUSH2 0xE84 JUMPI RETURNDATASIZE PUSH0 PUSH0 RETURNDATACOPY RETURNDATASIZE PUSH0 REVERT JUMPDEST POP POP POP POP PUSH1 0x40 MLOAD RETURNDATASIZE PUSH1 0x1F NOT PUSH1 0x1F DUP3 ADD AND DUP3 ADD DUP1 PUSH1 0x40 MSTORE POP DUP2 ADD SWAP1 PUSH2 0x9D4 SWAP2 SWAP1 PUSH2 0x18C8 JUMP JUMPDEST PUSH0 PUSH2 0xEB2 DUP4 PUSH2 0xB57 JUMP JUMPDEST SWAP1 POP PUSH2 0xEBE CALLER DUP5 PUSH2 0x14D2 JUMP JUMPDEST PUSH2 0x809 DUP3 DUP3 PUSH2 0x1430 JUMP JUMPDEST PUSH0 PUSH32 0x0 PUSH1 0x1 PUSH1 0x1 PUSH1 0x80 SHL SUB AND PUSH1 0x1 SLOAD TIMESTAMP PUSH2 0xF01 SWAP2 SWAP1 PUSH2 0x1912 JUMP JUMPDEST PUSH2 0xA0B SWAP2 SWAP1 PUSH2 0x1938 JUMP JUMPDEST PUSH0 PUSH2 0xF16 DUP6 DUP6 PUSH2 0xDA2 JUMP JUMPDEST POP PUSH1 0x40 MLOAD PUSH4 0x44A1F601 PUSH1 0xE1 SHL DUP2 MSTORE PUSH1 0x1 PUSH1 0x1 PUSH1 0xA0 SHL SUB DUP7 AND SWAP1 PUSH4 0x8943EC02 SWAP1 PUSH2 0xF49 SWAP1 CALLER SWAP1 DUP9 SWAP1 DUP9 SWAP1 DUP9 SWAP1 PUSH1 0x4 ADD PUSH2 0x1987 JUMP JUMPDEST PUSH1 0x20 PUSH1 0x40 MLOAD DUP1 DUP4 SUB DUP2 PUSH0 DUP8 GAS CALL ISZERO DUP1 ISZERO PUSH2 0xF65 JUMPI RETURNDATASIZE PUSH0 PUSH0 RETURNDATACOPY RETURNDATASIZE PUSH0 REVERT JUMPDEST POP POP POP POP PUSH1 0x40 MLOAD RETURNDATASIZE PUSH1 0x1F NOT PUSH1 0x1F DUP3 ADD AND DUP3 ADD DUP1 PUSH1 0x40 MSTORE POP DUP2 ADD SWAP1 PUSH2 0xF89 SWAP2 SWAP1 PUSH2 0x19CE JUMP JUMPDEST POP PUSH1 0x1 SWAP6 SWAP5 POP POP POP POP POP JUMP JUMPDEST PUSH32 0x0 DUP1 PUSH2 0xFCD JUMPI PUSH2 0xFC3 PUSH2 0x77C JUMP JUMPDEST DUP1 MLOAD SWAP1 PUSH1 0x20 ADD KECCAK256 SWAP1 POP JUMPDEST PUSH32 0xC89EFDAA54C0F20C7ADF612882DF0950F5A951637E0307CDCB4C672F298B8BC6 TIMESTAMP DUP7 LT ISZERO PUSH2 0x1003 JUMPI PUSH4 0x1A15A3CC PUSH0 MSTORE PUSH1 0x4 PUSH1 0x1C REVERT JUMPDEST PUSH1 0x40 MLOAD DUP10 PUSH1 0x60 SHL PUSH1 0x60 SHR SWAP10 POP DUP9 PUSH1 0x60 SHL PUSH1 0x60 SHR SWAP9 POP PUSH6 0x383775081901 PUSH1 0xE MSTORE DUP10 PUSH0 MSTORE PUSH1 0x20 PUSH1 0xC KECCAK256 DUP1 SLOAD PUSH32 0x8B73C3C69BB8FE3D512ECC4CF759CC79239F7B179B0FFACAA9A75D522B39400F DUP4 MSTORE DUP5 PUSH1 0x20 DUP5 ADD MSTORE DUP4 PUSH1 0x40 DUP5 ADD MSTORE CHAINID PUSH1 0x60 DUP5 ADD MSTORE ADDRESS PUSH1 0x80 DUP5 ADD MSTORE PUSH1 0xA0 DUP4 KECCAK256 PUSH1 0x2E MSTORE PUSH32 0x6E71EDAE12B1B97F4D1F60370FEF10105FA2FAAE0126114A169C64845D6126C9 DUP4 MSTORE DUP12 PUSH1 0x20 DUP5 ADD MSTORE DUP11 PUSH1 0x40 DUP5 ADD MSTORE DUP10 PUSH1 0x60 DUP5 ADD MSTORE DUP1 PUSH1 0x80 DUP5 ADD MSTORE DUP9 PUSH1 0xA0 DUP5 ADD MSTORE PUSH1 0xC0 DUP4 KECCAK256 PUSH1 0x4E MSTORE PUSH1 0x42 PUSH1 0x2C KECCAK256 PUSH0 MSTORE DUP8 PUSH1 0xFF AND PUSH1 0x20 MSTORE DUP7 PUSH1 0x40 MSTORE DUP6 PUSH1 0x60 MSTORE PUSH1 0x20 DUP1 PUSH1 0x80 PUSH0 PUSH1 0x1 GAS STATICCALL DUP13 RETURNDATASIZE MLOAD EQ PUSH2 0x10EB JUMPI PUSH4 0xDDAFBAEF PUSH0 MSTORE PUSH1 0x4 PUSH1 0x1C REVERT JUMPDEST ADD SWAP1 SSTORE PUSH4 0x3FAF4F9 PUSH1 0xA5 SHL DUP10 OR PUSH1 0x40 MSTORE PUSH1 0x34 PUSH1 0x2C KECCAK256 DUP9 SWAP1 SSTORE DUP9 DUP11 PUSH32 0x8C5BE1E5EBEC7D5BD14F71427D1E84F3DD0314C0F7B2291E5B200AC8C7C3B925 PUSH1 0x20 PUSH1 0x60 DUP6 ADD LOG3 PUSH1 0x40 MSTORE POP POP PUSH0 PUSH1 0x60 MSTORE POP POP POP POP POP POP POP JUMP JUMPDEST PUSH1 0x40 MLOAD PUSH4 0x70A08231 PUSH1 0xE0 SHL DUP2 MSTORE ADDRESS PUSH1 0x4 DUP3 ADD MSTORE PUSH0 SWAP1 DUP2 SWAP1 PUSH1 0x1 PUSH1 0x1 PUSH1 0xA0 SHL SUB PUSH32 0x0 AND SWAP1 PUSH4 0x70A08231 SWAP1 PUSH1 0x24 ADD PUSH1 0x20 PUSH1 0x40 MLOAD DUP1 DUP4 SUB DUP2 DUP7 GAS STATICCALL ISZERO DUP1 ISZERO PUSH2 0x11A5 JUMPI RETURNDATASIZE PUSH0 PUSH0 RETURNDATACOPY RETURNDATASIZE PUSH0 REVERT JUMPDEST POP POP POP POP PUSH1 0x40 MLOAD RETURNDATASIZE PUSH1 0x1F NOT PUSH1 0x1F DUP3 ADD AND DUP3 ADD DUP1 PUSH1 0x40 MSTORE POP DUP2 ADD SWAP1 PUSH2 0x11C9 SWAP2 SWAP1 PUSH2 0x18E7 JUMP JUMPDEST SWAP1 POP DUP5 PUSH1 0x1 PUSH1 0x1 PUSH1 0xA0 SHL SUB AND PUSH4 0x223ECF7E DUP6 PUSH1 0x40 MLOAD DUP3 PUSH4 0xFFFFFFFF AND PUSH1 0xE0 SHL DUP2 MSTORE PUSH1 0x4 ADD PUSH1 0x20 PUSH1 0x40 MLOAD DUP1 DUP4 SUB DUP2 DUP6 DUP9 GAS CALL ISZERO DUP1 ISZERO PUSH2 0x1209 JUMPI RETURNDATASIZE PUSH0 PUSH0 RETURNDATACOPY RETURNDATASIZE PUSH0 REVERT JUMPDEST POP POP POP POP POP PUSH1 0x40 MLOAD RETURNDATASIZE PUSH1 0x1F NOT PUSH1 0x1F DUP3 ADD AND DUP3 ADD DUP1 PUSH1 0x40 MSTORE POP DUP2 ADD SWAP1 PUSH2 0x122E SWAP2 SWAP1 PUSH2 0x18E7 JUMP JUMPDEST POP PUSH1 0x40 MLOAD PUSH4 0x70A08231 PUSH1 0xE0 SHL DUP2 MSTORE ADDRESS PUSH1 0x4 DUP3 ADD MSTORE DUP5 SWAP1 PUSH2 0x12C7 SWAP1 DUP4 SWAP1 PUSH1 0x1 PUSH1 0x1 PUSH1 0xA0 SHL SUB PUSH32 0x0 AND SWAP1 PUSH4 0x70A08231 SWAP1 PUSH1 0x24 ADD PUSH1 0x20 PUSH1 0x40 MLOAD DUP1 DUP4 SUB DUP2 DUP7 GAS STATICCALL ISZERO DUP1 ISZERO PUSH2 0x1299 JUMPI RETURNDATASIZE PUSH0 PUSH0 RETURNDATACOPY RETURNDATASIZE PUSH0 REVERT JUMPDEST POP POP POP POP PUSH1 0x40 MLOAD RETURNDATASIZE PUSH1 0x1F NOT PUSH1 0x1F DUP3 ADD AND DUP3 ADD DUP1 PUSH1 0x40 MSTORE POP DUP2 ADD SWAP1 PUSH2 0x12BD SWAP2 SWAP1 PUSH2 0x18E7 JUMP JUMPDEST PUSH2 0x405 SWAP2 SWAP1 PUSH2 0x1912 JUMP JUMPDEST PUSH2 0x12D1 SWAP2 SWAP1 PUSH2 0x1912 JUMP JUMPDEST SWAP2 POP PUSH2 0x9F9 DUP4 DUP4 PUSH2 0x1430 JUMP JUMPDEST PUSH2 0x12E5 PUSH2 0x1357 JUMP JUMPDEST PUSH1 0x1 PUSH1 0x1 PUSH1 0xA0 SHL SUB DUP2 AND PUSH2 0x1313 JUMPI PUSH1 0x40 MLOAD PUSH4 0x1E4FBDF7 PUSH1 0xE0 SHL DUP2 MSTORE PUSH0 PUSH1 0x4 DUP3 ADD MSTORE PUSH1 0x24 ADD JUMPDEST PUSH1 0x40 MLOAD DUP1 SWAP2 SUB SWAP1 REVERT JUMPDEST PUSH2 0x131C DUP2 PUSH2 0x13DF JUMP JUMPDEST POP JUMP JUMPDEST PUSH0 PUSH32 0x0 PUSH1 0x1 PUSH1 0x1 PUSH1 0x80 SHL SUB AND PUSH0 SLOAD TIMESTAMP PUSH2 0xF01 SWAP2 SWAP1 PUSH2 0x1912 JUMP JUMPDEST PUSH1 0x2 SLOAD PUSH1 0x1 PUSH1 0x1 PUSH1 0xA0 SHL SUB AND CALLER EQ PUSH2 0xBE8 JUMPI PUSH1 0x40 MLOAD PUSH4 0x118CDAA7 PUSH1 0xE0 SHL DUP2 MSTORE CALLER PUSH1 0x4 DUP3 ADD MSTORE PUSH1 0x24 ADD PUSH2 0x130A JUMP JUMPDEST PUSH2 0x13B7 PUSH1 0x1 PUSH1 0x1 PUSH1 0x80 SHL SUB PUSH32 0x0 AND DUP3 PUSH2 0x194F JUMP JUMPDEST PUSH0 PUSH0 DUP3 DUP3 SLOAD PUSH2 0x13C6 SWAP2 SWAP1 PUSH2 0x1925 JUMP JUMPDEST SWAP1 SWAP2 SSTORE POP PUSH2 0x13D6 SWAP1 POP DUP3 DUP3 PUSH2 0x1533 JUMP JUMPDEST POP POP JUMP JUMPDEST POP POP POP JUMP JUMPDEST PUSH1 0x2 DUP1 SLOAD PUSH1 0x1 PUSH1 0x1 PUSH1 0xA0 SHL SUB DUP4 DUP2 AND PUSH1 0x1 PUSH1 0x1 PUSH1 0xA0 SHL SUB NOT DUP4 AND DUP2 OR SWAP1 SWAP4 SSTORE PUSH1 0x40 MLOAD SWAP2 AND SWAP2 SWAP1 DUP3 SWAP1 PUSH32 0x8BE0079C531659141344CD1FD0A4F28419497F9722A3DAAFE3B4186F6B6457E0 SWAP1 PUSH0 SWAP1 LOG3 POP POP JUMP JUMPDEST PUSH2 0x1463 PUSH1 0x1 PUSH1 0x1 PUSH1 0x80 SHL SUB PUSH32 0x0 AND DUP3 PUSH2 0x194F JUMP JUMPDEST PUSH1 0x1 PUSH0 DUP3 DUP3 SLOAD PUSH2 0x1473 SWAP2 SWAP1 PUSH2 0x1925 JUMP JUMPDEST SWAP1 SWAP2 SSTORE POP POP PUSH1 0x40 MLOAD PUSH0 SWAP1 PUSH1 0x1 PUSH1 0x1 PUSH1 0xA0 SHL SUB DUP5 AND SWAP1 DUP4 SWAP1 DUP4 DUP2 DUP2 DUP2 DUP6 DUP8 GAS CALL SWAP3 POP POP POP RETURNDATASIZE DUP1 PUSH0 DUP2 EQ PUSH2 0x14C0 JUMPI PUSH1 0x40 MLOAD SWAP2 POP PUSH1 0x1F NOT PUSH1 0x3F RETURNDATASIZE ADD AND DUP3 ADD PUSH1 0x40 MSTORE RETURNDATASIZE DUP3 MSTORE RETURNDATASIZE PUSH0 PUSH1 0x20 DUP5 ADD RETURNDATACOPY PUSH2 0x14C5 JUMP JUMPDEST PUSH1 0x60 SWAP2 POP JUMPDEST POP POP SWAP1 POP DUP1 PUSH2 0x13DA JUMPI PUSH0 PUSH0 REVERT JUMPDEST PUSH4 0x87A211A2 PUSH1 0xC MSTORE DUP2 PUSH0 MSTORE PUSH1 0x20 PUSH1 0xC KECCAK256 DUP1 SLOAD DUP1 DUP4 GT ISZERO PUSH2 0x14F9 JUMPI PUSH4 0xF4D678B8 PUSH0 MSTORE PUSH1 0x4 PUSH1 0x1C REVERT JUMPDEST DUP3 SWAP1 SUB SWAP1 SSTORE PUSH9 0x5345CDF77EB68F44C DUP1 SLOAD DUP3 SWAP1 SUB SWAP1 SSTORE PUSH0 DUP2 DUP2 MSTORE PUSH1 0x1 PUSH1 0x1 PUSH1 0xA0 SHL SUB DUP4 AND PUSH0 MLOAD PUSH1 0x20 PUSH2 0x19F6 PUSH0 CODECOPY PUSH0 MLOAD SWAP1 PUSH0 MSTORE PUSH1 0x20 DUP4 LOG3 POP POP JUMP JUMPDEST PUSH9 0x5345CDF77EB68F44C SLOAD DUP2 DUP2 ADD DUP2 DUP2 LT ISZERO PUSH2 0x1556 JUMPI PUSH4 0xE5CFE957 PUSH0 MSTORE PUSH1 0x4 PUSH1 0x1C REVERT JUMPDEST DUP1 PUSH9 0x5345CDF77EB68F44C SSTORE POP POP PUSH4 0x87A211A2 PUSH1 0xC MSTORE DUP2 PUSH0 MSTORE PUSH1 0x20 PUSH1 0xC KECCAK256 DUP2 DUP2 SLOAD ADD DUP2 SSTORE POP DUP1 PUSH1 0x20 MSTORE PUSH1 0xC MLOAD PUSH1 0x60 SHR PUSH0 PUSH0 MLOAD PUSH1 0x20 PUSH2 0x19F6 PUSH0 CODECOPY PUSH0 MLOAD SWAP1 PUSH0 MSTORE PUSH1 0x20 DUP1 LOG3 POP POP JUMP JUMPDEST PUSH0 DUP2 MLOAD DUP1 DUP5 MSTORE DUP1 PUSH1 0x20 DUP5 ADD PUSH1 0x20 DUP7 ADD MCOPY PUSH0 PUSH1 0x20 DUP3 DUP7 ADD ADD MSTORE PUSH1 0x20 PUSH1 0x1F NOT PUSH1 0x1F DUP4 ADD AND DUP6 ADD ADD SWAP2 POP POP SWAP3 SWAP2 POP POP JUMP JUMPDEST PUSH1 0x20 DUP2 MSTORE PUSH0 PUSH2 0xBD0 PUSH1 0x20 DUP4 ADD DUP5 PUSH2 0x159C JUMP JUMPDEST PUSH1 0x1 PUSH1 0x1 PUSH1 0xA0 SHL SUB DUP2 AND DUP2 EQ PUSH2 0x131C JUMPI PUSH0 PUSH0 REVERT JUMPDEST PUSH0 PUSH0 PUSH1 0x40 DUP4 DUP6 SUB SLT ISZERO PUSH2 0x1601 JUMPI PUSH0 PUSH0 REVERT JUMPDEST DUP3 CALLDATALOAD PUSH2 0x160C DUP2 PUSH2 0x15DC JUMP JUMPDEST SWAP5 PUSH1 0x20 SWAP4 SWAP1 SWAP4 ADD CALLDATALOAD SWAP4 POP POP POP JUMP JUMPDEST PUSH0 PUSH0 PUSH0 PUSH0 PUSH1 0x60 DUP6 DUP8 SUB SLT ISZERO PUSH2 0x162D JUMPI PUSH0 PUSH0 REVERT JUMPDEST DUP5 CALLDATALOAD PUSH2 0x1638 DUP2 PUSH2 0x15DC JUMP JUMPDEST SWAP4 POP PUSH1 0x20 DUP6 ADD CALLDATALOAD SWAP3 POP PUSH1 0x40 DUP6 ADD CALLDATALOAD PUSH8 0xFFFFFFFFFFFFFFFF DUP2 GT ISZERO PUSH2 0x165A JUMPI PUSH0 PUSH0 REVERT JUMPDEST DUP6 ADD PUSH1 0x1F DUP2 ADD DUP8 SGT PUSH2 0x166A JUMPI PUSH0 PUSH0 REVERT JUMPDEST DUP1 CALLDATALOAD PUSH8 0xFFFFFFFFFFFFFFFF DUP2 GT ISZERO PUSH2 0x1680 JUMPI PUSH0 PUSH0 REVERT JUMPDEST DUP8 PUSH1 0x20 DUP3 DUP5 ADD ADD GT ISZERO PUSH2 0x1691 JUMPI PUSH0 PUSH0 REVERT JUMPDEST SWAP5 SWAP8 SWAP4 SWAP7 POP PUSH1 0x20 ADD SWAP5 POP POP POP JUMP JUMPDEST DUP3 ISZERO ISZERO DUP2 MSTORE PUSH1 0x40 PUSH1 0x20 DUP3 ADD MSTORE PUSH0 PUSH2 0xD67 PUSH1 0x40 DUP4 ADD DUP5 PUSH2 0x159C JUMP JUMPDEST PUSH0 PUSH1 0x20 DUP3 DUP5 SUB SLT ISZERO PUSH2 0x16C9 JUMPI PUSH0 PUSH0 REVERT JUMPDEST DUP2 CALLDATALOAD PUSH2 0xBD0 DUP2 PUSH2 0x15DC JUMP JUMPDEST PUSH0 PUSH0 PUSH0 PUSH1 0x60 DUP5 DUP7 SUB SLT ISZERO PUSH2 0x16E6 JUMPI PUSH0 PUSH0 REVERT JUMPDEST DUP4 CALLDATALOAD PUSH2 0x16F1 DUP2 PUSH2 0x15DC JUMP JUMPDEST SWAP3 POP PUSH1 0x20 DUP5 ADD CALLDATALOAD SWAP2 POP PUSH1 0x40 DUP5 ADD CALLDATALOAD PUSH2 0x1708 DUP2 PUSH2 0x15DC JUMP JUMPDEST DUP1 SWAP2 POP POP SWAP3 POP SWAP3 POP SWAP3 JUMP JUMPDEST PUSH0 PUSH0 PUSH0 PUSH1 0x60 DUP5 DUP7 SUB SLT ISZERO PUSH2 0x1725 JUMPI PUSH0 PUSH0 REVERT JUMPDEST DUP4 CALLDATALOAD PUSH2 0x1730 DUP2 PUSH2 0x15DC JUMP JUMPDEST SWAP3 POP PUSH1 0x20 DUP5 ADD CALLDATALOAD PUSH2 0x1740 DUP2 PUSH2 0x15DC JUMP JUMPDEST SWAP3 SWAP6 SWAP3 SWAP5 POP POP POP PUSH1 0x40 SWAP2 SWAP1 SWAP2 ADD CALLDATALOAD SWAP1 JUMP JUMPDEST PUSH0 PUSH1 0x20 DUP3 DUP5 SUB SLT ISZERO PUSH2 0x1761 JUMPI PUSH0 PUSH0 REVERT JUMPDEST POP CALLDATALOAD SWAP2 SWAP1 POP JUMP JUMPDEST PUSH0 PUSH1 0x80 DUP3 DUP5 SUB SLT ISZERO PUSH2 0x1778 JUMPI PUSH0 PUSH0 REVERT JUMPDEST POP SWAP2 SWAP1 POP JUMP JUMPDEST PUSH0 PUSH0 PUSH1 0xA0 DUP4 DUP6 SUB SLT ISZERO PUSH2 0x178F JUMPI PUSH0 PUSH0 REVERT JUMPDEST DUP3 CALLDATALOAD SWAP2 POP PUSH2 0x17A0 DUP5 PUSH1 0x20 DUP6 ADD PUSH2 0x1768 JUMP JUMPDEST SWAP1 POP SWAP3 POP SWAP3 SWAP1 POP JUMP JUMPDEST PUSH0 PUSH0 PUSH0 PUSH1 0xC0 DUP5 DUP7 SUB SLT ISZERO PUSH2 0x17BB JUMPI PUSH0 PUSH0 REVERT JUMPDEST DUP4 CALLDATALOAD SWAP3 POP PUSH1 0x20 DUP5 ADD CALLDATALOAD PUSH2 0x17CD DUP2 PUSH2 0x15DC JUMP JUMPDEST SWAP2 POP PUSH2 0x17DC DUP6 PUSH1 0x40 DUP7 ADD PUSH2 0x1768 JUMP JUMPDEST SWAP1 POP SWAP3 POP SWAP3 POP SWAP3 JUMP JUMPDEST PUSH0 PUSH0 PUSH1 0x40 DUP4 DUP6 SUB SLT ISZERO PUSH2 0x17F6 JUMPI PUSH0 PUSH0 REVERT JUMPDEST DUP3 CALLDATALOAD SWAP2 POP PUSH1 0x20 DUP4 ADD CALLDATALOAD PUSH2 0x1808 DUP2 PUSH2 0x15DC JUMP JUMPDEST DUP1 SWAP2 POP POP SWAP3 POP SWAP3 SWAP1 POP JUMP JUMPDEST DUP1 CALLDATALOAD PUSH1 0xFF DUP2 AND DUP2 EQ PUSH2 0x898 JUMPI PUSH0 PUSH0 REVERT JUMPDEST PUSH0 PUSH0 PUSH0 PUSH0 PUSH0 PUSH0 PUSH0 PUSH1 0xE0 DUP9 DUP11 SUB SLT ISZERO PUSH2 0x1839 JUMPI PUSH0 PUSH0 REVERT JUMPDEST DUP8 CALLDATALOAD PUSH2 0x1844 DUP2 PUSH2 0x15DC JUMP JUMPDEST SWAP7 POP PUSH1 0x20 DUP9 ADD CALLDATALOAD PUSH2 0x1854 DUP2 PUSH2 0x15DC JUMP JUMPDEST SWAP6 POP PUSH1 0x40 DUP9 ADD CALLDATALOAD SWAP5 POP PUSH1 0x60 DUP9 ADD CALLDATALOAD SWAP4 POP PUSH2 0x1870 PUSH1 0x80 DUP10 ADD PUSH2 0x1813 JUMP JUMPDEST SWAP7 SWAP10 SWAP6 SWAP9 POP SWAP4 SWAP7 SWAP3 SWAP6 SWAP5 PUSH1 0xA0 DUP5 ADD CALLDATALOAD SWAP5 POP PUSH1 0xC0 SWAP1 SWAP4 ADD CALLDATALOAD SWAP3 SWAP2 POP POP JUMP JUMPDEST PUSH0 PUSH0 PUSH1 0x40 DUP4 DUP6 SUB SLT ISZERO PUSH2 0x189E JUMPI PUSH0 PUSH0 REVERT JUMPDEST DUP3 CALLDATALOAD PUSH2 0x18A9 DUP2 PUSH2 0x15DC JUMP JUMPDEST SWAP2 POP PUSH1 0x20 DUP4 ADD CALLDATALOAD PUSH2 0x1808 DUP2 PUSH2 0x15DC JUMP JUMPDEST DUP2 DUP4 DUP3 CALLDATACOPY PUSH0 SWAP2 ADD SWAP1 DUP2 MSTORE SWAP2 SWAP1 POP JUMP JUMPDEST PUSH0 PUSH1 0x20 DUP3 DUP5 SUB SLT ISZERO PUSH2 0x18D8 JUMPI PUSH0 PUSH0 REVERT JUMPDEST DUP2 MLOAD DUP1 ISZERO ISZERO DUP2 EQ PUSH2 0xBD0 JUMPI PUSH0 PUSH0 REVERT JUMPDEST PUSH0 PUSH1 0x20 DUP3 DUP5 SUB SLT ISZERO PUSH2 0x18F7 JUMPI PUSH0 PUSH0 REVERT JUMPDEST POP MLOAD SWAP2 SWAP1 POP JUMP JUMPDEST PUSH4 0x4E487B71 PUSH1 0xE0 SHL PUSH0 MSTORE PUSH1 0x11 PUSH1 0x4 MSTORE PUSH1 0x24 PUSH0 REVERT JUMPDEST DUP2 DUP2 SUB DUP2 DUP2 GT ISZERO PUSH2 0x809 JUMPI PUSH2 0x809 PUSH2 0x18FE JUMP JUMPDEST DUP1 DUP3 ADD DUP1 DUP3 GT ISZERO PUSH2 0x809 JUMPI PUSH2 0x809 PUSH2 0x18FE JUMP JUMPDEST DUP1 DUP3 MUL DUP2 ISZERO DUP3 DUP3 DIV DUP5 EQ OR PUSH2 0x809 JUMPI PUSH2 0x809 PUSH2 0x18FE JUMP JUMPDEST PUSH0 DUP3 PUSH2 0x1969 JUMPI PUSH4 0x4E487B71 PUSH1 0xE0 SHL PUSH0 MSTORE PUSH1 0x12 PUSH1 0x4 MSTORE PUSH1 0x24 PUSH0 REVERT JUMPDEST POP DIV SWAP1 JUMP JUMPDEST PUSH0 PUSH1 0x20 DUP3 DUP5 SUB SLT ISZERO PUSH2 0x197E JUMPI PUSH0 PUSH0 REVERT JUMPDEST PUSH2 0xBD0 DUP3 PUSH2 0x1813 JUMP JUMPDEST PUSH1 0x1 PUSH1 0x1 PUSH1 0xA0 SHL SUB DUP6 AND DUP2 MSTORE PUSH1 0x20 DUP2 ADD DUP5 SWAP1 MSTORE PUSH1 0x60 PUSH1 0x40 DUP3 ADD DUP2 SWAP1 MSTORE DUP2 ADD DUP3 SWAP1 MSTORE DUP2 DUP4 PUSH1 0x80 DUP4 ADD CALLDATACOPY PUSH0 DUP2 DUP4 ADD PUSH1 0x80 SWAP1 DUP2 ADD SWAP2 SWAP1 SWAP2 MSTORE PUSH1 0x1F SWAP1 SWAP3 ADD PUSH1 0x1F NOT AND ADD ADD SWAP4 SWAP3 POP POP POP JUMP JUMPDEST PUSH0 PUSH1 0x20 DUP3 DUP5 SUB SLT ISZERO PUSH2 0x19DE JUMPI PUSH0 PUSH0 REVERT JUMPDEST DUP2 MLOAD PUSH1 0x1 PUSH1 0x1 PUSH1 0xE0 SHL SUB NOT DUP2 AND DUP2 EQ PUSH2 0xBD0 JUMPI PUSH0 PUSH0 REVERT INVALID 0xDD CALLCODE MSTORE 0xAD SHL 0xE2 0xC8 SWAP12 PUSH10 0xC2B068FC378DAA952BA7 CALL PUSH4 0xC4A11628 CREATE2 GAS 0x4D CREATE2 0x23 0xB3 0xEF LOG2 PUSH5 0x6970667358 0x22 SLT KECCAK256 PUSH25 0xFBABB9203AF5204125AA17E7F23569188D6F71EAF067A5EE3C 0xE7 0xD0 PUSH5 0x34200D6473 PUSH16 0x6C634300081C00330000000000000000 "
				},
				"gasEstimates": {
					"creation": {
						"codeDepositCost": "1346200",
						"executionCost": "infinite",
						"totalCost": "infinite"
					},
					"external": {
						"DOMAIN_SEPARATOR()": "infinite",
						"allowance(address,address)": "infinite",
						"approve(address,uint256)": "24448",
						"asset()": "infinite",
						"balanceOf(address)": "2580",
						"customCall(address,uint256,bytes)": "infinite",
						"decimals()": "222",
						"erc20BuyableRate()": "infinite",
						"erc20BuyableTime()": "2426",
						"erc20SellInhibitor()": "infinite",
						"erc20ToNativePrice(uint256)": "infinite",
						"erc20sBuyable()": "infinite",
						"name()": "infinite",
						"nameHash()": "infinite",
						"nativeBuyableRate()": "infinite",
						"nativeSellInhibitor()": "infinite",
						"nativeToERC20Price(uint256)": "infinite",
						"nativesBuyable()": "infinite",
						"nonces(address)": "2559",
						"owner()": "2442",
						"permit(address,address,uint256,uint256,uint8,bytes32,bytes32)": "infinite",
						"renounceOwnership()": "infinite",
						"swapERC20ToNative(address,uint256,address)": "infinite",
						"swapERC20ToNative(uint256)": "infinite",
						"swapERC20ToNative(uint256,(uint256,uint8,bytes32,bytes32))": "infinite",
						"swapERC20ToNative(uint256,address)": "infinite",
						"swapERC20ToNative(uint256,address,(uint256,uint8,bytes32,bytes32))": "infinite",
						"swapERC223ToNative(address,uint256,address)": "infinite",
						"swapNativeToERC20()": "infinite",
						"swapNativeToERC20(address)": "infinite",
						"swapNativeToERC20(address,uint256,address)": "infinite",
						"symbol()": "infinite",
						"tokenReceived(address,uint256,bytes)": "infinite",
						"totalSupply()": "2381",
						"transfer(address,uint256)": "infinite",
						"transfer(address,uint256,bytes)": "infinite",
						"transferFrom(address,address,uint256)": "infinite",
						"transferOwnership(address)": "infinite"
					},
					"internal": {
						"_constantNameHash()": "infinite",
						"_transferERC20sBought(address,uint256)": "infinite"
					}
				},
				"methodIdentifiers": {
					"DOMAIN_SEPARATOR()": "3644e515",
					"allowance(address,address)": "dd62ed3e",
					"approve(address,uint256)": "095ea7b3",
					"asset()": "38d52e0f",
					"balanceOf(address)": "70a08231",
					"customCall(address,uint256,bytes)": "10ab2d01",
					"decimals()": "313ce567",
					"erc20BuyableRate()": "f86329e1",
					"erc20BuyableTime()": "e46dbd07",
					"erc20SellInhibitor()": "82e3d8bd",
					"erc20ToNativePrice(uint256)": "4206abe9",
					"erc20sBuyable()": "f4d0bd72",
					"name()": "06fdde03",
					"nameHash()": "f172a4ce",
					"nativeBuyableRate()": "7cc27b40",
					"nativeSellInhibitor()": "058d1573",
					"nativeToERC20Price(uint256)": "7b383f18",
					"nativesBuyable()": "b3ca7f2a",
					"nonces(address)": "7ecebe00",
					"owner()": "8da5cb5b",
					"permit(address,address,uint256,uint256,uint8,bytes32,bytes32)": "d505accf",
					"renounceOwnership()": "715018a6",
					"swapERC20ToNative(address,uint256,address)": "17b31167",
					"swapERC20ToNative(uint256)": "6032f600",
					"swapERC20ToNative(uint256,(uint256,uint8,bytes32,bytes32))": "6263913c",
					"swapERC20ToNative(uint256,address)": "b3841f26",
					"swapERC20ToNative(uint256,address,(uint256,uint8,bytes32,bytes32))": "94ef2103",
					"swapERC223ToNative(address,uint256,address)": "af4fc206",
					"swapNativeToERC20()": "223ecf7e",
					"swapNativeToERC20(address)": "12958a6b",
					"swapNativeToERC20(address,uint256,address)": "e5aca599",
					"symbol()": "95d89b41",
					"tokenReceived(address,uint256,bytes)": "8943ec02",
					"totalSupply()": "18160ddd",
					"transfer(address,uint256)": "a9059cbb",
					"transfer(address,uint256,bytes)": "be45fd62",
					"transferFrom(address,address,uint256)": "23b872dd",
					"transferOwnership(address)": "f2fde38b"
				}
			},
			"storageLayout": {
				"storage": [
					{
						"astId": 794,
						"contract": "src/PinusVault2.sol:PinusVault2",
						"label": "erc20BuyableTime",
						"offset": 0,
						"slot": "0",
						"type": "t_uint256"
					},
					{
						"astId": 798,
						"contract": "src/PinusVault2.sol:PinusVault2",
						"label": "_nativeBuyableTime",
						"offset": 0,
						"slot": "1",
						"type": "t_uint256"
					},
					{
						"astId": 8,
						"contract": "src/PinusVault2.sol:PinusVault2",
						"label": "_owner",
						"offset": 0,
						"slot": "2",
						"type": "t_address"
					}
				],
				"types": {
					"t_address": {
						"encoding": "inplace",
						"label": "address",
						"numberOfBytes": "20"
					},
					"t_uint256": {
						"encoding": "inplace",
						"label": "uint256",
						"numberOfBytes": "32"
					}
				}
			},
			"userdoc": {
				"kind": "user",
				"methods": {},
				"version": 1
			}
		}
	}
}