{
	"src/PinusVault.sol": {
		"PinusVault": {
			"abi": [
				{
					"inputs": [
						{
							"internalType": "address",
							"name": "owner",
							"type": "address"
						},
						{
							"internalType": "string",
							"name": "name_",
							"type": "string"
						},
						{
							"internalType": "string",
							"name": "symbol_",
							"type": "string"
						}
					],
					"stateMutability": "nonpayable",
					"type": "constructor"
				},
				{
					"inputs": [],
					"name": "AllowanceOverflow",
					"type": "error"
				},
				{
					"inputs": [],
					"name": "AllowanceUnderflow",
					"type": "error"
				},
				{
					"inputs": [],
					"name": "InsufficientAllowance",
					"type": "error"
				},
				{
					"inputs": [],
					"name": "InsufficientBalance",
					"type": "error"
				},
				{
					"inputs": [],
					"name": "InvalidPermit",
					"type": "error"
				},
				{
					"inputs": [
						{
							"internalType": "address",
							"name": "owner",
							"type": "address"
						}
					],
					"name": "OwnableInvalidOwner",
					"type": "error"
				},
				{
					"inputs": [
						{
							"internalType": "address",
							"name": "account",
							"type": "address"
						}
					],
					"name": "OwnableUnauthorizedAccount",
					"type": "error"
				},
				{
					"inputs": [],
					"name": "Permit2AllowanceIsFixedAtInfinity",
					"type": "error"
				},
				{
					"inputs": [],
					"name": "PermitExpired",
					"type": "error"
				},
				{
					"inputs": [],
					"name": "TotalSupplyOverflow",
					"type": "error"
				},
				{
					"anonymous": false,
					"inputs": [
						{
							"indexed": true,
							"internalType": "address",
							"name": "owner",
							"type": "address"
						},
						{
							"indexed": true,
							"internalType": "address",
							"name": "spender",
							"type": "address"
						},
						{
							"indexed": false,
							"internalType": "uint256",
							"name": "amount",
							"type": "uint256"
						}
					],
					"name": "Approval",
					"type": "event"
				},
				{
					"anonymous": false,
					"inputs": [
						{
							"indexed": true,
							"internalType": "address",
							"name": "previousOwner",
							"type": "address"
						},
						{
							"indexed": true,
							"internalType": "address",
							"name": "newOwner",
							"type": "address"
						}
					],
					"name": "OwnershipTransferred",
					"type": "event"
				},
				{
					"anonymous": false,
					"inputs": [
						{
							"indexed": true,
							"internalType": "address",
							"name": "from",
							"type": "address"
						},
						{
							"indexed": true,
							"internalType": "address",
							"name": "to",
							"type": "address"
						},
						{
							"indexed": false,
							"internalType": "uint256",
							"name": "amount",
							"type": "uint256"
						}
					],
					"name": "Transfer",
					"type": "event"
				},
				{
					"inputs": [],
					"name": "DOMAIN_SEPARATOR",
					"outputs": [
						{
							"internalType": "bytes32",
							"name": "result",
							"type": "bytes32"
						}
					],
					"stateMutability": "view",
					"type": "function"
				},
				{
					"inputs": [
						{
							"internalType": "address",
							"name": "owner",
							"type": "address"
						},
						{
							"internalType": "address",
							"name": "spender",
							"type": "address"
						}
					],
					"name": "allowance",
					"outputs": [
						{
							"internalType": "uint256",
							"name": "result",
							"type": "uint256"
						}
					],
					"stateMutability": "view",
					"type": "function"
				},
				{
					"inputs": [
						{
							"internalType": "address",
							"name": "spender",
							"type": "address"
						},
						{
							"internalType": "uint256",
							"name": "amount",
							"type": "uint256"
						}
					],
					"name": "approve",
					"outputs": [
						{
							"internalType": "bool",
							"name": "",
							"type": "bool"
						}
					],
					"stateMutability": "nonpayable",
					"type": "function"
				},
				{
					"inputs": [],
					"name": "asset",
					"outputs": [
						{
							"internalType": "contract ERC20",
							"name": "",
							"type": "address"
						}
					],
					"stateMutability": "view",
					"type": "function"
				},
				{
					"inputs": [
						{
							"internalType": "address",
							"name": "owner",
							"type": "address"
						}
					],
					"name": "balanceOf",
					"outputs": [
						{
							"internalType": "uint256",
							"name": "result",
							"type": "uint256"
						}
					],
					"stateMutability": "view",
					"type": "function"
				},
				{
					"inputs": [
						{
							"internalType": "address",
							"name": "to",
							"type": "address"
						},
						{
							"internalType": "uint256",
							"name": "value",
							"type": "uint256"
						},
						{
							"internalType": "bytes",
							"name": "data",
							"type": "bytes"
						}
					],
					"name": "customCall",
					"outputs": [
						{
							"internalType": "bool",
							"name": "success",
							"type": "bool"
						},
						{
							"internalType": "bytes",
							"name": "returnData",
							"type": "bytes"
						}
					],
					"stateMutability": "nonpayable",
					"type": "function"
				},
				{
					"inputs": [],
					"name": "decimals",
					"outputs": [
						{
							"internalType": "uint8",
							"name": "",
							"type": "uint8"
						}
					],
					"stateMutability": "view",
					"type": "function"
				},
				{
					"inputs": [],
					"name": "erc20BuyableRate",
					"outputs": [
						{
							"internalType": "uint128",
							"name": "",
							"type": "uint128"
						}
					],
					"stateMutability": "view",
					"type": "function"
				},
				{
					"inputs": [],
					"name": "erc20BuyableTime",
					"outputs": [
						{
							"internalType": "uint256",
							"name": "",
							"type": "uint256"
						}
					],
					"stateMutability": "view",
					"type": "function"
				},
				{
					"inputs": [],
					"name": "erc20SellInhibitor",
					"outputs": [
						{
							"internalType": "uint128",
							"name": "",
							"type": "uint128"
						}
					],
					"stateMutability": "view",
					"type": "function"
				},
				{
					"inputs": [
						{
							"internalType": "uint256",
							"name": "erc20sSold",
							"type": "uint256"
						}
					],
					"name": "erc20ToNativePrice",
					"outputs": [
						{
							"internalType": "uint256",
							"name": "nativesBought",
							"type": "uint256"
						}
					],
					"stateMutability": "view",
					"type": "function"
				},
				{
					"inputs": [],
					"name": "erc20sBuyable",
					"outputs": [
						{
							"internalType": "uint256",
							"name": "",
							"type": "uint256"
						}
					],
					"stateMutability": "view",
					"type": "function"
				},
				{
					"inputs": [],
					"name": "name",
					"outputs": [
						{
							"internalType": "string",
							"name": "",
							"type": "string"
						}
					],
					"stateMutability": "view",
					"type": "function"
				},
				{
					"inputs": [],
					"name": "nameHash",
					"outputs": [
						{
							"internalType": "bytes32",
							"name": "",
							"type": "bytes32"
						}
					],
					"stateMutability": "view",
					"type": "function"
				},
				{
					"inputs": [],
					"name": "nativeBuyableRate",
					"outputs": [
						{
							"internalType": "uint128",
							"name": "",
							"type": "uint128"
						}
					],
					"stateMutability": "view",
					"type": "function"
				},
				{
					"inputs": [],
					"name": "nativeSellInhibitor",
					"outputs": [
						{
							"internalType": "uint128",
							"name": "",
							"type": "uint128"
						}
					],
					"stateMutability": "view",
					"type": "function"
				},
				{
					"inputs": [
						{
							"internalType": "uint256",
							"name": "nativesSold",
							"type": "uint256"
						}
					],
					"name": "nativeToERC20Price",
					"outputs": [
						{
							"internalType": "uint256",
							"name": "erc20sBought",
							"type": "uint256"
						}
					],
					"stateMutability": "view",
					"type": "function"
				},
				{
					"inputs": [],
					"name": "nativesBuyable",
					"outputs": [
						{
							"internalType": "uint256",
							"name": "",
							"type": "uint256"
						}
					],
					"stateMutability": "view",
					"type": "function"
				},
				{
					"inputs": [
						{
							"internalType": "address",
							"name": "owner",
							"type": "address"
						}
					],
					"name": "nonces",
					"outputs": [
						{
							"internalType": "uint256",
							"name": "result",
							"type": "uint256"
						}
					],
					"stateMutability": "view",
					"type": "function"
				},
				{
					"inputs": [],
					"name": "owner",
					"outputs": [
						{
							"internalType": "address",
							"name": "",
							"type": "address"
						}
					],
					"stateMutability": "view",
					"type": "function"
				},
				{
					"inputs": [
						{
							"internalType": "address",
							"name": "owner",
							"type": "address"
						},
						{
							"internalType": "address",
							"name": "spender",
							"type": "address"
						},
						{
							"internalType": "uint256",
							"name": "value",
							"type": "uint256"
						},
						{
							"internalType": "uint256",
							"name": "deadline",
							"type": "uint256"
						},
						{
							"internalType": "uint8",
							"name": "v",
							"type": "uint8"
						},
						{
							"internalType": "bytes32",
							"name": "r",
							"type": "bytes32"
						},
						{
							"internalType": "bytes32",
							"name": "s",
							"type": "bytes32"
						}
					],
					"name": "permit",
					"outputs": [],
					"stateMutability": "nonpayable",
					"type": "function"
				},
				{
					"inputs": [],
					"name": "renounceOwnership",
					"outputs": [],
					"stateMutability": "nonpayable",
					"type": "function"
				},
				{
					"inputs": [
						{
							"internalType": "contract SwapAbstract",
							"name": "sa",
							"type": "address"
						},
						{
							"internalType": "uint256",
							"name": "erc20sSold",
							"type": "uint256"
						},
						{
							"internalType": "address",
							"name": "to",
							"type": "address"
						}
					],
					"name": "swapERC20ToNative",
					"outputs": [
						{
							"internalType": "uint256",
							"name": "erc20sEarned",
							"type": "uint256"
						}
					],
					"stateMutability": "nonpayable",
					"type": "function"
				},
				{
					"inputs": [
						{
							"internalType": "uint256",
							"name": "erc20sSold",
							"type": "uint256"
						}
					],
					"name": "swapERC20ToNative",
					"outputs": [
						{
							"internalType": "uint256",
							"name": "nativesBought",
							"type": "uint256"
						}
					],
					"stateMutability": "nonpayable",
					"type": "function"
				},
				{
					"inputs": [
						{
							"internalType": "uint256",
							"name": "erc20sSold",
							"type": "uint256"
						},
						{
							"components": [
								{
									"internalType": "uint256",
									"name": "deadline",
									"type": "uint256"
								},
								{
									"internalType": "uint8",
									"name": "v",
									"type": "uint8"
								},
								{
									"internalType": "bytes32",
									"name": "r",
									"type": "bytes32"
								},
								{
									"internalType": "bytes32",
									"name": "s",
									"type": "bytes32"
								}
							],
							"internalType": "struct Permit2Sig",
							"name": "sig",
							"type": "tuple"
						}
					],
					"name": "swapERC20ToNative",
					"outputs": [
						{
							"internalType": "uint256",
							"name": "nativesBought",
							"type": "uint256"
						}
					],
					"stateMutability": "nonpayable",
					"type": "function"
				},
				{
					"inputs": [
						{
							"internalType": "uint256",
							"name": "erc20sSold",
							"type": "uint256"
						},
						{
							"internalType": "address",
							"name": "to",
							"type": "address"
						},
						{
							"components": [
								{
									"internalType": "uint256",
									"name": "deadline",
									"type": "uint256"
								},
								{
									"internalType": "uint8",
									"name": "v",
									"type": "uint8"
								},
								{
									"internalType": "bytes32",
									"name": "r",
									"type": "bytes32"
								},
								{
									"internalType": "bytes32",
									"name": "s",
									"type": "bytes32"
								}
							],
							"internalType": "struct Permit2Sig",
							"name": "sig",
							"type": "tuple"
						}
					],
					"name": "swapERC20ToNative",
					"outputs": [
						{
							"internalType": "uint256",
							"name": "nativesBought",
							"type": "uint256"
						}
					],
					"stateMutability": "nonpayable",
					"type": "function"
				},
				{
					"inputs": [
						{
							"internalType": "uint256",
							"name": "erc20sSold",
							"type": "uint256"
						},
						{
							"internalType": "address",
							"name": "recipient",
							"type": "address"
						}
					],
					"name": "swapERC20ToNative",
					"outputs": [
						{
							"internalType": "uint256",
							"name": "nativesBought",
							"type": "uint256"
						}
					],
					"stateMutability": "nonpayable",
					"type": "function"
				},
				{
					"inputs": [
						{
							"internalType": "contract SwapAbstract",
							"name": "sa",
							"type": "address"
						},
						{
							"internalType": "uint256",
							"name": "erc20sSold",
							"type": "uint256"
						},
						{
							"internalType": "address",
							"name": "to",
							"type": "address"
						}
					],
					"name": "swapERC223LToNative",
					"outputs": [
						{
							"internalType": "uint256",
							"name": "erc20sEarned",
							"type": "uint256"
						}
					],
					"stateMutability": "nonpayable",
					"type": "function"
				},
				{
					"inputs": [
						{
							"internalType": "address",
							"name": "to",
							"type": "address"
						}
					],
					"name": "swapNativeToERC20",
					"outputs": [
						{
							"internalType": "uint256",
							"name": "erc20sBought",
							"type": "uint256"
						}
					],
					"stateMutability": "payable",
					"type": "function"
				},
				{
					"inputs": [],
					"name": "swapNativeToERC20",
					"outputs": [
						{
							"internalType": "uint256",
							"name": "erc20sBought",
							"type": "uint256"
						}
					],
					"stateMutability": "payable",
					"type": "function"
				},
				{
					"inputs": [
						{
							"internalType": "contract SwapAbstract",
							"name": "sa",
							"type": "address"
						},
						{
							"internalType": "uint256",
							"name": "nativesSold",
							"type": "uint256"
						},
						{
							"internalType": "address",
							"name": "to",
							"type": "address"
						}
					],
					"name": "swapNativeToERC20",
					"outputs": [
						{
							"internalType": "uint256",
							"name": "nativesEarned",
							"type": "uint256"
						}
					],
					"stateMutability": "nonpayable",
					"type": "function"
				},
				{
					"inputs": [],
					"name": "symbol",
					"outputs": [
						{
							"internalType": "string",
							"name": "",
							"type": "string"
						}
					],
					"stateMutability": "view",
					"type": "function"
				},
				{
					"inputs": [
						{
							"internalType": "address",
							"name": "from",
							"type": "address"
						},
						{
							"internalType": "uint256",
							"name": "value",
							"type": "uint256"
						},
						{
							"internalType": "bytes",
							"name": "",
							"type": "bytes"
						}
					],
					"name": "tokenReceived",
					"outputs": [
						{
							"internalType": "bytes4",
							"name": "",
							"type": "bytes4"
						}
					],
					"stateMutability": "nonpayable",
					"type": "function"
				},
				{
					"inputs": [],
					"name": "totalSupply",
					"outputs": [
						{
							"internalType": "uint256",
							"name": "result",
							"type": "uint256"
						}
					],
					"stateMutability": "view",
					"type": "function"
				},
				{
					"inputs": [
						{
							"internalType": "address",
							"name": "to",
							"type": "address"
						},
						{
							"internalType": "uint256",
							"name": "amount",
							"type": "uint256"
						}
					],
					"name": "transfer",
					"outputs": [
						{
							"internalType": "bool",
							"name": "",
							"type": "bool"
						}
					],
					"stateMutability": "nonpayable",
					"type": "function"
				},
				{
					"inputs": [
						{
							"internalType": "address",
							"name": "_to",
							"type": "address"
						},
						{
							"internalType": "uint256",
							"name": "_value",
							"type": "uint256"
						},
						{
							"internalType": "bytes",
							"name": "_data",
							"type": "bytes"
						}
					],
					"name": "transfer",
					"outputs": [
						{
							"internalType": "bool",
							"name": "success",
							"type": "bool"
						}
					],
					"stateMutability": "nonpayable",
					"type": "function"
				},
				{
					"inputs": [
						{
							"internalType": "address",
							"name": "from",
							"type": "address"
						},
						{
							"internalType": "address",
							"name": "to",
							"type": "address"
						},
						{
							"internalType": "uint256",
							"name": "amount",
							"type": "uint256"
						}
					],
					"name": "transferFrom",
					"outputs": [
						{
							"internalType": "bool",
							"name": "",
							"type": "bool"
						}
					],
					"stateMutability": "nonpayable",
					"type": "function"
				},
				{
					"inputs": [
						{
							"internalType": "address",
							"name": "newOwner",
							"type": "address"
						}
					],
					"name": "transferOwnership",
					"outputs": [],
					"stateMutability": "nonpayable",
					"type": "function"
				}
			],
			"devdoc": {
				"errors": {
					"AllowanceOverflow()": [
						{
							"details": "The allowance has overflowed."
						}
					],
					"AllowanceUnderflow()": [
						{
							"details": "The allowance has underflowed."
						}
					],
					"InsufficientAllowance()": [
						{
							"details": "Insufficient allowance."
						}
					],
					"InsufficientBalance()": [
						{
							"details": "Insufficient balance."
						}
					],
					"InvalidPermit()": [
						{
							"details": "The permit is invalid."
						}
					],
					"OwnableInvalidOwner(address)": [
						{
							"details": "The owner is not a valid owner account. (eg. `address(0)`)"
						}
					],
					"OwnableUnauthorizedAccount(address)": [
						{
							"details": "The caller account is not authorized to perform an operation."
						}
					],
					"Permit2AllowanceIsFixedAtInfinity()": [
						{
							"details": "The allowance of Permit2 is fixed at infinity."
						}
					],
					"PermitExpired()": [
						{
							"details": "The permit has expired."
						}
					],
					"TotalSupplyOverflow()": [
						{
							"details": "The total supply has overflowed."
						}
					]
				},
				"events": {
					"Approval(address,address,uint256)": {
						"details": "Emitted when `amount` tokens is approved by `owner` to be used by `spender`."
					},
					"Transfer(address,address,uint256)": {
						"details": "Emitted when `amount` tokens is transferred from `from` to `to`."
					}
				},
				"kind": "dev",
				"methods": {
					"DOMAIN_SEPARATOR()": {
						"details": "Returns the EIP-712 domain separator for the EIP-2612 permit."
					},
					"allowance(address,address)": {
						"details": "Returns the amount of tokens that `spender` can spend on behalf of `owner`."
					},
					"approve(address,uint256)": {
						"details": "Sets `amount` as the allowance of `spender` over the caller's tokens. Emits a {Approval} event."
					},
					"balanceOf(address)": {
						"details": "Returns the amount of tokens owned by `owner`."
					},
					"decimals()": {
						"details": "Returns the decimals places of the token."
					},
					"name()": {
						"details": "Returns the name of the token."
					},
					"nonces(address)": {
						"details": "Returns the current nonce for `owner`. This value is used to compute the signature for EIP-2612 permit."
					},
					"owner()": {
						"details": "Returns the address of the current owner."
					},
					"permit(address,address,uint256,uint256,uint8,bytes32,bytes32)": {
						"details": "Sets `value` as the allowance of `spender` over the tokens of `owner`, authorized by a signed approval by `owner`. Emits a {Approval} event."
					},
					"renounceOwnership()": {
						"details": "Leaves the contract without owner. It will not be possible to call `onlyOwner` functions. Can only be called by the current owner. NOTE: Renouncing ownership will leave the contract without an owner, thereby disabling any functionality that is only available to the owner."
					},
					"symbol()": {
						"details": "Returns the symbol of the token."
					},
					"totalSupply()": {
						"details": "Returns the amount of tokens in existence."
					},
					"transfer(address,uint256)": {
						"details": "Transfer `amount` tokens from the caller to `to`. Requirements: - `from` must at least have `amount`. Emits a {Transfer} event."
					},
					"transferFrom(address,address,uint256)": {
						"details": "Transfers `amount` tokens from `from` to `to`. Note: Does not update the allowance if it is the maximum uint256 value. Requirements: - `from` must at least have `amount`. - The caller must have at least `amount` of allowance to transfer the tokens of `from`. Emits a {Transfer} event."
					},
					"transferOwnership(address)": {
						"details": "Transfers ownership of the contract to a new account (`newOwner`). Can only be called by the current owner."
					}
				},
				"version": 1
			},
			"evm": {
				"assembly": "    /* \"src/PinusVault.sol\":1824:3683  contract PinusVault ... */\n  mstore(0x40, 0x0140)\n    /* \"src/ExchangeAbstract.sol\":662:677  block.timestamp */\n  timestamp\n    /* \"src/ExchangeAbstract.sol\":631:677  uint public erc20BuyableTime = block.timestamp */\n  0x00\n  sstore\n    /* \"src/ExchangeAbstract.sol\":718:733  block.timestamp */\n  timestamp\n    /* \"src/ExchangeAbstract.sol\":684:733  uint private _nativeBuyableTime = block.timestamp */\n  0x01\n  sstore\n    /* \"src/PinusVault.sol\":2238:2450  constructor(address owner, string memory name_, string memory symbol_) Ownable(owner) SwapAbstract(this) {... */\n  callvalue\n  dup1\n  iszero\n  tag_1\n  jumpi\n  revert(0x00, 0x00)\ntag_1:\n  pop\n  mload(0x40)\n  sub(codesize, bytecodeSize)\n  dup1\n  bytecodeSize\n  dup4\n  codecopy\n  dup2\n  add\n  0x40\n  dup2\n  swap1\n  mstore\n  tag_2\n  swap2\n  tag_3\n  jump\t// in\ntag_2:\n    /* \"src/PinusVault.sol\":2317:2322  owner */\n  dup3\n    /* \"src/PinusVault.sol\":1876:2107  ExchangeConfig({... */\n  mload(0x40)\n  dup1\n  0x80\n  add\n  0x40\n  mstore\n  dup1\n    /* \"src/PinusVault.sol\":1638:1646  24 hours */\n  0x015180\n    /* \"src/PinusVault.sol\":1620:1627  1 ether */\n  0x0de0b6b3a7640000\n    /* \"src/PinusVault.sol\":1620:1647  1 ether / uint128(24 hours) */\n  tag_6\n  swap2\n  swap1\n  tag_7\n  jump\t// in\ntag_6:\n  sub(shl(0x80, 0x01), 0x01)\n    /* \"src/PinusVault.sol\":1876:2107  ExchangeConfig({... */\n  and\n  dup2\n  mstore\n    /* \"src/PinusVault.sol\":1690:1697  1 ether */\n  0x0de0b6b3a7640000\n    /* \"src/PinusVault.sol\":1876:2107  ExchangeConfig({... */\n  0x20\n  dup3\n  add\n  mstore\n  0x40\n  add\n    /* \"src/PinusVault.sol\":1739:1767  .1 ether / uint128(24 hours) */\n  tag_8\n    /* \"src/PinusVault.sol\":1758:1766  24 hours */\n  0x015180\n    /* \"src/PinusVault.sol\":1739:1747  .1 ether */\n  0x016345785d8a0000\n    /* \"src/PinusVault.sol\":1739:1767  .1 ether / uint128(24 hours) */\n  tag_7\n  jump\t// in\ntag_8:\n  sub(shl(0x80, 0x01), 0x01)\n    /* \"src/PinusVault.sol\":1876:2107  ExchangeConfig({... */\n  swap1\n  dup2\n  and\n  dup3\n  mstore\n    /* \"src/PinusVault.sol\":1811:1819  .1 ether */\n  0x016345785d8a0000\n    /* \"src/PinusVault.sol\":1876:2107  ExchangeConfig({... */\n  0x20\n  swap3\n  dup4\n  add\n  mstore\n    /* \"src/PinusVault.sol\":2337:2341  this */\n  address\n    /* \"src/SwapAbstract.sol\":445:459  asset = asset_ */\n  0x80\n  mstore\n    /* \"src/ExchangeAbstract.sol\":826:845  ec.erc20BuyableRate */\n  dup3\n  mload\n    /* \"src/ExchangeAbstract.sol\":807:845  erc20BuyableRate = ec.erc20BuyableRate */\n  dup2\n  and\n  0xa0\n  mstore\n    /* \"src/ExchangeAbstract.sol\":877:898  ec.erc20SellInhibitor */\n  swap1\n  dup3\n  add\n  mload\n    /* \"src/ExchangeAbstract.sol\":856:898  erc20SellInhibitor = ec.erc20SellInhibitor */\n  dup2\n  and\n  0xc0\n  mstore\n    /* \"src/ExchangeAbstract.sol\":929:949  ec.nativeBuyableRate */\n  0x40\n  dup3\n  add\n  mload\n    /* \"src/ExchangeAbstract.sol\":909:949  nativeBuyableRate = ec.nativeBuyableRate */\n  dup2\n  and\n  0xe0\n  mstore\n    /* \"src/ExchangeAbstract.sol\":982:1004  ec.nativeSellInhibitor */\n  0x60\n  swap1\n  swap2\n  add\n  mload\n    /* \"src/ExchangeAbstract.sol\":960:1004  nativeSellInhibitor = ec.nativeSellInhibitor */\n  and\n  0x0100\n  mstore\n  sub(shl(0xa0, 0x01), 0x01)\n    /* \"@openzeppelin/contracts/access/Ownable.sol\":1273:1299  initialOwner == address(0) */\n  dup2\n  and\n    /* \"@openzeppelin/contracts/access/Ownable.sol\":1269:1364  if (initialOwner == address(0)) {... */\n  tag_14\n  jumpi\n    /* \"@openzeppelin/contracts/access/Ownable.sol\":1322:1353  OwnableInvalidOwner(address(0)) */\n  mload(0x40)\n  shl(0xe0, 0x1e4fbdf7)\n  dup2\n  mstore\n    /* \"@openzeppelin/contracts/access/Ownable.sol\":1350:1351  0 */\n  0x00\n    /* \"@openzeppelin/contracts/access/Ownable.sol\":1322:1353  OwnableInvalidOwner(address(0)) */\n  0x04\n  dup3\n  add\n    /* \"#utility.yul\":2048:2099   */\n  mstore\n    /* \"#utility.yul\":2021:2039   */\n  0x24\n  add\n    /* \"@openzeppelin/contracts/access/Ownable.sol\":1322:1353  OwnableInvalidOwner(address(0)) */\n  mload(0x40)\n  dup1\n  swap2\n  sub\n  swap1\n  revert\n    /* \"@openzeppelin/contracts/access/Ownable.sol\":1269:1364  if (initialOwner == address(0)) {... */\ntag_14:\n    /* \"@openzeppelin/contracts/access/Ownable.sol\":1373:1405  _transferOwnership(initialOwner) */\n  tag_17\n    /* \"@openzeppelin/contracts/access/Ownable.sol\":1392:1404  initialOwner */\n  dup2\n    /* \"@openzeppelin/contracts/access/Ownable.sol\":1373:1391  _transferOwnership */\n  tag_18\n    /* \"@openzeppelin/contracts/access/Ownable.sol\":1373:1405  _transferOwnership(initialOwner) */\n  jump\t// in\ntag_17:\n  pop\n    /* \"src/PinusVault.sol\":2354:2359  _name */\n  0x03\n    /* \"src/PinusVault.sol\":2354:2367  _name = name_ */\n  tag_20\n    /* \"src/PinusVault.sol\":2362:2367  name_ */\n  dup4\n    /* \"src/PinusVault.sol\":2354:2359  _name */\n  dup3\n    /* \"src/PinusVault.sol\":2354:2367  _name = name_ */\n  tag_21\n  jump\t// in\ntag_20:\n  pop\n    /* \"src/PinusVault.sol\":2389:2412  keccak256(bytes(name_)) */\n  dup2\n  mload\n  0x20\n  dup4\n  add\n  keccak256\n    /* \"src/PinusVault.sol\":2378:2412  nameHash = keccak256(bytes(name_)) */\n  0x0120\n  mstore\n    /* \"src/PinusVault.sol\":2425:2432  _symbol */\n  0x04\n    /* \"src/PinusVault.sol\":2425:2442  _symbol = symbol_ */\n  tag_22\n    /* \"src/PinusVault.sol\":2435:2442  symbol_ */\n  dup3\n    /* \"src/PinusVault.sol\":2425:2432  _symbol */\n  dup3\n    /* \"src/PinusVault.sol\":2425:2442  _symbol = symbol_ */\n  tag_21\n  jump\t// in\ntag_22:\n  pop\n    /* \"src/PinusVault.sol\":2238:2450  constructor(address owner, string memory name_, string memory symbol_) Ownable(owner) SwapAbstract(this) {... */\n  pop\n  pop\n  pop\n    /* \"src/PinusVault.sol\":1824:3683  contract PinusVault ... */\n  jump(tag_31)\n    /* \"@openzeppelin/contracts/access/Ownable.sol\":2912:3099  function _transferOwnership(address newOwner) internal virtual {... */\ntag_18:\n    /* \"@openzeppelin/contracts/access/Ownable.sol\":3004:3010  _owner */\n  0x02\n  dup1\n  sload\n  sub(shl(0xa0, 0x01), 0x01)\n    /* \"@openzeppelin/contracts/access/Ownable.sol\":3020:3037  _owner = newOwner */\n  dup4\n  dup2\n  and\n  not(sub(shl(0xa0, 0x01), 0x01))\n  dup4\n  and\n  dup2\n  or\n  swap1\n  swap4\n  sstore\n    /* \"@openzeppelin/contracts/access/Ownable.sol\":3052:3092  OwnershipTransferred(oldOwner, newOwner) */\n  mload(0x40)\n    /* \"@openzeppelin/contracts/access/Ownable.sol\":3004:3010  _owner */\n  swap2\n  and\n  swap2\n    /* \"@openzeppelin/contracts/access/Ownable.sol\":3020:3037  _owner = newOwner */\n  swap1\n    /* \"@openzeppelin/contracts/access/Ownable.sol\":3004:3010  _owner */\n  dup3\n  swap1\n    /* \"@openzeppelin/contracts/access/Ownable.sol\":3052:3092  OwnershipTransferred(oldOwner, newOwner) */\n  0x8be0079c531659141344cd1fd0a4f28419497f9722a3daafe3b4186f6b6457e0\n  swap1\n    /* \"@openzeppelin/contracts/access/Ownable.sol\":2985:3001  address oldOwner */\n  0x00\n  swap1\n    /* \"@openzeppelin/contracts/access/Ownable.sol\":3052:3092  OwnershipTransferred(oldOwner, newOwner) */\n  log3\n    /* \"@openzeppelin/contracts/access/Ownable.sol\":2975:3099  {... */\n  pop\n    /* \"@openzeppelin/contracts/access/Ownable.sol\":2912:3099  function _transferOwnership(address newOwner) internal virtual {... */\n  pop\n  jump\t// out\n    /* \"#utility.yul\":14:141   */\ntag_25:\n    /* \"#utility.yul\":75:85   */\n  0x4e487b71\n    /* \"#utility.yul\":70:73   */\n  0xe0\n    /* \"#utility.yul\":66:86   */\n  shl\n    /* \"#utility.yul\":63:64   */\n  0x00\n    /* \"#utility.yul\":56:87   */\n  mstore\n    /* \"#utility.yul\":106:110   */\n  0x41\n    /* \"#utility.yul\":103:104   */\n  0x04\n    /* \"#utility.yul\":96:111   */\n  mstore\n    /* \"#utility.yul\":130:134   */\n  0x24\n    /* \"#utility.yul\":127:128   */\n  0x00\n    /* \"#utility.yul\":120:135   */\n  revert\n    /* \"#utility.yul\":146:869   */\ntag_26:\n    /* \"#utility.yul\":200:205   */\n  0x00\n    /* \"#utility.yul\":253:256   */\n  dup3\n    /* \"#utility.yul\":246:250   */\n  0x1f\n    /* \"#utility.yul\":238:244   */\n  dup4\n    /* \"#utility.yul\":234:251   */\n  add\n    /* \"#utility.yul\":230:257   */\n  slt\n    /* \"#utility.yul\":220:275   */\n  tag_34\n  jumpi\n    /* \"#utility.yul\":271:272   */\n  0x00\n    /* \"#utility.yul\":268:269   */\n  0x00\n    /* \"#utility.yul\":261:273   */\n  revert\n    /* \"#utility.yul\":220:275   */\ntag_34:\n    /* \"#utility.yul\":298:311   */\n  dup2\n  mload\n  sub(shl(0x40, 0x01), 0x01)\n    /* \"#utility.yul\":323:353   */\n  dup2\n  gt\n    /* \"#utility.yul\":320:376   */\n  iszero\n  tag_36\n  jumpi\n    /* \"#utility.yul\":356:374   */\n  tag_36\n  tag_25\n  jump\t// in\ntag_36:\n    /* \"#utility.yul\":405:407   */\n  0x40\n    /* \"#utility.yul\":399:408   */\n  mload\n    /* \"#utility.yul\":497:499   */\n  0x1f\n    /* \"#utility.yul\":459:476   */\n  dup3\n  add\n  not(0x1f)\n    /* \"#utility.yul\":455:486   */\n  swap1\n  dup2\n  and\n    /* \"#utility.yul\":488:490   */\n  0x3f\n    /* \"#utility.yul\":451:491   */\n  add\n    /* \"#utility.yul\":447:501   */\n  and\n    /* \"#utility.yul\":435:502   */\n  dup2\n  add\n  sub(shl(0x40, 0x01), 0x01)\n    /* \"#utility.yul\":517:551   */\n  dup2\n  gt\n    /* \"#utility.yul\":553:575   */\n  dup3\n  dup3\n  lt\n    /* \"#utility.yul\":514:576   */\n  or\n    /* \"#utility.yul\":511:599   */\n  iszero\n  tag_38\n  jumpi\n    /* \"#utility.yul\":579:597   */\n  tag_38\n  tag_25\n  jump\t// in\ntag_38:\n    /* \"#utility.yul\":615:617   */\n  0x40\n    /* \"#utility.yul\":608:630   */\n  mstore\n    /* \"#utility.yul\":639:661   */\n  dup2\n  dup2\n  mstore\n    /* \"#utility.yul\":680:699   */\n  dup4\n  dup3\n  add\n    /* \"#utility.yul\":701:705   */\n  0x20\n    /* \"#utility.yul\":676:706   */\n  add\n    /* \"#utility.yul\":673:712   */\n  dup6\n  lt\n    /* \"#utility.yul\":670:729   */\n  iszero\n  tag_39\n  jumpi\n    /* \"#utility.yul\":725:726   */\n  0x00\n    /* \"#utility.yul\":722:723   */\n  0x00\n    /* \"#utility.yul\":715:727   */\n  revert\n    /* \"#utility.yul\":670:729   */\ntag_39:\n    /* \"#utility.yul\":782:788   */\n  dup2\n    /* \"#utility.yul\":775:779   */\n  0x20\n    /* \"#utility.yul\":767:773   */\n  dup6\n    /* \"#utility.yul\":763:780   */\n  add\n    /* \"#utility.yul\":756:760   */\n  0x20\n    /* \"#utility.yul\":748:754   */\n  dup4\n    /* \"#utility.yul\":744:761   */\n  add\n    /* \"#utility.yul\":738:789   */\n  mcopy\n    /* \"#utility.yul\":837:838   */\n  0x00\n    /* \"#utility.yul\":809:828   */\n  swap2\n  dup2\n  add\n    /* \"#utility.yul\":830:834   */\n  0x20\n    /* \"#utility.yul\":805:835   */\n  add\n    /* \"#utility.yul\":798:839   */\n  swap2\n  swap1\n  swap2\n  mstore\n    /* \"#utility.yul\":813:819   */\n  swap4\n    /* \"#utility.yul\":146:869   */\n  swap3\n  pop\n  pop\n  pop\n  jump\t// out\n    /* \"#utility.yul\":874:1598   */\ntag_3:\n    /* \"#utility.yul\":982:988   */\n  0x00\n    /* \"#utility.yul\":990:996   */\n  0x00\n    /* \"#utility.yul\":998:1004   */\n  0x00\n    /* \"#utility.yul\":1051:1053   */\n  0x60\n    /* \"#utility.yul\":1039:1048   */\n  dup5\n    /* \"#utility.yul\":1030:1037   */\n  dup7\n    /* \"#utility.yul\":1026:1049   */\n  sub\n    /* \"#utility.yul\":1022:1054   */\n  slt\n    /* \"#utility.yul\":1019:1071   */\n  iszero\n  tag_41\n  jumpi\n    /* \"#utility.yul\":1067:1068   */\n  0x00\n    /* \"#utility.yul\":1064:1065   */\n  0x00\n    /* \"#utility.yul\":1057:1069   */\n  revert\n    /* \"#utility.yul\":1019:1071   */\ntag_41:\n    /* \"#utility.yul\":1093:1109   */\n  dup4\n  mload\n  sub(shl(0xa0, 0x01), 0x01)\n    /* \"#utility.yul\":1138:1169   */\n  dup2\n  and\n    /* \"#utility.yul\":1128:1170   */\n  dup2\n  eq\n    /* \"#utility.yul\":1118:1188   */\n  tag_42\n  jumpi\n    /* \"#utility.yul\":1184:1185   */\n  0x00\n    /* \"#utility.yul\":1181:1182   */\n  0x00\n    /* \"#utility.yul\":1174:1186   */\n  revert\n    /* \"#utility.yul\":1118:1188   */\ntag_42:\n    /* \"#utility.yul\":1256:1258   */\n  0x20\n    /* \"#utility.yul\":1241:1259   */\n  dup6\n  add\n    /* \"#utility.yul\":1235:1260   */\n  mload\n    /* \"#utility.yul\":1207:1212   */\n  swap1\n  swap4\n  pop\n  sub(shl(0x40, 0x01), 0x01)\n    /* \"#utility.yul\":1272:1302   */\n  dup2\n  gt\n    /* \"#utility.yul\":1269:1319   */\n  iszero\n  tag_43\n  jumpi\n    /* \"#utility.yul\":1315:1316   */\n  0x00\n    /* \"#utility.yul\":1312:1313   */\n  0x00\n    /* \"#utility.yul\":1305:1317   */\n  revert\n    /* \"#utility.yul\":1269:1319   */\ntag_43:\n    /* \"#utility.yul\":1338:1399   */\n  tag_44\n    /* \"#utility.yul\":1391:1398   */\n  dup7\n    /* \"#utility.yul\":1382:1388   */\n  dup3\n    /* \"#utility.yul\":1371:1380   */\n  dup8\n    /* \"#utility.yul\":1367:1389   */\n  add\n    /* \"#utility.yul\":1338:1399   */\n  tag_26\n  jump\t// in\ntag_44:\n    /* \"#utility.yul\":1445:1447   */\n  0x40\n    /* \"#utility.yul\":1430:1448   */\n  dup7\n  add\n    /* \"#utility.yul\":1424:1449   */\n  mload\n    /* \"#utility.yul\":1328:1399   */\n  swap1\n  swap4\n  pop\n    /* \"#utility.yul\":1424:1449   */\n  swap1\n  pop\n  sub(shl(0x40, 0x01), 0x01)\n    /* \"#utility.yul\":1461:1493   */\n  dup2\n  gt\n    /* \"#utility.yul\":1458:1510   */\n  iszero\n  tag_45\n  jumpi\n    /* \"#utility.yul\":1506:1507   */\n  0x00\n    /* \"#utility.yul\":1503:1504   */\n  0x00\n    /* \"#utility.yul\":1496:1508   */\n  revert\n    /* \"#utility.yul\":1458:1510   */\ntag_45:\n    /* \"#utility.yul\":1529:1592   */\n  tag_46\n    /* \"#utility.yul\":1584:1591   */\n  dup7\n    /* \"#utility.yul\":1573:1581   */\n  dup3\n    /* \"#utility.yul\":1562:1571   */\n  dup8\n    /* \"#utility.yul\":1558:1582   */\n  add\n    /* \"#utility.yul\":1529:1592   */\n  tag_26\n  jump\t// in\ntag_46:\n    /* \"#utility.yul\":1519:1592   */\n  swap2\n  pop\n  pop\n    /* \"#utility.yul\":874:1598   */\n  swap3\n  pop\n  swap3\n  pop\n  swap3\n  jump\t// out\n    /* \"#utility.yul\":1603:1897   */\ntag_7:\n    /* \"#utility.yul\":1643:1644   */\n  0x00\n  sub(shl(0x80, 0x01), 0x01)\n    /* \"#utility.yul\":1670:1697   */\n  dup4\n  and\n  dup1\n    /* \"#utility.yul\":1706:1840   */\n  tag_48\n  jumpi\n    /* \"#utility.yul\":1762:1772   */\n  0x4e487b71\n    /* \"#utility.yul\":1757:1760   */\n  0xe0\n    /* \"#utility.yul\":1753:1773   */\n  shl\n    /* \"#utility.yul\":1750:1751   */\n  0x00\n    /* \"#utility.yul\":1743:1774   */\n  mstore\n    /* \"#utility.yul\":1797:1801   */\n  0x12\n    /* \"#utility.yul\":1794:1795   */\n  0x04\n    /* \"#utility.yul\":1787:1802   */\n  mstore\n    /* \"#utility.yul\":1825:1829   */\n  0x24\n    /* \"#utility.yul\":1822:1823   */\n  0x00\n    /* \"#utility.yul\":1815:1830   */\n  revert\n    /* \"#utility.yul\":1706:1840   */\ntag_48:\n  sub(shl(0x80, 0x01), 0x01)\n    /* \"#utility.yul\":1858:1885   */\n  swap3\n  swap1\n  swap3\n  and\n    /* \"#utility.yul\":1854:1891   */\n  swap2\n  swap1\n  swap2\n  div\n  swap3\n    /* \"#utility.yul\":1603:1897   */\n  swap2\n  pop\n  pop\n  jump\t// out\n    /* \"#utility.yul\":2110:2490   */\ntag_27:\n    /* \"#utility.yul\":2189:2190   */\n  0x01\n    /* \"#utility.yul\":2185:2197   */\n  dup2\n  dup2\n  shr\n  swap1\n    /* \"#utility.yul\":2232:2244   */\n  dup3\n  and\n  dup1\n    /* \"#utility.yul\":2253:2314   */\n  tag_51\n  jumpi\n    /* \"#utility.yul\":2307:2311   */\n  0x7f\n    /* \"#utility.yul\":2299:2305   */\n  dup3\n    /* \"#utility.yul\":2295:2312   */\n  and\n    /* \"#utility.yul\":2285:2312   */\n  swap2\n  pop\n    /* \"#utility.yul\":2253:2314   */\ntag_51:\n    /* \"#utility.yul\":2360:2362   */\n  0x20\n    /* \"#utility.yul\":2352:2358   */\n  dup3\n    /* \"#utility.yul\":2349:2363   */\n  lt\n    /* \"#utility.yul\":2329:2347   */\n  dup2\n    /* \"#utility.yul\":2326:2364   */\n  sub\n    /* \"#utility.yul\":2323:2484   */\n  tag_52\n  jumpi\n    /* \"#utility.yul\":2406:2416   */\n  0x4e487b71\n    /* \"#utility.yul\":2401:2404   */\n  0xe0\n    /* \"#utility.yul\":2397:2417   */\n  shl\n    /* \"#utility.yul\":2394:2395   */\n  0x00\n    /* \"#utility.yul\":2387:2418   */\n  mstore\n    /* \"#utility.yul\":2441:2445   */\n  0x22\n    /* \"#utility.yul\":2438:2439   */\n  0x04\n    /* \"#utility.yul\":2431:2446   */\n  mstore\n    /* \"#utility.yul\":2469:2473   */\n  0x24\n    /* \"#utility.yul\":2466:2467   */\n  0x00\n    /* \"#utility.yul\":2459:2474   */\n  revert\n    /* \"#utility.yul\":2323:2484   */\ntag_52:\n  pop\n    /* \"#utility.yul\":2110:2490   */\n  swap2\n  swap1\n  pop\n  jump\t// out\n    /* \"#utility.yul\":2621:3139   */\ntag_29:\n    /* \"#utility.yul\":2723:2725   */\n  0x1f\n    /* \"#utility.yul\":2718:2721   */\n  dup3\n    /* \"#utility.yul\":2715:2726   */\n  gt\n    /* \"#utility.yul\":2712:3133   */\n  iszero\n  tag_55\n  jumpi\n    /* \"#utility.yul\":2759:2764   */\n  dup1\n    /* \"#utility.yul\":2756:2757   */\n  0x00\n    /* \"#utility.yul\":2749:2765   */\n  mstore\n    /* \"#utility.yul\":2803:2807   */\n  0x20\n    /* \"#utility.yul\":2800:2801   */\n  0x00\n    /* \"#utility.yul\":2790:2808   */\n  keccak256\n    /* \"#utility.yul\":2873:2875   */\n  0x1f\n    /* \"#utility.yul\":2861:2871   */\n  dup5\n    /* \"#utility.yul\":2857:2876   */\n  add\n    /* \"#utility.yul\":2854:2855   */\n  0x05\n    /* \"#utility.yul\":2850:2877   */\n  shr\n    /* \"#utility.yul\":2844:2848   */\n  dup2\n    /* \"#utility.yul\":2840:2878   */\n  add\n    /* \"#utility.yul\":2909:2913   */\n  0x20\n    /* \"#utility.yul\":2897:2907   */\n  dup6\n    /* \"#utility.yul\":2894:2914   */\n  lt\n    /* \"#utility.yul\":2891:2938   */\n  iszero\n  tag_56\n  jumpi\n  pop\n    /* \"#utility.yul\":2932:2936   */\n  dup1\n    /* \"#utility.yul\":2891:2938   */\ntag_56:\n    /* \"#utility.yul\":2987:2989   */\n  0x1f\n    /* \"#utility.yul\":2982:2985   */\n  dup5\n    /* \"#utility.yul\":2978:2990   */\n  add\n    /* \"#utility.yul\":2975:2976   */\n  0x05\n    /* \"#utility.yul\":2971:2991   */\n  shr\n    /* \"#utility.yul\":2965:2969   */\n  dup3\n    /* \"#utility.yul\":2961:2992   */\n  add\n    /* \"#utility.yul\":2951:2992   */\n  swap2\n  pop\n    /* \"#utility.yul\":3042:3123   */\ntag_57:\n    /* \"#utility.yul\":3060:3062   */\n  dup2\n    /* \"#utility.yul\":3053:3058   */\n  dup2\n    /* \"#utility.yul\":3050:3063   */\n  lt\n    /* \"#utility.yul\":3042:3123   */\n  iszero\n  tag_59\n  jumpi\n    /* \"#utility.yul\":3119:3120   */\n  0x00\n    /* \"#utility.yul\":3105:3121   */\n  dup2\n  sstore\n    /* \"#utility.yul\":3086:3087   */\n  0x01\n    /* \"#utility.yul\":3075:3088   */\n  add\n    /* \"#utility.yul\":3042:3123   */\n  jump(tag_57)\ntag_59:\n    /* \"#utility.yul\":3046:3049   */\n  pop\n  pop\n    /* \"#utility.yul\":2712:3133   */\ntag_55:\n    /* \"#utility.yul\":2621:3139   */\n  pop\n  pop\n  pop\n  jump\t// out\n    /* \"#utility.yul\":3315:4614   */\ntag_21:\n    /* \"#utility.yul\":3435:3445   */\n  dup2\n  mload\n  sub(shl(0x40, 0x01), 0x01)\n    /* \"#utility.yul\":3457:3487   */\n  dup2\n  gt\n    /* \"#utility.yul\":3454:3510   */\n  iszero\n  tag_63\n  jumpi\n    /* \"#utility.yul\":3490:3508   */\n  tag_63\n  tag_25\n  jump\t// in\ntag_63:\n    /* \"#utility.yul\":3519:3616   */\n  tag_64\n    /* \"#utility.yul\":3609:3615   */\n  dup2\n    /* \"#utility.yul\":3569:3607   */\n  tag_65\n    /* \"#utility.yul\":3601:3605   */\n  dup5\n    /* \"#utility.yul\":3595:3606   */\n  sload\n    /* \"#utility.yul\":3569:3607   */\n  tag_27\n  jump\t// in\ntag_65:\n    /* \"#utility.yul\":3563:3567   */\n  dup5\n    /* \"#utility.yul\":3519:3616   */\n  tag_29\n  jump\t// in\ntag_64:\n    /* \"#utility.yul\":3665:3669   */\n  0x20\n    /* \"#utility.yul\":3696:3698   */\n  0x1f\n    /* \"#utility.yul\":3685:3699   */\n  dup3\n  gt\n    /* \"#utility.yul\":3713:3714   */\n  0x01\n    /* \"#utility.yul\":3708:4357   */\n  dup2\n  eq\n  tag_67\n  jumpi\n    /* \"#utility.yul\":4401:4402   */\n  0x00\n    /* \"#utility.yul\":4418:4424   */\n  dup4\n    /* \"#utility.yul\":4415:4504   */\n  iszero\n  tag_68\n  jumpi\n  pop\n    /* \"#utility.yul\":4470:4489   */\n  dup5\n  dup3\n  add\n    /* \"#utility.yul\":4464:4490   */\n  mload\n    /* \"#utility.yul\":4415:4504   */\ntag_68:\n  not(0x00)\n    /* \"#utility.yul\":3272:3273   */\n  0x03\n    /* \"#utility.yul\":3268:3279   */\n  dup6\n  swap1\n  shl\n    /* \"#utility.yul\":3264:3288   */\n  shr\n    /* \"#utility.yul\":3260:3289   */\n  not\n    /* \"#utility.yul\":3250:3290   */\n  and\n    /* \"#utility.yul\":3296:3297   */\n  0x01\n    /* \"#utility.yul\":3292:3303   */\n  dup5\n  swap1\n  shl\n    /* \"#utility.yul\":3247:3304   */\n  or\n    /* \"#utility.yul\":4517:4598   */\n  dup5\n  sstore\n    /* \"#utility.yul\":3678:4608   */\n  jump(tag_59)\n    /* \"#utility.yul\":3708:4357   */\ntag_67:\n    /* \"#utility.yul\":2568:2569   */\n  0x00\n    /* \"#utility.yul\":2561:2575   */\n  dup5\n  dup2\n  mstore\n    /* \"#utility.yul\":2605:2609   */\n  0x20\n    /* \"#utility.yul\":2592:2610   */\n  dup2\n  keccak256\n  not(0x1f)\n    /* \"#utility.yul\":3744:3764   */\n  dup6\n  and\n  swap2\n    /* \"#utility.yul\":3862:4084   */\ntag_71:\n    /* \"#utility.yul\":3876:3883   */\n  dup3\n    /* \"#utility.yul\":3873:3874   */\n  dup2\n    /* \"#utility.yul\":3870:3884   */\n  lt\n    /* \"#utility.yul\":3862:4084   */\n  iszero\n  tag_73\n  jumpi\n    /* \"#utility.yul\":3958:3977   */\n  dup8\n  dup6\n  add\n    /* \"#utility.yul\":3952:3978   */\n  mload\n    /* \"#utility.yul\":3937:3979   */\n  dup3\n  sstore\n    /* \"#utility.yul\":4065:4069   */\n  0x20\n    /* \"#utility.yul\":4050:4070   */\n  swap5\n  dup6\n  add\n  swap5\n    /* \"#utility.yul\":4018:4019   */\n  0x01\n    /* \"#utility.yul\":4006:4020   */\n  swap1\n  swap3\n  add\n  swap2\n    /* \"#utility.yul\":3892:3904   */\n  add\n    /* \"#utility.yul\":3862:4084   */\n  jump(tag_71)\ntag_73:\n    /* \"#utility.yul\":3866:3869   */\n  pop\n    /* \"#utility.yul\":4112:4118   */\n  dup5\n    /* \"#utility.yul\":4103:4110   */\n  dup3\n    /* \"#utility.yul\":4100:4119   */\n  lt\n    /* \"#utility.yul\":4097:4298   */\n  iszero\n  tag_74\n  jumpi\n    /* \"#utility.yul\":4173:4192   */\n  dup7\n  dup5\n  add\n    /* \"#utility.yul\":4167:4193   */\n  mload\n  not(0x00)\n    /* \"#utility.yul\":4256:4257   */\n  0x03\n    /* \"#utility.yul\":4252:4266   */\n  dup8\n  swap1\n  shl\n    /* \"#utility.yul\":4268:4271   */\n  0xf8\n    /* \"#utility.yul\":4248:4272   */\n  and\n    /* \"#utility.yul\":4244:4281   */\n  shr\n    /* \"#utility.yul\":4240:4282   */\n  not\n    /* \"#utility.yul\":4225:4283   */\n  and\n    /* \"#utility.yul\":4210:4284   */\n  dup2\n  sstore\n    /* \"#utility.yul\":4097:4298   */\ntag_74:\n  pop\n  pop\n  pop\n  pop\n    /* \"#utility.yul\":4344:4345   */\n  0x01\n    /* \"#utility.yul\":4328:4342   */\n  swap1\n  dup2\n  shl\n    /* \"#utility.yul\":4324:4346   */\n  add\n    /* \"#utility.yul\":4311:4347   */\n  swap1\n  sstore\n  pop\n    /* \"#utility.yul\":3315:4614   */\n  jump\t// out\ntag_31:\n    /* \"src/PinusVault.sol\":1824:3683  contract PinusVault ... */\n  mload(0x80)\n  mload(0xa0)\n  mload(0xc0)\n  mload(0xe0)\n  mload(0x0100)\n  mload(0x0120)\n  codecopy(0x00, dataOffset(sub_0), dataSize(sub_0))\n  0x00\n  assignImmutable(\"0x7ca83d787e7423cefe91ee9c5de8a7604dac0860c07a3450ac6805c567c8da30\")\n  0x00\n  assignImmutable(\"0x4ae1552e4350a80143205619d7f069de3ba42a477d4cde67254305b44836b3e5\")\n  0x00\n  assignImmutable(\"0xf7cd777c1c37c29af53ca944c4f85299ef255c4bda4754e5ba8570de0e121e29\")\n  0x00\n  assignImmutable(\"0xbd987727b70a606a7e1db5b32732088143da230fadc11c7c728b9fa3560819d5\")\n  0x00\n  assignImmutable(\"0xe216240695da412145d9df04d3b0c5fca4d43b99b7d0d5386b61bbf0097f7efd\")\n  0x00\n  assignImmutable(\"0xa7bdfc878129f52ec07f97944c9fd91d284e896a681376adb64e65b65698adaf\")\n  return(0x00, dataSize(sub_0))\nstop\n\nsub_0: assembly {\n        /* \"src/PinusVault.sol\":1824:3683  contract PinusVault ... */\n      mstore(0x40, 0x80)\n      jumpi(tag_1, lt(calldatasize, 0x04))\n      shr(0xe0, calldataload(0x00))\n      dup1\n      0x7ecebe00\n      gt\n      tag_40\n      jumpi\n      dup1\n      0xbe45fd62\n      gt\n      tag_41\n      jumpi\n      dup1\n      0xf172a4ce\n      gt\n      tag_42\n      jumpi\n      dup1\n      0xf172a4ce\n      eq\n      tag_35\n      jumpi\n      dup1\n      0xf2fde38b\n      eq\n      tag_36\n      jumpi\n      dup1\n      0xf4d0bd72\n      eq\n      tag_37\n      jumpi\n      dup1\n      0xf86329e1\n      eq\n      tag_38\n      jumpi\n      dup1\n      0xfc028523\n      eq\n      tag_39\n      jumpi\n      revert(0x00, 0x00)\n    tag_42:\n      dup1\n      0xbe45fd62\n      eq\n      tag_30\n      jumpi\n      dup1\n      0xd505accf\n      eq\n      tag_31\n      jumpi\n      dup1\n      0xdd62ed3e\n      eq\n      tag_32\n      jumpi\n      dup1\n      0xe46dbd07\n      eq\n      tag_33\n      jumpi\n      dup1\n      0xe5aca599\n      eq\n      tag_34\n      jumpi\n      revert(0x00, 0x00)\n    tag_41:\n      dup1\n      0x94ef2103\n      gt\n      tag_43\n      jumpi\n      dup1\n      0x94ef2103\n      eq\n      tag_25\n      jumpi\n      dup1\n      0x95d89b41\n      eq\n      tag_26\n      jumpi\n      dup1\n      0xa9059cbb\n      eq\n      tag_27\n      jumpi\n      dup1\n      0xb3841f26\n      eq\n      tag_28\n      jumpi\n      dup1\n      0xb3ca7f2a\n      eq\n      tag_29\n      jumpi\n      revert(0x00, 0x00)\n    tag_43:\n      dup1\n      0x7ecebe00\n      eq\n      tag_21\n      jumpi\n      dup1\n      0x82e3d8bd\n      eq\n      tag_22\n      jumpi\n      dup1\n      0x8943ec02\n      eq\n      tag_23\n      jumpi\n      dup1\n      0x8da5cb5b\n      eq\n      tag_24\n      jumpi\n      revert(0x00, 0x00)\n    tag_40:\n      dup1\n      0x313ce567\n      gt\n      tag_44\n      jumpi\n      dup1\n      0x6263913c\n      gt\n      tag_45\n      jumpi\n      dup1\n      0x6263913c\n      eq\n      tag_16\n      jumpi\n      dup1\n      0x70a08231\n      eq\n      tag_17\n      jumpi\n      dup1\n      0x715018a6\n      eq\n      tag_18\n      jumpi\n      dup1\n      0x7b383f18\n      eq\n      tag_19\n      jumpi\n      dup1\n      0x7cc27b40\n      eq\n      tag_20\n      jumpi\n      revert(0x00, 0x00)\n    tag_45:\n      dup1\n      0x313ce567\n      eq\n      tag_11\n      jumpi\n      dup1\n      0x3644e515\n      eq\n      tag_12\n      jumpi\n      dup1\n      0x38d52e0f\n      eq\n      tag_13\n      jumpi\n      dup1\n      0x4206abe9\n      eq\n      tag_14\n      jumpi\n      dup1\n      0x6032f600\n      eq\n      tag_15\n      jumpi\n      revert(0x00, 0x00)\n    tag_44:\n      dup1\n      0x12958a6b\n      gt\n      tag_46\n      jumpi\n      dup1\n      0x12958a6b\n      eq\n      tag_6\n      jumpi\n      dup1\n      0x17b31167\n      eq\n      tag_7\n      jumpi\n      dup1\n      0x18160ddd\n      eq\n      tag_8\n      jumpi\n      dup1\n      0x223ecf7e\n      eq\n      tag_9\n      jumpi\n      dup1\n      0x23b872dd\n      eq\n      tag_10\n      jumpi\n      revert(0x00, 0x00)\n    tag_46:\n      dup1\n      0x058d1573\n      eq\n      tag_2\n      jumpi\n      dup1\n      0x06fdde03\n      eq\n      tag_3\n      jumpi\n      dup1\n      0x095ea7b3\n      eq\n      tag_4\n      jumpi\n      dup1\n      0x10ab2d01\n      eq\n      tag_5\n      jumpi\n    tag_1:\n      revert(0x00, 0x00)\n        /* \"src/ExchangeAbstract.sol\":574:618  uint128 public immutable nativeSellInhibitor */\n    tag_2:\n      callvalue\n      dup1\n      iszero\n      tag_47\n      jumpi\n      revert(0x00, 0x00)\n    tag_47:\n      pop\n      tag_48\n      immutable(\"0x4ae1552e4350a80143205619d7f069de3ba42a477d4cde67254305b44836b3e5\")\n      dup2\n      jump\n    tag_48:\n      mload(0x40)\n      sub(shl(0x80, 0x01), 0x01)\n        /* \"#utility.yul\":178:225   */\n      swap1\n      swap2\n      and\n        /* \"#utility.yul\":160:226   */\n      dup2\n      mstore\n        /* \"#utility.yul\":148:150   */\n      0x20\n        /* \"#utility.yul\":133:151   */\n      add\n        /* \"src/ExchangeAbstract.sol\":574:618  uint128 public immutable nativeSellInhibitor */\n    tag_50:\n      mload(0x40)\n      dup1\n      swap2\n      sub\n      swap1\n      return\n        /* \"src/PinusVault.sol\":2577:2668  function name() public view override returns (string memory){... */\n    tag_3:\n      callvalue\n      dup1\n      iszero\n      tag_52\n      jumpi\n      revert(0x00, 0x00)\n    tag_52:\n      pop\n      tag_53\n      tag_54\n      jump\t// in\n    tag_53:\n      mload(0x40)\n      tag_50\n      swap2\n      swap1\n      tag_56\n      jump\t// in\n        /* \"https://github.com/Vectorized/solady/blob/main/src/tokens/ERC20.sol\":8175:9204  function approve(address spender, uint256 amount) public virtual returns (bool) {... */\n    tag_4:\n      callvalue\n      dup1\n      iszero\n      tag_57\n      jumpi\n      revert(0x00, 0x00)\n    tag_57:\n      pop\n      tag_58\n      tag_59\n      calldatasize\n      0x04\n      tag_60\n      jump\t// in\n    tag_59:\n      tag_61\n      jump\t// in\n    tag_58:\n      mload(0x40)\n        /* \"#utility.yul\":1429:1443   */\n      swap1\n      iszero\n        /* \"#utility.yul\":1422:1444   */\n      iszero\n        /* \"#utility.yul\":1404:1445   */\n      dup2\n      mstore\n        /* \"#utility.yul\":1392:1394   */\n      0x20\n        /* \"#utility.yul\":1377:1395   */\n      add\n        /* \"https://github.com/Vectorized/solady/blob/main/src/tokens/ERC20.sol\":8175:9204  function approve(address spender, uint256 amount) public virtual returns (bool) {... */\n      tag_50\n        /* \"#utility.yul\":1264:1451   */\n      jump\n        /* \"src/PinusVault.sol\":2783:2963  function customCall(address to,uint value,bytes calldata data) public onlyOwner returns (bool success, bytes memory returnData) {... */\n    tag_5:\n      callvalue\n      dup1\n      iszero\n      tag_64\n      jumpi\n      revert(0x00, 0x00)\n    tag_64:\n      pop\n      tag_65\n      tag_66\n      calldatasize\n      0x04\n      tag_67\n      jump\t// in\n    tag_66:\n      tag_68\n      jump\t// in\n    tag_65:\n      mload(0x40)\n      tag_50\n      swap3\n      swap2\n      swap1\n      tag_70\n      jump\t// in\n        /* \"src/SwapAbstract.sol\":1140:1335  function swapNativeToERC20(address to) public payable returns (uint erc20sBought) {... */\n    tag_6:\n      tag_71\n      tag_72\n      calldatasize\n      0x04\n      tag_73\n      jump\t// in\n    tag_72:\n      tag_74\n      jump\t// in\n    tag_71:\n      mload(0x40)\n        /* \"#utility.yul\":3004:3029   */\n      swap1\n      dup2\n      mstore\n        /* \"#utility.yul\":2992:2994   */\n      0x20\n        /* \"#utility.yul\":2977:2995   */\n      add\n        /* \"src/SwapAbstract.sol\":1140:1335  function swapNativeToERC20(address to) public payable returns (uint erc20sBought) {... */\n      tag_50\n        /* \"#utility.yul\":2858:3035   */\n      jump\n        /* \"src/SwapAbstract.sol\":3296:3837  function swapERC20ToNative(SwapAbstract sa, uint erc20sSold, address to) external returns (uint erc20sEarned) {... */\n    tag_7:\n      callvalue\n      dup1\n      iszero\n      tag_77\n      jumpi\n      revert(0x00, 0x00)\n    tag_77:\n      pop\n      tag_71\n      tag_79\n      calldatasize\n      0x04\n      tag_80\n      jump\t// in\n    tag_79:\n      tag_81\n      jump\t// in\n        /* \"https://github.com/Vectorized/solady/blob/main/src/tokens/ERC20.sol\":6907:7102  function totalSupply() public view virtual returns (uint256 result) {... */\n    tag_8:\n      callvalue\n      dup1\n      iszero\n      tag_83\n      jumpi\n      revert(0x00, 0x00)\n    tag_83:\n      pop\n        /* \"https://github.com/Vectorized/solady/blob/main/src/tokens/ERC20.sol\":7067:7085  _TOTAL_SUPPLY_SLOT */\n      0x05345cdf77eb68f44c\n        /* \"https://github.com/Vectorized/solady/blob/main/src/tokens/ERC20.sol\":7061:7086  sload(_TOTAL_SUPPLY_SLOT) */\n      sload\n        /* \"https://github.com/Vectorized/solady/blob/main/src/tokens/ERC20.sol\":6907:7102  function totalSupply() public view virtual returns (uint256 result) {... */\n      jump(tag_71)\n        /* \"src/SwapAbstract.sol\":2254:2383  function swapNativeToERC20() external payable returns (uint erc20sBought) {... */\n    tag_9:\n      tag_71\n      tag_88\n      jump\t// in\n        /* \"https://github.com/Vectorized/solady/blob/main/src/tokens/ERC20.sol\":11165:15918  function transferFrom(address from, address to, uint256 amount) public virtual returns (bool) {... */\n    tag_10:\n      callvalue\n      dup1\n      iszero\n      tag_90\n      jumpi\n      revert(0x00, 0x00)\n    tag_90:\n      pop\n      tag_58\n      tag_92\n      calldatasize\n      0x04\n      tag_93\n      jump\t// in\n    tag_92:\n      tag_94\n      jump\t// in\n        /* \"https://github.com/Vectorized/solady/blob/main/src/tokens/ERC20.sol\":6480:6562  function decimals() public view virtual returns (uint8) {... */\n    tag_11:\n      callvalue\n      dup1\n      iszero\n      tag_96\n      jumpi\n      revert(0x00, 0x00)\n    tag_96:\n      pop\n      mload(0x40)\n        /* \"https://github.com/Vectorized/solady/blob/main/src/tokens/ERC20.sol\":6553:6555  18 */\n      0x12\n        /* \"#utility.yul\":4229:4265   */\n      dup2\n      mstore\n        /* \"#utility.yul\":4217:4219   */\n      0x20\n        /* \"#utility.yul\":4202:4220   */\n      add\n        /* \"https://github.com/Vectorized/solady/blob/main/src/tokens/ERC20.sol\":6480:6562  function decimals() public view virtual returns (uint8) {... */\n      tag_50\n        /* \"#utility.yul\":4087:4271   */\n      jump\n        /* \"https://github.com/Vectorized/solady/blob/main/src/tokens/ERC20.sol\":21458:22195  function DOMAIN_SEPARATOR() public view virtual returns (bytes32 result) {... */\n    tag_12:\n      callvalue\n      dup1\n      iszero\n      tag_101\n      jumpi\n      revert(0x00, 0x00)\n    tag_101:\n      pop\n      tag_71\n      tag_103\n      jump\t// in\n        /* \"src/SwapAbstract.sol\":372:400  ERC20 public immutable asset */\n    tag_13:\n      callvalue\n      dup1\n      iszero\n      tag_106\n      jumpi\n      revert(0x00, 0x00)\n    tag_106:\n      pop\n      tag_107\n      immutable(\"0xa7bdfc878129f52ec07f97944c9fd91d284e896a681376adb64e65b65698adaf\")\n      dup2\n      jump\n    tag_107:\n      mload(0x40)\n      sub(shl(0xa0, 0x01), 0x01)\n        /* \"#utility.yul\":4635:4667   */\n      swap1\n      swap2\n      and\n        /* \"#utility.yul\":4617:4668   */\n      dup2\n      mstore\n        /* \"#utility.yul\":4605:4607   */\n      0x20\n        /* \"#utility.yul\":4590:4608   */\n      add\n        /* \"src/SwapAbstract.sol\":372:400  ERC20 public immutable asset */\n      tag_50\n        /* \"#utility.yul\":4458:4674   */\n      jump\n        /* \"src/ExchangeAbstract.sol\":1408:1719  function erc20ToNativePrice(uint erc20sSold) public override view returns (uint nativesBought) {... */\n    tag_14:\n      callvalue\n      dup1\n      iszero\n      tag_111\n      jumpi\n      revert(0x00, 0x00)\n    tag_111:\n      pop\n      tag_71\n      tag_113\n      calldatasize\n      0x04\n      tag_114\n      jump\t// in\n    tag_113:\n      tag_115\n      jump\t// in\n        /* \"src/SwapAbstract.sol\":2099:2246  function swapERC20ToNative(uint erc20sSold) public returns (uint nativesBought) {... */\n    tag_15:\n      callvalue\n      dup1\n      iszero\n      tag_117\n      jumpi\n      revert(0x00, 0x00)\n    tag_117:\n      pop\n      tag_71\n      tag_119\n      calldatasize\n      0x04\n      tag_114\n      jump\t// in\n    tag_119:\n      tag_120\n      jump\t// in\n        /* \"src/SwapAbstract.sol\":2706:2883  function swapERC20ToNative(uint erc20sSold, Permit2Sig calldata sig) external returns (uint nativesBought) {... */\n    tag_16:\n      callvalue\n      dup1\n      iszero\n      tag_122\n      jumpi\n      revert(0x00, 0x00)\n    tag_122:\n      pop\n      tag_71\n      tag_124\n      calldatasize\n      0x04\n      tag_125\n      jump\t// in\n    tag_124:\n      tag_126\n      jump\t// in\n        /* \"https://github.com/Vectorized/solady/blob/main/src/tokens/ERC20.sol\":7168:7454  function balanceOf(address owner) public view virtual returns (uint256 result) {... */\n    tag_17:\n      callvalue\n      dup1\n      iszero\n      tag_128\n      jumpi\n      revert(0x00, 0x00)\n    tag_128:\n      pop\n      tag_71\n      tag_130\n      calldatasize\n      0x04\n      tag_73\n      jump\t// in\n    tag_130:\n        /* \"https://github.com/Vectorized/solady/blob/main/src/tokens/ERC20.sol\":7336:7354  _BALANCE_SLOT_SEED */\n      0x87a211a2\n        /* \"https://github.com/Vectorized/solady/blob/main/src/tokens/ERC20.sol\":7330:7334  0x0c */\n      0x0c\n        /* \"https://github.com/Vectorized/solady/blob/main/src/tokens/ERC20.sol\":7323:7355  mstore(0x0c, _BALANCE_SLOT_SEED) */\n      swap1\n      dup2\n      mstore\n        /* \"https://github.com/Vectorized/solady/blob/main/src/tokens/ERC20.sol\":7231:7245  uint256 result */\n      0x00\n        /* \"https://github.com/Vectorized/solady/blob/main/src/tokens/ERC20.sol\":7368:7387  mstore(0x00, owner) */\n      swap2\n      swap1\n      swap2\n      mstore\n        /* \"https://github.com/Vectorized/solady/blob/main/src/tokens/ERC20.sol\":7432:7436  0x20 */\n      0x20\n        /* \"https://github.com/Vectorized/solady/blob/main/src/tokens/ERC20.sol\":7416:7437  keccak256(0x0c, 0x20) */\n      swap1\n      keccak256\n        /* \"https://github.com/Vectorized/solady/blob/main/src/tokens/ERC20.sol\":7410:7438  sload(keccak256(0x0c, 0x20)) */\n      sload\n      swap1\n        /* \"https://github.com/Vectorized/solady/blob/main/src/tokens/ERC20.sol\":7168:7454  function balanceOf(address owner) public view virtual returns (uint256 result) {... */\n      jump\n        /* \"@openzeppelin/contracts/access/Ownable.sol\":2293:2394  function renounceOwnership() public virtual onlyOwner {... */\n    tag_18:\n      callvalue\n      dup1\n      iszero\n      tag_133\n      jumpi\n      revert(0x00, 0x00)\n    tag_133:\n      pop\n      tag_134\n      tag_135\n      jump\t// in\n    tag_134:\n      stop\n        /* \"src/PinusVault.sol\":2971:3159  function nativeToERC20Price(uint nativesSold) public override view returns (uint erc20sBought) {... */\n    tag_19:\n      callvalue\n      dup1\n      iszero\n      tag_136\n      jumpi\n      revert(0x00, 0x00)\n    tag_136:\n      pop\n      tag_71\n      tag_138\n      calldatasize\n      0x04\n      tag_114\n      jump\t// in\n    tag_138:\n      tag_139\n      jump\t// in\n        /* \"src/ExchangeAbstract.sol\":525:567  uint128 public immutable nativeBuyableRate */\n    tag_20:\n      callvalue\n      dup1\n      iszero\n      tag_141\n      jumpi\n      revert(0x00, 0x00)\n    tag_141:\n      pop\n      tag_48\n      immutable(\"0xf7cd777c1c37c29af53ca944c4f85299ef255c4bda4754e5ba8570de0e121e29\")\n      dup2\n      jump\n        /* \"https://github.com/Vectorized/solady/blob/main/src/tokens/ERC20.sol\":17137:17477  function nonces(address owner) public view virtual returns (uint256 result) {... */\n    tag_21:\n      callvalue\n      dup1\n      iszero\n      tag_145\n      jumpi\n      revert(0x00, 0x00)\n    tag_145:\n      pop\n      tag_71\n      tag_147\n      calldatasize\n      0x04\n      tag_73\n      jump\t// in\n    tag_147:\n        /* \"https://github.com/Vectorized/solady/blob/main/src/tokens/ERC20.sol\":17360:17377  _NONCES_SLOT_SEED */\n      0x38377508\n        /* \"https://github.com/Vectorized/solady/blob/main/src/tokens/ERC20.sol\":17354:17358  0x0c */\n      0x0c\n        /* \"https://github.com/Vectorized/solady/blob/main/src/tokens/ERC20.sol\":17347:17378  mstore(0x0c, _NONCES_SLOT_SEED) */\n      swap1\n      dup2\n      mstore\n        /* \"https://github.com/Vectorized/solady/blob/main/src/tokens/ERC20.sol\":17197:17211  uint256 result */\n      0x00\n        /* \"https://github.com/Vectorized/solady/blob/main/src/tokens/ERC20.sol\":17391:17410  mstore(0x00, owner) */\n      swap2\n      swap1\n      swap2\n      mstore\n        /* \"https://github.com/Vectorized/solady/blob/main/src/tokens/ERC20.sol\":17455:17459  0x20 */\n      0x20\n        /* \"https://github.com/Vectorized/solady/blob/main/src/tokens/ERC20.sol\":17439:17460  keccak256(0x0c, 0x20) */\n      swap1\n      keccak256\n        /* \"https://github.com/Vectorized/solady/blob/main/src/tokens/ERC20.sol\":17433:17461  sload(keccak256(0x0c, 0x20)) */\n      sload\n      swap1\n        /* \"https://github.com/Vectorized/solady/blob/main/src/tokens/ERC20.sol\":17137:17477  function nonces(address owner) public view virtual returns (uint256 result) {... */\n      jump\n        /* \"src/ExchangeAbstract.sol\":475:518  uint128 public immutable erc20SellInhibitor */\n    tag_22:\n      callvalue\n      dup1\n      iszero\n      tag_150\n      jumpi\n      revert(0x00, 0x00)\n    tag_150:\n      pop\n      tag_48\n      immutable(\"0xbd987727b70a606a7e1db5b32732088143da230fadc11c7c728b9fa3560819d5\")\n      dup2\n      jump\n        /* \"src/SwapAbstract.sol\":1762:2063  function tokenReceived(address from, uint value, bytes calldata) external returns (bytes4) {... */\n    tag_23:\n      callvalue\n      dup1\n      iszero\n      tag_154\n      jumpi\n      revert(0x00, 0x00)\n    tag_154:\n      pop\n      tag_155\n      tag_156\n      calldatasize\n      0x04\n      tag_67\n      jump\t// in\n    tag_156:\n      tag_157\n      jump\t// in\n    tag_155:\n      mload(0x40)\n      not(sub(shl(0xe0, 0x01), 0x01))\n        /* \"#utility.yul\":5600:5633   */\n      swap1\n      swap2\n      and\n        /* \"#utility.yul\":5582:5634   */\n      dup2\n      mstore\n        /* \"#utility.yul\":5570:5572   */\n      0x20\n        /* \"#utility.yul\":5555:5573   */\n      add\n        /* \"src/SwapAbstract.sol\":1762:2063  function tokenReceived(address from, uint value, bytes calldata) external returns (bytes4) {... */\n      tag_50\n        /* \"#utility.yul\":5438:5640   */\n      jump\n        /* \"@openzeppelin/contracts/access/Ownable.sol\":1638:1723  function owner() public view virtual returns (address) {... */\n    tag_24:\n      callvalue\n      dup1\n      iszero\n      tag_160\n      jumpi\n      revert(0x00, 0x00)\n    tag_160:\n      pop\n        /* \"@openzeppelin/contracts/access/Ownable.sol\":1710:1716  _owner */\n      and(sub(shl(0xa0, 0x01), 0x01), sload(0x02))\n        /* \"@openzeppelin/contracts/access/Ownable.sol\":1638:1723  function owner() public view virtual returns (address) {... */\n      jump(tag_107)\n        /* \"src/SwapAbstract.sol\":2421:2694  function swapERC20ToNative(uint erc20sSold, address to, Permit2Sig calldata sig) public returns (uint nativesBought) {... */\n    tag_25:\n      callvalue\n      dup1\n      iszero\n      tag_165\n      jumpi\n      revert(0x00, 0x00)\n    tag_165:\n      pop\n      tag_71\n      tag_167\n      calldatasize\n      0x04\n      tag_168\n      jump\t// in\n    tag_167:\n      tag_169\n      jump\t// in\n        /* \"src/PinusVault.sol\":2680:2775  function symbol() public view override returns (string memory){... */\n    tag_26:\n      callvalue\n      dup1\n      iszero\n      tag_171\n      jumpi\n      revert(0x00, 0x00)\n    tag_171:\n      pop\n      tag_53\n      tag_173\n      jump\t// in\n        /* \"https://github.com/Vectorized/solady/blob/main/src/tokens/ERC20.sol\":9391:10797  function transfer(address to, uint256 amount) public virtual returns (bool) {... */\n    tag_27:\n      callvalue\n      dup1\n      iszero\n      tag_175\n      jumpi\n      revert(0x00, 0x00)\n    tag_175:\n      pop\n      tag_58\n      tag_177\n      calldatasize\n      0x04\n      tag_60\n      jump\t// in\n    tag_177:\n      tag_178\n      jump\t// in\n        /* \"src/PinusVault.sol\":3406:3676  function swapERC20ToNative(uint erc20sSold, address recipient) public override returns (uint nativesBought) {... */\n    tag_28:\n      callvalue\n      dup1\n      iszero\n      tag_180\n      jumpi\n      revert(0x00, 0x00)\n    tag_180:\n      pop\n      tag_71\n      tag_182\n      calldatasize\n      0x04\n      tag_183\n      jump\t// in\n    tag_182:\n      tag_184\n      jump\t// in\n        /* \"src/ExchangeAbstract.sol\":1122:1259  function nativesBuyable() public view returns (uint) {... */\n    tag_29:\n      callvalue\n      dup1\n      iszero\n      tag_186\n      jumpi\n      revert(0x00, 0x00)\n    tag_186:\n      pop\n      tag_71\n      tag_188\n      jump\t// in\n        /* \"src/ERC223L.sol\":310:550  function transfer(address _to, uint _value, bytes calldata _data) public returns (bool success)... */\n    tag_30:\n      callvalue\n      dup1\n      iszero\n      tag_190\n      jumpi\n      revert(0x00, 0x00)\n    tag_190:\n      pop\n      tag_58\n      tag_192\n      calldatasize\n      0x04\n      tag_67\n      jump\t// in\n    tag_192:\n      tag_193\n      jump\t// in\n        /* \"https://github.com/Vectorized/solady/blob/main/src/tokens/ERC20.sol\":17661:21377  function permit(... */\n    tag_31:\n      callvalue\n      dup1\n      iszero\n      tag_195\n      jumpi\n      revert(0x00, 0x00)\n    tag_195:\n      pop\n      tag_134\n      tag_197\n      calldatasize\n      0x04\n      tag_198\n      jump\t// in\n    tag_197:\n      tag_199\n      jump\t// in\n        /* \"https://github.com/Vectorized/solady/blob/main/src/tokens/ERC20.sol\":7549:8044  function allowance(address owner, address spender)... */\n    tag_32:\n      callvalue\n      dup1\n      iszero\n      tag_200\n      jumpi\n      revert(0x00, 0x00)\n    tag_200:\n      pop\n      tag_71\n      tag_202\n      calldatasize\n      0x04\n      tag_203\n      jump\t// in\n    tag_202:\n        /* \"https://github.com/Vectorized/solady/blob/main/src/tokens/ERC20.sol\":7884:7888  0x20 */\n      0x20\n        /* \"https://github.com/Vectorized/solady/blob/main/src/tokens/ERC20.sol\":7877:7898  mstore(0x20, spender) */\n      mstore\n        /* \"https://github.com/Vectorized/solady/blob/main/src/tokens/ERC20.sol\":7924:7944  _ALLOWANCE_SLOT_SEED */\n      0x7f5e9f20\n        /* \"https://github.com/Vectorized/solady/blob/main/src/tokens/ERC20.sol\":7918:7922  0x0c */\n      0x0c\n        /* \"https://github.com/Vectorized/solady/blob/main/src/tokens/ERC20.sol\":7911:7945  mstore(0x0c, _ALLOWANCE_SLOT_SEED) */\n      swap1\n      dup2\n      mstore\n        /* \"https://github.com/Vectorized/solady/blob/main/src/tokens/ERC20.sol\":7965:7969  0x00 */\n      0x00\n        /* \"https://github.com/Vectorized/solady/blob/main/src/tokens/ERC20.sol\":7958:7977  mstore(0x00, owner) */\n      swap2\n      swap1\n      swap2\n      mstore\n        /* \"https://github.com/Vectorized/solady/blob/main/src/tokens/ERC20.sol\":8022:8026  0x34 */\n      0x34\n        /* \"https://github.com/Vectorized/solady/blob/main/src/tokens/ERC20.sol\":8006:8027  keccak256(0x0c, 0x34) */\n      swap1\n      keccak256\n        /* \"https://github.com/Vectorized/solady/blob/main/src/tokens/ERC20.sol\":8000:8028  sload(keccak256(0x0c, 0x34)) */\n      sload\n      swap1\n        /* \"https://github.com/Vectorized/solady/blob/main/src/tokens/ERC20.sol\":7549:8044  function allowance(address owner, address spender)... */\n      jump\n        /* \"src/ExchangeAbstract.sol\":631:677  uint public erc20BuyableTime = block.timestamp */\n    tag_33:\n      callvalue\n      dup1\n      iszero\n      tag_206\n      jumpi\n      revert(0x00, 0x00)\n    tag_206:\n      pop\n      tag_71\n      sload(0x00)\n      dup2\n      jump\n        /* \"src/SwapAbstract.sol\":2891:3288  function swapNativeToERC20(SwapAbstract sa, uint nativesSold, address to) external returns (uint nativesEarned) {... */\n    tag_34:\n      callvalue\n      dup1\n      iszero\n      tag_210\n      jumpi\n      revert(0x00, 0x00)\n    tag_210:\n      pop\n      tag_71\n      tag_212\n      calldatasize\n      0x04\n      tag_80\n      jump\t// in\n    tag_212:\n      tag_213\n      jump\t// in\n        /* \"src/PinusVault.sol\":2192:2225  bytes32 public immutable nameHash */\n    tag_35:\n      callvalue\n      dup1\n      iszero\n      tag_215\n      jumpi\n      revert(0x00, 0x00)\n    tag_215:\n      pop\n      tag_71\n      immutable(\"0x7ca83d787e7423cefe91ee9c5de8a7604dac0860c07a3450ac6805c567c8da30\")\n      dup2\n      jump\n        /* \"@openzeppelin/contracts/access/Ownable.sol\":2543:2758  function transferOwnership(address newOwner) public virtual onlyOwner {... */\n    tag_36:\n      callvalue\n      dup1\n      iszero\n      tag_219\n      jumpi\n      revert(0x00, 0x00)\n    tag_219:\n      pop\n      tag_134\n      tag_221\n      calldatasize\n      0x04\n      tag_73\n      jump\t// in\n    tag_221:\n      tag_222\n      jump\t// in\n        /* \"src/ExchangeAbstract.sol\":1267:1400  function erc20sBuyable() public view returns (uint) {... */\n    tag_37:\n      callvalue\n      dup1\n      iszero\n      tag_223\n      jumpi\n      revert(0x00, 0x00)\n    tag_223:\n      pop\n      tag_71\n      tag_225\n      jump\t// in\n        /* \"src/ExchangeAbstract.sol\":427:468  uint128 public immutable erc20BuyableRate */\n    tag_38:\n      callvalue\n      dup1\n      iszero\n      tag_227\n      jumpi\n      revert(0x00, 0x00)\n    tag_227:\n      pop\n      tag_48\n      immutable(\"0xe216240695da412145d9df04d3b0c5fca4d43b99b7d0d5386b61bbf0097f7efd\")\n      dup2\n      jump\n        /* \"src/SwapAbstract.sol\":3975:4368  function swapERC223LToNative(SwapAbstract sa, uint erc20sSold, address to) external returns (uint erc20sEarned) {... */\n    tag_39:\n      callvalue\n      dup1\n      iszero\n      tag_231\n      jumpi\n      revert(0x00, 0x00)\n    tag_231:\n      pop\n      tag_71\n      tag_233\n      calldatasize\n      0x04\n      tag_80\n      jump\t// in\n    tag_233:\n      tag_234\n      jump\t// in\n        /* \"src/PinusVault.sol\":2577:2668  function name() public view override returns (string memory){... */\n    tag_54:\n        /* \"src/PinusVault.sol\":2623:2636  string memory */\n      0x60\n        /* \"src/PinusVault.sol\":2655:2660  _name */\n      0x03\n        /* \"src/PinusVault.sol\":2648:2660  return _name */\n      dup1\n      sload\n      tag_237\n      swap1\n      tag_238\n      jump\t// in\n    tag_237:\n      dup1\n      0x1f\n      add\n      0x20\n      dup1\n      swap2\n      div\n      mul\n      0x20\n      add\n      mload(0x40)\n      swap1\n      dup2\n      add\n      0x40\n      mstore\n      dup1\n      swap3\n      swap2\n      swap1\n      dup2\n      dup2\n      mstore\n      0x20\n      add\n      dup3\n      dup1\n      sload\n      tag_239\n      swap1\n      tag_238\n      jump\t// in\n    tag_239:\n      dup1\n      iszero\n      tag_240\n      jumpi\n      dup1\n      0x1f\n      lt\n      tag_241\n      jumpi\n      0x0100\n      dup1\n      dup4\n      sload\n      div\n      mul\n      dup4\n      mstore\n      swap2\n      0x20\n      add\n      swap2\n      jump(tag_240)\n    tag_241:\n      dup3\n      add\n      swap2\n      swap1\n      0x00\n      mstore\n      keccak256(0x00, 0x20)\n      swap1\n    tag_242:\n      dup2\n      sload\n      dup2\n      mstore\n      swap1\n      0x01\n      add\n      swap1\n      0x20\n      add\n      dup1\n      dup4\n      gt\n      tag_242\n      jumpi\n      dup3\n      swap1\n      sub\n      0x1f\n      and\n      dup3\n      add\n      swap2\n    tag_240:\n      pop\n      pop\n      pop\n      pop\n      pop\n      swap1\n      pop\n        /* \"src/PinusVault.sol\":2577:2668  function name() public view override returns (string memory){... */\n      swap1\n      jump\t// out\n        /* \"https://github.com/Vectorized/solady/blob/main/src/tokens/ERC20.sol\":8175:9204  function approve(address spender, uint256 amount) public virtual returns (bool) {... */\n    tag_61:\n        /* \"https://github.com/Vectorized/solady/blob/main/src/tokens/ERC20.sol\":8249:8253  bool */\n      0x00\n        /* \"https://github.com/Vectorized/solady/blob/main/src/tokens/ERC20.sol\":8864:8871  spender */\n      dup3\n        /* \"https://github.com/Vectorized/solady/blob/main/src/tokens/ERC20.sol\":8858:8862  0x20 */\n      0x20\n        /* \"https://github.com/Vectorized/solady/blob/main/src/tokens/ERC20.sol\":8851:8872  mstore(0x20, spender) */\n      mstore\n        /* \"https://github.com/Vectorized/solady/blob/main/src/tokens/ERC20.sol\":8898:8918  _ALLOWANCE_SLOT_SEED */\n      0x7f5e9f20\n        /* \"https://github.com/Vectorized/solady/blob/main/src/tokens/ERC20.sol\":8892:8896  0x0c */\n      0x0c\n        /* \"https://github.com/Vectorized/solady/blob/main/src/tokens/ERC20.sol\":8885:8919  mstore(0x0c, _ALLOWANCE_SLOT_SEED) */\n      mstore\n        /* \"https://github.com/Vectorized/solady/blob/main/src/tokens/ERC20.sol\":8945:8953  caller() */\n      caller\n        /* \"https://github.com/Vectorized/solady/blob/main/src/tokens/ERC20.sol\":8939:8943  0x00 */\n      0x00\n        /* \"https://github.com/Vectorized/solady/blob/main/src/tokens/ERC20.sol\":8932:8954  mstore(0x00, caller()) */\n      mstore\n        /* \"https://github.com/Vectorized/solady/blob/main/src/tokens/ERC20.sol\":8997:9003  amount */\n      dup2\n        /* \"https://github.com/Vectorized/solady/blob/main/src/tokens/ERC20.sol\":8990:8994  0x34 */\n      0x34\n        /* \"https://github.com/Vectorized/solady/blob/main/src/tokens/ERC20.sol\":8984:8988  0x0c */\n      0x0c\n        /* \"https://github.com/Vectorized/solady/blob/main/src/tokens/ERC20.sol\":8974:8995  keccak256(0x0c, 0x34) */\n      keccak256\n        /* \"https://github.com/Vectorized/solady/blob/main/src/tokens/ERC20.sol\":8967:9004  sstore(keccak256(0x0c, 0x34), amount) */\n      sstore\n        /* \"https://github.com/Vectorized/solady/blob/main/src/tokens/ERC20.sol\":9072:9078  amount */\n      dup2\n        /* \"https://github.com/Vectorized/solady/blob/main/src/tokens/ERC20.sol\":9066:9070  0x00 */\n      0x00\n        /* \"https://github.com/Vectorized/solady/blob/main/src/tokens/ERC20.sol\":9059:9079  mstore(0x00, amount) */\n      mstore\n        /* \"https://github.com/Vectorized/solady/blob/main/src/tokens/ERC20.sol\":9160:9164  0x2c */\n      0x2c\n        /* \"https://github.com/Vectorized/solady/blob/main/src/tokens/ERC20.sol\":9154:9165  mload(0x2c) */\n      mload\n        /* \"https://github.com/Vectorized/solady/blob/main/src/tokens/ERC20.sol\":9150:9152  96 */\n      0x60\n        /* \"https://github.com/Vectorized/solady/blob/main/src/tokens/ERC20.sol\":9146:9166  shr(96, mload(0x2c)) */\n      shr\n        /* \"https://github.com/Vectorized/solady/blob/main/src/tokens/ERC20.sol\":9136:9144  caller() */\n      caller\n        /* \"https://github.com/Vectorized/solady/blob/main/src/tokens/ERC20.sol\":9109:9134  _APPROVAL_EVENT_SIGNATURE */\n      0x8c5be1e5ebec7d5bd14f71427d1e84f3dd0314c0f7b2291e5b200ac8c7c3b925\n        /* \"https://github.com/Vectorized/solady/blob/main/src/tokens/ERC20.sol\":9103:9107  0x20 */\n      0x20\n        /* \"https://github.com/Vectorized/solady/blob/main/src/tokens/ERC20.sol\":9097:9101  0x00 */\n      0x00\n        /* \"https://github.com/Vectorized/solady/blob/main/src/tokens/ERC20.sol\":9092:9167  log3(0x00, 0x20, _APPROVAL_EVENT_SIGNATURE, caller(), shr(96, mload(0x2c))) */\n      log3\n      pop\n        /* \"https://github.com/Vectorized/solady/blob/main/src/tokens/ERC20.sol\":9193:9197  true */\n      0x01\n        /* \"https://github.com/Vectorized/solady/blob/main/src/tokens/ERC20.sol\":8175:9204  function approve(address spender, uint256 amount) public virtual returns (bool) {... */\n    tag_243:\n      swap3\n      swap2\n      pop\n      pop\n      jump\t// out\n        /* \"src/PinusVault.sol\":2783:2963  function customCall(address to,uint value,bytes calldata data) public onlyOwner returns (bool success, bytes memory returnData) {... */\n    tag_68:\n        /* \"src/PinusVault.sol\":2872:2884  bool success */\n      0x00\n        /* \"src/PinusVault.sol\":2886:2909  bytes memory returnData */\n      0x60\n        /* \"@openzeppelin/contracts/access/Ownable.sol\":1531:1544  _checkOwner() */\n      tag_249\n        /* \"@openzeppelin/contracts/access/Ownable.sol\":1531:1542  _checkOwner */\n      tag_250\n        /* \"@openzeppelin/contracts/access/Ownable.sol\":1531:1544  _checkOwner() */\n      jump\t// in\n    tag_249:\n        /* \"src/PinusVault.sol\":2929:2931  to */\n      dup6\n      sub(shl(0xa0, 0x01), 0x01)\n        /* \"src/PinusVault.sol\":2929:2936  to.call */\n      and\n        /* \"src/PinusVault.sol\":2943:2948  value */\n      dup6\n        /* \"src/PinusVault.sol\":2950:2954  data */\n      dup6\n      dup6\n        /* \"src/PinusVault.sol\":2929:2955  to.call{value:value}(data) */\n      mload(0x40)\n      tag_252\n      swap3\n      swap2\n      swap1\n      tag_253\n      jump\t// in\n    tag_252:\n      0x00\n      mload(0x40)\n      dup1\n      dup4\n      sub\n      dup2\n      dup6\n      dup8\n      gas\n      call\n      swap3\n      pop\n      pop\n      pop\n      returndatasize\n      dup1\n      0x00\n      dup2\n      eq\n      tag_256\n      jumpi\n      mload(0x40)\n      swap2\n      pop\n      and(add(returndatasize, 0x3f), not(0x1f))\n      dup3\n      add\n      0x40\n      mstore\n      returndatasize\n      dup3\n      mstore\n      returndatasize\n      0x00\n      0x20\n      dup5\n      add\n      returndatacopy\n      jump(tag_255)\n    tag_256:\n      0x60\n      swap2\n      pop\n    tag_255:\n      pop\n        /* \"src/PinusVault.sol\":2922:2955  return to.call{value:value}(data) */\n      swap2\n      pop\n      swap2\n      pop\n        /* \"src/PinusVault.sol\":2783:2963  function customCall(address to,uint value,bytes calldata data) public onlyOwner returns (bool success, bytes memory returnData) {... */\n      swap5\n      pop\n      swap5\n      swap3\n      pop\n      pop\n      pop\n      jump\t// out\n        /* \"src/SwapAbstract.sol\":1140:1335  function swapNativeToERC20(address to) public payable returns (uint erc20sBought) {... */\n    tag_74:\n        /* \"src/SwapAbstract.sol\":1203:1220  uint erc20sBought */\n      0x00\n        /* \"src/SwapAbstract.sol\":1248:1277  nativeToERC20Price(msg.value) */\n      tag_258\n        /* \"src/SwapAbstract.sol\":1267:1276  msg.value */\n      callvalue\n        /* \"src/SwapAbstract.sol\":1248:1266  nativeToERC20Price */\n      tag_139\n        /* \"src/SwapAbstract.sol\":1248:1277  nativeToERC20Price(msg.value) */\n      jump\t// in\n    tag_258:\n        /* \"src/SwapAbstract.sol\":1233:1277  erc20sBought = nativeToERC20Price(msg.value) */\n      swap1\n      pop\n        /* \"src/SwapAbstract.sol\":1288:1327  _transferERC20sBought(to, erc20sBought) */\n      tag_259\n        /* \"src/SwapAbstract.sol\":1310:1312  to */\n      dup3\n        /* \"src/SwapAbstract.sol\":1314:1326  erc20sBought */\n      dup3\n        /* \"src/SwapAbstract.sol\":1288:1309  _transferERC20sBought */\n      tag_260\n        /* \"src/SwapAbstract.sol\":1288:1327  _transferERC20sBought(to, erc20sBought) */\n      jump\t// in\n    tag_259:\n        /* \"src/SwapAbstract.sol\":1140:1335  function swapNativeToERC20(address to) public payable returns (uint erc20sBought) {... */\n      swap2\n      swap1\n      pop\n      jump\t// out\n        /* \"src/SwapAbstract.sol\":3296:3837  function swapERC20ToNative(SwapAbstract sa, uint erc20sSold, address to) external returns (uint erc20sEarned) {... */\n    tag_81:\n        /* \"src/SwapAbstract.sol\":3387:3404  uint erc20sEarned */\n      0x00\n        /* \"src/SwapAbstract.sol\":3417:3434  uint startBalance */\n      0x00\n        /* \"src/SwapAbstract.sol\":3437:3458  address(this).balance */\n      selfbalance\n        /* \"src/SwapAbstract.sol\":3417:3458  uint startBalance = address(this).balance */\n      swap1\n      pop\n        /* \"src/SwapAbstract.sol\":3497:3502  asset */\n      immutable(\"0xa7bdfc878129f52ec07f97944c9fd91d284e896a681376adb64e65b65698adaf\")\n      sub(shl(0xa0, 0x01), 0x01)\n        /* \"src/SwapAbstract.sol\":3474:3503  address(sa) != address(asset) */\n      and\n        /* \"src/SwapAbstract.sol\":3482:3484  sa */\n      dup6\n      sub(shl(0xa0, 0x01), 0x01)\n        /* \"src/SwapAbstract.sol\":3474:3503  address(sa) != address(asset) */\n      and\n      eq\n        /* \"src/SwapAbstract.sol\":3471:3636  if(address(sa) != address(asset)) { //If the token is from the same contract, it doesn't need approval... */\n      tag_262\n      jumpi\n        /* \"src/SwapAbstract.sol\":3587:3624  asset.approve(address(sa),erc20sSold) */\n      mload(0x40)\n      shl(0xe0, 0x095ea7b3)\n      dup2\n      mstore\n      sub(shl(0xa0, 0x01), 0x01)\n        /* \"#utility.yul\":9084:9116   */\n      dup7\n      dup2\n      and\n        /* \"src/SwapAbstract.sol\":3587:3624  asset.approve(address(sa),erc20sSold) */\n      0x04\n      dup4\n      add\n        /* \"#utility.yul\":9066:9117   */\n      mstore\n        /* \"#utility.yul\":9133:9151   */\n      0x24\n      dup3\n      add\n        /* \"#utility.yul\":9126:9160   */\n      dup7\n      swap1\n      mstore\n        /* \"src/SwapAbstract.sol\":3587:3592  asset */\n      immutable(\"0xa7bdfc878129f52ec07f97944c9fd91d284e896a681376adb64e65b65698adaf\")\n        /* \"src/SwapAbstract.sol\":3587:3600  asset.approve */\n      and\n      swap1\n      0x095ea7b3\n      swap1\n        /* \"#utility.yul\":9039:9057   */\n      0x44\n      add\n        /* \"src/SwapAbstract.sol\":3587:3624  asset.approve(address(sa),erc20sSold) */\n      0x20\n      mload(0x40)\n      dup1\n      dup4\n      sub\n      dup2\n      0x00\n      dup8\n      gas\n      call\n      iszero\n      dup1\n      iszero\n      tag_266\n      jumpi\n      returndatacopy(0x00, 0x00, returndatasize)\n      revert(0x00, returndatasize)\n    tag_266:\n      pop\n      pop\n      pop\n      pop\n      mload(0x40)\n      returndatasize\n      not(0x1f)\n      0x1f\n      dup3\n      add\n      and\n      dup3\n      add\n      dup1\n      0x40\n      mstore\n      pop\n      dup2\n      add\n      swap1\n      tag_267\n      swap2\n      swap1\n      tag_268\n      jump\t// in\n    tag_267:\n      pop\n        /* \"src/SwapAbstract.sol\":3471:3636  if(address(sa) != address(asset)) { //If the token is from the same contract, it doesn't need approval... */\n    tag_262:\n        /* \"src/SwapAbstract.sol\":3648:3680  sa.swapERC20ToNative(erc20sSold) */\n      mload(0x40)\n      shl(0xe9, 0x30197b)\n      dup2\n      mstore\n      0x04\n      dup2\n      add\n        /* \"#utility.yul\":3004:3029   */\n      dup6\n      swap1\n      mstore\n      sub(shl(0xa0, 0x01), 0x01)\n        /* \"src/SwapAbstract.sol\":3648:3668  sa.swapERC20ToNative */\n      dup7\n      and\n      swap1\n      0x6032f600\n      swap1\n        /* \"#utility.yul\":2977:2995   */\n      0x24\n      add\n        /* \"src/SwapAbstract.sol\":3648:3680  sa.swapERC20ToNative(erc20sSold) */\n      0x20\n      mload(0x40)\n      dup1\n      dup4\n      sub\n      dup2\n      0x00\n      dup8\n      gas\n      call\n      iszero\n      dup1\n      iszero\n      tag_271\n      jumpi\n      returndatacopy(0x00, 0x00, returndatasize)\n      revert(0x00, returndatasize)\n    tag_271:\n      pop\n      pop\n      pop\n      pop\n      mload(0x40)\n      returndatasize\n      not(0x1f)\n      0x1f\n      dup3\n      add\n      and\n      dup3\n      add\n      dup1\n      0x40\n      mstore\n      pop\n      dup2\n      add\n      swap1\n      tag_272\n      swap2\n      swap1\n      tag_273\n      jump\t// in\n    tag_272:\n      pop\n        /* \"src/SwapAbstract.sol\":3767:3777  erc20sSold */\n      dup4\n        /* \"src/SwapAbstract.sol\":3708:3764  nativeToERC20Price(address(this).balance - startBalance) */\n      tag_274\n        /* \"src/SwapAbstract.sol\":3727:3763  address(this).balance - startBalance */\n      tag_138\n        /* \"src/SwapAbstract.sol\":3751:3763  startBalance */\n      dup4\n        /* \"src/SwapAbstract.sol\":3727:3748  address(this).balance */\n      selfbalance\n        /* \"src/SwapAbstract.sol\":3727:3763  address(this).balance - startBalance */\n      tag_276\n      jump\t// in\n        /* \"src/SwapAbstract.sol\":3708:3764  nativeToERC20Price(address(this).balance - startBalance) */\n    tag_274:\n        /* \"src/SwapAbstract.sol\":3708:3777  nativeToERC20Price(address(this).balance - startBalance) - erc20sSold */\n      tag_277\n      swap2\n      swap1\n      tag_276\n      jump\t// in\n    tag_277:\n        /* \"src/SwapAbstract.sol\":3693:3777  erc20sEarned = nativeToERC20Price(address(this).balance - startBalance) - erc20sSold */\n      swap2\n      pop\n        /* \"src/SwapAbstract.sol\":3790:3829  _transferERC20sBought(to, erc20sEarned) */\n      tag_278\n        /* \"src/SwapAbstract.sol\":3812:3814  to */\n      dup4\n        /* \"src/SwapAbstract.sol\":3816:3828  erc20sEarned */\n      dup4\n        /* \"src/SwapAbstract.sol\":3790:3811  _transferERC20sBought */\n      tag_260\n        /* \"src/SwapAbstract.sol\":3790:3829  _transferERC20sBought(to, erc20sEarned) */\n      jump\t// in\n    tag_278:\n        /* \"src/SwapAbstract.sol\":3406:3837  {... */\n      pop\n        /* \"src/SwapAbstract.sol\":3296:3837  function swapERC20ToNative(SwapAbstract sa, uint erc20sSold, address to) external returns (uint erc20sEarned) {... */\n      swap4\n      swap3\n      pop\n      pop\n      pop\n      jump\t// out\n        /* \"src/SwapAbstract.sol\":2254:2383  function swapNativeToERC20() external payable returns (uint erc20sBought) {... */\n    tag_88:\n        /* \"src/SwapAbstract.sol\":2309:2326  uint erc20sBought */\n      0x00\n        /* \"src/SwapAbstract.sol\":2346:2375  swapNativeToERC20(msg.sender) */\n      tag_281\n        /* \"src/SwapAbstract.sol\":2364:2374  msg.sender */\n      caller\n        /* \"src/SwapAbstract.sol\":2346:2363  swapNativeToERC20 */\n      tag_74\n        /* \"src/SwapAbstract.sol\":2346:2375  swapNativeToERC20(msg.sender) */\n      jump\t// in\n    tag_281:\n        /* \"src/SwapAbstract.sol\":2339:2375  return swapNativeToERC20(msg.sender) */\n      swap1\n      pop\n        /* \"src/SwapAbstract.sol\":2254:2383  function swapNativeToERC20() external payable returns (uint erc20sBought) {... */\n      swap1\n      jump\t// out\n        /* \"https://github.com/Vectorized/solady/blob/main/src/tokens/ERC20.sol\":11165:15918  function transferFrom(address from, address to, uint256 amount) public virtual returns (bool) {... */\n    tag_94:\n        /* \"https://github.com/Vectorized/solady/blob/main/src/tokens/ERC20.sol\":11253:11257  bool */\n      0x00\n        /* \"https://github.com/Vectorized/solady/blob/main/src/tokens/ERC20.sol\":13811:13815  from */\n      dup4\n        /* \"https://github.com/Vectorized/solady/blob/main/src/tokens/ERC20.sol\":13807:13809  96 */\n      0x60\n        /* \"https://github.com/Vectorized/solady/blob/main/src/tokens/ERC20.sol\":13803:13816  shl(96, from) */\n      shl\n        /* \"https://github.com/Vectorized/solady/blob/main/src/tokens/ERC20.sol\":13912:13920  caller() */\n      caller\n        /* \"https://github.com/Vectorized/solady/blob/main/src/tokens/ERC20.sol\":13906:13910  0x20 */\n      0x20\n        /* \"https://github.com/Vectorized/solady/blob/main/src/tokens/ERC20.sol\":13899:13921  mstore(0x20, caller()) */\n      mstore\n        /* \"https://github.com/Vectorized/solady/blob/main/src/tokens/ERC20.sol\":13961:13981  _ALLOWANCE_SLOT_SEED */\n      0x7f5e9f20\n        /* \"https://github.com/Vectorized/solady/blob/main/src/tokens/ERC20.sol\":13954:13959  from_ */\n      dup2\n        /* \"https://github.com/Vectorized/solady/blob/main/src/tokens/ERC20.sol\":13951:13982  or(from_, _ALLOWANCE_SLOT_SEED) */\n      or\n        /* \"https://github.com/Vectorized/solady/blob/main/src/tokens/ERC20.sol\":13945:13949  0x0c */\n      0x0c\n        /* \"https://github.com/Vectorized/solady/blob/main/src/tokens/ERC20.sol\":13938:13983  mstore(0x0c, or(from_, _ALLOWANCE_SLOT_SEED)) */\n      mstore\n        /* \"https://github.com/Vectorized/solady/blob/main/src/tokens/ERC20.sol\":14037:14041  0x34 */\n      0x34\n        /* \"https://github.com/Vectorized/solady/blob/main/src/tokens/ERC20.sol\":14031:14035  0x0c */\n      0x0c\n        /* \"https://github.com/Vectorized/solady/blob/main/src/tokens/ERC20.sol\":14021:14042  keccak256(0x0c, 0x34) */\n      keccak256\n        /* \"https://github.com/Vectorized/solady/blob/main/src/tokens/ERC20.sol\":14083:14096  allowanceSlot */\n      dup1\n        /* \"https://github.com/Vectorized/solady/blob/main/src/tokens/ERC20.sol\":14077:14097  sload(allowanceSlot) */\n      sload\n        /* \"https://github.com/Vectorized/solady/blob/main/src/tokens/ERC20.sol\":14191:14201  allowance_ */\n      dup1\n        /* \"https://github.com/Vectorized/solady/blob/main/src/tokens/ERC20.sol\":14187:14202  not(allowance_) */\n      not\n        /* \"https://github.com/Vectorized/solady/blob/main/src/tokens/ERC20.sol\":14184:14631  if not(allowance_) {... */\n      iszero\n      tag_292\n      jumpi\n        /* \"https://github.com/Vectorized/solady/blob/main/src/tokens/ERC20.sol\":14324:14334  allowance_ */\n      dup1\n        /* \"https://github.com/Vectorized/solady/blob/main/src/tokens/ERC20.sol\":14316:14322  amount */\n      dup6\n        /* \"https://github.com/Vectorized/solady/blob/main/src/tokens/ERC20.sol\":14313:14335  gt(amount, allowance_) */\n      gt\n        /* \"https://github.com/Vectorized/solady/blob/main/src/tokens/ERC20.sol\":14310:14481  if gt(amount, allowance_) {... */\n      iszero\n      tag_293\n      jumpi\n        /* \"https://github.com/Vectorized/solady/blob/main/src/tokens/ERC20.sol\":14375:14385  0x13be252b */\n      0x13be252b\n        /* \"https://github.com/Vectorized/solady/blob/main/src/tokens/ERC20.sol\":14369:14373  0x00 */\n      0x00\n        /* \"https://github.com/Vectorized/solady/blob/main/src/tokens/ERC20.sol\":14362:14386  mstore(0x00, 0x13be252b) */\n      mstore\n        /* \"https://github.com/Vectorized/solady/blob/main/src/tokens/ERC20.sol\":14454:14458  0x04 */\n      0x04\n        /* \"https://github.com/Vectorized/solady/blob/main/src/tokens/ERC20.sol\":14448:14452  0x1c */\n      0x1c\n        /* \"https://github.com/Vectorized/solady/blob/main/src/tokens/ERC20.sol\":14441:14459  revert(0x1c, 0x04) */\n      revert\n        /* \"https://github.com/Vectorized/solady/blob/main/src/tokens/ERC20.sol\":14310:14481  if gt(amount, allowance_) {... */\n    tag_293:\n        /* \"https://github.com/Vectorized/solady/blob/main/src/tokens/ERC20.sol\":14605:14611  amount */\n      dup5\n        /* \"https://github.com/Vectorized/solady/blob/main/src/tokens/ERC20.sol\":14593:14603  allowance_ */\n      dup2\n        /* \"https://github.com/Vectorized/solady/blob/main/src/tokens/ERC20.sol\":14589:14612  sub(allowance_, amount) */\n      sub\n        /* \"https://github.com/Vectorized/solady/blob/main/src/tokens/ERC20.sol\":14574:14587  allowanceSlot */\n      dup3\n        /* \"https://github.com/Vectorized/solady/blob/main/src/tokens/ERC20.sol\":14567:14613  sstore(allowanceSlot, sub(allowance_, amount)) */\n      sstore\n        /* \"https://github.com/Vectorized/solady/blob/main/src/tokens/ERC20.sol\":14184:14631  if not(allowance_) {... */\n    tag_292:\n      pop\n      pop\n        /* \"https://github.com/Vectorized/solady/blob/main/src/tokens/ERC20.sol\":14735:14753  _BALANCE_SLOT_SEED */\n      0x87a211a2\n        /* \"https://github.com/Vectorized/solady/blob/main/src/tokens/ERC20.sol\":14728:14733  from_ */\n      dup2\n        /* \"https://github.com/Vectorized/solady/blob/main/src/tokens/ERC20.sol\":14725:14754  or(from_, _BALANCE_SLOT_SEED) */\n      or\n        /* \"https://github.com/Vectorized/solady/blob/main/src/tokens/ERC20.sol\":14719:14723  0x0c */\n      0x0c\n        /* \"https://github.com/Vectorized/solady/blob/main/src/tokens/ERC20.sol\":14712:14755  mstore(0x0c, or(from_, _BALANCE_SLOT_SEED)) */\n      mstore\n        /* \"https://github.com/Vectorized/solady/blob/main/src/tokens/ERC20.sol\":14811:14815  0x20 */\n      0x20\n        /* \"https://github.com/Vectorized/solady/blob/main/src/tokens/ERC20.sol\":14805:14809  0x0c */\n      0x0c\n        /* \"https://github.com/Vectorized/solady/blob/main/src/tokens/ERC20.sol\":14795:14816  keccak256(0x0c, 0x20) */\n      keccak256\n        /* \"https://github.com/Vectorized/solady/blob/main/src/tokens/ERC20.sol\":14858:14873  fromBalanceSlot */\n      dup1\n        /* \"https://github.com/Vectorized/solady/blob/main/src/tokens/ERC20.sol\":14852:14874  sload(fromBalanceSlot) */\n      sload\n        /* \"https://github.com/Vectorized/solady/blob/main/src/tokens/ERC20.sol\":14956:14967  fromBalance */\n      dup1\n        /* \"https://github.com/Vectorized/solady/blob/main/src/tokens/ERC20.sol\":14948:14954  amount */\n      dup6\n        /* \"https://github.com/Vectorized/solady/blob/main/src/tokens/ERC20.sol\":14945:14968  gt(amount, fromBalance) */\n      gt\n        /* \"https://github.com/Vectorized/solady/blob/main/src/tokens/ERC20.sol\":14942:15100  if gt(amount, fromBalance) {... */\n      iszero\n      tag_294\n      jumpi\n        /* \"https://github.com/Vectorized/solady/blob/main/src/tokens/ERC20.sol\":15004:15014  0xf4d678b8 */\n      0xf4d678b8\n        /* \"https://github.com/Vectorized/solady/blob/main/src/tokens/ERC20.sol\":14998:15002  0x00 */\n      0x00\n        /* \"https://github.com/Vectorized/solady/blob/main/src/tokens/ERC20.sol\":14991:15015  mstore(0x00, 0xf4d678b8) */\n      mstore\n        /* \"https://github.com/Vectorized/solady/blob/main/src/tokens/ERC20.sol\":15077:15081  0x04 */\n      0x04\n        /* \"https://github.com/Vectorized/solady/blob/main/src/tokens/ERC20.sol\":15071:15075  0x1c */\n      0x1c\n        /* \"https://github.com/Vectorized/solady/blob/main/src/tokens/ERC20.sol\":15064:15082  revert(0x1c, 0x04) */\n      revert\n        /* \"https://github.com/Vectorized/solady/blob/main/src/tokens/ERC20.sol\":14942:15100  if gt(amount, fromBalance) {... */\n    tag_294:\n        /* \"https://github.com/Vectorized/solady/blob/main/src/tokens/ERC20.sol\":15217:15223  amount */\n      dup5\n        /* \"https://github.com/Vectorized/solady/blob/main/src/tokens/ERC20.sol\":15204:15215  fromBalance */\n      dup2\n        /* \"https://github.com/Vectorized/solady/blob/main/src/tokens/ERC20.sol\":15200:15224  sub(fromBalance, amount) */\n      sub\n        /* \"https://github.com/Vectorized/solady/blob/main/src/tokens/ERC20.sol\":15183:15198  fromBalanceSlot */\n      dup3\n        /* \"https://github.com/Vectorized/solady/blob/main/src/tokens/ERC20.sol\":15176:15225  sstore(fromBalanceSlot, sub(fromBalance, amount)) */\n      sstore\n      pop\n      pop\n        /* \"https://github.com/Vectorized/solady/blob/main/src/tokens/ERC20.sol\":15308:15310  to */\n      dup4\n        /* \"https://github.com/Vectorized/solady/blob/main/src/tokens/ERC20.sol\":15302:15306  0x00 */\n      0x00\n        /* \"https://github.com/Vectorized/solady/blob/main/src/tokens/ERC20.sol\":15295:15311  mstore(0x00, to) */\n      mstore\n        /* \"https://github.com/Vectorized/solady/blob/main/src/tokens/ERC20.sol\":15365:15369  0x20 */\n      0x20\n        /* \"https://github.com/Vectorized/solady/blob/main/src/tokens/ERC20.sol\":15359:15363  0x0c */\n      0x0c\n        /* \"https://github.com/Vectorized/solady/blob/main/src/tokens/ERC20.sol\":15349:15370  keccak256(0x0c, 0x20) */\n      keccak256\n        /* \"https://github.com/Vectorized/solady/blob/main/src/tokens/ERC20.sol\":15631:15637  amount */\n      dup4\n        /* \"https://github.com/Vectorized/solady/blob/main/src/tokens/ERC20.sol\":15615:15628  toBalanceSlot */\n      dup2\n        /* \"https://github.com/Vectorized/solady/blob/main/src/tokens/ERC20.sol\":15609:15629  sload(toBalanceSlot) */\n      sload\n        /* \"https://github.com/Vectorized/solady/blob/main/src/tokens/ERC20.sol\":15605:15638  add(sload(toBalanceSlot), amount) */\n      add\n        /* \"https://github.com/Vectorized/solady/blob/main/src/tokens/ERC20.sol\":15590:15603  toBalanceSlot */\n      dup2\n        /* \"https://github.com/Vectorized/solady/blob/main/src/tokens/ERC20.sol\":15583:15639  sstore(toBalanceSlot, add(sload(toBalanceSlot), amount)) */\n      sstore\n      pop\n        /* \"https://github.com/Vectorized/solady/blob/main/src/tokens/ERC20.sol\":15715:15721  amount */\n      dup3\n        /* \"https://github.com/Vectorized/solady/blob/main/src/tokens/ERC20.sol\":15709:15713  0x20 */\n      0x20\n        /* \"https://github.com/Vectorized/solady/blob/main/src/tokens/ERC20.sol\":15702:15722  mstore(0x20, amount) */\n      mstore\n        /* \"https://github.com/Vectorized/solady/blob/main/src/tokens/ERC20.sol\":15813:15817  0x0c */\n      0x0c\n        /* \"https://github.com/Vectorized/solady/blob/main/src/tokens/ERC20.sol\":15807:15818  mload(0x0c) */\n      mload\n        /* \"https://github.com/Vectorized/solady/blob/main/src/tokens/ERC20.sol\":15803:15805  96 */\n      0x60\n        /* \"https://github.com/Vectorized/solady/blob/main/src/tokens/ERC20.sol\":15799:15819  shr(96, mload(0x0c)) */\n      shr\n        /* \"https://github.com/Vectorized/solady/blob/main/src/tokens/ERC20.sol\":15791:15796  from_ */\n      dup2\n        /* \"https://github.com/Vectorized/solady/blob/main/src/tokens/ERC20.sol\":15787:15789  96 */\n      0x60\n        /* \"https://github.com/Vectorized/solady/blob/main/src/tokens/ERC20.sol\":15783:15797  shr(96, from_) */\n      shr\n      mload(0x00)\n      codecopy(0x00, data_ada389e1fc24a8587c776340efb91b36e675792ab631816100d55df0b5cf3cbc, 0x20)\n      mload(0x00)\n      swap1\n      0x00\n      mstore\n        /* \"https://github.com/Vectorized/solady/blob/main/src/tokens/ERC20.sol\":15750:15754  0x20 */\n      0x20\n        /* \"https://github.com/Vectorized/solady/blob/main/src/tokens/ERC20.sol\":15744:15748  0x20 */\n      dup1\n        /* \"https://github.com/Vectorized/solady/blob/main/src/tokens/ERC20.sol\":15739:15820  log3(0x20, 0x20, _TRANSFER_EVENT_SIGNATURE, shr(96, from_), shr(96, mload(0x0c))) */\n      log3\n      pop\n      pop\n        /* \"https://github.com/Vectorized/solady/blob/main/src/tokens/ERC20.sol\":15907:15911  true */\n      0x01\n        /* \"https://github.com/Vectorized/solady/blob/main/src/tokens/ERC20.sol\":11165:15918  function transferFrom(address from, address to, uint256 amount) public virtual returns (bool) {... */\n      swap4\n      swap3\n      pop\n      pop\n      pop\n      jump\t// out\n        /* \"https://github.com/Vectorized/solady/blob/main/src/tokens/ERC20.sol\":21458:22195  function DOMAIN_SEPARATOR() public view virtual returns (bytes32 result) {... */\n    tag_103:\n        /* \"https://github.com/Vectorized/solady/blob/main/src/tokens/ERC20.sol\":21515:21529  bytes32 result */\n      0x00\n        /* \"src/PinusVault.sol\":2553:2561  nameHash */\n      immutable(\"0x7ca83d787e7423cefe91ee9c5de8a7604dac0860c07a3450ac6805c567c8da30\")\n      dup1\n        /* \"https://github.com/Vectorized/solady/blob/main/src/tokens/ERC20.sol\":21683:21746  if (nameHash == bytes32(0)) nameHash = keccak256(bytes(name())) */\n      tag_301\n      jumpi\n        /* \"https://github.com/Vectorized/solady/blob/main/src/tokens/ERC20.sol\":21738:21744  name() */\n      tag_302\n        /* \"https://github.com/Vectorized/solady/blob/main/src/tokens/ERC20.sol\":21738:21742  name */\n      tag_54\n        /* \"https://github.com/Vectorized/solady/blob/main/src/tokens/ERC20.sol\":21738:21744  name() */\n      jump\t// in\n    tag_302:\n        /* \"https://github.com/Vectorized/solady/blob/main/src/tokens/ERC20.sol\":21722:21746  keccak256(bytes(name())) */\n      dup1\n      mload\n      swap1\n      0x20\n      add\n      keccak256\n        /* \"https://github.com/Vectorized/solady/blob/main/src/tokens/ERC20.sol\":21711:21746  nameHash = keccak256(bytes(name())) */\n      swap1\n      pop\n        /* \"https://github.com/Vectorized/solady/blob/main/src/tokens/ERC20.sol\":21683:21746  if (nameHash == bytes32(0)) nameHash = keccak256(bytes(name())) */\n    tag_301:\n        /* \"https://github.com/Vectorized/solady/blob/main/src/tokens/ERC20.sol\":21883:21887  0x40 */\n      0x40\n        /* \"https://github.com/Vectorized/solady/blob/main/src/tokens/ERC20.sol\":21877:21888  mload(0x40) */\n      dup1\n      mload\n        /* \"https://github.com/Vectorized/solady/blob/main/src/tokens/ERC20.sol\":21944:21960  _DOMAIN_TYPEHASH */\n      0x8b73c3c69bb8fe3d512ecc4cf759cc79239f7b179b0ffacaa9a75d522b39400f\n        /* \"https://github.com/Vectorized/solady/blob/main/src/tokens/ERC20.sol\":21934:21961  mstore(m, _DOMAIN_TYPEHASH) */\n      dup2\n      mstore\n        /* \"https://github.com/Vectorized/solady/blob/main/src/tokens/ERC20.sol\":21988:21992  0x20 */\n      0x20\n        /* \"https://github.com/Vectorized/solady/blob/main/src/tokens/ERC20.sol\":21981:21993  add(m, 0x20) */\n      dup2\n      add\n        /* \"https://github.com/Vectorized/solady/blob/main/src/tokens/ERC20.sol\":21974:22004  mstore(add(m, 0x20), nameHash) */\n      swap3\n      swap1\n      swap3\n      mstore\n        /* \"https://github.com/Vectorized/solady/blob/main/src/tokens/ERC20.sol\":5177:5243  0xc89efdaa54c0f20c7adf612882df0950f5a951637e0307cdcb4c672f298b8bc6 */\n      0xc89efdaa54c0f20c7adf612882df0950f5a951637e0307cdcb4c672f298b8bc6\n        /* \"https://github.com/Vectorized/solady/blob/main/src/tokens/ERC20.sol\":22024:22036  add(m, 0x40) */\n      swap1\n      dup3\n      add\n        /* \"https://github.com/Vectorized/solady/blob/main/src/tokens/ERC20.sol\":22017:22050  mstore(add(m, 0x40), versionHash) */\n      mstore\n        /* \"https://github.com/Vectorized/solady/blob/main/src/tokens/ERC20.sol\":22084:22093  chainid() */\n      chainid\n        /* \"https://github.com/Vectorized/solady/blob/main/src/tokens/ERC20.sol\":22077:22081  0x60 */\n      0x60\n        /* \"https://github.com/Vectorized/solady/blob/main/src/tokens/ERC20.sol\":22070:22082  add(m, 0x60) */\n      dup3\n      add\n        /* \"https://github.com/Vectorized/solady/blob/main/src/tokens/ERC20.sol\":22063:22094  mstore(add(m, 0x60), chainid()) */\n      mstore\n        /* \"https://github.com/Vectorized/solady/blob/main/src/tokens/ERC20.sol\":22128:22137  address() */\n      address\n        /* \"https://github.com/Vectorized/solady/blob/main/src/tokens/ERC20.sol\":22121:22125  0x80 */\n      0x80\n        /* \"https://github.com/Vectorized/solady/blob/main/src/tokens/ERC20.sol\":22114:22126  add(m, 0x80) */\n      dup3\n      add\n        /* \"https://github.com/Vectorized/solady/blob/main/src/tokens/ERC20.sol\":22107:22138  mstore(add(m, 0x80), address()) */\n      mstore\n        /* \"https://github.com/Vectorized/solady/blob/main/src/tokens/ERC20.sol\":22174:22178  0xa0 */\n      0xa0\n        /* \"https://github.com/Vectorized/solady/blob/main/src/tokens/ERC20.sol\":22161:22179  keccak256(m, 0xa0) */\n      swap1\n      keccak256\n      swap2\n      swap1\n      pop\n        /* \"https://github.com/Vectorized/solady/blob/main/src/tokens/ERC20.sol\":21458:22195  function DOMAIN_SEPARATOR() public view virtual returns (bytes32 result) {... */\n      jump\t// out\n        /* \"src/ExchangeAbstract.sol\":1408:1719  function erc20ToNativePrice(uint erc20sSold) public override view returns (uint nativesBought) {... */\n    tag_115:\n        /* \"src/ExchangeAbstract.sol\":1483:1501  uint nativesBought */\n      0x00\n        /* \"src/ExchangeAbstract.sol\":1563:1594  erc20SellInhibitor + erc20sSold */\n      tag_306\n        /* \"src/ExchangeAbstract.sol\":1584:1594  erc20sSold */\n      dup3\n      sub(shl(0x80, 0x01), 0x01)\n        /* \"src/ExchangeAbstract.sol\":1563:1581  erc20SellInhibitor */\n      immutable(\"0xbd987727b70a606a7e1db5b32732088143da230fadc11c7c728b9fa3560819d5\")\n        /* \"src/ExchangeAbstract.sol\":1563:1594  erc20SellInhibitor + erc20sSold */\n      and\n      tag_307\n      jump\t// in\n    tag_306:\n        /* \"src/ExchangeAbstract.sol\":1549:1559  erc20sSold */\n      dup3\n        /* \"src/ExchangeAbstract.sol\":1530:1546  nativesBuyable() */\n      tag_308\n        /* \"src/ExchangeAbstract.sol\":1530:1544  nativesBuyable */\n      tag_188\n        /* \"src/ExchangeAbstract.sol\":1530:1546  nativesBuyable() */\n      jump\t// in\n    tag_308:\n        /* \"src/ExchangeAbstract.sol\":1530:1559  nativesBuyable() * erc20sSold */\n      tag_309\n      swap2\n      swap1\n      tag_310\n      jump\t// in\n    tag_309:\n        /* \"src/ExchangeAbstract.sol\":1530:1595  nativesBuyable() * erc20sSold / (erc20SellInhibitor + erc20sSold) */\n      tag_311\n      swap2\n      swap1\n      tag_312\n      jump\t// in\n    tag_311:\n        /* \"src/ExchangeAbstract.sol\":1514:1595  nativesBought = nativesBuyable() * erc20sSold / (erc20SellInhibitor + erc20sSold) */\n      swap1\n      pop\n        /* \"src/ExchangeAbstract.sol\":1633:1646  nativesBought */\n      dup1\n        /* \"src/ExchangeAbstract.sol\":1609:1630  address(this).balance */\n      selfbalance\n        /* \"src/ExchangeAbstract.sol\":1609:1646  address(this).balance < nativesBought */\n      lt\n        /* \"src/ExchangeAbstract.sol\":1606:1712  if(address(this).balance < nativesBought) {... */\n      iszero\n      tag_259\n      jumpi\n      pop\n        /* \"src/ExchangeAbstract.sol\":1679:1700  address(this).balance */\n      selfbalance\n        /* \"src/ExchangeAbstract.sol\":1408:1719  function erc20ToNativePrice(uint erc20sSold) public override view returns (uint nativesBought) {... */\n      swap2\n      swap1\n      pop\n      jump\t// out\n        /* \"src/SwapAbstract.sol\":2099:2246  function swapERC20ToNative(uint erc20sSold) public returns (uint nativesBought) {... */\n    tag_120:\n        /* \"src/SwapAbstract.sol\":2159:2177  uint nativesBought */\n      0x00\n        /* \"src/SwapAbstract.sol\":2197:2238  swapERC20ToNative(erc20sSold, msg.sender) */\n      tag_243\n        /* \"src/SwapAbstract.sol\":2215:2225  erc20sSold */\n      dup3\n        /* \"src/SwapAbstract.sol\":2227:2237  msg.sender */\n      caller\n        /* \"src/SwapAbstract.sol\":2197:2214  swapERC20ToNative */\n      tag_184\n        /* \"src/SwapAbstract.sol\":2197:2238  swapERC20ToNative(erc20sSold, msg.sender) */\n      jump\t// in\n        /* \"src/SwapAbstract.sol\":2706:2883  function swapERC20ToNative(uint erc20sSold, Permit2Sig calldata sig) external returns (uint nativesBought) {... */\n    tag_126:\n        /* \"src/SwapAbstract.sol\":2793:2811  uint nativesBought */\n      0x00\n        /* \"src/SwapAbstract.sol\":2831:2875  swapERC20ToNative(erc20sSold,msg.sender,sig) */\n      tag_317\n        /* \"src/SwapAbstract.sol\":2849:2859  erc20sSold */\n      dup4\n        /* \"src/SwapAbstract.sol\":2860:2870  msg.sender */\n      caller\n        /* \"src/SwapAbstract.sol\":2871:2874  sig */\n      dup5\n        /* \"src/SwapAbstract.sol\":2831:2848  swapERC20ToNative */\n      tag_169\n        /* \"src/SwapAbstract.sol\":2831:2875  swapERC20ToNative(erc20sSold,msg.sender,sig) */\n      jump\t// in\n    tag_317:\n        /* \"src/SwapAbstract.sol\":2824:2875  return swapERC20ToNative(erc20sSold,msg.sender,sig) */\n      swap4\n        /* \"src/SwapAbstract.sol\":2706:2883  function swapERC20ToNative(uint erc20sSold, Permit2Sig calldata sig) external returns (uint nativesBought) {... */\n      swap3\n      pop\n      pop\n      pop\n      jump\t// out\n        /* \"@openzeppelin/contracts/access/Ownable.sol\":2293:2394  function renounceOwnership() public virtual onlyOwner {... */\n    tag_135:\n        /* \"@openzeppelin/contracts/access/Ownable.sol\":1531:1544  _checkOwner() */\n      tag_320\n        /* \"@openzeppelin/contracts/access/Ownable.sol\":1531:1542  _checkOwner */\n      tag_250\n        /* \"@openzeppelin/contracts/access/Ownable.sol\":1531:1544  _checkOwner() */\n      jump\t// in\n    tag_320:\n        /* \"@openzeppelin/contracts/access/Ownable.sol\":2357:2387  _transferOwnership(address(0)) */\n      tag_322\n        /* \"@openzeppelin/contracts/access/Ownable.sol\":2384:2385  0 */\n      0x00\n        /* \"@openzeppelin/contracts/access/Ownable.sol\":2357:2375  _transferOwnership */\n      tag_323\n        /* \"@openzeppelin/contracts/access/Ownable.sol\":2357:2387  _transferOwnership(address(0)) */\n      jump\t// in\n    tag_322:\n        /* \"@openzeppelin/contracts/access/Ownable.sol\":2293:2394  function renounceOwnership() public virtual onlyOwner {... */\n      jump\t// out\n        /* \"src/PinusVault.sol\":2971:3159  function nativeToERC20Price(uint nativesSold) public override view returns (uint erc20sBought) {... */\n    tag_139:\n        /* \"src/PinusVault.sol\":3047:3064  uint erc20sBought */\n      0x00\n        /* \"src/PinusVault.sol\":3117:3150  nativeSellInhibitor + nativesSold */\n      tag_325\n        /* \"src/PinusVault.sol\":3139:3150  nativesSold */\n      dup3\n      sub(shl(0x80, 0x01), 0x01)\n        /* \"src/PinusVault.sol\":3117:3136  nativeSellInhibitor */\n      immutable(\"0x4ae1552e4350a80143205619d7f069de3ba42a477d4cde67254305b44836b3e5\")\n        /* \"src/PinusVault.sol\":3117:3150  nativeSellInhibitor + nativesSold */\n      and\n      tag_307\n      jump\t// in\n    tag_325:\n        /* \"src/PinusVault.sol\":3102:3113  nativesSold */\n      dup3\n        /* \"src/PinusVault.sol\":3084:3099  erc20sBuyable() */\n      tag_326\n        /* \"src/PinusVault.sol\":3084:3097  erc20sBuyable */\n      tag_225\n        /* \"src/PinusVault.sol\":3084:3099  erc20sBuyable() */\n      jump\t// in\n    tag_326:\n        /* \"src/PinusVault.sol\":3084:3113  erc20sBuyable() * nativesSold */\n      tag_327\n      swap2\n      swap1\n      tag_310\n      jump\t// in\n    tag_327:\n        /* \"src/PinusVault.sol\":3084:3151  erc20sBuyable() * nativesSold / (nativeSellInhibitor + nativesSold) */\n      tag_243\n      swap2\n      swap1\n      tag_312\n      jump\t// in\n        /* \"src/SwapAbstract.sol\":1762:2063  function tokenReceived(address from, uint value, bytes calldata) external returns (bytes4) {... */\n    tag_157:\n        /* \"src/SwapAbstract.sol\":1845:1851  bytes4 */\n      0x00\n        /* \"src/SwapAbstract.sol\":1891:1901  msg.sender */\n      caller\n      sub(shl(0xa0, 0x01), 0x01)\n        /* \"src/SwapAbstract.sol\":1913:1918  asset */\n      immutable(\"0xa7bdfc878129f52ec07f97944c9fd91d284e896a681376adb64e65b65698adaf\")\n        /* \"src/SwapAbstract.sol\":1891:1919  msg.sender == address(asset) */\n      and\n      eq\n        /* \"src/SwapAbstract.sol\":1883:1920  require(msg.sender == address(asset)) */\n      tag_331\n      jumpi\n      revert(0x00, 0x00)\n    tag_331:\n        /* \"src/SwapAbstract.sol\":1970:2025  _transferNativesBought(from, erc20ToNativePrice(value)) */\n      tag_332\n        /* \"src/SwapAbstract.sol\":1993:1997  from */\n      dup6\n        /* \"src/SwapAbstract.sol\":1999:2024  erc20ToNativePrice(value) */\n      tag_333\n        /* \"src/SwapAbstract.sol\":2018:2023  value */\n      dup7\n        /* \"src/SwapAbstract.sol\":1999:2017  erc20ToNativePrice */\n      tag_115\n        /* \"src/SwapAbstract.sol\":1999:2024  erc20ToNativePrice(value) */\n      jump\t// in\n    tag_333:\n        /* \"src/SwapAbstract.sol\":1970:1992  _transferNativesBought */\n      tag_334\n        /* \"src/SwapAbstract.sol\":1970:2025  _transferNativesBought(from, erc20ToNativePrice(value)) */\n      jump\t// in\n    tag_332:\n      pop\n      shl(0xe1, 0x44a1f601)\n        /* \"src/SwapAbstract.sol\":1762:2063  function tokenReceived(address from, uint value, bytes calldata) external returns (bytes4) {... */\n      swap5\n      swap4\n      pop\n      pop\n      pop\n      pop\n      jump\t// out\n        /* \"src/SwapAbstract.sol\":2421:2694  function swapERC20ToNative(uint erc20sSold, address to, Permit2Sig calldata sig) public returns (uint nativesBought) {... */\n    tag_169:\n        /* \"src/SwapAbstract.sol\":2518:2536  uint nativesBought */\n      0x00\n      sub(shl(0xa0, 0x01), 0x01)\n        /* \"src/SwapAbstract.sol\":2549:2554  asset */\n      immutable(\"0xa7bdfc878129f52ec07f97944c9fd91d284e896a681376adb64e65b65698adaf\")\n        /* \"src/SwapAbstract.sol\":2549:2561  asset.permit */\n      and\n      0xd505accf\n        /* \"src/SwapAbstract.sol\":2562:2572  msg.sender */\n      caller\n        /* \"src/SwapAbstract.sol\":2582:2586  this */\n      address\n        /* \"src/SwapAbstract.sol\":2589:2599  erc20sSold */\n      dup8\n        /* \"src/SwapAbstract.sol\":2601:2613  sig.deadline */\n      dup7\n      calldataload\n        /* \"src/SwapAbstract.sol\":2615:2620  sig.v */\n      tag_337\n      0x40\n      dup10\n      add\n      0x20\n      dup11\n      add\n      tag_338\n      jump\t// in\n    tag_337:\n        /* \"src/SwapAbstract.sol\":2622:2627  sig.r */\n      0x40\n        /* \"src/SwapAbstract.sol\":2549:2635  asset.permit(msg.sender, address(this), erc20sSold, sig.deadline, sig.v, sig.r, sig.s) */\n      dup1\n      mload\n      not(sub(shl(0xe0, 0x01), 0x01))\n      0xe0\n      dup10\n      swap1\n      shl\n      and\n      dup2\n      mstore\n      sub(shl(0xa0, 0x01), 0x01)\n        /* \"#utility.yul\":10948:10980   */\n      swap7\n      dup8\n      and\n        /* \"src/SwapAbstract.sol\":2549:2635  asset.permit(msg.sender, address(this), erc20sSold, sig.deadline, sig.v, sig.r, sig.s) */\n      0x04\n      dup3\n      add\n        /* \"#utility.yul\":10930:10981   */\n      mstore\n        /* \"#utility.yul\":11017:11049   */\n      swap6\n      swap1\n      swap5\n      and\n        /* \"#utility.yul\":10997:11015   */\n      0x24\n      dup7\n      add\n        /* \"#utility.yul\":10990:11050   */\n      mstore\n        /* \"#utility.yul\":11066:11084   */\n      0x44\n      dup6\n      add\n        /* \"#utility.yul\":11059:11093   */\n      swap3\n      swap1\n      swap3\n      mstore\n        /* \"#utility.yul\":11109:11127   */\n      0x64\n      dup5\n      add\n        /* \"#utility.yul\":11102:11136   */\n      mstore\n        /* \"#utility.yul\":11185:11189   */\n      0xff\n        /* \"#utility.yul\":11173:11190   */\n      and\n        /* \"#utility.yul\":11152:11171   */\n      0x84\n      dup4\n      add\n        /* \"#utility.yul\":11145:11191   */\n      mstore\n        /* \"src/SwapAbstract.sol\":2622:2627  sig.r */\n      dup6\n      add\n      calldataload\n        /* \"#utility.yul\":11207:11226   */\n      0xa4\n      dup3\n      add\n        /* \"#utility.yul\":11200:11235   */\n      mstore\n        /* \"src/SwapAbstract.sol\":2629:2634  sig.s */\n      0x60\n      dup6\n      add\n      calldataload\n        /* \"#utility.yul\":11251:11270   */\n      0xc4\n      dup3\n      add\n        /* \"#utility.yul\":11244:11279   */\n      mstore\n        /* \"#utility.yul\":10902:10921   */\n      0xe4\n      add\n        /* \"src/SwapAbstract.sol\":2549:2635  asset.permit(msg.sender, address(this), erc20sSold, sig.deadline, sig.v, sig.r, sig.s) */\n      0x00\n      mload(0x40)\n      dup1\n      dup4\n      sub\n      dup2\n      0x00\n      dup8\n      dup1\n      extcodesize\n      iszero\n      dup1\n      iszero\n      tag_341\n      jumpi\n      revert(0x00, 0x00)\n    tag_341:\n      pop\n      gas\n      call\n      iszero\n      dup1\n      iszero\n      tag_343\n      jumpi\n      returndatacopy(0x00, 0x00, returndatasize)\n      revert(0x00, returndatasize)\n    tag_343:\n      pop\n      pop\n      pop\n      pop\n        /* \"src/SwapAbstract.sol\":2653:2686  swapERC20ToNative(erc20sSold, to) */\n      tag_344\n        /* \"src/SwapAbstract.sol\":2671:2681  erc20sSold */\n      dup5\n        /* \"src/SwapAbstract.sol\":2683:2685  to */\n      dup5\n        /* \"src/SwapAbstract.sol\":2653:2670  swapERC20ToNative */\n      tag_184\n        /* \"src/SwapAbstract.sol\":2653:2686  swapERC20ToNative(erc20sSold, to) */\n      jump\t// in\n    tag_344:\n        /* \"src/SwapAbstract.sol\":2646:2686  return swapERC20ToNative(erc20sSold, to) */\n      swap5\n        /* \"src/SwapAbstract.sol\":2421:2694  function swapERC20ToNative(uint erc20sSold, address to, Permit2Sig calldata sig) public returns (uint nativesBought) {... */\n      swap4\n      pop\n      pop\n      pop\n      pop\n      jump\t// out\n        /* \"src/PinusVault.sol\":2680:2775  function symbol() public view override returns (string memory){... */\n    tag_173:\n        /* \"src/PinusVault.sol\":2728:2741  string memory */\n      0x60\n        /* \"src/PinusVault.sol\":2760:2767  _symbol */\n      0x04\n        /* \"src/PinusVault.sol\":2753:2767  return _symbol */\n      dup1\n      sload\n      tag_237\n      swap1\n      tag_238\n      jump\t// in\n        /* \"https://github.com/Vectorized/solady/blob/main/src/tokens/ERC20.sol\":9391:10797  function transfer(address to, uint256 amount) public virtual returns (bool) {... */\n    tag_178:\n        /* \"https://github.com/Vectorized/solady/blob/main/src/tokens/ERC20.sol\":9461:9465  bool */\n      0x00\n        /* \"https://github.com/Vectorized/solady/blob/main/src/tokens/ERC20.sol\":9670:9688  _BALANCE_SLOT_SEED */\n      0x87a211a2\n        /* \"https://github.com/Vectorized/solady/blob/main/src/tokens/ERC20.sol\":9664:9668  0x0c */\n      0x0c\n        /* \"https://github.com/Vectorized/solady/blob/main/src/tokens/ERC20.sol\":9657:9689  mstore(0x0c, _BALANCE_SLOT_SEED) */\n      mstore\n        /* \"https://github.com/Vectorized/solady/blob/main/src/tokens/ERC20.sol\":9715:9723  caller() */\n      caller\n        /* \"https://github.com/Vectorized/solady/blob/main/src/tokens/ERC20.sol\":9709:9713  0x00 */\n      0x00\n        /* \"https://github.com/Vectorized/solady/blob/main/src/tokens/ERC20.sol\":9702:9724  mstore(0x00, caller()) */\n      mstore\n        /* \"https://github.com/Vectorized/solady/blob/main/src/tokens/ERC20.sol\":9776:9780  0x20 */\n      0x20\n        /* \"https://github.com/Vectorized/solady/blob/main/src/tokens/ERC20.sol\":9770:9774  0x0c */\n      0x0c\n        /* \"https://github.com/Vectorized/solady/blob/main/src/tokens/ERC20.sol\":9760:9781  keccak256(0x0c, 0x20) */\n      keccak256\n        /* \"https://github.com/Vectorized/solady/blob/main/src/tokens/ERC20.sol\":9819:9834  fromBalanceSlot */\n      dup1\n        /* \"https://github.com/Vectorized/solady/blob/main/src/tokens/ERC20.sol\":9813:9835  sload(fromBalanceSlot) */\n      sload\n        /* \"https://github.com/Vectorized/solady/blob/main/src/tokens/ERC20.sol\":9909:9920  fromBalance */\n      dup1\n        /* \"https://github.com/Vectorized/solady/blob/main/src/tokens/ERC20.sol\":9901:9907  amount */\n      dup5\n        /* \"https://github.com/Vectorized/solady/blob/main/src/tokens/ERC20.sol\":9898:9921  gt(amount, fromBalance) */\n      gt\n        /* \"https://github.com/Vectorized/solady/blob/main/src/tokens/ERC20.sol\":9895:10041  if gt(amount, fromBalance) {... */\n      iszero\n      tag_353\n      jumpi\n        /* \"https://github.com/Vectorized/solady/blob/main/src/tokens/ERC20.sol\":9953:9963  0xf4d678b8 */\n      0xf4d678b8\n        /* \"https://github.com/Vectorized/solady/blob/main/src/tokens/ERC20.sol\":9947:9951  0x00 */\n      0x00\n        /* \"https://github.com/Vectorized/solady/blob/main/src/tokens/ERC20.sol\":9940:9964  mstore(0x00, 0xf4d678b8) */\n      mstore\n        /* \"https://github.com/Vectorized/solady/blob/main/src/tokens/ERC20.sol\":10022:10026  0x04 */\n      0x04\n        /* \"https://github.com/Vectorized/solady/blob/main/src/tokens/ERC20.sol\":10016:10020  0x1c */\n      0x1c\n        /* \"https://github.com/Vectorized/solady/blob/main/src/tokens/ERC20.sol\":10009:10027  revert(0x1c, 0x04) */\n      revert\n        /* \"https://github.com/Vectorized/solady/blob/main/src/tokens/ERC20.sol\":9895:10041  if gt(amount, fromBalance) {... */\n    tag_353:\n        /* \"https://github.com/Vectorized/solady/blob/main/src/tokens/ERC20.sol\":10150:10156  amount */\n      dup4\n        /* \"https://github.com/Vectorized/solady/blob/main/src/tokens/ERC20.sol\":10137:10148  fromBalance */\n      dup2\n        /* \"https://github.com/Vectorized/solady/blob/main/src/tokens/ERC20.sol\":10133:10157  sub(fromBalance, amount) */\n      sub\n        /* \"https://github.com/Vectorized/solady/blob/main/src/tokens/ERC20.sol\":10116:10131  fromBalanceSlot */\n      dup3\n        /* \"https://github.com/Vectorized/solady/blob/main/src/tokens/ERC20.sol\":10109:10158  sstore(fromBalanceSlot, sub(fromBalance, amount)) */\n      sstore\n      pop\n      pop\n        /* \"https://github.com/Vectorized/solady/blob/main/src/tokens/ERC20.sol\":10233:10235  to */\n      dup3\n        /* \"https://github.com/Vectorized/solady/blob/main/src/tokens/ERC20.sol\":10227:10231  0x00 */\n      0x00\n        /* \"https://github.com/Vectorized/solady/blob/main/src/tokens/ERC20.sol\":10220:10236  mstore(0x00, to) */\n      mstore\n        /* \"https://github.com/Vectorized/solady/blob/main/src/tokens/ERC20.sol\":10286:10290  0x20 */\n      0x20\n        /* \"https://github.com/Vectorized/solady/blob/main/src/tokens/ERC20.sol\":10280:10284  0x0c */\n      0x0c\n        /* \"https://github.com/Vectorized/solady/blob/main/src/tokens/ERC20.sol\":10270:10291  keccak256(0x0c, 0x20) */\n      keccak256\n        /* \"https://github.com/Vectorized/solady/blob/main/src/tokens/ERC20.sol\":10536:10542  amount */\n      dup3\n        /* \"https://github.com/Vectorized/solady/blob/main/src/tokens/ERC20.sol\":10520:10533  toBalanceSlot */\n      dup2\n        /* \"https://github.com/Vectorized/solady/blob/main/src/tokens/ERC20.sol\":10514:10534  sload(toBalanceSlot) */\n      sload\n        /* \"https://github.com/Vectorized/solady/blob/main/src/tokens/ERC20.sol\":10510:10543  add(sload(toBalanceSlot), amount) */\n      add\n        /* \"https://github.com/Vectorized/solady/blob/main/src/tokens/ERC20.sol\":10495:10508  toBalanceSlot */\n      dup2\n        /* \"https://github.com/Vectorized/solady/blob/main/src/tokens/ERC20.sol\":10488:10544  sstore(toBalanceSlot, add(sload(toBalanceSlot), amount)) */\n      sstore\n      pop\n        /* \"https://github.com/Vectorized/solady/blob/main/src/tokens/ERC20.sol\":10612:10618  amount */\n      dup2\n        /* \"https://github.com/Vectorized/solady/blob/main/src/tokens/ERC20.sol\":10606:10610  0x20 */\n      0x20\n        /* \"https://github.com/Vectorized/solady/blob/main/src/tokens/ERC20.sol\":10599:10619  mstore(0x20, amount) */\n      mstore\n        /* \"https://github.com/Vectorized/solady/blob/main/src/tokens/ERC20.sol\":10700:10704  0x0c */\n      0x0c\n        /* \"https://github.com/Vectorized/solady/blob/main/src/tokens/ERC20.sol\":10694:10705  mload(0x0c) */\n      mload\n        /* \"https://github.com/Vectorized/solady/blob/main/src/tokens/ERC20.sol\":10690:10692  96 */\n      0x60\n        /* \"https://github.com/Vectorized/solady/blob/main/src/tokens/ERC20.sol\":10686:10706  shr(96, mload(0x0c)) */\n      shr\n        /* \"https://github.com/Vectorized/solady/blob/main/src/tokens/ERC20.sol\":10676:10684  caller() */\n      caller\n      mload(0x00)\n      codecopy(0x00, data_ada389e1fc24a8587c776340efb91b36e675792ab631816100d55df0b5cf3cbc, 0x20)\n      mload(0x00)\n      swap1\n      0x00\n      mstore\n        /* \"https://github.com/Vectorized/solady/blob/main/src/tokens/ERC20.sol\":10643:10647  0x20 */\n      0x20\n        /* \"https://github.com/Vectorized/solady/blob/main/src/tokens/ERC20.sol\":10637:10641  0x20 */\n      dup1\n        /* \"https://github.com/Vectorized/solady/blob/main/src/tokens/ERC20.sol\":10632:10707  log3(0x20, 0x20, _TRANSFER_EVENT_SIGNATURE, caller(), shr(96, mload(0x0c))) */\n      log3\n      pop\n        /* \"https://github.com/Vectorized/solady/blob/main/src/tokens/ERC20.sol\":10786:10790  true */\n      0x01\n        /* \"https://github.com/Vectorized/solady/blob/main/src/tokens/ERC20.sol\":9391:10797  function transfer(address to, uint256 amount) public virtual returns (bool) {... */\n      swap3\n      swap2\n      pop\n      pop\n      jump\t// out\n        /* \"src/PinusVault.sol\":3406:3676  function swapERC20ToNative(uint erc20sSold, address recipient) public override returns (uint nativesBought) {... */\n    tag_184:\n        /* \"src/PinusVault.sol\":3494:3512  uint nativesBought */\n      0x00\n        /* \"src/PinusVault.sol\":3541:3571  erc20ToNativePrice(erc20sSold) */\n      tag_356\n        /* \"src/PinusVault.sol\":3560:3570  erc20sSold */\n      dup4\n        /* \"src/PinusVault.sol\":3541:3559  erc20ToNativePrice */\n      tag_115\n        /* \"src/PinusVault.sol\":3541:3571  erc20ToNativePrice(erc20sSold) */\n      jump\t// in\n    tag_356:\n        /* \"src/PinusVault.sol\":3525:3571  nativesBought = erc20ToNativePrice(erc20sSold) */\n      swap1\n      pop\n        /* \"src/PinusVault.sol\":3582:3610  _burn(msg.sender,erc20sSold) */\n      tag_357\n        /* \"src/PinusVault.sol\":3588:3598  msg.sender */\n      caller\n        /* \"src/PinusVault.sol\":3599:3609  erc20sSold */\n      dup5\n        /* \"src/PinusVault.sol\":3582:3587  _burn */\n      tag_358\n        /* \"src/PinusVault.sol\":3582:3610  _burn(msg.sender,erc20sSold) */\n      jump\t// in\n    tag_357:\n        /* \"src/PinusVault.sol\":3621:3668  _transferNativesBought(recipient,nativesBought) */\n      tag_243\n        /* \"src/PinusVault.sol\":3644:3653  recipient */\n      dup3\n        /* \"src/PinusVault.sol\":3654:3667  nativesBought */\n      dup3\n        /* \"src/PinusVault.sol\":3621:3643  _transferNativesBought */\n      tag_334\n        /* \"src/PinusVault.sol\":3621:3668  _transferNativesBought(recipient,nativesBought) */\n      jump\t// in\n        /* \"src/ExchangeAbstract.sol\":1122:1259  function nativesBuyable() public view returns (uint) {... */\n    tag_188:\n        /* \"src/ExchangeAbstract.sol\":1169:1173  uint */\n      0x00\n        /* \"src/ExchangeAbstract.sol\":1234:1251  nativeBuyableRate */\n      immutable(\"0xf7cd777c1c37c29af53ca944c4f85299ef255c4bda4754e5ba8570de0e121e29\")\n      sub(shl(0x80, 0x01), 0x01)\n        /* \"src/ExchangeAbstract.sol\":1193:1251  (block.timestamp - _nativeBuyableTime) * nativeBuyableRate */\n      and\n        /* \"src/ExchangeAbstract.sol\":1212:1230  _nativeBuyableTime */\n      sload(0x01)\n        /* \"src/ExchangeAbstract.sol\":1194:1209  block.timestamp */\n      timestamp\n        /* \"src/ExchangeAbstract.sol\":1194:1230  block.timestamp - _nativeBuyableTime */\n      tag_361\n      swap2\n      swap1\n      tag_276\n      jump\t// in\n    tag_361:\n        /* \"src/ExchangeAbstract.sol\":1193:1251  (block.timestamp - _nativeBuyableTime) * nativeBuyableRate */\n      tag_281\n      swap2\n      swap1\n      tag_310\n      jump\t// in\n        /* \"src/ERC223L.sol\":310:550  function transfer(address _to, uint _value, bytes calldata _data) public returns (bool success)... */\n    tag_193:\n        /* \"src/ERC223L.sol\":392:404  bool success */\n      0x00\n        /* \"src/ERC223L.sol\":422:443  transfer(_to, _value) */\n      tag_364\n        /* \"src/ERC223L.sol\":431:434  _to */\n      dup6\n        /* \"src/ERC223L.sol\":436:442  _value */\n      dup6\n        /* \"src/ERC223L.sol\":422:430  transfer */\n      tag_178\n        /* \"src/ERC223L.sol\":422:443  transfer(_to, _value) */\n      jump\t// in\n    tag_364:\n      pop\n        /* \"src/ERC223L.sol\":456:518  IERC223Recipient(_to).tokenReceived(msg.sender, _value, _data) */\n      mload(0x40)\n      shl(0xe1, 0x44a1f601)\n      dup2\n      mstore\n      sub(shl(0xa0, 0x01), 0x01)\n        /* \"src/ERC223L.sol\":456:491  IERC223Recipient(_to).tokenReceived */\n      dup7\n      and\n      swap1\n      0x8943ec02\n      swap1\n        /* \"src/ERC223L.sol\":456:518  IERC223Recipient(_to).tokenReceived(msg.sender, _value, _data) */\n      tag_365\n      swap1\n        /* \"src/ERC223L.sol\":492:502  msg.sender */\n      caller\n      swap1\n        /* \"src/ERC223L.sol\":504:510  _value */\n      dup9\n      swap1\n        /* \"src/ERC223L.sol\":512:517  _data */\n      dup9\n      swap1\n      dup9\n      swap1\n        /* \"src/ERC223L.sol\":456:518  IERC223Recipient(_to).tokenReceived(msg.sender, _value, _data) */\n      0x04\n      add\n      tag_366\n      jump\t// in\n    tag_365:\n      0x20\n      mload(0x40)\n      dup1\n      dup4\n      sub\n      dup2\n      0x00\n      dup8\n      gas\n      call\n      iszero\n      dup1\n      iszero\n      tag_368\n      jumpi\n      returndatacopy(0x00, 0x00, returndatasize)\n      revert(0x00, returndatasize)\n    tag_368:\n      pop\n      pop\n      pop\n      pop\n      mload(0x40)\n      returndatasize\n      not(0x1f)\n      0x1f\n      dup3\n      add\n      and\n      dup3\n      add\n      dup1\n      0x40\n      mstore\n      pop\n      dup2\n      add\n      swap1\n      tag_369\n      swap2\n      swap1\n      tag_370\n      jump\t// in\n    tag_369:\n      pop\n        /* \"src/ERC223L.sol\":538:542  true */\n      0x01\n      swap6\n        /* \"src/ERC223L.sol\":310:550  function transfer(address _to, uint _value, bytes calldata _data) public returns (bool success)... */\n      swap5\n      pop\n      pop\n      pop\n      pop\n      pop\n      jump\t// out\n        /* \"https://github.com/Vectorized/solady/blob/main/src/tokens/ERC20.sol\":17661:21377  function permit(... */\n    tag_199:\n        /* \"src/PinusVault.sol\":2553:2561  nameHash */\n      immutable(\"0x7ca83d787e7423cefe91ee9c5de8a7604dac0860c07a3450ac6805c567c8da30\")\n      dup1\n        /* \"https://github.com/Vectorized/solady/blob/main/src/tokens/ERC20.sol\":18456:18519  if (nameHash == bytes32(0)) nameHash = keccak256(bytes(name())) */\n      tag_376\n      jumpi\n        /* \"https://github.com/Vectorized/solady/blob/main/src/tokens/ERC20.sol\":18511:18517  name() */\n      tag_377\n        /* \"https://github.com/Vectorized/solady/blob/main/src/tokens/ERC20.sol\":18511:18515  name */\n      tag_54\n        /* \"https://github.com/Vectorized/solady/blob/main/src/tokens/ERC20.sol\":18511:18517  name() */\n      jump\t// in\n    tag_377:\n        /* \"https://github.com/Vectorized/solady/blob/main/src/tokens/ERC20.sol\":18495:18519  keccak256(bytes(name())) */\n      dup1\n      mload\n      swap1\n      0x20\n      add\n      keccak256\n        /* \"https://github.com/Vectorized/solady/blob/main/src/tokens/ERC20.sol\":18484:18519  nameHash = keccak256(bytes(name())) */\n      swap1\n      pop\n        /* \"https://github.com/Vectorized/solady/blob/main/src/tokens/ERC20.sol\":18456:18519  if (nameHash == bytes32(0)) nameHash = keccak256(bytes(name())) */\n    tag_376:\n        /* \"https://github.com/Vectorized/solady/blob/main/src/tokens/ERC20.sol\":5177:5243  0xc89efdaa54c0f20c7adf612882df0950f5a951637e0307cdcb4c672f298b8bc6 */\n      0xc89efdaa54c0f20c7adf612882df0950f5a951637e0307cdcb4c672f298b8bc6\n        /* \"https://github.com/Vectorized/solady/blob/main/src/tokens/ERC20.sol\":18720:18731  timestamp() */\n      timestamp\n        /* \"https://github.com/Vectorized/solady/blob/main/src/tokens/ERC20.sol\":18717:18742  gt(timestamp(), deadline) */\n      dup7\n      lt\n        /* \"https://github.com/Vectorized/solady/blob/main/src/tokens/ERC20.sol\":18714:18856  if gt(timestamp(), deadline) {... */\n      iszero\n      tag_379\n      jumpi\n        /* \"https://github.com/Vectorized/solady/blob/main/src/tokens/ERC20.sol\":18774:18784  0x1a15a3cc */\n      0x1a15a3cc\n        /* \"https://github.com/Vectorized/solady/blob/main/src/tokens/ERC20.sol\":18768:18772  0x00 */\n      0x00\n        /* \"https://github.com/Vectorized/solady/blob/main/src/tokens/ERC20.sol\":18761:18785  mstore(0x00, 0x1a15a3cc) */\n      mstore\n        /* \"https://github.com/Vectorized/solady/blob/main/src/tokens/ERC20.sol\":18837:18841  0x04 */\n      0x04\n        /* \"https://github.com/Vectorized/solady/blob/main/src/tokens/ERC20.sol\":18831:18835  0x1c */\n      0x1c\n        /* \"https://github.com/Vectorized/solady/blob/main/src/tokens/ERC20.sol\":18824:18842  revert(0x1c, 0x04) */\n      revert\n        /* \"https://github.com/Vectorized/solady/blob/main/src/tokens/ERC20.sol\":18714:18856  if gt(timestamp(), deadline) {... */\n    tag_379:\n        /* \"https://github.com/Vectorized/solady/blob/main/src/tokens/ERC20.sol\":18884:18888  0x40 */\n      0x40\n        /* \"https://github.com/Vectorized/solady/blob/main/src/tokens/ERC20.sol\":18878:18889  mload(0x40) */\n      mload\n        /* \"https://github.com/Vectorized/solady/blob/main/src/tokens/ERC20.sol\":19000:19005  owner */\n      dup10\n        /* \"https://github.com/Vectorized/solady/blob/main/src/tokens/ERC20.sol\":18996:18998  96 */\n      0x60\n        /* \"https://github.com/Vectorized/solady/blob/main/src/tokens/ERC20.sol\":18992:19006  shl(96, owner) */\n      shl\n        /* \"https://github.com/Vectorized/solady/blob/main/src/tokens/ERC20.sol\":18988:18990  96 */\n      0x60\n        /* \"https://github.com/Vectorized/solady/blob/main/src/tokens/ERC20.sol\":18984:19007  shr(96, shl(96, owner)) */\n      shr\n        /* \"https://github.com/Vectorized/solady/blob/main/src/tokens/ERC20.sol\":18975:19007  owner := shr(96, shl(96, owner)) */\n      swap10\n      pop\n        /* \"https://github.com/Vectorized/solady/blob/main/src/tokens/ERC20.sol\":19047:19054  spender */\n      dup9\n        /* \"https://github.com/Vectorized/solady/blob/main/src/tokens/ERC20.sol\":19043:19045  96 */\n      0x60\n        /* \"https://github.com/Vectorized/solady/blob/main/src/tokens/ERC20.sol\":19039:19055  shl(96, spender) */\n      shl\n        /* \"https://github.com/Vectorized/solady/blob/main/src/tokens/ERC20.sol\":19035:19037  96 */\n      0x60\n        /* \"https://github.com/Vectorized/solady/blob/main/src/tokens/ERC20.sol\":19031:19056  shr(96, shl(96, spender)) */\n      shr\n        /* \"https://github.com/Vectorized/solady/blob/main/src/tokens/ERC20.sol\":19020:19056  spender := shr(96, shl(96, spender)) */\n      swap9\n      pop\n        /* \"https://github.com/Vectorized/solady/blob/main/src/tokens/ERC20.sol\":19140:19179  _NONCES_SLOT_SEED_WITH_SIGNATURE_PREFIX */\n      0x383775081901\n        /* \"https://github.com/Vectorized/solady/blob/main/src/tokens/ERC20.sol\":19134:19138  0x0e */\n      0x0e\n        /* \"https://github.com/Vectorized/solady/blob/main/src/tokens/ERC20.sol\":19127:19180  mstore(0x0e, _NONCES_SLOT_SEED_WITH_SIGNATURE_PREFIX) */\n      mstore\n        /* \"https://github.com/Vectorized/solady/blob/main/src/tokens/ERC20.sol\":19206:19211  owner */\n      dup10\n        /* \"https://github.com/Vectorized/solady/blob/main/src/tokens/ERC20.sol\":19200:19204  0x00 */\n      0x00\n        /* \"https://github.com/Vectorized/solady/blob/main/src/tokens/ERC20.sol\":19193:19212  mstore(0x00, owner) */\n      mstore\n        /* \"https://github.com/Vectorized/solady/blob/main/src/tokens/ERC20.sol\":19258:19262  0x20 */\n      0x20\n        /* \"https://github.com/Vectorized/solady/blob/main/src/tokens/ERC20.sol\":19252:19256  0x0c */\n      0x0c\n        /* \"https://github.com/Vectorized/solady/blob/main/src/tokens/ERC20.sol\":19242:19263  keccak256(0x0c, 0x20) */\n      keccak256\n        /* \"https://github.com/Vectorized/solady/blob/main/src/tokens/ERC20.sol\":19300:19309  nonceSlot */\n      dup1\n        /* \"https://github.com/Vectorized/solady/blob/main/src/tokens/ERC20.sol\":19294:19310  sload(nonceSlot) */\n      sload\n        /* \"https://github.com/Vectorized/solady/blob/main/src/tokens/ERC20.sol\":19378:19394  _DOMAIN_TYPEHASH */\n      0x8b73c3c69bb8fe3d512ecc4cf759cc79239f7b179b0ffacaa9a75d522b39400f\n        /* \"https://github.com/Vectorized/solady/blob/main/src/tokens/ERC20.sol\":19375:19376  m */\n      dup4\n        /* \"https://github.com/Vectorized/solady/blob/main/src/tokens/ERC20.sol\":19368:19395  mstore(m, _DOMAIN_TYPEHASH) */\n      mstore\n        /* \"https://github.com/Vectorized/solady/blob/main/src/tokens/ERC20.sol\":19429:19437  nameHash */\n      dup5\n        /* \"https://github.com/Vectorized/solady/blob/main/src/tokens/ERC20.sol\":19422:19426  0x20 */\n      0x20\n        /* \"https://github.com/Vectorized/solady/blob/main/src/tokens/ERC20.sol\":19419:19420  m */\n      dup5\n        /* \"https://github.com/Vectorized/solady/blob/main/src/tokens/ERC20.sol\":19415:19427  add(m, 0x20) */\n      add\n        /* \"https://github.com/Vectorized/solady/blob/main/src/tokens/ERC20.sol\":19408:19438  mstore(add(m, 0x20), nameHash) */\n      mstore\n        /* \"https://github.com/Vectorized/solady/blob/main/src/tokens/ERC20.sol\":19472:19483  versionHash */\n      dup4\n        /* \"https://github.com/Vectorized/solady/blob/main/src/tokens/ERC20.sol\":19465:19469  0x40 */\n      0x40\n        /* \"https://github.com/Vectorized/solady/blob/main/src/tokens/ERC20.sol\":19462:19463  m */\n      dup5\n        /* \"https://github.com/Vectorized/solady/blob/main/src/tokens/ERC20.sol\":19458:19470  add(m, 0x40) */\n      add\n        /* \"https://github.com/Vectorized/solady/blob/main/src/tokens/ERC20.sol\":19451:19484  mstore(add(m, 0x40), versionHash) */\n      mstore\n        /* \"https://github.com/Vectorized/solady/blob/main/src/tokens/ERC20.sol\":19518:19527  chainid() */\n      chainid\n        /* \"https://github.com/Vectorized/solady/blob/main/src/tokens/ERC20.sol\":19511:19515  0x60 */\n      0x60\n        /* \"https://github.com/Vectorized/solady/blob/main/src/tokens/ERC20.sol\":19508:19509  m */\n      dup5\n        /* \"https://github.com/Vectorized/solady/blob/main/src/tokens/ERC20.sol\":19504:19516  add(m, 0x60) */\n      add\n        /* \"https://github.com/Vectorized/solady/blob/main/src/tokens/ERC20.sol\":19497:19528  mstore(add(m, 0x60), chainid()) */\n      mstore\n        /* \"https://github.com/Vectorized/solady/blob/main/src/tokens/ERC20.sol\":19562:19571  address() */\n      address\n        /* \"https://github.com/Vectorized/solady/blob/main/src/tokens/ERC20.sol\":19555:19559  0x80 */\n      0x80\n        /* \"https://github.com/Vectorized/solady/blob/main/src/tokens/ERC20.sol\":19552:19553  m */\n      dup5\n        /* \"https://github.com/Vectorized/solady/blob/main/src/tokens/ERC20.sol\":19548:19560  add(m, 0x80) */\n      add\n        /* \"https://github.com/Vectorized/solady/blob/main/src/tokens/ERC20.sol\":19541:19572  mstore(add(m, 0x80), address()) */\n      mstore\n        /* \"https://github.com/Vectorized/solady/blob/main/src/tokens/ERC20.sol\":19611:19615  0xa0 */\n      0xa0\n        /* \"https://github.com/Vectorized/solady/blob/main/src/tokens/ERC20.sol\":19608:19609  m */\n      dup4\n        /* \"https://github.com/Vectorized/solady/blob/main/src/tokens/ERC20.sol\":19598:19616  keccak256(m, 0xa0) */\n      keccak256\n        /* \"https://github.com/Vectorized/solady/blob/main/src/tokens/ERC20.sol\":19592:19596  0x2e */\n      0x2e\n        /* \"https://github.com/Vectorized/solady/blob/main/src/tokens/ERC20.sol\":19585:19617  mstore(0x2e, keccak256(m, 0xa0)) */\n      mstore\n        /* \"https://github.com/Vectorized/solady/blob/main/src/tokens/ERC20.sol\":19680:19696  _PERMIT_TYPEHASH */\n      0x6e71edae12b1b97f4d1f60370fef10105fa2faae0126114a169c64845d6126c9\n        /* \"https://github.com/Vectorized/solady/blob/main/src/tokens/ERC20.sol\":19677:19678  m */\n      dup4\n        /* \"https://github.com/Vectorized/solady/blob/main/src/tokens/ERC20.sol\":19670:19697  mstore(m, _PERMIT_TYPEHASH) */\n      mstore\n        /* \"https://github.com/Vectorized/solady/blob/main/src/tokens/ERC20.sol\":19731:19736  owner */\n      dup12\n        /* \"https://github.com/Vectorized/solady/blob/main/src/tokens/ERC20.sol\":19724:19728  0x20 */\n      0x20\n        /* \"https://github.com/Vectorized/solady/blob/main/src/tokens/ERC20.sol\":19721:19722  m */\n      dup5\n        /* \"https://github.com/Vectorized/solady/blob/main/src/tokens/ERC20.sol\":19717:19729  add(m, 0x20) */\n      add\n        /* \"https://github.com/Vectorized/solady/blob/main/src/tokens/ERC20.sol\":19710:19737  mstore(add(m, 0x20), owner) */\n      mstore\n        /* \"https://github.com/Vectorized/solady/blob/main/src/tokens/ERC20.sol\":19771:19778  spender */\n      dup11\n        /* \"https://github.com/Vectorized/solady/blob/main/src/tokens/ERC20.sol\":19764:19768  0x40 */\n      0x40\n        /* \"https://github.com/Vectorized/solady/blob/main/src/tokens/ERC20.sol\":19761:19762  m */\n      dup5\n        /* \"https://github.com/Vectorized/solady/blob/main/src/tokens/ERC20.sol\":19757:19769  add(m, 0x40) */\n      add\n        /* \"https://github.com/Vectorized/solady/blob/main/src/tokens/ERC20.sol\":19750:19779  mstore(add(m, 0x40), spender) */\n      mstore\n        /* \"https://github.com/Vectorized/solady/blob/main/src/tokens/ERC20.sol\":19813:19818  value */\n      dup10\n        /* \"https://github.com/Vectorized/solady/blob/main/src/tokens/ERC20.sol\":19806:19810  0x60 */\n      0x60\n        /* \"https://github.com/Vectorized/solady/blob/main/src/tokens/ERC20.sol\":19803:19804  m */\n      dup5\n        /* \"https://github.com/Vectorized/solady/blob/main/src/tokens/ERC20.sol\":19799:19811  add(m, 0x60) */\n      add\n        /* \"https://github.com/Vectorized/solady/blob/main/src/tokens/ERC20.sol\":19792:19819  mstore(add(m, 0x60), value) */\n      mstore\n        /* \"https://github.com/Vectorized/solady/blob/main/src/tokens/ERC20.sol\":19853:19863  nonceValue */\n      dup1\n        /* \"https://github.com/Vectorized/solady/blob/main/src/tokens/ERC20.sol\":19846:19850  0x80 */\n      0x80\n        /* \"https://github.com/Vectorized/solady/blob/main/src/tokens/ERC20.sol\":19843:19844  m */\n      dup5\n        /* \"https://github.com/Vectorized/solady/blob/main/src/tokens/ERC20.sol\":19839:19851  add(m, 0x80) */\n      add\n        /* \"https://github.com/Vectorized/solady/blob/main/src/tokens/ERC20.sol\":19832:19864  mstore(add(m, 0x80), nonceValue) */\n      mstore\n        /* \"https://github.com/Vectorized/solady/blob/main/src/tokens/ERC20.sol\":19898:19906  deadline */\n      dup9\n        /* \"https://github.com/Vectorized/solady/blob/main/src/tokens/ERC20.sol\":19891:19895  0xa0 */\n      0xa0\n        /* \"https://github.com/Vectorized/solady/blob/main/src/tokens/ERC20.sol\":19888:19889  m */\n      dup5\n        /* \"https://github.com/Vectorized/solady/blob/main/src/tokens/ERC20.sol\":19884:19896  add(m, 0xa0) */\n      add\n        /* \"https://github.com/Vectorized/solady/blob/main/src/tokens/ERC20.sol\":19877:19907  mstore(add(m, 0xa0), deadline) */\n      mstore\n        /* \"https://github.com/Vectorized/solady/blob/main/src/tokens/ERC20.sol\":19946:19950  0xc0 */\n      0xc0\n        /* \"https://github.com/Vectorized/solady/blob/main/src/tokens/ERC20.sol\":19943:19944  m */\n      dup4\n        /* \"https://github.com/Vectorized/solady/blob/main/src/tokens/ERC20.sol\":19933:19951  keccak256(m, 0xc0) */\n      keccak256\n        /* \"https://github.com/Vectorized/solady/blob/main/src/tokens/ERC20.sol\":19927:19931  0x4e */\n      0x4e\n        /* \"https://github.com/Vectorized/solady/blob/main/src/tokens/ERC20.sol\":19920:19952  mstore(0x4e, keccak256(m, 0xc0)) */\n      mstore\n        /* \"https://github.com/Vectorized/solady/blob/main/src/tokens/ERC20.sol\":20041:20045  0x42 */\n      0x42\n        /* \"https://github.com/Vectorized/solady/blob/main/src/tokens/ERC20.sol\":20035:20039  0x2c */\n      0x2c\n        /* \"https://github.com/Vectorized/solady/blob/main/src/tokens/ERC20.sol\":20025:20046  keccak256(0x2c, 0x42) */\n      keccak256\n        /* \"https://github.com/Vectorized/solady/blob/main/src/tokens/ERC20.sol\":20019:20023  0x00 */\n      0x00\n        /* \"https://github.com/Vectorized/solady/blob/main/src/tokens/ERC20.sol\":20012:20047  mstore(0x00, keccak256(0x2c, 0x42)) */\n      mstore\n        /* \"https://github.com/Vectorized/solady/blob/main/src/tokens/ERC20.sol\":20083:20084  v */\n      dup8\n        /* \"https://github.com/Vectorized/solady/blob/main/src/tokens/ERC20.sol\":20077:20081  0xff */\n      0xff\n        /* \"https://github.com/Vectorized/solady/blob/main/src/tokens/ERC20.sol\":20073:20085  and(0xff, v) */\n      and\n        /* \"https://github.com/Vectorized/solady/blob/main/src/tokens/ERC20.sol\":20067:20071  0x20 */\n      0x20\n        /* \"https://github.com/Vectorized/solady/blob/main/src/tokens/ERC20.sol\":20060:20086  mstore(0x20, and(0xff, v)) */\n      mstore\n        /* \"https://github.com/Vectorized/solady/blob/main/src/tokens/ERC20.sol\":20112:20113  r */\n      dup7\n        /* \"https://github.com/Vectorized/solady/blob/main/src/tokens/ERC20.sol\":20106:20110  0x40 */\n      0x40\n        /* \"https://github.com/Vectorized/solady/blob/main/src/tokens/ERC20.sol\":20099:20114  mstore(0x40, r) */\n      mstore\n        /* \"https://github.com/Vectorized/solady/blob/main/src/tokens/ERC20.sol\":20140:20141  s */\n      dup6\n        /* \"https://github.com/Vectorized/solady/blob/main/src/tokens/ERC20.sol\":20134:20138  0x60 */\n      0x60\n        /* \"https://github.com/Vectorized/solady/blob/main/src/tokens/ERC20.sol\":20127:20142  mstore(0x60, s) */\n      mstore\n        /* \"https://github.com/Vectorized/solady/blob/main/src/tokens/ERC20.sol\":20203:20207  0x20 */\n      0x20\n        /* \"https://github.com/Vectorized/solady/blob/main/src/tokens/ERC20.sol\":20197:20201  0x20 */\n      dup1\n        /* \"https://github.com/Vectorized/solady/blob/main/src/tokens/ERC20.sol\":20191:20195  0x80 */\n      0x80\n        /* \"https://github.com/Vectorized/solady/blob/main/src/tokens/ERC20.sol\":20185:20189  0x00 */\n      0x00\n        /* \"https://github.com/Vectorized/solady/blob/main/src/tokens/ERC20.sol\":20182:20183  1 */\n      0x01\n        /* \"https://github.com/Vectorized/solady/blob/main/src/tokens/ERC20.sol\":20175:20180  gas() */\n      gas\n        /* \"https://github.com/Vectorized/solady/blob/main/src/tokens/ERC20.sol\":20164:20208  staticcall(gas(), 1, 0x00, 0x80, 0x20, 0x20) */\n      staticcall\n        /* \"https://github.com/Vectorized/solady/blob/main/src/tokens/ERC20.sol\":20624:20629  owner */\n      dup13\n        /* \"https://github.com/Vectorized/solady/blob/main/src/tokens/ERC20.sol\":20605:20621  returndatasize() */\n      returndatasize\n        /* \"https://github.com/Vectorized/solady/blob/main/src/tokens/ERC20.sol\":20599:20622  mload(returndatasize()) */\n      mload\n        /* \"https://github.com/Vectorized/solady/blob/main/src/tokens/ERC20.sol\":20596:20630  eq(mload(returndatasize()), owner) */\n      eq\n        /* \"https://github.com/Vectorized/solady/blob/main/src/tokens/ERC20.sol\":20586:20745  if iszero(eq(mload(returndatasize()), owner)) {... */\n      tag_380\n      jumpi\n        /* \"https://github.com/Vectorized/solady/blob/main/src/tokens/ERC20.sol\":20663:20673  0xddafbaef */\n      0xddafbaef\n        /* \"https://github.com/Vectorized/solady/blob/main/src/tokens/ERC20.sol\":20657:20661  0x00 */\n      0x00\n        /* \"https://github.com/Vectorized/solady/blob/main/src/tokens/ERC20.sol\":20650:20674  mstore(0x00, 0xddafbaef) */\n      mstore\n        /* \"https://github.com/Vectorized/solady/blob/main/src/tokens/ERC20.sol\":20726:20730  0x04 */\n      0x04\n        /* \"https://github.com/Vectorized/solady/blob/main/src/tokens/ERC20.sol\":20720:20724  0x1c */\n      0x1c\n        /* \"https://github.com/Vectorized/solady/blob/main/src/tokens/ERC20.sol\":20713:20731  revert(0x1c, 0x04) */\n      revert\n        /* \"https://github.com/Vectorized/solady/blob/main/src/tokens/ERC20.sol\":20586:20745  if iszero(eq(mload(returndatasize()), owner)) {... */\n    tag_380:\n        /* \"https://github.com/Vectorized/solady/blob/main/src/tokens/ERC20.sol\":20830:20848  add(nonceValue, t) */\n      add\n        /* \"https://github.com/Vectorized/solady/blob/main/src/tokens/ERC20.sol\":20812:20849  sstore(nonceSlot, add(nonceValue, t)) */\n      swap1\n      sstore\n      shl(0xa5, 0x03faf4f9)\n        /* \"https://github.com/Vectorized/solady/blob/main/src/tokens/ERC20.sol\":21025:21068  or(shl(160, _ALLOWANCE_SLOT_SEED), spender) */\n      dup10\n      or\n        /* \"https://github.com/Vectorized/solady/blob/main/src/tokens/ERC20.sol\":21019:21023  0x40 */\n      0x40\n        /* \"https://github.com/Vectorized/solady/blob/main/src/tokens/ERC20.sol\":21012:21069  mstore(0x40, or(shl(160, _ALLOWANCE_SLOT_SEED), spender)) */\n      mstore\n        /* \"https://github.com/Vectorized/solady/blob/main/src/tokens/ERC20.sol\":21105:21109  0x34 */\n      0x34\n        /* \"https://github.com/Vectorized/solady/blob/main/src/tokens/ERC20.sol\":21099:21103  0x2c */\n      0x2c\n        /* \"https://github.com/Vectorized/solady/blob/main/src/tokens/ERC20.sol\":21089:21110  keccak256(0x2c, 0x34) */\n      keccak256\n        /* \"https://github.com/Vectorized/solady/blob/main/src/tokens/ERC20.sol\":21082:21118  sstore(keccak256(0x2c, 0x34), value) */\n      dup9\n      swap1\n      sstore\n        /* \"https://github.com/Vectorized/solady/blob/main/src/tokens/ERC20.sol\":21060:21067  spender */\n      dup9\n        /* \"https://github.com/Vectorized/solady/blob/main/src/tokens/ERC20.sol\":21225:21230  owner */\n      dup11\n        /* \"https://github.com/Vectorized/solady/blob/main/src/tokens/ERC20.sol\":21198:21223  _APPROVAL_EVENT_SIGNATURE */\n      0x8c5be1e5ebec7d5bd14f71427d1e84f3dd0314c0f7b2291e5b200ac8c7c3b925\n      0x20\n        /* \"https://github.com/Vectorized/solady/blob/main/src/tokens/ERC20.sol\":21185:21189  0x60 */\n      0x60\n        /* \"https://github.com/Vectorized/solady/blob/main/src/tokens/ERC20.sol\":21178:21190  add(m, 0x60) */\n      dup6\n      add\n        /* \"https://github.com/Vectorized/solady/blob/main/src/tokens/ERC20.sol\":21173:21240  log3(add(m, 0x60), 0x20, _APPROVAL_EVENT_SIGNATURE, owner, spender) */\n      log3\n        /* \"https://github.com/Vectorized/solady/blob/main/src/tokens/ERC20.sol\":21260:21264  0x40 */\n      0x40\n        /* \"https://github.com/Vectorized/solady/blob/main/src/tokens/ERC20.sol\":21253:21268  mstore(0x40, m) */\n      mstore\n      pop\n      pop\n        /* \"https://github.com/Vectorized/solady/blob/main/src/tokens/ERC20.sol\":21330:21331  0 */\n      0x00\n        /* \"https://github.com/Vectorized/solady/blob/main/src/tokens/ERC20.sol\":21324:21328  0x60 */\n      0x60\n        /* \"https://github.com/Vectorized/solady/blob/main/src/tokens/ERC20.sol\":21317:21332  mstore(0x60, 0) */\n      mstore\n      pop\n      pop\n      pop\n      pop\n      pop\n      pop\n      pop\n        /* \"https://github.com/Vectorized/solady/blob/main/src/tokens/ERC20.sol\":17661:21377  function permit(... */\n      jump\t// out\n        /* \"src/SwapAbstract.sol\":2891:3288  function swapNativeToERC20(SwapAbstract sa, uint nativesSold, address to) external returns (uint nativesEarned) {... */\n    tag_213:\n        /* \"src/SwapAbstract.sol\":3034:3064  asset.balanceOf(address(this)) */\n      mload(0x40)\n      shl(0xe0, 0x70a08231)\n      dup2\n      mstore\n        /* \"src/SwapAbstract.sol\":3058:3062  this */\n      address\n        /* \"src/SwapAbstract.sol\":3034:3064  asset.balanceOf(address(this)) */\n      0x04\n      dup3\n      add\n        /* \"#utility.yul\":4617:4668   */\n      mstore\n        /* \"src/SwapAbstract.sol\":2983:3001  uint nativesEarned */\n      0x00\n      swap1\n      dup2\n      swap1\n      sub(shl(0xa0, 0x01), 0x01)\n        /* \"src/SwapAbstract.sol\":3034:3039  asset */\n      immutable(\"0xa7bdfc878129f52ec07f97944c9fd91d284e896a681376adb64e65b65698adaf\")\n        /* \"src/SwapAbstract.sol\":3034:3049  asset.balanceOf */\n      and\n      swap1\n      0x70a08231\n      swap1\n        /* \"#utility.yul\":4590:4608   */\n      0x24\n      add\n        /* \"src/SwapAbstract.sol\":3034:3064  asset.balanceOf(address(this)) */\n      0x20\n      mload(0x40)\n      dup1\n      dup4\n      sub\n      dup2\n      dup7\n      gas\n      staticcall\n      iszero\n      dup1\n      iszero\n      tag_388\n      jumpi\n      returndatacopy(0x00, 0x00, returndatasize)\n      revert(0x00, returndatasize)\n    tag_388:\n      pop\n      pop\n      pop\n      pop\n      mload(0x40)\n      returndatasize\n      not(0x1f)\n      0x1f\n      dup3\n      add\n      and\n      dup3\n      add\n      dup1\n      0x40\n      mstore\n      pop\n      dup2\n      add\n      swap1\n      tag_389\n      swap2\n      swap1\n      tag_273\n      jump\t// in\n    tag_389:\n        /* \"src/SwapAbstract.sol\":3014:3064  uint startBalance = asset.balanceOf(address(this)) */\n      swap1\n      pop\n        /* \"src/SwapAbstract.sol\":3077:3079  sa */\n      dup5\n      sub(shl(0xa0, 0x01), 0x01)\n        /* \"src/SwapAbstract.sol\":3077:3097  sa.swapNativeToERC20 */\n      and\n      0x223ecf7e\n        /* \"src/SwapAbstract.sol\":3104:3115  nativesSold */\n      dup6\n        /* \"src/SwapAbstract.sol\":3077:3118  sa.swapNativeToERC20{value:nativesSold}() */\n      mload(0x40)\n      dup3\n      0xffffffff\n      and\n      0xe0\n      shl\n      dup2\n      mstore\n      0x04\n      add\n      0x20\n      mload(0x40)\n      dup1\n      dup4\n      sub\n      dup2\n      dup6\n      dup9\n      gas\n      call\n      iszero\n      dup1\n      iszero\n      tag_391\n      jumpi\n      returndatacopy(0x00, 0x00, returndatasize)\n      revert(0x00, returndatasize)\n    tag_391:\n      pop\n      pop\n      pop\n      pop\n      pop\n      mload(0x40)\n      returndatasize\n      not(0x1f)\n      0x1f\n      dup3\n      add\n      and\n      dup3\n      add\n      dup1\n      0x40\n      mstore\n      pop\n      dup2\n      add\n      swap1\n      tag_392\n      swap2\n      swap1\n      tag_273\n      jump\t// in\n    tag_392:\n      pop\n        /* \"src/SwapAbstract.sol\":3166:3196  asset.balanceOf(address(this)) */\n      mload(0x40)\n      shl(0xe0, 0x70a08231)\n      dup2\n      mstore\n        /* \"src/SwapAbstract.sol\":3190:3194  this */\n      address\n        /* \"src/SwapAbstract.sol\":3166:3196  asset.balanceOf(address(this)) */\n      0x04\n      dup3\n      add\n        /* \"#utility.yul\":4617:4668   */\n      mstore\n        /* \"src/SwapAbstract.sol\":3215:3226  nativesSold */\n      dup5\n      swap1\n        /* \"src/SwapAbstract.sol\":3147:3212  erc20ToNativePrice(asset.balanceOf(address(this)) - startBalance) */\n      tag_393\n      swap1\n        /* \"src/SwapAbstract.sol\":3199:3211  startBalance */\n      dup4\n      swap1\n      sub(shl(0xa0, 0x01), 0x01)\n        /* \"src/SwapAbstract.sol\":3166:3171  asset */\n      immutable(\"0xa7bdfc878129f52ec07f97944c9fd91d284e896a681376adb64e65b65698adaf\")\n        /* \"src/SwapAbstract.sol\":3166:3181  asset.balanceOf */\n      and\n      swap1\n      0x70a08231\n      swap1\n        /* \"#utility.yul\":4590:4608   */\n      0x24\n      add\n        /* \"src/SwapAbstract.sol\":3166:3196  asset.balanceOf(address(this)) */\n      0x20\n      mload(0x40)\n      dup1\n      dup4\n      sub\n      dup2\n      dup7\n      gas\n      staticcall\n      iszero\n      dup1\n      iszero\n      tag_396\n      jumpi\n      returndatacopy(0x00, 0x00, returndatasize)\n      revert(0x00, returndatasize)\n    tag_396:\n      pop\n      pop\n      pop\n      pop\n      mload(0x40)\n      returndatasize\n      not(0x1f)\n      0x1f\n      dup3\n      add\n      and\n      dup3\n      add\n      dup1\n      0x40\n      mstore\n      pop\n      dup2\n      add\n      swap1\n      tag_397\n      swap2\n      swap1\n      tag_273\n      jump\t// in\n    tag_397:\n        /* \"src/SwapAbstract.sol\":3166:3211  asset.balanceOf(address(this)) - startBalance */\n      tag_113\n      swap2\n      swap1\n      tag_276\n      jump\t// in\n        /* \"src/SwapAbstract.sol\":3147:3212  erc20ToNativePrice(asset.balanceOf(address(this)) - startBalance) */\n    tag_393:\n        /* \"src/SwapAbstract.sol\":3147:3226  erc20ToNativePrice(asset.balanceOf(address(this)) - startBalance) - nativesSold */\n      tag_399\n      swap2\n      swap1\n      tag_276\n      jump\t// in\n    tag_399:\n        /* \"src/SwapAbstract.sol\":3131:3226  nativesEarned = erc20ToNativePrice(asset.balanceOf(address(this)) - startBalance) - nativesSold */\n      swap2\n      pop\n        /* \"src/SwapAbstract.sol\":3239:3280  _transferNativesBought(to, nativesEarned) */\n      tag_278\n        /* \"src/SwapAbstract.sol\":3262:3264  to */\n      dup4\n        /* \"src/SwapAbstract.sol\":3266:3279  nativesEarned */\n      dup4\n        /* \"src/SwapAbstract.sol\":3239:3261  _transferNativesBought */\n      tag_334\n        /* \"src/SwapAbstract.sol\":3239:3280  _transferNativesBought(to, nativesEarned) */\n      jump\t// in\n        /* \"@openzeppelin/contracts/access/Ownable.sol\":2543:2758  function transferOwnership(address newOwner) public virtual onlyOwner {... */\n    tag_222:\n        /* \"@openzeppelin/contracts/access/Ownable.sol\":1531:1544  _checkOwner() */\n      tag_402\n        /* \"@openzeppelin/contracts/access/Ownable.sol\":1531:1542  _checkOwner */\n      tag_250\n        /* \"@openzeppelin/contracts/access/Ownable.sol\":1531:1544  _checkOwner() */\n      jump\t// in\n    tag_402:\n      sub(shl(0xa0, 0x01), 0x01)\n        /* \"@openzeppelin/contracts/access/Ownable.sol\":2627:2649  newOwner == address(0) */\n      dup2\n      and\n        /* \"@openzeppelin/contracts/access/Ownable.sol\":2623:2714  if (newOwner == address(0)) {... */\n      tag_404\n      jumpi\n        /* \"@openzeppelin/contracts/access/Ownable.sol\":2672:2703  OwnableInvalidOwner(address(0)) */\n      mload(0x40)\n      shl(0xe0, 0x1e4fbdf7)\n      dup2\n      mstore\n        /* \"@openzeppelin/contracts/access/Ownable.sol\":2700:2701  0 */\n      0x00\n        /* \"@openzeppelin/contracts/access/Ownable.sol\":2672:2703  OwnableInvalidOwner(address(0)) */\n      0x04\n      dup3\n      add\n        /* \"#utility.yul\":4617:4668   */\n      mstore\n        /* \"#utility.yul\":4590:4608   */\n      0x24\n      add\n        /* \"@openzeppelin/contracts/access/Ownable.sol\":2672:2703  OwnableInvalidOwner(address(0)) */\n    tag_405:\n      mload(0x40)\n      dup1\n      swap2\n      sub\n      swap1\n      revert\n        /* \"@openzeppelin/contracts/access/Ownable.sol\":2623:2714  if (newOwner == address(0)) {... */\n    tag_404:\n        /* \"@openzeppelin/contracts/access/Ownable.sol\":2723:2751  _transferOwnership(newOwner) */\n      tag_406\n        /* \"@openzeppelin/contracts/access/Ownable.sol\":2742:2750  newOwner */\n      dup2\n        /* \"@openzeppelin/contracts/access/Ownable.sol\":2723:2741  _transferOwnership */\n      tag_323\n        /* \"@openzeppelin/contracts/access/Ownable.sol\":2723:2751  _transferOwnership(newOwner) */\n      jump\t// in\n    tag_406:\n        /* \"@openzeppelin/contracts/access/Ownable.sol\":2543:2758  function transferOwnership(address newOwner) public virtual onlyOwner {... */\n      pop\n      jump\t// out\n        /* \"src/ExchangeAbstract.sol\":1267:1400  function erc20sBuyable() public view returns (uint) {... */\n    tag_225:\n        /* \"src/ExchangeAbstract.sol\":1313:1317  uint */\n      0x00\n        /* \"src/ExchangeAbstract.sol\":1376:1392  erc20BuyableRate */\n      immutable(\"0xe216240695da412145d9df04d3b0c5fca4d43b99b7d0d5386b61bbf0097f7efd\")\n      sub(shl(0x80, 0x01), 0x01)\n        /* \"src/ExchangeAbstract.sol\":1337:1392  (block.timestamp - erc20BuyableTime) * erc20BuyableRate */\n      and\n        /* \"src/ExchangeAbstract.sol\":1356:1372  erc20BuyableTime */\n      sload(0x00)\n        /* \"src/ExchangeAbstract.sol\":1338:1353  block.timestamp */\n      timestamp\n        /* \"src/ExchangeAbstract.sol\":1338:1372  block.timestamp - erc20BuyableTime */\n      tag_361\n      swap2\n      swap1\n      tag_276\n      jump\t// in\n        /* \"src/SwapAbstract.sol\":3975:4368  function swapERC223LToNative(SwapAbstract sa, uint erc20sSold, address to) external returns (uint erc20sEarned) {... */\n    tag_234:\n        /* \"src/SwapAbstract.sol\":4152:4211  ERC223L(address(asset)).transfer(address(sa),erc20sSold,\"\") */\n      mload(0x40)\n      shl(0xe1, 0x5f22feb1)\n      dup2\n      mstore\n      sub(shl(0xa0, 0x01), 0x01)\n        /* \"#utility.yul\":12406:12438   */\n      dup5\n      dup2\n      and\n        /* \"src/SwapAbstract.sol\":4152:4211  ERC223L(address(asset)).transfer(address(sa),erc20sSold,\"\") */\n      0x04\n      dup4\n      add\n        /* \"#utility.yul\":12388:12439   */\n      mstore\n        /* \"#utility.yul\":12455:12473   */\n      0x24\n      dup3\n      add\n        /* \"#utility.yul\":12448:12482   */\n      dup5\n      swap1\n      mstore\n        /* \"#utility.yul\":12518:12520   */\n      0x60\n        /* \"#utility.yul\":12498:12516   */\n      0x44\n      dup4\n      add\n        /* \"#utility.yul\":12491:12521   */\n      mstore\n        /* \"src/SwapAbstract.sol\":4068:4085  uint erc20sEarned */\n      0x00\n        /* \"#utility.yul\":12537:12555   */\n      0x64\n      dup4\n      add\n        /* \"#utility.yul\":12530:12559   */\n      dup2\n      swap1\n      mstore\n        /* \"src/SwapAbstract.sol\":4068:4085  uint erc20sEarned */\n      swap2\n        /* \"src/SwapAbstract.sol\":4118:4139  address(this).balance */\n      selfbalance\n      swap2\n        /* \"src/SwapAbstract.sol\":4168:4173  asset */\n      immutable(\"0xa7bdfc878129f52ec07f97944c9fd91d284e896a681376adb64e65b65698adaf\")\n        /* \"src/SwapAbstract.sol\":4152:4184  ERC223L(address(asset)).transfer */\n      and\n      swap1\n      0xbe45fd62\n      swap1\n        /* \"#utility.yul\":12576:12595   */\n      0x84\n      add\n        /* \"src/SwapAbstract.sol\":4152:4211  ERC223L(address(asset)).transfer(address(sa),erc20sSold,\"\") */\n      0x20\n      mload(0x40)\n      dup1\n      dup4\n      sub\n      dup2\n      0x00\n      dup8\n      gas\n      call\n      iszero\n      dup1\n      iszero\n      tag_414\n      jumpi\n      returndatacopy(0x00, 0x00, returndatasize)\n      revert(0x00, returndatasize)\n    tag_414:\n      pop\n      pop\n      pop\n      pop\n      mload(0x40)\n      returndatasize\n      not(0x1f)\n      0x1f\n      dup3\n      add\n      and\n      dup3\n      add\n      dup1\n      0x40\n      mstore\n      pop\n      dup2\n      add\n      swap1\n      tag_272\n      swap2\n      swap1\n      tag_268\n      jump\t// in\n        /* \"@openzeppelin/contracts/access/Ownable.sol\":1796:1958  function _checkOwner() internal view virtual {... */\n    tag_250:\n        /* \"@openzeppelin/contracts/access/Ownable.sol\":1710:1716  _owner */\n      and(sub(shl(0xa0, 0x01), 0x01), sload(0x02))\n        /* \"@openzeppelin/contracts/utils/Context.sol\":735:745  msg.sender */\n      caller\n        /* \"@openzeppelin/contracts/access/Ownable.sol\":1855:1878  owner() != _msgSender() */\n      eq\n        /* \"@openzeppelin/contracts/access/Ownable.sol\":1851:1952  if (owner() != _msgSender()) {... */\n      tag_322\n      jumpi\n        /* \"@openzeppelin/contracts/access/Ownable.sol\":1901:1941  OwnableUnauthorizedAccount(_msgSender()) */\n      mload(0x40)\n      shl(0xe0, 0x118cdaa7)\n      dup2\n      mstore\n        /* \"@openzeppelin/contracts/utils/Context.sol\":735:745  msg.sender */\n      caller\n        /* \"@openzeppelin/contracts/access/Ownable.sol\":1901:1941  OwnableUnauthorizedAccount(_msgSender()) */\n      0x04\n      dup3\n      add\n        /* \"#utility.yul\":4617:4668   */\n      mstore\n        /* \"#utility.yul\":4590:4608   */\n      0x24\n      add\n        /* \"@openzeppelin/contracts/access/Ownable.sol\":1901:1941  OwnableUnauthorizedAccount(_msgSender()) */\n      tag_405\n        /* \"#utility.yul\":4458:4674   */\n      jump\n        /* \"src/PinusVault.sol\":3167:3398  function _transferERC20sBought(address to, uint erc20sBought) internal override {... */\n    tag_260:\n        /* \"src/PinusVault.sol\":3298:3329  erc20sBought / erc20BuyableRate */\n      tag_429\n      sub(shl(0x80, 0x01), 0x01)\n        /* \"src/PinusVault.sol\":3313:3329  erc20BuyableRate */\n      immutable(\"0xe216240695da412145d9df04d3b0c5fca4d43b99b7d0d5386b61bbf0097f7efd\")\n        /* \"src/PinusVault.sol\":3298:3329  erc20sBought / erc20BuyableRate */\n      and\n        /* \"src/PinusVault.sol\":3298:3310  erc20sBought */\n      dup3\n        /* \"src/PinusVault.sol\":3298:3329  erc20sBought / erc20BuyableRate */\n      tag_312\n      jump\t// in\n    tag_429:\n        /* \"src/PinusVault.sol\":3278:3294  erc20BuyableTime */\n      0x00\n      0x00\n        /* \"src/PinusVault.sol\":3278:3329  erc20BuyableTime += erc20sBought / erc20BuyableRate */\n      dup3\n      dup3\n      sload\n      tag_430\n      swap2\n      swap1\n      tag_307\n      jump\t// in\n    tag_430:\n      swap1\n      swap2\n      sstore\n      pop\n        /* \"src/PinusVault.sol\":3367:3390  _mint(to, erc20sBought) */\n      tag_431\n      swap1\n      pop\n        /* \"src/PinusVault.sol\":3373:3375  to */\n      dup3\n        /* \"src/PinusVault.sol\":3377:3389  erc20sBought */\n      dup3\n        /* \"src/PinusVault.sol\":3367:3372  _mint */\n      tag_432\n        /* \"src/PinusVault.sol\":3367:3390  _mint(to, erc20sBought) */\n      jump\t// in\n    tag_431:\n        /* \"src/PinusVault.sol\":3167:3398  function _transferERC20sBought(address to, uint erc20sBought) internal override {... */\n      pop\n      pop\n      jump\t// out\n        /* \"https://github.com/Vectorized/solady/blob/main/src/tokens/ERC20.sol\":30066:30157  function _beforeTokenTransfer(address from, address to, uint256 amount) internal virtual {} */\n    tag_284:\n      pop\n      pop\n      pop\n      jump\t// out\n        /* \"@openzeppelin/contracts/access/Ownable.sol\":2912:3099  function _transferOwnership(address newOwner) internal virtual {... */\n    tag_323:\n        /* \"@openzeppelin/contracts/access/Ownable.sol\":3004:3010  _owner */\n      0x02\n      dup1\n      sload\n      sub(shl(0xa0, 0x01), 0x01)\n        /* \"@openzeppelin/contracts/access/Ownable.sol\":3020:3037  _owner = newOwner */\n      dup4\n      dup2\n      and\n      not(sub(shl(0xa0, 0x01), 0x01))\n      dup4\n      and\n      dup2\n      or\n      swap1\n      swap4\n      sstore\n        /* \"@openzeppelin/contracts/access/Ownable.sol\":3052:3092  OwnershipTransferred(oldOwner, newOwner) */\n      mload(0x40)\n        /* \"@openzeppelin/contracts/access/Ownable.sol\":3004:3010  _owner */\n      swap2\n      and\n      swap2\n        /* \"@openzeppelin/contracts/access/Ownable.sol\":3020:3037  _owner = newOwner */\n      swap1\n        /* \"@openzeppelin/contracts/access/Ownable.sol\":3004:3010  _owner */\n      dup3\n      swap1\n        /* \"@openzeppelin/contracts/access/Ownable.sol\":3052:3092  OwnershipTransferred(oldOwner, newOwner) */\n      0x8be0079c531659141344cd1fd0a4f28419497f9722a3daafe3b4186f6b6457e0\n      swap1\n        /* \"@openzeppelin/contracts/access/Ownable.sol\":2985:3001  address oldOwner */\n      0x00\n      swap1\n        /* \"@openzeppelin/contracts/access/Ownable.sol\":3052:3092  OwnershipTransferred(oldOwner, newOwner) */\n      log3\n        /* \"@openzeppelin/contracts/access/Ownable.sol\":2975:3099  {... */\n      pop\n        /* \"@openzeppelin/contracts/access/Ownable.sol\":2912:3099  function _transferOwnership(address newOwner) internal virtual {... */\n      pop\n      jump\t// out\n        /* \"src/ExchangeAbstract.sol\":1727:2005  function _transferNativesBought(address to, uint amount) internal override {... */\n    tag_334:\n        /* \"src/ExchangeAbstract.sol\":1855:1881  amount / nativeBuyableRate */\n      tag_439\n      sub(shl(0x80, 0x01), 0x01)\n        /* \"src/ExchangeAbstract.sol\":1864:1881  nativeBuyableRate */\n      immutable(\"0xf7cd777c1c37c29af53ca944c4f85299ef255c4bda4754e5ba8570de0e121e29\")\n        /* \"src/ExchangeAbstract.sol\":1855:1881  amount / nativeBuyableRate */\n      and\n        /* \"src/ExchangeAbstract.sol\":1855:1861  amount */\n      dup3\n        /* \"src/ExchangeAbstract.sol\":1855:1881  amount / nativeBuyableRate */\n      tag_312\n      jump\t// in\n    tag_439:\n        /* \"src/ExchangeAbstract.sol\":1833:1851  _nativeBuyableTime */\n      0x01\n      0x00\n        /* \"src/ExchangeAbstract.sol\":1833:1881  _nativeBuyableTime += amount / nativeBuyableRate */\n      dup3\n      dup3\n      sload\n      tag_440\n      swap2\n      swap1\n      tag_307\n      jump\t// in\n    tag_440:\n      swap1\n      swap2\n      sstore\n      pop\n      pop\n        /* \"src/ExchangeAbstract.sol\":1945:1970  to.call{value:amount}(\"\") */\n      mload(0x40)\n        /* \"src/ExchangeAbstract.sol\":1928:1940  bool success */\n      0x00\n      swap1\n      sub(shl(0xa0, 0x01), 0x01)\n        /* \"src/ExchangeAbstract.sol\":1945:1952  to.call */\n      dup5\n      and\n      swap1\n        /* \"src/ExchangeAbstract.sol\":1959:1965  amount */\n      dup4\n      swap1\n        /* \"src/ExchangeAbstract.sol\":1928:1940  bool success */\n      dup4\n        /* \"src/ExchangeAbstract.sol\":1945:1970  to.call{value:amount}(\"\") */\n      dup2\n        /* \"src/ExchangeAbstract.sol\":1928:1940  bool success */\n      dup2\n        /* \"src/ExchangeAbstract.sol\":1945:1970  to.call{value:amount}(\"\") */\n      dup2\n        /* \"src/ExchangeAbstract.sol\":1959:1965  amount */\n      dup6\n        /* \"src/ExchangeAbstract.sol\":1945:1952  to.call */\n      dup8\n        /* \"src/ExchangeAbstract.sol\":1945:1970  to.call{value:amount}(\"\") */\n      gas\n      call\n      swap3\n      pop\n      pop\n      pop\n      returndatasize\n      dup1\n      0x00\n      dup2\n      eq\n      tag_445\n      jumpi\n      mload(0x40)\n      swap2\n      pop\n      and(add(returndatasize, 0x3f), not(0x1f))\n      dup3\n      add\n      0x40\n      mstore\n      returndatasize\n      dup3\n      mstore\n      returndatasize\n      0x00\n      0x20\n      dup5\n      add\n      returndatacopy\n      jump(tag_444)\n    tag_445:\n      0x60\n      swap2\n      pop\n    tag_444:\n      pop\n        /* \"src/ExchangeAbstract.sol\":1927:1970  (bool success,) = to.call{value:amount}(\"\") */\n      pop\n      swap1\n      pop\n        /* \"src/ExchangeAbstract.sol\":1989:1996  success */\n      dup1\n        /* \"src/ExchangeAbstract.sol\":1981:1997  require(success) */\n      tag_284\n      jumpi\n      revert(0x00, 0x00)\n        /* \"https://github.com/Vectorized/solady/blob/main/src/tokens/ERC20.sol\":24177:25296  function _burn(address from, uint256 amount) internal virtual {... */\n    tag_358:\n        /* \"https://github.com/Vectorized/solady/blob/main/src/tokens/ERC20.sol\":24444:24462  _BALANCE_SLOT_SEED */\n      0x87a211a2\n        /* \"https://github.com/Vectorized/solady/blob/main/src/tokens/ERC20.sol\":24438:24442  0x0c */\n      0x0c\n        /* \"https://github.com/Vectorized/solady/blob/main/src/tokens/ERC20.sol\":24431:24463  mstore(0x0c, _BALANCE_SLOT_SEED) */\n      mstore\n        /* \"https://github.com/Vectorized/solady/blob/main/src/tokens/ERC20.sol\":24489:24493  from */\n      dup2\n        /* \"https://github.com/Vectorized/solady/blob/main/src/tokens/ERC20.sol\":24483:24487  0x00 */\n      0x00\n        /* \"https://github.com/Vectorized/solady/blob/main/src/tokens/ERC20.sol\":24476:24494  mstore(0x00, from) */\n      mstore\n        /* \"https://github.com/Vectorized/solady/blob/main/src/tokens/ERC20.sol\":24546:24550  0x20 */\n      0x20\n        /* \"https://github.com/Vectorized/solady/blob/main/src/tokens/ERC20.sol\":24540:24544  0x0c */\n      0x0c\n        /* \"https://github.com/Vectorized/solady/blob/main/src/tokens/ERC20.sol\":24530:24551  keccak256(0x0c, 0x20) */\n      keccak256\n        /* \"https://github.com/Vectorized/solady/blob/main/src/tokens/ERC20.sol\":24589:24604  fromBalanceSlot */\n      dup1\n        /* \"https://github.com/Vectorized/solady/blob/main/src/tokens/ERC20.sol\":24583:24605  sload(fromBalanceSlot) */\n      sload\n        /* \"https://github.com/Vectorized/solady/blob/main/src/tokens/ERC20.sol\":24679:24690  fromBalance */\n      dup1\n        /* \"https://github.com/Vectorized/solady/blob/main/src/tokens/ERC20.sol\":24671:24677  amount */\n      dup4\n        /* \"https://github.com/Vectorized/solady/blob/main/src/tokens/ERC20.sol\":24668:24691  gt(amount, fromBalance) */\n      gt\n        /* \"https://github.com/Vectorized/solady/blob/main/src/tokens/ERC20.sol\":24665:24811  if gt(amount, fromBalance) {... */\n      iszero\n      tag_449\n      jumpi\n        /* \"https://github.com/Vectorized/solady/blob/main/src/tokens/ERC20.sol\":24723:24733  0xf4d678b8 */\n      0xf4d678b8\n        /* \"https://github.com/Vectorized/solady/blob/main/src/tokens/ERC20.sol\":24717:24721  0x00 */\n      0x00\n        /* \"https://github.com/Vectorized/solady/blob/main/src/tokens/ERC20.sol\":24710:24734  mstore(0x00, 0xf4d678b8) */\n      mstore\n        /* \"https://github.com/Vectorized/solady/blob/main/src/tokens/ERC20.sol\":24792:24796  0x04 */\n      0x04\n        /* \"https://github.com/Vectorized/solady/blob/main/src/tokens/ERC20.sol\":24786:24790  0x1c */\n      0x1c\n        /* \"https://github.com/Vectorized/solady/blob/main/src/tokens/ERC20.sol\":24779:24797  revert(0x1c, 0x04) */\n      revert\n        /* \"https://github.com/Vectorized/solady/blob/main/src/tokens/ERC20.sol\":24665:24811  if gt(amount, fromBalance) {... */\n    tag_449:\n        /* \"https://github.com/Vectorized/solady/blob/main/src/tokens/ERC20.sol\":24903:24927  sub(fromBalance, amount) */\n      dup3\n      swap1\n      sub\n        /* \"https://github.com/Vectorized/solady/blob/main/src/tokens/ERC20.sol\":24879:24928  sstore(fromBalanceSlot, sub(fromBalance, amount)) */\n      swap1\n      sstore\n        /* \"https://github.com/Vectorized/solady/blob/main/src/tokens/ERC20.sol\":25038:25056  _TOTAL_SUPPLY_SLOT */\n      0x05345cdf77eb68f44c\n        /* \"https://github.com/Vectorized/solady/blob/main/src/tokens/ERC20.sol\":25032:25057  sload(_TOTAL_SUPPLY_SLOT) */\n      dup1\n      sload\n        /* \"https://github.com/Vectorized/solady/blob/main/src/tokens/ERC20.sol\":25028:25066  sub(sload(_TOTAL_SUPPLY_SLOT), amount) */\n      dup3\n      swap1\n      sub\n        /* \"https://github.com/Vectorized/solady/blob/main/src/tokens/ERC20.sol\":25001:25067  sstore(_TOTAL_SUPPLY_SLOT, sub(sload(_TOTAL_SUPPLY_SLOT), amount)) */\n      swap1\n      sstore\n      0x00\n        /* \"https://github.com/Vectorized/solady/blob/main/src/tokens/ERC20.sol\":25122:25142  mstore(0x00, amount) */\n      dup2\n      dup2\n      mstore\n      sub(shl(0xa0, 0x01), 0x01)\n        /* \"https://github.com/Vectorized/solady/blob/main/src/tokens/ERC20.sol\":25199:25221  shr(96, shl(96, from)) */\n      dup4\n      and\n      mload(0x00)\n      codecopy(0x00, data_ada389e1fc24a8587c776340efb91b36e675792ab631816100d55df0b5cf3cbc, 0x20)\n      mload(0x00)\n      swap1\n      0x00\n      mstore\n        /* \"https://github.com/Vectorized/solady/blob/main/src/tokens/ERC20.sol\":25166:25170  0x20 */\n      0x20\n      dup4\n        /* \"https://github.com/Vectorized/solady/blob/main/src/tokens/ERC20.sol\":25155:25225  log3(0x00, 0x20, _TRANSFER_EVENT_SIGNATURE, shr(96, shl(96, from)), 0) */\n      log3\n        /* \"src/PinusVault.sol\":3167:3398  function _transferERC20sBought(address to, uint erc20sBought) internal override {... */\n      pop\n      pop\n      jump\t// out\n        /* \"https://github.com/Vectorized/solady/blob/main/src/tokens/ERC20.sol\":22599:23771  function _mint(address to, uint256 amount) internal virtual {... */\n    tag_432:\n        /* \"https://github.com/Vectorized/solady/blob/main/src/tokens/ERC20.sol\":22820:22838  _TOTAL_SUPPLY_SLOT */\n      0x05345cdf77eb68f44c\n        /* \"https://github.com/Vectorized/solady/blob/main/src/tokens/ERC20.sol\":22814:22839  sload(_TOTAL_SUPPLY_SLOT) */\n      sload\n        /* \"https://github.com/Vectorized/solady/blob/main/src/tokens/ERC20.sol\":22899:22905  amount */\n      dup2\n        /* \"https://github.com/Vectorized/solady/blob/main/src/tokens/ERC20.sol\":22880:22897  totalSupplyBefore */\n      dup2\n        /* \"https://github.com/Vectorized/solady/blob/main/src/tokens/ERC20.sol\":22876:22906  add(totalSupplyBefore, amount) */\n      add\n        /* \"https://github.com/Vectorized/solady/blob/main/src/tokens/ERC20.sol\":22996:23013  totalSupplyBefore */\n      dup2\n        /* \"https://github.com/Vectorized/solady/blob/main/src/tokens/ERC20.sol\":22978:22994  totalSupplyAfter */\n      dup2\n        /* \"https://github.com/Vectorized/solady/blob/main/src/tokens/ERC20.sol\":22975:23014  lt(totalSupplyAfter, totalSupplyBefore) */\n      lt\n        /* \"https://github.com/Vectorized/solady/blob/main/src/tokens/ERC20.sol\":22972:23134  if lt(totalSupplyAfter, totalSupplyBefore) {... */\n      iszero\n      tag_454\n      jumpi\n        /* \"https://github.com/Vectorized/solady/blob/main/src/tokens/ERC20.sol\":23046:23056  0xe5cfe957 */\n      0xe5cfe957\n        /* \"https://github.com/Vectorized/solady/blob/main/src/tokens/ERC20.sol\":23040:23044  0x00 */\n      0x00\n        /* \"https://github.com/Vectorized/solady/blob/main/src/tokens/ERC20.sol\":23033:23057  mstore(0x00, 0xe5cfe957) */\n      mstore\n        /* \"https://github.com/Vectorized/solady/blob/main/src/tokens/ERC20.sol\":23115:23119  0x04 */\n      0x04\n        /* \"https://github.com/Vectorized/solady/blob/main/src/tokens/ERC20.sol\":23109:23113  0x1c */\n      0x1c\n        /* \"https://github.com/Vectorized/solady/blob/main/src/tokens/ERC20.sol\":23102:23120  revert(0x1c, 0x04) */\n      revert\n        /* \"https://github.com/Vectorized/solady/blob/main/src/tokens/ERC20.sol\":22972:23134  if lt(totalSupplyAfter, totalSupplyBefore) {... */\n    tag_454:\n        /* \"https://github.com/Vectorized/solady/blob/main/src/tokens/ERC20.sol\":23221:23237  totalSupplyAfter */\n      dup1\n        /* \"https://github.com/Vectorized/solady/blob/main/src/tokens/ERC20.sol\":23201:23219  _TOTAL_SUPPLY_SLOT */\n      0x05345cdf77eb68f44c\n        /* \"https://github.com/Vectorized/solady/blob/main/src/tokens/ERC20.sol\":23194:23238  sstore(_TOTAL_SUPPLY_SLOT, totalSupplyAfter) */\n      sstore\n      pop\n      pop\n        /* \"https://github.com/Vectorized/solady/blob/main/src/tokens/ERC20.sol\":23324:23342  _BALANCE_SLOT_SEED */\n      0x87a211a2\n        /* \"https://github.com/Vectorized/solady/blob/main/src/tokens/ERC20.sol\":23318:23322  0x0c */\n      0x0c\n        /* \"https://github.com/Vectorized/solady/blob/main/src/tokens/ERC20.sol\":23311:23343  mstore(0x0c, _BALANCE_SLOT_SEED) */\n      mstore\n        /* \"https://github.com/Vectorized/solady/blob/main/src/tokens/ERC20.sol\":23369:23371  to */\n      dup2\n        /* \"https://github.com/Vectorized/solady/blob/main/src/tokens/ERC20.sol\":23363:23367  0x00 */\n      0x00\n        /* \"https://github.com/Vectorized/solady/blob/main/src/tokens/ERC20.sol\":23356:23372  mstore(0x00, to) */\n      mstore\n        /* \"https://github.com/Vectorized/solady/blob/main/src/tokens/ERC20.sol\":23422:23426  0x20 */\n      0x20\n        /* \"https://github.com/Vectorized/solady/blob/main/src/tokens/ERC20.sol\":23416:23420  0x0c */\n      0x0c\n        /* \"https://github.com/Vectorized/solady/blob/main/src/tokens/ERC20.sol\":23406:23427  keccak256(0x0c, 0x20) */\n      keccak256\n        /* \"https://github.com/Vectorized/solady/blob/main/src/tokens/ERC20.sol\":23538:23544  amount */\n      dup2\n        /* \"https://github.com/Vectorized/solady/blob/main/src/tokens/ERC20.sol\":23522:23535  toBalanceSlot */\n      dup2\n        /* \"https://github.com/Vectorized/solady/blob/main/src/tokens/ERC20.sol\":23516:23536  sload(toBalanceSlot) */\n      sload\n        /* \"https://github.com/Vectorized/solady/blob/main/src/tokens/ERC20.sol\":23512:23545  add(sload(toBalanceSlot), amount) */\n      add\n        /* \"https://github.com/Vectorized/solady/blob/main/src/tokens/ERC20.sol\":23497:23510  toBalanceSlot */\n      dup2\n        /* \"https://github.com/Vectorized/solady/blob/main/src/tokens/ERC20.sol\":23490:23546  sstore(toBalanceSlot, add(sload(toBalanceSlot), amount)) */\n      sstore\n      pop\n        /* \"https://github.com/Vectorized/solady/blob/main/src/tokens/ERC20.sol\":23614:23620  amount */\n      dup1\n        /* \"https://github.com/Vectorized/solady/blob/main/src/tokens/ERC20.sol\":23608:23612  0x20 */\n      0x20\n        /* \"https://github.com/Vectorized/solady/blob/main/src/tokens/ERC20.sol\":23601:23621  mstore(0x20, amount) */\n      mstore\n        /* \"https://github.com/Vectorized/solady/blob/main/src/tokens/ERC20.sol\":23695:23699  0x0c */\n      0x0c\n        /* \"https://github.com/Vectorized/solady/blob/main/src/tokens/ERC20.sol\":23689:23700  mload(0x0c) */\n      mload\n        /* \"https://github.com/Vectorized/solady/blob/main/src/tokens/ERC20.sol\":23685:23687  96 */\n      0x60\n        /* \"https://github.com/Vectorized/solady/blob/main/src/tokens/ERC20.sol\":23681:23701  shr(96, mload(0x0c)) */\n      shr\n        /* \"https://github.com/Vectorized/solady/blob/main/src/tokens/ERC20.sol\":23678:23679  0 */\n      0x00\n      mload(0x00)\n      codecopy(0x00, data_ada389e1fc24a8587c776340efb91b36e675792ab631816100d55df0b5cf3cbc, 0x20)\n      mload(0x00)\n      swap1\n      0x00\n      mstore\n        /* \"https://github.com/Vectorized/solady/blob/main/src/tokens/ERC20.sol\":23645:23649  0x20 */\n      0x20\n        /* \"https://github.com/Vectorized/solady/blob/main/src/tokens/ERC20.sol\":23639:23643  0x20 */\n      dup1\n        /* \"https://github.com/Vectorized/solady/blob/main/src/tokens/ERC20.sol\":23634:23702  log3(0x20, 0x20, _TRANSFER_EVENT_SIGNATURE, 0, shr(96, mload(0x0c))) */\n      log3\n        /* \"src/PinusVault.sol\":3167:3398  function _transferERC20sBought(address to, uint erc20sBought) internal override {... */\n      pop\n      pop\n      jump\t// out\n        /* \"#utility.yul\":237:526   */\n    tag_456:\n        /* \"#utility.yul\":279:282   */\n      0x00\n        /* \"#utility.yul\":317:322   */\n      dup2\n        /* \"#utility.yul\":311:323   */\n      mload\n        /* \"#utility.yul\":344:350   */\n      dup1\n        /* \"#utility.yul\":339:342   */\n      dup5\n        /* \"#utility.yul\":332:351   */\n      mstore\n        /* \"#utility.yul\":400:406   */\n      dup1\n        /* \"#utility.yul\":393:397   */\n      0x20\n        /* \"#utility.yul\":386:391   */\n      dup5\n        /* \"#utility.yul\":382:398   */\n      add\n        /* \"#utility.yul\":375:379   */\n      0x20\n        /* \"#utility.yul\":370:373   */\n      dup7\n        /* \"#utility.yul\":366:380   */\n      add\n        /* \"#utility.yul\":360:407   */\n      mcopy\n        /* \"#utility.yul\":452:453   */\n      0x00\n        /* \"#utility.yul\":445:449   */\n      0x20\n        /* \"#utility.yul\":436:442   */\n      dup3\n        /* \"#utility.yul\":431:434   */\n      dup7\n        /* \"#utility.yul\":427:443   */\n      add\n        /* \"#utility.yul\":423:450   */\n      add\n        /* \"#utility.yul\":416:454   */\n      mstore\n        /* \"#utility.yul\":515:519   */\n      0x20\n        /* \"#utility.yul\":508:510   */\n      0x1f\n        /* \"#utility.yul\":504:511   */\n      not\n        /* \"#utility.yul\":499:501   */\n      0x1f\n        /* \"#utility.yul\":491:497   */\n      dup4\n        /* \"#utility.yul\":487:502   */\n      add\n        /* \"#utility.yul\":483:512   */\n      and\n        /* \"#utility.yul\":478:481   */\n      dup6\n        /* \"#utility.yul\":474:513   */\n      add\n        /* \"#utility.yul\":470:520   */\n      add\n        /* \"#utility.yul\":463:520   */\n      swap2\n      pop\n      pop\n        /* \"#utility.yul\":237:526   */\n      swap3\n      swap2\n      pop\n      pop\n      jump\t// out\n        /* \"#utility.yul\":531:751   */\n    tag_56:\n        /* \"#utility.yul\":680:682   */\n      0x20\n        /* \"#utility.yul\":669:678   */\n      dup2\n        /* \"#utility.yul\":662:683   */\n      mstore\n        /* \"#utility.yul\":643:647   */\n      0x00\n        /* \"#utility.yul\":700:745   */\n      tag_317\n        /* \"#utility.yul\":741:743   */\n      0x20\n        /* \"#utility.yul\":730:739   */\n      dup4\n        /* \"#utility.yul\":726:744   */\n      add\n        /* \"#utility.yul\":718:724   */\n      dup5\n        /* \"#utility.yul\":700:745   */\n      tag_456\n      jump\t// in\n        /* \"#utility.yul\":756:887   */\n    tag_457:\n      sub(shl(0xa0, 0x01), 0x01)\n        /* \"#utility.yul\":831:862   */\n      dup2\n      and\n        /* \"#utility.yul\":821:863   */\n      dup2\n      eq\n        /* \"#utility.yul\":811:881   */\n      tag_406\n      jumpi\n        /* \"#utility.yul\":877:878   */\n      0x00\n        /* \"#utility.yul\":874:875   */\n      0x00\n        /* \"#utility.yul\":867:879   */\n      revert\n        /* \"#utility.yul\":892:1259   */\n    tag_60:\n        /* \"#utility.yul\":960:966   */\n      0x00\n        /* \"#utility.yul\":968:974   */\n      0x00\n        /* \"#utility.yul\":1021:1023   */\n      0x40\n        /* \"#utility.yul\":1009:1018   */\n      dup4\n        /* \"#utility.yul\":1000:1007   */\n      dup6\n        /* \"#utility.yul\":996:1019   */\n      sub\n        /* \"#utility.yul\":992:1024   */\n      slt\n        /* \"#utility.yul\":989:1041   */\n      iszero\n      tag_469\n      jumpi\n        /* \"#utility.yul\":1037:1038   */\n      0x00\n        /* \"#utility.yul\":1034:1035   */\n      0x00\n        /* \"#utility.yul\":1027:1039   */\n      revert\n        /* \"#utility.yul\":989:1041   */\n    tag_469:\n        /* \"#utility.yul\":1076:1085   */\n      dup3\n        /* \"#utility.yul\":1063:1086   */\n      calldataload\n        /* \"#utility.yul\":1095:1126   */\n      tag_470\n        /* \"#utility.yul\":1120:1125   */\n      dup2\n        /* \"#utility.yul\":1095:1126   */\n      tag_457\n      jump\t// in\n    tag_470:\n        /* \"#utility.yul\":1145:1150   */\n      swap5\n        /* \"#utility.yul\":1223:1225   */\n      0x20\n        /* \"#utility.yul\":1208:1226   */\n      swap4\n      swap1\n      swap4\n      add\n        /* \"#utility.yul\":1195:1227   */\n      calldataload\n      swap4\n      pop\n      pop\n      pop\n        /* \"#utility.yul\":892:1259   */\n      jump\t// out\n        /* \"#utility.yul\":1456:2297   */\n    tag_67:\n        /* \"#utility.yul\":1544:1550   */\n      0x00\n        /* \"#utility.yul\":1552:1558   */\n      0x00\n        /* \"#utility.yul\":1560:1566   */\n      0x00\n        /* \"#utility.yul\":1568:1574   */\n      0x00\n        /* \"#utility.yul\":1621:1623   */\n      0x60\n        /* \"#utility.yul\":1609:1618   */\n      dup6\n        /* \"#utility.yul\":1600:1607   */\n      dup8\n        /* \"#utility.yul\":1596:1619   */\n      sub\n        /* \"#utility.yul\":1592:1624   */\n      slt\n        /* \"#utility.yul\":1589:1641   */\n      iszero\n      tag_473\n      jumpi\n        /* \"#utility.yul\":1637:1638   */\n      0x00\n        /* \"#utility.yul\":1634:1635   */\n      0x00\n        /* \"#utility.yul\":1627:1639   */\n      revert\n        /* \"#utility.yul\":1589:1641   */\n    tag_473:\n        /* \"#utility.yul\":1676:1685   */\n      dup5\n        /* \"#utility.yul\":1663:1686   */\n      calldataload\n        /* \"#utility.yul\":1695:1726   */\n      tag_474\n        /* \"#utility.yul\":1720:1725   */\n      dup2\n        /* \"#utility.yul\":1695:1726   */\n      tag_457\n      jump\t// in\n    tag_474:\n        /* \"#utility.yul\":1745:1750   */\n      swap4\n      pop\n        /* \"#utility.yul\":1823:1825   */\n      0x20\n        /* \"#utility.yul\":1808:1826   */\n      dup6\n      add\n        /* \"#utility.yul\":1795:1827   */\n      calldataload\n      swap3\n      pop\n        /* \"#utility.yul\":1904:1906   */\n      0x40\n        /* \"#utility.yul\":1889:1907   */\n      dup6\n      add\n        /* \"#utility.yul\":1876:1908   */\n      calldataload\n        /* \"#utility.yul\":1931:1949   */\n      0xffffffffffffffff\n        /* \"#utility.yul\":1920:1950   */\n      dup2\n      gt\n        /* \"#utility.yul\":1917:1967   */\n      iszero\n      tag_475\n      jumpi\n        /* \"#utility.yul\":1963:1964   */\n      0x00\n        /* \"#utility.yul\":1960:1961   */\n      0x00\n        /* \"#utility.yul\":1953:1965   */\n      revert\n        /* \"#utility.yul\":1917:1967   */\n    tag_475:\n        /* \"#utility.yul\":1986:2008   */\n      dup6\n      add\n        /* \"#utility.yul\":2039:2043   */\n      0x1f\n        /* \"#utility.yul\":2031:2044   */\n      dup2\n      add\n        /* \"#utility.yul\":2027:2054   */\n      dup8\n      sgt\n        /* \"#utility.yul\":2017:2072   */\n      tag_476\n      jumpi\n        /* \"#utility.yul\":2068:2069   */\n      0x00\n        /* \"#utility.yul\":2065:2066   */\n      0x00\n        /* \"#utility.yul\":2058:2070   */\n      revert\n        /* \"#utility.yul\":2017:2072   */\n    tag_476:\n        /* \"#utility.yul\":2108:2110   */\n      dup1\n        /* \"#utility.yul\":2095:2111   */\n      calldataload\n        /* \"#utility.yul\":2134:2152   */\n      0xffffffffffffffff\n        /* \"#utility.yul\":2126:2132   */\n      dup2\n        /* \"#utility.yul\":2123:2153   */\n      gt\n        /* \"#utility.yul\":2120:2170   */\n      iszero\n      tag_477\n      jumpi\n        /* \"#utility.yul\":2166:2167   */\n      0x00\n        /* \"#utility.yul\":2163:2164   */\n      0x00\n        /* \"#utility.yul\":2156:2168   */\n      revert\n        /* \"#utility.yul\":2120:2170   */\n    tag_477:\n        /* \"#utility.yul\":2211:2218   */\n      dup8\n        /* \"#utility.yul\":2206:2208   */\n      0x20\n        /* \"#utility.yul\":2197:2203   */\n      dup3\n        /* \"#utility.yul\":2193:2195   */\n      dup5\n        /* \"#utility.yul\":2189:2204   */\n      add\n        /* \"#utility.yul\":2185:2209   */\n      add\n        /* \"#utility.yul\":2182:2219   */\n      gt\n        /* \"#utility.yul\":2179:2236   */\n      iszero\n      tag_478\n      jumpi\n        /* \"#utility.yul\":2232:2233   */\n      0x00\n        /* \"#utility.yul\":2229:2230   */\n      0x00\n        /* \"#utility.yul\":2222:2234   */\n      revert\n        /* \"#utility.yul\":2179:2236   */\n    tag_478:\n        /* \"#utility.yul\":1456:2297   */\n      swap5\n      swap8\n      swap4\n      swap7\n      pop\n        /* \"#utility.yul\":2263:2265   */\n      0x20\n        /* \"#utility.yul\":2255:2266   */\n      add\n      swap5\n      pop\n      pop\n      pop\n        /* \"#utility.yul\":1456:2297   */\n      jump\t// out\n        /* \"#utility.yul\":2302:2601   */\n    tag_70:\n        /* \"#utility.yul\":2485:2491   */\n      dup3\n        /* \"#utility.yul\":2478:2492   */\n      iszero\n        /* \"#utility.yul\":2471:2493   */\n      iszero\n        /* \"#utility.yul\":2460:2469   */\n      dup2\n        /* \"#utility.yul\":2453:2494   */\n      mstore\n        /* \"#utility.yul\":2530:2532   */\n      0x40\n        /* \"#utility.yul\":2525:2527   */\n      0x20\n        /* \"#utility.yul\":2514:2523   */\n      dup3\n        /* \"#utility.yul\":2510:2528   */\n      add\n        /* \"#utility.yul\":2503:2533   */\n      mstore\n        /* \"#utility.yul\":2434:2438   */\n      0x00\n        /* \"#utility.yul\":2550:2595   */\n      tag_344\n        /* \"#utility.yul\":2591:2593   */\n      0x40\n        /* \"#utility.yul\":2580:2589   */\n      dup4\n        /* \"#utility.yul\":2576:2594   */\n      add\n        /* \"#utility.yul\":2568:2574   */\n      dup5\n        /* \"#utility.yul\":2550:2595   */\n      tag_456\n      jump\t// in\n        /* \"#utility.yul\":2606:2853   */\n    tag_73:\n        /* \"#utility.yul\":2665:2671   */\n      0x00\n        /* \"#utility.yul\":2718:2720   */\n      0x20\n        /* \"#utility.yul\":2706:2715   */\n      dup3\n        /* \"#utility.yul\":2697:2704   */\n      dup5\n        /* \"#utility.yul\":2693:2716   */\n      sub\n        /* \"#utility.yul\":2689:2721   */\n      slt\n        /* \"#utility.yul\":2686:2738   */\n      iszero\n      tag_482\n      jumpi\n        /* \"#utility.yul\":2734:2735   */\n      0x00\n        /* \"#utility.yul\":2731:2732   */\n      0x00\n        /* \"#utility.yul\":2724:2736   */\n      revert\n        /* \"#utility.yul\":2686:2738   */\n    tag_482:\n        /* \"#utility.yul\":2773:2782   */\n      dup2\n        /* \"#utility.yul\":2760:2783   */\n      calldataload\n        /* \"#utility.yul\":2792:2823   */\n      tag_317\n        /* \"#utility.yul\":2817:2822   */\n      dup2\n        /* \"#utility.yul\":2792:2823   */\n      tag_457\n      jump\t// in\n        /* \"#utility.yul\":3040:3569   */\n    tag_80:\n        /* \"#utility.yul\":3138:3144   */\n      0x00\n        /* \"#utility.yul\":3146:3152   */\n      0x00\n        /* \"#utility.yul\":3154:3160   */\n      0x00\n        /* \"#utility.yul\":3207:3209   */\n      0x60\n        /* \"#utility.yul\":3195:3204   */\n      dup5\n        /* \"#utility.yul\":3186:3193   */\n      dup7\n        /* \"#utility.yul\":3182:3205   */\n      sub\n        /* \"#utility.yul\":3178:3210   */\n      slt\n        /* \"#utility.yul\":3175:3227   */\n      iszero\n      tag_486\n      jumpi\n        /* \"#utility.yul\":3223:3224   */\n      0x00\n        /* \"#utility.yul\":3220:3221   */\n      0x00\n        /* \"#utility.yul\":3213:3225   */\n      revert\n        /* \"#utility.yul\":3175:3227   */\n    tag_486:\n        /* \"#utility.yul\":3262:3271   */\n      dup4\n        /* \"#utility.yul\":3249:3272   */\n      calldataload\n        /* \"#utility.yul\":3281:3312   */\n      tag_487\n        /* \"#utility.yul\":3306:3311   */\n      dup2\n        /* \"#utility.yul\":3281:3312   */\n      tag_457\n      jump\t// in\n    tag_487:\n        /* \"#utility.yul\":3331:3336   */\n      swap3\n      pop\n        /* \"#utility.yul\":3409:3411   */\n      0x20\n        /* \"#utility.yul\":3394:3412   */\n      dup5\n      add\n        /* \"#utility.yul\":3381:3413   */\n      calldataload\n      swap2\n      pop\n        /* \"#utility.yul\":3491:3493   */\n      0x40\n        /* \"#utility.yul\":3476:3494   */\n      dup5\n      add\n        /* \"#utility.yul\":3463:3495   */\n      calldataload\n        /* \"#utility.yul\":3504:3537   */\n      tag_488\n        /* \"#utility.yul\":3463:3495   */\n      dup2\n        /* \"#utility.yul\":3504:3537   */\n      tag_457\n      jump\t// in\n    tag_488:\n        /* \"#utility.yul\":3556:3563   */\n      dup1\n        /* \"#utility.yul\":3546:3563   */\n      swap2\n      pop\n      pop\n        /* \"#utility.yul\":3040:3569   */\n      swap3\n      pop\n      swap3\n      pop\n      swap3\n      jump\t// out\n        /* \"#utility.yul\":3574:4082   */\n    tag_93:\n        /* \"#utility.yul\":3651:3657   */\n      0x00\n        /* \"#utility.yul\":3659:3665   */\n      0x00\n        /* \"#utility.yul\":3667:3673   */\n      0x00\n        /* \"#utility.yul\":3720:3722   */\n      0x60\n        /* \"#utility.yul\":3708:3717   */\n      dup5\n        /* \"#utility.yul\":3699:3706   */\n      dup7\n        /* \"#utility.yul\":3695:3718   */\n      sub\n        /* \"#utility.yul\":3691:3723   */\n      slt\n        /* \"#utility.yul\":3688:3740   */\n      iszero\n      tag_490\n      jumpi\n        /* \"#utility.yul\":3736:3737   */\n      0x00\n        /* \"#utility.yul\":3733:3734   */\n      0x00\n        /* \"#utility.yul\":3726:3738   */\n      revert\n        /* \"#utility.yul\":3688:3740   */\n    tag_490:\n        /* \"#utility.yul\":3775:3784   */\n      dup4\n        /* \"#utility.yul\":3762:3785   */\n      calldataload\n        /* \"#utility.yul\":3794:3825   */\n      tag_491\n        /* \"#utility.yul\":3819:3824   */\n      dup2\n        /* \"#utility.yul\":3794:3825   */\n      tag_457\n      jump\t// in\n    tag_491:\n        /* \"#utility.yul\":3844:3849   */\n      swap3\n      pop\n        /* \"#utility.yul\":3901:3903   */\n      0x20\n        /* \"#utility.yul\":3886:3904   */\n      dup5\n      add\n        /* \"#utility.yul\":3873:3905   */\n      calldataload\n        /* \"#utility.yul\":3914:3947   */\n      tag_492\n        /* \"#utility.yul\":3873:3905   */\n      dup2\n        /* \"#utility.yul\":3914:3947   */\n      tag_457\n      jump\t// in\n    tag_492:\n        /* \"#utility.yul\":3574:4082   */\n      swap3\n      swap6\n        /* \"#utility.yul\":3966:3973   */\n      swap3\n      swap5\n      pop\n      pop\n      pop\n        /* \"#utility.yul\":4046:4048   */\n      0x40\n        /* \"#utility.yul\":4031:4049   */\n      swap2\n      swap1\n      swap2\n      add\n        /* \"#utility.yul\":4018:4050   */\n      calldataload\n      swap1\n        /* \"#utility.yul\":3574:4082   */\n      jump\t// out\n        /* \"#utility.yul\":4679:4905   */\n    tag_114:\n        /* \"#utility.yul\":4738:4744   */\n      0x00\n        /* \"#utility.yul\":4791:4793   */\n      0x20\n        /* \"#utility.yul\":4779:4788   */\n      dup3\n        /* \"#utility.yul\":4770:4777   */\n      dup5\n        /* \"#utility.yul\":4766:4789   */\n      sub\n        /* \"#utility.yul\":4762:4794   */\n      slt\n        /* \"#utility.yul\":4759:4811   */\n      iszero\n      tag_497\n      jumpi\n        /* \"#utility.yul\":4807:4808   */\n      0x00\n        /* \"#utility.yul\":4804:4805   */\n      0x00\n        /* \"#utility.yul\":4797:4809   */\n      revert\n        /* \"#utility.yul\":4759:4811   */\n    tag_497:\n      pop\n        /* \"#utility.yul\":4852:4875   */\n      calldataload\n      swap2\n        /* \"#utility.yul\":4679:4905   */\n      swap1\n      pop\n      jump\t// out\n        /* \"#utility.yul\":4910:5069   */\n    tag_458:\n        /* \"#utility.yul\":4973:4978   */\n      0x00\n        /* \"#utility.yul\":5018:5021   */\n      0x80\n        /* \"#utility.yul\":5009:5015   */\n      dup3\n        /* \"#utility.yul\":5004:5007   */\n      dup5\n        /* \"#utility.yul\":5000:5016   */\n      sub\n        /* \"#utility.yul\":4996:5022   */\n      slt\n        /* \"#utility.yul\":4993:5039   */\n      iszero\n      tag_499\n      jumpi\n        /* \"#utility.yul\":5035:5036   */\n      0x00\n        /* \"#utility.yul\":5032:5033   */\n      0x00\n        /* \"#utility.yul\":5025:5037   */\n      revert\n        /* \"#utility.yul\":4993:5039   */\n    tag_499:\n      pop\n        /* \"#utility.yul\":5057:5063   */\n      swap2\n        /* \"#utility.yul\":4910:5069   */\n      swap1\n      pop\n      jump\t// out\n        /* \"#utility.yul\":5074:5433   */\n    tag_125:\n        /* \"#utility.yul\":5172:5178   */\n      0x00\n        /* \"#utility.yul\":5180:5186   */\n      0x00\n        /* \"#utility.yul\":5233:5236   */\n      0xa0\n        /* \"#utility.yul\":5221:5230   */\n      dup4\n        /* \"#utility.yul\":5212:5219   */\n      dup6\n        /* \"#utility.yul\":5208:5231   */\n      sub\n        /* \"#utility.yul\":5204:5237   */\n      slt\n        /* \"#utility.yul\":5201:5254   */\n      iszero\n      tag_501\n      jumpi\n        /* \"#utility.yul\":5250:5251   */\n      0x00\n        /* \"#utility.yul\":5247:5248   */\n      0x00\n        /* \"#utility.yul\":5240:5252   */\n      revert\n        /* \"#utility.yul\":5201:5254   */\n    tag_501:\n        /* \"#utility.yul\":5295:5318   */\n      dup3\n      calldataload\n      swap2\n      pop\n        /* \"#utility.yul\":5361:5427   */\n      tag_502\n        /* \"#utility.yul\":5419:5426   */\n      dup5\n        /* \"#utility.yul\":5414:5416   */\n      0x20\n        /* \"#utility.yul\":5399:5417   */\n      dup6\n      add\n        /* \"#utility.yul\":5361:5427   */\n      tag_458\n      jump\t// in\n    tag_502:\n        /* \"#utility.yul\":5351:5427   */\n      swap1\n      pop\n        /* \"#utility.yul\":5074:5433   */\n      swap3\n      pop\n      swap3\n      swap1\n      pop\n      jump\t// out\n        /* \"#utility.yul\":5853:6353   */\n    tag_168:\n        /* \"#utility.yul\":5960:5966   */\n      0x00\n        /* \"#utility.yul\":5968:5974   */\n      0x00\n        /* \"#utility.yul\":5976:5982   */\n      0x00\n        /* \"#utility.yul\":6029:6032   */\n      0xc0\n        /* \"#utility.yul\":6017:6026   */\n      dup5\n        /* \"#utility.yul\":6008:6015   */\n      dup7\n        /* \"#utility.yul\":6004:6027   */\n      sub\n        /* \"#utility.yul\":6000:6033   */\n      slt\n        /* \"#utility.yul\":5997:6050   */\n      iszero\n      tag_506\n      jumpi\n        /* \"#utility.yul\":6046:6047   */\n      0x00\n        /* \"#utility.yul\":6043:6044   */\n      0x00\n        /* \"#utility.yul\":6036:6048   */\n      revert\n        /* \"#utility.yul\":5997:6050   */\n    tag_506:\n        /* \"#utility.yul\":6091:6114   */\n      dup4\n      calldataload\n      swap3\n      pop\n        /* \"#utility.yul\":6190:6192   */\n      0x20\n        /* \"#utility.yul\":6175:6193   */\n      dup5\n      add\n        /* \"#utility.yul\":6162:6194   */\n      calldataload\n        /* \"#utility.yul\":6203:6236   */\n      tag_507\n        /* \"#utility.yul\":6162:6194   */\n      dup2\n        /* \"#utility.yul\":6203:6236   */\n      tag_457\n      jump\t// in\n    tag_507:\n        /* \"#utility.yul\":6255:6262   */\n      swap2\n      pop\n        /* \"#utility.yul\":6281:6347   */\n      tag_508\n        /* \"#utility.yul\":6339:6346   */\n      dup6\n        /* \"#utility.yul\":6334:6336   */\n      0x40\n        /* \"#utility.yul\":6319:6337   */\n      dup7\n      add\n        /* \"#utility.yul\":6281:6347   */\n      tag_458\n      jump\t// in\n    tag_508:\n        /* \"#utility.yul\":6271:6347   */\n      swap1\n      pop\n        /* \"#utility.yul\":5853:6353   */\n      swap3\n      pop\n      swap3\n      pop\n      swap3\n      jump\t// out\n        /* \"#utility.yul\":6358:6725   */\n    tag_183:\n        /* \"#utility.yul\":6426:6432   */\n      0x00\n        /* \"#utility.yul\":6434:6440   */\n      0x00\n        /* \"#utility.yul\":6487:6489   */\n      0x40\n        /* \"#utility.yul\":6475:6484   */\n      dup4\n        /* \"#utility.yul\":6466:6473   */\n      dup6\n        /* \"#utility.yul\":6462:6485   */\n      sub\n        /* \"#utility.yul\":6458:6490   */\n      slt\n        /* \"#utility.yul\":6455:6507   */\n      iszero\n      tag_510\n      jumpi\n        /* \"#utility.yul\":6503:6504   */\n      0x00\n        /* \"#utility.yul\":6500:6501   */\n      0x00\n        /* \"#utility.yul\":6493:6505   */\n      revert\n        /* \"#utility.yul\":6455:6507   */\n    tag_510:\n        /* \"#utility.yul\":6548:6571   */\n      dup3\n      calldataload\n      swap2\n      pop\n        /* \"#utility.yul\":6647:6649   */\n      0x20\n        /* \"#utility.yul\":6632:6650   */\n      dup4\n      add\n        /* \"#utility.yul\":6619:6651   */\n      calldataload\n        /* \"#utility.yul\":6660:6693   */\n      tag_511\n        /* \"#utility.yul\":6619:6651   */\n      dup2\n        /* \"#utility.yul\":6660:6693   */\n      tag_457\n      jump\t// in\n    tag_511:\n        /* \"#utility.yul\":6712:6719   */\n      dup1\n        /* \"#utility.yul\":6702:6719   */\n      swap2\n      pop\n      pop\n        /* \"#utility.yul\":6358:6725   */\n      swap3\n      pop\n      swap3\n      swap1\n      pop\n      jump\t// out\n        /* \"#utility.yul\":6730:6886   */\n    tag_459:\n        /* \"#utility.yul\":6796:6816   */\n      dup1\n      calldataload\n        /* \"#utility.yul\":6856:6860   */\n      0xff\n        /* \"#utility.yul\":6845:6861   */\n      dup2\n      and\n        /* \"#utility.yul\":6835:6862   */\n      dup2\n      eq\n        /* \"#utility.yul\":6825:6880   */\n      tag_259\n      jumpi\n        /* \"#utility.yul\":6876:6877   */\n      0x00\n        /* \"#utility.yul\":6873:6874   */\n      0x00\n        /* \"#utility.yul\":6866:6878   */\n      revert\n        /* \"#utility.yul\":6891:7833   */\n    tag_198:\n        /* \"#utility.yul\":7002:7008   */\n      0x00\n        /* \"#utility.yul\":7010:7016   */\n      0x00\n        /* \"#utility.yul\":7018:7024   */\n      0x00\n        /* \"#utility.yul\":7026:7032   */\n      0x00\n        /* \"#utility.yul\":7034:7040   */\n      0x00\n        /* \"#utility.yul\":7042:7048   */\n      0x00\n        /* \"#utility.yul\":7050:7056   */\n      0x00\n        /* \"#utility.yul\":7103:7106   */\n      0xe0\n        /* \"#utility.yul\":7091:7100   */\n      dup9\n        /* \"#utility.yul\":7082:7089   */\n      dup11\n        /* \"#utility.yul\":7078:7101   */\n      sub\n        /* \"#utility.yul\":7074:7107   */\n      slt\n        /* \"#utility.yul\":7071:7124   */\n      iszero\n      tag_515\n      jumpi\n        /* \"#utility.yul\":7120:7121   */\n      0x00\n        /* \"#utility.yul\":7117:7118   */\n      0x00\n        /* \"#utility.yul\":7110:7122   */\n      revert\n        /* \"#utility.yul\":7071:7124   */\n    tag_515:\n        /* \"#utility.yul\":7159:7168   */\n      dup8\n        /* \"#utility.yul\":7146:7169   */\n      calldataload\n        /* \"#utility.yul\":7178:7209   */\n      tag_516\n        /* \"#utility.yul\":7203:7208   */\n      dup2\n        /* \"#utility.yul\":7178:7209   */\n      tag_457\n      jump\t// in\n    tag_516:\n        /* \"#utility.yul\":7228:7233   */\n      swap7\n      pop\n        /* \"#utility.yul\":7285:7287   */\n      0x20\n        /* \"#utility.yul\":7270:7288   */\n      dup9\n      add\n        /* \"#utility.yul\":7257:7289   */\n      calldataload\n        /* \"#utility.yul\":7298:7331   */\n      tag_517\n        /* \"#utility.yul\":7257:7289   */\n      dup2\n        /* \"#utility.yul\":7298:7331   */\n      tag_457\n      jump\t// in\n    tag_517:\n        /* \"#utility.yul\":7350:7357   */\n      swap6\n      pop\n        /* \"#utility.yul\":7430:7432   */\n      0x40\n        /* \"#utility.yul\":7415:7433   */\n      dup9\n      add\n        /* \"#utility.yul\":7402:7434   */\n      calldataload\n      swap5\n      pop\n        /* \"#utility.yul\":7533:7535   */\n      0x60\n        /* \"#utility.yul\":7518:7536   */\n      dup9\n      add\n        /* \"#utility.yul\":7505:7537   */\n      calldataload\n      swap4\n      pop\n        /* \"#utility.yul\":7582:7619   */\n      tag_518\n        /* \"#utility.yul\":7614:7617   */\n      0x80\n        /* \"#utility.yul\":7599:7618   */\n      dup10\n      add\n        /* \"#utility.yul\":7582:7619   */\n      tag_459\n      jump\t// in\n    tag_518:\n        /* \"#utility.yul\":6891:7833   */\n      swap7\n      swap10\n      swap6\n      swap9\n      pop\n      swap4\n      swap7\n      swap3\n      swap6\n        /* \"#utility.yul\":7572:7619   */\n      swap5\n        /* \"#utility.yul\":7692:7695   */\n      0xa0\n        /* \"#utility.yul\":7677:7696   */\n      dup5\n      add\n        /* \"#utility.yul\":7664:7697   */\n      calldataload\n      swap5\n      pop\n        /* \"#utility.yul\":7796:7799   */\n      0xc0\n        /* \"#utility.yul\":7781:7800   */\n      swap1\n      swap4\n      add\n        /* \"#utility.yul\":7768:7801   */\n      calldataload\n      swap3\n        /* \"#utility.yul\":6891:7833   */\n      swap2\n      pop\n      pop\n      jump\t// out\n        /* \"#utility.yul\":7838:8226   */\n    tag_203:\n        /* \"#utility.yul\":7906:7912   */\n      0x00\n        /* \"#utility.yul\":7914:7920   */\n      0x00\n        /* \"#utility.yul\":7967:7969   */\n      0x40\n        /* \"#utility.yul\":7955:7964   */\n      dup4\n        /* \"#utility.yul\":7946:7953   */\n      dup6\n        /* \"#utility.yul\":7942:7965   */\n      sub\n        /* \"#utility.yul\":7938:7970   */\n      slt\n        /* \"#utility.yul\":7935:7987   */\n      iszero\n      tag_520\n      jumpi\n        /* \"#utility.yul\":7983:7984   */\n      0x00\n        /* \"#utility.yul\":7980:7981   */\n      0x00\n        /* \"#utility.yul\":7973:7985   */\n      revert\n        /* \"#utility.yul\":7935:7987   */\n    tag_520:\n        /* \"#utility.yul\":8022:8031   */\n      dup3\n        /* \"#utility.yul\":8009:8032   */\n      calldataload\n        /* \"#utility.yul\":8041:8072   */\n      tag_521\n        /* \"#utility.yul\":8066:8071   */\n      dup2\n        /* \"#utility.yul\":8041:8072   */\n      tag_457\n      jump\t// in\n    tag_521:\n        /* \"#utility.yul\":8091:8096   */\n      swap2\n      pop\n        /* \"#utility.yul\":8148:8150   */\n      0x20\n        /* \"#utility.yul\":8133:8151   */\n      dup4\n      add\n        /* \"#utility.yul\":8120:8152   */\n      calldataload\n        /* \"#utility.yul\":8161:8194   */\n      tag_511\n        /* \"#utility.yul\":8120:8152   */\n      dup2\n        /* \"#utility.yul\":8161:8194   */\n      tag_457\n      jump\t// in\n        /* \"#utility.yul\":8231:8611   */\n    tag_238:\n        /* \"#utility.yul\":8310:8311   */\n      0x01\n        /* \"#utility.yul\":8306:8318   */\n      dup2\n      dup2\n      shr\n      swap1\n        /* \"#utility.yul\":8353:8365   */\n      dup3\n      and\n      dup1\n        /* \"#utility.yul\":8374:8435   */\n      tag_524\n      jumpi\n        /* \"#utility.yul\":8428:8432   */\n      0x7f\n        /* \"#utility.yul\":8420:8426   */\n      dup3\n        /* \"#utility.yul\":8416:8433   */\n      and\n        /* \"#utility.yul\":8406:8433   */\n      swap2\n      pop\n        /* \"#utility.yul\":8374:8435   */\n    tag_524:\n        /* \"#utility.yul\":8481:8483   */\n      0x20\n        /* \"#utility.yul\":8473:8479   */\n      dup3\n        /* \"#utility.yul\":8470:8484   */\n      lt\n        /* \"#utility.yul\":8450:8468   */\n      dup2\n        /* \"#utility.yul\":8447:8485   */\n      sub\n        /* \"#utility.yul\":8444:8605   */\n      tag_499\n      jumpi\n        /* \"#utility.yul\":8527:8537   */\n      0x4e487b71\n        /* \"#utility.yul\":8522:8525   */\n      0xe0\n        /* \"#utility.yul\":8518:8538   */\n      shl\n        /* \"#utility.yul\":8515:8516   */\n      0x00\n        /* \"#utility.yul\":8508:8539   */\n      mstore\n        /* \"#utility.yul\":8562:8566   */\n      0x22\n        /* \"#utility.yul\":8559:8560   */\n      0x04\n        /* \"#utility.yul\":8552:8567   */\n      mstore\n        /* \"#utility.yul\":8590:8594   */\n      0x24\n        /* \"#utility.yul\":8587:8588   */\n      0x00\n        /* \"#utility.yul\":8580:8595   */\n      revert\n        /* \"#utility.yul\":8616:8887   */\n    tag_253:\n        /* \"#utility.yul\":8799:8805   */\n      dup2\n        /* \"#utility.yul\":8791:8797   */\n      dup4\n        /* \"#utility.yul\":8786:8789   */\n      dup3\n        /* \"#utility.yul\":8773:8806   */\n      calldatacopy\n        /* \"#utility.yul\":8755:8758   */\n      0x00\n        /* \"#utility.yul\":8825:8841   */\n      swap2\n      add\n        /* \"#utility.yul\":8850:8863   */\n      swap1\n      dup2\n      mstore\n        /* \"#utility.yul\":8825:8841   */\n      swap2\n        /* \"#utility.yul\":8616:8887   */\n      swap1\n      pop\n      jump\t// out\n        /* \"#utility.yul\":9171:9448   */\n    tag_268:\n        /* \"#utility.yul\":9238:9244   */\n      0x00\n        /* \"#utility.yul\":9291:9293   */\n      0x20\n        /* \"#utility.yul\":9279:9288   */\n      dup3\n        /* \"#utility.yul\":9270:9277   */\n      dup5\n        /* \"#utility.yul\":9266:9289   */\n      sub\n        /* \"#utility.yul\":9262:9294   */\n      slt\n        /* \"#utility.yul\":9259:9311   */\n      iszero\n      tag_529\n      jumpi\n        /* \"#utility.yul\":9307:9308   */\n      0x00\n        /* \"#utility.yul\":9304:9305   */\n      0x00\n        /* \"#utility.yul\":9297:9309   */\n      revert\n        /* \"#utility.yul\":9259:9311   */\n    tag_529:\n        /* \"#utility.yul\":9339:9348   */\n      dup2\n        /* \"#utility.yul\":9333:9349   */\n      mload\n        /* \"#utility.yul\":9392:9397   */\n      dup1\n        /* \"#utility.yul\":9385:9398   */\n      iszero\n        /* \"#utility.yul\":9378:9399   */\n      iszero\n        /* \"#utility.yul\":9371:9376   */\n      dup2\n        /* \"#utility.yul\":9368:9400   */\n      eq\n        /* \"#utility.yul\":9358:9418   */\n      tag_317\n      jumpi\n        /* \"#utility.yul\":9414:9415   */\n      0x00\n        /* \"#utility.yul\":9411:9412   */\n      0x00\n        /* \"#utility.yul\":9404:9416   */\n      revert\n        /* \"#utility.yul\":9453:9637   */\n    tag_273:\n        /* \"#utility.yul\":9523:9529   */\n      0x00\n        /* \"#utility.yul\":9576:9578   */\n      0x20\n        /* \"#utility.yul\":9564:9573   */\n      dup3\n        /* \"#utility.yul\":9555:9562   */\n      dup5\n        /* \"#utility.yul\":9551:9574   */\n      sub\n        /* \"#utility.yul\":9547:9579   */\n      slt\n        /* \"#utility.yul\":9544:9596   */\n      iszero\n      tag_532\n      jumpi\n        /* \"#utility.yul\":9592:9593   */\n      0x00\n        /* \"#utility.yul\":9589:9590   */\n      0x00\n        /* \"#utility.yul\":9582:9594   */\n      revert\n        /* \"#utility.yul\":9544:9596   */\n    tag_532:\n      pop\n        /* \"#utility.yul\":9615:9631   */\n      mload\n      swap2\n        /* \"#utility.yul\":9453:9637   */\n      swap1\n      pop\n      jump\t// out\n        /* \"#utility.yul\":9642:9769   */\n    tag_460:\n        /* \"#utility.yul\":9703:9713   */\n      0x4e487b71\n        /* \"#utility.yul\":9698:9701   */\n      0xe0\n        /* \"#utility.yul\":9694:9714   */\n      shl\n        /* \"#utility.yul\":9691:9692   */\n      0x00\n        /* \"#utility.yul\":9684:9715   */\n      mstore\n        /* \"#utility.yul\":9734:9738   */\n      0x11\n        /* \"#utility.yul\":9731:9732   */\n      0x04\n        /* \"#utility.yul\":9724:9739   */\n      mstore\n        /* \"#utility.yul\":9758:9762   */\n      0x24\n        /* \"#utility.yul\":9755:9756   */\n      0x00\n        /* \"#utility.yul\":9748:9763   */\n      revert\n        /* \"#utility.yul\":9774:9902   */\n    tag_276:\n        /* \"#utility.yul\":9841:9850   */\n      dup2\n      dup2\n      sub\n        /* \"#utility.yul\":9862:9873   */\n      dup2\n      dup2\n      gt\n        /* \"#utility.yul\":9859:9896   */\n      iszero\n      tag_243\n      jumpi\n        /* \"#utility.yul\":9876:9894   */\n      tag_243\n      tag_460\n      jump\t// in\n        /* \"#utility.yul\":9907:10032   */\n    tag_307:\n        /* \"#utility.yul\":9972:9981   */\n      dup1\n      dup3\n      add\n        /* \"#utility.yul\":9993:10003   */\n      dup1\n      dup3\n      gt\n        /* \"#utility.yul\":9990:10026   */\n      iszero\n      tag_243\n      jumpi\n        /* \"#utility.yul\":10006:10024   */\n      tag_243\n      tag_460\n      jump\t// in\n        /* \"#utility.yul\":10037:10205   */\n    tag_310:\n        /* \"#utility.yul\":10110:10119   */\n      dup1\n      dup3\n      mul\n        /* \"#utility.yul\":10141:10150   */\n      dup2\n      iszero\n        /* \"#utility.yul\":10158:10173   */\n      dup3\n      dup3\n      div\n        /* \"#utility.yul\":10152:10174   */\n      dup5\n      eq\n        /* \"#utility.yul\":10138:10175   */\n      or\n        /* \"#utility.yul\":10128:10199   */\n      tag_243\n      jumpi\n        /* \"#utility.yul\":10179:10197   */\n      tag_243\n      tag_460\n      jump\t// in\n        /* \"#utility.yul\":10210:10427   */\n    tag_312:\n        /* \"#utility.yul\":10250:10251   */\n      0x00\n        /* \"#utility.yul\":10276:10277   */\n      dup3\n        /* \"#utility.yul\":10266:10398   */\n      tag_544\n      jumpi\n        /* \"#utility.yul\":10320:10330   */\n      0x4e487b71\n        /* \"#utility.yul\":10315:10318   */\n      0xe0\n        /* \"#utility.yul\":10311:10331   */\n      shl\n        /* \"#utility.yul\":10308:10309   */\n      0x00\n        /* \"#utility.yul\":10301:10332   */\n      mstore\n        /* \"#utility.yul\":10355:10359   */\n      0x12\n        /* \"#utility.yul\":10352:10353   */\n      0x04\n        /* \"#utility.yul\":10345:10360   */\n      mstore\n        /* \"#utility.yul\":10383:10387   */\n      0x24\n        /* \"#utility.yul\":10380:10381   */\n      0x00\n        /* \"#utility.yul\":10373:10388   */\n      revert\n        /* \"#utility.yul\":10266:10398   */\n    tag_544:\n      pop\n        /* \"#utility.yul\":10412:10421   */\n      div\n      swap1\n        /* \"#utility.yul\":10210:10427   */\n      jump\t// out\n        /* \"#utility.yul\":10432:10614   */\n    tag_338:\n        /* \"#utility.yul\":10489:10495   */\n      0x00\n        /* \"#utility.yul\":10542:10544   */\n      0x20\n        /* \"#utility.yul\":10530:10539   */\n      dup3\n        /* \"#utility.yul\":10521:10528   */\n      dup5\n        /* \"#utility.yul\":10517:10540   */\n      sub\n        /* \"#utility.yul\":10513:10545   */\n      slt\n        /* \"#utility.yul\":10510:10562   */\n      iszero\n      tag_546\n      jumpi\n        /* \"#utility.yul\":10558:10559   */\n      0x00\n        /* \"#utility.yul\":10555:10556   */\n      0x00\n        /* \"#utility.yul\":10548:10560   */\n      revert\n        /* \"#utility.yul\":10510:10562   */\n    tag_546:\n        /* \"#utility.yul\":10581:10608   */\n      tag_317\n        /* \"#utility.yul\":10598:10607   */\n      dup3\n        /* \"#utility.yul\":10581:10608   */\n      tag_459\n      jump\t// in\n        /* \"#utility.yul\":11290:11849   */\n    tag_366:\n      sub(shl(0xa0, 0x01), 0x01)\n        /* \"#utility.yul\":11503:11535   */\n      dup6\n      and\n        /* \"#utility.yul\":11485:11536   */\n      dup2\n      mstore\n        /* \"#utility.yul\":11567:11569   */\n      0x20\n        /* \"#utility.yul\":11552:11570   */\n      dup2\n      add\n        /* \"#utility.yul\":11545:11579   */\n      dup5\n      swap1\n      mstore\n        /* \"#utility.yul\":11615:11617   */\n      0x60\n        /* \"#utility.yul\":11610:11612   */\n      0x40\n        /* \"#utility.yul\":11595:11613   */\n      dup3\n      add\n        /* \"#utility.yul\":11588:11618   */\n      dup2\n      swap1\n      mstore\n        /* \"#utility.yul\":11634:11652   */\n      dup2\n      add\n        /* \"#utility.yul\":11627:11661   */\n      dup3\n      swap1\n      mstore\n        /* \"#utility.yul\":11654:11660   */\n      dup2\n        /* \"#utility.yul\":11704:11710   */\n      dup4\n        /* \"#utility.yul\":11698:11701   */\n      0x80\n        /* \"#utility.yul\":11683:11702   */\n      dup4\n      add\n        /* \"#utility.yul\":11670:11719   */\n      calldatacopy\n        /* \"#utility.yul\":11769:11770   */\n      0x00\n        /* \"#utility.yul\":11739:11761   */\n      dup2\n      dup4\n      add\n        /* \"#utility.yul\":11763:11766   */\n      0x80\n        /* \"#utility.yul\":11735:11767   */\n      swap1\n      dup2\n      add\n        /* \"#utility.yul\":11728:11771   */\n      swap2\n      swap1\n      swap2\n      mstore\n        /* \"#utility.yul\":11832:11834   */\n      0x1f\n        /* \"#utility.yul\":11811:11826   */\n      swap1\n      swap3\n      add\n      not(0x1f)\n        /* \"#utility.yul\":11807:11836   */\n      and\n        /* \"#utility.yul\":11792:11837   */\n      add\n        /* \"#utility.yul\":11788:11843   */\n      add\n      swap4\n        /* \"#utility.yul\":11290:11849   */\n      swap3\n      pop\n      pop\n      pop\n      jump\t// out\n        /* \"#utility.yul\":11854:12144   */\n    tag_370:\n        /* \"#utility.yul\":11923:11929   */\n      0x00\n        /* \"#utility.yul\":11976:11978   */\n      0x20\n        /* \"#utility.yul\":11964:11973   */\n      dup3\n        /* \"#utility.yul\":11955:11962   */\n      dup5\n        /* \"#utility.yul\":11951:11974   */\n      sub\n        /* \"#utility.yul\":11947:11979   */\n      slt\n        /* \"#utility.yul\":11944:11996   */\n      iszero\n      tag_551\n      jumpi\n        /* \"#utility.yul\":11992:11993   */\n      0x00\n        /* \"#utility.yul\":11989:11990   */\n      0x00\n        /* \"#utility.yul\":11982:11994   */\n      revert\n        /* \"#utility.yul\":11944:11996   */\n    tag_551:\n        /* \"#utility.yul\":12018:12034   */\n      dup2\n      mload\n      not(sub(shl(0xe0, 0x01), 0x01))\n        /* \"#utility.yul\":12063:12095   */\n      dup2\n      and\n        /* \"#utility.yul\":12053:12096   */\n      dup2\n      eq\n        /* \"#utility.yul\":12043:12114   */\n      tag_317\n      jumpi\n        /* \"#utility.yul\":12110:12111   */\n      0x00\n        /* \"#utility.yul\":12107:12108   */\n      0x00\n        /* \"#utility.yul\":12100:12112   */\n      revert\n    stop\n    data_ada389e1fc24a8587c776340efb91b36e675792ab631816100d55df0b5cf3cbc ddf252ad1be2c89b69c2b068fc378daa952ba7f163c4a11628f55a4df523b3ef\n\n    auxdata: 0xa26469706673582212200a861d42d4b03647f6b7eaef1488d7887023bb673217d144ff8d56e6c2c2dc4d64736f6c634300081c0033\n}\n",
				"bytecode": {
					"linkReferences": {},
					"object": "610140604052425f5542600155348015610017575f5ffd5b50604051611f71380380611f7183398101604081905261003691610221565b82604051806080016040528062015180670de0b6b3a764000061005991906102a3565b6001600160801b03168152670de0b6b3a7640000602082015260400161008a6201518067016345785d8a00006102a3565b6001600160801b03908116825267016345785d8a0000602092830152306080528251811660a05290820151811660c0526040820151811660e05260609091015116610100526001600160a01b0381166100fc57604051631e4fbdf760e01b81525f600482015260240160405180910390fd5b61010581610133565b5060036101128382610361565b508151602083012061012052600461012a8282610361565b5050505061041b565b600280546001600160a01b038381166001600160a01b0319831681179093556040519116919082907f8be0079c531659141344cd1fd0a4f28419497f9722a3daafe3b4186f6b6457e0905f90a35050565b634e487b7160e01b5f52604160045260245ffd5b5f82601f8301126101a7575f5ffd5b81516001600160401b038111156101c0576101c0610184565b604051601f8201601f19908116603f011681016001600160401b03811182821017156101ee576101ee610184565b604052818152838201602001851015610205575f5ffd5b8160208501602083015e5f918101602001919091529392505050565b5f5f5f60608486031215610233575f5ffd5b83516001600160a01b0381168114610249575f5ffd5b60208501519093506001600160401b03811115610264575f5ffd5b61027086828701610198565b604086015190935090506001600160401b0381111561028d575f5ffd5b61029986828701610198565b9150509250925092565b5f6001600160801b038316806102c757634e487b7160e01b5f52601260045260245ffd5b6001600160801b03929092169190910492915050565b600181811c908216806102f157607f821691505b60208210810361030f57634e487b7160e01b5f52602260045260245ffd5b50919050565b601f82111561035c57805f5260205f20601f840160051c8101602085101561033a5750805b601f840160051c820191505b81811015610359575f8155600101610346565b50505b505050565b81516001600160401b0381111561037a5761037a610184565b61038e8161038884546102dd565b84610315565b6020601f8211600181146103c0575f83156103a95750848201515b5f19600385901b1c1916600184901b178455610359565b5f84815260208120601f198516915b828110156103ef57878501518255602094850194600190920191016103cf565b508482101561040c57868401515f19600387901b60f8161c191681555b50505050600190811b01905550565b60805160a05160c05160e0516101005161012051611aa66104cb5f395f81816106d501528181610b050152610f1e01525f81816102320152610c4601525f81816104bf01528181610e52015261146601525f81816105230152610bb301525f818161073b015281816112a901526113ba01525f81816103b1015281816108f10152818161094e01528181610c9401528181610ceb015281816110e7015281816111db01526113160152611aa65ff3fe60806040526004361061021d575f3560e01c80637ecebe001161011e578063be45fd62116100a8578063f172a4ce1161006d578063f172a4ce146106c4578063f2fde38b146106f7578063f4d0bd7214610716578063f86329e11461072a578063fc0285231461075d575f5ffd5b8063be45fd621461061f578063d505accf1461063e578063dd62ed3e1461065d578063e46dbd0714610691578063e5aca599146106a5575f5ffd5b806394ef2103116100ee57806394ef21031461059a57806395d89b41146105b9578063a9059cbb146105cd578063b3841f26146105ec578063b3ca7f2a1461060b575f5ffd5b80637ecebe00146104e157806382e3d8bd146105125780638943ec02146105455780638da5cb5b1461057d575f5ffd5b8063313ce567116101aa5780636263913c1161016f5780636263913c1461042957806370a0823114610448578063715018a6146104795780637b383f181461048f5780637cc27b40146104ae575f5ffd5b8063313ce567146103715780633644e5151461038c57806338d52e0f146103a05780634206abe9146103eb5780636032f6001461040a575f5ffd5b806312958a6b116101f057806312958a6b146102ee57806317b311671461030f57806318160ddd1461032e578063223ecf7e1461034a57806323b872dd14610352575f5ffd5b8063058d15731461022157806306fdde0314610271578063095ea7b31461029257806310ab2d01146102c1575b5f5ffd5b34801561022c575f5ffd5b506102547f000000000000000000000000000000000000000000000000000000000000000081565b6040516001600160801b0390911681526020015b60405180910390f35b34801561027c575f5ffd5b5061028561077c565b60405161026891906115f3565b34801561029d575f5ffd5b506102b16102ac366004611619565b61080c565b6040519015158152602001610268565b3480156102cc575f5ffd5b506102e06102db366004611643565b61085c565b6040516102689291906116c8565b6103016102fc3660046116e2565b6108cf565b604051908152602001610268565b34801561031a575f5ffd5b506103016103293660046116fd565b6108ea565b348015610339575f5ffd5b506805345cdf77eb68f44c54610301565b610301610a4e565b34801561035d575f5ffd5b506102b161036c36600461173c565b610a5d565b34801561037c575f5ffd5b5060405160128152602001610268565b348015610397575f5ffd5b50610301610b02565b3480156103ab575f5ffd5b506103d37f000000000000000000000000000000000000000000000000000000000000000081565b6040516001600160a01b039091168152602001610268565b3480156103f6575f5ffd5b5061030161040536600461177a565b610ba4565b348015610415575f5ffd5b5061030161042436600461177a565b610c06565b348015610434575f5ffd5b506103016104433660046117a7565b610c11565b348015610453575f5ffd5b506103016104623660046116e2565b6387a211a2600c9081525f91909152602090205490565b348015610484575f5ffd5b5061048d610c24565b005b34801561049a575f5ffd5b506103016104a936600461177a565b610c37565b3480156104b9575f5ffd5b506102547f000000000000000000000000000000000000000000000000000000000000000081565b3480156104ec575f5ffd5b506103016104fb3660046116e2565b6338377508600c9081525f91909152602090205490565b34801561051d575f5ffd5b506102547f000000000000000000000000000000000000000000000000000000000000000081565b348015610550575f5ffd5b5061056461055f366004611643565b610c88565b6040516001600160e01b03199091168152602001610268565b348015610588575f5ffd5b506002546001600160a01b03166103d3565b3480156105a5575f5ffd5b506103016105b43660046117d2565b610ce0565b3480156105c4575f5ffd5b50610285610dbc565b3480156105d8575f5ffd5b506102b16105e7366004611619565b610dcb565b3480156105f7575f5ffd5b5061030161060636600461180e565b610e2f565b348015610616575f5ffd5b50610301610e4f565b34801561062a575f5ffd5b506102b1610639366004611643565b610e92565b348015610649575f5ffd5b5061048d61065836600461184c565b610f1c565b348015610668575f5ffd5b506103016106773660046118b6565b602052637f5e9f20600c9081525f91909152603490205490565b34801561069c575f5ffd5b506103015f5481565b3480156106b0575f5ffd5b506103016106bf3660046116fd565b6110c6565b3480156106cf575f5ffd5b506103017f000000000000000000000000000000000000000000000000000000000000000081565b348015610702575f5ffd5b5061048d6107113660046116e2565b611264565b348015610721575f5ffd5b506103016112a6565b348015610735575f5ffd5b506102547f000000000000000000000000000000000000000000000000000000000000000081565b348015610768575f5ffd5b506103016107773660046116fd565b6112de565b60606003805461078b906118e2565b80601f01602080910402602001604051908101604052809291908181526020018280546107b7906118e2565b80156108025780601f106107d957610100808354040283529160200191610802565b820191905f5260205f20905b8154815290600101906020018083116107e557829003601f168201915b5050505050905090565b5f82602052637f5e9f20600c52335f52816034600c2055815f52602c5160601c337f8c5be1e5ebec7d5bd14f71427d1e84f3dd0314c0f7b2291e5b200ac8c7c3b92560205fa35060015b92915050565b5f6060610867611380565b856001600160a01b0316858585604051610882929190611914565b5f6040518083038185875af1925050503d805f81146108bc576040519150601f19603f3d011682016040523d82523d5f602084013e6108c1565b606091505b509150915094509492505050565b5f6108d934610c37565b90506108e582826113ad565b919050565b5f5f4790507f00000000000000000000000000000000000000000000000000000000000000006001600160a01b0316856001600160a01b0316146109ba5760405163095ea7b360e01b81526001600160a01b038681166004830152602482018690527f0000000000000000000000000000000000000000000000000000000000000000169063095ea7b3906044016020604051808303815f875af1158015610994573d5f5f3e3d5ffd5b505050506040513d601f19601f820116820180604052508101906109b89190611923565b505b6040516230197b60e91b8152600481018590526001600160a01b03861690636032f600906024016020604051808303815f875af11580156109fd573d5f5f3e3d5ffd5b505050506040513d601f19601f82011682018060405250810190610a219190611942565b5083610a306104a9834761196d565b610a3a919061196d565b9150610a4683836113ad565b509392505050565b5f610a58336108cf565b905090565b5f8360601b33602052637f5e9f208117600c526034600c208054801915610a995780851115610a93576313be252b5f526004601cfd5b84810382555b50506387a211a28117600c526020600c20805480851115610ac15763f4d678b85f526004601cfd5b84810382555050835f526020600c208381540181555082602052600c5160601c8160601c5f516020611a515f395f51905f52602080a3505060019392505050565b5f7f000000000000000000000000000000000000000000000000000000000000000080610b3b57610b3161077c565b8051906020012090505b604080517f8b73c3c69bb8fe3d512ecc4cf759cc79239f7b179b0ffacaa9a75d522b39400f815260208101929092527fc89efdaa54c0f20c7adf612882df0950f5a951637e0307cdcb4c672f298b8bc69082015246606082015230608082015260a09020919050565b5f610bd8826001600160801b037f000000000000000000000000000000000000000000000000000000000000000016611980565b82610be1610e4f565b610beb9190611993565b610bf591906119aa565b9050804710156108e5575047919050565b5f6108568233610e2f565b5f610c1d833384610ce0565b9392505050565b610c2c611380565b610c355f611408565b565b5f610c6b826001600160801b037f000000000000000000000000000000000000000000000000000000000000000016611980565b82610c746112a6565b610c7e9190611993565b61085691906119aa565b5f336001600160a01b037f00000000000000000000000000000000000000000000000000000000000000001614610cbd575f5ffd5b610ccf85610cca86610ba4565b611459565b506344a1f60160e11b949350505050565b5f6001600160a01b037f00000000000000000000000000000000000000000000000000000000000000001663d505accf3330878635610d256040890160208a016119c9565b604080516001600160e01b031960e089901b1681526001600160a01b0396871660048201529590941660248601526044850192909252606484015260ff16608483015285013560a4820152606085013560c482015260e4015f604051808303815f87803b158015610d94575f5ffd5b505af1158015610da6573d5f5f3e3d5ffd5b50505050610db48484610e2f565b949350505050565b60606004805461078b906118e2565b5f6387a211a2600c52335f526020600c20805480841115610df35763f4d678b85f526004601cfd5b83810382555050825f526020600c208281540181555081602052600c5160601c335f516020611a515f395f51905f52602080a350600192915050565b5f610e3983610ba4565b9050610e4533846114fb565b6108568282611459565b5f7f00000000000000000000000000000000000000000000000000000000000000006001600160801b031660015442610e88919061196d565b610a589190611993565b5f610e9d8585610dcb565b506040516344a1f60160e11b81526001600160a01b03861690638943ec0290610ed09033908890889088906004016119e2565b6020604051808303815f875af1158015610eec573d5f5f3e3d5ffd5b505050506040513d601f19601f82011682018060405250810190610f109190611a29565b50600195945050505050565b7f000000000000000000000000000000000000000000000000000000000000000080610f5457610f4a61077c565b8051906020012090505b7fc89efdaa54c0f20c7adf612882df0950f5a951637e0307cdcb4c672f298b8bc642861015610f8a57631a15a3cc5f526004601cfd5b6040518960601b60601c99508860601b60601c985065383775081901600e52895f526020600c2080547f8b73c3c69bb8fe3d512ecc4cf759cc79239f7b179b0ffacaa9a75d522b39400f835284602084015283604084015246606084015230608084015260a08320602e527f6e71edae12b1b97f4d1f60370fef10105fa2faae0126114a169c64845d6126c983528b60208401528a60408401528960608401528060808401528860a084015260c08320604e526042602c205f528760ff16602052866040528560605260208060805f60015afa8c3d51146110725763ddafbaef5f526004601cfd5b0190556303faf4f960a51b89176040526034602c20889055888a7f8c5be1e5ebec7d5bd14f71427d1e84f3dd0314c0f7b2291e5b200ac8c7c3b925602060608501a360405250505f60605250505050505050565b6040516370a0823160e01b81523060048201525f9081906001600160a01b037f000000000000000000000000000000000000000000000000000000000000000016906370a0823190602401602060405180830381865afa15801561112c573d5f5f3e3d5ffd5b505050506040513d601f19601f820116820180604052508101906111509190611942565b9050846001600160a01b031663223ecf7e856040518263ffffffff1660e01b815260040160206040518083038185885af1158015611190573d5f5f3e3d5ffd5b50505050506040513d601f19601f820116820180604052508101906111b59190611942565b506040516370a0823160e01b8152306004820152849061124e9083906001600160a01b037f000000000000000000000000000000000000000000000000000000000000000016906370a0823190602401602060405180830381865afa158015611220573d5f5f3e3d5ffd5b505050506040513d601f19601f820116820180604052508101906112449190611942565b610405919061196d565b611258919061196d565b9150610a468383611459565b61126c611380565b6001600160a01b03811661129a57604051631e4fbdf760e01b81525f60048201526024015b60405180910390fd5b6112a381611408565b50565b5f7f00000000000000000000000000000000000000000000000000000000000000006001600160801b03165f5442610e88919061196d565b604051635f22feb160e11b81526001600160a01b03848116600483015260248201849052606060448301525f606483018190529147917f0000000000000000000000000000000000000000000000000000000000000000169063be45fd62906084016020604051808303815f875af115801561135c573d5f5f3e3d5ffd5b505050506040513d601f19601f82011682018060405250810190610a219190611923565b6002546001600160a01b03163314610c355760405163118cdaa760e01b8152336004820152602401611291565b6113e06001600160801b037f000000000000000000000000000000000000000000000000000000000000000016826119aa565b5f5f8282546113ef9190611980565b909155506113ff9050828261155c565b5050565b505050565b600280546001600160a01b038381166001600160a01b0319831681179093556040519116919082907f8be0079c531659141344cd1fd0a4f28419497f9722a3daafe3b4186f6b6457e0905f90a35050565b61148c6001600160801b037f000000000000000000000000000000000000000000000000000000000000000016826119aa565b60015f82825461149c9190611980565b90915550506040515f906001600160a01b0384169083908381818185875af1925050503d805f81146114e9576040519150601f19603f3d011682016040523d82523d5f602084013e6114ee565b606091505b5050905080611403575f5ffd5b6387a211a2600c52815f526020600c208054808311156115225763f4d678b85f526004601cfd5b82900390556805345cdf77eb68f44c805482900390555f8181526001600160a01b0383165f516020611a515f395f51905f52602083a35050565b6805345cdf77eb68f44c548181018181101561157f5763e5cfe9575f526004601cfd5b806805345cdf77eb68f44c5550506387a211a2600c52815f526020600c208181540181555080602052600c5160601c5f5f516020611a515f395f51905f52602080a35050565b5f81518084528060208401602086015e5f602082860101526020601f19601f83011685010191505092915050565b602081525f610c1d60208301846115c5565b6001600160a01b03811681146112a3575f5ffd5b5f5f6040838503121561162a575f5ffd5b823561163581611605565b946020939093013593505050565b5f5f5f5f60608587031215611656575f5ffd5b843561166181611605565b935060208501359250604085013567ffffffffffffffff811115611683575f5ffd5b8501601f81018713611693575f5ffd5b803567ffffffffffffffff8111156116a9575f5ffd5b8760208284010111156116ba575f5ffd5b949793965060200194505050565b8215158152604060208201525f610db460408301846115c5565b5f602082840312156116f2575f5ffd5b8135610c1d81611605565b5f5f5f6060848603121561170f575f5ffd5b833561171a81611605565b925060208401359150604084013561173181611605565b809150509250925092565b5f5f5f6060848603121561174e575f5ffd5b833561175981611605565b9250602084013561176981611605565b929592945050506040919091013590565b5f6020828403121561178a575f5ffd5b5035919050565b5f608082840312156117a1575f5ffd5b50919050565b5f5f60a083850312156117b8575f5ffd5b823591506117c98460208501611791565b90509250929050565b5f5f5f60c084860312156117e4575f5ffd5b8335925060208401356117f681611605565b91506118058560408601611791565b90509250925092565b5f5f6040838503121561181f575f5ffd5b82359150602083013561183181611605565b809150509250929050565b803560ff811681146108e5575f5ffd5b5f5f5f5f5f5f5f60e0888a031215611862575f5ffd5b873561186d81611605565b9650602088013561187d81611605565b955060408801359450606088013593506118996080890161183c565b9699959850939692959460a0840135945060c09093013592915050565b5f5f604083850312156118c7575f5ffd5b82356118d281611605565b9150602083013561183181611605565b600181811c908216806118f657607f821691505b6020821081036117a157634e487b7160e01b5f52602260045260245ffd5b818382375f9101908152919050565b5f60208284031215611933575f5ffd5b81518015158114610c1d575f5ffd5b5f60208284031215611952575f5ffd5b5051919050565b634e487b7160e01b5f52601160045260245ffd5b8181038181111561085657610856611959565b8082018082111561085657610856611959565b808202811582820484141761085657610856611959565b5f826119c457634e487b7160e01b5f52601260045260245ffd5b500490565b5f602082840312156119d9575f5ffd5b610c1d8261183c565b6001600160a01b0385168152602081018490526060604082018190528101829052818360808301375f818301608090810191909152601f909201601f191601019392505050565b5f60208284031215611a39575f5ffd5b81516001600160e01b031981168114610c1d575f5ffdfeddf252ad1be2c89b69c2b068fc378daa952ba7f163c4a11628f55a4df523b3efa26469706673582212200a861d42d4b03647f6b7eaef1488d7887023bb673217d144ff8d56e6c2c2dc4d64736f6c634300081c0033",
					"opcodes": "PUSH2 0x140 PUSH1 0x40 MSTORE TIMESTAMP PUSH0 SSTORE TIMESTAMP PUSH1 0x1 SSTORE CALLVALUE DUP1 ISZERO PUSH2 0x17 JUMPI PUSH0 PUSH0 REVERT JUMPDEST POP PUSH1 0x40 MLOAD PUSH2 0x1F71 CODESIZE SUB DUP1 PUSH2 0x1F71 DUP4 CODECOPY DUP2 ADD PUSH1 0x40 DUP2 SWAP1 MSTORE PUSH2 0x36 SWAP2 PUSH2 0x221 JUMP JUMPDEST DUP3 PUSH1 0x40 MLOAD DUP1 PUSH1 0x80 ADD PUSH1 0x40 MSTORE DUP1 PUSH3 0x15180 PUSH8 0xDE0B6B3A7640000 PUSH2 0x59 SWAP2 SWAP1 PUSH2 0x2A3 JUMP JUMPDEST PUSH1 0x1 PUSH1 0x1 PUSH1 0x80 SHL SUB AND DUP2 MSTORE PUSH8 0xDE0B6B3A7640000 PUSH1 0x20 DUP3 ADD MSTORE PUSH1 0x40 ADD PUSH2 0x8A PUSH3 0x15180 PUSH8 0x16345785D8A0000 PUSH2 0x2A3 JUMP JUMPDEST PUSH1 0x1 PUSH1 0x1 PUSH1 0x80 SHL SUB SWAP1 DUP2 AND DUP3 MSTORE PUSH8 0x16345785D8A0000 PUSH1 0x20 SWAP3 DUP4 ADD MSTORE ADDRESS PUSH1 0x80 MSTORE DUP3 MLOAD DUP2 AND PUSH1 0xA0 MSTORE SWAP1 DUP3 ADD MLOAD DUP2 AND PUSH1 0xC0 MSTORE PUSH1 0x40 DUP3 ADD MLOAD DUP2 AND PUSH1 0xE0 MSTORE PUSH1 0x60 SWAP1 SWAP2 ADD MLOAD AND PUSH2 0x100 MSTORE PUSH1 0x1 PUSH1 0x1 PUSH1 0xA0 SHL SUB DUP2 AND PUSH2 0xFC JUMPI PUSH1 0x40 MLOAD PUSH4 0x1E4FBDF7 PUSH1 0xE0 SHL DUP2 MSTORE PUSH0 PUSH1 0x4 DUP3 ADD MSTORE PUSH1 0x24 ADD PUSH1 0x40 MLOAD DUP1 SWAP2 SUB SWAP1 REVERT JUMPDEST PUSH2 0x105 DUP2 PUSH2 0x133 JUMP JUMPDEST POP PUSH1 0x3 PUSH2 0x112 DUP4 DUP3 PUSH2 0x361 JUMP JUMPDEST POP DUP2 MLOAD PUSH1 0x20 DUP4 ADD KECCAK256 PUSH2 0x120 MSTORE PUSH1 0x4 PUSH2 0x12A DUP3 DUP3 PUSH2 0x361 JUMP JUMPDEST POP POP POP POP PUSH2 0x41B JUMP JUMPDEST PUSH1 0x2 DUP1 SLOAD PUSH1 0x1 PUSH1 0x1 PUSH1 0xA0 SHL SUB DUP4 DUP2 AND PUSH1 0x1 PUSH1 0x1 PUSH1 0xA0 SHL SUB NOT DUP4 AND DUP2 OR SWAP1 SWAP4 SSTORE PUSH1 0x40 MLOAD SWAP2 AND SWAP2 SWAP1 DUP3 SWAP1 PUSH32 0x8BE0079C531659141344CD1FD0A4F28419497F9722A3DAAFE3B4186F6B6457E0 SWAP1 PUSH0 SWAP1 LOG3 POP POP JUMP JUMPDEST PUSH4 0x4E487B71 PUSH1 0xE0 SHL PUSH0 MSTORE PUSH1 0x41 PUSH1 0x4 MSTORE PUSH1 0x24 PUSH0 REVERT JUMPDEST PUSH0 DUP3 PUSH1 0x1F DUP4 ADD SLT PUSH2 0x1A7 JUMPI PUSH0 PUSH0 REVERT JUMPDEST DUP2 MLOAD PUSH1 0x1 PUSH1 0x1 PUSH1 0x40 SHL SUB DUP2 GT ISZERO PUSH2 0x1C0 JUMPI PUSH2 0x1C0 PUSH2 0x184 JUMP JUMPDEST PUSH1 0x40 MLOAD PUSH1 0x1F DUP3 ADD PUSH1 0x1F NOT SWAP1 DUP2 AND PUSH1 0x3F ADD AND DUP2 ADD PUSH1 0x1 PUSH1 0x1 PUSH1 0x40 SHL SUB DUP2 GT DUP3 DUP3 LT OR ISZERO PUSH2 0x1EE JUMPI PUSH2 0x1EE PUSH2 0x184 JUMP JUMPDEST PUSH1 0x40 MSTORE DUP2 DUP2 MSTORE DUP4 DUP3 ADD PUSH1 0x20 ADD DUP6 LT ISZERO PUSH2 0x205 JUMPI PUSH0 PUSH0 REVERT JUMPDEST DUP2 PUSH1 0x20 DUP6 ADD PUSH1 0x20 DUP4 ADD MCOPY PUSH0 SWAP2 DUP2 ADD PUSH1 0x20 ADD SWAP2 SWAP1 SWAP2 MSTORE SWAP4 SWAP3 POP POP POP JUMP JUMPDEST PUSH0 PUSH0 PUSH0 PUSH1 0x60 DUP5 DUP7 SUB SLT ISZERO PUSH2 0x233 JUMPI PUSH0 PUSH0 REVERT JUMPDEST DUP4 MLOAD PUSH1 0x1 PUSH1 0x1 PUSH1 0xA0 SHL SUB DUP2 AND DUP2 EQ PUSH2 0x249 JUMPI PUSH0 PUSH0 REVERT JUMPDEST PUSH1 0x20 DUP6 ADD MLOAD SWAP1 SWAP4 POP PUSH1 0x1 PUSH1 0x1 PUSH1 0x40 SHL SUB DUP2 GT ISZERO PUSH2 0x264 JUMPI PUSH0 PUSH0 REVERT JUMPDEST PUSH2 0x270 DUP7 DUP3 DUP8 ADD PUSH2 0x198 JUMP JUMPDEST PUSH1 0x40 DUP7 ADD MLOAD SWAP1 SWAP4 POP SWAP1 POP PUSH1 0x1 PUSH1 0x1 PUSH1 0x40 SHL SUB DUP2 GT ISZERO PUSH2 0x28D JUMPI PUSH0 PUSH0 REVERT JUMPDEST PUSH2 0x299 DUP7 DUP3 DUP8 ADD PUSH2 0x198 JUMP JUMPDEST SWAP2 POP POP SWAP3 POP SWAP3 POP SWAP3 JUMP JUMPDEST PUSH0 PUSH1 0x1 PUSH1 0x1 PUSH1 0x80 SHL SUB DUP4 AND DUP1 PUSH2 0x2C7 JUMPI PUSH4 0x4E487B71 PUSH1 0xE0 SHL PUSH0 MSTORE PUSH1 0x12 PUSH1 0x4 MSTORE PUSH1 0x24 PUSH0 REVERT JUMPDEST PUSH1 0x1 PUSH1 0x1 PUSH1 0x80 SHL SUB SWAP3 SWAP1 SWAP3 AND SWAP2 SWAP1 SWAP2 DIV SWAP3 SWAP2 POP POP JUMP JUMPDEST PUSH1 0x1 DUP2 DUP2 SHR SWAP1 DUP3 AND DUP1 PUSH2 0x2F1 JUMPI PUSH1 0x7F DUP3 AND SWAP2 POP JUMPDEST PUSH1 0x20 DUP3 LT DUP2 SUB PUSH2 0x30F JUMPI PUSH4 0x4E487B71 PUSH1 0xE0 SHL PUSH0 MSTORE PUSH1 0x22 PUSH1 0x4 MSTORE PUSH1 0x24 PUSH0 REVERT JUMPDEST POP SWAP2 SWAP1 POP JUMP JUMPDEST PUSH1 0x1F DUP3 GT ISZERO PUSH2 0x35C JUMPI DUP1 PUSH0 MSTORE PUSH1 0x20 PUSH0 KECCAK256 PUSH1 0x1F DUP5 ADD PUSH1 0x5 SHR DUP2 ADD PUSH1 0x20 DUP6 LT ISZERO PUSH2 0x33A JUMPI POP DUP1 JUMPDEST PUSH1 0x1F DUP5 ADD PUSH1 0x5 SHR DUP3 ADD SWAP2 POP JUMPDEST DUP2 DUP2 LT ISZERO PUSH2 0x359 JUMPI PUSH0 DUP2 SSTORE PUSH1 0x1 ADD PUSH2 0x346 JUMP JUMPDEST POP POP JUMPDEST POP POP POP JUMP JUMPDEST DUP2 MLOAD PUSH1 0x1 PUSH1 0x1 PUSH1 0x40 SHL SUB DUP2 GT ISZERO PUSH2 0x37A JUMPI PUSH2 0x37A PUSH2 0x184 JUMP JUMPDEST PUSH2 0x38E DUP2 PUSH2 0x388 DUP5 SLOAD PUSH2 0x2DD JUMP JUMPDEST DUP5 PUSH2 0x315 JUMP JUMPDEST PUSH1 0x20 PUSH1 0x1F DUP3 GT PUSH1 0x1 DUP2 EQ PUSH2 0x3C0 JUMPI PUSH0 DUP4 ISZERO PUSH2 0x3A9 JUMPI POP DUP5 DUP3 ADD MLOAD JUMPDEST PUSH0 NOT PUSH1 0x3 DUP6 SWAP1 SHL SHR NOT AND PUSH1 0x1 DUP5 SWAP1 SHL OR DUP5 SSTORE PUSH2 0x359 JUMP JUMPDEST PUSH0 DUP5 DUP2 MSTORE PUSH1 0x20 DUP2 KECCAK256 PUSH1 0x1F NOT DUP6 AND SWAP2 JUMPDEST DUP3 DUP2 LT ISZERO PUSH2 0x3EF JUMPI DUP8 DUP6 ADD MLOAD DUP3 SSTORE PUSH1 0x20 SWAP5 DUP6 ADD SWAP5 PUSH1 0x1 SWAP1 SWAP3 ADD SWAP2 ADD PUSH2 0x3CF JUMP JUMPDEST POP DUP5 DUP3 LT ISZERO PUSH2 0x40C JUMPI DUP7 DUP5 ADD MLOAD PUSH0 NOT PUSH1 0x3 DUP8 SWAP1 SHL PUSH1 0xF8 AND SHR NOT AND DUP2 SSTORE JUMPDEST POP POP POP POP PUSH1 0x1 SWAP1 DUP2 SHL ADD SWAP1 SSTORE POP JUMP JUMPDEST PUSH1 0x80 MLOAD PUSH1 0xA0 MLOAD PUSH1 0xC0 MLOAD PUSH1 0xE0 MLOAD PUSH2 0x100 MLOAD PUSH2 0x120 MLOAD PUSH2 0x1AA6 PUSH2 0x4CB PUSH0 CODECOPY PUSH0 DUP2 DUP2 PUSH2 0x6D5 ADD MSTORE DUP2 DUP2 PUSH2 0xB05 ADD MSTORE PUSH2 0xF1E ADD MSTORE PUSH0 DUP2 DUP2 PUSH2 0x232 ADD MSTORE PUSH2 0xC46 ADD MSTORE PUSH0 DUP2 DUP2 PUSH2 0x4BF ADD MSTORE DUP2 DUP2 PUSH2 0xE52 ADD MSTORE PUSH2 0x1466 ADD MSTORE PUSH0 DUP2 DUP2 PUSH2 0x523 ADD MSTORE PUSH2 0xBB3 ADD MSTORE PUSH0 DUP2 DUP2 PUSH2 0x73B ADD MSTORE DUP2 DUP2 PUSH2 0x12A9 ADD MSTORE PUSH2 0x13BA ADD MSTORE PUSH0 DUP2 DUP2 PUSH2 0x3B1 ADD MSTORE DUP2 DUP2 PUSH2 0x8F1 ADD MSTORE DUP2 DUP2 PUSH2 0x94E ADD MSTORE DUP2 DUP2 PUSH2 0xC94 ADD MSTORE DUP2 DUP2 PUSH2 0xCEB ADD MSTORE DUP2 DUP2 PUSH2 0x10E7 ADD MSTORE DUP2 DUP2 PUSH2 0x11DB ADD MSTORE PUSH2 0x1316 ADD MSTORE PUSH2 0x1AA6 PUSH0 RETURN INVALID PUSH1 0x80 PUSH1 0x40 MSTORE PUSH1 0x4 CALLDATASIZE LT PUSH2 0x21D JUMPI PUSH0 CALLDATALOAD PUSH1 0xE0 SHR DUP1 PUSH4 0x7ECEBE00 GT PUSH2 0x11E JUMPI DUP1 PUSH4 0xBE45FD62 GT PUSH2 0xA8 JUMPI DUP1 PUSH4 0xF172A4CE GT PUSH2 0x6D JUMPI DUP1 PUSH4 0xF172A4CE EQ PUSH2 0x6C4 JUMPI DUP1 PUSH4 0xF2FDE38B EQ PUSH2 0x6F7 JUMPI DUP1 PUSH4 0xF4D0BD72 EQ PUSH2 0x716 JUMPI DUP1 PUSH4 0xF86329E1 EQ PUSH2 0x72A JUMPI DUP1 PUSH4 0xFC028523 EQ PUSH2 0x75D JUMPI PUSH0 PUSH0 REVERT JUMPDEST DUP1 PUSH4 0xBE45FD62 EQ PUSH2 0x61F JUMPI DUP1 PUSH4 0xD505ACCF EQ PUSH2 0x63E JUMPI DUP1 PUSH4 0xDD62ED3E EQ PUSH2 0x65D JUMPI DUP1 PUSH4 0xE46DBD07 EQ PUSH2 0x691 JUMPI DUP1 PUSH4 0xE5ACA599 EQ PUSH2 0x6A5 JUMPI PUSH0 PUSH0 REVERT JUMPDEST DUP1 PUSH4 0x94EF2103 GT PUSH2 0xEE JUMPI DUP1 PUSH4 0x94EF2103 EQ PUSH2 0x59A JUMPI DUP1 PUSH4 0x95D89B41 EQ PUSH2 0x5B9 JUMPI DUP1 PUSH4 0xA9059CBB EQ PUSH2 0x5CD JUMPI DUP1 PUSH4 0xB3841F26 EQ PUSH2 0x5EC JUMPI DUP1 PUSH4 0xB3CA7F2A EQ PUSH2 0x60B JUMPI PUSH0 PUSH0 REVERT JUMPDEST DUP1 PUSH4 0x7ECEBE00 EQ PUSH2 0x4E1 JUMPI DUP1 PUSH4 0x82E3D8BD EQ PUSH2 0x512 JUMPI DUP1 PUSH4 0x8943EC02 EQ PUSH2 0x545 JUMPI DUP1 PUSH4 0x8DA5CB5B EQ PUSH2 0x57D JUMPI PUSH0 PUSH0 REVERT JUMPDEST DUP1 PUSH4 0x313CE567 GT PUSH2 0x1AA JUMPI DUP1 PUSH4 0x6263913C GT PUSH2 0x16F JUMPI DUP1 PUSH4 0x6263913C EQ PUSH2 0x429 JUMPI DUP1 PUSH4 0x70A08231 EQ PUSH2 0x448 JUMPI DUP1 PUSH4 0x715018A6 EQ PUSH2 0x479 JUMPI DUP1 PUSH4 0x7B383F18 EQ PUSH2 0x48F JUMPI DUP1 PUSH4 0x7CC27B40 EQ PUSH2 0x4AE JUMPI PUSH0 PUSH0 REVERT JUMPDEST DUP1 PUSH4 0x313CE567 EQ PUSH2 0x371 JUMPI DUP1 PUSH4 0x3644E515 EQ PUSH2 0x38C JUMPI DUP1 PUSH4 0x38D52E0F EQ PUSH2 0x3A0 JUMPI DUP1 PUSH4 0x4206ABE9 EQ PUSH2 0x3EB JUMPI DUP1 PUSH4 0x6032F600 EQ PUSH2 0x40A JUMPI PUSH0 PUSH0 REVERT JUMPDEST DUP1 PUSH4 0x12958A6B GT PUSH2 0x1F0 JUMPI DUP1 PUSH4 0x12958A6B EQ PUSH2 0x2EE JUMPI DUP1 PUSH4 0x17B31167 EQ PUSH2 0x30F JUMPI DUP1 PUSH4 0x18160DDD EQ PUSH2 0x32E JUMPI DUP1 PUSH4 0x223ECF7E EQ PUSH2 0x34A JUMPI DUP1 PUSH4 0x23B872DD EQ PUSH2 0x352 JUMPI PUSH0 PUSH0 REVERT JUMPDEST DUP1 PUSH4 0x58D1573 EQ PUSH2 0x221 JUMPI DUP1 PUSH4 0x6FDDE03 EQ PUSH2 0x271 JUMPI DUP1 PUSH4 0x95EA7B3 EQ PUSH2 0x292 JUMPI DUP1 PUSH4 0x10AB2D01 EQ PUSH2 0x2C1 JUMPI JUMPDEST PUSH0 PUSH0 REVERT JUMPDEST CALLVALUE DUP1 ISZERO PUSH2 0x22C JUMPI PUSH0 PUSH0 REVERT JUMPDEST POP PUSH2 0x254 PUSH32 0x0 DUP2 JUMP JUMPDEST PUSH1 0x40 MLOAD PUSH1 0x1 PUSH1 0x1 PUSH1 0x80 SHL SUB SWAP1 SWAP2 AND DUP2 MSTORE PUSH1 0x20 ADD JUMPDEST PUSH1 0x40 MLOAD DUP1 SWAP2 SUB SWAP1 RETURN JUMPDEST CALLVALUE DUP1 ISZERO PUSH2 0x27C JUMPI PUSH0 PUSH0 REVERT JUMPDEST POP PUSH2 0x285 PUSH2 0x77C JUMP JUMPDEST PUSH1 0x40 MLOAD PUSH2 0x268 SWAP2 SWAP1 PUSH2 0x15F3 JUMP JUMPDEST CALLVALUE DUP1 ISZERO PUSH2 0x29D JUMPI PUSH0 PUSH0 REVERT JUMPDEST POP PUSH2 0x2B1 PUSH2 0x2AC CALLDATASIZE PUSH1 0x4 PUSH2 0x1619 JUMP JUMPDEST PUSH2 0x80C JUMP JUMPDEST PUSH1 0x40 MLOAD SWAP1 ISZERO ISZERO DUP2 MSTORE PUSH1 0x20 ADD PUSH2 0x268 JUMP JUMPDEST CALLVALUE DUP1 ISZERO PUSH2 0x2CC JUMPI PUSH0 PUSH0 REVERT JUMPDEST POP PUSH2 0x2E0 PUSH2 0x2DB CALLDATASIZE PUSH1 0x4 PUSH2 0x1643 JUMP JUMPDEST PUSH2 0x85C JUMP JUMPDEST PUSH1 0x40 MLOAD PUSH2 0x268 SWAP3 SWAP2 SWAP1 PUSH2 0x16C8 JUMP JUMPDEST PUSH2 0x301 PUSH2 0x2FC CALLDATASIZE PUSH1 0x4 PUSH2 0x16E2 JUMP JUMPDEST PUSH2 0x8CF JUMP JUMPDEST PUSH1 0x40 MLOAD SWAP1 DUP2 MSTORE PUSH1 0x20 ADD PUSH2 0x268 JUMP JUMPDEST CALLVALUE DUP1 ISZERO PUSH2 0x31A JUMPI PUSH0 PUSH0 REVERT JUMPDEST POP PUSH2 0x301 PUSH2 0x329 CALLDATASIZE PUSH1 0x4 PUSH2 0x16FD JUMP JUMPDEST PUSH2 0x8EA JUMP JUMPDEST CALLVALUE DUP1 ISZERO PUSH2 0x339 JUMPI PUSH0 PUSH0 REVERT JUMPDEST POP PUSH9 0x5345CDF77EB68F44C SLOAD PUSH2 0x301 JUMP JUMPDEST PUSH2 0x301 PUSH2 0xA4E JUMP JUMPDEST CALLVALUE DUP1 ISZERO PUSH2 0x35D JUMPI PUSH0 PUSH0 REVERT JUMPDEST POP PUSH2 0x2B1 PUSH2 0x36C CALLDATASIZE PUSH1 0x4 PUSH2 0x173C JUMP JUMPDEST PUSH2 0xA5D JUMP JUMPDEST CALLVALUE DUP1 ISZERO PUSH2 0x37C JUMPI PUSH0 PUSH0 REVERT JUMPDEST POP PUSH1 0x40 MLOAD PUSH1 0x12 DUP2 MSTORE PUSH1 0x20 ADD PUSH2 0x268 JUMP JUMPDEST CALLVALUE DUP1 ISZERO PUSH2 0x397 JUMPI PUSH0 PUSH0 REVERT JUMPDEST POP PUSH2 0x301 PUSH2 0xB02 JUMP JUMPDEST CALLVALUE DUP1 ISZERO PUSH2 0x3AB JUMPI PUSH0 PUSH0 REVERT JUMPDEST POP PUSH2 0x3D3 PUSH32 0x0 DUP2 JUMP JUMPDEST PUSH1 0x40 MLOAD PUSH1 0x1 PUSH1 0x1 PUSH1 0xA0 SHL SUB SWAP1 SWAP2 AND DUP2 MSTORE PUSH1 0x20 ADD PUSH2 0x268 JUMP JUMPDEST CALLVALUE DUP1 ISZERO PUSH2 0x3F6 JUMPI PUSH0 PUSH0 REVERT JUMPDEST POP PUSH2 0x301 PUSH2 0x405 CALLDATASIZE PUSH1 0x4 PUSH2 0x177A JUMP JUMPDEST PUSH2 0xBA4 JUMP JUMPDEST CALLVALUE DUP1 ISZERO PUSH2 0x415 JUMPI PUSH0 PUSH0 REVERT JUMPDEST POP PUSH2 0x301 PUSH2 0x424 CALLDATASIZE PUSH1 0x4 PUSH2 0x177A JUMP JUMPDEST PUSH2 0xC06 JUMP JUMPDEST CALLVALUE DUP1 ISZERO PUSH2 0x434 JUMPI PUSH0 PUSH0 REVERT JUMPDEST POP PUSH2 0x301 PUSH2 0x443 CALLDATASIZE PUSH1 0x4 PUSH2 0x17A7 JUMP JUMPDEST PUSH2 0xC11 JUMP JUMPDEST CALLVALUE DUP1 ISZERO PUSH2 0x453 JUMPI PUSH0 PUSH0 REVERT JUMPDEST POP PUSH2 0x301 PUSH2 0x462 CALLDATASIZE PUSH1 0x4 PUSH2 0x16E2 JUMP JUMPDEST PUSH4 0x87A211A2 PUSH1 0xC SWAP1 DUP2 MSTORE PUSH0 SWAP2 SWAP1 SWAP2 MSTORE PUSH1 0x20 SWAP1 KECCAK256 SLOAD SWAP1 JUMP JUMPDEST CALLVALUE DUP1 ISZERO PUSH2 0x484 JUMPI PUSH0 PUSH0 REVERT JUMPDEST POP PUSH2 0x48D PUSH2 0xC24 JUMP JUMPDEST STOP JUMPDEST CALLVALUE DUP1 ISZERO PUSH2 0x49A JUMPI PUSH0 PUSH0 REVERT JUMPDEST POP PUSH2 0x301 PUSH2 0x4A9 CALLDATASIZE PUSH1 0x4 PUSH2 0x177A JUMP JUMPDEST PUSH2 0xC37 JUMP JUMPDEST CALLVALUE DUP1 ISZERO PUSH2 0x4B9 JUMPI PUSH0 PUSH0 REVERT JUMPDEST POP PUSH2 0x254 PUSH32 0x0 DUP2 JUMP JUMPDEST CALLVALUE DUP1 ISZERO PUSH2 0x4EC JUMPI PUSH0 PUSH0 REVERT JUMPDEST POP PUSH2 0x301 PUSH2 0x4FB CALLDATASIZE PUSH1 0x4 PUSH2 0x16E2 JUMP JUMPDEST PUSH4 0x38377508 PUSH1 0xC SWAP1 DUP2 MSTORE PUSH0 SWAP2 SWAP1 SWAP2 MSTORE PUSH1 0x20 SWAP1 KECCAK256 SLOAD SWAP1 JUMP JUMPDEST CALLVALUE DUP1 ISZERO PUSH2 0x51D JUMPI PUSH0 PUSH0 REVERT JUMPDEST POP PUSH2 0x254 PUSH32 0x0 DUP2 JUMP JUMPDEST CALLVALUE DUP1 ISZERO PUSH2 0x550 JUMPI PUSH0 PUSH0 REVERT JUMPDEST POP PUSH2 0x564 PUSH2 0x55F CALLDATASIZE PUSH1 0x4 PUSH2 0x1643 JUMP JUMPDEST PUSH2 0xC88 JUMP JUMPDEST PUSH1 0x40 MLOAD PUSH1 0x1 PUSH1 0x1 PUSH1 0xE0 SHL SUB NOT SWAP1 SWAP2 AND DUP2 MSTORE PUSH1 0x20 ADD PUSH2 0x268 JUMP JUMPDEST CALLVALUE DUP1 ISZERO PUSH2 0x588 JUMPI PUSH0 PUSH0 REVERT JUMPDEST POP PUSH1 0x2 SLOAD PUSH1 0x1 PUSH1 0x1 PUSH1 0xA0 SHL SUB AND PUSH2 0x3D3 JUMP JUMPDEST CALLVALUE DUP1 ISZERO PUSH2 0x5A5 JUMPI PUSH0 PUSH0 REVERT JUMPDEST POP PUSH2 0x301 PUSH2 0x5B4 CALLDATASIZE PUSH1 0x4 PUSH2 0x17D2 JUMP JUMPDEST PUSH2 0xCE0 JUMP JUMPDEST CALLVALUE DUP1 ISZERO PUSH2 0x5C4 JUMPI PUSH0 PUSH0 REVERT JUMPDEST POP PUSH2 0x285 PUSH2 0xDBC JUMP JUMPDEST CALLVALUE DUP1 ISZERO PUSH2 0x5D8 JUMPI PUSH0 PUSH0 REVERT JUMPDEST POP PUSH2 0x2B1 PUSH2 0x5E7 CALLDATASIZE PUSH1 0x4 PUSH2 0x1619 JUMP JUMPDEST PUSH2 0xDCB JUMP JUMPDEST CALLVALUE DUP1 ISZERO PUSH2 0x5F7 JUMPI PUSH0 PUSH0 REVERT JUMPDEST POP PUSH2 0x301 PUSH2 0x606 CALLDATASIZE PUSH1 0x4 PUSH2 0x180E JUMP JUMPDEST PUSH2 0xE2F JUMP JUMPDEST CALLVALUE DUP1 ISZERO PUSH2 0x616 JUMPI PUSH0 PUSH0 REVERT JUMPDEST POP PUSH2 0x301 PUSH2 0xE4F JUMP JUMPDEST CALLVALUE DUP1 ISZERO PUSH2 0x62A JUMPI PUSH0 PUSH0 REVERT JUMPDEST POP PUSH2 0x2B1 PUSH2 0x639 CALLDATASIZE PUSH1 0x4 PUSH2 0x1643 JUMP JUMPDEST PUSH2 0xE92 JUMP JUMPDEST CALLVALUE DUP1 ISZERO PUSH2 0x649 JUMPI PUSH0 PUSH0 REVERT JUMPDEST POP PUSH2 0x48D PUSH2 0x658 CALLDATASIZE PUSH1 0x4 PUSH2 0x184C JUMP JUMPDEST PUSH2 0xF1C JUMP JUMPDEST CALLVALUE DUP1 ISZERO PUSH2 0x668 JUMPI PUSH0 PUSH0 REVERT JUMPDEST POP PUSH2 0x301 PUSH2 0x677 CALLDATASIZE PUSH1 0x4 PUSH2 0x18B6 JUMP JUMPDEST PUSH1 0x20 MSTORE PUSH4 0x7F5E9F20 PUSH1 0xC SWAP1 DUP2 MSTORE PUSH0 SWAP2 SWAP1 SWAP2 MSTORE PUSH1 0x34 SWAP1 KECCAK256 SLOAD SWAP1 JUMP JUMPDEST CALLVALUE DUP1 ISZERO PUSH2 0x69C JUMPI PUSH0 PUSH0 REVERT JUMPDEST POP PUSH2 0x301 PUSH0 SLOAD DUP2 JUMP JUMPDEST CALLVALUE DUP1 ISZERO PUSH2 0x6B0 JUMPI PUSH0 PUSH0 REVERT JUMPDEST POP PUSH2 0x301 PUSH2 0x6BF CALLDATASIZE PUSH1 0x4 PUSH2 0x16FD JUMP JUMPDEST PUSH2 0x10C6 JUMP JUMPDEST CALLVALUE DUP1 ISZERO PUSH2 0x6CF JUMPI PUSH0 PUSH0 REVERT JUMPDEST POP PUSH2 0x301 PUSH32 0x0 DUP2 JUMP JUMPDEST CALLVALUE DUP1 ISZERO PUSH2 0x702 JUMPI PUSH0 PUSH0 REVERT JUMPDEST POP PUSH2 0x48D PUSH2 0x711 CALLDATASIZE PUSH1 0x4 PUSH2 0x16E2 JUMP JUMPDEST PUSH2 0x1264 JUMP JUMPDEST CALLVALUE DUP1 ISZERO PUSH2 0x721 JUMPI PUSH0 PUSH0 REVERT JUMPDEST POP PUSH2 0x301 PUSH2 0x12A6 JUMP JUMPDEST CALLVALUE DUP1 ISZERO PUSH2 0x735 JUMPI PUSH0 PUSH0 REVERT JUMPDEST POP PUSH2 0x254 PUSH32 0x0 DUP2 JUMP JUMPDEST CALLVALUE DUP1 ISZERO PUSH2 0x768 JUMPI PUSH0 PUSH0 REVERT JUMPDEST POP PUSH2 0x301 PUSH2 0x777 CALLDATASIZE PUSH1 0x4 PUSH2 0x16FD JUMP JUMPDEST PUSH2 0x12DE JUMP JUMPDEST PUSH1 0x60 PUSH1 0x3 DUP1 SLOAD PUSH2 0x78B SWAP1 PUSH2 0x18E2 JUMP JUMPDEST DUP1 PUSH1 0x1F ADD PUSH1 0x20 DUP1 SWAP2 DIV MUL PUSH1 0x20 ADD PUSH1 0x40 MLOAD SWAP1 DUP2 ADD PUSH1 0x40 MSTORE DUP1 SWAP3 SWAP2 SWAP1 DUP2 DUP2 MSTORE PUSH1 0x20 ADD DUP3 DUP1 SLOAD PUSH2 0x7B7 SWAP1 PUSH2 0x18E2 JUMP JUMPDEST DUP1 ISZERO PUSH2 0x802 JUMPI DUP1 PUSH1 0x1F LT PUSH2 0x7D9 JUMPI PUSH2 0x100 DUP1 DUP4 SLOAD DIV MUL DUP4 MSTORE SWAP2 PUSH1 0x20 ADD SWAP2 PUSH2 0x802 JUMP JUMPDEST DUP3 ADD SWAP2 SWAP1 PUSH0 MSTORE PUSH1 0x20 PUSH0 KECCAK256 SWAP1 JUMPDEST DUP2 SLOAD DUP2 MSTORE SWAP1 PUSH1 0x1 ADD SWAP1 PUSH1 0x20 ADD DUP1 DUP4 GT PUSH2 0x7E5 JUMPI DUP3 SWAP1 SUB PUSH1 0x1F AND DUP3 ADD SWAP2 JUMPDEST POP POP POP POP POP SWAP1 POP SWAP1 JUMP JUMPDEST PUSH0 DUP3 PUSH1 0x20 MSTORE PUSH4 0x7F5E9F20 PUSH1 0xC MSTORE CALLER PUSH0 MSTORE DUP2 PUSH1 0x34 PUSH1 0xC KECCAK256 SSTORE DUP2 PUSH0 MSTORE PUSH1 0x2C MLOAD PUSH1 0x60 SHR CALLER PUSH32 0x8C5BE1E5EBEC7D5BD14F71427D1E84F3DD0314C0F7B2291E5B200AC8C7C3B925 PUSH1 0x20 PUSH0 LOG3 POP PUSH1 0x1 JUMPDEST SWAP3 SWAP2 POP POP JUMP JUMPDEST PUSH0 PUSH1 0x60 PUSH2 0x867 PUSH2 0x1380 JUMP JUMPDEST DUP6 PUSH1 0x1 PUSH1 0x1 PUSH1 0xA0 SHL SUB AND DUP6 DUP6 DUP6 PUSH1 0x40 MLOAD PUSH2 0x882 SWAP3 SWAP2 SWAP1 PUSH2 0x1914 JUMP JUMPDEST PUSH0 PUSH1 0x40 MLOAD DUP1 DUP4 SUB DUP2 DUP6 DUP8 GAS CALL SWAP3 POP POP POP RETURNDATASIZE DUP1 PUSH0 DUP2 EQ PUSH2 0x8BC JUMPI PUSH1 0x40 MLOAD SWAP2 POP PUSH1 0x1F NOT PUSH1 0x3F RETURNDATASIZE ADD AND DUP3 ADD PUSH1 0x40 MSTORE RETURNDATASIZE DUP3 MSTORE RETURNDATASIZE PUSH0 PUSH1 0x20 DUP5 ADD RETURNDATACOPY PUSH2 0x8C1 JUMP JUMPDEST PUSH1 0x60 SWAP2 POP JUMPDEST POP SWAP2 POP SWAP2 POP SWAP5 POP SWAP5 SWAP3 POP POP POP JUMP JUMPDEST PUSH0 PUSH2 0x8D9 CALLVALUE PUSH2 0xC37 JUMP JUMPDEST SWAP1 POP PUSH2 0x8E5 DUP3 DUP3 PUSH2 0x13AD JUMP JUMPDEST SWAP2 SWAP1 POP JUMP JUMPDEST PUSH0 PUSH0 SELFBALANCE SWAP1 POP PUSH32 0x0 PUSH1 0x1 PUSH1 0x1 PUSH1 0xA0 SHL SUB AND DUP6 PUSH1 0x1 PUSH1 0x1 PUSH1 0xA0 SHL SUB AND EQ PUSH2 0x9BA JUMPI PUSH1 0x40 MLOAD PUSH4 0x95EA7B3 PUSH1 0xE0 SHL DUP2 MSTORE PUSH1 0x1 PUSH1 0x1 PUSH1 0xA0 SHL SUB DUP7 DUP2 AND PUSH1 0x4 DUP4 ADD MSTORE PUSH1 0x24 DUP3 ADD DUP7 SWAP1 MSTORE PUSH32 0x0 AND SWAP1 PUSH4 0x95EA7B3 SWAP1 PUSH1 0x44 ADD PUSH1 0x20 PUSH1 0x40 MLOAD DUP1 DUP4 SUB DUP2 PUSH0 DUP8 GAS CALL ISZERO DUP1 ISZERO PUSH2 0x994 JUMPI RETURNDATASIZE PUSH0 PUSH0 RETURNDATACOPY RETURNDATASIZE PUSH0 REVERT JUMPDEST POP POP POP POP PUSH1 0x40 MLOAD RETURNDATASIZE PUSH1 0x1F NOT PUSH1 0x1F DUP3 ADD AND DUP3 ADD DUP1 PUSH1 0x40 MSTORE POP DUP2 ADD SWAP1 PUSH2 0x9B8 SWAP2 SWAP1 PUSH2 0x1923 JUMP JUMPDEST POP JUMPDEST PUSH1 0x40 MLOAD PUSH3 0x30197B PUSH1 0xE9 SHL DUP2 MSTORE PUSH1 0x4 DUP2 ADD DUP6 SWAP1 MSTORE PUSH1 0x1 PUSH1 0x1 PUSH1 0xA0 SHL SUB DUP7 AND SWAP1 PUSH4 0x6032F600 SWAP1 PUSH1 0x24 ADD PUSH1 0x20 PUSH1 0x40 MLOAD DUP1 DUP4 SUB DUP2 PUSH0 DUP8 GAS CALL ISZERO DUP1 ISZERO PUSH2 0x9FD JUMPI RETURNDATASIZE PUSH0 PUSH0 RETURNDATACOPY RETURNDATASIZE PUSH0 REVERT JUMPDEST POP POP POP POP PUSH1 0x40 MLOAD RETURNDATASIZE PUSH1 0x1F NOT PUSH1 0x1F DUP3 ADD AND DUP3 ADD DUP1 PUSH1 0x40 MSTORE POP DUP2 ADD SWAP1 PUSH2 0xA21 SWAP2 SWAP1 PUSH2 0x1942 JUMP JUMPDEST POP DUP4 PUSH2 0xA30 PUSH2 0x4A9 DUP4 SELFBALANCE PUSH2 0x196D JUMP JUMPDEST PUSH2 0xA3A SWAP2 SWAP1 PUSH2 0x196D JUMP JUMPDEST SWAP2 POP PUSH2 0xA46 DUP4 DUP4 PUSH2 0x13AD JUMP JUMPDEST POP SWAP4 SWAP3 POP POP POP JUMP JUMPDEST PUSH0 PUSH2 0xA58 CALLER PUSH2 0x8CF JUMP JUMPDEST SWAP1 POP SWAP1 JUMP JUMPDEST PUSH0 DUP4 PUSH1 0x60 SHL CALLER PUSH1 0x20 MSTORE PUSH4 0x7F5E9F20 DUP2 OR PUSH1 0xC MSTORE PUSH1 0x34 PUSH1 0xC KECCAK256 DUP1 SLOAD DUP1 NOT ISZERO PUSH2 0xA99 JUMPI DUP1 DUP6 GT ISZERO PUSH2 0xA93 JUMPI PUSH4 0x13BE252B PUSH0 MSTORE PUSH1 0x4 PUSH1 0x1C REVERT JUMPDEST DUP5 DUP2 SUB DUP3 SSTORE JUMPDEST POP POP PUSH4 0x87A211A2 DUP2 OR PUSH1 0xC MSTORE PUSH1 0x20 PUSH1 0xC KECCAK256 DUP1 SLOAD DUP1 DUP6 GT ISZERO PUSH2 0xAC1 JUMPI PUSH4 0xF4D678B8 PUSH0 MSTORE PUSH1 0x4 PUSH1 0x1C REVERT JUMPDEST DUP5 DUP2 SUB DUP3 SSTORE POP POP DUP4 PUSH0 MSTORE PUSH1 0x20 PUSH1 0xC KECCAK256 DUP4 DUP2 SLOAD ADD DUP2 SSTORE POP DUP3 PUSH1 0x20 MSTORE PUSH1 0xC MLOAD PUSH1 0x60 SHR DUP2 PUSH1 0x60 SHR PUSH0 MLOAD PUSH1 0x20 PUSH2 0x1A51 PUSH0 CODECOPY PUSH0 MLOAD SWAP1 PUSH0 MSTORE PUSH1 0x20 DUP1 LOG3 POP POP PUSH1 0x1 SWAP4 SWAP3 POP POP POP JUMP JUMPDEST PUSH0 PUSH32 0x0 DUP1 PUSH2 0xB3B JUMPI PUSH2 0xB31 PUSH2 0x77C JUMP JUMPDEST DUP1 MLOAD SWAP1 PUSH1 0x20 ADD KECCAK256 SWAP1 POP JUMPDEST PUSH1 0x40 DUP1 MLOAD PUSH32 0x8B73C3C69BB8FE3D512ECC4CF759CC79239F7B179B0FFACAA9A75D522B39400F DUP2 MSTORE PUSH1 0x20 DUP2 ADD SWAP3 SWAP1 SWAP3 MSTORE PUSH32 0xC89EFDAA54C0F20C7ADF612882DF0950F5A951637E0307CDCB4C672F298B8BC6 SWAP1 DUP3 ADD MSTORE CHAINID PUSH1 0x60 DUP3 ADD MSTORE ADDRESS PUSH1 0x80 DUP3 ADD MSTORE PUSH1 0xA0 SWAP1 KECCAK256 SWAP2 SWAP1 POP JUMP JUMPDEST PUSH0 PUSH2 0xBD8 DUP3 PUSH1 0x1 PUSH1 0x1 PUSH1 0x80 SHL SUB PUSH32 0x0 AND PUSH2 0x1980 JUMP JUMPDEST DUP3 PUSH2 0xBE1 PUSH2 0xE4F JUMP JUMPDEST PUSH2 0xBEB SWAP2 SWAP1 PUSH2 0x1993 JUMP JUMPDEST PUSH2 0xBF5 SWAP2 SWAP1 PUSH2 0x19AA JUMP JUMPDEST SWAP1 POP DUP1 SELFBALANCE LT ISZERO PUSH2 0x8E5 JUMPI POP SELFBALANCE SWAP2 SWAP1 POP JUMP JUMPDEST PUSH0 PUSH2 0x856 DUP3 CALLER PUSH2 0xE2F JUMP JUMPDEST PUSH0 PUSH2 0xC1D DUP4 CALLER DUP5 PUSH2 0xCE0 JUMP JUMPDEST SWAP4 SWAP3 POP POP POP JUMP JUMPDEST PUSH2 0xC2C PUSH2 0x1380 JUMP JUMPDEST PUSH2 0xC35 PUSH0 PUSH2 0x1408 JUMP JUMPDEST JUMP JUMPDEST PUSH0 PUSH2 0xC6B DUP3 PUSH1 0x1 PUSH1 0x1 PUSH1 0x80 SHL SUB PUSH32 0x0 AND PUSH2 0x1980 JUMP JUMPDEST DUP3 PUSH2 0xC74 PUSH2 0x12A6 JUMP JUMPDEST PUSH2 0xC7E SWAP2 SWAP1 PUSH2 0x1993 JUMP JUMPDEST PUSH2 0x856 SWAP2 SWAP1 PUSH2 0x19AA JUMP JUMPDEST PUSH0 CALLER PUSH1 0x1 PUSH1 0x1 PUSH1 0xA0 SHL SUB PUSH32 0x0 AND EQ PUSH2 0xCBD JUMPI PUSH0 PUSH0 REVERT JUMPDEST PUSH2 0xCCF DUP6 PUSH2 0xCCA DUP7 PUSH2 0xBA4 JUMP JUMPDEST PUSH2 0x1459 JUMP JUMPDEST POP PUSH4 0x44A1F601 PUSH1 0xE1 SHL SWAP5 SWAP4 POP POP POP POP JUMP JUMPDEST PUSH0 PUSH1 0x1 PUSH1 0x1 PUSH1 0xA0 SHL SUB PUSH32 0x0 AND PUSH4 0xD505ACCF CALLER ADDRESS DUP8 DUP7 CALLDATALOAD PUSH2 0xD25 PUSH1 0x40 DUP10 ADD PUSH1 0x20 DUP11 ADD PUSH2 0x19C9 JUMP JUMPDEST PUSH1 0x40 DUP1 MLOAD PUSH1 0x1 PUSH1 0x1 PUSH1 0xE0 SHL SUB NOT PUSH1 0xE0 DUP10 SWAP1 SHL AND DUP2 MSTORE PUSH1 0x1 PUSH1 0x1 PUSH1 0xA0 SHL SUB SWAP7 DUP8 AND PUSH1 0x4 DUP3 ADD MSTORE SWAP6 SWAP1 SWAP5 AND PUSH1 0x24 DUP7 ADD MSTORE PUSH1 0x44 DUP6 ADD SWAP3 SWAP1 SWAP3 MSTORE PUSH1 0x64 DUP5 ADD MSTORE PUSH1 0xFF AND PUSH1 0x84 DUP4 ADD MSTORE DUP6 ADD CALLDATALOAD PUSH1 0xA4 DUP3 ADD MSTORE PUSH1 0x60 DUP6 ADD CALLDATALOAD PUSH1 0xC4 DUP3 ADD MSTORE PUSH1 0xE4 ADD PUSH0 PUSH1 0x40 MLOAD DUP1 DUP4 SUB DUP2 PUSH0 DUP8 DUP1 EXTCODESIZE ISZERO DUP1 ISZERO PUSH2 0xD94 JUMPI PUSH0 PUSH0 REVERT JUMPDEST POP GAS CALL ISZERO DUP1 ISZERO PUSH2 0xDA6 JUMPI RETURNDATASIZE PUSH0 PUSH0 RETURNDATACOPY RETURNDATASIZE PUSH0 REVERT JUMPDEST POP POP POP POP PUSH2 0xDB4 DUP5 DUP5 PUSH2 0xE2F JUMP JUMPDEST SWAP5 SWAP4 POP POP POP POP JUMP JUMPDEST PUSH1 0x60 PUSH1 0x4 DUP1 SLOAD PUSH2 0x78B SWAP1 PUSH2 0x18E2 JUMP JUMPDEST PUSH0 PUSH4 0x87A211A2 PUSH1 0xC MSTORE CALLER PUSH0 MSTORE PUSH1 0x20 PUSH1 0xC KECCAK256 DUP1 SLOAD DUP1 DUP5 GT ISZERO PUSH2 0xDF3 JUMPI PUSH4 0xF4D678B8 PUSH0 MSTORE PUSH1 0x4 PUSH1 0x1C REVERT JUMPDEST DUP4 DUP2 SUB DUP3 SSTORE POP POP DUP3 PUSH0 MSTORE PUSH1 0x20 PUSH1 0xC KECCAK256 DUP3 DUP2 SLOAD ADD DUP2 SSTORE POP DUP2 PUSH1 0x20 MSTORE PUSH1 0xC MLOAD PUSH1 0x60 SHR CALLER PUSH0 MLOAD PUSH1 0x20 PUSH2 0x1A51 PUSH0 CODECOPY PUSH0 MLOAD SWAP1 PUSH0 MSTORE PUSH1 0x20 DUP1 LOG3 POP PUSH1 0x1 SWAP3 SWAP2 POP POP JUMP JUMPDEST PUSH0 PUSH2 0xE39 DUP4 PUSH2 0xBA4 JUMP JUMPDEST SWAP1 POP PUSH2 0xE45 CALLER DUP5 PUSH2 0x14FB JUMP JUMPDEST PUSH2 0x856 DUP3 DUP3 PUSH2 0x1459 JUMP JUMPDEST PUSH0 PUSH32 0x0 PUSH1 0x1 PUSH1 0x1 PUSH1 0x80 SHL SUB AND PUSH1 0x1 SLOAD TIMESTAMP PUSH2 0xE88 SWAP2 SWAP1 PUSH2 0x196D JUMP JUMPDEST PUSH2 0xA58 SWAP2 SWAP1 PUSH2 0x1993 JUMP JUMPDEST PUSH0 PUSH2 0xE9D DUP6 DUP6 PUSH2 0xDCB JUMP JUMPDEST POP PUSH1 0x40 MLOAD PUSH4 0x44A1F601 PUSH1 0xE1 SHL DUP2 MSTORE PUSH1 0x1 PUSH1 0x1 PUSH1 0xA0 SHL SUB DUP7 AND SWAP1 PUSH4 0x8943EC02 SWAP1 PUSH2 0xED0 SWAP1 CALLER SWAP1 DUP9 SWAP1 DUP9 SWAP1 DUP9 SWAP1 PUSH1 0x4 ADD PUSH2 0x19E2 JUMP JUMPDEST PUSH1 0x20 PUSH1 0x40 MLOAD DUP1 DUP4 SUB DUP2 PUSH0 DUP8 GAS CALL ISZERO DUP1 ISZERO PUSH2 0xEEC JUMPI RETURNDATASIZE PUSH0 PUSH0 RETURNDATACOPY RETURNDATASIZE PUSH0 REVERT JUMPDEST POP POP POP POP PUSH1 0x40 MLOAD RETURNDATASIZE PUSH1 0x1F NOT PUSH1 0x1F DUP3 ADD AND DUP3 ADD DUP1 PUSH1 0x40 MSTORE POP DUP2 ADD SWAP1 PUSH2 0xF10 SWAP2 SWAP1 PUSH2 0x1A29 JUMP JUMPDEST POP PUSH1 0x1 SWAP6 SWAP5 POP POP POP POP POP JUMP JUMPDEST PUSH32 0x0 DUP1 PUSH2 0xF54 JUMPI PUSH2 0xF4A PUSH2 0x77C JUMP JUMPDEST DUP1 MLOAD SWAP1 PUSH1 0x20 ADD KECCAK256 SWAP1 POP JUMPDEST PUSH32 0xC89EFDAA54C0F20C7ADF612882DF0950F5A951637E0307CDCB4C672F298B8BC6 TIMESTAMP DUP7 LT ISZERO PUSH2 0xF8A JUMPI PUSH4 0x1A15A3CC PUSH0 MSTORE PUSH1 0x4 PUSH1 0x1C REVERT JUMPDEST PUSH1 0x40 MLOAD DUP10 PUSH1 0x60 SHL PUSH1 0x60 SHR SWAP10 POP DUP9 PUSH1 0x60 SHL PUSH1 0x60 SHR SWAP9 POP PUSH6 0x383775081901 PUSH1 0xE MSTORE DUP10 PUSH0 MSTORE PUSH1 0x20 PUSH1 0xC KECCAK256 DUP1 SLOAD PUSH32 0x8B73C3C69BB8FE3D512ECC4CF759CC79239F7B179B0FFACAA9A75D522B39400F DUP4 MSTORE DUP5 PUSH1 0x20 DUP5 ADD MSTORE DUP4 PUSH1 0x40 DUP5 ADD MSTORE CHAINID PUSH1 0x60 DUP5 ADD MSTORE ADDRESS PUSH1 0x80 DUP5 ADD MSTORE PUSH1 0xA0 DUP4 KECCAK256 PUSH1 0x2E MSTORE PUSH32 0x6E71EDAE12B1B97F4D1F60370FEF10105FA2FAAE0126114A169C64845D6126C9 DUP4 MSTORE DUP12 PUSH1 0x20 DUP5 ADD MSTORE DUP11 PUSH1 0x40 DUP5 ADD MSTORE DUP10 PUSH1 0x60 DUP5 ADD MSTORE DUP1 PUSH1 0x80 DUP5 ADD MSTORE DUP9 PUSH1 0xA0 DUP5 ADD MSTORE PUSH1 0xC0 DUP4 KECCAK256 PUSH1 0x4E MSTORE PUSH1 0x42 PUSH1 0x2C KECCAK256 PUSH0 MSTORE DUP8 PUSH1 0xFF AND PUSH1 0x20 MSTORE DUP7 PUSH1 0x40 MSTORE DUP6 PUSH1 0x60 MSTORE PUSH1 0x20 DUP1 PUSH1 0x80 PUSH0 PUSH1 0x1 GAS STATICCALL DUP13 RETURNDATASIZE MLOAD EQ PUSH2 0x1072 JUMPI PUSH4 0xDDAFBAEF PUSH0 MSTORE PUSH1 0x4 PUSH1 0x1C REVERT JUMPDEST ADD SWAP1 SSTORE PUSH4 0x3FAF4F9 PUSH1 0xA5 SHL DUP10 OR PUSH1 0x40 MSTORE PUSH1 0x34 PUSH1 0x2C KECCAK256 DUP9 SWAP1 SSTORE DUP9 DUP11 PUSH32 0x8C5BE1E5EBEC7D5BD14F71427D1E84F3DD0314C0F7B2291E5B200AC8C7C3B925 PUSH1 0x20 PUSH1 0x60 DUP6 ADD LOG3 PUSH1 0x40 MSTORE POP POP PUSH0 PUSH1 0x60 MSTORE POP POP POP POP POP POP POP JUMP JUMPDEST PUSH1 0x40 MLOAD PUSH4 0x70A08231 PUSH1 0xE0 SHL DUP2 MSTORE ADDRESS PUSH1 0x4 DUP3 ADD MSTORE PUSH0 SWAP1 DUP2 SWAP1 PUSH1 0x1 PUSH1 0x1 PUSH1 0xA0 SHL SUB PUSH32 0x0 AND SWAP1 PUSH4 0x70A08231 SWAP1 PUSH1 0x24 ADD PUSH1 0x20 PUSH1 0x40 MLOAD DUP1 DUP4 SUB DUP2 DUP7 GAS STATICCALL ISZERO DUP1 ISZERO PUSH2 0x112C JUMPI RETURNDATASIZE PUSH0 PUSH0 RETURNDATACOPY RETURNDATASIZE PUSH0 REVERT JUMPDEST POP POP POP POP PUSH1 0x40 MLOAD RETURNDATASIZE PUSH1 0x1F NOT PUSH1 0x1F DUP3 ADD AND DUP3 ADD DUP1 PUSH1 0x40 MSTORE POP DUP2 ADD SWAP1 PUSH2 0x1150 SWAP2 SWAP1 PUSH2 0x1942 JUMP JUMPDEST SWAP1 POP DUP5 PUSH1 0x1 PUSH1 0x1 PUSH1 0xA0 SHL SUB AND PUSH4 0x223ECF7E DUP6 PUSH1 0x40 MLOAD DUP3 PUSH4 0xFFFFFFFF AND PUSH1 0xE0 SHL DUP2 MSTORE PUSH1 0x4 ADD PUSH1 0x20 PUSH1 0x40 MLOAD DUP1 DUP4 SUB DUP2 DUP6 DUP9 GAS CALL ISZERO DUP1 ISZERO PUSH2 0x1190 JUMPI RETURNDATASIZE PUSH0 PUSH0 RETURNDATACOPY RETURNDATASIZE PUSH0 REVERT JUMPDEST POP POP POP POP POP PUSH1 0x40 MLOAD RETURNDATASIZE PUSH1 0x1F NOT PUSH1 0x1F DUP3 ADD AND DUP3 ADD DUP1 PUSH1 0x40 MSTORE POP DUP2 ADD SWAP1 PUSH2 0x11B5 SWAP2 SWAP1 PUSH2 0x1942 JUMP JUMPDEST POP PUSH1 0x40 MLOAD PUSH4 0x70A08231 PUSH1 0xE0 SHL DUP2 MSTORE ADDRESS PUSH1 0x4 DUP3 ADD MSTORE DUP5 SWAP1 PUSH2 0x124E SWAP1 DUP4 SWAP1 PUSH1 0x1 PUSH1 0x1 PUSH1 0xA0 SHL SUB PUSH32 0x0 AND SWAP1 PUSH4 0x70A08231 SWAP1 PUSH1 0x24 ADD PUSH1 0x20 PUSH1 0x40 MLOAD DUP1 DUP4 SUB DUP2 DUP7 GAS STATICCALL ISZERO DUP1 ISZERO PUSH2 0x1220 JUMPI RETURNDATASIZE PUSH0 PUSH0 RETURNDATACOPY RETURNDATASIZE PUSH0 REVERT JUMPDEST POP POP POP POP PUSH1 0x40 MLOAD RETURNDATASIZE PUSH1 0x1F NOT PUSH1 0x1F DUP3 ADD AND DUP3 ADD DUP1 PUSH1 0x40 MSTORE POP DUP2 ADD SWAP1 PUSH2 0x1244 SWAP2 SWAP1 PUSH2 0x1942 JUMP JUMPDEST PUSH2 0x405 SWAP2 SWAP1 PUSH2 0x196D JUMP JUMPDEST PUSH2 0x1258 SWAP2 SWAP1 PUSH2 0x196D JUMP JUMPDEST SWAP2 POP PUSH2 0xA46 DUP4 DUP4 PUSH2 0x1459 JUMP JUMPDEST PUSH2 0x126C PUSH2 0x1380 JUMP JUMPDEST PUSH1 0x1 PUSH1 0x1 PUSH1 0xA0 SHL SUB DUP2 AND PUSH2 0x129A JUMPI PUSH1 0x40 MLOAD PUSH4 0x1E4FBDF7 PUSH1 0xE0 SHL DUP2 MSTORE PUSH0 PUSH1 0x4 DUP3 ADD MSTORE PUSH1 0x24 ADD JUMPDEST PUSH1 0x40 MLOAD DUP1 SWAP2 SUB SWAP1 REVERT JUMPDEST PUSH2 0x12A3 DUP2 PUSH2 0x1408 JUMP JUMPDEST POP JUMP JUMPDEST PUSH0 PUSH32 0x0 PUSH1 0x1 PUSH1 0x1 PUSH1 0x80 SHL SUB AND PUSH0 SLOAD TIMESTAMP PUSH2 0xE88 SWAP2 SWAP1 PUSH2 0x196D JUMP JUMPDEST PUSH1 0x40 MLOAD PUSH4 0x5F22FEB1 PUSH1 0xE1 SHL DUP2 MSTORE PUSH1 0x1 PUSH1 0x1 PUSH1 0xA0 SHL SUB DUP5 DUP2 AND PUSH1 0x4 DUP4 ADD MSTORE PUSH1 0x24 DUP3 ADD DUP5 SWAP1 MSTORE PUSH1 0x60 PUSH1 0x44 DUP4 ADD MSTORE PUSH0 PUSH1 0x64 DUP4 ADD DUP2 SWAP1 MSTORE SWAP2 SELFBALANCE SWAP2 PUSH32 0x0 AND SWAP1 PUSH4 0xBE45FD62 SWAP1 PUSH1 0x84 ADD PUSH1 0x20 PUSH1 0x40 MLOAD DUP1 DUP4 SUB DUP2 PUSH0 DUP8 GAS CALL ISZERO DUP1 ISZERO PUSH2 0x135C JUMPI RETURNDATASIZE PUSH0 PUSH0 RETURNDATACOPY RETURNDATASIZE PUSH0 REVERT JUMPDEST POP POP POP POP PUSH1 0x40 MLOAD RETURNDATASIZE PUSH1 0x1F NOT PUSH1 0x1F DUP3 ADD AND DUP3 ADD DUP1 PUSH1 0x40 MSTORE POP DUP2 ADD SWAP1 PUSH2 0xA21 SWAP2 SWAP1 PUSH2 0x1923 JUMP JUMPDEST PUSH1 0x2 SLOAD PUSH1 0x1 PUSH1 0x1 PUSH1 0xA0 SHL SUB AND CALLER EQ PUSH2 0xC35 JUMPI PUSH1 0x40 MLOAD PUSH4 0x118CDAA7 PUSH1 0xE0 SHL DUP2 MSTORE CALLER PUSH1 0x4 DUP3 ADD MSTORE PUSH1 0x24 ADD PUSH2 0x1291 JUMP JUMPDEST PUSH2 0x13E0 PUSH1 0x1 PUSH1 0x1 PUSH1 0x80 SHL SUB PUSH32 0x0 AND DUP3 PUSH2 0x19AA JUMP JUMPDEST PUSH0 PUSH0 DUP3 DUP3 SLOAD PUSH2 0x13EF SWAP2 SWAP1 PUSH2 0x1980 JUMP JUMPDEST SWAP1 SWAP2 SSTORE POP PUSH2 0x13FF SWAP1 POP DUP3 DUP3 PUSH2 0x155C JUMP JUMPDEST POP POP JUMP JUMPDEST POP POP POP JUMP JUMPDEST PUSH1 0x2 DUP1 SLOAD PUSH1 0x1 PUSH1 0x1 PUSH1 0xA0 SHL SUB DUP4 DUP2 AND PUSH1 0x1 PUSH1 0x1 PUSH1 0xA0 SHL SUB NOT DUP4 AND DUP2 OR SWAP1 SWAP4 SSTORE PUSH1 0x40 MLOAD SWAP2 AND SWAP2 SWAP1 DUP3 SWAP1 PUSH32 0x8BE0079C531659141344CD1FD0A4F28419497F9722A3DAAFE3B4186F6B6457E0 SWAP1 PUSH0 SWAP1 LOG3 POP POP JUMP JUMPDEST PUSH2 0x148C PUSH1 0x1 PUSH1 0x1 PUSH1 0x80 SHL SUB PUSH32 0x0 AND DUP3 PUSH2 0x19AA JUMP JUMPDEST PUSH1 0x1 PUSH0 DUP3 DUP3 SLOAD PUSH2 0x149C SWAP2 SWAP1 PUSH2 0x1980 JUMP JUMPDEST SWAP1 SWAP2 SSTORE POP POP PUSH1 0x40 MLOAD PUSH0 SWAP1 PUSH1 0x1 PUSH1 0x1 PUSH1 0xA0 SHL SUB DUP5 AND SWAP1 DUP4 SWAP1 DUP4 DUP2 DUP2 DUP2 DUP6 DUP8 GAS CALL SWAP3 POP POP POP RETURNDATASIZE DUP1 PUSH0 DUP2 EQ PUSH2 0x14E9 JUMPI PUSH1 0x40 MLOAD SWAP2 POP PUSH1 0x1F NOT PUSH1 0x3F RETURNDATASIZE ADD AND DUP3 ADD PUSH1 0x40 MSTORE RETURNDATASIZE DUP3 MSTORE RETURNDATASIZE PUSH0 PUSH1 0x20 DUP5 ADD RETURNDATACOPY PUSH2 0x14EE JUMP JUMPDEST PUSH1 0x60 SWAP2 POP JUMPDEST POP POP SWAP1 POP DUP1 PUSH2 0x1403 JUMPI PUSH0 PUSH0 REVERT JUMPDEST PUSH4 0x87A211A2 PUSH1 0xC MSTORE DUP2 PUSH0 MSTORE PUSH1 0x20 PUSH1 0xC KECCAK256 DUP1 SLOAD DUP1 DUP4 GT ISZERO PUSH2 0x1522 JUMPI PUSH4 0xF4D678B8 PUSH0 MSTORE PUSH1 0x4 PUSH1 0x1C REVERT JUMPDEST DUP3 SWAP1 SUB SWAP1 SSTORE PUSH9 0x5345CDF77EB68F44C DUP1 SLOAD DUP3 SWAP1 SUB SWAP1 SSTORE PUSH0 DUP2 DUP2 MSTORE PUSH1 0x1 PUSH1 0x1 PUSH1 0xA0 SHL SUB DUP4 AND PUSH0 MLOAD PUSH1 0x20 PUSH2 0x1A51 PUSH0 CODECOPY PUSH0 MLOAD SWAP1 PUSH0 MSTORE PUSH1 0x20 DUP4 LOG3 POP POP JUMP JUMPDEST PUSH9 0x5345CDF77EB68F44C SLOAD DUP2 DUP2 ADD DUP2 DUP2 LT ISZERO PUSH2 0x157F JUMPI PUSH4 0xE5CFE957 PUSH0 MSTORE PUSH1 0x4 PUSH1 0x1C REVERT JUMPDEST DUP1 PUSH9 0x5345CDF77EB68F44C SSTORE POP POP PUSH4 0x87A211A2 PUSH1 0xC MSTORE DUP2 PUSH0 MSTORE PUSH1 0x20 PUSH1 0xC KECCAK256 DUP2 DUP2 SLOAD ADD DUP2 SSTORE POP DUP1 PUSH1 0x20 MSTORE PUSH1 0xC MLOAD PUSH1 0x60 SHR PUSH0 PUSH0 MLOAD PUSH1 0x20 PUSH2 0x1A51 PUSH0 CODECOPY PUSH0 MLOAD SWAP1 PUSH0 MSTORE PUSH1 0x20 DUP1 LOG3 POP POP JUMP JUMPDEST PUSH0 DUP2 MLOAD DUP1 DUP5 MSTORE DUP1 PUSH1 0x20 DUP5 ADD PUSH1 0x20 DUP7 ADD MCOPY PUSH0 PUSH1 0x20 DUP3 DUP7 ADD ADD MSTORE PUSH1 0x20 PUSH1 0x1F NOT PUSH1 0x1F DUP4 ADD AND DUP6 ADD ADD SWAP2 POP POP SWAP3 SWAP2 POP POP JUMP JUMPDEST PUSH1 0x20 DUP2 MSTORE PUSH0 PUSH2 0xC1D PUSH1 0x20 DUP4 ADD DUP5 PUSH2 0x15C5 JUMP JUMPDEST PUSH1 0x1 PUSH1 0x1 PUSH1 0xA0 SHL SUB DUP2 AND DUP2 EQ PUSH2 0x12A3 JUMPI PUSH0 PUSH0 REVERT JUMPDEST PUSH0 PUSH0 PUSH1 0x40 DUP4 DUP6 SUB SLT ISZERO PUSH2 0x162A JUMPI PUSH0 PUSH0 REVERT JUMPDEST DUP3 CALLDATALOAD PUSH2 0x1635 DUP2 PUSH2 0x1605 JUMP JUMPDEST SWAP5 PUSH1 0x20 SWAP4 SWAP1 SWAP4 ADD CALLDATALOAD SWAP4 POP POP POP JUMP JUMPDEST PUSH0 PUSH0 PUSH0 PUSH0 PUSH1 0x60 DUP6 DUP8 SUB SLT ISZERO PUSH2 0x1656 JUMPI PUSH0 PUSH0 REVERT JUMPDEST DUP5 CALLDATALOAD PUSH2 0x1661 DUP2 PUSH2 0x1605 JUMP JUMPDEST SWAP4 POP PUSH1 0x20 DUP6 ADD CALLDATALOAD SWAP3 POP PUSH1 0x40 DUP6 ADD CALLDATALOAD PUSH8 0xFFFFFFFFFFFFFFFF DUP2 GT ISZERO PUSH2 0x1683 JUMPI PUSH0 PUSH0 REVERT JUMPDEST DUP6 ADD PUSH1 0x1F DUP2 ADD DUP8 SGT PUSH2 0x1693 JUMPI PUSH0 PUSH0 REVERT JUMPDEST DUP1 CALLDATALOAD PUSH8 0xFFFFFFFFFFFFFFFF DUP2 GT ISZERO PUSH2 0x16A9 JUMPI PUSH0 PUSH0 REVERT JUMPDEST DUP8 PUSH1 0x20 DUP3 DUP5 ADD ADD GT ISZERO PUSH2 0x16BA JUMPI PUSH0 PUSH0 REVERT JUMPDEST SWAP5 SWAP8 SWAP4 SWAP7 POP PUSH1 0x20 ADD SWAP5 POP POP POP JUMP JUMPDEST DUP3 ISZERO ISZERO DUP2 MSTORE PUSH1 0x40 PUSH1 0x20 DUP3 ADD MSTORE PUSH0 PUSH2 0xDB4 PUSH1 0x40 DUP4 ADD DUP5 PUSH2 0x15C5 JUMP JUMPDEST PUSH0 PUSH1 0x20 DUP3 DUP5 SUB SLT ISZERO PUSH2 0x16F2 JUMPI PUSH0 PUSH0 REVERT JUMPDEST DUP2 CALLDATALOAD PUSH2 0xC1D DUP2 PUSH2 0x1605 JUMP JUMPDEST PUSH0 PUSH0 PUSH0 PUSH1 0x60 DUP5 DUP7 SUB SLT ISZERO PUSH2 0x170F JUMPI PUSH0 PUSH0 REVERT JUMPDEST DUP4 CALLDATALOAD PUSH2 0x171A DUP2 PUSH2 0x1605 JUMP JUMPDEST SWAP3 POP PUSH1 0x20 DUP5 ADD CALLDATALOAD SWAP2 POP PUSH1 0x40 DUP5 ADD CALLDATALOAD PUSH2 0x1731 DUP2 PUSH2 0x1605 JUMP JUMPDEST DUP1 SWAP2 POP POP SWAP3 POP SWAP3 POP SWAP3 JUMP JUMPDEST PUSH0 PUSH0 PUSH0 PUSH1 0x60 DUP5 DUP7 SUB SLT ISZERO PUSH2 0x174E JUMPI PUSH0 PUSH0 REVERT JUMPDEST DUP4 CALLDATALOAD PUSH2 0x1759 DUP2 PUSH2 0x1605 JUMP JUMPDEST SWAP3 POP PUSH1 0x20 DUP5 ADD CALLDATALOAD PUSH2 0x1769 DUP2 PUSH2 0x1605 JUMP JUMPDEST SWAP3 SWAP6 SWAP3 SWAP5 POP POP POP PUSH1 0x40 SWAP2 SWAP1 SWAP2 ADD CALLDATALOAD SWAP1 JUMP JUMPDEST PUSH0 PUSH1 0x20 DUP3 DUP5 SUB SLT ISZERO PUSH2 0x178A JUMPI PUSH0 PUSH0 REVERT JUMPDEST POP CALLDATALOAD SWAP2 SWAP1 POP JUMP JUMPDEST PUSH0 PUSH1 0x80 DUP3 DUP5 SUB SLT ISZERO PUSH2 0x17A1 JUMPI PUSH0 PUSH0 REVERT JUMPDEST POP SWAP2 SWAP1 POP JUMP JUMPDEST PUSH0 PUSH0 PUSH1 0xA0 DUP4 DUP6 SUB SLT ISZERO PUSH2 0x17B8 JUMPI PUSH0 PUSH0 REVERT JUMPDEST DUP3 CALLDATALOAD SWAP2 POP PUSH2 0x17C9 DUP5 PUSH1 0x20 DUP6 ADD PUSH2 0x1791 JUMP JUMPDEST SWAP1 POP SWAP3 POP SWAP3 SWAP1 POP JUMP JUMPDEST PUSH0 PUSH0 PUSH0 PUSH1 0xC0 DUP5 DUP7 SUB SLT ISZERO PUSH2 0x17E4 JUMPI PUSH0 PUSH0 REVERT JUMPDEST DUP4 CALLDATALOAD SWAP3 POP PUSH1 0x20 DUP5 ADD CALLDATALOAD PUSH2 0x17F6 DUP2 PUSH2 0x1605 JUMP JUMPDEST SWAP2 POP PUSH2 0x1805 DUP6 PUSH1 0x40 DUP7 ADD PUSH2 0x1791 JUMP JUMPDEST SWAP1 POP SWAP3 POP SWAP3 POP SWAP3 JUMP JUMPDEST PUSH0 PUSH0 PUSH1 0x40 DUP4 DUP6 SUB SLT ISZERO PUSH2 0x181F JUMPI PUSH0 PUSH0 REVERT JUMPDEST DUP3 CALLDATALOAD SWAP2 POP PUSH1 0x20 DUP4 ADD CALLDATALOAD PUSH2 0x1831 DUP2 PUSH2 0x1605 JUMP JUMPDEST DUP1 SWAP2 POP POP SWAP3 POP SWAP3 SWAP1 POP JUMP JUMPDEST DUP1 CALLDATALOAD PUSH1 0xFF DUP2 AND DUP2 EQ PUSH2 0x8E5 JUMPI PUSH0 PUSH0 REVERT JUMPDEST PUSH0 PUSH0 PUSH0 PUSH0 PUSH0 PUSH0 PUSH0 PUSH1 0xE0 DUP9 DUP11 SUB SLT ISZERO PUSH2 0x1862 JUMPI PUSH0 PUSH0 REVERT JUMPDEST DUP8 CALLDATALOAD PUSH2 0x186D DUP2 PUSH2 0x1605 JUMP JUMPDEST SWAP7 POP PUSH1 0x20 DUP9 ADD CALLDATALOAD PUSH2 0x187D DUP2 PUSH2 0x1605 JUMP JUMPDEST SWAP6 POP PUSH1 0x40 DUP9 ADD CALLDATALOAD SWAP5 POP PUSH1 0x60 DUP9 ADD CALLDATALOAD SWAP4 POP PUSH2 0x1899 PUSH1 0x80 DUP10 ADD PUSH2 0x183C JUMP JUMPDEST SWAP7 SWAP10 SWAP6 SWAP9 POP SWAP4 SWAP7 SWAP3 SWAP6 SWAP5 PUSH1 0xA0 DUP5 ADD CALLDATALOAD SWAP5 POP PUSH1 0xC0 SWAP1 SWAP4 ADD CALLDATALOAD SWAP3 SWAP2 POP POP JUMP JUMPDEST PUSH0 PUSH0 PUSH1 0x40 DUP4 DUP6 SUB SLT ISZERO PUSH2 0x18C7 JUMPI PUSH0 PUSH0 REVERT JUMPDEST DUP3 CALLDATALOAD PUSH2 0x18D2 DUP2 PUSH2 0x1605 JUMP JUMPDEST SWAP2 POP PUSH1 0x20 DUP4 ADD CALLDATALOAD PUSH2 0x1831 DUP2 PUSH2 0x1605 JUMP JUMPDEST PUSH1 0x1 DUP2 DUP2 SHR SWAP1 DUP3 AND DUP1 PUSH2 0x18F6 JUMPI PUSH1 0x7F DUP3 AND SWAP2 POP JUMPDEST PUSH1 0x20 DUP3 LT DUP2 SUB PUSH2 0x17A1 JUMPI PUSH4 0x4E487B71 PUSH1 0xE0 SHL PUSH0 MSTORE PUSH1 0x22 PUSH1 0x4 MSTORE PUSH1 0x24 PUSH0 REVERT JUMPDEST DUP2 DUP4 DUP3 CALLDATACOPY PUSH0 SWAP2 ADD SWAP1 DUP2 MSTORE SWAP2 SWAP1 POP JUMP JUMPDEST PUSH0 PUSH1 0x20 DUP3 DUP5 SUB SLT ISZERO PUSH2 0x1933 JUMPI PUSH0 PUSH0 REVERT JUMPDEST DUP2 MLOAD DUP1 ISZERO ISZERO DUP2 EQ PUSH2 0xC1D JUMPI PUSH0 PUSH0 REVERT JUMPDEST PUSH0 PUSH1 0x20 DUP3 DUP5 SUB SLT ISZERO PUSH2 0x1952 JUMPI PUSH0 PUSH0 REVERT JUMPDEST POP MLOAD SWAP2 SWAP1 POP JUMP JUMPDEST PUSH4 0x4E487B71 PUSH1 0xE0 SHL PUSH0 MSTORE PUSH1 0x11 PUSH1 0x4 MSTORE PUSH1 0x24 PUSH0 REVERT JUMPDEST DUP2 DUP2 SUB DUP2 DUP2 GT ISZERO PUSH2 0x856 JUMPI PUSH2 0x856 PUSH2 0x1959 JUMP JUMPDEST DUP1 DUP3 ADD DUP1 DUP3 GT ISZERO PUSH2 0x856 JUMPI PUSH2 0x856 PUSH2 0x1959 JUMP JUMPDEST DUP1 DUP3 MUL DUP2 ISZERO DUP3 DUP3 DIV DUP5 EQ OR PUSH2 0x856 JUMPI PUSH2 0x856 PUSH2 0x1959 JUMP JUMPDEST PUSH0 DUP3 PUSH2 0x19C4 JUMPI PUSH4 0x4E487B71 PUSH1 0xE0 SHL PUSH0 MSTORE PUSH1 0x12 PUSH1 0x4 MSTORE PUSH1 0x24 PUSH0 REVERT JUMPDEST POP DIV SWAP1 JUMP JUMPDEST PUSH0 PUSH1 0x20 DUP3 DUP5 SUB SLT ISZERO PUSH2 0x19D9 JUMPI PUSH0 PUSH0 REVERT JUMPDEST PUSH2 0xC1D DUP3 PUSH2 0x183C JUMP JUMPDEST PUSH1 0x1 PUSH1 0x1 PUSH1 0xA0 SHL SUB DUP6 AND DUP2 MSTORE PUSH1 0x20 DUP2 ADD DUP5 SWAP1 MSTORE PUSH1 0x60 PUSH1 0x40 DUP3 ADD DUP2 SWAP1 MSTORE DUP2 ADD DUP3 SWAP1 MSTORE DUP2 DUP4 PUSH1 0x80 DUP4 ADD CALLDATACOPY PUSH0 DUP2 DUP4 ADD PUSH1 0x80 SWAP1 DUP2 ADD SWAP2 SWAP1 SWAP2 MSTORE PUSH1 0x1F SWAP1 SWAP3 ADD PUSH1 0x1F NOT AND ADD ADD SWAP4 SWAP3 POP POP POP JUMP JUMPDEST PUSH0 PUSH1 0x20 DUP3 DUP5 SUB SLT ISZERO PUSH2 0x1A39 JUMPI PUSH0 PUSH0 REVERT JUMPDEST DUP2 MLOAD PUSH1 0x1 PUSH1 0x1 PUSH1 0xE0 SHL SUB NOT DUP2 AND DUP2 EQ PUSH2 0xC1D JUMPI PUSH0 PUSH0 REVERT INVALID 0xDD CALLCODE MSTORE 0xAD SHL 0xE2 0xC8 SWAP12 PUSH10 0xC2B068FC378DAA952BA7 CALL PUSH4 0xC4A11628 CREATE2 GAS 0x4D CREATE2 0x23 0xB3 0xEF LOG2 PUSH5 0x6970667358 0x22 SLT KECCAK256 EXP DUP7 SAR TIMESTAMP 0xD4 0xB0 CALLDATASIZE SELFBALANCE 0xF6 0xB7 0xEA 0xEF EQ DUP9 0xD7 DUP9 PUSH17 0x23BB673217D144FF8D56E6C2C2DC4D6473 PUSH16 0x6C634300081C00330000000000000000 "
				},
				"gasEstimates": {
					"creation": {
						"codeDepositCost": "1364400",
						"executionCost": "infinite",
						"totalCost": "infinite"
					},
					"external": {
						"DOMAIN_SEPARATOR()": "infinite",
						"allowance(address,address)": "infinite",
						"approve(address,uint256)": "24448",
						"asset()": "infinite",
						"balanceOf(address)": "2580",
						"customCall(address,uint256,bytes)": "infinite",
						"decimals()": "222",
						"erc20BuyableRate()": "infinite",
						"erc20BuyableTime()": "2404",
						"erc20SellInhibitor()": "infinite",
						"erc20ToNativePrice(uint256)": "infinite",
						"erc20sBuyable()": "infinite",
						"name()": "infinite",
						"nameHash()": "infinite",
						"nativeBuyableRate()": "infinite",
						"nativeSellInhibitor()": "infinite",
						"nativeToERC20Price(uint256)": "infinite",
						"nativesBuyable()": "infinite",
						"nonces(address)": "2559",
						"owner()": "2442",
						"permit(address,address,uint256,uint256,uint8,bytes32,bytes32)": "infinite",
						"renounceOwnership()": "infinite",
						"swapERC20ToNative(address,uint256,address)": "infinite",
						"swapERC20ToNative(uint256)": "infinite",
						"swapERC20ToNative(uint256,(uint256,uint8,bytes32,bytes32))": "infinite",
						"swapERC20ToNative(uint256,address)": "infinite",
						"swapERC20ToNative(uint256,address,(uint256,uint8,bytes32,bytes32))": "infinite",
						"swapERC223LToNative(address,uint256,address)": "infinite",
						"swapNativeToERC20()": "infinite",
						"swapNativeToERC20(address)": "infinite",
						"swapNativeToERC20(address,uint256,address)": "infinite",
						"symbol()": "infinite",
						"tokenReceived(address,uint256,bytes)": "infinite",
						"totalSupply()": "2381",
						"transfer(address,uint256)": "infinite",
						"transfer(address,uint256,bytes)": "infinite",
						"transferFrom(address,address,uint256)": "infinite",
						"transferOwnership(address)": "infinite"
					},
					"internal": {
						"_constantNameHash()": "infinite",
						"_transferERC20sBought(address,uint256)": "infinite"
					}
				},
				"methodIdentifiers": {
					"DOMAIN_SEPARATOR()": "3644e515",
					"allowance(address,address)": "dd62ed3e",
					"approve(address,uint256)": "095ea7b3",
					"asset()": "38d52e0f",
					"balanceOf(address)": "70a08231",
					"customCall(address,uint256,bytes)": "10ab2d01",
					"decimals()": "313ce567",
					"erc20BuyableRate()": "f86329e1",
					"erc20BuyableTime()": "e46dbd07",
					"erc20SellInhibitor()": "82e3d8bd",
					"erc20ToNativePrice(uint256)": "4206abe9",
					"erc20sBuyable()": "f4d0bd72",
					"name()": "06fdde03",
					"nameHash()": "f172a4ce",
					"nativeBuyableRate()": "7cc27b40",
					"nativeSellInhibitor()": "058d1573",
					"nativeToERC20Price(uint256)": "7b383f18",
					"nativesBuyable()": "b3ca7f2a",
					"nonces(address)": "7ecebe00",
					"owner()": "8da5cb5b",
					"permit(address,address,uint256,uint256,uint8,bytes32,bytes32)": "d505accf",
					"renounceOwnership()": "715018a6",
					"swapERC20ToNative(address,uint256,address)": "17b31167",
					"swapERC20ToNative(uint256)": "6032f600",
					"swapERC20ToNative(uint256,(uint256,uint8,bytes32,bytes32))": "6263913c",
					"swapERC20ToNative(uint256,address)": "b3841f26",
					"swapERC20ToNative(uint256,address,(uint256,uint8,bytes32,bytes32))": "94ef2103",
					"swapERC223LToNative(address,uint256,address)": "fc028523",
					"swapNativeToERC20()": "223ecf7e",
					"swapNativeToERC20(address)": "12958a6b",
					"swapNativeToERC20(address,uint256,address)": "e5aca599",
					"symbol()": "95d89b41",
					"tokenReceived(address,uint256,bytes)": "8943ec02",
					"totalSupply()": "18160ddd",
					"transfer(address,uint256)": "a9059cbb",
					"transfer(address,uint256,bytes)": "be45fd62",
					"transferFrom(address,address,uint256)": "23b872dd",
					"transferOwnership(address)": "f2fde38b"
				}
			},
			"storageLayout": {
				"storage": [
					{
						"astId": 803,
						"contract": "src/PinusVault.sol:PinusVault",
						"label": "erc20BuyableTime",
						"offset": 0,
						"slot": "0",
						"type": "t_uint256"
					},
					{
						"astId": 807,
						"contract": "src/PinusVault.sol:PinusVault",
						"label": "_nativeBuyableTime",
						"offset": 0,
						"slot": "1",
						"type": "t_uint256"
					},
					{
						"astId": 8,
						"contract": "src/PinusVault.sol:PinusVault",
						"label": "_owner",
						"offset": 0,
						"slot": "2",
						"type": "t_address"
					},
					{
						"astId": 970,
						"contract": "src/PinusVault.sol:PinusVault",
						"label": "_name",
						"offset": 0,
						"slot": "3",
						"type": "t_string_storage"
					},
					{
						"astId": 972,
						"contract": "src/PinusVault.sol:PinusVault",
						"label": "_symbol",
						"offset": 0,
						"slot": "4",
						"type": "t_string_storage"
					}
				],
				"types": {
					"t_address": {
						"encoding": "inplace",
						"label": "address",
						"numberOfBytes": "20"
					},
					"t_string_storage": {
						"encoding": "bytes",
						"label": "string",
						"numberOfBytes": "32"
					},
					"t_uint256": {
						"encoding": "inplace",
						"label": "uint256",
						"numberOfBytes": "32"
					}
				}
			},
			"userdoc": {
				"kind": "user",
				"methods": {},
				"version": 1
			}
		}
	}
}