{
	"data": {
		"bytecode": {
			"linkReferences": {},
			"object": "610120604052425f5542600155348015610017575f5ffd5b5060405161249c38038061249c83398101604081905261003691610082565b6001600160a01b039094166080526001600160801b0392831660a05290821660c052811660e05216610100526100f0565b80516001600160801b038116811461007d575f5ffd5b919050565b5f5f5f5f5f60a08688031215610096575f5ffd5b85516001600160a01b03811681146100ac575f5ffd5b94506100ba60208701610067565b93506100c860408701610067565b92506100d660608701610067565b91506100e460808701610067565b90509295509295909350565b60805160a05160c05160e051610100516122c06101dc5f395f81816106150152611a3e01525f818161047a0152818161089601528181610f96015261160701525f81816103e40152610cbd01525f81816104e001528181610a6f0152818161118401526113b201525f818161042f01528181610792015281816108f7015281816109cb01528181610ac001528181610dc301528181610e7b01528181610ffc015281816110ec015281816112540152818161130b015281816114d4015281816116680152818161174c0152818161195e01528181611aa201528181611b7a0152611c2201526122c05ff3fe608060405260043610610233575f3560e01c806370a0823111610129578063ba087652116100a8578063dd62ed3e1161006d578063dd62ed3e146106c4578063de899d1f146106f8578063ea6b80b714610717578063ef8b30f714610736578063f340fa0114610755575f5ffd5b8063ba0876521461063f578063bc7105751461065e578063c1a4845f14610671578063c6e6f59214610684578063d505accf146106a3575f5ffd5b806395d89b41116100ee57806395d89b41146105bd57806396a3958d146105d1578063a9059cbb146105e5578063ad33096714610604578063aea1e3d114610637575f5ffd5b806370a08231146105155780637ecebe001461054657806381f2d34e146105775780638a2c9cef1461058b5780638a48b2a5146105aa575f5ffd5b806325d1782d116101b55780633aeeade81161017a5780633aeeade814610469578063421c6a8a1461049c5780634cdad506146104b05780634d016295146104cf5780636e553f6514610502575f5ffd5b806325d1782d14610385578063313ce567146103a45780633644e515146103bf578063367ada10146103d357806338d52e0f1461041e575f5ffd5b80630f2a403f116101fb5780630f2a403f146102f7578063127d04091461030c57806318160ddd1461032b57806319cdf2841461034757806323b872dd14610366575f5ffd5b806304c764e11461023757806306fdde031461026957806307a2d13a1461028a57806308e30698146102a9578063095ea7b3146102c8575b5f5ffd5b348015610242575f5ffd5b50610256610251366004611df5565b610768565b6040519081526020015b60405180910390f35b348015610274575f5ffd5b5061027d61096b565b6040516102609190611e34565b348015610295575f5ffd5b506102566102a4366004611e69565b6109a2565b3480156102b4575f5ffd5b506102566102c3366004611e80565b610a56565b3480156102d3575f5ffd5b506102e76102e2366004611eae565b610b9c565b6040519015158152602001610260565b348015610302575f5ffd5b5061025660015481565b348015610317575f5ffd5b50610256610326366004611e69565b610beb565b348015610336575f5ffd5b506805345cdf77eb68f44c54610256565b348015610352575f5ffd5b50610256610361366004611ee8565b610bf6565b348015610371575f5ffd5b506102e7610380366004611f13565b610c09565b348015610390575f5ffd5b5061025661039f366004611e69565b610cae565b3480156103af575f5ffd5b5060405160128152602001610260565b3480156103ca575f5ffd5b50610256610d11565b3480156103de575f5ffd5b506104067f000000000000000000000000000000000000000000000000000000000000000081565b6040516001600160801b039091168152602001610260565b348015610429575f5ffd5b506104517f000000000000000000000000000000000000000000000000000000000000000081565b6040516001600160a01b039091168152602001610260565b348015610474575f5ffd5b506104067f000000000000000000000000000000000000000000000000000000000000000081565b3480156104a7575f5ffd5b506102565f5481565b3480156104bb575f5ffd5b506102566104ca366004611e69565b610d8d565b3480156104da575f5ffd5b506104067f000000000000000000000000000000000000000000000000000000000000000081565b610256610510366004611e80565b610d97565b348015610520575f5ffd5b5061025661052f366004611f51565b6387a211a2600c9081525f91909152602090205490565b348015610551575f5ffd5b50610256610560366004611f51565b6338377508600c9081525f91909152602090205490565b348015610582575f5ffd5b50610256610f93565b348015610596575f5ffd5b506102566105a5366004611df5565b610fdb565b6102566105b8366004611e80565b611218565b3480156105c8575f5ffd5b5061027d611307565b3480156105dc575f5ffd5b506102566113af565b3480156105f0575f5ffd5b506102e76105ff366004611eae565b6113e7565b34801561060f575f5ffd5b506104067f000000000000000000000000000000000000000000000000000000000000000081565b61025661144b565b34801561064a575f5ffd5b50610256610659366004611f6c565b611455565b61025661066c366004611f51565b6115ee565b61025661067f366004611f51565b6116d8565b34801561068f575f5ffd5b5061025661069e366004611e69565b611735565b3480156106ae575f5ffd5b506106c26106bd366004611fb0565b6117cf565b005b3480156106cf575f5ffd5b506102566106de36600461201a565b602052637f5e9f20600c9081525f91909152603490205490565b348015610703575f5ffd5b50610256610712366004612046565b611953565b348015610722575f5ffd5b50610256610731366004611e69565b611a2f565b348015610741575f5ffd5b50610256610750366004611e69565b611b1b565b610256610763366004611f51565b611b25565b60405163095ea7b360e01b81526001600160a01b038481166004830152602482018490525f9147917f0000000000000000000000000000000000000000000000000000000000000000169063095ea7b3906044016020604051808303815f875af11580156107d8573d5f5f3e3d5ffd5b505050506040513d601f19601f820116820180604052508101906107fc9190612082565b5060405163127d040960e01b8152600481018590526001600160a01b0386169063127d0409906024016020604051808303815f875af1158015610841573d5f5f3e3d5ffd5b505050506040513d601f19601f8201168201806040525081019061086591906120a1565b505f61087182476120cc565b90508461087d82611a2f565b61088791906120cc565b92506108bc6001600160801b037f000000000000000000000000000000000000000000000000000000000000000016846120df565b60015f8282546108cc91906120fe565b909155505060405163a9059cbb60e01b81526001600160a01b038581166004830152602482018590527f0000000000000000000000000000000000000000000000000000000000000000169063a9059cbb906044016020604051808303815f875af115801561093d573d5f5f3e3d5ffd5b505050506040513d601f19601f820116820180604052508101906109619190612082565b5050509392505050565b60408051808201909152601781527f4171756974617264204c697175696469747920506f6f6c000000000000000000602082015290565b5f6109b46805345cdf77eb68f44c5490565b6040516370a0823160e01b815230600482015283907f00000000000000000000000000000000000000000000000000000000000000006001600160a01b0316906370a0823190602401602060405180830381865afa158015610a18573d5f5f3e3d5ffd5b505050506040513d601f19601f82011682018060405250810190610a3c91906120a1565b610a469190612111565b610a5091906120df565b92915050565b5f610a6083610cae565b9050610a956001600160801b037f000000000000000000000000000000000000000000000000000000000000000016826120df565b5f5f828254610aa491906120fe565b90915550506040516323b872dd60e01b81526001600160a01b037f000000000000000000000000000000000000000000000000000000000000000016906323b872dd90610af990339030908890600401612128565b6020604051808303815f875af1158015610b15573d5f5f3e3d5ffd5b505050506040513d601f19601f82011682018060405250810190610b399190612082565b505f826001600160a01b0316826040515f6040518083038185875af1925050503d805f8114610b83576040519150601f19603f3d011682016040523d82523d5f602084013e610b88565b606091505b5050905080610b95575f5ffd5b5092915050565b5f82602052637f5e9f20600c52335f52816034600c2055815f52602c5160601c337f8c5be1e5ebec7d5bd14f71427d1e84f3dd0314c0f7b2291e5b200ac8c7c3b92560205fa350600192915050565b5f610a508233610a56565b5f610c02833384611953565b9392505050565b5f8360601b33602052637f5e9f208117600c526034600c208054801915610c455780851115610c3f576313be252b5f526004601cfd5b84810382555b50506387a211a28117600c526020600c20805480851115610c6d5763f4d678b85f526004601cfd5b84810382555050835f526020600c208381540181555082602052600c5160601c8160601c5f51602061224b5f395f51905f52602080a3505060019392505050565b5f610ce2826001600160801b037f0000000000000000000000000000000000000000000000000000000000000000166120fe565b82610ceb6113af565b610cf59190612111565b610cff91906120df565b905080471015610d0c5750475b919050565b5f80610d1b61096b565b805190602001209050604080517f8b73c3c69bb8fe3d512ecc4cf759cc79239f7b179b0ffacaa9a75d522b39400f815260208101929092527fc89efdaa54c0f20c7adf612882df0950f5a951637e0307cdcb4c672f298b8bc69082015246606082015230608082015260a09020919050565b5f610a50826109a2565b5f610da183611b1b565b6040516370a0823160e01b81523060048201529091505f906001600160a01b037f000000000000000000000000000000000000000000000000000000000000000016906370a0823190602401602060405180830381865afa158015610e08573d5f5f3e3d5ffd5b505050506040513d601f19601f82011682018060405250810190610e2c91906120a1565b84610e3734476120cc565b610e419190612111565b610e4b91906120df565b90505f610e5882346120cc565b9050610e648484611cd5565b6040516323b872dd60e01b81526001600160a01b037f000000000000000000000000000000000000000000000000000000000000000016906323b872dd90610eb490339030908a90600401612128565b6020604051808303815f875af1158015610ed0573d5f5f3e3d5ffd5b505050506040513d601f19601f82011682018060405250810190610ef49190612082565b508015610f58575f846001600160a01b0316826040515f6040518083038185875af1925050503d805f8114610f44576040519150601f19603f3d011682016040523d82523d5f602084013e610f49565b606091505b5050905080610f56575f5ffd5b505b60408051868152602081018590526001600160a01b0386169133915f51602061226b5f395f51905f52910160405180910390a3505092915050565b5f7f00000000000000000000000000000000000000000000000000000000000000006001600160801b031660015442610fcc91906120cc565b610fd69190612111565b905090565b6040516370a0823160e01b81523060048201525f9081906001600160a01b037f000000000000000000000000000000000000000000000000000000000000000016906370a0823190602401602060405180830381865afa158015611041573d5f5f3e3d5ffd5b505050506040513d601f19601f8201168201806040525081019061106591906120a1565b9050846001600160a01b031663aea1e3d1856040518263ffffffff1660e01b815260040160206040518083038185885af11580156110a5573d5f5f3e3d5ffd5b50505050506040513d601f19601f820116820180604052508101906110ca91906120a1565b506040516370a0823160e01b81523060048201525f9082906001600160a01b037f000000000000000000000000000000000000000000000000000000000000000016906370a0823190602401602060405180830381865afa158015611131573d5f5f3e3d5ffd5b505050506040513d601f19601f8201168201806040525081019061115591906120a1565b61115f91906120cc565b90508461116b82610cae565b61117591906120cc565b92506111aa6001600160801b037f000000000000000000000000000000000000000000000000000000000000000016846120df565b5f5f8282546111b991906120fe565b90915550506040515f906001600160a01b0386169085908381818185875af1925050503d805f8114611206576040519150601f19603f3d011682016040523d82523d5f602084013e61120b565b606091505b5050905080610961575f5ffd5b8161122a6805345cdf77eb68f44c5490565b15611233575f5ffd5b61123d8282611cd5565b6040516323b872dd60e01b81526001600160a01b037f000000000000000000000000000000000000000000000000000000000000000016906323b872dd9061128d90339030908890600401612128565b6020604051808303815f875af11580156112a9573d5f5f3e3d5ffd5b505050506040513d601f19601f820116820180604052508101906112cd9190612082565b5060408051848152602081018390526001600160a01b0384169133915f51602061226b5f395f51905f52910160405180910390a392915050565b60607f00000000000000000000000000000000000000000000000000000000000000006001600160a01b03166395d89b416040518163ffffffff1660e01b81526004015f60405180830381865afa158015611364573d5f5f3e3d5ffd5b505050506040513d5f823e601f3d908101601f1916820160405261138b9190810190612160565b60405160200161139b9190612213565b604051602081830303815290604052905090565b5f7f00000000000000000000000000000000000000000000000000000000000000006001600160801b03165f5442610fcc91906120cc565b5f6387a211a2600c52335f526020600c2080548084111561140f5763f4d678b85f526004601cfd5b83810382555050825f526020600c208281540181555081602052600c5160601c335f51602061224b5f395f51905f52602080a350600192915050565b5f610fd6336115ee565b5f61145f84610d8d565b9050336001600160a01b0383161461147c5761147c823386611d3e565b5f61148e6805345cdf77eb68f44c5490565b6114988647612111565b6114a291906120df565b90506114ae8386611d7d565b60405163a9059cbb60e01b81526001600160a01b038581166004830152602482018490527f0000000000000000000000000000000000000000000000000000000000000000169063a9059cbb906044016020604051808303815f875af115801561151a573d5f5f3e3d5ffd5b505050506040513d601f19601f8201168201806040525081019061153e9190612082565b505f846001600160a01b0316826040515f6040518083038185875af1925050503d805f8114611588576040519150601f19603f3d011682016040523d82523d5f602084013e61158d565b606091505b505090508061159a575f5ffd5b60408051848152602081018890526001600160a01b03808716929088169133917ffbde797d201c681b91056529119e0b02407c7bb96a4a2c75c01fc9667232c8db910160405180910390a450509392505050565b5f6115f834611a2f565b905061162d6001600160801b037f000000000000000000000000000000000000000000000000000000000000000016826120df565b60015f82825461163d91906120fe565b909155505060405163a9059cbb60e01b81526001600160a01b038381166004830152602482018390527f0000000000000000000000000000000000000000000000000000000000000000169063a9059cbb906044016020604051808303815f875af11580156116ae573d5f5f3e3d5ffd5b505050506040513d601f19601f820116820180604052508101906116d29190612082565b50919050565b346116ea6805345cdf77eb68f44c5490565b156116f3575f5ffd5b6116fd8282611cd5565b604080515f8152602081018390526001600160a01b0384169133915f51602061226b5f395f51905f52910160405180910390a3919050565b6040516370a0823160e01b81523060048201525f907f00000000000000000000000000000000000000000000000000000000000000006001600160a01b0316906370a0823190602401602060405180830381865afa158015611799573d5f5f3e3d5ffd5b505050506040513d601f19601f820116820180604052508101906117bd91906120a1565b82610a3c6805345cdf77eb68f44c5490565b5f6117d861096b565b8051906020012090507fc89efdaa54c0f20c7adf612882df0950f5a951637e0307cdcb4c672f298b8bc64286101561181757631a15a3cc5f526004601cfd5b6040518960601b60601c99508860601b60601c985065383775081901600e52895f526020600c2080547f8b73c3c69bb8fe3d512ecc4cf759cc79239f7b179b0ffacaa9a75d522b39400f835284602084015283604084015246606084015230608084015260a08320602e527f6e71edae12b1b97f4d1f60370fef10105fa2faae0126114a169c64845d6126c983528b60208401528a60408401528960608401528060808401528860a084015260c08320604e526042602c205f528760ff16602052866040528560605260208060805f60015afa8c3d51146118ff5763ddafbaef5f526004601cfd5b0190556303faf4f960a51b89176040526034602c20889055888a7f8c5be1e5ebec7d5bd14f71427d1e84f3dd0314c0f7b2291e5b200ac8c7c3b925602060608501a360405250505f60605250505050505050565b5f6001600160a01b037f00000000000000000000000000000000000000000000000000000000000000001663d505accf33308786356119986040890160208a01612231565b604080516001600160e01b031960e089901b1681526001600160a01b0396871660048201529590941660248601526044850192909252606484015260ff16608483015285013560a4820152606085013560c482015260e4015f604051808303815f87803b158015611a07575f5ffd5b505af1158015611a19573d5f5f3e3d5ffd5b50505050611a278484610a56565b949350505050565b5f611a63826001600160801b037f0000000000000000000000000000000000000000000000000000000000000000166120fe565b82611a6c610f93565b611a769190612111565b611a8091906120df565b6040516370a0823160e01b81523060048201529091505f906001600160a01b037f000000000000000000000000000000000000000000000000000000000000000016906370a0823190602401602060405180830381865afa158015611ae7573d5f5f3e3d5ffd5b505050506040513d601f19601f82011682018060405250810190611b0b91906120a1565b9050818110156116d25792915050565b5f610a5082611735565b5f611b3034476120cc565b34611b426805345cdf77eb68f44c5490565b611b4c9190612111565b611b5691906120df565b90505f611b6334476120cc565b6040516370a0823160e01b815230600482015234907f00000000000000000000000000000000000000000000000000000000000000006001600160a01b0316906370a0823190602401602060405180830381865afa158015611bc7573d5f5f3e3d5ffd5b505050506040513d601f19601f82011682018060405250810190611beb91906120a1565b611bf59190612111565b611bff91906120df565b9050611c0b8383611cd5565b6040516323b872dd60e01b81526001600160a01b037f000000000000000000000000000000000000000000000000000000000000000016906323b872dd90611c5b90339030908690600401612128565b6020604051808303815f875af1158015611c77573d5f5f3e3d5ffd5b505050506040513d601f19601f82011682018060405250810190611c9b9190612082565b5060408051828152602081018490526001600160a01b0385169133915f51602061226b5f395f51905f52910160405180910390a350919050565b6805345cdf77eb68f44c5481810181811015611cf85763e5cfe9575f526004601cfd5b806805345cdf77eb68f44c5550506387a211a2600c52815f526020600c208181540181555080602052600c5160601c5f5f51602061224b5f395f51905f52602080a35050565b81602052637f5e9f20600c52825f526034600c208054801915611d765780831115611d70576313be252b5f526004601cfd5b82810382555b5050505050565b6387a211a2600c52815f526020600c20805480831115611da45763f4d678b85f526004601cfd5b82900390556805345cdf77eb68f44c805482900390555f8181526001600160a01b0383165f51602061224b5f395f51905f52602083a35050565b6001600160a01b0381168114611df2575f5ffd5b50565b5f5f5f60608486031215611e07575f5ffd5b8335611e1281611dde565b9250602084013591506040840135611e2981611dde565b809150509250925092565b602081525f82518060208401528060208501604085015e5f604082850101526040601f19601f83011684010191505092915050565b5f60208284031215611e79575f5ffd5b5035919050565b5f5f60408385031215611e91575f5ffd5b823591506020830135611ea381611dde565b809150509250929050565b5f5f60408385031215611ebf575f5ffd5b8235611eca81611dde565b946020939093013593505050565b5f608082840312156116d2575f5ffd5b5f5f60a08385031215611ef9575f5ffd5b82359150611f0a8460208501611ed8565b90509250929050565b5f5f5f60608486031215611f25575f5ffd5b8335611f3081611dde565b92506020840135611f4081611dde565b929592945050506040919091013590565b5f60208284031215611f61575f5ffd5b8135610c0281611dde565b5f5f5f60608486031215611f7e575f5ffd5b833592506020840135611f9081611dde565b91506040840135611e2981611dde565b803560ff81168114610d0c575f5ffd5b5f5f5f5f5f5f5f60e0888a031215611fc6575f5ffd5b8735611fd181611dde565b96506020880135611fe181611dde565b95506040880135945060608801359350611ffd60808901611fa0565b9699959850939692959460a0840135945060c09093013592915050565b5f5f6040838503121561202b575f5ffd5b823561203681611dde565b91506020830135611ea381611dde565b5f5f5f60c08486031215612058575f5ffd5b83359250602084013561206a81611dde565b91506120798560408601611ed8565b90509250925092565b5f60208284031215612092575f5ffd5b81518015158114610c02575f5ffd5b5f602082840312156120b1575f5ffd5b5051919050565b634e487b7160e01b5f52601160045260245ffd5b81810381811115610a5057610a506120b8565b5f826120f957634e487b7160e01b5f52601260045260245ffd5b500490565b80820180821115610a5057610a506120b8565b8082028115828204841417610a5057610a506120b8565b6001600160a01b039384168152919092166020820152604081019190915260600190565b634e487b7160e01b5f52604160045260245ffd5b5f60208284031215612170575f5ffd5b815167ffffffffffffffff811115612186575f5ffd5b8201601f81018413612196575f5ffd5b805167ffffffffffffffff8111156121b0576121b061214c565b604051601f8201601f19908116603f0116810167ffffffffffffffff811182821017156121df576121df61214c565b6040528181528282016020018610156121f6575f5ffd5b8160208401602083015e5f91810160200191909152949350505050565b5f82518060208501845e6104c560f41b920191825250600201919050565b5f60208284031215612241575f5ffd5b610c0282611fa056feddf252ad1be2c89b69c2b068fc378daa952ba7f163c4a11628f55a4df523b3efdcbc1c05240f31ff3ad067ef1ee35ce4997762752e3a095284754544f4c709d7a26469706673582212207796afeac98b710cd39ad473b470d11f505871ae43ff985b7216ec16bb83fc1b64736f6c634300081c0033",
			"opcodes": "PUSH2 0x120 PUSH1 0x40 MSTORE TIMESTAMP PUSH0 SSTORE TIMESTAMP PUSH1 0x1 SSTORE CALLVALUE DUP1 ISZERO PUSH2 0x17 JUMPI PUSH0 PUSH0 REVERT JUMPDEST POP PUSH1 0x40 MLOAD PUSH2 0x249C CODESIZE SUB DUP1 PUSH2 0x249C DUP4 CODECOPY DUP2 ADD PUSH1 0x40 DUP2 SWAP1 MSTORE PUSH2 0x36 SWAP2 PUSH2 0x82 JUMP JUMPDEST PUSH1 0x1 PUSH1 0x1 PUSH1 0xA0 SHL SUB SWAP1 SWAP5 AND PUSH1 0x80 MSTORE PUSH1 0x1 PUSH1 0x1 PUSH1 0x80 SHL SUB SWAP3 DUP4 AND PUSH1 0xA0 MSTORE SWAP1 DUP3 AND PUSH1 0xC0 MSTORE DUP2 AND PUSH1 0xE0 MSTORE AND PUSH2 0x100 MSTORE PUSH2 0xF0 JUMP JUMPDEST DUP1 MLOAD PUSH1 0x1 PUSH1 0x1 PUSH1 0x80 SHL SUB DUP2 AND DUP2 EQ PUSH2 0x7D JUMPI PUSH0 PUSH0 REVERT JUMPDEST SWAP2 SWAP1 POP JUMP JUMPDEST PUSH0 PUSH0 PUSH0 PUSH0 PUSH0 PUSH1 0xA0 DUP7 DUP9 SUB SLT ISZERO PUSH2 0x96 JUMPI PUSH0 PUSH0 REVERT JUMPDEST DUP6 MLOAD PUSH1 0x1 PUSH1 0x1 PUSH1 0xA0 SHL SUB DUP2 AND DUP2 EQ PUSH2 0xAC JUMPI PUSH0 PUSH0 REVERT JUMPDEST SWAP5 POP PUSH2 0xBA PUSH1 0x20 DUP8 ADD PUSH2 0x67 JUMP JUMPDEST SWAP4 POP PUSH2 0xC8 PUSH1 0x40 DUP8 ADD PUSH2 0x67 JUMP JUMPDEST SWAP3 POP PUSH2 0xD6 PUSH1 0x60 DUP8 ADD PUSH2 0x67 JUMP JUMPDEST SWAP2 POP PUSH2 0xE4 PUSH1 0x80 DUP8 ADD PUSH2 0x67 JUMP JUMPDEST SWAP1 POP SWAP3 SWAP6 POP SWAP3 SWAP6 SWAP1 SWAP4 POP JUMP JUMPDEST PUSH1 0x80 MLOAD PUSH1 0xA0 MLOAD PUSH1 0xC0 MLOAD PUSH1 0xE0 MLOAD PUSH2 0x100 MLOAD PUSH2 0x22C0 PUSH2 0x1DC PUSH0 CODECOPY PUSH0 DUP2 DUP2 PUSH2 0x615 ADD MSTORE PUSH2 0x1A3E ADD MSTORE PUSH0 DUP2 DUP2 PUSH2 0x47A ADD MSTORE DUP2 DUP2 PUSH2 0x896 ADD MSTORE DUP2 DUP2 PUSH2 0xF96 ADD MSTORE PUSH2 0x1607 ADD MSTORE PUSH0 DUP2 DUP2 PUSH2 0x3E4 ADD MSTORE PUSH2 0xCBD ADD MSTORE PUSH0 DUP2 DUP2 PUSH2 0x4E0 ADD MSTORE DUP2 DUP2 PUSH2 0xA6F ADD MSTORE DUP2 DUP2 PUSH2 0x1184 ADD MSTORE PUSH2 0x13B2 ADD MSTORE PUSH0 DUP2 DUP2 PUSH2 0x42F ADD MSTORE DUP2 DUP2 PUSH2 0x792 ADD MSTORE DUP2 DUP2 PUSH2 0x8F7 ADD MSTORE DUP2 DUP2 PUSH2 0x9CB ADD MSTORE DUP2 DUP2 PUSH2 0xAC0 ADD MSTORE DUP2 DUP2 PUSH2 0xDC3 ADD MSTORE DUP2 DUP2 PUSH2 0xE7B ADD MSTORE DUP2 DUP2 PUSH2 0xFFC ADD MSTORE DUP2 DUP2 PUSH2 0x10EC ADD MSTORE DUP2 DUP2 PUSH2 0x1254 ADD MSTORE DUP2 DUP2 PUSH2 0x130B ADD MSTORE DUP2 DUP2 PUSH2 0x14D4 ADD MSTORE DUP2 DUP2 PUSH2 0x1668 ADD MSTORE DUP2 DUP2 PUSH2 0x174C ADD MSTORE DUP2 DUP2 PUSH2 0x195E ADD MSTORE DUP2 DUP2 PUSH2 0x1AA2 ADD MSTORE DUP2 DUP2 PUSH2 0x1B7A ADD MSTORE PUSH2 0x1C22 ADD MSTORE PUSH2 0x22C0 PUSH0 RETURN INVALID PUSH1 0x80 PUSH1 0x40 MSTORE PUSH1 0x4 CALLDATASIZE LT PUSH2 0x233 JUMPI PUSH0 CALLDATALOAD PUSH1 0xE0 SHR DUP1 PUSH4 0x70A08231 GT PUSH2 0x129 JUMPI DUP1 PUSH4 0xBA087652 GT PUSH2 0xA8 JUMPI DUP1 PUSH4 0xDD62ED3E GT PUSH2 0x6D JUMPI DUP1 PUSH4 0xDD62ED3E EQ PUSH2 0x6C4 JUMPI DUP1 PUSH4 0xDE899D1F EQ PUSH2 0x6F8 JUMPI DUP1 PUSH4 0xEA6B80B7 EQ PUSH2 0x717 JUMPI DUP1 PUSH4 0xEF8B30F7 EQ PUSH2 0x736 JUMPI DUP1 PUSH4 0xF340FA01 EQ PUSH2 0x755 JUMPI PUSH0 PUSH0 REVERT JUMPDEST DUP1 PUSH4 0xBA087652 EQ PUSH2 0x63F JUMPI DUP1 PUSH4 0xBC710575 EQ PUSH2 0x65E JUMPI DUP1 PUSH4 0xC1A4845F EQ PUSH2 0x671 JUMPI DUP1 PUSH4 0xC6E6F592 EQ PUSH2 0x684 JUMPI DUP1 PUSH4 0xD505ACCF EQ PUSH2 0x6A3 JUMPI PUSH0 PUSH0 REVERT JUMPDEST DUP1 PUSH4 0x95D89B41 GT PUSH2 0xEE JUMPI DUP1 PUSH4 0x95D89B41 EQ PUSH2 0x5BD JUMPI DUP1 PUSH4 0x96A3958D EQ PUSH2 0x5D1 JUMPI DUP1 PUSH4 0xA9059CBB EQ PUSH2 0x5E5 JUMPI DUP1 PUSH4 0xAD330967 EQ PUSH2 0x604 JUMPI DUP1 PUSH4 0xAEA1E3D1 EQ PUSH2 0x637 JUMPI PUSH0 PUSH0 REVERT JUMPDEST DUP1 PUSH4 0x70A08231 EQ PUSH2 0x515 JUMPI DUP1 PUSH4 0x7ECEBE00 EQ PUSH2 0x546 JUMPI DUP1 PUSH4 0x81F2D34E EQ PUSH2 0x577 JUMPI DUP1 PUSH4 0x8A2C9CEF EQ PUSH2 0x58B JUMPI DUP1 PUSH4 0x8A48B2A5 EQ PUSH2 0x5AA JUMPI PUSH0 PUSH0 REVERT JUMPDEST DUP1 PUSH4 0x25D1782D GT PUSH2 0x1B5 JUMPI DUP1 PUSH4 0x3AEEADE8 GT PUSH2 0x17A JUMPI DUP1 PUSH4 0x3AEEADE8 EQ PUSH2 0x469 JUMPI DUP1 PUSH4 0x421C6A8A EQ PUSH2 0x49C JUMPI DUP1 PUSH4 0x4CDAD506 EQ PUSH2 0x4B0 JUMPI DUP1 PUSH4 0x4D016295 EQ PUSH2 0x4CF JUMPI DUP1 PUSH4 0x6E553F65 EQ PUSH2 0x502 JUMPI PUSH0 PUSH0 REVERT JUMPDEST DUP1 PUSH4 0x25D1782D EQ PUSH2 0x385 JUMPI DUP1 PUSH4 0x313CE567 EQ PUSH2 0x3A4 JUMPI DUP1 PUSH4 0x3644E515 EQ PUSH2 0x3BF JUMPI DUP1 PUSH4 0x367ADA10 EQ PUSH2 0x3D3 JUMPI DUP1 PUSH4 0x38D52E0F EQ PUSH2 0x41E JUMPI PUSH0 PUSH0 REVERT JUMPDEST DUP1 PUSH4 0xF2A403F GT PUSH2 0x1FB JUMPI DUP1 PUSH4 0xF2A403F EQ PUSH2 0x2F7 JUMPI DUP1 PUSH4 0x127D0409 EQ PUSH2 0x30C JUMPI DUP1 PUSH4 0x18160DDD EQ PUSH2 0x32B JUMPI DUP1 PUSH4 0x19CDF284 EQ PUSH2 0x347 JUMPI DUP1 PUSH4 0x23B872DD EQ PUSH2 0x366 JUMPI PUSH0 PUSH0 REVERT JUMPDEST DUP1 PUSH4 0x4C764E1 EQ PUSH2 0x237 JUMPI DUP1 PUSH4 0x6FDDE03 EQ PUSH2 0x269 JUMPI DUP1 PUSH4 0x7A2D13A EQ PUSH2 0x28A JUMPI DUP1 PUSH4 0x8E30698 EQ PUSH2 0x2A9 JUMPI DUP1 PUSH4 0x95EA7B3 EQ PUSH2 0x2C8 JUMPI JUMPDEST PUSH0 PUSH0 REVERT JUMPDEST CALLVALUE DUP1 ISZERO PUSH2 0x242 JUMPI PUSH0 PUSH0 REVERT JUMPDEST POP PUSH2 0x256 PUSH2 0x251 CALLDATASIZE PUSH1 0x4 PUSH2 0x1DF5 JUMP JUMPDEST PUSH2 0x768 JUMP JUMPDEST PUSH1 0x40 MLOAD SWAP1 DUP2 MSTORE PUSH1 0x20 ADD JUMPDEST PUSH1 0x40 MLOAD DUP1 SWAP2 SUB SWAP1 RETURN JUMPDEST CALLVALUE DUP1 ISZERO PUSH2 0x274 JUMPI PUSH0 PUSH0 REVERT JUMPDEST POP PUSH2 0x27D PUSH2 0x96B JUMP JUMPDEST PUSH1 0x40 MLOAD PUSH2 0x260 SWAP2 SWAP1 PUSH2 0x1E34 JUMP JUMPDEST CALLVALUE DUP1 ISZERO PUSH2 0x295 JUMPI PUSH0 PUSH0 REVERT JUMPDEST POP PUSH2 0x256 PUSH2 0x2A4 CALLDATASIZE PUSH1 0x4 PUSH2 0x1E69 JUMP JUMPDEST PUSH2 0x9A2 JUMP JUMPDEST CALLVALUE DUP1 ISZERO PUSH2 0x2B4 JUMPI PUSH0 PUSH0 REVERT JUMPDEST POP PUSH2 0x256 PUSH2 0x2C3 CALLDATASIZE PUSH1 0x4 PUSH2 0x1E80 JUMP JUMPDEST PUSH2 0xA56 JUMP JUMPDEST CALLVALUE DUP1 ISZERO PUSH2 0x2D3 JUMPI PUSH0 PUSH0 REVERT JUMPDEST POP PUSH2 0x2E7 PUSH2 0x2E2 CALLDATASIZE PUSH1 0x4 PUSH2 0x1EAE JUMP JUMPDEST PUSH2 0xB9C JUMP JUMPDEST PUSH1 0x40 MLOAD SWAP1 ISZERO ISZERO DUP2 MSTORE PUSH1 0x20 ADD PUSH2 0x260 JUMP JUMPDEST CALLVALUE DUP1 ISZERO PUSH2 0x302 JUMPI PUSH0 PUSH0 REVERT JUMPDEST POP PUSH2 0x256 PUSH1 0x1 SLOAD DUP2 JUMP JUMPDEST CALLVALUE DUP1 ISZERO PUSH2 0x317 JUMPI PUSH0 PUSH0 REVERT JUMPDEST POP PUSH2 0x256 PUSH2 0x326 CALLDATASIZE PUSH1 0x4 PUSH2 0x1E69 JUMP JUMPDEST PUSH2 0xBEB JUMP JUMPDEST CALLVALUE DUP1 ISZERO PUSH2 0x336 JUMPI PUSH0 PUSH0 REVERT JUMPDEST POP PUSH9 0x5345CDF77EB68F44C SLOAD PUSH2 0x256 JUMP JUMPDEST CALLVALUE DUP1 ISZERO PUSH2 0x352 JUMPI PUSH0 PUSH0 REVERT JUMPDEST POP PUSH2 0x256 PUSH2 0x361 CALLDATASIZE PUSH1 0x4 PUSH2 0x1EE8 JUMP JUMPDEST PUSH2 0xBF6 JUMP JUMPDEST CALLVALUE DUP1 ISZERO PUSH2 0x371 JUMPI PUSH0 PUSH0 REVERT JUMPDEST POP PUSH2 0x2E7 PUSH2 0x380 CALLDATASIZE PUSH1 0x4 PUSH2 0x1F13 JUMP JUMPDEST PUSH2 0xC09 JUMP JUMPDEST CALLVALUE DUP1 ISZERO PUSH2 0x390 JUMPI PUSH0 PUSH0 REVERT JUMPDEST POP PUSH2 0x256 PUSH2 0x39F CALLDATASIZE PUSH1 0x4 PUSH2 0x1E69 JUMP JUMPDEST PUSH2 0xCAE JUMP JUMPDEST CALLVALUE DUP1 ISZERO PUSH2 0x3AF JUMPI PUSH0 PUSH0 REVERT JUMPDEST POP PUSH1 0x40 MLOAD PUSH1 0x12 DUP2 MSTORE PUSH1 0x20 ADD PUSH2 0x260 JUMP JUMPDEST CALLVALUE DUP1 ISZERO PUSH2 0x3CA JUMPI PUSH0 PUSH0 REVERT JUMPDEST POP PUSH2 0x256 PUSH2 0xD11 JUMP JUMPDEST CALLVALUE DUP1 ISZERO PUSH2 0x3DE JUMPI PUSH0 PUSH0 REVERT JUMPDEST POP PUSH2 0x406 PUSH32 0x0 DUP2 JUMP JUMPDEST PUSH1 0x40 MLOAD PUSH1 0x1 PUSH1 0x1 PUSH1 0x80 SHL SUB SWAP1 SWAP2 AND DUP2 MSTORE PUSH1 0x20 ADD PUSH2 0x260 JUMP JUMPDEST CALLVALUE DUP1 ISZERO PUSH2 0x429 JUMPI PUSH0 PUSH0 REVERT JUMPDEST POP PUSH2 0x451 PUSH32 0x0 DUP2 JUMP JUMPDEST PUSH1 0x40 MLOAD PUSH1 0x1 PUSH1 0x1 PUSH1 0xA0 SHL SUB SWAP1 SWAP2 AND DUP2 MSTORE PUSH1 0x20 ADD PUSH2 0x260 JUMP JUMPDEST CALLVALUE DUP1 ISZERO PUSH2 0x474 JUMPI PUSH0 PUSH0 REVERT JUMPDEST POP PUSH2 0x406 PUSH32 0x0 DUP2 JUMP JUMPDEST CALLVALUE DUP1 ISZERO PUSH2 0x4A7 JUMPI PUSH0 PUSH0 REVERT JUMPDEST POP PUSH2 0x256 PUSH0 SLOAD DUP2 JUMP JUMPDEST CALLVALUE DUP1 ISZERO PUSH2 0x4BB JUMPI PUSH0 PUSH0 REVERT JUMPDEST POP PUSH2 0x256 PUSH2 0x4CA CALLDATASIZE PUSH1 0x4 PUSH2 0x1E69 JUMP JUMPDEST PUSH2 0xD8D JUMP JUMPDEST CALLVALUE DUP1 ISZERO PUSH2 0x4DA JUMPI PUSH0 PUSH0 REVERT JUMPDEST POP PUSH2 0x406 PUSH32 0x0 DUP2 JUMP JUMPDEST PUSH2 0x256 PUSH2 0x510 CALLDATASIZE PUSH1 0x4 PUSH2 0x1E80 JUMP JUMPDEST PUSH2 0xD97 JUMP JUMPDEST CALLVALUE DUP1 ISZERO PUSH2 0x520 JUMPI PUSH0 PUSH0 REVERT JUMPDEST POP PUSH2 0x256 PUSH2 0x52F CALLDATASIZE PUSH1 0x4 PUSH2 0x1F51 JUMP JUMPDEST PUSH4 0x87A211A2 PUSH1 0xC SWAP1 DUP2 MSTORE PUSH0 SWAP2 SWAP1 SWAP2 MSTORE PUSH1 0x20 SWAP1 KECCAK256 SLOAD SWAP1 JUMP JUMPDEST CALLVALUE DUP1 ISZERO PUSH2 0x551 JUMPI PUSH0 PUSH0 REVERT JUMPDEST POP PUSH2 0x256 PUSH2 0x560 CALLDATASIZE PUSH1 0x4 PUSH2 0x1F51 JUMP JUMPDEST PUSH4 0x38377508 PUSH1 0xC SWAP1 DUP2 MSTORE PUSH0 SWAP2 SWAP1 SWAP2 MSTORE PUSH1 0x20 SWAP1 KECCAK256 SLOAD SWAP1 JUMP JUMPDEST CALLVALUE DUP1 ISZERO PUSH2 0x582 JUMPI PUSH0 PUSH0 REVERT JUMPDEST POP PUSH2 0x256 PUSH2 0xF93 JUMP JUMPDEST CALLVALUE DUP1 ISZERO PUSH2 0x596 JUMPI PUSH0 PUSH0 REVERT JUMPDEST POP PUSH2 0x256 PUSH2 0x5A5 CALLDATASIZE PUSH1 0x4 PUSH2 0x1DF5 JUMP JUMPDEST PUSH2 0xFDB JUMP JUMPDEST PUSH2 0x256 PUSH2 0x5B8 CALLDATASIZE PUSH1 0x4 PUSH2 0x1E80 JUMP JUMPDEST PUSH2 0x1218 JUMP JUMPDEST CALLVALUE DUP1 ISZERO PUSH2 0x5C8 JUMPI PUSH0 PUSH0 REVERT JUMPDEST POP PUSH2 0x27D PUSH2 0x1307 JUMP JUMPDEST CALLVALUE DUP1 ISZERO PUSH2 0x5DC JUMPI PUSH0 PUSH0 REVERT JUMPDEST POP PUSH2 0x256 PUSH2 0x13AF JUMP JUMPDEST CALLVALUE DUP1 ISZERO PUSH2 0x5F0 JUMPI PUSH0 PUSH0 REVERT JUMPDEST POP PUSH2 0x2E7 PUSH2 0x5FF CALLDATASIZE PUSH1 0x4 PUSH2 0x1EAE JUMP JUMPDEST PUSH2 0x13E7 JUMP JUMPDEST CALLVALUE DUP1 ISZERO PUSH2 0x60F JUMPI PUSH0 PUSH0 REVERT JUMPDEST POP PUSH2 0x406 PUSH32 0x0 DUP2 JUMP JUMPDEST PUSH2 0x256 PUSH2 0x144B JUMP JUMPDEST CALLVALUE DUP1 ISZERO PUSH2 0x64A JUMPI PUSH0 PUSH0 REVERT JUMPDEST POP PUSH2 0x256 PUSH2 0x659 CALLDATASIZE PUSH1 0x4 PUSH2 0x1F6C JUMP JUMPDEST PUSH2 0x1455 JUMP JUMPDEST PUSH2 0x256 PUSH2 0x66C CALLDATASIZE PUSH1 0x4 PUSH2 0x1F51 JUMP JUMPDEST PUSH2 0x15EE JUMP JUMPDEST PUSH2 0x256 PUSH2 0x67F CALLDATASIZE PUSH1 0x4 PUSH2 0x1F51 JUMP JUMPDEST PUSH2 0x16D8 JUMP JUMPDEST CALLVALUE DUP1 ISZERO PUSH2 0x68F JUMPI PUSH0 PUSH0 REVERT JUMPDEST POP PUSH2 0x256 PUSH2 0x69E CALLDATASIZE PUSH1 0x4 PUSH2 0x1E69 JUMP JUMPDEST PUSH2 0x1735 JUMP JUMPDEST CALLVALUE DUP1 ISZERO PUSH2 0x6AE JUMPI PUSH0 PUSH0 REVERT JUMPDEST POP PUSH2 0x6C2 PUSH2 0x6BD CALLDATASIZE PUSH1 0x4 PUSH2 0x1FB0 JUMP JUMPDEST PUSH2 0x17CF JUMP JUMPDEST STOP JUMPDEST CALLVALUE DUP1 ISZERO PUSH2 0x6CF JUMPI PUSH0 PUSH0 REVERT JUMPDEST POP PUSH2 0x256 PUSH2 0x6DE CALLDATASIZE PUSH1 0x4 PUSH2 0x201A JUMP JUMPDEST PUSH1 0x20 MSTORE PUSH4 0x7F5E9F20 PUSH1 0xC SWAP1 DUP2 MSTORE PUSH0 SWAP2 SWAP1 SWAP2 MSTORE PUSH1 0x34 SWAP1 KECCAK256 SLOAD SWAP1 JUMP JUMPDEST CALLVALUE DUP1 ISZERO PUSH2 0x703 JUMPI PUSH0 PUSH0 REVERT JUMPDEST POP PUSH2 0x256 PUSH2 0x712 CALLDATASIZE PUSH1 0x4 PUSH2 0x2046 JUMP JUMPDEST PUSH2 0x1953 JUMP JUMPDEST CALLVALUE DUP1 ISZERO PUSH2 0x722 JUMPI PUSH0 PUSH0 REVERT JUMPDEST POP PUSH2 0x256 PUSH2 0x731 CALLDATASIZE PUSH1 0x4 PUSH2 0x1E69 JUMP JUMPDEST PUSH2 0x1A2F JUMP JUMPDEST CALLVALUE DUP1 ISZERO PUSH2 0x741 JUMPI PUSH0 PUSH0 REVERT JUMPDEST POP PUSH2 0x256 PUSH2 0x750 CALLDATASIZE PUSH1 0x4 PUSH2 0x1E69 JUMP JUMPDEST PUSH2 0x1B1B JUMP JUMPDEST PUSH2 0x256 PUSH2 0x763 CALLDATASIZE PUSH1 0x4 PUSH2 0x1F51 JUMP JUMPDEST PUSH2 0x1B25 JUMP JUMPDEST PUSH1 0x40 MLOAD PUSH4 0x95EA7B3 PUSH1 0xE0 SHL DUP2 MSTORE PUSH1 0x1 PUSH1 0x1 PUSH1 0xA0 SHL SUB DUP5 DUP2 AND PUSH1 0x4 DUP4 ADD MSTORE PUSH1 0x24 DUP3 ADD DUP5 SWAP1 MSTORE PUSH0 SWAP2 SELFBALANCE SWAP2 PUSH32 0x0 AND SWAP1 PUSH4 0x95EA7B3 SWAP1 PUSH1 0x44 ADD PUSH1 0x20 PUSH1 0x40 MLOAD DUP1 DUP4 SUB DUP2 PUSH0 DUP8 GAS CALL ISZERO DUP1 ISZERO PUSH2 0x7D8 JUMPI RETURNDATASIZE PUSH0 PUSH0 RETURNDATACOPY RETURNDATASIZE PUSH0 REVERT JUMPDEST POP POP POP POP PUSH1 0x40 MLOAD RETURNDATASIZE PUSH1 0x1F NOT PUSH1 0x1F DUP3 ADD AND DUP3 ADD DUP1 PUSH1 0x40 MSTORE POP DUP2 ADD SWAP1 PUSH2 0x7FC SWAP2 SWAP1 PUSH2 0x2082 JUMP JUMPDEST POP PUSH1 0x40 MLOAD PUSH4 0x127D0409 PUSH1 0xE0 SHL DUP2 MSTORE PUSH1 0x4 DUP2 ADD DUP6 SWAP1 MSTORE PUSH1 0x1 PUSH1 0x1 PUSH1 0xA0 SHL SUB DUP7 AND SWAP1 PUSH4 0x127D0409 SWAP1 PUSH1 0x24 ADD PUSH1 0x20 PUSH1 0x40 MLOAD DUP1 DUP4 SUB DUP2 PUSH0 DUP8 GAS CALL ISZERO DUP1 ISZERO PUSH2 0x841 JUMPI RETURNDATASIZE PUSH0 PUSH0 RETURNDATACOPY RETURNDATASIZE PUSH0 REVERT JUMPDEST POP POP POP POP PUSH1 0x40 MLOAD RETURNDATASIZE PUSH1 0x1F NOT PUSH1 0x1F DUP3 ADD AND DUP3 ADD DUP1 PUSH1 0x40 MSTORE POP DUP2 ADD SWAP1 PUSH2 0x865 SWAP2 SWAP1 PUSH2 0x20A1 JUMP JUMPDEST POP PUSH0 PUSH2 0x871 DUP3 SELFBALANCE PUSH2 0x20CC JUMP JUMPDEST SWAP1 POP DUP5 PUSH2 0x87D DUP3 PUSH2 0x1A2F JUMP JUMPDEST PUSH2 0x887 SWAP2 SWAP1 PUSH2 0x20CC JUMP JUMPDEST SWAP3 POP PUSH2 0x8BC PUSH1 0x1 PUSH1 0x1 PUSH1 0x80 SHL SUB PUSH32 0x0 AND DUP5 PUSH2 0x20DF JUMP JUMPDEST PUSH1 0x1 PUSH0 DUP3 DUP3 SLOAD PUSH2 0x8CC SWAP2 SWAP1 PUSH2 0x20FE JUMP JUMPDEST SWAP1 SWAP2 SSTORE POP POP PUSH1 0x40 MLOAD PUSH4 0xA9059CBB PUSH1 0xE0 SHL DUP2 MSTORE PUSH1 0x1 PUSH1 0x1 PUSH1 0xA0 SHL SUB DUP6 DUP2 AND PUSH1 0x4 DUP4 ADD MSTORE PUSH1 0x24 DUP3 ADD DUP6 SWAP1 MSTORE PUSH32 0x0 AND SWAP1 PUSH4 0xA9059CBB SWAP1 PUSH1 0x44 ADD PUSH1 0x20 PUSH1 0x40 MLOAD DUP1 DUP4 SUB DUP2 PUSH0 DUP8 GAS CALL ISZERO DUP1 ISZERO PUSH2 0x93D JUMPI RETURNDATASIZE PUSH0 PUSH0 RETURNDATACOPY RETURNDATASIZE PUSH0 REVERT JUMPDEST POP POP POP POP PUSH1 0x40 MLOAD RETURNDATASIZE PUSH1 0x1F NOT PUSH1 0x1F DUP3 ADD AND DUP3 ADD DUP1 PUSH1 0x40 MSTORE POP DUP2 ADD SWAP1 PUSH2 0x961 SWAP2 SWAP1 PUSH2 0x2082 JUMP JUMPDEST POP POP POP SWAP4 SWAP3 POP POP POP JUMP JUMPDEST PUSH1 0x40 DUP1 MLOAD DUP1 DUP3 ADD SWAP1 SWAP2 MSTORE PUSH1 0x17 DUP2 MSTORE PUSH32 0x4171756974617264204C697175696469747920506F6F6C000000000000000000 PUSH1 0x20 DUP3 ADD MSTORE SWAP1 JUMP JUMPDEST PUSH0 PUSH2 0x9B4 PUSH9 0x5345CDF77EB68F44C SLOAD SWAP1 JUMP JUMPDEST PUSH1 0x40 MLOAD PUSH4 0x70A08231 PUSH1 0xE0 SHL DUP2 MSTORE ADDRESS PUSH1 0x4 DUP3 ADD MSTORE DUP4 SWAP1 PUSH32 0x0 PUSH1 0x1 PUSH1 0x1 PUSH1 0xA0 SHL SUB AND SWAP1 PUSH4 0x70A08231 SWAP1 PUSH1 0x24 ADD PUSH1 0x20 PUSH1 0x40 MLOAD DUP1 DUP4 SUB DUP2 DUP7 GAS STATICCALL ISZERO DUP1 ISZERO PUSH2 0xA18 JUMPI RETURNDATASIZE PUSH0 PUSH0 RETURNDATACOPY RETURNDATASIZE PUSH0 REVERT JUMPDEST POP POP POP POP PUSH1 0x40 MLOAD RETURNDATASIZE PUSH1 0x1F NOT PUSH1 0x1F DUP3 ADD AND DUP3 ADD DUP1 PUSH1 0x40 MSTORE POP DUP2 ADD SWAP1 PUSH2 0xA3C SWAP2 SWAP1 PUSH2 0x20A1 JUMP JUMPDEST PUSH2 0xA46 SWAP2 SWAP1 PUSH2 0x2111 JUMP JUMPDEST PUSH2 0xA50 SWAP2 SWAP1 PUSH2 0x20DF JUMP JUMPDEST SWAP3 SWAP2 POP POP JUMP JUMPDEST PUSH0 PUSH2 0xA60 DUP4 PUSH2 0xCAE JUMP JUMPDEST SWAP1 POP PUSH2 0xA95 PUSH1 0x1 PUSH1 0x1 PUSH1 0x80 SHL SUB PUSH32 0x0 AND DUP3 PUSH2 0x20DF JUMP JUMPDEST PUSH0 PUSH0 DUP3 DUP3 SLOAD PUSH2 0xAA4 SWAP2 SWAP1 PUSH2 0x20FE JUMP JUMPDEST SWAP1 SWAP2 SSTORE POP POP PUSH1 0x40 MLOAD PUSH4 0x23B872DD PUSH1 0xE0 SHL DUP2 MSTORE PUSH1 0x1 PUSH1 0x1 PUSH1 0xA0 SHL SUB PUSH32 0x0 AND SWAP1 PUSH4 0x23B872DD SWAP1 PUSH2 0xAF9 SWAP1 CALLER SWAP1 ADDRESS SWAP1 DUP9 SWAP1 PUSH1 0x4 ADD PUSH2 0x2128 JUMP JUMPDEST PUSH1 0x20 PUSH1 0x40 MLOAD DUP1 DUP4 SUB DUP2 PUSH0 DUP8 GAS CALL ISZERO DUP1 ISZERO PUSH2 0xB15 JUMPI RETURNDATASIZE PUSH0 PUSH0 RETURNDATACOPY RETURNDATASIZE PUSH0 REVERT JUMPDEST POP POP POP POP PUSH1 0x40 MLOAD RETURNDATASIZE PUSH1 0x1F NOT PUSH1 0x1F DUP3 ADD AND DUP3 ADD DUP1 PUSH1 0x40 MSTORE POP DUP2 ADD SWAP1 PUSH2 0xB39 SWAP2 SWAP1 PUSH2 0x2082 JUMP JUMPDEST POP PUSH0 DUP3 PUSH1 0x1 PUSH1 0x1 PUSH1 0xA0 SHL SUB AND DUP3 PUSH1 0x40 MLOAD PUSH0 PUSH1 0x40 MLOAD DUP1 DUP4 SUB DUP2 DUP6 DUP8 GAS CALL SWAP3 POP POP POP RETURNDATASIZE DUP1 PUSH0 DUP2 EQ PUSH2 0xB83 JUMPI PUSH1 0x40 MLOAD SWAP2 POP PUSH1 0x1F NOT PUSH1 0x3F RETURNDATASIZE ADD AND DUP3 ADD PUSH1 0x40 MSTORE RETURNDATASIZE DUP3 MSTORE RETURNDATASIZE PUSH0 PUSH1 0x20 DUP5 ADD RETURNDATACOPY PUSH2 0xB88 JUMP JUMPDEST PUSH1 0x60 SWAP2 POP JUMPDEST POP POP SWAP1 POP DUP1 PUSH2 0xB95 JUMPI PUSH0 PUSH0 REVERT JUMPDEST POP SWAP3 SWAP2 POP POP JUMP JUMPDEST PUSH0 DUP3 PUSH1 0x20 MSTORE PUSH4 0x7F5E9F20 PUSH1 0xC MSTORE CALLER PUSH0 MSTORE DUP2 PUSH1 0x34 PUSH1 0xC KECCAK256 SSTORE DUP2 PUSH0 MSTORE PUSH1 0x2C MLOAD PUSH1 0x60 SHR CALLER PUSH32 0x8C5BE1E5EBEC7D5BD14F71427D1E84F3DD0314C0F7B2291E5B200AC8C7C3B925 PUSH1 0x20 PUSH0 LOG3 POP PUSH1 0x1 SWAP3 SWAP2 POP POP JUMP JUMPDEST PUSH0 PUSH2 0xA50 DUP3 CALLER PUSH2 0xA56 JUMP JUMPDEST PUSH0 PUSH2 0xC02 DUP4 CALLER DUP5 PUSH2 0x1953 JUMP JUMPDEST SWAP4 SWAP3 POP POP POP JUMP JUMPDEST PUSH0 DUP4 PUSH1 0x60 SHL CALLER PUSH1 0x20 MSTORE PUSH4 0x7F5E9F20 DUP2 OR PUSH1 0xC MSTORE PUSH1 0x34 PUSH1 0xC KECCAK256 DUP1 SLOAD DUP1 NOT ISZERO PUSH2 0xC45 JUMPI DUP1 DUP6 GT ISZERO PUSH2 0xC3F JUMPI PUSH4 0x13BE252B PUSH0 MSTORE PUSH1 0x4 PUSH1 0x1C REVERT JUMPDEST DUP5 DUP2 SUB DUP3 SSTORE JUMPDEST POP POP PUSH4 0x87A211A2 DUP2 OR PUSH1 0xC MSTORE PUSH1 0x20 PUSH1 0xC KECCAK256 DUP1 SLOAD DUP1 DUP6 GT ISZERO PUSH2 0xC6D JUMPI PUSH4 0xF4D678B8 PUSH0 MSTORE PUSH1 0x4 PUSH1 0x1C REVERT JUMPDEST DUP5 DUP2 SUB DUP3 SSTORE POP POP DUP4 PUSH0 MSTORE PUSH1 0x20 PUSH1 0xC KECCAK256 DUP4 DUP2 SLOAD ADD DUP2 SSTORE POP DUP3 PUSH1 0x20 MSTORE PUSH1 0xC MLOAD PUSH1 0x60 SHR DUP2 PUSH1 0x60 SHR PUSH0 MLOAD PUSH1 0x20 PUSH2 0x224B PUSH0 CODECOPY PUSH0 MLOAD SWAP1 PUSH0 MSTORE PUSH1 0x20 DUP1 LOG3 POP POP PUSH1 0x1 SWAP4 SWAP3 POP POP POP JUMP JUMPDEST PUSH0 PUSH2 0xCE2 DUP3 PUSH1 0x1 PUSH1 0x1 PUSH1 0x80 SHL SUB PUSH32 0x0 AND PUSH2 0x20FE JUMP JUMPDEST DUP3 PUSH2 0xCEB PUSH2 0x13AF JUMP JUMPDEST PUSH2 0xCF5 SWAP2 SWAP1 PUSH2 0x2111 JUMP JUMPDEST PUSH2 0xCFF SWAP2 SWAP1 PUSH2 0x20DF JUMP JUMPDEST SWAP1 POP DUP1 SELFBALANCE LT ISZERO PUSH2 0xD0C JUMPI POP SELFBALANCE JUMPDEST SWAP2 SWAP1 POP JUMP JUMPDEST PUSH0 DUP1 PUSH2 0xD1B PUSH2 0x96B JUMP JUMPDEST DUP1 MLOAD SWAP1 PUSH1 0x20 ADD KECCAK256 SWAP1 POP PUSH1 0x40 DUP1 MLOAD PUSH32 0x8B73C3C69BB8FE3D512ECC4CF759CC79239F7B179B0FFACAA9A75D522B39400F DUP2 MSTORE PUSH1 0x20 DUP2 ADD SWAP3 SWAP1 SWAP3 MSTORE PUSH32 0xC89EFDAA54C0F20C7ADF612882DF0950F5A951637E0307CDCB4C672F298B8BC6 SWAP1 DUP3 ADD MSTORE CHAINID PUSH1 0x60 DUP3 ADD MSTORE ADDRESS PUSH1 0x80 DUP3 ADD MSTORE PUSH1 0xA0 SWAP1 KECCAK256 SWAP2 SWAP1 POP JUMP JUMPDEST PUSH0 PUSH2 0xA50 DUP3 PUSH2 0x9A2 JUMP JUMPDEST PUSH0 PUSH2 0xDA1 DUP4 PUSH2 0x1B1B JUMP JUMPDEST PUSH1 0x40 MLOAD PUSH4 0x70A08231 PUSH1 0xE0 SHL DUP2 MSTORE ADDRESS PUSH1 0x4 DUP3 ADD MSTORE SWAP1 SWAP2 POP PUSH0 SWAP1 PUSH1 0x1 PUSH1 0x1 PUSH1 0xA0 SHL SUB PUSH32 0x0 AND SWAP1 PUSH4 0x70A08231 SWAP1 PUSH1 0x24 ADD PUSH1 0x20 PUSH1 0x40 MLOAD DUP1 DUP4 SUB DUP2 DUP7 GAS STATICCALL ISZERO DUP1 ISZERO PUSH2 0xE08 JUMPI RETURNDATASIZE PUSH0 PUSH0 RETURNDATACOPY RETURNDATASIZE PUSH0 REVERT JUMPDEST POP POP POP POP PUSH1 0x40 MLOAD RETURNDATASIZE PUSH1 0x1F NOT PUSH1 0x1F DUP3 ADD AND DUP3 ADD DUP1 PUSH1 0x40 MSTORE POP DUP2 ADD SWAP1 PUSH2 0xE2C SWAP2 SWAP1 PUSH2 0x20A1 JUMP JUMPDEST DUP5 PUSH2 0xE37 CALLVALUE SELFBALANCE PUSH2 0x20CC JUMP JUMPDEST PUSH2 0xE41 SWAP2 SWAP1 PUSH2 0x2111 JUMP JUMPDEST PUSH2 0xE4B SWAP2 SWAP1 PUSH2 0x20DF JUMP JUMPDEST SWAP1 POP PUSH0 PUSH2 0xE58 DUP3 CALLVALUE PUSH2 0x20CC JUMP JUMPDEST SWAP1 POP PUSH2 0xE64 DUP5 DUP5 PUSH2 0x1CD5 JUMP JUMPDEST PUSH1 0x40 MLOAD PUSH4 0x23B872DD PUSH1 0xE0 SHL DUP2 MSTORE PUSH1 0x1 PUSH1 0x1 PUSH1 0xA0 SHL SUB PUSH32 0x0 AND SWAP1 PUSH4 0x23B872DD SWAP1 PUSH2 0xEB4 SWAP1 CALLER SWAP1 ADDRESS SWAP1 DUP11 SWAP1 PUSH1 0x4 ADD PUSH2 0x2128 JUMP JUMPDEST PUSH1 0x20 PUSH1 0x40 MLOAD DUP1 DUP4 SUB DUP2 PUSH0 DUP8 GAS CALL ISZERO DUP1 ISZERO PUSH2 0xED0 JUMPI RETURNDATASIZE PUSH0 PUSH0 RETURNDATACOPY RETURNDATASIZE PUSH0 REVERT JUMPDEST POP POP POP POP PUSH1 0x40 MLOAD RETURNDATASIZE PUSH1 0x1F NOT PUSH1 0x1F DUP3 ADD AND DUP3 ADD DUP1 PUSH1 0x40 MSTORE POP DUP2 ADD SWAP1 PUSH2 0xEF4 SWAP2 SWAP1 PUSH2 0x2082 JUMP JUMPDEST POP DUP1 ISZERO PUSH2 0xF58 JUMPI PUSH0 DUP5 PUSH1 0x1 PUSH1 0x1 PUSH1 0xA0 SHL SUB AND DUP3 PUSH1 0x40 MLOAD PUSH0 PUSH1 0x40 MLOAD DUP1 DUP4 SUB DUP2 DUP6 DUP8 GAS CALL SWAP3 POP POP POP RETURNDATASIZE DUP1 PUSH0 DUP2 EQ PUSH2 0xF44 JUMPI PUSH1 0x40 MLOAD SWAP2 POP PUSH1 0x1F NOT PUSH1 0x3F RETURNDATASIZE ADD AND DUP3 ADD PUSH1 0x40 MSTORE RETURNDATASIZE DUP3 MSTORE RETURNDATASIZE PUSH0 PUSH1 0x20 DUP5 ADD RETURNDATACOPY PUSH2 0xF49 JUMP JUMPDEST PUSH1 0x60 SWAP2 POP JUMPDEST POP POP SWAP1 POP DUP1 PUSH2 0xF56 JUMPI PUSH0 PUSH0 REVERT JUMPDEST POP JUMPDEST PUSH1 0x40 DUP1 MLOAD DUP7 DUP2 MSTORE PUSH1 0x20 DUP2 ADD DUP6 SWAP1 MSTORE PUSH1 0x1 PUSH1 0x1 PUSH1 0xA0 SHL SUB DUP7 AND SWAP2 CALLER SWAP2 PUSH0 MLOAD PUSH1 0x20 PUSH2 0x226B PUSH0 CODECOPY PUSH0 MLOAD SWAP1 PUSH0 MSTORE SWAP2 ADD PUSH1 0x40 MLOAD DUP1 SWAP2 SUB SWAP1 LOG3 POP POP SWAP3 SWAP2 POP POP JUMP JUMPDEST PUSH0 PUSH32 0x0 PUSH1 0x1 PUSH1 0x1 PUSH1 0x80 SHL SUB AND PUSH1 0x1 SLOAD TIMESTAMP PUSH2 0xFCC SWAP2 SWAP1 PUSH2 0x20CC JUMP JUMPDEST PUSH2 0xFD6 SWAP2 SWAP1 PUSH2 0x2111 JUMP JUMPDEST SWAP1 POP SWAP1 JUMP JUMPDEST PUSH1 0x40 MLOAD PUSH4 0x70A08231 PUSH1 0xE0 SHL DUP2 MSTORE ADDRESS PUSH1 0x4 DUP3 ADD MSTORE PUSH0 SWAP1 DUP2 SWAP1 PUSH1 0x1 PUSH1 0x1 PUSH1 0xA0 SHL SUB PUSH32 0x0 AND SWAP1 PUSH4 0x70A08231 SWAP1 PUSH1 0x24 ADD PUSH1 0x20 PUSH1 0x40 MLOAD DUP1 DUP4 SUB DUP2 DUP7 GAS STATICCALL ISZERO DUP1 ISZERO PUSH2 0x1041 JUMPI RETURNDATASIZE PUSH0 PUSH0 RETURNDATACOPY RETURNDATASIZE PUSH0 REVERT JUMPDEST POP POP POP POP PUSH1 0x40 MLOAD RETURNDATASIZE PUSH1 0x1F NOT PUSH1 0x1F DUP3 ADD AND DUP3 ADD DUP1 PUSH1 0x40 MSTORE POP DUP2 ADD SWAP1 PUSH2 0x1065 SWAP2 SWAP1 PUSH2 0x20A1 JUMP JUMPDEST SWAP1 POP DUP5 PUSH1 0x1 PUSH1 0x1 PUSH1 0xA0 SHL SUB AND PUSH4 0xAEA1E3D1 DUP6 PUSH1 0x40 MLOAD DUP3 PUSH4 0xFFFFFFFF AND PUSH1 0xE0 SHL DUP2 MSTORE PUSH1 0x4 ADD PUSH1 0x20 PUSH1 0x40 MLOAD DUP1 DUP4 SUB DUP2 DUP6 DUP9 GAS CALL ISZERO DUP1 ISZERO PUSH2 0x10A5 JUMPI RETURNDATASIZE PUSH0 PUSH0 RETURNDATACOPY RETURNDATASIZE PUSH0 REVERT JUMPDEST POP POP POP POP POP PUSH1 0x40 MLOAD RETURNDATASIZE PUSH1 0x1F NOT PUSH1 0x1F DUP3 ADD AND DUP3 ADD DUP1 PUSH1 0x40 MSTORE POP DUP2 ADD SWAP1 PUSH2 0x10CA SWAP2 SWAP1 PUSH2 0x20A1 JUMP JUMPDEST POP PUSH1 0x40 MLOAD PUSH4 0x70A08231 PUSH1 0xE0 SHL DUP2 MSTORE ADDRESS PUSH1 0x4 DUP3 ADD MSTORE PUSH0 SWAP1 DUP3 SWAP1 PUSH1 0x1 PUSH1 0x1 PUSH1 0xA0 SHL SUB PUSH32 0x0 AND SWAP1 PUSH4 0x70A08231 SWAP1 PUSH1 0x24 ADD PUSH1 0x20 PUSH1 0x40 MLOAD DUP1 DUP4 SUB DUP2 DUP7 GAS STATICCALL ISZERO DUP1 ISZERO PUSH2 0x1131 JUMPI RETURNDATASIZE PUSH0 PUSH0 RETURNDATACOPY RETURNDATASIZE PUSH0 REVERT JUMPDEST POP POP POP POP PUSH1 0x40 MLOAD RETURNDATASIZE PUSH1 0x1F NOT PUSH1 0x1F DUP3 ADD AND DUP3 ADD DUP1 PUSH1 0x40 MSTORE POP DUP2 ADD SWAP1 PUSH2 0x1155 SWAP2 SWAP1 PUSH2 0x20A1 JUMP JUMPDEST PUSH2 0x115F SWAP2 SWAP1 PUSH2 0x20CC JUMP JUMPDEST SWAP1 POP DUP5 PUSH2 0x116B DUP3 PUSH2 0xCAE JUMP JUMPDEST PUSH2 0x1175 SWAP2 SWAP1 PUSH2 0x20CC JUMP JUMPDEST SWAP3 POP PUSH2 0x11AA PUSH1 0x1 PUSH1 0x1 PUSH1 0x80 SHL SUB PUSH32 0x0 AND DUP5 PUSH2 0x20DF JUMP JUMPDEST PUSH0 PUSH0 DUP3 DUP3 SLOAD PUSH2 0x11B9 SWAP2 SWAP1 PUSH2 0x20FE JUMP JUMPDEST SWAP1 SWAP2 SSTORE POP POP PUSH1 0x40 MLOAD PUSH0 SWAP1 PUSH1 0x1 PUSH1 0x1 PUSH1 0xA0 SHL SUB DUP7 AND SWAP1 DUP6 SWAP1 DUP4 DUP2 DUP2 DUP2 DUP6 DUP8 GAS CALL SWAP3 POP POP POP RETURNDATASIZE DUP1 PUSH0 DUP2 EQ PUSH2 0x1206 JUMPI PUSH1 0x40 MLOAD SWAP2 POP PUSH1 0x1F NOT PUSH1 0x3F RETURNDATASIZE ADD AND DUP3 ADD PUSH1 0x40 MSTORE RETURNDATASIZE DUP3 MSTORE RETURNDATASIZE PUSH0 PUSH1 0x20 DUP5 ADD RETURNDATACOPY PUSH2 0x120B JUMP JUMPDEST PUSH1 0x60 SWAP2 POP JUMPDEST POP POP SWAP1 POP DUP1 PUSH2 0x961 JUMPI PUSH0 PUSH0 REVERT JUMPDEST DUP2 PUSH2 0x122A PUSH9 0x5345CDF77EB68F44C SLOAD SWAP1 JUMP JUMPDEST ISZERO PUSH2 0x1233 JUMPI PUSH0 PUSH0 REVERT JUMPDEST PUSH2 0x123D DUP3 DUP3 PUSH2 0x1CD5 JUMP JUMPDEST PUSH1 0x40 MLOAD PUSH4 0x23B872DD PUSH1 0xE0 SHL DUP2 MSTORE PUSH1 0x1 PUSH1 0x1 PUSH1 0xA0 SHL SUB PUSH32 0x0 AND SWAP1 PUSH4 0x23B872DD SWAP1 PUSH2 0x128D SWAP1 CALLER SWAP1 ADDRESS SWAP1 DUP9 SWAP1 PUSH1 0x4 ADD PUSH2 0x2128 JUMP JUMPDEST PUSH1 0x20 PUSH1 0x40 MLOAD DUP1 DUP4 SUB DUP2 PUSH0 DUP8 GAS CALL ISZERO DUP1 ISZERO PUSH2 0x12A9 JUMPI RETURNDATASIZE PUSH0 PUSH0 RETURNDATACOPY RETURNDATASIZE PUSH0 REVERT JUMPDEST POP POP POP POP PUSH1 0x40 MLOAD RETURNDATASIZE PUSH1 0x1F NOT PUSH1 0x1F DUP3 ADD AND DUP3 ADD DUP1 PUSH1 0x40 MSTORE POP DUP2 ADD SWAP1 PUSH2 0x12CD SWAP2 SWAP1 PUSH2 0x2082 JUMP JUMPDEST POP PUSH1 0x40 DUP1 MLOAD DUP5 DUP2 MSTORE PUSH1 0x20 DUP2 ADD DUP4 SWAP1 MSTORE PUSH1 0x1 PUSH1 0x1 PUSH1 0xA0 SHL SUB DUP5 AND SWAP2 CALLER SWAP2 PUSH0 MLOAD PUSH1 0x20 PUSH2 0x226B PUSH0 CODECOPY PUSH0 MLOAD SWAP1 PUSH0 MSTORE SWAP2 ADD PUSH1 0x40 MLOAD DUP1 SWAP2 SUB SWAP1 LOG3 SWAP3 SWAP2 POP POP JUMP JUMPDEST PUSH1 0x60 PUSH32 0x0 PUSH1 0x1 PUSH1 0x1 PUSH1 0xA0 SHL SUB AND PUSH4 0x95D89B41 PUSH1 0x40 MLOAD DUP2 PUSH4 0xFFFFFFFF AND PUSH1 0xE0 SHL DUP2 MSTORE PUSH1 0x4 ADD PUSH0 PUSH1 0x40 MLOAD DUP1 DUP4 SUB DUP2 DUP7 GAS STATICCALL ISZERO DUP1 ISZERO PUSH2 0x1364 JUMPI RETURNDATASIZE PUSH0 PUSH0 RETURNDATACOPY RETURNDATASIZE PUSH0 REVERT JUMPDEST POP POP POP POP PUSH1 0x40 MLOAD RETURNDATASIZE PUSH0 DUP3 RETURNDATACOPY PUSH1 0x1F RETURNDATASIZE SWAP1 DUP2 ADD PUSH1 0x1F NOT AND DUP3 ADD PUSH1 0x40 MSTORE PUSH2 0x138B SWAP2 SWAP1 DUP2 ADD SWAP1 PUSH2 0x2160 JUMP JUMPDEST PUSH1 0x40 MLOAD PUSH1 0x20 ADD PUSH2 0x139B SWAP2 SWAP1 PUSH2 0x2213 JUMP JUMPDEST PUSH1 0x40 MLOAD PUSH1 0x20 DUP2 DUP4 SUB SUB DUP2 MSTORE SWAP1 PUSH1 0x40 MSTORE SWAP1 POP SWAP1 JUMP JUMPDEST PUSH0 PUSH32 0x0 PUSH1 0x1 PUSH1 0x1 PUSH1 0x80 SHL SUB AND PUSH0 SLOAD TIMESTAMP PUSH2 0xFCC SWAP2 SWAP1 PUSH2 0x20CC JUMP JUMPDEST PUSH0 PUSH4 0x87A211A2 PUSH1 0xC MSTORE CALLER PUSH0 MSTORE PUSH1 0x20 PUSH1 0xC KECCAK256 DUP1 SLOAD DUP1 DUP5 GT ISZERO PUSH2 0x140F JUMPI PUSH4 0xF4D678B8 PUSH0 MSTORE PUSH1 0x4 PUSH1 0x1C REVERT JUMPDEST DUP4 DUP2 SUB DUP3 SSTORE POP POP DUP3 PUSH0 MSTORE PUSH1 0x20 PUSH1 0xC KECCAK256 DUP3 DUP2 SLOAD ADD DUP2 SSTORE POP DUP2 PUSH1 0x20 MSTORE PUSH1 0xC MLOAD PUSH1 0x60 SHR CALLER PUSH0 MLOAD PUSH1 0x20 PUSH2 0x224B PUSH0 CODECOPY PUSH0 MLOAD SWAP1 PUSH0 MSTORE PUSH1 0x20 DUP1 LOG3 POP PUSH1 0x1 SWAP3 SWAP2 POP POP JUMP JUMPDEST PUSH0 PUSH2 0xFD6 CALLER PUSH2 0x15EE JUMP JUMPDEST PUSH0 PUSH2 0x145F DUP5 PUSH2 0xD8D JUMP JUMPDEST SWAP1 POP CALLER PUSH1 0x1 PUSH1 0x1 PUSH1 0xA0 SHL SUB DUP4 AND EQ PUSH2 0x147C JUMPI PUSH2 0x147C DUP3 CALLER DUP7 PUSH2 0x1D3E JUMP JUMPDEST PUSH0 PUSH2 0x148E PUSH9 0x5345CDF77EB68F44C SLOAD SWAP1 JUMP JUMPDEST PUSH2 0x1498 DUP7 SELFBALANCE PUSH2 0x2111 JUMP JUMPDEST PUSH2 0x14A2 SWAP2 SWAP1 PUSH2 0x20DF JUMP JUMPDEST SWAP1 POP PUSH2 0x14AE DUP4 DUP7 PUSH2 0x1D7D JUMP JUMPDEST PUSH1 0x40 MLOAD PUSH4 0xA9059CBB PUSH1 0xE0 SHL DUP2 MSTORE PUSH1 0x1 PUSH1 0x1 PUSH1 0xA0 SHL SUB DUP6 DUP2 AND PUSH1 0x4 DUP4 ADD MSTORE PUSH1 0x24 DUP3 ADD DUP5 SWAP1 MSTORE PUSH32 0x0 AND SWAP1 PUSH4 0xA9059CBB SWAP1 PUSH1 0x44 ADD PUSH1 0x20 PUSH1 0x40 MLOAD DUP1 DUP4 SUB DUP2 PUSH0 DUP8 GAS CALL ISZERO DUP1 ISZERO PUSH2 0x151A JUMPI RETURNDATASIZE PUSH0 PUSH0 RETURNDATACOPY RETURNDATASIZE PUSH0 REVERT JUMPDEST POP POP POP POP PUSH1 0x40 MLOAD RETURNDATASIZE PUSH1 0x1F NOT PUSH1 0x1F DUP3 ADD AND DUP3 ADD DUP1 PUSH1 0x40 MSTORE POP DUP2 ADD SWAP1 PUSH2 0x153E SWAP2 SWAP1 PUSH2 0x2082 JUMP JUMPDEST POP PUSH0 DUP5 PUSH1 0x1 PUSH1 0x1 PUSH1 0xA0 SHL SUB AND DUP3 PUSH1 0x40 MLOAD PUSH0 PUSH1 0x40 MLOAD DUP1 DUP4 SUB DUP2 DUP6 DUP8 GAS CALL SWAP3 POP POP POP RETURNDATASIZE DUP1 PUSH0 DUP2 EQ PUSH2 0x1588 JUMPI PUSH1 0x40 MLOAD SWAP2 POP PUSH1 0x1F NOT PUSH1 0x3F RETURNDATASIZE ADD AND DUP3 ADD PUSH1 0x40 MSTORE RETURNDATASIZE DUP3 MSTORE RETURNDATASIZE PUSH0 PUSH1 0x20 DUP5 ADD RETURNDATACOPY PUSH2 0x158D JUMP JUMPDEST PUSH1 0x60 SWAP2 POP JUMPDEST POP POP SWAP1 POP DUP1 PUSH2 0x159A JUMPI PUSH0 PUSH0 REVERT JUMPDEST PUSH1 0x40 DUP1 MLOAD DUP5 DUP2 MSTORE PUSH1 0x20 DUP2 ADD DUP9 SWAP1 MSTORE PUSH1 0x1 PUSH1 0x1 PUSH1 0xA0 SHL SUB DUP1 DUP8 AND SWAP3 SWAP1 DUP9 AND SWAP2 CALLER SWAP2 PUSH32 0xFBDE797D201C681B91056529119E0B02407C7BB96A4A2C75C01FC9667232C8DB SWAP2 ADD PUSH1 0x40 MLOAD DUP1 SWAP2 SUB SWAP1 LOG4 POP POP SWAP4 SWAP3 POP POP POP JUMP JUMPDEST PUSH0 PUSH2 0x15F8 CALLVALUE PUSH2 0x1A2F JUMP JUMPDEST SWAP1 POP PUSH2 0x162D PUSH1 0x1 PUSH1 0x1 PUSH1 0x80 SHL SUB PUSH32 0x0 AND DUP3 PUSH2 0x20DF JUMP JUMPDEST PUSH1 0x1 PUSH0 DUP3 DUP3 SLOAD PUSH2 0x163D SWAP2 SWAP1 PUSH2 0x20FE JUMP JUMPDEST SWAP1 SWAP2 SSTORE POP POP PUSH1 0x40 MLOAD PUSH4 0xA9059CBB PUSH1 0xE0 SHL DUP2 MSTORE PUSH1 0x1 PUSH1 0x1 PUSH1 0xA0 SHL SUB DUP4 DUP2 AND PUSH1 0x4 DUP4 ADD MSTORE PUSH1 0x24 DUP3 ADD DUP4 SWAP1 MSTORE PUSH32 0x0 AND SWAP1 PUSH4 0xA9059CBB SWAP1 PUSH1 0x44 ADD PUSH1 0x20 PUSH1 0x40 MLOAD DUP1 DUP4 SUB DUP2 PUSH0 DUP8 GAS CALL ISZERO DUP1 ISZERO PUSH2 0x16AE JUMPI RETURNDATASIZE PUSH0 PUSH0 RETURNDATACOPY RETURNDATASIZE PUSH0 REVERT JUMPDEST POP POP POP POP PUSH1 0x40 MLOAD RETURNDATASIZE PUSH1 0x1F NOT PUSH1 0x1F DUP3 ADD AND DUP3 ADD DUP1 PUSH1 0x40 MSTORE POP DUP2 ADD SWAP1 PUSH2 0x16D2 SWAP2 SWAP1 PUSH2 0x2082 JUMP JUMPDEST POP SWAP2 SWAP1 POP JUMP JUMPDEST CALLVALUE PUSH2 0x16EA PUSH9 0x5345CDF77EB68F44C SLOAD SWAP1 JUMP JUMPDEST ISZERO PUSH2 0x16F3 JUMPI PUSH0 PUSH0 REVERT JUMPDEST PUSH2 0x16FD DUP3 DUP3 PUSH2 0x1CD5 JUMP JUMPDEST PUSH1 0x40 DUP1 MLOAD PUSH0 DUP2 MSTORE PUSH1 0x20 DUP2 ADD DUP4 SWAP1 MSTORE PUSH1 0x1 PUSH1 0x1 PUSH1 0xA0 SHL SUB DUP5 AND SWAP2 CALLER SWAP2 PUSH0 MLOAD PUSH1 0x20 PUSH2 0x226B PUSH0 CODECOPY PUSH0 MLOAD SWAP1 PUSH0 MSTORE SWAP2 ADD PUSH1 0x40 MLOAD DUP1 SWAP2 SUB SWAP1 LOG3 SWAP2 SWAP1 POP JUMP JUMPDEST PUSH1 0x40 MLOAD PUSH4 0x70A08231 PUSH1 0xE0 SHL DUP2 MSTORE ADDRESS PUSH1 0x4 DUP3 ADD MSTORE PUSH0 SWAP1 PUSH32 0x0 PUSH1 0x1 PUSH1 0x1 PUSH1 0xA0 SHL SUB AND SWAP1 PUSH4 0x70A08231 SWAP1 PUSH1 0x24 ADD PUSH1 0x20 PUSH1 0x40 MLOAD DUP1 DUP4 SUB DUP2 DUP7 GAS STATICCALL ISZERO DUP1 ISZERO PUSH2 0x1799 JUMPI RETURNDATASIZE PUSH0 PUSH0 RETURNDATACOPY RETURNDATASIZE PUSH0 REVERT JUMPDEST POP POP POP POP PUSH1 0x40 MLOAD RETURNDATASIZE PUSH1 0x1F NOT PUSH1 0x1F DUP3 ADD AND DUP3 ADD DUP1 PUSH1 0x40 MSTORE POP DUP2 ADD SWAP1 PUSH2 0x17BD SWAP2 SWAP1 PUSH2 0x20A1 JUMP JUMPDEST DUP3 PUSH2 0xA3C PUSH9 0x5345CDF77EB68F44C SLOAD SWAP1 JUMP JUMPDEST PUSH0 PUSH2 0x17D8 PUSH2 0x96B JUMP JUMPDEST DUP1 MLOAD SWAP1 PUSH1 0x20 ADD KECCAK256 SWAP1 POP PUSH32 0xC89EFDAA54C0F20C7ADF612882DF0950F5A951637E0307CDCB4C672F298B8BC6 TIMESTAMP DUP7 LT ISZERO PUSH2 0x1817 JUMPI PUSH4 0x1A15A3CC PUSH0 MSTORE PUSH1 0x4 PUSH1 0x1C REVERT JUMPDEST PUSH1 0x40 MLOAD DUP10 PUSH1 0x60 SHL PUSH1 0x60 SHR SWAP10 POP DUP9 PUSH1 0x60 SHL PUSH1 0x60 SHR SWAP9 POP PUSH6 0x383775081901 PUSH1 0xE MSTORE DUP10 PUSH0 MSTORE PUSH1 0x20 PUSH1 0xC KECCAK256 DUP1 SLOAD PUSH32 0x8B73C3C69BB8FE3D512ECC4CF759CC79239F7B179B0FFACAA9A75D522B39400F DUP4 MSTORE DUP5 PUSH1 0x20 DUP5 ADD MSTORE DUP4 PUSH1 0x40 DUP5 ADD MSTORE CHAINID PUSH1 0x60 DUP5 ADD MSTORE ADDRESS PUSH1 0x80 DUP5 ADD MSTORE PUSH1 0xA0 DUP4 KECCAK256 PUSH1 0x2E MSTORE PUSH32 0x6E71EDAE12B1B97F4D1F60370FEF10105FA2FAAE0126114A169C64845D6126C9 DUP4 MSTORE DUP12 PUSH1 0x20 DUP5 ADD MSTORE DUP11 PUSH1 0x40 DUP5 ADD MSTORE DUP10 PUSH1 0x60 DUP5 ADD MSTORE DUP1 PUSH1 0x80 DUP5 ADD MSTORE DUP9 PUSH1 0xA0 DUP5 ADD MSTORE PUSH1 0xC0 DUP4 KECCAK256 PUSH1 0x4E MSTORE PUSH1 0x42 PUSH1 0x2C KECCAK256 PUSH0 MSTORE DUP8 PUSH1 0xFF AND PUSH1 0x20 MSTORE DUP7 PUSH1 0x40 MSTORE DUP6 PUSH1 0x60 MSTORE PUSH1 0x20 DUP1 PUSH1 0x80 PUSH0 PUSH1 0x1 GAS STATICCALL DUP13 RETURNDATASIZE MLOAD EQ PUSH2 0x18FF JUMPI PUSH4 0xDDAFBAEF PUSH0 MSTORE PUSH1 0x4 PUSH1 0x1C REVERT JUMPDEST ADD SWAP1 SSTORE PUSH4 0x3FAF4F9 PUSH1 0xA5 SHL DUP10 OR PUSH1 0x40 MSTORE PUSH1 0x34 PUSH1 0x2C KECCAK256 DUP9 SWAP1 SSTORE DUP9 DUP11 PUSH32 0x8C5BE1E5EBEC7D5BD14F71427D1E84F3DD0314C0F7B2291E5B200AC8C7C3B925 PUSH1 0x20 PUSH1 0x60 DUP6 ADD LOG3 PUSH1 0x40 MSTORE POP POP PUSH0 PUSH1 0x60 MSTORE POP POP POP POP POP POP POP JUMP JUMPDEST PUSH0 PUSH1 0x1 PUSH1 0x1 PUSH1 0xA0 SHL SUB PUSH32 0x0 AND PUSH4 0xD505ACCF CALLER ADDRESS DUP8 DUP7 CALLDATALOAD PUSH2 0x1998 PUSH1 0x40 DUP10 ADD PUSH1 0x20 DUP11 ADD PUSH2 0x2231 JUMP JUMPDEST PUSH1 0x40 DUP1 MLOAD PUSH1 0x1 PUSH1 0x1 PUSH1 0xE0 SHL SUB NOT PUSH1 0xE0 DUP10 SWAP1 SHL AND DUP2 MSTORE PUSH1 0x1 PUSH1 0x1 PUSH1 0xA0 SHL SUB SWAP7 DUP8 AND PUSH1 0x4 DUP3 ADD MSTORE SWAP6 SWAP1 SWAP5 AND PUSH1 0x24 DUP7 ADD MSTORE PUSH1 0x44 DUP6 ADD SWAP3 SWAP1 SWAP3 MSTORE PUSH1 0x64 DUP5 ADD MSTORE PUSH1 0xFF AND PUSH1 0x84 DUP4 ADD MSTORE DUP6 ADD CALLDATALOAD PUSH1 0xA4 DUP3 ADD MSTORE PUSH1 0x60 DUP6 ADD CALLDATALOAD PUSH1 0xC4 DUP3 ADD MSTORE PUSH1 0xE4 ADD PUSH0 PUSH1 0x40 MLOAD DUP1 DUP4 SUB DUP2 PUSH0 DUP8 DUP1 EXTCODESIZE ISZERO DUP1 ISZERO PUSH2 0x1A07 JUMPI PUSH0 PUSH0 REVERT JUMPDEST POP GAS CALL ISZERO DUP1 ISZERO PUSH2 0x1A19 JUMPI RETURNDATASIZE PUSH0 PUSH0 RETURNDATACOPY RETURNDATASIZE PUSH0 REVERT JUMPDEST POP POP POP POP PUSH2 0x1A27 DUP5 DUP5 PUSH2 0xA56 JUMP JUMPDEST SWAP5 SWAP4 POP POP POP POP JUMP JUMPDEST PUSH0 PUSH2 0x1A63 DUP3 PUSH1 0x1 PUSH1 0x1 PUSH1 0x80 SHL SUB PUSH32 0x0 AND PUSH2 0x20FE JUMP JUMPDEST DUP3 PUSH2 0x1A6C PUSH2 0xF93 JUMP JUMPDEST PUSH2 0x1A76 SWAP2 SWAP1 PUSH2 0x2111 JUMP JUMPDEST PUSH2 0x1A80 SWAP2 SWAP1 PUSH2 0x20DF JUMP JUMPDEST PUSH1 0x40 MLOAD PUSH4 0x70A08231 PUSH1 0xE0 SHL DUP2 MSTORE ADDRESS PUSH1 0x4 DUP3 ADD MSTORE SWAP1 SWAP2 POP PUSH0 SWAP1 PUSH1 0x1 PUSH1 0x1 PUSH1 0xA0 SHL SUB PUSH32 0x0 AND SWAP1 PUSH4 0x70A08231 SWAP1 PUSH1 0x24 ADD PUSH1 0x20 PUSH1 0x40 MLOAD DUP1 DUP4 SUB DUP2 DUP7 GAS STATICCALL ISZERO DUP1 ISZERO PUSH2 0x1AE7 JUMPI RETURNDATASIZE PUSH0 PUSH0 RETURNDATACOPY RETURNDATASIZE PUSH0 REVERT JUMPDEST POP POP POP POP PUSH1 0x40 MLOAD RETURNDATASIZE PUSH1 0x1F NOT PUSH1 0x1F DUP3 ADD AND DUP3 ADD DUP1 PUSH1 0x40 MSTORE POP DUP2 ADD SWAP1 PUSH2 0x1B0B SWAP2 SWAP1 PUSH2 0x20A1 JUMP JUMPDEST SWAP1 POP DUP2 DUP2 LT ISZERO PUSH2 0x16D2 JUMPI SWAP3 SWAP2 POP POP JUMP JUMPDEST PUSH0 PUSH2 0xA50 DUP3 PUSH2 0x1735 JUMP JUMPDEST PUSH0 PUSH2 0x1B30 CALLVALUE SELFBALANCE PUSH2 0x20CC JUMP JUMPDEST CALLVALUE PUSH2 0x1B42 PUSH9 0x5345CDF77EB68F44C SLOAD SWAP1 JUMP JUMPDEST PUSH2 0x1B4C SWAP2 SWAP1 PUSH2 0x2111 JUMP JUMPDEST PUSH2 0x1B56 SWAP2 SWAP1 PUSH2 0x20DF JUMP JUMPDEST SWAP1 POP PUSH0 PUSH2 0x1B63 CALLVALUE SELFBALANCE PUSH2 0x20CC JUMP JUMPDEST PUSH1 0x40 MLOAD PUSH4 0x70A08231 PUSH1 0xE0 SHL DUP2 MSTORE ADDRESS PUSH1 0x4 DUP3 ADD MSTORE CALLVALUE SWAP1 PUSH32 0x0 PUSH1 0x1 PUSH1 0x1 PUSH1 0xA0 SHL SUB AND SWAP1 PUSH4 0x70A08231 SWAP1 PUSH1 0x24 ADD PUSH1 0x20 PUSH1 0x40 MLOAD DUP1 DUP4 SUB DUP2 DUP7 GAS STATICCALL ISZERO DUP1 ISZERO PUSH2 0x1BC7 JUMPI RETURNDATASIZE PUSH0 PUSH0 RETURNDATACOPY RETURNDATASIZE PUSH0 REVERT JUMPDEST POP POP POP POP PUSH1 0x40 MLOAD RETURNDATASIZE PUSH1 0x1F NOT PUSH1 0x1F DUP3 ADD AND DUP3 ADD DUP1 PUSH1 0x40 MSTORE POP DUP2 ADD SWAP1 PUSH2 0x1BEB SWAP2 SWAP1 PUSH2 0x20A1 JUMP JUMPDEST PUSH2 0x1BF5 SWAP2 SWAP1 PUSH2 0x2111 JUMP JUMPDEST PUSH2 0x1BFF SWAP2 SWAP1 PUSH2 0x20DF JUMP JUMPDEST SWAP1 POP PUSH2 0x1C0B DUP4 DUP4 PUSH2 0x1CD5 JUMP JUMPDEST PUSH1 0x40 MLOAD PUSH4 0x23B872DD PUSH1 0xE0 SHL DUP2 MSTORE PUSH1 0x1 PUSH1 0x1 PUSH1 0xA0 SHL SUB PUSH32 0x0 AND SWAP1 PUSH4 0x23B872DD SWAP1 PUSH2 0x1C5B SWAP1 CALLER SWAP1 ADDRESS SWAP1 DUP7 SWAP1 PUSH1 0x4 ADD PUSH2 0x2128 JUMP JUMPDEST PUSH1 0x20 PUSH1 0x40 MLOAD DUP1 DUP4 SUB DUP2 PUSH0 DUP8 GAS CALL ISZERO DUP1 ISZERO PUSH2 0x1C77 JUMPI RETURNDATASIZE PUSH0 PUSH0 RETURNDATACOPY RETURNDATASIZE PUSH0 REVERT JUMPDEST POP POP POP POP PUSH1 0x40 MLOAD RETURNDATASIZE PUSH1 0x1F NOT PUSH1 0x1F DUP3 ADD AND DUP3 ADD DUP1 PUSH1 0x40 MSTORE POP DUP2 ADD SWAP1 PUSH2 0x1C9B SWAP2 SWAP1 PUSH2 0x2082 JUMP JUMPDEST POP PUSH1 0x40 DUP1 MLOAD DUP3 DUP2 MSTORE PUSH1 0x20 DUP2 ADD DUP5 SWAP1 MSTORE PUSH1 0x1 PUSH1 0x1 PUSH1 0xA0 SHL SUB DUP6 AND SWAP2 CALLER SWAP2 PUSH0 MLOAD PUSH1 0x20 PUSH2 0x226B PUSH0 CODECOPY PUSH0 MLOAD SWAP1 PUSH0 MSTORE SWAP2 ADD PUSH1 0x40 MLOAD DUP1 SWAP2 SUB SWAP1 LOG3 POP SWAP2 SWAP1 POP JUMP JUMPDEST PUSH9 0x5345CDF77EB68F44C SLOAD DUP2 DUP2 ADD DUP2 DUP2 LT ISZERO PUSH2 0x1CF8 JUMPI PUSH4 0xE5CFE957 PUSH0 MSTORE PUSH1 0x4 PUSH1 0x1C REVERT JUMPDEST DUP1 PUSH9 0x5345CDF77EB68F44C SSTORE POP POP PUSH4 0x87A211A2 PUSH1 0xC MSTORE DUP2 PUSH0 MSTORE PUSH1 0x20 PUSH1 0xC KECCAK256 DUP2 DUP2 SLOAD ADD DUP2 SSTORE POP DUP1 PUSH1 0x20 MSTORE PUSH1 0xC MLOAD PUSH1 0x60 SHR PUSH0 PUSH0 MLOAD PUSH1 0x20 PUSH2 0x224B PUSH0 CODECOPY PUSH0 MLOAD SWAP1 PUSH0 MSTORE PUSH1 0x20 DUP1 LOG3 POP POP JUMP JUMPDEST DUP2 PUSH1 0x20 MSTORE PUSH4 0x7F5E9F20 PUSH1 0xC MSTORE DUP3 PUSH0 MSTORE PUSH1 0x34 PUSH1 0xC KECCAK256 DUP1 SLOAD DUP1 NOT ISZERO PUSH2 0x1D76 JUMPI DUP1 DUP4 GT ISZERO PUSH2 0x1D70 JUMPI PUSH4 0x13BE252B PUSH0 MSTORE PUSH1 0x4 PUSH1 0x1C REVERT JUMPDEST DUP3 DUP2 SUB DUP3 SSTORE JUMPDEST POP POP POP POP POP JUMP JUMPDEST PUSH4 0x87A211A2 PUSH1 0xC MSTORE DUP2 PUSH0 MSTORE PUSH1 0x20 PUSH1 0xC KECCAK256 DUP1 SLOAD DUP1 DUP4 GT ISZERO PUSH2 0x1DA4 JUMPI PUSH4 0xF4D678B8 PUSH0 MSTORE PUSH1 0x4 PUSH1 0x1C REVERT JUMPDEST DUP3 SWAP1 SUB SWAP1 SSTORE PUSH9 0x5345CDF77EB68F44C DUP1 SLOAD DUP3 SWAP1 SUB SWAP1 SSTORE PUSH0 DUP2 DUP2 MSTORE PUSH1 0x1 PUSH1 0x1 PUSH1 0xA0 SHL SUB DUP4 AND PUSH0 MLOAD PUSH1 0x20 PUSH2 0x224B PUSH0 CODECOPY PUSH0 MLOAD SWAP1 PUSH0 MSTORE PUSH1 0x20 DUP4 LOG3 POP POP JUMP JUMPDEST PUSH1 0x1 PUSH1 0x1 PUSH1 0xA0 SHL SUB DUP2 AND DUP2 EQ PUSH2 0x1DF2 JUMPI PUSH0 PUSH0 REVERT JUMPDEST POP JUMP JUMPDEST PUSH0 PUSH0 PUSH0 PUSH1 0x60 DUP5 DUP7 SUB SLT ISZERO PUSH2 0x1E07 JUMPI PUSH0 PUSH0 REVERT JUMPDEST DUP4 CALLDATALOAD PUSH2 0x1E12 DUP2 PUSH2 0x1DDE JUMP JUMPDEST SWAP3 POP PUSH1 0x20 DUP5 ADD CALLDATALOAD SWAP2 POP PUSH1 0x40 DUP5 ADD CALLDATALOAD PUSH2 0x1E29 DUP2 PUSH2 0x1DDE JUMP JUMPDEST DUP1 SWAP2 POP POP SWAP3 POP SWAP3 POP SWAP3 JUMP JUMPDEST PUSH1 0x20 DUP2 MSTORE PUSH0 DUP3 MLOAD DUP1 PUSH1 0x20 DUP5 ADD MSTORE DUP1 PUSH1 0x20 DUP6 ADD PUSH1 0x40 DUP6 ADD MCOPY PUSH0 PUSH1 0x40 DUP3 DUP6 ADD ADD MSTORE PUSH1 0x40 PUSH1 0x1F NOT PUSH1 0x1F DUP4 ADD AND DUP5 ADD ADD SWAP2 POP POP SWAP3 SWAP2 POP POP JUMP JUMPDEST PUSH0 PUSH1 0x20 DUP3 DUP5 SUB SLT ISZERO PUSH2 0x1E79 JUMPI PUSH0 PUSH0 REVERT JUMPDEST POP CALLDATALOAD SWAP2 SWAP1 POP JUMP JUMPDEST PUSH0 PUSH0 PUSH1 0x40 DUP4 DUP6 SUB SLT ISZERO PUSH2 0x1E91 JUMPI PUSH0 PUSH0 REVERT JUMPDEST DUP3 CALLDATALOAD SWAP2 POP PUSH1 0x20 DUP4 ADD CALLDATALOAD PUSH2 0x1EA3 DUP2 PUSH2 0x1DDE JUMP JUMPDEST DUP1 SWAP2 POP POP SWAP3 POP SWAP3 SWAP1 POP JUMP JUMPDEST PUSH0 PUSH0 PUSH1 0x40 DUP4 DUP6 SUB SLT ISZERO PUSH2 0x1EBF JUMPI PUSH0 PUSH0 REVERT JUMPDEST DUP3 CALLDATALOAD PUSH2 0x1ECA DUP2 PUSH2 0x1DDE JUMP JUMPDEST SWAP5 PUSH1 0x20 SWAP4 SWAP1 SWAP4 ADD CALLDATALOAD SWAP4 POP POP POP JUMP JUMPDEST PUSH0 PUSH1 0x80 DUP3 DUP5 SUB SLT ISZERO PUSH2 0x16D2 JUMPI PUSH0 PUSH0 REVERT JUMPDEST PUSH0 PUSH0 PUSH1 0xA0 DUP4 DUP6 SUB SLT ISZERO PUSH2 0x1EF9 JUMPI PUSH0 PUSH0 REVERT JUMPDEST DUP3 CALLDATALOAD SWAP2 POP PUSH2 0x1F0A DUP5 PUSH1 0x20 DUP6 ADD PUSH2 0x1ED8 JUMP JUMPDEST SWAP1 POP SWAP3 POP SWAP3 SWAP1 POP JUMP JUMPDEST PUSH0 PUSH0 PUSH0 PUSH1 0x60 DUP5 DUP7 SUB SLT ISZERO PUSH2 0x1F25 JUMPI PUSH0 PUSH0 REVERT JUMPDEST DUP4 CALLDATALOAD PUSH2 0x1F30 DUP2 PUSH2 0x1DDE JUMP JUMPDEST SWAP3 POP PUSH1 0x20 DUP5 ADD CALLDATALOAD PUSH2 0x1F40 DUP2 PUSH2 0x1DDE JUMP JUMPDEST SWAP3 SWAP6 SWAP3 SWAP5 POP POP POP PUSH1 0x40 SWAP2 SWAP1 SWAP2 ADD CALLDATALOAD SWAP1 JUMP JUMPDEST PUSH0 PUSH1 0x20 DUP3 DUP5 SUB SLT ISZERO PUSH2 0x1F61 JUMPI PUSH0 PUSH0 REVERT JUMPDEST DUP2 CALLDATALOAD PUSH2 0xC02 DUP2 PUSH2 0x1DDE JUMP JUMPDEST PUSH0 PUSH0 PUSH0 PUSH1 0x60 DUP5 DUP7 SUB SLT ISZERO PUSH2 0x1F7E JUMPI PUSH0 PUSH0 REVERT JUMPDEST DUP4 CALLDATALOAD SWAP3 POP PUSH1 0x20 DUP5 ADD CALLDATALOAD PUSH2 0x1F90 DUP2 PUSH2 0x1DDE JUMP JUMPDEST SWAP2 POP PUSH1 0x40 DUP5 ADD CALLDATALOAD PUSH2 0x1E29 DUP2 PUSH2 0x1DDE JUMP JUMPDEST DUP1 CALLDATALOAD PUSH1 0xFF DUP2 AND DUP2 EQ PUSH2 0xD0C JUMPI PUSH0 PUSH0 REVERT JUMPDEST PUSH0 PUSH0 PUSH0 PUSH0 PUSH0 PUSH0 PUSH0 PUSH1 0xE0 DUP9 DUP11 SUB SLT ISZERO PUSH2 0x1FC6 JUMPI PUSH0 PUSH0 REVERT JUMPDEST DUP8 CALLDATALOAD PUSH2 0x1FD1 DUP2 PUSH2 0x1DDE JUMP JUMPDEST SWAP7 POP PUSH1 0x20 DUP9 ADD CALLDATALOAD PUSH2 0x1FE1 DUP2 PUSH2 0x1DDE JUMP JUMPDEST SWAP6 POP PUSH1 0x40 DUP9 ADD CALLDATALOAD SWAP5 POP PUSH1 0x60 DUP9 ADD CALLDATALOAD SWAP4 POP PUSH2 0x1FFD PUSH1 0x80 DUP10 ADD PUSH2 0x1FA0 JUMP JUMPDEST SWAP7 SWAP10 SWAP6 SWAP9 POP SWAP4 SWAP7 SWAP3 SWAP6 SWAP5 PUSH1 0xA0 DUP5 ADD CALLDATALOAD SWAP5 POP PUSH1 0xC0 SWAP1 SWAP4 ADD CALLDATALOAD SWAP3 SWAP2 POP POP JUMP JUMPDEST PUSH0 PUSH0 PUSH1 0x40 DUP4 DUP6 SUB SLT ISZERO PUSH2 0x202B JUMPI PUSH0 PUSH0 REVERT JUMPDEST DUP3 CALLDATALOAD PUSH2 0x2036 DUP2 PUSH2 0x1DDE JUMP JUMPDEST SWAP2 POP PUSH1 0x20 DUP4 ADD CALLDATALOAD PUSH2 0x1EA3 DUP2 PUSH2 0x1DDE JUMP JUMPDEST PUSH0 PUSH0 PUSH0 PUSH1 0xC0 DUP5 DUP7 SUB SLT ISZERO PUSH2 0x2058 JUMPI PUSH0 PUSH0 REVERT JUMPDEST DUP4 CALLDATALOAD SWAP3 POP PUSH1 0x20 DUP5 ADD CALLDATALOAD PUSH2 0x206A DUP2 PUSH2 0x1DDE JUMP JUMPDEST SWAP2 POP PUSH2 0x2079 DUP6 PUSH1 0x40 DUP7 ADD PUSH2 0x1ED8 JUMP JUMPDEST SWAP1 POP SWAP3 POP SWAP3 POP SWAP3 JUMP JUMPDEST PUSH0 PUSH1 0x20 DUP3 DUP5 SUB SLT ISZERO PUSH2 0x2092 JUMPI PUSH0 PUSH0 REVERT JUMPDEST DUP2 MLOAD DUP1 ISZERO ISZERO DUP2 EQ PUSH2 0xC02 JUMPI PUSH0 PUSH0 REVERT JUMPDEST PUSH0 PUSH1 0x20 DUP3 DUP5 SUB SLT ISZERO PUSH2 0x20B1 JUMPI PUSH0 PUSH0 REVERT JUMPDEST POP MLOAD SWAP2 SWAP1 POP JUMP JUMPDEST PUSH4 0x4E487B71 PUSH1 0xE0 SHL PUSH0 MSTORE PUSH1 0x11 PUSH1 0x4 MSTORE PUSH1 0x24 PUSH0 REVERT JUMPDEST DUP2 DUP2 SUB DUP2 DUP2 GT ISZERO PUSH2 0xA50 JUMPI PUSH2 0xA50 PUSH2 0x20B8 JUMP JUMPDEST PUSH0 DUP3 PUSH2 0x20F9 JUMPI PUSH4 0x4E487B71 PUSH1 0xE0 SHL PUSH0 MSTORE PUSH1 0x12 PUSH1 0x4 MSTORE PUSH1 0x24 PUSH0 REVERT JUMPDEST POP DIV SWAP1 JUMP JUMPDEST DUP1 DUP3 ADD DUP1 DUP3 GT ISZERO PUSH2 0xA50 JUMPI PUSH2 0xA50 PUSH2 0x20B8 JUMP JUMPDEST DUP1 DUP3 MUL DUP2 ISZERO DUP3 DUP3 DIV DUP5 EQ OR PUSH2 0xA50 JUMPI PUSH2 0xA50 PUSH2 0x20B8 JUMP JUMPDEST PUSH1 0x1 PUSH1 0x1 PUSH1 0xA0 SHL SUB SWAP4 DUP5 AND DUP2 MSTORE SWAP2 SWAP1 SWAP3 AND PUSH1 0x20 DUP3 ADD MSTORE PUSH1 0x40 DUP2 ADD SWAP2 SWAP1 SWAP2 MSTORE PUSH1 0x60 ADD SWAP1 JUMP JUMPDEST PUSH4 0x4E487B71 PUSH1 0xE0 SHL PUSH0 MSTORE PUSH1 0x41 PUSH1 0x4 MSTORE PUSH1 0x24 PUSH0 REVERT JUMPDEST PUSH0 PUSH1 0x20 DUP3 DUP5 SUB SLT ISZERO PUSH2 0x2170 JUMPI PUSH0 PUSH0 REVERT JUMPDEST DUP2 MLOAD PUSH8 0xFFFFFFFFFFFFFFFF DUP2 GT ISZERO PUSH2 0x2186 JUMPI PUSH0 PUSH0 REVERT JUMPDEST DUP3 ADD PUSH1 0x1F DUP2 ADD DUP5 SGT PUSH2 0x2196 JUMPI PUSH0 PUSH0 REVERT JUMPDEST DUP1 MLOAD PUSH8 0xFFFFFFFFFFFFFFFF DUP2 GT ISZERO PUSH2 0x21B0 JUMPI PUSH2 0x21B0 PUSH2 0x214C JUMP JUMPDEST PUSH1 0x40 MLOAD PUSH1 0x1F DUP3 ADD PUSH1 0x1F NOT SWAP1 DUP2 AND PUSH1 0x3F ADD AND DUP2 ADD PUSH8 0xFFFFFFFFFFFFFFFF DUP2 GT DUP3 DUP3 LT OR ISZERO PUSH2 0x21DF JUMPI PUSH2 0x21DF PUSH2 0x214C JUMP JUMPDEST PUSH1 0x40 MSTORE DUP2 DUP2 MSTORE DUP3 DUP3 ADD PUSH1 0x20 ADD DUP7 LT ISZERO PUSH2 0x21F6 JUMPI PUSH0 PUSH0 REVERT JUMPDEST DUP2 PUSH1 0x20 DUP5 ADD PUSH1 0x20 DUP4 ADD MCOPY PUSH0 SWAP2 DUP2 ADD PUSH1 0x20 ADD SWAP2 SWAP1 SWAP2 MSTORE SWAP5 SWAP4 POP POP POP POP JUMP JUMPDEST PUSH0 DUP3 MLOAD DUP1 PUSH1 0x20 DUP6 ADD DUP5 MCOPY PUSH2 0x4C5 PUSH1 0xF4 SHL SWAP3 ADD SWAP2 DUP3 MSTORE POP PUSH1 0x2 ADD SWAP2 SWAP1 POP JUMP JUMPDEST PUSH0 PUSH1 0x20 DUP3 DUP5 SUB SLT ISZERO PUSH2 0x2241 JUMPI PUSH0 PUSH0 REVERT JUMPDEST PUSH2 0xC02 DUP3 PUSH2 0x1FA0 JUMP INVALID 0xDD CALLCODE MSTORE 0xAD SHL 0xE2 0xC8 SWAP12 PUSH10 0xC2B068FC378DAA952BA7 CALL PUSH4 0xC4A11628 CREATE2 GAS 0x4D CREATE2 0x23 0xB3 0xEF 0xDC 0xBC SHR SDIV 0x24 0xF BALANCE SELFDESTRUCT GASPRICE 0xD0 PUSH8 0xEF1EE35CE4997762 PUSH22 0x2E3A095284754544F4C709D7A2646970667358221220 PUSH24 0x96AFEAC98B710CD39AD473B470D11F505871AE43FF985B72 AND 0xEC AND 0xBB DUP4 0xFC SHL PUSH5 0x736F6C6343 STOP ADDMOD SHR STOP CALLER "
		},
		"gasEstimates": {
			"creation": {
				"codeDepositCost": "1779200",
				"executionCost": "infinite",
				"totalCost": "infinite"
			},
			"external": {
				"DOMAIN_SEPARATOR()": "592",
				"allowance(address,address)": "infinite",
				"approve(address,uint256)": "24491",
				"asset()": "infinite",
				"balanceOf(address)": "2548",
				"convertToAssets(uint256)": "infinite",
				"convertToShares(uint256)": "infinite",
				"decimals()": "244",
				"deposit(address)": "infinite",
				"deposit(uint256,address)": "infinite",
				"erc20Inhibitor()": "infinite",
				"erc20PurchasableRate()": "infinite",
				"erc20PurchasableTime()": "2329",
				"erc20ToNativeSwap(address,uint256,address)": "infinite",
				"erc20ToNativeSwap(uint256)": "infinite",
				"erc20ToNativeSwap(uint256,(uint256,uint8,bytes32,bytes32))": "infinite",
				"erc20ToNativeSwap(uint256,address)": "infinite",
				"erc20ToNativeSwap(uint256,address,(uint256,uint8,bytes32,bytes32))": "infinite",
				"getERC20ToNativePrice(uint256)": "infinite",
				"getNativeToERC20Price(uint256)": "infinite",
				"name()": "infinite",
				"nativeInhibitor()": "infinite",
				"nativePurchasableRate()": "infinite",
				"nativePurchasableTime()": "2349",
				"nativeToERC20Swap()": "infinite",
				"nativeToERC20Swap(address)": "infinite",
				"nativeToERC20Swap(address,uint256,address)": "infinite",
				"noSupplyDeposit(address)": "infinite",
				"noSupplyDeposit(uint256,address)": "infinite",
				"nonces(address)": "2570",
				"permit(address,address,uint256,uint256,uint8,bytes32,bytes32)": "infinite",
				"previewDeposit(uint256)": "infinite",
				"previewRedeem(uint256)": "infinite",
				"purchasableERC20s()": "infinite",
				"purchasableNatives()": "infinite",
				"redeem(uint256,address,address)": "infinite",
				"symbol()": "infinite",
				"totalSupply()": "2370",
				"transfer(address,uint256)": "infinite",
				"transferFrom(address,address,uint256)": "infinite"
			}
		},
		"methodIdentifiers": {
			"DOMAIN_SEPARATOR()": "3644e515",
			"allowance(address,address)": "dd62ed3e",
			"approve(address,uint256)": "095ea7b3",
			"asset()": "38d52e0f",
			"balanceOf(address)": "70a08231",
			"convertToAssets(uint256)": "07a2d13a",
			"convertToShares(uint256)": "c6e6f592",
			"decimals()": "313ce567",
			"deposit(address)": "f340fa01",
			"deposit(uint256,address)": "6e553f65",
			"erc20Inhibitor()": "367ada10",
			"erc20PurchasableRate()": "3aeeade8",
			"erc20PurchasableTime()": "0f2a403f",
			"erc20ToNativeSwap(address,uint256,address)": "04c764e1",
			"erc20ToNativeSwap(uint256)": "127d0409",
			"erc20ToNativeSwap(uint256,(uint256,uint8,bytes32,bytes32))": "19cdf284",
			"erc20ToNativeSwap(uint256,address)": "08e30698",
			"erc20ToNativeSwap(uint256,address,(uint256,uint8,bytes32,bytes32))": "de899d1f",
			"getERC20ToNativePrice(uint256)": "25d1782d",
			"getNativeToERC20Price(uint256)": "ea6b80b7",
			"name()": "06fdde03",
			"nativeInhibitor()": "ad330967",
			"nativePurchasableRate()": "4d016295",
			"nativePurchasableTime()": "421c6a8a",
			"nativeToERC20Swap()": "aea1e3d1",
			"nativeToERC20Swap(address)": "bc710575",
			"nativeToERC20Swap(address,uint256,address)": "8a2c9cef",
			"noSupplyDeposit(address)": "c1a4845f",
			"noSupplyDeposit(uint256,address)": "8a48b2a5",
			"nonces(address)": "7ecebe00",
			"permit(address,address,uint256,uint256,uint8,bytes32,bytes32)": "d505accf",
			"previewDeposit(uint256)": "ef8b30f7",
			"previewRedeem(uint256)": "4cdad506",
			"purchasableERC20s()": "81f2d34e",
			"purchasableNatives()": "96a3958d",
			"redeem(uint256,address,address)": "ba087652",
			"symbol()": "95d89b41",
			"totalSupply()": "18160ddd",
			"transfer(address,uint256)": "a9059cbb",
			"transferFrom(address,address,uint256)": "23b872dd"
		}
	},
	"abi": [
		{
			"inputs": [
				{
					"internalType": "contract ERC20",
					"name": "asset",
					"type": "address"
				},
				{
					"internalType": "uint128",
					"name": "nativePurchasableRate_",
					"type": "uint128"
				},
				{
					"internalType": "uint128",
					"name": "erc20Inhibitor_",
					"type": "uint128"
				},
				{
					"internalType": "uint128",
					"name": "erc20PurchasableRate_",
					"type": "uint128"
				},
				{
					"internalType": "uint128",
					"name": "nativeInhibitor_",
					"type": "uint128"
				}
			],
			"stateMutability": "nonpayable",
			"type": "constructor"
		},
		{
			"inputs": [],
			"name": "AllowanceOverflow",
			"type": "error"
		},
		{
			"inputs": [],
			"name": "AllowanceUnderflow",
			"type": "error"
		},
		{
			"inputs": [],
			"name": "InsufficientAllowance",
			"type": "error"
		},
		{
			"inputs": [],
			"name": "InsufficientBalance",
			"type": "error"
		},
		{
			"inputs": [],
			"name": "InvalidPermit",
			"type": "error"
		},
		{
			"inputs": [],
			"name": "Permit2AllowanceIsFixedAtInfinity",
			"type": "error"
		},
		{
			"inputs": [],
			"name": "PermitExpired",
			"type": "error"
		},
		{
			"inputs": [],
			"name": "TotalSupplyOverflow",
			"type": "error"
		},
		{
			"anonymous": false,
			"inputs": [
				{
					"indexed": true,
					"internalType": "address",
					"name": "owner",
					"type": "address"
				},
				{
					"indexed": true,
					"internalType": "address",
					"name": "spender",
					"type": "address"
				},
				{
					"indexed": false,
					"internalType": "uint256",
					"name": "amount",
					"type": "uint256"
				}
			],
			"name": "Approval",
			"type": "event"
		},
		{
			"anonymous": false,
			"inputs": [
				{
					"indexed": true,
					"internalType": "address",
					"name": "sender",
					"type": "address"
				},
				{
					"indexed": true,
					"internalType": "address",
					"name": "owner",
					"type": "address"
				},
				{
					"indexed": false,
					"internalType": "uint256",
					"name": "assets",
					"type": "uint256"
				},
				{
					"indexed": false,
					"internalType": "uint256",
					"name": "shares",
					"type": "uint256"
				}
			],
			"name": "Deposit",
			"type": "event"
		},
		{
			"anonymous": false,
			"inputs": [
				{
					"indexed": true,
					"internalType": "address",
					"name": "from",
					"type": "address"
				},
				{
					"indexed": true,
					"internalType": "address",
					"name": "to",
					"type": "address"
				},
				{
					"indexed": false,
					"internalType": "uint256",
					"name": "amount",
					"type": "uint256"
				}
			],
			"name": "Transfer",
			"type": "event"
		},
		{
			"anonymous": false,
			"inputs": [
				{
					"indexed": true,
					"internalType": "address",
					"name": "sender",
					"type": "address"
				},
				{
					"indexed": true,
					"internalType": "address",
					"name": "receiver",
					"type": "address"
				},
				{
					"indexed": true,
					"internalType": "address",
					"name": "owner",
					"type": "address"
				},
				{
					"indexed": false,
					"internalType": "uint256",
					"name": "assets",
					"type": "uint256"
				},
				{
					"indexed": false,
					"internalType": "uint256",
					"name": "shares",
					"type": "uint256"
				}
			],
			"name": "Withdraw",
			"type": "event"
		},
		{
			"inputs": [],
			"name": "DOMAIN_SEPARATOR",
			"outputs": [
				{
					"internalType": "bytes32",
					"name": "result",
					"type": "bytes32"
				}
			],
			"stateMutability": "view",
			"type": "function"
		},
		{
			"inputs": [
				{
					"internalType": "address",
					"name": "owner",
					"type": "address"
				},
				{
					"internalType": "address",
					"name": "spender",
					"type": "address"
				}
			],
			"name": "allowance",
			"outputs": [
				{
					"internalType": "uint256",
					"name": "result",
					"type": "uint256"
				}
			],
			"stateMutability": "view",
			"type": "function"
		},
		{
			"inputs": [
				{
					"internalType": "address",
					"name": "spender",
					"type": "address"
				},
				{
					"internalType": "uint256",
					"name": "amount",
					"type": "uint256"
				}
			],
			"name": "approve",
			"outputs": [
				{
					"internalType": "bool",
					"name": "",
					"type": "bool"
				}
			],
			"stateMutability": "nonpayable",
			"type": "function"
		},
		{
			"inputs": [],
			"name": "asset",
			"outputs": [
				{
					"internalType": "contract ERC20",
					"name": "",
					"type": "address"
				}
			],
			"stateMutability": "view",
			"type": "function"
		},
		{
			"inputs": [
				{
					"internalType": "address",
					"name": "owner",
					"type": "address"
				}
			],
			"name": "balanceOf",
			"outputs": [
				{
					"internalType": "uint256",
					"name": "result",
					"type": "uint256"
				}
			],
			"stateMutability": "view",
			"type": "function"
		},
		{
			"inputs": [
				{
					"internalType": "uint256",
					"name": "shares",
					"type": "uint256"
				}
			],
			"name": "convertToAssets",
			"outputs": [
				{
					"internalType": "uint256",
					"name": "",
					"type": "uint256"
				}
			],
			"stateMutability": "view",
			"type": "function"
		},
		{
			"inputs": [
				{
					"internalType": "uint256",
					"name": "assets",
					"type": "uint256"
				}
			],
			"name": "convertToShares",
			"outputs": [
				{
					"internalType": "uint256",
					"name": "",
					"type": "uint256"
				}
			],
			"stateMutability": "view",
			"type": "function"
		},
		{
			"inputs": [],
			"name": "decimals",
			"outputs": [
				{
					"internalType": "uint8",
					"name": "",
					"type": "uint8"
				}
			],
			"stateMutability": "view",
			"type": "function"
		},
		{
			"inputs": [
				{
					"internalType": "uint256",
					"name": "assets",
					"type": "uint256"
				},
				{
					"internalType": "address",
					"name": "receiver",
					"type": "address"
				}
			],
			"name": "deposit",
			"outputs": [
				{
					"internalType": "uint256",
					"name": "shares",
					"type": "uint256"
				}
			],
			"stateMutability": "payable",
			"type": "function"
		},
		{
			"inputs": [
				{
					"internalType": "address",
					"name": "receiver",
					"type": "address"
				}
			],
			"name": "deposit",
			"outputs": [
				{
					"internalType": "uint256",
					"name": "shares",
					"type": "uint256"
				}
			],
			"stateMutability": "payable",
			"type": "function"
		},
		{
			"inputs": [],
			"name": "erc20Inhibitor",
			"outputs": [
				{
					"internalType": "uint128",
					"name": "",
					"type": "uint128"
				}
			],
			"stateMutability": "view",
			"type": "function"
		},
		{
			"inputs": [],
			"name": "erc20PurchasableRate",
			"outputs": [
				{
					"internalType": "uint128",
					"name": "",
					"type": "uint128"
				}
			],
			"stateMutability": "view",
			"type": "function"
		},
		{
			"inputs": [],
			"name": "erc20PurchasableTime",
			"outputs": [
				{
					"internalType": "uint256",
					"name": "",
					"type": "uint256"
				}
			],
			"stateMutability": "view",
			"type": "function"
		},
		{
			"inputs": [
				{
					"internalType": "contract SwapAbstract",
					"name": "sa",
					"type": "address"
				},
				{
					"internalType": "uint256",
					"name": "erc20s",
					"type": "uint256"
				},
				{
					"internalType": "address",
					"name": "receiver",
					"type": "address"
				}
			],
			"name": "erc20ToNativeSwap",
			"outputs": [
				{
					"internalType": "uint256",
					"name": "earned",
					"type": "uint256"
				}
			],
			"stateMutability": "nonpayable",
			"type": "function"
		},
		{
			"inputs": [
				{
					"internalType": "uint256",
					"name": "erc20sSold",
					"type": "uint256"
				},
				{
					"internalType": "address",
					"name": "recipient",
					"type": "address"
				}
			],
			"name": "erc20ToNativeSwap",
			"outputs": [
				{
					"internalType": "uint256",
					"name": "nativesBought",
					"type": "uint256"
				}
			],
			"stateMutability": "nonpayable",
			"type": "function"
		},
		{
			"inputs": [
				{
					"internalType": "uint256",
					"name": "erc20sSold",
					"type": "uint256"
				}
			],
			"name": "erc20ToNativeSwap",
			"outputs": [
				{
					"internalType": "uint256",
					"name": "nativesBought",
					"type": "uint256"
				}
			],
			"stateMutability": "nonpayable",
			"type": "function"
		},
		{
			"inputs": [
				{
					"internalType": "uint256",
					"name": "erc20sSold",
					"type": "uint256"
				},
				{
					"components": [
						{
							"internalType": "uint256",
							"name": "deadline",
							"type": "uint256"
						},
						{
							"internalType": "uint8",
							"name": "v",
							"type": "uint8"
						},
						{
							"internalType": "bytes32",
							"name": "r",
							"type": "bytes32"
						},
						{
							"internalType": "bytes32",
							"name": "s",
							"type": "bytes32"
						}
					],
					"internalType": "struct Permit2Sig",
					"name": "sig",
					"type": "tuple"
				}
			],
			"name": "erc20ToNativeSwap",
			"outputs": [
				{
					"internalType": "uint256",
					"name": "nativesBought",
					"type": "uint256"
				}
			],
			"stateMutability": "nonpayable",
			"type": "function"
		},
		{
			"inputs": [
				{
					"internalType": "uint256",
					"name": "erc20sSold",
					"type": "uint256"
				},
				{
					"internalType": "address",
					"name": "recipient",
					"type": "address"
				},
				{
					"components": [
						{
							"internalType": "uint256",
							"name": "deadline",
							"type": "uint256"
						},
						{
							"internalType": "uint8",
							"name": "v",
							"type": "uint8"
						},
						{
							"internalType": "bytes32",
							"name": "r",
							"type": "bytes32"
						},
						{
							"internalType": "bytes32",
							"name": "s",
							"type": "bytes32"
						}
					],
					"internalType": "struct Permit2Sig",
					"name": "sig",
					"type": "tuple"
				}
			],
			"name": "erc20ToNativeSwap",
			"outputs": [
				{
					"internalType": "uint256",
					"name": "nativesBought",
					"type": "uint256"
				}
			],
			"stateMutability": "nonpayable",
			"type": "function"
		},
		{
			"inputs": [
				{
					"internalType": "uint256",
					"name": "erc20sSold",
					"type": "uint256"
				}
			],
			"name": "getERC20ToNativePrice",
			"outputs": [
				{
					"internalType": "uint256",
					"name": "nativesBought",
					"type": "uint256"
				}
			],
			"stateMutability": "view",
			"type": "function"
		},
		{
			"inputs": [
				{
					"internalType": "uint256",
					"name": "nativesSold",
					"type": "uint256"
				}
			],
			"name": "getNativeToERC20Price",
			"outputs": [
				{
					"internalType": "uint256",
					"name": "erc20sBought",
					"type": "uint256"
				}
			],
			"stateMutability": "view",
			"type": "function"
		},
		{
			"inputs": [],
			"name": "name",
			"outputs": [
				{
					"internalType": "string",
					"name": "",
					"type": "string"
				}
			],
			"stateMutability": "pure",
			"type": "function"
		},
		{
			"inputs": [],
			"name": "nativeInhibitor",
			"outputs": [
				{
					"internalType": "uint128",
					"name": "",
					"type": "uint128"
				}
			],
			"stateMutability": "view",
			"type": "function"
		},
		{
			"inputs": [],
			"name": "nativePurchasableRate",
			"outputs": [
				{
					"internalType": "uint128",
					"name": "",
					"type": "uint128"
				}
			],
			"stateMutability": "view",
			"type": "function"
		},
		{
			"inputs": [],
			"name": "nativePurchasableTime",
			"outputs": [
				{
					"internalType": "uint256",
					"name": "",
					"type": "uint256"
				}
			],
			"stateMutability": "view",
			"type": "function"
		},
		{
			"inputs": [
				{
					"internalType": "contract SwapAbstract",
					"name": "sa",
					"type": "address"
				},
				{
					"internalType": "uint256",
					"name": "natives",
					"type": "uint256"
				},
				{
					"internalType": "address",
					"name": "receiver",
					"type": "address"
				}
			],
			"name": "nativeToERC20Swap",
			"outputs": [
				{
					"internalType": "uint256",
					"name": "earned",
					"type": "uint256"
				}
			],
			"stateMutability": "nonpayable",
			"type": "function"
		},
		{
			"inputs": [],
			"name": "nativeToERC20Swap",
			"outputs": [
				{
					"internalType": "uint256",
					"name": "erc20sBought",
					"type": "uint256"
				}
			],
			"stateMutability": "payable",
			"type": "function"
		},
		{
			"inputs": [
				{
					"internalType": "address",
					"name": "recipient",
					"type": "address"
				}
			],
			"name": "nativeToERC20Swap",
			"outputs": [
				{
					"internalType": "uint256",
					"name": "erc20sBought",
					"type": "uint256"
				}
			],
			"stateMutability": "payable",
			"type": "function"
		},
		{
			"inputs": [
				{
					"internalType": "uint256",
					"name": "assets",
					"type": "uint256"
				},
				{
					"internalType": "address",
					"name": "receiver",
					"type": "address"
				}
			],
			"name": "noSupplyDeposit",
			"outputs": [
				{
					"internalType": "uint256",
					"name": "shares",
					"type": "uint256"
				}
			],
			"stateMutability": "payable",
			"type": "function"
		},
		{
			"inputs": [
				{
					"internalType": "address",
					"name": "receiver",
					"type": "address"
				}
			],
			"name": "noSupplyDeposit",
			"outputs": [
				{
					"internalType": "uint256",
					"name": "shares",
					"type": "uint256"
				}
			],
			"stateMutability": "payable",
			"type": "function"
		},
		{
			"inputs": [
				{
					"internalType": "address",
					"name": "owner",
					"type": "address"
				}
			],
			"name": "nonces",
			"outputs": [
				{
					"internalType": "uint256",
					"name": "result",
					"type": "uint256"
				}
			],
			"stateMutability": "view",
			"type": "function"
		},
		{
			"inputs": [
				{
					"internalType": "address",
					"name": "owner",
					"type": "address"
				},
				{
					"internalType": "address",
					"name": "spender",
					"type": "address"
				},
				{
					"internalType": "uint256",
					"name": "value",
					"type": "uint256"
				},
				{
					"internalType": "uint256",
					"name": "deadline",
					"type": "uint256"
				},
				{
					"internalType": "uint8",
					"name": "v",
					"type": "uint8"
				},
				{
					"internalType": "bytes32",
					"name": "r",
					"type": "bytes32"
				},
				{
					"internalType": "bytes32",
					"name": "s",
					"type": "bytes32"
				}
			],
			"name": "permit",
			"outputs": [],
			"stateMutability": "nonpayable",
			"type": "function"
		},
		{
			"inputs": [
				{
					"internalType": "uint256",
					"name": "assets",
					"type": "uint256"
				}
			],
			"name": "previewDeposit",
			"outputs": [
				{
					"internalType": "uint256",
					"name": "",
					"type": "uint256"
				}
			],
			"stateMutability": "view",
			"type": "function"
		},
		{
			"inputs": [
				{
					"internalType": "uint256",
					"name": "shares",
					"type": "uint256"
				}
			],
			"name": "previewRedeem",
			"outputs": [
				{
					"internalType": "uint256",
					"name": "",
					"type": "uint256"
				}
			],
			"stateMutability": "view",
			"type": "function"
		},
		{
			"inputs": [],
			"name": "purchasableERC20s",
			"outputs": [
				{
					"internalType": "uint256",
					"name": "",
					"type": "uint256"
				}
			],
			"stateMutability": "view",
			"type": "function"
		},
		{
			"inputs": [],
			"name": "purchasableNatives",
			"outputs": [
				{
					"internalType": "uint256",
					"name": "",
					"type": "uint256"
				}
			],
			"stateMutability": "view",
			"type": "function"
		},
		{
			"inputs": [
				{
					"internalType": "uint256",
					"name": "shares",
					"type": "uint256"
				},
				{
					"internalType": "address",
					"name": "receiver",
					"type": "address"
				},
				{
					"internalType": "address",
					"name": "owner",
					"type": "address"
				}
			],
			"name": "redeem",
			"outputs": [
				{
					"internalType": "uint256",
					"name": "assets",
					"type": "uint256"
				}
			],
			"stateMutability": "nonpayable",
			"type": "function"
		},
		{
			"inputs": [],
			"name": "symbol",
			"outputs": [
				{
					"internalType": "string",
					"name": "",
					"type": "string"
				}
			],
			"stateMutability": "view",
			"type": "function"
		},
		{
			"inputs": [],
			"name": "totalSupply",
			"outputs": [
				{
					"internalType": "uint256",
					"name": "result",
					"type": "uint256"
				}
			],
			"stateMutability": "view",
			"type": "function"
		},
		{
			"inputs": [
				{
					"internalType": "address",
					"name": "to",
					"type": "address"
				},
				{
					"internalType": "uint256",
					"name": "amount",
					"type": "uint256"
				}
			],
			"name": "transfer",
			"outputs": [
				{
					"internalType": "bool",
					"name": "",
					"type": "bool"
				}
			],
			"stateMutability": "nonpayable",
			"type": "function"
		},
		{
			"inputs": [
				{
					"internalType": "address",
					"name": "from",
					"type": "address"
				},
				{
					"internalType": "address",
					"name": "to",
					"type": "address"
				},
				{
					"internalType": "uint256",
					"name": "amount",
					"type": "uint256"
				}
			],
			"name": "transferFrom",
			"outputs": [
				{
					"internalType": "bool",
					"name": "",
					"type": "bool"
				}
			],
			"stateMutability": "nonpayable",
			"type": "function"
		}
	]
}