{
	"data": {
		"bytecode": {
			"linkReferences": {},
			"object": "6080604052348015600e575f5ffd5b50612c518061001c5f395ff3fe608060405234801561000f575f5ffd5b5060043610610029575f3560e01c80639f03e82d1461002d575b5f5ffd5b61004760048036038101906100429190610230565b61005d565b6040516100549190610320565b60405180910390f35b5f5f33848460405161006e906100d6565b61007a939291906103b9565b604051809103905ff080158015610093573d5f5f3e3d5ffd5b5090507ffa60e7cd4c14b972a57d20251fbe91bf47eeaaf3fcc201c26a8c779f9db6b1df33826040516100c79291906103fc565b60405180910390a15092915050565b6127f88061042483390190565b5f604051905090565b5f5ffd5b5f5ffd5b5f5ffd5b5f5ffd5b5f601f19601f8301169050919050565b7f4e487b71000000000000000000000000000000000000000000000000000000005f52604160045260245ffd5b610142826100fc565b810181811067ffffffffffffffff821117156101615761016061010c565b5b80604052505050565b5f6101736100e3565b905061017f8282610139565b919050565b5f67ffffffffffffffff82111561019e5761019d61010c565b5b6101a7826100fc565b9050602081019050919050565b828183375f83830152505050565b5f6101d46101cf84610184565b61016a565b9050828152602081018484840111156101f0576101ef6100f8565b5b6101fb8482856101b4565b509392505050565b5f82601f830112610217576102166100f4565b5b81356102278482602086016101c2565b91505092915050565b5f5f60408385031215610246576102456100ec565b5b5f83013567ffffffffffffffff811115610263576102626100f0565b5b61026f85828601610203565b925050602083013567ffffffffffffffff8111156102905761028f6100f0565b5b61029c85828601610203565b9150509250929050565b5f73ffffffffffffffffffffffffffffffffffffffff82169050919050565b5f819050919050565b5f6102e86102e36102de846102a6565b6102c5565b6102a6565b9050919050565b5f6102f9826102ce565b9050919050565b5f61030a826102ef565b9050919050565b61031a81610300565b82525050565b5f6020820190506103335f830184610311565b92915050565b5f610343826102a6565b9050919050565b61035381610339565b82525050565b5f81519050919050565b5f82825260208201905092915050565b8281835e5f83830152505050565b5f61038b82610359565b6103958185610363565b93506103a5818560208601610373565b6103ae816100fc565b840191505092915050565b5f6060820190506103cc5f83018661034a565b81810360208301526103de8185610381565b905081810360408301526103f28184610381565b9050949350505050565b5f60408201905061040f5f83018561034a565b61041c602083018461034a565b939250505056fe60a0604052426080908152505f6003555f60045534801561001e575f5ffd5b506040516127f83803806127f883398181016040528101906100409190610357565b828282825f73ffffffffffffffffffffffffffffffffffffffff168173ffffffffffffffffffffffffffffffffffffffff16036100b4575f6040517f1e4fbdf70000000000000000000000000000000000000000000000000000000081526004016100ab91906103ee565b60405180910390fd5b6100c3816100ef60201b60201c565b5081600190816100d39190610617565b5080600290816100e39190610617565b505050505050506106e6565b5f5f5f9054906101000a900473ffffffffffffffffffffffffffffffffffffffff169050815f5f6101000a81548173ffffffffffffffffffffffffffffffffffffffff021916908373ffffffffffffffffffffffffffffffffffffffff1602179055508173ffffffffffffffffffffffffffffffffffffffff168173ffffffffffffffffffffffffffffffffffffffff167f8be0079c531659141344cd1fd0a4f28419497f9722a3daafe3b4186f6b6457e060405160405180910390a35050565b5f604051905090565b5f5ffd5b5f5ffd5b5f73ffffffffffffffffffffffffffffffffffffffff82169050919050565b5f6101ea826101c1565b9050919050565b6101fa816101e0565b8114610204575f5ffd5b50565b5f81519050610215816101f1565b92915050565b5f5ffd5b5f5ffd5b5f601f19601f8301169050919050565b7f4e487b71000000000000000000000000000000000000000000000000000000005f52604160045260245ffd5b61026982610223565b810181811067ffffffffffffffff8211171561028857610287610233565b5b80604052505050565b5f61029a6101b0565b90506102a68282610260565b919050565b5f67ffffffffffffffff8211156102c5576102c4610233565b5b6102ce82610223565b9050602081019050919050565b8281835e5f83830152505050565b5f6102fb6102f6846102ab565b610291565b9050828152602081018484840111156103175761031661021f565b5b6103228482856102db565b509392505050565b5f82601f83011261033e5761033d61021b565b5b815161034e8482602086016102e9565b91505092915050565b5f5f5f6060848603121561036e5761036d6101b9565b5b5f61037b86828701610207565b935050602084015167ffffffffffffffff81111561039c5761039b6101bd565b5b6103a88682870161032a565b925050604084015167ffffffffffffffff8111156103c9576103c86101bd565b5b6103d58682870161032a565b9150509250925092565b6103e8816101e0565b82525050565b5f6020820190506104015f8301846103df565b92915050565b5f81519050919050565b7f4e487b71000000000000000000000000000000000000000000000000000000005f52602260045260245ffd5b5f600282049050600182168061045557607f821691505b60208210810361046857610467610411565b5b50919050565b5f819050815f5260205f209050919050565b5f6020601f8301049050919050565b5f82821b905092915050565b5f600883026104ca7fffffffffffffffffffffffffffffffffffffffffffffffffffffffffffffffff8261048f565b6104d4868361048f565b95508019841693508086168417925050509392505050565b5f819050919050565b5f819050919050565b5f61051861051361050e846104ec565b6104f5565b6104ec565b9050919050565b5f819050919050565b610531836104fe565b61054561053d8261051f565b84845461049b565b825550505050565b5f5f905090565b61055c61054d565b610567818484610528565b505050565b5b8181101561058a5761057f5f82610554565b60018101905061056d565b5050565b601f8211156105cf576105a08161046e565b6105a984610480565b810160208510156105b8578190505b6105cc6105c485610480565b83018261056c565b50505b505050565b5f82821c905092915050565b5f6105ef5f19846008026105d4565b1980831691505092915050565b5f61060783836105e0565b9150826002028217905092915050565b61062082610407565b67ffffffffffffffff81111561063957610638610233565b5b610643825461043e565b61064e82828561058e565b5f60209050601f83116001811461067f575f841561066d578287015190505b61067785826105fc565b8655506106de565b601f19841661068d8661046e565b5f5b828110156106b45784890151825560018201915060208501945060208101905061068f565b868310156106d157848901516106cd601f8916826105e0565b8355505b6001600288020188555050505b505050505050565b6080516120f36107055f395f8181610cb70152610e8901526120f35ff3fe6080604052600436106101e2575f3560e01c806395d89b4111610101578063d0e30db011610094578063dd62ed3e11610063578063dd62ed3e1461075e578063ef8b30f71461079a578063f2fde38b146107d6578063f340fa01146107fe576101e2565b8063d0e30db0146106b2578063d28d8852146106d0578063d505accf146106fa578063db006a7514610722576101e2565b8063ba087652116100d0578063ba087652146105c2578063c63d75b6146105fe578063c6e6f5921461063a578063ce96cb7714610676576101e2565b806395d89b4114610508578063a9059cbb14610532578063ac7a1b5b1461056e578063b09f126614610598576101e2565b80634cdad506116101795780637501f741116101485780637501f7411461043c5780637bde82f2146104665780637ecebe00146104a25780638da5cb5b146104de576101e2565b80634cdad5061461037e5780636e553f65146103ba57806370a08231146103ea578063715018a614610426576101e2565b806318160ddd116101b557806318160ddd146102c457806323b872dd146102ee578063313ce5671461032a5780633644e51514610354576101e2565b806306fdde03146101e657806307a2d13a14610210578063095ea7b31461024c57806310ab2d0114610288575b5f5ffd5b3480156101f1575f5ffd5b506101fa61082e565b60405161020791906118fb565b60405180910390f35b34801561021b575f5ffd5b5061023660048036038101906102319190611956565b6108be565b6040516102439190611990565b60405180910390f35b348015610257575f5ffd5b50610272600480360381019061026d9190611a03565b6108cf565b60405161027f9190611a5b565b60405180910390f35b348015610293575f5ffd5b506102ae60048036038101906102a99190611ad5565b61095a565b6040516102bb9190611b98565b60405180910390f35b3480156102cf575f5ffd5b506102d86109dc565b6040516102e59190611990565b60405180910390f35b3480156102f9575f5ffd5b50610314600480360381019061030f9190611bb8565b6109ed565b6040516103219190611a5b565b60405180910390f35b348015610335575f5ffd5b5061033e610b93565b60405161034b9190611c23565b60405180910390f35b34801561035f575f5ffd5b50610368610b9b565b6040516103759190611c54565b60405180910390f35b348015610389575f5ffd5b506103a4600480360381019061039f9190611956565b610c17565b6040516103b19190611990565b60405180910390f35b6103d460048036038101906103cf9190611c6d565b610c5c565b6040516103e19190611990565b60405180910390f35b3480156103f5575f5ffd5b50610410600480360381019061040b9190611cab565b610c6e565b60405161041d9190611990565b60405180910390f35b348015610431575f5ffd5b5061043a610c87565b005b348015610447575f5ffd5b50610450610c9a565b60405161045d9190611990565b60405180910390f35b348015610471575f5ffd5b5061048c60048036038101906104879190611c6d565b610cfa565b6040516104999190611990565b60405180910390f35b3480156104ad575f5ffd5b506104c860048036038101906104c39190611cab565b610d0e565b6040516104d59190611990565b60405180910390f35b3480156104e9575f5ffd5b506104f2610d27565b6040516104ff9190611ce5565b60405180910390f35b348015610513575f5ffd5b5061051c610d4e565b60405161052991906118fb565b60405180910390f35b34801561053d575f5ffd5b5061055860048036038101906105539190611a03565b610dde565b6040516105659190611a5b565b60405180910390f35b348015610579575f5ffd5b50610582610e6c565b60405161058f9190611990565b60405180910390f35b3480156105a3575f5ffd5b506105ac610ecc565b6040516105b991906118fb565b60405180910390f35b3480156105cd575f5ffd5b506105e860048036038101906105e39190611cfe565b610f58565b6040516105f59190611990565b60405180910390f35b348015610609575f5ffd5b50610624600480360381019061061f9190611cab565b6110bc565b6040516106319190611990565b60405180910390f35b348015610645575f5ffd5b50610660600480360381019061065b9190611956565b6110cc565b60405161066d9190611990565b60405180910390f35b348015610681575f5ffd5b5061069c60048036038101906106979190611cab565b6110dd565b6040516106a99190611990565b60405180910390f35b6106ba6110ed565b6040516106c79190611990565b60405180910390f35b3480156106db575f5ffd5b506106e46110fc565b6040516106f191906118fb565b60405180910390f35b348015610705575f5ffd5b50610720600480360381019061071b9190611da2565b611188565b005b34801561072d575f5ffd5b5061074860048036038101906107439190611956565b61134b565b6040516107559190611990565b60405180910390f35b348015610769575f5ffd5b50610784600480360381019061077f9190611e3f565b61135d565b6040516107919190611990565b60405180910390f35b3480156107a5575f5ffd5b506107c060048036038101906107bb9190611956565b6113f4565b6040516107cd9190611990565b60405180910390f35b3480156107e1575f5ffd5b506107fc60048036038101906107f79190611cab565b61142d565b005b61081860048036038101906108139190611cab565b6114b1565b6040516108259190611990565b60405180910390f35b60606001805461083d90611eaa565b80601f016020809104026020016040519081016040528092919081815260200182805461086990611eaa565b80156108b45780601f1061088b576101008083540402835291602001916108b4565b820191905f5260205f20905b81548152906001019060200180831161089757829003601f168201915b5050505050905090565b5f6108c882610c17565b9050919050565b5f6108d861154b565b1561090b578119156e22d473030f116ddee9f6b43ac78ba38460601b60601c181761090a57633f68539a5f526004601cfd5b5b82602052637f5e9f20600c52335f52816034600c2055815f52602c5160601c337f8c5be1e5ebec7d5bd14f71427d1e84f3dd0314c0f7b2291e5b200ac8c7c3b92560205fa36001905092915050565b6060610964611552565b5f8573ffffffffffffffffffffffffffffffffffffffff1685858560405161098d929190611f16565b5f6040518083038185875af1925050503d805f81146109c7576040519150601f19603f3d011682016040523d82523d5f602084013e6109cc565b606091505b5091505080915050949350505050565b5f6805345cdf77eb68f44c54905090565b5f6109f98484846115d9565b610a0161154b565b15610acf578360601b6e22d473030f116ddee9f6b43ac78ba33314610a5a5733602052637f5e9f208117600c526034600c208054801915610a575780851115610a51576313be252b5f526004601cfd5b84810382555b50505b6387a211a28117600c526020600c20805480851115610a805763f4d678b85f526004601cfd5b8481038255855f526020600c2085815401815585602052600c5160601c8460601c7fddf252ad1be2c89b69c2b068fc378daa952ba7f163c4a11628f55a4df523b3ef602080a350505050610b7d565b8360601b33602052637f5e9f208117600c526034600c208054801915610b0a5780851115610b04576313be252b5f526004601cfd5b84810382555b6387a211a28317600c526020600c20805480871115610b305763f4d678b85f526004601cfd5b8681038255875f526020600c2087815401815587602052600c5160601c8660601c7fddf252ad1be2c89b69c2b068fc378daa952ba7f163c4a11628f55a4df523b3ef602080a35050505050505b610b888484846115de565b600190509392505050565b5f6012905090565b5f5f610ba56115e3565b90505f5f1b8103610bc257610bb861082e565b8051906020012090505b5f610bcb6115e7565b90506040517f8b73c3c69bb8fe3d512ecc4cf759cc79239f7b179b0ffacaa9a75d522b39400f815282602082015281604082015246606082015230608082015260a08120935050505090565b5f81670de0b6b3a7640000610c2c9190611f5b565b82610c35610e6c565b610c3f9190611f8e565b610c499190611ffc565b905080471015610c57574790505b919050565b5f610c66826114b1565b905092915050565b5f6387a211a2600c52815f526020600c20549050919050565b610c8f611552565b610c985f611610565b565b5f60035462015180670de0b6b3a7640000610cb59190611ffc565b7f000000000000000000000000000000000000000000000000000000000000000042610ce1919061202c565b610ceb9190611f8e565b610cf5919061202c565b905090565b5f610d06838333610f58565b905092915050565b5f6338377508600c52815f526020600c20549050919050565b5f5f5f9054906101000a900473ffffffffffffffffffffffffffffffffffffffff16905090565b606060028054610d5d90611eaa565b80601f0160208091040260200160405190810160405280929190818152602001828054610d8990611eaa565b8015610dd45780601f10610dab57610100808354040283529160200191610dd4565b820191905f5260205f20905b815481529060010190602001808311610db757829003601f168201915b5050505050905090565b5f610dea3384846115d9565b6387a211a2600c52335f526020600c20805480841115610e115763f4d678b85f526004601cfd5b8381038255845f526020600c2084815401815584602052600c5160601c337fddf252ad1be2c89b69c2b068fc378daa952ba7f163c4a11628f55a4df523b3ef602080a3505050610e623384846115de565b6001905092915050565b5f6004546201518067016345785d8a0000610e879190611ffc565b7f000000000000000000000000000000000000000000000000000000000000000042610eb3919061202c565b610ebd9190611f8e565b610ec7919061202c565b905090565b60028054610ed990611eaa565b80601f0160208091040260200160405190810160405280929190818152602001828054610f0590611eaa565b8015610f505780601f10610f2757610100808354040283529160200191610f50565b820191905f5260205f20905b815481529060010190602001808311610f3357829003601f168201915b505050505081565b5f610f6284610c17565b90508173ffffffffffffffffffffffffffffffffffffffff163373ffffffffffffffffffffffffffffffffffffffff1614610fa357610fa28233866116d1565b5b8060045f828254610fb49190611f5b565b92505081905550610fc58285611762565b5f8373ffffffffffffffffffffffffffffffffffffffff1682604051610fea90612082565b5f6040518083038185875af1925050503d805f8114611024576040519150601f19603f3d011682016040523d82523d5f602084013e611029565b606091505b5050905080611036575f5ffd5b8273ffffffffffffffffffffffffffffffffffffffff168473ffffffffffffffffffffffffffffffffffffffff163373ffffffffffffffffffffffffffffffffffffffff167ffbde797d201c681b91056529119e0b02407c7bb96a4a2c75c01fc9667232c8db85896040516110ac929190612096565b60405180910390a4509392505050565b5f6110c5610c9a565b9050919050565b5f6110d6826113f4565b9050919050565b5f6110e6610e6c565b9050919050565b5f6110f7336114b1565b905090565b6001805461110990611eaa565b80601f016020809104026020016040519081016040528092919081815260200182805461113590611eaa565b80156111805780601f1061115757610100808354040283529160200191611180565b820191905f5260205f20905b81548152906001019060200180831161116357829003601f168201915b505050505081565b61119061154b565b156111c3578419156e22d473030f116ddee9f6b43ac78ba38760601b60601c18176111c257633f68539a5f526004601cfd5b5b5f6111cc6115e3565b90505f5f1b81036111e9576111df61082e565b8051906020012090505b5f6111f26115e7565b90508542111561120957631a15a3cc5f526004601cfd5b6040518960601b60601c99508860601b60601c985065383775081901600e52895f526020600c2080547f8b73c3c69bb8fe3d512ecc4cf759cc79239f7b179b0ffacaa9a75d522b39400f835284602084015283604084015246606084015230608084015260a08320602e527f6e71edae12b1b97f4d1f60370fef10105fa2faae0126114a169c64845d6126c983528b60208401528a60408401528960608401528060808401528860a084015260c08320604e526042602c205f528760ff16602052866040528560605260208060805f60015afa8c3d51146112f15763ddafbaef5f526004601cfd5b80820183558b637f5e9f2060a01b176040528a6034602c20558b8d7f8c5be1e5ebec7d5bd14f71427d1e84f3dd0314c0f7b2291e5b200ac8c7c3b925602060608801a3836040525f60605250505050505050505050505050565b5f6113568233610cfa565b9050919050565b5f61136661154b565b156113d6576e22d473030f116ddee9f6b43ac78ba373ffffffffffffffffffffffffffffffffffffffff168273ffffffffffffffffffffffffffffffffffffffff16036113d5577fffffffffffffffffffffffffffffffffffffffffffffffffffffffffffffffff90506113ee565b5b81602052637f5e9f20600c52825f526034600c205490505b92915050565b5f8167016345785d8a00006114099190611f5b565b82611412610c9a565b61141c9190611f8e565b6114269190611ffc565b9050919050565b611435611552565b5f73ffffffffffffffffffffffffffffffffffffffff168173ffffffffffffffffffffffffffffffffffffffff16036114a5575f6040517f1e4fbdf700000000000000000000000000000000000000000000000000000000815260040161149c9190611ce5565b60405180910390fd5b6114ae81611610565b50565b5f6114bb346113f4565b90508060035f8282546114ce9190611f5b565b925050819055506114df82826117f2565b8173ffffffffffffffffffffffffffffffffffffffff163373ffffffffffffffffffffffffffffffffffffffff167fdcbc1c05240f31ff3ad067ef1ee35ce4997762752e3a095284754544f4c709d7348460405161153e929190612096565b60405180910390a3919050565b5f5f905090565b61155a611884565b73ffffffffffffffffffffffffffffffffffffffff16611578610d27565b73ffffffffffffffffffffffffffffffffffffffff16146115d75761159b611884565b6040517f118cdaa70000000000000000000000000000000000000000000000000000000081526004016115ce9190611ce5565b60405180910390fd5b565b505050565b505050565b5f90565b5f7fc89efdaa54c0f20c7adf612882df0950f5a951637e0307cdcb4c672f298b8bc65f1b905090565b5f5f5f9054906101000a900473ffffffffffffffffffffffffffffffffffffffff169050815f5f6101000a81548173ffffffffffffffffffffffffffffffffffffffff021916908373ffffffffffffffffffffffffffffffffffffffff1602179055508173ffffffffffffffffffffffffffffffffffffffff168173ffffffffffffffffffffffffffffffffffffffff167f8be0079c531659141344cd1fd0a4f28419497f9722a3daafe3b4186f6b6457e060405160405180910390a35050565b6116d961154b565b15611722576e22d473030f116ddee9f6b43ac78ba373ffffffffffffffffffffffffffffffffffffffff168273ffffffffffffffffffffffffffffffffffffffff16031561175d575b81602052637f5e9f20600c52825f526034600c20805480191561175a5780831115611754576313be252b5f526004601cfd5b82810382555b50505b505050565b61176d825f836115d9565b6387a211a2600c52815f526020600c208054808311156117945763f4d678b85f526004601cfd5b8281038255826805345cdf77eb68f44c54036805345cdf77eb68f44c55825f525f8460601b60601c7fddf252ad1be2c89b69c2b068fc378daa952ba7f163c4a11628f55a4df523b3ef60205fa350506117ee825f836115de565b5050565b6117fd5f83836115d9565b6805345cdf77eb68f44c54818101818110156118205763e5cfe9575f526004601cfd5b806805345cdf77eb68f44c556387a211a2600c52835f526020600c2083815401815583602052600c5160601c5f7fddf252ad1be2c89b69c2b068fc378daa952ba7f163c4a11628f55a4df523b3ef602080a35050506118805f83836115de565b5050565b5f33905090565b5f81519050919050565b5f82825260208201905092915050565b8281835e5f83830152505050565b5f601f19601f8301169050919050565b5f6118cd8261188b565b6118d78185611895565b93506118e78185602086016118a5565b6118f0816118b3565b840191505092915050565b5f6020820190508181035f83015261191381846118c3565b905092915050565b5f5ffd5b5f5ffd5b5f819050919050565b61193581611923565b811461193f575f5ffd5b50565b5f813590506119508161192c565b92915050565b5f6020828403121561196b5761196a61191b565b5b5f61197884828501611942565b91505092915050565b61198a81611923565b82525050565b5f6020820190506119a35f830184611981565b92915050565b5f73ffffffffffffffffffffffffffffffffffffffff82169050919050565b5f6119d2826119a9565b9050919050565b6119e2816119c8565b81146119ec575f5ffd5b50565b5f813590506119fd816119d9565b92915050565b5f5f60408385031215611a1957611a1861191b565b5b5f611a26858286016119ef565b9250506020611a3785828601611942565b9150509250929050565b5f8115159050919050565b611a5581611a41565b82525050565b5f602082019050611a6e5f830184611a4c565b92915050565b5f5ffd5b5f5ffd5b5f5ffd5b5f5f83601f840112611a9557611a94611a74565b5b8235905067ffffffffffffffff811115611ab257611ab1611a78565b5b602083019150836001820283011115611ace57611acd611a7c565b5b9250929050565b5f5f5f5f60608587031215611aed57611aec61191b565b5b5f611afa878288016119ef565b9450506020611b0b87828801611942565b935050604085013567ffffffffffffffff811115611b2c57611b2b61191f565b5b611b3887828801611a80565b925092505092959194509250565b5f81519050919050565b5f82825260208201905092915050565b5f611b6a82611b46565b611b748185611b50565b9350611b848185602086016118a5565b611b8d816118b3565b840191505092915050565b5f6020820190508181035f830152611bb08184611b60565b905092915050565b5f5f5f60608486031215611bcf57611bce61191b565b5b5f611bdc868287016119ef565b9350506020611bed868287016119ef565b9250506040611bfe86828701611942565b9150509250925092565b5f60ff82169050919050565b611c1d81611c08565b82525050565b5f602082019050611c365f830184611c14565b92915050565b5f819050919050565b611c4e81611c3c565b82525050565b5f602082019050611c675f830184611c45565b92915050565b5f5f60408385031215611c8357611c8261191b565b5b5f611c9085828601611942565b9250506020611ca1858286016119ef565b9150509250929050565b5f60208284031215611cc057611cbf61191b565b5b5f611ccd848285016119ef565b91505092915050565b611cdf816119c8565b82525050565b5f602082019050611cf85f830184611cd6565b92915050565b5f5f5f60608486031215611d1557611d1461191b565b5b5f611d2286828701611942565b9350506020611d33868287016119ef565b9250506040611d44868287016119ef565b9150509250925092565b611d5781611c08565b8114611d61575f5ffd5b50565b5f81359050611d7281611d4e565b92915050565b611d8181611c3c565b8114611d8b575f5ffd5b50565b5f81359050611d9c81611d78565b92915050565b5f5f5f5f5f5f5f60e0888a031215611dbd57611dbc61191b565b5b5f611dca8a828b016119ef565b9750506020611ddb8a828b016119ef565b9650506040611dec8a828b01611942565b9550506060611dfd8a828b01611942565b9450506080611e0e8a828b01611d64565b93505060a0611e1f8a828b01611d8e565b92505060c0611e308a828b01611d8e565b91505092959891949750929550565b5f5f60408385031215611e5557611e5461191b565b5b5f611e62858286016119ef565b9250506020611e73858286016119ef565b9150509250929050565b7f4e487b71000000000000000000000000000000000000000000000000000000005f52602260045260245ffd5b5f6002820490506001821680611ec157607f821691505b602082108103611ed457611ed3611e7d565b5b50919050565b5f81905092915050565b828183375f83830152505050565b5f611efd8385611eda565b9350611f0a838584611ee4565b82840190509392505050565b5f611f22828486611ef2565b91508190509392505050565b7f4e487b71000000000000000000000000000000000000000000000000000000005f52601160045260245ffd5b5f611f6582611923565b9150611f7083611923565b9250828201905080821115611f8857611f87611f2e565b5b92915050565b5f611f9882611923565b9150611fa383611923565b9250828202611fb181611923565b91508282048414831517611fc857611fc7611f2e565b5b5092915050565b7f4e487b71000000000000000000000000000000000000000000000000000000005f52601260045260245ffd5b5f61200682611923565b915061201183611923565b92508261202157612020611fcf565b5b828204905092915050565b5f61203682611923565b915061204183611923565b925082820390508181111561205957612058611f2e565b5b92915050565b50565b5f61206d5f83611eda565b91506120788261205f565b5f82019050919050565b5f61208c82612062565b9150819050919050565b5f6040820190506120a95f830185611981565b6120b66020830184611981565b939250505056fea2646970667358221220f1b55101e7a2da95c16025f31efd46d8503e331b2f7986bccc1a8211bb1268a064736f6c634300081c0033a2646970667358221220e03dc7659ed6c2b1032940775e93c1bffa0f947151a4572e7115a76e1937545064736f6c634300081c0033",
			"opcodes": "PUSH1 0x80 PUSH1 0x40 MSTORE CALLVALUE DUP1 ISZERO PUSH1 0xE JUMPI PUSH0 PUSH0 REVERT JUMPDEST POP PUSH2 0x2C51 DUP1 PUSH2 0x1C PUSH0 CODECOPY PUSH0 RETURN INVALID PUSH1 0x80 PUSH1 0x40 MSTORE CALLVALUE DUP1 ISZERO PUSH2 0xF JUMPI PUSH0 PUSH0 REVERT JUMPDEST POP PUSH1 0x4 CALLDATASIZE LT PUSH2 0x29 JUMPI PUSH0 CALLDATALOAD PUSH1 0xE0 SHR DUP1 PUSH4 0x9F03E82D EQ PUSH2 0x2D JUMPI JUMPDEST PUSH0 PUSH0 REVERT JUMPDEST PUSH2 0x47 PUSH1 0x4 DUP1 CALLDATASIZE SUB DUP2 ADD SWAP1 PUSH2 0x42 SWAP2 SWAP1 PUSH2 0x230 JUMP JUMPDEST PUSH2 0x5D JUMP JUMPDEST PUSH1 0x40 MLOAD PUSH2 0x54 SWAP2 SWAP1 PUSH2 0x320 JUMP JUMPDEST PUSH1 0x40 MLOAD DUP1 SWAP2 SUB SWAP1 RETURN JUMPDEST PUSH0 PUSH0 CALLER DUP5 DUP5 PUSH1 0x40 MLOAD PUSH2 0x6E SWAP1 PUSH2 0xD6 JUMP JUMPDEST PUSH2 0x7A SWAP4 SWAP3 SWAP2 SWAP1 PUSH2 0x3B9 JUMP JUMPDEST PUSH1 0x40 MLOAD DUP1 SWAP2 SUB SWAP1 PUSH0 CREATE DUP1 ISZERO DUP1 ISZERO PUSH2 0x93 JUMPI RETURNDATASIZE PUSH0 PUSH0 RETURNDATACOPY RETURNDATASIZE PUSH0 REVERT JUMPDEST POP SWAP1 POP PUSH32 0xFA60E7CD4C14B972A57D20251FBE91BF47EEAAF3FCC201C26A8C779F9DB6B1DF CALLER DUP3 PUSH1 0x40 MLOAD PUSH2 0xC7 SWAP3 SWAP2 SWAP1 PUSH2 0x3FC JUMP JUMPDEST PUSH1 0x40 MLOAD DUP1 SWAP2 SUB SWAP1 LOG1 POP SWAP3 SWAP2 POP POP JUMP JUMPDEST PUSH2 0x27F8 DUP1 PUSH2 0x424 DUP4 CODECOPY ADD SWAP1 JUMP JUMPDEST PUSH0 PUSH1 0x40 MLOAD SWAP1 POP SWAP1 JUMP JUMPDEST PUSH0 PUSH0 REVERT JUMPDEST PUSH0 PUSH0 REVERT JUMPDEST PUSH0 PUSH0 REVERT JUMPDEST PUSH0 PUSH0 REVERT JUMPDEST PUSH0 PUSH1 0x1F NOT PUSH1 0x1F DUP4 ADD AND SWAP1 POP SWAP2 SWAP1 POP JUMP JUMPDEST PUSH32 0x4E487B7100000000000000000000000000000000000000000000000000000000 PUSH0 MSTORE PUSH1 0x41 PUSH1 0x4 MSTORE PUSH1 0x24 PUSH0 REVERT JUMPDEST PUSH2 0x142 DUP3 PUSH2 0xFC JUMP JUMPDEST DUP2 ADD DUP2 DUP2 LT PUSH8 0xFFFFFFFFFFFFFFFF DUP3 GT OR ISZERO PUSH2 0x161 JUMPI PUSH2 0x160 PUSH2 0x10C JUMP JUMPDEST JUMPDEST DUP1 PUSH1 0x40 MSTORE POP POP POP JUMP JUMPDEST PUSH0 PUSH2 0x173 PUSH2 0xE3 JUMP JUMPDEST SWAP1 POP PUSH2 0x17F DUP3 DUP3 PUSH2 0x139 JUMP JUMPDEST SWAP2 SWAP1 POP JUMP JUMPDEST PUSH0 PUSH8 0xFFFFFFFFFFFFFFFF DUP3 GT ISZERO PUSH2 0x19E JUMPI PUSH2 0x19D PUSH2 0x10C JUMP JUMPDEST JUMPDEST PUSH2 0x1A7 DUP3 PUSH2 0xFC JUMP JUMPDEST SWAP1 POP PUSH1 0x20 DUP2 ADD SWAP1 POP SWAP2 SWAP1 POP JUMP JUMPDEST DUP3 DUP2 DUP4 CALLDATACOPY PUSH0 DUP4 DUP4 ADD MSTORE POP POP POP JUMP JUMPDEST PUSH0 PUSH2 0x1D4 PUSH2 0x1CF DUP5 PUSH2 0x184 JUMP JUMPDEST PUSH2 0x16A JUMP JUMPDEST SWAP1 POP DUP3 DUP2 MSTORE PUSH1 0x20 DUP2 ADD DUP5 DUP5 DUP5 ADD GT ISZERO PUSH2 0x1F0 JUMPI PUSH2 0x1EF PUSH2 0xF8 JUMP JUMPDEST JUMPDEST PUSH2 0x1FB DUP5 DUP3 DUP6 PUSH2 0x1B4 JUMP JUMPDEST POP SWAP4 SWAP3 POP POP POP JUMP JUMPDEST PUSH0 DUP3 PUSH1 0x1F DUP4 ADD SLT PUSH2 0x217 JUMPI PUSH2 0x216 PUSH2 0xF4 JUMP JUMPDEST JUMPDEST DUP2 CALLDATALOAD PUSH2 0x227 DUP5 DUP3 PUSH1 0x20 DUP7 ADD PUSH2 0x1C2 JUMP JUMPDEST SWAP2 POP POP SWAP3 SWAP2 POP POP JUMP JUMPDEST PUSH0 PUSH0 PUSH1 0x40 DUP4 DUP6 SUB SLT ISZERO PUSH2 0x246 JUMPI PUSH2 0x245 PUSH2 0xEC JUMP JUMPDEST JUMPDEST PUSH0 DUP4 ADD CALLDATALOAD PUSH8 0xFFFFFFFFFFFFFFFF DUP2 GT ISZERO PUSH2 0x263 JUMPI PUSH2 0x262 PUSH2 0xF0 JUMP JUMPDEST JUMPDEST PUSH2 0x26F DUP6 DUP3 DUP7 ADD PUSH2 0x203 JUMP JUMPDEST SWAP3 POP POP PUSH1 0x20 DUP4 ADD CALLDATALOAD PUSH8 0xFFFFFFFFFFFFFFFF DUP2 GT ISZERO PUSH2 0x290 JUMPI PUSH2 0x28F PUSH2 0xF0 JUMP JUMPDEST JUMPDEST PUSH2 0x29C DUP6 DUP3 DUP7 ADD PUSH2 0x203 JUMP JUMPDEST SWAP2 POP POP SWAP3 POP SWAP3 SWAP1 POP JUMP JUMPDEST PUSH0 PUSH20 0xFFFFFFFFFFFFFFFFFFFFFFFFFFFFFFFFFFFFFFFF DUP3 AND SWAP1 POP SWAP2 SWAP1 POP JUMP JUMPDEST PUSH0 DUP2 SWAP1 POP SWAP2 SWAP1 POP JUMP JUMPDEST PUSH0 PUSH2 0x2E8 PUSH2 0x2E3 PUSH2 0x2DE DUP5 PUSH2 0x2A6 JUMP JUMPDEST PUSH2 0x2C5 JUMP JUMPDEST PUSH2 0x2A6 JUMP JUMPDEST SWAP1 POP SWAP2 SWAP1 POP JUMP JUMPDEST PUSH0 PUSH2 0x2F9 DUP3 PUSH2 0x2CE JUMP JUMPDEST SWAP1 POP SWAP2 SWAP1 POP JUMP JUMPDEST PUSH0 PUSH2 0x30A DUP3 PUSH2 0x2EF JUMP JUMPDEST SWAP1 POP SWAP2 SWAP1 POP JUMP JUMPDEST PUSH2 0x31A DUP2 PUSH2 0x300 JUMP JUMPDEST DUP3 MSTORE POP POP JUMP JUMPDEST PUSH0 PUSH1 0x20 DUP3 ADD SWAP1 POP PUSH2 0x333 PUSH0 DUP4 ADD DUP5 PUSH2 0x311 JUMP JUMPDEST SWAP3 SWAP2 POP POP JUMP JUMPDEST PUSH0 PUSH2 0x343 DUP3 PUSH2 0x2A6 JUMP JUMPDEST SWAP1 POP SWAP2 SWAP1 POP JUMP JUMPDEST PUSH2 0x353 DUP2 PUSH2 0x339 JUMP JUMPDEST DUP3 MSTORE POP POP JUMP JUMPDEST PUSH0 DUP2 MLOAD SWAP1 POP SWAP2 SWAP1 POP JUMP JUMPDEST PUSH0 DUP3 DUP3 MSTORE PUSH1 0x20 DUP3 ADD SWAP1 POP SWAP3 SWAP2 POP POP JUMP JUMPDEST DUP3 DUP2 DUP4 MCOPY PUSH0 DUP4 DUP4 ADD MSTORE POP POP POP JUMP JUMPDEST PUSH0 PUSH2 0x38B DUP3 PUSH2 0x359 JUMP JUMPDEST PUSH2 0x395 DUP2 DUP6 PUSH2 0x363 JUMP JUMPDEST SWAP4 POP PUSH2 0x3A5 DUP2 DUP6 PUSH1 0x20 DUP7 ADD PUSH2 0x373 JUMP JUMPDEST PUSH2 0x3AE DUP2 PUSH2 0xFC JUMP JUMPDEST DUP5 ADD SWAP2 POP POP SWAP3 SWAP2 POP POP JUMP JUMPDEST PUSH0 PUSH1 0x60 DUP3 ADD SWAP1 POP PUSH2 0x3CC PUSH0 DUP4 ADD DUP7 PUSH2 0x34A JUMP JUMPDEST DUP2 DUP2 SUB PUSH1 0x20 DUP4 ADD MSTORE PUSH2 0x3DE DUP2 DUP6 PUSH2 0x381 JUMP JUMPDEST SWAP1 POP DUP2 DUP2 SUB PUSH1 0x40 DUP4 ADD MSTORE PUSH2 0x3F2 DUP2 DUP5 PUSH2 0x381 JUMP JUMPDEST SWAP1 POP SWAP5 SWAP4 POP POP POP POP JUMP JUMPDEST PUSH0 PUSH1 0x40 DUP3 ADD SWAP1 POP PUSH2 0x40F PUSH0 DUP4 ADD DUP6 PUSH2 0x34A JUMP JUMPDEST PUSH2 0x41C PUSH1 0x20 DUP4 ADD DUP5 PUSH2 0x34A JUMP JUMPDEST SWAP4 SWAP3 POP POP POP JUMP INVALID PUSH1 0xA0 PUSH1 0x40 MSTORE TIMESTAMP PUSH1 0x80 SWAP1 DUP2 MSTORE POP PUSH0 PUSH1 0x3 SSTORE PUSH0 PUSH1 0x4 SSTORE CALLVALUE DUP1 ISZERO PUSH2 0x1E JUMPI PUSH0 PUSH0 REVERT JUMPDEST POP PUSH1 0x40 MLOAD PUSH2 0x27F8 CODESIZE SUB DUP1 PUSH2 0x27F8 DUP4 CODECOPY DUP2 DUP2 ADD PUSH1 0x40 MSTORE DUP2 ADD SWAP1 PUSH2 0x40 SWAP2 SWAP1 PUSH2 0x357 JUMP JUMPDEST DUP3 DUP3 DUP3 DUP3 PUSH0 PUSH20 0xFFFFFFFFFFFFFFFFFFFFFFFFFFFFFFFFFFFFFFFF AND DUP2 PUSH20 0xFFFFFFFFFFFFFFFFFFFFFFFFFFFFFFFFFFFFFFFF AND SUB PUSH2 0xB4 JUMPI PUSH0 PUSH1 0x40 MLOAD PUSH32 0x1E4FBDF700000000000000000000000000000000000000000000000000000000 DUP2 MSTORE PUSH1 0x4 ADD PUSH2 0xAB SWAP2 SWAP1 PUSH2 0x3EE JUMP JUMPDEST PUSH1 0x40 MLOAD DUP1 SWAP2 SUB SWAP1 REVERT JUMPDEST PUSH2 0xC3 DUP2 PUSH2 0xEF PUSH1 0x20 SHL PUSH1 0x20 SHR JUMP JUMPDEST POP DUP2 PUSH1 0x1 SWAP1 DUP2 PUSH2 0xD3 SWAP2 SWAP1 PUSH2 0x617 JUMP JUMPDEST POP DUP1 PUSH1 0x2 SWAP1 DUP2 PUSH2 0xE3 SWAP2 SWAP1 PUSH2 0x617 JUMP JUMPDEST POP POP POP POP POP POP POP PUSH2 0x6E6 JUMP JUMPDEST PUSH0 PUSH0 PUSH0 SWAP1 SLOAD SWAP1 PUSH2 0x100 EXP SWAP1 DIV PUSH20 0xFFFFFFFFFFFFFFFFFFFFFFFFFFFFFFFFFFFFFFFF AND SWAP1 POP DUP2 PUSH0 PUSH0 PUSH2 0x100 EXP DUP2 SLOAD DUP2 PUSH20 0xFFFFFFFFFFFFFFFFFFFFFFFFFFFFFFFFFFFFFFFF MUL NOT AND SWAP1 DUP4 PUSH20 0xFFFFFFFFFFFFFFFFFFFFFFFFFFFFFFFFFFFFFFFF AND MUL OR SWAP1 SSTORE POP DUP2 PUSH20 0xFFFFFFFFFFFFFFFFFFFFFFFFFFFFFFFFFFFFFFFF AND DUP2 PUSH20 0xFFFFFFFFFFFFFFFFFFFFFFFFFFFFFFFFFFFFFFFF AND PUSH32 0x8BE0079C531659141344CD1FD0A4F28419497F9722A3DAAFE3B4186F6B6457E0 PUSH1 0x40 MLOAD PUSH1 0x40 MLOAD DUP1 SWAP2 SUB SWAP1 LOG3 POP POP JUMP JUMPDEST PUSH0 PUSH1 0x40 MLOAD SWAP1 POP SWAP1 JUMP JUMPDEST PUSH0 PUSH0 REVERT JUMPDEST PUSH0 PUSH0 REVERT JUMPDEST PUSH0 PUSH20 0xFFFFFFFFFFFFFFFFFFFFFFFFFFFFFFFFFFFFFFFF DUP3 AND SWAP1 POP SWAP2 SWAP1 POP JUMP JUMPDEST PUSH0 PUSH2 0x1EA DUP3 PUSH2 0x1C1 JUMP JUMPDEST SWAP1 POP SWAP2 SWAP1 POP JUMP JUMPDEST PUSH2 0x1FA DUP2 PUSH2 0x1E0 JUMP JUMPDEST DUP2 EQ PUSH2 0x204 JUMPI PUSH0 PUSH0 REVERT JUMPDEST POP JUMP JUMPDEST PUSH0 DUP2 MLOAD SWAP1 POP PUSH2 0x215 DUP2 PUSH2 0x1F1 JUMP JUMPDEST SWAP3 SWAP2 POP POP JUMP JUMPDEST PUSH0 PUSH0 REVERT JUMPDEST PUSH0 PUSH0 REVERT JUMPDEST PUSH0 PUSH1 0x1F NOT PUSH1 0x1F DUP4 ADD AND SWAP1 POP SWAP2 SWAP1 POP JUMP JUMPDEST PUSH32 0x4E487B7100000000000000000000000000000000000000000000000000000000 PUSH0 MSTORE PUSH1 0x41 PUSH1 0x4 MSTORE PUSH1 0x24 PUSH0 REVERT JUMPDEST PUSH2 0x269 DUP3 PUSH2 0x223 JUMP JUMPDEST DUP2 ADD DUP2 DUP2 LT PUSH8 0xFFFFFFFFFFFFFFFF DUP3 GT OR ISZERO PUSH2 0x288 JUMPI PUSH2 0x287 PUSH2 0x233 JUMP JUMPDEST JUMPDEST DUP1 PUSH1 0x40 MSTORE POP POP POP JUMP JUMPDEST PUSH0 PUSH2 0x29A PUSH2 0x1B0 JUMP JUMPDEST SWAP1 POP PUSH2 0x2A6 DUP3 DUP3 PUSH2 0x260 JUMP JUMPDEST SWAP2 SWAP1 POP JUMP JUMPDEST PUSH0 PUSH8 0xFFFFFFFFFFFFFFFF DUP3 GT ISZERO PUSH2 0x2C5 JUMPI PUSH2 0x2C4 PUSH2 0x233 JUMP JUMPDEST JUMPDEST PUSH2 0x2CE DUP3 PUSH2 0x223 JUMP JUMPDEST SWAP1 POP PUSH1 0x20 DUP2 ADD SWAP1 POP SWAP2 SWAP1 POP JUMP JUMPDEST DUP3 DUP2 DUP4 MCOPY PUSH0 DUP4 DUP4 ADD MSTORE POP POP POP JUMP JUMPDEST PUSH0 PUSH2 0x2FB PUSH2 0x2F6 DUP5 PUSH2 0x2AB JUMP JUMPDEST PUSH2 0x291 JUMP JUMPDEST SWAP1 POP DUP3 DUP2 MSTORE PUSH1 0x20 DUP2 ADD DUP5 DUP5 DUP5 ADD GT ISZERO PUSH2 0x317 JUMPI PUSH2 0x316 PUSH2 0x21F JUMP JUMPDEST JUMPDEST PUSH2 0x322 DUP5 DUP3 DUP6 PUSH2 0x2DB JUMP JUMPDEST POP SWAP4 SWAP3 POP POP POP JUMP JUMPDEST PUSH0 DUP3 PUSH1 0x1F DUP4 ADD SLT PUSH2 0x33E JUMPI PUSH2 0x33D PUSH2 0x21B JUMP JUMPDEST JUMPDEST DUP2 MLOAD PUSH2 0x34E DUP5 DUP3 PUSH1 0x20 DUP7 ADD PUSH2 0x2E9 JUMP JUMPDEST SWAP2 POP POP SWAP3 SWAP2 POP POP JUMP JUMPDEST PUSH0 PUSH0 PUSH0 PUSH1 0x60 DUP5 DUP7 SUB SLT ISZERO PUSH2 0x36E JUMPI PUSH2 0x36D PUSH2 0x1B9 JUMP JUMPDEST JUMPDEST PUSH0 PUSH2 0x37B DUP7 DUP3 DUP8 ADD PUSH2 0x207 JUMP JUMPDEST SWAP4 POP POP PUSH1 0x20 DUP5 ADD MLOAD PUSH8 0xFFFFFFFFFFFFFFFF DUP2 GT ISZERO PUSH2 0x39C JUMPI PUSH2 0x39B PUSH2 0x1BD JUMP JUMPDEST JUMPDEST PUSH2 0x3A8 DUP7 DUP3 DUP8 ADD PUSH2 0x32A JUMP JUMPDEST SWAP3 POP POP PUSH1 0x40 DUP5 ADD MLOAD PUSH8 0xFFFFFFFFFFFFFFFF DUP2 GT ISZERO PUSH2 0x3C9 JUMPI PUSH2 0x3C8 PUSH2 0x1BD JUMP JUMPDEST JUMPDEST PUSH2 0x3D5 DUP7 DUP3 DUP8 ADD PUSH2 0x32A JUMP JUMPDEST SWAP2 POP POP SWAP3 POP SWAP3 POP SWAP3 JUMP JUMPDEST PUSH2 0x3E8 DUP2 PUSH2 0x1E0 JUMP JUMPDEST DUP3 MSTORE POP POP JUMP JUMPDEST PUSH0 PUSH1 0x20 DUP3 ADD SWAP1 POP PUSH2 0x401 PUSH0 DUP4 ADD DUP5 PUSH2 0x3DF JUMP JUMPDEST SWAP3 SWAP2 POP POP JUMP JUMPDEST PUSH0 DUP2 MLOAD SWAP1 POP SWAP2 SWAP1 POP JUMP JUMPDEST PUSH32 0x4E487B7100000000000000000000000000000000000000000000000000000000 PUSH0 MSTORE PUSH1 0x22 PUSH1 0x4 MSTORE PUSH1 0x24 PUSH0 REVERT JUMPDEST PUSH0 PUSH1 0x2 DUP3 DIV SWAP1 POP PUSH1 0x1 DUP3 AND DUP1 PUSH2 0x455 JUMPI PUSH1 0x7F DUP3 AND SWAP2 POP JUMPDEST PUSH1 0x20 DUP3 LT DUP2 SUB PUSH2 0x468 JUMPI PUSH2 0x467 PUSH2 0x411 JUMP JUMPDEST JUMPDEST POP SWAP2 SWAP1 POP JUMP JUMPDEST PUSH0 DUP2 SWAP1 POP DUP2 PUSH0 MSTORE PUSH1 0x20 PUSH0 KECCAK256 SWAP1 POP SWAP2 SWAP1 POP JUMP JUMPDEST PUSH0 PUSH1 0x20 PUSH1 0x1F DUP4 ADD DIV SWAP1 POP SWAP2 SWAP1 POP JUMP JUMPDEST PUSH0 DUP3 DUP3 SHL SWAP1 POP SWAP3 SWAP2 POP POP JUMP JUMPDEST PUSH0 PUSH1 0x8 DUP4 MUL PUSH2 0x4CA PUSH32 0xFFFFFFFFFFFFFFFFFFFFFFFFFFFFFFFFFFFFFFFFFFFFFFFFFFFFFFFFFFFFFFFF DUP3 PUSH2 0x48F JUMP JUMPDEST PUSH2 0x4D4 DUP7 DUP4 PUSH2 0x48F JUMP JUMPDEST SWAP6 POP DUP1 NOT DUP5 AND SWAP4 POP DUP1 DUP7 AND DUP5 OR SWAP3 POP POP POP SWAP4 SWAP3 POP POP POP JUMP JUMPDEST PUSH0 DUP2 SWAP1 POP SWAP2 SWAP1 POP JUMP JUMPDEST PUSH0 DUP2 SWAP1 POP SWAP2 SWAP1 POP JUMP JUMPDEST PUSH0 PUSH2 0x518 PUSH2 0x513 PUSH2 0x50E DUP5 PUSH2 0x4EC JUMP JUMPDEST PUSH2 0x4F5 JUMP JUMPDEST PUSH2 0x4EC JUMP JUMPDEST SWAP1 POP SWAP2 SWAP1 POP JUMP JUMPDEST PUSH0 DUP2 SWAP1 POP SWAP2 SWAP1 POP JUMP JUMPDEST PUSH2 0x531 DUP4 PUSH2 0x4FE JUMP JUMPDEST PUSH2 0x545 PUSH2 0x53D DUP3 PUSH2 0x51F JUMP JUMPDEST DUP5 DUP5 SLOAD PUSH2 0x49B JUMP JUMPDEST DUP3 SSTORE POP POP POP POP JUMP JUMPDEST PUSH0 PUSH0 SWAP1 POP SWAP1 JUMP JUMPDEST PUSH2 0x55C PUSH2 0x54D JUMP JUMPDEST PUSH2 0x567 DUP2 DUP5 DUP5 PUSH2 0x528 JUMP JUMPDEST POP POP POP JUMP JUMPDEST JUMPDEST DUP2 DUP2 LT ISZERO PUSH2 0x58A JUMPI PUSH2 0x57F PUSH0 DUP3 PUSH2 0x554 JUMP JUMPDEST PUSH1 0x1 DUP2 ADD SWAP1 POP PUSH2 0x56D JUMP JUMPDEST POP POP JUMP JUMPDEST PUSH1 0x1F DUP3 GT ISZERO PUSH2 0x5CF JUMPI PUSH2 0x5A0 DUP2 PUSH2 0x46E JUMP JUMPDEST PUSH2 0x5A9 DUP5 PUSH2 0x480 JUMP JUMPDEST DUP2 ADD PUSH1 0x20 DUP6 LT ISZERO PUSH2 0x5B8 JUMPI DUP2 SWAP1 POP JUMPDEST PUSH2 0x5CC PUSH2 0x5C4 DUP6 PUSH2 0x480 JUMP JUMPDEST DUP4 ADD DUP3 PUSH2 0x56C JUMP JUMPDEST POP POP JUMPDEST POP POP POP JUMP JUMPDEST PUSH0 DUP3 DUP3 SHR SWAP1 POP SWAP3 SWAP2 POP POP JUMP JUMPDEST PUSH0 PUSH2 0x5EF PUSH0 NOT DUP5 PUSH1 0x8 MUL PUSH2 0x5D4 JUMP JUMPDEST NOT DUP1 DUP4 AND SWAP2 POP POP SWAP3 SWAP2 POP POP JUMP JUMPDEST PUSH0 PUSH2 0x607 DUP4 DUP4 PUSH2 0x5E0 JUMP JUMPDEST SWAP2 POP DUP3 PUSH1 0x2 MUL DUP3 OR SWAP1 POP SWAP3 SWAP2 POP POP JUMP JUMPDEST PUSH2 0x620 DUP3 PUSH2 0x407 JUMP JUMPDEST PUSH8 0xFFFFFFFFFFFFFFFF DUP2 GT ISZERO PUSH2 0x639 JUMPI PUSH2 0x638 PUSH2 0x233 JUMP JUMPDEST JUMPDEST PUSH2 0x643 DUP3 SLOAD PUSH2 0x43E JUMP JUMPDEST PUSH2 0x64E DUP3 DUP3 DUP6 PUSH2 0x58E JUMP JUMPDEST PUSH0 PUSH1 0x20 SWAP1 POP PUSH1 0x1F DUP4 GT PUSH1 0x1 DUP2 EQ PUSH2 0x67F JUMPI PUSH0 DUP5 ISZERO PUSH2 0x66D JUMPI DUP3 DUP8 ADD MLOAD SWAP1 POP JUMPDEST PUSH2 0x677 DUP6 DUP3 PUSH2 0x5FC JUMP JUMPDEST DUP7 SSTORE POP PUSH2 0x6DE JUMP JUMPDEST PUSH1 0x1F NOT DUP5 AND PUSH2 0x68D DUP7 PUSH2 0x46E JUMP JUMPDEST PUSH0 JUMPDEST DUP3 DUP2 LT ISZERO PUSH2 0x6B4 JUMPI DUP5 DUP10 ADD MLOAD DUP3 SSTORE PUSH1 0x1 DUP3 ADD SWAP2 POP PUSH1 0x20 DUP6 ADD SWAP5 POP PUSH1 0x20 DUP2 ADD SWAP1 POP PUSH2 0x68F JUMP JUMPDEST DUP7 DUP4 LT ISZERO PUSH2 0x6D1 JUMPI DUP5 DUP10 ADD MLOAD PUSH2 0x6CD PUSH1 0x1F DUP10 AND DUP3 PUSH2 0x5E0 JUMP JUMPDEST DUP4 SSTORE POP JUMPDEST PUSH1 0x1 PUSH1 0x2 DUP9 MUL ADD DUP9 SSTORE POP POP POP JUMPDEST POP POP POP POP POP POP JUMP JUMPDEST PUSH1 0x80 MLOAD PUSH2 0x20F3 PUSH2 0x705 PUSH0 CODECOPY PUSH0 DUP2 DUP2 PUSH2 0xCB7 ADD MSTORE PUSH2 0xE89 ADD MSTORE PUSH2 0x20F3 PUSH0 RETURN INVALID PUSH1 0x80 PUSH1 0x40 MSTORE PUSH1 0x4 CALLDATASIZE LT PUSH2 0x1E2 JUMPI PUSH0 CALLDATALOAD PUSH1 0xE0 SHR DUP1 PUSH4 0x95D89B41 GT PUSH2 0x101 JUMPI DUP1 PUSH4 0xD0E30DB0 GT PUSH2 0x94 JUMPI DUP1 PUSH4 0xDD62ED3E GT PUSH2 0x63 JUMPI DUP1 PUSH4 0xDD62ED3E EQ PUSH2 0x75E JUMPI DUP1 PUSH4 0xEF8B30F7 EQ PUSH2 0x79A JUMPI DUP1 PUSH4 0xF2FDE38B EQ PUSH2 0x7D6 JUMPI DUP1 PUSH4 0xF340FA01 EQ PUSH2 0x7FE JUMPI PUSH2 0x1E2 JUMP JUMPDEST DUP1 PUSH4 0xD0E30DB0 EQ PUSH2 0x6B2 JUMPI DUP1 PUSH4 0xD28D8852 EQ PUSH2 0x6D0 JUMPI DUP1 PUSH4 0xD505ACCF EQ PUSH2 0x6FA JUMPI DUP1 PUSH4 0xDB006A75 EQ PUSH2 0x722 JUMPI PUSH2 0x1E2 JUMP JUMPDEST DUP1 PUSH4 0xBA087652 GT PUSH2 0xD0 JUMPI DUP1 PUSH4 0xBA087652 EQ PUSH2 0x5C2 JUMPI DUP1 PUSH4 0xC63D75B6 EQ PUSH2 0x5FE JUMPI DUP1 PUSH4 0xC6E6F592 EQ PUSH2 0x63A JUMPI DUP1 PUSH4 0xCE96CB77 EQ PUSH2 0x676 JUMPI PUSH2 0x1E2 JUMP JUMPDEST DUP1 PUSH4 0x95D89B41 EQ PUSH2 0x508 JUMPI DUP1 PUSH4 0xA9059CBB EQ PUSH2 0x532 JUMPI DUP1 PUSH4 0xAC7A1B5B EQ PUSH2 0x56E JUMPI DUP1 PUSH4 0xB09F1266 EQ PUSH2 0x598 JUMPI PUSH2 0x1E2 JUMP JUMPDEST DUP1 PUSH4 0x4CDAD506 GT PUSH2 0x179 JUMPI DUP1 PUSH4 0x7501F741 GT PUSH2 0x148 JUMPI DUP1 PUSH4 0x7501F741 EQ PUSH2 0x43C JUMPI DUP1 PUSH4 0x7BDE82F2 EQ PUSH2 0x466 JUMPI DUP1 PUSH4 0x7ECEBE00 EQ PUSH2 0x4A2 JUMPI DUP1 PUSH4 0x8DA5CB5B EQ PUSH2 0x4DE JUMPI PUSH2 0x1E2 JUMP JUMPDEST DUP1 PUSH4 0x4CDAD506 EQ PUSH2 0x37E JUMPI DUP1 PUSH4 0x6E553F65 EQ PUSH2 0x3BA JUMPI DUP1 PUSH4 0x70A08231 EQ PUSH2 0x3EA JUMPI DUP1 PUSH4 0x715018A6 EQ PUSH2 0x426 JUMPI PUSH2 0x1E2 JUMP JUMPDEST DUP1 PUSH4 0x18160DDD GT PUSH2 0x1B5 JUMPI DUP1 PUSH4 0x18160DDD EQ PUSH2 0x2C4 JUMPI DUP1 PUSH4 0x23B872DD EQ PUSH2 0x2EE JUMPI DUP1 PUSH4 0x313CE567 EQ PUSH2 0x32A JUMPI DUP1 PUSH4 0x3644E515 EQ PUSH2 0x354 JUMPI PUSH2 0x1E2 JUMP JUMPDEST DUP1 PUSH4 0x6FDDE03 EQ PUSH2 0x1E6 JUMPI DUP1 PUSH4 0x7A2D13A EQ PUSH2 0x210 JUMPI DUP1 PUSH4 0x95EA7B3 EQ PUSH2 0x24C JUMPI DUP1 PUSH4 0x10AB2D01 EQ PUSH2 0x288 JUMPI JUMPDEST PUSH0 PUSH0 REVERT JUMPDEST CALLVALUE DUP1 ISZERO PUSH2 0x1F1 JUMPI PUSH0 PUSH0 REVERT JUMPDEST POP PUSH2 0x1FA PUSH2 0x82E JUMP JUMPDEST PUSH1 0x40 MLOAD PUSH2 0x207 SWAP2 SWAP1 PUSH2 0x18FB JUMP JUMPDEST PUSH1 0x40 MLOAD DUP1 SWAP2 SUB SWAP1 RETURN JUMPDEST CALLVALUE DUP1 ISZERO PUSH2 0x21B JUMPI PUSH0 PUSH0 REVERT JUMPDEST POP PUSH2 0x236 PUSH1 0x4 DUP1 CALLDATASIZE SUB DUP2 ADD SWAP1 PUSH2 0x231 SWAP2 SWAP1 PUSH2 0x1956 JUMP JUMPDEST PUSH2 0x8BE JUMP JUMPDEST PUSH1 0x40 MLOAD PUSH2 0x243 SWAP2 SWAP1 PUSH2 0x1990 JUMP JUMPDEST PUSH1 0x40 MLOAD DUP1 SWAP2 SUB SWAP1 RETURN JUMPDEST CALLVALUE DUP1 ISZERO PUSH2 0x257 JUMPI PUSH0 PUSH0 REVERT JUMPDEST POP PUSH2 0x272 PUSH1 0x4 DUP1 CALLDATASIZE SUB DUP2 ADD SWAP1 PUSH2 0x26D SWAP2 SWAP1 PUSH2 0x1A03 JUMP JUMPDEST PUSH2 0x8CF JUMP JUMPDEST PUSH1 0x40 MLOAD PUSH2 0x27F SWAP2 SWAP1 PUSH2 0x1A5B JUMP JUMPDEST PUSH1 0x40 MLOAD DUP1 SWAP2 SUB SWAP1 RETURN JUMPDEST CALLVALUE DUP1 ISZERO PUSH2 0x293 JUMPI PUSH0 PUSH0 REVERT JUMPDEST POP PUSH2 0x2AE PUSH1 0x4 DUP1 CALLDATASIZE SUB DUP2 ADD SWAP1 PUSH2 0x2A9 SWAP2 SWAP1 PUSH2 0x1AD5 JUMP JUMPDEST PUSH2 0x95A JUMP JUMPDEST PUSH1 0x40 MLOAD PUSH2 0x2BB SWAP2 SWAP1 PUSH2 0x1B98 JUMP JUMPDEST PUSH1 0x40 MLOAD DUP1 SWAP2 SUB SWAP1 RETURN JUMPDEST CALLVALUE DUP1 ISZERO PUSH2 0x2CF JUMPI PUSH0 PUSH0 REVERT JUMPDEST POP PUSH2 0x2D8 PUSH2 0x9DC JUMP JUMPDEST PUSH1 0x40 MLOAD PUSH2 0x2E5 SWAP2 SWAP1 PUSH2 0x1990 JUMP JUMPDEST PUSH1 0x40 MLOAD DUP1 SWAP2 SUB SWAP1 RETURN JUMPDEST CALLVALUE DUP1 ISZERO PUSH2 0x2F9 JUMPI PUSH0 PUSH0 REVERT JUMPDEST POP PUSH2 0x314 PUSH1 0x4 DUP1 CALLDATASIZE SUB DUP2 ADD SWAP1 PUSH2 0x30F SWAP2 SWAP1 PUSH2 0x1BB8 JUMP JUMPDEST PUSH2 0x9ED JUMP JUMPDEST PUSH1 0x40 MLOAD PUSH2 0x321 SWAP2 SWAP1 PUSH2 0x1A5B JUMP JUMPDEST PUSH1 0x40 MLOAD DUP1 SWAP2 SUB SWAP1 RETURN JUMPDEST CALLVALUE DUP1 ISZERO PUSH2 0x335 JUMPI PUSH0 PUSH0 REVERT JUMPDEST POP PUSH2 0x33E PUSH2 0xB93 JUMP JUMPDEST PUSH1 0x40 MLOAD PUSH2 0x34B SWAP2 SWAP1 PUSH2 0x1C23 JUMP JUMPDEST PUSH1 0x40 MLOAD DUP1 SWAP2 SUB SWAP1 RETURN JUMPDEST CALLVALUE DUP1 ISZERO PUSH2 0x35F JUMPI PUSH0 PUSH0 REVERT JUMPDEST POP PUSH2 0x368 PUSH2 0xB9B JUMP JUMPDEST PUSH1 0x40 MLOAD PUSH2 0x375 SWAP2 SWAP1 PUSH2 0x1C54 JUMP JUMPDEST PUSH1 0x40 MLOAD DUP1 SWAP2 SUB SWAP1 RETURN JUMPDEST CALLVALUE DUP1 ISZERO PUSH2 0x389 JUMPI PUSH0 PUSH0 REVERT JUMPDEST POP PUSH2 0x3A4 PUSH1 0x4 DUP1 CALLDATASIZE SUB DUP2 ADD SWAP1 PUSH2 0x39F SWAP2 SWAP1 PUSH2 0x1956 JUMP JUMPDEST PUSH2 0xC17 JUMP JUMPDEST PUSH1 0x40 MLOAD PUSH2 0x3B1 SWAP2 SWAP1 PUSH2 0x1990 JUMP JUMPDEST PUSH1 0x40 MLOAD DUP1 SWAP2 SUB SWAP1 RETURN JUMPDEST PUSH2 0x3D4 PUSH1 0x4 DUP1 CALLDATASIZE SUB DUP2 ADD SWAP1 PUSH2 0x3CF SWAP2 SWAP1 PUSH2 0x1C6D JUMP JUMPDEST PUSH2 0xC5C JUMP JUMPDEST PUSH1 0x40 MLOAD PUSH2 0x3E1 SWAP2 SWAP1 PUSH2 0x1990 JUMP JUMPDEST PUSH1 0x40 MLOAD DUP1 SWAP2 SUB SWAP1 RETURN JUMPDEST CALLVALUE DUP1 ISZERO PUSH2 0x3F5 JUMPI PUSH0 PUSH0 REVERT JUMPDEST POP PUSH2 0x410 PUSH1 0x4 DUP1 CALLDATASIZE SUB DUP2 ADD SWAP1 PUSH2 0x40B SWAP2 SWAP1 PUSH2 0x1CAB JUMP JUMPDEST PUSH2 0xC6E JUMP JUMPDEST PUSH1 0x40 MLOAD PUSH2 0x41D SWAP2 SWAP1 PUSH2 0x1990 JUMP JUMPDEST PUSH1 0x40 MLOAD DUP1 SWAP2 SUB SWAP1 RETURN JUMPDEST CALLVALUE DUP1 ISZERO PUSH2 0x431 JUMPI PUSH0 PUSH0 REVERT JUMPDEST POP PUSH2 0x43A PUSH2 0xC87 JUMP JUMPDEST STOP JUMPDEST CALLVALUE DUP1 ISZERO PUSH2 0x447 JUMPI PUSH0 PUSH0 REVERT JUMPDEST POP PUSH2 0x450 PUSH2 0xC9A JUMP JUMPDEST PUSH1 0x40 MLOAD PUSH2 0x45D SWAP2 SWAP1 PUSH2 0x1990 JUMP JUMPDEST PUSH1 0x40 MLOAD DUP1 SWAP2 SUB SWAP1 RETURN JUMPDEST CALLVALUE DUP1 ISZERO PUSH2 0x471 JUMPI PUSH0 PUSH0 REVERT JUMPDEST POP PUSH2 0x48C PUSH1 0x4 DUP1 CALLDATASIZE SUB DUP2 ADD SWAP1 PUSH2 0x487 SWAP2 SWAP1 PUSH2 0x1C6D JUMP JUMPDEST PUSH2 0xCFA JUMP JUMPDEST PUSH1 0x40 MLOAD PUSH2 0x499 SWAP2 SWAP1 PUSH2 0x1990 JUMP JUMPDEST PUSH1 0x40 MLOAD DUP1 SWAP2 SUB SWAP1 RETURN JUMPDEST CALLVALUE DUP1 ISZERO PUSH2 0x4AD JUMPI PUSH0 PUSH0 REVERT JUMPDEST POP PUSH2 0x4C8 PUSH1 0x4 DUP1 CALLDATASIZE SUB DUP2 ADD SWAP1 PUSH2 0x4C3 SWAP2 SWAP1 PUSH2 0x1CAB JUMP JUMPDEST PUSH2 0xD0E JUMP JUMPDEST PUSH1 0x40 MLOAD PUSH2 0x4D5 SWAP2 SWAP1 PUSH2 0x1990 JUMP JUMPDEST PUSH1 0x40 MLOAD DUP1 SWAP2 SUB SWAP1 RETURN JUMPDEST CALLVALUE DUP1 ISZERO PUSH2 0x4E9 JUMPI PUSH0 PUSH0 REVERT JUMPDEST POP PUSH2 0x4F2 PUSH2 0xD27 JUMP JUMPDEST PUSH1 0x40 MLOAD PUSH2 0x4FF SWAP2 SWAP1 PUSH2 0x1CE5 JUMP JUMPDEST PUSH1 0x40 MLOAD DUP1 SWAP2 SUB SWAP1 RETURN JUMPDEST CALLVALUE DUP1 ISZERO PUSH2 0x513 JUMPI PUSH0 PUSH0 REVERT JUMPDEST POP PUSH2 0x51C PUSH2 0xD4E JUMP JUMPDEST PUSH1 0x40 MLOAD PUSH2 0x529 SWAP2 SWAP1 PUSH2 0x18FB JUMP JUMPDEST PUSH1 0x40 MLOAD DUP1 SWAP2 SUB SWAP1 RETURN JUMPDEST CALLVALUE DUP1 ISZERO PUSH2 0x53D JUMPI PUSH0 PUSH0 REVERT JUMPDEST POP PUSH2 0x558 PUSH1 0x4 DUP1 CALLDATASIZE SUB DUP2 ADD SWAP1 PUSH2 0x553 SWAP2 SWAP1 PUSH2 0x1A03 JUMP JUMPDEST PUSH2 0xDDE JUMP JUMPDEST PUSH1 0x40 MLOAD PUSH2 0x565 SWAP2 SWAP1 PUSH2 0x1A5B JUMP JUMPDEST PUSH1 0x40 MLOAD DUP1 SWAP2 SUB SWAP1 RETURN JUMPDEST CALLVALUE DUP1 ISZERO PUSH2 0x579 JUMPI PUSH0 PUSH0 REVERT JUMPDEST POP PUSH2 0x582 PUSH2 0xE6C JUMP JUMPDEST PUSH1 0x40 MLOAD PUSH2 0x58F SWAP2 SWAP1 PUSH2 0x1990 JUMP JUMPDEST PUSH1 0x40 MLOAD DUP1 SWAP2 SUB SWAP1 RETURN JUMPDEST CALLVALUE DUP1 ISZERO PUSH2 0x5A3 JUMPI PUSH0 PUSH0 REVERT JUMPDEST POP PUSH2 0x5AC PUSH2 0xECC JUMP JUMPDEST PUSH1 0x40 MLOAD PUSH2 0x5B9 SWAP2 SWAP1 PUSH2 0x18FB JUMP JUMPDEST PUSH1 0x40 MLOAD DUP1 SWAP2 SUB SWAP1 RETURN JUMPDEST CALLVALUE DUP1 ISZERO PUSH2 0x5CD JUMPI PUSH0 PUSH0 REVERT JUMPDEST POP PUSH2 0x5E8 PUSH1 0x4 DUP1 CALLDATASIZE SUB DUP2 ADD SWAP1 PUSH2 0x5E3 SWAP2 SWAP1 PUSH2 0x1CFE JUMP JUMPDEST PUSH2 0xF58 JUMP JUMPDEST PUSH1 0x40 MLOAD PUSH2 0x5F5 SWAP2 SWAP1 PUSH2 0x1990 JUMP JUMPDEST PUSH1 0x40 MLOAD DUP1 SWAP2 SUB SWAP1 RETURN JUMPDEST CALLVALUE DUP1 ISZERO PUSH2 0x609 JUMPI PUSH0 PUSH0 REVERT JUMPDEST POP PUSH2 0x624 PUSH1 0x4 DUP1 CALLDATASIZE SUB DUP2 ADD SWAP1 PUSH2 0x61F SWAP2 SWAP1 PUSH2 0x1CAB JUMP JUMPDEST PUSH2 0x10BC JUMP JUMPDEST PUSH1 0x40 MLOAD PUSH2 0x631 SWAP2 SWAP1 PUSH2 0x1990 JUMP JUMPDEST PUSH1 0x40 MLOAD DUP1 SWAP2 SUB SWAP1 RETURN JUMPDEST CALLVALUE DUP1 ISZERO PUSH2 0x645 JUMPI PUSH0 PUSH0 REVERT JUMPDEST POP PUSH2 0x660 PUSH1 0x4 DUP1 CALLDATASIZE SUB DUP2 ADD SWAP1 PUSH2 0x65B SWAP2 SWAP1 PUSH2 0x1956 JUMP JUMPDEST PUSH2 0x10CC JUMP JUMPDEST PUSH1 0x40 MLOAD PUSH2 0x66D SWAP2 SWAP1 PUSH2 0x1990 JUMP JUMPDEST PUSH1 0x40 MLOAD DUP1 SWAP2 SUB SWAP1 RETURN JUMPDEST CALLVALUE DUP1 ISZERO PUSH2 0x681 JUMPI PUSH0 PUSH0 REVERT JUMPDEST POP PUSH2 0x69C PUSH1 0x4 DUP1 CALLDATASIZE SUB DUP2 ADD SWAP1 PUSH2 0x697 SWAP2 SWAP1 PUSH2 0x1CAB JUMP JUMPDEST PUSH2 0x10DD JUMP JUMPDEST PUSH1 0x40 MLOAD PUSH2 0x6A9 SWAP2 SWAP1 PUSH2 0x1990 JUMP JUMPDEST PUSH1 0x40 MLOAD DUP1 SWAP2 SUB SWAP1 RETURN JUMPDEST PUSH2 0x6BA PUSH2 0x10ED JUMP JUMPDEST PUSH1 0x40 MLOAD PUSH2 0x6C7 SWAP2 SWAP1 PUSH2 0x1990 JUMP JUMPDEST PUSH1 0x40 MLOAD DUP1 SWAP2 SUB SWAP1 RETURN JUMPDEST CALLVALUE DUP1 ISZERO PUSH2 0x6DB JUMPI PUSH0 PUSH0 REVERT JUMPDEST POP PUSH2 0x6E4 PUSH2 0x10FC JUMP JUMPDEST PUSH1 0x40 MLOAD PUSH2 0x6F1 SWAP2 SWAP1 PUSH2 0x18FB JUMP JUMPDEST PUSH1 0x40 MLOAD DUP1 SWAP2 SUB SWAP1 RETURN JUMPDEST CALLVALUE DUP1 ISZERO PUSH2 0x705 JUMPI PUSH0 PUSH0 REVERT JUMPDEST POP PUSH2 0x720 PUSH1 0x4 DUP1 CALLDATASIZE SUB DUP2 ADD SWAP1 PUSH2 0x71B SWAP2 SWAP1 PUSH2 0x1DA2 JUMP JUMPDEST PUSH2 0x1188 JUMP JUMPDEST STOP JUMPDEST CALLVALUE DUP1 ISZERO PUSH2 0x72D JUMPI PUSH0 PUSH0 REVERT JUMPDEST POP PUSH2 0x748 PUSH1 0x4 DUP1 CALLDATASIZE SUB DUP2 ADD SWAP1 PUSH2 0x743 SWAP2 SWAP1 PUSH2 0x1956 JUMP JUMPDEST PUSH2 0x134B JUMP JUMPDEST PUSH1 0x40 MLOAD PUSH2 0x755 SWAP2 SWAP1 PUSH2 0x1990 JUMP JUMPDEST PUSH1 0x40 MLOAD DUP1 SWAP2 SUB SWAP1 RETURN JUMPDEST CALLVALUE DUP1 ISZERO PUSH2 0x769 JUMPI PUSH0 PUSH0 REVERT JUMPDEST POP PUSH2 0x784 PUSH1 0x4 DUP1 CALLDATASIZE SUB DUP2 ADD SWAP1 PUSH2 0x77F SWAP2 SWAP1 PUSH2 0x1E3F JUMP JUMPDEST PUSH2 0x135D JUMP JUMPDEST PUSH1 0x40 MLOAD PUSH2 0x791 SWAP2 SWAP1 PUSH2 0x1990 JUMP JUMPDEST PUSH1 0x40 MLOAD DUP1 SWAP2 SUB SWAP1 RETURN JUMPDEST CALLVALUE DUP1 ISZERO PUSH2 0x7A5 JUMPI PUSH0 PUSH0 REVERT JUMPDEST POP PUSH2 0x7C0 PUSH1 0x4 DUP1 CALLDATASIZE SUB DUP2 ADD SWAP1 PUSH2 0x7BB SWAP2 SWAP1 PUSH2 0x1956 JUMP JUMPDEST PUSH2 0x13F4 JUMP JUMPDEST PUSH1 0x40 MLOAD PUSH2 0x7CD SWAP2 SWAP1 PUSH2 0x1990 JUMP JUMPDEST PUSH1 0x40 MLOAD DUP1 SWAP2 SUB SWAP1 RETURN JUMPDEST CALLVALUE DUP1 ISZERO PUSH2 0x7E1 JUMPI PUSH0 PUSH0 REVERT JUMPDEST POP PUSH2 0x7FC PUSH1 0x4 DUP1 CALLDATASIZE SUB DUP2 ADD SWAP1 PUSH2 0x7F7 SWAP2 SWAP1 PUSH2 0x1CAB JUMP JUMPDEST PUSH2 0x142D JUMP JUMPDEST STOP JUMPDEST PUSH2 0x818 PUSH1 0x4 DUP1 CALLDATASIZE SUB DUP2 ADD SWAP1 PUSH2 0x813 SWAP2 SWAP1 PUSH2 0x1CAB JUMP JUMPDEST PUSH2 0x14B1 JUMP JUMPDEST PUSH1 0x40 MLOAD PUSH2 0x825 SWAP2 SWAP1 PUSH2 0x1990 JUMP JUMPDEST PUSH1 0x40 MLOAD DUP1 SWAP2 SUB SWAP1 RETURN JUMPDEST PUSH1 0x60 PUSH1 0x1 DUP1 SLOAD PUSH2 0x83D SWAP1 PUSH2 0x1EAA JUMP JUMPDEST DUP1 PUSH1 0x1F ADD PUSH1 0x20 DUP1 SWAP2 DIV MUL PUSH1 0x20 ADD PUSH1 0x40 MLOAD SWAP1 DUP2 ADD PUSH1 0x40 MSTORE DUP1 SWAP3 SWAP2 SWAP1 DUP2 DUP2 MSTORE PUSH1 0x20 ADD DUP3 DUP1 SLOAD PUSH2 0x869 SWAP1 PUSH2 0x1EAA JUMP JUMPDEST DUP1 ISZERO PUSH2 0x8B4 JUMPI DUP1 PUSH1 0x1F LT PUSH2 0x88B JUMPI PUSH2 0x100 DUP1 DUP4 SLOAD DIV MUL DUP4 MSTORE SWAP2 PUSH1 0x20 ADD SWAP2 PUSH2 0x8B4 JUMP JUMPDEST DUP3 ADD SWAP2 SWAP1 PUSH0 MSTORE PUSH1 0x20 PUSH0 KECCAK256 SWAP1 JUMPDEST DUP2 SLOAD DUP2 MSTORE SWAP1 PUSH1 0x1 ADD SWAP1 PUSH1 0x20 ADD DUP1 DUP4 GT PUSH2 0x897 JUMPI DUP3 SWAP1 SUB PUSH1 0x1F AND DUP3 ADD SWAP2 JUMPDEST POP POP POP POP POP SWAP1 POP SWAP1 JUMP JUMPDEST PUSH0 PUSH2 0x8C8 DUP3 PUSH2 0xC17 JUMP JUMPDEST SWAP1 POP SWAP2 SWAP1 POP JUMP JUMPDEST PUSH0 PUSH2 0x8D8 PUSH2 0x154B JUMP JUMPDEST ISZERO PUSH2 0x90B JUMPI DUP2 NOT ISZERO PUSH15 0x22D473030F116DDEE9F6B43AC78BA3 DUP5 PUSH1 0x60 SHL PUSH1 0x60 SHR XOR OR PUSH2 0x90A JUMPI PUSH4 0x3F68539A PUSH0 MSTORE PUSH1 0x4 PUSH1 0x1C REVERT JUMPDEST JUMPDEST DUP3 PUSH1 0x20 MSTORE PUSH4 0x7F5E9F20 PUSH1 0xC MSTORE CALLER PUSH0 MSTORE DUP2 PUSH1 0x34 PUSH1 0xC KECCAK256 SSTORE DUP2 PUSH0 MSTORE PUSH1 0x2C MLOAD PUSH1 0x60 SHR CALLER PUSH32 0x8C5BE1E5EBEC7D5BD14F71427D1E84F3DD0314C0F7B2291E5B200AC8C7C3B925 PUSH1 0x20 PUSH0 LOG3 PUSH1 0x1 SWAP1 POP SWAP3 SWAP2 POP POP JUMP JUMPDEST PUSH1 0x60 PUSH2 0x964 PUSH2 0x1552 JUMP JUMPDEST PUSH0 DUP6 PUSH20 0xFFFFFFFFFFFFFFFFFFFFFFFFFFFFFFFFFFFFFFFF AND DUP6 DUP6 DUP6 PUSH1 0x40 MLOAD PUSH2 0x98D SWAP3 SWAP2 SWAP1 PUSH2 0x1F16 JUMP JUMPDEST PUSH0 PUSH1 0x40 MLOAD DUP1 DUP4 SUB DUP2 DUP6 DUP8 GAS CALL SWAP3 POP POP POP RETURNDATASIZE DUP1 PUSH0 DUP2 EQ PUSH2 0x9C7 JUMPI PUSH1 0x40 MLOAD SWAP2 POP PUSH1 0x1F NOT PUSH1 0x3F RETURNDATASIZE ADD AND DUP3 ADD PUSH1 0x40 MSTORE RETURNDATASIZE DUP3 MSTORE RETURNDATASIZE PUSH0 PUSH1 0x20 DUP5 ADD RETURNDATACOPY PUSH2 0x9CC JUMP JUMPDEST PUSH1 0x60 SWAP2 POP JUMPDEST POP SWAP2 POP POP DUP1 SWAP2 POP POP SWAP5 SWAP4 POP POP POP POP JUMP JUMPDEST PUSH0 PUSH9 0x5345CDF77EB68F44C SLOAD SWAP1 POP SWAP1 JUMP JUMPDEST PUSH0 PUSH2 0x9F9 DUP5 DUP5 DUP5 PUSH2 0x15D9 JUMP JUMPDEST PUSH2 0xA01 PUSH2 0x154B JUMP JUMPDEST ISZERO PUSH2 0xACF JUMPI DUP4 PUSH1 0x60 SHL PUSH15 0x22D473030F116DDEE9F6B43AC78BA3 CALLER EQ PUSH2 0xA5A JUMPI CALLER PUSH1 0x20 MSTORE PUSH4 0x7F5E9F20 DUP2 OR PUSH1 0xC MSTORE PUSH1 0x34 PUSH1 0xC KECCAK256 DUP1 SLOAD DUP1 NOT ISZERO PUSH2 0xA57 JUMPI DUP1 DUP6 GT ISZERO PUSH2 0xA51 JUMPI PUSH4 0x13BE252B PUSH0 MSTORE PUSH1 0x4 PUSH1 0x1C REVERT JUMPDEST DUP5 DUP2 SUB DUP3 SSTORE JUMPDEST POP POP JUMPDEST PUSH4 0x87A211A2 DUP2 OR PUSH1 0xC MSTORE PUSH1 0x20 PUSH1 0xC KECCAK256 DUP1 SLOAD DUP1 DUP6 GT ISZERO PUSH2 0xA80 JUMPI PUSH4 0xF4D678B8 PUSH0 MSTORE PUSH1 0x4 PUSH1 0x1C REVERT JUMPDEST DUP5 DUP2 SUB DUP3 SSTORE DUP6 PUSH0 MSTORE PUSH1 0x20 PUSH1 0xC KECCAK256 DUP6 DUP2 SLOAD ADD DUP2 SSTORE DUP6 PUSH1 0x20 MSTORE PUSH1 0xC MLOAD PUSH1 0x60 SHR DUP5 PUSH1 0x60 SHR PUSH32 0xDDF252AD1BE2C89B69C2B068FC378DAA952BA7F163C4A11628F55A4DF523B3EF PUSH1 0x20 DUP1 LOG3 POP POP POP POP PUSH2 0xB7D JUMP JUMPDEST DUP4 PUSH1 0x60 SHL CALLER PUSH1 0x20 MSTORE PUSH4 0x7F5E9F20 DUP2 OR PUSH1 0xC MSTORE PUSH1 0x34 PUSH1 0xC KECCAK256 DUP1 SLOAD DUP1 NOT ISZERO PUSH2 0xB0A JUMPI DUP1 DUP6 GT ISZERO PUSH2 0xB04 JUMPI PUSH4 0x13BE252B PUSH0 MSTORE PUSH1 0x4 PUSH1 0x1C REVERT JUMPDEST DUP5 DUP2 SUB DUP3 SSTORE JUMPDEST PUSH4 0x87A211A2 DUP4 OR PUSH1 0xC MSTORE PUSH1 0x20 PUSH1 0xC KECCAK256 DUP1 SLOAD DUP1 DUP8 GT ISZERO PUSH2 0xB30 JUMPI PUSH4 0xF4D678B8 PUSH0 MSTORE PUSH1 0x4 PUSH1 0x1C REVERT JUMPDEST DUP7 DUP2 SUB DUP3 SSTORE DUP8 PUSH0 MSTORE PUSH1 0x20 PUSH1 0xC KECCAK256 DUP8 DUP2 SLOAD ADD DUP2 SSTORE DUP8 PUSH1 0x20 MSTORE PUSH1 0xC MLOAD PUSH1 0x60 SHR DUP7 PUSH1 0x60 SHR PUSH32 0xDDF252AD1BE2C89B69C2B068FC378DAA952BA7F163C4A11628F55A4DF523B3EF PUSH1 0x20 DUP1 LOG3 POP POP POP POP POP POP JUMPDEST PUSH2 0xB88 DUP5 DUP5 DUP5 PUSH2 0x15DE JUMP JUMPDEST PUSH1 0x1 SWAP1 POP SWAP4 SWAP3 POP POP POP JUMP JUMPDEST PUSH0 PUSH1 0x12 SWAP1 POP SWAP1 JUMP JUMPDEST PUSH0 PUSH0 PUSH2 0xBA5 PUSH2 0x15E3 JUMP JUMPDEST SWAP1 POP PUSH0 PUSH0 SHL DUP2 SUB PUSH2 0xBC2 JUMPI PUSH2 0xBB8 PUSH2 0x82E JUMP JUMPDEST DUP1 MLOAD SWAP1 PUSH1 0x20 ADD KECCAK256 SWAP1 POP JUMPDEST PUSH0 PUSH2 0xBCB PUSH2 0x15E7 JUMP JUMPDEST SWAP1 POP PUSH1 0x40 MLOAD PUSH32 0x8B73C3C69BB8FE3D512ECC4CF759CC79239F7B179B0FFACAA9A75D522B39400F DUP2 MSTORE DUP3 PUSH1 0x20 DUP3 ADD MSTORE DUP2 PUSH1 0x40 DUP3 ADD MSTORE CHAINID PUSH1 0x60 DUP3 ADD MSTORE ADDRESS PUSH1 0x80 DUP3 ADD MSTORE PUSH1 0xA0 DUP2 KECCAK256 SWAP4 POP POP POP POP SWAP1 JUMP JUMPDEST PUSH0 DUP2 PUSH8 0xDE0B6B3A7640000 PUSH2 0xC2C SWAP2 SWAP1 PUSH2 0x1F5B JUMP JUMPDEST DUP3 PUSH2 0xC35 PUSH2 0xE6C JUMP JUMPDEST PUSH2 0xC3F SWAP2 SWAP1 PUSH2 0x1F8E JUMP JUMPDEST PUSH2 0xC49 SWAP2 SWAP1 PUSH2 0x1FFC JUMP JUMPDEST SWAP1 POP DUP1 SELFBALANCE LT ISZERO PUSH2 0xC57 JUMPI SELFBALANCE SWAP1 POP JUMPDEST SWAP2 SWAP1 POP JUMP JUMPDEST PUSH0 PUSH2 0xC66 DUP3 PUSH2 0x14B1 JUMP JUMPDEST SWAP1 POP SWAP3 SWAP2 POP POP JUMP JUMPDEST PUSH0 PUSH4 0x87A211A2 PUSH1 0xC MSTORE DUP2 PUSH0 MSTORE PUSH1 0x20 PUSH1 0xC KECCAK256 SLOAD SWAP1 POP SWAP2 SWAP1 POP JUMP JUMPDEST PUSH2 0xC8F PUSH2 0x1552 JUMP JUMPDEST PUSH2 0xC98 PUSH0 PUSH2 0x1610 JUMP JUMPDEST JUMP JUMPDEST PUSH0 PUSH1 0x3 SLOAD PUSH3 0x15180 PUSH8 0xDE0B6B3A7640000 PUSH2 0xCB5 SWAP2 SWAP1 PUSH2 0x1FFC JUMP JUMPDEST PUSH32 0x0 TIMESTAMP PUSH2 0xCE1 SWAP2 SWAP1 PUSH2 0x202C JUMP JUMPDEST PUSH2 0xCEB SWAP2 SWAP1 PUSH2 0x1F8E JUMP JUMPDEST PUSH2 0xCF5 SWAP2 SWAP1 PUSH2 0x202C JUMP JUMPDEST SWAP1 POP SWAP1 JUMP JUMPDEST PUSH0 PUSH2 0xD06 DUP4 DUP4 CALLER PUSH2 0xF58 JUMP JUMPDEST SWAP1 POP SWAP3 SWAP2 POP POP JUMP JUMPDEST PUSH0 PUSH4 0x38377508 PUSH1 0xC MSTORE DUP2 PUSH0 MSTORE PUSH1 0x20 PUSH1 0xC KECCAK256 SLOAD SWAP1 POP SWAP2 SWAP1 POP JUMP JUMPDEST PUSH0 PUSH0 PUSH0 SWAP1 SLOAD SWAP1 PUSH2 0x100 EXP SWAP1 DIV PUSH20 0xFFFFFFFFFFFFFFFFFFFFFFFFFFFFFFFFFFFFFFFF AND SWAP1 POP SWAP1 JUMP JUMPDEST PUSH1 0x60 PUSH1 0x2 DUP1 SLOAD PUSH2 0xD5D SWAP1 PUSH2 0x1EAA JUMP JUMPDEST DUP1 PUSH1 0x1F ADD PUSH1 0x20 DUP1 SWAP2 DIV MUL PUSH1 0x20 ADD PUSH1 0x40 MLOAD SWAP1 DUP2 ADD PUSH1 0x40 MSTORE DUP1 SWAP3 SWAP2 SWAP1 DUP2 DUP2 MSTORE PUSH1 0x20 ADD DUP3 DUP1 SLOAD PUSH2 0xD89 SWAP1 PUSH2 0x1EAA JUMP JUMPDEST DUP1 ISZERO PUSH2 0xDD4 JUMPI DUP1 PUSH1 0x1F LT PUSH2 0xDAB JUMPI PUSH2 0x100 DUP1 DUP4 SLOAD DIV MUL DUP4 MSTORE SWAP2 PUSH1 0x20 ADD SWAP2 PUSH2 0xDD4 JUMP JUMPDEST DUP3 ADD SWAP2 SWAP1 PUSH0 MSTORE PUSH1 0x20 PUSH0 KECCAK256 SWAP1 JUMPDEST DUP2 SLOAD DUP2 MSTORE SWAP1 PUSH1 0x1 ADD SWAP1 PUSH1 0x20 ADD DUP1 DUP4 GT PUSH2 0xDB7 JUMPI DUP3 SWAP1 SUB PUSH1 0x1F AND DUP3 ADD SWAP2 JUMPDEST POP POP POP POP POP SWAP1 POP SWAP1 JUMP JUMPDEST PUSH0 PUSH2 0xDEA CALLER DUP5 DUP5 PUSH2 0x15D9 JUMP JUMPDEST PUSH4 0x87A211A2 PUSH1 0xC MSTORE CALLER PUSH0 MSTORE PUSH1 0x20 PUSH1 0xC KECCAK256 DUP1 SLOAD DUP1 DUP5 GT ISZERO PUSH2 0xE11 JUMPI PUSH4 0xF4D678B8 PUSH0 MSTORE PUSH1 0x4 PUSH1 0x1C REVERT JUMPDEST DUP4 DUP2 SUB DUP3 SSTORE DUP5 PUSH0 MSTORE PUSH1 0x20 PUSH1 0xC KECCAK256 DUP5 DUP2 SLOAD ADD DUP2 SSTORE DUP5 PUSH1 0x20 MSTORE PUSH1 0xC MLOAD PUSH1 0x60 SHR CALLER PUSH32 0xDDF252AD1BE2C89B69C2B068FC378DAA952BA7F163C4A11628F55A4DF523B3EF PUSH1 0x20 DUP1 LOG3 POP POP POP PUSH2 0xE62 CALLER DUP5 DUP5 PUSH2 0x15DE JUMP JUMPDEST PUSH1 0x1 SWAP1 POP SWAP3 SWAP2 POP POP JUMP JUMPDEST PUSH0 PUSH1 0x4 SLOAD PUSH3 0x15180 PUSH8 0x16345785D8A0000 PUSH2 0xE87 SWAP2 SWAP1 PUSH2 0x1FFC JUMP JUMPDEST PUSH32 0x0 TIMESTAMP PUSH2 0xEB3 SWAP2 SWAP1 PUSH2 0x202C JUMP JUMPDEST PUSH2 0xEBD SWAP2 SWAP1 PUSH2 0x1F8E JUMP JUMPDEST PUSH2 0xEC7 SWAP2 SWAP1 PUSH2 0x202C JUMP JUMPDEST SWAP1 POP SWAP1 JUMP JUMPDEST PUSH1 0x2 DUP1 SLOAD PUSH2 0xED9 SWAP1 PUSH2 0x1EAA JUMP JUMPDEST DUP1 PUSH1 0x1F ADD PUSH1 0x20 DUP1 SWAP2 DIV MUL PUSH1 0x20 ADD PUSH1 0x40 MLOAD SWAP1 DUP2 ADD PUSH1 0x40 MSTORE DUP1 SWAP3 SWAP2 SWAP1 DUP2 DUP2 MSTORE PUSH1 0x20 ADD DUP3 DUP1 SLOAD PUSH2 0xF05 SWAP1 PUSH2 0x1EAA JUMP JUMPDEST DUP1 ISZERO PUSH2 0xF50 JUMPI DUP1 PUSH1 0x1F LT PUSH2 0xF27 JUMPI PUSH2 0x100 DUP1 DUP4 SLOAD DIV MUL DUP4 MSTORE SWAP2 PUSH1 0x20 ADD SWAP2 PUSH2 0xF50 JUMP JUMPDEST DUP3 ADD SWAP2 SWAP1 PUSH0 MSTORE PUSH1 0x20 PUSH0 KECCAK256 SWAP1 JUMPDEST DUP2 SLOAD DUP2 MSTORE SWAP1 PUSH1 0x1 ADD SWAP1 PUSH1 0x20 ADD DUP1 DUP4 GT PUSH2 0xF33 JUMPI DUP3 SWAP1 SUB PUSH1 0x1F AND DUP3 ADD SWAP2 JUMPDEST POP POP POP POP POP DUP2 JUMP JUMPDEST PUSH0 PUSH2 0xF62 DUP5 PUSH2 0xC17 JUMP JUMPDEST SWAP1 POP DUP2 PUSH20 0xFFFFFFFFFFFFFFFFFFFFFFFFFFFFFFFFFFFFFFFF AND CALLER PUSH20 0xFFFFFFFFFFFFFFFFFFFFFFFFFFFFFFFFFFFFFFFF AND EQ PUSH2 0xFA3 JUMPI PUSH2 0xFA2 DUP3 CALLER DUP7 PUSH2 0x16D1 JUMP JUMPDEST JUMPDEST DUP1 PUSH1 0x4 PUSH0 DUP3 DUP3 SLOAD PUSH2 0xFB4 SWAP2 SWAP1 PUSH2 0x1F5B JUMP JUMPDEST SWAP3 POP POP DUP2 SWAP1 SSTORE POP PUSH2 0xFC5 DUP3 DUP6 PUSH2 0x1762 JUMP JUMPDEST PUSH0 DUP4 PUSH20 0xFFFFFFFFFFFFFFFFFFFFFFFFFFFFFFFFFFFFFFFF AND DUP3 PUSH1 0x40 MLOAD PUSH2 0xFEA SWAP1 PUSH2 0x2082 JUMP JUMPDEST PUSH0 PUSH1 0x40 MLOAD DUP1 DUP4 SUB DUP2 DUP6 DUP8 GAS CALL SWAP3 POP POP POP RETURNDATASIZE DUP1 PUSH0 DUP2 EQ PUSH2 0x1024 JUMPI PUSH1 0x40 MLOAD SWAP2 POP PUSH1 0x1F NOT PUSH1 0x3F RETURNDATASIZE ADD AND DUP3 ADD PUSH1 0x40 MSTORE RETURNDATASIZE DUP3 MSTORE RETURNDATASIZE PUSH0 PUSH1 0x20 DUP5 ADD RETURNDATACOPY PUSH2 0x1029 JUMP JUMPDEST PUSH1 0x60 SWAP2 POP JUMPDEST POP POP SWAP1 POP DUP1 PUSH2 0x1036 JUMPI PUSH0 PUSH0 REVERT JUMPDEST DUP3 PUSH20 0xFFFFFFFFFFFFFFFFFFFFFFFFFFFFFFFFFFFFFFFF AND DUP5 PUSH20 0xFFFFFFFFFFFFFFFFFFFFFFFFFFFFFFFFFFFFFFFF AND CALLER PUSH20 0xFFFFFFFFFFFFFFFFFFFFFFFFFFFFFFFFFFFFFFFF AND PUSH32 0xFBDE797D201C681B91056529119E0B02407C7BB96A4A2C75C01FC9667232C8DB DUP6 DUP10 PUSH1 0x40 MLOAD PUSH2 0x10AC SWAP3 SWAP2 SWAP1 PUSH2 0x2096 JUMP JUMPDEST PUSH1 0x40 MLOAD DUP1 SWAP2 SUB SWAP1 LOG4 POP SWAP4 SWAP3 POP POP POP JUMP JUMPDEST PUSH0 PUSH2 0x10C5 PUSH2 0xC9A JUMP JUMPDEST SWAP1 POP SWAP2 SWAP1 POP JUMP JUMPDEST PUSH0 PUSH2 0x10D6 DUP3 PUSH2 0x13F4 JUMP JUMPDEST SWAP1 POP SWAP2 SWAP1 POP JUMP JUMPDEST PUSH0 PUSH2 0x10E6 PUSH2 0xE6C JUMP JUMPDEST SWAP1 POP SWAP2 SWAP1 POP JUMP JUMPDEST PUSH0 PUSH2 0x10F7 CALLER PUSH2 0x14B1 JUMP JUMPDEST SWAP1 POP SWAP1 JUMP JUMPDEST PUSH1 0x1 DUP1 SLOAD PUSH2 0x1109 SWAP1 PUSH2 0x1EAA JUMP JUMPDEST DUP1 PUSH1 0x1F ADD PUSH1 0x20 DUP1 SWAP2 DIV MUL PUSH1 0x20 ADD PUSH1 0x40 MLOAD SWAP1 DUP2 ADD PUSH1 0x40 MSTORE DUP1 SWAP3 SWAP2 SWAP1 DUP2 DUP2 MSTORE PUSH1 0x20 ADD DUP3 DUP1 SLOAD PUSH2 0x1135 SWAP1 PUSH2 0x1EAA JUMP JUMPDEST DUP1 ISZERO PUSH2 0x1180 JUMPI DUP1 PUSH1 0x1F LT PUSH2 0x1157 JUMPI PUSH2 0x100 DUP1 DUP4 SLOAD DIV MUL DUP4 MSTORE SWAP2 PUSH1 0x20 ADD SWAP2 PUSH2 0x1180 JUMP JUMPDEST DUP3 ADD SWAP2 SWAP1 PUSH0 MSTORE PUSH1 0x20 PUSH0 KECCAK256 SWAP1 JUMPDEST DUP2 SLOAD DUP2 MSTORE SWAP1 PUSH1 0x1 ADD SWAP1 PUSH1 0x20 ADD DUP1 DUP4 GT PUSH2 0x1163 JUMPI DUP3 SWAP1 SUB PUSH1 0x1F AND DUP3 ADD SWAP2 JUMPDEST POP POP POP POP POP DUP2 JUMP JUMPDEST PUSH2 0x1190 PUSH2 0x154B JUMP JUMPDEST ISZERO PUSH2 0x11C3 JUMPI DUP5 NOT ISZERO PUSH15 0x22D473030F116DDEE9F6B43AC78BA3 DUP8 PUSH1 0x60 SHL PUSH1 0x60 SHR XOR OR PUSH2 0x11C2 JUMPI PUSH4 0x3F68539A PUSH0 MSTORE PUSH1 0x4 PUSH1 0x1C REVERT JUMPDEST JUMPDEST PUSH0 PUSH2 0x11CC PUSH2 0x15E3 JUMP JUMPDEST SWAP1 POP PUSH0 PUSH0 SHL DUP2 SUB PUSH2 0x11E9 JUMPI PUSH2 0x11DF PUSH2 0x82E JUMP JUMPDEST DUP1 MLOAD SWAP1 PUSH1 0x20 ADD KECCAK256 SWAP1 POP JUMPDEST PUSH0 PUSH2 0x11F2 PUSH2 0x15E7 JUMP JUMPDEST SWAP1 POP DUP6 TIMESTAMP GT ISZERO PUSH2 0x1209 JUMPI PUSH4 0x1A15A3CC PUSH0 MSTORE PUSH1 0x4 PUSH1 0x1C REVERT JUMPDEST PUSH1 0x40 MLOAD DUP10 PUSH1 0x60 SHL PUSH1 0x60 SHR SWAP10 POP DUP9 PUSH1 0x60 SHL PUSH1 0x60 SHR SWAP9 POP PUSH6 0x383775081901 PUSH1 0xE MSTORE DUP10 PUSH0 MSTORE PUSH1 0x20 PUSH1 0xC KECCAK256 DUP1 SLOAD PUSH32 0x8B73C3C69BB8FE3D512ECC4CF759CC79239F7B179B0FFACAA9A75D522B39400F DUP4 MSTORE DUP5 PUSH1 0x20 DUP5 ADD MSTORE DUP4 PUSH1 0x40 DUP5 ADD MSTORE CHAINID PUSH1 0x60 DUP5 ADD MSTORE ADDRESS PUSH1 0x80 DUP5 ADD MSTORE PUSH1 0xA0 DUP4 KECCAK256 PUSH1 0x2E MSTORE PUSH32 0x6E71EDAE12B1B97F4D1F60370FEF10105FA2FAAE0126114A169C64845D6126C9 DUP4 MSTORE DUP12 PUSH1 0x20 DUP5 ADD MSTORE DUP11 PUSH1 0x40 DUP5 ADD MSTORE DUP10 PUSH1 0x60 DUP5 ADD MSTORE DUP1 PUSH1 0x80 DUP5 ADD MSTORE DUP9 PUSH1 0xA0 DUP5 ADD MSTORE PUSH1 0xC0 DUP4 KECCAK256 PUSH1 0x4E MSTORE PUSH1 0x42 PUSH1 0x2C KECCAK256 PUSH0 MSTORE DUP8 PUSH1 0xFF AND PUSH1 0x20 MSTORE DUP7 PUSH1 0x40 MSTORE DUP6 PUSH1 0x60 MSTORE PUSH1 0x20 DUP1 PUSH1 0x80 PUSH0 PUSH1 0x1 GAS STATICCALL DUP13 RETURNDATASIZE MLOAD EQ PUSH2 0x12F1 JUMPI PUSH4 0xDDAFBAEF PUSH0 MSTORE PUSH1 0x4 PUSH1 0x1C REVERT JUMPDEST DUP1 DUP3 ADD DUP4 SSTORE DUP12 PUSH4 0x7F5E9F20 PUSH1 0xA0 SHL OR PUSH1 0x40 MSTORE DUP11 PUSH1 0x34 PUSH1 0x2C KECCAK256 SSTORE DUP12 DUP14 PUSH32 0x8C5BE1E5EBEC7D5BD14F71427D1E84F3DD0314C0F7B2291E5B200AC8C7C3B925 PUSH1 0x20 PUSH1 0x60 DUP9 ADD LOG3 DUP4 PUSH1 0x40 MSTORE PUSH0 PUSH1 0x60 MSTORE POP POP POP POP POP POP POP POP POP POP POP POP POP JUMP JUMPDEST PUSH0 PUSH2 0x1356 DUP3 CALLER PUSH2 0xCFA JUMP JUMPDEST SWAP1 POP SWAP2 SWAP1 POP JUMP JUMPDEST PUSH0 PUSH2 0x1366 PUSH2 0x154B JUMP JUMPDEST ISZERO PUSH2 0x13D6 JUMPI PUSH15 0x22D473030F116DDEE9F6B43AC78BA3 PUSH20 0xFFFFFFFFFFFFFFFFFFFFFFFFFFFFFFFFFFFFFFFF AND DUP3 PUSH20 0xFFFFFFFFFFFFFFFFFFFFFFFFFFFFFFFFFFFFFFFF AND SUB PUSH2 0x13D5 JUMPI PUSH32 0xFFFFFFFFFFFFFFFFFFFFFFFFFFFFFFFFFFFFFFFFFFFFFFFFFFFFFFFFFFFFFFFF SWAP1 POP PUSH2 0x13EE JUMP JUMPDEST JUMPDEST DUP2 PUSH1 0x20 MSTORE PUSH4 0x7F5E9F20 PUSH1 0xC MSTORE DUP3 PUSH0 MSTORE PUSH1 0x34 PUSH1 0xC KECCAK256 SLOAD SWAP1 POP JUMPDEST SWAP3 SWAP2 POP POP JUMP JUMPDEST PUSH0 DUP2 PUSH8 0x16345785D8A0000 PUSH2 0x1409 SWAP2 SWAP1 PUSH2 0x1F5B JUMP JUMPDEST DUP3 PUSH2 0x1412 PUSH2 0xC9A JUMP JUMPDEST PUSH2 0x141C SWAP2 SWAP1 PUSH2 0x1F8E JUMP JUMPDEST PUSH2 0x1426 SWAP2 SWAP1 PUSH2 0x1FFC JUMP JUMPDEST SWAP1 POP SWAP2 SWAP1 POP JUMP JUMPDEST PUSH2 0x1435 PUSH2 0x1552 JUMP JUMPDEST PUSH0 PUSH20 0xFFFFFFFFFFFFFFFFFFFFFFFFFFFFFFFFFFFFFFFF AND DUP2 PUSH20 0xFFFFFFFFFFFFFFFFFFFFFFFFFFFFFFFFFFFFFFFF AND SUB PUSH2 0x14A5 JUMPI PUSH0 PUSH1 0x40 MLOAD PUSH32 0x1E4FBDF700000000000000000000000000000000000000000000000000000000 DUP2 MSTORE PUSH1 0x4 ADD PUSH2 0x149C SWAP2 SWAP1 PUSH2 0x1CE5 JUMP JUMPDEST PUSH1 0x40 MLOAD DUP1 SWAP2 SUB SWAP1 REVERT JUMPDEST PUSH2 0x14AE DUP2 PUSH2 0x1610 JUMP JUMPDEST POP JUMP JUMPDEST PUSH0 PUSH2 0x14BB CALLVALUE PUSH2 0x13F4 JUMP JUMPDEST SWAP1 POP DUP1 PUSH1 0x3 PUSH0 DUP3 DUP3 SLOAD PUSH2 0x14CE SWAP2 SWAP1 PUSH2 0x1F5B JUMP JUMPDEST SWAP3 POP POP DUP2 SWAP1 SSTORE POP PUSH2 0x14DF DUP3 DUP3 PUSH2 0x17F2 JUMP JUMPDEST DUP2 PUSH20 0xFFFFFFFFFFFFFFFFFFFFFFFFFFFFFFFFFFFFFFFF AND CALLER PUSH20 0xFFFFFFFFFFFFFFFFFFFFFFFFFFFFFFFFFFFFFFFF AND PUSH32 0xDCBC1C05240F31FF3AD067EF1EE35CE4997762752E3A095284754544F4C709D7 CALLVALUE DUP5 PUSH1 0x40 MLOAD PUSH2 0x153E SWAP3 SWAP2 SWAP1 PUSH2 0x2096 JUMP JUMPDEST PUSH1 0x40 MLOAD DUP1 SWAP2 SUB SWAP1 LOG3 SWAP2 SWAP1 POP JUMP JUMPDEST PUSH0 PUSH0 SWAP1 POP SWAP1 JUMP JUMPDEST PUSH2 0x155A PUSH2 0x1884 JUMP JUMPDEST PUSH20 0xFFFFFFFFFFFFFFFFFFFFFFFFFFFFFFFFFFFFFFFF AND PUSH2 0x1578 PUSH2 0xD27 JUMP JUMPDEST PUSH20 0xFFFFFFFFFFFFFFFFFFFFFFFFFFFFFFFFFFFFFFFF AND EQ PUSH2 0x15D7 JUMPI PUSH2 0x159B PUSH2 0x1884 JUMP JUMPDEST PUSH1 0x40 MLOAD PUSH32 0x118CDAA700000000000000000000000000000000000000000000000000000000 DUP2 MSTORE PUSH1 0x4 ADD PUSH2 0x15CE SWAP2 SWAP1 PUSH2 0x1CE5 JUMP JUMPDEST PUSH1 0x40 MLOAD DUP1 SWAP2 SUB SWAP1 REVERT JUMPDEST JUMP JUMPDEST POP POP POP JUMP JUMPDEST POP POP POP JUMP JUMPDEST PUSH0 SWAP1 JUMP JUMPDEST PUSH0 PUSH32 0xC89EFDAA54C0F20C7ADF612882DF0950F5A951637E0307CDCB4C672F298B8BC6 PUSH0 SHL SWAP1 POP SWAP1 JUMP JUMPDEST PUSH0 PUSH0 PUSH0 SWAP1 SLOAD SWAP1 PUSH2 0x100 EXP SWAP1 DIV PUSH20 0xFFFFFFFFFFFFFFFFFFFFFFFFFFFFFFFFFFFFFFFF AND SWAP1 POP DUP2 PUSH0 PUSH0 PUSH2 0x100 EXP DUP2 SLOAD DUP2 PUSH20 0xFFFFFFFFFFFFFFFFFFFFFFFFFFFFFFFFFFFFFFFF MUL NOT AND SWAP1 DUP4 PUSH20 0xFFFFFFFFFFFFFFFFFFFFFFFFFFFFFFFFFFFFFFFF AND MUL OR SWAP1 SSTORE POP DUP2 PUSH20 0xFFFFFFFFFFFFFFFFFFFFFFFFFFFFFFFFFFFFFFFF AND DUP2 PUSH20 0xFFFFFFFFFFFFFFFFFFFFFFFFFFFFFFFFFFFFFFFF AND PUSH32 0x8BE0079C531659141344CD1FD0A4F28419497F9722A3DAAFE3B4186F6B6457E0 PUSH1 0x40 MLOAD PUSH1 0x40 MLOAD DUP1 SWAP2 SUB SWAP1 LOG3 POP POP JUMP JUMPDEST PUSH2 0x16D9 PUSH2 0x154B JUMP JUMPDEST ISZERO PUSH2 0x1722 JUMPI PUSH15 0x22D473030F116DDEE9F6B43AC78BA3 PUSH20 0xFFFFFFFFFFFFFFFFFFFFFFFFFFFFFFFFFFFFFFFF AND DUP3 PUSH20 0xFFFFFFFFFFFFFFFFFFFFFFFFFFFFFFFFFFFFFFFF AND SUB ISZERO PUSH2 0x175D JUMPI JUMPDEST DUP2 PUSH1 0x20 MSTORE PUSH4 0x7F5E9F20 PUSH1 0xC MSTORE DUP3 PUSH0 MSTORE PUSH1 0x34 PUSH1 0xC KECCAK256 DUP1 SLOAD DUP1 NOT ISZERO PUSH2 0x175A JUMPI DUP1 DUP4 GT ISZERO PUSH2 0x1754 JUMPI PUSH4 0x13BE252B PUSH0 MSTORE PUSH1 0x4 PUSH1 0x1C REVERT JUMPDEST DUP3 DUP2 SUB DUP3 SSTORE JUMPDEST POP POP JUMPDEST POP POP POP JUMP JUMPDEST PUSH2 0x176D DUP3 PUSH0 DUP4 PUSH2 0x15D9 JUMP JUMPDEST PUSH4 0x87A211A2 PUSH1 0xC MSTORE DUP2 PUSH0 MSTORE PUSH1 0x20 PUSH1 0xC KECCAK256 DUP1 SLOAD DUP1 DUP4 GT ISZERO PUSH2 0x1794 JUMPI PUSH4 0xF4D678B8 PUSH0 MSTORE PUSH1 0x4 PUSH1 0x1C REVERT JUMPDEST DUP3 DUP2 SUB DUP3 SSTORE DUP3 PUSH9 0x5345CDF77EB68F44C SLOAD SUB PUSH9 0x5345CDF77EB68F44C SSTORE DUP3 PUSH0 MSTORE PUSH0 DUP5 PUSH1 0x60 SHL PUSH1 0x60 SHR PUSH32 0xDDF252AD1BE2C89B69C2B068FC378DAA952BA7F163C4A11628F55A4DF523B3EF PUSH1 0x20 PUSH0 LOG3 POP POP PUSH2 0x17EE DUP3 PUSH0 DUP4 PUSH2 0x15DE JUMP JUMPDEST POP POP JUMP JUMPDEST PUSH2 0x17FD PUSH0 DUP4 DUP4 PUSH2 0x15D9 JUMP JUMPDEST PUSH9 0x5345CDF77EB68F44C SLOAD DUP2 DUP2 ADD DUP2 DUP2 LT ISZERO PUSH2 0x1820 JUMPI PUSH4 0xE5CFE957 PUSH0 MSTORE PUSH1 0x4 PUSH1 0x1C REVERT JUMPDEST DUP1 PUSH9 0x5345CDF77EB68F44C SSTORE PUSH4 0x87A211A2 PUSH1 0xC MSTORE DUP4 PUSH0 MSTORE PUSH1 0x20 PUSH1 0xC KECCAK256 DUP4 DUP2 SLOAD ADD DUP2 SSTORE DUP4 PUSH1 0x20 MSTORE PUSH1 0xC MLOAD PUSH1 0x60 SHR PUSH0 PUSH32 0xDDF252AD1BE2C89B69C2B068FC378DAA952BA7F163C4A11628F55A4DF523B3EF PUSH1 0x20 DUP1 LOG3 POP POP POP PUSH2 0x1880 PUSH0 DUP4 DUP4 PUSH2 0x15DE JUMP JUMPDEST POP POP JUMP JUMPDEST PUSH0 CALLER SWAP1 POP SWAP1 JUMP JUMPDEST PUSH0 DUP2 MLOAD SWAP1 POP SWAP2 SWAP1 POP JUMP JUMPDEST PUSH0 DUP3 DUP3 MSTORE PUSH1 0x20 DUP3 ADD SWAP1 POP SWAP3 SWAP2 POP POP JUMP JUMPDEST DUP3 DUP2 DUP4 MCOPY PUSH0 DUP4 DUP4 ADD MSTORE POP POP POP JUMP JUMPDEST PUSH0 PUSH1 0x1F NOT PUSH1 0x1F DUP4 ADD AND SWAP1 POP SWAP2 SWAP1 POP JUMP JUMPDEST PUSH0 PUSH2 0x18CD DUP3 PUSH2 0x188B JUMP JUMPDEST PUSH2 0x18D7 DUP2 DUP6 PUSH2 0x1895 JUMP JUMPDEST SWAP4 POP PUSH2 0x18E7 DUP2 DUP6 PUSH1 0x20 DUP7 ADD PUSH2 0x18A5 JUMP JUMPDEST PUSH2 0x18F0 DUP2 PUSH2 0x18B3 JUMP JUMPDEST DUP5 ADD SWAP2 POP POP SWAP3 SWAP2 POP POP JUMP JUMPDEST PUSH0 PUSH1 0x20 DUP3 ADD SWAP1 POP DUP2 DUP2 SUB PUSH0 DUP4 ADD MSTORE PUSH2 0x1913 DUP2 DUP5 PUSH2 0x18C3 JUMP JUMPDEST SWAP1 POP SWAP3 SWAP2 POP POP JUMP JUMPDEST PUSH0 PUSH0 REVERT JUMPDEST PUSH0 PUSH0 REVERT JUMPDEST PUSH0 DUP2 SWAP1 POP SWAP2 SWAP1 POP JUMP JUMPDEST PUSH2 0x1935 DUP2 PUSH2 0x1923 JUMP JUMPDEST DUP2 EQ PUSH2 0x193F JUMPI PUSH0 PUSH0 REVERT JUMPDEST POP JUMP JUMPDEST PUSH0 DUP2 CALLDATALOAD SWAP1 POP PUSH2 0x1950 DUP2 PUSH2 0x192C JUMP JUMPDEST SWAP3 SWAP2 POP POP JUMP JUMPDEST PUSH0 PUSH1 0x20 DUP3 DUP5 SUB SLT ISZERO PUSH2 0x196B JUMPI PUSH2 0x196A PUSH2 0x191B JUMP JUMPDEST JUMPDEST PUSH0 PUSH2 0x1978 DUP5 DUP3 DUP6 ADD PUSH2 0x1942 JUMP JUMPDEST SWAP2 POP POP SWAP3 SWAP2 POP POP JUMP JUMPDEST PUSH2 0x198A DUP2 PUSH2 0x1923 JUMP JUMPDEST DUP3 MSTORE POP POP JUMP JUMPDEST PUSH0 PUSH1 0x20 DUP3 ADD SWAP1 POP PUSH2 0x19A3 PUSH0 DUP4 ADD DUP5 PUSH2 0x1981 JUMP JUMPDEST SWAP3 SWAP2 POP POP JUMP JUMPDEST PUSH0 PUSH20 0xFFFFFFFFFFFFFFFFFFFFFFFFFFFFFFFFFFFFFFFF DUP3 AND SWAP1 POP SWAP2 SWAP1 POP JUMP JUMPDEST PUSH0 PUSH2 0x19D2 DUP3 PUSH2 0x19A9 JUMP JUMPDEST SWAP1 POP SWAP2 SWAP1 POP JUMP JUMPDEST PUSH2 0x19E2 DUP2 PUSH2 0x19C8 JUMP JUMPDEST DUP2 EQ PUSH2 0x19EC JUMPI PUSH0 PUSH0 REVERT JUMPDEST POP JUMP JUMPDEST PUSH0 DUP2 CALLDATALOAD SWAP1 POP PUSH2 0x19FD DUP2 PUSH2 0x19D9 JUMP JUMPDEST SWAP3 SWAP2 POP POP JUMP JUMPDEST PUSH0 PUSH0 PUSH1 0x40 DUP4 DUP6 SUB SLT ISZERO PUSH2 0x1A19 JUMPI PUSH2 0x1A18 PUSH2 0x191B JUMP JUMPDEST JUMPDEST PUSH0 PUSH2 0x1A26 DUP6 DUP3 DUP7 ADD PUSH2 0x19EF JUMP JUMPDEST SWAP3 POP POP PUSH1 0x20 PUSH2 0x1A37 DUP6 DUP3 DUP7 ADD PUSH2 0x1942 JUMP JUMPDEST SWAP2 POP POP SWAP3 POP SWAP3 SWAP1 POP JUMP JUMPDEST PUSH0 DUP2 ISZERO ISZERO SWAP1 POP SWAP2 SWAP1 POP JUMP JUMPDEST PUSH2 0x1A55 DUP2 PUSH2 0x1A41 JUMP JUMPDEST DUP3 MSTORE POP POP JUMP JUMPDEST PUSH0 PUSH1 0x20 DUP3 ADD SWAP1 POP PUSH2 0x1A6E PUSH0 DUP4 ADD DUP5 PUSH2 0x1A4C JUMP JUMPDEST SWAP3 SWAP2 POP POP JUMP JUMPDEST PUSH0 PUSH0 REVERT JUMPDEST PUSH0 PUSH0 REVERT JUMPDEST PUSH0 PUSH0 REVERT JUMPDEST PUSH0 PUSH0 DUP4 PUSH1 0x1F DUP5 ADD SLT PUSH2 0x1A95 JUMPI PUSH2 0x1A94 PUSH2 0x1A74 JUMP JUMPDEST JUMPDEST DUP3 CALLDATALOAD SWAP1 POP PUSH8 0xFFFFFFFFFFFFFFFF DUP2 GT ISZERO PUSH2 0x1AB2 JUMPI PUSH2 0x1AB1 PUSH2 0x1A78 JUMP JUMPDEST JUMPDEST PUSH1 0x20 DUP4 ADD SWAP2 POP DUP4 PUSH1 0x1 DUP3 MUL DUP4 ADD GT ISZERO PUSH2 0x1ACE JUMPI PUSH2 0x1ACD PUSH2 0x1A7C JUMP JUMPDEST JUMPDEST SWAP3 POP SWAP3 SWAP1 POP JUMP JUMPDEST PUSH0 PUSH0 PUSH0 PUSH0 PUSH1 0x60 DUP6 DUP8 SUB SLT ISZERO PUSH2 0x1AED JUMPI PUSH2 0x1AEC PUSH2 0x191B JUMP JUMPDEST JUMPDEST PUSH0 PUSH2 0x1AFA DUP8 DUP3 DUP9 ADD PUSH2 0x19EF JUMP JUMPDEST SWAP5 POP POP PUSH1 0x20 PUSH2 0x1B0B DUP8 DUP3 DUP9 ADD PUSH2 0x1942 JUMP JUMPDEST SWAP4 POP POP PUSH1 0x40 DUP6 ADD CALLDATALOAD PUSH8 0xFFFFFFFFFFFFFFFF DUP2 GT ISZERO PUSH2 0x1B2C JUMPI PUSH2 0x1B2B PUSH2 0x191F JUMP JUMPDEST JUMPDEST PUSH2 0x1B38 DUP8 DUP3 DUP9 ADD PUSH2 0x1A80 JUMP JUMPDEST SWAP3 POP SWAP3 POP POP SWAP3 SWAP6 SWAP2 SWAP5 POP SWAP3 POP JUMP JUMPDEST PUSH0 DUP2 MLOAD SWAP1 POP SWAP2 SWAP1 POP JUMP JUMPDEST PUSH0 DUP3 DUP3 MSTORE PUSH1 0x20 DUP3 ADD SWAP1 POP SWAP3 SWAP2 POP POP JUMP JUMPDEST PUSH0 PUSH2 0x1B6A DUP3 PUSH2 0x1B46 JUMP JUMPDEST PUSH2 0x1B74 DUP2 DUP6 PUSH2 0x1B50 JUMP JUMPDEST SWAP4 POP PUSH2 0x1B84 DUP2 DUP6 PUSH1 0x20 DUP7 ADD PUSH2 0x18A5 JUMP JUMPDEST PUSH2 0x1B8D DUP2 PUSH2 0x18B3 JUMP JUMPDEST DUP5 ADD SWAP2 POP POP SWAP3 SWAP2 POP POP JUMP JUMPDEST PUSH0 PUSH1 0x20 DUP3 ADD SWAP1 POP DUP2 DUP2 SUB PUSH0 DUP4 ADD MSTORE PUSH2 0x1BB0 DUP2 DUP5 PUSH2 0x1B60 JUMP JUMPDEST SWAP1 POP SWAP3 SWAP2 POP POP JUMP JUMPDEST PUSH0 PUSH0 PUSH0 PUSH1 0x60 DUP5 DUP7 SUB SLT ISZERO PUSH2 0x1BCF JUMPI PUSH2 0x1BCE PUSH2 0x191B JUMP JUMPDEST JUMPDEST PUSH0 PUSH2 0x1BDC DUP7 DUP3 DUP8 ADD PUSH2 0x19EF JUMP JUMPDEST SWAP4 POP POP PUSH1 0x20 PUSH2 0x1BED DUP7 DUP3 DUP8 ADD PUSH2 0x19EF JUMP JUMPDEST SWAP3 POP POP PUSH1 0x40 PUSH2 0x1BFE DUP7 DUP3 DUP8 ADD PUSH2 0x1942 JUMP JUMPDEST SWAP2 POP POP SWAP3 POP SWAP3 POP SWAP3 JUMP JUMPDEST PUSH0 PUSH1 0xFF DUP3 AND SWAP1 POP SWAP2 SWAP1 POP JUMP JUMPDEST PUSH2 0x1C1D DUP2 PUSH2 0x1C08 JUMP JUMPDEST DUP3 MSTORE POP POP JUMP JUMPDEST PUSH0 PUSH1 0x20 DUP3 ADD SWAP1 POP PUSH2 0x1C36 PUSH0 DUP4 ADD DUP5 PUSH2 0x1C14 JUMP JUMPDEST SWAP3 SWAP2 POP POP JUMP JUMPDEST PUSH0 DUP2 SWAP1 POP SWAP2 SWAP1 POP JUMP JUMPDEST PUSH2 0x1C4E DUP2 PUSH2 0x1C3C JUMP JUMPDEST DUP3 MSTORE POP POP JUMP JUMPDEST PUSH0 PUSH1 0x20 DUP3 ADD SWAP1 POP PUSH2 0x1C67 PUSH0 DUP4 ADD DUP5 PUSH2 0x1C45 JUMP JUMPDEST SWAP3 SWAP2 POP POP JUMP JUMPDEST PUSH0 PUSH0 PUSH1 0x40 DUP4 DUP6 SUB SLT ISZERO PUSH2 0x1C83 JUMPI PUSH2 0x1C82 PUSH2 0x191B JUMP JUMPDEST JUMPDEST PUSH0 PUSH2 0x1C90 DUP6 DUP3 DUP7 ADD PUSH2 0x1942 JUMP JUMPDEST SWAP3 POP POP PUSH1 0x20 PUSH2 0x1CA1 DUP6 DUP3 DUP7 ADD PUSH2 0x19EF JUMP JUMPDEST SWAP2 POP POP SWAP3 POP SWAP3 SWAP1 POP JUMP JUMPDEST PUSH0 PUSH1 0x20 DUP3 DUP5 SUB SLT ISZERO PUSH2 0x1CC0 JUMPI PUSH2 0x1CBF PUSH2 0x191B JUMP JUMPDEST JUMPDEST PUSH0 PUSH2 0x1CCD DUP5 DUP3 DUP6 ADD PUSH2 0x19EF JUMP JUMPDEST SWAP2 POP POP SWAP3 SWAP2 POP POP JUMP JUMPDEST PUSH2 0x1CDF DUP2 PUSH2 0x19C8 JUMP JUMPDEST DUP3 MSTORE POP POP JUMP JUMPDEST PUSH0 PUSH1 0x20 DUP3 ADD SWAP1 POP PUSH2 0x1CF8 PUSH0 DUP4 ADD DUP5 PUSH2 0x1CD6 JUMP JUMPDEST SWAP3 SWAP2 POP POP JUMP JUMPDEST PUSH0 PUSH0 PUSH0 PUSH1 0x60 DUP5 DUP7 SUB SLT ISZERO PUSH2 0x1D15 JUMPI PUSH2 0x1D14 PUSH2 0x191B JUMP JUMPDEST JUMPDEST PUSH0 PUSH2 0x1D22 DUP7 DUP3 DUP8 ADD PUSH2 0x1942 JUMP JUMPDEST SWAP4 POP POP PUSH1 0x20 PUSH2 0x1D33 DUP7 DUP3 DUP8 ADD PUSH2 0x19EF JUMP JUMPDEST SWAP3 POP POP PUSH1 0x40 PUSH2 0x1D44 DUP7 DUP3 DUP8 ADD PUSH2 0x19EF JUMP JUMPDEST SWAP2 POP POP SWAP3 POP SWAP3 POP SWAP3 JUMP JUMPDEST PUSH2 0x1D57 DUP2 PUSH2 0x1C08 JUMP JUMPDEST DUP2 EQ PUSH2 0x1D61 JUMPI PUSH0 PUSH0 REVERT JUMPDEST POP JUMP JUMPDEST PUSH0 DUP2 CALLDATALOAD SWAP1 POP PUSH2 0x1D72 DUP2 PUSH2 0x1D4E JUMP JUMPDEST SWAP3 SWAP2 POP POP JUMP JUMPDEST PUSH2 0x1D81 DUP2 PUSH2 0x1C3C JUMP JUMPDEST DUP2 EQ PUSH2 0x1D8B JUMPI PUSH0 PUSH0 REVERT JUMPDEST POP JUMP JUMPDEST PUSH0 DUP2 CALLDATALOAD SWAP1 POP PUSH2 0x1D9C DUP2 PUSH2 0x1D78 JUMP JUMPDEST SWAP3 SWAP2 POP POP JUMP JUMPDEST PUSH0 PUSH0 PUSH0 PUSH0 PUSH0 PUSH0 PUSH0 PUSH1 0xE0 DUP9 DUP11 SUB SLT ISZERO PUSH2 0x1DBD JUMPI PUSH2 0x1DBC PUSH2 0x191B JUMP JUMPDEST JUMPDEST PUSH0 PUSH2 0x1DCA DUP11 DUP3 DUP12 ADD PUSH2 0x19EF JUMP JUMPDEST SWAP8 POP POP PUSH1 0x20 PUSH2 0x1DDB DUP11 DUP3 DUP12 ADD PUSH2 0x19EF JUMP JUMPDEST SWAP7 POP POP PUSH1 0x40 PUSH2 0x1DEC DUP11 DUP3 DUP12 ADD PUSH2 0x1942 JUMP JUMPDEST SWAP6 POP POP PUSH1 0x60 PUSH2 0x1DFD DUP11 DUP3 DUP12 ADD PUSH2 0x1942 JUMP JUMPDEST SWAP5 POP POP PUSH1 0x80 PUSH2 0x1E0E DUP11 DUP3 DUP12 ADD PUSH2 0x1D64 JUMP JUMPDEST SWAP4 POP POP PUSH1 0xA0 PUSH2 0x1E1F DUP11 DUP3 DUP12 ADD PUSH2 0x1D8E JUMP JUMPDEST SWAP3 POP POP PUSH1 0xC0 PUSH2 0x1E30 DUP11 DUP3 DUP12 ADD PUSH2 0x1D8E JUMP JUMPDEST SWAP2 POP POP SWAP3 SWAP6 SWAP9 SWAP2 SWAP5 SWAP8 POP SWAP3 SWAP6 POP JUMP JUMPDEST PUSH0 PUSH0 PUSH1 0x40 DUP4 DUP6 SUB SLT ISZERO PUSH2 0x1E55 JUMPI PUSH2 0x1E54 PUSH2 0x191B JUMP JUMPDEST JUMPDEST PUSH0 PUSH2 0x1E62 DUP6 DUP3 DUP7 ADD PUSH2 0x19EF JUMP JUMPDEST SWAP3 POP POP PUSH1 0x20 PUSH2 0x1E73 DUP6 DUP3 DUP7 ADD PUSH2 0x19EF JUMP JUMPDEST SWAP2 POP POP SWAP3 POP SWAP3 SWAP1 POP JUMP JUMPDEST PUSH32 0x4E487B7100000000000000000000000000000000000000000000000000000000 PUSH0 MSTORE PUSH1 0x22 PUSH1 0x4 MSTORE PUSH1 0x24 PUSH0 REVERT JUMPDEST PUSH0 PUSH1 0x2 DUP3 DIV SWAP1 POP PUSH1 0x1 DUP3 AND DUP1 PUSH2 0x1EC1 JUMPI PUSH1 0x7F DUP3 AND SWAP2 POP JUMPDEST PUSH1 0x20 DUP3 LT DUP2 SUB PUSH2 0x1ED4 JUMPI PUSH2 0x1ED3 PUSH2 0x1E7D JUMP JUMPDEST JUMPDEST POP SWAP2 SWAP1 POP JUMP JUMPDEST PUSH0 DUP2 SWAP1 POP SWAP3 SWAP2 POP POP JUMP JUMPDEST DUP3 DUP2 DUP4 CALLDATACOPY PUSH0 DUP4 DUP4 ADD MSTORE POP POP POP JUMP JUMPDEST PUSH0 PUSH2 0x1EFD DUP4 DUP6 PUSH2 0x1EDA JUMP JUMPDEST SWAP4 POP PUSH2 0x1F0A DUP4 DUP6 DUP5 PUSH2 0x1EE4 JUMP JUMPDEST DUP3 DUP5 ADD SWAP1 POP SWAP4 SWAP3 POP POP POP JUMP JUMPDEST PUSH0 PUSH2 0x1F22 DUP3 DUP5 DUP7 PUSH2 0x1EF2 JUMP JUMPDEST SWAP2 POP DUP2 SWAP1 POP SWAP4 SWAP3 POP POP POP JUMP JUMPDEST PUSH32 0x4E487B7100000000000000000000000000000000000000000000000000000000 PUSH0 MSTORE PUSH1 0x11 PUSH1 0x4 MSTORE PUSH1 0x24 PUSH0 REVERT JUMPDEST PUSH0 PUSH2 0x1F65 DUP3 PUSH2 0x1923 JUMP JUMPDEST SWAP2 POP PUSH2 0x1F70 DUP4 PUSH2 0x1923 JUMP JUMPDEST SWAP3 POP DUP3 DUP3 ADD SWAP1 POP DUP1 DUP3 GT ISZERO PUSH2 0x1F88 JUMPI PUSH2 0x1F87 PUSH2 0x1F2E JUMP JUMPDEST JUMPDEST SWAP3 SWAP2 POP POP JUMP JUMPDEST PUSH0 PUSH2 0x1F98 DUP3 PUSH2 0x1923 JUMP JUMPDEST SWAP2 POP PUSH2 0x1FA3 DUP4 PUSH2 0x1923 JUMP JUMPDEST SWAP3 POP DUP3 DUP3 MUL PUSH2 0x1FB1 DUP2 PUSH2 0x1923 JUMP JUMPDEST SWAP2 POP DUP3 DUP3 DIV DUP5 EQ DUP4 ISZERO OR PUSH2 0x1FC8 JUMPI PUSH2 0x1FC7 PUSH2 0x1F2E JUMP JUMPDEST JUMPDEST POP SWAP3 SWAP2 POP POP JUMP JUMPDEST PUSH32 0x4E487B7100000000000000000000000000000000000000000000000000000000 PUSH0 MSTORE PUSH1 0x12 PUSH1 0x4 MSTORE PUSH1 0x24 PUSH0 REVERT JUMPDEST PUSH0 PUSH2 0x2006 DUP3 PUSH2 0x1923 JUMP JUMPDEST SWAP2 POP PUSH2 0x2011 DUP4 PUSH2 0x1923 JUMP JUMPDEST SWAP3 POP DUP3 PUSH2 0x2021 JUMPI PUSH2 0x2020 PUSH2 0x1FCF JUMP JUMPDEST JUMPDEST DUP3 DUP3 DIV SWAP1 POP SWAP3 SWAP2 POP POP JUMP JUMPDEST PUSH0 PUSH2 0x2036 DUP3 PUSH2 0x1923 JUMP JUMPDEST SWAP2 POP PUSH2 0x2041 DUP4 PUSH2 0x1923 JUMP JUMPDEST SWAP3 POP DUP3 DUP3 SUB SWAP1 POP DUP2 DUP2 GT ISZERO PUSH2 0x2059 JUMPI PUSH2 0x2058 PUSH2 0x1F2E JUMP JUMPDEST JUMPDEST SWAP3 SWAP2 POP POP JUMP JUMPDEST POP JUMP JUMPDEST PUSH0 PUSH2 0x206D PUSH0 DUP4 PUSH2 0x1EDA JUMP JUMPDEST SWAP2 POP PUSH2 0x2078 DUP3 PUSH2 0x205F JUMP JUMPDEST PUSH0 DUP3 ADD SWAP1 POP SWAP2 SWAP1 POP JUMP JUMPDEST PUSH0 PUSH2 0x208C DUP3 PUSH2 0x2062 JUMP JUMPDEST SWAP2 POP DUP2 SWAP1 POP SWAP2 SWAP1 POP JUMP JUMPDEST PUSH0 PUSH1 0x40 DUP3 ADD SWAP1 POP PUSH2 0x20A9 PUSH0 DUP4 ADD DUP6 PUSH2 0x1981 JUMP JUMPDEST PUSH2 0x20B6 PUSH1 0x20 DUP4 ADD DUP5 PUSH2 0x1981 JUMP JUMPDEST SWAP4 SWAP3 POP POP POP JUMP INVALID LOG2 PUSH5 0x6970667358 0x22 SLT KECCAK256 CALL 0xB5 MLOAD ADD 0xE7 LOG2 0xDA SWAP6 0xC1 PUSH1 0x25 RETURN 0x1E REVERT CHAINID 0xD8 POP RETURNDATACOPY CALLER SHL 0x2F PUSH26 0x86BCCC1A8211BB1268A064736F6C634300081C0033A264697066 PUSH20 0x58221220E03DC7659ED6C2B1032940775E93C1BF STATICCALL 0xF SWAP5 PUSH18 0x51A4572E7115A76E1937545064736F6C6343 STOP ADDMOD SHR STOP CALLER "
		},
		"gasEstimates": {
			"creation": {
				"codeDepositCost": "2269000",
				"executionCost": "2425",
				"totalCost": "2271425"
			},
			"external": {
				"make(string,string)": "infinite"
			}
		},
		"methodIdentifiers": {
			"make(string,string)": "9f03e82d"
		}
	},
	"abi": [
		{
			"anonymous": false,
			"inputs": [
				{
					"indexed": false,
					"internalType": "address",
					"name": "creator",
					"type": "address"
				},
				{
					"indexed": false,
					"internalType": "address",
					"name": "contractLocation",
					"type": "address"
				}
			],
			"name": "Made",
			"type": "event"
		},
		{
			"inputs": [
				{
					"internalType": "string",
					"name": "name",
					"type": "string"
				},
				{
					"internalType": "string",
					"name": "symbol",
					"type": "string"
				}
			],
			"name": "make",
			"outputs": [
				{
					"internalType": "contract AquitardExtended",
					"name": "",
					"type": "address"
				}
			],
			"stateMutability": "nonpayable",
			"type": "function"
		}
	]
}