{
	"data": {
		"bytecode": {
			"linkReferences": {},
			"object": "60a0604052426080908152505f6003555f60045534801561001e575f5ffd5b5060405161268138038061268183398181016040528101906100409190610351565b825f73ffffffffffffffffffffffffffffffffffffffff168173ffffffffffffffffffffffffffffffffffffffff16036100b1575f6040517f1e4fbdf70000000000000000000000000000000000000000000000000000000081526004016100a891906103e8565b60405180910390fd5b6100c0816100e960201b60201c565b5081600190816100d09190610611565b5080600290816100e09190610611565b505050506106e0565b5f5f5f9054906101000a900473ffffffffffffffffffffffffffffffffffffffff169050815f5f6101000a81548173ffffffffffffffffffffffffffffffffffffffff021916908373ffffffffffffffffffffffffffffffffffffffff1602179055508173ffffffffffffffffffffffffffffffffffffffff168173ffffffffffffffffffffffffffffffffffffffff167f8be0079c531659141344cd1fd0a4f28419497f9722a3daafe3b4186f6b6457e060405160405180910390a35050565b5f604051905090565b5f5ffd5b5f5ffd5b5f73ffffffffffffffffffffffffffffffffffffffff82169050919050565b5f6101e4826101bb565b9050919050565b6101f4816101da565b81146101fe575f5ffd5b50565b5f8151905061020f816101eb565b92915050565b5f5ffd5b5f5ffd5b5f601f19601f8301169050919050565b7f4e487b71000000000000000000000000000000000000000000000000000000005f52604160045260245ffd5b6102638261021d565b810181811067ffffffffffffffff821117156102825761028161022d565b5b80604052505050565b5f6102946101aa565b90506102a0828261025a565b919050565b5f67ffffffffffffffff8211156102bf576102be61022d565b5b6102c88261021d565b9050602081019050919050565b8281835e5f83830152505050565b5f6102f56102f0846102a5565b61028b565b90508281526020810184848401111561031157610310610219565b5b61031c8482856102d5565b509392505050565b5f82601f83011261033857610337610215565b5b81516103488482602086016102e3565b91505092915050565b5f5f5f60608486031215610368576103676101b3565b5b5f61037586828701610201565b935050602084015167ffffffffffffffff811115610396576103956101b7565b5b6103a286828701610324565b925050604084015167ffffffffffffffff8111156103c3576103c26101b7565b5b6103cf86828701610324565b9150509250925092565b6103e2816101da565b82525050565b5f6020820190506103fb5f8301846103d9565b92915050565b5f81519050919050565b7f4e487b71000000000000000000000000000000000000000000000000000000005f52602260045260245ffd5b5f600282049050600182168061044f57607f821691505b6020821081036104625761046161040b565b5b50919050565b5f819050815f5260205f209050919050565b5f6020601f8301049050919050565b5f82821b905092915050565b5f600883026104c47fffffffffffffffffffffffffffffffffffffffffffffffffffffffffffffffff82610489565b6104ce8683610489565b95508019841693508086168417925050509392505050565b5f819050919050565b5f819050919050565b5f61051261050d610508846104e6565b6104ef565b6104e6565b9050919050565b5f819050919050565b61052b836104f8565b61053f61053782610519565b848454610495565b825550505050565b5f5f905090565b610556610547565b610561818484610522565b505050565b5b81811015610584576105795f8261054e565b600181019050610567565b5050565b601f8211156105c95761059a81610468565b6105a38461047a565b810160208510156105b2578190505b6105c66105be8561047a565b830182610566565b50505b505050565b5f82821c905092915050565b5f6105e95f19846008026105ce565b1980831691505092915050565b5f61060183836105da565b9150826002028217905092915050565b61061a82610401565b67ffffffffffffffff8111156106335761063261022d565b5b61063d8254610438565b610648828285610588565b5f60209050601f831160018114610679575f8415610667578287015190505b61067185826105f6565b8655506106d8565b601f19841661068786610468565b5f5b828110156106ae57848901518255600182019150602085019450602081019050610689565b868310156106cb57848901516106c7601f8916826105da565b8355505b6001600288020188555050505b505050505050565b608051611f826106ff5f395f8181610edf0152610f7b0152611f825ff3fe60806040526004361061019b575f3560e01c80638da5cb5b116100eb578063ce96cb7711610089578063dd62ed3e11610063578063dd62ed3e1461062d578063ef8b30f714610669578063f2fde38b146106a5578063f340fa01146106cd5761019b565b8063ce96cb771461059f578063d28d8852146105db578063d505accf146106055761019b565b8063b09f1266116100c5578063b09f1266146104c1578063ba087652146104eb578063c63d75b614610527578063c6e6f592146105635761019b565b80638da5cb5b1461043157806395d89b411461045b578063a9059cbb146104855761019b565b8063313ce567116101585780636e553f65116101325780636e553f651461037357806370a08231146103a3578063715018a6146103df5780637ecebe00146103f55761019b565b8063313ce567146102e35780633644e5151461030d5780634cdad506146103375761019b565b806306fdde031461019f57806307a2d13a146101c9578063095ea7b31461020557806310ab2d011461024157806318160ddd1461027d57806323b872dd146102a7575b5f5ffd5b3480156101aa575f5ffd5b506101b36106fd565b6040516101c0919061178a565b60405180910390f35b3480156101d4575f5ffd5b506101ef60048036038101906101ea91906117e5565b61078d565b6040516101fc919061181f565b60405180910390f35b348015610210575f5ffd5b5061022b60048036038101906102269190611892565b6107d8565b60405161023891906118ea565b60405180910390f35b34801561024c575f5ffd5b5061026760048036038101906102629190611964565b610863565b6040516102749190611a27565b60405180910390f35b348015610288575f5ffd5b506102916108e5565b60405161029e919061181f565b60405180910390f35b3480156102b2575f5ffd5b506102cd60048036038101906102c89190611a47565b6108f6565b6040516102da91906118ea565b60405180910390f35b3480156102ee575f5ffd5b506102f7610a9c565b6040516103049190611ab2565b60405180910390f35b348015610318575f5ffd5b50610321610aa4565b60405161032e9190611ae3565b60405180910390f35b348015610342575f5ffd5b5061035d600480360381019061035891906117e5565b610b20565b60405161036a919061181f565b60405180910390f35b61038d60048036038101906103889190611afc565b610b31565b60405161039a919061181f565b60405180910390f35b3480156103ae575f5ffd5b506103c960048036038101906103c49190611b3a565b610b43565b6040516103d6919061181f565b60405180910390f35b3480156103ea575f5ffd5b506103f3610b5c565b005b348015610400575f5ffd5b5061041b60048036038101906104169190611b3a565b610b6f565b604051610428919061181f565b60405180910390f35b34801561043c575f5ffd5b50610445610b88565b6040516104529190611b74565b60405180910390f35b348015610466575f5ffd5b5061046f610baf565b60405161047c919061178a565b60405180910390f35b348015610490575f5ffd5b506104ab60048036038101906104a69190611892565b610c3f565b6040516104b891906118ea565b60405180910390f35b3480156104cc575f5ffd5b506104d5610ccd565b6040516104e2919061178a565b60405180910390f35b3480156104f6575f5ffd5b50610511600480360381019061050c9190611b8d565b610d59565b60405161051e919061181f565b60405180910390f35b348015610532575f5ffd5b5061054d60048036038101906105489190611b3a565b610ec2565b60405161055a919061181f565b60405180910390f35b34801561056e575f5ffd5b50610589600480360381019061058491906117e5565b610f24565b604051610596919061181f565b60405180910390f35b3480156105aa575f5ffd5b506105c560048036038101906105c09190611b3a565b610f5e565b6040516105d2919061181f565b60405180910390f35b3480156105e6575f5ffd5b506105ef610fc0565b6040516105fc919061178a565b60405180910390f35b348015610610575f5ffd5b5061062b60048036038101906106269190611c31565b61104c565b005b348015610638575f5ffd5b50610653600480360381019061064e9190611cce565b61120f565b604051610660919061181f565b60405180910390f35b348015610674575f5ffd5b5061068f600480360381019061068a91906117e5565b6112a6565b60405161069c919061181f565b60405180910390f35b3480156106b0575f5ffd5b506106cb60048036038101906106c69190611b3a565b6112b7565b005b6106e760048036038101906106e29190611b3a565b61133b565b6040516106f4919061181f565b60405180910390f35b60606001805461070c90611d39565b80601f016020809104026020016040519081016040528092919081815260200182805461073890611d39565b80156107835780601f1061075a57610100808354040283529160200191610783565b820191905f5260205f20905b81548152906001019060200180831161076657829003601f168201915b5050505050905090565b5f5f82670de0b6b3a76400006107a39190611d96565b836107ad33610f5e565b6107b79190611dc9565b6107c19190611e37565b9050804710156107cf574790505b80915050919050565b5f6107e16113da565b15610814578119156e22d473030f116ddee9f6b43ac78ba38460601b60601c181761081357633f68539a5f526004601cfd5b5b82602052637f5e9f20600c52335f52816034600c2055815f52602c5160601c337f8c5be1e5ebec7d5bd14f71427d1e84f3dd0314c0f7b2291e5b200ac8c7c3b92560205fa36001905092915050565b606061086d6113e1565b5f8573ffffffffffffffffffffffffffffffffffffffff16858585604051610896929190611ea3565b5f6040518083038185875af1925050503d805f81146108d0576040519150601f19603f3d011682016040523d82523d5f602084013e6108d5565b606091505b5091505080915050949350505050565b5f6805345cdf77eb68f44c54905090565b5f610902848484611468565b61090a6113da565b156109d8578360601b6e22d473030f116ddee9f6b43ac78ba333146109635733602052637f5e9f208117600c526034600c208054801915610960578085111561095a576313be252b5f526004601cfd5b84810382555b50505b6387a211a28117600c526020600c208054808511156109895763f4d678b85f526004601cfd5b8481038255855f526020600c2085815401815585602052600c5160601c8460601c7fddf252ad1be2c89b69c2b068fc378daa952ba7f163c4a11628f55a4df523b3ef602080a350505050610a86565b8360601b33602052637f5e9f208117600c526034600c208054801915610a135780851115610a0d576313be252b5f526004601cfd5b84810382555b6387a211a28317600c526020600c20805480871115610a395763f4d678b85f526004601cfd5b8681038255875f526020600c2087815401815587602052600c5160601c8660601c7fddf252ad1be2c89b69c2b068fc378daa952ba7f163c4a11628f55a4df523b3ef602080a35050505050505b610a9184848461146d565b600190509392505050565b5f6012905090565b5f5f610aae611472565b90505f5f1b8103610acb57610ac16106fd565b8051906020012090505b5f610ad4611476565b90506040517f8b73c3c69bb8fe3d512ecc4cf759cc79239f7b179b0ffacaa9a75d522b39400f815282602082015281604082015246606082015230608082015260a08120935050505090565b5f610b2a8261078d565b9050919050565b5f610b3b8261133b565b905092915050565b5f6387a211a2600c52815f526020600c20549050919050565b610b646113e1565b610b6d5f61149f565b565b5f6338377508600c52815f526020600c20549050919050565b5f5f5f9054906101000a900473ffffffffffffffffffffffffffffffffffffffff16905090565b606060028054610bbe90611d39565b80601f0160208091040260200160405190810160405280929190818152602001828054610bea90611d39565b8015610c355780601f10610c0c57610100808354040283529160200191610c35565b820191905f5260205f20905b815481529060010190602001808311610c1857829003601f168201915b5050505050905090565b5f610c4b338484611468565b6387a211a2600c52335f526020600c20805480841115610c725763f4d678b85f526004601cfd5b8381038255845f526020600c2084815401815584602052600c5160601c337fddf252ad1be2c89b69c2b068fc378daa952ba7f163c4a11628f55a4df523b3ef602080a3505050610cc333848461146d565b6001905092915050565b60028054610cda90611d39565b80601f0160208091040260200160405190810160405280929190818152602001828054610d0690611d39565b8015610d515780601f10610d2857610100808354040283529160200191610d51565b820191905f5260205f20905b815481529060010190602001808311610d3457829003601f168201915b505050505081565b5f5f610d6485610b20565b90508273ffffffffffffffffffffffffffffffffffffffff163373ffffffffffffffffffffffffffffffffffffffff1614610da557610da4833387611560565b5b8060045f828254610db69190611d96565b92505081905550610dc783866115f1565b5f8473ffffffffffffffffffffffffffffffffffffffff1682604051610dec90611ede565b5f6040518083038185875af1925050503d805f8114610e26576040519150601f19603f3d011682016040523d82523d5f602084013e610e2b565b606091505b5050905080610e38575f5ffd5b8373ffffffffffffffffffffffffffffffffffffffff168573ffffffffffffffffffffffffffffffffffffffff163373ffffffffffffffffffffffffffffffffffffffff167ffbde797d201c681b91056529119e0b02407c7bb96a4a2c75c01fc9667232c8db858a604051610eae929190611ef2565b60405180910390a481925050509392505050565b5f60035462015180670de0b6b3a7640000610edd9190611e37565b7f000000000000000000000000000000000000000000000000000000000000000042610f099190611f19565b610f139190611dc9565b610f1d9190611f19565b9050919050565b5f8167016345785d8a0000610f399190611d96565b82610f4333610ec2565b610f4d9190611dc9565b610f579190611e37565b9050919050565b5f6004546201518067016345785d8a0000610f799190611e37565b7f000000000000000000000000000000000000000000000000000000000000000042610fa59190611f19565b610faf9190611dc9565b610fb99190611f19565b9050919050565b60018054610fcd90611d39565b80601f0160208091040260200160405190810160405280929190818152602001828054610ff990611d39565b80156110445780601f1061101b57610100808354040283529160200191611044565b820191905f5260205f20905b81548152906001019060200180831161102757829003601f168201915b505050505081565b6110546113da565b15611087578419156e22d473030f116ddee9f6b43ac78ba38760601b60601c181761108657633f68539a5f526004601cfd5b5b5f611090611472565b90505f5f1b81036110ad576110a36106fd565b8051906020012090505b5f6110b6611476565b9050854211156110cd57631a15a3cc5f526004601cfd5b6040518960601b60601c99508860601b60601c985065383775081901600e52895f526020600c2080547f8b73c3c69bb8fe3d512ecc4cf759cc79239f7b179b0ffacaa9a75d522b39400f835284602084015283604084015246606084015230608084015260a08320602e527f6e71edae12b1b97f4d1f60370fef10105fa2faae0126114a169c64845d6126c983528b60208401528a60408401528960608401528060808401528860a084015260c08320604e526042602c205f528760ff16602052866040528560605260208060805f60015afa8c3d51146111b55763ddafbaef5f526004601cfd5b80820183558b637f5e9f2060a01b176040528a6034602c20558b8d7f8c5be1e5ebec7d5bd14f71427d1e84f3dd0314c0f7b2291e5b200ac8c7c3b925602060608801a3836040525f60605250505050505050505050505050565b5f6112186113da565b15611288576e22d473030f116ddee9f6b43ac78ba373ffffffffffffffffffffffffffffffffffffffff168273ffffffffffffffffffffffffffffffffffffffff1603611287577fffffffffffffffffffffffffffffffffffffffffffffffffffffffffffffffff90506112a0565b5b81602052637f5e9f20600c52825f526034600c205490505b92915050565b5f6112b082610f24565b9050919050565b6112bf6113e1565b5f73ffffffffffffffffffffffffffffffffffffffff168173ffffffffffffffffffffffffffffffffffffffff160361132f575f6040517f1e4fbdf70000000000000000000000000000000000000000000000000000000081526004016113269190611b74565b60405180910390fd5b6113388161149f565b50565b5f5f611346346112a6565b90508060035f8282546113599190611d96565b9250508190555061136a8382611681565b8273ffffffffffffffffffffffffffffffffffffffff163373ffffffffffffffffffffffffffffffffffffffff167fdcbc1c05240f31ff3ad067ef1ee35ce4997762752e3a095284754544f4c709d734846040516113c9929190611ef2565b60405180910390a380915050919050565b5f5f905090565b6113e9611713565b73ffffffffffffffffffffffffffffffffffffffff16611407610b88565b73ffffffffffffffffffffffffffffffffffffffff16146114665761142a611713565b6040517f118cdaa700000000000000000000000000000000000000000000000000000000815260040161145d9190611b74565b60405180910390fd5b565b505050565b505050565b5f90565b5f7fc89efdaa54c0f20c7adf612882df0950f5a951637e0307cdcb4c672f298b8bc65f1b905090565b5f5f5f9054906101000a900473ffffffffffffffffffffffffffffffffffffffff169050815f5f6101000a81548173ffffffffffffffffffffffffffffffffffffffff021916908373ffffffffffffffffffffffffffffffffffffffff1602179055508173ffffffffffffffffffffffffffffffffffffffff168173ffffffffffffffffffffffffffffffffffffffff167f8be0079c531659141344cd1fd0a4f28419497f9722a3daafe3b4186f6b6457e060405160405180910390a35050565b6115686113da565b156115b1576e22d473030f116ddee9f6b43ac78ba373ffffffffffffffffffffffffffffffffffffffff168273ffffffffffffffffffffffffffffffffffffffff1603156115ec575b81602052637f5e9f20600c52825f526034600c2080548019156115e957808311156115e3576313be252b5f526004601cfd5b82810382555b50505b505050565b6115fc825f83611468565b6387a211a2600c52815f526020600c208054808311156116235763f4d678b85f526004601cfd5b8281038255826805345cdf77eb68f44c54036805345cdf77eb68f44c55825f525f8460601b60601c7fddf252ad1be2c89b69c2b068fc378daa952ba7f163c4a11628f55a4df523b3ef60205fa3505061167d825f8361146d565b5050565b61168c5f8383611468565b6805345cdf77eb68f44c54818101818110156116af5763e5cfe9575f526004601cfd5b806805345cdf77eb68f44c556387a211a2600c52835f526020600c2083815401815583602052600c5160601c5f7fddf252ad1be2c89b69c2b068fc378daa952ba7f163c4a11628f55a4df523b3ef602080a350505061170f5f838361146d565b5050565b5f33905090565b5f81519050919050565b5f82825260208201905092915050565b8281835e5f83830152505050565b5f601f19601f8301169050919050565b5f61175c8261171a565b6117668185611724565b9350611776818560208601611734565b61177f81611742565b840191505092915050565b5f6020820190508181035f8301526117a28184611752565b905092915050565b5f5ffd5b5f5ffd5b5f819050919050565b6117c4816117b2565b81146117ce575f5ffd5b50565b5f813590506117df816117bb565b92915050565b5f602082840312156117fa576117f96117aa565b5b5f611807848285016117d1565b91505092915050565b611819816117b2565b82525050565b5f6020820190506118325f830184611810565b92915050565b5f73ffffffffffffffffffffffffffffffffffffffff82169050919050565b5f61186182611838565b9050919050565b61187181611857565b811461187b575f5ffd5b50565b5f8135905061188c81611868565b92915050565b5f5f604083850312156118a8576118a76117aa565b5b5f6118b58582860161187e565b92505060206118c6858286016117d1565b9150509250929050565b5f8115159050919050565b6118e4816118d0565b82525050565b5f6020820190506118fd5f8301846118db565b92915050565b5f5ffd5b5f5ffd5b5f5ffd5b5f5f83601f84011261192457611923611903565b5b8235905067ffffffffffffffff81111561194157611940611907565b5b60208301915083600182028301111561195d5761195c61190b565b5b9250929050565b5f5f5f5f6060858703121561197c5761197b6117aa565b5b5f6119898782880161187e565b945050602061199a878288016117d1565b935050604085013567ffffffffffffffff8111156119bb576119ba6117ae565b5b6119c78782880161190f565b925092505092959194509250565b5f81519050919050565b5f82825260208201905092915050565b5f6119f9826119d5565b611a0381856119df565b9350611a13818560208601611734565b611a1c81611742565b840191505092915050565b5f6020820190508181035f830152611a3f81846119ef565b905092915050565b5f5f5f60608486031215611a5e57611a5d6117aa565b5b5f611a6b8682870161187e565b9350506020611a7c8682870161187e565b9250506040611a8d868287016117d1565b9150509250925092565b5f60ff82169050919050565b611aac81611a97565b82525050565b5f602082019050611ac55f830184611aa3565b92915050565b5f819050919050565b611add81611acb565b82525050565b5f602082019050611af65f830184611ad4565b92915050565b5f5f60408385031215611b1257611b116117aa565b5b5f611b1f858286016117d1565b9250506020611b308582860161187e565b9150509250929050565b5f60208284031215611b4f57611b4e6117aa565b5b5f611b5c8482850161187e565b91505092915050565b611b6e81611857565b82525050565b5f602082019050611b875f830184611b65565b92915050565b5f5f5f60608486031215611ba457611ba36117aa565b5b5f611bb1868287016117d1565b9350506020611bc28682870161187e565b9250506040611bd38682870161187e565b9150509250925092565b611be681611a97565b8114611bf0575f5ffd5b50565b5f81359050611c0181611bdd565b92915050565b611c1081611acb565b8114611c1a575f5ffd5b50565b5f81359050611c2b81611c07565b92915050565b5f5f5f5f5f5f5f60e0888a031215611c4c57611c4b6117aa565b5b5f611c598a828b0161187e565b9750506020611c6a8a828b0161187e565b9650506040611c7b8a828b016117d1565b9550506060611c8c8a828b016117d1565b9450506080611c9d8a828b01611bf3565b93505060a0611cae8a828b01611c1d565b92505060c0611cbf8a828b01611c1d565b91505092959891949750929550565b5f5f60408385031215611ce457611ce36117aa565b5b5f611cf18582860161187e565b9250506020611d028582860161187e565b9150509250929050565b7f4e487b71000000000000000000000000000000000000000000000000000000005f52602260045260245ffd5b5f6002820490506001821680611d5057607f821691505b602082108103611d6357611d62611d0c565b5b50919050565b7f4e487b71000000000000000000000000000000000000000000000000000000005f52601160045260245ffd5b5f611da0826117b2565b9150611dab836117b2565b9250828201905080821115611dc357611dc2611d69565b5b92915050565b5f611dd3826117b2565b9150611dde836117b2565b9250828202611dec816117b2565b91508282048414831517611e0357611e02611d69565b5b5092915050565b7f4e487b71000000000000000000000000000000000000000000000000000000005f52601260045260245ffd5b5f611e41826117b2565b9150611e4c836117b2565b925082611e5c57611e5b611e0a565b5b828204905092915050565b5f81905092915050565b828183375f83830152505050565b5f611e8a8385611e67565b9350611e97838584611e71565b82840190509392505050565b5f611eaf828486611e7f565b91508190509392505050565b50565b5f611ec95f83611e67565b9150611ed482611ebb565b5f82019050919050565b5f611ee882611ebe565b9150819050919050565b5f604082019050611f055f830185611810565b611f126020830184611810565b9392505050565b5f611f23826117b2565b9150611f2e836117b2565b9250828203905081811115611f4657611f45611d69565b5b9291505056fea26469706673582212208abe7ae21385e17cc77efe967e22641752b167dd0a02c86a22ad488935a4650d64736f6c634300081c0033",
			"opcodes": "PUSH1 0xA0 PUSH1 0x40 MSTORE TIMESTAMP PUSH1 0x80 SWAP1 DUP2 MSTORE POP PUSH0 PUSH1 0x3 SSTORE PUSH0 PUSH1 0x4 SSTORE CALLVALUE DUP1 ISZERO PUSH2 0x1E JUMPI PUSH0 PUSH0 REVERT JUMPDEST POP PUSH1 0x40 MLOAD PUSH2 0x2681 CODESIZE SUB DUP1 PUSH2 0x2681 DUP4 CODECOPY DUP2 DUP2 ADD PUSH1 0x40 MSTORE DUP2 ADD SWAP1 PUSH2 0x40 SWAP2 SWAP1 PUSH2 0x351 JUMP JUMPDEST DUP3 PUSH0 PUSH20 0xFFFFFFFFFFFFFFFFFFFFFFFFFFFFFFFFFFFFFFFF AND DUP2 PUSH20 0xFFFFFFFFFFFFFFFFFFFFFFFFFFFFFFFFFFFFFFFF AND SUB PUSH2 0xB1 JUMPI PUSH0 PUSH1 0x40 MLOAD PUSH32 0x1E4FBDF700000000000000000000000000000000000000000000000000000000 DUP2 MSTORE PUSH1 0x4 ADD PUSH2 0xA8 SWAP2 SWAP1 PUSH2 0x3E8 JUMP JUMPDEST PUSH1 0x40 MLOAD DUP1 SWAP2 SUB SWAP1 REVERT JUMPDEST PUSH2 0xC0 DUP2 PUSH2 0xE9 PUSH1 0x20 SHL PUSH1 0x20 SHR JUMP JUMPDEST POP DUP2 PUSH1 0x1 SWAP1 DUP2 PUSH2 0xD0 SWAP2 SWAP1 PUSH2 0x611 JUMP JUMPDEST POP DUP1 PUSH1 0x2 SWAP1 DUP2 PUSH2 0xE0 SWAP2 SWAP1 PUSH2 0x611 JUMP JUMPDEST POP POP POP POP PUSH2 0x6E0 JUMP JUMPDEST PUSH0 PUSH0 PUSH0 SWAP1 SLOAD SWAP1 PUSH2 0x100 EXP SWAP1 DIV PUSH20 0xFFFFFFFFFFFFFFFFFFFFFFFFFFFFFFFFFFFFFFFF AND SWAP1 POP DUP2 PUSH0 PUSH0 PUSH2 0x100 EXP DUP2 SLOAD DUP2 PUSH20 0xFFFFFFFFFFFFFFFFFFFFFFFFFFFFFFFFFFFFFFFF MUL NOT AND SWAP1 DUP4 PUSH20 0xFFFFFFFFFFFFFFFFFFFFFFFFFFFFFFFFFFFFFFFF AND MUL OR SWAP1 SSTORE POP DUP2 PUSH20 0xFFFFFFFFFFFFFFFFFFFFFFFFFFFFFFFFFFFFFFFF AND DUP2 PUSH20 0xFFFFFFFFFFFFFFFFFFFFFFFFFFFFFFFFFFFFFFFF AND PUSH32 0x8BE0079C531659141344CD1FD0A4F28419497F9722A3DAAFE3B4186F6B6457E0 PUSH1 0x40 MLOAD PUSH1 0x40 MLOAD DUP1 SWAP2 SUB SWAP1 LOG3 POP POP JUMP JUMPDEST PUSH0 PUSH1 0x40 MLOAD SWAP1 POP SWAP1 JUMP JUMPDEST PUSH0 PUSH0 REVERT JUMPDEST PUSH0 PUSH0 REVERT JUMPDEST PUSH0 PUSH20 0xFFFFFFFFFFFFFFFFFFFFFFFFFFFFFFFFFFFFFFFF DUP3 AND SWAP1 POP SWAP2 SWAP1 POP JUMP JUMPDEST PUSH0 PUSH2 0x1E4 DUP3 PUSH2 0x1BB JUMP JUMPDEST SWAP1 POP SWAP2 SWAP1 POP JUMP JUMPDEST PUSH2 0x1F4 DUP2 PUSH2 0x1DA JUMP JUMPDEST DUP2 EQ PUSH2 0x1FE JUMPI PUSH0 PUSH0 REVERT JUMPDEST POP JUMP JUMPDEST PUSH0 DUP2 MLOAD SWAP1 POP PUSH2 0x20F DUP2 PUSH2 0x1EB JUMP JUMPDEST SWAP3 SWAP2 POP POP JUMP JUMPDEST PUSH0 PUSH0 REVERT JUMPDEST PUSH0 PUSH0 REVERT JUMPDEST PUSH0 PUSH1 0x1F NOT PUSH1 0x1F DUP4 ADD AND SWAP1 POP SWAP2 SWAP1 POP JUMP JUMPDEST PUSH32 0x4E487B7100000000000000000000000000000000000000000000000000000000 PUSH0 MSTORE PUSH1 0x41 PUSH1 0x4 MSTORE PUSH1 0x24 PUSH0 REVERT JUMPDEST PUSH2 0x263 DUP3 PUSH2 0x21D JUMP JUMPDEST DUP2 ADD DUP2 DUP2 LT PUSH8 0xFFFFFFFFFFFFFFFF DUP3 GT OR ISZERO PUSH2 0x282 JUMPI PUSH2 0x281 PUSH2 0x22D JUMP JUMPDEST JUMPDEST DUP1 PUSH1 0x40 MSTORE POP POP POP JUMP JUMPDEST PUSH0 PUSH2 0x294 PUSH2 0x1AA JUMP JUMPDEST SWAP1 POP PUSH2 0x2A0 DUP3 DUP3 PUSH2 0x25A JUMP JUMPDEST SWAP2 SWAP1 POP JUMP JUMPDEST PUSH0 PUSH8 0xFFFFFFFFFFFFFFFF DUP3 GT ISZERO PUSH2 0x2BF JUMPI PUSH2 0x2BE PUSH2 0x22D JUMP JUMPDEST JUMPDEST PUSH2 0x2C8 DUP3 PUSH2 0x21D JUMP JUMPDEST SWAP1 POP PUSH1 0x20 DUP2 ADD SWAP1 POP SWAP2 SWAP1 POP JUMP JUMPDEST DUP3 DUP2 DUP4 MCOPY PUSH0 DUP4 DUP4 ADD MSTORE POP POP POP JUMP JUMPDEST PUSH0 PUSH2 0x2F5 PUSH2 0x2F0 DUP5 PUSH2 0x2A5 JUMP JUMPDEST PUSH2 0x28B JUMP JUMPDEST SWAP1 POP DUP3 DUP2 MSTORE PUSH1 0x20 DUP2 ADD DUP5 DUP5 DUP5 ADD GT ISZERO PUSH2 0x311 JUMPI PUSH2 0x310 PUSH2 0x219 JUMP JUMPDEST JUMPDEST PUSH2 0x31C DUP5 DUP3 DUP6 PUSH2 0x2D5 JUMP JUMPDEST POP SWAP4 SWAP3 POP POP POP JUMP JUMPDEST PUSH0 DUP3 PUSH1 0x1F DUP4 ADD SLT PUSH2 0x338 JUMPI PUSH2 0x337 PUSH2 0x215 JUMP JUMPDEST JUMPDEST DUP2 MLOAD PUSH2 0x348 DUP5 DUP3 PUSH1 0x20 DUP7 ADD PUSH2 0x2E3 JUMP JUMPDEST SWAP2 POP POP SWAP3 SWAP2 POP POP JUMP JUMPDEST PUSH0 PUSH0 PUSH0 PUSH1 0x60 DUP5 DUP7 SUB SLT ISZERO PUSH2 0x368 JUMPI PUSH2 0x367 PUSH2 0x1B3 JUMP JUMPDEST JUMPDEST PUSH0 PUSH2 0x375 DUP7 DUP3 DUP8 ADD PUSH2 0x201 JUMP JUMPDEST SWAP4 POP POP PUSH1 0x20 DUP5 ADD MLOAD PUSH8 0xFFFFFFFFFFFFFFFF DUP2 GT ISZERO PUSH2 0x396 JUMPI PUSH2 0x395 PUSH2 0x1B7 JUMP JUMPDEST JUMPDEST PUSH2 0x3A2 DUP7 DUP3 DUP8 ADD PUSH2 0x324 JUMP JUMPDEST SWAP3 POP POP PUSH1 0x40 DUP5 ADD MLOAD PUSH8 0xFFFFFFFFFFFFFFFF DUP2 GT ISZERO PUSH2 0x3C3 JUMPI PUSH2 0x3C2 PUSH2 0x1B7 JUMP JUMPDEST JUMPDEST PUSH2 0x3CF DUP7 DUP3 DUP8 ADD PUSH2 0x324 JUMP JUMPDEST SWAP2 POP POP SWAP3 POP SWAP3 POP SWAP3 JUMP JUMPDEST PUSH2 0x3E2 DUP2 PUSH2 0x1DA JUMP JUMPDEST DUP3 MSTORE POP POP JUMP JUMPDEST PUSH0 PUSH1 0x20 DUP3 ADD SWAP1 POP PUSH2 0x3FB PUSH0 DUP4 ADD DUP5 PUSH2 0x3D9 JUMP JUMPDEST SWAP3 SWAP2 POP POP JUMP JUMPDEST PUSH0 DUP2 MLOAD SWAP1 POP SWAP2 SWAP1 POP JUMP JUMPDEST PUSH32 0x4E487B7100000000000000000000000000000000000000000000000000000000 PUSH0 MSTORE PUSH1 0x22 PUSH1 0x4 MSTORE PUSH1 0x24 PUSH0 REVERT JUMPDEST PUSH0 PUSH1 0x2 DUP3 DIV SWAP1 POP PUSH1 0x1 DUP3 AND DUP1 PUSH2 0x44F JUMPI PUSH1 0x7F DUP3 AND SWAP2 POP JUMPDEST PUSH1 0x20 DUP3 LT DUP2 SUB PUSH2 0x462 JUMPI PUSH2 0x461 PUSH2 0x40B JUMP JUMPDEST JUMPDEST POP SWAP2 SWAP1 POP JUMP JUMPDEST PUSH0 DUP2 SWAP1 POP DUP2 PUSH0 MSTORE PUSH1 0x20 PUSH0 KECCAK256 SWAP1 POP SWAP2 SWAP1 POP JUMP JUMPDEST PUSH0 PUSH1 0x20 PUSH1 0x1F DUP4 ADD DIV SWAP1 POP SWAP2 SWAP1 POP JUMP JUMPDEST PUSH0 DUP3 DUP3 SHL SWAP1 POP SWAP3 SWAP2 POP POP JUMP JUMPDEST PUSH0 PUSH1 0x8 DUP4 MUL PUSH2 0x4C4 PUSH32 0xFFFFFFFFFFFFFFFFFFFFFFFFFFFFFFFFFFFFFFFFFFFFFFFFFFFFFFFFFFFFFFFF DUP3 PUSH2 0x489 JUMP JUMPDEST PUSH2 0x4CE DUP7 DUP4 PUSH2 0x489 JUMP JUMPDEST SWAP6 POP DUP1 NOT DUP5 AND SWAP4 POP DUP1 DUP7 AND DUP5 OR SWAP3 POP POP POP SWAP4 SWAP3 POP POP POP JUMP JUMPDEST PUSH0 DUP2 SWAP1 POP SWAP2 SWAP1 POP JUMP JUMPDEST PUSH0 DUP2 SWAP1 POP SWAP2 SWAP1 POP JUMP JUMPDEST PUSH0 PUSH2 0x512 PUSH2 0x50D PUSH2 0x508 DUP5 PUSH2 0x4E6 JUMP JUMPDEST PUSH2 0x4EF JUMP JUMPDEST PUSH2 0x4E6 JUMP JUMPDEST SWAP1 POP SWAP2 SWAP1 POP JUMP JUMPDEST PUSH0 DUP2 SWAP1 POP SWAP2 SWAP1 POP JUMP JUMPDEST PUSH2 0x52B DUP4 PUSH2 0x4F8 JUMP JUMPDEST PUSH2 0x53F PUSH2 0x537 DUP3 PUSH2 0x519 JUMP JUMPDEST DUP5 DUP5 SLOAD PUSH2 0x495 JUMP JUMPDEST DUP3 SSTORE POP POP POP POP JUMP JUMPDEST PUSH0 PUSH0 SWAP1 POP SWAP1 JUMP JUMPDEST PUSH2 0x556 PUSH2 0x547 JUMP JUMPDEST PUSH2 0x561 DUP2 DUP5 DUP5 PUSH2 0x522 JUMP JUMPDEST POP POP POP JUMP JUMPDEST JUMPDEST DUP2 DUP2 LT ISZERO PUSH2 0x584 JUMPI PUSH2 0x579 PUSH0 DUP3 PUSH2 0x54E JUMP JUMPDEST PUSH1 0x1 DUP2 ADD SWAP1 POP PUSH2 0x567 JUMP JUMPDEST POP POP JUMP JUMPDEST PUSH1 0x1F DUP3 GT ISZERO PUSH2 0x5C9 JUMPI PUSH2 0x59A DUP2 PUSH2 0x468 JUMP JUMPDEST PUSH2 0x5A3 DUP5 PUSH2 0x47A JUMP JUMPDEST DUP2 ADD PUSH1 0x20 DUP6 LT ISZERO PUSH2 0x5B2 JUMPI DUP2 SWAP1 POP JUMPDEST PUSH2 0x5C6 PUSH2 0x5BE DUP6 PUSH2 0x47A JUMP JUMPDEST DUP4 ADD DUP3 PUSH2 0x566 JUMP JUMPDEST POP POP JUMPDEST POP POP POP JUMP JUMPDEST PUSH0 DUP3 DUP3 SHR SWAP1 POP SWAP3 SWAP2 POP POP JUMP JUMPDEST PUSH0 PUSH2 0x5E9 PUSH0 NOT DUP5 PUSH1 0x8 MUL PUSH2 0x5CE JUMP JUMPDEST NOT DUP1 DUP4 AND SWAP2 POP POP SWAP3 SWAP2 POP POP JUMP JUMPDEST PUSH0 PUSH2 0x601 DUP4 DUP4 PUSH2 0x5DA JUMP JUMPDEST SWAP2 POP DUP3 PUSH1 0x2 MUL DUP3 OR SWAP1 POP SWAP3 SWAP2 POP POP JUMP JUMPDEST PUSH2 0x61A DUP3 PUSH2 0x401 JUMP JUMPDEST PUSH8 0xFFFFFFFFFFFFFFFF DUP2 GT ISZERO PUSH2 0x633 JUMPI PUSH2 0x632 PUSH2 0x22D JUMP JUMPDEST JUMPDEST PUSH2 0x63D DUP3 SLOAD PUSH2 0x438 JUMP JUMPDEST PUSH2 0x648 DUP3 DUP3 DUP6 PUSH2 0x588 JUMP JUMPDEST PUSH0 PUSH1 0x20 SWAP1 POP PUSH1 0x1F DUP4 GT PUSH1 0x1 DUP2 EQ PUSH2 0x679 JUMPI PUSH0 DUP5 ISZERO PUSH2 0x667 JUMPI DUP3 DUP8 ADD MLOAD SWAP1 POP JUMPDEST PUSH2 0x671 DUP6 DUP3 PUSH2 0x5F6 JUMP JUMPDEST DUP7 SSTORE POP PUSH2 0x6D8 JUMP JUMPDEST PUSH1 0x1F NOT DUP5 AND PUSH2 0x687 DUP7 PUSH2 0x468 JUMP JUMPDEST PUSH0 JUMPDEST DUP3 DUP2 LT ISZERO PUSH2 0x6AE JUMPI DUP5 DUP10 ADD MLOAD DUP3 SSTORE PUSH1 0x1 DUP3 ADD SWAP2 POP PUSH1 0x20 DUP6 ADD SWAP5 POP PUSH1 0x20 DUP2 ADD SWAP1 POP PUSH2 0x689 JUMP JUMPDEST DUP7 DUP4 LT ISZERO PUSH2 0x6CB JUMPI DUP5 DUP10 ADD MLOAD PUSH2 0x6C7 PUSH1 0x1F DUP10 AND DUP3 PUSH2 0x5DA JUMP JUMPDEST DUP4 SSTORE POP JUMPDEST PUSH1 0x1 PUSH1 0x2 DUP9 MUL ADD DUP9 SSTORE POP POP POP JUMPDEST POP POP POP POP POP POP JUMP JUMPDEST PUSH1 0x80 MLOAD PUSH2 0x1F82 PUSH2 0x6FF PUSH0 CODECOPY PUSH0 DUP2 DUP2 PUSH2 0xEDF ADD MSTORE PUSH2 0xF7B ADD MSTORE PUSH2 0x1F82 PUSH0 RETURN INVALID PUSH1 0x80 PUSH1 0x40 MSTORE PUSH1 0x4 CALLDATASIZE LT PUSH2 0x19B JUMPI PUSH0 CALLDATALOAD PUSH1 0xE0 SHR DUP1 PUSH4 0x8DA5CB5B GT PUSH2 0xEB JUMPI DUP1 PUSH4 0xCE96CB77 GT PUSH2 0x89 JUMPI DUP1 PUSH4 0xDD62ED3E GT PUSH2 0x63 JUMPI DUP1 PUSH4 0xDD62ED3E EQ PUSH2 0x62D JUMPI DUP1 PUSH4 0xEF8B30F7 EQ PUSH2 0x669 JUMPI DUP1 PUSH4 0xF2FDE38B EQ PUSH2 0x6A5 JUMPI DUP1 PUSH4 0xF340FA01 EQ PUSH2 0x6CD JUMPI PUSH2 0x19B JUMP JUMPDEST DUP1 PUSH4 0xCE96CB77 EQ PUSH2 0x59F JUMPI DUP1 PUSH4 0xD28D8852 EQ PUSH2 0x5DB JUMPI DUP1 PUSH4 0xD505ACCF EQ PUSH2 0x605 JUMPI PUSH2 0x19B JUMP JUMPDEST DUP1 PUSH4 0xB09F1266 GT PUSH2 0xC5 JUMPI DUP1 PUSH4 0xB09F1266 EQ PUSH2 0x4C1 JUMPI DUP1 PUSH4 0xBA087652 EQ PUSH2 0x4EB JUMPI DUP1 PUSH4 0xC63D75B6 EQ PUSH2 0x527 JUMPI DUP1 PUSH4 0xC6E6F592 EQ PUSH2 0x563 JUMPI PUSH2 0x19B JUMP JUMPDEST DUP1 PUSH4 0x8DA5CB5B EQ PUSH2 0x431 JUMPI DUP1 PUSH4 0x95D89B41 EQ PUSH2 0x45B JUMPI DUP1 PUSH4 0xA9059CBB EQ PUSH2 0x485 JUMPI PUSH2 0x19B JUMP JUMPDEST DUP1 PUSH4 0x313CE567 GT PUSH2 0x158 JUMPI DUP1 PUSH4 0x6E553F65 GT PUSH2 0x132 JUMPI DUP1 PUSH4 0x6E553F65 EQ PUSH2 0x373 JUMPI DUP1 PUSH4 0x70A08231 EQ PUSH2 0x3A3 JUMPI DUP1 PUSH4 0x715018A6 EQ PUSH2 0x3DF JUMPI DUP1 PUSH4 0x7ECEBE00 EQ PUSH2 0x3F5 JUMPI PUSH2 0x19B JUMP JUMPDEST DUP1 PUSH4 0x313CE567 EQ PUSH2 0x2E3 JUMPI DUP1 PUSH4 0x3644E515 EQ PUSH2 0x30D JUMPI DUP1 PUSH4 0x4CDAD506 EQ PUSH2 0x337 JUMPI PUSH2 0x19B JUMP JUMPDEST DUP1 PUSH4 0x6FDDE03 EQ PUSH2 0x19F JUMPI DUP1 PUSH4 0x7A2D13A EQ PUSH2 0x1C9 JUMPI DUP1 PUSH4 0x95EA7B3 EQ PUSH2 0x205 JUMPI DUP1 PUSH4 0x10AB2D01 EQ PUSH2 0x241 JUMPI DUP1 PUSH4 0x18160DDD EQ PUSH2 0x27D JUMPI DUP1 PUSH4 0x23B872DD EQ PUSH2 0x2A7 JUMPI JUMPDEST PUSH0 PUSH0 REVERT JUMPDEST CALLVALUE DUP1 ISZERO PUSH2 0x1AA JUMPI PUSH0 PUSH0 REVERT JUMPDEST POP PUSH2 0x1B3 PUSH2 0x6FD JUMP JUMPDEST PUSH1 0x40 MLOAD PUSH2 0x1C0 SWAP2 SWAP1 PUSH2 0x178A JUMP JUMPDEST PUSH1 0x40 MLOAD DUP1 SWAP2 SUB SWAP1 RETURN JUMPDEST CALLVALUE DUP1 ISZERO PUSH2 0x1D4 JUMPI PUSH0 PUSH0 REVERT JUMPDEST POP PUSH2 0x1EF PUSH1 0x4 DUP1 CALLDATASIZE SUB DUP2 ADD SWAP1 PUSH2 0x1EA SWAP2 SWAP1 PUSH2 0x17E5 JUMP JUMPDEST PUSH2 0x78D JUMP JUMPDEST PUSH1 0x40 MLOAD PUSH2 0x1FC SWAP2 SWAP1 PUSH2 0x181F JUMP JUMPDEST PUSH1 0x40 MLOAD DUP1 SWAP2 SUB SWAP1 RETURN JUMPDEST CALLVALUE DUP1 ISZERO PUSH2 0x210 JUMPI PUSH0 PUSH0 REVERT JUMPDEST POP PUSH2 0x22B PUSH1 0x4 DUP1 CALLDATASIZE SUB DUP2 ADD SWAP1 PUSH2 0x226 SWAP2 SWAP1 PUSH2 0x1892 JUMP JUMPDEST PUSH2 0x7D8 JUMP JUMPDEST PUSH1 0x40 MLOAD PUSH2 0x238 SWAP2 SWAP1 PUSH2 0x18EA JUMP JUMPDEST PUSH1 0x40 MLOAD DUP1 SWAP2 SUB SWAP1 RETURN JUMPDEST CALLVALUE DUP1 ISZERO PUSH2 0x24C JUMPI PUSH0 PUSH0 REVERT JUMPDEST POP PUSH2 0x267 PUSH1 0x4 DUP1 CALLDATASIZE SUB DUP2 ADD SWAP1 PUSH2 0x262 SWAP2 SWAP1 PUSH2 0x1964 JUMP JUMPDEST PUSH2 0x863 JUMP JUMPDEST PUSH1 0x40 MLOAD PUSH2 0x274 SWAP2 SWAP1 PUSH2 0x1A27 JUMP JUMPDEST PUSH1 0x40 MLOAD DUP1 SWAP2 SUB SWAP1 RETURN JUMPDEST CALLVALUE DUP1 ISZERO PUSH2 0x288 JUMPI PUSH0 PUSH0 REVERT JUMPDEST POP PUSH2 0x291 PUSH2 0x8E5 JUMP JUMPDEST PUSH1 0x40 MLOAD PUSH2 0x29E SWAP2 SWAP1 PUSH2 0x181F JUMP JUMPDEST PUSH1 0x40 MLOAD DUP1 SWAP2 SUB SWAP1 RETURN JUMPDEST CALLVALUE DUP1 ISZERO PUSH2 0x2B2 JUMPI PUSH0 PUSH0 REVERT JUMPDEST POP PUSH2 0x2CD PUSH1 0x4 DUP1 CALLDATASIZE SUB DUP2 ADD SWAP1 PUSH2 0x2C8 SWAP2 SWAP1 PUSH2 0x1A47 JUMP JUMPDEST PUSH2 0x8F6 JUMP JUMPDEST PUSH1 0x40 MLOAD PUSH2 0x2DA SWAP2 SWAP1 PUSH2 0x18EA JUMP JUMPDEST PUSH1 0x40 MLOAD DUP1 SWAP2 SUB SWAP1 RETURN JUMPDEST CALLVALUE DUP1 ISZERO PUSH2 0x2EE JUMPI PUSH0 PUSH0 REVERT JUMPDEST POP PUSH2 0x2F7 PUSH2 0xA9C JUMP JUMPDEST PUSH1 0x40 MLOAD PUSH2 0x304 SWAP2 SWAP1 PUSH2 0x1AB2 JUMP JUMPDEST PUSH1 0x40 MLOAD DUP1 SWAP2 SUB SWAP1 RETURN JUMPDEST CALLVALUE DUP1 ISZERO PUSH2 0x318 JUMPI PUSH0 PUSH0 REVERT JUMPDEST POP PUSH2 0x321 PUSH2 0xAA4 JUMP JUMPDEST PUSH1 0x40 MLOAD PUSH2 0x32E SWAP2 SWAP1 PUSH2 0x1AE3 JUMP JUMPDEST PUSH1 0x40 MLOAD DUP1 SWAP2 SUB SWAP1 RETURN JUMPDEST CALLVALUE DUP1 ISZERO PUSH2 0x342 JUMPI PUSH0 PUSH0 REVERT JUMPDEST POP PUSH2 0x35D PUSH1 0x4 DUP1 CALLDATASIZE SUB DUP2 ADD SWAP1 PUSH2 0x358 SWAP2 SWAP1 PUSH2 0x17E5 JUMP JUMPDEST PUSH2 0xB20 JUMP JUMPDEST PUSH1 0x40 MLOAD PUSH2 0x36A SWAP2 SWAP1 PUSH2 0x181F JUMP JUMPDEST PUSH1 0x40 MLOAD DUP1 SWAP2 SUB SWAP1 RETURN JUMPDEST PUSH2 0x38D PUSH1 0x4 DUP1 CALLDATASIZE SUB DUP2 ADD SWAP1 PUSH2 0x388 SWAP2 SWAP1 PUSH2 0x1AFC JUMP JUMPDEST PUSH2 0xB31 JUMP JUMPDEST PUSH1 0x40 MLOAD PUSH2 0x39A SWAP2 SWAP1 PUSH2 0x181F JUMP JUMPDEST PUSH1 0x40 MLOAD DUP1 SWAP2 SUB SWAP1 RETURN JUMPDEST CALLVALUE DUP1 ISZERO PUSH2 0x3AE JUMPI PUSH0 PUSH0 REVERT JUMPDEST POP PUSH2 0x3C9 PUSH1 0x4 DUP1 CALLDATASIZE SUB DUP2 ADD SWAP1 PUSH2 0x3C4 SWAP2 SWAP1 PUSH2 0x1B3A JUMP JUMPDEST PUSH2 0xB43 JUMP JUMPDEST PUSH1 0x40 MLOAD PUSH2 0x3D6 SWAP2 SWAP1 PUSH2 0x181F JUMP JUMPDEST PUSH1 0x40 MLOAD DUP1 SWAP2 SUB SWAP1 RETURN JUMPDEST CALLVALUE DUP1 ISZERO PUSH2 0x3EA JUMPI PUSH0 PUSH0 REVERT JUMPDEST POP PUSH2 0x3F3 PUSH2 0xB5C JUMP JUMPDEST STOP JUMPDEST CALLVALUE DUP1 ISZERO PUSH2 0x400 JUMPI PUSH0 PUSH0 REVERT JUMPDEST POP PUSH2 0x41B PUSH1 0x4 DUP1 CALLDATASIZE SUB DUP2 ADD SWAP1 PUSH2 0x416 SWAP2 SWAP1 PUSH2 0x1B3A JUMP JUMPDEST PUSH2 0xB6F JUMP JUMPDEST PUSH1 0x40 MLOAD PUSH2 0x428 SWAP2 SWAP1 PUSH2 0x181F JUMP JUMPDEST PUSH1 0x40 MLOAD DUP1 SWAP2 SUB SWAP1 RETURN JUMPDEST CALLVALUE DUP1 ISZERO PUSH2 0x43C JUMPI PUSH0 PUSH0 REVERT JUMPDEST POP PUSH2 0x445 PUSH2 0xB88 JUMP JUMPDEST PUSH1 0x40 MLOAD PUSH2 0x452 SWAP2 SWAP1 PUSH2 0x1B74 JUMP JUMPDEST PUSH1 0x40 MLOAD DUP1 SWAP2 SUB SWAP1 RETURN JUMPDEST CALLVALUE DUP1 ISZERO PUSH2 0x466 JUMPI PUSH0 PUSH0 REVERT JUMPDEST POP PUSH2 0x46F PUSH2 0xBAF JUMP JUMPDEST PUSH1 0x40 MLOAD PUSH2 0x47C SWAP2 SWAP1 PUSH2 0x178A JUMP JUMPDEST PUSH1 0x40 MLOAD DUP1 SWAP2 SUB SWAP1 RETURN JUMPDEST CALLVALUE DUP1 ISZERO PUSH2 0x490 JUMPI PUSH0 PUSH0 REVERT JUMPDEST POP PUSH2 0x4AB PUSH1 0x4 DUP1 CALLDATASIZE SUB DUP2 ADD SWAP1 PUSH2 0x4A6 SWAP2 SWAP1 PUSH2 0x1892 JUMP JUMPDEST PUSH2 0xC3F JUMP JUMPDEST PUSH1 0x40 MLOAD PUSH2 0x4B8 SWAP2 SWAP1 PUSH2 0x18EA JUMP JUMPDEST PUSH1 0x40 MLOAD DUP1 SWAP2 SUB SWAP1 RETURN JUMPDEST CALLVALUE DUP1 ISZERO PUSH2 0x4CC JUMPI PUSH0 PUSH0 REVERT JUMPDEST POP PUSH2 0x4D5 PUSH2 0xCCD JUMP JUMPDEST PUSH1 0x40 MLOAD PUSH2 0x4E2 SWAP2 SWAP1 PUSH2 0x178A JUMP JUMPDEST PUSH1 0x40 MLOAD DUP1 SWAP2 SUB SWAP1 RETURN JUMPDEST CALLVALUE DUP1 ISZERO PUSH2 0x4F6 JUMPI PUSH0 PUSH0 REVERT JUMPDEST POP PUSH2 0x511 PUSH1 0x4 DUP1 CALLDATASIZE SUB DUP2 ADD SWAP1 PUSH2 0x50C SWAP2 SWAP1 PUSH2 0x1B8D JUMP JUMPDEST PUSH2 0xD59 JUMP JUMPDEST PUSH1 0x40 MLOAD PUSH2 0x51E SWAP2 SWAP1 PUSH2 0x181F JUMP JUMPDEST PUSH1 0x40 MLOAD DUP1 SWAP2 SUB SWAP1 RETURN JUMPDEST CALLVALUE DUP1 ISZERO PUSH2 0x532 JUMPI PUSH0 PUSH0 REVERT JUMPDEST POP PUSH2 0x54D PUSH1 0x4 DUP1 CALLDATASIZE SUB DUP2 ADD SWAP1 PUSH2 0x548 SWAP2 SWAP1 PUSH2 0x1B3A JUMP JUMPDEST PUSH2 0xEC2 JUMP JUMPDEST PUSH1 0x40 MLOAD PUSH2 0x55A SWAP2 SWAP1 PUSH2 0x181F JUMP JUMPDEST PUSH1 0x40 MLOAD DUP1 SWAP2 SUB SWAP1 RETURN JUMPDEST CALLVALUE DUP1 ISZERO PUSH2 0x56E JUMPI PUSH0 PUSH0 REVERT JUMPDEST POP PUSH2 0x589 PUSH1 0x4 DUP1 CALLDATASIZE SUB DUP2 ADD SWAP1 PUSH2 0x584 SWAP2 SWAP1 PUSH2 0x17E5 JUMP JUMPDEST PUSH2 0xF24 JUMP JUMPDEST PUSH1 0x40 MLOAD PUSH2 0x596 SWAP2 SWAP1 PUSH2 0x181F JUMP JUMPDEST PUSH1 0x40 MLOAD DUP1 SWAP2 SUB SWAP1 RETURN JUMPDEST CALLVALUE DUP1 ISZERO PUSH2 0x5AA JUMPI PUSH0 PUSH0 REVERT JUMPDEST POP PUSH2 0x5C5 PUSH1 0x4 DUP1 CALLDATASIZE SUB DUP2 ADD SWAP1 PUSH2 0x5C0 SWAP2 SWAP1 PUSH2 0x1B3A JUMP JUMPDEST PUSH2 0xF5E JUMP JUMPDEST PUSH1 0x40 MLOAD PUSH2 0x5D2 SWAP2 SWAP1 PUSH2 0x181F JUMP JUMPDEST PUSH1 0x40 MLOAD DUP1 SWAP2 SUB SWAP1 RETURN JUMPDEST CALLVALUE DUP1 ISZERO PUSH2 0x5E6 JUMPI PUSH0 PUSH0 REVERT JUMPDEST POP PUSH2 0x5EF PUSH2 0xFC0 JUMP JUMPDEST PUSH1 0x40 MLOAD PUSH2 0x5FC SWAP2 SWAP1 PUSH2 0x178A JUMP JUMPDEST PUSH1 0x40 MLOAD DUP1 SWAP2 SUB SWAP1 RETURN JUMPDEST CALLVALUE DUP1 ISZERO PUSH2 0x610 JUMPI PUSH0 PUSH0 REVERT JUMPDEST POP PUSH2 0x62B PUSH1 0x4 DUP1 CALLDATASIZE SUB DUP2 ADD SWAP1 PUSH2 0x626 SWAP2 SWAP1 PUSH2 0x1C31 JUMP JUMPDEST PUSH2 0x104C JUMP JUMPDEST STOP JUMPDEST CALLVALUE DUP1 ISZERO PUSH2 0x638 JUMPI PUSH0 PUSH0 REVERT JUMPDEST POP PUSH2 0x653 PUSH1 0x4 DUP1 CALLDATASIZE SUB DUP2 ADD SWAP1 PUSH2 0x64E SWAP2 SWAP1 PUSH2 0x1CCE JUMP JUMPDEST PUSH2 0x120F JUMP JUMPDEST PUSH1 0x40 MLOAD PUSH2 0x660 SWAP2 SWAP1 PUSH2 0x181F JUMP JUMPDEST PUSH1 0x40 MLOAD DUP1 SWAP2 SUB SWAP1 RETURN JUMPDEST CALLVALUE DUP1 ISZERO PUSH2 0x674 JUMPI PUSH0 PUSH0 REVERT JUMPDEST POP PUSH2 0x68F PUSH1 0x4 DUP1 CALLDATASIZE SUB DUP2 ADD SWAP1 PUSH2 0x68A SWAP2 SWAP1 PUSH2 0x17E5 JUMP JUMPDEST PUSH2 0x12A6 JUMP JUMPDEST PUSH1 0x40 MLOAD PUSH2 0x69C SWAP2 SWAP1 PUSH2 0x181F JUMP JUMPDEST PUSH1 0x40 MLOAD DUP1 SWAP2 SUB SWAP1 RETURN JUMPDEST CALLVALUE DUP1 ISZERO PUSH2 0x6B0 JUMPI PUSH0 PUSH0 REVERT JUMPDEST POP PUSH2 0x6CB PUSH1 0x4 DUP1 CALLDATASIZE SUB DUP2 ADD SWAP1 PUSH2 0x6C6 SWAP2 SWAP1 PUSH2 0x1B3A JUMP JUMPDEST PUSH2 0x12B7 JUMP JUMPDEST STOP JUMPDEST PUSH2 0x6E7 PUSH1 0x4 DUP1 CALLDATASIZE SUB DUP2 ADD SWAP1 PUSH2 0x6E2 SWAP2 SWAP1 PUSH2 0x1B3A JUMP JUMPDEST PUSH2 0x133B JUMP JUMPDEST PUSH1 0x40 MLOAD PUSH2 0x6F4 SWAP2 SWAP1 PUSH2 0x181F JUMP JUMPDEST PUSH1 0x40 MLOAD DUP1 SWAP2 SUB SWAP1 RETURN JUMPDEST PUSH1 0x60 PUSH1 0x1 DUP1 SLOAD PUSH2 0x70C SWAP1 PUSH2 0x1D39 JUMP JUMPDEST DUP1 PUSH1 0x1F ADD PUSH1 0x20 DUP1 SWAP2 DIV MUL PUSH1 0x20 ADD PUSH1 0x40 MLOAD SWAP1 DUP2 ADD PUSH1 0x40 MSTORE DUP1 SWAP3 SWAP2 SWAP1 DUP2 DUP2 MSTORE PUSH1 0x20 ADD DUP3 DUP1 SLOAD PUSH2 0x738 SWAP1 PUSH2 0x1D39 JUMP JUMPDEST DUP1 ISZERO PUSH2 0x783 JUMPI DUP1 PUSH1 0x1F LT PUSH2 0x75A JUMPI PUSH2 0x100 DUP1 DUP4 SLOAD DIV MUL DUP4 MSTORE SWAP2 PUSH1 0x20 ADD SWAP2 PUSH2 0x783 JUMP JUMPDEST DUP3 ADD SWAP2 SWAP1 PUSH0 MSTORE PUSH1 0x20 PUSH0 KECCAK256 SWAP1 JUMPDEST DUP2 SLOAD DUP2 MSTORE SWAP1 PUSH1 0x1 ADD SWAP1 PUSH1 0x20 ADD DUP1 DUP4 GT PUSH2 0x766 JUMPI DUP3 SWAP1 SUB PUSH1 0x1F AND DUP3 ADD SWAP2 JUMPDEST POP POP POP POP POP SWAP1 POP SWAP1 JUMP JUMPDEST PUSH0 PUSH0 DUP3 PUSH8 0xDE0B6B3A7640000 PUSH2 0x7A3 SWAP2 SWAP1 PUSH2 0x1D96 JUMP JUMPDEST DUP4 PUSH2 0x7AD CALLER PUSH2 0xF5E JUMP JUMPDEST PUSH2 0x7B7 SWAP2 SWAP1 PUSH2 0x1DC9 JUMP JUMPDEST PUSH2 0x7C1 SWAP2 SWAP1 PUSH2 0x1E37 JUMP JUMPDEST SWAP1 POP DUP1 SELFBALANCE LT ISZERO PUSH2 0x7CF JUMPI SELFBALANCE SWAP1 POP JUMPDEST DUP1 SWAP2 POP POP SWAP2 SWAP1 POP JUMP JUMPDEST PUSH0 PUSH2 0x7E1 PUSH2 0x13DA JUMP JUMPDEST ISZERO PUSH2 0x814 JUMPI DUP2 NOT ISZERO PUSH15 0x22D473030F116DDEE9F6B43AC78BA3 DUP5 PUSH1 0x60 SHL PUSH1 0x60 SHR XOR OR PUSH2 0x813 JUMPI PUSH4 0x3F68539A PUSH0 MSTORE PUSH1 0x4 PUSH1 0x1C REVERT JUMPDEST JUMPDEST DUP3 PUSH1 0x20 MSTORE PUSH4 0x7F5E9F20 PUSH1 0xC MSTORE CALLER PUSH0 MSTORE DUP2 PUSH1 0x34 PUSH1 0xC KECCAK256 SSTORE DUP2 PUSH0 MSTORE PUSH1 0x2C MLOAD PUSH1 0x60 SHR CALLER PUSH32 0x8C5BE1E5EBEC7D5BD14F71427D1E84F3DD0314C0F7B2291E5B200AC8C7C3B925 PUSH1 0x20 PUSH0 LOG3 PUSH1 0x1 SWAP1 POP SWAP3 SWAP2 POP POP JUMP JUMPDEST PUSH1 0x60 PUSH2 0x86D PUSH2 0x13E1 JUMP JUMPDEST PUSH0 DUP6 PUSH20 0xFFFFFFFFFFFFFFFFFFFFFFFFFFFFFFFFFFFFFFFF AND DUP6 DUP6 DUP6 PUSH1 0x40 MLOAD PUSH2 0x896 SWAP3 SWAP2 SWAP1 PUSH2 0x1EA3 JUMP JUMPDEST PUSH0 PUSH1 0x40 MLOAD DUP1 DUP4 SUB DUP2 DUP6 DUP8 GAS CALL SWAP3 POP POP POP RETURNDATASIZE DUP1 PUSH0 DUP2 EQ PUSH2 0x8D0 JUMPI PUSH1 0x40 MLOAD SWAP2 POP PUSH1 0x1F NOT PUSH1 0x3F RETURNDATASIZE ADD AND DUP3 ADD PUSH1 0x40 MSTORE RETURNDATASIZE DUP3 MSTORE RETURNDATASIZE PUSH0 PUSH1 0x20 DUP5 ADD RETURNDATACOPY PUSH2 0x8D5 JUMP JUMPDEST PUSH1 0x60 SWAP2 POP JUMPDEST POP SWAP2 POP POP DUP1 SWAP2 POP POP SWAP5 SWAP4 POP POP POP POP JUMP JUMPDEST PUSH0 PUSH9 0x5345CDF77EB68F44C SLOAD SWAP1 POP SWAP1 JUMP JUMPDEST PUSH0 PUSH2 0x902 DUP5 DUP5 DUP5 PUSH2 0x1468 JUMP JUMPDEST PUSH2 0x90A PUSH2 0x13DA JUMP JUMPDEST ISZERO PUSH2 0x9D8 JUMPI DUP4 PUSH1 0x60 SHL PUSH15 0x22D473030F116DDEE9F6B43AC78BA3 CALLER EQ PUSH2 0x963 JUMPI CALLER PUSH1 0x20 MSTORE PUSH4 0x7F5E9F20 DUP2 OR PUSH1 0xC MSTORE PUSH1 0x34 PUSH1 0xC KECCAK256 DUP1 SLOAD DUP1 NOT ISZERO PUSH2 0x960 JUMPI DUP1 DUP6 GT ISZERO PUSH2 0x95A JUMPI PUSH4 0x13BE252B PUSH0 MSTORE PUSH1 0x4 PUSH1 0x1C REVERT JUMPDEST DUP5 DUP2 SUB DUP3 SSTORE JUMPDEST POP POP JUMPDEST PUSH4 0x87A211A2 DUP2 OR PUSH1 0xC MSTORE PUSH1 0x20 PUSH1 0xC KECCAK256 DUP1 SLOAD DUP1 DUP6 GT ISZERO PUSH2 0x989 JUMPI PUSH4 0xF4D678B8 PUSH0 MSTORE PUSH1 0x4 PUSH1 0x1C REVERT JUMPDEST DUP5 DUP2 SUB DUP3 SSTORE DUP6 PUSH0 MSTORE PUSH1 0x20 PUSH1 0xC KECCAK256 DUP6 DUP2 SLOAD ADD DUP2 SSTORE DUP6 PUSH1 0x20 MSTORE PUSH1 0xC MLOAD PUSH1 0x60 SHR DUP5 PUSH1 0x60 SHR PUSH32 0xDDF252AD1BE2C89B69C2B068FC378DAA952BA7F163C4A11628F55A4DF523B3EF PUSH1 0x20 DUP1 LOG3 POP POP POP POP PUSH2 0xA86 JUMP JUMPDEST DUP4 PUSH1 0x60 SHL CALLER PUSH1 0x20 MSTORE PUSH4 0x7F5E9F20 DUP2 OR PUSH1 0xC MSTORE PUSH1 0x34 PUSH1 0xC KECCAK256 DUP1 SLOAD DUP1 NOT ISZERO PUSH2 0xA13 JUMPI DUP1 DUP6 GT ISZERO PUSH2 0xA0D JUMPI PUSH4 0x13BE252B PUSH0 MSTORE PUSH1 0x4 PUSH1 0x1C REVERT JUMPDEST DUP5 DUP2 SUB DUP3 SSTORE JUMPDEST PUSH4 0x87A211A2 DUP4 OR PUSH1 0xC MSTORE PUSH1 0x20 PUSH1 0xC KECCAK256 DUP1 SLOAD DUP1 DUP8 GT ISZERO PUSH2 0xA39 JUMPI PUSH4 0xF4D678B8 PUSH0 MSTORE PUSH1 0x4 PUSH1 0x1C REVERT JUMPDEST DUP7 DUP2 SUB DUP3 SSTORE DUP8 PUSH0 MSTORE PUSH1 0x20 PUSH1 0xC KECCAK256 DUP8 DUP2 SLOAD ADD DUP2 SSTORE DUP8 PUSH1 0x20 MSTORE PUSH1 0xC MLOAD PUSH1 0x60 SHR DUP7 PUSH1 0x60 SHR PUSH32 0xDDF252AD1BE2C89B69C2B068FC378DAA952BA7F163C4A11628F55A4DF523B3EF PUSH1 0x20 DUP1 LOG3 POP POP POP POP POP POP JUMPDEST PUSH2 0xA91 DUP5 DUP5 DUP5 PUSH2 0x146D JUMP JUMPDEST PUSH1 0x1 SWAP1 POP SWAP4 SWAP3 POP POP POP JUMP JUMPDEST PUSH0 PUSH1 0x12 SWAP1 POP SWAP1 JUMP JUMPDEST PUSH0 PUSH0 PUSH2 0xAAE PUSH2 0x1472 JUMP JUMPDEST SWAP1 POP PUSH0 PUSH0 SHL DUP2 SUB PUSH2 0xACB JUMPI PUSH2 0xAC1 PUSH2 0x6FD JUMP JUMPDEST DUP1 MLOAD SWAP1 PUSH1 0x20 ADD KECCAK256 SWAP1 POP JUMPDEST PUSH0 PUSH2 0xAD4 PUSH2 0x1476 JUMP JUMPDEST SWAP1 POP PUSH1 0x40 MLOAD PUSH32 0x8B73C3C69BB8FE3D512ECC4CF759CC79239F7B179B0FFACAA9A75D522B39400F DUP2 MSTORE DUP3 PUSH1 0x20 DUP3 ADD MSTORE DUP2 PUSH1 0x40 DUP3 ADD MSTORE CHAINID PUSH1 0x60 DUP3 ADD MSTORE ADDRESS PUSH1 0x80 DUP3 ADD MSTORE PUSH1 0xA0 DUP2 KECCAK256 SWAP4 POP POP POP POP SWAP1 JUMP JUMPDEST PUSH0 PUSH2 0xB2A DUP3 PUSH2 0x78D JUMP JUMPDEST SWAP1 POP SWAP2 SWAP1 POP JUMP JUMPDEST PUSH0 PUSH2 0xB3B DUP3 PUSH2 0x133B JUMP JUMPDEST SWAP1 POP SWAP3 SWAP2 POP POP JUMP JUMPDEST PUSH0 PUSH4 0x87A211A2 PUSH1 0xC MSTORE DUP2 PUSH0 MSTORE PUSH1 0x20 PUSH1 0xC KECCAK256 SLOAD SWAP1 POP SWAP2 SWAP1 POP JUMP JUMPDEST PUSH2 0xB64 PUSH2 0x13E1 JUMP JUMPDEST PUSH2 0xB6D PUSH0 PUSH2 0x149F JUMP JUMPDEST JUMP JUMPDEST PUSH0 PUSH4 0x38377508 PUSH1 0xC MSTORE DUP2 PUSH0 MSTORE PUSH1 0x20 PUSH1 0xC KECCAK256 SLOAD SWAP1 POP SWAP2 SWAP1 POP JUMP JUMPDEST PUSH0 PUSH0 PUSH0 SWAP1 SLOAD SWAP1 PUSH2 0x100 EXP SWAP1 DIV PUSH20 0xFFFFFFFFFFFFFFFFFFFFFFFFFFFFFFFFFFFFFFFF AND SWAP1 POP SWAP1 JUMP JUMPDEST PUSH1 0x60 PUSH1 0x2 DUP1 SLOAD PUSH2 0xBBE SWAP1 PUSH2 0x1D39 JUMP JUMPDEST DUP1 PUSH1 0x1F ADD PUSH1 0x20 DUP1 SWAP2 DIV MUL PUSH1 0x20 ADD PUSH1 0x40 MLOAD SWAP1 DUP2 ADD PUSH1 0x40 MSTORE DUP1 SWAP3 SWAP2 SWAP1 DUP2 DUP2 MSTORE PUSH1 0x20 ADD DUP3 DUP1 SLOAD PUSH2 0xBEA SWAP1 PUSH2 0x1D39 JUMP JUMPDEST DUP1 ISZERO PUSH2 0xC35 JUMPI DUP1 PUSH1 0x1F LT PUSH2 0xC0C JUMPI PUSH2 0x100 DUP1 DUP4 SLOAD DIV MUL DUP4 MSTORE SWAP2 PUSH1 0x20 ADD SWAP2 PUSH2 0xC35 JUMP JUMPDEST DUP3 ADD SWAP2 SWAP1 PUSH0 MSTORE PUSH1 0x20 PUSH0 KECCAK256 SWAP1 JUMPDEST DUP2 SLOAD DUP2 MSTORE SWAP1 PUSH1 0x1 ADD SWAP1 PUSH1 0x20 ADD DUP1 DUP4 GT PUSH2 0xC18 JUMPI DUP3 SWAP1 SUB PUSH1 0x1F AND DUP3 ADD SWAP2 JUMPDEST POP POP POP POP POP SWAP1 POP SWAP1 JUMP JUMPDEST PUSH0 PUSH2 0xC4B CALLER DUP5 DUP5 PUSH2 0x1468 JUMP JUMPDEST PUSH4 0x87A211A2 PUSH1 0xC MSTORE CALLER PUSH0 MSTORE PUSH1 0x20 PUSH1 0xC KECCAK256 DUP1 SLOAD DUP1 DUP5 GT ISZERO PUSH2 0xC72 JUMPI PUSH4 0xF4D678B8 PUSH0 MSTORE PUSH1 0x4 PUSH1 0x1C REVERT JUMPDEST DUP4 DUP2 SUB DUP3 SSTORE DUP5 PUSH0 MSTORE PUSH1 0x20 PUSH1 0xC KECCAK256 DUP5 DUP2 SLOAD ADD DUP2 SSTORE DUP5 PUSH1 0x20 MSTORE PUSH1 0xC MLOAD PUSH1 0x60 SHR CALLER PUSH32 0xDDF252AD1BE2C89B69C2B068FC378DAA952BA7F163C4A11628F55A4DF523B3EF PUSH1 0x20 DUP1 LOG3 POP POP POP PUSH2 0xCC3 CALLER DUP5 DUP5 PUSH2 0x146D JUMP JUMPDEST PUSH1 0x1 SWAP1 POP SWAP3 SWAP2 POP POP JUMP JUMPDEST PUSH1 0x2 DUP1 SLOAD PUSH2 0xCDA SWAP1 PUSH2 0x1D39 JUMP JUMPDEST DUP1 PUSH1 0x1F ADD PUSH1 0x20 DUP1 SWAP2 DIV MUL PUSH1 0x20 ADD PUSH1 0x40 MLOAD SWAP1 DUP2 ADD PUSH1 0x40 MSTORE DUP1 SWAP3 SWAP2 SWAP1 DUP2 DUP2 MSTORE PUSH1 0x20 ADD DUP3 DUP1 SLOAD PUSH2 0xD06 SWAP1 PUSH2 0x1D39 JUMP JUMPDEST DUP1 ISZERO PUSH2 0xD51 JUMPI DUP1 PUSH1 0x1F LT PUSH2 0xD28 JUMPI PUSH2 0x100 DUP1 DUP4 SLOAD DIV MUL DUP4 MSTORE SWAP2 PUSH1 0x20 ADD SWAP2 PUSH2 0xD51 JUMP JUMPDEST DUP3 ADD SWAP2 SWAP1 PUSH0 MSTORE PUSH1 0x20 PUSH0 KECCAK256 SWAP1 JUMPDEST DUP2 SLOAD DUP2 MSTORE SWAP1 PUSH1 0x1 ADD SWAP1 PUSH1 0x20 ADD DUP1 DUP4 GT PUSH2 0xD34 JUMPI DUP3 SWAP1 SUB PUSH1 0x1F AND DUP3 ADD SWAP2 JUMPDEST POP POP POP POP POP DUP2 JUMP JUMPDEST PUSH0 PUSH0 PUSH2 0xD64 DUP6 PUSH2 0xB20 JUMP JUMPDEST SWAP1 POP DUP3 PUSH20 0xFFFFFFFFFFFFFFFFFFFFFFFFFFFFFFFFFFFFFFFF AND CALLER PUSH20 0xFFFFFFFFFFFFFFFFFFFFFFFFFFFFFFFFFFFFFFFF AND EQ PUSH2 0xDA5 JUMPI PUSH2 0xDA4 DUP4 CALLER DUP8 PUSH2 0x1560 JUMP JUMPDEST JUMPDEST DUP1 PUSH1 0x4 PUSH0 DUP3 DUP3 SLOAD PUSH2 0xDB6 SWAP2 SWAP1 PUSH2 0x1D96 JUMP JUMPDEST SWAP3 POP POP DUP2 SWAP1 SSTORE POP PUSH2 0xDC7 DUP4 DUP7 PUSH2 0x15F1 JUMP JUMPDEST PUSH0 DUP5 PUSH20 0xFFFFFFFFFFFFFFFFFFFFFFFFFFFFFFFFFFFFFFFF AND DUP3 PUSH1 0x40 MLOAD PUSH2 0xDEC SWAP1 PUSH2 0x1EDE JUMP JUMPDEST PUSH0 PUSH1 0x40 MLOAD DUP1 DUP4 SUB DUP2 DUP6 DUP8 GAS CALL SWAP3 POP POP POP RETURNDATASIZE DUP1 PUSH0 DUP2 EQ PUSH2 0xE26 JUMPI PUSH1 0x40 MLOAD SWAP2 POP PUSH1 0x1F NOT PUSH1 0x3F RETURNDATASIZE ADD AND DUP3 ADD PUSH1 0x40 MSTORE RETURNDATASIZE DUP3 MSTORE RETURNDATASIZE PUSH0 PUSH1 0x20 DUP5 ADD RETURNDATACOPY PUSH2 0xE2B JUMP JUMPDEST PUSH1 0x60 SWAP2 POP JUMPDEST POP POP SWAP1 POP DUP1 PUSH2 0xE38 JUMPI PUSH0 PUSH0 REVERT JUMPDEST DUP4 PUSH20 0xFFFFFFFFFFFFFFFFFFFFFFFFFFFFFFFFFFFFFFFF AND DUP6 PUSH20 0xFFFFFFFFFFFFFFFFFFFFFFFFFFFFFFFFFFFFFFFF AND CALLER PUSH20 0xFFFFFFFFFFFFFFFFFFFFFFFFFFFFFFFFFFFFFFFF AND PUSH32 0xFBDE797D201C681B91056529119E0B02407C7BB96A4A2C75C01FC9667232C8DB DUP6 DUP11 PUSH1 0x40 MLOAD PUSH2 0xEAE SWAP3 SWAP2 SWAP1 PUSH2 0x1EF2 JUMP JUMPDEST PUSH1 0x40 MLOAD DUP1 SWAP2 SUB SWAP1 LOG4 DUP2 SWAP3 POP POP POP SWAP4 SWAP3 POP POP POP JUMP JUMPDEST PUSH0 PUSH1 0x3 SLOAD PUSH3 0x15180 PUSH8 0xDE0B6B3A7640000 PUSH2 0xEDD SWAP2 SWAP1 PUSH2 0x1E37 JUMP JUMPDEST PUSH32 0x0 TIMESTAMP PUSH2 0xF09 SWAP2 SWAP1 PUSH2 0x1F19 JUMP JUMPDEST PUSH2 0xF13 SWAP2 SWAP1 PUSH2 0x1DC9 JUMP JUMPDEST PUSH2 0xF1D SWAP2 SWAP1 PUSH2 0x1F19 JUMP JUMPDEST SWAP1 POP SWAP2 SWAP1 POP JUMP JUMPDEST PUSH0 DUP2 PUSH8 0x16345785D8A0000 PUSH2 0xF39 SWAP2 SWAP1 PUSH2 0x1D96 JUMP JUMPDEST DUP3 PUSH2 0xF43 CALLER PUSH2 0xEC2 JUMP JUMPDEST PUSH2 0xF4D SWAP2 SWAP1 PUSH2 0x1DC9 JUMP JUMPDEST PUSH2 0xF57 SWAP2 SWAP1 PUSH2 0x1E37 JUMP JUMPDEST SWAP1 POP SWAP2 SWAP1 POP JUMP JUMPDEST PUSH0 PUSH1 0x4 SLOAD PUSH3 0x15180 PUSH8 0x16345785D8A0000 PUSH2 0xF79 SWAP2 SWAP1 PUSH2 0x1E37 JUMP JUMPDEST PUSH32 0x0 TIMESTAMP PUSH2 0xFA5 SWAP2 SWAP1 PUSH2 0x1F19 JUMP JUMPDEST PUSH2 0xFAF SWAP2 SWAP1 PUSH2 0x1DC9 JUMP JUMPDEST PUSH2 0xFB9 SWAP2 SWAP1 PUSH2 0x1F19 JUMP JUMPDEST SWAP1 POP SWAP2 SWAP1 POP JUMP JUMPDEST PUSH1 0x1 DUP1 SLOAD PUSH2 0xFCD SWAP1 PUSH2 0x1D39 JUMP JUMPDEST DUP1 PUSH1 0x1F ADD PUSH1 0x20 DUP1 SWAP2 DIV MUL PUSH1 0x20 ADD PUSH1 0x40 MLOAD SWAP1 DUP2 ADD PUSH1 0x40 MSTORE DUP1 SWAP3 SWAP2 SWAP1 DUP2 DUP2 MSTORE PUSH1 0x20 ADD DUP3 DUP1 SLOAD PUSH2 0xFF9 SWAP1 PUSH2 0x1D39 JUMP JUMPDEST DUP1 ISZERO PUSH2 0x1044 JUMPI DUP1 PUSH1 0x1F LT PUSH2 0x101B JUMPI PUSH2 0x100 DUP1 DUP4 SLOAD DIV MUL DUP4 MSTORE SWAP2 PUSH1 0x20 ADD SWAP2 PUSH2 0x1044 JUMP JUMPDEST DUP3 ADD SWAP2 SWAP1 PUSH0 MSTORE PUSH1 0x20 PUSH0 KECCAK256 SWAP1 JUMPDEST DUP2 SLOAD DUP2 MSTORE SWAP1 PUSH1 0x1 ADD SWAP1 PUSH1 0x20 ADD DUP1 DUP4 GT PUSH2 0x1027 JUMPI DUP3 SWAP1 SUB PUSH1 0x1F AND DUP3 ADD SWAP2 JUMPDEST POP POP POP POP POP DUP2 JUMP JUMPDEST PUSH2 0x1054 PUSH2 0x13DA JUMP JUMPDEST ISZERO PUSH2 0x1087 JUMPI DUP5 NOT ISZERO PUSH15 0x22D473030F116DDEE9F6B43AC78BA3 DUP8 PUSH1 0x60 SHL PUSH1 0x60 SHR XOR OR PUSH2 0x1086 JUMPI PUSH4 0x3F68539A PUSH0 MSTORE PUSH1 0x4 PUSH1 0x1C REVERT JUMPDEST JUMPDEST PUSH0 PUSH2 0x1090 PUSH2 0x1472 JUMP JUMPDEST SWAP1 POP PUSH0 PUSH0 SHL DUP2 SUB PUSH2 0x10AD JUMPI PUSH2 0x10A3 PUSH2 0x6FD JUMP JUMPDEST DUP1 MLOAD SWAP1 PUSH1 0x20 ADD KECCAK256 SWAP1 POP JUMPDEST PUSH0 PUSH2 0x10B6 PUSH2 0x1476 JUMP JUMPDEST SWAP1 POP DUP6 TIMESTAMP GT ISZERO PUSH2 0x10CD JUMPI PUSH4 0x1A15A3CC PUSH0 MSTORE PUSH1 0x4 PUSH1 0x1C REVERT JUMPDEST PUSH1 0x40 MLOAD DUP10 PUSH1 0x60 SHL PUSH1 0x60 SHR SWAP10 POP DUP9 PUSH1 0x60 SHL PUSH1 0x60 SHR SWAP9 POP PUSH6 0x383775081901 PUSH1 0xE MSTORE DUP10 PUSH0 MSTORE PUSH1 0x20 PUSH1 0xC KECCAK256 DUP1 SLOAD PUSH32 0x8B73C3C69BB8FE3D512ECC4CF759CC79239F7B179B0FFACAA9A75D522B39400F DUP4 MSTORE DUP5 PUSH1 0x20 DUP5 ADD MSTORE DUP4 PUSH1 0x40 DUP5 ADD MSTORE CHAINID PUSH1 0x60 DUP5 ADD MSTORE ADDRESS PUSH1 0x80 DUP5 ADD MSTORE PUSH1 0xA0 DUP4 KECCAK256 PUSH1 0x2E MSTORE PUSH32 0x6E71EDAE12B1B97F4D1F60370FEF10105FA2FAAE0126114A169C64845D6126C9 DUP4 MSTORE DUP12 PUSH1 0x20 DUP5 ADD MSTORE DUP11 PUSH1 0x40 DUP5 ADD MSTORE DUP10 PUSH1 0x60 DUP5 ADD MSTORE DUP1 PUSH1 0x80 DUP5 ADD MSTORE DUP9 PUSH1 0xA0 DUP5 ADD MSTORE PUSH1 0xC0 DUP4 KECCAK256 PUSH1 0x4E MSTORE PUSH1 0x42 PUSH1 0x2C KECCAK256 PUSH0 MSTORE DUP8 PUSH1 0xFF AND PUSH1 0x20 MSTORE DUP7 PUSH1 0x40 MSTORE DUP6 PUSH1 0x60 MSTORE PUSH1 0x20 DUP1 PUSH1 0x80 PUSH0 PUSH1 0x1 GAS STATICCALL DUP13 RETURNDATASIZE MLOAD EQ PUSH2 0x11B5 JUMPI PUSH4 0xDDAFBAEF PUSH0 MSTORE PUSH1 0x4 PUSH1 0x1C REVERT JUMPDEST DUP1 DUP3 ADD DUP4 SSTORE DUP12 PUSH4 0x7F5E9F20 PUSH1 0xA0 SHL OR PUSH1 0x40 MSTORE DUP11 PUSH1 0x34 PUSH1 0x2C KECCAK256 SSTORE DUP12 DUP14 PUSH32 0x8C5BE1E5EBEC7D5BD14F71427D1E84F3DD0314C0F7B2291E5B200AC8C7C3B925 PUSH1 0x20 PUSH1 0x60 DUP9 ADD LOG3 DUP4 PUSH1 0x40 MSTORE PUSH0 PUSH1 0x60 MSTORE POP POP POP POP POP POP POP POP POP POP POP POP POP JUMP JUMPDEST PUSH0 PUSH2 0x1218 PUSH2 0x13DA JUMP JUMPDEST ISZERO PUSH2 0x1288 JUMPI PUSH15 0x22D473030F116DDEE9F6B43AC78BA3 PUSH20 0xFFFFFFFFFFFFFFFFFFFFFFFFFFFFFFFFFFFFFFFF AND DUP3 PUSH20 0xFFFFFFFFFFFFFFFFFFFFFFFFFFFFFFFFFFFFFFFF AND SUB PUSH2 0x1287 JUMPI PUSH32 0xFFFFFFFFFFFFFFFFFFFFFFFFFFFFFFFFFFFFFFFFFFFFFFFFFFFFFFFFFFFFFFFF SWAP1 POP PUSH2 0x12A0 JUMP JUMPDEST JUMPDEST DUP2 PUSH1 0x20 MSTORE PUSH4 0x7F5E9F20 PUSH1 0xC MSTORE DUP3 PUSH0 MSTORE PUSH1 0x34 PUSH1 0xC KECCAK256 SLOAD SWAP1 POP JUMPDEST SWAP3 SWAP2 POP POP JUMP JUMPDEST PUSH0 PUSH2 0x12B0 DUP3 PUSH2 0xF24 JUMP JUMPDEST SWAP1 POP SWAP2 SWAP1 POP JUMP JUMPDEST PUSH2 0x12BF PUSH2 0x13E1 JUMP JUMPDEST PUSH0 PUSH20 0xFFFFFFFFFFFFFFFFFFFFFFFFFFFFFFFFFFFFFFFF AND DUP2 PUSH20 0xFFFFFFFFFFFFFFFFFFFFFFFFFFFFFFFFFFFFFFFF AND SUB PUSH2 0x132F JUMPI PUSH0 PUSH1 0x40 MLOAD PUSH32 0x1E4FBDF700000000000000000000000000000000000000000000000000000000 DUP2 MSTORE PUSH1 0x4 ADD PUSH2 0x1326 SWAP2 SWAP1 PUSH2 0x1B74 JUMP JUMPDEST PUSH1 0x40 MLOAD DUP1 SWAP2 SUB SWAP1 REVERT JUMPDEST PUSH2 0x1338 DUP2 PUSH2 0x149F JUMP JUMPDEST POP JUMP JUMPDEST PUSH0 PUSH0 PUSH2 0x1346 CALLVALUE PUSH2 0x12A6 JUMP JUMPDEST SWAP1 POP DUP1 PUSH1 0x3 PUSH0 DUP3 DUP3 SLOAD PUSH2 0x1359 SWAP2 SWAP1 PUSH2 0x1D96 JUMP JUMPDEST SWAP3 POP POP DUP2 SWAP1 SSTORE POP PUSH2 0x136A DUP4 DUP3 PUSH2 0x1681 JUMP JUMPDEST DUP3 PUSH20 0xFFFFFFFFFFFFFFFFFFFFFFFFFFFFFFFFFFFFFFFF AND CALLER PUSH20 0xFFFFFFFFFFFFFFFFFFFFFFFFFFFFFFFFFFFFFFFF AND PUSH32 0xDCBC1C05240F31FF3AD067EF1EE35CE4997762752E3A095284754544F4C709D7 CALLVALUE DUP5 PUSH1 0x40 MLOAD PUSH2 0x13C9 SWAP3 SWAP2 SWAP1 PUSH2 0x1EF2 JUMP JUMPDEST PUSH1 0x40 MLOAD DUP1 SWAP2 SUB SWAP1 LOG3 DUP1 SWAP2 POP POP SWAP2 SWAP1 POP JUMP JUMPDEST PUSH0 PUSH0 SWAP1 POP SWAP1 JUMP JUMPDEST PUSH2 0x13E9 PUSH2 0x1713 JUMP JUMPDEST PUSH20 0xFFFFFFFFFFFFFFFFFFFFFFFFFFFFFFFFFFFFFFFF AND PUSH2 0x1407 PUSH2 0xB88 JUMP JUMPDEST PUSH20 0xFFFFFFFFFFFFFFFFFFFFFFFFFFFFFFFFFFFFFFFF AND EQ PUSH2 0x1466 JUMPI PUSH2 0x142A PUSH2 0x1713 JUMP JUMPDEST PUSH1 0x40 MLOAD PUSH32 0x118CDAA700000000000000000000000000000000000000000000000000000000 DUP2 MSTORE PUSH1 0x4 ADD PUSH2 0x145D SWAP2 SWAP1 PUSH2 0x1B74 JUMP JUMPDEST PUSH1 0x40 MLOAD DUP1 SWAP2 SUB SWAP1 REVERT JUMPDEST JUMP JUMPDEST POP POP POP JUMP JUMPDEST POP POP POP JUMP JUMPDEST PUSH0 SWAP1 JUMP JUMPDEST PUSH0 PUSH32 0xC89EFDAA54C0F20C7ADF612882DF0950F5A951637E0307CDCB4C672F298B8BC6 PUSH0 SHL SWAP1 POP SWAP1 JUMP JUMPDEST PUSH0 PUSH0 PUSH0 SWAP1 SLOAD SWAP1 PUSH2 0x100 EXP SWAP1 DIV PUSH20 0xFFFFFFFFFFFFFFFFFFFFFFFFFFFFFFFFFFFFFFFF AND SWAP1 POP DUP2 PUSH0 PUSH0 PUSH2 0x100 EXP DUP2 SLOAD DUP2 PUSH20 0xFFFFFFFFFFFFFFFFFFFFFFFFFFFFFFFFFFFFFFFF MUL NOT AND SWAP1 DUP4 PUSH20 0xFFFFFFFFFFFFFFFFFFFFFFFFFFFFFFFFFFFFFFFF AND MUL OR SWAP1 SSTORE POP DUP2 PUSH20 0xFFFFFFFFFFFFFFFFFFFFFFFFFFFFFFFFFFFFFFFF AND DUP2 PUSH20 0xFFFFFFFFFFFFFFFFFFFFFFFFFFFFFFFFFFFFFFFF AND PUSH32 0x8BE0079C531659141344CD1FD0A4F28419497F9722A3DAAFE3B4186F6B6457E0 PUSH1 0x40 MLOAD PUSH1 0x40 MLOAD DUP1 SWAP2 SUB SWAP1 LOG3 POP POP JUMP JUMPDEST PUSH2 0x1568 PUSH2 0x13DA JUMP JUMPDEST ISZERO PUSH2 0x15B1 JUMPI PUSH15 0x22D473030F116DDEE9F6B43AC78BA3 PUSH20 0xFFFFFFFFFFFFFFFFFFFFFFFFFFFFFFFFFFFFFFFF AND DUP3 PUSH20 0xFFFFFFFFFFFFFFFFFFFFFFFFFFFFFFFFFFFFFFFF AND SUB ISZERO PUSH2 0x15EC JUMPI JUMPDEST DUP2 PUSH1 0x20 MSTORE PUSH4 0x7F5E9F20 PUSH1 0xC MSTORE DUP3 PUSH0 MSTORE PUSH1 0x34 PUSH1 0xC KECCAK256 DUP1 SLOAD DUP1 NOT ISZERO PUSH2 0x15E9 JUMPI DUP1 DUP4 GT ISZERO PUSH2 0x15E3 JUMPI PUSH4 0x13BE252B PUSH0 MSTORE PUSH1 0x4 PUSH1 0x1C REVERT JUMPDEST DUP3 DUP2 SUB DUP3 SSTORE JUMPDEST POP POP JUMPDEST POP POP POP JUMP JUMPDEST PUSH2 0x15FC DUP3 PUSH0 DUP4 PUSH2 0x1468 JUMP JUMPDEST PUSH4 0x87A211A2 PUSH1 0xC MSTORE DUP2 PUSH0 MSTORE PUSH1 0x20 PUSH1 0xC KECCAK256 DUP1 SLOAD DUP1 DUP4 GT ISZERO PUSH2 0x1623 JUMPI PUSH4 0xF4D678B8 PUSH0 MSTORE PUSH1 0x4 PUSH1 0x1C REVERT JUMPDEST DUP3 DUP2 SUB DUP3 SSTORE DUP3 PUSH9 0x5345CDF77EB68F44C SLOAD SUB PUSH9 0x5345CDF77EB68F44C SSTORE DUP3 PUSH0 MSTORE PUSH0 DUP5 PUSH1 0x60 SHL PUSH1 0x60 SHR PUSH32 0xDDF252AD1BE2C89B69C2B068FC378DAA952BA7F163C4A11628F55A4DF523B3EF PUSH1 0x20 PUSH0 LOG3 POP POP PUSH2 0x167D DUP3 PUSH0 DUP4 PUSH2 0x146D JUMP JUMPDEST POP POP JUMP JUMPDEST PUSH2 0x168C PUSH0 DUP4 DUP4 PUSH2 0x1468 JUMP JUMPDEST PUSH9 0x5345CDF77EB68F44C SLOAD DUP2 DUP2 ADD DUP2 DUP2 LT ISZERO PUSH2 0x16AF JUMPI PUSH4 0xE5CFE957 PUSH0 MSTORE PUSH1 0x4 PUSH1 0x1C REVERT JUMPDEST DUP1 PUSH9 0x5345CDF77EB68F44C SSTORE PUSH4 0x87A211A2 PUSH1 0xC MSTORE DUP4 PUSH0 MSTORE PUSH1 0x20 PUSH1 0xC KECCAK256 DUP4 DUP2 SLOAD ADD DUP2 SSTORE DUP4 PUSH1 0x20 MSTORE PUSH1 0xC MLOAD PUSH1 0x60 SHR PUSH0 PUSH32 0xDDF252AD1BE2C89B69C2B068FC378DAA952BA7F163C4A11628F55A4DF523B3EF PUSH1 0x20 DUP1 LOG3 POP POP POP PUSH2 0x170F PUSH0 DUP4 DUP4 PUSH2 0x146D JUMP JUMPDEST POP POP JUMP JUMPDEST PUSH0 CALLER SWAP1 POP SWAP1 JUMP JUMPDEST PUSH0 DUP2 MLOAD SWAP1 POP SWAP2 SWAP1 POP JUMP JUMPDEST PUSH0 DUP3 DUP3 MSTORE PUSH1 0x20 DUP3 ADD SWAP1 POP SWAP3 SWAP2 POP POP JUMP JUMPDEST DUP3 DUP2 DUP4 MCOPY PUSH0 DUP4 DUP4 ADD MSTORE POP POP POP JUMP JUMPDEST PUSH0 PUSH1 0x1F NOT PUSH1 0x1F DUP4 ADD AND SWAP1 POP SWAP2 SWAP1 POP JUMP JUMPDEST PUSH0 PUSH2 0x175C DUP3 PUSH2 0x171A JUMP JUMPDEST PUSH2 0x1766 DUP2 DUP6 PUSH2 0x1724 JUMP JUMPDEST SWAP4 POP PUSH2 0x1776 DUP2 DUP6 PUSH1 0x20 DUP7 ADD PUSH2 0x1734 JUMP JUMPDEST PUSH2 0x177F DUP2 PUSH2 0x1742 JUMP JUMPDEST DUP5 ADD SWAP2 POP POP SWAP3 SWAP2 POP POP JUMP JUMPDEST PUSH0 PUSH1 0x20 DUP3 ADD SWAP1 POP DUP2 DUP2 SUB PUSH0 DUP4 ADD MSTORE PUSH2 0x17A2 DUP2 DUP5 PUSH2 0x1752 JUMP JUMPDEST SWAP1 POP SWAP3 SWAP2 POP POP JUMP JUMPDEST PUSH0 PUSH0 REVERT JUMPDEST PUSH0 PUSH0 REVERT JUMPDEST PUSH0 DUP2 SWAP1 POP SWAP2 SWAP1 POP JUMP JUMPDEST PUSH2 0x17C4 DUP2 PUSH2 0x17B2 JUMP JUMPDEST DUP2 EQ PUSH2 0x17CE JUMPI PUSH0 PUSH0 REVERT JUMPDEST POP JUMP JUMPDEST PUSH0 DUP2 CALLDATALOAD SWAP1 POP PUSH2 0x17DF DUP2 PUSH2 0x17BB JUMP JUMPDEST SWAP3 SWAP2 POP POP JUMP JUMPDEST PUSH0 PUSH1 0x20 DUP3 DUP5 SUB SLT ISZERO PUSH2 0x17FA JUMPI PUSH2 0x17F9 PUSH2 0x17AA JUMP JUMPDEST JUMPDEST PUSH0 PUSH2 0x1807 DUP5 DUP3 DUP6 ADD PUSH2 0x17D1 JUMP JUMPDEST SWAP2 POP POP SWAP3 SWAP2 POP POP JUMP JUMPDEST PUSH2 0x1819 DUP2 PUSH2 0x17B2 JUMP JUMPDEST DUP3 MSTORE POP POP JUMP JUMPDEST PUSH0 PUSH1 0x20 DUP3 ADD SWAP1 POP PUSH2 0x1832 PUSH0 DUP4 ADD DUP5 PUSH2 0x1810 JUMP JUMPDEST SWAP3 SWAP2 POP POP JUMP JUMPDEST PUSH0 PUSH20 0xFFFFFFFFFFFFFFFFFFFFFFFFFFFFFFFFFFFFFFFF DUP3 AND SWAP1 POP SWAP2 SWAP1 POP JUMP JUMPDEST PUSH0 PUSH2 0x1861 DUP3 PUSH2 0x1838 JUMP JUMPDEST SWAP1 POP SWAP2 SWAP1 POP JUMP JUMPDEST PUSH2 0x1871 DUP2 PUSH2 0x1857 JUMP JUMPDEST DUP2 EQ PUSH2 0x187B JUMPI PUSH0 PUSH0 REVERT JUMPDEST POP JUMP JUMPDEST PUSH0 DUP2 CALLDATALOAD SWAP1 POP PUSH2 0x188C DUP2 PUSH2 0x1868 JUMP JUMPDEST SWAP3 SWAP2 POP POP JUMP JUMPDEST PUSH0 PUSH0 PUSH1 0x40 DUP4 DUP6 SUB SLT ISZERO PUSH2 0x18A8 JUMPI PUSH2 0x18A7 PUSH2 0x17AA JUMP JUMPDEST JUMPDEST PUSH0 PUSH2 0x18B5 DUP6 DUP3 DUP7 ADD PUSH2 0x187E JUMP JUMPDEST SWAP3 POP POP PUSH1 0x20 PUSH2 0x18C6 DUP6 DUP3 DUP7 ADD PUSH2 0x17D1 JUMP JUMPDEST SWAP2 POP POP SWAP3 POP SWAP3 SWAP1 POP JUMP JUMPDEST PUSH0 DUP2 ISZERO ISZERO SWAP1 POP SWAP2 SWAP1 POP JUMP JUMPDEST PUSH2 0x18E4 DUP2 PUSH2 0x18D0 JUMP JUMPDEST DUP3 MSTORE POP POP JUMP JUMPDEST PUSH0 PUSH1 0x20 DUP3 ADD SWAP1 POP PUSH2 0x18FD PUSH0 DUP4 ADD DUP5 PUSH2 0x18DB JUMP JUMPDEST SWAP3 SWAP2 POP POP JUMP JUMPDEST PUSH0 PUSH0 REVERT JUMPDEST PUSH0 PUSH0 REVERT JUMPDEST PUSH0 PUSH0 REVERT JUMPDEST PUSH0 PUSH0 DUP4 PUSH1 0x1F DUP5 ADD SLT PUSH2 0x1924 JUMPI PUSH2 0x1923 PUSH2 0x1903 JUMP JUMPDEST JUMPDEST DUP3 CALLDATALOAD SWAP1 POP PUSH8 0xFFFFFFFFFFFFFFFF DUP2 GT ISZERO PUSH2 0x1941 JUMPI PUSH2 0x1940 PUSH2 0x1907 JUMP JUMPDEST JUMPDEST PUSH1 0x20 DUP4 ADD SWAP2 POP DUP4 PUSH1 0x1 DUP3 MUL DUP4 ADD GT ISZERO PUSH2 0x195D JUMPI PUSH2 0x195C PUSH2 0x190B JUMP JUMPDEST JUMPDEST SWAP3 POP SWAP3 SWAP1 POP JUMP JUMPDEST PUSH0 PUSH0 PUSH0 PUSH0 PUSH1 0x60 DUP6 DUP8 SUB SLT ISZERO PUSH2 0x197C JUMPI PUSH2 0x197B PUSH2 0x17AA JUMP JUMPDEST JUMPDEST PUSH0 PUSH2 0x1989 DUP8 DUP3 DUP9 ADD PUSH2 0x187E JUMP JUMPDEST SWAP5 POP POP PUSH1 0x20 PUSH2 0x199A DUP8 DUP3 DUP9 ADD PUSH2 0x17D1 JUMP JUMPDEST SWAP4 POP POP PUSH1 0x40 DUP6 ADD CALLDATALOAD PUSH8 0xFFFFFFFFFFFFFFFF DUP2 GT ISZERO PUSH2 0x19BB JUMPI PUSH2 0x19BA PUSH2 0x17AE JUMP JUMPDEST JUMPDEST PUSH2 0x19C7 DUP8 DUP3 DUP9 ADD PUSH2 0x190F JUMP JUMPDEST SWAP3 POP SWAP3 POP POP SWAP3 SWAP6 SWAP2 SWAP5 POP SWAP3 POP JUMP JUMPDEST PUSH0 DUP2 MLOAD SWAP1 POP SWAP2 SWAP1 POP JUMP JUMPDEST PUSH0 DUP3 DUP3 MSTORE PUSH1 0x20 DUP3 ADD SWAP1 POP SWAP3 SWAP2 POP POP JUMP JUMPDEST PUSH0 PUSH2 0x19F9 DUP3 PUSH2 0x19D5 JUMP JUMPDEST PUSH2 0x1A03 DUP2 DUP6 PUSH2 0x19DF JUMP JUMPDEST SWAP4 POP PUSH2 0x1A13 DUP2 DUP6 PUSH1 0x20 DUP7 ADD PUSH2 0x1734 JUMP JUMPDEST PUSH2 0x1A1C DUP2 PUSH2 0x1742 JUMP JUMPDEST DUP5 ADD SWAP2 POP POP SWAP3 SWAP2 POP POP JUMP JUMPDEST PUSH0 PUSH1 0x20 DUP3 ADD SWAP1 POP DUP2 DUP2 SUB PUSH0 DUP4 ADD MSTORE PUSH2 0x1A3F DUP2 DUP5 PUSH2 0x19EF JUMP JUMPDEST SWAP1 POP SWAP3 SWAP2 POP POP JUMP JUMPDEST PUSH0 PUSH0 PUSH0 PUSH1 0x60 DUP5 DUP7 SUB SLT ISZERO PUSH2 0x1A5E JUMPI PUSH2 0x1A5D PUSH2 0x17AA JUMP JUMPDEST JUMPDEST PUSH0 PUSH2 0x1A6B DUP7 DUP3 DUP8 ADD PUSH2 0x187E JUMP JUMPDEST SWAP4 POP POP PUSH1 0x20 PUSH2 0x1A7C DUP7 DUP3 DUP8 ADD PUSH2 0x187E JUMP JUMPDEST SWAP3 POP POP PUSH1 0x40 PUSH2 0x1A8D DUP7 DUP3 DUP8 ADD PUSH2 0x17D1 JUMP JUMPDEST SWAP2 POP POP SWAP3 POP SWAP3 POP SWAP3 JUMP JUMPDEST PUSH0 PUSH1 0xFF DUP3 AND SWAP1 POP SWAP2 SWAP1 POP JUMP JUMPDEST PUSH2 0x1AAC DUP2 PUSH2 0x1A97 JUMP JUMPDEST DUP3 MSTORE POP POP JUMP JUMPDEST PUSH0 PUSH1 0x20 DUP3 ADD SWAP1 POP PUSH2 0x1AC5 PUSH0 DUP4 ADD DUP5 PUSH2 0x1AA3 JUMP JUMPDEST SWAP3 SWAP2 POP POP JUMP JUMPDEST PUSH0 DUP2 SWAP1 POP SWAP2 SWAP1 POP JUMP JUMPDEST PUSH2 0x1ADD DUP2 PUSH2 0x1ACB JUMP JUMPDEST DUP3 MSTORE POP POP JUMP JUMPDEST PUSH0 PUSH1 0x20 DUP3 ADD SWAP1 POP PUSH2 0x1AF6 PUSH0 DUP4 ADD DUP5 PUSH2 0x1AD4 JUMP JUMPDEST SWAP3 SWAP2 POP POP JUMP JUMPDEST PUSH0 PUSH0 PUSH1 0x40 DUP4 DUP6 SUB SLT ISZERO PUSH2 0x1B12 JUMPI PUSH2 0x1B11 PUSH2 0x17AA JUMP JUMPDEST JUMPDEST PUSH0 PUSH2 0x1B1F DUP6 DUP3 DUP7 ADD PUSH2 0x17D1 JUMP JUMPDEST SWAP3 POP POP PUSH1 0x20 PUSH2 0x1B30 DUP6 DUP3 DUP7 ADD PUSH2 0x187E JUMP JUMPDEST SWAP2 POP POP SWAP3 POP SWAP3 SWAP1 POP JUMP JUMPDEST PUSH0 PUSH1 0x20 DUP3 DUP5 SUB SLT ISZERO PUSH2 0x1B4F JUMPI PUSH2 0x1B4E PUSH2 0x17AA JUMP JUMPDEST JUMPDEST PUSH0 PUSH2 0x1B5C DUP5 DUP3 DUP6 ADD PUSH2 0x187E JUMP JUMPDEST SWAP2 POP POP SWAP3 SWAP2 POP POP JUMP JUMPDEST PUSH2 0x1B6E DUP2 PUSH2 0x1857 JUMP JUMPDEST DUP3 MSTORE POP POP JUMP JUMPDEST PUSH0 PUSH1 0x20 DUP3 ADD SWAP1 POP PUSH2 0x1B87 PUSH0 DUP4 ADD DUP5 PUSH2 0x1B65 JUMP JUMPDEST SWAP3 SWAP2 POP POP JUMP JUMPDEST PUSH0 PUSH0 PUSH0 PUSH1 0x60 DUP5 DUP7 SUB SLT ISZERO PUSH2 0x1BA4 JUMPI PUSH2 0x1BA3 PUSH2 0x17AA JUMP JUMPDEST JUMPDEST PUSH0 PUSH2 0x1BB1 DUP7 DUP3 DUP8 ADD PUSH2 0x17D1 JUMP JUMPDEST SWAP4 POP POP PUSH1 0x20 PUSH2 0x1BC2 DUP7 DUP3 DUP8 ADD PUSH2 0x187E JUMP JUMPDEST SWAP3 POP POP PUSH1 0x40 PUSH2 0x1BD3 DUP7 DUP3 DUP8 ADD PUSH2 0x187E JUMP JUMPDEST SWAP2 POP POP SWAP3 POP SWAP3 POP SWAP3 JUMP JUMPDEST PUSH2 0x1BE6 DUP2 PUSH2 0x1A97 JUMP JUMPDEST DUP2 EQ PUSH2 0x1BF0 JUMPI PUSH0 PUSH0 REVERT JUMPDEST POP JUMP JUMPDEST PUSH0 DUP2 CALLDATALOAD SWAP1 POP PUSH2 0x1C01 DUP2 PUSH2 0x1BDD JUMP JUMPDEST SWAP3 SWAP2 POP POP JUMP JUMPDEST PUSH2 0x1C10 DUP2 PUSH2 0x1ACB JUMP JUMPDEST DUP2 EQ PUSH2 0x1C1A JUMPI PUSH0 PUSH0 REVERT JUMPDEST POP JUMP JUMPDEST PUSH0 DUP2 CALLDATALOAD SWAP1 POP PUSH2 0x1C2B DUP2 PUSH2 0x1C07 JUMP JUMPDEST SWAP3 SWAP2 POP POP JUMP JUMPDEST PUSH0 PUSH0 PUSH0 PUSH0 PUSH0 PUSH0 PUSH0 PUSH1 0xE0 DUP9 DUP11 SUB SLT ISZERO PUSH2 0x1C4C JUMPI PUSH2 0x1C4B PUSH2 0x17AA JUMP JUMPDEST JUMPDEST PUSH0 PUSH2 0x1C59 DUP11 DUP3 DUP12 ADD PUSH2 0x187E JUMP JUMPDEST SWAP8 POP POP PUSH1 0x20 PUSH2 0x1C6A DUP11 DUP3 DUP12 ADD PUSH2 0x187E JUMP JUMPDEST SWAP7 POP POP PUSH1 0x40 PUSH2 0x1C7B DUP11 DUP3 DUP12 ADD PUSH2 0x17D1 JUMP JUMPDEST SWAP6 POP POP PUSH1 0x60 PUSH2 0x1C8C DUP11 DUP3 DUP12 ADD PUSH2 0x17D1 JUMP JUMPDEST SWAP5 POP POP PUSH1 0x80 PUSH2 0x1C9D DUP11 DUP3 DUP12 ADD PUSH2 0x1BF3 JUMP JUMPDEST SWAP4 POP POP PUSH1 0xA0 PUSH2 0x1CAE DUP11 DUP3 DUP12 ADD PUSH2 0x1C1D JUMP JUMPDEST SWAP3 POP POP PUSH1 0xC0 PUSH2 0x1CBF DUP11 DUP3 DUP12 ADD PUSH2 0x1C1D JUMP JUMPDEST SWAP2 POP POP SWAP3 SWAP6 SWAP9 SWAP2 SWAP5 SWAP8 POP SWAP3 SWAP6 POP JUMP JUMPDEST PUSH0 PUSH0 PUSH1 0x40 DUP4 DUP6 SUB SLT ISZERO PUSH2 0x1CE4 JUMPI PUSH2 0x1CE3 PUSH2 0x17AA JUMP JUMPDEST JUMPDEST PUSH0 PUSH2 0x1CF1 DUP6 DUP3 DUP7 ADD PUSH2 0x187E JUMP JUMPDEST SWAP3 POP POP PUSH1 0x20 PUSH2 0x1D02 DUP6 DUP3 DUP7 ADD PUSH2 0x187E JUMP JUMPDEST SWAP2 POP POP SWAP3 POP SWAP3 SWAP1 POP JUMP JUMPDEST PUSH32 0x4E487B7100000000000000000000000000000000000000000000000000000000 PUSH0 MSTORE PUSH1 0x22 PUSH1 0x4 MSTORE PUSH1 0x24 PUSH0 REVERT JUMPDEST PUSH0 PUSH1 0x2 DUP3 DIV SWAP1 POP PUSH1 0x1 DUP3 AND DUP1 PUSH2 0x1D50 JUMPI PUSH1 0x7F DUP3 AND SWAP2 POP JUMPDEST PUSH1 0x20 DUP3 LT DUP2 SUB PUSH2 0x1D63 JUMPI PUSH2 0x1D62 PUSH2 0x1D0C JUMP JUMPDEST JUMPDEST POP SWAP2 SWAP1 POP JUMP JUMPDEST PUSH32 0x4E487B7100000000000000000000000000000000000000000000000000000000 PUSH0 MSTORE PUSH1 0x11 PUSH1 0x4 MSTORE PUSH1 0x24 PUSH0 REVERT JUMPDEST PUSH0 PUSH2 0x1DA0 DUP3 PUSH2 0x17B2 JUMP JUMPDEST SWAP2 POP PUSH2 0x1DAB DUP4 PUSH2 0x17B2 JUMP JUMPDEST SWAP3 POP DUP3 DUP3 ADD SWAP1 POP DUP1 DUP3 GT ISZERO PUSH2 0x1DC3 JUMPI PUSH2 0x1DC2 PUSH2 0x1D69 JUMP JUMPDEST JUMPDEST SWAP3 SWAP2 POP POP JUMP JUMPDEST PUSH0 PUSH2 0x1DD3 DUP3 PUSH2 0x17B2 JUMP JUMPDEST SWAP2 POP PUSH2 0x1DDE DUP4 PUSH2 0x17B2 JUMP JUMPDEST SWAP3 POP DUP3 DUP3 MUL PUSH2 0x1DEC DUP2 PUSH2 0x17B2 JUMP JUMPDEST SWAP2 POP DUP3 DUP3 DIV DUP5 EQ DUP4 ISZERO OR PUSH2 0x1E03 JUMPI PUSH2 0x1E02 PUSH2 0x1D69 JUMP JUMPDEST JUMPDEST POP SWAP3 SWAP2 POP POP JUMP JUMPDEST PUSH32 0x4E487B7100000000000000000000000000000000000000000000000000000000 PUSH0 MSTORE PUSH1 0x12 PUSH1 0x4 MSTORE PUSH1 0x24 PUSH0 REVERT JUMPDEST PUSH0 PUSH2 0x1E41 DUP3 PUSH2 0x17B2 JUMP JUMPDEST SWAP2 POP PUSH2 0x1E4C DUP4 PUSH2 0x17B2 JUMP JUMPDEST SWAP3 POP DUP3 PUSH2 0x1E5C JUMPI PUSH2 0x1E5B PUSH2 0x1E0A JUMP JUMPDEST JUMPDEST DUP3 DUP3 DIV SWAP1 POP SWAP3 SWAP2 POP POP JUMP JUMPDEST PUSH0 DUP2 SWAP1 POP SWAP3 SWAP2 POP POP JUMP JUMPDEST DUP3 DUP2 DUP4 CALLDATACOPY PUSH0 DUP4 DUP4 ADD MSTORE POP POP POP JUMP JUMPDEST PUSH0 PUSH2 0x1E8A DUP4 DUP6 PUSH2 0x1E67 JUMP JUMPDEST SWAP4 POP PUSH2 0x1E97 DUP4 DUP6 DUP5 PUSH2 0x1E71 JUMP JUMPDEST DUP3 DUP5 ADD SWAP1 POP SWAP4 SWAP3 POP POP POP JUMP JUMPDEST PUSH0 PUSH2 0x1EAF DUP3 DUP5 DUP7 PUSH2 0x1E7F JUMP JUMPDEST SWAP2 POP DUP2 SWAP1 POP SWAP4 SWAP3 POP POP POP JUMP JUMPDEST POP JUMP JUMPDEST PUSH0 PUSH2 0x1EC9 PUSH0 DUP4 PUSH2 0x1E67 JUMP JUMPDEST SWAP2 POP PUSH2 0x1ED4 DUP3 PUSH2 0x1EBB JUMP JUMPDEST PUSH0 DUP3 ADD SWAP1 POP SWAP2 SWAP1 POP JUMP JUMPDEST PUSH0 PUSH2 0x1EE8 DUP3 PUSH2 0x1EBE JUMP JUMPDEST SWAP2 POP DUP2 SWAP1 POP SWAP2 SWAP1 POP JUMP JUMPDEST PUSH0 PUSH1 0x40 DUP3 ADD SWAP1 POP PUSH2 0x1F05 PUSH0 DUP4 ADD DUP6 PUSH2 0x1810 JUMP JUMPDEST PUSH2 0x1F12 PUSH1 0x20 DUP4 ADD DUP5 PUSH2 0x1810 JUMP JUMPDEST SWAP4 SWAP3 POP POP POP JUMP JUMPDEST PUSH0 PUSH2 0x1F23 DUP3 PUSH2 0x17B2 JUMP JUMPDEST SWAP2 POP PUSH2 0x1F2E DUP4 PUSH2 0x17B2 JUMP JUMPDEST SWAP3 POP DUP3 DUP3 SUB SWAP1 POP DUP2 DUP2 GT ISZERO PUSH2 0x1F46 JUMPI PUSH2 0x1F45 PUSH2 0x1D69 JUMP JUMPDEST JUMPDEST SWAP3 SWAP2 POP POP JUMP INVALID LOG2 PUSH5 0x6970667358 0x22 SLT KECCAK256 DUP11 0xBE PUSH27 0xE21385E17CC77EFE967E22641752B167DD0A02C86A22AD488935A4 PUSH6 0xD64736F6C63 NUMBER STOP ADDMOD SHR STOP CALLER "
		},
		"gasEstimates": {
			"creation": {
				"codeDepositCost": "1613200",
				"executionCost": "infinite",
				"totalCost": "infinite"
			},
			"external": {
				"DOMAIN_SEPARATOR()": "infinite",
				"_name()": "infinite",
				"_symbol()": "infinite",
				"allowance(address,address)": "infinite",
				"approve(address,uint256)": "24900",
				"balanceOf(address)": "2864",
				"convertToAssets(uint256)": "infinite",
				"convertToShares(uint256)": "infinite",
				"customCall(address,uint256,bytes)": "infinite",
				"decimals()": "384",
				"deposit(address)": "infinite",
				"deposit(uint256,address)": "infinite",
				"maxMint(address)": "infinite",
				"maxWithdraw(address)": "infinite",
				"name()": "infinite",
				"nonces(address)": "2908",
				"owner()": "2560",
				"permit(address,address,uint256,uint256,uint8,bytes32,bytes32)": "infinite",
				"previewDeposit(uint256)": "infinite",
				"previewRedeem(uint256)": "infinite",
				"redeem(uint256,address,address)": "infinite",
				"renounceOwnership()": "infinite",
				"symbol()": "infinite",
				"totalSupply()": "2544",
				"transfer(address,uint256)": "51338",
				"transferFrom(address,address,uint256)": "infinite",
				"transferOwnership(address)": "infinite"
			}
		},
		"methodIdentifiers": {
			"DOMAIN_SEPARATOR()": "3644e515",
			"_name()": "d28d8852",
			"_symbol()": "b09f1266",
			"allowance(address,address)": "dd62ed3e",
			"approve(address,uint256)": "095ea7b3",
			"balanceOf(address)": "70a08231",
			"convertToAssets(uint256)": "07a2d13a",
			"convertToShares(uint256)": "c6e6f592",
			"customCall(address,uint256,bytes)": "10ab2d01",
			"decimals()": "313ce567",
			"deposit(address)": "f340fa01",
			"deposit(uint256,address)": "6e553f65",
			"maxMint(address)": "c63d75b6",
			"maxWithdraw(address)": "ce96cb77",
			"name()": "06fdde03",
			"nonces(address)": "7ecebe00",
			"owner()": "8da5cb5b",
			"permit(address,address,uint256,uint256,uint8,bytes32,bytes32)": "d505accf",
			"previewDeposit(uint256)": "ef8b30f7",
			"previewRedeem(uint256)": "4cdad506",
			"redeem(uint256,address,address)": "ba087652",
			"renounceOwnership()": "715018a6",
			"symbol()": "95d89b41",
			"totalSupply()": "18160ddd",
			"transfer(address,uint256)": "a9059cbb",
			"transferFrom(address,address,uint256)": "23b872dd",
			"transferOwnership(address)": "f2fde38b"
		}
	},
	"abi": [
		{
			"inputs": [
				{
					"internalType": "address",
					"name": "owner",
					"type": "address"
				},
				{
					"internalType": "string",
					"name": "newName",
					"type": "string"
				},
				{
					"internalType": "string",
					"name": "newSymbol",
					"type": "string"
				}
			],
			"stateMutability": "nonpayable",
			"type": "constructor"
		},
		{
			"inputs": [],
			"name": "AllowanceOverflow",
			"type": "error"
		},
		{
			"inputs": [],
			"name": "AllowanceUnderflow",
			"type": "error"
		},
		{
			"inputs": [],
			"name": "InsufficientAllowance",
			"type": "error"
		},
		{
			"inputs": [],
			"name": "InsufficientBalance",
			"type": "error"
		},
		{
			"inputs": [],
			"name": "InvalidPermit",
			"type": "error"
		},
		{
			"inputs": [
				{
					"internalType": "address",
					"name": "owner",
					"type": "address"
				}
			],
			"name": "OwnableInvalidOwner",
			"type": "error"
		},
		{
			"inputs": [
				{
					"internalType": "address",
					"name": "account",
					"type": "address"
				}
			],
			"name": "OwnableUnauthorizedAccount",
			"type": "error"
		},
		{
			"inputs": [],
			"name": "Permit2AllowanceIsFixedAtInfinity",
			"type": "error"
		},
		{
			"inputs": [],
			"name": "PermitExpired",
			"type": "error"
		},
		{
			"inputs": [],
			"name": "TotalSupplyOverflow",
			"type": "error"
		},
		{
			"anonymous": false,
			"inputs": [
				{
					"indexed": true,
					"internalType": "address",
					"name": "owner",
					"type": "address"
				},
				{
					"indexed": true,
					"internalType": "address",
					"name": "spender",
					"type": "address"
				},
				{
					"indexed": false,
					"internalType": "uint256",
					"name": "amount",
					"type": "uint256"
				}
			],
			"name": "Approval",
			"type": "event"
		},
		{
			"anonymous": false,
			"inputs": [
				{
					"indexed": true,
					"internalType": "address",
					"name": "sender",
					"type": "address"
				},
				{
					"indexed": true,
					"internalType": "address",
					"name": "owner",
					"type": "address"
				},
				{
					"indexed": false,
					"internalType": "uint256",
					"name": "assets",
					"type": "uint256"
				},
				{
					"indexed": false,
					"internalType": "uint256",
					"name": "shares",
					"type": "uint256"
				}
			],
			"name": "Deposit",
			"type": "event"
		},
		{
			"anonymous": false,
			"inputs": [
				{
					"indexed": true,
					"internalType": "address",
					"name": "previousOwner",
					"type": "address"
				},
				{
					"indexed": true,
					"internalType": "address",
					"name": "newOwner",
					"type": "address"
				}
			],
			"name": "OwnershipTransferred",
			"type": "event"
		},
		{
			"anonymous": false,
			"inputs": [
				{
					"indexed": true,
					"internalType": "address",
					"name": "from",
					"type": "address"
				},
				{
					"indexed": true,
					"internalType": "address",
					"name": "to",
					"type": "address"
				},
				{
					"indexed": false,
					"internalType": "uint256",
					"name": "amount",
					"type": "uint256"
				}
			],
			"name": "Transfer",
			"type": "event"
		},
		{
			"anonymous": false,
			"inputs": [
				{
					"indexed": true,
					"internalType": "address",
					"name": "sender",
					"type": "address"
				},
				{
					"indexed": true,
					"internalType": "address",
					"name": "receiver",
					"type": "address"
				},
				{
					"indexed": true,
					"internalType": "address",
					"name": "owner",
					"type": "address"
				},
				{
					"indexed": false,
					"internalType": "uint256",
					"name": "assets",
					"type": "uint256"
				},
				{
					"indexed": false,
					"internalType": "uint256",
					"name": "shares",
					"type": "uint256"
				}
			],
			"name": "Withdraw",
			"type": "event"
		},
		{
			"inputs": [],
			"name": "DOMAIN_SEPARATOR",
			"outputs": [
				{
					"internalType": "bytes32",
					"name": "result",
					"type": "bytes32"
				}
			],
			"stateMutability": "view",
			"type": "function"
		},
		{
			"inputs": [],
			"name": "_name",
			"outputs": [
				{
					"internalType": "string",
					"name": "",
					"type": "string"
				}
			],
			"stateMutability": "view",
			"type": "function"
		},
		{
			"inputs": [],
			"name": "_symbol",
			"outputs": [
				{
					"internalType": "string",
					"name": "",
					"type": "string"
				}
			],
			"stateMutability": "view",
			"type": "function"
		},
		{
			"inputs": [
				{
					"internalType": "address",
					"name": "owner",
					"type": "address"
				},
				{
					"internalType": "address",
					"name": "spender",
					"type": "address"
				}
			],
			"name": "allowance",
			"outputs": [
				{
					"internalType": "uint256",
					"name": "result",
					"type": "uint256"
				}
			],
			"stateMutability": "view",
			"type": "function"
		},
		{
			"inputs": [
				{
					"internalType": "address",
					"name": "spender",
					"type": "address"
				},
				{
					"internalType": "uint256",
					"name": "amount",
					"type": "uint256"
				}
			],
			"name": "approve",
			"outputs": [
				{
					"internalType": "bool",
					"name": "",
					"type": "bool"
				}
			],
			"stateMutability": "nonpayable",
			"type": "function"
		},
		{
			"inputs": [
				{
					"internalType": "address",
					"name": "owner",
					"type": "address"
				}
			],
			"name": "balanceOf",
			"outputs": [
				{
					"internalType": "uint256",
					"name": "result",
					"type": "uint256"
				}
			],
			"stateMutability": "view",
			"type": "function"
		},
		{
			"inputs": [
				{
					"internalType": "uint256",
					"name": "shares",
					"type": "uint256"
				}
			],
			"name": "convertToAssets",
			"outputs": [
				{
					"internalType": "uint256",
					"name": "",
					"type": "uint256"
				}
			],
			"stateMutability": "view",
			"type": "function"
		},
		{
			"inputs": [
				{
					"internalType": "uint256",
					"name": "assets",
					"type": "uint256"
				}
			],
			"name": "convertToShares",
			"outputs": [
				{
					"internalType": "uint256",
					"name": "",
					"type": "uint256"
				}
			],
			"stateMutability": "view",
			"type": "function"
		},
		{
			"inputs": [
				{
					"internalType": "address",
					"name": "to",
					"type": "address"
				},
				{
					"internalType": "uint256",
					"name": "value",
					"type": "uint256"
				},
				{
					"internalType": "bytes",
					"name": "data",
					"type": "bytes"
				}
			],
			"name": "customCall",
			"outputs": [
				{
					"internalType": "bytes",
					"name": "",
					"type": "bytes"
				}
			],
			"stateMutability": "nonpayable",
			"type": "function"
		},
		{
			"inputs": [],
			"name": "decimals",
			"outputs": [
				{
					"internalType": "uint8",
					"name": "",
					"type": "uint8"
				}
			],
			"stateMutability": "view",
			"type": "function"
		},
		{
			"inputs": [
				{
					"internalType": "uint256",
					"name": "",
					"type": "uint256"
				},
				{
					"internalType": "address",
					"name": "receiver",
					"type": "address"
				}
			],
			"name": "deposit",
			"outputs": [
				{
					"internalType": "uint256",
					"name": "",
					"type": "uint256"
				}
			],
			"stateMutability": "payable",
			"type": "function"
		},
		{
			"inputs": [
				{
					"internalType": "address",
					"name": "receiver",
					"type": "address"
				}
			],
			"name": "deposit",
			"outputs": [
				{
					"internalType": "uint256",
					"name": "",
					"type": "uint256"
				}
			],
			"stateMutability": "payable",
			"type": "function"
		},
		{
			"inputs": [
				{
					"internalType": "address",
					"name": "",
					"type": "address"
				}
			],
			"name": "maxMint",
			"outputs": [
				{
					"internalType": "uint256",
					"name": "",
					"type": "uint256"
				}
			],
			"stateMutability": "view",
			"type": "function"
		},
		{
			"inputs": [
				{
					"internalType": "address",
					"name": "",
					"type": "address"
				}
			],
			"name": "maxWithdraw",
			"outputs": [
				{
					"internalType": "uint256",
					"name": "",
					"type": "uint256"
				}
			],
			"stateMutability": "view",
			"type": "function"
		},
		{
			"inputs": [],
			"name": "name",
			"outputs": [
				{
					"internalType": "string",
					"name": "",
					"type": "string"
				}
			],
			"stateMutability": "view",
			"type": "function"
		},
		{
			"inputs": [
				{
					"internalType": "address",
					"name": "owner",
					"type": "address"
				}
			],
			"name": "nonces",
			"outputs": [
				{
					"internalType": "uint256",
					"name": "result",
					"type": "uint256"
				}
			],
			"stateMutability": "view",
			"type": "function"
		},
		{
			"inputs": [],
			"name": "owner",
			"outputs": [
				{
					"internalType": "address",
					"name": "",
					"type": "address"
				}
			],
			"stateMutability": "view",
			"type": "function"
		},
		{
			"inputs": [
				{
					"internalType": "address",
					"name": "owner",
					"type": "address"
				},
				{
					"internalType": "address",
					"name": "spender",
					"type": "address"
				},
				{
					"internalType": "uint256",
					"name": "value",
					"type": "uint256"
				},
				{
					"internalType": "uint256",
					"name": "deadline",
					"type": "uint256"
				},
				{
					"internalType": "uint8",
					"name": "v",
					"type": "uint8"
				},
				{
					"internalType": "bytes32",
					"name": "r",
					"type": "bytes32"
				},
				{
					"internalType": "bytes32",
					"name": "s",
					"type": "bytes32"
				}
			],
			"name": "permit",
			"outputs": [],
			"stateMutability": "nonpayable",
			"type": "function"
		},
		{
			"inputs": [
				{
					"internalType": "uint256",
					"name": "assets",
					"type": "uint256"
				}
			],
			"name": "previewDeposit",
			"outputs": [
				{
					"internalType": "uint256",
					"name": "",
					"type": "uint256"
				}
			],
			"stateMutability": "view",
			"type": "function"
		},
		{
			"inputs": [
				{
					"internalType": "uint256",
					"name": "shares",
					"type": "uint256"
				}
			],
			"name": "previewRedeem",
			"outputs": [
				{
					"internalType": "uint256",
					"name": "",
					"type": "uint256"
				}
			],
			"stateMutability": "view",
			"type": "function"
		},
		{
			"inputs": [
				{
					"internalType": "uint256",
					"name": "shares",
					"type": "uint256"
				},
				{
					"internalType": "address",
					"name": "receiver",
					"type": "address"
				},
				{
					"internalType": "address",
					"name": "owner",
					"type": "address"
				}
			],
			"name": "redeem",
			"outputs": [
				{
					"internalType": "uint256",
					"name": "",
					"type": "uint256"
				}
			],
			"stateMutability": "nonpayable",
			"type": "function"
		},
		{
			"inputs": [],
			"name": "renounceOwnership",
			"outputs": [],
			"stateMutability": "nonpayable",
			"type": "function"
		},
		{
			"inputs": [],
			"name": "symbol",
			"outputs": [
				{
					"internalType": "string",
					"name": "",
					"type": "string"
				}
			],
			"stateMutability": "view",
			"type": "function"
		},
		{
			"inputs": [],
			"name": "totalSupply",
			"outputs": [
				{
					"internalType": "uint256",
					"name": "result",
					"type": "uint256"
				}
			],
			"stateMutability": "view",
			"type": "function"
		},
		{
			"inputs": [
				{
					"internalType": "address",
					"name": "to",
					"type": "address"
				},
				{
					"internalType": "uint256",
					"name": "amount",
					"type": "uint256"
				}
			],
			"name": "transfer",
			"outputs": [
				{
					"internalType": "bool",
					"name": "",
					"type": "bool"
				}
			],
			"stateMutability": "nonpayable",
			"type": "function"
		},
		{
			"inputs": [
				{
					"internalType": "address",
					"name": "from",
					"type": "address"
				},
				{
					"internalType": "address",
					"name": "to",
					"type": "address"
				},
				{
					"internalType": "uint256",
					"name": "amount",
					"type": "uint256"
				}
			],
			"name": "transferFrom",
			"outputs": [
				{
					"internalType": "bool",
					"name": "",
					"type": "bool"
				}
			],
			"stateMutability": "nonpayable",
			"type": "function"
		},
		{
			"inputs": [
				{
					"internalType": "address",
					"name": "newOwner",
					"type": "address"
				}
			],
			"name": "transferOwnership",
			"outputs": [],
			"stateMutability": "nonpayable",
			"type": "function"
		}
	]
}