{
	"data": {
		"bytecode": {
			"linkReferences": {},
			"object": "6080604052348015600e575f5ffd5b50614d2c8061001c5f395ff3fe608060405260043610610033575f3560e01c806354b7822d14610037578063aeb3c9da14610072578063f5e4fd0414610085575b5f5ffd5b348015610042575f5ffd5b5061005661005136600461039f565b610098565b6040516001600160a01b03909116815260200160405180910390f35b6100566100803660046104b3565b610116565b6100566100933660046104ed565b610209565b5f3383836040516100a8906102e6565b6100b49392919061054d565b604051809103905ff0801580156100cd573d5f5f3e3d5ffd5b506040516001600160a01b038216815290915033907f4241302c393c713e690702c4a45a57e93cef59aa8c6e2358495853b3420551d8906020015b60405180910390a292915050565b5f8383604051610125906102f3565b61013092919061058c565b604051809103905ff080158015610149573d5f5f3e3d5ffd5b50604051638a48b2a560e01b8152600481018490523360248201529091506001600160a01b03821690638a48b2a590349060440160206040518083038185885af1158015610199573d5f5f3e3d5ffd5b50505050506040513d601f19601f820116820180604052508101906101be91906105f5565b50836001600160a01b03167f06fc7cf1e0f623f7dd376e8cf16d9e0239eef38dd0252024d3fc65c3102aaa1682856040516101fa92919061058c565b60405180910390a29392505050565b5f8282604051610218906102f3565b61022392919061058c565b604051809103905ff08015801561023c573d5f5f3e3d5ffd5b5060405163c1a4845f60e01b81523360048201529091506001600160a01b0382169063c1a4845f90349060240160206040518083038185885af1158015610285573d5f5f3e3d5ffd5b50505050506040513d601f19601f820116820180604052508101906102aa91906105f5565b50826001600160a01b03167f06fc7cf1e0f623f7dd376e8cf16d9e0239eef38dd0252024d3fc65c3102aaa16828460405161010892919061058c565b611f718061060d83390190565b6127798061257e83390190565b634e487b7160e01b5f52604160045260245ffd5b5f82601f830112610323575f5ffd5b813567ffffffffffffffff81111561033d5761033d610300565b604051601f8201601f19908116603f0116810167ffffffffffffffff8111828210171561036c5761036c610300565b604052818152838201602001851015610383575f5ffd5b816020850160208301375f918101602001919091529392505050565b5f5f604083850312156103b0575f5ffd5b823567ffffffffffffffff8111156103c6575f5ffd5b6103d285828601610314565b925050602083013567ffffffffffffffff8111156103ee575f5ffd5b6103fa85828601610314565b9150509250929050565b80356001600160a01b038116811461041a575f5ffd5b919050565b80356001600160801b038116811461041a575f5ffd5b5f60808284031215610445575f5ffd5b6040516080810167ffffffffffffffff8111828210171561046857610468610300565b6040529050806104778361041f565b81526104856020840161041f565b60208201526104966040840161041f565b60408201526104a76060840161041f565b60608201525092915050565b5f5f5f60c084860312156104c5575f5ffd5b6104ce84610404565b92506104dd8560208601610435565b915060a084013590509250925092565b5f5f60a083850312156104fe575f5ffd5b61050783610404565b91506105168460208501610435565b90509250929050565b5f81518084528060208401602086015e5f602082860101526020601f19601f83011685010191505092915050565b6001600160a01b03841681526060602082018190525f906105709083018561051f565b8281036040840152610582818561051f565b9695505050505050565b6001600160a01b038316815260a081016105ee60208301846001600160801b0381511682526001600160801b0360208201511660208301526001600160801b0360408201511660408301526001600160801b0360608201511660608301525050565b9392505050565b5f60208284031215610605575f5ffd5b505191905056fe610140604052425f5542600155348015610017575f5ffd5b50604051611f71380380611f7183398101604081905261003691610221565b82604051806080016040528062015180670de0b6b3a764000061005991906102a3565b6001600160801b03168152670de0b6b3a7640000602082015260400161008a6201518067016345785d8a00006102a3565b6001600160801b03908116825267016345785d8a0000602092830152306080528251811660a05290820151811660c0526040820151811660e05260609091015116610100526001600160a01b0381166100fc57604051631e4fbdf760e01b81525f600482015260240160405180910390fd5b61010581610133565b5060036101128382610361565b508151602083012061012052600461012a8282610361565b5050505061041b565b600280546001600160a01b038381166001600160a01b0319831681179093556040519116919082907f8be0079c531659141344cd1fd0a4f28419497f9722a3daafe3b4186f6b6457e0905f90a35050565b634e487b7160e01b5f52604160045260245ffd5b5f82601f8301126101a7575f5ffd5b81516001600160401b038111156101c0576101c0610184565b604051601f8201601f19908116603f011681016001600160401b03811182821017156101ee576101ee610184565b604052818152838201602001851015610205575f5ffd5b8160208501602083015e5f918101602001919091529392505050565b5f5f5f60608486031215610233575f5ffd5b83516001600160a01b0381168114610249575f5ffd5b60208501519093506001600160401b03811115610264575f5ffd5b61027086828701610198565b604086015190935090506001600160401b0381111561028d575f5ffd5b61029986828701610198565b9150509250925092565b5f6001600160801b038316806102c757634e487b7160e01b5f52601260045260245ffd5b6001600160801b03929092169190910492915050565b600181811c908216806102f157607f821691505b60208210810361030f57634e487b7160e01b5f52602260045260245ffd5b50919050565b601f82111561035c57805f5260205f20601f840160051c8101602085101561033a5750805b601f840160051c820191505b81811015610359575f8155600101610346565b50505b505050565b81516001600160401b0381111561037a5761037a610184565b61038e8161038884546102dd565b84610315565b6020601f8211600181146103c0575f83156103a95750848201515b5f19600385901b1c1916600184901b178455610359565b5f84815260208120601f198516915b828110156103ef57878501518255602094850194600190920191016103cf565b508482101561040c57868401515f19600387901b60f8161c191681555b50505050600190811b01905550565b60805160a05160c05160e0516101005161012051611aa66104cb5f395f81816106d501528181610b050152610f1e01525f81816102320152610c4601525f81816104bf01528181610e52015261146601525f81816105230152610bb301525f818161073b015281816112a901526113ba01525f81816103b1015281816108f10152818161094e01528181610c9401528181610ceb015281816110e7015281816111db01526113160152611aa65ff3fe60806040526004361061021d575f3560e01c80637ecebe001161011e578063be45fd62116100a8578063f172a4ce1161006d578063f172a4ce146106c4578063f2fde38b146106f7578063f4d0bd7214610716578063f86329e11461072a578063fc0285231461075d575f5ffd5b8063be45fd621461061f578063d505accf1461063e578063dd62ed3e1461065d578063e46dbd0714610691578063e5aca599146106a5575f5ffd5b806394ef2103116100ee57806394ef21031461059a57806395d89b41146105b9578063a9059cbb146105cd578063b3841f26146105ec578063b3ca7f2a1461060b575f5ffd5b80637ecebe00146104e157806382e3d8bd146105125780638943ec02146105455780638da5cb5b1461057d575f5ffd5b8063313ce567116101aa5780636263913c1161016f5780636263913c1461042957806370a0823114610448578063715018a6146104795780637b383f181461048f5780637cc27b40146104ae575f5ffd5b8063313ce567146103715780633644e5151461038c57806338d52e0f146103a05780634206abe9146103eb5780636032f6001461040a575f5ffd5b806312958a6b116101f057806312958a6b146102ee57806317b311671461030f57806318160ddd1461032e578063223ecf7e1461034a57806323b872dd14610352575f5ffd5b8063058d15731461022157806306fdde0314610271578063095ea7b31461029257806310ab2d01146102c1575b5f5ffd5b34801561022c575f5ffd5b506102547f000000000000000000000000000000000000000000000000000000000000000081565b6040516001600160801b0390911681526020015b60405180910390f35b34801561027c575f5ffd5b5061028561077c565b60405161026891906115f3565b34801561029d575f5ffd5b506102b16102ac366004611619565b61080c565b6040519015158152602001610268565b3480156102cc575f5ffd5b506102e06102db366004611643565b61085c565b6040516102689291906116c8565b6103016102fc3660046116e2565b6108cf565b604051908152602001610268565b34801561031a575f5ffd5b506103016103293660046116fd565b6108ea565b348015610339575f5ffd5b506805345cdf77eb68f44c54610301565b610301610a4e565b34801561035d575f5ffd5b506102b161036c36600461173c565b610a5d565b34801561037c575f5ffd5b5060405160128152602001610268565b348015610397575f5ffd5b50610301610b02565b3480156103ab575f5ffd5b506103d37f000000000000000000000000000000000000000000000000000000000000000081565b6040516001600160a01b039091168152602001610268565b3480156103f6575f5ffd5b5061030161040536600461177a565b610ba4565b348015610415575f5ffd5b5061030161042436600461177a565b610c06565b348015610434575f5ffd5b506103016104433660046117a7565b610c11565b348015610453575f5ffd5b506103016104623660046116e2565b6387a211a2600c9081525f91909152602090205490565b348015610484575f5ffd5b5061048d610c24565b005b34801561049a575f5ffd5b506103016104a936600461177a565b610c37565b3480156104b9575f5ffd5b506102547f000000000000000000000000000000000000000000000000000000000000000081565b3480156104ec575f5ffd5b506103016104fb3660046116e2565b6338377508600c9081525f91909152602090205490565b34801561051d575f5ffd5b506102547f000000000000000000000000000000000000000000000000000000000000000081565b348015610550575f5ffd5b5061056461055f366004611643565b610c88565b6040516001600160e01b03199091168152602001610268565b348015610588575f5ffd5b506002546001600160a01b03166103d3565b3480156105a5575f5ffd5b506103016105b43660046117d2565b610ce0565b3480156105c4575f5ffd5b50610285610dbc565b3480156105d8575f5ffd5b506102b16105e7366004611619565b610dcb565b3480156105f7575f5ffd5b5061030161060636600461180e565b610e2f565b348015610616575f5ffd5b50610301610e4f565b34801561062a575f5ffd5b506102b1610639366004611643565b610e92565b348015610649575f5ffd5b5061048d61065836600461184c565b610f1c565b348015610668575f5ffd5b506103016106773660046118b6565b602052637f5e9f20600c9081525f91909152603490205490565b34801561069c575f5ffd5b506103015f5481565b3480156106b0575f5ffd5b506103016106bf3660046116fd565b6110c6565b3480156106cf575f5ffd5b506103017f000000000000000000000000000000000000000000000000000000000000000081565b348015610702575f5ffd5b5061048d6107113660046116e2565b611264565b348015610721575f5ffd5b506103016112a6565b348015610735575f5ffd5b506102547f000000000000000000000000000000000000000000000000000000000000000081565b348015610768575f5ffd5b506103016107773660046116fd565b6112de565b60606003805461078b906118e2565b80601f01602080910402602001604051908101604052809291908181526020018280546107b7906118e2565b80156108025780601f106107d957610100808354040283529160200191610802565b820191905f5260205f20905b8154815290600101906020018083116107e557829003601f168201915b5050505050905090565b5f82602052637f5e9f20600c52335f52816034600c2055815f52602c5160601c337f8c5be1e5ebec7d5bd14f71427d1e84f3dd0314c0f7b2291e5b200ac8c7c3b92560205fa35060015b92915050565b5f6060610867611380565b856001600160a01b0316858585604051610882929190611914565b5f6040518083038185875af1925050503d805f81146108bc576040519150601f19603f3d011682016040523d82523d5f602084013e6108c1565b606091505b509150915094509492505050565b5f6108d934610c37565b90506108e582826113ad565b919050565b5f5f4790507f00000000000000000000000000000000000000000000000000000000000000006001600160a01b0316856001600160a01b0316146109ba5760405163095ea7b360e01b81526001600160a01b038681166004830152602482018690527f0000000000000000000000000000000000000000000000000000000000000000169063095ea7b3906044016020604051808303815f875af1158015610994573d5f5f3e3d5ffd5b505050506040513d601f19601f820116820180604052508101906109b89190611923565b505b6040516230197b60e91b8152600481018590526001600160a01b03861690636032f600906024016020604051808303815f875af11580156109fd573d5f5f3e3d5ffd5b505050506040513d601f19601f82011682018060405250810190610a219190611942565b5083610a306104a9834761196d565b610a3a919061196d565b9150610a4683836113ad565b509392505050565b5f610a58336108cf565b905090565b5f8360601b33602052637f5e9f208117600c526034600c208054801915610a995780851115610a93576313be252b5f526004601cfd5b84810382555b50506387a211a28117600c526020600c20805480851115610ac15763f4d678b85f526004601cfd5b84810382555050835f526020600c208381540181555082602052600c5160601c8160601c5f516020611a515f395f51905f52602080a3505060019392505050565b5f7f000000000000000000000000000000000000000000000000000000000000000080610b3b57610b3161077c565b8051906020012090505b604080517f8b73c3c69bb8fe3d512ecc4cf759cc79239f7b179b0ffacaa9a75d522b39400f815260208101929092527fc89efdaa54c0f20c7adf612882df0950f5a951637e0307cdcb4c672f298b8bc69082015246606082015230608082015260a09020919050565b5f610bd8826001600160801b037f000000000000000000000000000000000000000000000000000000000000000016611980565b82610be1610e4f565b610beb9190611993565b610bf591906119aa565b9050804710156108e5575047919050565b5f6108568233610e2f565b5f610c1d833384610ce0565b9392505050565b610c2c611380565b610c355f611408565b565b5f610c6b826001600160801b037f000000000000000000000000000000000000000000000000000000000000000016611980565b82610c746112a6565b610c7e9190611993565b61085691906119aa565b5f336001600160a01b037f00000000000000000000000000000000000000000000000000000000000000001614610cbd575f5ffd5b610ccf85610cca86610ba4565b611459565b506344a1f60160e11b949350505050565b5f6001600160a01b037f00000000000000000000000000000000000000000000000000000000000000001663d505accf3330878635610d256040890160208a016119c9565b604080516001600160e01b031960e089901b1681526001600160a01b0396871660048201529590941660248601526044850192909252606484015260ff16608483015285013560a4820152606085013560c482015260e4015f604051808303815f87803b158015610d94575f5ffd5b505af1158015610da6573d5f5f3e3d5ffd5b50505050610db48484610e2f565b949350505050565b60606004805461078b906118e2565b5f6387a211a2600c52335f526020600c20805480841115610df35763f4d678b85f526004601cfd5b83810382555050825f526020600c208281540181555081602052600c5160601c335f516020611a515f395f51905f52602080a350600192915050565b5f610e3983610ba4565b9050610e4533846114fb565b6108568282611459565b5f7f00000000000000000000000000000000000000000000000000000000000000006001600160801b031660015442610e88919061196d565b610a589190611993565b5f610e9d8585610dcb565b506040516344a1f60160e11b81526001600160a01b03861690638943ec0290610ed09033908890889088906004016119e2565b6020604051808303815f875af1158015610eec573d5f5f3e3d5ffd5b505050506040513d601f19601f82011682018060405250810190610f109190611a29565b50600195945050505050565b7f000000000000000000000000000000000000000000000000000000000000000080610f5457610f4a61077c565b8051906020012090505b7fc89efdaa54c0f20c7adf612882df0950f5a951637e0307cdcb4c672f298b8bc642861015610f8a57631a15a3cc5f526004601cfd5b6040518960601b60601c99508860601b60601c985065383775081901600e52895f526020600c2080547f8b73c3c69bb8fe3d512ecc4cf759cc79239f7b179b0ffacaa9a75d522b39400f835284602084015283604084015246606084015230608084015260a08320602e527f6e71edae12b1b97f4d1f60370fef10105fa2faae0126114a169c64845d6126c983528b60208401528a60408401528960608401528060808401528860a084015260c08320604e526042602c205f528760ff16602052866040528560605260208060805f60015afa8c3d51146110725763ddafbaef5f526004601cfd5b0190556303faf4f960a51b89176040526034602c20889055888a7f8c5be1e5ebec7d5bd14f71427d1e84f3dd0314c0f7b2291e5b200ac8c7c3b925602060608501a360405250505f60605250505050505050565b6040516370a0823160e01b81523060048201525f9081906001600160a01b037f000000000000000000000000000000000000000000000000000000000000000016906370a0823190602401602060405180830381865afa15801561112c573d5f5f3e3d5ffd5b505050506040513d601f19601f820116820180604052508101906111509190611942565b9050846001600160a01b031663223ecf7e856040518263ffffffff1660e01b815260040160206040518083038185885af1158015611190573d5f5f3e3d5ffd5b50505050506040513d601f19601f820116820180604052508101906111b59190611942565b506040516370a0823160e01b8152306004820152849061124e9083906001600160a01b037f000000000000000000000000000000000000000000000000000000000000000016906370a0823190602401602060405180830381865afa158015611220573d5f5f3e3d5ffd5b505050506040513d601f19601f820116820180604052508101906112449190611942565b610405919061196d565b611258919061196d565b9150610a468383611459565b61126c611380565b6001600160a01b03811661129a57604051631e4fbdf760e01b81525f60048201526024015b60405180910390fd5b6112a381611408565b50565b5f7f00000000000000000000000000000000000000000000000000000000000000006001600160801b03165f5442610e88919061196d565b604051635f22feb160e11b81526001600160a01b03848116600483015260248201849052606060448301525f606483018190529147917f0000000000000000000000000000000000000000000000000000000000000000169063be45fd62906084016020604051808303815f875af115801561135c573d5f5f3e3d5ffd5b505050506040513d601f19601f82011682018060405250810190610a219190611923565b6002546001600160a01b03163314610c355760405163118cdaa760e01b8152336004820152602401611291565b6113e06001600160801b037f000000000000000000000000000000000000000000000000000000000000000016826119aa565b5f5f8282546113ef9190611980565b909155506113ff9050828261155c565b5050565b505050565b600280546001600160a01b038381166001600160a01b0319831681179093556040519116919082907f8be0079c531659141344cd1fd0a4f28419497f9722a3daafe3b4186f6b6457e0905f90a35050565b61148c6001600160801b037f000000000000000000000000000000000000000000000000000000000000000016826119aa565b60015f82825461149c9190611980565b90915550506040515f906001600160a01b0384169083908381818185875af1925050503d805f81146114e9576040519150601f19603f3d011682016040523d82523d5f602084013e6114ee565b606091505b5050905080611403575f5ffd5b6387a211a2600c52815f526020600c208054808311156115225763f4d678b85f526004601cfd5b82900390556805345cdf77eb68f44c805482900390555f8181526001600160a01b0383165f516020611a515f395f51905f52602083a35050565b6805345cdf77eb68f44c548181018181101561157f5763e5cfe9575f526004601cfd5b806805345cdf77eb68f44c5550506387a211a2600c52815f526020600c208181540181555080602052600c5160601c5f5f516020611a515f395f51905f52602080a35050565b5f81518084528060208401602086015e5f602082860101526020601f19601f83011685010191505092915050565b602081525f610c1d60208301846115c5565b6001600160a01b03811681146112a3575f5ffd5b5f5f6040838503121561162a575f5ffd5b823561163581611605565b946020939093013593505050565b5f5f5f5f60608587031215611656575f5ffd5b843561166181611605565b935060208501359250604085013567ffffffffffffffff811115611683575f5ffd5b8501601f81018713611693575f5ffd5b803567ffffffffffffffff8111156116a9575f5ffd5b8760208284010111156116ba575f5ffd5b949793965060200194505050565b8215158152604060208201525f610db460408301846115c5565b5f602082840312156116f2575f5ffd5b8135610c1d81611605565b5f5f5f6060848603121561170f575f5ffd5b833561171a81611605565b925060208401359150604084013561173181611605565b809150509250925092565b5f5f5f6060848603121561174e575f5ffd5b833561175981611605565b9250602084013561176981611605565b929592945050506040919091013590565b5f6020828403121561178a575f5ffd5b5035919050565b5f608082840312156117a1575f5ffd5b50919050565b5f5f60a083850312156117b8575f5ffd5b823591506117c98460208501611791565b90509250929050565b5f5f5f60c084860312156117e4575f5ffd5b8335925060208401356117f681611605565b91506118058560408601611791565b90509250925092565b5f5f6040838503121561181f575f5ffd5b82359150602083013561183181611605565b809150509250929050565b803560ff811681146108e5575f5ffd5b5f5f5f5f5f5f5f60e0888a031215611862575f5ffd5b873561186d81611605565b9650602088013561187d81611605565b955060408801359450606088013593506118996080890161183c565b9699959850939692959460a0840135945060c09093013592915050565b5f5f604083850312156118c7575f5ffd5b82356118d281611605565b9150602083013561183181611605565b600181811c908216806118f657607f821691505b6020821081036117a157634e487b7160e01b5f52602260045260245ffd5b818382375f9101908152919050565b5f60208284031215611933575f5ffd5b81518015158114610c1d575f5ffd5b5f60208284031215611952575f5ffd5b5051919050565b634e487b7160e01b5f52601160045260245ffd5b8181038181111561085657610856611959565b8082018082111561085657610856611959565b808202811582820484141761085657610856611959565b5f826119c457634e487b7160e01b5f52601260045260245ffd5b500490565b5f602082840312156119d9575f5ffd5b610c1d8261183c565b6001600160a01b0385168152602081018490526060604082018190528101829052818360808301375f818301608090810191909152601f909201601f191601019392505050565b5f60208284031215611a39575f5ffd5b81516001600160e01b031981168114610c1d575f5ffdfeddf252ad1be2c89b69c2b068fc378daa952ba7f163c4a11628f55a4df523b3efa2646970667358221220a2e9457cd744f1c9597c2b53480fc8e1f0805dcbf4824786acaaa467dc1241aa64736f6c634300081c0033610120604052425f5542600155348015610017575f5ffd5b5060405161277938038061277983398101604081905261003691610093565b6001600160a01b0390911660805280516001600160801b0390811660a0526020820151811660c0526040820151811660e052606090910151166101005261014c565b80516001600160801b038116811461008e575f5ffd5b919050565b5f5f82840360a08112156100a5575f5ffd5b83516001600160a01b03811681146100bb575f5ffd5b92506080601f19820112156100ce575f5ffd5b50604051608081016001600160401b03811182821017156100fd57634e487b7160e01b5f52604160045260245ffd5b60405261010c60208501610078565b815261011a60408501610078565b602082015261012b60608501610078565b604082015261013c60808501610078565b6060820152809150509250929050565b60805160a05160c05160e0516101005161253a61023f5f395f818161025e0152610ece01525f81816104f9015281816113750152611dd701525f818161055d0152610c4801525f818161079e01528181611bae0152611c9201525f81816103cf015281816107e3015281816108b0015281816109ac01528181610a0901528181610cef01528181610da701528181610f3201528181610fbb0152818161104301528181611101015281816111d6015281816112ee015281816114340152818161164c015281816118740152818161196801528181611a5001528181611af801528181611c1b0152611cf2015261253a5ff3fe608060405260043610610249575f3560e01c806382e3d8bd11610134578063c1a4845f116100b3578063e5aca59911610078578063e5aca59914610728578063ef8b30f714610747578063f340fa0114610766578063f4d0bd7214610779578063f86329e11461078d578063fc028523146107c0575f5ffd5b8063c1a4845f1461068d578063c6e6f592146106a0578063d505accf146106bf578063dd62ed3e146106e0578063e46dbd0714610714575f5ffd5b8063a9059cbb116100f9578063a9059cbb146105fd578063b3841f261461061c578063b3ca7f2a1461063b578063ba0876521461064f578063be45fd621461066e575f5ffd5b806382e3d8bd1461054c5780638943ec021461057f5780638a48b2a5146105b757806394ef2103146105ca57806395d89b41146105e9575f5ffd5b80633644e515116101cb5780636263913c116101905780636263913c146104665780636e553f651461048557806370a08231146104985780637b383f18146104c95780637cc27b40146104e85780637ecebe001461051b575f5ffd5b80633644e515146103aa57806338d52e0f146103be5780634206abe9146104095780634cdad506146104285780636032f60014610447575f5ffd5b806317b311671161021157806317b311671461032d57806318160ddd1461034c578063223ecf7e1461036857806323b872dd14610370578063313ce5671461038f575f5ffd5b8063058d15731461024d57806306fdde031461029d57806307a2d13a146102be578063095ea7b3146102eb57806312958a6b1461031a575b5f5ffd5b348015610258575f5ffd5b506102807f000000000000000000000000000000000000000000000000000000000000000081565b6040516001600160801b0390911681526020015b60405180910390f35b3480156102a8575f5ffd5b506102b16107df565b6040516102949190611f0c565b3480156102c9575f5ffd5b506102dd6102d8366004611f41565b610887565b604051908152602001610294565b3480156102f6575f5ffd5b5061030a610305366004611f6f565b61093b565b6040519015158152602001610294565b6102dd610328366004611f99565b61098a565b348015610338575f5ffd5b506102dd610347366004611fb4565b6109a5565b348015610357575f5ffd5b506805345cdf77eb68f44c546102dd565b6102dd610b09565b34801561037b575f5ffd5b5061030a61038a366004611ff3565b610b18565b34801561039a575f5ffd5b5060405160128152602001610294565b3480156103b5575f5ffd5b506102dd610bbd565b3480156103c9575f5ffd5b506103f17f000000000000000000000000000000000000000000000000000000000000000081565b6040516001600160a01b039091168152602001610294565b348015610414575f5ffd5b506102dd610423366004611f41565b610c39565b348015610433575f5ffd5b506102dd610442366004611f41565b610c9b565b348015610452575f5ffd5b506102dd610461366004611f41565b610ca5565b348015610471575f5ffd5b506102dd610480366004612041565b610cb0565b6102dd61049336600461206c565b610cc3565b3480156104a3575f5ffd5b506102dd6104b2366004611f99565b6387a211a2600c9081525f91909152602090205490565b3480156104d4575f5ffd5b506102dd6104e3366004611f41565b610ebf565b3480156104f3575f5ffd5b506102807f000000000000000000000000000000000000000000000000000000000000000081565b348015610526575f5ffd5b506102dd610535366004611f99565b6338377508600c9081525f91909152602090205490565b348015610557575f5ffd5b506102807f000000000000000000000000000000000000000000000000000000000000000081565b34801561058a575f5ffd5b5061059e61059936600461209a565b610faf565b6040516001600160e01b03199091168152602001610294565b6102dd6105c536600461206c565b611007565b3480156105d5575f5ffd5b506102dd6105e436600461211f565b6110f6565b3480156105f4575f5ffd5b506102b16111d2565b348015610608575f5ffd5b5061030a610617366004611f6f565b611266565b348015610627575f5ffd5b506102dd61063636600461206c565b6112ca565b348015610646575f5ffd5b506102dd611372565b34801561065a575f5ffd5b506102dd61066936600461215b565b6113b5565b348015610679575f5ffd5b5061030a61068836600461209a565b61154e565b6102dd61069b366004611f99565b6115d8565b3480156106ab575f5ffd5b506102dd6106ba366004611f41565b611635565b3480156106ca575f5ffd5b506106de6106d936600461219f565b6116cf565b005b3480156106eb575f5ffd5b506102dd6106fa366004612209565b602052637f5e9f20600c9081525f91909152603490205490565b34801561071f575f5ffd5b506102dd5f5481565b348015610733575f5ffd5b506102dd610742366004611fb4565b611853565b348015610752575f5ffd5b506102dd610761366004611f41565b6119f1565b6102dd610774366004611f99565b6119fb565b348015610784575f5ffd5b506102dd611bab565b348015610798575f5ffd5b506102807f000000000000000000000000000000000000000000000000000000000000000081565b3480156107cb575f5ffd5b506102dd6107da366004611fb4565b611be3565b60607f00000000000000000000000000000000000000000000000000000000000000006001600160a01b03166306fdde036040518163ffffffff1660e01b81526004015f60405180830381865afa15801561083c573d5f5f3e3d5ffd5b505050506040513d5f823e601f3d908101601f191682016040526108639190810190612249565b6040516020016108739190612313565b604051602081830303815290604052905090565b5f6108996805345cdf77eb68f44c5490565b6040516370a0823160e01b815230600482015283907f00000000000000000000000000000000000000000000000000000000000000006001600160a01b0316906370a0823190602401602060405180830381865afa1580156108fd573d5f5f3e3d5ffd5b505050506040513d601f19601f820116820180604052508101906109219190612355565b61092b9190612380565b6109359190612397565b92915050565b5f82602052637f5e9f20600c52335f52816034600c2055815f52602c5160601c337f8c5be1e5ebec7d5bd14f71427d1e84f3dd0314c0f7b2291e5b200ac8c7c3b92560205fa350600192915050565b5f61099434610ebf565b90506109a08282611c85565b919050565b5f5f4790507f00000000000000000000000000000000000000000000000000000000000000006001600160a01b0316856001600160a01b031614610a755760405163095ea7b360e01b81526001600160a01b038681166004830152602482018690527f0000000000000000000000000000000000000000000000000000000000000000169063095ea7b3906044016020604051808303815f875af1158015610a4f573d5f5f3e3d5ffd5b505050506040513d601f19601f82011682018060405250810190610a7391906123b6565b505b6040516230197b60e91b8152600481018590526001600160a01b03861690636032f600906024016020604051808303815f875af1158015610ab8573d5f5f3e3d5ffd5b505050506040513d601f19601f82011682018060405250810190610adc9190612355565b5083610aeb6104e383476123d5565b610af591906123d5565b9150610b018383611c85565b509392505050565b5f610b133361098a565b905090565b5f8360601b33602052637f5e9f208117600c526034600c208054801915610b545780851115610b4e576313be252b5f526004601cfd5b84810382555b50506387a211a28117600c526020600c20805480851115610b7c5763f4d678b85f526004601cfd5b84810382555050835f526020600c208381540181555082602052600c5160601c8160601c5f5160206124c55f395f51905f52602080a3505060019392505050565b5f80610bc76107df565b805190602001209050604080517f8b73c3c69bb8fe3d512ecc4cf759cc79239f7b179b0ffacaa9a75d522b39400f815260208101929092527fc89efdaa54c0f20c7adf612882df0950f5a951637e0307cdcb4c672f298b8bc69082015246606082015230608082015260a09020919050565b5f610c6d826001600160801b037f0000000000000000000000000000000000000000000000000000000000000000166123e8565b82610c76611372565b610c809190612380565b610c8a9190612397565b9050804710156109a0575047919050565b5f61093582610887565b5f61093582336112ca565b5f610cbc8333846110f6565b9392505050565b5f610ccd836119f1565b6040516370a0823160e01b81523060048201529091505f906001600160a01b037f000000000000000000000000000000000000000000000000000000000000000016906370a0823190602401602060405180830381865afa158015610d34573d5f5f3e3d5ffd5b505050506040513d601f19601f82011682018060405250810190610d589190612355565b84610d6334476123d5565b610d6d9190612380565b610d779190612397565b90505f610d8482346123d5565b9050610d908484611d61565b6040516323b872dd60e01b81526001600160a01b037f000000000000000000000000000000000000000000000000000000000000000016906323b872dd90610de090339030908a906004016123fb565b6020604051808303815f875af1158015610dfc573d5f5f3e3d5ffd5b505050506040513d601f19601f82011682018060405250810190610e2091906123b6565b508015610e84575f846001600160a01b0316826040515f6040518083038185875af1925050503d805f8114610e70576040519150601f19603f3d011682016040523d82523d5f602084013e610e75565b606091505b5050905080610e82575f5ffd5b505b60408051868152602081018590526001600160a01b0386169133915f5160206124e55f395f51905f52910160405180910390a3505092915050565b5f610ef3826001600160801b037f0000000000000000000000000000000000000000000000000000000000000000166123e8565b82610efc611bab565b610f069190612380565b610f109190612397565b6040516370a0823160e01b81523060048201529091505f906001600160a01b037f000000000000000000000000000000000000000000000000000000000000000016906370a0823190602401602060405180830381865afa158015610f77573d5f5f3e3d5ffd5b505050506040513d601f19601f82011682018060405250810190610f9b9190612355565b905081811015610fa9578091505b50919050565b5f336001600160a01b037f00000000000000000000000000000000000000000000000000000000000000001614610fe4575f5ffd5b610ff685610ff186610c39565b611dca565b506344a1f60160e11b949350505050565b816110196805345cdf77eb68f44c5490565b15611022575f5ffd5b61102c8282611d61565b6040516323b872dd60e01b81526001600160a01b037f000000000000000000000000000000000000000000000000000000000000000016906323b872dd9061107c903390309088906004016123fb565b6020604051808303815f875af1158015611098573d5f5f3e3d5ffd5b505050506040513d601f19601f820116820180604052508101906110bc91906123b6565b5060408051848152602081018390526001600160a01b0384169133915f5160206124e55f395f51905f52910160405180910390a392915050565b5f6001600160a01b037f00000000000000000000000000000000000000000000000000000000000000001663d505accf333087863561113b6040890160208a0161241f565b604080516001600160e01b031960e089901b1681526001600160a01b0396871660048201529590941660248601526044850192909252606484015260ff16608483015285013560a4820152606085013560c482015260e4015f604051808303815f87803b1580156111aa575f5ffd5b505af11580156111bc573d5f5f3e3d5ffd5b505050506111ca84846112ca565b949350505050565b60607f00000000000000000000000000000000000000000000000000000000000000006001600160a01b03166395d89b416040518163ffffffff1660e01b81526004015f60405180830381865afa15801561122f573d5f5f3e3d5ffd5b505050506040513d5f823e601f3d908101601f191682016040526112569190810190612249565b6040516020016108739190612438565b5f6387a211a2600c52335f526020600c2080548084111561128e5763f4d678b85f526004601cfd5b83810382555050825f526020600c208281540181555081602052600c5160601c335f5160206124c55f395f51905f52602080a350600192915050565b5f6112d483610c39565b6040516323b872dd60e01b81529091506001600160a01b037f000000000000000000000000000000000000000000000000000000000000000016906323b872dd90611327903390309088906004016123fb565b6020604051808303815f875af1158015611343573d5f5f3e3d5ffd5b505050506040513d601f19601f8201168201806040525081019061136791906123b6565b506109358282611dca565b5f7f00000000000000000000000000000000000000000000000000000000000000006001600160801b0316600154426113ab91906123d5565b610b139190612380565b5f6113bf84610c9b565b9050336001600160a01b038316146113dc576113dc823386611e6c565b5f6113ee6805345cdf77eb68f44c5490565b6113f88647612380565b6114029190612397565b905061140e8386611eab565b60405163a9059cbb60e01b81526001600160a01b038581166004830152602482018490527f0000000000000000000000000000000000000000000000000000000000000000169063a9059cbb906044016020604051808303815f875af115801561147a573d5f5f3e3d5ffd5b505050506040513d601f19601f8201168201806040525081019061149e91906123b6565b505f846001600160a01b0316826040515f6040518083038185875af1925050503d805f81146114e8576040519150601f19603f3d011682016040523d82523d5f602084013e6114ed565b606091505b50509050806114fa575f5ffd5b60408051848152602081018890526001600160a01b03808716929088169133917ffbde797d201c681b91056529119e0b02407c7bb96a4a2c75c01fc9667232c8db910160405180910390a450509392505050565b5f6115598585611266565b506040516344a1f60160e11b81526001600160a01b03861690638943ec029061158c903390889088908890600401612456565b6020604051808303815f875af11580156115a8573d5f5f3e3d5ffd5b505050506040513d601f19601f820116820180604052508101906115cc919061249d565b50600195945050505050565b346115ea6805345cdf77eb68f44c5490565b156115f3575f5ffd5b6115fd8282611d61565b604080515f8152602081018390526001600160a01b0384169133915f5160206124e55f395f51905f52910160405180910390a3919050565b6040516370a0823160e01b81523060048201525f907f00000000000000000000000000000000000000000000000000000000000000006001600160a01b0316906370a0823190602401602060405180830381865afa158015611699573d5f5f3e3d5ffd5b505050506040513d601f19601f820116820180604052508101906116bd9190612355565b826109216805345cdf77eb68f44c5490565b5f6116d86107df565b8051906020012090507fc89efdaa54c0f20c7adf612882df0950f5a951637e0307cdcb4c672f298b8bc64286101561171757631a15a3cc5f526004601cfd5b6040518960601b60601c99508860601b60601c985065383775081901600e52895f526020600c2080547f8b73c3c69bb8fe3d512ecc4cf759cc79239f7b179b0ffacaa9a75d522b39400f835284602084015283604084015246606084015230608084015260a08320602e527f6e71edae12b1b97f4d1f60370fef10105fa2faae0126114a169c64845d6126c983528b60208401528a60408401528960608401528060808401528860a084015260c08320604e526042602c205f528760ff16602052866040528560605260208060805f60015afa8c3d51146117ff5763ddafbaef5f526004601cfd5b0190556303faf4f960a51b89176040526034602c20889055888a7f8c5be1e5ebec7d5bd14f71427d1e84f3dd0314c0f7b2291e5b200ac8c7c3b925602060608501a360405250505f60605250505050505050565b6040516370a0823160e01b81523060048201525f9081906001600160a01b037f000000000000000000000000000000000000000000000000000000000000000016906370a0823190602401602060405180830381865afa1580156118b9573d5f5f3e3d5ffd5b505050506040513d601f19601f820116820180604052508101906118dd9190612355565b9050846001600160a01b031663223ecf7e856040518263ffffffff1660e01b815260040160206040518083038185885af115801561191d573d5f5f3e3d5ffd5b50505050506040513d601f19601f820116820180604052508101906119429190612355565b506040516370a0823160e01b815230600482015284906119db9083906001600160a01b037f000000000000000000000000000000000000000000000000000000000000000016906370a0823190602401602060405180830381865afa1580156119ad573d5f5f3e3d5ffd5b505050506040513d601f19601f820116820180604052508101906119d19190612355565b61042391906123d5565b6119e591906123d5565b9150610b018383611dca565b5f61093582611635565b5f611a0634476123d5565b34611a186805345cdf77eb68f44c5490565b611a229190612380565b611a2c9190612397565b90505f611a3934476123d5565b6040516370a0823160e01b815230600482015234907f00000000000000000000000000000000000000000000000000000000000000006001600160a01b0316906370a0823190602401602060405180830381865afa158015611a9d573d5f5f3e3d5ffd5b505050506040513d601f19601f82011682018060405250810190611ac19190612355565b611acb9190612380565b611ad59190612397565b9050611ae18383611d61565b6040516323b872dd60e01b81526001600160a01b037f000000000000000000000000000000000000000000000000000000000000000016906323b872dd90611b31903390309086906004016123fb565b6020604051808303815f875af1158015611b4d573d5f5f3e3d5ffd5b505050506040513d601f19601f82011682018060405250810190611b7191906123b6565b5060408051828152602081018490526001600160a01b0385169133915f5160206124e55f395f51905f52910160405180910390a350919050565b5f7f00000000000000000000000000000000000000000000000000000000000000006001600160801b03165f54426113ab91906123d5565b604051635f22feb160e11b81526001600160a01b03848116600483015260248201849052606060448301525f606483018190529147917f0000000000000000000000000000000000000000000000000000000000000000169063be45fd62906084016020604051808303815f875af1158015611c61573d5f5f3e3d5ffd5b505050506040513d601f19601f82011682018060405250810190610adc91906123b6565b611cb86001600160801b037f00000000000000000000000000000000000000000000000000000000000000001682612397565b5f5f828254611cc791906123e8565b909155505060405163a9059cbb60e01b81526001600160a01b038381166004830152602482018390527f0000000000000000000000000000000000000000000000000000000000000000169063a9059cbb906044016020604051808303815f875af1158015611d38573d5f5f3e3d5ffd5b505050506040513d601f19601f82011682018060405250810190611d5c91906123b6565b505050565b6805345cdf77eb68f44c5481810181811015611d845763e5cfe9575f526004601cfd5b806805345cdf77eb68f44c5550506387a211a2600c52815f526020600c208181540181555080602052600c5160601c5f5f5160206124c55f395f51905f52602080a35050565b611dfd6001600160801b037f00000000000000000000000000000000000000000000000000000000000000001682612397565b60015f828254611e0d91906123e8565b90915550506040515f906001600160a01b0384169083908381818185875af1925050503d805f8114611e5a576040519150601f19603f3d011682016040523d82523d5f602084013e611e5f565b606091505b5050905080611d5c575f5ffd5b81602052637f5e9f20600c52825f526034600c208054801915611ea45780831115611e9e576313be252b5f526004601cfd5b82810382555b5050505050565b6387a211a2600c52815f526020600c20805480831115611ed25763f4d678b85f526004601cfd5b82900390556805345cdf77eb68f44c805482900390555f8181526001600160a01b0383165f5160206124c55f395f51905f52602083a35050565b602081525f82518060208401528060208501604085015e5f604082850101526040601f19601f83011684010191505092915050565b5f60208284031215611f51575f5ffd5b5035919050565b6001600160a01b0381168114611f6c575f5ffd5b50565b5f5f60408385031215611f80575f5ffd5b8235611f8b81611f58565b946020939093013593505050565b5f60208284031215611fa9575f5ffd5b8135610cbc81611f58565b5f5f5f60608486031215611fc6575f5ffd5b8335611fd181611f58565b9250602084013591506040840135611fe881611f58565b809150509250925092565b5f5f5f60608486031215612005575f5ffd5b833561201081611f58565b9250602084013561202081611f58565b929592945050506040919091013590565b5f60808284031215610fa9575f5ffd5b5f5f60a08385031215612052575f5ffd5b823591506120638460208501612031565b90509250929050565b5f5f6040838503121561207d575f5ffd5b82359150602083013561208f81611f58565b809150509250929050565b5f5f5f5f606085870312156120ad575f5ffd5b84356120b881611f58565b935060208501359250604085013567ffffffffffffffff8111156120da575f5ffd5b8501601f810187136120ea575f5ffd5b803567ffffffffffffffff811115612100575f5ffd5b876020828401011115612111575f5ffd5b949793965060200194505050565b5f5f5f60c08486031215612131575f5ffd5b83359250602084013561214381611f58565b91506121528560408601612031565b90509250925092565b5f5f5f6060848603121561216d575f5ffd5b83359250602084013561217f81611f58565b91506040840135611fe881611f58565b803560ff811681146109a0575f5ffd5b5f5f5f5f5f5f5f60e0888a0312156121b5575f5ffd5b87356121c081611f58565b965060208801356121d081611f58565b955060408801359450606088013593506121ec6080890161218f565b9699959850939692959460a0840135945060c09093013592915050565b5f5f6040838503121561221a575f5ffd5b823561222581611f58565b9150602083013561208f81611f58565b634e487b7160e01b5f52604160045260245ffd5b5f60208284031215612259575f5ffd5b815167ffffffffffffffff81111561226f575f5ffd5b8201601f8101841361227f575f5ffd5b805167ffffffffffffffff81111561229957612299612235565b604051601f8201601f19908116603f0116810167ffffffffffffffff811182821017156122c8576122c8612235565b6040528181528282016020018610156122df575f5ffd5b8160208401602083015e5f91810160200191909152949350505050565b5f81518060208401855e5f93019283525090919050565b7f4171756974617264204c697175696469747920506f6f6c28000000000000000081525f61234460188301846122fc565b602960f81b81526001019392505050565b5f60208284031215612365575f5ffd5b5051919050565b634e487b7160e01b5f52601160045260245ffd5b80820281158282048414176109355761093561236c565b5f826123b157634e487b7160e01b5f52601260045260245ffd5b500490565b5f602082840312156123c6575f5ffd5b81518015158114610cbc575f5ffd5b818103818111156109355761093561236c565b808201808211156109355761093561236c565b6001600160a01b039384168152919092166020820152604081019190915260600190565b5f6020828403121561242f575f5ffd5b610cbc8261218f565b5f61244382846122fc565b620414c560ec1b81526003019392505050565b6001600160a01b0385168152602081018490526060604082018190528101829052818360808301375f818301608090810191909152601f909201601f191601019392505050565b5f602082840312156124ad575f5ffd5b81516001600160e01b031981168114610cbc575f5ffdfeddf252ad1be2c89b69c2b068fc378daa952ba7f163c4a11628f55a4df523b3efdcbc1c05240f31ff3ad067ef1ee35ce4997762752e3a095284754544f4c709d7a26469706673582212208294132aa6cfb249b535ac01c887ad16a47628ecd61be13dab9874949dfeecec64736f6c634300081c0033a26469706673582212209a1c7b648a6a9b2339a46809714cee59c044a0cacba608f4ce587d181364c31e64736f6c634300081c0033",
			"opcodes": "PUSH1 0x80 PUSH1 0x40 MSTORE CALLVALUE DUP1 ISZERO PUSH1 0xE JUMPI PUSH0 PUSH0 REVERT JUMPDEST POP PUSH2 0x4D2C DUP1 PUSH2 0x1C PUSH0 CODECOPY PUSH0 RETURN INVALID PUSH1 0x80 PUSH1 0x40 MSTORE PUSH1 0x4 CALLDATASIZE LT PUSH2 0x33 JUMPI PUSH0 CALLDATALOAD PUSH1 0xE0 SHR DUP1 PUSH4 0x54B7822D EQ PUSH2 0x37 JUMPI DUP1 PUSH4 0xAEB3C9DA EQ PUSH2 0x72 JUMPI DUP1 PUSH4 0xF5E4FD04 EQ PUSH2 0x85 JUMPI JUMPDEST PUSH0 PUSH0 REVERT JUMPDEST CALLVALUE DUP1 ISZERO PUSH2 0x42 JUMPI PUSH0 PUSH0 REVERT JUMPDEST POP PUSH2 0x56 PUSH2 0x51 CALLDATASIZE PUSH1 0x4 PUSH2 0x39F JUMP JUMPDEST PUSH2 0x98 JUMP JUMPDEST PUSH1 0x40 MLOAD PUSH1 0x1 PUSH1 0x1 PUSH1 0xA0 SHL SUB SWAP1 SWAP2 AND DUP2 MSTORE PUSH1 0x20 ADD PUSH1 0x40 MLOAD DUP1 SWAP2 SUB SWAP1 RETURN JUMPDEST PUSH2 0x56 PUSH2 0x80 CALLDATASIZE PUSH1 0x4 PUSH2 0x4B3 JUMP JUMPDEST PUSH2 0x116 JUMP JUMPDEST PUSH2 0x56 PUSH2 0x93 CALLDATASIZE PUSH1 0x4 PUSH2 0x4ED JUMP JUMPDEST PUSH2 0x209 JUMP JUMPDEST PUSH0 CALLER DUP4 DUP4 PUSH1 0x40 MLOAD PUSH2 0xA8 SWAP1 PUSH2 0x2E6 JUMP JUMPDEST PUSH2 0xB4 SWAP4 SWAP3 SWAP2 SWAP1 PUSH2 0x54D JUMP JUMPDEST PUSH1 0x40 MLOAD DUP1 SWAP2 SUB SWAP1 PUSH0 CREATE DUP1 ISZERO DUP1 ISZERO PUSH2 0xCD JUMPI RETURNDATASIZE PUSH0 PUSH0 RETURNDATACOPY RETURNDATASIZE PUSH0 REVERT JUMPDEST POP PUSH1 0x40 MLOAD PUSH1 0x1 PUSH1 0x1 PUSH1 0xA0 SHL SUB DUP3 AND DUP2 MSTORE SWAP1 SWAP2 POP CALLER SWAP1 PUSH32 0x4241302C393C713E690702C4A45A57E93CEF59AA8C6E2358495853B3420551D8 SWAP1 PUSH1 0x20 ADD JUMPDEST PUSH1 0x40 MLOAD DUP1 SWAP2 SUB SWAP1 LOG2 SWAP3 SWAP2 POP POP JUMP JUMPDEST PUSH0 DUP4 DUP4 PUSH1 0x40 MLOAD PUSH2 0x125 SWAP1 PUSH2 0x2F3 JUMP JUMPDEST PUSH2 0x130 SWAP3 SWAP2 SWAP1 PUSH2 0x58C JUMP JUMPDEST PUSH1 0x40 MLOAD DUP1 SWAP2 SUB SWAP1 PUSH0 CREATE DUP1 ISZERO DUP1 ISZERO PUSH2 0x149 JUMPI RETURNDATASIZE PUSH0 PUSH0 RETURNDATACOPY RETURNDATASIZE PUSH0 REVERT JUMPDEST POP PUSH1 0x40 MLOAD PUSH4 0x8A48B2A5 PUSH1 0xE0 SHL DUP2 MSTORE PUSH1 0x4 DUP2 ADD DUP5 SWAP1 MSTORE CALLER PUSH1 0x24 DUP3 ADD MSTORE SWAP1 SWAP2 POP PUSH1 0x1 PUSH1 0x1 PUSH1 0xA0 SHL SUB DUP3 AND SWAP1 PUSH4 0x8A48B2A5 SWAP1 CALLVALUE SWAP1 PUSH1 0x44 ADD PUSH1 0x20 PUSH1 0x40 MLOAD DUP1 DUP4 SUB DUP2 DUP6 DUP9 GAS CALL ISZERO DUP1 ISZERO PUSH2 0x199 JUMPI RETURNDATASIZE PUSH0 PUSH0 RETURNDATACOPY RETURNDATASIZE PUSH0 REVERT JUMPDEST POP POP POP POP POP PUSH1 0x40 MLOAD RETURNDATASIZE PUSH1 0x1F NOT PUSH1 0x1F DUP3 ADD AND DUP3 ADD DUP1 PUSH1 0x40 MSTORE POP DUP2 ADD SWAP1 PUSH2 0x1BE SWAP2 SWAP1 PUSH2 0x5F5 JUMP JUMPDEST POP DUP4 PUSH1 0x1 PUSH1 0x1 PUSH1 0xA0 SHL SUB AND PUSH32 0x6FC7CF1E0F623F7DD376E8CF16D9E0239EEF38DD0252024D3FC65C3102AAA16 DUP3 DUP6 PUSH1 0x40 MLOAD PUSH2 0x1FA SWAP3 SWAP2 SWAP1 PUSH2 0x58C JUMP JUMPDEST PUSH1 0x40 MLOAD DUP1 SWAP2 SUB SWAP1 LOG2 SWAP4 SWAP3 POP POP POP JUMP JUMPDEST PUSH0 DUP3 DUP3 PUSH1 0x40 MLOAD PUSH2 0x218 SWAP1 PUSH2 0x2F3 JUMP JUMPDEST PUSH2 0x223 SWAP3 SWAP2 SWAP1 PUSH2 0x58C JUMP JUMPDEST PUSH1 0x40 MLOAD DUP1 SWAP2 SUB SWAP1 PUSH0 CREATE DUP1 ISZERO DUP1 ISZERO PUSH2 0x23C JUMPI RETURNDATASIZE PUSH0 PUSH0 RETURNDATACOPY RETURNDATASIZE PUSH0 REVERT JUMPDEST POP PUSH1 0x40 MLOAD PUSH4 0xC1A4845F PUSH1 0xE0 SHL DUP2 MSTORE CALLER PUSH1 0x4 DUP3 ADD MSTORE SWAP1 SWAP2 POP PUSH1 0x1 PUSH1 0x1 PUSH1 0xA0 SHL SUB DUP3 AND SWAP1 PUSH4 0xC1A4845F SWAP1 CALLVALUE SWAP1 PUSH1 0x24 ADD PUSH1 0x20 PUSH1 0x40 MLOAD DUP1 DUP4 SUB DUP2 DUP6 DUP9 GAS CALL ISZERO DUP1 ISZERO PUSH2 0x285 JUMPI RETURNDATASIZE PUSH0 PUSH0 RETURNDATACOPY RETURNDATASIZE PUSH0 REVERT JUMPDEST POP POP POP POP POP PUSH1 0x40 MLOAD RETURNDATASIZE PUSH1 0x1F NOT PUSH1 0x1F DUP3 ADD AND DUP3 ADD DUP1 PUSH1 0x40 MSTORE POP DUP2 ADD SWAP1 PUSH2 0x2AA SWAP2 SWAP1 PUSH2 0x5F5 JUMP JUMPDEST POP DUP3 PUSH1 0x1 PUSH1 0x1 PUSH1 0xA0 SHL SUB AND PUSH32 0x6FC7CF1E0F623F7DD376E8CF16D9E0239EEF38DD0252024D3FC65C3102AAA16 DUP3 DUP5 PUSH1 0x40 MLOAD PUSH2 0x108 SWAP3 SWAP2 SWAP1 PUSH2 0x58C JUMP JUMPDEST PUSH2 0x1F71 DUP1 PUSH2 0x60D DUP4 CODECOPY ADD SWAP1 JUMP JUMPDEST PUSH2 0x2779 DUP1 PUSH2 0x257E DUP4 CODECOPY ADD SWAP1 JUMP JUMPDEST PUSH4 0x4E487B71 PUSH1 0xE0 SHL PUSH0 MSTORE PUSH1 0x41 PUSH1 0x4 MSTORE PUSH1 0x24 PUSH0 REVERT JUMPDEST PUSH0 DUP3 PUSH1 0x1F DUP4 ADD SLT PUSH2 0x323 JUMPI PUSH0 PUSH0 REVERT JUMPDEST DUP2 CALLDATALOAD PUSH8 0xFFFFFFFFFFFFFFFF DUP2 GT ISZERO PUSH2 0x33D JUMPI PUSH2 0x33D PUSH2 0x300 JUMP JUMPDEST PUSH1 0x40 MLOAD PUSH1 0x1F DUP3 ADD PUSH1 0x1F NOT SWAP1 DUP2 AND PUSH1 0x3F ADD AND DUP2 ADD PUSH8 0xFFFFFFFFFFFFFFFF DUP2 GT DUP3 DUP3 LT OR ISZERO PUSH2 0x36C JUMPI PUSH2 0x36C PUSH2 0x300 JUMP JUMPDEST PUSH1 0x40 MSTORE DUP2 DUP2 MSTORE DUP4 DUP3 ADD PUSH1 0x20 ADD DUP6 LT ISZERO PUSH2 0x383 JUMPI PUSH0 PUSH0 REVERT JUMPDEST DUP2 PUSH1 0x20 DUP6 ADD PUSH1 0x20 DUP4 ADD CALLDATACOPY PUSH0 SWAP2 DUP2 ADD PUSH1 0x20 ADD SWAP2 SWAP1 SWAP2 MSTORE SWAP4 SWAP3 POP POP POP JUMP JUMPDEST PUSH0 PUSH0 PUSH1 0x40 DUP4 DUP6 SUB SLT ISZERO PUSH2 0x3B0 JUMPI PUSH0 PUSH0 REVERT JUMPDEST DUP3 CALLDATALOAD PUSH8 0xFFFFFFFFFFFFFFFF DUP2 GT ISZERO PUSH2 0x3C6 JUMPI PUSH0 PUSH0 REVERT JUMPDEST PUSH2 0x3D2 DUP6 DUP3 DUP7 ADD PUSH2 0x314 JUMP JUMPDEST SWAP3 POP POP PUSH1 0x20 DUP4 ADD CALLDATALOAD PUSH8 0xFFFFFFFFFFFFFFFF DUP2 GT ISZERO PUSH2 0x3EE JUMPI PUSH0 PUSH0 REVERT JUMPDEST PUSH2 0x3FA DUP6 DUP3 DUP7 ADD PUSH2 0x314 JUMP JUMPDEST SWAP2 POP POP SWAP3 POP SWAP3 SWAP1 POP JUMP JUMPDEST DUP1 CALLDATALOAD PUSH1 0x1 PUSH1 0x1 PUSH1 0xA0 SHL SUB DUP2 AND DUP2 EQ PUSH2 0x41A JUMPI PUSH0 PUSH0 REVERT JUMPDEST SWAP2 SWAP1 POP JUMP JUMPDEST DUP1 CALLDATALOAD PUSH1 0x1 PUSH1 0x1 PUSH1 0x80 SHL SUB DUP2 AND DUP2 EQ PUSH2 0x41A JUMPI PUSH0 PUSH0 REVERT JUMPDEST PUSH0 PUSH1 0x80 DUP3 DUP5 SUB SLT ISZERO PUSH2 0x445 JUMPI PUSH0 PUSH0 REVERT JUMPDEST PUSH1 0x40 MLOAD PUSH1 0x80 DUP2 ADD PUSH8 0xFFFFFFFFFFFFFFFF DUP2 GT DUP3 DUP3 LT OR ISZERO PUSH2 0x468 JUMPI PUSH2 0x468 PUSH2 0x300 JUMP JUMPDEST PUSH1 0x40 MSTORE SWAP1 POP DUP1 PUSH2 0x477 DUP4 PUSH2 0x41F JUMP JUMPDEST DUP2 MSTORE PUSH2 0x485 PUSH1 0x20 DUP5 ADD PUSH2 0x41F JUMP JUMPDEST PUSH1 0x20 DUP3 ADD MSTORE PUSH2 0x496 PUSH1 0x40 DUP5 ADD PUSH2 0x41F JUMP JUMPDEST PUSH1 0x40 DUP3 ADD MSTORE PUSH2 0x4A7 PUSH1 0x60 DUP5 ADD PUSH2 0x41F JUMP JUMPDEST PUSH1 0x60 DUP3 ADD MSTORE POP SWAP3 SWAP2 POP POP JUMP JUMPDEST PUSH0 PUSH0 PUSH0 PUSH1 0xC0 DUP5 DUP7 SUB SLT ISZERO PUSH2 0x4C5 JUMPI PUSH0 PUSH0 REVERT JUMPDEST PUSH2 0x4CE DUP5 PUSH2 0x404 JUMP JUMPDEST SWAP3 POP PUSH2 0x4DD DUP6 PUSH1 0x20 DUP7 ADD PUSH2 0x435 JUMP JUMPDEST SWAP2 POP PUSH1 0xA0 DUP5 ADD CALLDATALOAD SWAP1 POP SWAP3 POP SWAP3 POP SWAP3 JUMP JUMPDEST PUSH0 PUSH0 PUSH1 0xA0 DUP4 DUP6 SUB SLT ISZERO PUSH2 0x4FE JUMPI PUSH0 PUSH0 REVERT JUMPDEST PUSH2 0x507 DUP4 PUSH2 0x404 JUMP JUMPDEST SWAP2 POP PUSH2 0x516 DUP5 PUSH1 0x20 DUP6 ADD PUSH2 0x435 JUMP JUMPDEST SWAP1 POP SWAP3 POP SWAP3 SWAP1 POP JUMP JUMPDEST PUSH0 DUP2 MLOAD DUP1 DUP5 MSTORE DUP1 PUSH1 0x20 DUP5 ADD PUSH1 0x20 DUP7 ADD MCOPY PUSH0 PUSH1 0x20 DUP3 DUP7 ADD ADD MSTORE PUSH1 0x20 PUSH1 0x1F NOT PUSH1 0x1F DUP4 ADD AND DUP6 ADD ADD SWAP2 POP POP SWAP3 SWAP2 POP POP JUMP JUMPDEST PUSH1 0x1 PUSH1 0x1 PUSH1 0xA0 SHL SUB DUP5 AND DUP2 MSTORE PUSH1 0x60 PUSH1 0x20 DUP3 ADD DUP2 SWAP1 MSTORE PUSH0 SWAP1 PUSH2 0x570 SWAP1 DUP4 ADD DUP6 PUSH2 0x51F JUMP JUMPDEST DUP3 DUP2 SUB PUSH1 0x40 DUP5 ADD MSTORE PUSH2 0x582 DUP2 DUP6 PUSH2 0x51F JUMP JUMPDEST SWAP7 SWAP6 POP POP POP POP POP POP JUMP JUMPDEST PUSH1 0x1 PUSH1 0x1 PUSH1 0xA0 SHL SUB DUP4 AND DUP2 MSTORE PUSH1 0xA0 DUP2 ADD PUSH2 0x5EE PUSH1 0x20 DUP4 ADD DUP5 PUSH1 0x1 PUSH1 0x1 PUSH1 0x80 SHL SUB DUP2 MLOAD AND DUP3 MSTORE PUSH1 0x1 PUSH1 0x1 PUSH1 0x80 SHL SUB PUSH1 0x20 DUP3 ADD MLOAD AND PUSH1 0x20 DUP4 ADD MSTORE PUSH1 0x1 PUSH1 0x1 PUSH1 0x80 SHL SUB PUSH1 0x40 DUP3 ADD MLOAD AND PUSH1 0x40 DUP4 ADD MSTORE PUSH1 0x1 PUSH1 0x1 PUSH1 0x80 SHL SUB PUSH1 0x60 DUP3 ADD MLOAD AND PUSH1 0x60 DUP4 ADD MSTORE POP POP JUMP JUMPDEST SWAP4 SWAP3 POP POP POP JUMP JUMPDEST PUSH0 PUSH1 0x20 DUP3 DUP5 SUB SLT ISZERO PUSH2 0x605 JUMPI PUSH0 PUSH0 REVERT JUMPDEST POP MLOAD SWAP2 SWAP1 POP JUMP INVALID PUSH2 0x140 PUSH1 0x40 MSTORE TIMESTAMP PUSH0 SSTORE TIMESTAMP PUSH1 0x1 SSTORE CALLVALUE DUP1 ISZERO PUSH2 0x17 JUMPI PUSH0 PUSH0 REVERT JUMPDEST POP PUSH1 0x40 MLOAD PUSH2 0x1F71 CODESIZE SUB DUP1 PUSH2 0x1F71 DUP4 CODECOPY DUP2 ADD PUSH1 0x40 DUP2 SWAP1 MSTORE PUSH2 0x36 SWAP2 PUSH2 0x221 JUMP JUMPDEST DUP3 PUSH1 0x40 MLOAD DUP1 PUSH1 0x80 ADD PUSH1 0x40 MSTORE DUP1 PUSH3 0x15180 PUSH8 0xDE0B6B3A7640000 PUSH2 0x59 SWAP2 SWAP1 PUSH2 0x2A3 JUMP JUMPDEST PUSH1 0x1 PUSH1 0x1 PUSH1 0x80 SHL SUB AND DUP2 MSTORE PUSH8 0xDE0B6B3A7640000 PUSH1 0x20 DUP3 ADD MSTORE PUSH1 0x40 ADD PUSH2 0x8A PUSH3 0x15180 PUSH8 0x16345785D8A0000 PUSH2 0x2A3 JUMP JUMPDEST PUSH1 0x1 PUSH1 0x1 PUSH1 0x80 SHL SUB SWAP1 DUP2 AND DUP3 MSTORE PUSH8 0x16345785D8A0000 PUSH1 0x20 SWAP3 DUP4 ADD MSTORE ADDRESS PUSH1 0x80 MSTORE DUP3 MLOAD DUP2 AND PUSH1 0xA0 MSTORE SWAP1 DUP3 ADD MLOAD DUP2 AND PUSH1 0xC0 MSTORE PUSH1 0x40 DUP3 ADD MLOAD DUP2 AND PUSH1 0xE0 MSTORE PUSH1 0x60 SWAP1 SWAP2 ADD MLOAD AND PUSH2 0x100 MSTORE PUSH1 0x1 PUSH1 0x1 PUSH1 0xA0 SHL SUB DUP2 AND PUSH2 0xFC JUMPI PUSH1 0x40 MLOAD PUSH4 0x1E4FBDF7 PUSH1 0xE0 SHL DUP2 MSTORE PUSH0 PUSH1 0x4 DUP3 ADD MSTORE PUSH1 0x24 ADD PUSH1 0x40 MLOAD DUP1 SWAP2 SUB SWAP1 REVERT JUMPDEST PUSH2 0x105 DUP2 PUSH2 0x133 JUMP JUMPDEST POP PUSH1 0x3 PUSH2 0x112 DUP4 DUP3 PUSH2 0x361 JUMP JUMPDEST POP DUP2 MLOAD PUSH1 0x20 DUP4 ADD KECCAK256 PUSH2 0x120 MSTORE PUSH1 0x4 PUSH2 0x12A DUP3 DUP3 PUSH2 0x361 JUMP JUMPDEST POP POP POP POP PUSH2 0x41B JUMP JUMPDEST PUSH1 0x2 DUP1 SLOAD PUSH1 0x1 PUSH1 0x1 PUSH1 0xA0 SHL SUB DUP4 DUP2 AND PUSH1 0x1 PUSH1 0x1 PUSH1 0xA0 SHL SUB NOT DUP4 AND DUP2 OR SWAP1 SWAP4 SSTORE PUSH1 0x40 MLOAD SWAP2 AND SWAP2 SWAP1 DUP3 SWAP1 PUSH32 0x8BE0079C531659141344CD1FD0A4F28419497F9722A3DAAFE3B4186F6B6457E0 SWAP1 PUSH0 SWAP1 LOG3 POP POP JUMP JUMPDEST PUSH4 0x4E487B71 PUSH1 0xE0 SHL PUSH0 MSTORE PUSH1 0x41 PUSH1 0x4 MSTORE PUSH1 0x24 PUSH0 REVERT JUMPDEST PUSH0 DUP3 PUSH1 0x1F DUP4 ADD SLT PUSH2 0x1A7 JUMPI PUSH0 PUSH0 REVERT JUMPDEST DUP2 MLOAD PUSH1 0x1 PUSH1 0x1 PUSH1 0x40 SHL SUB DUP2 GT ISZERO PUSH2 0x1C0 JUMPI PUSH2 0x1C0 PUSH2 0x184 JUMP JUMPDEST PUSH1 0x40 MLOAD PUSH1 0x1F DUP3 ADD PUSH1 0x1F NOT SWAP1 DUP2 AND PUSH1 0x3F ADD AND DUP2 ADD PUSH1 0x1 PUSH1 0x1 PUSH1 0x40 SHL SUB DUP2 GT DUP3 DUP3 LT OR ISZERO PUSH2 0x1EE JUMPI PUSH2 0x1EE PUSH2 0x184 JUMP JUMPDEST PUSH1 0x40 MSTORE DUP2 DUP2 MSTORE DUP4 DUP3 ADD PUSH1 0x20 ADD DUP6 LT ISZERO PUSH2 0x205 JUMPI PUSH0 PUSH0 REVERT JUMPDEST DUP2 PUSH1 0x20 DUP6 ADD PUSH1 0x20 DUP4 ADD MCOPY PUSH0 SWAP2 DUP2 ADD PUSH1 0x20 ADD SWAP2 SWAP1 SWAP2 MSTORE SWAP4 SWAP3 POP POP POP JUMP JUMPDEST PUSH0 PUSH0 PUSH0 PUSH1 0x60 DUP5 DUP7 SUB SLT ISZERO PUSH2 0x233 JUMPI PUSH0 PUSH0 REVERT JUMPDEST DUP4 MLOAD PUSH1 0x1 PUSH1 0x1 PUSH1 0xA0 SHL SUB DUP2 AND DUP2 EQ PUSH2 0x249 JUMPI PUSH0 PUSH0 REVERT JUMPDEST PUSH1 0x20 DUP6 ADD MLOAD SWAP1 SWAP4 POP PUSH1 0x1 PUSH1 0x1 PUSH1 0x40 SHL SUB DUP2 GT ISZERO PUSH2 0x264 JUMPI PUSH0 PUSH0 REVERT JUMPDEST PUSH2 0x270 DUP7 DUP3 DUP8 ADD PUSH2 0x198 JUMP JUMPDEST PUSH1 0x40 DUP7 ADD MLOAD SWAP1 SWAP4 POP SWAP1 POP PUSH1 0x1 PUSH1 0x1 PUSH1 0x40 SHL SUB DUP2 GT ISZERO PUSH2 0x28D JUMPI PUSH0 PUSH0 REVERT JUMPDEST PUSH2 0x299 DUP7 DUP3 DUP8 ADD PUSH2 0x198 JUMP JUMPDEST SWAP2 POP POP SWAP3 POP SWAP3 POP SWAP3 JUMP JUMPDEST PUSH0 PUSH1 0x1 PUSH1 0x1 PUSH1 0x80 SHL SUB DUP4 AND DUP1 PUSH2 0x2C7 JUMPI PUSH4 0x4E487B71 PUSH1 0xE0 SHL PUSH0 MSTORE PUSH1 0x12 PUSH1 0x4 MSTORE PUSH1 0x24 PUSH0 REVERT JUMPDEST PUSH1 0x1 PUSH1 0x1 PUSH1 0x80 SHL SUB SWAP3 SWAP1 SWAP3 AND SWAP2 SWAP1 SWAP2 DIV SWAP3 SWAP2 POP POP JUMP JUMPDEST PUSH1 0x1 DUP2 DUP2 SHR SWAP1 DUP3 AND DUP1 PUSH2 0x2F1 JUMPI PUSH1 0x7F DUP3 AND SWAP2 POP JUMPDEST PUSH1 0x20 DUP3 LT DUP2 SUB PUSH2 0x30F JUMPI PUSH4 0x4E487B71 PUSH1 0xE0 SHL PUSH0 MSTORE PUSH1 0x22 PUSH1 0x4 MSTORE PUSH1 0x24 PUSH0 REVERT JUMPDEST POP SWAP2 SWAP1 POP JUMP JUMPDEST PUSH1 0x1F DUP3 GT ISZERO PUSH2 0x35C JUMPI DUP1 PUSH0 MSTORE PUSH1 0x20 PUSH0 KECCAK256 PUSH1 0x1F DUP5 ADD PUSH1 0x5 SHR DUP2 ADD PUSH1 0x20 DUP6 LT ISZERO PUSH2 0x33A JUMPI POP DUP1 JUMPDEST PUSH1 0x1F DUP5 ADD PUSH1 0x5 SHR DUP3 ADD SWAP2 POP JUMPDEST DUP2 DUP2 LT ISZERO PUSH2 0x359 JUMPI PUSH0 DUP2 SSTORE PUSH1 0x1 ADD PUSH2 0x346 JUMP JUMPDEST POP POP JUMPDEST POP POP POP JUMP JUMPDEST DUP2 MLOAD PUSH1 0x1 PUSH1 0x1 PUSH1 0x40 SHL SUB DUP2 GT ISZERO PUSH2 0x37A JUMPI PUSH2 0x37A PUSH2 0x184 JUMP JUMPDEST PUSH2 0x38E DUP2 PUSH2 0x388 DUP5 SLOAD PUSH2 0x2DD JUMP JUMPDEST DUP5 PUSH2 0x315 JUMP JUMPDEST PUSH1 0x20 PUSH1 0x1F DUP3 GT PUSH1 0x1 DUP2 EQ PUSH2 0x3C0 JUMPI PUSH0 DUP4 ISZERO PUSH2 0x3A9 JUMPI POP DUP5 DUP3 ADD MLOAD JUMPDEST PUSH0 NOT PUSH1 0x3 DUP6 SWAP1 SHL SHR NOT AND PUSH1 0x1 DUP5 SWAP1 SHL OR DUP5 SSTORE PUSH2 0x359 JUMP JUMPDEST PUSH0 DUP5 DUP2 MSTORE PUSH1 0x20 DUP2 KECCAK256 PUSH1 0x1F NOT DUP6 AND SWAP2 JUMPDEST DUP3 DUP2 LT ISZERO PUSH2 0x3EF JUMPI DUP8 DUP6 ADD MLOAD DUP3 SSTORE PUSH1 0x20 SWAP5 DUP6 ADD SWAP5 PUSH1 0x1 SWAP1 SWAP3 ADD SWAP2 ADD PUSH2 0x3CF JUMP JUMPDEST POP DUP5 DUP3 LT ISZERO PUSH2 0x40C JUMPI DUP7 DUP5 ADD MLOAD PUSH0 NOT PUSH1 0x3 DUP8 SWAP1 SHL PUSH1 0xF8 AND SHR NOT AND DUP2 SSTORE JUMPDEST POP POP POP POP PUSH1 0x1 SWAP1 DUP2 SHL ADD SWAP1 SSTORE POP JUMP JUMPDEST PUSH1 0x80 MLOAD PUSH1 0xA0 MLOAD PUSH1 0xC0 MLOAD PUSH1 0xE0 MLOAD PUSH2 0x100 MLOAD PUSH2 0x120 MLOAD PUSH2 0x1AA6 PUSH2 0x4CB PUSH0 CODECOPY PUSH0 DUP2 DUP2 PUSH2 0x6D5 ADD MSTORE DUP2 DUP2 PUSH2 0xB05 ADD MSTORE PUSH2 0xF1E ADD MSTORE PUSH0 DUP2 DUP2 PUSH2 0x232 ADD MSTORE PUSH2 0xC46 ADD MSTORE PUSH0 DUP2 DUP2 PUSH2 0x4BF ADD MSTORE DUP2 DUP2 PUSH2 0xE52 ADD MSTORE PUSH2 0x1466 ADD MSTORE PUSH0 DUP2 DUP2 PUSH2 0x523 ADD MSTORE PUSH2 0xBB3 ADD MSTORE PUSH0 DUP2 DUP2 PUSH2 0x73B ADD MSTORE DUP2 DUP2 PUSH2 0x12A9 ADD MSTORE PUSH2 0x13BA ADD MSTORE PUSH0 DUP2 DUP2 PUSH2 0x3B1 ADD MSTORE DUP2 DUP2 PUSH2 0x8F1 ADD MSTORE DUP2 DUP2 PUSH2 0x94E ADD MSTORE DUP2 DUP2 PUSH2 0xC94 ADD MSTORE DUP2 DUP2 PUSH2 0xCEB ADD MSTORE DUP2 DUP2 PUSH2 0x10E7 ADD MSTORE DUP2 DUP2 PUSH2 0x11DB ADD MSTORE PUSH2 0x1316 ADD MSTORE PUSH2 0x1AA6 PUSH0 RETURN INVALID PUSH1 0x80 PUSH1 0x40 MSTORE PUSH1 0x4 CALLDATASIZE LT PUSH2 0x21D JUMPI PUSH0 CALLDATALOAD PUSH1 0xE0 SHR DUP1 PUSH4 0x7ECEBE00 GT PUSH2 0x11E JUMPI DUP1 PUSH4 0xBE45FD62 GT PUSH2 0xA8 JUMPI DUP1 PUSH4 0xF172A4CE GT PUSH2 0x6D JUMPI DUP1 PUSH4 0xF172A4CE EQ PUSH2 0x6C4 JUMPI DUP1 PUSH4 0xF2FDE38B EQ PUSH2 0x6F7 JUMPI DUP1 PUSH4 0xF4D0BD72 EQ PUSH2 0x716 JUMPI DUP1 PUSH4 0xF86329E1 EQ PUSH2 0x72A JUMPI DUP1 PUSH4 0xFC028523 EQ PUSH2 0x75D JUMPI PUSH0 PUSH0 REVERT JUMPDEST DUP1 PUSH4 0xBE45FD62 EQ PUSH2 0x61F JUMPI DUP1 PUSH4 0xD505ACCF EQ PUSH2 0x63E JUMPI DUP1 PUSH4 0xDD62ED3E EQ PUSH2 0x65D JUMPI DUP1 PUSH4 0xE46DBD07 EQ PUSH2 0x691 JUMPI DUP1 PUSH4 0xE5ACA599 EQ PUSH2 0x6A5 JUMPI PUSH0 PUSH0 REVERT JUMPDEST DUP1 PUSH4 0x94EF2103 GT PUSH2 0xEE JUMPI DUP1 PUSH4 0x94EF2103 EQ PUSH2 0x59A JUMPI DUP1 PUSH4 0x95D89B41 EQ PUSH2 0x5B9 JUMPI DUP1 PUSH4 0xA9059CBB EQ PUSH2 0x5CD JUMPI DUP1 PUSH4 0xB3841F26 EQ PUSH2 0x5EC JUMPI DUP1 PUSH4 0xB3CA7F2A EQ PUSH2 0x60B JUMPI PUSH0 PUSH0 REVERT JUMPDEST DUP1 PUSH4 0x7ECEBE00 EQ PUSH2 0x4E1 JUMPI DUP1 PUSH4 0x82E3D8BD EQ PUSH2 0x512 JUMPI DUP1 PUSH4 0x8943EC02 EQ PUSH2 0x545 JUMPI DUP1 PUSH4 0x8DA5CB5B EQ PUSH2 0x57D JUMPI PUSH0 PUSH0 REVERT JUMPDEST DUP1 PUSH4 0x313CE567 GT PUSH2 0x1AA JUMPI DUP1 PUSH4 0x6263913C GT PUSH2 0x16F JUMPI DUP1 PUSH4 0x6263913C EQ PUSH2 0x429 JUMPI DUP1 PUSH4 0x70A08231 EQ PUSH2 0x448 JUMPI DUP1 PUSH4 0x715018A6 EQ PUSH2 0x479 JUMPI DUP1 PUSH4 0x7B383F18 EQ PUSH2 0x48F JUMPI DUP1 PUSH4 0x7CC27B40 EQ PUSH2 0x4AE JUMPI PUSH0 PUSH0 REVERT JUMPDEST DUP1 PUSH4 0x313CE567 EQ PUSH2 0x371 JUMPI DUP1 PUSH4 0x3644E515 EQ PUSH2 0x38C JUMPI DUP1 PUSH4 0x38D52E0F EQ PUSH2 0x3A0 JUMPI DUP1 PUSH4 0x4206ABE9 EQ PUSH2 0x3EB JUMPI DUP1 PUSH4 0x6032F600 EQ PUSH2 0x40A JUMPI PUSH0 PUSH0 REVERT JUMPDEST DUP1 PUSH4 0x12958A6B GT PUSH2 0x1F0 JUMPI DUP1 PUSH4 0x12958A6B EQ PUSH2 0x2EE JUMPI DUP1 PUSH4 0x17B31167 EQ PUSH2 0x30F JUMPI DUP1 PUSH4 0x18160DDD EQ PUSH2 0x32E JUMPI DUP1 PUSH4 0x223ECF7E EQ PUSH2 0x34A JUMPI DUP1 PUSH4 0x23B872DD EQ PUSH2 0x352 JUMPI PUSH0 PUSH0 REVERT JUMPDEST DUP1 PUSH4 0x58D1573 EQ PUSH2 0x221 JUMPI DUP1 PUSH4 0x6FDDE03 EQ PUSH2 0x271 JUMPI DUP1 PUSH4 0x95EA7B3 EQ PUSH2 0x292 JUMPI DUP1 PUSH4 0x10AB2D01 EQ PUSH2 0x2C1 JUMPI JUMPDEST PUSH0 PUSH0 REVERT JUMPDEST CALLVALUE DUP1 ISZERO PUSH2 0x22C JUMPI PUSH0 PUSH0 REVERT JUMPDEST POP PUSH2 0x254 PUSH32 0x0 DUP2 JUMP JUMPDEST PUSH1 0x40 MLOAD PUSH1 0x1 PUSH1 0x1 PUSH1 0x80 SHL SUB SWAP1 SWAP2 AND DUP2 MSTORE PUSH1 0x20 ADD JUMPDEST PUSH1 0x40 MLOAD DUP1 SWAP2 SUB SWAP1 RETURN JUMPDEST CALLVALUE DUP1 ISZERO PUSH2 0x27C JUMPI PUSH0 PUSH0 REVERT JUMPDEST POP PUSH2 0x285 PUSH2 0x77C JUMP JUMPDEST PUSH1 0x40 MLOAD PUSH2 0x268 SWAP2 SWAP1 PUSH2 0x15F3 JUMP JUMPDEST CALLVALUE DUP1 ISZERO PUSH2 0x29D JUMPI PUSH0 PUSH0 REVERT JUMPDEST POP PUSH2 0x2B1 PUSH2 0x2AC CALLDATASIZE PUSH1 0x4 PUSH2 0x1619 JUMP JUMPDEST PUSH2 0x80C JUMP JUMPDEST PUSH1 0x40 MLOAD SWAP1 ISZERO ISZERO DUP2 MSTORE PUSH1 0x20 ADD PUSH2 0x268 JUMP JUMPDEST CALLVALUE DUP1 ISZERO PUSH2 0x2CC JUMPI PUSH0 PUSH0 REVERT JUMPDEST POP PUSH2 0x2E0 PUSH2 0x2DB CALLDATASIZE PUSH1 0x4 PUSH2 0x1643 JUMP JUMPDEST PUSH2 0x85C JUMP JUMPDEST PUSH1 0x40 MLOAD PUSH2 0x268 SWAP3 SWAP2 SWAP1 PUSH2 0x16C8 JUMP JUMPDEST PUSH2 0x301 PUSH2 0x2FC CALLDATASIZE PUSH1 0x4 PUSH2 0x16E2 JUMP JUMPDEST PUSH2 0x8CF JUMP JUMPDEST PUSH1 0x40 MLOAD SWAP1 DUP2 MSTORE PUSH1 0x20 ADD PUSH2 0x268 JUMP JUMPDEST CALLVALUE DUP1 ISZERO PUSH2 0x31A JUMPI PUSH0 PUSH0 REVERT JUMPDEST POP PUSH2 0x301 PUSH2 0x329 CALLDATASIZE PUSH1 0x4 PUSH2 0x16FD JUMP JUMPDEST PUSH2 0x8EA JUMP JUMPDEST CALLVALUE DUP1 ISZERO PUSH2 0x339 JUMPI PUSH0 PUSH0 REVERT JUMPDEST POP PUSH9 0x5345CDF77EB68F44C SLOAD PUSH2 0x301 JUMP JUMPDEST PUSH2 0x301 PUSH2 0xA4E JUMP JUMPDEST CALLVALUE DUP1 ISZERO PUSH2 0x35D JUMPI PUSH0 PUSH0 REVERT JUMPDEST POP PUSH2 0x2B1 PUSH2 0x36C CALLDATASIZE PUSH1 0x4 PUSH2 0x173C JUMP JUMPDEST PUSH2 0xA5D JUMP JUMPDEST CALLVALUE DUP1 ISZERO PUSH2 0x37C JUMPI PUSH0 PUSH0 REVERT JUMPDEST POP PUSH1 0x40 MLOAD PUSH1 0x12 DUP2 MSTORE PUSH1 0x20 ADD PUSH2 0x268 JUMP JUMPDEST CALLVALUE DUP1 ISZERO PUSH2 0x397 JUMPI PUSH0 PUSH0 REVERT JUMPDEST POP PUSH2 0x301 PUSH2 0xB02 JUMP JUMPDEST CALLVALUE DUP1 ISZERO PUSH2 0x3AB JUMPI PUSH0 PUSH0 REVERT JUMPDEST POP PUSH2 0x3D3 PUSH32 0x0 DUP2 JUMP JUMPDEST PUSH1 0x40 MLOAD PUSH1 0x1 PUSH1 0x1 PUSH1 0xA0 SHL SUB SWAP1 SWAP2 AND DUP2 MSTORE PUSH1 0x20 ADD PUSH2 0x268 JUMP JUMPDEST CALLVALUE DUP1 ISZERO PUSH2 0x3F6 JUMPI PUSH0 PUSH0 REVERT JUMPDEST POP PUSH2 0x301 PUSH2 0x405 CALLDATASIZE PUSH1 0x4 PUSH2 0x177A JUMP JUMPDEST PUSH2 0xBA4 JUMP JUMPDEST CALLVALUE DUP1 ISZERO PUSH2 0x415 JUMPI PUSH0 PUSH0 REVERT JUMPDEST POP PUSH2 0x301 PUSH2 0x424 CALLDATASIZE PUSH1 0x4 PUSH2 0x177A JUMP JUMPDEST PUSH2 0xC06 JUMP JUMPDEST CALLVALUE DUP1 ISZERO PUSH2 0x434 JUMPI PUSH0 PUSH0 REVERT JUMPDEST POP PUSH2 0x301 PUSH2 0x443 CALLDATASIZE PUSH1 0x4 PUSH2 0x17A7 JUMP JUMPDEST PUSH2 0xC11 JUMP JUMPDEST CALLVALUE DUP1 ISZERO PUSH2 0x453 JUMPI PUSH0 PUSH0 REVERT JUMPDEST POP PUSH2 0x301 PUSH2 0x462 CALLDATASIZE PUSH1 0x4 PUSH2 0x16E2 JUMP JUMPDEST PUSH4 0x87A211A2 PUSH1 0xC SWAP1 DUP2 MSTORE PUSH0 SWAP2 SWAP1 SWAP2 MSTORE PUSH1 0x20 SWAP1 KECCAK256 SLOAD SWAP1 JUMP JUMPDEST CALLVALUE DUP1 ISZERO PUSH2 0x484 JUMPI PUSH0 PUSH0 REVERT JUMPDEST POP PUSH2 0x48D PUSH2 0xC24 JUMP JUMPDEST STOP JUMPDEST CALLVALUE DUP1 ISZERO PUSH2 0x49A JUMPI PUSH0 PUSH0 REVERT JUMPDEST POP PUSH2 0x301 PUSH2 0x4A9 CALLDATASIZE PUSH1 0x4 PUSH2 0x177A JUMP JUMPDEST PUSH2 0xC37 JUMP JUMPDEST CALLVALUE DUP1 ISZERO PUSH2 0x4B9 JUMPI PUSH0 PUSH0 REVERT JUMPDEST POP PUSH2 0x254 PUSH32 0x0 DUP2 JUMP JUMPDEST CALLVALUE DUP1 ISZERO PUSH2 0x4EC JUMPI PUSH0 PUSH0 REVERT JUMPDEST POP PUSH2 0x301 PUSH2 0x4FB CALLDATASIZE PUSH1 0x4 PUSH2 0x16E2 JUMP JUMPDEST PUSH4 0x38377508 PUSH1 0xC SWAP1 DUP2 MSTORE PUSH0 SWAP2 SWAP1 SWAP2 MSTORE PUSH1 0x20 SWAP1 KECCAK256 SLOAD SWAP1 JUMP JUMPDEST CALLVALUE DUP1 ISZERO PUSH2 0x51D JUMPI PUSH0 PUSH0 REVERT JUMPDEST POP PUSH2 0x254 PUSH32 0x0 DUP2 JUMP JUMPDEST CALLVALUE DUP1 ISZERO PUSH2 0x550 JUMPI PUSH0 PUSH0 REVERT JUMPDEST POP PUSH2 0x564 PUSH2 0x55F CALLDATASIZE PUSH1 0x4 PUSH2 0x1643 JUMP JUMPDEST PUSH2 0xC88 JUMP JUMPDEST PUSH1 0x40 MLOAD PUSH1 0x1 PUSH1 0x1 PUSH1 0xE0 SHL SUB NOT SWAP1 SWAP2 AND DUP2 MSTORE PUSH1 0x20 ADD PUSH2 0x268 JUMP JUMPDEST CALLVALUE DUP1 ISZERO PUSH2 0x588 JUMPI PUSH0 PUSH0 REVERT JUMPDEST POP PUSH1 0x2 SLOAD PUSH1 0x1 PUSH1 0x1 PUSH1 0xA0 SHL SUB AND PUSH2 0x3D3 JUMP JUMPDEST CALLVALUE DUP1 ISZERO PUSH2 0x5A5 JUMPI PUSH0 PUSH0 REVERT JUMPDEST POP PUSH2 0x301 PUSH2 0x5B4 CALLDATASIZE PUSH1 0x4 PUSH2 0x17D2 JUMP JUMPDEST PUSH2 0xCE0 JUMP JUMPDEST CALLVALUE DUP1 ISZERO PUSH2 0x5C4 JUMPI PUSH0 PUSH0 REVERT JUMPDEST POP PUSH2 0x285 PUSH2 0xDBC JUMP JUMPDEST CALLVALUE DUP1 ISZERO PUSH2 0x5D8 JUMPI PUSH0 PUSH0 REVERT JUMPDEST POP PUSH2 0x2B1 PUSH2 0x5E7 CALLDATASIZE PUSH1 0x4 PUSH2 0x1619 JUMP JUMPDEST PUSH2 0xDCB JUMP JUMPDEST CALLVALUE DUP1 ISZERO PUSH2 0x5F7 JUMPI PUSH0 PUSH0 REVERT JUMPDEST POP PUSH2 0x301 PUSH2 0x606 CALLDATASIZE PUSH1 0x4 PUSH2 0x180E JUMP JUMPDEST PUSH2 0xE2F JUMP JUMPDEST CALLVALUE DUP1 ISZERO PUSH2 0x616 JUMPI PUSH0 PUSH0 REVERT JUMPDEST POP PUSH2 0x301 PUSH2 0xE4F JUMP JUMPDEST CALLVALUE DUP1 ISZERO PUSH2 0x62A JUMPI PUSH0 PUSH0 REVERT JUMPDEST POP PUSH2 0x2B1 PUSH2 0x639 CALLDATASIZE PUSH1 0x4 PUSH2 0x1643 JUMP JUMPDEST PUSH2 0xE92 JUMP JUMPDEST CALLVALUE DUP1 ISZERO PUSH2 0x649 JUMPI PUSH0 PUSH0 REVERT JUMPDEST POP PUSH2 0x48D PUSH2 0x658 CALLDATASIZE PUSH1 0x4 PUSH2 0x184C JUMP JUMPDEST PUSH2 0xF1C JUMP JUMPDEST CALLVALUE DUP1 ISZERO PUSH2 0x668 JUMPI PUSH0 PUSH0 REVERT JUMPDEST POP PUSH2 0x301 PUSH2 0x677 CALLDATASIZE PUSH1 0x4 PUSH2 0x18B6 JUMP JUMPDEST PUSH1 0x20 MSTORE PUSH4 0x7F5E9F20 PUSH1 0xC SWAP1 DUP2 MSTORE PUSH0 SWAP2 SWAP1 SWAP2 MSTORE PUSH1 0x34 SWAP1 KECCAK256 SLOAD SWAP1 JUMP JUMPDEST CALLVALUE DUP1 ISZERO PUSH2 0x69C JUMPI PUSH0 PUSH0 REVERT JUMPDEST POP PUSH2 0x301 PUSH0 SLOAD DUP2 JUMP JUMPDEST CALLVALUE DUP1 ISZERO PUSH2 0x6B0 JUMPI PUSH0 PUSH0 REVERT JUMPDEST POP PUSH2 0x301 PUSH2 0x6BF CALLDATASIZE PUSH1 0x4 PUSH2 0x16FD JUMP JUMPDEST PUSH2 0x10C6 JUMP JUMPDEST CALLVALUE DUP1 ISZERO PUSH2 0x6CF JUMPI PUSH0 PUSH0 REVERT JUMPDEST POP PUSH2 0x301 PUSH32 0x0 DUP2 JUMP JUMPDEST CALLVALUE DUP1 ISZERO PUSH2 0x702 JUMPI PUSH0 PUSH0 REVERT JUMPDEST POP PUSH2 0x48D PUSH2 0x711 CALLDATASIZE PUSH1 0x4 PUSH2 0x16E2 JUMP JUMPDEST PUSH2 0x1264 JUMP JUMPDEST CALLVALUE DUP1 ISZERO PUSH2 0x721 JUMPI PUSH0 PUSH0 REVERT JUMPDEST POP PUSH2 0x301 PUSH2 0x12A6 JUMP JUMPDEST CALLVALUE DUP1 ISZERO PUSH2 0x735 JUMPI PUSH0 PUSH0 REVERT JUMPDEST POP PUSH2 0x254 PUSH32 0x0 DUP2 JUMP JUMPDEST CALLVALUE DUP1 ISZERO PUSH2 0x768 JUMPI PUSH0 PUSH0 REVERT JUMPDEST POP PUSH2 0x301 PUSH2 0x777 CALLDATASIZE PUSH1 0x4 PUSH2 0x16FD JUMP JUMPDEST PUSH2 0x12DE JUMP JUMPDEST PUSH1 0x60 PUSH1 0x3 DUP1 SLOAD PUSH2 0x78B SWAP1 PUSH2 0x18E2 JUMP JUMPDEST DUP1 PUSH1 0x1F ADD PUSH1 0x20 DUP1 SWAP2 DIV MUL PUSH1 0x20 ADD PUSH1 0x40 MLOAD SWAP1 DUP2 ADD PUSH1 0x40 MSTORE DUP1 SWAP3 SWAP2 SWAP1 DUP2 DUP2 MSTORE PUSH1 0x20 ADD DUP3 DUP1 SLOAD PUSH2 0x7B7 SWAP1 PUSH2 0x18E2 JUMP JUMPDEST DUP1 ISZERO PUSH2 0x802 JUMPI DUP1 PUSH1 0x1F LT PUSH2 0x7D9 JUMPI PUSH2 0x100 DUP1 DUP4 SLOAD DIV MUL DUP4 MSTORE SWAP2 PUSH1 0x20 ADD SWAP2 PUSH2 0x802 JUMP JUMPDEST DUP3 ADD SWAP2 SWAP1 PUSH0 MSTORE PUSH1 0x20 PUSH0 KECCAK256 SWAP1 JUMPDEST DUP2 SLOAD DUP2 MSTORE SWAP1 PUSH1 0x1 ADD SWAP1 PUSH1 0x20 ADD DUP1 DUP4 GT PUSH2 0x7E5 JUMPI DUP3 SWAP1 SUB PUSH1 0x1F AND DUP3 ADD SWAP2 JUMPDEST POP POP POP POP POP SWAP1 POP SWAP1 JUMP JUMPDEST PUSH0 DUP3 PUSH1 0x20 MSTORE PUSH4 0x7F5E9F20 PUSH1 0xC MSTORE CALLER PUSH0 MSTORE DUP2 PUSH1 0x34 PUSH1 0xC KECCAK256 SSTORE DUP2 PUSH0 MSTORE PUSH1 0x2C MLOAD PUSH1 0x60 SHR CALLER PUSH32 0x8C5BE1E5EBEC7D5BD14F71427D1E84F3DD0314C0F7B2291E5B200AC8C7C3B925 PUSH1 0x20 PUSH0 LOG3 POP PUSH1 0x1 JUMPDEST SWAP3 SWAP2 POP POP JUMP JUMPDEST PUSH0 PUSH1 0x60 PUSH2 0x867 PUSH2 0x1380 JUMP JUMPDEST DUP6 PUSH1 0x1 PUSH1 0x1 PUSH1 0xA0 SHL SUB AND DUP6 DUP6 DUP6 PUSH1 0x40 MLOAD PUSH2 0x882 SWAP3 SWAP2 SWAP1 PUSH2 0x1914 JUMP JUMPDEST PUSH0 PUSH1 0x40 MLOAD DUP1 DUP4 SUB DUP2 DUP6 DUP8 GAS CALL SWAP3 POP POP POP RETURNDATASIZE DUP1 PUSH0 DUP2 EQ PUSH2 0x8BC JUMPI PUSH1 0x40 MLOAD SWAP2 POP PUSH1 0x1F NOT PUSH1 0x3F RETURNDATASIZE ADD AND DUP3 ADD PUSH1 0x40 MSTORE RETURNDATASIZE DUP3 MSTORE RETURNDATASIZE PUSH0 PUSH1 0x20 DUP5 ADD RETURNDATACOPY PUSH2 0x8C1 JUMP JUMPDEST PUSH1 0x60 SWAP2 POP JUMPDEST POP SWAP2 POP SWAP2 POP SWAP5 POP SWAP5 SWAP3 POP POP POP JUMP JUMPDEST PUSH0 PUSH2 0x8D9 CALLVALUE PUSH2 0xC37 JUMP JUMPDEST SWAP1 POP PUSH2 0x8E5 DUP3 DUP3 PUSH2 0x13AD JUMP JUMPDEST SWAP2 SWAP1 POP JUMP JUMPDEST PUSH0 PUSH0 SELFBALANCE SWAP1 POP PUSH32 0x0 PUSH1 0x1 PUSH1 0x1 PUSH1 0xA0 SHL SUB AND DUP6 PUSH1 0x1 PUSH1 0x1 PUSH1 0xA0 SHL SUB AND EQ PUSH2 0x9BA JUMPI PUSH1 0x40 MLOAD PUSH4 0x95EA7B3 PUSH1 0xE0 SHL DUP2 MSTORE PUSH1 0x1 PUSH1 0x1 PUSH1 0xA0 SHL SUB DUP7 DUP2 AND PUSH1 0x4 DUP4 ADD MSTORE PUSH1 0x24 DUP3 ADD DUP7 SWAP1 MSTORE PUSH32 0x0 AND SWAP1 PUSH4 0x95EA7B3 SWAP1 PUSH1 0x44 ADD PUSH1 0x20 PUSH1 0x40 MLOAD DUP1 DUP4 SUB DUP2 PUSH0 DUP8 GAS CALL ISZERO DUP1 ISZERO PUSH2 0x994 JUMPI RETURNDATASIZE PUSH0 PUSH0 RETURNDATACOPY RETURNDATASIZE PUSH0 REVERT JUMPDEST POP POP POP POP PUSH1 0x40 MLOAD RETURNDATASIZE PUSH1 0x1F NOT PUSH1 0x1F DUP3 ADD AND DUP3 ADD DUP1 PUSH1 0x40 MSTORE POP DUP2 ADD SWAP1 PUSH2 0x9B8 SWAP2 SWAP1 PUSH2 0x1923 JUMP JUMPDEST POP JUMPDEST PUSH1 0x40 MLOAD PUSH3 0x30197B PUSH1 0xE9 SHL DUP2 MSTORE PUSH1 0x4 DUP2 ADD DUP6 SWAP1 MSTORE PUSH1 0x1 PUSH1 0x1 PUSH1 0xA0 SHL SUB DUP7 AND SWAP1 PUSH4 0x6032F600 SWAP1 PUSH1 0x24 ADD PUSH1 0x20 PUSH1 0x40 MLOAD DUP1 DUP4 SUB DUP2 PUSH0 DUP8 GAS CALL ISZERO DUP1 ISZERO PUSH2 0x9FD JUMPI RETURNDATASIZE PUSH0 PUSH0 RETURNDATACOPY RETURNDATASIZE PUSH0 REVERT JUMPDEST POP POP POP POP PUSH1 0x40 MLOAD RETURNDATASIZE PUSH1 0x1F NOT PUSH1 0x1F DUP3 ADD AND DUP3 ADD DUP1 PUSH1 0x40 MSTORE POP DUP2 ADD SWAP1 PUSH2 0xA21 SWAP2 SWAP1 PUSH2 0x1942 JUMP JUMPDEST POP DUP4 PUSH2 0xA30 PUSH2 0x4A9 DUP4 SELFBALANCE PUSH2 0x196D JUMP JUMPDEST PUSH2 0xA3A SWAP2 SWAP1 PUSH2 0x196D JUMP JUMPDEST SWAP2 POP PUSH2 0xA46 DUP4 DUP4 PUSH2 0x13AD JUMP JUMPDEST POP SWAP4 SWAP3 POP POP POP JUMP JUMPDEST PUSH0 PUSH2 0xA58 CALLER PUSH2 0x8CF JUMP JUMPDEST SWAP1 POP SWAP1 JUMP JUMPDEST PUSH0 DUP4 PUSH1 0x60 SHL CALLER PUSH1 0x20 MSTORE PUSH4 0x7F5E9F20 DUP2 OR PUSH1 0xC MSTORE PUSH1 0x34 PUSH1 0xC KECCAK256 DUP1 SLOAD DUP1 NOT ISZERO PUSH2 0xA99 JUMPI DUP1 DUP6 GT ISZERO PUSH2 0xA93 JUMPI PUSH4 0x13BE252B PUSH0 MSTORE PUSH1 0x4 PUSH1 0x1C REVERT JUMPDEST DUP5 DUP2 SUB DUP3 SSTORE JUMPDEST POP POP PUSH4 0x87A211A2 DUP2 OR PUSH1 0xC MSTORE PUSH1 0x20 PUSH1 0xC KECCAK256 DUP1 SLOAD DUP1 DUP6 GT ISZERO PUSH2 0xAC1 JUMPI PUSH4 0xF4D678B8 PUSH0 MSTORE PUSH1 0x4 PUSH1 0x1C REVERT JUMPDEST DUP5 DUP2 SUB DUP3 SSTORE POP POP DUP4 PUSH0 MSTORE PUSH1 0x20 PUSH1 0xC KECCAK256 DUP4 DUP2 SLOAD ADD DUP2 SSTORE POP DUP3 PUSH1 0x20 MSTORE PUSH1 0xC MLOAD PUSH1 0x60 SHR DUP2 PUSH1 0x60 SHR PUSH0 MLOAD PUSH1 0x20 PUSH2 0x1A51 PUSH0 CODECOPY PUSH0 MLOAD SWAP1 PUSH0 MSTORE PUSH1 0x20 DUP1 LOG3 POP POP PUSH1 0x1 SWAP4 SWAP3 POP POP POP JUMP JUMPDEST PUSH0 PUSH32 0x0 DUP1 PUSH2 0xB3B JUMPI PUSH2 0xB31 PUSH2 0x77C JUMP JUMPDEST DUP1 MLOAD SWAP1 PUSH1 0x20 ADD KECCAK256 SWAP1 POP JUMPDEST PUSH1 0x40 DUP1 MLOAD PUSH32 0x8B73C3C69BB8FE3D512ECC4CF759CC79239F7B179B0FFACAA9A75D522B39400F DUP2 MSTORE PUSH1 0x20 DUP2 ADD SWAP3 SWAP1 SWAP3 MSTORE PUSH32 0xC89EFDAA54C0F20C7ADF612882DF0950F5A951637E0307CDCB4C672F298B8BC6 SWAP1 DUP3 ADD MSTORE CHAINID PUSH1 0x60 DUP3 ADD MSTORE ADDRESS PUSH1 0x80 DUP3 ADD MSTORE PUSH1 0xA0 SWAP1 KECCAK256 SWAP2 SWAP1 POP JUMP JUMPDEST PUSH0 PUSH2 0xBD8 DUP3 PUSH1 0x1 PUSH1 0x1 PUSH1 0x80 SHL SUB PUSH32 0x0 AND PUSH2 0x1980 JUMP JUMPDEST DUP3 PUSH2 0xBE1 PUSH2 0xE4F JUMP JUMPDEST PUSH2 0xBEB SWAP2 SWAP1 PUSH2 0x1993 JUMP JUMPDEST PUSH2 0xBF5 SWAP2 SWAP1 PUSH2 0x19AA JUMP JUMPDEST SWAP1 POP DUP1 SELFBALANCE LT ISZERO PUSH2 0x8E5 JUMPI POP SELFBALANCE SWAP2 SWAP1 POP JUMP JUMPDEST PUSH0 PUSH2 0x856 DUP3 CALLER PUSH2 0xE2F JUMP JUMPDEST PUSH0 PUSH2 0xC1D DUP4 CALLER DUP5 PUSH2 0xCE0 JUMP JUMPDEST SWAP4 SWAP3 POP POP POP JUMP JUMPDEST PUSH2 0xC2C PUSH2 0x1380 JUMP JUMPDEST PUSH2 0xC35 PUSH0 PUSH2 0x1408 JUMP JUMPDEST JUMP JUMPDEST PUSH0 PUSH2 0xC6B DUP3 PUSH1 0x1 PUSH1 0x1 PUSH1 0x80 SHL SUB PUSH32 0x0 AND PUSH2 0x1980 JUMP JUMPDEST DUP3 PUSH2 0xC74 PUSH2 0x12A6 JUMP JUMPDEST PUSH2 0xC7E SWAP2 SWAP1 PUSH2 0x1993 JUMP JUMPDEST PUSH2 0x856 SWAP2 SWAP1 PUSH2 0x19AA JUMP JUMPDEST PUSH0 CALLER PUSH1 0x1 PUSH1 0x1 PUSH1 0xA0 SHL SUB PUSH32 0x0 AND EQ PUSH2 0xCBD JUMPI PUSH0 PUSH0 REVERT JUMPDEST PUSH2 0xCCF DUP6 PUSH2 0xCCA DUP7 PUSH2 0xBA4 JUMP JUMPDEST PUSH2 0x1459 JUMP JUMPDEST POP PUSH4 0x44A1F601 PUSH1 0xE1 SHL SWAP5 SWAP4 POP POP POP POP JUMP JUMPDEST PUSH0 PUSH1 0x1 PUSH1 0x1 PUSH1 0xA0 SHL SUB PUSH32 0x0 AND PUSH4 0xD505ACCF CALLER ADDRESS DUP8 DUP7 CALLDATALOAD PUSH2 0xD25 PUSH1 0x40 DUP10 ADD PUSH1 0x20 DUP11 ADD PUSH2 0x19C9 JUMP JUMPDEST PUSH1 0x40 DUP1 MLOAD PUSH1 0x1 PUSH1 0x1 PUSH1 0xE0 SHL SUB NOT PUSH1 0xE0 DUP10 SWAP1 SHL AND DUP2 MSTORE PUSH1 0x1 PUSH1 0x1 PUSH1 0xA0 SHL SUB SWAP7 DUP8 AND PUSH1 0x4 DUP3 ADD MSTORE SWAP6 SWAP1 SWAP5 AND PUSH1 0x24 DUP7 ADD MSTORE PUSH1 0x44 DUP6 ADD SWAP3 SWAP1 SWAP3 MSTORE PUSH1 0x64 DUP5 ADD MSTORE PUSH1 0xFF AND PUSH1 0x84 DUP4 ADD MSTORE DUP6 ADD CALLDATALOAD PUSH1 0xA4 DUP3 ADD MSTORE PUSH1 0x60 DUP6 ADD CALLDATALOAD PUSH1 0xC4 DUP3 ADD MSTORE PUSH1 0xE4 ADD PUSH0 PUSH1 0x40 MLOAD DUP1 DUP4 SUB DUP2 PUSH0 DUP8 DUP1 EXTCODESIZE ISZERO DUP1 ISZERO PUSH2 0xD94 JUMPI PUSH0 PUSH0 REVERT JUMPDEST POP GAS CALL ISZERO DUP1 ISZERO PUSH2 0xDA6 JUMPI RETURNDATASIZE PUSH0 PUSH0 RETURNDATACOPY RETURNDATASIZE PUSH0 REVERT JUMPDEST POP POP POP POP PUSH2 0xDB4 DUP5 DUP5 PUSH2 0xE2F JUMP JUMPDEST SWAP5 SWAP4 POP POP POP POP JUMP JUMPDEST PUSH1 0x60 PUSH1 0x4 DUP1 SLOAD PUSH2 0x78B SWAP1 PUSH2 0x18E2 JUMP JUMPDEST PUSH0 PUSH4 0x87A211A2 PUSH1 0xC MSTORE CALLER PUSH0 MSTORE PUSH1 0x20 PUSH1 0xC KECCAK256 DUP1 SLOAD DUP1 DUP5 GT ISZERO PUSH2 0xDF3 JUMPI PUSH4 0xF4D678B8 PUSH0 MSTORE PUSH1 0x4 PUSH1 0x1C REVERT JUMPDEST DUP4 DUP2 SUB DUP3 SSTORE POP POP DUP3 PUSH0 MSTORE PUSH1 0x20 PUSH1 0xC KECCAK256 DUP3 DUP2 SLOAD ADD DUP2 SSTORE POP DUP2 PUSH1 0x20 MSTORE PUSH1 0xC MLOAD PUSH1 0x60 SHR CALLER PUSH0 MLOAD PUSH1 0x20 PUSH2 0x1A51 PUSH0 CODECOPY PUSH0 MLOAD SWAP1 PUSH0 MSTORE PUSH1 0x20 DUP1 LOG3 POP PUSH1 0x1 SWAP3 SWAP2 POP POP JUMP JUMPDEST PUSH0 PUSH2 0xE39 DUP4 PUSH2 0xBA4 JUMP JUMPDEST SWAP1 POP PUSH2 0xE45 CALLER DUP5 PUSH2 0x14FB JUMP JUMPDEST PUSH2 0x856 DUP3 DUP3 PUSH2 0x1459 JUMP JUMPDEST PUSH0 PUSH32 0x0 PUSH1 0x1 PUSH1 0x1 PUSH1 0x80 SHL SUB AND PUSH1 0x1 SLOAD TIMESTAMP PUSH2 0xE88 SWAP2 SWAP1 PUSH2 0x196D JUMP JUMPDEST PUSH2 0xA58 SWAP2 SWAP1 PUSH2 0x1993 JUMP JUMPDEST PUSH0 PUSH2 0xE9D DUP6 DUP6 PUSH2 0xDCB JUMP JUMPDEST POP PUSH1 0x40 MLOAD PUSH4 0x44A1F601 PUSH1 0xE1 SHL DUP2 MSTORE PUSH1 0x1 PUSH1 0x1 PUSH1 0xA0 SHL SUB DUP7 AND SWAP1 PUSH4 0x8943EC02 SWAP1 PUSH2 0xED0 SWAP1 CALLER SWAP1 DUP9 SWAP1 DUP9 SWAP1 DUP9 SWAP1 PUSH1 0x4 ADD PUSH2 0x19E2 JUMP JUMPDEST PUSH1 0x20 PUSH1 0x40 MLOAD DUP1 DUP4 SUB DUP2 PUSH0 DUP8 GAS CALL ISZERO DUP1 ISZERO PUSH2 0xEEC JUMPI RETURNDATASIZE PUSH0 PUSH0 RETURNDATACOPY RETURNDATASIZE PUSH0 REVERT JUMPDEST POP POP POP POP PUSH1 0x40 MLOAD RETURNDATASIZE PUSH1 0x1F NOT PUSH1 0x1F DUP3 ADD AND DUP3 ADD DUP1 PUSH1 0x40 MSTORE POP DUP2 ADD SWAP1 PUSH2 0xF10 SWAP2 SWAP1 PUSH2 0x1A29 JUMP JUMPDEST POP PUSH1 0x1 SWAP6 SWAP5 POP POP POP POP POP JUMP JUMPDEST PUSH32 0x0 DUP1 PUSH2 0xF54 JUMPI PUSH2 0xF4A PUSH2 0x77C JUMP JUMPDEST DUP1 MLOAD SWAP1 PUSH1 0x20 ADD KECCAK256 SWAP1 POP JUMPDEST PUSH32 0xC89EFDAA54C0F20C7ADF612882DF0950F5A951637E0307CDCB4C672F298B8BC6 TIMESTAMP DUP7 LT ISZERO PUSH2 0xF8A JUMPI PUSH4 0x1A15A3CC PUSH0 MSTORE PUSH1 0x4 PUSH1 0x1C REVERT JUMPDEST PUSH1 0x40 MLOAD DUP10 PUSH1 0x60 SHL PUSH1 0x60 SHR SWAP10 POP DUP9 PUSH1 0x60 SHL PUSH1 0x60 SHR SWAP9 POP PUSH6 0x383775081901 PUSH1 0xE MSTORE DUP10 PUSH0 MSTORE PUSH1 0x20 PUSH1 0xC KECCAK256 DUP1 SLOAD PUSH32 0x8B73C3C69BB8FE3D512ECC4CF759CC79239F7B179B0FFACAA9A75D522B39400F DUP4 MSTORE DUP5 PUSH1 0x20 DUP5 ADD MSTORE DUP4 PUSH1 0x40 DUP5 ADD MSTORE CHAINID PUSH1 0x60 DUP5 ADD MSTORE ADDRESS PUSH1 0x80 DUP5 ADD MSTORE PUSH1 0xA0 DUP4 KECCAK256 PUSH1 0x2E MSTORE PUSH32 0x6E71EDAE12B1B97F4D1F60370FEF10105FA2FAAE0126114A169C64845D6126C9 DUP4 MSTORE DUP12 PUSH1 0x20 DUP5 ADD MSTORE DUP11 PUSH1 0x40 DUP5 ADD MSTORE DUP10 PUSH1 0x60 DUP5 ADD MSTORE DUP1 PUSH1 0x80 DUP5 ADD MSTORE DUP9 PUSH1 0xA0 DUP5 ADD MSTORE PUSH1 0xC0 DUP4 KECCAK256 PUSH1 0x4E MSTORE PUSH1 0x42 PUSH1 0x2C KECCAK256 PUSH0 MSTORE DUP8 PUSH1 0xFF AND PUSH1 0x20 MSTORE DUP7 PUSH1 0x40 MSTORE DUP6 PUSH1 0x60 MSTORE PUSH1 0x20 DUP1 PUSH1 0x80 PUSH0 PUSH1 0x1 GAS STATICCALL DUP13 RETURNDATASIZE MLOAD EQ PUSH2 0x1072 JUMPI PUSH4 0xDDAFBAEF PUSH0 MSTORE PUSH1 0x4 PUSH1 0x1C REVERT JUMPDEST ADD SWAP1 SSTORE PUSH4 0x3FAF4F9 PUSH1 0xA5 SHL DUP10 OR PUSH1 0x40 MSTORE PUSH1 0x34 PUSH1 0x2C KECCAK256 DUP9 SWAP1 SSTORE DUP9 DUP11 PUSH32 0x8C5BE1E5EBEC7D5BD14F71427D1E84F3DD0314C0F7B2291E5B200AC8C7C3B925 PUSH1 0x20 PUSH1 0x60 DUP6 ADD LOG3 PUSH1 0x40 MSTORE POP POP PUSH0 PUSH1 0x60 MSTORE POP POP POP POP POP POP POP JUMP JUMPDEST PUSH1 0x40 MLOAD PUSH4 0x70A08231 PUSH1 0xE0 SHL DUP2 MSTORE ADDRESS PUSH1 0x4 DUP3 ADD MSTORE PUSH0 SWAP1 DUP2 SWAP1 PUSH1 0x1 PUSH1 0x1 PUSH1 0xA0 SHL SUB PUSH32 0x0 AND SWAP1 PUSH4 0x70A08231 SWAP1 PUSH1 0x24 ADD PUSH1 0x20 PUSH1 0x40 MLOAD DUP1 DUP4 SUB DUP2 DUP7 GAS STATICCALL ISZERO DUP1 ISZERO PUSH2 0x112C JUMPI RETURNDATASIZE PUSH0 PUSH0 RETURNDATACOPY RETURNDATASIZE PUSH0 REVERT JUMPDEST POP POP POP POP PUSH1 0x40 MLOAD RETURNDATASIZE PUSH1 0x1F NOT PUSH1 0x1F DUP3 ADD AND DUP3 ADD DUP1 PUSH1 0x40 MSTORE POP DUP2 ADD SWAP1 PUSH2 0x1150 SWAP2 SWAP1 PUSH2 0x1942 JUMP JUMPDEST SWAP1 POP DUP5 PUSH1 0x1 PUSH1 0x1 PUSH1 0xA0 SHL SUB AND PUSH4 0x223ECF7E DUP6 PUSH1 0x40 MLOAD DUP3 PUSH4 0xFFFFFFFF AND PUSH1 0xE0 SHL DUP2 MSTORE PUSH1 0x4 ADD PUSH1 0x20 PUSH1 0x40 MLOAD DUP1 DUP4 SUB DUP2 DUP6 DUP9 GAS CALL ISZERO DUP1 ISZERO PUSH2 0x1190 JUMPI RETURNDATASIZE PUSH0 PUSH0 RETURNDATACOPY RETURNDATASIZE PUSH0 REVERT JUMPDEST POP POP POP POP POP PUSH1 0x40 MLOAD RETURNDATASIZE PUSH1 0x1F NOT PUSH1 0x1F DUP3 ADD AND DUP3 ADD DUP1 PUSH1 0x40 MSTORE POP DUP2 ADD SWAP1 PUSH2 0x11B5 SWAP2 SWAP1 PUSH2 0x1942 JUMP JUMPDEST POP PUSH1 0x40 MLOAD PUSH4 0x70A08231 PUSH1 0xE0 SHL DUP2 MSTORE ADDRESS PUSH1 0x4 DUP3 ADD MSTORE DUP5 SWAP1 PUSH2 0x124E SWAP1 DUP4 SWAP1 PUSH1 0x1 PUSH1 0x1 PUSH1 0xA0 SHL SUB PUSH32 0x0 AND SWAP1 PUSH4 0x70A08231 SWAP1 PUSH1 0x24 ADD PUSH1 0x20 PUSH1 0x40 MLOAD DUP1 DUP4 SUB DUP2 DUP7 GAS STATICCALL ISZERO DUP1 ISZERO PUSH2 0x1220 JUMPI RETURNDATASIZE PUSH0 PUSH0 RETURNDATACOPY RETURNDATASIZE PUSH0 REVERT JUMPDEST POP POP POP POP PUSH1 0x40 MLOAD RETURNDATASIZE PUSH1 0x1F NOT PUSH1 0x1F DUP3 ADD AND DUP3 ADD DUP1 PUSH1 0x40 MSTORE POP DUP2 ADD SWAP1 PUSH2 0x1244 SWAP2 SWAP1 PUSH2 0x1942 JUMP JUMPDEST PUSH2 0x405 SWAP2 SWAP1 PUSH2 0x196D JUMP JUMPDEST PUSH2 0x1258 SWAP2 SWAP1 PUSH2 0x196D JUMP JUMPDEST SWAP2 POP PUSH2 0xA46 DUP4 DUP4 PUSH2 0x1459 JUMP JUMPDEST PUSH2 0x126C PUSH2 0x1380 JUMP JUMPDEST PUSH1 0x1 PUSH1 0x1 PUSH1 0xA0 SHL SUB DUP2 AND PUSH2 0x129A JUMPI PUSH1 0x40 MLOAD PUSH4 0x1E4FBDF7 PUSH1 0xE0 SHL DUP2 MSTORE PUSH0 PUSH1 0x4 DUP3 ADD MSTORE PUSH1 0x24 ADD JUMPDEST PUSH1 0x40 MLOAD DUP1 SWAP2 SUB SWAP1 REVERT JUMPDEST PUSH2 0x12A3 DUP2 PUSH2 0x1408 JUMP JUMPDEST POP JUMP JUMPDEST PUSH0 PUSH32 0x0 PUSH1 0x1 PUSH1 0x1 PUSH1 0x80 SHL SUB AND PUSH0 SLOAD TIMESTAMP PUSH2 0xE88 SWAP2 SWAP1 PUSH2 0x196D JUMP JUMPDEST PUSH1 0x40 MLOAD PUSH4 0x5F22FEB1 PUSH1 0xE1 SHL DUP2 MSTORE PUSH1 0x1 PUSH1 0x1 PUSH1 0xA0 SHL SUB DUP5 DUP2 AND PUSH1 0x4 DUP4 ADD MSTORE PUSH1 0x24 DUP3 ADD DUP5 SWAP1 MSTORE PUSH1 0x60 PUSH1 0x44 DUP4 ADD MSTORE PUSH0 PUSH1 0x64 DUP4 ADD DUP2 SWAP1 MSTORE SWAP2 SELFBALANCE SWAP2 PUSH32 0x0 AND SWAP1 PUSH4 0xBE45FD62 SWAP1 PUSH1 0x84 ADD PUSH1 0x20 PUSH1 0x40 MLOAD DUP1 DUP4 SUB DUP2 PUSH0 DUP8 GAS CALL ISZERO DUP1 ISZERO PUSH2 0x135C JUMPI RETURNDATASIZE PUSH0 PUSH0 RETURNDATACOPY RETURNDATASIZE PUSH0 REVERT JUMPDEST POP POP POP POP PUSH1 0x40 MLOAD RETURNDATASIZE PUSH1 0x1F NOT PUSH1 0x1F DUP3 ADD AND DUP3 ADD DUP1 PUSH1 0x40 MSTORE POP DUP2 ADD SWAP1 PUSH2 0xA21 SWAP2 SWAP1 PUSH2 0x1923 JUMP JUMPDEST PUSH1 0x2 SLOAD PUSH1 0x1 PUSH1 0x1 PUSH1 0xA0 SHL SUB AND CALLER EQ PUSH2 0xC35 JUMPI PUSH1 0x40 MLOAD PUSH4 0x118CDAA7 PUSH1 0xE0 SHL DUP2 MSTORE CALLER PUSH1 0x4 DUP3 ADD MSTORE PUSH1 0x24 ADD PUSH2 0x1291 JUMP JUMPDEST PUSH2 0x13E0 PUSH1 0x1 PUSH1 0x1 PUSH1 0x80 SHL SUB PUSH32 0x0 AND DUP3 PUSH2 0x19AA JUMP JUMPDEST PUSH0 PUSH0 DUP3 DUP3 SLOAD PUSH2 0x13EF SWAP2 SWAP1 PUSH2 0x1980 JUMP JUMPDEST SWAP1 SWAP2 SSTORE POP PUSH2 0x13FF SWAP1 POP DUP3 DUP3 PUSH2 0x155C JUMP JUMPDEST POP POP JUMP JUMPDEST POP POP POP JUMP JUMPDEST PUSH1 0x2 DUP1 SLOAD PUSH1 0x1 PUSH1 0x1 PUSH1 0xA0 SHL SUB DUP4 DUP2 AND PUSH1 0x1 PUSH1 0x1 PUSH1 0xA0 SHL SUB NOT DUP4 AND DUP2 OR SWAP1 SWAP4 SSTORE PUSH1 0x40 MLOAD SWAP2 AND SWAP2 SWAP1 DUP3 SWAP1 PUSH32 0x8BE0079C531659141344CD1FD0A4F28419497F9722A3DAAFE3B4186F6B6457E0 SWAP1 PUSH0 SWAP1 LOG3 POP POP JUMP JUMPDEST PUSH2 0x148C PUSH1 0x1 PUSH1 0x1 PUSH1 0x80 SHL SUB PUSH32 0x0 AND DUP3 PUSH2 0x19AA JUMP JUMPDEST PUSH1 0x1 PUSH0 DUP3 DUP3 SLOAD PUSH2 0x149C SWAP2 SWAP1 PUSH2 0x1980 JUMP JUMPDEST SWAP1 SWAP2 SSTORE POP POP PUSH1 0x40 MLOAD PUSH0 SWAP1 PUSH1 0x1 PUSH1 0x1 PUSH1 0xA0 SHL SUB DUP5 AND SWAP1 DUP4 SWAP1 DUP4 DUP2 DUP2 DUP2 DUP6 DUP8 GAS CALL SWAP3 POP POP POP RETURNDATASIZE DUP1 PUSH0 DUP2 EQ PUSH2 0x14E9 JUMPI PUSH1 0x40 MLOAD SWAP2 POP PUSH1 0x1F NOT PUSH1 0x3F RETURNDATASIZE ADD AND DUP3 ADD PUSH1 0x40 MSTORE RETURNDATASIZE DUP3 MSTORE RETURNDATASIZE PUSH0 PUSH1 0x20 DUP5 ADD RETURNDATACOPY PUSH2 0x14EE JUMP JUMPDEST PUSH1 0x60 SWAP2 POP JUMPDEST POP POP SWAP1 POP DUP1 PUSH2 0x1403 JUMPI PUSH0 PUSH0 REVERT JUMPDEST PUSH4 0x87A211A2 PUSH1 0xC MSTORE DUP2 PUSH0 MSTORE PUSH1 0x20 PUSH1 0xC KECCAK256 DUP1 SLOAD DUP1 DUP4 GT ISZERO PUSH2 0x1522 JUMPI PUSH4 0xF4D678B8 PUSH0 MSTORE PUSH1 0x4 PUSH1 0x1C REVERT JUMPDEST DUP3 SWAP1 SUB SWAP1 SSTORE PUSH9 0x5345CDF77EB68F44C DUP1 SLOAD DUP3 SWAP1 SUB SWAP1 SSTORE PUSH0 DUP2 DUP2 MSTORE PUSH1 0x1 PUSH1 0x1 PUSH1 0xA0 SHL SUB DUP4 AND PUSH0 MLOAD PUSH1 0x20 PUSH2 0x1A51 PUSH0 CODECOPY PUSH0 MLOAD SWAP1 PUSH0 MSTORE PUSH1 0x20 DUP4 LOG3 POP POP JUMP JUMPDEST PUSH9 0x5345CDF77EB68F44C SLOAD DUP2 DUP2 ADD DUP2 DUP2 LT ISZERO PUSH2 0x157F JUMPI PUSH4 0xE5CFE957 PUSH0 MSTORE PUSH1 0x4 PUSH1 0x1C REVERT JUMPDEST DUP1 PUSH9 0x5345CDF77EB68F44C SSTORE POP POP PUSH4 0x87A211A2 PUSH1 0xC MSTORE DUP2 PUSH0 MSTORE PUSH1 0x20 PUSH1 0xC KECCAK256 DUP2 DUP2 SLOAD ADD DUP2 SSTORE POP DUP1 PUSH1 0x20 MSTORE PUSH1 0xC MLOAD PUSH1 0x60 SHR PUSH0 PUSH0 MLOAD PUSH1 0x20 PUSH2 0x1A51 PUSH0 CODECOPY PUSH0 MLOAD SWAP1 PUSH0 MSTORE PUSH1 0x20 DUP1 LOG3 POP POP JUMP JUMPDEST PUSH0 DUP2 MLOAD DUP1 DUP5 MSTORE DUP1 PUSH1 0x20 DUP5 ADD PUSH1 0x20 DUP7 ADD MCOPY PUSH0 PUSH1 0x20 DUP3 DUP7 ADD ADD MSTORE PUSH1 0x20 PUSH1 0x1F NOT PUSH1 0x1F DUP4 ADD AND DUP6 ADD ADD SWAP2 POP POP SWAP3 SWAP2 POP POP JUMP JUMPDEST PUSH1 0x20 DUP2 MSTORE PUSH0 PUSH2 0xC1D PUSH1 0x20 DUP4 ADD DUP5 PUSH2 0x15C5 JUMP JUMPDEST PUSH1 0x1 PUSH1 0x1 PUSH1 0xA0 SHL SUB DUP2 AND DUP2 EQ PUSH2 0x12A3 JUMPI PUSH0 PUSH0 REVERT JUMPDEST PUSH0 PUSH0 PUSH1 0x40 DUP4 DUP6 SUB SLT ISZERO PUSH2 0x162A JUMPI PUSH0 PUSH0 REVERT JUMPDEST DUP3 CALLDATALOAD PUSH2 0x1635 DUP2 PUSH2 0x1605 JUMP JUMPDEST SWAP5 PUSH1 0x20 SWAP4 SWAP1 SWAP4 ADD CALLDATALOAD SWAP4 POP POP POP JUMP JUMPDEST PUSH0 PUSH0 PUSH0 PUSH0 PUSH1 0x60 DUP6 DUP8 SUB SLT ISZERO PUSH2 0x1656 JUMPI PUSH0 PUSH0 REVERT JUMPDEST DUP5 CALLDATALOAD PUSH2 0x1661 DUP2 PUSH2 0x1605 JUMP JUMPDEST SWAP4 POP PUSH1 0x20 DUP6 ADD CALLDATALOAD SWAP3 POP PUSH1 0x40 DUP6 ADD CALLDATALOAD PUSH8 0xFFFFFFFFFFFFFFFF DUP2 GT ISZERO PUSH2 0x1683 JUMPI PUSH0 PUSH0 REVERT JUMPDEST DUP6 ADD PUSH1 0x1F DUP2 ADD DUP8 SGT PUSH2 0x1693 JUMPI PUSH0 PUSH0 REVERT JUMPDEST DUP1 CALLDATALOAD PUSH8 0xFFFFFFFFFFFFFFFF DUP2 GT ISZERO PUSH2 0x16A9 JUMPI PUSH0 PUSH0 REVERT JUMPDEST DUP8 PUSH1 0x20 DUP3 DUP5 ADD ADD GT ISZERO PUSH2 0x16BA JUMPI PUSH0 PUSH0 REVERT JUMPDEST SWAP5 SWAP8 SWAP4 SWAP7 POP PUSH1 0x20 ADD SWAP5 POP POP POP JUMP JUMPDEST DUP3 ISZERO ISZERO DUP2 MSTORE PUSH1 0x40 PUSH1 0x20 DUP3 ADD MSTORE PUSH0 PUSH2 0xDB4 PUSH1 0x40 DUP4 ADD DUP5 PUSH2 0x15C5 JUMP JUMPDEST PUSH0 PUSH1 0x20 DUP3 DUP5 SUB SLT ISZERO PUSH2 0x16F2 JUMPI PUSH0 PUSH0 REVERT JUMPDEST DUP2 CALLDATALOAD PUSH2 0xC1D DUP2 PUSH2 0x1605 JUMP JUMPDEST PUSH0 PUSH0 PUSH0 PUSH1 0x60 DUP5 DUP7 SUB SLT ISZERO PUSH2 0x170F JUMPI PUSH0 PUSH0 REVERT JUMPDEST DUP4 CALLDATALOAD PUSH2 0x171A DUP2 PUSH2 0x1605 JUMP JUMPDEST SWAP3 POP PUSH1 0x20 DUP5 ADD CALLDATALOAD SWAP2 POP PUSH1 0x40 DUP5 ADD CALLDATALOAD PUSH2 0x1731 DUP2 PUSH2 0x1605 JUMP JUMPDEST DUP1 SWAP2 POP POP SWAP3 POP SWAP3 POP SWAP3 JUMP JUMPDEST PUSH0 PUSH0 PUSH0 PUSH1 0x60 DUP5 DUP7 SUB SLT ISZERO PUSH2 0x174E JUMPI PUSH0 PUSH0 REVERT JUMPDEST DUP4 CALLDATALOAD PUSH2 0x1759 DUP2 PUSH2 0x1605 JUMP JUMPDEST SWAP3 POP PUSH1 0x20 DUP5 ADD CALLDATALOAD PUSH2 0x1769 DUP2 PUSH2 0x1605 JUMP JUMPDEST SWAP3 SWAP6 SWAP3 SWAP5 POP POP POP PUSH1 0x40 SWAP2 SWAP1 SWAP2 ADD CALLDATALOAD SWAP1 JUMP JUMPDEST PUSH0 PUSH1 0x20 DUP3 DUP5 SUB SLT ISZERO PUSH2 0x178A JUMPI PUSH0 PUSH0 REVERT JUMPDEST POP CALLDATALOAD SWAP2 SWAP1 POP JUMP JUMPDEST PUSH0 PUSH1 0x80 DUP3 DUP5 SUB SLT ISZERO PUSH2 0x17A1 JUMPI PUSH0 PUSH0 REVERT JUMPDEST POP SWAP2 SWAP1 POP JUMP JUMPDEST PUSH0 PUSH0 PUSH1 0xA0 DUP4 DUP6 SUB SLT ISZERO PUSH2 0x17B8 JUMPI PUSH0 PUSH0 REVERT JUMPDEST DUP3 CALLDATALOAD SWAP2 POP PUSH2 0x17C9 DUP5 PUSH1 0x20 DUP6 ADD PUSH2 0x1791 JUMP JUMPDEST SWAP1 POP SWAP3 POP SWAP3 SWAP1 POP JUMP JUMPDEST PUSH0 PUSH0 PUSH0 PUSH1 0xC0 DUP5 DUP7 SUB SLT ISZERO PUSH2 0x17E4 JUMPI PUSH0 PUSH0 REVERT JUMPDEST DUP4 CALLDATALOAD SWAP3 POP PUSH1 0x20 DUP5 ADD CALLDATALOAD PUSH2 0x17F6 DUP2 PUSH2 0x1605 JUMP JUMPDEST SWAP2 POP PUSH2 0x1805 DUP6 PUSH1 0x40 DUP7 ADD PUSH2 0x1791 JUMP JUMPDEST SWAP1 POP SWAP3 POP SWAP3 POP SWAP3 JUMP JUMPDEST PUSH0 PUSH0 PUSH1 0x40 DUP4 DUP6 SUB SLT ISZERO PUSH2 0x181F JUMPI PUSH0 PUSH0 REVERT JUMPDEST DUP3 CALLDATALOAD SWAP2 POP PUSH1 0x20 DUP4 ADD CALLDATALOAD PUSH2 0x1831 DUP2 PUSH2 0x1605 JUMP JUMPDEST DUP1 SWAP2 POP POP SWAP3 POP SWAP3 SWAP1 POP JUMP JUMPDEST DUP1 CALLDATALOAD PUSH1 0xFF DUP2 AND DUP2 EQ PUSH2 0x8E5 JUMPI PUSH0 PUSH0 REVERT JUMPDEST PUSH0 PUSH0 PUSH0 PUSH0 PUSH0 PUSH0 PUSH0 PUSH1 0xE0 DUP9 DUP11 SUB SLT ISZERO PUSH2 0x1862 JUMPI PUSH0 PUSH0 REVERT JUMPDEST DUP8 CALLDATALOAD PUSH2 0x186D DUP2 PUSH2 0x1605 JUMP JUMPDEST SWAP7 POP PUSH1 0x20 DUP9 ADD CALLDATALOAD PUSH2 0x187D DUP2 PUSH2 0x1605 JUMP JUMPDEST SWAP6 POP PUSH1 0x40 DUP9 ADD CALLDATALOAD SWAP5 POP PUSH1 0x60 DUP9 ADD CALLDATALOAD SWAP4 POP PUSH2 0x1899 PUSH1 0x80 DUP10 ADD PUSH2 0x183C JUMP JUMPDEST SWAP7 SWAP10 SWAP6 SWAP9 POP SWAP4 SWAP7 SWAP3 SWAP6 SWAP5 PUSH1 0xA0 DUP5 ADD CALLDATALOAD SWAP5 POP PUSH1 0xC0 SWAP1 SWAP4 ADD CALLDATALOAD SWAP3 SWAP2 POP POP JUMP JUMPDEST PUSH0 PUSH0 PUSH1 0x40 DUP4 DUP6 SUB SLT ISZERO PUSH2 0x18C7 JUMPI PUSH0 PUSH0 REVERT JUMPDEST DUP3 CALLDATALOAD PUSH2 0x18D2 DUP2 PUSH2 0x1605 JUMP JUMPDEST SWAP2 POP PUSH1 0x20 DUP4 ADD CALLDATALOAD PUSH2 0x1831 DUP2 PUSH2 0x1605 JUMP JUMPDEST PUSH1 0x1 DUP2 DUP2 SHR SWAP1 DUP3 AND DUP1 PUSH2 0x18F6 JUMPI PUSH1 0x7F DUP3 AND SWAP2 POP JUMPDEST PUSH1 0x20 DUP3 LT DUP2 SUB PUSH2 0x17A1 JUMPI PUSH4 0x4E487B71 PUSH1 0xE0 SHL PUSH0 MSTORE PUSH1 0x22 PUSH1 0x4 MSTORE PUSH1 0x24 PUSH0 REVERT JUMPDEST DUP2 DUP4 DUP3 CALLDATACOPY PUSH0 SWAP2 ADD SWAP1 DUP2 MSTORE SWAP2 SWAP1 POP JUMP JUMPDEST PUSH0 PUSH1 0x20 DUP3 DUP5 SUB SLT ISZERO PUSH2 0x1933 JUMPI PUSH0 PUSH0 REVERT JUMPDEST DUP2 MLOAD DUP1 ISZERO ISZERO DUP2 EQ PUSH2 0xC1D JUMPI PUSH0 PUSH0 REVERT JUMPDEST PUSH0 PUSH1 0x20 DUP3 DUP5 SUB SLT ISZERO PUSH2 0x1952 JUMPI PUSH0 PUSH0 REVERT JUMPDEST POP MLOAD SWAP2 SWAP1 POP JUMP JUMPDEST PUSH4 0x4E487B71 PUSH1 0xE0 SHL PUSH0 MSTORE PUSH1 0x11 PUSH1 0x4 MSTORE PUSH1 0x24 PUSH0 REVERT JUMPDEST DUP2 DUP2 SUB DUP2 DUP2 GT ISZERO PUSH2 0x856 JUMPI PUSH2 0x856 PUSH2 0x1959 JUMP JUMPDEST DUP1 DUP3 ADD DUP1 DUP3 GT ISZERO PUSH2 0x856 JUMPI PUSH2 0x856 PUSH2 0x1959 JUMP JUMPDEST DUP1 DUP3 MUL DUP2 ISZERO DUP3 DUP3 DIV DUP5 EQ OR PUSH2 0x856 JUMPI PUSH2 0x856 PUSH2 0x1959 JUMP JUMPDEST PUSH0 DUP3 PUSH2 0x19C4 JUMPI PUSH4 0x4E487B71 PUSH1 0xE0 SHL PUSH0 MSTORE PUSH1 0x12 PUSH1 0x4 MSTORE PUSH1 0x24 PUSH0 REVERT JUMPDEST POP DIV SWAP1 JUMP JUMPDEST PUSH0 PUSH1 0x20 DUP3 DUP5 SUB SLT ISZERO PUSH2 0x19D9 JUMPI PUSH0 PUSH0 REVERT JUMPDEST PUSH2 0xC1D DUP3 PUSH2 0x183C JUMP JUMPDEST PUSH1 0x1 PUSH1 0x1 PUSH1 0xA0 SHL SUB DUP6 AND DUP2 MSTORE PUSH1 0x20 DUP2 ADD DUP5 SWAP1 MSTORE PUSH1 0x60 PUSH1 0x40 DUP3 ADD DUP2 SWAP1 MSTORE DUP2 ADD DUP3 SWAP1 MSTORE DUP2 DUP4 PUSH1 0x80 DUP4 ADD CALLDATACOPY PUSH0 DUP2 DUP4 ADD PUSH1 0x80 SWAP1 DUP2 ADD SWAP2 SWAP1 SWAP2 MSTORE PUSH1 0x1F SWAP1 SWAP3 ADD PUSH1 0x1F NOT AND ADD ADD SWAP4 SWAP3 POP POP POP JUMP JUMPDEST PUSH0 PUSH1 0x20 DUP3 DUP5 SUB SLT ISZERO PUSH2 0x1A39 JUMPI PUSH0 PUSH0 REVERT JUMPDEST DUP2 MLOAD PUSH1 0x1 PUSH1 0x1 PUSH1 0xE0 SHL SUB NOT DUP2 AND DUP2 EQ PUSH2 0xC1D JUMPI PUSH0 PUSH0 REVERT INVALID 0xDD CALLCODE MSTORE 0xAD SHL 0xE2 0xC8 SWAP12 PUSH10 0xC2B068FC378DAA952BA7 CALL PUSH4 0xC4A11628 CREATE2 GAS 0x4D CREATE2 0x23 0xB3 0xEF LOG2 PUSH5 0x6970667358 0x22 SLT KECCAK256 LOG2 0xE9 GASLIMIT PUSH29 0xD744F1C9597C2B53480FC8E1F0805DCBF4824786ACAAA467DC1241AA64 PUSH20 0x6F6C634300081C0033610120604052425F554260 ADD SSTORE CALLVALUE DUP1 ISZERO PUSH2 0x17 JUMPI PUSH0 PUSH0 REVERT JUMPDEST POP PUSH1 0x40 MLOAD PUSH2 0x2779 CODESIZE SUB DUP1 PUSH2 0x2779 DUP4 CODECOPY DUP2 ADD PUSH1 0x40 DUP2 SWAP1 MSTORE PUSH2 0x36 SWAP2 PUSH2 0x93 JUMP JUMPDEST PUSH1 0x1 PUSH1 0x1 PUSH1 0xA0 SHL SUB SWAP1 SWAP2 AND PUSH1 0x80 MSTORE DUP1 MLOAD PUSH1 0x1 PUSH1 0x1 PUSH1 0x80 SHL SUB SWAP1 DUP2 AND PUSH1 0xA0 MSTORE PUSH1 0x20 DUP3 ADD MLOAD DUP2 AND PUSH1 0xC0 MSTORE PUSH1 0x40 DUP3 ADD MLOAD DUP2 AND PUSH1 0xE0 MSTORE PUSH1 0x60 SWAP1 SWAP2 ADD MLOAD AND PUSH2 0x100 MSTORE PUSH2 0x14C JUMP JUMPDEST DUP1 MLOAD PUSH1 0x1 PUSH1 0x1 PUSH1 0x80 SHL SUB DUP2 AND DUP2 EQ PUSH2 0x8E JUMPI PUSH0 PUSH0 REVERT JUMPDEST SWAP2 SWAP1 POP JUMP JUMPDEST PUSH0 PUSH0 DUP3 DUP5 SUB PUSH1 0xA0 DUP2 SLT ISZERO PUSH2 0xA5 JUMPI PUSH0 PUSH0 REVERT JUMPDEST DUP4 MLOAD PUSH1 0x1 PUSH1 0x1 PUSH1 0xA0 SHL SUB DUP2 AND DUP2 EQ PUSH2 0xBB JUMPI PUSH0 PUSH0 REVERT JUMPDEST SWAP3 POP PUSH1 0x80 PUSH1 0x1F NOT DUP3 ADD SLT ISZERO PUSH2 0xCE JUMPI PUSH0 PUSH0 REVERT JUMPDEST POP PUSH1 0x40 MLOAD PUSH1 0x80 DUP2 ADD PUSH1 0x1 PUSH1 0x1 PUSH1 0x40 SHL SUB DUP2 GT DUP3 DUP3 LT OR ISZERO PUSH2 0xFD JUMPI PUSH4 0x4E487B71 PUSH1 0xE0 SHL PUSH0 MSTORE PUSH1 0x41 PUSH1 0x4 MSTORE PUSH1 0x24 PUSH0 REVERT JUMPDEST PUSH1 0x40 MSTORE PUSH2 0x10C PUSH1 0x20 DUP6 ADD PUSH2 0x78 JUMP JUMPDEST DUP2 MSTORE PUSH2 0x11A PUSH1 0x40 DUP6 ADD PUSH2 0x78 JUMP JUMPDEST PUSH1 0x20 DUP3 ADD MSTORE PUSH2 0x12B PUSH1 0x60 DUP6 ADD PUSH2 0x78 JUMP JUMPDEST PUSH1 0x40 DUP3 ADD MSTORE PUSH2 0x13C PUSH1 0x80 DUP6 ADD PUSH2 0x78 JUMP JUMPDEST PUSH1 0x60 DUP3 ADD MSTORE DUP1 SWAP2 POP POP SWAP3 POP SWAP3 SWAP1 POP JUMP JUMPDEST PUSH1 0x80 MLOAD PUSH1 0xA0 MLOAD PUSH1 0xC0 MLOAD PUSH1 0xE0 MLOAD PUSH2 0x100 MLOAD PUSH2 0x253A PUSH2 0x23F PUSH0 CODECOPY PUSH0 DUP2 DUP2 PUSH2 0x25E ADD MSTORE PUSH2 0xECE ADD MSTORE PUSH0 DUP2 DUP2 PUSH2 0x4F9 ADD MSTORE DUP2 DUP2 PUSH2 0x1375 ADD MSTORE PUSH2 0x1DD7 ADD MSTORE PUSH0 DUP2 DUP2 PUSH2 0x55D ADD MSTORE PUSH2 0xC48 ADD MSTORE PUSH0 DUP2 DUP2 PUSH2 0x79E ADD MSTORE DUP2 DUP2 PUSH2 0x1BAE ADD MSTORE PUSH2 0x1C92 ADD MSTORE PUSH0 DUP2 DUP2 PUSH2 0x3CF ADD MSTORE DUP2 DUP2 PUSH2 0x7E3 ADD MSTORE DUP2 DUP2 PUSH2 0x8B0 ADD MSTORE DUP2 DUP2 PUSH2 0x9AC ADD MSTORE DUP2 DUP2 PUSH2 0xA09 ADD MSTORE DUP2 DUP2 PUSH2 0xCEF ADD MSTORE DUP2 DUP2 PUSH2 0xDA7 ADD MSTORE DUP2 DUP2 PUSH2 0xF32 ADD MSTORE DUP2 DUP2 PUSH2 0xFBB ADD MSTORE DUP2 DUP2 PUSH2 0x1043 ADD MSTORE DUP2 DUP2 PUSH2 0x1101 ADD MSTORE DUP2 DUP2 PUSH2 0x11D6 ADD MSTORE DUP2 DUP2 PUSH2 0x12EE ADD MSTORE DUP2 DUP2 PUSH2 0x1434 ADD MSTORE DUP2 DUP2 PUSH2 0x164C ADD MSTORE DUP2 DUP2 PUSH2 0x1874 ADD MSTORE DUP2 DUP2 PUSH2 0x1968 ADD MSTORE DUP2 DUP2 PUSH2 0x1A50 ADD MSTORE DUP2 DUP2 PUSH2 0x1AF8 ADD MSTORE DUP2 DUP2 PUSH2 0x1C1B ADD MSTORE PUSH2 0x1CF2 ADD MSTORE PUSH2 0x253A PUSH0 RETURN INVALID PUSH1 0x80 PUSH1 0x40 MSTORE PUSH1 0x4 CALLDATASIZE LT PUSH2 0x249 JUMPI PUSH0 CALLDATALOAD PUSH1 0xE0 SHR DUP1 PUSH4 0x82E3D8BD GT PUSH2 0x134 JUMPI DUP1 PUSH4 0xC1A4845F GT PUSH2 0xB3 JUMPI DUP1 PUSH4 0xE5ACA599 GT PUSH2 0x78 JUMPI DUP1 PUSH4 0xE5ACA599 EQ PUSH2 0x728 JUMPI DUP1 PUSH4 0xEF8B30F7 EQ PUSH2 0x747 JUMPI DUP1 PUSH4 0xF340FA01 EQ PUSH2 0x766 JUMPI DUP1 PUSH4 0xF4D0BD72 EQ PUSH2 0x779 JUMPI DUP1 PUSH4 0xF86329E1 EQ PUSH2 0x78D JUMPI DUP1 PUSH4 0xFC028523 EQ PUSH2 0x7C0 JUMPI PUSH0 PUSH0 REVERT JUMPDEST DUP1 PUSH4 0xC1A4845F EQ PUSH2 0x68D JUMPI DUP1 PUSH4 0xC6E6F592 EQ PUSH2 0x6A0 JUMPI DUP1 PUSH4 0xD505ACCF EQ PUSH2 0x6BF JUMPI DUP1 PUSH4 0xDD62ED3E EQ PUSH2 0x6E0 JUMPI DUP1 PUSH4 0xE46DBD07 EQ PUSH2 0x714 JUMPI PUSH0 PUSH0 REVERT JUMPDEST DUP1 PUSH4 0xA9059CBB GT PUSH2 0xF9 JUMPI DUP1 PUSH4 0xA9059CBB EQ PUSH2 0x5FD JUMPI DUP1 PUSH4 0xB3841F26 EQ PUSH2 0x61C JUMPI DUP1 PUSH4 0xB3CA7F2A EQ PUSH2 0x63B JUMPI DUP1 PUSH4 0xBA087652 EQ PUSH2 0x64F JUMPI DUP1 PUSH4 0xBE45FD62 EQ PUSH2 0x66E JUMPI PUSH0 PUSH0 REVERT JUMPDEST DUP1 PUSH4 0x82E3D8BD EQ PUSH2 0x54C JUMPI DUP1 PUSH4 0x8943EC02 EQ PUSH2 0x57F JUMPI DUP1 PUSH4 0x8A48B2A5 EQ PUSH2 0x5B7 JUMPI DUP1 PUSH4 0x94EF2103 EQ PUSH2 0x5CA JUMPI DUP1 PUSH4 0x95D89B41 EQ PUSH2 0x5E9 JUMPI PUSH0 PUSH0 REVERT JUMPDEST DUP1 PUSH4 0x3644E515 GT PUSH2 0x1CB JUMPI DUP1 PUSH4 0x6263913C GT PUSH2 0x190 JUMPI DUP1 PUSH4 0x6263913C EQ PUSH2 0x466 JUMPI DUP1 PUSH4 0x6E553F65 EQ PUSH2 0x485 JUMPI DUP1 PUSH4 0x70A08231 EQ PUSH2 0x498 JUMPI DUP1 PUSH4 0x7B383F18 EQ PUSH2 0x4C9 JUMPI DUP1 PUSH4 0x7CC27B40 EQ PUSH2 0x4E8 JUMPI DUP1 PUSH4 0x7ECEBE00 EQ PUSH2 0x51B JUMPI PUSH0 PUSH0 REVERT JUMPDEST DUP1 PUSH4 0x3644E515 EQ PUSH2 0x3AA JUMPI DUP1 PUSH4 0x38D52E0F EQ PUSH2 0x3BE JUMPI DUP1 PUSH4 0x4206ABE9 EQ PUSH2 0x409 JUMPI DUP1 PUSH4 0x4CDAD506 EQ PUSH2 0x428 JUMPI DUP1 PUSH4 0x6032F600 EQ PUSH2 0x447 JUMPI PUSH0 PUSH0 REVERT JUMPDEST DUP1 PUSH4 0x17B31167 GT PUSH2 0x211 JUMPI DUP1 PUSH4 0x17B31167 EQ PUSH2 0x32D JUMPI DUP1 PUSH4 0x18160DDD EQ PUSH2 0x34C JUMPI DUP1 PUSH4 0x223ECF7E EQ PUSH2 0x368 JUMPI DUP1 PUSH4 0x23B872DD EQ PUSH2 0x370 JUMPI DUP1 PUSH4 0x313CE567 EQ PUSH2 0x38F JUMPI PUSH0 PUSH0 REVERT JUMPDEST DUP1 PUSH4 0x58D1573 EQ PUSH2 0x24D JUMPI DUP1 PUSH4 0x6FDDE03 EQ PUSH2 0x29D JUMPI DUP1 PUSH4 0x7A2D13A EQ PUSH2 0x2BE JUMPI DUP1 PUSH4 0x95EA7B3 EQ PUSH2 0x2EB JUMPI DUP1 PUSH4 0x12958A6B EQ PUSH2 0x31A JUMPI JUMPDEST PUSH0 PUSH0 REVERT JUMPDEST CALLVALUE DUP1 ISZERO PUSH2 0x258 JUMPI PUSH0 PUSH0 REVERT JUMPDEST POP PUSH2 0x280 PUSH32 0x0 DUP2 JUMP JUMPDEST PUSH1 0x40 MLOAD PUSH1 0x1 PUSH1 0x1 PUSH1 0x80 SHL SUB SWAP1 SWAP2 AND DUP2 MSTORE PUSH1 0x20 ADD JUMPDEST PUSH1 0x40 MLOAD DUP1 SWAP2 SUB SWAP1 RETURN JUMPDEST CALLVALUE DUP1 ISZERO PUSH2 0x2A8 JUMPI PUSH0 PUSH0 REVERT JUMPDEST POP PUSH2 0x2B1 PUSH2 0x7DF JUMP JUMPDEST PUSH1 0x40 MLOAD PUSH2 0x294 SWAP2 SWAP1 PUSH2 0x1F0C JUMP JUMPDEST CALLVALUE DUP1 ISZERO PUSH2 0x2C9 JUMPI PUSH0 PUSH0 REVERT JUMPDEST POP PUSH2 0x2DD PUSH2 0x2D8 CALLDATASIZE PUSH1 0x4 PUSH2 0x1F41 JUMP JUMPDEST PUSH2 0x887 JUMP JUMPDEST PUSH1 0x40 MLOAD SWAP1 DUP2 MSTORE PUSH1 0x20 ADD PUSH2 0x294 JUMP JUMPDEST CALLVALUE DUP1 ISZERO PUSH2 0x2F6 JUMPI PUSH0 PUSH0 REVERT JUMPDEST POP PUSH2 0x30A PUSH2 0x305 CALLDATASIZE PUSH1 0x4 PUSH2 0x1F6F JUMP JUMPDEST PUSH2 0x93B JUMP JUMPDEST PUSH1 0x40 MLOAD SWAP1 ISZERO ISZERO DUP2 MSTORE PUSH1 0x20 ADD PUSH2 0x294 JUMP JUMPDEST PUSH2 0x2DD PUSH2 0x328 CALLDATASIZE PUSH1 0x4 PUSH2 0x1F99 JUMP JUMPDEST PUSH2 0x98A JUMP JUMPDEST CALLVALUE DUP1 ISZERO PUSH2 0x338 JUMPI PUSH0 PUSH0 REVERT JUMPDEST POP PUSH2 0x2DD PUSH2 0x347 CALLDATASIZE PUSH1 0x4 PUSH2 0x1FB4 JUMP JUMPDEST PUSH2 0x9A5 JUMP JUMPDEST CALLVALUE DUP1 ISZERO PUSH2 0x357 JUMPI PUSH0 PUSH0 REVERT JUMPDEST POP PUSH9 0x5345CDF77EB68F44C SLOAD PUSH2 0x2DD JUMP JUMPDEST PUSH2 0x2DD PUSH2 0xB09 JUMP JUMPDEST CALLVALUE DUP1 ISZERO PUSH2 0x37B JUMPI PUSH0 PUSH0 REVERT JUMPDEST POP PUSH2 0x30A PUSH2 0x38A CALLDATASIZE PUSH1 0x4 PUSH2 0x1FF3 JUMP JUMPDEST PUSH2 0xB18 JUMP JUMPDEST CALLVALUE DUP1 ISZERO PUSH2 0x39A JUMPI PUSH0 PUSH0 REVERT JUMPDEST POP PUSH1 0x40 MLOAD PUSH1 0x12 DUP2 MSTORE PUSH1 0x20 ADD PUSH2 0x294 JUMP JUMPDEST CALLVALUE DUP1 ISZERO PUSH2 0x3B5 JUMPI PUSH0 PUSH0 REVERT JUMPDEST POP PUSH2 0x2DD PUSH2 0xBBD JUMP JUMPDEST CALLVALUE DUP1 ISZERO PUSH2 0x3C9 JUMPI PUSH0 PUSH0 REVERT JUMPDEST POP PUSH2 0x3F1 PUSH32 0x0 DUP2 JUMP JUMPDEST PUSH1 0x40 MLOAD PUSH1 0x1 PUSH1 0x1 PUSH1 0xA0 SHL SUB SWAP1 SWAP2 AND DUP2 MSTORE PUSH1 0x20 ADD PUSH2 0x294 JUMP JUMPDEST CALLVALUE DUP1 ISZERO PUSH2 0x414 JUMPI PUSH0 PUSH0 REVERT JUMPDEST POP PUSH2 0x2DD PUSH2 0x423 CALLDATASIZE PUSH1 0x4 PUSH2 0x1F41 JUMP JUMPDEST PUSH2 0xC39 JUMP JUMPDEST CALLVALUE DUP1 ISZERO PUSH2 0x433 JUMPI PUSH0 PUSH0 REVERT JUMPDEST POP PUSH2 0x2DD PUSH2 0x442 CALLDATASIZE PUSH1 0x4 PUSH2 0x1F41 JUMP JUMPDEST PUSH2 0xC9B JUMP JUMPDEST CALLVALUE DUP1 ISZERO PUSH2 0x452 JUMPI PUSH0 PUSH0 REVERT JUMPDEST POP PUSH2 0x2DD PUSH2 0x461 CALLDATASIZE PUSH1 0x4 PUSH2 0x1F41 JUMP JUMPDEST PUSH2 0xCA5 JUMP JUMPDEST CALLVALUE DUP1 ISZERO PUSH2 0x471 JUMPI PUSH0 PUSH0 REVERT JUMPDEST POP PUSH2 0x2DD PUSH2 0x480 CALLDATASIZE PUSH1 0x4 PUSH2 0x2041 JUMP JUMPDEST PUSH2 0xCB0 JUMP JUMPDEST PUSH2 0x2DD PUSH2 0x493 CALLDATASIZE PUSH1 0x4 PUSH2 0x206C JUMP JUMPDEST PUSH2 0xCC3 JUMP JUMPDEST CALLVALUE DUP1 ISZERO PUSH2 0x4A3 JUMPI PUSH0 PUSH0 REVERT JUMPDEST POP PUSH2 0x2DD PUSH2 0x4B2 CALLDATASIZE PUSH1 0x4 PUSH2 0x1F99 JUMP JUMPDEST PUSH4 0x87A211A2 PUSH1 0xC SWAP1 DUP2 MSTORE PUSH0 SWAP2 SWAP1 SWAP2 MSTORE PUSH1 0x20 SWAP1 KECCAK256 SLOAD SWAP1 JUMP JUMPDEST CALLVALUE DUP1 ISZERO PUSH2 0x4D4 JUMPI PUSH0 PUSH0 REVERT JUMPDEST POP PUSH2 0x2DD PUSH2 0x4E3 CALLDATASIZE PUSH1 0x4 PUSH2 0x1F41 JUMP JUMPDEST PUSH2 0xEBF JUMP JUMPDEST CALLVALUE DUP1 ISZERO PUSH2 0x4F3 JUMPI PUSH0 PUSH0 REVERT JUMPDEST POP PUSH2 0x280 PUSH32 0x0 DUP2 JUMP JUMPDEST CALLVALUE DUP1 ISZERO PUSH2 0x526 JUMPI PUSH0 PUSH0 REVERT JUMPDEST POP PUSH2 0x2DD PUSH2 0x535 CALLDATASIZE PUSH1 0x4 PUSH2 0x1F99 JUMP JUMPDEST PUSH4 0x38377508 PUSH1 0xC SWAP1 DUP2 MSTORE PUSH0 SWAP2 SWAP1 SWAP2 MSTORE PUSH1 0x20 SWAP1 KECCAK256 SLOAD SWAP1 JUMP JUMPDEST CALLVALUE DUP1 ISZERO PUSH2 0x557 JUMPI PUSH0 PUSH0 REVERT JUMPDEST POP PUSH2 0x280 PUSH32 0x0 DUP2 JUMP JUMPDEST CALLVALUE DUP1 ISZERO PUSH2 0x58A JUMPI PUSH0 PUSH0 REVERT JUMPDEST POP PUSH2 0x59E PUSH2 0x599 CALLDATASIZE PUSH1 0x4 PUSH2 0x209A JUMP JUMPDEST PUSH2 0xFAF JUMP JUMPDEST PUSH1 0x40 MLOAD PUSH1 0x1 PUSH1 0x1 PUSH1 0xE0 SHL SUB NOT SWAP1 SWAP2 AND DUP2 MSTORE PUSH1 0x20 ADD PUSH2 0x294 JUMP JUMPDEST PUSH2 0x2DD PUSH2 0x5C5 CALLDATASIZE PUSH1 0x4 PUSH2 0x206C JUMP JUMPDEST PUSH2 0x1007 JUMP JUMPDEST CALLVALUE DUP1 ISZERO PUSH2 0x5D5 JUMPI PUSH0 PUSH0 REVERT JUMPDEST POP PUSH2 0x2DD PUSH2 0x5E4 CALLDATASIZE PUSH1 0x4 PUSH2 0x211F JUMP JUMPDEST PUSH2 0x10F6 JUMP JUMPDEST CALLVALUE DUP1 ISZERO PUSH2 0x5F4 JUMPI PUSH0 PUSH0 REVERT JUMPDEST POP PUSH2 0x2B1 PUSH2 0x11D2 JUMP JUMPDEST CALLVALUE DUP1 ISZERO PUSH2 0x608 JUMPI PUSH0 PUSH0 REVERT JUMPDEST POP PUSH2 0x30A PUSH2 0x617 CALLDATASIZE PUSH1 0x4 PUSH2 0x1F6F JUMP JUMPDEST PUSH2 0x1266 JUMP JUMPDEST CALLVALUE DUP1 ISZERO PUSH2 0x627 JUMPI PUSH0 PUSH0 REVERT JUMPDEST POP PUSH2 0x2DD PUSH2 0x636 CALLDATASIZE PUSH1 0x4 PUSH2 0x206C JUMP JUMPDEST PUSH2 0x12CA JUMP JUMPDEST CALLVALUE DUP1 ISZERO PUSH2 0x646 JUMPI PUSH0 PUSH0 REVERT JUMPDEST POP PUSH2 0x2DD PUSH2 0x1372 JUMP JUMPDEST CALLVALUE DUP1 ISZERO PUSH2 0x65A JUMPI PUSH0 PUSH0 REVERT JUMPDEST POP PUSH2 0x2DD PUSH2 0x669 CALLDATASIZE PUSH1 0x4 PUSH2 0x215B JUMP JUMPDEST PUSH2 0x13B5 JUMP JUMPDEST CALLVALUE DUP1 ISZERO PUSH2 0x679 JUMPI PUSH0 PUSH0 REVERT JUMPDEST POP PUSH2 0x30A PUSH2 0x688 CALLDATASIZE PUSH1 0x4 PUSH2 0x209A JUMP JUMPDEST PUSH2 0x154E JUMP JUMPDEST PUSH2 0x2DD PUSH2 0x69B CALLDATASIZE PUSH1 0x4 PUSH2 0x1F99 JUMP JUMPDEST PUSH2 0x15D8 JUMP JUMPDEST CALLVALUE DUP1 ISZERO PUSH2 0x6AB JUMPI PUSH0 PUSH0 REVERT JUMPDEST POP PUSH2 0x2DD PUSH2 0x6BA CALLDATASIZE PUSH1 0x4 PUSH2 0x1F41 JUMP JUMPDEST PUSH2 0x1635 JUMP JUMPDEST CALLVALUE DUP1 ISZERO PUSH2 0x6CA JUMPI PUSH0 PUSH0 REVERT JUMPDEST POP PUSH2 0x6DE PUSH2 0x6D9 CALLDATASIZE PUSH1 0x4 PUSH2 0x219F JUMP JUMPDEST PUSH2 0x16CF JUMP JUMPDEST STOP JUMPDEST CALLVALUE DUP1 ISZERO PUSH2 0x6EB JUMPI PUSH0 PUSH0 REVERT JUMPDEST POP PUSH2 0x2DD PUSH2 0x6FA CALLDATASIZE PUSH1 0x4 PUSH2 0x2209 JUMP JUMPDEST PUSH1 0x20 MSTORE PUSH4 0x7F5E9F20 PUSH1 0xC SWAP1 DUP2 MSTORE PUSH0 SWAP2 SWAP1 SWAP2 MSTORE PUSH1 0x34 SWAP1 KECCAK256 SLOAD SWAP1 JUMP JUMPDEST CALLVALUE DUP1 ISZERO PUSH2 0x71F JUMPI PUSH0 PUSH0 REVERT JUMPDEST POP PUSH2 0x2DD PUSH0 SLOAD DUP2 JUMP JUMPDEST CALLVALUE DUP1 ISZERO PUSH2 0x733 JUMPI PUSH0 PUSH0 REVERT JUMPDEST POP PUSH2 0x2DD PUSH2 0x742 CALLDATASIZE PUSH1 0x4 PUSH2 0x1FB4 JUMP JUMPDEST PUSH2 0x1853 JUMP JUMPDEST CALLVALUE DUP1 ISZERO PUSH2 0x752 JUMPI PUSH0 PUSH0 REVERT JUMPDEST POP PUSH2 0x2DD PUSH2 0x761 CALLDATASIZE PUSH1 0x4 PUSH2 0x1F41 JUMP JUMPDEST PUSH2 0x19F1 JUMP JUMPDEST PUSH2 0x2DD PUSH2 0x774 CALLDATASIZE PUSH1 0x4 PUSH2 0x1F99 JUMP JUMPDEST PUSH2 0x19FB JUMP JUMPDEST CALLVALUE DUP1 ISZERO PUSH2 0x784 JUMPI PUSH0 PUSH0 REVERT JUMPDEST POP PUSH2 0x2DD PUSH2 0x1BAB JUMP JUMPDEST CALLVALUE DUP1 ISZERO PUSH2 0x798 JUMPI PUSH0 PUSH0 REVERT JUMPDEST POP PUSH2 0x280 PUSH32 0x0 DUP2 JUMP JUMPDEST CALLVALUE DUP1 ISZERO PUSH2 0x7CB JUMPI PUSH0 PUSH0 REVERT JUMPDEST POP PUSH2 0x2DD PUSH2 0x7DA CALLDATASIZE PUSH1 0x4 PUSH2 0x1FB4 JUMP JUMPDEST PUSH2 0x1BE3 JUMP JUMPDEST PUSH1 0x60 PUSH32 0x0 PUSH1 0x1 PUSH1 0x1 PUSH1 0xA0 SHL SUB AND PUSH4 0x6FDDE03 PUSH1 0x40 MLOAD DUP2 PUSH4 0xFFFFFFFF AND PUSH1 0xE0 SHL DUP2 MSTORE PUSH1 0x4 ADD PUSH0 PUSH1 0x40 MLOAD DUP1 DUP4 SUB DUP2 DUP7 GAS STATICCALL ISZERO DUP1 ISZERO PUSH2 0x83C JUMPI RETURNDATASIZE PUSH0 PUSH0 RETURNDATACOPY RETURNDATASIZE PUSH0 REVERT JUMPDEST POP POP POP POP PUSH1 0x40 MLOAD RETURNDATASIZE PUSH0 DUP3 RETURNDATACOPY PUSH1 0x1F RETURNDATASIZE SWAP1 DUP2 ADD PUSH1 0x1F NOT AND DUP3 ADD PUSH1 0x40 MSTORE PUSH2 0x863 SWAP2 SWAP1 DUP2 ADD SWAP1 PUSH2 0x2249 JUMP JUMPDEST PUSH1 0x40 MLOAD PUSH1 0x20 ADD PUSH2 0x873 SWAP2 SWAP1 PUSH2 0x2313 JUMP JUMPDEST PUSH1 0x40 MLOAD PUSH1 0x20 DUP2 DUP4 SUB SUB DUP2 MSTORE SWAP1 PUSH1 0x40 MSTORE SWAP1 POP SWAP1 JUMP JUMPDEST PUSH0 PUSH2 0x899 PUSH9 0x5345CDF77EB68F44C SLOAD SWAP1 JUMP JUMPDEST PUSH1 0x40 MLOAD PUSH4 0x70A08231 PUSH1 0xE0 SHL DUP2 MSTORE ADDRESS PUSH1 0x4 DUP3 ADD MSTORE DUP4 SWAP1 PUSH32 0x0 PUSH1 0x1 PUSH1 0x1 PUSH1 0xA0 SHL SUB AND SWAP1 PUSH4 0x70A08231 SWAP1 PUSH1 0x24 ADD PUSH1 0x20 PUSH1 0x40 MLOAD DUP1 DUP4 SUB DUP2 DUP7 GAS STATICCALL ISZERO DUP1 ISZERO PUSH2 0x8FD JUMPI RETURNDATASIZE PUSH0 PUSH0 RETURNDATACOPY RETURNDATASIZE PUSH0 REVERT JUMPDEST POP POP POP POP PUSH1 0x40 MLOAD RETURNDATASIZE PUSH1 0x1F NOT PUSH1 0x1F DUP3 ADD AND DUP3 ADD DUP1 PUSH1 0x40 MSTORE POP DUP2 ADD SWAP1 PUSH2 0x921 SWAP2 SWAP1 PUSH2 0x2355 JUMP JUMPDEST PUSH2 0x92B SWAP2 SWAP1 PUSH2 0x2380 JUMP JUMPDEST PUSH2 0x935 SWAP2 SWAP1 PUSH2 0x2397 JUMP JUMPDEST SWAP3 SWAP2 POP POP JUMP JUMPDEST PUSH0 DUP3 PUSH1 0x20 MSTORE PUSH4 0x7F5E9F20 PUSH1 0xC MSTORE CALLER PUSH0 MSTORE DUP2 PUSH1 0x34 PUSH1 0xC KECCAK256 SSTORE DUP2 PUSH0 MSTORE PUSH1 0x2C MLOAD PUSH1 0x60 SHR CALLER PUSH32 0x8C5BE1E5EBEC7D5BD14F71427D1E84F3DD0314C0F7B2291E5B200AC8C7C3B925 PUSH1 0x20 PUSH0 LOG3 POP PUSH1 0x1 SWAP3 SWAP2 POP POP JUMP JUMPDEST PUSH0 PUSH2 0x994 CALLVALUE PUSH2 0xEBF JUMP JUMPDEST SWAP1 POP PUSH2 0x9A0 DUP3 DUP3 PUSH2 0x1C85 JUMP JUMPDEST SWAP2 SWAP1 POP JUMP JUMPDEST PUSH0 PUSH0 SELFBALANCE SWAP1 POP PUSH32 0x0 PUSH1 0x1 PUSH1 0x1 PUSH1 0xA0 SHL SUB AND DUP6 PUSH1 0x1 PUSH1 0x1 PUSH1 0xA0 SHL SUB AND EQ PUSH2 0xA75 JUMPI PUSH1 0x40 MLOAD PUSH4 0x95EA7B3 PUSH1 0xE0 SHL DUP2 MSTORE PUSH1 0x1 PUSH1 0x1 PUSH1 0xA0 SHL SUB DUP7 DUP2 AND PUSH1 0x4 DUP4 ADD MSTORE PUSH1 0x24 DUP3 ADD DUP7 SWAP1 MSTORE PUSH32 0x0 AND SWAP1 PUSH4 0x95EA7B3 SWAP1 PUSH1 0x44 ADD PUSH1 0x20 PUSH1 0x40 MLOAD DUP1 DUP4 SUB DUP2 PUSH0 DUP8 GAS CALL ISZERO DUP1 ISZERO PUSH2 0xA4F JUMPI RETURNDATASIZE PUSH0 PUSH0 RETURNDATACOPY RETURNDATASIZE PUSH0 REVERT JUMPDEST POP POP POP POP PUSH1 0x40 MLOAD RETURNDATASIZE PUSH1 0x1F NOT PUSH1 0x1F DUP3 ADD AND DUP3 ADD DUP1 PUSH1 0x40 MSTORE POP DUP2 ADD SWAP1 PUSH2 0xA73 SWAP2 SWAP1 PUSH2 0x23B6 JUMP JUMPDEST POP JUMPDEST PUSH1 0x40 MLOAD PUSH3 0x30197B PUSH1 0xE9 SHL DUP2 MSTORE PUSH1 0x4 DUP2 ADD DUP6 SWAP1 MSTORE PUSH1 0x1 PUSH1 0x1 PUSH1 0xA0 SHL SUB DUP7 AND SWAP1 PUSH4 0x6032F600 SWAP1 PUSH1 0x24 ADD PUSH1 0x20 PUSH1 0x40 MLOAD DUP1 DUP4 SUB DUP2 PUSH0 DUP8 GAS CALL ISZERO DUP1 ISZERO PUSH2 0xAB8 JUMPI RETURNDATASIZE PUSH0 PUSH0 RETURNDATACOPY RETURNDATASIZE PUSH0 REVERT JUMPDEST POP POP POP POP PUSH1 0x40 MLOAD RETURNDATASIZE PUSH1 0x1F NOT PUSH1 0x1F DUP3 ADD AND DUP3 ADD DUP1 PUSH1 0x40 MSTORE POP DUP2 ADD SWAP1 PUSH2 0xADC SWAP2 SWAP1 PUSH2 0x2355 JUMP JUMPDEST POP DUP4 PUSH2 0xAEB PUSH2 0x4E3 DUP4 SELFBALANCE PUSH2 0x23D5 JUMP JUMPDEST PUSH2 0xAF5 SWAP2 SWAP1 PUSH2 0x23D5 JUMP JUMPDEST SWAP2 POP PUSH2 0xB01 DUP4 DUP4 PUSH2 0x1C85 JUMP JUMPDEST POP SWAP4 SWAP3 POP POP POP JUMP JUMPDEST PUSH0 PUSH2 0xB13 CALLER PUSH2 0x98A JUMP JUMPDEST SWAP1 POP SWAP1 JUMP JUMPDEST PUSH0 DUP4 PUSH1 0x60 SHL CALLER PUSH1 0x20 MSTORE PUSH4 0x7F5E9F20 DUP2 OR PUSH1 0xC MSTORE PUSH1 0x34 PUSH1 0xC KECCAK256 DUP1 SLOAD DUP1 NOT ISZERO PUSH2 0xB54 JUMPI DUP1 DUP6 GT ISZERO PUSH2 0xB4E JUMPI PUSH4 0x13BE252B PUSH0 MSTORE PUSH1 0x4 PUSH1 0x1C REVERT JUMPDEST DUP5 DUP2 SUB DUP3 SSTORE JUMPDEST POP POP PUSH4 0x87A211A2 DUP2 OR PUSH1 0xC MSTORE PUSH1 0x20 PUSH1 0xC KECCAK256 DUP1 SLOAD DUP1 DUP6 GT ISZERO PUSH2 0xB7C JUMPI PUSH4 0xF4D678B8 PUSH0 MSTORE PUSH1 0x4 PUSH1 0x1C REVERT JUMPDEST DUP5 DUP2 SUB DUP3 SSTORE POP POP DUP4 PUSH0 MSTORE PUSH1 0x20 PUSH1 0xC KECCAK256 DUP4 DUP2 SLOAD ADD DUP2 SSTORE POP DUP3 PUSH1 0x20 MSTORE PUSH1 0xC MLOAD PUSH1 0x60 SHR DUP2 PUSH1 0x60 SHR PUSH0 MLOAD PUSH1 0x20 PUSH2 0x24C5 PUSH0 CODECOPY PUSH0 MLOAD SWAP1 PUSH0 MSTORE PUSH1 0x20 DUP1 LOG3 POP POP PUSH1 0x1 SWAP4 SWAP3 POP POP POP JUMP JUMPDEST PUSH0 DUP1 PUSH2 0xBC7 PUSH2 0x7DF JUMP JUMPDEST DUP1 MLOAD SWAP1 PUSH1 0x20 ADD KECCAK256 SWAP1 POP PUSH1 0x40 DUP1 MLOAD PUSH32 0x8B73C3C69BB8FE3D512ECC4CF759CC79239F7B179B0FFACAA9A75D522B39400F DUP2 MSTORE PUSH1 0x20 DUP2 ADD SWAP3 SWAP1 SWAP3 MSTORE PUSH32 0xC89EFDAA54C0F20C7ADF612882DF0950F5A951637E0307CDCB4C672F298B8BC6 SWAP1 DUP3 ADD MSTORE CHAINID PUSH1 0x60 DUP3 ADD MSTORE ADDRESS PUSH1 0x80 DUP3 ADD MSTORE PUSH1 0xA0 SWAP1 KECCAK256 SWAP2 SWAP1 POP JUMP JUMPDEST PUSH0 PUSH2 0xC6D DUP3 PUSH1 0x1 PUSH1 0x1 PUSH1 0x80 SHL SUB PUSH32 0x0 AND PUSH2 0x23E8 JUMP JUMPDEST DUP3 PUSH2 0xC76 PUSH2 0x1372 JUMP JUMPDEST PUSH2 0xC80 SWAP2 SWAP1 PUSH2 0x2380 JUMP JUMPDEST PUSH2 0xC8A SWAP2 SWAP1 PUSH2 0x2397 JUMP JUMPDEST SWAP1 POP DUP1 SELFBALANCE LT ISZERO PUSH2 0x9A0 JUMPI POP SELFBALANCE SWAP2 SWAP1 POP JUMP JUMPDEST PUSH0 PUSH2 0x935 DUP3 PUSH2 0x887 JUMP JUMPDEST PUSH0 PUSH2 0x935 DUP3 CALLER PUSH2 0x12CA JUMP JUMPDEST PUSH0 PUSH2 0xCBC DUP4 CALLER DUP5 PUSH2 0x10F6 JUMP JUMPDEST SWAP4 SWAP3 POP POP POP JUMP JUMPDEST PUSH0 PUSH2 0xCCD DUP4 PUSH2 0x19F1 JUMP JUMPDEST PUSH1 0x40 MLOAD PUSH4 0x70A08231 PUSH1 0xE0 SHL DUP2 MSTORE ADDRESS PUSH1 0x4 DUP3 ADD MSTORE SWAP1 SWAP2 POP PUSH0 SWAP1 PUSH1 0x1 PUSH1 0x1 PUSH1 0xA0 SHL SUB PUSH32 0x0 AND SWAP1 PUSH4 0x70A08231 SWAP1 PUSH1 0x24 ADD PUSH1 0x20 PUSH1 0x40 MLOAD DUP1 DUP4 SUB DUP2 DUP7 GAS STATICCALL ISZERO DUP1 ISZERO PUSH2 0xD34 JUMPI RETURNDATASIZE PUSH0 PUSH0 RETURNDATACOPY RETURNDATASIZE PUSH0 REVERT JUMPDEST POP POP POP POP PUSH1 0x40 MLOAD RETURNDATASIZE PUSH1 0x1F NOT PUSH1 0x1F DUP3 ADD AND DUP3 ADD DUP1 PUSH1 0x40 MSTORE POP DUP2 ADD SWAP1 PUSH2 0xD58 SWAP2 SWAP1 PUSH2 0x2355 JUMP JUMPDEST DUP5 PUSH2 0xD63 CALLVALUE SELFBALANCE PUSH2 0x23D5 JUMP JUMPDEST PUSH2 0xD6D SWAP2 SWAP1 PUSH2 0x2380 JUMP JUMPDEST PUSH2 0xD77 SWAP2 SWAP1 PUSH2 0x2397 JUMP JUMPDEST SWAP1 POP PUSH0 PUSH2 0xD84 DUP3 CALLVALUE PUSH2 0x23D5 JUMP JUMPDEST SWAP1 POP PUSH2 0xD90 DUP5 DUP5 PUSH2 0x1D61 JUMP JUMPDEST PUSH1 0x40 MLOAD PUSH4 0x23B872DD PUSH1 0xE0 SHL DUP2 MSTORE PUSH1 0x1 PUSH1 0x1 PUSH1 0xA0 SHL SUB PUSH32 0x0 AND SWAP1 PUSH4 0x23B872DD SWAP1 PUSH2 0xDE0 SWAP1 CALLER SWAP1 ADDRESS SWAP1 DUP11 SWAP1 PUSH1 0x4 ADD PUSH2 0x23FB JUMP JUMPDEST PUSH1 0x20 PUSH1 0x40 MLOAD DUP1 DUP4 SUB DUP2 PUSH0 DUP8 GAS CALL ISZERO DUP1 ISZERO PUSH2 0xDFC JUMPI RETURNDATASIZE PUSH0 PUSH0 RETURNDATACOPY RETURNDATASIZE PUSH0 REVERT JUMPDEST POP POP POP POP PUSH1 0x40 MLOAD RETURNDATASIZE PUSH1 0x1F NOT PUSH1 0x1F DUP3 ADD AND DUP3 ADD DUP1 PUSH1 0x40 MSTORE POP DUP2 ADD SWAP1 PUSH2 0xE20 SWAP2 SWAP1 PUSH2 0x23B6 JUMP JUMPDEST POP DUP1 ISZERO PUSH2 0xE84 JUMPI PUSH0 DUP5 PUSH1 0x1 PUSH1 0x1 PUSH1 0xA0 SHL SUB AND DUP3 PUSH1 0x40 MLOAD PUSH0 PUSH1 0x40 MLOAD DUP1 DUP4 SUB DUP2 DUP6 DUP8 GAS CALL SWAP3 POP POP POP RETURNDATASIZE DUP1 PUSH0 DUP2 EQ PUSH2 0xE70 JUMPI PUSH1 0x40 MLOAD SWAP2 POP PUSH1 0x1F NOT PUSH1 0x3F RETURNDATASIZE ADD AND DUP3 ADD PUSH1 0x40 MSTORE RETURNDATASIZE DUP3 MSTORE RETURNDATASIZE PUSH0 PUSH1 0x20 DUP5 ADD RETURNDATACOPY PUSH2 0xE75 JUMP JUMPDEST PUSH1 0x60 SWAP2 POP JUMPDEST POP POP SWAP1 POP DUP1 PUSH2 0xE82 JUMPI PUSH0 PUSH0 REVERT JUMPDEST POP JUMPDEST PUSH1 0x40 DUP1 MLOAD DUP7 DUP2 MSTORE PUSH1 0x20 DUP2 ADD DUP6 SWAP1 MSTORE PUSH1 0x1 PUSH1 0x1 PUSH1 0xA0 SHL SUB DUP7 AND SWAP2 CALLER SWAP2 PUSH0 MLOAD PUSH1 0x20 PUSH2 0x24E5 PUSH0 CODECOPY PUSH0 MLOAD SWAP1 PUSH0 MSTORE SWAP2 ADD PUSH1 0x40 MLOAD DUP1 SWAP2 SUB SWAP1 LOG3 POP POP SWAP3 SWAP2 POP POP JUMP JUMPDEST PUSH0 PUSH2 0xEF3 DUP3 PUSH1 0x1 PUSH1 0x1 PUSH1 0x80 SHL SUB PUSH32 0x0 AND PUSH2 0x23E8 JUMP JUMPDEST DUP3 PUSH2 0xEFC PUSH2 0x1BAB JUMP JUMPDEST PUSH2 0xF06 SWAP2 SWAP1 PUSH2 0x2380 JUMP JUMPDEST PUSH2 0xF10 SWAP2 SWAP1 PUSH2 0x2397 JUMP JUMPDEST PUSH1 0x40 MLOAD PUSH4 0x70A08231 PUSH1 0xE0 SHL DUP2 MSTORE ADDRESS PUSH1 0x4 DUP3 ADD MSTORE SWAP1 SWAP2 POP PUSH0 SWAP1 PUSH1 0x1 PUSH1 0x1 PUSH1 0xA0 SHL SUB PUSH32 0x0 AND SWAP1 PUSH4 0x70A08231 SWAP1 PUSH1 0x24 ADD PUSH1 0x20 PUSH1 0x40 MLOAD DUP1 DUP4 SUB DUP2 DUP7 GAS STATICCALL ISZERO DUP1 ISZERO PUSH2 0xF77 JUMPI RETURNDATASIZE PUSH0 PUSH0 RETURNDATACOPY RETURNDATASIZE PUSH0 REVERT JUMPDEST POP POP POP POP PUSH1 0x40 MLOAD RETURNDATASIZE PUSH1 0x1F NOT PUSH1 0x1F DUP3 ADD AND DUP3 ADD DUP1 PUSH1 0x40 MSTORE POP DUP2 ADD SWAP1 PUSH2 0xF9B SWAP2 SWAP1 PUSH2 0x2355 JUMP JUMPDEST SWAP1 POP DUP2 DUP2 LT ISZERO PUSH2 0xFA9 JUMPI DUP1 SWAP2 POP JUMPDEST POP SWAP2 SWAP1 POP JUMP JUMPDEST PUSH0 CALLER PUSH1 0x1 PUSH1 0x1 PUSH1 0xA0 SHL SUB PUSH32 0x0 AND EQ PUSH2 0xFE4 JUMPI PUSH0 PUSH0 REVERT JUMPDEST PUSH2 0xFF6 DUP6 PUSH2 0xFF1 DUP7 PUSH2 0xC39 JUMP JUMPDEST PUSH2 0x1DCA JUMP JUMPDEST POP PUSH4 0x44A1F601 PUSH1 0xE1 SHL SWAP5 SWAP4 POP POP POP POP JUMP JUMPDEST DUP2 PUSH2 0x1019 PUSH9 0x5345CDF77EB68F44C SLOAD SWAP1 JUMP JUMPDEST ISZERO PUSH2 0x1022 JUMPI PUSH0 PUSH0 REVERT JUMPDEST PUSH2 0x102C DUP3 DUP3 PUSH2 0x1D61 JUMP JUMPDEST PUSH1 0x40 MLOAD PUSH4 0x23B872DD PUSH1 0xE0 SHL DUP2 MSTORE PUSH1 0x1 PUSH1 0x1 PUSH1 0xA0 SHL SUB PUSH32 0x0 AND SWAP1 PUSH4 0x23B872DD SWAP1 PUSH2 0x107C SWAP1 CALLER SWAP1 ADDRESS SWAP1 DUP9 SWAP1 PUSH1 0x4 ADD PUSH2 0x23FB JUMP JUMPDEST PUSH1 0x20 PUSH1 0x40 MLOAD DUP1 DUP4 SUB DUP2 PUSH0 DUP8 GAS CALL ISZERO DUP1 ISZERO PUSH2 0x1098 JUMPI RETURNDATASIZE PUSH0 PUSH0 RETURNDATACOPY RETURNDATASIZE PUSH0 REVERT JUMPDEST POP POP POP POP PUSH1 0x40 MLOAD RETURNDATASIZE PUSH1 0x1F NOT PUSH1 0x1F DUP3 ADD AND DUP3 ADD DUP1 PUSH1 0x40 MSTORE POP DUP2 ADD SWAP1 PUSH2 0x10BC SWAP2 SWAP1 PUSH2 0x23B6 JUMP JUMPDEST POP PUSH1 0x40 DUP1 MLOAD DUP5 DUP2 MSTORE PUSH1 0x20 DUP2 ADD DUP4 SWAP1 MSTORE PUSH1 0x1 PUSH1 0x1 PUSH1 0xA0 SHL SUB DUP5 AND SWAP2 CALLER SWAP2 PUSH0 MLOAD PUSH1 0x20 PUSH2 0x24E5 PUSH0 CODECOPY PUSH0 MLOAD SWAP1 PUSH0 MSTORE SWAP2 ADD PUSH1 0x40 MLOAD DUP1 SWAP2 SUB SWAP1 LOG3 SWAP3 SWAP2 POP POP JUMP JUMPDEST PUSH0 PUSH1 0x1 PUSH1 0x1 PUSH1 0xA0 SHL SUB PUSH32 0x0 AND PUSH4 0xD505ACCF CALLER ADDRESS DUP8 DUP7 CALLDATALOAD PUSH2 0x113B PUSH1 0x40 DUP10 ADD PUSH1 0x20 DUP11 ADD PUSH2 0x241F JUMP JUMPDEST PUSH1 0x40 DUP1 MLOAD PUSH1 0x1 PUSH1 0x1 PUSH1 0xE0 SHL SUB NOT PUSH1 0xE0 DUP10 SWAP1 SHL AND DUP2 MSTORE PUSH1 0x1 PUSH1 0x1 PUSH1 0xA0 SHL SUB SWAP7 DUP8 AND PUSH1 0x4 DUP3 ADD MSTORE SWAP6 SWAP1 SWAP5 AND PUSH1 0x24 DUP7 ADD MSTORE PUSH1 0x44 DUP6 ADD SWAP3 SWAP1 SWAP3 MSTORE PUSH1 0x64 DUP5 ADD MSTORE PUSH1 0xFF AND PUSH1 0x84 DUP4 ADD MSTORE DUP6 ADD CALLDATALOAD PUSH1 0xA4 DUP3 ADD MSTORE PUSH1 0x60 DUP6 ADD CALLDATALOAD PUSH1 0xC4 DUP3 ADD MSTORE PUSH1 0xE4 ADD PUSH0 PUSH1 0x40 MLOAD DUP1 DUP4 SUB DUP2 PUSH0 DUP8 DUP1 EXTCODESIZE ISZERO DUP1 ISZERO PUSH2 0x11AA JUMPI PUSH0 PUSH0 REVERT JUMPDEST POP GAS CALL ISZERO DUP1 ISZERO PUSH2 0x11BC JUMPI RETURNDATASIZE PUSH0 PUSH0 RETURNDATACOPY RETURNDATASIZE PUSH0 REVERT JUMPDEST POP POP POP POP PUSH2 0x11CA DUP5 DUP5 PUSH2 0x12CA JUMP JUMPDEST SWAP5 SWAP4 POP POP POP POP JUMP JUMPDEST PUSH1 0x60 PUSH32 0x0 PUSH1 0x1 PUSH1 0x1 PUSH1 0xA0 SHL SUB AND PUSH4 0x95D89B41 PUSH1 0x40 MLOAD DUP2 PUSH4 0xFFFFFFFF AND PUSH1 0xE0 SHL DUP2 MSTORE PUSH1 0x4 ADD PUSH0 PUSH1 0x40 MLOAD DUP1 DUP4 SUB DUP2 DUP7 GAS STATICCALL ISZERO DUP1 ISZERO PUSH2 0x122F JUMPI RETURNDATASIZE PUSH0 PUSH0 RETURNDATACOPY RETURNDATASIZE PUSH0 REVERT JUMPDEST POP POP POP POP PUSH1 0x40 MLOAD RETURNDATASIZE PUSH0 DUP3 RETURNDATACOPY PUSH1 0x1F RETURNDATASIZE SWAP1 DUP2 ADD PUSH1 0x1F NOT AND DUP3 ADD PUSH1 0x40 MSTORE PUSH2 0x1256 SWAP2 SWAP1 DUP2 ADD SWAP1 PUSH2 0x2249 JUMP JUMPDEST PUSH1 0x40 MLOAD PUSH1 0x20 ADD PUSH2 0x873 SWAP2 SWAP1 PUSH2 0x2438 JUMP JUMPDEST PUSH0 PUSH4 0x87A211A2 PUSH1 0xC MSTORE CALLER PUSH0 MSTORE PUSH1 0x20 PUSH1 0xC KECCAK256 DUP1 SLOAD DUP1 DUP5 GT ISZERO PUSH2 0x128E JUMPI PUSH4 0xF4D678B8 PUSH0 MSTORE PUSH1 0x4 PUSH1 0x1C REVERT JUMPDEST DUP4 DUP2 SUB DUP3 SSTORE POP POP DUP3 PUSH0 MSTORE PUSH1 0x20 PUSH1 0xC KECCAK256 DUP3 DUP2 SLOAD ADD DUP2 SSTORE POP DUP2 PUSH1 0x20 MSTORE PUSH1 0xC MLOAD PUSH1 0x60 SHR CALLER PUSH0 MLOAD PUSH1 0x20 PUSH2 0x24C5 PUSH0 CODECOPY PUSH0 MLOAD SWAP1 PUSH0 MSTORE PUSH1 0x20 DUP1 LOG3 POP PUSH1 0x1 SWAP3 SWAP2 POP POP JUMP JUMPDEST PUSH0 PUSH2 0x12D4 DUP4 PUSH2 0xC39 JUMP JUMPDEST PUSH1 0x40 MLOAD PUSH4 0x23B872DD PUSH1 0xE0 SHL DUP2 MSTORE SWAP1 SWAP2 POP PUSH1 0x1 PUSH1 0x1 PUSH1 0xA0 SHL SUB PUSH32 0x0 AND SWAP1 PUSH4 0x23B872DD SWAP1 PUSH2 0x1327 SWAP1 CALLER SWAP1 ADDRESS SWAP1 DUP9 SWAP1 PUSH1 0x4 ADD PUSH2 0x23FB JUMP JUMPDEST PUSH1 0x20 PUSH1 0x40 MLOAD DUP1 DUP4 SUB DUP2 PUSH0 DUP8 GAS CALL ISZERO DUP1 ISZERO PUSH2 0x1343 JUMPI RETURNDATASIZE PUSH0 PUSH0 RETURNDATACOPY RETURNDATASIZE PUSH0 REVERT JUMPDEST POP POP POP POP PUSH1 0x40 MLOAD RETURNDATASIZE PUSH1 0x1F NOT PUSH1 0x1F DUP3 ADD AND DUP3 ADD DUP1 PUSH1 0x40 MSTORE POP DUP2 ADD SWAP1 PUSH2 0x1367 SWAP2 SWAP1 PUSH2 0x23B6 JUMP JUMPDEST POP PUSH2 0x935 DUP3 DUP3 PUSH2 0x1DCA JUMP JUMPDEST PUSH0 PUSH32 0x0 PUSH1 0x1 PUSH1 0x1 PUSH1 0x80 SHL SUB AND PUSH1 0x1 SLOAD TIMESTAMP PUSH2 0x13AB SWAP2 SWAP1 PUSH2 0x23D5 JUMP JUMPDEST PUSH2 0xB13 SWAP2 SWAP1 PUSH2 0x2380 JUMP JUMPDEST PUSH0 PUSH2 0x13BF DUP5 PUSH2 0xC9B JUMP JUMPDEST SWAP1 POP CALLER PUSH1 0x1 PUSH1 0x1 PUSH1 0xA0 SHL SUB DUP4 AND EQ PUSH2 0x13DC JUMPI PUSH2 0x13DC DUP3 CALLER DUP7 PUSH2 0x1E6C JUMP JUMPDEST PUSH0 PUSH2 0x13EE PUSH9 0x5345CDF77EB68F44C SLOAD SWAP1 JUMP JUMPDEST PUSH2 0x13F8 DUP7 SELFBALANCE PUSH2 0x2380 JUMP JUMPDEST PUSH2 0x1402 SWAP2 SWAP1 PUSH2 0x2397 JUMP JUMPDEST SWAP1 POP PUSH2 0x140E DUP4 DUP7 PUSH2 0x1EAB JUMP JUMPDEST PUSH1 0x40 MLOAD PUSH4 0xA9059CBB PUSH1 0xE0 SHL DUP2 MSTORE PUSH1 0x1 PUSH1 0x1 PUSH1 0xA0 SHL SUB DUP6 DUP2 AND PUSH1 0x4 DUP4 ADD MSTORE PUSH1 0x24 DUP3 ADD DUP5 SWAP1 MSTORE PUSH32 0x0 AND SWAP1 PUSH4 0xA9059CBB SWAP1 PUSH1 0x44 ADD PUSH1 0x20 PUSH1 0x40 MLOAD DUP1 DUP4 SUB DUP2 PUSH0 DUP8 GAS CALL ISZERO DUP1 ISZERO PUSH2 0x147A JUMPI RETURNDATASIZE PUSH0 PUSH0 RETURNDATACOPY RETURNDATASIZE PUSH0 REVERT JUMPDEST POP POP POP POP PUSH1 0x40 MLOAD RETURNDATASIZE PUSH1 0x1F NOT PUSH1 0x1F DUP3 ADD AND DUP3 ADD DUP1 PUSH1 0x40 MSTORE POP DUP2 ADD SWAP1 PUSH2 0x149E SWAP2 SWAP1 PUSH2 0x23B6 JUMP JUMPDEST POP PUSH0 DUP5 PUSH1 0x1 PUSH1 0x1 PUSH1 0xA0 SHL SUB AND DUP3 PUSH1 0x40 MLOAD PUSH0 PUSH1 0x40 MLOAD DUP1 DUP4 SUB DUP2 DUP6 DUP8 GAS CALL SWAP3 POP POP POP RETURNDATASIZE DUP1 PUSH0 DUP2 EQ PUSH2 0x14E8 JUMPI PUSH1 0x40 MLOAD SWAP2 POP PUSH1 0x1F NOT PUSH1 0x3F RETURNDATASIZE ADD AND DUP3 ADD PUSH1 0x40 MSTORE RETURNDATASIZE DUP3 MSTORE RETURNDATASIZE PUSH0 PUSH1 0x20 DUP5 ADD RETURNDATACOPY PUSH2 0x14ED JUMP JUMPDEST PUSH1 0x60 SWAP2 POP JUMPDEST POP POP SWAP1 POP DUP1 PUSH2 0x14FA JUMPI PUSH0 PUSH0 REVERT JUMPDEST PUSH1 0x40 DUP1 MLOAD DUP5 DUP2 MSTORE PUSH1 0x20 DUP2 ADD DUP9 SWAP1 MSTORE PUSH1 0x1 PUSH1 0x1 PUSH1 0xA0 SHL SUB DUP1 DUP8 AND SWAP3 SWAP1 DUP9 AND SWAP2 CALLER SWAP2 PUSH32 0xFBDE797D201C681B91056529119E0B02407C7BB96A4A2C75C01FC9667232C8DB SWAP2 ADD PUSH1 0x40 MLOAD DUP1 SWAP2 SUB SWAP1 LOG4 POP POP SWAP4 SWAP3 POP POP POP JUMP JUMPDEST PUSH0 PUSH2 0x1559 DUP6 DUP6 PUSH2 0x1266 JUMP JUMPDEST POP PUSH1 0x40 MLOAD PUSH4 0x44A1F601 PUSH1 0xE1 SHL DUP2 MSTORE PUSH1 0x1 PUSH1 0x1 PUSH1 0xA0 SHL SUB DUP7 AND SWAP1 PUSH4 0x8943EC02 SWAP1 PUSH2 0x158C SWAP1 CALLER SWAP1 DUP9 SWAP1 DUP9 SWAP1 DUP9 SWAP1 PUSH1 0x4 ADD PUSH2 0x2456 JUMP JUMPDEST PUSH1 0x20 PUSH1 0x40 MLOAD DUP1 DUP4 SUB DUP2 PUSH0 DUP8 GAS CALL ISZERO DUP1 ISZERO PUSH2 0x15A8 JUMPI RETURNDATASIZE PUSH0 PUSH0 RETURNDATACOPY RETURNDATASIZE PUSH0 REVERT JUMPDEST POP POP POP POP PUSH1 0x40 MLOAD RETURNDATASIZE PUSH1 0x1F NOT PUSH1 0x1F DUP3 ADD AND DUP3 ADD DUP1 PUSH1 0x40 MSTORE POP DUP2 ADD SWAP1 PUSH2 0x15CC SWAP2 SWAP1 PUSH2 0x249D JUMP JUMPDEST POP PUSH1 0x1 SWAP6 SWAP5 POP POP POP POP POP JUMP JUMPDEST CALLVALUE PUSH2 0x15EA PUSH9 0x5345CDF77EB68F44C SLOAD SWAP1 JUMP JUMPDEST ISZERO PUSH2 0x15F3 JUMPI PUSH0 PUSH0 REVERT JUMPDEST PUSH2 0x15FD DUP3 DUP3 PUSH2 0x1D61 JUMP JUMPDEST PUSH1 0x40 DUP1 MLOAD PUSH0 DUP2 MSTORE PUSH1 0x20 DUP2 ADD DUP4 SWAP1 MSTORE PUSH1 0x1 PUSH1 0x1 PUSH1 0xA0 SHL SUB DUP5 AND SWAP2 CALLER SWAP2 PUSH0 MLOAD PUSH1 0x20 PUSH2 0x24E5 PUSH0 CODECOPY PUSH0 MLOAD SWAP1 PUSH0 MSTORE SWAP2 ADD PUSH1 0x40 MLOAD DUP1 SWAP2 SUB SWAP1 LOG3 SWAP2 SWAP1 POP JUMP JUMPDEST PUSH1 0x40 MLOAD PUSH4 0x70A08231 PUSH1 0xE0 SHL DUP2 MSTORE ADDRESS PUSH1 0x4 DUP3 ADD MSTORE PUSH0 SWAP1 PUSH32 0x0 PUSH1 0x1 PUSH1 0x1 PUSH1 0xA0 SHL SUB AND SWAP1 PUSH4 0x70A08231 SWAP1 PUSH1 0x24 ADD PUSH1 0x20 PUSH1 0x40 MLOAD DUP1 DUP4 SUB DUP2 DUP7 GAS STATICCALL ISZERO DUP1 ISZERO PUSH2 0x1699 JUMPI RETURNDATASIZE PUSH0 PUSH0 RETURNDATACOPY RETURNDATASIZE PUSH0 REVERT JUMPDEST POP POP POP POP PUSH1 0x40 MLOAD RETURNDATASIZE PUSH1 0x1F NOT PUSH1 0x1F DUP3 ADD AND DUP3 ADD DUP1 PUSH1 0x40 MSTORE POP DUP2 ADD SWAP1 PUSH2 0x16BD SWAP2 SWAP1 PUSH2 0x2355 JUMP JUMPDEST DUP3 PUSH2 0x921 PUSH9 0x5345CDF77EB68F44C SLOAD SWAP1 JUMP JUMPDEST PUSH0 PUSH2 0x16D8 PUSH2 0x7DF JUMP JUMPDEST DUP1 MLOAD SWAP1 PUSH1 0x20 ADD KECCAK256 SWAP1 POP PUSH32 0xC89EFDAA54C0F20C7ADF612882DF0950F5A951637E0307CDCB4C672F298B8BC6 TIMESTAMP DUP7 LT ISZERO PUSH2 0x1717 JUMPI PUSH4 0x1A15A3CC PUSH0 MSTORE PUSH1 0x4 PUSH1 0x1C REVERT JUMPDEST PUSH1 0x40 MLOAD DUP10 PUSH1 0x60 SHL PUSH1 0x60 SHR SWAP10 POP DUP9 PUSH1 0x60 SHL PUSH1 0x60 SHR SWAP9 POP PUSH6 0x383775081901 PUSH1 0xE MSTORE DUP10 PUSH0 MSTORE PUSH1 0x20 PUSH1 0xC KECCAK256 DUP1 SLOAD PUSH32 0x8B73C3C69BB8FE3D512ECC4CF759CC79239F7B179B0FFACAA9A75D522B39400F DUP4 MSTORE DUP5 PUSH1 0x20 DUP5 ADD MSTORE DUP4 PUSH1 0x40 DUP5 ADD MSTORE CHAINID PUSH1 0x60 DUP5 ADD MSTORE ADDRESS PUSH1 0x80 DUP5 ADD MSTORE PUSH1 0xA0 DUP4 KECCAK256 PUSH1 0x2E MSTORE PUSH32 0x6E71EDAE12B1B97F4D1F60370FEF10105FA2FAAE0126114A169C64845D6126C9 DUP4 MSTORE DUP12 PUSH1 0x20 DUP5 ADD MSTORE DUP11 PUSH1 0x40 DUP5 ADD MSTORE DUP10 PUSH1 0x60 DUP5 ADD MSTORE DUP1 PUSH1 0x80 DUP5 ADD MSTORE DUP9 PUSH1 0xA0 DUP5 ADD MSTORE PUSH1 0xC0 DUP4 KECCAK256 PUSH1 0x4E MSTORE PUSH1 0x42 PUSH1 0x2C KECCAK256 PUSH0 MSTORE DUP8 PUSH1 0xFF AND PUSH1 0x20 MSTORE DUP7 PUSH1 0x40 MSTORE DUP6 PUSH1 0x60 MSTORE PUSH1 0x20 DUP1 PUSH1 0x80 PUSH0 PUSH1 0x1 GAS STATICCALL DUP13 RETURNDATASIZE MLOAD EQ PUSH2 0x17FF JUMPI PUSH4 0xDDAFBAEF PUSH0 MSTORE PUSH1 0x4 PUSH1 0x1C REVERT JUMPDEST ADD SWAP1 SSTORE PUSH4 0x3FAF4F9 PUSH1 0xA5 SHL DUP10 OR PUSH1 0x40 MSTORE PUSH1 0x34 PUSH1 0x2C KECCAK256 DUP9 SWAP1 SSTORE DUP9 DUP11 PUSH32 0x8C5BE1E5EBEC7D5BD14F71427D1E84F3DD0314C0F7B2291E5B200AC8C7C3B925 PUSH1 0x20 PUSH1 0x60 DUP6 ADD LOG3 PUSH1 0x40 MSTORE POP POP PUSH0 PUSH1 0x60 MSTORE POP POP POP POP POP POP POP JUMP JUMPDEST PUSH1 0x40 MLOAD PUSH4 0x70A08231 PUSH1 0xE0 SHL DUP2 MSTORE ADDRESS PUSH1 0x4 DUP3 ADD MSTORE PUSH0 SWAP1 DUP2 SWAP1 PUSH1 0x1 PUSH1 0x1 PUSH1 0xA0 SHL SUB PUSH32 0x0 AND SWAP1 PUSH4 0x70A08231 SWAP1 PUSH1 0x24 ADD PUSH1 0x20 PUSH1 0x40 MLOAD DUP1 DUP4 SUB DUP2 DUP7 GAS STATICCALL ISZERO DUP1 ISZERO PUSH2 0x18B9 JUMPI RETURNDATASIZE PUSH0 PUSH0 RETURNDATACOPY RETURNDATASIZE PUSH0 REVERT JUMPDEST POP POP POP POP PUSH1 0x40 MLOAD RETURNDATASIZE PUSH1 0x1F NOT PUSH1 0x1F DUP3 ADD AND DUP3 ADD DUP1 PUSH1 0x40 MSTORE POP DUP2 ADD SWAP1 PUSH2 0x18DD SWAP2 SWAP1 PUSH2 0x2355 JUMP JUMPDEST SWAP1 POP DUP5 PUSH1 0x1 PUSH1 0x1 PUSH1 0xA0 SHL SUB AND PUSH4 0x223ECF7E DUP6 PUSH1 0x40 MLOAD DUP3 PUSH4 0xFFFFFFFF AND PUSH1 0xE0 SHL DUP2 MSTORE PUSH1 0x4 ADD PUSH1 0x20 PUSH1 0x40 MLOAD DUP1 DUP4 SUB DUP2 DUP6 DUP9 GAS CALL ISZERO DUP1 ISZERO PUSH2 0x191D JUMPI RETURNDATASIZE PUSH0 PUSH0 RETURNDATACOPY RETURNDATASIZE PUSH0 REVERT JUMPDEST POP POP POP POP POP PUSH1 0x40 MLOAD RETURNDATASIZE PUSH1 0x1F NOT PUSH1 0x1F DUP3 ADD AND DUP3 ADD DUP1 PUSH1 0x40 MSTORE POP DUP2 ADD SWAP1 PUSH2 0x1942 SWAP2 SWAP1 PUSH2 0x2355 JUMP JUMPDEST POP PUSH1 0x40 MLOAD PUSH4 0x70A08231 PUSH1 0xE0 SHL DUP2 MSTORE ADDRESS PUSH1 0x4 DUP3 ADD MSTORE DUP5 SWAP1 PUSH2 0x19DB SWAP1 DUP4 SWAP1 PUSH1 0x1 PUSH1 0x1 PUSH1 0xA0 SHL SUB PUSH32 0x0 AND SWAP1 PUSH4 0x70A08231 SWAP1 PUSH1 0x24 ADD PUSH1 0x20 PUSH1 0x40 MLOAD DUP1 DUP4 SUB DUP2 DUP7 GAS STATICCALL ISZERO DUP1 ISZERO PUSH2 0x19AD JUMPI RETURNDATASIZE PUSH0 PUSH0 RETURNDATACOPY RETURNDATASIZE PUSH0 REVERT JUMPDEST POP POP POP POP PUSH1 0x40 MLOAD RETURNDATASIZE PUSH1 0x1F NOT PUSH1 0x1F DUP3 ADD AND DUP3 ADD DUP1 PUSH1 0x40 MSTORE POP DUP2 ADD SWAP1 PUSH2 0x19D1 SWAP2 SWAP1 PUSH2 0x2355 JUMP JUMPDEST PUSH2 0x423 SWAP2 SWAP1 PUSH2 0x23D5 JUMP JUMPDEST PUSH2 0x19E5 SWAP2 SWAP1 PUSH2 0x23D5 JUMP JUMPDEST SWAP2 POP PUSH2 0xB01 DUP4 DUP4 PUSH2 0x1DCA JUMP JUMPDEST PUSH0 PUSH2 0x935 DUP3 PUSH2 0x1635 JUMP JUMPDEST PUSH0 PUSH2 0x1A06 CALLVALUE SELFBALANCE PUSH2 0x23D5 JUMP JUMPDEST CALLVALUE PUSH2 0x1A18 PUSH9 0x5345CDF77EB68F44C SLOAD SWAP1 JUMP JUMPDEST PUSH2 0x1A22 SWAP2 SWAP1 PUSH2 0x2380 JUMP JUMPDEST PUSH2 0x1A2C SWAP2 SWAP1 PUSH2 0x2397 JUMP JUMPDEST SWAP1 POP PUSH0 PUSH2 0x1A39 CALLVALUE SELFBALANCE PUSH2 0x23D5 JUMP JUMPDEST PUSH1 0x40 MLOAD PUSH4 0x70A08231 PUSH1 0xE0 SHL DUP2 MSTORE ADDRESS PUSH1 0x4 DUP3 ADD MSTORE CALLVALUE SWAP1 PUSH32 0x0 PUSH1 0x1 PUSH1 0x1 PUSH1 0xA0 SHL SUB AND SWAP1 PUSH4 0x70A08231 SWAP1 PUSH1 0x24 ADD PUSH1 0x20 PUSH1 0x40 MLOAD DUP1 DUP4 SUB DUP2 DUP7 GAS STATICCALL ISZERO DUP1 ISZERO PUSH2 0x1A9D JUMPI RETURNDATASIZE PUSH0 PUSH0 RETURNDATACOPY RETURNDATASIZE PUSH0 REVERT JUMPDEST POP POP POP POP PUSH1 0x40 MLOAD RETURNDATASIZE PUSH1 0x1F NOT PUSH1 0x1F DUP3 ADD AND DUP3 ADD DUP1 PUSH1 0x40 MSTORE POP DUP2 ADD SWAP1 PUSH2 0x1AC1 SWAP2 SWAP1 PUSH2 0x2355 JUMP JUMPDEST PUSH2 0x1ACB SWAP2 SWAP1 PUSH2 0x2380 JUMP JUMPDEST PUSH2 0x1AD5 SWAP2 SWAP1 PUSH2 0x2397 JUMP JUMPDEST SWAP1 POP PUSH2 0x1AE1 DUP4 DUP4 PUSH2 0x1D61 JUMP JUMPDEST PUSH1 0x40 MLOAD PUSH4 0x23B872DD PUSH1 0xE0 SHL DUP2 MSTORE PUSH1 0x1 PUSH1 0x1 PUSH1 0xA0 SHL SUB PUSH32 0x0 AND SWAP1 PUSH4 0x23B872DD SWAP1 PUSH2 0x1B31 SWAP1 CALLER SWAP1 ADDRESS SWAP1 DUP7 SWAP1 PUSH1 0x4 ADD PUSH2 0x23FB JUMP JUMPDEST PUSH1 0x20 PUSH1 0x40 MLOAD DUP1 DUP4 SUB DUP2 PUSH0 DUP8 GAS CALL ISZERO DUP1 ISZERO PUSH2 0x1B4D JUMPI RETURNDATASIZE PUSH0 PUSH0 RETURNDATACOPY RETURNDATASIZE PUSH0 REVERT JUMPDEST POP POP POP POP PUSH1 0x40 MLOAD RETURNDATASIZE PUSH1 0x1F NOT PUSH1 0x1F DUP3 ADD AND DUP3 ADD DUP1 PUSH1 0x40 MSTORE POP DUP2 ADD SWAP1 PUSH2 0x1B71 SWAP2 SWAP1 PUSH2 0x23B6 JUMP JUMPDEST POP PUSH1 0x40 DUP1 MLOAD DUP3 DUP2 MSTORE PUSH1 0x20 DUP2 ADD DUP5 SWAP1 MSTORE PUSH1 0x1 PUSH1 0x1 PUSH1 0xA0 SHL SUB DUP6 AND SWAP2 CALLER SWAP2 PUSH0 MLOAD PUSH1 0x20 PUSH2 0x24E5 PUSH0 CODECOPY PUSH0 MLOAD SWAP1 PUSH0 MSTORE SWAP2 ADD PUSH1 0x40 MLOAD DUP1 SWAP2 SUB SWAP1 LOG3 POP SWAP2 SWAP1 POP JUMP JUMPDEST PUSH0 PUSH32 0x0 PUSH1 0x1 PUSH1 0x1 PUSH1 0x80 SHL SUB AND PUSH0 SLOAD TIMESTAMP PUSH2 0x13AB SWAP2 SWAP1 PUSH2 0x23D5 JUMP JUMPDEST PUSH1 0x40 MLOAD PUSH4 0x5F22FEB1 PUSH1 0xE1 SHL DUP2 MSTORE PUSH1 0x1 PUSH1 0x1 PUSH1 0xA0 SHL SUB DUP5 DUP2 AND PUSH1 0x4 DUP4 ADD MSTORE PUSH1 0x24 DUP3 ADD DUP5 SWAP1 MSTORE PUSH1 0x60 PUSH1 0x44 DUP4 ADD MSTORE PUSH0 PUSH1 0x64 DUP4 ADD DUP2 SWAP1 MSTORE SWAP2 SELFBALANCE SWAP2 PUSH32 0x0 AND SWAP1 PUSH4 0xBE45FD62 SWAP1 PUSH1 0x84 ADD PUSH1 0x20 PUSH1 0x40 MLOAD DUP1 DUP4 SUB DUP2 PUSH0 DUP8 GAS CALL ISZERO DUP1 ISZERO PUSH2 0x1C61 JUMPI RETURNDATASIZE PUSH0 PUSH0 RETURNDATACOPY RETURNDATASIZE PUSH0 REVERT JUMPDEST POP POP POP POP PUSH1 0x40 MLOAD RETURNDATASIZE PUSH1 0x1F NOT PUSH1 0x1F DUP3 ADD AND DUP3 ADD DUP1 PUSH1 0x40 MSTORE POP DUP2 ADD SWAP1 PUSH2 0xADC SWAP2 SWAP1 PUSH2 0x23B6 JUMP JUMPDEST PUSH2 0x1CB8 PUSH1 0x1 PUSH1 0x1 PUSH1 0x80 SHL SUB PUSH32 0x0 AND DUP3 PUSH2 0x2397 JUMP JUMPDEST PUSH0 PUSH0 DUP3 DUP3 SLOAD PUSH2 0x1CC7 SWAP2 SWAP1 PUSH2 0x23E8 JUMP JUMPDEST SWAP1 SWAP2 SSTORE POP POP PUSH1 0x40 MLOAD PUSH4 0xA9059CBB PUSH1 0xE0 SHL DUP2 MSTORE PUSH1 0x1 PUSH1 0x1 PUSH1 0xA0 SHL SUB DUP4 DUP2 AND PUSH1 0x4 DUP4 ADD MSTORE PUSH1 0x24 DUP3 ADD DUP4 SWAP1 MSTORE PUSH32 0x0 AND SWAP1 PUSH4 0xA9059CBB SWAP1 PUSH1 0x44 ADD PUSH1 0x20 PUSH1 0x40 MLOAD DUP1 DUP4 SUB DUP2 PUSH0 DUP8 GAS CALL ISZERO DUP1 ISZERO PUSH2 0x1D38 JUMPI RETURNDATASIZE PUSH0 PUSH0 RETURNDATACOPY RETURNDATASIZE PUSH0 REVERT JUMPDEST POP POP POP POP PUSH1 0x40 MLOAD RETURNDATASIZE PUSH1 0x1F NOT PUSH1 0x1F DUP3 ADD AND DUP3 ADD DUP1 PUSH1 0x40 MSTORE POP DUP2 ADD SWAP1 PUSH2 0x1D5C SWAP2 SWAP1 PUSH2 0x23B6 JUMP JUMPDEST POP POP POP JUMP JUMPDEST PUSH9 0x5345CDF77EB68F44C SLOAD DUP2 DUP2 ADD DUP2 DUP2 LT ISZERO PUSH2 0x1D84 JUMPI PUSH4 0xE5CFE957 PUSH0 MSTORE PUSH1 0x4 PUSH1 0x1C REVERT JUMPDEST DUP1 PUSH9 0x5345CDF77EB68F44C SSTORE POP POP PUSH4 0x87A211A2 PUSH1 0xC MSTORE DUP2 PUSH0 MSTORE PUSH1 0x20 PUSH1 0xC KECCAK256 DUP2 DUP2 SLOAD ADD DUP2 SSTORE POP DUP1 PUSH1 0x20 MSTORE PUSH1 0xC MLOAD PUSH1 0x60 SHR PUSH0 PUSH0 MLOAD PUSH1 0x20 PUSH2 0x24C5 PUSH0 CODECOPY PUSH0 MLOAD SWAP1 PUSH0 MSTORE PUSH1 0x20 DUP1 LOG3 POP POP JUMP JUMPDEST PUSH2 0x1DFD PUSH1 0x1 PUSH1 0x1 PUSH1 0x80 SHL SUB PUSH32 0x0 AND DUP3 PUSH2 0x2397 JUMP JUMPDEST PUSH1 0x1 PUSH0 DUP3 DUP3 SLOAD PUSH2 0x1E0D SWAP2 SWAP1 PUSH2 0x23E8 JUMP JUMPDEST SWAP1 SWAP2 SSTORE POP POP PUSH1 0x40 MLOAD PUSH0 SWAP1 PUSH1 0x1 PUSH1 0x1 PUSH1 0xA0 SHL SUB DUP5 AND SWAP1 DUP4 SWAP1 DUP4 DUP2 DUP2 DUP2 DUP6 DUP8 GAS CALL SWAP3 POP POP POP RETURNDATASIZE DUP1 PUSH0 DUP2 EQ PUSH2 0x1E5A JUMPI PUSH1 0x40 MLOAD SWAP2 POP PUSH1 0x1F NOT PUSH1 0x3F RETURNDATASIZE ADD AND DUP3 ADD PUSH1 0x40 MSTORE RETURNDATASIZE DUP3 MSTORE RETURNDATASIZE PUSH0 PUSH1 0x20 DUP5 ADD RETURNDATACOPY PUSH2 0x1E5F JUMP JUMPDEST PUSH1 0x60 SWAP2 POP JUMPDEST POP POP SWAP1 POP DUP1 PUSH2 0x1D5C JUMPI PUSH0 PUSH0 REVERT JUMPDEST DUP2 PUSH1 0x20 MSTORE PUSH4 0x7F5E9F20 PUSH1 0xC MSTORE DUP3 PUSH0 MSTORE PUSH1 0x34 PUSH1 0xC KECCAK256 DUP1 SLOAD DUP1 NOT ISZERO PUSH2 0x1EA4 JUMPI DUP1 DUP4 GT ISZERO PUSH2 0x1E9E JUMPI PUSH4 0x13BE252B PUSH0 MSTORE PUSH1 0x4 PUSH1 0x1C REVERT JUMPDEST DUP3 DUP2 SUB DUP3 SSTORE JUMPDEST POP POP POP POP POP JUMP JUMPDEST PUSH4 0x87A211A2 PUSH1 0xC MSTORE DUP2 PUSH0 MSTORE PUSH1 0x20 PUSH1 0xC KECCAK256 DUP1 SLOAD DUP1 DUP4 GT ISZERO PUSH2 0x1ED2 JUMPI PUSH4 0xF4D678B8 PUSH0 MSTORE PUSH1 0x4 PUSH1 0x1C REVERT JUMPDEST DUP3 SWAP1 SUB SWAP1 SSTORE PUSH9 0x5345CDF77EB68F44C DUP1 SLOAD DUP3 SWAP1 SUB SWAP1 SSTORE PUSH0 DUP2 DUP2 MSTORE PUSH1 0x1 PUSH1 0x1 PUSH1 0xA0 SHL SUB DUP4 AND PUSH0 MLOAD PUSH1 0x20 PUSH2 0x24C5 PUSH0 CODECOPY PUSH0 MLOAD SWAP1 PUSH0 MSTORE PUSH1 0x20 DUP4 LOG3 POP POP JUMP JUMPDEST PUSH1 0x20 DUP2 MSTORE PUSH0 DUP3 MLOAD DUP1 PUSH1 0x20 DUP5 ADD MSTORE DUP1 PUSH1 0x20 DUP6 ADD PUSH1 0x40 DUP6 ADD MCOPY PUSH0 PUSH1 0x40 DUP3 DUP6 ADD ADD MSTORE PUSH1 0x40 PUSH1 0x1F NOT PUSH1 0x1F DUP4 ADD AND DUP5 ADD ADD SWAP2 POP POP SWAP3 SWAP2 POP POP JUMP JUMPDEST PUSH0 PUSH1 0x20 DUP3 DUP5 SUB SLT ISZERO PUSH2 0x1F51 JUMPI PUSH0 PUSH0 REVERT JUMPDEST POP CALLDATALOAD SWAP2 SWAP1 POP JUMP JUMPDEST PUSH1 0x1 PUSH1 0x1 PUSH1 0xA0 SHL SUB DUP2 AND DUP2 EQ PUSH2 0x1F6C JUMPI PUSH0 PUSH0 REVERT JUMPDEST POP JUMP JUMPDEST PUSH0 PUSH0 PUSH1 0x40 DUP4 DUP6 SUB SLT ISZERO PUSH2 0x1F80 JUMPI PUSH0 PUSH0 REVERT JUMPDEST DUP3 CALLDATALOAD PUSH2 0x1F8B DUP2 PUSH2 0x1F58 JUMP JUMPDEST SWAP5 PUSH1 0x20 SWAP4 SWAP1 SWAP4 ADD CALLDATALOAD SWAP4 POP POP POP JUMP JUMPDEST PUSH0 PUSH1 0x20 DUP3 DUP5 SUB SLT ISZERO PUSH2 0x1FA9 JUMPI PUSH0 PUSH0 REVERT JUMPDEST DUP2 CALLDATALOAD PUSH2 0xCBC DUP2 PUSH2 0x1F58 JUMP JUMPDEST PUSH0 PUSH0 PUSH0 PUSH1 0x60 DUP5 DUP7 SUB SLT ISZERO PUSH2 0x1FC6 JUMPI PUSH0 PUSH0 REVERT JUMPDEST DUP4 CALLDATALOAD PUSH2 0x1FD1 DUP2 PUSH2 0x1F58 JUMP JUMPDEST SWAP3 POP PUSH1 0x20 DUP5 ADD CALLDATALOAD SWAP2 POP PUSH1 0x40 DUP5 ADD CALLDATALOAD PUSH2 0x1FE8 DUP2 PUSH2 0x1F58 JUMP JUMPDEST DUP1 SWAP2 POP POP SWAP3 POP SWAP3 POP SWAP3 JUMP JUMPDEST PUSH0 PUSH0 PUSH0 PUSH1 0x60 DUP5 DUP7 SUB SLT ISZERO PUSH2 0x2005 JUMPI PUSH0 PUSH0 REVERT JUMPDEST DUP4 CALLDATALOAD PUSH2 0x2010 DUP2 PUSH2 0x1F58 JUMP JUMPDEST SWAP3 POP PUSH1 0x20 DUP5 ADD CALLDATALOAD PUSH2 0x2020 DUP2 PUSH2 0x1F58 JUMP JUMPDEST SWAP3 SWAP6 SWAP3 SWAP5 POP POP POP PUSH1 0x40 SWAP2 SWAP1 SWAP2 ADD CALLDATALOAD SWAP1 JUMP JUMPDEST PUSH0 PUSH1 0x80 DUP3 DUP5 SUB SLT ISZERO PUSH2 0xFA9 JUMPI PUSH0 PUSH0 REVERT JUMPDEST PUSH0 PUSH0 PUSH1 0xA0 DUP4 DUP6 SUB SLT ISZERO PUSH2 0x2052 JUMPI PUSH0 PUSH0 REVERT JUMPDEST DUP3 CALLDATALOAD SWAP2 POP PUSH2 0x2063 DUP5 PUSH1 0x20 DUP6 ADD PUSH2 0x2031 JUMP JUMPDEST SWAP1 POP SWAP3 POP SWAP3 SWAP1 POP JUMP JUMPDEST PUSH0 PUSH0 PUSH1 0x40 DUP4 DUP6 SUB SLT ISZERO PUSH2 0x207D JUMPI PUSH0 PUSH0 REVERT JUMPDEST DUP3 CALLDATALOAD SWAP2 POP PUSH1 0x20 DUP4 ADD CALLDATALOAD PUSH2 0x208F DUP2 PUSH2 0x1F58 JUMP JUMPDEST DUP1 SWAP2 POP POP SWAP3 POP SWAP3 SWAP1 POP JUMP JUMPDEST PUSH0 PUSH0 PUSH0 PUSH0 PUSH1 0x60 DUP6 DUP8 SUB SLT ISZERO PUSH2 0x20AD JUMPI PUSH0 PUSH0 REVERT JUMPDEST DUP5 CALLDATALOAD PUSH2 0x20B8 DUP2 PUSH2 0x1F58 JUMP JUMPDEST SWAP4 POP PUSH1 0x20 DUP6 ADD CALLDATALOAD SWAP3 POP PUSH1 0x40 DUP6 ADD CALLDATALOAD PUSH8 0xFFFFFFFFFFFFFFFF DUP2 GT ISZERO PUSH2 0x20DA JUMPI PUSH0 PUSH0 REVERT JUMPDEST DUP6 ADD PUSH1 0x1F DUP2 ADD DUP8 SGT PUSH2 0x20EA JUMPI PUSH0 PUSH0 REVERT JUMPDEST DUP1 CALLDATALOAD PUSH8 0xFFFFFFFFFFFFFFFF DUP2 GT ISZERO PUSH2 0x2100 JUMPI PUSH0 PUSH0 REVERT JUMPDEST DUP8 PUSH1 0x20 DUP3 DUP5 ADD ADD GT ISZERO PUSH2 0x2111 JUMPI PUSH0 PUSH0 REVERT JUMPDEST SWAP5 SWAP8 SWAP4 SWAP7 POP PUSH1 0x20 ADD SWAP5 POP POP POP JUMP JUMPDEST PUSH0 PUSH0 PUSH0 PUSH1 0xC0 DUP5 DUP7 SUB SLT ISZERO PUSH2 0x2131 JUMPI PUSH0 PUSH0 REVERT JUMPDEST DUP4 CALLDATALOAD SWAP3 POP PUSH1 0x20 DUP5 ADD CALLDATALOAD PUSH2 0x2143 DUP2 PUSH2 0x1F58 JUMP JUMPDEST SWAP2 POP PUSH2 0x2152 DUP6 PUSH1 0x40 DUP7 ADD PUSH2 0x2031 JUMP JUMPDEST SWAP1 POP SWAP3 POP SWAP3 POP SWAP3 JUMP JUMPDEST PUSH0 PUSH0 PUSH0 PUSH1 0x60 DUP5 DUP7 SUB SLT ISZERO PUSH2 0x216D JUMPI PUSH0 PUSH0 REVERT JUMPDEST DUP4 CALLDATALOAD SWAP3 POP PUSH1 0x20 DUP5 ADD CALLDATALOAD PUSH2 0x217F DUP2 PUSH2 0x1F58 JUMP JUMPDEST SWAP2 POP PUSH1 0x40 DUP5 ADD CALLDATALOAD PUSH2 0x1FE8 DUP2 PUSH2 0x1F58 JUMP JUMPDEST DUP1 CALLDATALOAD PUSH1 0xFF DUP2 AND DUP2 EQ PUSH2 0x9A0 JUMPI PUSH0 PUSH0 REVERT JUMPDEST PUSH0 PUSH0 PUSH0 PUSH0 PUSH0 PUSH0 PUSH0 PUSH1 0xE0 DUP9 DUP11 SUB SLT ISZERO PUSH2 0x21B5 JUMPI PUSH0 PUSH0 REVERT JUMPDEST DUP8 CALLDATALOAD PUSH2 0x21C0 DUP2 PUSH2 0x1F58 JUMP JUMPDEST SWAP7 POP PUSH1 0x20 DUP9 ADD CALLDATALOAD PUSH2 0x21D0 DUP2 PUSH2 0x1F58 JUMP JUMPDEST SWAP6 POP PUSH1 0x40 DUP9 ADD CALLDATALOAD SWAP5 POP PUSH1 0x60 DUP9 ADD CALLDATALOAD SWAP4 POP PUSH2 0x21EC PUSH1 0x80 DUP10 ADD PUSH2 0x218F JUMP JUMPDEST SWAP7 SWAP10 SWAP6 SWAP9 POP SWAP4 SWAP7 SWAP3 SWAP6 SWAP5 PUSH1 0xA0 DUP5 ADD CALLDATALOAD SWAP5 POP PUSH1 0xC0 SWAP1 SWAP4 ADD CALLDATALOAD SWAP3 SWAP2 POP POP JUMP JUMPDEST PUSH0 PUSH0 PUSH1 0x40 DUP4 DUP6 SUB SLT ISZERO PUSH2 0x221A JUMPI PUSH0 PUSH0 REVERT JUMPDEST DUP3 CALLDATALOAD PUSH2 0x2225 DUP2 PUSH2 0x1F58 JUMP JUMPDEST SWAP2 POP PUSH1 0x20 DUP4 ADD CALLDATALOAD PUSH2 0x208F DUP2 PUSH2 0x1F58 JUMP JUMPDEST PUSH4 0x4E487B71 PUSH1 0xE0 SHL PUSH0 MSTORE PUSH1 0x41 PUSH1 0x4 MSTORE PUSH1 0x24 PUSH0 REVERT JUMPDEST PUSH0 PUSH1 0x20 DUP3 DUP5 SUB SLT ISZERO PUSH2 0x2259 JUMPI PUSH0 PUSH0 REVERT JUMPDEST DUP2 MLOAD PUSH8 0xFFFFFFFFFFFFFFFF DUP2 GT ISZERO PUSH2 0x226F JUMPI PUSH0 PUSH0 REVERT JUMPDEST DUP3 ADD PUSH1 0x1F DUP2 ADD DUP5 SGT PUSH2 0x227F JUMPI PUSH0 PUSH0 REVERT JUMPDEST DUP1 MLOAD PUSH8 0xFFFFFFFFFFFFFFFF DUP2 GT ISZERO PUSH2 0x2299 JUMPI PUSH2 0x2299 PUSH2 0x2235 JUMP JUMPDEST PUSH1 0x40 MLOAD PUSH1 0x1F DUP3 ADD PUSH1 0x1F NOT SWAP1 DUP2 AND PUSH1 0x3F ADD AND DUP2 ADD PUSH8 0xFFFFFFFFFFFFFFFF DUP2 GT DUP3 DUP3 LT OR ISZERO PUSH2 0x22C8 JUMPI PUSH2 0x22C8 PUSH2 0x2235 JUMP JUMPDEST PUSH1 0x40 MSTORE DUP2 DUP2 MSTORE DUP3 DUP3 ADD PUSH1 0x20 ADD DUP7 LT ISZERO PUSH2 0x22DF JUMPI PUSH0 PUSH0 REVERT JUMPDEST DUP2 PUSH1 0x20 DUP5 ADD PUSH1 0x20 DUP4 ADD MCOPY PUSH0 SWAP2 DUP2 ADD PUSH1 0x20 ADD SWAP2 SWAP1 SWAP2 MSTORE SWAP5 SWAP4 POP POP POP POP JUMP JUMPDEST PUSH0 DUP2 MLOAD DUP1 PUSH1 0x20 DUP5 ADD DUP6 MCOPY PUSH0 SWAP4 ADD SWAP3 DUP4 MSTORE POP SWAP1 SWAP2 SWAP1 POP JUMP JUMPDEST PUSH32 0x4171756974617264204C697175696469747920506F6F6C280000000000000000 DUP2 MSTORE PUSH0 PUSH2 0x2344 PUSH1 0x18 DUP4 ADD DUP5 PUSH2 0x22FC JUMP JUMPDEST PUSH1 0x29 PUSH1 0xF8 SHL DUP2 MSTORE PUSH1 0x1 ADD SWAP4 SWAP3 POP POP POP JUMP JUMPDEST PUSH0 PUSH1 0x20 DUP3 DUP5 SUB SLT ISZERO PUSH2 0x2365 JUMPI PUSH0 PUSH0 REVERT JUMPDEST POP MLOAD SWAP2 SWAP1 POP JUMP JUMPDEST PUSH4 0x4E487B71 PUSH1 0xE0 SHL PUSH0 MSTORE PUSH1 0x11 PUSH1 0x4 MSTORE PUSH1 0x24 PUSH0 REVERT JUMPDEST DUP1 DUP3 MUL DUP2 ISZERO DUP3 DUP3 DIV DUP5 EQ OR PUSH2 0x935 JUMPI PUSH2 0x935 PUSH2 0x236C JUMP JUMPDEST PUSH0 DUP3 PUSH2 0x23B1 JUMPI PUSH4 0x4E487B71 PUSH1 0xE0 SHL PUSH0 MSTORE PUSH1 0x12 PUSH1 0x4 MSTORE PUSH1 0x24 PUSH0 REVERT JUMPDEST POP DIV SWAP1 JUMP JUMPDEST PUSH0 PUSH1 0x20 DUP3 DUP5 SUB SLT ISZERO PUSH2 0x23C6 JUMPI PUSH0 PUSH0 REVERT JUMPDEST DUP2 MLOAD DUP1 ISZERO ISZERO DUP2 EQ PUSH2 0xCBC JUMPI PUSH0 PUSH0 REVERT JUMPDEST DUP2 DUP2 SUB DUP2 DUP2 GT ISZERO PUSH2 0x935 JUMPI PUSH2 0x935 PUSH2 0x236C JUMP JUMPDEST DUP1 DUP3 ADD DUP1 DUP3 GT ISZERO PUSH2 0x935 JUMPI PUSH2 0x935 PUSH2 0x236C JUMP JUMPDEST PUSH1 0x1 PUSH1 0x1 PUSH1 0xA0 SHL SUB SWAP4 DUP5 AND DUP2 MSTORE SWAP2 SWAP1 SWAP3 AND PUSH1 0x20 DUP3 ADD MSTORE PUSH1 0x40 DUP2 ADD SWAP2 SWAP1 SWAP2 MSTORE PUSH1 0x60 ADD SWAP1 JUMP JUMPDEST PUSH0 PUSH1 0x20 DUP3 DUP5 SUB SLT ISZERO PUSH2 0x242F JUMPI PUSH0 PUSH0 REVERT JUMPDEST PUSH2 0xCBC DUP3 PUSH2 0x218F JUMP JUMPDEST PUSH0 PUSH2 0x2443 DUP3 DUP5 PUSH2 0x22FC JUMP JUMPDEST PUSH3 0x414C5 PUSH1 0xEC SHL DUP2 MSTORE PUSH1 0x3 ADD SWAP4 SWAP3 POP POP POP JUMP JUMPDEST PUSH1 0x1 PUSH1 0x1 PUSH1 0xA0 SHL SUB DUP6 AND DUP2 MSTORE PUSH1 0x20 DUP2 ADD DUP5 SWAP1 MSTORE PUSH1 0x60 PUSH1 0x40 DUP3 ADD DUP2 SWAP1 MSTORE DUP2 ADD DUP3 SWAP1 MSTORE DUP2 DUP4 PUSH1 0x80 DUP4 ADD CALLDATACOPY PUSH0 DUP2 DUP4 ADD PUSH1 0x80 SWAP1 DUP2 ADD SWAP2 SWAP1 SWAP2 MSTORE PUSH1 0x1F SWAP1 SWAP3 ADD PUSH1 0x1F NOT AND ADD ADD SWAP4 SWAP3 POP POP POP JUMP JUMPDEST PUSH0 PUSH1 0x20 DUP3 DUP5 SUB SLT ISZERO PUSH2 0x24AD JUMPI PUSH0 PUSH0 REVERT JUMPDEST DUP2 MLOAD PUSH1 0x1 PUSH1 0x1 PUSH1 0xE0 SHL SUB NOT DUP2 AND DUP2 EQ PUSH2 0xCBC JUMPI PUSH0 PUSH0 REVERT INVALID 0xDD CALLCODE MSTORE 0xAD SHL 0xE2 0xC8 SWAP12 PUSH10 0xC2B068FC378DAA952BA7 CALL PUSH4 0xC4A11628 CREATE2 GAS 0x4D CREATE2 0x23 0xB3 0xEF 0xDC 0xBC SHR SDIV 0x24 0xF BALANCE SELFDESTRUCT GASPRICE 0xD0 PUSH8 0xEF1EE35CE4997762 PUSH22 0x2E3A095284754544F4C709D7A2646970667358221220 DUP3 SWAP5 SGT 0x2A 0xA6 0xCF 0xB2 BLOBHASH 0xB5 CALLDATALOAD 0xAC ADD 0xC8 DUP8 0xAD AND LOG4 PUSH23 0x28ECD61BE13DAB9874949DFEECEC64736F6C634300081C STOP CALLER LOG2 PUSH5 0x6970667358 0x22 SLT KECCAK256 SWAP11 SHR PUSH28 0x648A6A9B2339A46809714CEE59C044A0CACBA608F4CE587D181364C3 0x1E PUSH5 0x736F6C6343 STOP ADDMOD SHR STOP CALLER "
		},
		"gasEstimates": {
			"creation": {
				"codeDepositCost": "3951200",
				"executionCost": "4502",
				"totalCost": "3955702"
			},
			"external": {
				"makeLiquidityPool(address,(uint128,uint128,uint128,uint128))": "infinite",
				"makeLiquidityPool(address,(uint128,uint128,uint128,uint128),uint256)": "infinite",
				"makeVault(string,string)": "infinite"
			}
		},
		"methodIdentifiers": {
			"makeLiquidityPool(address,(uint128,uint128,uint128,uint128))": "f5e4fd04",
			"makeLiquidityPool(address,(uint128,uint128,uint128,uint128),uint256)": "aeb3c9da",
			"makeVault(string,string)": "54b7822d"
		}
	},
	"abi": [
		{
			"anonymous": false,
			"inputs": [
				{
					"indexed": true,
					"internalType": "contract ERC20",
					"name": "asset",
					"type": "address"
				},
				{
					"indexed": false,
					"internalType": "contract AquitardLP",
					"name": "liquidityPool",
					"type": "address"
				},
				{
					"components": [
						{
							"internalType": "uint128",
							"name": "erc20BuyableRate",
							"type": "uint128"
						},
						{
							"internalType": "uint128",
							"name": "erc20SellInhibitor",
							"type": "uint128"
						},
						{
							"internalType": "uint128",
							"name": "nativeBuyableRate",
							"type": "uint128"
						},
						{
							"internalType": "uint128",
							"name": "nativeSellInhibitor",
							"type": "uint128"
						}
					],
					"indexed": false,
					"internalType": "struct ExchangeConfig",
					"name": "ec",
					"type": "tuple"
				}
			],
			"name": "NewLiquidityPool",
			"type": "event"
		},
		{
			"anonymous": false,
			"inputs": [
				{
					"indexed": true,
					"internalType": "address",
					"name": "creator",
					"type": "address"
				},
				{
					"indexed": false,
					"internalType": "contract PinusVault",
					"name": "newVault",
					"type": "address"
				}
			],
			"name": "NewVault",
			"type": "event"
		},
		{
			"inputs": [
				{
					"internalType": "contract ERC20",
					"name": "asset",
					"type": "address"
				},
				{
					"components": [
						{
							"internalType": "uint128",
							"name": "erc20BuyableRate",
							"type": "uint128"
						},
						{
							"internalType": "uint128",
							"name": "erc20SellInhibitor",
							"type": "uint128"
						},
						{
							"internalType": "uint128",
							"name": "nativeBuyableRate",
							"type": "uint128"
						},
						{
							"internalType": "uint128",
							"name": "nativeSellInhibitor",
							"type": "uint128"
						}
					],
					"internalType": "struct ExchangeConfig",
					"name": "ec",
					"type": "tuple"
				},
				{
					"internalType": "uint256",
					"name": "assets",
					"type": "uint256"
				}
			],
			"name": "makeLiquidityPool",
			"outputs": [
				{
					"internalType": "contract AquitardLP",
					"name": "newLP",
					"type": "address"
				}
			],
			"stateMutability": "payable",
			"type": "function"
		},
		{
			"inputs": [
				{
					"internalType": "contract ERC20",
					"name": "asset",
					"type": "address"
				},
				{
					"components": [
						{
							"internalType": "uint128",
							"name": "erc20BuyableRate",
							"type": "uint128"
						},
						{
							"internalType": "uint128",
							"name": "erc20SellInhibitor",
							"type": "uint128"
						},
						{
							"internalType": "uint128",
							"name": "nativeBuyableRate",
							"type": "uint128"
						},
						{
							"internalType": "uint128",
							"name": "nativeSellInhibitor",
							"type": "uint128"
						}
					],
					"internalType": "struct ExchangeConfig",
					"name": "ec",
					"type": "tuple"
				}
			],
			"name": "makeLiquidityPool",
			"outputs": [
				{
					"internalType": "contract AquitardLP",
					"name": "newLP",
					"type": "address"
				}
			],
			"stateMutability": "payable",
			"type": "function"
		},
		{
			"inputs": [
				{
					"internalType": "string",
					"name": "name",
					"type": "string"
				},
				{
					"internalType": "string",
					"name": "symbol",
					"type": "string"
				}
			],
			"name": "makeVault",
			"outputs": [
				{
					"internalType": "contract PinusVault",
					"name": "newVault",
					"type": "address"
				}
			],
			"stateMutability": "nonpayable",
			"type": "function"
		}
	]
}