{
	"data": {
		"bytecode": {
			"linkReferences": {},
			"object": "60e0604052425f55348015610012575f5ffd5b50604051612a72380380612a7283398181016040528101906100349190610182565b8282828273ffffffffffffffffffffffffffffffffffffffff1660808173ffffffffffffffffffffffffffffffffffffffff1681525050816fffffffffffffffffffffffffffffffff1660a0816fffffffffffffffffffffffffffffffff1681525050806fffffffffffffffffffffffffffffffff1660c0816fffffffffffffffffffffffffffffffff16815250505050505050506101d2565b5f5ffd5b5f73ffffffffffffffffffffffffffffffffffffffff82169050919050565b5f6100fb826100d2565b9050919050565b5f61010c826100f1565b9050919050565b61011c81610102565b8114610126575f5ffd5b50565b5f8151905061013781610113565b92915050565b5f6fffffffffffffffffffffffffffffffff82169050919050565b6101618161013d565b811461016b575f5ffd5b50565b5f8151905061017c81610158565b92915050565b5f5f5f60608486031215610199576101986100ce565b5b5f6101a686828701610129565b93505060206101b78682870161016e565b92505060406101c88682870161016e565b9150509250925092565b60805160a05160c05161280661026c5f395f8181610bc801526117c201525f8181610b2001528181610c110152610f0001525f818161076d0152818161082b01528181610bec01528181610c7e01528181610d4401528181610f540152818161102e0152818161113b015281816113020152818161149c01528181611814015281816118b3015281816119880152611a4001526128065ff3fe6080604052600436106101c1575f3560e01c80637c0938aa116100f6578063c20604b511610094578063dd62ed3e11610063578063dd62ed3e14610685578063e5d1c6af146106c1578063ef8b30f7146106fd578063f340fa0114610739576101c1565b8063c20604b5146105d9578063c6e6f59214610603578063d0e30db01461063f578063d505accf1461065d576101c1565b806395d89b41116100d057806395d89b4114610519578063a9059cbb14610543578063ac8bafd41461057f578063ba0876521461059d576101c1565b80637c0938aa146104715780637ecebe00146104a15780638a48b2a5146104dd576101c1565b80633644e5151161016357806348a0d7541161013d57806348a0d7541461039f5780634cdad506146103c95780636e553f651461040557806370a0823114610435576101c1565b80633644e51514610321578063366d60e71461034b57806338d52e0f14610375576101c1565b806318160ddd1161019f57806318160ddd1461026757806323b872dd146102915780632c7c791a146102cd578063313ce567146102f7576101c1565b806306fdde03146101c557806307a2d13a146101ef578063095ea7b31461022b575b5f5ffd5b3480156101d0575f5ffd5b506101d9610769565b6040516101e69190611daa565b60405180910390f35b3480156101fa575f5ffd5b5061021560048036038101906102109190611e0e565b61081f565b6040516102229190611e48565b60405180910390f35b348015610236575f5ffd5b50610251600480360381019061024c9190611ebb565b6108dc565b60405161025e9190611f13565b60405180910390f35b348015610272575f5ffd5b5061027b610967565b6040516102889190611e48565b60405180910390f35b34801561029c575f5ffd5b506102b760048036038101906102b29190611f2c565b610978565b6040516102c49190611f13565b60405180910390f35b3480156102d8575f5ffd5b506102e1610b1e565b6040516102ee9190611fa6565b60405180910390f35b348015610302575f5ffd5b5061030b610b42565b6040516103189190611fda565b60405180910390f35b34801561032c575f5ffd5b50610335610b4a565b604051610342919061200b565b60405180910390f35b348015610356575f5ffd5b5061035f610bc6565b60405161036c9190611fa6565b60405180910390f35b348015610380575f5ffd5b50610389610bea565b604051610396919061207f565b60405180910390f35b3480156103aa575f5ffd5b506103b3610c0e565b6040516103c09190611e48565b60405180910390f35b3480156103d4575f5ffd5b506103ef60048036038101906103ea9190611e0e565b610c5e565b6040516103fc9190611e48565b60405180910390f35b61041f600480360381019061041a9190612098565b610c6f565b60405161042c9190611e48565b60405180910390f35b348015610440575f5ffd5b5061045b600480360381019061045691906120d6565b610ed9565b6040516104689190611e48565b60405180910390f35b61048b600480360381019061048691906120d6565b610ef2565b6040516104989190611e48565b60405180910390f35b3480156104ac575f5ffd5b506104c760048036038101906104c291906120d6565b610ff3565b6040516104d49190611e48565b60405180910390f35b3480156104e8575f5ffd5b5061050360048036038101906104fe9190612098565b61100c565b6040516105109190611e48565b60405180910390f35b348015610524575f5ffd5b5061052d611137565b60405161053a9190611daa565b60405180910390f35b34801561054e575f5ffd5b5061056960048036038101906105649190611ebb565b6111ed565b6040516105769190611f13565b60405180910390f35b61058761127b565b6040516105949190611e48565b60405180910390f35b3480156105a8575f5ffd5b506105c360048036038101906105be9190612101565b61128a565b6040516105d09190611e48565b60405180910390f35b3480156105e4575f5ffd5b506105ed611494565b6040516105fa9190611e48565b60405180910390f35b34801561060e575f5ffd5b5061062960048036038101906106249190611e0e565b611499565b6040516106369190611e48565b60405180910390f35b610647611556565b6040516106549190611e48565b60405180910390f35b348015610668575f5ffd5b50610683600480360381019061067e91906121a5565b611565565b005b348015610690575f5ffd5b506106ab60048036038101906106a69190612242565b611728565b6040516106b89190611e48565b60405180910390f35b3480156106cc575f5ffd5b506106e760048036038101906106e29190611e0e565b6117bf565b6040516106f49190611e48565b60405180910390f35b348015610708575f5ffd5b50610723600480360381019061071e9190611e0e565b611951565b6040516107309190611e48565b60405180910390f35b610753600480360381019061074e91906120d6565b611962565b6040516107609190611e48565b60405180910390f35b60607f000000000000000000000000000000000000000000000000000000000000000073ffffffffffffffffffffffffffffffffffffffff166306fdde036040518163ffffffff1660e01b81526004015f60405180830381865afa1580156107d3573d5f5f3e3d5ffd5b505050506040513d5f823e3d601f19601f820116820180604052508101906107fb919061239e565b60405160200161080b919061246b565b604051602081830303815290604052905090565b5f610828610967565b827f000000000000000000000000000000000000000000000000000000000000000073ffffffffffffffffffffffffffffffffffffffff166370a08231306040518263ffffffff1660e01b815260040161088291906124ae565b602060405180830381865afa15801561089d573d5f5f3e3d5ffd5b505050506040513d601f19601f820116820180604052508101906108c191906124db565b6108cb9190612533565b6108d591906125a1565b9050919050565b5f6108e5611b49565b15610918578119156e22d473030f116ddee9f6b43ac78ba38460601b60601c181761091757633f68539a5f526004601cfd5b5b82602052637f5e9f20600c52335f52816034600c2055815f52602c5160601c337f8c5be1e5ebec7d5bd14f71427d1e84f3dd0314c0f7b2291e5b200ac8c7c3b92560205fa36001905092915050565b5f6805345cdf77eb68f44c54905090565b5f610984848484611b50565b61098c611b49565b15610a5a578360601b6e22d473030f116ddee9f6b43ac78ba333146109e55733602052637f5e9f208117600c526034600c2080548019156109e257808511156109dc576313be252b5f526004601cfd5b84810382555b50505b6387a211a28117600c526020600c20805480851115610a0b5763f4d678b85f526004601cfd5b8481038255855f526020600c2085815401815585602052600c5160601c8460601c7fddf252ad1be2c89b69c2b068fc378daa952ba7f163c4a11628f55a4df523b3ef602080a350505050610b08565b8360601b33602052637f5e9f208117600c526034600c208054801915610a955780851115610a8f576313be252b5f526004601cfd5b84810382555b6387a211a28317600c526020600c20805480871115610abb5763f4d678b85f526004601cfd5b8681038255875f526020600c2087815401815587602052600c5160601c8660601c7fddf252ad1be2c89b69c2b068fc378daa952ba7f163c4a11628f55a4df523b3ef602080a35050505050505b610b13848484611b55565b600190509392505050565b7f000000000000000000000000000000000000000000000000000000000000000081565b5f6012905090565b5f5f610b54611b5a565b90505f5f1b8103610b7157610b67610769565b8051906020012090505b5f610b7a611b5e565b90506040517f8b73c3c69bb8fe3d512ecc4cf759cc79239f7b179b0ffacaa9a75d522b39400f815282602082015281604082015246606082015230608082015260a08120935050505090565b7f000000000000000000000000000000000000000000000000000000000000000081565b7f000000000000000000000000000000000000000000000000000000000000000081565b5f7f00000000000000000000000000000000000000000000000000000000000000006fffffffffffffffffffffffffffffffff165f5442610c4f91906125d1565b610c599190612533565b905090565b5f610c688261081f565b9050919050565b5f610c7983611951565b90505f7f000000000000000000000000000000000000000000000000000000000000000073ffffffffffffffffffffffffffffffffffffffff166370a08231306040518263ffffffff1660e01b8152600401610cd591906124ae565b602060405180830381865afa158015610cf0573d5f5f3e3d5ffd5b505050506040513d601f19601f82011682018060405250810190610d1491906124db565b8447610d209190612533565b610d2a91906125a1565b905080341015610d38575f5ffd5b610d428383611b87565b7f000000000000000000000000000000000000000000000000000000000000000073ffffffffffffffffffffffffffffffffffffffff166323b872dd3330876040518463ffffffff1660e01b8152600401610d9f93929190612604565b6020604051808303815f875af1158015610dbb573d5f5f3e3d5ffd5b505050506040513d601f19601f82011682018060405250810190610ddf9190612663565b505f8134610ded91906125d1565b90505f811115610e6a575f8473ffffffffffffffffffffffffffffffffffffffff1682604051610e1c906126bb565b5f6040518083038185875af1925050503d805f8114610e56576040519150601f19603f3d011682016040523d82523d5f602084013e610e5b565b606091505b5050905080610e68575f5ffd5b505b8373ffffffffffffffffffffffffffffffffffffffff163373ffffffffffffffffffffffffffffffffffffffff167fdcbc1c05240f31ff3ad067ef1ee35ce4997762752e3a095284754544f4c709d78786604051610ec99291906126cf565b60405180910390a3505092915050565b5f6387a211a2600c52815f526020600c20549050919050565b5f610efc346117bf565b90507f00000000000000000000000000000000000000000000000000000000000000006fffffffffffffffffffffffffffffffff1681610f3c91906125a1565b5f5f828254610f4b91906126f6565b925050819055507f000000000000000000000000000000000000000000000000000000000000000073ffffffffffffffffffffffffffffffffffffffff1663a9059cbb83836040518363ffffffff1660e01b8152600401610fad929190612729565b6020604051808303815f875af1158015610fc9573d5f5f3e3d5ffd5b505050506040513d601f19601f82011682018060405250810190610fed9190612663565b50919050565b5f6338377508600c52815f526020600c20549050919050565b5f8290505f611019610967565b14611022575f5ffd5b61102c8282611b87565b7f000000000000000000000000000000000000000000000000000000000000000073ffffffffffffffffffffffffffffffffffffffff166323b872dd3330866040518463ffffffff1660e01b815260040161108993929190612604565b6020604051808303815f875af11580156110a5573d5f5f3e3d5ffd5b505050506040513d601f19601f820116820180604052508101906110c99190612663565b508173ffffffffffffffffffffffffffffffffffffffff163373ffffffffffffffffffffffffffffffffffffffff167fdcbc1c05240f31ff3ad067ef1ee35ce4997762752e3a095284754544f4c709d785846040516111299291906126cf565b60405180910390a392915050565b60607f000000000000000000000000000000000000000000000000000000000000000073ffffffffffffffffffffffffffffffffffffffff166395d89b416040518163ffffffff1660e01b81526004015f60405180830381865afa1580156111a1573d5f5f3e3d5ffd5b505050506040513d5f823e3d601f19601f820116820180604052508101906111c9919061239e565b6040516020016111d9919061279c565b604051602081830303815290604052905090565b5f6111f9338484611b50565b6387a211a2600c52335f526020600c208054808411156112205763f4d678b85f526004601cfd5b8381038255845f526020600c2084815401815584602052600c5160601c337fddf252ad1be2c89b69c2b068fc378daa952ba7f163c4a11628f55a4df523b3ef602080a3505050611271338484611b55565b6001905092915050565b5f61128533610ef2565b905090565b5f61129484610c5e565b90508173ffffffffffffffffffffffffffffffffffffffff163373ffffffffffffffffffffffffffffffffffffffff16146112d5576112d4823386611c19565b5b5f6112de610967565b85476112ea9190612533565b6112f491906125a1565b90506113008386611caa565b7f000000000000000000000000000000000000000000000000000000000000000073ffffffffffffffffffffffffffffffffffffffff1663a9059cbb85846040518363ffffffff1660e01b815260040161135b929190612729565b6020604051808303815f875af1158015611377573d5f5f3e3d5ffd5b505050506040513d601f19601f8201168201806040525081019061139b9190612663565b505f8473ffffffffffffffffffffffffffffffffffffffff16826040516113c1906126bb565b5f6040518083038185875af1925050503d805f81146113fb576040519150601f19603f3d011682016040523d82523d5f602084013e611400565b606091505b505090508061140d575f5ffd5b8373ffffffffffffffffffffffffffffffffffffffff168573ffffffffffffffffffffffffffffffffffffffff163373ffffffffffffffffffffffffffffffffffffffff167ffbde797d201c681b91056529119e0b02407c7bb96a4a2c75c01fc9667232c8db868a6040516114839291906126cf565b60405180910390a450509392505050565b5f5481565b5f7f000000000000000000000000000000000000000000000000000000000000000073ffffffffffffffffffffffffffffffffffffffff166370a08231306040518263ffffffff1660e01b81526004016114f391906124ae565b602060405180830381865afa15801561150e573d5f5f3e3d5ffd5b505050506040513d601f19601f8201168201806040525081019061153291906124db565b8261153b610967565b6115459190612533565b61154f91906125a1565b9050919050565b5f61156033611962565b905090565b61156d611b49565b156115a0578419156e22d473030f116ddee9f6b43ac78ba38760601b60601c181761159f57633f68539a5f526004601cfd5b5b5f6115a9611b5a565b90505f5f1b81036115c6576115bc610769565b8051906020012090505b5f6115cf611b5e565b9050854211156115e657631a15a3cc5f526004601cfd5b6040518960601b60601c99508860601b60601c985065383775081901600e52895f526020600c2080547f8b73c3c69bb8fe3d512ecc4cf759cc79239f7b179b0ffacaa9a75d522b39400f835284602084015283604084015246606084015230608084015260a08320602e527f6e71edae12b1b97f4d1f60370fef10105fa2faae0126114a169c64845d6126c983528b60208401528a60408401528960608401528060808401528860a084015260c08320604e526042602c205f528760ff16602052866040528560605260208060805f60015afa8c3d51146116ce5763ddafbaef5f526004601cfd5b80820183558b637f5e9f2060a01b176040528a6034602c20558b8d7f8c5be1e5ebec7d5bd14f71427d1e84f3dd0314c0f7b2291e5b200ac8c7c3b925602060608801a3836040525f60605250505050505050505050505050565b5f611731611b49565b156117a1576e22d473030f116ddee9f6b43ac78ba373ffffffffffffffffffffffffffffffffffffffff168273ffffffffffffffffffffffffffffffffffffffff16036117a0577fffffffffffffffffffffffffffffffffffffffffffffffffffffffffffffffff90506117b9565b5b81602052637f5e9f20600c52825f526034600c205490505b92915050565b5f7f00000000000000000000000000000000000000000000000000000000000000006fffffffffffffffffffffffffffffffff16826117fc610c0e565b6118069190612533565b61181091906125a1565b90507f000000000000000000000000000000000000000000000000000000000000000073ffffffffffffffffffffffffffffffffffffffff166370a08231306040518263ffffffff1660e01b815260040161186b91906124ae565b602060405180830381865afa158015611886573d5f5f3e3d5ffd5b505050506040513d601f19601f820116820180604052508101906118aa91906124db565b81111561194c577f000000000000000000000000000000000000000000000000000000000000000073ffffffffffffffffffffffffffffffffffffffff166370a08231306040518263ffffffff1660e01b815260040161190a91906124ae565b602060405180830381865afa158015611925573d5f5f3e3d5ffd5b505050506040513d601f19601f8201168201806040525081019061194991906124db565b90505b919050565b5f61195b82611499565b9050919050565b5f473461196d610967565b6119779190612533565b61198191906125a1565b90505f47347f000000000000000000000000000000000000000000000000000000000000000073ffffffffffffffffffffffffffffffffffffffff166370a08231306040518263ffffffff1660e01b81526004016119df91906124ae565b602060405180830381865afa1580156119fa573d5f5f3e3d5ffd5b505050506040513d601f19601f82011682018060405250810190611a1e91906124db565b611a289190612533565b611a3291906125a1565b9050611a3e8383611b87565b7f000000000000000000000000000000000000000000000000000000000000000073ffffffffffffffffffffffffffffffffffffffff166323b872dd3330846040518463ffffffff1660e01b8152600401611a9b93929190612604565b6020604051808303815f875af1158015611ab7573d5f5f3e3d5ffd5b505050506040513d601f19601f82011682018060405250810190611adb9190612663565b508273ffffffffffffffffffffffffffffffffffffffff163373ffffffffffffffffffffffffffffffffffffffff167fdcbc1c05240f31ff3ad067ef1ee35ce4997762752e3a095284754544f4c709d78385604051611b3b9291906126cf565b60405180910390a350919050565b5f5f905090565b505050565b505050565b5f90565b5f7fc89efdaa54c0f20c7adf612882df0950f5a951637e0307cdcb4c672f298b8bc65f1b905090565b611b925f8383611b50565b6805345cdf77eb68f44c5481810181811015611bb55763e5cfe9575f526004601cfd5b806805345cdf77eb68f44c556387a211a2600c52835f526020600c2083815401815583602052600c5160601c5f7fddf252ad1be2c89b69c2b068fc378daa952ba7f163c4a11628f55a4df523b3ef602080a3505050611c155f8383611b55565b5050565b611c21611b49565b15611c6a576e22d473030f116ddee9f6b43ac78ba373ffffffffffffffffffffffffffffffffffffffff168273ffffffffffffffffffffffffffffffffffffffff160315611ca5575b81602052637f5e9f20600c52825f526034600c208054801915611ca25780831115611c9c576313be252b5f526004601cfd5b82810382555b50505b505050565b611cb5825f83611b50565b6387a211a2600c52815f526020600c20805480831115611cdc5763f4d678b85f526004601cfd5b8281038255826805345cdf77eb68f44c54036805345cdf77eb68f44c55825f525f8460601b60601c7fddf252ad1be2c89b69c2b068fc378daa952ba7f163c4a11628f55a4df523b3ef60205fa35050611d36825f83611b55565b5050565b5f81519050919050565b5f82825260208201905092915050565b8281835e5f83830152505050565b5f601f19601f8301169050919050565b5f611d7c82611d3a565b611d868185611d44565b9350611d96818560208601611d54565b611d9f81611d62565b840191505092915050565b5f6020820190508181035f830152611dc28184611d72565b905092915050565b5f604051905090565b5f5ffd5b5f5ffd5b5f819050919050565b611ded81611ddb565b8114611df7575f5ffd5b50565b5f81359050611e0881611de4565b92915050565b5f60208284031215611e2357611e22611dd3565b5b5f611e3084828501611dfa565b91505092915050565b611e4281611ddb565b82525050565b5f602082019050611e5b5f830184611e39565b92915050565b5f73ffffffffffffffffffffffffffffffffffffffff82169050919050565b5f611e8a82611e61565b9050919050565b611e9a81611e80565b8114611ea4575f5ffd5b50565b5f81359050611eb581611e91565b92915050565b5f5f60408385031215611ed157611ed0611dd3565b5b5f611ede85828601611ea7565b9250506020611eef85828601611dfa565b9150509250929050565b5f8115159050919050565b611f0d81611ef9565b82525050565b5f602082019050611f265f830184611f04565b92915050565b5f5f5f60608486031215611f4357611f42611dd3565b5b5f611f5086828701611ea7565b9350506020611f6186828701611ea7565b9250506040611f7286828701611dfa565b9150509250925092565b5f6fffffffffffffffffffffffffffffffff82169050919050565b611fa081611f7c565b82525050565b5f602082019050611fb95f830184611f97565b92915050565b5f60ff82169050919050565b611fd481611fbf565b82525050565b5f602082019050611fed5f830184611fcb565b92915050565b5f819050919050565b61200581611ff3565b82525050565b5f60208201905061201e5f830184611ffc565b92915050565b5f819050919050565b5f61204761204261203d84611e61565b612024565b611e61565b9050919050565b5f6120588261202d565b9050919050565b5f6120698261204e565b9050919050565b6120798161205f565b82525050565b5f6020820190506120925f830184612070565b92915050565b5f5f604083850312156120ae576120ad611dd3565b5b5f6120bb85828601611dfa565b92505060206120cc85828601611ea7565b9150509250929050565b5f602082840312156120eb576120ea611dd3565b5b5f6120f884828501611ea7565b91505092915050565b5f5f5f6060848603121561211857612117611dd3565b5b5f61212586828701611dfa565b935050602061213686828701611ea7565b925050604061214786828701611ea7565b9150509250925092565b61215a81611fbf565b8114612164575f5ffd5b50565b5f8135905061217581612151565b92915050565b61218481611ff3565b811461218e575f5ffd5b50565b5f8135905061219f8161217b565b92915050565b5f5f5f5f5f5f5f60e0888a0312156121c0576121bf611dd3565b5b5f6121cd8a828b01611ea7565b97505060206121de8a828b01611ea7565b96505060406121ef8a828b01611dfa565b95505060606122008a828b01611dfa565b94505060806122118a828b01612167565b93505060a06122228a828b01612191565b92505060c06122338a828b01612191565b91505092959891949750929550565b5f5f6040838503121561225857612257611dd3565b5b5f61226585828601611ea7565b925050602061227685828601611ea7565b9150509250929050565b5f5ffd5b5f5ffd5b7f4e487b71000000000000000000000000000000000000000000000000000000005f52604160045260245ffd5b6122be82611d62565b810181811067ffffffffffffffff821117156122dd576122dc612288565b5b80604052505050565b5f6122ef611dca565b90506122fb82826122b5565b919050565b5f67ffffffffffffffff82111561231a57612319612288565b5b61232382611d62565b9050602081019050919050565b5f61234261233d84612300565b6122e6565b90508281526020810184848401111561235e5761235d612284565b5b612369848285611d54565b509392505050565b5f82601f83011261238557612384612280565b5b8151612395848260208601612330565b91505092915050565b5f602082840312156123b3576123b2611dd3565b5b5f82015167ffffffffffffffff8111156123d0576123cf611dd7565b5b6123dc84828501612371565b91505092915050565b7f4e617469766520546f6b656e20746f2000000000000000000000000000000000815250565b5f81905092915050565b5f61241f82611d3a565b612429818561240b565b9350612439818560208601611d54565b80840191505092915050565b7f204c697175696469747920506f6f6c0000000000000000000000000000000000815250565b5f612475826123e5565b6010820191506124858284612415565b915061249082612445565b600f8201915081905092915050565b6124a881611e80565b82525050565b5f6020820190506124c15f83018461249f565b92915050565b5f815190506124d581611de4565b92915050565b5f602082840312156124f0576124ef611dd3565b5b5f6124fd848285016124c7565b91505092915050565b7f4e487b71000000000000000000000000000000000000000000000000000000005f52601160045260245ffd5b5f61253d82611ddb565b915061254883611ddb565b925082820261255681611ddb565b9150828204841483151761256d5761256c612506565b5b5092915050565b7f4e487b71000000000000000000000000000000000000000000000000000000005f52601260045260245ffd5b5f6125ab82611ddb565b91506125b683611ddb565b9250826125c6576125c5612574565b5b828204905092915050565b5f6125db82611ddb565b91506125e683611ddb565b92508282039050818111156125fe576125fd612506565b5b92915050565b5f6060820190506126175f83018661249f565b612624602083018561249f565b6126316040830184611e39565b949350505050565b61264281611ef9565b811461264c575f5ffd5b50565b5f8151905061265d81612639565b92915050565b5f6020828403121561267857612677611dd3565b5b5f6126858482850161264f565b91505092915050565b5f81905092915050565b50565b5f6126a65f8361268e565b91506126b182612698565b5f82019050919050565b5f6126c58261269b565b9150819050919050565b5f6040820190506126e25f830185611e39565b6126ef6020830184611e39565b9392505050565b5f61270082611ddb565b915061270b83611ddb565b925082820190508082111561272357612722612506565b5b92915050565b5f60408201905061273c5f83018561249f565b6127496020830184611e39565b9392505050565b7f4e00000000000000000000000000000000000000000000000000000000000000815250565b7f4c50000000000000000000000000000000000000000000000000000000000000815250565b5f6127a682612750565b6001820191506127b68284612415565b91506127c182612776565b6002820191508190509291505056fea26469706673582212201d0570ff1bf7e8c06ab4a6c7ab61b53a007787710d36b516bcb2faa200e260b264736f6c634300081c0033",
			"opcodes": "PUSH1 0xE0 PUSH1 0x40 MSTORE TIMESTAMP PUSH0 SSTORE CALLVALUE DUP1 ISZERO PUSH2 0x12 JUMPI PUSH0 PUSH0 REVERT JUMPDEST POP PUSH1 0x40 MLOAD PUSH2 0x2A72 CODESIZE SUB DUP1 PUSH2 0x2A72 DUP4 CODECOPY DUP2 DUP2 ADD PUSH1 0x40 MSTORE DUP2 ADD SWAP1 PUSH2 0x34 SWAP2 SWAP1 PUSH2 0x182 JUMP JUMPDEST DUP3 DUP3 DUP3 DUP3 PUSH20 0xFFFFFFFFFFFFFFFFFFFFFFFFFFFFFFFFFFFFFFFF AND PUSH1 0x80 DUP2 PUSH20 0xFFFFFFFFFFFFFFFFFFFFFFFFFFFFFFFFFFFFFFFF AND DUP2 MSTORE POP POP DUP2 PUSH16 0xFFFFFFFFFFFFFFFFFFFFFFFFFFFFFFFF AND PUSH1 0xA0 DUP2 PUSH16 0xFFFFFFFFFFFFFFFFFFFFFFFFFFFFFFFF AND DUP2 MSTORE POP POP DUP1 PUSH16 0xFFFFFFFFFFFFFFFFFFFFFFFFFFFFFFFF AND PUSH1 0xC0 DUP2 PUSH16 0xFFFFFFFFFFFFFFFFFFFFFFFFFFFFFFFF AND DUP2 MSTORE POP POP POP POP POP POP POP POP PUSH2 0x1D2 JUMP JUMPDEST PUSH0 PUSH0 REVERT JUMPDEST PUSH0 PUSH20 0xFFFFFFFFFFFFFFFFFFFFFFFFFFFFFFFFFFFFFFFF DUP3 AND SWAP1 POP SWAP2 SWAP1 POP JUMP JUMPDEST PUSH0 PUSH2 0xFB DUP3 PUSH2 0xD2 JUMP JUMPDEST SWAP1 POP SWAP2 SWAP1 POP JUMP JUMPDEST PUSH0 PUSH2 0x10C DUP3 PUSH2 0xF1 JUMP JUMPDEST SWAP1 POP SWAP2 SWAP1 POP JUMP JUMPDEST PUSH2 0x11C DUP2 PUSH2 0x102 JUMP JUMPDEST DUP2 EQ PUSH2 0x126 JUMPI PUSH0 PUSH0 REVERT JUMPDEST POP JUMP JUMPDEST PUSH0 DUP2 MLOAD SWAP1 POP PUSH2 0x137 DUP2 PUSH2 0x113 JUMP JUMPDEST SWAP3 SWAP2 POP POP JUMP JUMPDEST PUSH0 PUSH16 0xFFFFFFFFFFFFFFFFFFFFFFFFFFFFFFFF DUP3 AND SWAP1 POP SWAP2 SWAP1 POP JUMP JUMPDEST PUSH2 0x161 DUP2 PUSH2 0x13D JUMP JUMPDEST DUP2 EQ PUSH2 0x16B JUMPI PUSH0 PUSH0 REVERT JUMPDEST POP JUMP JUMPDEST PUSH0 DUP2 MLOAD SWAP1 POP PUSH2 0x17C DUP2 PUSH2 0x158 JUMP JUMPDEST SWAP3 SWAP2 POP POP JUMP JUMPDEST PUSH0 PUSH0 PUSH0 PUSH1 0x60 DUP5 DUP7 SUB SLT ISZERO PUSH2 0x199 JUMPI PUSH2 0x198 PUSH2 0xCE JUMP JUMPDEST JUMPDEST PUSH0 PUSH2 0x1A6 DUP7 DUP3 DUP8 ADD PUSH2 0x129 JUMP JUMPDEST SWAP4 POP POP PUSH1 0x20 PUSH2 0x1B7 DUP7 DUP3 DUP8 ADD PUSH2 0x16E JUMP JUMPDEST SWAP3 POP POP PUSH1 0x40 PUSH2 0x1C8 DUP7 DUP3 DUP8 ADD PUSH2 0x16E JUMP JUMPDEST SWAP2 POP POP SWAP3 POP SWAP3 POP SWAP3 JUMP JUMPDEST PUSH1 0x80 MLOAD PUSH1 0xA0 MLOAD PUSH1 0xC0 MLOAD PUSH2 0x2806 PUSH2 0x26C PUSH0 CODECOPY PUSH0 DUP2 DUP2 PUSH2 0xBC8 ADD MSTORE PUSH2 0x17C2 ADD MSTORE PUSH0 DUP2 DUP2 PUSH2 0xB20 ADD MSTORE DUP2 DUP2 PUSH2 0xC11 ADD MSTORE PUSH2 0xF00 ADD MSTORE PUSH0 DUP2 DUP2 PUSH2 0x76D ADD MSTORE DUP2 DUP2 PUSH2 0x82B ADD MSTORE DUP2 DUP2 PUSH2 0xBEC ADD MSTORE DUP2 DUP2 PUSH2 0xC7E ADD MSTORE DUP2 DUP2 PUSH2 0xD44 ADD MSTORE DUP2 DUP2 PUSH2 0xF54 ADD MSTORE DUP2 DUP2 PUSH2 0x102E ADD MSTORE DUP2 DUP2 PUSH2 0x113B ADD MSTORE DUP2 DUP2 PUSH2 0x1302 ADD MSTORE DUP2 DUP2 PUSH2 0x149C ADD MSTORE DUP2 DUP2 PUSH2 0x1814 ADD MSTORE DUP2 DUP2 PUSH2 0x18B3 ADD MSTORE DUP2 DUP2 PUSH2 0x1988 ADD MSTORE PUSH2 0x1A40 ADD MSTORE PUSH2 0x2806 PUSH0 RETURN INVALID PUSH1 0x80 PUSH1 0x40 MSTORE PUSH1 0x4 CALLDATASIZE LT PUSH2 0x1C1 JUMPI PUSH0 CALLDATALOAD PUSH1 0xE0 SHR DUP1 PUSH4 0x7C0938AA GT PUSH2 0xF6 JUMPI DUP1 PUSH4 0xC20604B5 GT PUSH2 0x94 JUMPI DUP1 PUSH4 0xDD62ED3E GT PUSH2 0x63 JUMPI DUP1 PUSH4 0xDD62ED3E EQ PUSH2 0x685 JUMPI DUP1 PUSH4 0xE5D1C6AF EQ PUSH2 0x6C1 JUMPI DUP1 PUSH4 0xEF8B30F7 EQ PUSH2 0x6FD JUMPI DUP1 PUSH4 0xF340FA01 EQ PUSH2 0x739 JUMPI PUSH2 0x1C1 JUMP JUMPDEST DUP1 PUSH4 0xC20604B5 EQ PUSH2 0x5D9 JUMPI DUP1 PUSH4 0xC6E6F592 EQ PUSH2 0x603 JUMPI DUP1 PUSH4 0xD0E30DB0 EQ PUSH2 0x63F JUMPI DUP1 PUSH4 0xD505ACCF EQ PUSH2 0x65D JUMPI PUSH2 0x1C1 JUMP JUMPDEST DUP1 PUSH4 0x95D89B41 GT PUSH2 0xD0 JUMPI DUP1 PUSH4 0x95D89B41 EQ PUSH2 0x519 JUMPI DUP1 PUSH4 0xA9059CBB EQ PUSH2 0x543 JUMPI DUP1 PUSH4 0xAC8BAFD4 EQ PUSH2 0x57F JUMPI DUP1 PUSH4 0xBA087652 EQ PUSH2 0x59D JUMPI PUSH2 0x1C1 JUMP JUMPDEST DUP1 PUSH4 0x7C0938AA EQ PUSH2 0x471 JUMPI DUP1 PUSH4 0x7ECEBE00 EQ PUSH2 0x4A1 JUMPI DUP1 PUSH4 0x8A48B2A5 EQ PUSH2 0x4DD JUMPI PUSH2 0x1C1 JUMP JUMPDEST DUP1 PUSH4 0x3644E515 GT PUSH2 0x163 JUMPI DUP1 PUSH4 0x48A0D754 GT PUSH2 0x13D JUMPI DUP1 PUSH4 0x48A0D754 EQ PUSH2 0x39F JUMPI DUP1 PUSH4 0x4CDAD506 EQ PUSH2 0x3C9 JUMPI DUP1 PUSH4 0x6E553F65 EQ PUSH2 0x405 JUMPI DUP1 PUSH4 0x70A08231 EQ PUSH2 0x435 JUMPI PUSH2 0x1C1 JUMP JUMPDEST DUP1 PUSH4 0x3644E515 EQ PUSH2 0x321 JUMPI DUP1 PUSH4 0x366D60E7 EQ PUSH2 0x34B JUMPI DUP1 PUSH4 0x38D52E0F EQ PUSH2 0x375 JUMPI PUSH2 0x1C1 JUMP JUMPDEST DUP1 PUSH4 0x18160DDD GT PUSH2 0x19F JUMPI DUP1 PUSH4 0x18160DDD EQ PUSH2 0x267 JUMPI DUP1 PUSH4 0x23B872DD EQ PUSH2 0x291 JUMPI DUP1 PUSH4 0x2C7C791A EQ PUSH2 0x2CD JUMPI DUP1 PUSH4 0x313CE567 EQ PUSH2 0x2F7 JUMPI PUSH2 0x1C1 JUMP JUMPDEST DUP1 PUSH4 0x6FDDE03 EQ PUSH2 0x1C5 JUMPI DUP1 PUSH4 0x7A2D13A EQ PUSH2 0x1EF JUMPI DUP1 PUSH4 0x95EA7B3 EQ PUSH2 0x22B JUMPI JUMPDEST PUSH0 PUSH0 REVERT JUMPDEST CALLVALUE DUP1 ISZERO PUSH2 0x1D0 JUMPI PUSH0 PUSH0 REVERT JUMPDEST POP PUSH2 0x1D9 PUSH2 0x769 JUMP JUMPDEST PUSH1 0x40 MLOAD PUSH2 0x1E6 SWAP2 SWAP1 PUSH2 0x1DAA JUMP JUMPDEST PUSH1 0x40 MLOAD DUP1 SWAP2 SUB SWAP1 RETURN JUMPDEST CALLVALUE DUP1 ISZERO PUSH2 0x1FA JUMPI PUSH0 PUSH0 REVERT JUMPDEST POP PUSH2 0x215 PUSH1 0x4 DUP1 CALLDATASIZE SUB DUP2 ADD SWAP1 PUSH2 0x210 SWAP2 SWAP1 PUSH2 0x1E0E JUMP JUMPDEST PUSH2 0x81F JUMP JUMPDEST PUSH1 0x40 MLOAD PUSH2 0x222 SWAP2 SWAP1 PUSH2 0x1E48 JUMP JUMPDEST PUSH1 0x40 MLOAD DUP1 SWAP2 SUB SWAP1 RETURN JUMPDEST CALLVALUE DUP1 ISZERO PUSH2 0x236 JUMPI PUSH0 PUSH0 REVERT JUMPDEST POP PUSH2 0x251 PUSH1 0x4 DUP1 CALLDATASIZE SUB DUP2 ADD SWAP1 PUSH2 0x24C SWAP2 SWAP1 PUSH2 0x1EBB JUMP JUMPDEST PUSH2 0x8DC JUMP JUMPDEST PUSH1 0x40 MLOAD PUSH2 0x25E SWAP2 SWAP1 PUSH2 0x1F13 JUMP JUMPDEST PUSH1 0x40 MLOAD DUP1 SWAP2 SUB SWAP1 RETURN JUMPDEST CALLVALUE DUP1 ISZERO PUSH2 0x272 JUMPI PUSH0 PUSH0 REVERT JUMPDEST POP PUSH2 0x27B PUSH2 0x967 JUMP JUMPDEST PUSH1 0x40 MLOAD PUSH2 0x288 SWAP2 SWAP1 PUSH2 0x1E48 JUMP JUMPDEST PUSH1 0x40 MLOAD DUP1 SWAP2 SUB SWAP1 RETURN JUMPDEST CALLVALUE DUP1 ISZERO PUSH2 0x29C JUMPI PUSH0 PUSH0 REVERT JUMPDEST POP PUSH2 0x2B7 PUSH1 0x4 DUP1 CALLDATASIZE SUB DUP2 ADD SWAP1 PUSH2 0x2B2 SWAP2 SWAP1 PUSH2 0x1F2C JUMP JUMPDEST PUSH2 0x978 JUMP JUMPDEST PUSH1 0x40 MLOAD PUSH2 0x2C4 SWAP2 SWAP1 PUSH2 0x1F13 JUMP JUMPDEST PUSH1 0x40 MLOAD DUP1 SWAP2 SUB SWAP1 RETURN JUMPDEST CALLVALUE DUP1 ISZERO PUSH2 0x2D8 JUMPI PUSH0 PUSH0 REVERT JUMPDEST POP PUSH2 0x2E1 PUSH2 0xB1E JUMP JUMPDEST PUSH1 0x40 MLOAD PUSH2 0x2EE SWAP2 SWAP1 PUSH2 0x1FA6 JUMP JUMPDEST PUSH1 0x40 MLOAD DUP1 SWAP2 SUB SWAP1 RETURN JUMPDEST CALLVALUE DUP1 ISZERO PUSH2 0x302 JUMPI PUSH0 PUSH0 REVERT JUMPDEST POP PUSH2 0x30B PUSH2 0xB42 JUMP JUMPDEST PUSH1 0x40 MLOAD PUSH2 0x318 SWAP2 SWAP1 PUSH2 0x1FDA JUMP JUMPDEST PUSH1 0x40 MLOAD DUP1 SWAP2 SUB SWAP1 RETURN JUMPDEST CALLVALUE DUP1 ISZERO PUSH2 0x32C JUMPI PUSH0 PUSH0 REVERT JUMPDEST POP PUSH2 0x335 PUSH2 0xB4A JUMP JUMPDEST PUSH1 0x40 MLOAD PUSH2 0x342 SWAP2 SWAP1 PUSH2 0x200B JUMP JUMPDEST PUSH1 0x40 MLOAD DUP1 SWAP2 SUB SWAP1 RETURN JUMPDEST CALLVALUE DUP1 ISZERO PUSH2 0x356 JUMPI PUSH0 PUSH0 REVERT JUMPDEST POP PUSH2 0x35F PUSH2 0xBC6 JUMP JUMPDEST PUSH1 0x40 MLOAD PUSH2 0x36C SWAP2 SWAP1 PUSH2 0x1FA6 JUMP JUMPDEST PUSH1 0x40 MLOAD DUP1 SWAP2 SUB SWAP1 RETURN JUMPDEST CALLVALUE DUP1 ISZERO PUSH2 0x380 JUMPI PUSH0 PUSH0 REVERT JUMPDEST POP PUSH2 0x389 PUSH2 0xBEA JUMP JUMPDEST PUSH1 0x40 MLOAD PUSH2 0x396 SWAP2 SWAP1 PUSH2 0x207F JUMP JUMPDEST PUSH1 0x40 MLOAD DUP1 SWAP2 SUB SWAP1 RETURN JUMPDEST CALLVALUE DUP1 ISZERO PUSH2 0x3AA JUMPI PUSH0 PUSH0 REVERT JUMPDEST POP PUSH2 0x3B3 PUSH2 0xC0E JUMP JUMPDEST PUSH1 0x40 MLOAD PUSH2 0x3C0 SWAP2 SWAP1 PUSH2 0x1E48 JUMP JUMPDEST PUSH1 0x40 MLOAD DUP1 SWAP2 SUB SWAP1 RETURN JUMPDEST CALLVALUE DUP1 ISZERO PUSH2 0x3D4 JUMPI PUSH0 PUSH0 REVERT JUMPDEST POP PUSH2 0x3EF PUSH1 0x4 DUP1 CALLDATASIZE SUB DUP2 ADD SWAP1 PUSH2 0x3EA SWAP2 SWAP1 PUSH2 0x1E0E JUMP JUMPDEST PUSH2 0xC5E JUMP JUMPDEST PUSH1 0x40 MLOAD PUSH2 0x3FC SWAP2 SWAP1 PUSH2 0x1E48 JUMP JUMPDEST PUSH1 0x40 MLOAD DUP1 SWAP2 SUB SWAP1 RETURN JUMPDEST PUSH2 0x41F PUSH1 0x4 DUP1 CALLDATASIZE SUB DUP2 ADD SWAP1 PUSH2 0x41A SWAP2 SWAP1 PUSH2 0x2098 JUMP JUMPDEST PUSH2 0xC6F JUMP JUMPDEST PUSH1 0x40 MLOAD PUSH2 0x42C SWAP2 SWAP1 PUSH2 0x1E48 JUMP JUMPDEST PUSH1 0x40 MLOAD DUP1 SWAP2 SUB SWAP1 RETURN JUMPDEST CALLVALUE DUP1 ISZERO PUSH2 0x440 JUMPI PUSH0 PUSH0 REVERT JUMPDEST POP PUSH2 0x45B PUSH1 0x4 DUP1 CALLDATASIZE SUB DUP2 ADD SWAP1 PUSH2 0x456 SWAP2 SWAP1 PUSH2 0x20D6 JUMP JUMPDEST PUSH2 0xED9 JUMP JUMPDEST PUSH1 0x40 MLOAD PUSH2 0x468 SWAP2 SWAP1 PUSH2 0x1E48 JUMP JUMPDEST PUSH1 0x40 MLOAD DUP1 SWAP2 SUB SWAP1 RETURN JUMPDEST PUSH2 0x48B PUSH1 0x4 DUP1 CALLDATASIZE SUB DUP2 ADD SWAP1 PUSH2 0x486 SWAP2 SWAP1 PUSH2 0x20D6 JUMP JUMPDEST PUSH2 0xEF2 JUMP JUMPDEST PUSH1 0x40 MLOAD PUSH2 0x498 SWAP2 SWAP1 PUSH2 0x1E48 JUMP JUMPDEST PUSH1 0x40 MLOAD DUP1 SWAP2 SUB SWAP1 RETURN JUMPDEST CALLVALUE DUP1 ISZERO PUSH2 0x4AC JUMPI PUSH0 PUSH0 REVERT JUMPDEST POP PUSH2 0x4C7 PUSH1 0x4 DUP1 CALLDATASIZE SUB DUP2 ADD SWAP1 PUSH2 0x4C2 SWAP2 SWAP1 PUSH2 0x20D6 JUMP JUMPDEST PUSH2 0xFF3 JUMP JUMPDEST PUSH1 0x40 MLOAD PUSH2 0x4D4 SWAP2 SWAP1 PUSH2 0x1E48 JUMP JUMPDEST PUSH1 0x40 MLOAD DUP1 SWAP2 SUB SWAP1 RETURN JUMPDEST CALLVALUE DUP1 ISZERO PUSH2 0x4E8 JUMPI PUSH0 PUSH0 REVERT JUMPDEST POP PUSH2 0x503 PUSH1 0x4 DUP1 CALLDATASIZE SUB DUP2 ADD SWAP1 PUSH2 0x4FE SWAP2 SWAP1 PUSH2 0x2098 JUMP JUMPDEST PUSH2 0x100C JUMP JUMPDEST PUSH1 0x40 MLOAD PUSH2 0x510 SWAP2 SWAP1 PUSH2 0x1E48 JUMP JUMPDEST PUSH1 0x40 MLOAD DUP1 SWAP2 SUB SWAP1 RETURN JUMPDEST CALLVALUE DUP1 ISZERO PUSH2 0x524 JUMPI PUSH0 PUSH0 REVERT JUMPDEST POP PUSH2 0x52D PUSH2 0x1137 JUMP JUMPDEST PUSH1 0x40 MLOAD PUSH2 0x53A SWAP2 SWAP1 PUSH2 0x1DAA JUMP JUMPDEST PUSH1 0x40 MLOAD DUP1 SWAP2 SUB SWAP1 RETURN JUMPDEST CALLVALUE DUP1 ISZERO PUSH2 0x54E JUMPI PUSH0 PUSH0 REVERT JUMPDEST POP PUSH2 0x569 PUSH1 0x4 DUP1 CALLDATASIZE SUB DUP2 ADD SWAP1 PUSH2 0x564 SWAP2 SWAP1 PUSH2 0x1EBB JUMP JUMPDEST PUSH2 0x11ED JUMP JUMPDEST PUSH1 0x40 MLOAD PUSH2 0x576 SWAP2 SWAP1 PUSH2 0x1F13 JUMP JUMPDEST PUSH1 0x40 MLOAD DUP1 SWAP2 SUB SWAP1 RETURN JUMPDEST PUSH2 0x587 PUSH2 0x127B JUMP JUMPDEST PUSH1 0x40 MLOAD PUSH2 0x594 SWAP2 SWAP1 PUSH2 0x1E48 JUMP JUMPDEST PUSH1 0x40 MLOAD DUP1 SWAP2 SUB SWAP1 RETURN JUMPDEST CALLVALUE DUP1 ISZERO PUSH2 0x5A8 JUMPI PUSH0 PUSH0 REVERT JUMPDEST POP PUSH2 0x5C3 PUSH1 0x4 DUP1 CALLDATASIZE SUB DUP2 ADD SWAP1 PUSH2 0x5BE SWAP2 SWAP1 PUSH2 0x2101 JUMP JUMPDEST PUSH2 0x128A JUMP JUMPDEST PUSH1 0x40 MLOAD PUSH2 0x5D0 SWAP2 SWAP1 PUSH2 0x1E48 JUMP JUMPDEST PUSH1 0x40 MLOAD DUP1 SWAP2 SUB SWAP1 RETURN JUMPDEST CALLVALUE DUP1 ISZERO PUSH2 0x5E4 JUMPI PUSH0 PUSH0 REVERT JUMPDEST POP PUSH2 0x5ED PUSH2 0x1494 JUMP JUMPDEST PUSH1 0x40 MLOAD PUSH2 0x5FA SWAP2 SWAP1 PUSH2 0x1E48 JUMP JUMPDEST PUSH1 0x40 MLOAD DUP1 SWAP2 SUB SWAP1 RETURN JUMPDEST CALLVALUE DUP1 ISZERO PUSH2 0x60E JUMPI PUSH0 PUSH0 REVERT JUMPDEST POP PUSH2 0x629 PUSH1 0x4 DUP1 CALLDATASIZE SUB DUP2 ADD SWAP1 PUSH2 0x624 SWAP2 SWAP1 PUSH2 0x1E0E JUMP JUMPDEST PUSH2 0x1499 JUMP JUMPDEST PUSH1 0x40 MLOAD PUSH2 0x636 SWAP2 SWAP1 PUSH2 0x1E48 JUMP JUMPDEST PUSH1 0x40 MLOAD DUP1 SWAP2 SUB SWAP1 RETURN JUMPDEST PUSH2 0x647 PUSH2 0x1556 JUMP JUMPDEST PUSH1 0x40 MLOAD PUSH2 0x654 SWAP2 SWAP1 PUSH2 0x1E48 JUMP JUMPDEST PUSH1 0x40 MLOAD DUP1 SWAP2 SUB SWAP1 RETURN JUMPDEST CALLVALUE DUP1 ISZERO PUSH2 0x668 JUMPI PUSH0 PUSH0 REVERT JUMPDEST POP PUSH2 0x683 PUSH1 0x4 DUP1 CALLDATASIZE SUB DUP2 ADD SWAP1 PUSH2 0x67E SWAP2 SWAP1 PUSH2 0x21A5 JUMP JUMPDEST PUSH2 0x1565 JUMP JUMPDEST STOP JUMPDEST CALLVALUE DUP1 ISZERO PUSH2 0x690 JUMPI PUSH0 PUSH0 REVERT JUMPDEST POP PUSH2 0x6AB PUSH1 0x4 DUP1 CALLDATASIZE SUB DUP2 ADD SWAP1 PUSH2 0x6A6 SWAP2 SWAP1 PUSH2 0x2242 JUMP JUMPDEST PUSH2 0x1728 JUMP JUMPDEST PUSH1 0x40 MLOAD PUSH2 0x6B8 SWAP2 SWAP1 PUSH2 0x1E48 JUMP JUMPDEST PUSH1 0x40 MLOAD DUP1 SWAP2 SUB SWAP1 RETURN JUMPDEST CALLVALUE DUP1 ISZERO PUSH2 0x6CC JUMPI PUSH0 PUSH0 REVERT JUMPDEST POP PUSH2 0x6E7 PUSH1 0x4 DUP1 CALLDATASIZE SUB DUP2 ADD SWAP1 PUSH2 0x6E2 SWAP2 SWAP1 PUSH2 0x1E0E JUMP JUMPDEST PUSH2 0x17BF JUMP JUMPDEST PUSH1 0x40 MLOAD PUSH2 0x6F4 SWAP2 SWAP1 PUSH2 0x1E48 JUMP JUMPDEST PUSH1 0x40 MLOAD DUP1 SWAP2 SUB SWAP1 RETURN JUMPDEST CALLVALUE DUP1 ISZERO PUSH2 0x708 JUMPI PUSH0 PUSH0 REVERT JUMPDEST POP PUSH2 0x723 PUSH1 0x4 DUP1 CALLDATASIZE SUB DUP2 ADD SWAP1 PUSH2 0x71E SWAP2 SWAP1 PUSH2 0x1E0E JUMP JUMPDEST PUSH2 0x1951 JUMP JUMPDEST PUSH1 0x40 MLOAD PUSH2 0x730 SWAP2 SWAP1 PUSH2 0x1E48 JUMP JUMPDEST PUSH1 0x40 MLOAD DUP1 SWAP2 SUB SWAP1 RETURN JUMPDEST PUSH2 0x753 PUSH1 0x4 DUP1 CALLDATASIZE SUB DUP2 ADD SWAP1 PUSH2 0x74E SWAP2 SWAP1 PUSH2 0x20D6 JUMP JUMPDEST PUSH2 0x1962 JUMP JUMPDEST PUSH1 0x40 MLOAD PUSH2 0x760 SWAP2 SWAP1 PUSH2 0x1E48 JUMP JUMPDEST PUSH1 0x40 MLOAD DUP1 SWAP2 SUB SWAP1 RETURN JUMPDEST PUSH1 0x60 PUSH32 0x0 PUSH20 0xFFFFFFFFFFFFFFFFFFFFFFFFFFFFFFFFFFFFFFFF AND PUSH4 0x6FDDE03 PUSH1 0x40 MLOAD DUP2 PUSH4 0xFFFFFFFF AND PUSH1 0xE0 SHL DUP2 MSTORE PUSH1 0x4 ADD PUSH0 PUSH1 0x40 MLOAD DUP1 DUP4 SUB DUP2 DUP7 GAS STATICCALL ISZERO DUP1 ISZERO PUSH2 0x7D3 JUMPI RETURNDATASIZE PUSH0 PUSH0 RETURNDATACOPY RETURNDATASIZE PUSH0 REVERT JUMPDEST POP POP POP POP PUSH1 0x40 MLOAD RETURNDATASIZE PUSH0 DUP3 RETURNDATACOPY RETURNDATASIZE PUSH1 0x1F NOT PUSH1 0x1F DUP3 ADD AND DUP3 ADD DUP1 PUSH1 0x40 MSTORE POP DUP2 ADD SWAP1 PUSH2 0x7FB SWAP2 SWAP1 PUSH2 0x239E JUMP JUMPDEST PUSH1 0x40 MLOAD PUSH1 0x20 ADD PUSH2 0x80B SWAP2 SWAP1 PUSH2 0x246B JUMP JUMPDEST PUSH1 0x40 MLOAD PUSH1 0x20 DUP2 DUP4 SUB SUB DUP2 MSTORE SWAP1 PUSH1 0x40 MSTORE SWAP1 POP SWAP1 JUMP JUMPDEST PUSH0 PUSH2 0x828 PUSH2 0x967 JUMP JUMPDEST DUP3 PUSH32 0x0 PUSH20 0xFFFFFFFFFFFFFFFFFFFFFFFFFFFFFFFFFFFFFFFF AND PUSH4 0x70A08231 ADDRESS PUSH1 0x40 MLOAD DUP3 PUSH4 0xFFFFFFFF AND PUSH1 0xE0 SHL DUP2 MSTORE PUSH1 0x4 ADD PUSH2 0x882 SWAP2 SWAP1 PUSH2 0x24AE JUMP JUMPDEST PUSH1 0x20 PUSH1 0x40 MLOAD DUP1 DUP4 SUB DUP2 DUP7 GAS STATICCALL ISZERO DUP1 ISZERO PUSH2 0x89D JUMPI RETURNDATASIZE PUSH0 PUSH0 RETURNDATACOPY RETURNDATASIZE PUSH0 REVERT JUMPDEST POP POP POP POP PUSH1 0x40 MLOAD RETURNDATASIZE PUSH1 0x1F NOT PUSH1 0x1F DUP3 ADD AND DUP3 ADD DUP1 PUSH1 0x40 MSTORE POP DUP2 ADD SWAP1 PUSH2 0x8C1 SWAP2 SWAP1 PUSH2 0x24DB JUMP JUMPDEST PUSH2 0x8CB SWAP2 SWAP1 PUSH2 0x2533 JUMP JUMPDEST PUSH2 0x8D5 SWAP2 SWAP1 PUSH2 0x25A1 JUMP JUMPDEST SWAP1 POP SWAP2 SWAP1 POP JUMP JUMPDEST PUSH0 PUSH2 0x8E5 PUSH2 0x1B49 JUMP JUMPDEST ISZERO PUSH2 0x918 JUMPI DUP2 NOT ISZERO PUSH15 0x22D473030F116DDEE9F6B43AC78BA3 DUP5 PUSH1 0x60 SHL PUSH1 0x60 SHR XOR OR PUSH2 0x917 JUMPI PUSH4 0x3F68539A PUSH0 MSTORE PUSH1 0x4 PUSH1 0x1C REVERT JUMPDEST JUMPDEST DUP3 PUSH1 0x20 MSTORE PUSH4 0x7F5E9F20 PUSH1 0xC MSTORE CALLER PUSH0 MSTORE DUP2 PUSH1 0x34 PUSH1 0xC KECCAK256 SSTORE DUP2 PUSH0 MSTORE PUSH1 0x2C MLOAD PUSH1 0x60 SHR CALLER PUSH32 0x8C5BE1E5EBEC7D5BD14F71427D1E84F3DD0314C0F7B2291E5B200AC8C7C3B925 PUSH1 0x20 PUSH0 LOG3 PUSH1 0x1 SWAP1 POP SWAP3 SWAP2 POP POP JUMP JUMPDEST PUSH0 PUSH9 0x5345CDF77EB68F44C SLOAD SWAP1 POP SWAP1 JUMP JUMPDEST PUSH0 PUSH2 0x984 DUP5 DUP5 DUP5 PUSH2 0x1B50 JUMP JUMPDEST PUSH2 0x98C PUSH2 0x1B49 JUMP JUMPDEST ISZERO PUSH2 0xA5A JUMPI DUP4 PUSH1 0x60 SHL PUSH15 0x22D473030F116DDEE9F6B43AC78BA3 CALLER EQ PUSH2 0x9E5 JUMPI CALLER PUSH1 0x20 MSTORE PUSH4 0x7F5E9F20 DUP2 OR PUSH1 0xC MSTORE PUSH1 0x34 PUSH1 0xC KECCAK256 DUP1 SLOAD DUP1 NOT ISZERO PUSH2 0x9E2 JUMPI DUP1 DUP6 GT ISZERO PUSH2 0x9DC JUMPI PUSH4 0x13BE252B PUSH0 MSTORE PUSH1 0x4 PUSH1 0x1C REVERT JUMPDEST DUP5 DUP2 SUB DUP3 SSTORE JUMPDEST POP POP JUMPDEST PUSH4 0x87A211A2 DUP2 OR PUSH1 0xC MSTORE PUSH1 0x20 PUSH1 0xC KECCAK256 DUP1 SLOAD DUP1 DUP6 GT ISZERO PUSH2 0xA0B JUMPI PUSH4 0xF4D678B8 PUSH0 MSTORE PUSH1 0x4 PUSH1 0x1C REVERT JUMPDEST DUP5 DUP2 SUB DUP3 SSTORE DUP6 PUSH0 MSTORE PUSH1 0x20 PUSH1 0xC KECCAK256 DUP6 DUP2 SLOAD ADD DUP2 SSTORE DUP6 PUSH1 0x20 MSTORE PUSH1 0xC MLOAD PUSH1 0x60 SHR DUP5 PUSH1 0x60 SHR PUSH32 0xDDF252AD1BE2C89B69C2B068FC378DAA952BA7F163C4A11628F55A4DF523B3EF PUSH1 0x20 DUP1 LOG3 POP POP POP POP PUSH2 0xB08 JUMP JUMPDEST DUP4 PUSH1 0x60 SHL CALLER PUSH1 0x20 MSTORE PUSH4 0x7F5E9F20 DUP2 OR PUSH1 0xC MSTORE PUSH1 0x34 PUSH1 0xC KECCAK256 DUP1 SLOAD DUP1 NOT ISZERO PUSH2 0xA95 JUMPI DUP1 DUP6 GT ISZERO PUSH2 0xA8F JUMPI PUSH4 0x13BE252B PUSH0 MSTORE PUSH1 0x4 PUSH1 0x1C REVERT JUMPDEST DUP5 DUP2 SUB DUP3 SSTORE JUMPDEST PUSH4 0x87A211A2 DUP4 OR PUSH1 0xC MSTORE PUSH1 0x20 PUSH1 0xC KECCAK256 DUP1 SLOAD DUP1 DUP8 GT ISZERO PUSH2 0xABB JUMPI PUSH4 0xF4D678B8 PUSH0 MSTORE PUSH1 0x4 PUSH1 0x1C REVERT JUMPDEST DUP7 DUP2 SUB DUP3 SSTORE DUP8 PUSH0 MSTORE PUSH1 0x20 PUSH1 0xC KECCAK256 DUP8 DUP2 SLOAD ADD DUP2 SSTORE DUP8 PUSH1 0x20 MSTORE PUSH1 0xC MLOAD PUSH1 0x60 SHR DUP7 PUSH1 0x60 SHR PUSH32 0xDDF252AD1BE2C89B69C2B068FC378DAA952BA7F163C4A11628F55A4DF523B3EF PUSH1 0x20 DUP1 LOG3 POP POP POP POP POP POP JUMPDEST PUSH2 0xB13 DUP5 DUP5 DUP5 PUSH2 0x1B55 JUMP JUMPDEST PUSH1 0x1 SWAP1 POP SWAP4 SWAP3 POP POP POP JUMP JUMPDEST PUSH32 0x0 DUP2 JUMP JUMPDEST PUSH0 PUSH1 0x12 SWAP1 POP SWAP1 JUMP JUMPDEST PUSH0 PUSH0 PUSH2 0xB54 PUSH2 0x1B5A JUMP JUMPDEST SWAP1 POP PUSH0 PUSH0 SHL DUP2 SUB PUSH2 0xB71 JUMPI PUSH2 0xB67 PUSH2 0x769 JUMP JUMPDEST DUP1 MLOAD SWAP1 PUSH1 0x20 ADD KECCAK256 SWAP1 POP JUMPDEST PUSH0 PUSH2 0xB7A PUSH2 0x1B5E JUMP JUMPDEST SWAP1 POP PUSH1 0x40 MLOAD PUSH32 0x8B73C3C69BB8FE3D512ECC4CF759CC79239F7B179B0FFACAA9A75D522B39400F DUP2 MSTORE DUP3 PUSH1 0x20 DUP3 ADD MSTORE DUP2 PUSH1 0x40 DUP3 ADD MSTORE CHAINID PUSH1 0x60 DUP3 ADD MSTORE ADDRESS PUSH1 0x80 DUP3 ADD MSTORE PUSH1 0xA0 DUP2 KECCAK256 SWAP4 POP POP POP POP SWAP1 JUMP JUMPDEST PUSH32 0x0 DUP2 JUMP JUMPDEST PUSH32 0x0 DUP2 JUMP JUMPDEST PUSH0 PUSH32 0x0 PUSH16 0xFFFFFFFFFFFFFFFFFFFFFFFFFFFFFFFF AND PUSH0 SLOAD TIMESTAMP PUSH2 0xC4F SWAP2 SWAP1 PUSH2 0x25D1 JUMP JUMPDEST PUSH2 0xC59 SWAP2 SWAP1 PUSH2 0x2533 JUMP JUMPDEST SWAP1 POP SWAP1 JUMP JUMPDEST PUSH0 PUSH2 0xC68 DUP3 PUSH2 0x81F JUMP JUMPDEST SWAP1 POP SWAP2 SWAP1 POP JUMP JUMPDEST PUSH0 PUSH2 0xC79 DUP4 PUSH2 0x1951 JUMP JUMPDEST SWAP1 POP PUSH0 PUSH32 0x0 PUSH20 0xFFFFFFFFFFFFFFFFFFFFFFFFFFFFFFFFFFFFFFFF AND PUSH4 0x70A08231 ADDRESS PUSH1 0x40 MLOAD DUP3 PUSH4 0xFFFFFFFF AND PUSH1 0xE0 SHL DUP2 MSTORE PUSH1 0x4 ADD PUSH2 0xCD5 SWAP2 SWAP1 PUSH2 0x24AE JUMP JUMPDEST PUSH1 0x20 PUSH1 0x40 MLOAD DUP1 DUP4 SUB DUP2 DUP7 GAS STATICCALL ISZERO DUP1 ISZERO PUSH2 0xCF0 JUMPI RETURNDATASIZE PUSH0 PUSH0 RETURNDATACOPY RETURNDATASIZE PUSH0 REVERT JUMPDEST POP POP POP POP PUSH1 0x40 MLOAD RETURNDATASIZE PUSH1 0x1F NOT PUSH1 0x1F DUP3 ADD AND DUP3 ADD DUP1 PUSH1 0x40 MSTORE POP DUP2 ADD SWAP1 PUSH2 0xD14 SWAP2 SWAP1 PUSH2 0x24DB JUMP JUMPDEST DUP5 SELFBALANCE PUSH2 0xD20 SWAP2 SWAP1 PUSH2 0x2533 JUMP JUMPDEST PUSH2 0xD2A SWAP2 SWAP1 PUSH2 0x25A1 JUMP JUMPDEST SWAP1 POP DUP1 CALLVALUE LT ISZERO PUSH2 0xD38 JUMPI PUSH0 PUSH0 REVERT JUMPDEST PUSH2 0xD42 DUP4 DUP4 PUSH2 0x1B87 JUMP JUMPDEST PUSH32 0x0 PUSH20 0xFFFFFFFFFFFFFFFFFFFFFFFFFFFFFFFFFFFFFFFF AND PUSH4 0x23B872DD CALLER ADDRESS DUP8 PUSH1 0x40 MLOAD DUP5 PUSH4 0xFFFFFFFF AND PUSH1 0xE0 SHL DUP2 MSTORE PUSH1 0x4 ADD PUSH2 0xD9F SWAP4 SWAP3 SWAP2 SWAP1 PUSH2 0x2604 JUMP JUMPDEST PUSH1 0x20 PUSH1 0x40 MLOAD DUP1 DUP4 SUB DUP2 PUSH0 DUP8 GAS CALL ISZERO DUP1 ISZERO PUSH2 0xDBB JUMPI RETURNDATASIZE PUSH0 PUSH0 RETURNDATACOPY RETURNDATASIZE PUSH0 REVERT JUMPDEST POP POP POP POP PUSH1 0x40 MLOAD RETURNDATASIZE PUSH1 0x1F NOT PUSH1 0x1F DUP3 ADD AND DUP3 ADD DUP1 PUSH1 0x40 MSTORE POP DUP2 ADD SWAP1 PUSH2 0xDDF SWAP2 SWAP1 PUSH2 0x2663 JUMP JUMPDEST POP PUSH0 DUP2 CALLVALUE PUSH2 0xDED SWAP2 SWAP1 PUSH2 0x25D1 JUMP JUMPDEST SWAP1 POP PUSH0 DUP2 GT ISZERO PUSH2 0xE6A JUMPI PUSH0 DUP5 PUSH20 0xFFFFFFFFFFFFFFFFFFFFFFFFFFFFFFFFFFFFFFFF AND DUP3 PUSH1 0x40 MLOAD PUSH2 0xE1C SWAP1 PUSH2 0x26BB JUMP JUMPDEST PUSH0 PUSH1 0x40 MLOAD DUP1 DUP4 SUB DUP2 DUP6 DUP8 GAS CALL SWAP3 POP POP POP RETURNDATASIZE DUP1 PUSH0 DUP2 EQ PUSH2 0xE56 JUMPI PUSH1 0x40 MLOAD SWAP2 POP PUSH1 0x1F NOT PUSH1 0x3F RETURNDATASIZE ADD AND DUP3 ADD PUSH1 0x40 MSTORE RETURNDATASIZE DUP3 MSTORE RETURNDATASIZE PUSH0 PUSH1 0x20 DUP5 ADD RETURNDATACOPY PUSH2 0xE5B JUMP JUMPDEST PUSH1 0x60 SWAP2 POP JUMPDEST POP POP SWAP1 POP DUP1 PUSH2 0xE68 JUMPI PUSH0 PUSH0 REVERT JUMPDEST POP JUMPDEST DUP4 PUSH20 0xFFFFFFFFFFFFFFFFFFFFFFFFFFFFFFFFFFFFFFFF AND CALLER PUSH20 0xFFFFFFFFFFFFFFFFFFFFFFFFFFFFFFFFFFFFFFFF AND PUSH32 0xDCBC1C05240F31FF3AD067EF1EE35CE4997762752E3A095284754544F4C709D7 DUP8 DUP7 PUSH1 0x40 MLOAD PUSH2 0xEC9 SWAP3 SWAP2 SWAP1 PUSH2 0x26CF JUMP JUMPDEST PUSH1 0x40 MLOAD DUP1 SWAP2 SUB SWAP1 LOG3 POP POP SWAP3 SWAP2 POP POP JUMP JUMPDEST PUSH0 PUSH4 0x87A211A2 PUSH1 0xC MSTORE DUP2 PUSH0 MSTORE PUSH1 0x20 PUSH1 0xC KECCAK256 SLOAD SWAP1 POP SWAP2 SWAP1 POP JUMP JUMPDEST PUSH0 PUSH2 0xEFC CALLVALUE PUSH2 0x17BF JUMP JUMPDEST SWAP1 POP PUSH32 0x0 PUSH16 0xFFFFFFFFFFFFFFFFFFFFFFFFFFFFFFFF AND DUP2 PUSH2 0xF3C SWAP2 SWAP1 PUSH2 0x25A1 JUMP JUMPDEST PUSH0 PUSH0 DUP3 DUP3 SLOAD PUSH2 0xF4B SWAP2 SWAP1 PUSH2 0x26F6 JUMP JUMPDEST SWAP3 POP POP DUP2 SWAP1 SSTORE POP PUSH32 0x0 PUSH20 0xFFFFFFFFFFFFFFFFFFFFFFFFFFFFFFFFFFFFFFFF AND PUSH4 0xA9059CBB DUP4 DUP4 PUSH1 0x40 MLOAD DUP4 PUSH4 0xFFFFFFFF AND PUSH1 0xE0 SHL DUP2 MSTORE PUSH1 0x4 ADD PUSH2 0xFAD SWAP3 SWAP2 SWAP1 PUSH2 0x2729 JUMP JUMPDEST PUSH1 0x20 PUSH1 0x40 MLOAD DUP1 DUP4 SUB DUP2 PUSH0 DUP8 GAS CALL ISZERO DUP1 ISZERO PUSH2 0xFC9 JUMPI RETURNDATASIZE PUSH0 PUSH0 RETURNDATACOPY RETURNDATASIZE PUSH0 REVERT JUMPDEST POP POP POP POP PUSH1 0x40 MLOAD RETURNDATASIZE PUSH1 0x1F NOT PUSH1 0x1F DUP3 ADD AND DUP3 ADD DUP1 PUSH1 0x40 MSTORE POP DUP2 ADD SWAP1 PUSH2 0xFED SWAP2 SWAP1 PUSH2 0x2663 JUMP JUMPDEST POP SWAP2 SWAP1 POP JUMP JUMPDEST PUSH0 PUSH4 0x38377508 PUSH1 0xC MSTORE DUP2 PUSH0 MSTORE PUSH1 0x20 PUSH1 0xC KECCAK256 SLOAD SWAP1 POP SWAP2 SWAP1 POP JUMP JUMPDEST PUSH0 DUP3 SWAP1 POP PUSH0 PUSH2 0x1019 PUSH2 0x967 JUMP JUMPDEST EQ PUSH2 0x1022 JUMPI PUSH0 PUSH0 REVERT JUMPDEST PUSH2 0x102C DUP3 DUP3 PUSH2 0x1B87 JUMP JUMPDEST PUSH32 0x0 PUSH20 0xFFFFFFFFFFFFFFFFFFFFFFFFFFFFFFFFFFFFFFFF AND PUSH4 0x23B872DD CALLER ADDRESS DUP7 PUSH1 0x40 MLOAD DUP5 PUSH4 0xFFFFFFFF AND PUSH1 0xE0 SHL DUP2 MSTORE PUSH1 0x4 ADD PUSH2 0x1089 SWAP4 SWAP3 SWAP2 SWAP1 PUSH2 0x2604 JUMP JUMPDEST PUSH1 0x20 PUSH1 0x40 MLOAD DUP1 DUP4 SUB DUP2 PUSH0 DUP8 GAS CALL ISZERO DUP1 ISZERO PUSH2 0x10A5 JUMPI RETURNDATASIZE PUSH0 PUSH0 RETURNDATACOPY RETURNDATASIZE PUSH0 REVERT JUMPDEST POP POP POP POP PUSH1 0x40 MLOAD RETURNDATASIZE PUSH1 0x1F NOT PUSH1 0x1F DUP3 ADD AND DUP3 ADD DUP1 PUSH1 0x40 MSTORE POP DUP2 ADD SWAP1 PUSH2 0x10C9 SWAP2 SWAP1 PUSH2 0x2663 JUMP JUMPDEST POP DUP2 PUSH20 0xFFFFFFFFFFFFFFFFFFFFFFFFFFFFFFFFFFFFFFFF AND CALLER PUSH20 0xFFFFFFFFFFFFFFFFFFFFFFFFFFFFFFFFFFFFFFFF AND PUSH32 0xDCBC1C05240F31FF3AD067EF1EE35CE4997762752E3A095284754544F4C709D7 DUP6 DUP5 PUSH1 0x40 MLOAD PUSH2 0x1129 SWAP3 SWAP2 SWAP1 PUSH2 0x26CF JUMP JUMPDEST PUSH1 0x40 MLOAD DUP1 SWAP2 SUB SWAP1 LOG3 SWAP3 SWAP2 POP POP JUMP JUMPDEST PUSH1 0x60 PUSH32 0x0 PUSH20 0xFFFFFFFFFFFFFFFFFFFFFFFFFFFFFFFFFFFFFFFF AND PUSH4 0x95D89B41 PUSH1 0x40 MLOAD DUP2 PUSH4 0xFFFFFFFF AND PUSH1 0xE0 SHL DUP2 MSTORE PUSH1 0x4 ADD PUSH0 PUSH1 0x40 MLOAD DUP1 DUP4 SUB DUP2 DUP7 GAS STATICCALL ISZERO DUP1 ISZERO PUSH2 0x11A1 JUMPI RETURNDATASIZE PUSH0 PUSH0 RETURNDATACOPY RETURNDATASIZE PUSH0 REVERT JUMPDEST POP POP POP POP PUSH1 0x40 MLOAD RETURNDATASIZE PUSH0 DUP3 RETURNDATACOPY RETURNDATASIZE PUSH1 0x1F NOT PUSH1 0x1F DUP3 ADD AND DUP3 ADD DUP1 PUSH1 0x40 MSTORE POP DUP2 ADD SWAP1 PUSH2 0x11C9 SWAP2 SWAP1 PUSH2 0x239E JUMP JUMPDEST PUSH1 0x40 MLOAD PUSH1 0x20 ADD PUSH2 0x11D9 SWAP2 SWAP1 PUSH2 0x279C JUMP JUMPDEST PUSH1 0x40 MLOAD PUSH1 0x20 DUP2 DUP4 SUB SUB DUP2 MSTORE SWAP1 PUSH1 0x40 MSTORE SWAP1 POP SWAP1 JUMP JUMPDEST PUSH0 PUSH2 0x11F9 CALLER DUP5 DUP5 PUSH2 0x1B50 JUMP JUMPDEST PUSH4 0x87A211A2 PUSH1 0xC MSTORE CALLER PUSH0 MSTORE PUSH1 0x20 PUSH1 0xC KECCAK256 DUP1 SLOAD DUP1 DUP5 GT ISZERO PUSH2 0x1220 JUMPI PUSH4 0xF4D678B8 PUSH0 MSTORE PUSH1 0x4 PUSH1 0x1C REVERT JUMPDEST DUP4 DUP2 SUB DUP3 SSTORE DUP5 PUSH0 MSTORE PUSH1 0x20 PUSH1 0xC KECCAK256 DUP5 DUP2 SLOAD ADD DUP2 SSTORE DUP5 PUSH1 0x20 MSTORE PUSH1 0xC MLOAD PUSH1 0x60 SHR CALLER PUSH32 0xDDF252AD1BE2C89B69C2B068FC378DAA952BA7F163C4A11628F55A4DF523B3EF PUSH1 0x20 DUP1 LOG3 POP POP POP PUSH2 0x1271 CALLER DUP5 DUP5 PUSH2 0x1B55 JUMP JUMPDEST PUSH1 0x1 SWAP1 POP SWAP3 SWAP2 POP POP JUMP JUMPDEST PUSH0 PUSH2 0x1285 CALLER PUSH2 0xEF2 JUMP JUMPDEST SWAP1 POP SWAP1 JUMP JUMPDEST PUSH0 PUSH2 0x1294 DUP5 PUSH2 0xC5E JUMP JUMPDEST SWAP1 POP DUP2 PUSH20 0xFFFFFFFFFFFFFFFFFFFFFFFFFFFFFFFFFFFFFFFF AND CALLER PUSH20 0xFFFFFFFFFFFFFFFFFFFFFFFFFFFFFFFFFFFFFFFF AND EQ PUSH2 0x12D5 JUMPI PUSH2 0x12D4 DUP3 CALLER DUP7 PUSH2 0x1C19 JUMP JUMPDEST JUMPDEST PUSH0 PUSH2 0x12DE PUSH2 0x967 JUMP JUMPDEST DUP6 SELFBALANCE PUSH2 0x12EA SWAP2 SWAP1 PUSH2 0x2533 JUMP JUMPDEST PUSH2 0x12F4 SWAP2 SWAP1 PUSH2 0x25A1 JUMP JUMPDEST SWAP1 POP PUSH2 0x1300 DUP4 DUP7 PUSH2 0x1CAA JUMP JUMPDEST PUSH32 0x0 PUSH20 0xFFFFFFFFFFFFFFFFFFFFFFFFFFFFFFFFFFFFFFFF AND PUSH4 0xA9059CBB DUP6 DUP5 PUSH1 0x40 MLOAD DUP4 PUSH4 0xFFFFFFFF AND PUSH1 0xE0 SHL DUP2 MSTORE PUSH1 0x4 ADD PUSH2 0x135B SWAP3 SWAP2 SWAP1 PUSH2 0x2729 JUMP JUMPDEST PUSH1 0x20 PUSH1 0x40 MLOAD DUP1 DUP4 SUB DUP2 PUSH0 DUP8 GAS CALL ISZERO DUP1 ISZERO PUSH2 0x1377 JUMPI RETURNDATASIZE PUSH0 PUSH0 RETURNDATACOPY RETURNDATASIZE PUSH0 REVERT JUMPDEST POP POP POP POP PUSH1 0x40 MLOAD RETURNDATASIZE PUSH1 0x1F NOT PUSH1 0x1F DUP3 ADD AND DUP3 ADD DUP1 PUSH1 0x40 MSTORE POP DUP2 ADD SWAP1 PUSH2 0x139B SWAP2 SWAP1 PUSH2 0x2663 JUMP JUMPDEST POP PUSH0 DUP5 PUSH20 0xFFFFFFFFFFFFFFFFFFFFFFFFFFFFFFFFFFFFFFFF AND DUP3 PUSH1 0x40 MLOAD PUSH2 0x13C1 SWAP1 PUSH2 0x26BB JUMP JUMPDEST PUSH0 PUSH1 0x40 MLOAD DUP1 DUP4 SUB DUP2 DUP6 DUP8 GAS CALL SWAP3 POP POP POP RETURNDATASIZE DUP1 PUSH0 DUP2 EQ PUSH2 0x13FB JUMPI PUSH1 0x40 MLOAD SWAP2 POP PUSH1 0x1F NOT PUSH1 0x3F RETURNDATASIZE ADD AND DUP3 ADD PUSH1 0x40 MSTORE RETURNDATASIZE DUP3 MSTORE RETURNDATASIZE PUSH0 PUSH1 0x20 DUP5 ADD RETURNDATACOPY PUSH2 0x1400 JUMP JUMPDEST PUSH1 0x60 SWAP2 POP JUMPDEST POP POP SWAP1 POP DUP1 PUSH2 0x140D JUMPI PUSH0 PUSH0 REVERT JUMPDEST DUP4 PUSH20 0xFFFFFFFFFFFFFFFFFFFFFFFFFFFFFFFFFFFFFFFF AND DUP6 PUSH20 0xFFFFFFFFFFFFFFFFFFFFFFFFFFFFFFFFFFFFFFFF AND CALLER PUSH20 0xFFFFFFFFFFFFFFFFFFFFFFFFFFFFFFFFFFFFFFFF AND PUSH32 0xFBDE797D201C681B91056529119E0B02407C7BB96A4A2C75C01FC9667232C8DB DUP7 DUP11 PUSH1 0x40 MLOAD PUSH2 0x1483 SWAP3 SWAP2 SWAP1 PUSH2 0x26CF JUMP JUMPDEST PUSH1 0x40 MLOAD DUP1 SWAP2 SUB SWAP1 LOG4 POP POP SWAP4 SWAP3 POP POP POP JUMP JUMPDEST PUSH0 SLOAD DUP2 JUMP JUMPDEST PUSH0 PUSH32 0x0 PUSH20 0xFFFFFFFFFFFFFFFFFFFFFFFFFFFFFFFFFFFFFFFF AND PUSH4 0x70A08231 ADDRESS PUSH1 0x40 MLOAD DUP3 PUSH4 0xFFFFFFFF AND PUSH1 0xE0 SHL DUP2 MSTORE PUSH1 0x4 ADD PUSH2 0x14F3 SWAP2 SWAP1 PUSH2 0x24AE JUMP JUMPDEST PUSH1 0x20 PUSH1 0x40 MLOAD DUP1 DUP4 SUB DUP2 DUP7 GAS STATICCALL ISZERO DUP1 ISZERO PUSH2 0x150E JUMPI RETURNDATASIZE PUSH0 PUSH0 RETURNDATACOPY RETURNDATASIZE PUSH0 REVERT JUMPDEST POP POP POP POP PUSH1 0x40 MLOAD RETURNDATASIZE PUSH1 0x1F NOT PUSH1 0x1F DUP3 ADD AND DUP3 ADD DUP1 PUSH1 0x40 MSTORE POP DUP2 ADD SWAP1 PUSH2 0x1532 SWAP2 SWAP1 PUSH2 0x24DB JUMP JUMPDEST DUP3 PUSH2 0x153B PUSH2 0x967 JUMP JUMPDEST PUSH2 0x1545 SWAP2 SWAP1 PUSH2 0x2533 JUMP JUMPDEST PUSH2 0x154F SWAP2 SWAP1 PUSH2 0x25A1 JUMP JUMPDEST SWAP1 POP SWAP2 SWAP1 POP JUMP JUMPDEST PUSH0 PUSH2 0x1560 CALLER PUSH2 0x1962 JUMP JUMPDEST SWAP1 POP SWAP1 JUMP JUMPDEST PUSH2 0x156D PUSH2 0x1B49 JUMP JUMPDEST ISZERO PUSH2 0x15A0 JUMPI DUP5 NOT ISZERO PUSH15 0x22D473030F116DDEE9F6B43AC78BA3 DUP8 PUSH1 0x60 SHL PUSH1 0x60 SHR XOR OR PUSH2 0x159F JUMPI PUSH4 0x3F68539A PUSH0 MSTORE PUSH1 0x4 PUSH1 0x1C REVERT JUMPDEST JUMPDEST PUSH0 PUSH2 0x15A9 PUSH2 0x1B5A JUMP JUMPDEST SWAP1 POP PUSH0 PUSH0 SHL DUP2 SUB PUSH2 0x15C6 JUMPI PUSH2 0x15BC PUSH2 0x769 JUMP JUMPDEST DUP1 MLOAD SWAP1 PUSH1 0x20 ADD KECCAK256 SWAP1 POP JUMPDEST PUSH0 PUSH2 0x15CF PUSH2 0x1B5E JUMP JUMPDEST SWAP1 POP DUP6 TIMESTAMP GT ISZERO PUSH2 0x15E6 JUMPI PUSH4 0x1A15A3CC PUSH0 MSTORE PUSH1 0x4 PUSH1 0x1C REVERT JUMPDEST PUSH1 0x40 MLOAD DUP10 PUSH1 0x60 SHL PUSH1 0x60 SHR SWAP10 POP DUP9 PUSH1 0x60 SHL PUSH1 0x60 SHR SWAP9 POP PUSH6 0x383775081901 PUSH1 0xE MSTORE DUP10 PUSH0 MSTORE PUSH1 0x20 PUSH1 0xC KECCAK256 DUP1 SLOAD PUSH32 0x8B73C3C69BB8FE3D512ECC4CF759CC79239F7B179B0FFACAA9A75D522B39400F DUP4 MSTORE DUP5 PUSH1 0x20 DUP5 ADD MSTORE DUP4 PUSH1 0x40 DUP5 ADD MSTORE CHAINID PUSH1 0x60 DUP5 ADD MSTORE ADDRESS PUSH1 0x80 DUP5 ADD MSTORE PUSH1 0xA0 DUP4 KECCAK256 PUSH1 0x2E MSTORE PUSH32 0x6E71EDAE12B1B97F4D1F60370FEF10105FA2FAAE0126114A169C64845D6126C9 DUP4 MSTORE DUP12 PUSH1 0x20 DUP5 ADD MSTORE DUP11 PUSH1 0x40 DUP5 ADD MSTORE DUP10 PUSH1 0x60 DUP5 ADD MSTORE DUP1 PUSH1 0x80 DUP5 ADD MSTORE DUP9 PUSH1 0xA0 DUP5 ADD MSTORE PUSH1 0xC0 DUP4 KECCAK256 PUSH1 0x4E MSTORE PUSH1 0x42 PUSH1 0x2C KECCAK256 PUSH0 MSTORE DUP8 PUSH1 0xFF AND PUSH1 0x20 MSTORE DUP7 PUSH1 0x40 MSTORE DUP6 PUSH1 0x60 MSTORE PUSH1 0x20 DUP1 PUSH1 0x80 PUSH0 PUSH1 0x1 GAS STATICCALL DUP13 RETURNDATASIZE MLOAD EQ PUSH2 0x16CE JUMPI PUSH4 0xDDAFBAEF PUSH0 MSTORE PUSH1 0x4 PUSH1 0x1C REVERT JUMPDEST DUP1 DUP3 ADD DUP4 SSTORE DUP12 PUSH4 0x7F5E9F20 PUSH1 0xA0 SHL OR PUSH1 0x40 MSTORE DUP11 PUSH1 0x34 PUSH1 0x2C KECCAK256 SSTORE DUP12 DUP14 PUSH32 0x8C5BE1E5EBEC7D5BD14F71427D1E84F3DD0314C0F7B2291E5B200AC8C7C3B925 PUSH1 0x20 PUSH1 0x60 DUP9 ADD LOG3 DUP4 PUSH1 0x40 MSTORE PUSH0 PUSH1 0x60 MSTORE POP POP POP POP POP POP POP POP POP POP POP POP POP JUMP JUMPDEST PUSH0 PUSH2 0x1731 PUSH2 0x1B49 JUMP JUMPDEST ISZERO PUSH2 0x17A1 JUMPI PUSH15 0x22D473030F116DDEE9F6B43AC78BA3 PUSH20 0xFFFFFFFFFFFFFFFFFFFFFFFFFFFFFFFFFFFFFFFF AND DUP3 PUSH20 0xFFFFFFFFFFFFFFFFFFFFFFFFFFFFFFFFFFFFFFFF AND SUB PUSH2 0x17A0 JUMPI PUSH32 0xFFFFFFFFFFFFFFFFFFFFFFFFFFFFFFFFFFFFFFFFFFFFFFFFFFFFFFFFFFFFFFFF SWAP1 POP PUSH2 0x17B9 JUMP JUMPDEST JUMPDEST DUP2 PUSH1 0x20 MSTORE PUSH4 0x7F5E9F20 PUSH1 0xC MSTORE DUP3 PUSH0 MSTORE PUSH1 0x34 PUSH1 0xC KECCAK256 SLOAD SWAP1 POP JUMPDEST SWAP3 SWAP2 POP POP JUMP JUMPDEST PUSH0 PUSH32 0x0 PUSH16 0xFFFFFFFFFFFFFFFFFFFFFFFFFFFFFFFF AND DUP3 PUSH2 0x17FC PUSH2 0xC0E JUMP JUMPDEST PUSH2 0x1806 SWAP2 SWAP1 PUSH2 0x2533 JUMP JUMPDEST PUSH2 0x1810 SWAP2 SWAP1 PUSH2 0x25A1 JUMP JUMPDEST SWAP1 POP PUSH32 0x0 PUSH20 0xFFFFFFFFFFFFFFFFFFFFFFFFFFFFFFFFFFFFFFFF AND PUSH4 0x70A08231 ADDRESS PUSH1 0x40 MLOAD DUP3 PUSH4 0xFFFFFFFF AND PUSH1 0xE0 SHL DUP2 MSTORE PUSH1 0x4 ADD PUSH2 0x186B SWAP2 SWAP1 PUSH2 0x24AE JUMP JUMPDEST PUSH1 0x20 PUSH1 0x40 MLOAD DUP1 DUP4 SUB DUP2 DUP7 GAS STATICCALL ISZERO DUP1 ISZERO PUSH2 0x1886 JUMPI RETURNDATASIZE PUSH0 PUSH0 RETURNDATACOPY RETURNDATASIZE PUSH0 REVERT JUMPDEST POP POP POP POP PUSH1 0x40 MLOAD RETURNDATASIZE PUSH1 0x1F NOT PUSH1 0x1F DUP3 ADD AND DUP3 ADD DUP1 PUSH1 0x40 MSTORE POP DUP2 ADD SWAP1 PUSH2 0x18AA SWAP2 SWAP1 PUSH2 0x24DB JUMP JUMPDEST DUP2 GT ISZERO PUSH2 0x194C JUMPI PUSH32 0x0 PUSH20 0xFFFFFFFFFFFFFFFFFFFFFFFFFFFFFFFFFFFFFFFF AND PUSH4 0x70A08231 ADDRESS PUSH1 0x40 MLOAD DUP3 PUSH4 0xFFFFFFFF AND PUSH1 0xE0 SHL DUP2 MSTORE PUSH1 0x4 ADD PUSH2 0x190A SWAP2 SWAP1 PUSH2 0x24AE JUMP JUMPDEST PUSH1 0x20 PUSH1 0x40 MLOAD DUP1 DUP4 SUB DUP2 DUP7 GAS STATICCALL ISZERO DUP1 ISZERO PUSH2 0x1925 JUMPI RETURNDATASIZE PUSH0 PUSH0 RETURNDATACOPY RETURNDATASIZE PUSH0 REVERT JUMPDEST POP POP POP POP PUSH1 0x40 MLOAD RETURNDATASIZE PUSH1 0x1F NOT PUSH1 0x1F DUP3 ADD AND DUP3 ADD DUP1 PUSH1 0x40 MSTORE POP DUP2 ADD SWAP1 PUSH2 0x1949 SWAP2 SWAP1 PUSH2 0x24DB JUMP JUMPDEST SWAP1 POP JUMPDEST SWAP2 SWAP1 POP JUMP JUMPDEST PUSH0 PUSH2 0x195B DUP3 PUSH2 0x1499 JUMP JUMPDEST SWAP1 POP SWAP2 SWAP1 POP JUMP JUMPDEST PUSH0 SELFBALANCE CALLVALUE PUSH2 0x196D PUSH2 0x967 JUMP JUMPDEST PUSH2 0x1977 SWAP2 SWAP1 PUSH2 0x2533 JUMP JUMPDEST PUSH2 0x1981 SWAP2 SWAP1 PUSH2 0x25A1 JUMP JUMPDEST SWAP1 POP PUSH0 SELFBALANCE CALLVALUE PUSH32 0x0 PUSH20 0xFFFFFFFFFFFFFFFFFFFFFFFFFFFFFFFFFFFFFFFF AND PUSH4 0x70A08231 ADDRESS PUSH1 0x40 MLOAD DUP3 PUSH4 0xFFFFFFFF AND PUSH1 0xE0 SHL DUP2 MSTORE PUSH1 0x4 ADD PUSH2 0x19DF SWAP2 SWAP1 PUSH2 0x24AE JUMP JUMPDEST PUSH1 0x20 PUSH1 0x40 MLOAD DUP1 DUP4 SUB DUP2 DUP7 GAS STATICCALL ISZERO DUP1 ISZERO PUSH2 0x19FA JUMPI RETURNDATASIZE PUSH0 PUSH0 RETURNDATACOPY RETURNDATASIZE PUSH0 REVERT JUMPDEST POP POP POP POP PUSH1 0x40 MLOAD RETURNDATASIZE PUSH1 0x1F NOT PUSH1 0x1F DUP3 ADD AND DUP3 ADD DUP1 PUSH1 0x40 MSTORE POP DUP2 ADD SWAP1 PUSH2 0x1A1E SWAP2 SWAP1 PUSH2 0x24DB JUMP JUMPDEST PUSH2 0x1A28 SWAP2 SWAP1 PUSH2 0x2533 JUMP JUMPDEST PUSH2 0x1A32 SWAP2 SWAP1 PUSH2 0x25A1 JUMP JUMPDEST SWAP1 POP PUSH2 0x1A3E DUP4 DUP4 PUSH2 0x1B87 JUMP JUMPDEST PUSH32 0x0 PUSH20 0xFFFFFFFFFFFFFFFFFFFFFFFFFFFFFFFFFFFFFFFF AND PUSH4 0x23B872DD CALLER ADDRESS DUP5 PUSH1 0x40 MLOAD DUP5 PUSH4 0xFFFFFFFF AND PUSH1 0xE0 SHL DUP2 MSTORE PUSH1 0x4 ADD PUSH2 0x1A9B SWAP4 SWAP3 SWAP2 SWAP1 PUSH2 0x2604 JUMP JUMPDEST PUSH1 0x20 PUSH1 0x40 MLOAD DUP1 DUP4 SUB DUP2 PUSH0 DUP8 GAS CALL ISZERO DUP1 ISZERO PUSH2 0x1AB7 JUMPI RETURNDATASIZE PUSH0 PUSH0 RETURNDATACOPY RETURNDATASIZE PUSH0 REVERT JUMPDEST POP POP POP POP PUSH1 0x40 MLOAD RETURNDATASIZE PUSH1 0x1F NOT PUSH1 0x1F DUP3 ADD AND DUP3 ADD DUP1 PUSH1 0x40 MSTORE POP DUP2 ADD SWAP1 PUSH2 0x1ADB SWAP2 SWAP1 PUSH2 0x2663 JUMP JUMPDEST POP DUP3 PUSH20 0xFFFFFFFFFFFFFFFFFFFFFFFFFFFFFFFFFFFFFFFF AND CALLER PUSH20 0xFFFFFFFFFFFFFFFFFFFFFFFFFFFFFFFFFFFFFFFF AND PUSH32 0xDCBC1C05240F31FF3AD067EF1EE35CE4997762752E3A095284754544F4C709D7 DUP4 DUP6 PUSH1 0x40 MLOAD PUSH2 0x1B3B SWAP3 SWAP2 SWAP1 PUSH2 0x26CF JUMP JUMPDEST PUSH1 0x40 MLOAD DUP1 SWAP2 SUB SWAP1 LOG3 POP SWAP2 SWAP1 POP JUMP JUMPDEST PUSH0 PUSH0 SWAP1 POP SWAP1 JUMP JUMPDEST POP POP POP JUMP JUMPDEST POP POP POP JUMP JUMPDEST PUSH0 SWAP1 JUMP JUMPDEST PUSH0 PUSH32 0xC89EFDAA54C0F20C7ADF612882DF0950F5A951637E0307CDCB4C672F298B8BC6 PUSH0 SHL SWAP1 POP SWAP1 JUMP JUMPDEST PUSH2 0x1B92 PUSH0 DUP4 DUP4 PUSH2 0x1B50 JUMP JUMPDEST PUSH9 0x5345CDF77EB68F44C SLOAD DUP2 DUP2 ADD DUP2 DUP2 LT ISZERO PUSH2 0x1BB5 JUMPI PUSH4 0xE5CFE957 PUSH0 MSTORE PUSH1 0x4 PUSH1 0x1C REVERT JUMPDEST DUP1 PUSH9 0x5345CDF77EB68F44C SSTORE PUSH4 0x87A211A2 PUSH1 0xC MSTORE DUP4 PUSH0 MSTORE PUSH1 0x20 PUSH1 0xC KECCAK256 DUP4 DUP2 SLOAD ADD DUP2 SSTORE DUP4 PUSH1 0x20 MSTORE PUSH1 0xC MLOAD PUSH1 0x60 SHR PUSH0 PUSH32 0xDDF252AD1BE2C89B69C2B068FC378DAA952BA7F163C4A11628F55A4DF523B3EF PUSH1 0x20 DUP1 LOG3 POP POP POP PUSH2 0x1C15 PUSH0 DUP4 DUP4 PUSH2 0x1B55 JUMP JUMPDEST POP POP JUMP JUMPDEST PUSH2 0x1C21 PUSH2 0x1B49 JUMP JUMPDEST ISZERO PUSH2 0x1C6A JUMPI PUSH15 0x22D473030F116DDEE9F6B43AC78BA3 PUSH20 0xFFFFFFFFFFFFFFFFFFFFFFFFFFFFFFFFFFFFFFFF AND DUP3 PUSH20 0xFFFFFFFFFFFFFFFFFFFFFFFFFFFFFFFFFFFFFFFF AND SUB ISZERO PUSH2 0x1CA5 JUMPI JUMPDEST DUP2 PUSH1 0x20 MSTORE PUSH4 0x7F5E9F20 PUSH1 0xC MSTORE DUP3 PUSH0 MSTORE PUSH1 0x34 PUSH1 0xC KECCAK256 DUP1 SLOAD DUP1 NOT ISZERO PUSH2 0x1CA2 JUMPI DUP1 DUP4 GT ISZERO PUSH2 0x1C9C JUMPI PUSH4 0x13BE252B PUSH0 MSTORE PUSH1 0x4 PUSH1 0x1C REVERT JUMPDEST DUP3 DUP2 SUB DUP3 SSTORE JUMPDEST POP POP JUMPDEST POP POP POP JUMP JUMPDEST PUSH2 0x1CB5 DUP3 PUSH0 DUP4 PUSH2 0x1B50 JUMP JUMPDEST PUSH4 0x87A211A2 PUSH1 0xC MSTORE DUP2 PUSH0 MSTORE PUSH1 0x20 PUSH1 0xC KECCAK256 DUP1 SLOAD DUP1 DUP4 GT ISZERO PUSH2 0x1CDC JUMPI PUSH4 0xF4D678B8 PUSH0 MSTORE PUSH1 0x4 PUSH1 0x1C REVERT JUMPDEST DUP3 DUP2 SUB DUP3 SSTORE DUP3 PUSH9 0x5345CDF77EB68F44C SLOAD SUB PUSH9 0x5345CDF77EB68F44C SSTORE DUP3 PUSH0 MSTORE PUSH0 DUP5 PUSH1 0x60 SHL PUSH1 0x60 SHR PUSH32 0xDDF252AD1BE2C89B69C2B068FC378DAA952BA7F163C4A11628F55A4DF523B3EF PUSH1 0x20 PUSH0 LOG3 POP POP PUSH2 0x1D36 DUP3 PUSH0 DUP4 PUSH2 0x1B55 JUMP JUMPDEST POP POP JUMP JUMPDEST PUSH0 DUP2 MLOAD SWAP1 POP SWAP2 SWAP1 POP JUMP JUMPDEST PUSH0 DUP3 DUP3 MSTORE PUSH1 0x20 DUP3 ADD SWAP1 POP SWAP3 SWAP2 POP POP JUMP JUMPDEST DUP3 DUP2 DUP4 MCOPY PUSH0 DUP4 DUP4 ADD MSTORE POP POP POP JUMP JUMPDEST PUSH0 PUSH1 0x1F NOT PUSH1 0x1F DUP4 ADD AND SWAP1 POP SWAP2 SWAP1 POP JUMP JUMPDEST PUSH0 PUSH2 0x1D7C DUP3 PUSH2 0x1D3A JUMP JUMPDEST PUSH2 0x1D86 DUP2 DUP6 PUSH2 0x1D44 JUMP JUMPDEST SWAP4 POP PUSH2 0x1D96 DUP2 DUP6 PUSH1 0x20 DUP7 ADD PUSH2 0x1D54 JUMP JUMPDEST PUSH2 0x1D9F DUP2 PUSH2 0x1D62 JUMP JUMPDEST DUP5 ADD SWAP2 POP POP SWAP3 SWAP2 POP POP JUMP JUMPDEST PUSH0 PUSH1 0x20 DUP3 ADD SWAP1 POP DUP2 DUP2 SUB PUSH0 DUP4 ADD MSTORE PUSH2 0x1DC2 DUP2 DUP5 PUSH2 0x1D72 JUMP JUMPDEST SWAP1 POP SWAP3 SWAP2 POP POP JUMP JUMPDEST PUSH0 PUSH1 0x40 MLOAD SWAP1 POP SWAP1 JUMP JUMPDEST PUSH0 PUSH0 REVERT JUMPDEST PUSH0 PUSH0 REVERT JUMPDEST PUSH0 DUP2 SWAP1 POP SWAP2 SWAP1 POP JUMP JUMPDEST PUSH2 0x1DED DUP2 PUSH2 0x1DDB JUMP JUMPDEST DUP2 EQ PUSH2 0x1DF7 JUMPI PUSH0 PUSH0 REVERT JUMPDEST POP JUMP JUMPDEST PUSH0 DUP2 CALLDATALOAD SWAP1 POP PUSH2 0x1E08 DUP2 PUSH2 0x1DE4 JUMP JUMPDEST SWAP3 SWAP2 POP POP JUMP JUMPDEST PUSH0 PUSH1 0x20 DUP3 DUP5 SUB SLT ISZERO PUSH2 0x1E23 JUMPI PUSH2 0x1E22 PUSH2 0x1DD3 JUMP JUMPDEST JUMPDEST PUSH0 PUSH2 0x1E30 DUP5 DUP3 DUP6 ADD PUSH2 0x1DFA JUMP JUMPDEST SWAP2 POP POP SWAP3 SWAP2 POP POP JUMP JUMPDEST PUSH2 0x1E42 DUP2 PUSH2 0x1DDB JUMP JUMPDEST DUP3 MSTORE POP POP JUMP JUMPDEST PUSH0 PUSH1 0x20 DUP3 ADD SWAP1 POP PUSH2 0x1E5B PUSH0 DUP4 ADD DUP5 PUSH2 0x1E39 JUMP JUMPDEST SWAP3 SWAP2 POP POP JUMP JUMPDEST PUSH0 PUSH20 0xFFFFFFFFFFFFFFFFFFFFFFFFFFFFFFFFFFFFFFFF DUP3 AND SWAP1 POP SWAP2 SWAP1 POP JUMP JUMPDEST PUSH0 PUSH2 0x1E8A DUP3 PUSH2 0x1E61 JUMP JUMPDEST SWAP1 POP SWAP2 SWAP1 POP JUMP JUMPDEST PUSH2 0x1E9A DUP2 PUSH2 0x1E80 JUMP JUMPDEST DUP2 EQ PUSH2 0x1EA4 JUMPI PUSH0 PUSH0 REVERT JUMPDEST POP JUMP JUMPDEST PUSH0 DUP2 CALLDATALOAD SWAP1 POP PUSH2 0x1EB5 DUP2 PUSH2 0x1E91 JUMP JUMPDEST SWAP3 SWAP2 POP POP JUMP JUMPDEST PUSH0 PUSH0 PUSH1 0x40 DUP4 DUP6 SUB SLT ISZERO PUSH2 0x1ED1 JUMPI PUSH2 0x1ED0 PUSH2 0x1DD3 JUMP JUMPDEST JUMPDEST PUSH0 PUSH2 0x1EDE DUP6 DUP3 DUP7 ADD PUSH2 0x1EA7 JUMP JUMPDEST SWAP3 POP POP PUSH1 0x20 PUSH2 0x1EEF DUP6 DUP3 DUP7 ADD PUSH2 0x1DFA JUMP JUMPDEST SWAP2 POP POP SWAP3 POP SWAP3 SWAP1 POP JUMP JUMPDEST PUSH0 DUP2 ISZERO ISZERO SWAP1 POP SWAP2 SWAP1 POP JUMP JUMPDEST PUSH2 0x1F0D DUP2 PUSH2 0x1EF9 JUMP JUMPDEST DUP3 MSTORE POP POP JUMP JUMPDEST PUSH0 PUSH1 0x20 DUP3 ADD SWAP1 POP PUSH2 0x1F26 PUSH0 DUP4 ADD DUP5 PUSH2 0x1F04 JUMP JUMPDEST SWAP3 SWAP2 POP POP JUMP JUMPDEST PUSH0 PUSH0 PUSH0 PUSH1 0x60 DUP5 DUP7 SUB SLT ISZERO PUSH2 0x1F43 JUMPI PUSH2 0x1F42 PUSH2 0x1DD3 JUMP JUMPDEST JUMPDEST PUSH0 PUSH2 0x1F50 DUP7 DUP3 DUP8 ADD PUSH2 0x1EA7 JUMP JUMPDEST SWAP4 POP POP PUSH1 0x20 PUSH2 0x1F61 DUP7 DUP3 DUP8 ADD PUSH2 0x1EA7 JUMP JUMPDEST SWAP3 POP POP PUSH1 0x40 PUSH2 0x1F72 DUP7 DUP3 DUP8 ADD PUSH2 0x1DFA JUMP JUMPDEST SWAP2 POP POP SWAP3 POP SWAP3 POP SWAP3 JUMP JUMPDEST PUSH0 PUSH16 0xFFFFFFFFFFFFFFFFFFFFFFFFFFFFFFFF DUP3 AND SWAP1 POP SWAP2 SWAP1 POP JUMP JUMPDEST PUSH2 0x1FA0 DUP2 PUSH2 0x1F7C JUMP JUMPDEST DUP3 MSTORE POP POP JUMP JUMPDEST PUSH0 PUSH1 0x20 DUP3 ADD SWAP1 POP PUSH2 0x1FB9 PUSH0 DUP4 ADD DUP5 PUSH2 0x1F97 JUMP JUMPDEST SWAP3 SWAP2 POP POP JUMP JUMPDEST PUSH0 PUSH1 0xFF DUP3 AND SWAP1 POP SWAP2 SWAP1 POP JUMP JUMPDEST PUSH2 0x1FD4 DUP2 PUSH2 0x1FBF JUMP JUMPDEST DUP3 MSTORE POP POP JUMP JUMPDEST PUSH0 PUSH1 0x20 DUP3 ADD SWAP1 POP PUSH2 0x1FED PUSH0 DUP4 ADD DUP5 PUSH2 0x1FCB JUMP JUMPDEST SWAP3 SWAP2 POP POP JUMP JUMPDEST PUSH0 DUP2 SWAP1 POP SWAP2 SWAP1 POP JUMP JUMPDEST PUSH2 0x2005 DUP2 PUSH2 0x1FF3 JUMP JUMPDEST DUP3 MSTORE POP POP JUMP JUMPDEST PUSH0 PUSH1 0x20 DUP3 ADD SWAP1 POP PUSH2 0x201E PUSH0 DUP4 ADD DUP5 PUSH2 0x1FFC JUMP JUMPDEST SWAP3 SWAP2 POP POP JUMP JUMPDEST PUSH0 DUP2 SWAP1 POP SWAP2 SWAP1 POP JUMP JUMPDEST PUSH0 PUSH2 0x2047 PUSH2 0x2042 PUSH2 0x203D DUP5 PUSH2 0x1E61 JUMP JUMPDEST PUSH2 0x2024 JUMP JUMPDEST PUSH2 0x1E61 JUMP JUMPDEST SWAP1 POP SWAP2 SWAP1 POP JUMP JUMPDEST PUSH0 PUSH2 0x2058 DUP3 PUSH2 0x202D JUMP JUMPDEST SWAP1 POP SWAP2 SWAP1 POP JUMP JUMPDEST PUSH0 PUSH2 0x2069 DUP3 PUSH2 0x204E JUMP JUMPDEST SWAP1 POP SWAP2 SWAP1 POP JUMP JUMPDEST PUSH2 0x2079 DUP2 PUSH2 0x205F JUMP JUMPDEST DUP3 MSTORE POP POP JUMP JUMPDEST PUSH0 PUSH1 0x20 DUP3 ADD SWAP1 POP PUSH2 0x2092 PUSH0 DUP4 ADD DUP5 PUSH2 0x2070 JUMP JUMPDEST SWAP3 SWAP2 POP POP JUMP JUMPDEST PUSH0 PUSH0 PUSH1 0x40 DUP4 DUP6 SUB SLT ISZERO PUSH2 0x20AE JUMPI PUSH2 0x20AD PUSH2 0x1DD3 JUMP JUMPDEST JUMPDEST PUSH0 PUSH2 0x20BB DUP6 DUP3 DUP7 ADD PUSH2 0x1DFA JUMP JUMPDEST SWAP3 POP POP PUSH1 0x20 PUSH2 0x20CC DUP6 DUP3 DUP7 ADD PUSH2 0x1EA7 JUMP JUMPDEST SWAP2 POP POP SWAP3 POP SWAP3 SWAP1 POP JUMP JUMPDEST PUSH0 PUSH1 0x20 DUP3 DUP5 SUB SLT ISZERO PUSH2 0x20EB JUMPI PUSH2 0x20EA PUSH2 0x1DD3 JUMP JUMPDEST JUMPDEST PUSH0 PUSH2 0x20F8 DUP5 DUP3 DUP6 ADD PUSH2 0x1EA7 JUMP JUMPDEST SWAP2 POP POP SWAP3 SWAP2 POP POP JUMP JUMPDEST PUSH0 PUSH0 PUSH0 PUSH1 0x60 DUP5 DUP7 SUB SLT ISZERO PUSH2 0x2118 JUMPI PUSH2 0x2117 PUSH2 0x1DD3 JUMP JUMPDEST JUMPDEST PUSH0 PUSH2 0x2125 DUP7 DUP3 DUP8 ADD PUSH2 0x1DFA JUMP JUMPDEST SWAP4 POP POP PUSH1 0x20 PUSH2 0x2136 DUP7 DUP3 DUP8 ADD PUSH2 0x1EA7 JUMP JUMPDEST SWAP3 POP POP PUSH1 0x40 PUSH2 0x2147 DUP7 DUP3 DUP8 ADD PUSH2 0x1EA7 JUMP JUMPDEST SWAP2 POP POP SWAP3 POP SWAP3 POP SWAP3 JUMP JUMPDEST PUSH2 0x215A DUP2 PUSH2 0x1FBF JUMP JUMPDEST DUP2 EQ PUSH2 0x2164 JUMPI PUSH0 PUSH0 REVERT JUMPDEST POP JUMP JUMPDEST PUSH0 DUP2 CALLDATALOAD SWAP1 POP PUSH2 0x2175 DUP2 PUSH2 0x2151 JUMP JUMPDEST SWAP3 SWAP2 POP POP JUMP JUMPDEST PUSH2 0x2184 DUP2 PUSH2 0x1FF3 JUMP JUMPDEST DUP2 EQ PUSH2 0x218E JUMPI PUSH0 PUSH0 REVERT JUMPDEST POP JUMP JUMPDEST PUSH0 DUP2 CALLDATALOAD SWAP1 POP PUSH2 0x219F DUP2 PUSH2 0x217B JUMP JUMPDEST SWAP3 SWAP2 POP POP JUMP JUMPDEST PUSH0 PUSH0 PUSH0 PUSH0 PUSH0 PUSH0 PUSH0 PUSH1 0xE0 DUP9 DUP11 SUB SLT ISZERO PUSH2 0x21C0 JUMPI PUSH2 0x21BF PUSH2 0x1DD3 JUMP JUMPDEST JUMPDEST PUSH0 PUSH2 0x21CD DUP11 DUP3 DUP12 ADD PUSH2 0x1EA7 JUMP JUMPDEST SWAP8 POP POP PUSH1 0x20 PUSH2 0x21DE DUP11 DUP3 DUP12 ADD PUSH2 0x1EA7 JUMP JUMPDEST SWAP7 POP POP PUSH1 0x40 PUSH2 0x21EF DUP11 DUP3 DUP12 ADD PUSH2 0x1DFA JUMP JUMPDEST SWAP6 POP POP PUSH1 0x60 PUSH2 0x2200 DUP11 DUP3 DUP12 ADD PUSH2 0x1DFA JUMP JUMPDEST SWAP5 POP POP PUSH1 0x80 PUSH2 0x2211 DUP11 DUP3 DUP12 ADD PUSH2 0x2167 JUMP JUMPDEST SWAP4 POP POP PUSH1 0xA0 PUSH2 0x2222 DUP11 DUP3 DUP12 ADD PUSH2 0x2191 JUMP JUMPDEST SWAP3 POP POP PUSH1 0xC0 PUSH2 0x2233 DUP11 DUP3 DUP12 ADD PUSH2 0x2191 JUMP JUMPDEST SWAP2 POP POP SWAP3 SWAP6 SWAP9 SWAP2 SWAP5 SWAP8 POP SWAP3 SWAP6 POP JUMP JUMPDEST PUSH0 PUSH0 PUSH1 0x40 DUP4 DUP6 SUB SLT ISZERO PUSH2 0x2258 JUMPI PUSH2 0x2257 PUSH2 0x1DD3 JUMP JUMPDEST JUMPDEST PUSH0 PUSH2 0x2265 DUP6 DUP3 DUP7 ADD PUSH2 0x1EA7 JUMP JUMPDEST SWAP3 POP POP PUSH1 0x20 PUSH2 0x2276 DUP6 DUP3 DUP7 ADD PUSH2 0x1EA7 JUMP JUMPDEST SWAP2 POP POP SWAP3 POP SWAP3 SWAP1 POP JUMP JUMPDEST PUSH0 PUSH0 REVERT JUMPDEST PUSH0 PUSH0 REVERT JUMPDEST PUSH32 0x4E487B7100000000000000000000000000000000000000000000000000000000 PUSH0 MSTORE PUSH1 0x41 PUSH1 0x4 MSTORE PUSH1 0x24 PUSH0 REVERT JUMPDEST PUSH2 0x22BE DUP3 PUSH2 0x1D62 JUMP JUMPDEST DUP2 ADD DUP2 DUP2 LT PUSH8 0xFFFFFFFFFFFFFFFF DUP3 GT OR ISZERO PUSH2 0x22DD JUMPI PUSH2 0x22DC PUSH2 0x2288 JUMP JUMPDEST JUMPDEST DUP1 PUSH1 0x40 MSTORE POP POP POP JUMP JUMPDEST PUSH0 PUSH2 0x22EF PUSH2 0x1DCA JUMP JUMPDEST SWAP1 POP PUSH2 0x22FB DUP3 DUP3 PUSH2 0x22B5 JUMP JUMPDEST SWAP2 SWAP1 POP JUMP JUMPDEST PUSH0 PUSH8 0xFFFFFFFFFFFFFFFF DUP3 GT ISZERO PUSH2 0x231A JUMPI PUSH2 0x2319 PUSH2 0x2288 JUMP JUMPDEST JUMPDEST PUSH2 0x2323 DUP3 PUSH2 0x1D62 JUMP JUMPDEST SWAP1 POP PUSH1 0x20 DUP2 ADD SWAP1 POP SWAP2 SWAP1 POP JUMP JUMPDEST PUSH0 PUSH2 0x2342 PUSH2 0x233D DUP5 PUSH2 0x2300 JUMP JUMPDEST PUSH2 0x22E6 JUMP JUMPDEST SWAP1 POP DUP3 DUP2 MSTORE PUSH1 0x20 DUP2 ADD DUP5 DUP5 DUP5 ADD GT ISZERO PUSH2 0x235E JUMPI PUSH2 0x235D PUSH2 0x2284 JUMP JUMPDEST JUMPDEST PUSH2 0x2369 DUP5 DUP3 DUP6 PUSH2 0x1D54 JUMP JUMPDEST POP SWAP4 SWAP3 POP POP POP JUMP JUMPDEST PUSH0 DUP3 PUSH1 0x1F DUP4 ADD SLT PUSH2 0x2385 JUMPI PUSH2 0x2384 PUSH2 0x2280 JUMP JUMPDEST JUMPDEST DUP2 MLOAD PUSH2 0x2395 DUP5 DUP3 PUSH1 0x20 DUP7 ADD PUSH2 0x2330 JUMP JUMPDEST SWAP2 POP POP SWAP3 SWAP2 POP POP JUMP JUMPDEST PUSH0 PUSH1 0x20 DUP3 DUP5 SUB SLT ISZERO PUSH2 0x23B3 JUMPI PUSH2 0x23B2 PUSH2 0x1DD3 JUMP JUMPDEST JUMPDEST PUSH0 DUP3 ADD MLOAD PUSH8 0xFFFFFFFFFFFFFFFF DUP2 GT ISZERO PUSH2 0x23D0 JUMPI PUSH2 0x23CF PUSH2 0x1DD7 JUMP JUMPDEST JUMPDEST PUSH2 0x23DC DUP5 DUP3 DUP6 ADD PUSH2 0x2371 JUMP JUMPDEST SWAP2 POP POP SWAP3 SWAP2 POP POP JUMP JUMPDEST PUSH32 0x4E617469766520546F6B656E20746F2000000000000000000000000000000000 DUP2 MSTORE POP JUMP JUMPDEST PUSH0 DUP2 SWAP1 POP SWAP3 SWAP2 POP POP JUMP JUMPDEST PUSH0 PUSH2 0x241F DUP3 PUSH2 0x1D3A JUMP JUMPDEST PUSH2 0x2429 DUP2 DUP6 PUSH2 0x240B JUMP JUMPDEST SWAP4 POP PUSH2 0x2439 DUP2 DUP6 PUSH1 0x20 DUP7 ADD PUSH2 0x1D54 JUMP JUMPDEST DUP1 DUP5 ADD SWAP2 POP POP SWAP3 SWAP2 POP POP JUMP JUMPDEST PUSH32 0x204C697175696469747920506F6F6C0000000000000000000000000000000000 DUP2 MSTORE POP JUMP JUMPDEST PUSH0 PUSH2 0x2475 DUP3 PUSH2 0x23E5 JUMP JUMPDEST PUSH1 0x10 DUP3 ADD SWAP2 POP PUSH2 0x2485 DUP3 DUP5 PUSH2 0x2415 JUMP JUMPDEST SWAP2 POP PUSH2 0x2490 DUP3 PUSH2 0x2445 JUMP JUMPDEST PUSH1 0xF DUP3 ADD SWAP2 POP DUP2 SWAP1 POP SWAP3 SWAP2 POP POP JUMP JUMPDEST PUSH2 0x24A8 DUP2 PUSH2 0x1E80 JUMP JUMPDEST DUP3 MSTORE POP POP JUMP JUMPDEST PUSH0 PUSH1 0x20 DUP3 ADD SWAP1 POP PUSH2 0x24C1 PUSH0 DUP4 ADD DUP5 PUSH2 0x249F JUMP JUMPDEST SWAP3 SWAP2 POP POP JUMP JUMPDEST PUSH0 DUP2 MLOAD SWAP1 POP PUSH2 0x24D5 DUP2 PUSH2 0x1DE4 JUMP JUMPDEST SWAP3 SWAP2 POP POP JUMP JUMPDEST PUSH0 PUSH1 0x20 DUP3 DUP5 SUB SLT ISZERO PUSH2 0x24F0 JUMPI PUSH2 0x24EF PUSH2 0x1DD3 JUMP JUMPDEST JUMPDEST PUSH0 PUSH2 0x24FD DUP5 DUP3 DUP6 ADD PUSH2 0x24C7 JUMP JUMPDEST SWAP2 POP POP SWAP3 SWAP2 POP POP JUMP JUMPDEST PUSH32 0x4E487B7100000000000000000000000000000000000000000000000000000000 PUSH0 MSTORE PUSH1 0x11 PUSH1 0x4 MSTORE PUSH1 0x24 PUSH0 REVERT JUMPDEST PUSH0 PUSH2 0x253D DUP3 PUSH2 0x1DDB JUMP JUMPDEST SWAP2 POP PUSH2 0x2548 DUP4 PUSH2 0x1DDB JUMP JUMPDEST SWAP3 POP DUP3 DUP3 MUL PUSH2 0x2556 DUP2 PUSH2 0x1DDB JUMP JUMPDEST SWAP2 POP DUP3 DUP3 DIV DUP5 EQ DUP4 ISZERO OR PUSH2 0x256D JUMPI PUSH2 0x256C PUSH2 0x2506 JUMP JUMPDEST JUMPDEST POP SWAP3 SWAP2 POP POP JUMP JUMPDEST PUSH32 0x4E487B7100000000000000000000000000000000000000000000000000000000 PUSH0 MSTORE PUSH1 0x12 PUSH1 0x4 MSTORE PUSH1 0x24 PUSH0 REVERT JUMPDEST PUSH0 PUSH2 0x25AB DUP3 PUSH2 0x1DDB JUMP JUMPDEST SWAP2 POP PUSH2 0x25B6 DUP4 PUSH2 0x1DDB JUMP JUMPDEST SWAP3 POP DUP3 PUSH2 0x25C6 JUMPI PUSH2 0x25C5 PUSH2 0x2574 JUMP JUMPDEST JUMPDEST DUP3 DUP3 DIV SWAP1 POP SWAP3 SWAP2 POP POP JUMP JUMPDEST PUSH0 PUSH2 0x25DB DUP3 PUSH2 0x1DDB JUMP JUMPDEST SWAP2 POP PUSH2 0x25E6 DUP4 PUSH2 0x1DDB JUMP JUMPDEST SWAP3 POP DUP3 DUP3 SUB SWAP1 POP DUP2 DUP2 GT ISZERO PUSH2 0x25FE JUMPI PUSH2 0x25FD PUSH2 0x2506 JUMP JUMPDEST JUMPDEST SWAP3 SWAP2 POP POP JUMP JUMPDEST PUSH0 PUSH1 0x60 DUP3 ADD SWAP1 POP PUSH2 0x2617 PUSH0 DUP4 ADD DUP7 PUSH2 0x249F JUMP JUMPDEST PUSH2 0x2624 PUSH1 0x20 DUP4 ADD DUP6 PUSH2 0x249F JUMP JUMPDEST PUSH2 0x2631 PUSH1 0x40 DUP4 ADD DUP5 PUSH2 0x1E39 JUMP JUMPDEST SWAP5 SWAP4 POP POP POP POP JUMP JUMPDEST PUSH2 0x2642 DUP2 PUSH2 0x1EF9 JUMP JUMPDEST DUP2 EQ PUSH2 0x264C JUMPI PUSH0 PUSH0 REVERT JUMPDEST POP JUMP JUMPDEST PUSH0 DUP2 MLOAD SWAP1 POP PUSH2 0x265D DUP2 PUSH2 0x2639 JUMP JUMPDEST SWAP3 SWAP2 POP POP JUMP JUMPDEST PUSH0 PUSH1 0x20 DUP3 DUP5 SUB SLT ISZERO PUSH2 0x2678 JUMPI PUSH2 0x2677 PUSH2 0x1DD3 JUMP JUMPDEST JUMPDEST PUSH0 PUSH2 0x2685 DUP5 DUP3 DUP6 ADD PUSH2 0x264F JUMP JUMPDEST SWAP2 POP POP SWAP3 SWAP2 POP POP JUMP JUMPDEST PUSH0 DUP2 SWAP1 POP SWAP3 SWAP2 POP POP JUMP JUMPDEST POP JUMP JUMPDEST PUSH0 PUSH2 0x26A6 PUSH0 DUP4 PUSH2 0x268E JUMP JUMPDEST SWAP2 POP PUSH2 0x26B1 DUP3 PUSH2 0x2698 JUMP JUMPDEST PUSH0 DUP3 ADD SWAP1 POP SWAP2 SWAP1 POP JUMP JUMPDEST PUSH0 PUSH2 0x26C5 DUP3 PUSH2 0x269B JUMP JUMPDEST SWAP2 POP DUP2 SWAP1 POP SWAP2 SWAP1 POP JUMP JUMPDEST PUSH0 PUSH1 0x40 DUP3 ADD SWAP1 POP PUSH2 0x26E2 PUSH0 DUP4 ADD DUP6 PUSH2 0x1E39 JUMP JUMPDEST PUSH2 0x26EF PUSH1 0x20 DUP4 ADD DUP5 PUSH2 0x1E39 JUMP JUMPDEST SWAP4 SWAP3 POP POP POP JUMP JUMPDEST PUSH0 PUSH2 0x2700 DUP3 PUSH2 0x1DDB JUMP JUMPDEST SWAP2 POP PUSH2 0x270B DUP4 PUSH2 0x1DDB JUMP JUMPDEST SWAP3 POP DUP3 DUP3 ADD SWAP1 POP DUP1 DUP3 GT ISZERO PUSH2 0x2723 JUMPI PUSH2 0x2722 PUSH2 0x2506 JUMP JUMPDEST JUMPDEST SWAP3 SWAP2 POP POP JUMP JUMPDEST PUSH0 PUSH1 0x40 DUP3 ADD SWAP1 POP PUSH2 0x273C PUSH0 DUP4 ADD DUP6 PUSH2 0x249F JUMP JUMPDEST PUSH2 0x2749 PUSH1 0x20 DUP4 ADD DUP5 PUSH2 0x1E39 JUMP JUMPDEST SWAP4 SWAP3 POP POP POP JUMP JUMPDEST PUSH32 0x4E00000000000000000000000000000000000000000000000000000000000000 DUP2 MSTORE POP JUMP JUMPDEST PUSH32 0x4C50000000000000000000000000000000000000000000000000000000000000 DUP2 MSTORE POP JUMP JUMPDEST PUSH0 PUSH2 0x27A6 DUP3 PUSH2 0x2750 JUMP JUMPDEST PUSH1 0x1 DUP3 ADD SWAP2 POP PUSH2 0x27B6 DUP3 DUP5 PUSH2 0x2415 JUMP JUMPDEST SWAP2 POP PUSH2 0x27C1 DUP3 PUSH2 0x2776 JUMP JUMPDEST PUSH1 0x2 DUP3 ADD SWAP2 POP DUP2 SWAP1 POP SWAP3 SWAP2 POP POP JUMP INVALID LOG2 PUSH5 0x6970667358 0x22 SLT KECCAK256 SAR SDIV PUSH17 0xFF1BF7E8C06AB4A6C7AB61B53A00778771 0xD CALLDATASIZE 0xB5 AND 0xBC 0xB2 STATICCALL LOG2 STOP 0xE2 PUSH1 0xB2 PUSH5 0x736F6C6343 STOP ADDMOD SHR STOP CALLER "
		},
		"gasEstimates": {
			"creation": {
				"codeDepositCost": "2049200",
				"executionCost": "infinite",
				"totalCost": "infinite"
			},
			"external": {
				"DOMAIN_SEPARATOR()": "infinite",
				"allowance(address,address)": "infinite",
				"approve(address,uint256)": "24923",
				"asset()": "infinite",
				"available()": "infinite",
				"availableRate()": "infinite",
				"availableStartTime()": "2469",
				"balanceOf(address)": "2908",
				"convertToAssets(uint256)": "infinite",
				"convertToShares(uint256)": "infinite",
				"decimals()": "450",
				"deposit()": "infinite",
				"deposit(address)": "infinite",
				"deposit(uint256,address)": "infinite",
				"getInputPrice(uint256)": "infinite",
				"inhibitor()": "infinite",
				"name()": "infinite",
				"noSupplyDeposit(uint256,address)": "infinite",
				"nonces(address)": "2865",
				"permit(address,address,uint256,uint256,uint8,bytes32,bytes32)": "infinite",
				"previewDeposit(uint256)": "infinite",
				"previewRedeem(uint256)": "infinite",
				"redeem(uint256,address,address)": "infinite",
				"swapInput()": "infinite",
				"symbol()": "infinite",
				"totalSupply()": "2478",
				"transfer(address,uint256)": "51315",
				"transferFrom(address,address,uint256)": "infinite",
				"transferInput(address)": "infinite"
			}
		},
		"methodIdentifiers": {
			"DOMAIN_SEPARATOR()": "3644e515",
			"allowance(address,address)": "dd62ed3e",
			"approve(address,uint256)": "095ea7b3",
			"asset()": "38d52e0f",
			"available()": "48a0d754",
			"availableRate()": "2c7c791a",
			"availableStartTime()": "c20604b5",
			"balanceOf(address)": "70a08231",
			"convertToAssets(uint256)": "07a2d13a",
			"convertToShares(uint256)": "c6e6f592",
			"decimals()": "313ce567",
			"deposit()": "d0e30db0",
			"deposit(address)": "f340fa01",
			"deposit(uint256,address)": "6e553f65",
			"getInputPrice(uint256)": "e5d1c6af",
			"inhibitor()": "366d60e7",
			"name()": "06fdde03",
			"noSupplyDeposit(uint256,address)": "8a48b2a5",
			"nonces(address)": "7ecebe00",
			"permit(address,address,uint256,uint256,uint8,bytes32,bytes32)": "d505accf",
			"previewDeposit(uint256)": "ef8b30f7",
			"previewRedeem(uint256)": "4cdad506",
			"redeem(uint256,address,address)": "ba087652",
			"swapInput()": "ac8bafd4",
			"symbol()": "95d89b41",
			"totalSupply()": "18160ddd",
			"transfer(address,uint256)": "a9059cbb",
			"transferFrom(address,address,uint256)": "23b872dd",
			"transferInput(address)": "7c0938aa"
		}
	},
	"abi": [
		{
			"inputs": [
				{
					"internalType": "contract ERC20",
					"name": "newAsset",
					"type": "address"
				},
				{
					"internalType": "uint128",
					"name": "newAvailableRate",
					"type": "uint128"
				},
				{
					"internalType": "uint128",
					"name": "newInhibitor",
					"type": "uint128"
				}
			],
			"stateMutability": "nonpayable",
			"type": "constructor"
		},
		{
			"inputs": [],
			"name": "AllowanceOverflow",
			"type": "error"
		},
		{
			"inputs": [],
			"name": "AllowanceUnderflow",
			"type": "error"
		},
		{
			"inputs": [],
			"name": "InsufficientAllowance",
			"type": "error"
		},
		{
			"inputs": [],
			"name": "InsufficientBalance",
			"type": "error"
		},
		{
			"inputs": [],
			"name": "InvalidPermit",
			"type": "error"
		},
		{
			"inputs": [],
			"name": "Permit2AllowanceIsFixedAtInfinity",
			"type": "error"
		},
		{
			"inputs": [],
			"name": "PermitExpired",
			"type": "error"
		},
		{
			"inputs": [],
			"name": "TotalSupplyOverflow",
			"type": "error"
		},
		{
			"anonymous": false,
			"inputs": [
				{
					"indexed": true,
					"internalType": "address",
					"name": "owner",
					"type": "address"
				},
				{
					"indexed": true,
					"internalType": "address",
					"name": "spender",
					"type": "address"
				},
				{
					"indexed": false,
					"internalType": "uint256",
					"name": "amount",
					"type": "uint256"
				}
			],
			"name": "Approval",
			"type": "event"
		},
		{
			"anonymous": false,
			"inputs": [
				{
					"indexed": true,
					"internalType": "address",
					"name": "sender",
					"type": "address"
				},
				{
					"indexed": true,
					"internalType": "address",
					"name": "owner",
					"type": "address"
				},
				{
					"indexed": false,
					"internalType": "uint256",
					"name": "assets",
					"type": "uint256"
				},
				{
					"indexed": false,
					"internalType": "uint256",
					"name": "shares",
					"type": "uint256"
				}
			],
			"name": "Deposit",
			"type": "event"
		},
		{
			"anonymous": false,
			"inputs": [
				{
					"indexed": true,
					"internalType": "address",
					"name": "from",
					"type": "address"
				},
				{
					"indexed": true,
					"internalType": "address",
					"name": "to",
					"type": "address"
				},
				{
					"indexed": false,
					"internalType": "uint256",
					"name": "amount",
					"type": "uint256"
				}
			],
			"name": "Transfer",
			"type": "event"
		},
		{
			"anonymous": false,
			"inputs": [
				{
					"indexed": true,
					"internalType": "address",
					"name": "sender",
					"type": "address"
				},
				{
					"indexed": true,
					"internalType": "address",
					"name": "receiver",
					"type": "address"
				},
				{
					"indexed": true,
					"internalType": "address",
					"name": "owner",
					"type": "address"
				},
				{
					"indexed": false,
					"internalType": "uint256",
					"name": "assets",
					"type": "uint256"
				},
				{
					"indexed": false,
					"internalType": "uint256",
					"name": "shares",
					"type": "uint256"
				}
			],
			"name": "Withdraw",
			"type": "event"
		},
		{
			"inputs": [],
			"name": "DOMAIN_SEPARATOR",
			"outputs": [
				{
					"internalType": "bytes32",
					"name": "result",
					"type": "bytes32"
				}
			],
			"stateMutability": "view",
			"type": "function"
		},
		{
			"inputs": [
				{
					"internalType": "address",
					"name": "owner",
					"type": "address"
				},
				{
					"internalType": "address",
					"name": "spender",
					"type": "address"
				}
			],
			"name": "allowance",
			"outputs": [
				{
					"internalType": "uint256",
					"name": "result",
					"type": "uint256"
				}
			],
			"stateMutability": "view",
			"type": "function"
		},
		{
			"inputs": [
				{
					"internalType": "address",
					"name": "spender",
					"type": "address"
				},
				{
					"internalType": "uint256",
					"name": "amount",
					"type": "uint256"
				}
			],
			"name": "approve",
			"outputs": [
				{
					"internalType": "bool",
					"name": "",
					"type": "bool"
				}
			],
			"stateMutability": "nonpayable",
			"type": "function"
		},
		{
			"inputs": [],
			"name": "asset",
			"outputs": [
				{
					"internalType": "contract ERC20",
					"name": "",
					"type": "address"
				}
			],
			"stateMutability": "view",
			"type": "function"
		},
		{
			"inputs": [],
			"name": "available",
			"outputs": [
				{
					"internalType": "uint256",
					"name": "",
					"type": "uint256"
				}
			],
			"stateMutability": "view",
			"type": "function"
		},
		{
			"inputs": [],
			"name": "availableRate",
			"outputs": [
				{
					"internalType": "uint128",
					"name": "",
					"type": "uint128"
				}
			],
			"stateMutability": "view",
			"type": "function"
		},
		{
			"inputs": [],
			"name": "availableStartTime",
			"outputs": [
				{
					"internalType": "uint256",
					"name": "",
					"type": "uint256"
				}
			],
			"stateMutability": "view",
			"type": "function"
		},
		{
			"inputs": [
				{
					"internalType": "address",
					"name": "owner",
					"type": "address"
				}
			],
			"name": "balanceOf",
			"outputs": [
				{
					"internalType": "uint256",
					"name": "result",
					"type": "uint256"
				}
			],
			"stateMutability": "view",
			"type": "function"
		},
		{
			"inputs": [
				{
					"internalType": "uint256",
					"name": "shares",
					"type": "uint256"
				}
			],
			"name": "convertToAssets",
			"outputs": [
				{
					"internalType": "uint256",
					"name": "",
					"type": "uint256"
				}
			],
			"stateMutability": "view",
			"type": "function"
		},
		{
			"inputs": [
				{
					"internalType": "uint256",
					"name": "assets",
					"type": "uint256"
				}
			],
			"name": "convertToShares",
			"outputs": [
				{
					"internalType": "uint256",
					"name": "",
					"type": "uint256"
				}
			],
			"stateMutability": "view",
			"type": "function"
		},
		{
			"inputs": [],
			"name": "decimals",
			"outputs": [
				{
					"internalType": "uint8",
					"name": "",
					"type": "uint8"
				}
			],
			"stateMutability": "view",
			"type": "function"
		},
		{
			"inputs": [
				{
					"internalType": "uint256",
					"name": "assets",
					"type": "uint256"
				},
				{
					"internalType": "address",
					"name": "receiver",
					"type": "address"
				}
			],
			"name": "deposit",
			"outputs": [
				{
					"internalType": "uint256",
					"name": "shares",
					"type": "uint256"
				}
			],
			"stateMutability": "payable",
			"type": "function"
		},
		{
			"inputs": [],
			"name": "deposit",
			"outputs": [
				{
					"internalType": "uint256",
					"name": "",
					"type": "uint256"
				}
			],
			"stateMutability": "payable",
			"type": "function"
		},
		{
			"inputs": [
				{
					"internalType": "address",
					"name": "receiver",
					"type": "address"
				}
			],
			"name": "deposit",
			"outputs": [
				{
					"internalType": "uint256",
					"name": "shares",
					"type": "uint256"
				}
			],
			"stateMutability": "payable",
			"type": "function"
		},
		{
			"inputs": [
				{
					"internalType": "uint256",
					"name": "nativesSold",
					"type": "uint256"
				}
			],
			"name": "getInputPrice",
			"outputs": [
				{
					"internalType": "uint256",
					"name": "erc20Bought",
					"type": "uint256"
				}
			],
			"stateMutability": "view",
			"type": "function"
		},
		{
			"inputs": [],
			"name": "inhibitor",
			"outputs": [
				{
					"internalType": "uint128",
					"name": "",
					"type": "uint128"
				}
			],
			"stateMutability": "view",
			"type": "function"
		},
		{
			"inputs": [],
			"name": "name",
			"outputs": [
				{
					"internalType": "string",
					"name": "",
					"type": "string"
				}
			],
			"stateMutability": "view",
			"type": "function"
		},
		{
			"inputs": [
				{
					"internalType": "uint256",
					"name": "assets",
					"type": "uint256"
				},
				{
					"internalType": "address",
					"name": "receiver",
					"type": "address"
				}
			],
			"name": "noSupplyDeposit",
			"outputs": [
				{
					"internalType": "uint256",
					"name": "shares",
					"type": "uint256"
				}
			],
			"stateMutability": "nonpayable",
			"type": "function"
		},
		{
			"inputs": [
				{
					"internalType": "address",
					"name": "owner",
					"type": "address"
				}
			],
			"name": "nonces",
			"outputs": [
				{
					"internalType": "uint256",
					"name": "result",
					"type": "uint256"
				}
			],
			"stateMutability": "view",
			"type": "function"
		},
		{
			"inputs": [
				{
					"internalType": "address",
					"name": "owner",
					"type": "address"
				},
				{
					"internalType": "address",
					"name": "spender",
					"type": "address"
				},
				{
					"internalType": "uint256",
					"name": "value",
					"type": "uint256"
				},
				{
					"internalType": "uint256",
					"name": "deadline",
					"type": "uint256"
				},
				{
					"internalType": "uint8",
					"name": "v",
					"type": "uint8"
				},
				{
					"internalType": "bytes32",
					"name": "r",
					"type": "bytes32"
				},
				{
					"internalType": "bytes32",
					"name": "s",
					"type": "bytes32"
				}
			],
			"name": "permit",
			"outputs": [],
			"stateMutability": "nonpayable",
			"type": "function"
		},
		{
			"inputs": [
				{
					"internalType": "uint256",
					"name": "assets",
					"type": "uint256"
				}
			],
			"name": "previewDeposit",
			"outputs": [
				{
					"internalType": "uint256",
					"name": "",
					"type": "uint256"
				}
			],
			"stateMutability": "view",
			"type": "function"
		},
		{
			"inputs": [
				{
					"internalType": "uint256",
					"name": "shares",
					"type": "uint256"
				}
			],
			"name": "previewRedeem",
			"outputs": [
				{
					"internalType": "uint256",
					"name": "",
					"type": "uint256"
				}
			],
			"stateMutability": "view",
			"type": "function"
		},
		{
			"inputs": [
				{
					"internalType": "uint256",
					"name": "shares",
					"type": "uint256"
				},
				{
					"internalType": "address",
					"name": "receiver",
					"type": "address"
				},
				{
					"internalType": "address",
					"name": "owner",
					"type": "address"
				}
			],
			"name": "redeem",
			"outputs": [
				{
					"internalType": "uint256",
					"name": "assets",
					"type": "uint256"
				}
			],
			"stateMutability": "nonpayable",
			"type": "function"
		},
		{
			"inputs": [],
			"name": "swapInput",
			"outputs": [
				{
					"internalType": "uint256",
					"name": "erc20Bought",
					"type": "uint256"
				}
			],
			"stateMutability": "payable",
			"type": "function"
		},
		{
			"inputs": [],
			"name": "symbol",
			"outputs": [
				{
					"internalType": "string",
					"name": "",
					"type": "string"
				}
			],
			"stateMutability": "view",
			"type": "function"
		},
		{
			"inputs": [],
			"name": "totalSupply",
			"outputs": [
				{
					"internalType": "uint256",
					"name": "result",
					"type": "uint256"
				}
			],
			"stateMutability": "view",
			"type": "function"
		},
		{
			"inputs": [
				{
					"internalType": "address",
					"name": "to",
					"type": "address"
				},
				{
					"internalType": "uint256",
					"name": "amount",
					"type": "uint256"
				}
			],
			"name": "transfer",
			"outputs": [
				{
					"internalType": "bool",
					"name": "",
					"type": "bool"
				}
			],
			"stateMutability": "nonpayable",
			"type": "function"
		},
		{
			"inputs": [
				{
					"internalType": "address",
					"name": "from",
					"type": "address"
				},
				{
					"internalType": "address",
					"name": "to",
					"type": "address"
				},
				{
					"internalType": "uint256",
					"name": "amount",
					"type": "uint256"
				}
			],
			"name": "transferFrom",
			"outputs": [
				{
					"internalType": "bool",
					"name": "",
					"type": "bool"
				}
			],
			"stateMutability": "nonpayable",
			"type": "function"
		},
		{
			"inputs": [
				{
					"internalType": "address",
					"name": "recipient",
					"type": "address"
				}
			],
			"name": "transferInput",
			"outputs": [
				{
					"internalType": "uint256",
					"name": "erc20Bought",
					"type": "uint256"
				}
			],
			"stateMutability": "payable",
			"type": "function"
		}
	]
}