{
	"data": {
		"bytecode": {
			"linkReferences": {},
			"object": "610120604052425f5542600155348015610017575f5ffd5b50604051611878380380611878833981016040819052610036916101d2565b8261004c6201518067016345785d8a0000610254565b670de0b6b3a76400006100626201518082610254565b306080526001600160801b0392831660a05290821660c0521660e05267016345785d8a0000610100526001600160a01b0381166100b857604051631e4fbdf760e01b81525f600482015260240160405180910390fd5b6100c1816100e4565b5060036100ce8382610312565b5060046100db8282610312565b505050506103cc565b600280546001600160a01b038381166001600160a01b0319831681179093556040519116919082907f8be0079c531659141344cd1fd0a4f28419497f9722a3daafe3b4186f6b6457e0905f90a35050565b634e487b7160e01b5f52604160045260245ffd5b5f82601f830112610158575f5ffd5b81516001600160401b0381111561017157610171610135565b604051601f8201601f19908116603f011681016001600160401b038111828210171561019f5761019f610135565b6040528181528382016020018510156101b6575f5ffd5b8160208501602083015e5f918101602001919091529392505050565b5f5f5f606084860312156101e4575f5ffd5b83516001600160a01b03811681146101fa575f5ffd5b60208501519093506001600160401b03811115610215575f5ffd5b61022186828701610149565b604086015190935090506001600160401b0381111561023e575f5ffd5b61024a86828701610149565b9150509250925092565b5f6001600160801b0383168061027857634e487b7160e01b5f52601260045260245ffd5b6001600160801b03929092169190910492915050565b600181811c908216806102a257607f821691505b6020821081036102c057634e487b7160e01b5f52602260045260245ffd5b50919050565b601f82111561030d57805f5260205f20601f840160051c810160208510156102eb5750805b601f840160051c820191505b8181101561030a575f81556001016102f7565b50505b505050565b81516001600160401b0381111561032b5761032b610135565b61033f81610339845461028e565b846102c6565b6020601f821160018114610371575f831561035a5750848201515b5f19600385901b1c1916600184901b17845561030a565b5f84815260208120601f198516915b828110156103a05787850151825560209485019460019092019101610380565b50848210156103bd57868401515f19600387901b60f8161c191681555b50505050600190811b01905550565b60805160a05160c05160e051610100516114376104415f395f818161057c0152610e6501525f818161041201528181610acd0152610bdc01525f818161037c01526109e701525f8181610459015281816107120152610b2401525f81816103c7015281816108900152610db101526114375ff3fe6080604052600436106101e6575f3560e01c80634d01629511610108578063a9059cbb1161009d578063d505accf1161006d578063d505accf146105b9578063dd62ed3e146105d8578063de899d1f1461060c578063ea6b80b71461062b578063f2fde38b1461064a575f5ffd5b8063a9059cbb1461054c578063ad3309671461056b578063aea1e3d11461059e578063bc710575146105a6575f5ffd5b806381f2d34e116100d857806381f2d34e146104f35780638da5cb5b1461050757806395d89b411461052457806396a3958d14610538575f5ffd5b80634d0162951461044857806370a082311461047b578063715018a6146104ac5780637ecebe00146104c2575f5ffd5b806323b872dd1161017e578063367ada101161014e578063367ada101461036b57806338d52e0f146103b65780633aeeade814610401578063421c6a8a14610434575f5ffd5b806323b872dd146102fe57806325d1782d1461031d578063313ce5671461033c5780633644e51514610357575f5ffd5b806310ab2d01116101b957806310ab2d0114610285578063127d0409146102a457806318160ddd146102c357806319cdf284146102df575f5ffd5b806306fdde03146101ea57806308e3069814610214578063095ea7b3146102415780630f2a403f14610270575b5f5ffd5b3480156101f5575f5ffd5b506101fe610669565b60405161020b919061105f565b60405180910390f35b34801561021f575f5ffd5b5061023361022e366004611087565b6106f9565b60405190815260200161020b565b34801561024c575f5ffd5b5061026061025b3660046110b1565b6107b9565b604051901515815260200161020b565b34801561027b575f5ffd5b5061023360015481565b348015610290575f5ffd5b506101fe61029f3660046110d9565b610809565b3480156102af575f5ffd5b506102336102be36600461115c565b61087a565b3480156102ce575f5ffd5b506805345cdf77eb68f44c54610233565b3480156102ea575f5ffd5b506102336102f9366004611189565b610885565b348015610309575f5ffd5b506102606103183660046111ab565b610933565b348015610328575f5ffd5b5061023361033736600461115c565b6109d8565b348015610347575f5ffd5b506040516012815260200161020b565b348015610362575f5ffd5b50610233610a3b565b348015610376575f5ffd5b5061039e7f000000000000000000000000000000000000000000000000000000000000000081565b6040516001600160801b03909116815260200161020b565b3480156103c1575f5ffd5b506103e97f000000000000000000000000000000000000000000000000000000000000000081565b6040516001600160a01b03909116815260200161020b565b34801561040c575f5ffd5b5061039e7f000000000000000000000000000000000000000000000000000000000000000081565b34801561043f575f5ffd5b506102335f5481565b348015610453575f5ffd5b5061039e7f000000000000000000000000000000000000000000000000000000000000000081565b348015610486575f5ffd5b506102336104953660046111e5565b6387a211a2600c9081525f91909152602090205490565b3480156104b7575f5ffd5b506104c0610ab7565b005b3480156104cd575f5ffd5b506102336104dc3660046111e5565b6338377508600c9081525f91909152602090205490565b3480156104fe575f5ffd5b50610233610aca565b348015610512575f5ffd5b506002546001600160a01b03166103e9565b34801561052f575f5ffd5b506101fe610b12565b348015610543575f5ffd5b50610233610b21565b348015610557575f5ffd5b506102606105663660046110b1565b610b59565b348015610576575f5ffd5b5061039e7f000000000000000000000000000000000000000000000000000000000000000081565b610233610bbd565b6102336105b43660046111e5565b610bc3565b3480156105c4575f5ffd5b506104c06105d336600461120e565b610c22565b3480156105e3575f5ffd5b506102336105f2366004611274565b602052637f5e9f20600c9081525f91909152603490205490565b348015610617575f5ffd5b5061023361062636600461129c565b610da6565b348015610636575f5ffd5b5061023361064536600461115c565b610e56565b348015610655575f5ffd5b506104c06106643660046111e5565b610ea7565b606060038054610678906112d6565b80601f01602080910402602001604051908101604052809291908181526020018280546106a4906112d6565b80156106ef5780601f106106c6576101008083540402835291602001916106ef565b820191905f5260205f20905b8154815290600101906020018083116106d257829003601f168201915b5050505050905090565b5f610703836109d8565b90506107386001600160801b037f0000000000000000000000000000000000000000000000000000000000000000168261131c565b5f5f828254610747919061133b565b9091555061075790503384610ee9565b5f826001600160a01b0316826040515f6040518083038185875af1925050503d805f81146107a0576040519150601f19603f3d011682016040523d82523d5f602084013e6107a5565b606091505b50509050806107b2575f5ffd5b5092915050565b5f82602052637f5e9f20600c52335f52816034600c2055815f52602c5160601c337f8c5be1e5ebec7d5bd14f71427d1e84f3dd0314c0f7b2291e5b200ac8c7c3b92560205fa35060015b92915050565b6060610813610f4a565b5f856001600160a01b031685858560405161082f92919061134e565b5f6040518083038185875af1925050503d805f8114610869576040519150601f19603f3d011682016040523d82523d5f602084013e61086e565b606091505b50979650505050505050565b5f61080382336106f9565b5f6001600160a01b037f00000000000000000000000000000000000000000000000000000000000000001663d505accf33308686356108ca6040890160208a0161135d565b886040013589606001356040518863ffffffff1660e01b81526004016108f69796959493929190611376565b5f604051808303815f87803b15801561090d575f5ffd5b505af115801561091f573d5f5f3e3d5ffd5b5050505061092c8361087a565b9392505050565b5f8360601b33602052637f5e9f208117600c526034600c20805480191561096f5780851115610969576313be252b5f526004601cfd5b84810382555b50506387a211a28117600c526020600c208054808511156109975763f4d678b85f526004601cfd5b84810382555050835f526020600c208381540181555082602052600c5160601c8160601c5f5160206113e25f395f51905f52602080a3505060019392505050565b5f610a0c826001600160801b037f00000000000000000000000000000000000000000000000000000000000000001661133b565b82610a15610b21565b610a1f91906113b7565b610a29919061131c565b905080471015610a365750475b919050565b5f80610a45610669565b805190602001209050604080517f8b73c3c69bb8fe3d512ecc4cf759cc79239f7b179b0ffacaa9a75d522b39400f815260208101929092527fc89efdaa54c0f20c7adf612882df0950f5a951637e0307cdcb4c672f298b8bc69082015246606082015230608082015260a09020919050565b610abf610f4a565b610ac85f610f77565b565b5f7f00000000000000000000000000000000000000000000000000000000000000006001600160801b031660015442610b0391906113ce565b610b0d91906113b7565b905090565b606060048054610678906112d6565b5f7f00000000000000000000000000000000000000000000000000000000000000006001600160801b03165f5442610b0391906113ce565b5f6387a211a2600c52335f526020600c20805480841115610b815763f4d678b85f526004601cfd5b83810382555050825f526020600c208281540181555081602052600c5160601c335f5160206113e25f395f51905f52602080a350600192915050565b5f610b0d335b5f610bcd34610e56565b9050610c026001600160801b037f0000000000000000000000000000000000000000000000000000000000000000168261131c565b60015f828254610c12919061133b565b90915550610a3690508282610fc8565b5f610c2b610669565b8051906020012090507fc89efdaa54c0f20c7adf612882df0950f5a951637e0307cdcb4c672f298b8bc642861015610c6a57631a15a3cc5f526004601cfd5b6040518960601b60601c99508860601b60601c985065383775081901600e52895f526020600c2080547f8b73c3c69bb8fe3d512ecc4cf759cc79239f7b179b0ffacaa9a75d522b39400f835284602084015283604084015246606084015230608084015260a08320602e527f6e71edae12b1b97f4d1f60370fef10105fa2faae0126114a169c64845d6126c983528b60208401528a60408401528960608401528060808401528860a084015260c08320604e526042602c205f528760ff16602052866040528560605260208060805f60015afa8c3d5114610d525763ddafbaef5f526004601cfd5b0190556303faf4f960a51b89176040526034602c20889055888a7f8c5be1e5ebec7d5bd14f71427d1e84f3dd0314c0f7b2291e5b200ac8c7c3b925602060608501a360405250505f60605250505050505050565b5f6001600160a01b037f00000000000000000000000000000000000000000000000000000000000000001663d505accf3330878635610deb6040890160208a0161135d565b886040013589606001356040518863ffffffff1660e01b8152600401610e179796959493929190611376565b5f604051808303815f87803b158015610e2e575f5ffd5b505af1158015610e40573d5f5f3e3d5ffd5b50505050610e4e84846106f9565b949350505050565b5f610e8a826001600160801b037f00000000000000000000000000000000000000000000000000000000000000001661133b565b82610e93610aca565b610e9d91906113b7565b610803919061131c565b610eaf610f4a565b6001600160a01b038116610edd57604051631e4fbdf760e01b81525f60048201526024015b60405180910390fd5b610ee681610f77565b50565b6387a211a2600c52815f526020600c20805480831115610f105763f4d678b85f526004601cfd5b82900390556805345cdf77eb68f44c805482900390555f8181526001600160a01b0383165f5160206113e25f395f51905f52602083a35050565b6002546001600160a01b03163314610ac85760405163118cdaa760e01b8152336004820152602401610ed4565b600280546001600160a01b038381166001600160a01b0319831681179093556040519116919082907f8be0079c531659141344cd1fd0a4f28419497f9722a3daafe3b4186f6b6457e0905f90a35050565b6805345cdf77eb68f44c5481810181811015610feb5763e5cfe9575f526004601cfd5b806805345cdf77eb68f44c5550506387a211a2600c52815f526020600c208181540181555080602052600c5160601c5f5f5160206113e25f395f51905f52602080a35050565b5f81518084528060208401602086015e5f602082860101526020601f19601f83011685010191505092915050565b602081525f61092c6020830184611031565b80356001600160a01b0381168114610a36575f5ffd5b5f5f60408385031215611098575f5ffd5b823591506110a860208401611071565b90509250929050565b5f5f604083850312156110c2575f5ffd5b6110cb83611071565b946020939093013593505050565b5f5f5f5f606085870312156110ec575f5ffd5b6110f585611071565b935060208501359250604085013567ffffffffffffffff811115611117575f5ffd5b8501601f81018713611127575f5ffd5b803567ffffffffffffffff81111561113d575f5ffd5b87602082840101111561114e575f5ffd5b949793965060200194505050565b5f6020828403121561116c575f5ffd5b5035919050565b5f60808284031215611183575f5ffd5b50919050565b5f5f60a0838503121561119a575f5ffd5b823591506110a88460208501611173565b5f5f5f606084860312156111bd575f5ffd5b6111c684611071565b92506111d460208501611071565b929592945050506040919091013590565b5f602082840312156111f5575f5ffd5b61092c82611071565b803560ff81168114610a36575f5ffd5b5f5f5f5f5f5f5f60e0888a031215611224575f5ffd5b61122d88611071565b965061123b60208901611071565b95506040880135945060608801359350611257608089016111fe565b9699959850939692959460a0840135945060c09093013592915050565b5f5f60408385031215611285575f5ffd5b61128e83611071565b91506110a860208401611071565b5f5f5f60c084860312156112ae575f5ffd5b833592506112be60208501611071565b91506112cd8560408601611173565b90509250925092565b600181811c908216806112ea57607f821691505b60208210810361118357634e487b7160e01b5f52602260045260245ffd5b634e487b7160e01b5f52601160045260245ffd5b5f8261133657634e487b7160e01b5f52601260045260245ffd5b500490565b8082018082111561080357610803611308565b818382375f9101908152919050565b5f6020828403121561136d575f5ffd5b61092c826111fe565b6001600160a01b0397881681529590961660208601526040850193909352606084019190915260ff16608083015260a082015260c081019190915260e00190565b808202811582820484141761080357610803611308565b818103818111156108035761080361130856feddf252ad1be2c89b69c2b068fc378daa952ba7f163c4a11628f55a4df523b3efa264697066735822122006fc88bfe29930f3fc1f8b115dd90b9b508489d8fed4681b4c2cac0f87a5c05564736f6c634300081c0033",
			"opcodes": "PUSH2 0x120 PUSH1 0x40 MSTORE TIMESTAMP PUSH0 SSTORE TIMESTAMP PUSH1 0x1 SSTORE CALLVALUE DUP1 ISZERO PUSH2 0x17 JUMPI PUSH0 PUSH0 REVERT JUMPDEST POP PUSH1 0x40 MLOAD PUSH2 0x1878 CODESIZE SUB DUP1 PUSH2 0x1878 DUP4 CODECOPY DUP2 ADD PUSH1 0x40 DUP2 SWAP1 MSTORE PUSH2 0x36 SWAP2 PUSH2 0x1D2 JUMP JUMPDEST DUP3 PUSH2 0x4C PUSH3 0x15180 PUSH8 0x16345785D8A0000 PUSH2 0x254 JUMP JUMPDEST PUSH8 0xDE0B6B3A7640000 PUSH2 0x62 PUSH3 0x15180 DUP3 PUSH2 0x254 JUMP JUMPDEST ADDRESS PUSH1 0x80 MSTORE PUSH1 0x1 PUSH1 0x1 PUSH1 0x80 SHL SUB SWAP3 DUP4 AND PUSH1 0xA0 MSTORE SWAP1 DUP3 AND PUSH1 0xC0 MSTORE AND PUSH1 0xE0 MSTORE PUSH8 0x16345785D8A0000 PUSH2 0x100 MSTORE PUSH1 0x1 PUSH1 0x1 PUSH1 0xA0 SHL SUB DUP2 AND PUSH2 0xB8 JUMPI PUSH1 0x40 MLOAD PUSH4 0x1E4FBDF7 PUSH1 0xE0 SHL DUP2 MSTORE PUSH0 PUSH1 0x4 DUP3 ADD MSTORE PUSH1 0x24 ADD PUSH1 0x40 MLOAD DUP1 SWAP2 SUB SWAP1 REVERT JUMPDEST PUSH2 0xC1 DUP2 PUSH2 0xE4 JUMP JUMPDEST POP PUSH1 0x3 PUSH2 0xCE DUP4 DUP3 PUSH2 0x312 JUMP JUMPDEST POP PUSH1 0x4 PUSH2 0xDB DUP3 DUP3 PUSH2 0x312 JUMP JUMPDEST POP POP POP POP PUSH2 0x3CC JUMP JUMPDEST PUSH1 0x2 DUP1 SLOAD PUSH1 0x1 PUSH1 0x1 PUSH1 0xA0 SHL SUB DUP4 DUP2 AND PUSH1 0x1 PUSH1 0x1 PUSH1 0xA0 SHL SUB NOT DUP4 AND DUP2 OR SWAP1 SWAP4 SSTORE PUSH1 0x40 MLOAD SWAP2 AND SWAP2 SWAP1 DUP3 SWAP1 PUSH32 0x8BE0079C531659141344CD1FD0A4F28419497F9722A3DAAFE3B4186F6B6457E0 SWAP1 PUSH0 SWAP1 LOG3 POP POP JUMP JUMPDEST PUSH4 0x4E487B71 PUSH1 0xE0 SHL PUSH0 MSTORE PUSH1 0x41 PUSH1 0x4 MSTORE PUSH1 0x24 PUSH0 REVERT JUMPDEST PUSH0 DUP3 PUSH1 0x1F DUP4 ADD SLT PUSH2 0x158 JUMPI PUSH0 PUSH0 REVERT JUMPDEST DUP2 MLOAD PUSH1 0x1 PUSH1 0x1 PUSH1 0x40 SHL SUB DUP2 GT ISZERO PUSH2 0x171 JUMPI PUSH2 0x171 PUSH2 0x135 JUMP JUMPDEST PUSH1 0x40 MLOAD PUSH1 0x1F DUP3 ADD PUSH1 0x1F NOT SWAP1 DUP2 AND PUSH1 0x3F ADD AND DUP2 ADD PUSH1 0x1 PUSH1 0x1 PUSH1 0x40 SHL SUB DUP2 GT DUP3 DUP3 LT OR ISZERO PUSH2 0x19F JUMPI PUSH2 0x19F PUSH2 0x135 JUMP JUMPDEST PUSH1 0x40 MSTORE DUP2 DUP2 MSTORE DUP4 DUP3 ADD PUSH1 0x20 ADD DUP6 LT ISZERO PUSH2 0x1B6 JUMPI PUSH0 PUSH0 REVERT JUMPDEST DUP2 PUSH1 0x20 DUP6 ADD PUSH1 0x20 DUP4 ADD MCOPY PUSH0 SWAP2 DUP2 ADD PUSH1 0x20 ADD SWAP2 SWAP1 SWAP2 MSTORE SWAP4 SWAP3 POP POP POP JUMP JUMPDEST PUSH0 PUSH0 PUSH0 PUSH1 0x60 DUP5 DUP7 SUB SLT ISZERO PUSH2 0x1E4 JUMPI PUSH0 PUSH0 REVERT JUMPDEST DUP4 MLOAD PUSH1 0x1 PUSH1 0x1 PUSH1 0xA0 SHL SUB DUP2 AND DUP2 EQ PUSH2 0x1FA JUMPI PUSH0 PUSH0 REVERT JUMPDEST PUSH1 0x20 DUP6 ADD MLOAD SWAP1 SWAP4 POP PUSH1 0x1 PUSH1 0x1 PUSH1 0x40 SHL SUB DUP2 GT ISZERO PUSH2 0x215 JUMPI PUSH0 PUSH0 REVERT JUMPDEST PUSH2 0x221 DUP7 DUP3 DUP8 ADD PUSH2 0x149 JUMP JUMPDEST PUSH1 0x40 DUP7 ADD MLOAD SWAP1 SWAP4 POP SWAP1 POP PUSH1 0x1 PUSH1 0x1 PUSH1 0x40 SHL SUB DUP2 GT ISZERO PUSH2 0x23E JUMPI PUSH0 PUSH0 REVERT JUMPDEST PUSH2 0x24A DUP7 DUP3 DUP8 ADD PUSH2 0x149 JUMP JUMPDEST SWAP2 POP POP SWAP3 POP SWAP3 POP SWAP3 JUMP JUMPDEST PUSH0 PUSH1 0x1 PUSH1 0x1 PUSH1 0x80 SHL SUB DUP4 AND DUP1 PUSH2 0x278 JUMPI PUSH4 0x4E487B71 PUSH1 0xE0 SHL PUSH0 MSTORE PUSH1 0x12 PUSH1 0x4 MSTORE PUSH1 0x24 PUSH0 REVERT JUMPDEST PUSH1 0x1 PUSH1 0x1 PUSH1 0x80 SHL SUB SWAP3 SWAP1 SWAP3 AND SWAP2 SWAP1 SWAP2 DIV SWAP3 SWAP2 POP POP JUMP JUMPDEST PUSH1 0x1 DUP2 DUP2 SHR SWAP1 DUP3 AND DUP1 PUSH2 0x2A2 JUMPI PUSH1 0x7F DUP3 AND SWAP2 POP JUMPDEST PUSH1 0x20 DUP3 LT DUP2 SUB PUSH2 0x2C0 JUMPI PUSH4 0x4E487B71 PUSH1 0xE0 SHL PUSH0 MSTORE PUSH1 0x22 PUSH1 0x4 MSTORE PUSH1 0x24 PUSH0 REVERT JUMPDEST POP SWAP2 SWAP1 POP JUMP JUMPDEST PUSH1 0x1F DUP3 GT ISZERO PUSH2 0x30D JUMPI DUP1 PUSH0 MSTORE PUSH1 0x20 PUSH0 KECCAK256 PUSH1 0x1F DUP5 ADD PUSH1 0x5 SHR DUP2 ADD PUSH1 0x20 DUP6 LT ISZERO PUSH2 0x2EB JUMPI POP DUP1 JUMPDEST PUSH1 0x1F DUP5 ADD PUSH1 0x5 SHR DUP3 ADD SWAP2 POP JUMPDEST DUP2 DUP2 LT ISZERO PUSH2 0x30A JUMPI PUSH0 DUP2 SSTORE PUSH1 0x1 ADD PUSH2 0x2F7 JUMP JUMPDEST POP POP JUMPDEST POP POP POP JUMP JUMPDEST DUP2 MLOAD PUSH1 0x1 PUSH1 0x1 PUSH1 0x40 SHL SUB DUP2 GT ISZERO PUSH2 0x32B JUMPI PUSH2 0x32B PUSH2 0x135 JUMP JUMPDEST PUSH2 0x33F DUP2 PUSH2 0x339 DUP5 SLOAD PUSH2 0x28E JUMP JUMPDEST DUP5 PUSH2 0x2C6 JUMP JUMPDEST PUSH1 0x20 PUSH1 0x1F DUP3 GT PUSH1 0x1 DUP2 EQ PUSH2 0x371 JUMPI PUSH0 DUP4 ISZERO PUSH2 0x35A JUMPI POP DUP5 DUP3 ADD MLOAD JUMPDEST PUSH0 NOT PUSH1 0x3 DUP6 SWAP1 SHL SHR NOT AND PUSH1 0x1 DUP5 SWAP1 SHL OR DUP5 SSTORE PUSH2 0x30A JUMP JUMPDEST PUSH0 DUP5 DUP2 MSTORE PUSH1 0x20 DUP2 KECCAK256 PUSH1 0x1F NOT DUP6 AND SWAP2 JUMPDEST DUP3 DUP2 LT ISZERO PUSH2 0x3A0 JUMPI DUP8 DUP6 ADD MLOAD DUP3 SSTORE PUSH1 0x20 SWAP5 DUP6 ADD SWAP5 PUSH1 0x1 SWAP1 SWAP3 ADD SWAP2 ADD PUSH2 0x380 JUMP JUMPDEST POP DUP5 DUP3 LT ISZERO PUSH2 0x3BD JUMPI DUP7 DUP5 ADD MLOAD PUSH0 NOT PUSH1 0x3 DUP8 SWAP1 SHL PUSH1 0xF8 AND SHR NOT AND DUP2 SSTORE JUMPDEST POP POP POP POP PUSH1 0x1 SWAP1 DUP2 SHL ADD SWAP1 SSTORE POP JUMP JUMPDEST PUSH1 0x80 MLOAD PUSH1 0xA0 MLOAD PUSH1 0xC0 MLOAD PUSH1 0xE0 MLOAD PUSH2 0x100 MLOAD PUSH2 0x1437 PUSH2 0x441 PUSH0 CODECOPY PUSH0 DUP2 DUP2 PUSH2 0x57C ADD MSTORE PUSH2 0xE65 ADD MSTORE PUSH0 DUP2 DUP2 PUSH2 0x412 ADD MSTORE DUP2 DUP2 PUSH2 0xACD ADD MSTORE PUSH2 0xBDC ADD MSTORE PUSH0 DUP2 DUP2 PUSH2 0x37C ADD MSTORE PUSH2 0x9E7 ADD MSTORE PUSH0 DUP2 DUP2 PUSH2 0x459 ADD MSTORE DUP2 DUP2 PUSH2 0x712 ADD MSTORE PUSH2 0xB24 ADD MSTORE PUSH0 DUP2 DUP2 PUSH2 0x3C7 ADD MSTORE DUP2 DUP2 PUSH2 0x890 ADD MSTORE PUSH2 0xDB1 ADD MSTORE PUSH2 0x1437 PUSH0 RETURN INVALID PUSH1 0x80 PUSH1 0x40 MSTORE PUSH1 0x4 CALLDATASIZE LT PUSH2 0x1E6 JUMPI PUSH0 CALLDATALOAD PUSH1 0xE0 SHR DUP1 PUSH4 0x4D016295 GT PUSH2 0x108 JUMPI DUP1 PUSH4 0xA9059CBB GT PUSH2 0x9D JUMPI DUP1 PUSH4 0xD505ACCF GT PUSH2 0x6D JUMPI DUP1 PUSH4 0xD505ACCF EQ PUSH2 0x5B9 JUMPI DUP1 PUSH4 0xDD62ED3E EQ PUSH2 0x5D8 JUMPI DUP1 PUSH4 0xDE899D1F EQ PUSH2 0x60C JUMPI DUP1 PUSH4 0xEA6B80B7 EQ PUSH2 0x62B JUMPI DUP1 PUSH4 0xF2FDE38B EQ PUSH2 0x64A JUMPI PUSH0 PUSH0 REVERT JUMPDEST DUP1 PUSH4 0xA9059CBB EQ PUSH2 0x54C JUMPI DUP1 PUSH4 0xAD330967 EQ PUSH2 0x56B JUMPI DUP1 PUSH4 0xAEA1E3D1 EQ PUSH2 0x59E JUMPI DUP1 PUSH4 0xBC710575 EQ PUSH2 0x5A6 JUMPI PUSH0 PUSH0 REVERT JUMPDEST DUP1 PUSH4 0x81F2D34E GT PUSH2 0xD8 JUMPI DUP1 PUSH4 0x81F2D34E EQ PUSH2 0x4F3 JUMPI DUP1 PUSH4 0x8DA5CB5B EQ PUSH2 0x507 JUMPI DUP1 PUSH4 0x95D89B41 EQ PUSH2 0x524 JUMPI DUP1 PUSH4 0x96A3958D EQ PUSH2 0x538 JUMPI PUSH0 PUSH0 REVERT JUMPDEST DUP1 PUSH4 0x4D016295 EQ PUSH2 0x448 JUMPI DUP1 PUSH4 0x70A08231 EQ PUSH2 0x47B JUMPI DUP1 PUSH4 0x715018A6 EQ PUSH2 0x4AC JUMPI DUP1 PUSH4 0x7ECEBE00 EQ PUSH2 0x4C2 JUMPI PUSH0 PUSH0 REVERT JUMPDEST DUP1 PUSH4 0x23B872DD GT PUSH2 0x17E JUMPI DUP1 PUSH4 0x367ADA10 GT PUSH2 0x14E JUMPI DUP1 PUSH4 0x367ADA10 EQ PUSH2 0x36B JUMPI DUP1 PUSH4 0x38D52E0F EQ PUSH2 0x3B6 JUMPI DUP1 PUSH4 0x3AEEADE8 EQ PUSH2 0x401 JUMPI DUP1 PUSH4 0x421C6A8A EQ PUSH2 0x434 JUMPI PUSH0 PUSH0 REVERT JUMPDEST DUP1 PUSH4 0x23B872DD EQ PUSH2 0x2FE JUMPI DUP1 PUSH4 0x25D1782D EQ PUSH2 0x31D JUMPI DUP1 PUSH4 0x313CE567 EQ PUSH2 0x33C JUMPI DUP1 PUSH4 0x3644E515 EQ PUSH2 0x357 JUMPI PUSH0 PUSH0 REVERT JUMPDEST DUP1 PUSH4 0x10AB2D01 GT PUSH2 0x1B9 JUMPI DUP1 PUSH4 0x10AB2D01 EQ PUSH2 0x285 JUMPI DUP1 PUSH4 0x127D0409 EQ PUSH2 0x2A4 JUMPI DUP1 PUSH4 0x18160DDD EQ PUSH2 0x2C3 JUMPI DUP1 PUSH4 0x19CDF284 EQ PUSH2 0x2DF JUMPI PUSH0 PUSH0 REVERT JUMPDEST DUP1 PUSH4 0x6FDDE03 EQ PUSH2 0x1EA JUMPI DUP1 PUSH4 0x8E30698 EQ PUSH2 0x214 JUMPI DUP1 PUSH4 0x95EA7B3 EQ PUSH2 0x241 JUMPI DUP1 PUSH4 0xF2A403F EQ PUSH2 0x270 JUMPI JUMPDEST PUSH0 PUSH0 REVERT JUMPDEST CALLVALUE DUP1 ISZERO PUSH2 0x1F5 JUMPI PUSH0 PUSH0 REVERT JUMPDEST POP PUSH2 0x1FE PUSH2 0x669 JUMP JUMPDEST PUSH1 0x40 MLOAD PUSH2 0x20B SWAP2 SWAP1 PUSH2 0x105F JUMP JUMPDEST PUSH1 0x40 MLOAD DUP1 SWAP2 SUB SWAP1 RETURN JUMPDEST CALLVALUE DUP1 ISZERO PUSH2 0x21F JUMPI PUSH0 PUSH0 REVERT JUMPDEST POP PUSH2 0x233 PUSH2 0x22E CALLDATASIZE PUSH1 0x4 PUSH2 0x1087 JUMP JUMPDEST PUSH2 0x6F9 JUMP JUMPDEST PUSH1 0x40 MLOAD SWAP1 DUP2 MSTORE PUSH1 0x20 ADD PUSH2 0x20B JUMP JUMPDEST CALLVALUE DUP1 ISZERO PUSH2 0x24C JUMPI PUSH0 PUSH0 REVERT JUMPDEST POP PUSH2 0x260 PUSH2 0x25B CALLDATASIZE PUSH1 0x4 PUSH2 0x10B1 JUMP JUMPDEST PUSH2 0x7B9 JUMP JUMPDEST PUSH1 0x40 MLOAD SWAP1 ISZERO ISZERO DUP2 MSTORE PUSH1 0x20 ADD PUSH2 0x20B JUMP JUMPDEST CALLVALUE DUP1 ISZERO PUSH2 0x27B JUMPI PUSH0 PUSH0 REVERT JUMPDEST POP PUSH2 0x233 PUSH1 0x1 SLOAD DUP2 JUMP JUMPDEST CALLVALUE DUP1 ISZERO PUSH2 0x290 JUMPI PUSH0 PUSH0 REVERT JUMPDEST POP PUSH2 0x1FE PUSH2 0x29F CALLDATASIZE PUSH1 0x4 PUSH2 0x10D9 JUMP JUMPDEST PUSH2 0x809 JUMP JUMPDEST CALLVALUE DUP1 ISZERO PUSH2 0x2AF JUMPI PUSH0 PUSH0 REVERT JUMPDEST POP PUSH2 0x233 PUSH2 0x2BE CALLDATASIZE PUSH1 0x4 PUSH2 0x115C JUMP JUMPDEST PUSH2 0x87A JUMP JUMPDEST CALLVALUE DUP1 ISZERO PUSH2 0x2CE JUMPI PUSH0 PUSH0 REVERT JUMPDEST POP PUSH9 0x5345CDF77EB68F44C SLOAD PUSH2 0x233 JUMP JUMPDEST CALLVALUE DUP1 ISZERO PUSH2 0x2EA JUMPI PUSH0 PUSH0 REVERT JUMPDEST POP PUSH2 0x233 PUSH2 0x2F9 CALLDATASIZE PUSH1 0x4 PUSH2 0x1189 JUMP JUMPDEST PUSH2 0x885 JUMP JUMPDEST CALLVALUE DUP1 ISZERO PUSH2 0x309 JUMPI PUSH0 PUSH0 REVERT JUMPDEST POP PUSH2 0x260 PUSH2 0x318 CALLDATASIZE PUSH1 0x4 PUSH2 0x11AB JUMP JUMPDEST PUSH2 0x933 JUMP JUMPDEST CALLVALUE DUP1 ISZERO PUSH2 0x328 JUMPI PUSH0 PUSH0 REVERT JUMPDEST POP PUSH2 0x233 PUSH2 0x337 CALLDATASIZE PUSH1 0x4 PUSH2 0x115C JUMP JUMPDEST PUSH2 0x9D8 JUMP JUMPDEST CALLVALUE DUP1 ISZERO PUSH2 0x347 JUMPI PUSH0 PUSH0 REVERT JUMPDEST POP PUSH1 0x40 MLOAD PUSH1 0x12 DUP2 MSTORE PUSH1 0x20 ADD PUSH2 0x20B JUMP JUMPDEST CALLVALUE DUP1 ISZERO PUSH2 0x362 JUMPI PUSH0 PUSH0 REVERT JUMPDEST POP PUSH2 0x233 PUSH2 0xA3B JUMP JUMPDEST CALLVALUE DUP1 ISZERO PUSH2 0x376 JUMPI PUSH0 PUSH0 REVERT JUMPDEST POP PUSH2 0x39E PUSH32 0x0 DUP2 JUMP JUMPDEST PUSH1 0x40 MLOAD PUSH1 0x1 PUSH1 0x1 PUSH1 0x80 SHL SUB SWAP1 SWAP2 AND DUP2 MSTORE PUSH1 0x20 ADD PUSH2 0x20B JUMP JUMPDEST CALLVALUE DUP1 ISZERO PUSH2 0x3C1 JUMPI PUSH0 PUSH0 REVERT JUMPDEST POP PUSH2 0x3E9 PUSH32 0x0 DUP2 JUMP JUMPDEST PUSH1 0x40 MLOAD PUSH1 0x1 PUSH1 0x1 PUSH1 0xA0 SHL SUB SWAP1 SWAP2 AND DUP2 MSTORE PUSH1 0x20 ADD PUSH2 0x20B JUMP JUMPDEST CALLVALUE DUP1 ISZERO PUSH2 0x40C JUMPI PUSH0 PUSH0 REVERT JUMPDEST POP PUSH2 0x39E PUSH32 0x0 DUP2 JUMP JUMPDEST CALLVALUE DUP1 ISZERO PUSH2 0x43F JUMPI PUSH0 PUSH0 REVERT JUMPDEST POP PUSH2 0x233 PUSH0 SLOAD DUP2 JUMP JUMPDEST CALLVALUE DUP1 ISZERO PUSH2 0x453 JUMPI PUSH0 PUSH0 REVERT JUMPDEST POP PUSH2 0x39E PUSH32 0x0 DUP2 JUMP JUMPDEST CALLVALUE DUP1 ISZERO PUSH2 0x486 JUMPI PUSH0 PUSH0 REVERT JUMPDEST POP PUSH2 0x233 PUSH2 0x495 CALLDATASIZE PUSH1 0x4 PUSH2 0x11E5 JUMP JUMPDEST PUSH4 0x87A211A2 PUSH1 0xC SWAP1 DUP2 MSTORE PUSH0 SWAP2 SWAP1 SWAP2 MSTORE PUSH1 0x20 SWAP1 KECCAK256 SLOAD SWAP1 JUMP JUMPDEST CALLVALUE DUP1 ISZERO PUSH2 0x4B7 JUMPI PUSH0 PUSH0 REVERT JUMPDEST POP PUSH2 0x4C0 PUSH2 0xAB7 JUMP JUMPDEST STOP JUMPDEST CALLVALUE DUP1 ISZERO PUSH2 0x4CD JUMPI PUSH0 PUSH0 REVERT JUMPDEST POP PUSH2 0x233 PUSH2 0x4DC CALLDATASIZE PUSH1 0x4 PUSH2 0x11E5 JUMP JUMPDEST PUSH4 0x38377508 PUSH1 0xC SWAP1 DUP2 MSTORE PUSH0 SWAP2 SWAP1 SWAP2 MSTORE PUSH1 0x20 SWAP1 KECCAK256 SLOAD SWAP1 JUMP JUMPDEST CALLVALUE DUP1 ISZERO PUSH2 0x4FE JUMPI PUSH0 PUSH0 REVERT JUMPDEST POP PUSH2 0x233 PUSH2 0xACA JUMP JUMPDEST CALLVALUE DUP1 ISZERO PUSH2 0x512 JUMPI PUSH0 PUSH0 REVERT JUMPDEST POP PUSH1 0x2 SLOAD PUSH1 0x1 PUSH1 0x1 PUSH1 0xA0 SHL SUB AND PUSH2 0x3E9 JUMP JUMPDEST CALLVALUE DUP1 ISZERO PUSH2 0x52F JUMPI PUSH0 PUSH0 REVERT JUMPDEST POP PUSH2 0x1FE PUSH2 0xB12 JUMP JUMPDEST CALLVALUE DUP1 ISZERO PUSH2 0x543 JUMPI PUSH0 PUSH0 REVERT JUMPDEST POP PUSH2 0x233 PUSH2 0xB21 JUMP JUMPDEST CALLVALUE DUP1 ISZERO PUSH2 0x557 JUMPI PUSH0 PUSH0 REVERT JUMPDEST POP PUSH2 0x260 PUSH2 0x566 CALLDATASIZE PUSH1 0x4 PUSH2 0x10B1 JUMP JUMPDEST PUSH2 0xB59 JUMP JUMPDEST CALLVALUE DUP1 ISZERO PUSH2 0x576 JUMPI PUSH0 PUSH0 REVERT JUMPDEST POP PUSH2 0x39E PUSH32 0x0 DUP2 JUMP JUMPDEST PUSH2 0x233 PUSH2 0xBBD JUMP JUMPDEST PUSH2 0x233 PUSH2 0x5B4 CALLDATASIZE PUSH1 0x4 PUSH2 0x11E5 JUMP JUMPDEST PUSH2 0xBC3 JUMP JUMPDEST CALLVALUE DUP1 ISZERO PUSH2 0x5C4 JUMPI PUSH0 PUSH0 REVERT JUMPDEST POP PUSH2 0x4C0 PUSH2 0x5D3 CALLDATASIZE PUSH1 0x4 PUSH2 0x120E JUMP JUMPDEST PUSH2 0xC22 JUMP JUMPDEST CALLVALUE DUP1 ISZERO PUSH2 0x5E3 JUMPI PUSH0 PUSH0 REVERT JUMPDEST POP PUSH2 0x233 PUSH2 0x5F2 CALLDATASIZE PUSH1 0x4 PUSH2 0x1274 JUMP JUMPDEST PUSH1 0x20 MSTORE PUSH4 0x7F5E9F20 PUSH1 0xC SWAP1 DUP2 MSTORE PUSH0 SWAP2 SWAP1 SWAP2 MSTORE PUSH1 0x34 SWAP1 KECCAK256 SLOAD SWAP1 JUMP JUMPDEST CALLVALUE DUP1 ISZERO PUSH2 0x617 JUMPI PUSH0 PUSH0 REVERT JUMPDEST POP PUSH2 0x233 PUSH2 0x626 CALLDATASIZE PUSH1 0x4 PUSH2 0x129C JUMP JUMPDEST PUSH2 0xDA6 JUMP JUMPDEST CALLVALUE DUP1 ISZERO PUSH2 0x636 JUMPI PUSH0 PUSH0 REVERT JUMPDEST POP PUSH2 0x233 PUSH2 0x645 CALLDATASIZE PUSH1 0x4 PUSH2 0x115C JUMP JUMPDEST PUSH2 0xE56 JUMP JUMPDEST CALLVALUE DUP1 ISZERO PUSH2 0x655 JUMPI PUSH0 PUSH0 REVERT JUMPDEST POP PUSH2 0x4C0 PUSH2 0x664 CALLDATASIZE PUSH1 0x4 PUSH2 0x11E5 JUMP JUMPDEST PUSH2 0xEA7 JUMP JUMPDEST PUSH1 0x60 PUSH1 0x3 DUP1 SLOAD PUSH2 0x678 SWAP1 PUSH2 0x12D6 JUMP JUMPDEST DUP1 PUSH1 0x1F ADD PUSH1 0x20 DUP1 SWAP2 DIV MUL PUSH1 0x20 ADD PUSH1 0x40 MLOAD SWAP1 DUP2 ADD PUSH1 0x40 MSTORE DUP1 SWAP3 SWAP2 SWAP1 DUP2 DUP2 MSTORE PUSH1 0x20 ADD DUP3 DUP1 SLOAD PUSH2 0x6A4 SWAP1 PUSH2 0x12D6 JUMP JUMPDEST DUP1 ISZERO PUSH2 0x6EF JUMPI DUP1 PUSH1 0x1F LT PUSH2 0x6C6 JUMPI PUSH2 0x100 DUP1 DUP4 SLOAD DIV MUL DUP4 MSTORE SWAP2 PUSH1 0x20 ADD SWAP2 PUSH2 0x6EF JUMP JUMPDEST DUP3 ADD SWAP2 SWAP1 PUSH0 MSTORE PUSH1 0x20 PUSH0 KECCAK256 SWAP1 JUMPDEST DUP2 SLOAD DUP2 MSTORE SWAP1 PUSH1 0x1 ADD SWAP1 PUSH1 0x20 ADD DUP1 DUP4 GT PUSH2 0x6D2 JUMPI DUP3 SWAP1 SUB PUSH1 0x1F AND DUP3 ADD SWAP2 JUMPDEST POP POP POP POP POP SWAP1 POP SWAP1 JUMP JUMPDEST PUSH0 PUSH2 0x703 DUP4 PUSH2 0x9D8 JUMP JUMPDEST SWAP1 POP PUSH2 0x738 PUSH1 0x1 PUSH1 0x1 PUSH1 0x80 SHL SUB PUSH32 0x0 AND DUP3 PUSH2 0x131C JUMP JUMPDEST PUSH0 PUSH0 DUP3 DUP3 SLOAD PUSH2 0x747 SWAP2 SWAP1 PUSH2 0x133B JUMP JUMPDEST SWAP1 SWAP2 SSTORE POP PUSH2 0x757 SWAP1 POP CALLER DUP5 PUSH2 0xEE9 JUMP JUMPDEST PUSH0 DUP3 PUSH1 0x1 PUSH1 0x1 PUSH1 0xA0 SHL SUB AND DUP3 PUSH1 0x40 MLOAD PUSH0 PUSH1 0x40 MLOAD DUP1 DUP4 SUB DUP2 DUP6 DUP8 GAS CALL SWAP3 POP POP POP RETURNDATASIZE DUP1 PUSH0 DUP2 EQ PUSH2 0x7A0 JUMPI PUSH1 0x40 MLOAD SWAP2 POP PUSH1 0x1F NOT PUSH1 0x3F RETURNDATASIZE ADD AND DUP3 ADD PUSH1 0x40 MSTORE RETURNDATASIZE DUP3 MSTORE RETURNDATASIZE PUSH0 PUSH1 0x20 DUP5 ADD RETURNDATACOPY PUSH2 0x7A5 JUMP JUMPDEST PUSH1 0x60 SWAP2 POP JUMPDEST POP POP SWAP1 POP DUP1 PUSH2 0x7B2 JUMPI PUSH0 PUSH0 REVERT JUMPDEST POP SWAP3 SWAP2 POP POP JUMP JUMPDEST PUSH0 DUP3 PUSH1 0x20 MSTORE PUSH4 0x7F5E9F20 PUSH1 0xC MSTORE CALLER PUSH0 MSTORE DUP2 PUSH1 0x34 PUSH1 0xC KECCAK256 SSTORE DUP2 PUSH0 MSTORE PUSH1 0x2C MLOAD PUSH1 0x60 SHR CALLER PUSH32 0x8C5BE1E5EBEC7D5BD14F71427D1E84F3DD0314C0F7B2291E5B200AC8C7C3B925 PUSH1 0x20 PUSH0 LOG3 POP PUSH1 0x1 JUMPDEST SWAP3 SWAP2 POP POP JUMP JUMPDEST PUSH1 0x60 PUSH2 0x813 PUSH2 0xF4A JUMP JUMPDEST PUSH0 DUP6 PUSH1 0x1 PUSH1 0x1 PUSH1 0xA0 SHL SUB AND DUP6 DUP6 DUP6 PUSH1 0x40 MLOAD PUSH2 0x82F SWAP3 SWAP2 SWAP1 PUSH2 0x134E JUMP JUMPDEST PUSH0 PUSH1 0x40 MLOAD DUP1 DUP4 SUB DUP2 DUP6 DUP8 GAS CALL SWAP3 POP POP POP RETURNDATASIZE DUP1 PUSH0 DUP2 EQ PUSH2 0x869 JUMPI PUSH1 0x40 MLOAD SWAP2 POP PUSH1 0x1F NOT PUSH1 0x3F RETURNDATASIZE ADD AND DUP3 ADD PUSH1 0x40 MSTORE RETURNDATASIZE DUP3 MSTORE RETURNDATASIZE PUSH0 PUSH1 0x20 DUP5 ADD RETURNDATACOPY PUSH2 0x86E JUMP JUMPDEST PUSH1 0x60 SWAP2 POP JUMPDEST POP SWAP8 SWAP7 POP POP POP POP POP POP POP JUMP JUMPDEST PUSH0 PUSH2 0x803 DUP3 CALLER PUSH2 0x6F9 JUMP JUMPDEST PUSH0 PUSH1 0x1 PUSH1 0x1 PUSH1 0xA0 SHL SUB PUSH32 0x0 AND PUSH4 0xD505ACCF CALLER ADDRESS DUP7 DUP7 CALLDATALOAD PUSH2 0x8CA PUSH1 0x40 DUP10 ADD PUSH1 0x20 DUP11 ADD PUSH2 0x135D JUMP JUMPDEST DUP9 PUSH1 0x40 ADD CALLDATALOAD DUP10 PUSH1 0x60 ADD CALLDATALOAD PUSH1 0x40 MLOAD DUP9 PUSH4 0xFFFFFFFF AND PUSH1 0xE0 SHL DUP2 MSTORE PUSH1 0x4 ADD PUSH2 0x8F6 SWAP8 SWAP7 SWAP6 SWAP5 SWAP4 SWAP3 SWAP2 SWAP1 PUSH2 0x1376 JUMP JUMPDEST PUSH0 PUSH1 0x40 MLOAD DUP1 DUP4 SUB DUP2 PUSH0 DUP8 DUP1 EXTCODESIZE ISZERO DUP1 ISZERO PUSH2 0x90D JUMPI PUSH0 PUSH0 REVERT JUMPDEST POP GAS CALL ISZERO DUP1 ISZERO PUSH2 0x91F JUMPI RETURNDATASIZE PUSH0 PUSH0 RETURNDATACOPY RETURNDATASIZE PUSH0 REVERT JUMPDEST POP POP POP POP PUSH2 0x92C DUP4 PUSH2 0x87A JUMP JUMPDEST SWAP4 SWAP3 POP POP POP JUMP JUMPDEST PUSH0 DUP4 PUSH1 0x60 SHL CALLER PUSH1 0x20 MSTORE PUSH4 0x7F5E9F20 DUP2 OR PUSH1 0xC MSTORE PUSH1 0x34 PUSH1 0xC KECCAK256 DUP1 SLOAD DUP1 NOT ISZERO PUSH2 0x96F JUMPI DUP1 DUP6 GT ISZERO PUSH2 0x969 JUMPI PUSH4 0x13BE252B PUSH0 MSTORE PUSH1 0x4 PUSH1 0x1C REVERT JUMPDEST DUP5 DUP2 SUB DUP3 SSTORE JUMPDEST POP POP PUSH4 0x87A211A2 DUP2 OR PUSH1 0xC MSTORE PUSH1 0x20 PUSH1 0xC KECCAK256 DUP1 SLOAD DUP1 DUP6 GT ISZERO PUSH2 0x997 JUMPI PUSH4 0xF4D678B8 PUSH0 MSTORE PUSH1 0x4 PUSH1 0x1C REVERT JUMPDEST DUP5 DUP2 SUB DUP3 SSTORE POP POP DUP4 PUSH0 MSTORE PUSH1 0x20 PUSH1 0xC KECCAK256 DUP4 DUP2 SLOAD ADD DUP2 SSTORE POP DUP3 PUSH1 0x20 MSTORE PUSH1 0xC MLOAD PUSH1 0x60 SHR DUP2 PUSH1 0x60 SHR PUSH0 MLOAD PUSH1 0x20 PUSH2 0x13E2 PUSH0 CODECOPY PUSH0 MLOAD SWAP1 PUSH0 MSTORE PUSH1 0x20 DUP1 LOG3 POP POP PUSH1 0x1 SWAP4 SWAP3 POP POP POP JUMP JUMPDEST PUSH0 PUSH2 0xA0C DUP3 PUSH1 0x1 PUSH1 0x1 PUSH1 0x80 SHL SUB PUSH32 0x0 AND PUSH2 0x133B JUMP JUMPDEST DUP3 PUSH2 0xA15 PUSH2 0xB21 JUMP JUMPDEST PUSH2 0xA1F SWAP2 SWAP1 PUSH2 0x13B7 JUMP JUMPDEST PUSH2 0xA29 SWAP2 SWAP1 PUSH2 0x131C JUMP JUMPDEST SWAP1 POP DUP1 SELFBALANCE LT ISZERO PUSH2 0xA36 JUMPI POP SELFBALANCE JUMPDEST SWAP2 SWAP1 POP JUMP JUMPDEST PUSH0 DUP1 PUSH2 0xA45 PUSH2 0x669 JUMP JUMPDEST DUP1 MLOAD SWAP1 PUSH1 0x20 ADD KECCAK256 SWAP1 POP PUSH1 0x40 DUP1 MLOAD PUSH32 0x8B73C3C69BB8FE3D512ECC4CF759CC79239F7B179B0FFACAA9A75D522B39400F DUP2 MSTORE PUSH1 0x20 DUP2 ADD SWAP3 SWAP1 SWAP3 MSTORE PUSH32 0xC89EFDAA54C0F20C7ADF612882DF0950F5A951637E0307CDCB4C672F298B8BC6 SWAP1 DUP3 ADD MSTORE CHAINID PUSH1 0x60 DUP3 ADD MSTORE ADDRESS PUSH1 0x80 DUP3 ADD MSTORE PUSH1 0xA0 SWAP1 KECCAK256 SWAP2 SWAP1 POP JUMP JUMPDEST PUSH2 0xABF PUSH2 0xF4A JUMP JUMPDEST PUSH2 0xAC8 PUSH0 PUSH2 0xF77 JUMP JUMPDEST JUMP JUMPDEST PUSH0 PUSH32 0x0 PUSH1 0x1 PUSH1 0x1 PUSH1 0x80 SHL SUB AND PUSH1 0x1 SLOAD TIMESTAMP PUSH2 0xB03 SWAP2 SWAP1 PUSH2 0x13CE JUMP JUMPDEST PUSH2 0xB0D SWAP2 SWAP1 PUSH2 0x13B7 JUMP JUMPDEST SWAP1 POP SWAP1 JUMP JUMPDEST PUSH1 0x60 PUSH1 0x4 DUP1 SLOAD PUSH2 0x678 SWAP1 PUSH2 0x12D6 JUMP JUMPDEST PUSH0 PUSH32 0x0 PUSH1 0x1 PUSH1 0x1 PUSH1 0x80 SHL SUB AND PUSH0 SLOAD TIMESTAMP PUSH2 0xB03 SWAP2 SWAP1 PUSH2 0x13CE JUMP JUMPDEST PUSH0 PUSH4 0x87A211A2 PUSH1 0xC MSTORE CALLER PUSH0 MSTORE PUSH1 0x20 PUSH1 0xC KECCAK256 DUP1 SLOAD DUP1 DUP5 GT ISZERO PUSH2 0xB81 JUMPI PUSH4 0xF4D678B8 PUSH0 MSTORE PUSH1 0x4 PUSH1 0x1C REVERT JUMPDEST DUP4 DUP2 SUB DUP3 SSTORE POP POP DUP3 PUSH0 MSTORE PUSH1 0x20 PUSH1 0xC KECCAK256 DUP3 DUP2 SLOAD ADD DUP2 SSTORE POP DUP2 PUSH1 0x20 MSTORE PUSH1 0xC MLOAD PUSH1 0x60 SHR CALLER PUSH0 MLOAD PUSH1 0x20 PUSH2 0x13E2 PUSH0 CODECOPY PUSH0 MLOAD SWAP1 PUSH0 MSTORE PUSH1 0x20 DUP1 LOG3 POP PUSH1 0x1 SWAP3 SWAP2 POP POP JUMP JUMPDEST PUSH0 PUSH2 0xB0D CALLER JUMPDEST PUSH0 PUSH2 0xBCD CALLVALUE PUSH2 0xE56 JUMP JUMPDEST SWAP1 POP PUSH2 0xC02 PUSH1 0x1 PUSH1 0x1 PUSH1 0x80 SHL SUB PUSH32 0x0 AND DUP3 PUSH2 0x131C JUMP JUMPDEST PUSH1 0x1 PUSH0 DUP3 DUP3 SLOAD PUSH2 0xC12 SWAP2 SWAP1 PUSH2 0x133B JUMP JUMPDEST SWAP1 SWAP2 SSTORE POP PUSH2 0xA36 SWAP1 POP DUP3 DUP3 PUSH2 0xFC8 JUMP JUMPDEST PUSH0 PUSH2 0xC2B PUSH2 0x669 JUMP JUMPDEST DUP1 MLOAD SWAP1 PUSH1 0x20 ADD KECCAK256 SWAP1 POP PUSH32 0xC89EFDAA54C0F20C7ADF612882DF0950F5A951637E0307CDCB4C672F298B8BC6 TIMESTAMP DUP7 LT ISZERO PUSH2 0xC6A JUMPI PUSH4 0x1A15A3CC PUSH0 MSTORE PUSH1 0x4 PUSH1 0x1C REVERT JUMPDEST PUSH1 0x40 MLOAD DUP10 PUSH1 0x60 SHL PUSH1 0x60 SHR SWAP10 POP DUP9 PUSH1 0x60 SHL PUSH1 0x60 SHR SWAP9 POP PUSH6 0x383775081901 PUSH1 0xE MSTORE DUP10 PUSH0 MSTORE PUSH1 0x20 PUSH1 0xC KECCAK256 DUP1 SLOAD PUSH32 0x8B73C3C69BB8FE3D512ECC4CF759CC79239F7B179B0FFACAA9A75D522B39400F DUP4 MSTORE DUP5 PUSH1 0x20 DUP5 ADD MSTORE DUP4 PUSH1 0x40 DUP5 ADD MSTORE CHAINID PUSH1 0x60 DUP5 ADD MSTORE ADDRESS PUSH1 0x80 DUP5 ADD MSTORE PUSH1 0xA0 DUP4 KECCAK256 PUSH1 0x2E MSTORE PUSH32 0x6E71EDAE12B1B97F4D1F60370FEF10105FA2FAAE0126114A169C64845D6126C9 DUP4 MSTORE DUP12 PUSH1 0x20 DUP5 ADD MSTORE DUP11 PUSH1 0x40 DUP5 ADD MSTORE DUP10 PUSH1 0x60 DUP5 ADD MSTORE DUP1 PUSH1 0x80 DUP5 ADD MSTORE DUP9 PUSH1 0xA0 DUP5 ADD MSTORE PUSH1 0xC0 DUP4 KECCAK256 PUSH1 0x4E MSTORE PUSH1 0x42 PUSH1 0x2C KECCAK256 PUSH0 MSTORE DUP8 PUSH1 0xFF AND PUSH1 0x20 MSTORE DUP7 PUSH1 0x40 MSTORE DUP6 PUSH1 0x60 MSTORE PUSH1 0x20 DUP1 PUSH1 0x80 PUSH0 PUSH1 0x1 GAS STATICCALL DUP13 RETURNDATASIZE MLOAD EQ PUSH2 0xD52 JUMPI PUSH4 0xDDAFBAEF PUSH0 MSTORE PUSH1 0x4 PUSH1 0x1C REVERT JUMPDEST ADD SWAP1 SSTORE PUSH4 0x3FAF4F9 PUSH1 0xA5 SHL DUP10 OR PUSH1 0x40 MSTORE PUSH1 0x34 PUSH1 0x2C KECCAK256 DUP9 SWAP1 SSTORE DUP9 DUP11 PUSH32 0x8C5BE1E5EBEC7D5BD14F71427D1E84F3DD0314C0F7B2291E5B200AC8C7C3B925 PUSH1 0x20 PUSH1 0x60 DUP6 ADD LOG3 PUSH1 0x40 MSTORE POP POP PUSH0 PUSH1 0x60 MSTORE POP POP POP POP POP POP POP JUMP JUMPDEST PUSH0 PUSH1 0x1 PUSH1 0x1 PUSH1 0xA0 SHL SUB PUSH32 0x0 AND PUSH4 0xD505ACCF CALLER ADDRESS DUP8 DUP7 CALLDATALOAD PUSH2 0xDEB PUSH1 0x40 DUP10 ADD PUSH1 0x20 DUP11 ADD PUSH2 0x135D JUMP JUMPDEST DUP9 PUSH1 0x40 ADD CALLDATALOAD DUP10 PUSH1 0x60 ADD CALLDATALOAD PUSH1 0x40 MLOAD DUP9 PUSH4 0xFFFFFFFF AND PUSH1 0xE0 SHL DUP2 MSTORE PUSH1 0x4 ADD PUSH2 0xE17 SWAP8 SWAP7 SWAP6 SWAP5 SWAP4 SWAP3 SWAP2 SWAP1 PUSH2 0x1376 JUMP JUMPDEST PUSH0 PUSH1 0x40 MLOAD DUP1 DUP4 SUB DUP2 PUSH0 DUP8 DUP1 EXTCODESIZE ISZERO DUP1 ISZERO PUSH2 0xE2E JUMPI PUSH0 PUSH0 REVERT JUMPDEST POP GAS CALL ISZERO DUP1 ISZERO PUSH2 0xE40 JUMPI RETURNDATASIZE PUSH0 PUSH0 RETURNDATACOPY RETURNDATASIZE PUSH0 REVERT JUMPDEST POP POP POP POP PUSH2 0xE4E DUP5 DUP5 PUSH2 0x6F9 JUMP JUMPDEST SWAP5 SWAP4 POP POP POP POP JUMP JUMPDEST PUSH0 PUSH2 0xE8A DUP3 PUSH1 0x1 PUSH1 0x1 PUSH1 0x80 SHL SUB PUSH32 0x0 AND PUSH2 0x133B JUMP JUMPDEST DUP3 PUSH2 0xE93 PUSH2 0xACA JUMP JUMPDEST PUSH2 0xE9D SWAP2 SWAP1 PUSH2 0x13B7 JUMP JUMPDEST PUSH2 0x803 SWAP2 SWAP1 PUSH2 0x131C JUMP JUMPDEST PUSH2 0xEAF PUSH2 0xF4A JUMP JUMPDEST PUSH1 0x1 PUSH1 0x1 PUSH1 0xA0 SHL SUB DUP2 AND PUSH2 0xEDD JUMPI PUSH1 0x40 MLOAD PUSH4 0x1E4FBDF7 PUSH1 0xE0 SHL DUP2 MSTORE PUSH0 PUSH1 0x4 DUP3 ADD MSTORE PUSH1 0x24 ADD JUMPDEST PUSH1 0x40 MLOAD DUP1 SWAP2 SUB SWAP1 REVERT JUMPDEST PUSH2 0xEE6 DUP2 PUSH2 0xF77 JUMP JUMPDEST POP JUMP JUMPDEST PUSH4 0x87A211A2 PUSH1 0xC MSTORE DUP2 PUSH0 MSTORE PUSH1 0x20 PUSH1 0xC KECCAK256 DUP1 SLOAD DUP1 DUP4 GT ISZERO PUSH2 0xF10 JUMPI PUSH4 0xF4D678B8 PUSH0 MSTORE PUSH1 0x4 PUSH1 0x1C REVERT JUMPDEST DUP3 SWAP1 SUB SWAP1 SSTORE PUSH9 0x5345CDF77EB68F44C DUP1 SLOAD DUP3 SWAP1 SUB SWAP1 SSTORE PUSH0 DUP2 DUP2 MSTORE PUSH1 0x1 PUSH1 0x1 PUSH1 0xA0 SHL SUB DUP4 AND PUSH0 MLOAD PUSH1 0x20 PUSH2 0x13E2 PUSH0 CODECOPY PUSH0 MLOAD SWAP1 PUSH0 MSTORE PUSH1 0x20 DUP4 LOG3 POP POP JUMP JUMPDEST PUSH1 0x2 SLOAD PUSH1 0x1 PUSH1 0x1 PUSH1 0xA0 SHL SUB AND CALLER EQ PUSH2 0xAC8 JUMPI PUSH1 0x40 MLOAD PUSH4 0x118CDAA7 PUSH1 0xE0 SHL DUP2 MSTORE CALLER PUSH1 0x4 DUP3 ADD MSTORE PUSH1 0x24 ADD PUSH2 0xED4 JUMP JUMPDEST PUSH1 0x2 DUP1 SLOAD PUSH1 0x1 PUSH1 0x1 PUSH1 0xA0 SHL SUB DUP4 DUP2 AND PUSH1 0x1 PUSH1 0x1 PUSH1 0xA0 SHL SUB NOT DUP4 AND DUP2 OR SWAP1 SWAP4 SSTORE PUSH1 0x40 MLOAD SWAP2 AND SWAP2 SWAP1 DUP3 SWAP1 PUSH32 0x8BE0079C531659141344CD1FD0A4F28419497F9722A3DAAFE3B4186F6B6457E0 SWAP1 PUSH0 SWAP1 LOG3 POP POP JUMP JUMPDEST PUSH9 0x5345CDF77EB68F44C SLOAD DUP2 DUP2 ADD DUP2 DUP2 LT ISZERO PUSH2 0xFEB JUMPI PUSH4 0xE5CFE957 PUSH0 MSTORE PUSH1 0x4 PUSH1 0x1C REVERT JUMPDEST DUP1 PUSH9 0x5345CDF77EB68F44C SSTORE POP POP PUSH4 0x87A211A2 PUSH1 0xC MSTORE DUP2 PUSH0 MSTORE PUSH1 0x20 PUSH1 0xC KECCAK256 DUP2 DUP2 SLOAD ADD DUP2 SSTORE POP DUP1 PUSH1 0x20 MSTORE PUSH1 0xC MLOAD PUSH1 0x60 SHR PUSH0 PUSH0 MLOAD PUSH1 0x20 PUSH2 0x13E2 PUSH0 CODECOPY PUSH0 MLOAD SWAP1 PUSH0 MSTORE PUSH1 0x20 DUP1 LOG3 POP POP JUMP JUMPDEST PUSH0 DUP2 MLOAD DUP1 DUP5 MSTORE DUP1 PUSH1 0x20 DUP5 ADD PUSH1 0x20 DUP7 ADD MCOPY PUSH0 PUSH1 0x20 DUP3 DUP7 ADD ADD MSTORE PUSH1 0x20 PUSH1 0x1F NOT PUSH1 0x1F DUP4 ADD AND DUP6 ADD ADD SWAP2 POP POP SWAP3 SWAP2 POP POP JUMP JUMPDEST PUSH1 0x20 DUP2 MSTORE PUSH0 PUSH2 0x92C PUSH1 0x20 DUP4 ADD DUP5 PUSH2 0x1031 JUMP JUMPDEST DUP1 CALLDATALOAD PUSH1 0x1 PUSH1 0x1 PUSH1 0xA0 SHL SUB DUP2 AND DUP2 EQ PUSH2 0xA36 JUMPI PUSH0 PUSH0 REVERT JUMPDEST PUSH0 PUSH0 PUSH1 0x40 DUP4 DUP6 SUB SLT ISZERO PUSH2 0x1098 JUMPI PUSH0 PUSH0 REVERT JUMPDEST DUP3 CALLDATALOAD SWAP2 POP PUSH2 0x10A8 PUSH1 0x20 DUP5 ADD PUSH2 0x1071 JUMP JUMPDEST SWAP1 POP SWAP3 POP SWAP3 SWAP1 POP JUMP JUMPDEST PUSH0 PUSH0 PUSH1 0x40 DUP4 DUP6 SUB SLT ISZERO PUSH2 0x10C2 JUMPI PUSH0 PUSH0 REVERT JUMPDEST PUSH2 0x10CB DUP4 PUSH2 0x1071 JUMP JUMPDEST SWAP5 PUSH1 0x20 SWAP4 SWAP1 SWAP4 ADD CALLDATALOAD SWAP4 POP POP POP JUMP JUMPDEST PUSH0 PUSH0 PUSH0 PUSH0 PUSH1 0x60 DUP6 DUP8 SUB SLT ISZERO PUSH2 0x10EC JUMPI PUSH0 PUSH0 REVERT JUMPDEST PUSH2 0x10F5 DUP6 PUSH2 0x1071 JUMP JUMPDEST SWAP4 POP PUSH1 0x20 DUP6 ADD CALLDATALOAD SWAP3 POP PUSH1 0x40 DUP6 ADD CALLDATALOAD PUSH8 0xFFFFFFFFFFFFFFFF DUP2 GT ISZERO PUSH2 0x1117 JUMPI PUSH0 PUSH0 REVERT JUMPDEST DUP6 ADD PUSH1 0x1F DUP2 ADD DUP8 SGT PUSH2 0x1127 JUMPI PUSH0 PUSH0 REVERT JUMPDEST DUP1 CALLDATALOAD PUSH8 0xFFFFFFFFFFFFFFFF DUP2 GT ISZERO PUSH2 0x113D JUMPI PUSH0 PUSH0 REVERT JUMPDEST DUP8 PUSH1 0x20 DUP3 DUP5 ADD ADD GT ISZERO PUSH2 0x114E JUMPI PUSH0 PUSH0 REVERT JUMPDEST SWAP5 SWAP8 SWAP4 SWAP7 POP PUSH1 0x20 ADD SWAP5 POP POP POP JUMP JUMPDEST PUSH0 PUSH1 0x20 DUP3 DUP5 SUB SLT ISZERO PUSH2 0x116C JUMPI PUSH0 PUSH0 REVERT JUMPDEST POP CALLDATALOAD SWAP2 SWAP1 POP JUMP JUMPDEST PUSH0 PUSH1 0x80 DUP3 DUP5 SUB SLT ISZERO PUSH2 0x1183 JUMPI PUSH0 PUSH0 REVERT JUMPDEST POP SWAP2 SWAP1 POP JUMP JUMPDEST PUSH0 PUSH0 PUSH1 0xA0 DUP4 DUP6 SUB SLT ISZERO PUSH2 0x119A JUMPI PUSH0 PUSH0 REVERT JUMPDEST DUP3 CALLDATALOAD SWAP2 POP PUSH2 0x10A8 DUP5 PUSH1 0x20 DUP6 ADD PUSH2 0x1173 JUMP JUMPDEST PUSH0 PUSH0 PUSH0 PUSH1 0x60 DUP5 DUP7 SUB SLT ISZERO PUSH2 0x11BD JUMPI PUSH0 PUSH0 REVERT JUMPDEST PUSH2 0x11C6 DUP5 PUSH2 0x1071 JUMP JUMPDEST SWAP3 POP PUSH2 0x11D4 PUSH1 0x20 DUP6 ADD PUSH2 0x1071 JUMP JUMPDEST SWAP3 SWAP6 SWAP3 SWAP5 POP POP POP PUSH1 0x40 SWAP2 SWAP1 SWAP2 ADD CALLDATALOAD SWAP1 JUMP JUMPDEST PUSH0 PUSH1 0x20 DUP3 DUP5 SUB SLT ISZERO PUSH2 0x11F5 JUMPI PUSH0 PUSH0 REVERT JUMPDEST PUSH2 0x92C DUP3 PUSH2 0x1071 JUMP JUMPDEST DUP1 CALLDATALOAD PUSH1 0xFF DUP2 AND DUP2 EQ PUSH2 0xA36 JUMPI PUSH0 PUSH0 REVERT JUMPDEST PUSH0 PUSH0 PUSH0 PUSH0 PUSH0 PUSH0 PUSH0 PUSH1 0xE0 DUP9 DUP11 SUB SLT ISZERO PUSH2 0x1224 JUMPI PUSH0 PUSH0 REVERT JUMPDEST PUSH2 0x122D DUP9 PUSH2 0x1071 JUMP JUMPDEST SWAP7 POP PUSH2 0x123B PUSH1 0x20 DUP10 ADD PUSH2 0x1071 JUMP JUMPDEST SWAP6 POP PUSH1 0x40 DUP9 ADD CALLDATALOAD SWAP5 POP PUSH1 0x60 DUP9 ADD CALLDATALOAD SWAP4 POP PUSH2 0x1257 PUSH1 0x80 DUP10 ADD PUSH2 0x11FE JUMP JUMPDEST SWAP7 SWAP10 SWAP6 SWAP9 POP SWAP4 SWAP7 SWAP3 SWAP6 SWAP5 PUSH1 0xA0 DUP5 ADD CALLDATALOAD SWAP5 POP PUSH1 0xC0 SWAP1 SWAP4 ADD CALLDATALOAD SWAP3 SWAP2 POP POP JUMP JUMPDEST PUSH0 PUSH0 PUSH1 0x40 DUP4 DUP6 SUB SLT ISZERO PUSH2 0x1285 JUMPI PUSH0 PUSH0 REVERT JUMPDEST PUSH2 0x128E DUP4 PUSH2 0x1071 JUMP JUMPDEST SWAP2 POP PUSH2 0x10A8 PUSH1 0x20 DUP5 ADD PUSH2 0x1071 JUMP JUMPDEST PUSH0 PUSH0 PUSH0 PUSH1 0xC0 DUP5 DUP7 SUB SLT ISZERO PUSH2 0x12AE JUMPI PUSH0 PUSH0 REVERT JUMPDEST DUP4 CALLDATALOAD SWAP3 POP PUSH2 0x12BE PUSH1 0x20 DUP6 ADD PUSH2 0x1071 JUMP JUMPDEST SWAP2 POP PUSH2 0x12CD DUP6 PUSH1 0x40 DUP7 ADD PUSH2 0x1173 JUMP JUMPDEST SWAP1 POP SWAP3 POP SWAP3 POP SWAP3 JUMP JUMPDEST PUSH1 0x1 DUP2 DUP2 SHR SWAP1 DUP3 AND DUP1 PUSH2 0x12EA JUMPI PUSH1 0x7F DUP3 AND SWAP2 POP JUMPDEST PUSH1 0x20 DUP3 LT DUP2 SUB PUSH2 0x1183 JUMPI PUSH4 0x4E487B71 PUSH1 0xE0 SHL PUSH0 MSTORE PUSH1 0x22 PUSH1 0x4 MSTORE PUSH1 0x24 PUSH0 REVERT JUMPDEST PUSH4 0x4E487B71 PUSH1 0xE0 SHL PUSH0 MSTORE PUSH1 0x11 PUSH1 0x4 MSTORE PUSH1 0x24 PUSH0 REVERT JUMPDEST PUSH0 DUP3 PUSH2 0x1336 JUMPI PUSH4 0x4E487B71 PUSH1 0xE0 SHL PUSH0 MSTORE PUSH1 0x12 PUSH1 0x4 MSTORE PUSH1 0x24 PUSH0 REVERT JUMPDEST POP DIV SWAP1 JUMP JUMPDEST DUP1 DUP3 ADD DUP1 DUP3 GT ISZERO PUSH2 0x803 JUMPI PUSH2 0x803 PUSH2 0x1308 JUMP JUMPDEST DUP2 DUP4 DUP3 CALLDATACOPY PUSH0 SWAP2 ADD SWAP1 DUP2 MSTORE SWAP2 SWAP1 POP JUMP JUMPDEST PUSH0 PUSH1 0x20 DUP3 DUP5 SUB SLT ISZERO PUSH2 0x136D JUMPI PUSH0 PUSH0 REVERT JUMPDEST PUSH2 0x92C DUP3 PUSH2 0x11FE JUMP JUMPDEST PUSH1 0x1 PUSH1 0x1 PUSH1 0xA0 SHL SUB SWAP8 DUP9 AND DUP2 MSTORE SWAP6 SWAP1 SWAP7 AND PUSH1 0x20 DUP7 ADD MSTORE PUSH1 0x40 DUP6 ADD SWAP4 SWAP1 SWAP4 MSTORE PUSH1 0x60 DUP5 ADD SWAP2 SWAP1 SWAP2 MSTORE PUSH1 0xFF AND PUSH1 0x80 DUP4 ADD MSTORE PUSH1 0xA0 DUP3 ADD MSTORE PUSH1 0xC0 DUP2 ADD SWAP2 SWAP1 SWAP2 MSTORE PUSH1 0xE0 ADD SWAP1 JUMP JUMPDEST DUP1 DUP3 MUL DUP2 ISZERO DUP3 DUP3 DIV DUP5 EQ OR PUSH2 0x803 JUMPI PUSH2 0x803 PUSH2 0x1308 JUMP JUMPDEST DUP2 DUP2 SUB DUP2 DUP2 GT ISZERO PUSH2 0x803 JUMPI PUSH2 0x803 PUSH2 0x1308 JUMP INVALID 0xDD CALLCODE MSTORE 0xAD SHL 0xE2 0xC8 SWAP12 PUSH10 0xC2B068FC378DAA952BA7 CALL PUSH4 0xC4A11628 CREATE2 GAS 0x4D CREATE2 0x23 0xB3 0xEF LOG2 PUSH5 0x6970667358 0x22 SLT KECCAK256 MOD 0xFC DUP9 0xBF 0xE2 SWAP10 ADDRESS RETURN 0xFC 0x1F DUP12 GT TSTORE 0xD9 SIGNEXTEND SWAP12 POP DUP5 DUP10 0xD8 INVALID 0xD4 PUSH9 0x1B4C2CAC0F87A5C055 PUSH5 0x736F6C6343 STOP ADDMOD SHR STOP CALLER "
		},
		"gasEstimates": {
			"creation": {
				"codeDepositCost": "1035000",
				"executionCost": "infinite",
				"totalCost": "infinite"
			},
			"external": {
				"DOMAIN_SEPARATOR()": "infinite",
				"allowance(address,address)": "infinite",
				"approve(address,uint256)": "24454",
				"asset()": "infinite",
				"balanceOf(address)": "2587",
				"customCall(address,uint256,bytes)": "infinite",
				"decimals()": "266",
				"erc20Inhibitor()": "infinite",
				"erc20PurchasableRate()": "infinite",
				"erc20PurchasableTime()": "2407",
				"erc20ToNativeSwap(uint256)": "infinite",
				"erc20ToNativeSwap(uint256,(uint256,uint8,bytes32,bytes32))": "infinite",
				"erc20ToNativeSwap(uint256,address)": "infinite",
				"erc20ToNativeSwap(uint256,address,(uint256,uint8,bytes32,bytes32))": "infinite",
				"getERC20ToNativePrice(uint256)": "infinite",
				"getNativeToERC20Price(uint256)": "infinite",
				"name()": "infinite",
				"nativeInhibitor()": "infinite",
				"nativePurchasableRate()": "infinite",
				"nativePurchasableTime()": "2404",
				"nativeToERC20Swap()": "infinite",
				"nativeToERC20Swap(address)": "infinite",
				"nonces(address)": "2631",
				"owner()": "2397",
				"permit(address,address,uint256,uint256,uint8,bytes32,bytes32)": "infinite",
				"purchasableERC20s()": "infinite",
				"purchasableNatives()": "infinite",
				"renounceOwnership()": "infinite",
				"symbol()": "infinite",
				"totalSupply()": "2381",
				"transfer(address,uint256)": "infinite",
				"transferFrom(address,address,uint256)": "infinite",
				"transferOwnership(address)": "28465"
			}
		},
		"methodIdentifiers": {
			"DOMAIN_SEPARATOR()": "3644e515",
			"allowance(address,address)": "dd62ed3e",
			"approve(address,uint256)": "095ea7b3",
			"asset()": "38d52e0f",
			"balanceOf(address)": "70a08231",
			"customCall(address,uint256,bytes)": "10ab2d01",
			"decimals()": "313ce567",
			"erc20Inhibitor()": "367ada10",
			"erc20PurchasableRate()": "3aeeade8",
			"erc20PurchasableTime()": "0f2a403f",
			"erc20ToNativeSwap(uint256)": "127d0409",
			"erc20ToNativeSwap(uint256,(uint256,uint8,bytes32,bytes32))": "19cdf284",
			"erc20ToNativeSwap(uint256,address)": "08e30698",
			"erc20ToNativeSwap(uint256,address,(uint256,uint8,bytes32,bytes32))": "de899d1f",
			"getERC20ToNativePrice(uint256)": "25d1782d",
			"getNativeToERC20Price(uint256)": "ea6b80b7",
			"name()": "06fdde03",
			"nativeInhibitor()": "ad330967",
			"nativePurchasableRate()": "4d016295",
			"nativePurchasableTime()": "421c6a8a",
			"nativeToERC20Swap()": "aea1e3d1",
			"nativeToERC20Swap(address)": "bc710575",
			"nonces(address)": "7ecebe00",
			"owner()": "8da5cb5b",
			"permit(address,address,uint256,uint256,uint8,bytes32,bytes32)": "d505accf",
			"purchasableERC20s()": "81f2d34e",
			"purchasableNatives()": "96a3958d",
			"renounceOwnership()": "715018a6",
			"symbol()": "95d89b41",
			"totalSupply()": "18160ddd",
			"transfer(address,uint256)": "a9059cbb",
			"transferFrom(address,address,uint256)": "23b872dd",
			"transferOwnership(address)": "f2fde38b"
		}
	},
	"abi": [
		{
			"inputs": [
				{
					"internalType": "address",
					"name": "owner",
					"type": "address"
				},
				{
					"internalType": "string",
					"name": "newName",
					"type": "string"
				},
				{
					"internalType": "string",
					"name": "newSymbol",
					"type": "string"
				}
			],
			"stateMutability": "nonpayable",
			"type": "constructor"
		},
		{
			"inputs": [],
			"name": "AllowanceOverflow",
			"type": "error"
		},
		{
			"inputs": [],
			"name": "AllowanceUnderflow",
			"type": "error"
		},
		{
			"inputs": [],
			"name": "InsufficientAllowance",
			"type": "error"
		},
		{
			"inputs": [],
			"name": "InsufficientBalance",
			"type": "error"
		},
		{
			"inputs": [],
			"name": "InvalidPermit",
			"type": "error"
		},
		{
			"inputs": [
				{
					"internalType": "address",
					"name": "owner",
					"type": "address"
				}
			],
			"name": "OwnableInvalidOwner",
			"type": "error"
		},
		{
			"inputs": [
				{
					"internalType": "address",
					"name": "account",
					"type": "address"
				}
			],
			"name": "OwnableUnauthorizedAccount",
			"type": "error"
		},
		{
			"inputs": [],
			"name": "Permit2AllowanceIsFixedAtInfinity",
			"type": "error"
		},
		{
			"inputs": [],
			"name": "PermitExpired",
			"type": "error"
		},
		{
			"inputs": [],
			"name": "TotalSupplyOverflow",
			"type": "error"
		},
		{
			"anonymous": false,
			"inputs": [
				{
					"indexed": true,
					"internalType": "address",
					"name": "owner",
					"type": "address"
				},
				{
					"indexed": true,
					"internalType": "address",
					"name": "spender",
					"type": "address"
				},
				{
					"indexed": false,
					"internalType": "uint256",
					"name": "amount",
					"type": "uint256"
				}
			],
			"name": "Approval",
			"type": "event"
		},
		{
			"anonymous": false,
			"inputs": [
				{
					"indexed": true,
					"internalType": "address",
					"name": "previousOwner",
					"type": "address"
				},
				{
					"indexed": true,
					"internalType": "address",
					"name": "newOwner",
					"type": "address"
				}
			],
			"name": "OwnershipTransferred",
			"type": "event"
		},
		{
			"anonymous": false,
			"inputs": [
				{
					"indexed": true,
					"internalType": "address",
					"name": "from",
					"type": "address"
				},
				{
					"indexed": true,
					"internalType": "address",
					"name": "to",
					"type": "address"
				},
				{
					"indexed": false,
					"internalType": "uint256",
					"name": "amount",
					"type": "uint256"
				}
			],
			"name": "Transfer",
			"type": "event"
		},
		{
			"inputs": [],
			"name": "DOMAIN_SEPARATOR",
			"outputs": [
				{
					"internalType": "bytes32",
					"name": "result",
					"type": "bytes32"
				}
			],
			"stateMutability": "view",
			"type": "function"
		},
		{
			"inputs": [
				{
					"internalType": "address",
					"name": "owner",
					"type": "address"
				},
				{
					"internalType": "address",
					"name": "spender",
					"type": "address"
				}
			],
			"name": "allowance",
			"outputs": [
				{
					"internalType": "uint256",
					"name": "result",
					"type": "uint256"
				}
			],
			"stateMutability": "view",
			"type": "function"
		},
		{
			"inputs": [
				{
					"internalType": "address",
					"name": "spender",
					"type": "address"
				},
				{
					"internalType": "uint256",
					"name": "amount",
					"type": "uint256"
				}
			],
			"name": "approve",
			"outputs": [
				{
					"internalType": "bool",
					"name": "",
					"type": "bool"
				}
			],
			"stateMutability": "nonpayable",
			"type": "function"
		},
		{
			"inputs": [],
			"name": "asset",
			"outputs": [
				{
					"internalType": "contract ERC20",
					"name": "",
					"type": "address"
				}
			],
			"stateMutability": "view",
			"type": "function"
		},
		{
			"inputs": [
				{
					"internalType": "address",
					"name": "owner",
					"type": "address"
				}
			],
			"name": "balanceOf",
			"outputs": [
				{
					"internalType": "uint256",
					"name": "result",
					"type": "uint256"
				}
			],
			"stateMutability": "view",
			"type": "function"
		},
		{
			"inputs": [
				{
					"internalType": "address",
					"name": "to",
					"type": "address"
				},
				{
					"internalType": "uint256",
					"name": "value",
					"type": "uint256"
				},
				{
					"internalType": "bytes",
					"name": "data",
					"type": "bytes"
				}
			],
			"name": "customCall",
			"outputs": [
				{
					"internalType": "bytes",
					"name": "",
					"type": "bytes"
				}
			],
			"stateMutability": "nonpayable",
			"type": "function"
		},
		{
			"inputs": [],
			"name": "decimals",
			"outputs": [
				{
					"internalType": "uint8",
					"name": "",
					"type": "uint8"
				}
			],
			"stateMutability": "view",
			"type": "function"
		},
		{
			"inputs": [],
			"name": "erc20Inhibitor",
			"outputs": [
				{
					"internalType": "uint128",
					"name": "",
					"type": "uint128"
				}
			],
			"stateMutability": "view",
			"type": "function"
		},
		{
			"inputs": [],
			"name": "erc20PurchasableRate",
			"outputs": [
				{
					"internalType": "uint128",
					"name": "",
					"type": "uint128"
				}
			],
			"stateMutability": "view",
			"type": "function"
		},
		{
			"inputs": [],
			"name": "erc20PurchasableTime",
			"outputs": [
				{
					"internalType": "uint256",
					"name": "",
					"type": "uint256"
				}
			],
			"stateMutability": "view",
			"type": "function"
		},
		{
			"inputs": [
				{
					"internalType": "uint256",
					"name": "erc20sSold",
					"type": "uint256"
				},
				{
					"internalType": "address",
					"name": "recipient",
					"type": "address"
				}
			],
			"name": "erc20ToNativeSwap",
			"outputs": [
				{
					"internalType": "uint256",
					"name": "nativesBought",
					"type": "uint256"
				}
			],
			"stateMutability": "nonpayable",
			"type": "function"
		},
		{
			"inputs": [
				{
					"internalType": "uint256",
					"name": "erc20sSold",
					"type": "uint256"
				}
			],
			"name": "erc20ToNativeSwap",
			"outputs": [
				{
					"internalType": "uint256",
					"name": "nativesBought",
					"type": "uint256"
				}
			],
			"stateMutability": "nonpayable",
			"type": "function"
		},
		{
			"inputs": [
				{
					"internalType": "uint256",
					"name": "erc20sSold",
					"type": "uint256"
				},
				{
					"components": [
						{
							"internalType": "uint256",
							"name": "deadline",
							"type": "uint256"
						},
						{
							"internalType": "uint8",
							"name": "v",
							"type": "uint8"
						},
						{
							"internalType": "bytes32",
							"name": "r",
							"type": "bytes32"
						},
						{
							"internalType": "bytes32",
							"name": "s",
							"type": "bytes32"
						}
					],
					"internalType": "struct Permit2Sig",
					"name": "sig",
					"type": "tuple"
				}
			],
			"name": "erc20ToNativeSwap",
			"outputs": [
				{
					"internalType": "uint256",
					"name": "nativesBought",
					"type": "uint256"
				}
			],
			"stateMutability": "nonpayable",
			"type": "function"
		},
		{
			"inputs": [
				{
					"internalType": "uint256",
					"name": "erc20sSold",
					"type": "uint256"
				},
				{
					"internalType": "address",
					"name": "recipient",
					"type": "address"
				},
				{
					"components": [
						{
							"internalType": "uint256",
							"name": "deadline",
							"type": "uint256"
						},
						{
							"internalType": "uint8",
							"name": "v",
							"type": "uint8"
						},
						{
							"internalType": "bytes32",
							"name": "r",
							"type": "bytes32"
						},
						{
							"internalType": "bytes32",
							"name": "s",
							"type": "bytes32"
						}
					],
					"internalType": "struct Permit2Sig",
					"name": "sig",
					"type": "tuple"
				}
			],
			"name": "erc20ToNativeSwap",
			"outputs": [
				{
					"internalType": "uint256",
					"name": "nativesBought",
					"type": "uint256"
				}
			],
			"stateMutability": "nonpayable",
			"type": "function"
		},
		{
			"inputs": [
				{
					"internalType": "uint256",
					"name": "erc20sSold",
					"type": "uint256"
				}
			],
			"name": "getERC20ToNativePrice",
			"outputs": [
				{
					"internalType": "uint256",
					"name": "nativesBought",
					"type": "uint256"
				}
			],
			"stateMutability": "view",
			"type": "function"
		},
		{
			"inputs": [
				{
					"internalType": "uint256",
					"name": "nativesSold",
					"type": "uint256"
				}
			],
			"name": "getNativeToERC20Price",
			"outputs": [
				{
					"internalType": "uint256",
					"name": "erc20sBought",
					"type": "uint256"
				}
			],
			"stateMutability": "view",
			"type": "function"
		},
		{
			"inputs": [],
			"name": "name",
			"outputs": [
				{
					"internalType": "string",
					"name": "",
					"type": "string"
				}
			],
			"stateMutability": "view",
			"type": "function"
		},
		{
			"inputs": [],
			"name": "nativeInhibitor",
			"outputs": [
				{
					"internalType": "uint128",
					"name": "",
					"type": "uint128"
				}
			],
			"stateMutability": "view",
			"type": "function"
		},
		{
			"inputs": [],
			"name": "nativePurchasableRate",
			"outputs": [
				{
					"internalType": "uint128",
					"name": "",
					"type": "uint128"
				}
			],
			"stateMutability": "view",
			"type": "function"
		},
		{
			"inputs": [],
			"name": "nativePurchasableTime",
			"outputs": [
				{
					"internalType": "uint256",
					"name": "",
					"type": "uint256"
				}
			],
			"stateMutability": "view",
			"type": "function"
		},
		{
			"inputs": [],
			"name": "nativeToERC20Swap",
			"outputs": [
				{
					"internalType": "uint256",
					"name": "erc20sBought",
					"type": "uint256"
				}
			],
			"stateMutability": "payable",
			"type": "function"
		},
		{
			"inputs": [
				{
					"internalType": "address",
					"name": "recipient",
					"type": "address"
				}
			],
			"name": "nativeToERC20Swap",
			"outputs": [
				{
					"internalType": "uint256",
					"name": "erc20sBought",
					"type": "uint256"
				}
			],
			"stateMutability": "payable",
			"type": "function"
		},
		{
			"inputs": [
				{
					"internalType": "address",
					"name": "owner",
					"type": "address"
				}
			],
			"name": "nonces",
			"outputs": [
				{
					"internalType": "uint256",
					"name": "result",
					"type": "uint256"
				}
			],
			"stateMutability": "view",
			"type": "function"
		},
		{
			"inputs": [],
			"name": "owner",
			"outputs": [
				{
					"internalType": "address",
					"name": "",
					"type": "address"
				}
			],
			"stateMutability": "view",
			"type": "function"
		},
		{
			"inputs": [
				{
					"internalType": "address",
					"name": "owner",
					"type": "address"
				},
				{
					"internalType": "address",
					"name": "spender",
					"type": "address"
				},
				{
					"internalType": "uint256",
					"name": "value",
					"type": "uint256"
				},
				{
					"internalType": "uint256",
					"name": "deadline",
					"type": "uint256"
				},
				{
					"internalType": "uint8",
					"name": "v",
					"type": "uint8"
				},
				{
					"internalType": "bytes32",
					"name": "r",
					"type": "bytes32"
				},
				{
					"internalType": "bytes32",
					"name": "s",
					"type": "bytes32"
				}
			],
			"name": "permit",
			"outputs": [],
			"stateMutability": "nonpayable",
			"type": "function"
		},
		{
			"inputs": [],
			"name": "purchasableERC20s",
			"outputs": [
				{
					"internalType": "uint256",
					"name": "",
					"type": "uint256"
				}
			],
			"stateMutability": "view",
			"type": "function"
		},
		{
			"inputs": [],
			"name": "purchasableNatives",
			"outputs": [
				{
					"internalType": "uint256",
					"name": "",
					"type": "uint256"
				}
			],
			"stateMutability": "view",
			"type": "function"
		},
		{
			"inputs": [],
			"name": "renounceOwnership",
			"outputs": [],
			"stateMutability": "nonpayable",
			"type": "function"
		},
		{
			"inputs": [],
			"name": "symbol",
			"outputs": [
				{
					"internalType": "string",
					"name": "",
					"type": "string"
				}
			],
			"stateMutability": "view",
			"type": "function"
		},
		{
			"inputs": [],
			"name": "totalSupply",
			"outputs": [
				{
					"internalType": "uint256",
					"name": "result",
					"type": "uint256"
				}
			],
			"stateMutability": "view",
			"type": "function"
		},
		{
			"inputs": [
				{
					"internalType": "address",
					"name": "to",
					"type": "address"
				},
				{
					"internalType": "uint256",
					"name": "amount",
					"type": "uint256"
				}
			],
			"name": "transfer",
			"outputs": [
				{
					"internalType": "bool",
					"name": "",
					"type": "bool"
				}
			],
			"stateMutability": "nonpayable",
			"type": "function"
		},
		{
			"inputs": [
				{
					"internalType": "address",
					"name": "from",
					"type": "address"
				},
				{
					"internalType": "address",
					"name": "to",
					"type": "address"
				},
				{
					"internalType": "uint256",
					"name": "amount",
					"type": "uint256"
				}
			],
			"name": "transferFrom",
			"outputs": [
				{
					"internalType": "bool",
					"name": "",
					"type": "bool"
				}
			],
			"stateMutability": "nonpayable",
			"type": "function"
		},
		{
			"inputs": [
				{
					"internalType": "address",
					"name": "newOwner",
					"type": "address"
				}
			],
			"name": "transferOwnership",
			"outputs": [],
			"stateMutability": "nonpayable",
			"type": "function"
		}
	]
}